###############################################################################
#
# IAR ANSI C/C++ Compiler V7.80.4.12462/W32 for ARM       12/Dec/2022  11:41:16
# Copyright 1999-2017 IAR Systems AB.
#
#    Cpu mode     =  thumb
#    Endian       =  little
#    Source file  =  
#        C:\Users\shaomingkun\Desktop\git\evolve5.0\2021sw\ECOM-5\Modules\RF_lib\CC_SPI.c
#    Command line =  
#        C:\Users\shaomingkun\Desktop\git\evolve5.0\2021sw\ECOM-5\Modules\RF_lib\CC_SPI.c
#        -D EFM32LG380F256 -D BSP_CORTEX_EFM32 -D DEBUG_EFM -D RF_MODULE_EXIST_
#        -lC
#        C:\Users\shaomingkun\Desktop\git\evolve5.0\2021sw\ECOM-5\Debug\List -o
#        C:\Users\shaomingkun\Desktop\git\evolve5.0\2021sw\ECOM-5\Debug\Obj
#        --debug --endian=little --cpu=Cortex-M3 -e --fpu=None --dlib_config
#        "C:\Program Files (x86)\IAR Systems\Embedded Workbench
#        7.5\arm\INC\c\DLib_Config_Normal.h" -I
#        C:\Users\shaomingkun\Desktop\git\evolve5.0\2021sw\ECOM-5\ -I
#        C:\Users\shaomingkun\Desktop\git\evolve5.0\2021sw\ECOM-5\Local\ -I
#        C:\Users\shaomingkun\Desktop\git\evolve5.0\2021sw\ECOM-5\Modules\ -I
#        C:\Users\shaomingkun\Desktop\git\evolve5.0\2021sw\ECOM-5\Modules\Utilities_Lib\
#        -I
#        C:\Users\shaomingkun\Desktop\git\evolve5.0\2021sw\ECOM-5\Modules\HAL_Lib\
#        -I
#        C:\Users\shaomingkun\Desktop\git\evolve5.0\2021sw\ECOM-5\Modules\LCB_Lib\
#        -I
#        C:\Users\shaomingkun\Desktop\git\evolve5.0\2021sw\ECOM-5\Modules\Eng_lib\
#        -I
#        C:\Users\shaomingkun\Desktop\git\evolve5.0\2021sw\ECOM-5\..\Modules\Eng_lib\
#        -I
#        C:\Users\shaomingkun\Desktop\git\evolve5.0\2021sw\ECOM-5\Modules\SystemConfig_Lib\
#        -I
#        C:\Users\shaomingkun\Desktop\git\evolve5.0\2021sw\ECOM-5\Modules\EFM32_lib\
#        -I
#        C:\Users\shaomingkun\Desktop\git\evolve5.0\2021sw\ECOM-5\Modules\EFM32_lib\drivers\
#        -I
#        C:\Users\shaomingkun\Desktop\git\evolve5.0\2021sw\ECOM-5\Modules\Program_lib\
#        -I
#        C:\Users\shaomingkun\Desktop\git\evolve5.0\2021sw\ECOM-5\Modules\RF_lib\
#        -I
#        C:\Users\shaomingkun\Desktop\git\evolve5.0\2021sw\ECOM-5\Modules\USB_lib\
#        -I
#        C:\Users\shaomingkun\Desktop\git\evolve5.0\2021sw\ECOM-5\Modules\USB_lib\usb\src\
#        -I
#        C:\Users\shaomingkun\Desktop\git\evolve5.0\2021sw\ECOM-5\Modules\USB_lib\usb\inc\
#        -I
#        C:\Users\shaomingkun\Desktop\git\evolve5.0\2021sw\ECOM-5\Modules\WiFi_lib\
#        -I
#        C:\Users\shaomingkun\Desktop\git\evolve5.0\2021sw\ECOM-5\Modules\EFM32_lib\Include\
#        -I
#        C:\Users\shaomingkun\Desktop\git\evolve5.0\2021sw\ECOM-5\Modules\EFM32_lib\emlib\inc\
#        -I
#        C:\Users\shaomingkun\Desktop\git\evolve5.0\2021sw\ECOM-5\Modules\EFM32_lib\emlib\src\
#        -I
#        C:\Users\shaomingkun\Desktop\git\evolve5.0\2021sw\ECOM-5\Modules\EFM32_lib\drivers\fatfs\src\
#        -I
#        C:\Users\shaomingkun\Desktop\git\evolve5.0\2021sw\ECOM-5\Modules\EFM32_lib\Device\EnergyMicro\EFM32LG\Include\
#        -I
#        C:\Users\shaomingkun\Desktop\git\evolve5.0\2021sw\ECOM-5\Modules\EFM32_lib\Device\EnergyMicro\EFM32LG\Source\
#        -I
#        C:\Users\shaomingkun\Desktop\git\evolve5.0\2021sw\ECOM-5\Modules\EFM32_lib\Device\EnergyMicro\EFM32LG\Source\IAR\
#        -Ohz
#    Locale       =  Chinese (Simplified)_China.936
#    List file    =  
#        C:\Users\shaomingkun\Desktop\git\evolve5.0\2021sw\ECOM-5\Debug\List\CC_SPI.lst
#    Object file  =  
#        C:\Users\shaomingkun\Desktop\git\evolve5.0\2021sw\ECOM-5\Debug\Obj\CC_SPI.o
#
###############################################################################

C:\Users\shaomingkun\Desktop\git\evolve5.0\2021sw\ECOM-5\Modules\RF_lib\CC_SPI.c
      1          //----------------------------------------------------------------------------
      2          //  Description:  This file contains functions that allow the MSP430 device to
      3          //  access the SPI interface of the CC1100/CC2500.  There are multiple
      4          //  instances of each function; the one to be compiled is selected by the
      5          //  system variable TI_CC_RF_SER_INTF, defined in "TI_CC_hardware_board.h".
      6          //
      7          //  MSP430/CC1100-2500 Interface Code Library v1.0
      8          //
      9          //  K. Quiring
     10          //  Texas Instruments, Inc.
     11          //  July 2006
     12          //  IAR Embedded Workbench v6.30
     13          //----------------------------------------------------------------------------
     14          #include "HAL_Lib.h"

  EFM32_PACK_START( 1 )
                    ^
"C:\Users\shaomingkun\Desktop\git\evolve5.0\2021sw\ECOM-5\Modules\USB_lib\usb\inc\em_usb.h",318  Warning[Pe1665]: 
          concatenation with "1)" in macro "EFM32_PACK_START" does not create a
          valid token

  EFM32_PACK_START( 1 )
  ^
"C:\Users\shaomingkun\Desktop\git\evolve5.0\2021sw\ECOM-5\Modules\USB_lib\usb\inc\em_usb.h",318  Warning[Pe1665]: 
          concatenation with ")" in macro "EFM32_PACK_START" does not create a
          valid token

  EFM32_PACK_START( 1 )
                    ^
"C:\Users\shaomingkun\Desktop\git\evolve5.0\2021sw\ECOM-5\Modules\USB_lib\usb\inc\em_usb.h",347  Warning[Pe1665]: 
          concatenation with "1)" in macro "EFM32_PACK_START" does not create a
          valid token

  EFM32_PACK_START( 1 )
  ^
"C:\Users\shaomingkun\Desktop\git\evolve5.0\2021sw\ECOM-5\Modules\USB_lib\usb\inc\em_usb.h",347  Warning[Pe1665]: 
          concatenation with ")" in macro "EFM32_PACK_START" does not create a
          valid token

  EFM32_PACK_START( 1 )
                    ^
"C:\Users\shaomingkun\Desktop\git\evolve5.0\2021sw\ECOM-5\Modules\USB_lib\usb\inc\em_usb.h",371  Warning[Pe1665]: 
          concatenation with "1)" in macro "EFM32_PACK_START" does not create a
          valid token

  EFM32_PACK_START( 1 )
  ^
"C:\Users\shaomingkun\Desktop\git\evolve5.0\2021sw\ECOM-5\Modules\USB_lib\usb\inc\em_usb.h",371  Warning[Pe1665]: 
          concatenation with ")" in macro "EFM32_PACK_START" does not create a
          valid token

  EFM32_PACK_START( 1 )
                    ^
"C:\Users\shaomingkun\Desktop\git\evolve5.0\2021sw\ECOM-5\Modules\USB_lib\usb\inc\em_usb.h",400  Warning[Pe1665]: 
          concatenation with "1)" in macro "EFM32_PACK_START" does not create a
          valid token

  EFM32_PACK_START( 1 )
  ^
"C:\Users\shaomingkun\Desktop\git\evolve5.0\2021sw\ECOM-5\Modules\USB_lib\usb\inc\em_usb.h",400  Warning[Pe1665]: 
          concatenation with ")" in macro "EFM32_PACK_START" does not create a
          valid token

  EFM32_PACK_START( 1 )
                    ^
"C:\Users\shaomingkun\Desktop\git\evolve5.0\2021sw\ECOM-5\Modules\USB_lib\usb\inc\em_usb.h",441  Warning[Pe1665]: 
          concatenation with "1)" in macro "EFM32_PACK_START" does not create a
          valid token

  EFM32_PACK_START( 1 )
  ^
"C:\Users\shaomingkun\Desktop\git\evolve5.0\2021sw\ECOM-5\Modules\USB_lib\usb\inc\em_usb.h",441  Warning[Pe1665]: 
          concatenation with ")" in macro "EFM32_PACK_START" does not create a
          valid token

  EFM32_PACK_START( 1 )
                    ^
"C:\Users\shaomingkun\Desktop\git\evolve5.0\2021sw\ECOM-5\Modules\USB_lib\usb\inc\em_usb.h",455  Warning[Pe1665]: 
          concatenation with "1)" in macro "EFM32_PACK_START" does not create a
          valid token

  EFM32_PACK_START( 1 )
  ^
"C:\Users\shaomingkun\Desktop\git\evolve5.0\2021sw\ECOM-5\Modules\USB_lib\usb\inc\em_usb.h",455  Warning[Pe1665]: 
          concatenation with ")" in macro "EFM32_PACK_START" does not create a
          valid token
     15          #include "CC_SPI.h"
     16          #include "CC1100_CC2500_Definition.h"
     17          
     18          static void CC_SPI_Wait(unsigned int cycles);
     19          static void CC_SPI_Bitbang_out(unsigned char value);
     20          static char CC_SPI_Bitbang_in(void);
     21          
     22          
     23          // Delay function. # of CPU cycles delayed is similar to "cycles". Specifically,
     24          // it's ((cycles-15) % 6) + 15.  Not exact, but gives a sense of the real-time
     25          // delay.  Also, if MCLK ~1MHz, "cycles" is similar to # of useconds delayed.
     26          static void CC_SPI_Wait(unsigned int cycles)
     27          {
     28              HAL_RF_Delay(cycles);
     29          }
     30          //setup SPI

   \                                 In section .text, align 2, keep-with-next
     31          void CC_SPI_Setup_SPI(void)
     32          {
     33              HAL_RF_Initial_IO();
   \                     CC_SPI_Setup_SPI: (+1)
   \   00000000   0x.... 0x....      B.W      HAL_RF_Initial_IO
     34          }
     35          #ifndef DMA_SPI
     36          // Output eight-bit value using selected bit-bang pins

   \                                 In section .text, align 2, keep-with-next
     37          static void CC_SPI_Bitbang_out(unsigned char value)
     38          {
   \                     CC_SPI_Bitbang_out: (+1)
   \   00000000   0xB538             PUSH     {R3-R5,LR}
   \   00000002   0x4604             MOV      R4,R0
     39              char x;
     40          
     41              for(x = 8; x > 0; x--)
   \   00000004   0x2508             MOVS     R5,#+8
     42              {
     43                  if(value & 0x80)
   \                     ??CC_SPI_Bitbang_out_0: (+1)
   \   00000006   0x0620             LSLS     R0,R4,#+24
   \   00000008   0xBF4C             ITE      MI 
   \   0000000A   0x2001             MOVMI    R0,#+1
   \   0000000C   0x2000             MOVPL    R0,#+0
     44                      HAL_RF_Set_SPI_BITBANG_SIMO(1);
     45                  else
     46                      HAL_RF_Set_SPI_BITBANG_SIMO(0);
   \   0000000E   0x.... 0x....      BL       HAL_RF_Set_SPI_BITBANG_SIMO
     47                  value = value << 1;
     48          
     49                  HAL_RF_Set_SPI_BITBANG_UCLK(0);
   \   00000012   0x.... 0x....      BL       ?Subroutine2
     50                  HAL_RF_Set_SPI_BITBANG_UCLK(0);
   \                     ??CrossCallReturnLabel_9: (+1)
   \   00000016   0x.... 0x....      BL       ?Subroutine2
     51                  HAL_RF_Set_SPI_BITBANG_UCLK(0);
   \                     ??CrossCallReturnLabel_8: (+1)
   \   0000001A   0x.... 0x....      BL       ?Subroutine2
     52                  HAL_RF_Set_SPI_BITBANG_UCLK(0);
   \                     ??CrossCallReturnLabel_7: (+1)
   \   0000001E   0x.... 0x....      BL       ?Subroutine2
     53                  HAL_RF_Set_SPI_BITBANG_UCLK(0);
   \                     ??CrossCallReturnLabel_6: (+1)
   \   00000022   0x.... 0x....      BL       ?Subroutine2
     54                  HAL_RF_Set_SPI_BITBANG_UCLK(1);
   \                     ??CrossCallReturnLabel_5: (+1)
   \   00000026   0x.... 0x....      BL       ?Subroutine4
     55                  HAL_RF_Set_SPI_BITBANG_UCLK(1);
   \                     ??CrossCallReturnLabel_22: (+1)
   \   0000002A   0x.... 0x....      BL       ?Subroutine4
     56                  HAL_RF_Set_SPI_BITBANG_UCLK(1);
   \                     ??CrossCallReturnLabel_21: (+1)
   \   0000002E   0x.... 0x....      BL       ?Subroutine4
     57              }
   \                     ??CrossCallReturnLabel_20: (+1)
   \   00000032   0x0064             LSLS     R4,R4,#+1
   \   00000034   0x1E6D             SUBS     R5,R5,#+1
   \   00000036   0xD1E6             BNE.N    ??CC_SPI_Bitbang_out_0
     58          }
   \   00000038   0xBD31             POP      {R0,R4,R5,PC}    ;; return

   \                                 In section .text, align 2, keep-with-next
   \                     ?Subroutine4: (+1)
   \   00000000   0x2001             MOVS     R0,#+1
   \   00000002   0x.... 0x....      B.W      HAL_RF_Set_SPI_BITBANG_UCLK

   \                                 In section .text, align 2, keep-with-next
   \                     ?Subroutine2: (+1)
   \   00000000   0x2000             MOVS     R0,#+0
   \   00000002   0x.... 0x....      B.W      HAL_RF_Set_SPI_BITBANG_UCLK
     59          // Input eight-bit value using selected bit-bang pins

   \                                 In section .text, align 2, keep-with-next
     60          static char CC_SPI_Bitbang_in(void)
     61          {
   \                     CC_SPI_Bitbang_in: (+1)
   \   00000000   0xB538             PUSH     {R3-R5,LR}
     62              char x = 0;
   \   00000002   0x2400             MOVS     R4,#+0
     63              int y=0;
     64          //    char shift = 0;
     65          //    x = HAL_RF_Get_SPI_BITBANG_SOMI_BIT();
     66          //    while(x > 1)
     67          //    {
     68          //        shift++;
     69          //        x = x >> 1;
     70          //    }
     71          //    x = 0;
     72              for(y = 8; y > 0; y--)
   \   00000004   0x2508             MOVS     R5,#+8
     73              {
     74                  HAL_RF_Set_SPI_BITBANG_UCLK(0);
   \                     ??CC_SPI_Bitbang_in_0: (+1)
   \   00000006   0x.... 0x....      BL       ?Subroutine2
     75                  HAL_RF_Set_SPI_BITBANG_UCLK(0);
   \                     ??CrossCallReturnLabel_4: (+1)
   \   0000000A   0x.... 0x....      BL       ?Subroutine2
     76                  HAL_RF_Set_SPI_BITBANG_UCLK(0);
   \                     ??CrossCallReturnLabel_3: (+1)
   \   0000000E   0x.... 0x....      BL       ?Subroutine2
     77                  HAL_RF_Set_SPI_BITBANG_UCLK(0);
   \                     ??CrossCallReturnLabel_2: (+1)
   \   00000012   0x.... 0x....      BL       ?Subroutine2
     78                  HAL_RF_Set_SPI_BITBANG_UCLK(0);
   \                     ??CrossCallReturnLabel_1: (+1)
   \   00000016   0x.... 0x....      BL       ?Subroutine2
     79                  HAL_RF_Set_SPI_BITBANG_UCLK(1);
   \                     ??CrossCallReturnLabel_0: (+1)
   \   0000001A   0x.... 0x....      BL       ?Subroutine4
     80                  HAL_RF_Set_SPI_BITBANG_UCLK(1);
   \                     ??CrossCallReturnLabel_19: (+1)
   \   0000001E   0x.... 0x....      BL       ?Subroutine4
     81                  HAL_RF_Set_SPI_BITBANG_UCLK(1);
   \                     ??CrossCallReturnLabel_18: (+1)
   \   00000022   0x.... 0x....      BL       ?Subroutine4
     82                  
     83                  x = x << 1;
     84                  x = x | HAL_RF_Get_SPI_BITBANG_SOMI();
   \                     ??CrossCallReturnLabel_17: (+1)
   \   00000026   0x.... 0x....      BL       HAL_RF_Get_SPI_BITBANG_SOMI
     85              }
   \   0000002A   0x1E6D             SUBS     R5,R5,#+1
   \   0000002C   0xEA40 0x0444      ORR      R4,R0,R4, LSL #+1
   \   00000030   0xD1E9             BNE.N    ??CC_SPI_Bitbang_in_0
     86              return (x);
   \   00000032   0xB2E0             UXTB     R0,R4
   \   00000034   0xBD32             POP      {R1,R4,R5,PC}    ;; return
     87          }
     88          #endif

   \                                 In section .bss, align 2
     89          UINT8 Trans_ADD_CMD[2];
   \                     Trans_ADD_CMD:
   \   00000000                      DS8 2

   \                                 In section .text, align 2, keep-with-next
     90          void CC_SPI_Write_Reg(char addr, char value)
     91          {
   \                     CC_SPI_Write_Reg: (+1)
   \   00000000   0xB570             PUSH     {R4-R6,LR}
   \   00000002   0x4604             MOV      R4,R0
   \   00000004   0x460D             MOV      R5,R1
     92              unsigned int w_Count = ERROR_BREAK_TIME;
     93          #ifdef DMA_SPI
     94              while(!HAL_DMA_Get_transferComplete()&&(w_Count--));
     95              
     96              Trans_ADD_CMD[0] = addr;
     97              Trans_ADD_CMD[1] = value;
     98              
     99              HAL_DMA_SPI_Transfer((uint8_t*)Trans_ADD_CMD, 2);
    100              int count_delay = 1000;
    101              while(count_delay--);
    102          #else
    103              HAL_RF_Set_SPI_BITBANG_CS(0);
   \   00000006   0x.... 0x....      BL       ??Subroutine3_0
   \                     ??CrossCallReturnLabel_14: (+1)
   \   0000000A   0xF641 0x3658      MOVW     R6,#+7000
    104              while(HAL_RF_Get_SPI_BITBANG_SOMI() && (w_Count--));
   \                     ??CC_SPI_Write_Reg_0: (+1)
   \   0000000E   0x.... 0x....      BL       HAL_RF_Get_SPI_BITBANG_SOMI
   \   00000012   0x2800             CMP      R0,#+0
   \   00000014   0xBF1E             ITTT     NE 
   \   00000016   0x4630             MOVNE    R0,R6
   \   00000018   0x1E46             SUBNE    R6,R0,#+1
   \   0000001A   0x2800             CMPNE    R0,#+0
   \   0000001C   0xD1F7             BNE.N    ??CC_SPI_Write_Reg_0
    105              
    106              CC_SPI_Bitbang_out(addr);            // Send address
   \   0000001E   0x4620             MOV      R0,R4
   \   00000020   0x.... 0x....      BL       CC_SPI_Bitbang_out
    107              CC_SPI_Bitbang_out(value);           // Send data
   \   00000024   0x4628             MOV      R0,R5
   \   00000026   0x.... 0x....      BL       CC_SPI_Bitbang_out
    108              
    109              HAL_RF_Set_SPI_BITBANG_CS(1);
   \   0000002A   0xE8BD 0x4070      POP      {R4-R6,LR}
   \   0000002E   0x....             B.N      ??Subroutine1_0
    110          #endif
    111          }

   \                                 In section .text, align 2, keep-with-next
   \                     ?Subroutine1: (+1)
   \   00000000   0xE8BD 0x40F2      POP      {R1,R4-R7,LR}
   \                     ??Subroutine1_0: (+1)
   \   00000004   0x2001             MOVS     R0,#+1
   \   00000006   0x.... 0x....      B.W      HAL_RF_Set_SPI_BITBANG_CS

   \                                 In section .text, align 2, keep-with-next
   \                     ?Subroutine3: (+1)
   \   00000000   0x4604             MOV      R4,R0
   \   00000002   0x460D             MOV      R5,R1
   \   00000004   0x4616             MOV      R6,R2
   \                     ??Subroutine3_0: (+1)
   \   00000006   0x2000             MOVS     R0,#+0
   \   00000008   0x.... 0x....      B.W      HAL_RF_Set_SPI_BITBANG_CS
    112          

   \                                 In section .bss, align 4
    113          char Trans_Buffer[70];
   \                     Trans_Buffer:
   \   00000000                      DS8 72

   \                                 In section .text, align 2, keep-with-next
    114          void CC_SPI_Write_Burst_Reg(char addr, char *buffer, char count)
    115          {
   \                     CC_SPI_Write_Burst_Reg: (+1)
   \   00000000   0xB5F8             PUSH     {R3-R7,LR}
   \   00000002   0x.... 0x....      BL       ?Subroutine3
    116              unsigned int w_Count = ERROR_BREAK_TIME;
    117          #ifdef DMA_SPI
    118              while(!HAL_DMA_Get_transferComplete()&&(w_Count--));
    119              
    120              Trans_Buffer[0]=addr|TI_CCxxx0_WRITE_BURST,
    121              memcpy(&Trans_Buffer[1],buffer,count);
    122              
    123              HAL_DMA_SPI_Transfer((uint8_t*)Trans_Buffer, count+1); 
    124              int count_delay = 1000;
    125              while(count_delay--);
    126          #else    
    127              char i;
    128              HAL_RF_Set_SPI_BITBANG_CS(0);
   \                     ??CrossCallReturnLabel_16: (+1)
   \   00000006   0xF641 0x3758      MOVW     R7,#+7000
    129              while(HAL_RF_Get_SPI_BITBANG_SOMI() && (w_Count--));
   \                     ??CC_SPI_Write_Burst_Reg_0: (+1)
   \   0000000A   0x.... 0x....      BL       HAL_RF_Get_SPI_BITBANG_SOMI
   \   0000000E   0x2800             CMP      R0,#+0
   \   00000010   0xBF1E             ITTT     NE 
   \   00000012   0x4638             MOVNE    R0,R7
   \   00000014   0x1E47             SUBNE    R7,R0,#+1
   \   00000016   0x2800             CMPNE    R0,#+0
   \   00000018   0xD1F7             BNE.N    ??CC_SPI_Write_Burst_Reg_0
    130          
    131              CC_SPI_Bitbang_out(addr | TI_CCxxx0_WRITE_BURST);   // Send address
   \   0000001A   0xF044 0x0040      ORR      R0,R4,#0x40
   \   0000001E   0x.... 0x....      BL       CC_SPI_Bitbang_out
    132              for (i = 0; i < count; i++)
   \   00000022   0x2400             MOVS     R4,#+0
   \   00000024   0xE004             B.N      ??CC_SPI_Write_Burst_Reg_1
    133                  CC_SPI_Bitbang_out(buffer[i]);     // Send data
   \                     ??CC_SPI_Write_Burst_Reg_2: (+1)
   \   00000026   0xB2E4             UXTB     R4,R4
   \   00000028   0x5D28             LDRB     R0,[R5, R4]
   \   0000002A   0x.... 0x....      BL       CC_SPI_Bitbang_out
   \   0000002E   0x1C64             ADDS     R4,R4,#+1
   \                     ??CC_SPI_Write_Burst_Reg_1: (+1)
   \   00000030   0xB2E0             UXTB     R0,R4
   \   00000032   0x42B0             CMP      R0,R6
   \   00000034   0xD3F7             BCC.N    ??CC_SPI_Write_Burst_Reg_2
    134          
    135              HAL_RF_Set_SPI_BITBANG_CS(1);
   \   00000036   0x....             B.N      ?Subroutine1
    136          #endif
    137          }
    138          

   \                                 In section .bss, align 1
    139          char CMD_ADD;
   \                     CMD_ADD:
   \   00000000                      DS8 1

   \                                 In section .bss, align 1
    140          char CMD_CLK = 0x00 ;
   \                     CMD_CLK:
   \   00000000                      DS8 1
    141          #define MAX_RX_LENGTH 75

   \                                 In section .bss, align 4
    142          char Receivebuffer[MAX_RX_LENGTH];
   \                     Receivebuffer:
   \   00000000                      DS8 76
    143          #ifdef DMA_SPI
    144          static char CCSPI_Get_RX_Valid_Start_Add(void)
    145          {
    146              struct{
    147               unsigned RX_IsPreChar    :1; 
    148               char Pre_RX_Index ;
    149               char RX_Index ; 
    150              }RX;
    151              
    152              //RX.Pre_RX_Index = MAX_RX_LENGTH ;
    153              RX.RX_Index = 0 ;
    154              RX.RX_IsPreChar = 0 ;
    155              while(1)
    156              {
    157                  if(Receivebuffer[RX.RX_Index]!=0x00&&RX.RX_IsPreChar)
    158                  {    
    159                      break;
    160                  }
    161                  if( Receivebuffer[RX.RX_Index] == 0x00 )
    162                  {
    163                      RX.RX_IsPreChar = 1 ;
    164                  }
    165                  RX.RX_Index++;
    166                  if(RX.RX_Index>=MAX_RX_LENGTH)
    167                  {
    168                      RX.RX_Index = MAX_RX_LENGTH ;
    169                      break;
    170                  }
    171              }
    172              return(RX.RX_Index);
    173          }    
    174          #endif

   \                                 In section .text, align 2, keep-with-next
    175          char CC_SPI_Read_Reg(char addr)
    176          {
   \                     CC_SPI_Read_Reg: (+1)
   \   00000000   0xB538             PUSH     {R3-R5,LR}
   \   00000002   0x4604             MOV      R4,R0
    177              char x=0;
    178              unsigned int w_Count = ERROR_BREAK_TIME;
    179          #ifdef DMA_SPI
    180              char Temp = 0;
    181              
    182              while(!HAL_DMA_Get_transferComplete()&&(w_Count--));
    183              
    184              Trans_ADD_CMD[0] = addr|TI_CCxxx0_READ_SINGLE;
    185              Trans_ADD_CMD[1] = 0x00;
    186              HAL_DMA_SPI_Transfer((uint8_t*)Trans_ADD_CMD, sizeof(Trans_ADD_CMD));
    187              
    188              memset(Receivebuffer, 0, sizeof(Receivebuffer));
    189              
    190              HAL_DMA_Set_RXBuffer_Length(MAX_RX_LENGTH);
    191              HAL_DMA_Receive((UINT8*)Receivebuffer,sizeof(Receivebuffer));
    192              
    193              int count_delay = 5000;
    194              while(count_delay--);
    195              
    196              Temp = CCSPI_Get_RX_Valid_Start_Add();
    197              if(Temp>=MAX_RX_LENGTH)
    198              {
    199                  return(0);
    200              }        
    201              else
    202              {
    203                  return(Receivebuffer[Temp]);
    204              }
    205              
    206          #else    
    207              HAL_RF_Set_SPI_BITBANG_CS(0);
   \   00000004   0x.... 0x....      BL       ??Subroutine3_0
   \                     ??CrossCallReturnLabel_13: (+1)
   \   00000008   0xF641 0x3558      MOVW     R5,#+7000
    208              while(HAL_RF_Get_SPI_BITBANG_SOMI() && (w_Count--)); //--------------------- add by liye
   \                     ??CC_SPI_Read_Reg_0: (+1)
   \   0000000C   0x.... 0x....      BL       HAL_RF_Get_SPI_BITBANG_SOMI
   \   00000010   0x2800             CMP      R0,#+0
   \   00000012   0xBF1E             ITTT     NE 
   \   00000014   0x4628             MOVNE    R0,R5
   \   00000016   0x1E45             SUBNE    R5,R0,#+1
   \   00000018   0x2800             CMPNE    R0,#+0
   \   0000001A   0xD1F7             BNE.N    ??CC_SPI_Read_Reg_0
    209              
    210              CC_SPI_Bitbang_out(addr | TI_CCxxx0_READ_SINGLE);//Send address
   \   0000001C   0xF044 0x0080      ORR      R0,R4,#0x80
   \   00000020   0x....             B.N      ?Subroutine0
    211              x = CC_SPI_Bitbang_in();               // Read data
    212              
    213              HAL_RF_Set_SPI_BITBANG_CS(1);
    214              
    215              return (x);
    216          #endif
    217              
    218          }

   \                                 In section .text, align 2, keep-with-next
   \                     ?Subroutine0: (+1)
   \   00000000   0x.... 0x....      BL       CC_SPI_Bitbang_out
   \   00000004   0x.... 0x....      BL       CC_SPI_Bitbang_in
   \   00000008   0x4604             MOV      R4,R0
   \   0000000A   0x2001             MOVS     R0,#+1
   \   0000000C   0x.... 0x....      BL       HAL_RF_Set_SPI_BITBANG_CS
   \   00000010   0x4620             MOV      R0,R4
   \   00000012   0xBD32             POP      {R1,R4,R5,PC}    ;; return
    219          

   \                                 In section .text, align 2, keep-with-next
    220          void CC_SPI_Read_Burst_Reg(char addr, char *buffer, char count)
    221          {
   \                     CC_SPI_Read_Burst_Reg: (+1)
   \   00000000   0xB5F8             PUSH     {R3-R7,LR}
   \   00000002   0x.... 0x....      BL       ?Subroutine3
    222              unsigned int w_Count = ERROR_BREAK_TIME;
    223          #ifdef DMA_SPI
    224              char Vilad_Start_Add;
    225              memset(Trans_Buffer, 0, sizeof(Trans_Buffer));
    226              
    227              while(!HAL_DMA_Get_transferComplete()&&(w_Count--));
    228               
    229              Trans_Buffer[0]=addr | TI_CCxxx0_READ_BURST;
    230              
    231              HAL_DMA_SPI_Transfer((uint8_t*)Trans_Buffer, count+1);
    232              
    233              memset(Receivebuffer, 0, sizeof(Receivebuffer));
    234              
    235              HAL_DMA_Receive((UINT8*)Receivebuffer,count);
    236              
    237              int count_delay = 60000;
    238              while(count_delay--);
    239              
    240              if(CCSPI_Get_RX_Valid_Start_Add()>=MAX_RX_LENGTH)
    241              {
    242                  memset(buffer, 0, count);
    243              }        
    244              else
    245              {
    246                  memcpy(buffer,&Receivebuffer[CCSPI_Get_RX_Valid_Start_Add()],count); 
    247              }
    248              
    249          #else 
    250              char i;
    251              
    252              HAL_RF_Set_SPI_BITBANG_CS(0);
   \                     ??CrossCallReturnLabel_15: (+1)
   \   00000006   0xF641 0x3758      MOVW     R7,#+7000
    253              while(HAL_RF_Get_SPI_BITBANG_SOMI() && w_Count--);
   \                     ??CC_SPI_Read_Burst_Reg_0: (+1)
   \   0000000A   0x.... 0x....      BL       HAL_RF_Get_SPI_BITBANG_SOMI
   \   0000000E   0x2800             CMP      R0,#+0
   \   00000010   0xBF1E             ITTT     NE 
   \   00000012   0x4638             MOVNE    R0,R7
   \   00000014   0x1E47             SUBNE    R7,R0,#+1
   \   00000016   0x2800             CMPNE    R0,#+0
   \   00000018   0xD1F7             BNE.N    ??CC_SPI_Read_Burst_Reg_0
    254          
    255              CC_SPI_Bitbang_out(addr | TI_CCxxx0_READ_BURST);    // Send address
   \   0000001A   0xF044 0x00C0      ORR      R0,R4,#0xC0
   \   0000001E   0x.... 0x....      BL       CC_SPI_Bitbang_out
    256              for (i = 0; i < count; i++)
   \   00000022   0x2400             MOVS     R4,#+0
   \   00000024   0xE004             B.N      ??CC_SPI_Read_Burst_Reg_1
    257                  buffer[i] = CC_SPI_Bitbang_in();     // Read data
   \                     ??CC_SPI_Read_Burst_Reg_2: (+1)
   \   00000026   0x.... 0x....      BL       CC_SPI_Bitbang_in
   \   0000002A   0xB2E4             UXTB     R4,R4
   \   0000002C   0x5528             STRB     R0,[R5, R4]
   \   0000002E   0x1C64             ADDS     R4,R4,#+1
   \                     ??CC_SPI_Read_Burst_Reg_1: (+1)
   \   00000030   0xB2E0             UXTB     R0,R4
   \   00000032   0x42B0             CMP      R0,R6
   \   00000034   0xD3F7             BCC.N    ??CC_SPI_Read_Burst_Reg_2
    258          
    259              HAL_RF_Set_SPI_BITBANG_CS(1);
   \   00000036                      REQUIRE ?Subroutine1
   \   00000036                      ;; // Fall through to label ?Subroutine1
    260          #endif
    261          }
    262          

   \                                 In section .bss, align 4
    263          char TEST_CMD[4] ;
   \                     TEST_CMD:
   \   00000000                      DS8 4

   \                                 In section .text, align 2, keep-with-next
    264          char CC_SPI_Read_Status(char addr)
    265          {
   \                     CC_SPI_Read_Status: (+1)
   \   00000000   0xB538             PUSH     {R3-R5,LR}
   \   00000002   0x4604             MOV      R4,R0
    266              unsigned int w_Count = ERROR_BREAK_TIME;
    267              
    268          #ifdef DMA_SPI 
    269              while(!HAL_DMA_Get_transferComplete()&&(w_Count--));
    270              
    271              Trans_ADD_CMD[0] = addr|TI_CCxxx0_READ_BURST;
    272              Trans_ADD_CMD[1] = 0x00;
    273              HAL_DMA_SPI_Transfer((uint8_t*)Trans_ADD_CMD, sizeof(Trans_ADD_CMD));
    274              memset(Receivebuffer, 0, sizeof(Receivebuffer));
    275              
    276              HAL_DMA_Set_RXBuffer_Length(75);
    277              
    278              HAL_DMA_Receive((UINT8*)Receivebuffer,sizeof(Receivebuffer));
    279              
    280              int count_delay = 1000;
    281              while(count_delay--);
    282              
    283              if(CCSPI_Get_RX_Valid_Start_Add()>=MAX_RX_LENGTH)
    284              {
    285                  return(0);
    286              }        
    287              else
    288              {
    289                  return(Receivebuffer[CCSPI_Get_RX_Valid_Start_Add()]);
    290              }
    291          #else 
    292              char x=0;
    293              HAL_RF_Set_SPI_BITBANG_CS(0);
   \   00000004   0x.... 0x....      BL       ??Subroutine3_0
   \                     ??CrossCallReturnLabel_12: (+1)
   \   00000008   0xF641 0x3558      MOVW     R5,#+7000
    294              while(HAL_RF_Get_SPI_BITBANG_SOMI() && w_Count--);
   \                     ??CC_SPI_Read_Status_0: (+1)
   \   0000000C   0x.... 0x....      BL       HAL_RF_Get_SPI_BITBANG_SOMI
   \   00000010   0x2800             CMP      R0,#+0
   \   00000012   0xBF1E             ITTT     NE 
   \   00000014   0x4628             MOVNE    R0,R5
   \   00000016   0x1E45             SUBNE    R5,R0,#+1
   \   00000018   0x2800             CMPNE    R0,#+0
   \   0000001A   0xD1F7             BNE.N    ??CC_SPI_Read_Status_0
    295              
    296              CC_SPI_Bitbang_out(addr | TI_CCxxx0_READ_BURST);      // Send address
   \   0000001C   0xF044 0x00C0      ORR      R0,R4,#0xC0
   \   00000020                      REQUIRE ?Subroutine0
   \   00000020                      ;; // Fall through to label ?Subroutine0
    297              x = CC_SPI_Bitbang_in();               // Read data
    298              
    299              HAL_RF_Set_SPI_BITBANG_CS(1);
    300              return x;
    301          #endif
    302              
    303          }
    304          

   \                                 In section .text, align 2, keep-with-next
    305          void CC_SPI_Strobe(char strobe)
    306          {
   \                     CC_SPI_Strobe: (+1)
   \   00000000   0xB538             PUSH     {R3-R5,LR}
   \   00000002   0x4604             MOV      R4,R0
    307              unsigned int w_Count = ERROR_BREAK_COUNT;
    308          #ifdef DMA_SPI 
    309              while(!HAL_DMA_Get_transferComplete()&&(w_Count--));
    310              
    311              CMD_ADD = strobe ;
    312              
    313              HAL_DMA_SPI_Transfer((uint8_t*)(&CMD_ADD), 1);
    314          #else
    315              
    316              HAL_RF_Set_SPI_BITBANG_CS(0);
   \   00000004   0x.... 0x....      BL       ??Subroutine3_0
   \                     ??CrossCallReturnLabel_11: (+1)
   \   00000008   0x25C8             MOVS     R5,#+200
    317              while(HAL_RF_Get_SPI_BITBANG_SOMI() && w_Count--);
   \                     ??CC_SPI_Strobe_0: (+1)
   \   0000000A   0x.... 0x....      BL       HAL_RF_Get_SPI_BITBANG_SOMI
   \   0000000E   0x2800             CMP      R0,#+0
   \   00000010   0xBF1E             ITTT     NE 
   \   00000012   0x4628             MOVNE    R0,R5
   \   00000014   0x1E45             SUBNE    R5,R0,#+1
   \   00000016   0x2800             CMPNE    R0,#+0
   \   00000018   0xD1F7             BNE.N    ??CC_SPI_Strobe_0
    318          
    319              CC_SPI_Bitbang_out(strobe);            // Send strobe
   \   0000001A   0x4620             MOV      R0,R4
   \   0000001C   0x.... 0x....      BL       CC_SPI_Bitbang_out
    320          
    321              HAL_RF_Set_SPI_BITBANG_CS(1);
   \   00000020   0xE8BD 0x4032      POP      {R1,R4,R5,LR}
   \   00000024   0x....             B.N      ??Subroutine1_0
    322          #endif
    323          }
    324          
    325          

   \                                 In section .text, align 2, keep-with-next
    326          void CC_PowerupResetCCxxxx(void)
    327          {
    328              unsigned int w_Count = ERROR_BREAK_TIME;
    329          #ifdef DMA_SPI 
    330              // Sec. 27.1 of CC1100 datasheet
    331              //HAL_RF_Set_SPI_BITBANG_CS(1);
    332          
    333              CC_SPI_Wait(30);
    334          
    335              //HAL_RF_Set_SPI_BITBANG_CS(0);
    336          
    337              CC_SPI_Wait(30);
    338          
    339              //HAL_RF_Set_SPI_BITBANG_CS(1);
    340          
    341              CC_SPI_Wait(45);
    342              
    343              while(!HAL_DMA_Get_transferComplete()&&(w_Count--));
    344              
    345              CMD_ADD = TI_CCxxx0_SRES ; 
    346              HAL_DMA_SPI_Transfer((uint8_t*)(&CMD_ADD), 1); 
    347          #else
    348              // Sec. 27.1 of CC1100 datasheet
    349              HAL_RF_Set_SPI_BITBANG_CS(1);
   \                     CC_PowerupResetCCxxxx: (+1)
   \   00000000   0x2001             MOVS     R0,#+1
   \   00000002   0xB538             PUSH     {R3-R5,LR}
   \   00000004   0x.... 0x....      BL       HAL_RF_Set_SPI_BITBANG_CS
    350          
    351              CC_SPI_Wait(30);
   \   00000008   0x201E             MOVS     R0,#+30
   \   0000000A   0x.... 0x....      BL       HAL_RF_Delay
    352          
    353              HAL_RF_Set_SPI_BITBANG_CS(0);
   \   0000000E   0x.... 0x....      BL       ??Subroutine3_0
    354          
    355              CC_SPI_Wait(30);
   \                     ??CrossCallReturnLabel_10: (+1)
   \   00000012   0x201E             MOVS     R0,#+30
   \   00000014   0x.... 0x....      BL       HAL_RF_Delay
    356          
    357              HAL_RF_Set_SPI_BITBANG_CS(1);
   \   00000018   0x2001             MOVS     R0,#+1
   \   0000001A   0x.... 0x....      BL       HAL_RF_Set_SPI_BITBANG_CS
    358          
    359              CC_SPI_Wait(45);
   \   0000001E   0x202D             MOVS     R0,#+45
   \   00000020   0x.... 0x....      BL       HAL_RF_Delay
    360              
    361              HAL_RF_Set_SPI_BITBANG_CS(0);
   \   00000024   0x2000             MOVS     R0,#+0
   \   00000026   0xF641 0x3458      MOVW     R4,#+7000
   \   0000002A   0x.... 0x....      BL       HAL_RF_Set_SPI_BITBANG_CS
   \   0000002E   0x4625             MOV      R5,R4
    362              while(HAL_RF_Get_SPI_BITBANG_SOMI() && w_Count--);
   \                     ??CC_PowerupResetCCxxxx_0: (+1)
   \   00000030   0x.... 0x....      BL       HAL_RF_Get_SPI_BITBANG_SOMI
   \   00000034   0x2800             CMP      R0,#+0
   \   00000036   0xBF1E             ITTT     NE 
   \   00000038   0x4628             MOVNE    R0,R5
   \   0000003A   0x1E45             SUBNE    R5,R0,#+1
   \   0000003C   0x2800             CMPNE    R0,#+0
   \   0000003E   0xD1F7             BNE.N    ??CC_PowerupResetCCxxxx_0
    363          
    364              CC_SPI_Bitbang_out(TI_CCxxx0_SRES);
   \   00000040   0x2030             MOVS     R0,#+48
   \   00000042   0x.... 0x....      BL       CC_SPI_Bitbang_out
    365          
    366              w_Count = ERROR_BREAK_TIME;
    367              while(HAL_RF_Get_SPI_BITBANG_SOMI() && w_Count--);
   \                     ??CC_PowerupResetCCxxxx_1: (+1)
   \   00000046   0x.... 0x....      BL       HAL_RF_Get_SPI_BITBANG_SOMI
   \   0000004A   0x2800             CMP      R0,#+0
   \   0000004C   0xBF1E             ITTT     NE 
   \   0000004E   0x4620             MOVNE    R0,R4
   \   00000050   0x1E44             SUBNE    R4,R0,#+1
   \   00000052   0x2800             CMPNE    R0,#+0
   \   00000054   0xD1F7             BNE.N    ??CC_PowerupResetCCxxxx_1
    368          
    369              HAL_RF_Set_SPI_BITBANG_CS(1);
   \   00000056   0xE8BD 0x4032      POP      {R1,R4,R5,LR}
   \   0000005A   0x....             B.N      ??Subroutine1_0
    370          #endif
    371          }
    372          

   Maximum stack usage in bytes:

   .cstack Function
   ------- --------
      16   CC_PowerupResetCCxxxx
        16   -> CC_SPI_Bitbang_out
        16   -> HAL_RF_Delay
        16   -> HAL_RF_Get_SPI_BITBANG_SOMI
         0   -> HAL_RF_Set_SPI_BITBANG_CS
        16   -> HAL_RF_Set_SPI_BITBANG_CS
      16   CC_SPI_Bitbang_in
        16   -> HAL_RF_Get_SPI_BITBANG_SOMI
        16   -> HAL_RF_Set_SPI_BITBANG_UCLK
      16   CC_SPI_Bitbang_out
        16   -> HAL_RF_Set_SPI_BITBANG_SIMO
        16   -> HAL_RF_Set_SPI_BITBANG_UCLK
      24   CC_SPI_Read_Burst_Reg
        24   -> CC_SPI_Bitbang_in
        24   -> CC_SPI_Bitbang_out
        24   -> HAL_RF_Get_SPI_BITBANG_SOMI
         0   -> HAL_RF_Set_SPI_BITBANG_CS
        24   -> HAL_RF_Set_SPI_BITBANG_CS
      16   CC_SPI_Read_Reg
        16   -> CC_SPI_Bitbang_in
        16   -> CC_SPI_Bitbang_out
        16   -> HAL_RF_Get_SPI_BITBANG_SOMI
        16   -> HAL_RF_Set_SPI_BITBANG_CS
      16   CC_SPI_Read_Status
        16   -> CC_SPI_Bitbang_in
        16   -> CC_SPI_Bitbang_out
        16   -> HAL_RF_Get_SPI_BITBANG_SOMI
        16   -> HAL_RF_Set_SPI_BITBANG_CS
       0   CC_SPI_Setup_SPI
         0   -> HAL_RF_Initial_IO
      16   CC_SPI_Strobe
        16   -> CC_SPI_Bitbang_out
        16   -> HAL_RF_Get_SPI_BITBANG_SOMI
         0   -> HAL_RF_Set_SPI_BITBANG_CS
        16   -> HAL_RF_Set_SPI_BITBANG_CS
      24   CC_SPI_Write_Burst_Reg
        24   -> CC_SPI_Bitbang_out
        24   -> HAL_RF_Get_SPI_BITBANG_SOMI
         0   -> HAL_RF_Set_SPI_BITBANG_CS
        24   -> HAL_RF_Set_SPI_BITBANG_CS
      16   CC_SPI_Write_Reg
        16   -> CC_SPI_Bitbang_out
        16   -> HAL_RF_Get_SPI_BITBANG_SOMI
         0   -> HAL_RF_Set_SPI_BITBANG_CS
        16   -> HAL_RF_Set_SPI_BITBANG_CS


   Section sizes:

   Bytes  Function/Label
   -----  --------------
      20  ?Subroutine0
      10  ?Subroutine1
       6  ?Subroutine2
      12  ?Subroutine3
       6  ?Subroutine4
      92  CC_PowerupResetCCxxxx
      54  CC_SPI_Bitbang_in
      58  CC_SPI_Bitbang_out
      54  CC_SPI_Read_Burst_Reg
      34  CC_SPI_Read_Reg
      32  CC_SPI_Read_Status
       4  CC_SPI_Setup_SPI
      38  CC_SPI_Strobe
      56  CC_SPI_Write_Burst_Reg
      48  CC_SPI_Write_Reg
       1  CMD_ADD
       1  CMD_CLK
      76  Receivebuffer
       4  TEST_CMD
       2  Trans_ADD_CMD
      72  Trans_Buffer

 
 156 bytes in section .bss
 524 bytes in section .text
 
 524 bytes of CODE memory
 156 bytes of DATA memory

Errors: none
Warnings: 12
