###############################################################################
#
# IAR ELF Linker V7.80.4.12462/W32 for ARM                05/Jan/2023  17:59:16
# Copyright 2007-2017 IAR Systems AB.
#
#    Output file  =  
#        C:\Users\shaomingkun\Desktop\git\evolve5.0\2021sw\ECOM-5\Debug\Exe\ECOM.out.tmp
#    Map file     =  
#        C:\Users\shaomingkun\Desktop\git\evolve5.0\2021sw\ECOM-5\Debug\List\ECOM.map
#    Command line =  
#        C:\Users\shaomingkun\Desktop\git\evolve5.0\2021sw\ECOM-5\Debug\Obj\Auto_Model.o
#        C:\Users\shaomingkun\Desktop\git\evolve5.0\2021sw\ECOM-5\Debug\Obj\Bluetooth_lib.o
#        C:\Users\shaomingkun\Desktop\git\evolve5.0\2021sw\ECOM-5\Debug\Obj\CC1100_CC2500.o
#        C:\Users\shaomingkun\Desktop\git\evolve5.0\2021sw\ECOM-5\Debug\Obj\CC_SPI.o
#        C:\Users\shaomingkun\Desktop\git\evolve5.0\2021sw\ECOM-5\Debug\Obj\CRC.o
#        C:\Users\shaomingkun\Desktop\git\evolve5.0\2021sw\ECOM-5\Debug\Obj\Data_Process.o
#        C:\Users\shaomingkun\Desktop\git\evolve5.0\2021sw\ECOM-5\Debug\Obj\Digital_CMD.o
#        C:\Users\shaomingkun\Desktop\git\evolve5.0\2021sw\ECOM-5\Debug\Obj\Display.o
#        C:\Users\shaomingkun\Desktop\git\evolve5.0\2021sw\ECOM-5\Debug\Obj\em_acmp.o
#        C:\Users\shaomingkun\Desktop\git\evolve5.0\2021sw\ECOM-5\Debug\Obj\em_adc.o
#        C:\Users\shaomingkun\Desktop\git\evolve5.0\2021sw\ECOM-5\Debug\Obj\em_aes.o
#        C:\Users\shaomingkun\Desktop\git\evolve5.0\2021sw\ECOM-5\Debug\Obj\em_assert.o
#        C:\Users\shaomingkun\Desktop\git\evolve5.0\2021sw\ECOM-5\Debug\Obj\em_burtc.o
#        C:\Users\shaomingkun\Desktop\git\evolve5.0\2021sw\ECOM-5\Debug\Obj\em_cmu.o
#        C:\Users\shaomingkun\Desktop\git\evolve5.0\2021sw\ECOM-5\Debug\Obj\em_dac.o
#        C:\Users\shaomingkun\Desktop\git\evolve5.0\2021sw\ECOM-5\Debug\Obj\em_dbg.o
#        C:\Users\shaomingkun\Desktop\git\evolve5.0\2021sw\ECOM-5\Debug\Obj\em_dma.o
#        C:\Users\shaomingkun\Desktop\git\evolve5.0\2021sw\ECOM-5\Debug\Obj\em_ebi.o
#        C:\Users\shaomingkun\Desktop\git\evolve5.0\2021sw\ECOM-5\Debug\Obj\em_emu.o
#        C:\Users\shaomingkun\Desktop\git\evolve5.0\2021sw\ECOM-5\Debug\Obj\em_gpio.o
#        C:\Users\shaomingkun\Desktop\git\evolve5.0\2021sw\ECOM-5\Debug\Obj\em_i2c.o
#        C:\Users\shaomingkun\Desktop\git\evolve5.0\2021sw\ECOM-5\Debug\Obj\em_int.o
#        C:\Users\shaomingkun\Desktop\git\evolve5.0\2021sw\ECOM-5\Debug\Obj\em_lcd.o
#        C:\Users\shaomingkun\Desktop\git\evolve5.0\2021sw\ECOM-5\Debug\Obj\em_lesense.o
#        C:\Users\shaomingkun\Desktop\git\evolve5.0\2021sw\ECOM-5\Debug\Obj\em_letimer.o
#        C:\Users\shaomingkun\Desktop\git\evolve5.0\2021sw\ECOM-5\Debug\Obj\em_leuart.o
#        C:\Users\shaomingkun\Desktop\git\evolve5.0\2021sw\ECOM-5\Debug\Obj\em_mpu.o
#        C:\Users\shaomingkun\Desktop\git\evolve5.0\2021sw\ECOM-5\Debug\Obj\em_msc.o
#        C:\Users\shaomingkun\Desktop\git\evolve5.0\2021sw\ECOM-5\Debug\Obj\em_opamp.o
#        C:\Users\shaomingkun\Desktop\git\evolve5.0\2021sw\ECOM-5\Debug\Obj\em_pcnt.o
#        C:\Users\shaomingkun\Desktop\git\evolve5.0\2021sw\ECOM-5\Debug\Obj\em_prs.o
#        C:\Users\shaomingkun\Desktop\git\evolve5.0\2021sw\ECOM-5\Debug\Obj\em_rmu.o
#        C:\Users\shaomingkun\Desktop\git\evolve5.0\2021sw\ECOM-5\Debug\Obj\em_rtc.o
#        C:\Users\shaomingkun\Desktop\git\evolve5.0\2021sw\ECOM-5\Debug\Obj\em_system.o
#        C:\Users\shaomingkun\Desktop\git\evolve5.0\2021sw\ECOM-5\Debug\Obj\em_timer.o
#        C:\Users\shaomingkun\Desktop\git\evolve5.0\2021sw\ECOM-5\Debug\Obj\em_usart.o
#        C:\Users\shaomingkun\Desktop\git\evolve5.0\2021sw\ECOM-5\Debug\Obj\em_usbdch9.o
#        C:\Users\shaomingkun\Desktop\git\evolve5.0\2021sw\ECOM-5\Debug\Obj\em_usbdep.o
#        C:\Users\shaomingkun\Desktop\git\evolve5.0\2021sw\ECOM-5\Debug\Obj\em_usbh.o
#        C:\Users\shaomingkun\Desktop\git\evolve5.0\2021sw\ECOM-5\Debug\Obj\em_usbhal.o
#        C:\Users\shaomingkun\Desktop\git\evolve5.0\2021sw\ECOM-5\Debug\Obj\em_usbhep.o
#        C:\Users\shaomingkun\Desktop\git\evolve5.0\2021sw\ECOM-5\Debug\Obj\em_usbhint.o
#        C:\Users\shaomingkun\Desktop\git\evolve5.0\2021sw\ECOM-5\Debug\Obj\em_usbtimer.o
#        C:\Users\shaomingkun\Desktop\git\evolve5.0\2021sw\ECOM-5\Debug\Obj\em_vcmp.o
#        C:\Users\shaomingkun\Desktop\git\evolve5.0\2021sw\ECOM-5\Debug\Obj\em_wdog.o
#        C:\Users\shaomingkun\Desktop\git\evolve5.0\2021sw\ECOM-5\Debug\Obj\Engmode.o
#        C:\Users\shaomingkun\Desktop\git\evolve5.0\2021sw\ECOM-5\Debug\Obj\Events_Handler.o
#        C:\Users\shaomingkun\Desktop\git\evolve5.0\2021sw\ECOM-5\Debug\Obj\ff.o
#        C:\Users\shaomingkun\Desktop\git\evolve5.0\2021sw\ECOM-5\Debug\Obj\ftms.o
#        C:\Users\shaomingkun\Desktop\git\evolve5.0\2021sw\ECOM-5\Debug\Obj\ftms_iface.o
#        C:\Users\shaomingkun\Desktop\git\evolve5.0\2021sw\ECOM-5\Debug\Obj\HAL_Lib.o
#        C:\Users\shaomingkun\Desktop\git\evolve5.0\2021sw\ECOM-5\Debug\Obj\HT1621.o
#        C:\Users\shaomingkun\Desktop\git\evolve5.0\2021sw\ECOM-5\Debug\Obj\Incline_Count.o
#        C:\Users\shaomingkun\Desktop\git\evolve5.0\2021sw\ECOM-5\Debug\Obj\LCB.o
#        C:\Users\shaomingkun\Desktop\git\evolve5.0\2021sw\ECOM-5\Debug\Obj\LED.o
#        C:\Users\shaomingkun\Desktop\git\evolve5.0\2021sw\ECOM-5\Debug\Obj\main.o
#        C:\Users\shaomingkun\Desktop\git\evolve5.0\2021sw\ECOM-5\Debug\Obj\Midware_Heart_01.o
#        C:\Users\shaomingkun\Desktop\git\evolve5.0\2021sw\ECOM-5\Debug\Obj\msdbot.o
#        C:\Users\shaomingkun\Desktop\git\evolve5.0\2021sw\ECOM-5\Debug\Obj\msddiskio.o
#        C:\Users\shaomingkun\Desktop\git\evolve5.0\2021sw\ECOM-5\Debug\Obj\msdh.o
#        C:\Users\shaomingkun\Desktop\git\evolve5.0\2021sw\ECOM-5\Debug\Obj\msdscsi.o
#        C:\Users\shaomingkun\Desktop\git\evolve5.0\2021sw\ECOM-5\Debug\Obj\Page.o
#        C:\Users\shaomingkun\Desktop\git\evolve5.0\2021sw\ECOM-5\Debug\Obj\Pro_constant.o
#        C:\Users\shaomingkun\Desktop\git\evolve5.0\2021sw\ECOM-5\Debug\Obj\Pro_Custom.o
#        C:\Users\shaomingkun\Desktop\git\evolve5.0\2021sw\ECOM-5\Debug\Obj\Pro_CustomHr.o
#        C:\Users\shaomingkun\Desktop\git\evolve5.0\2021sw\ECOM-5\Debug\Obj\Pro_goal.o
#        C:\Users\shaomingkun\Desktop\git\evolve5.0\2021sw\ECOM-5\Debug\Obj\Pro_hrc.o
#        C:\Users\shaomingkun\Desktop\git\evolve5.0\2021sw\ECOM-5\Debug\Obj\Pro_manual.o
#        C:\Users\shaomingkun\Desktop\git\evolve5.0\2021sw\ECOM-5\Debug\Obj\Pro_MyFirst5k.o
#        C:\Users\shaomingkun\Desktop\git\evolve5.0\2021sw\ECOM-5\Debug\Obj\Pro_table.o
#        C:\Users\shaomingkun\Desktop\git\evolve5.0\2021sw\ECOM-5\Debug\Obj\Programs.o
#        C:\Users\shaomingkun\Desktop\git\evolve5.0\2021sw\ECOM-5\Debug\Obj\ProSprint8.o
#        C:\Users\shaomingkun\Desktop\git\evolve5.0\2021sw\ECOM-5\Debug\Obj\Remote_asset.o
#        C:\Users\shaomingkun\Desktop\git\evolve5.0\2021sw\ECOM-5\Debug\Obj\Remote_control.o
#        C:\Users\shaomingkun\Desktop\git\evolve5.0\2021sw\ECOM-5\Debug\Obj\Remote_general.o
#        C:\Users\shaomingkun\Desktop\git\evolve5.0\2021sw\ECOM-5\Debug\Obj\Remote_process.o
#        C:\Users\shaomingkun\Desktop\git\evolve5.0\2021sw\ECOM-5\Debug\Obj\Remote_systemsettings.o
#        C:\Users\shaomingkun\Desktop\git\evolve5.0\2021sw\ECOM-5\Debug\Obj\Remote_user.o
#        C:\Users\shaomingkun\Desktop\git\evolve5.0\2021sw\ECOM-5\Debug\Obj\Remote_workoutTracking.o
#        C:\Users\shaomingkun\Desktop\git\evolve5.0\2021sw\ECOM-5\Debug\Obj\RF_AP.o
#        C:\Users\shaomingkun\Desktop\git\evolve5.0\2021sw\ECOM-5\Debug\Obj\RPM.o
#        C:\Users\shaomingkun\Desktop\git\evolve5.0\2021sw\ECOM-5\Debug\Obj\SEGGER_RTT.o
#        C:\Users\shaomingkun\Desktop\git\evolve5.0\2021sw\ECOM-5\Debug\Obj\SEGGER_RTT_printf.o
#        C:\Users\shaomingkun\Desktop\git\evolve5.0\2021sw\ECOM-5\Debug\Obj\SetRtc.o
#        C:\Users\shaomingkun\Desktop\git\evolve5.0\2021sw\ECOM-5\Debug\Obj\Show.o
#        C:\Users\shaomingkun\Desktop\git\evolve5.0\2021sw\ECOM-5\Debug\Obj\Show_Functions.o
#        C:\Users\shaomingkun\Desktop\git\evolve5.0\2021sw\ECOM-5\Debug\Obj\Speed.o
#        C:\Users\shaomingkun\Desktop\git\evolve5.0\2021sw\ECOM-5\Debug\Obj\startup_efm32lg.o
#        C:\Users\shaomingkun\Desktop\git\evolve5.0\2021sw\ECOM-5\Debug\Obj\Strings.o
#        C:\Users\shaomingkun\Desktop\git\evolve5.0\2021sw\ECOM-5\Debug\Obj\system_efm32lg.o
#        C:\Users\shaomingkun\Desktop\git\evolve5.0\2021sw\ECOM-5\Debug\Obj\SystemConfig.o
#        C:\Users\shaomingkun\Desktop\git\evolve5.0\2021sw\ECOM-5\Debug\Obj\TLC59282.o
#        C:\Users\shaomingkun\Desktop\git\evolve5.0\2021sw\ECOM-5\Debug\Obj\TM1804.o
#        C:\Users\shaomingkun\Desktop\git\evolve5.0\2021sw\ECOM-5\Debug\Obj\USBManager.o
#        C:\Users\shaomingkun\Desktop\git\evolve5.0\2021sw\ECOM-5\Debug\Obj\User.o
#        C:\Users\shaomingkun\Desktop\git\evolve5.0\2021sw\ECOM-5\Debug\Obj\UtilitiesAMP.o
#        C:\Users\shaomingkun\Desktop\git\evolve5.0\2021sw\ECOM-5\Debug\Obj\UtilitiesBeep.o
#        C:\Users\shaomingkun\Desktop\git\evolve5.0\2021sw\ECOM-5\Debug\Obj\UtilitiesBor.o
#        C:\Users\shaomingkun\Desktop\git\evolve5.0\2021sw\ECOM-5\Debug\Obj\UtilitiesBurntest.o
#        C:\Users\shaomingkun\Desktop\git\evolve5.0\2021sw\ECOM-5\Debug\Obj\UtilitiesErp.o
#        C:\Users\shaomingkun\Desktop\git\evolve5.0\2021sw\ECOM-5\Debug\Obj\UtilitiesErrorcode.o
#        C:\Users\shaomingkun\Desktop\git\evolve5.0\2021sw\ECOM-5\Debug\Obj\UtilitiesFan.o
#        C:\Users\shaomingkun\Desktop\git\evolve5.0\2021sw\ECOM-5\Debug\Obj\UtilitiesKeyboard.o
#        C:\Users\shaomingkun\Desktop\git\evolve5.0\2021sw\ECOM-5\Debug\Obj\UtilitiesKeyInputMethod.o
#        C:\Users\shaomingkun\Desktop\git\evolve5.0\2021sw\ECOM-5\Debug\Obj\UtilitiesLubeBelt.o
#        C:\Users\shaomingkun\Desktop\git\evolve5.0\2021sw\ECOM-5\Debug\Obj\UtilitiesProcess.o
#        C:\Users\shaomingkun\Desktop\git\evolve5.0\2021sw\ECOM-5\Debug\Obj\UtilitiesRtc.o
#        C:\Users\shaomingkun\Desktop\git\evolve5.0\2021sw\ECOM-5\Debug\Obj\UtilitiesTimer.o
#        C:\Users\shaomingkun\Desktop\git\evolve5.0\2021sw\ECOM-5\Debug\Obj\Wlt2564_Command.o
#        -o
#        C:\Users\shaomingkun\Desktop\git\evolve5.0\2021sw\ECOM-5\Debug\Exe\ECOM.out.tmp
#        --map
#        C:\Users\shaomingkun\Desktop\git\evolve5.0\2021sw\ECOM-5\Debug\List\ECOM.map
#        --config
#        C:\Users\shaomingkun\Desktop\git\evolve5.0\2021sw\ECOM-5\EM_General_APP.icf
#        --semihosting --entry __iar_program_start --place_holder
#        __checksum,4,.checksum,1 --define_symbol __checksum_begin=0x0
#        --define_symbol __checksum_end=0x3ffff --vfe
#
###############################################################################

*******************************************************************************
*** RUNTIME MODEL ATTRIBUTES
***

CppFlavor       = *
__SystemLibrary = DLib


*******************************************************************************
*** PLACEMENT SUMMARY
***

"A0":  place at 0x00000000 { ro section .intvec };
"P1":  place in [from 0x20004000 to 0x20007fff] { rw section .noinit };
"A1":  place at 0x0003e000 { ro section .ModelAddr };
"A2":  place at 0x0003e020 { ro section .MVerAddr };
"A3":  place at 0x0003e028 { ro section .SVerAddr };
"A4":  place at 0x0003e030 { ro section .checksum };
"A5":  place at 0x0003e034 { ro section .UpdateStep };
"P2":  place in [from 0x00000000 to 0x00037fff] { ro };
"P3":  place in [from 0x20000000 to 0x20007fff] { rw, block CSTACK, block HEAP };
do not initialize { section .noinit };
initialize by copy { rw };
 { section .intvec };

  Section             Kind        Address     Size  Object
  -------             ----        -------     ----  ------
"A0":                                         0xdc
  .intvec             ro code  0x00000000     0xdc  startup_efm32lg.o [1]
                             - 0x000000dc     0xdc

"P2":                                      0x302f1
  .text               ro code  0x000000dc   0x3aac  Events_Handler.o [1]
  .text               ro code  0x00003b88   0x24d8  SystemConfig.o [1]
  .text               ro code  0x00006060   0x26d8  Programs.o [1]
  .text               ro code  0x00008738     0x66  ABImemset.o [5]
  .text               ro code  0x0000879e     0x1a  xsnprout.o [3]
  .text               ro code  0x000087b8    0xe8c  User.o [1]
  .text               ro code  0x00009644    0x58c  USBManager.o [1]
  .text               ro code  0x00009bd0   0x1e7c  Engmode.o [1]
  .text               ro code  0x0000ba4c     0x78  Auto_Model.o [1]
  .text               ro code  0x0000bac4     0x34  RF_AP.o [1]
  .text               ro code  0x0000baf8     0xf4  UtilitiesProcess.o [1]
  .text               ro code  0x0000bbec    0x1d0  UtilitiesLubeBelt.o [1]
  .text               ro code  0x0000bdbc   0x1770  Bluetooth_lib.o [1]
  .text               ro code  0x0000d52c    0x16c  UtilitiesFan.o [1]
  .text               ro code  0x0000d698    0x428  UtilitiesErp.o [1]
  .text               ro code  0x0000dac0     0x9c  UtilitiesBor.o [1]
  .text               ro code  0x0000db5c    0x1c0  UtilitiesBeep.o [1]
  .text               ro code  0x0000dd1c     0x84  Display.o [1]
  Veneer              ro code  0x0000dda0      0x8  - Linker created -
  Veneer              ro code  0x0000dda8      0x8  - Linker created -
  .text               ro code  0x0000ddb0   0x32ec  HAL_Lib.o [1]
  .text               ro code  0x0001109c    0x920  Page.o [1]
  .text               ro code  0x000119bc    0x8f8  LED.o [1]
  .text               ro code  0x000122b4   0x1fe0  Show.o [1]
  .text               ro code  0x00014294    0xea0  Pro_Custom.o [1]
  .text               ro code  0x00015134     0x76  ABImemcpy_unaligned.o [5]
  .text               ro code  0x000151aa     0x12  Remote_asset.o [1]
  .text               ro code  0x000151bc   0x126c  Data_Process.o [1]
  .text               ro code  0x00016428    0x780  LCB.o [1]
  .text               ro code  0x00016ba8     0x2c  strncmp.o [3]
  .text               ro code  0x00016bd4    0x420  main.o [1]
  .text               ro code  0x00016ff4    0x76c  Incline_Count.o [1]
  .text               ro code  0x00017760    0xefc  Speed.o [1]
  .text               ro code  0x0001865c     0x62  memcmp_unaligned.o [5]
  .text               ro code  0x000186be      0xa  xsprout.o [3]
  .text               ro code  0x000186c8      0x6  ABImemclr4.o [5]
  .rodata             const    0x000186ce      0x2  main.o [1]
  .text               ro code  0x000186d0     0x6c  strncpy_unaligned.o [5]
  .text               ro code  0x0001873c     0x34  sprintf.o [3]
  .text               ro code  0x00018770     0x3a  ABImemset48.o [5]
  .rodata             const    0x000187aa      0x2  main.o [1]
  .text               ro code  0x000187ac      0x6  ABImemclr.o [5]
  .rodata             const    0x000187b2      0x2  main.o [1]
  .text               ro code  0x000187b4    0x654  Pro_manual.o [1]
  .text               ro code  0x00018e08    0x810  Pro_goal.o [1]
  .text               ro code  0x00019618   0x101c  Pro_hrc.o [1]
  .text               ro code  0x0001a634    0xed8  Pro_table.o [1]
  .text               ro code  0x0001b50c   0x1250  Pro_MyFirst5k.o [1]
  .text               ro code  0x0001c75c    0x430  RPM.o [1]
  .text               ro code  0x0001cb8c     0xee  I64DivMod.o [5]
  .rodata             const    0x0001cc7a      0x2  Wlt2564_Command.o [1]
  .text               ro code  0x0001cc7c   0x13c4  Remote_general.o [1]
  .text               ro code  0x0001e040     0x36  strlen.o [5]
  .rodata             const    0x0001e076      0x1  User.o [1]
  .rodata             const    0x0001e077      0x1  Wlt2564_Command.o [1]
  .text               ro code  0x0001e078   0x1012  em_usbh.o [1]
  .text               ro code  0x0001f08c    0x398  msdh.o [1]
  .text               ro code  0x0001f424   0x14f4  ff.o [1]
  .text               ro code  0x00020918     0x44  strcpy_unaligned.o [5]
  .text               ro code  0x0002095c     0x1c  strcat.o [3]
  .text               ro code  0x00020978    0x350  UtilitiesErrorcode.o [1]
  .text               ro code  0x00020cc8    0x124  UtilitiesBurntest.o [1]
  .text               ro code  0x00020dec     0x18  UtilitiesKeyInputMethod.o [1]
  .text               ro code  0x00020e04    0x154  UtilitiesTimer.o [1]
  .text               ro code  0x00020f58    0x498  Midware_Heart_01.o [1]
  .text               ro code  0x000213f0     0x1e  UtilitiesAMP.o [1]
  .text               ro code  0x00021410   0x17a0  Wlt2564_Command.o [1]
  .text               ro code  0x00022bb0    0x9f2  ftms_iface.o [1]
  .text               ro code  0x000235a4    0x3cc  Remote_process.o [1]
  .text               ro code  0x00023970    0x114  system_efm32lg.o [1]
  .text               ro code  0x00023a84     0x30  em_system.o [1]
  .text               ro code  0x00023ab4    0x1f0  em_gpio.o [1]
  .text               ro code  0x00023ca4     0xdc  em_wdog.o [1]
  .text               ro code  0x00023d80    0xa18  em_cmu.o [1]
  .text               ro code  0x00024798    0x3dc  em_i2c.o [1]
  .text               ro code  0x00024b74    0x428  UtilitiesKeyboard.o [1]
  .text               ro code  0x00024f9c    0x1b0  em_timer.o [1]
  .text               ro code  0x0002514c     0xd6  em_letimer.o [1]
  .text               ro code  0x00025224     0xbc  em_msc.o [1]
  .text               ro code  0x000252e0     0xf0  em_emu.o [1]
  .text               ro code  0x000253d0    0x398  em_dma.o [1]
  .text               ro code  0x00025768    0x1f8  em_usart.o [1]
  .text               ro code  0x00025960     0x32  I32ToFlt.o [4]
  .text               ro code  0x00025994     0x4e  FltToDbl.o [4]
  .text               ro code  0x000259e4    0x1a2  DblMul.o [4]
  .text               ro code  0x00025b88     0x58  DblToI32.o [4]
  .text               ro code  0x00025be0     0x9c  TLC59282.o [1]
  .text               ro code  0x00025c7c     0x50  Strings.o [1]
  .text               ro code  0x00025ccc     0x30  I32ToDbl.o [4]
  .text               ro code  0x00025cfc     0xfc  FltDiv.o [4]
  .text               ro code  0x00025df8    0x558  SetRtc.o [1]
  .text               ro code  0x00026350     0xe0  TM1804.o [1]
  .text               ro code  0x00026430     0xe8  DblAdd.o [4]
  .text               ro code  0x00026518    0x256  DblDiv.o [4]
  .rodata             const    0x00026770     0x7c  main.o [1]
  .text               ro code  0x000267f0    0x848  pow.o [4]
  .text               ro code  0x00027038     0xe6  FltSub.o [4]
  .text               ro code  0x00027120     0xd8  FltMul.o [4]
  .text               ro code  0x000271f8     0x44  FltToS32.o [4]
  .text               ro code  0x0002723c     0x44  snprintf.o [3]
  .text               ro code  0x00027280     0x84  FltAdd.o [4]
  .text               ro code  0x00027304    0xc2a  xprintflarge_nomb.o [3]
  .text               ro code  0x00027f30      0x2  I64DivZer.o [5]
  .text               ro code  0x00027f34     0x44  CRC.o [1]
  .text               ro code  0x00027f78    0x394  em_usbhal.o [1]
  .text               ro code  0x0002830c    0x1d8  em_usbhep.o [1]
  .text               ro code  0x000284e4    0x3ec  em_usbtimer.o [1]
  .text               ro code  0x000288d0    0x148  msdscsi.o [1]
  .text               ro code  0x00028a18    0x160  msddiskio.o [1]
  .text               ro code  0x00028b78     0x7c  Show_Functions.o [1]
  .text               ro code  0x00028bf4     0x28  strncat.o [3]
  .text               ro code  0x00028c1c    0x564  ftms.o [1]
  .text               ro code  0x00029180    0xc70  Remote_workoutTracking.o [1]
  .text               ro code  0x00029df0    0x180  DblSub.o [4]
  .text               ro code  0x00029f70     0x44  xdnorm.o [4]
  .text               ro code  0x00029fb4     0x7e  xdint.o [4]
  .text               ro code  0x0002a034     0x20  DblCmpEq.o [4]
  .text               ro code  0x0002a054      0xc  errno.o [3]
  .text               ro code  0x0002a060     0x2e  DblCmpGe.o [4]
  .text               ro code  0x0002a090     0x2e  DblCmpLe.o [4]
  .text               ro code  0x0002a0c0     0xac  xlog.o [4]
  .text               ro code  0x0002a16c    0x2bc  xexp.o [4]
  .text               ro code  0x0002a428     0x16  strchr.o [5]
  .text               ro code  0x0002a440     0x58  memchr.o [5]
  .text               ro code  0x0002a498      0xe  div.o [3]
  .text               ro code  0x0002a4a8    0x210  msdbot.o [1]
  .text               ro code  0x0002a6b8      0x2  xtls.o [3]
  .text               ro code  0x0002a6ba     0x32  xdtest.o [4]
  .text               ro code  0x0002a6ec    0x10c  xdscale.o [4]
  .rodata             const    0x0002a7f8    0xe58  Strings.o [1]
  .text               ro code  0x0002b650    0x710  Remote_control.o [1]
  .text               ro code  0x0002bd60    0x54c  em_usbhint.o [1]
  .rodata             const    0x0002c2ac    0x48c  Page.o [1]
  .rodata             const    0x0002c738    0x410  main.o [1]
  .rodata             const    0x0002cb48    0x1c0  main.o [1]
  .rodata             const    0x0002cd08     0xb4  Pro_MyFirst5k.o [1]
  .rodata             const    0x0002cdbc     0xa0  Show.o [1]
  .rodata             const    0x0002ce5c     0x8c  Programs.o [1]
  .rodata             const    0x0002cee8     0x80  main.o [1]
  .rodata             const    0x0002cf68     0x78  ftms.o [1]
  .rodata             const    0x0002cfe0     0x78  main.o [1]
  .rodata             const    0x0002d058     0x78  main.o [1]
  .text               ro code  0x0002d0d0     0x78  lz77_init_single.o [5]
  .rodata             const    0x0002d148     0x68  ftms.o [1]
  .rodata             const    0x0002d1b0     0x68  ftms.o [1]
  .rodata             const    0x0002d218     0x40  HAL_Lib.o [1]
  .rodata             const    0x0002d258     0x40  main.o [1]
  .text               ro code  0x0002d298     0x40  zero_init3.o [5]
  .rodata             const    0x0002d2d8     0x3c  main.o [1]
  .rodata             const    0x0002d314     0x3c  main.o [1]
  .rodata             const    0x0002d350     0x3c  Strings.o [1]
  .rodata             const    0x0002d38c     0x38  em_usbh.o [1]
  .rodata             const    0x0002d3c4     0x34  UtilitiesErrorcode.o [1]
  .rodata             const    0x0002d3f8     0x34  UtilitiesErrorcode.o [1]
  .rodata             const    0x0002d42c     0x30  Strings.o [1]
  .rodata             const    0x0002d45c     0x2c  main.o [1]
  .rodata             const    0x0002d488     0x2c  Strings.o [1]
  .rodata             const    0x0002d4b4     0x2c  Strings.o [1]
  .rodata             const    0x0002d4e0     0x2c  Strings.o [1]
  .rodata             const    0x0002d50c     0x28  main.o [1]
  .rodata             const    0x0002d534     0x28  main.o [1]
  .rodata             const    0x0002d55c     0x28  Strings.o [1]
  .rodata             const    0x0002d584     0x28  Strings.o [1]
  .rodata             const    0x0002d5ac     0x28  Strings.o [1]
  .rodata             const    0x0002d5d4     0x28  Strings.o [1]
  .rodata             const    0x0002d5fc     0x28  Strings.o [1]
  .rodata             const    0x0002d624     0x28  Strings.o [1]
  .rodata             const    0x0002d64c     0x28  Strings.o [1]
  .text               ro code  0x0002d674     0x28  data_init.o [5]
  .rodata             const    0x0002d69c     0x24  Strings.o [1]
  .rodata             const    0x0002d6c0     0x24  Strings.o [1]
  .rodata             const    0x0002d6e4     0x24  Strings.o [1]
  .rodata             const    0x0002d708     0x24  Strings.o [1]
  .rodata             const    0x0002d72c     0x24  Strings.o [1]
  .rodata             const    0x0002d750     0x24  Strings.o [1]
  .iar.init_table     const    0x0002d774     0x20  - Linker created -
  .rodata             const    0x0002d794     0x20  msdscsi.o [1]
  .rodata             const    0x0002d7b4     0x20  msdscsi.o [1]
  .rodata             const    0x0002d7d4     0x20  msdscsi.o [1]
  .rodata             const    0x0002d7f4     0x20  msdscsi.o [1]
  .rodata             const    0x0002d814     0x20  msdscsi.o [1]
  .rodata             const    0x0002d834     0x20  msdscsi.o [1]
  .rodata             const    0x0002d854     0x20  Strings.o [1]
  .rodata             const    0x0002d874     0x20  Strings.o [1]
  .rodata             const    0x0002d894     0x20  Strings.o [1]
  .rodata             const    0x0002d8b4     0x20  Strings.o [1]
  .rodata             const    0x0002d8d4     0x20  Strings.o [1]
  .rodata             const    0x0002d8f4     0x20  Strings.o [1]
  .rodata             const    0x0002d914     0x20  Strings.o [1]
  .rodata             const    0x0002d934     0x20  Strings.o [1]
  .rodata             const    0x0002d954     0x20  Strings.o [1]
  .rodata             const    0x0002d974     0x20  Strings.o [1]
  .rodata             const    0x0002d994     0x20  Strings.o [1]
  .rodata             const    0x0002d9b4     0x20  Strings.o [1]
  .rodata             const    0x0002d9d4     0x20  Strings.o [1]
  .rodata             const    0x0002d9f4     0x20  Strings.o [1]
  .rodata             const    0x0002da14     0x20  Strings.o [1]
  .rodata             const    0x0002da34     0x1c  Strings.o [1]
  .rodata             const    0x0002da50     0x1c  Strings.o [1]
  .rodata             const    0x0002da6c     0x1c  Strings.o [1]
  .rodata             const    0x0002da88     0x1c  Strings.o [1]
  .rodata             const    0x0002daa4     0x1c  Strings.o [1]
  .rodata             const    0x0002dac0     0x1c  Strings.o [1]
  .rodata             const    0x0002dadc     0x1c  Strings.o [1]
  .rodata             const    0x0002daf8     0x1c  Strings.o [1]
  .rodata             const    0x0002db14     0x1c  Strings.o [1]
  .rodata             const    0x0002db30     0x1c  Strings.o [1]
  .rodata             const    0x0002db4c     0x1c  Strings.o [1]
  .rodata             const    0x0002db68     0x1c  Strings.o [1]
  .rodata             const    0x0002db84     0x1c  Strings.o [1]
  .rodata             const    0x0002dba0     0x1c  Strings.o [1]
  .rodata             const    0x0002dbbc     0x1c  Strings.o [1]
  .rodata             const    0x0002dbd8     0x1c  Strings.o [1]
  .rodata             const    0x0002dbf4     0x1c  Strings.o [1]
  .rodata             const    0x0002dc10     0x1c  Strings.o [1]
  .rodata             const    0x0002dc2c     0x1c  Strings.o [1]
  .rodata             const    0x0002dc48     0x1c  Strings.o [1]
  .rodata             const    0x0002dc64     0x1c  Wlt2564_Command.o [1]
  .rodata             const    0x0002dc80     0x1c  Wlt2564_Command.o [1]
  .rodata             const    0x0002dc9c     0x1c  Wlt2564_Command.o [1]
  .text               ro code  0x0002dcb8     0x1a  cmain.o [5]
  .text               ro code  0x0002dcd2      0x4  low_level_init.o [3]
  .text               ro code  0x0002dcd6      0x4  exit.o [3]
  .text               ro code  0x0002dcdc      0xa  cexit.o [5]
  .text               ro code  0x0002dce8     0x14  exit.o [6]
  .rodata             const    0x0002dcfc     0x18  em_usbh.o [1]
  .rodata             const    0x0002dd14     0x18  HAL_Lib.o [1]
  .rodata             const    0x0002dd2c     0x18  HAL_Lib.o [1]
  .rodata             const    0x0002dd44     0x18  main.o [1]
  .rodata             const    0x0002dd5c     0x18  main.o [1]
  .rodata             const    0x0002dd74     0x18  main.o [1]
  .rodata             const    0x0002dd8c     0x18  main.o [1]
  .rodata             const    0x0002dda4     0x18  Page.o [1]
  .rodata             const    0x0002ddbc     0x18  Page.o [1]
  .rodata             const    0x0002ddd4     0x18  Page.o [1]
  .rodata             const    0x0002ddec     0x18  Page.o [1]
  .rodata             const    0x0002de04     0x18  Page.o [1]
  .rodata             const    0x0002de1c     0x18  Page.o [1]
  .rodata             const    0x0002de34     0x18  Page.o [1]
  .rodata             const    0x0002de4c     0x18  Page.o [1]
  .rodata             const    0x0002de64     0x18  Page.o [1]
  .rodata             const    0x0002de7c     0x18  Page.o [1]
  .rodata             const    0x0002de94     0x18  Page.o [1]
  .rodata             const    0x0002deac     0x18  Page.o [1]
  .rodata             const    0x0002dec4     0x18  Page.o [1]
  .rodata             const    0x0002dedc     0x18  Page.o [1]
  .rodata             const    0x0002def4     0x18  Page.o [1]
  .rodata             const    0x0002df0c     0x18  Page.o [1]
  .rodata             const    0x0002df24     0x18  Page.o [1]
  .rodata             const    0x0002df3c     0x18  Page.o [1]
  .rodata             const    0x0002df54     0x18  Page.o [1]
  .rodata             const    0x0002df6c     0x18  Page.o [1]
  .rodata             const    0x0002df84     0x18  Page.o [1]
  .rodata             const    0x0002df9c     0x18  Page.o [1]
  .rodata             const    0x0002dfb4     0x18  Page.o [1]
  .rodata             const    0x0002dfcc     0x18  Strings.o [1]
  .rodata             const    0x0002dfe4     0x18  Strings.o [1]
  .rodata             const    0x0002dffc     0x18  Strings.o [1]
  .rodata             const    0x0002e014     0x18  Strings.o [1]
  .rodata             const    0x0002e02c     0x18  Strings.o [1]
  .rodata             const    0x0002e044     0x18  Strings.o [1]
  .rodata             const    0x0002e05c     0x18  Strings.o [1]
  .rodata             const    0x0002e074     0x18  Strings.o [1]
  .rodata             const    0x0002e08c     0x18  Strings.o [1]
  .rodata             const    0x0002e0a4     0x18  Strings.o [1]
  .rodata             const    0x0002e0bc     0x18  Strings.o [1]
  .rodata             const    0x0002e0d4     0x18  Strings.o [1]
  .rodata             const    0x0002e0ec     0x18  Strings.o [1]
  .rodata             const    0x0002e104     0x18  Strings.o [1]
  .rodata             const    0x0002e11c     0x18  Strings.o [1]
  .rodata             const    0x0002e134     0x18  Strings.o [1]
  .rodata             const    0x0002e14c     0x18  Strings.o [1]
  .rodata             const    0x0002e164     0x18  Strings.o [1]
  .rodata             const    0x0002e17c     0x18  Strings.o [1]
  .rodata             const    0x0002e194     0x18  Strings.o [1]
  .rodata             const    0x0002e1ac     0x18  Strings.o [1]
  .rodata             const    0x0002e1c4     0x18  Strings.o [1]
  .rodata             const    0x0002e1dc     0x18  Strings.o [1]
  .rodata             const    0x0002e1f4     0x18  Strings.o [1]
  .rodata             const    0x0002e20c     0x18  Strings.o [1]
  .rodata             const    0x0002e224     0x18  Strings.o [1]
  .rodata             const    0x0002e23c     0x18  Strings.o [1]
  .rodata             const    0x0002e254     0x18  Strings.o [1]
  .rodata             const    0x0002e26c     0x18  Strings.o [1]
  .rodata             const    0x0002e284     0x18  Strings.o [1]
  .rodata             const    0x0002e29c     0x18  Strings.o [1]
  .rodata             const    0x0002e2b4     0x18  Strings.o [1]
  .rodata             const    0x0002e2cc     0x18  Strings.o [1]
  .rodata             const    0x0002e2e4     0x18  Wlt2564_Command.o [1]
  .rodata             const    0x0002e2fc     0x18  Wlt2564_Command.o [1]
  .rodata             const    0x0002e314     0x18  Wlt2564_Command.o [1]
  .rodata             const    0x0002e32c     0x18  Wlt2564_Command.o [1]
  .rodata             const    0x0002e344     0x18  Wlt2564_Command.o [1]
  .rodata             const    0x0002e35c     0x18  Wlt2564_Command.o [1]
  .rodata             const    0x0002e374     0x14  main.o [1]
  .rodata             const    0x0002e388     0x14  msdh.o [1]
  .rodata             const    0x0002e39c     0x14  msdh.o [1]
  .rodata             const    0x0002e3b0     0x14  msdh.o [1]
  .rodata             const    0x0002e3c4     0x14  Show.o [1]
  .rodata             const    0x0002e3d8     0x14  Show.o [1]
  .rodata             const    0x0002e3ec     0x14  Strings.o [1]
  .rodata             const    0x0002e400     0x14  Strings.o [1]
  .rodata             const    0x0002e414     0x14  Strings.o [1]
  .rodata             const    0x0002e428     0x14  Strings.o [1]
  .rodata             const    0x0002e43c     0x14  Strings.o [1]
  .rodata             const    0x0002e450     0x14  Strings.o [1]
  .rodata             const    0x0002e464     0x14  Strings.o [1]
  .rodata             const    0x0002e478     0x14  Strings.o [1]
  .rodata             const    0x0002e48c     0x14  Strings.o [1]
  .rodata             const    0x0002e4a0     0x14  Strings.o [1]
  .rodata             const    0x0002e4b4     0x14  Strings.o [1]
  .rodata             const    0x0002e4c8     0x14  Strings.o [1]
  .rodata             const    0x0002e4dc     0x14  Strings.o [1]
  .rodata             const    0x0002e4f0     0x14  Strings.o [1]
  .rodata             const    0x0002e504     0x14  Strings.o [1]
  .rodata             const    0x0002e518     0x14  Strings.o [1]
  .rodata             const    0x0002e52c     0x14  Strings.o [1]
  .rodata             const    0x0002e540     0x14  Strings.o [1]
  .rodata             const    0x0002e554     0x14  Strings.o [1]
  .rodata             const    0x0002e568     0x14  Strings.o [1]
  .rodata             const    0x0002e57c     0x14  Strings.o [1]
  .rodata             const    0x0002e590     0x14  Strings.o [1]
  .rodata             const    0x0002e5a4     0x14  Strings.o [1]
  .rodata             const    0x0002e5b8     0x14  Strings.o [1]
  .rodata             const    0x0002e5cc     0x14  Strings.o [1]
  .rodata             const    0x0002e5e0     0x14  Strings.o [1]
  .rodata             const    0x0002e5f4     0x14  Strings.o [1]
  .rodata             const    0x0002e608     0x14  Strings.o [1]
  .rodata             const    0x0002e61c     0x14  Strings.o [1]
  .rodata             const    0x0002e630     0x14  Strings.o [1]
  .rodata             const    0x0002e644     0x14  Strings.o [1]
  .rodata             const    0x0002e658     0x14  Strings.o [1]
  .rodata             const    0x0002e66c     0x14  Strings.o [1]
  .rodata             const    0x0002e680     0x14  Strings.o [1]
  .rodata             const    0x0002e694     0x14  Strings.o [1]
  .rodata             const    0x0002e6a8     0x14  Strings.o [1]
  .rodata             const    0x0002e6bc     0x14  Strings.o [1]
  .rodata             const    0x0002e6d0     0x14  Strings.o [1]
  .rodata             const    0x0002e6e4     0x14  Strings.o [1]
  .rodata             const    0x0002e6f8     0x14  Strings.o [1]
  .rodata             const    0x0002e70c     0x14  Strings.o [1]
  .rodata             const    0x0002e720     0x14  Strings.o [1]
  .rodata             const    0x0002e734     0x14  Strings.o [1]
  .rodata             const    0x0002e748     0x14  Strings.o [1]
  .rodata             const    0x0002e75c     0x14  Strings.o [1]
  .rodata             const    0x0002e770     0x14  Strings.o [1]
  .rodata             const    0x0002e784     0x14  Strings.o [1]
  .rodata             const    0x0002e798     0x14  Strings.o [1]
  .rodata             const    0x0002e7ac     0x14  Strings.o [1]
  .rodata             const    0x0002e7c0     0x14  Strings.o [1]
  .rodata             const    0x0002e7d4     0x14  Strings.o [1]
  .rodata             const    0x0002e7e8     0x14  Strings.o [1]
  .rodata             const    0x0002e7fc     0x14  Strings.o [1]
  .rodata             const    0x0002e810     0x14  Strings.o [1]
  .rodata             const    0x0002e824     0x14  Strings.o [1]
  .rodata             const    0x0002e838     0x14  Strings.o [1]
  .rodata             const    0x0002e84c     0x14  Strings.o [1]
  .rodata             const    0x0002e860     0x14  Strings.o [1]
  .rodata             const    0x0002e874     0x14  USBManager.o [1]
  .rodata             const    0x0002e888     0x14  USBManager.o [1]
  .rodata             const    0x0002e89c     0x14  USBManager.o [1]
  .rodata             const    0x0002e8b0     0x14  USBManager.o [1]
  .rodata             const    0x0002e8c4     0x14  USBManager.o [1]
  .rodata             const    0x0002e8d8     0x14  USBManager.o [1]
  .rodata             const    0x0002e8ec     0x14  USBManager.o [1]
  .rodata             const    0x0002e900     0x14  USBManager.o [1]
  .rodata             const    0x0002e914     0x14  Wlt2564_Command.o [1]
  .rodata             const    0x0002e928     0x14  Wlt2564_Command.o [1]
  .rodata             const    0x0002e93c     0x14  Wlt2564_Command.o [1]
  .rodata             const    0x0002e950     0x14  Wlt2564_Command.o [1]
  .rodata             const    0x0002e964     0x10  em_usbtimer.o [1]
  .rodata             const    0x0002e974     0x10  Events_Handler.o [1]
  .rodata             const    0x0002e984     0x10  Events_Handler.o [1]
  .rodata             const    0x0002e994     0x10  ff.o [1]
  .rodata             const    0x0002e9a4     0x10  HAL_Lib.o [1]
  .rodata             const    0x0002e9b4     0x10  HAL_Lib.o [1]
  .rodata             const    0x0002e9c4     0x10  HAL_Lib.o [1]
  .rodata             const    0x0002e9d4     0x10  main.o [1]
  .rodata             const    0x0002e9e4     0x10  main.o [1]
  .rodata             const    0x0002e9f4     0x10  main.o [1]
  .rodata             const    0x0002ea04     0x10  main.o [1]
  .rodata             const    0x0002ea14     0x10  main.o [1]
  .rodata             const    0x0002ea24     0x10  Show.o [1]
  .rodata             const    0x0002ea34     0x10  Show.o [1]
  .rodata             const    0x0002ea44     0x10  Show.o [1]
  .rodata             const    0x0002ea54     0x10  Show.o [1]
  .rodata             const    0x0002ea64     0x10  Show.o [1]
  .rodata             const    0x0002ea74     0x10  Show.o [1]
  .rodata             const    0x0002ea84     0x10  Show.o [1]
  .rodata             const    0x0002ea94     0x10  Show.o [1]
  .rodata             const    0x0002eaa4     0x10  Show.o [1]
  .rodata             const    0x0002eab4     0x10  Show.o [1]
  .rodata             const    0x0002eac4     0x10  Show.o [1]
  .rodata             const    0x0002ead4     0x10  Show.o [1]
  .rodata             const    0x0002eae4     0x10  Show.o [1]
  .rodata             const    0x0002eaf4     0x10  Show.o [1]
  .rodata             const    0x0002eb04     0x10  Show.o [1]
  .rodata             const    0x0002eb14     0x10  Show.o [1]
  .rodata             const    0x0002eb24     0x10  Show.o [1]
  .rodata             const    0x0002eb34     0x10  Strings.o [1]
  .rodata             const    0x0002eb44     0x10  Strings.o [1]
  .rodata             const    0x0002eb54     0x10  Strings.o [1]
  .rodata             const    0x0002eb64     0x10  Strings.o [1]
  .rodata             const    0x0002eb74     0x10  Strings.o [1]
  .rodata             const    0x0002eb84     0x10  Strings.o [1]
  .rodata             const    0x0002eb94     0x10  Strings.o [1]
  .rodata             const    0x0002eba4     0x10  Strings.o [1]
  .rodata             const    0x0002ebb4     0x10  Strings.o [1]
  .rodata             const    0x0002ebc4     0x10  Strings.o [1]
  .rodata             const    0x0002ebd4     0x10  Strings.o [1]
  .rodata             const    0x0002ebe4     0x10  Strings.o [1]
  .rodata             const    0x0002ebf4     0x10  Strings.o [1]
  .rodata             const    0x0002ec04     0x10  Strings.o [1]
  .rodata             const    0x0002ec14     0x10  Strings.o [1]
  .rodata             const    0x0002ec24     0x10  Strings.o [1]
  .rodata             const    0x0002ec34     0x10  Strings.o [1]
  .rodata             const    0x0002ec44     0x10  Strings.o [1]
  .rodata             const    0x0002ec54     0x10  Strings.o [1]
  .rodata             const    0x0002ec64     0x10  Strings.o [1]
  .rodata             const    0x0002ec74     0x10  Strings.o [1]
  .rodata             const    0x0002ec84     0x10  Strings.o [1]
  .rodata             const    0x0002ec94     0x10  Strings.o [1]
  .rodata             const    0x0002eca4     0x10  Strings.o [1]
  .rodata             const    0x0002ecb4     0x10  Strings.o [1]
  .rodata             const    0x0002ecc4     0x10  Strings.o [1]
  .rodata             const    0x0002ecd4     0x10  Strings.o [1]
  .rodata             const    0x0002ece4     0x10  Strings.o [1]
  .rodata             const    0x0002ecf4     0x10  Strings.o [1]
  .rodata             const    0x0002ed04     0x10  Strings.o [1]
  .rodata             const    0x0002ed14     0x10  Strings.o [1]
  .rodata             const    0x0002ed24     0x10  Strings.o [1]
  .rodata             const    0x0002ed34     0x10  Strings.o [1]
  .rodata             const    0x0002ed44     0x10  Strings.o [1]
  .rodata             const    0x0002ed54     0x10  Strings.o [1]
  .rodata             const    0x0002ed64     0x10  Strings.o [1]
  .rodata             const    0x0002ed74     0x10  Strings.o [1]
  .rodata             const    0x0002ed84     0x10  Strings.o [1]
  .rodata             const    0x0002ed94     0x10  Strings.o [1]
  .rodata             const    0x0002eda4     0x10  Strings.o [1]
  .rodata             const    0x0002edb4     0x10  Strings.o [1]
  .rodata             const    0x0002edc4     0x10  Strings.o [1]
  .rodata             const    0x0002edd4     0x10  Strings.o [1]
  .rodata             const    0x0002ede4     0x10  Strings.o [1]
  .rodata             const    0x0002edf4     0x10  Strings.o [1]
  .rodata             const    0x0002ee04     0x10  Strings.o [1]
  .rodata             const    0x0002ee14     0x10  Strings.o [1]
  .rodata             const    0x0002ee24     0x10  Strings.o [1]
  .rodata             const    0x0002ee34     0x10  Strings.o [1]
  .rodata             const    0x0002ee44     0x10  Strings.o [1]
  .rodata             const    0x0002ee54     0x10  Strings.o [1]
  .rodata             const    0x0002ee64     0x10  Strings.o [1]
  .rodata             const    0x0002ee74     0x10  Strings.o [1]
  .rodata             const    0x0002ee84     0x10  Strings.o [1]
  .rodata             const    0x0002ee94     0x10  Strings.o [1]
  .rodata             const    0x0002eea4     0x10  Strings.o [1]
  .rodata             const    0x0002eeb4     0x10  Strings.o [1]
  .rodata             const    0x0002eec4     0x10  Strings.o [1]
  .rodata             const    0x0002eed4     0x10  Strings.o [1]
  .rodata             const    0x0002eee4     0x10  Strings.o [1]
  .rodata             const    0x0002eef4     0x10  Strings.o [1]
  .rodata             const    0x0002ef04     0x10  Strings.o [1]
  .rodata             const    0x0002ef14     0x10  Strings.o [1]
  .rodata             const    0x0002ef24     0x10  Strings.o [1]
  .rodata             const    0x0002ef34     0x10  Strings.o [1]
  .rodata             const    0x0002ef44     0x10  Strings.o [1]
  .rodata             const    0x0002ef54     0x10  Strings.o [1]
  .rodata             const    0x0002ef64     0x10  Strings.o [1]
  .rodata             const    0x0002ef74     0x10  Strings.o [1]
  .rodata             const    0x0002ef84     0x10  Strings.o [1]
  .rodata             const    0x0002ef94     0x10  Strings.o [1]
  .rodata             const    0x0002efa4     0x10  Strings.o [1]
  .rodata             const    0x0002efb4     0x10  Strings.o [1]
  .rodata             const    0x0002efc4     0x10  Strings.o [1]
  .rodata             const    0x0002efd4     0x10  Strings.o [1]
  .rodata             const    0x0002efe4     0x10  Strings.o [1]
  .rodata             const    0x0002eff4     0x10  Strings.o [1]
  .rodata             const    0x0002f004     0x10  Strings.o [1]
  .rodata             const    0x0002f014     0x10  Strings.o [1]
  .rodata             const    0x0002f024     0x10  Strings.o [1]
  .rodata             const    0x0002f034     0x10  Strings.o [1]
  .rodata             const    0x0002f044     0x10  Strings.o [1]
  .rodata             const    0x0002f054     0x10  Strings.o [1]
  .rodata             const    0x0002f064     0x10  Strings.o [1]
  .rodata             const    0x0002f074     0x10  Strings.o [1]
  .rodata             const    0x0002f084     0x10  Strings.o [1]
  .rodata             const    0x0002f094     0x10  Strings.o [1]
  .rodata             const    0x0002f0a4     0x10  Strings.o [1]
  .rodata             const    0x0002f0b4     0x10  Strings.o [1]
  .rodata             const    0x0002f0c4     0x10  SystemConfig.o [1]
  .rodata             const    0x0002f0d4     0x10  USBManager.o [1]
  .rodata             const    0x0002f0e4     0x10  Wlt2564_Command.o [1]
  .rodata             const    0x0002f0f4     0x10  Wlt2564_Command.o [1]
  .rodata             const    0x0002f104     0x10  Wlt2564_Command.o [1]
  .rodata             const    0x0002f114     0x10  Wlt2564_Command.o [1]
  .rodata             const    0x0002f124     0x10  Wlt2564_Command.o [1]
  .rodata             const    0x0002f134     0x10  Wlt2564_Command.o [1]
  .rodata             const    0x0002f144     0x10  Wlt2564_Command.o [1]
  .rodata             const    0x0002f154     0x10  Wlt2564_Command.o [1]
  .rodata             const    0x0002f164     0x10  Wlt2564_Command.o [1]
  .text               ro code  0x0002f174     0x10  startup_efm32lg.o [1]
  .rodata             const    0x0002f184      0xc  HAL_Lib.o [1]
  .rodata             const    0x0002f190      0xc  HAL_Lib.o [1]
  .rodata             const    0x0002f19c      0xc  HAL_Lib.o [1]
  .rodata             const    0x0002f1a8      0xc  HAL_Lib.o [1]
  .rodata             const    0x0002f1b4      0xc  HAL_Lib.o [1]
  .rodata             const    0x0002f1c0      0xc  HAL_Lib.o [1]
  .rodata             const    0x0002f1cc      0xc  main.o [1]
  .rodata             const    0x0002f1d8      0xc  main.o [1]
  .rodata             const    0x0002f1e4      0xc  main.o [1]
  .rodata             const    0x0002f1f0      0xc  SetRtc.o [1]
  .rodata             const    0x0002f1fc      0xc  Show.o [1]
  .rodata             const    0x0002f208      0xc  Show.o [1]
  .rodata             const    0x0002f214      0xc  Strings.o [1]
  .rodata             const    0x0002f220      0xc  Strings.o [1]
  .rodata             const    0x0002f22c      0xc  Strings.o [1]
  .rodata             const    0x0002f238      0xc  Strings.o [1]
  .rodata             const    0x0002f244      0xc  Strings.o [1]
  .rodata             const    0x0002f250      0xc  Strings.o [1]
  .rodata             const    0x0002f25c      0xc  Strings.o [1]
  .rodata             const    0x0002f268      0xc  Strings.o [1]
  .rodata             const    0x0002f274      0xc  Strings.o [1]
  .rodata             const    0x0002f280      0xc  Strings.o [1]
  .rodata             const    0x0002f28c      0xc  Strings.o [1]
  .rodata             const    0x0002f298      0xc  Strings.o [1]
  .rodata             const    0x0002f2a4      0xc  Strings.o [1]
  .rodata             const    0x0002f2b0      0xc  Strings.o [1]
  .rodata             const    0x0002f2bc      0xc  Strings.o [1]
  .rodata             const    0x0002f2c8      0xc  Strings.o [1]
  .rodata             const    0x0002f2d4      0xc  Strings.o [1]
  .rodata             const    0x0002f2e0      0xc  Strings.o [1]
  .rodata             const    0x0002f2ec      0xc  Strings.o [1]
  .rodata             const    0x0002f2f8      0xc  Strings.o [1]
  .rodata             const    0x0002f304      0xc  Strings.o [1]
  .rodata             const    0x0002f310      0xc  Strings.o [1]
  .rodata             const    0x0002f31c      0xc  Strings.o [1]
  .rodata             const    0x0002f328      0xc  Strings.o [1]
  .rodata             const    0x0002f334      0xc  Strings.o [1]
  .rodata             const    0x0002f340      0xc  Strings.o [1]
  .rodata             const    0x0002f34c      0xc  Strings.o [1]
  .rodata             const    0x0002f358      0xc  Strings.o [1]
  .rodata             const    0x0002f364      0xc  Strings.o [1]
  .rodata             const    0x0002f370      0xc  Strings.o [1]
  .rodata             const    0x0002f37c      0xc  Strings.o [1]
  .rodata             const    0x0002f388      0xc  Strings.o [1]
  .rodata             const    0x0002f394      0xc  Strings.o [1]
  .rodata             const    0x0002f3a0      0xc  Strings.o [1]
  .rodata             const    0x0002f3ac      0xc  Strings.o [1]
  .rodata             const    0x0002f3b8      0xc  Strings.o [1]
  .rodata             const    0x0002f3c4      0xc  Strings.o [1]
  .rodata             const    0x0002f3d0      0xc  Strings.o [1]
  .rodata             const    0x0002f3dc      0xc  Strings.o [1]
  .rodata             const    0x0002f3e8      0xc  Strings.o [1]
  .rodata             const    0x0002f3f4      0xc  Strings.o [1]
  .rodata             const    0x0002f400      0xc  Strings.o [1]
  .rodata             const    0x0002f40c      0xc  Strings.o [1]
  .rodata             const    0x0002f418      0xc  Strings.o [1]
  .rodata             const    0x0002f424      0xc  Strings.o [1]
  .rodata             const    0x0002f430      0xc  Strings.o [1]
  .rodata             const    0x0002f43c      0xc  Strings.o [1]
  .rodata             const    0x0002f448      0xc  Strings.o [1]
  .rodata             const    0x0002f454      0xc  Strings.o [1]
  .rodata             const    0x0002f460      0xc  Strings.o [1]
  .rodata             const    0x0002f46c      0xc  Strings.o [1]
  .rodata             const    0x0002f478      0xc  Strings.o [1]
  .rodata             const    0x0002f484      0xc  Strings.o [1]
  .rodata             const    0x0002f490      0xc  Strings.o [1]
  .rodata             const    0x0002f49c      0xc  Strings.o [1]
  .rodata             const    0x0002f4a8      0xc  Strings.o [1]
  .rodata             const    0x0002f4b4      0xc  Strings.o [1]
  .rodata             const    0x0002f4c0      0xc  Strings.o [1]
  .rodata             const    0x0002f4cc      0xc  Strings.o [1]
  .rodata             const    0x0002f4d8      0xc  Strings.o [1]
  .rodata             const    0x0002f4e4      0xc  Strings.o [1]
  .rodata             const    0x0002f4f0      0xc  Strings.o [1]
  .rodata             const    0x0002f4fc      0xc  Strings.o [1]
  .rodata             const    0x0002f508      0xc  Strings.o [1]
  .rodata             const    0x0002f514      0xc  Strings.o [1]
  .rodata             const    0x0002f520      0xc  Strings.o [1]
  .rodata             const    0x0002f52c      0xc  Strings.o [1]
  .rodata             const    0x0002f538      0xc  Strings.o [1]
  .rodata             const    0x0002f544      0xc  Strings.o [1]
  .rodata             const    0x0002f550      0xc  Strings.o [1]
  .rodata             const    0x0002f55c      0xc  Strings.o [1]
  .rodata             const    0x0002f568      0xc  Strings.o [1]
  .rodata             const    0x0002f574      0xc  Strings.o [1]
  .rodata             const    0x0002f580      0xc  Strings.o [1]
  .rodata             const    0x0002f58c      0xc  Strings.o [1]
  .rodata             const    0x0002f598      0xc  Strings.o [1]
  .rodata             const    0x0002f5a4      0xc  Strings.o [1]
  .rodata             const    0x0002f5b0      0xc  Strings.o [1]
  .rodata             const    0x0002f5bc      0xc  Strings.o [1]
  .rodata             const    0x0002f5c8      0xc  Strings.o [1]
  .rodata             const    0x0002f5d4      0xc  Strings.o [1]
  .rodata             const    0x0002f5e0      0xc  Strings.o [1]
  .rodata             const    0x0002f5ec      0xc  Strings.o [1]
  .rodata             const    0x0002f5f8      0xc  Strings.o [1]
  .rodata             const    0x0002f604      0xc  Strings.o [1]
  .rodata             const    0x0002f610      0xc  Strings.o [1]
  .rodata             const    0x0002f61c      0xc  Strings.o [1]
  .rodata             const    0x0002f628      0xc  Strings.o [1]
  .rodata             const    0x0002f634      0xc  Strings.o [1]
  .rodata             const    0x0002f640      0xc  Strings.o [1]
  .rodata             const    0x0002f64c      0xc  Strings.o [1]
  .rodata             const    0x0002f658      0xc  Strings.o [1]
  .rodata             const    0x0002f664      0xc  Strings.o [1]
  .rodata             const    0x0002f670      0xc  Strings.o [1]
  .rodata             const    0x0002f67c      0xc  Strings.o [1]
  .rodata             const    0x0002f688      0xc  Strings.o [1]
  .rodata             const    0x0002f694      0xc  Strings.o [1]
  .rodata             const    0x0002f6a0      0xc  Strings.o [1]
  .rodata             const    0x0002f6ac      0xc  Strings.o [1]
  .rodata             const    0x0002f6b8      0xc  Strings.o [1]
  .rodata             const    0x0002f6c4      0xc  Strings.o [1]
  .rodata             const    0x0002f6d0      0xc  Strings.o [1]
  .rodata             const    0x0002f6dc      0xc  Strings.o [1]
  .rodata             const    0x0002f6e8      0xc  Strings.o [1]
  .rodata             const    0x0002f6f4      0xc  Strings.o [1]
  .rodata             const    0x0002f700      0xc  Strings.o [1]
  .rodata             const    0x0002f70c      0xc  Strings.o [1]
  .rodata             const    0x0002f718      0xc  Strings.o [1]
  .rodata             const    0x0002f724      0xc  Strings.o [1]
  .rodata             const    0x0002f730      0xc  Strings.o [1]
  .rodata             const    0x0002f73c      0xc  Strings.o [1]
  .rodata             const    0x0002f748      0xc  Strings.o [1]
  .rodata             const    0x0002f754      0xc  Wlt2564_Command.o [1]
  .rodata             const    0x0002f760      0xc  Wlt2564_Command.o [1]
  .rodata             const    0x0002f76c      0xc  Wlt2564_Command.o [1]
  .rodata             const    0x0002f778      0xc  Wlt2564_Command.o [1]
  .rodata             const    0x0002f784      0xc  Wlt2564_Command.o [1]
  .rodata             const    0x0002f790      0xc  Wlt2564_Command.o [1]
  .rodata             const    0x0002f79c      0xc  Wlt2564_Command.o [1]
  .rodata             const    0x0002f7a8      0xc  Wlt2564_Command.o [1]
  .rodata             const    0x0002f7b4      0xc  Wlt2564_Command.o [1]
  .rodata             const    0x0002f7c0      0xc  Wlt2564_Command.o [1]
  .text               ro code  0x0002f7cc      0xc  cstartup_M.o [5]
  .rodata             const    0x0002f7d8      0x8  Events_Handler.o [1]
  .rodata             const    0x0002f7e0      0x8  Events_Handler.o [1]
  .rodata             const    0x0002f7e8      0x8  Events_Handler.o [1]
  .rodata             const    0x0002f7f0      0x8  Events_Handler.o [1]
  .rodata             const    0x0002f7f8      0x8  Events_Handler.o [1]
  .rodata             const    0x0002f800      0x8  Events_Handler.o [1]
  .rodata             const    0x0002f808      0x8  main.o [1]
  .rodata             const    0x0002f810      0x8  main.o [1]
  .rodata             const    0x0002f818      0x8  main.o [1]
  .rodata             const    0x0002f820      0x8  Show.o [1]
  .rodata             const    0x0002f828      0x8  Show.o [1]
  .rodata             const    0x0002f830      0x8  Show.o [1]
  .rodata             const    0x0002f838      0x8  Show.o [1]
  .rodata             const    0x0002f840      0x8  Show.o [1]
  .rodata             const    0x0002f848      0x8  Show.o [1]
  .rodata             const    0x0002f850      0x8  Show.o [1]
  .rodata             const    0x0002f858      0x8  Show.o [1]
  .rodata             const    0x0002f860      0x8  Show.o [1]
  .rodata             const    0x0002f868      0x8  Show.o [1]
  .rodata             const    0x0002f870      0x8  Show.o [1]
  .rodata             const    0x0002f878      0x8  Show.o [1]
  .rodata             const    0x0002f880      0x8  Show.o [1]
  .rodata             const    0x0002f888      0x8  Show.o [1]
  .rodata             const    0x0002f890      0x8  Show.o [1]
  .rodata             const    0x0002f898      0x8  Show.o [1]
  .rodata             const    0x0002f8a0      0x8  Show.o [1]
  .rodata             const    0x0002f8a8      0x8  Show.o [1]
  .rodata             const    0x0002f8b0      0x8  Show.o [1]
  .rodata             const    0x0002f8b8      0x8  Show.o [1]
  .rodata             const    0x0002f8c0      0x8  Show.o [1]
  .rodata             const    0x0002f8c8      0x8  Strings.o [1]
  .rodata             const    0x0002f8d0      0x8  Strings.o [1]
  .rodata             const    0x0002f8d8      0x8  Strings.o [1]
  .rodata             const    0x0002f8e0      0x8  Strings.o [1]
  .rodata             const    0x0002f8e8      0x8  Strings.o [1]
  .rodata             const    0x0002f8f0      0x8  Strings.o [1]
  .rodata             const    0x0002f8f8      0x8  Strings.o [1]
  .rodata             const    0x0002f900      0x8  Strings.o [1]
  .rodata             const    0x0002f908      0x8  Strings.o [1]
  .rodata             const    0x0002f910      0x8  Strings.o [1]
  .rodata             const    0x0002f918      0x8  Strings.o [1]
  .rodata             const    0x0002f920      0x8  Strings.o [1]
  .rodata             const    0x0002f928      0x8  Strings.o [1]
  .rodata             const    0x0002f930      0x8  Strings.o [1]
  .rodata             const    0x0002f938      0x8  Strings.o [1]
  .rodata             const    0x0002f940      0x8  Strings.o [1]
  .rodata             const    0x0002f948      0x8  Strings.o [1]
  .rodata             const    0x0002f950      0x8  Strings.o [1]
  .rodata             const    0x0002f958      0x8  Strings.o [1]
  .rodata             const    0x0002f960      0x8  Strings.o [1]
  .rodata             const    0x0002f968      0x8  Strings.o [1]
  .rodata             const    0x0002f970      0x8  Strings.o [1]
  .rodata             const    0x0002f978      0x8  Strings.o [1]
  .rodata             const    0x0002f980      0x8  Strings.o [1]
  .rodata             const    0x0002f988      0x8  Strings.o [1]
  .rodata             const    0x0002f990      0x8  Strings.o [1]
  .rodata             const    0x0002f998      0x8  Strings.o [1]
  .rodata             const    0x0002f9a0      0x8  Strings.o [1]
  .rodata             const    0x0002f9a8      0x8  Strings.o [1]
  .rodata             const    0x0002f9b0      0x8  Strings.o [1]
  .rodata             const    0x0002f9b8      0x8  Strings.o [1]
  .rodata             const    0x0002f9c0      0x8  Strings.o [1]
  .rodata             const    0x0002f9c8      0x8  Strings.o [1]
  .rodata             const    0x0002f9d0      0x8  Strings.o [1]
  .rodata             const    0x0002f9d8      0x8  Strings.o [1]
  .rodata             const    0x0002f9e0      0x8  Strings.o [1]
  .rodata             const    0x0002f9e8      0x8  Strings.o [1]
  .rodata             const    0x0002f9f0      0x8  Strings.o [1]
  .rodata             const    0x0002f9f8      0x8  Strings.o [1]
  .rodata             const    0x0002fa00      0x8  Strings.o [1]
  .rodata             const    0x0002fa08      0x8  Strings.o [1]
  .rodata             const    0x0002fa10      0x8  Strings.o [1]
  .rodata             const    0x0002fa18      0x8  Strings.o [1]
  .rodata             const    0x0002fa20      0x8  Strings.o [1]
  .rodata             const    0x0002fa28      0x8  Strings.o [1]
  .rodata             const    0x0002fa30      0x8  Strings.o [1]
  .rodata             const    0x0002fa38      0x8  Strings.o [1]
  .rodata             const    0x0002fa40      0x8  Strings.o [1]
  .rodata             const    0x0002fa48      0x8  Strings.o [1]
  .rodata             const    0x0002fa50      0x8  Strings.o [1]
  .rodata             const    0x0002fa58      0x8  Strings.o [1]
  .rodata             const    0x0002fa60      0x8  Strings.o [1]
  .rodata             const    0x0002fa68      0x8  Strings.o [1]
  .rodata             const    0x0002fa70      0x8  Strings.o [1]
  .rodata             const    0x0002fa78      0x8  Strings.o [1]
  .rodata             const    0x0002fa80      0x8  Strings.o [1]
  .rodata             const    0x0002fa88      0x8  Strings.o [1]
  .rodata             const    0x0002fa90      0x8  Strings.o [1]
  .rodata             const    0x0002fa98      0x8  Strings.o [1]
  .rodata             const    0x0002faa0      0x8  Strings.o [1]
  .rodata             const    0x0002faa8      0x8  Strings.o [1]
  .rodata             const    0x0002fab0      0x8  Strings.o [1]
  .rodata             const    0x0002fab8      0x8  Strings.o [1]
  .rodata             const    0x0002fac0      0x8  Strings.o [1]
  .rodata             const    0x0002fac8      0x8  Strings.o [1]
  .rodata             const    0x0002fad0      0x8  Strings.o [1]
  .rodata             const    0x0002fad8      0x8  Strings.o [1]
  .rodata             const    0x0002fae0      0x8  Strings.o [1]
  .rodata             const    0x0002fae8      0x8  Strings.o [1]
  .rodata             const    0x0002faf0      0x8  Strings.o [1]
  .rodata             const    0x0002faf8      0x8  Strings.o [1]
  .rodata             const    0x0002fb00      0x8  Strings.o [1]
  .rodata             const    0x0002fb08      0x8  Strings.o [1]
  .rodata             const    0x0002fb10      0x8  Strings.o [1]
  .rodata             const    0x0002fb18      0x8  Strings.o [1]
  .rodata             const    0x0002fb20      0x8  Strings.o [1]
  .rodata             const    0x0002fb28      0x8  Strings.o [1]
  .rodata             const    0x0002fb30      0x8  Strings.o [1]
  .rodata             const    0x0002fb38      0x8  Strings.o [1]
  .rodata             const    0x0002fb40      0x8  Strings.o [1]
  .rodata             const    0x0002fb48      0x8  Strings.o [1]
  .rodata             const    0x0002fb50      0x8  Strings.o [1]
  .rodata             const    0x0002fb58      0x8  Strings.o [1]
  .rodata             const    0x0002fb60      0x8  Strings.o [1]
  .rodata             const    0x0002fb68      0x8  Strings.o [1]
  .rodata             const    0x0002fb70      0x8  Strings.o [1]
  .rodata             const    0x0002fb78      0x8  Strings.o [1]
  .rodata             const    0x0002fb80      0x8  Strings.o [1]
  .rodata             const    0x0002fb88      0x8  Strings.o [1]
  .rodata             const    0x0002fb90      0x8  Strings.o [1]
  .rodata             const    0x0002fb98      0x8  Strings.o [1]
  .rodata             const    0x0002fba0      0x8  Strings.o [1]
  .rodata             const    0x0002fba8      0x8  Strings.o [1]
  .rodata             const    0x0002fbb0      0x8  Strings.o [1]
  .rodata             const    0x0002fbb8      0x8  Strings.o [1]
  .rodata             const    0x0002fbc0      0x8  Strings.o [1]
  .rodata             const    0x0002fbc8      0x8  Strings.o [1]
  .rodata             const    0x0002fbd0      0x8  Strings.o [1]
  .rodata             const    0x0002fbd8      0x8  Strings.o [1]
  .rodata             const    0x0002fbe0      0x8  Strings.o [1]
  .rodata             const    0x0002fbe8      0x8  Strings.o [1]
  .rodata             const    0x0002fbf0      0x8  Strings.o [1]
  .rodata             const    0x0002fbf8      0x8  Strings.o [1]
  .rodata             const    0x0002fc00      0x8  Strings.o [1]
  .rodata             const    0x0002fc08      0x8  Strings.o [1]
  .rodata             const    0x0002fc10      0x8  Strings.o [1]
  .rodata             const    0x0002fc18      0x8  Strings.o [1]
  .rodata             const    0x0002fc20      0x8  Strings.o [1]
  .rodata             const    0x0002fc28      0x8  Strings.o [1]
  .rodata             const    0x0002fc30      0x8  Strings.o [1]
  .rodata             const    0x0002fc38      0x8  Strings.o [1]
  .rodata             const    0x0002fc40      0x8  Strings.o [1]
  .rodata             const    0x0002fc48      0x8  Strings.o [1]
  .rodata             const    0x0002fc50      0x8  Strings.o [1]
  .rodata             const    0x0002fc58      0x8  Strings.o [1]
  .rodata             const    0x0002fc60      0x8  Strings.o [1]
  .rodata             const    0x0002fc68      0x8  Strings.o [1]
  .rodata             const    0x0002fc70      0x8  Strings.o [1]
  .rodata             const    0x0002fc78      0x8  Strings.o [1]
  .rodata             const    0x0002fc80      0x8  Strings.o [1]
  .rodata             const    0x0002fc88      0x8  Strings.o [1]
  .rodata             const    0x0002fc90      0x8  Strings.o [1]
  .rodata             const    0x0002fc98      0x8  SystemConfig.o [1]
  .rodata             const    0x0002fca0      0x8  Wlt2564_Command.o [1]
  .rodata             const    0x0002fca8      0x8  Wlt2564_Command.o [1]
  .rodata             const    0x0002fcb0      0x8  Wlt2564_Command.o [1]
  .rodata             const    0x0002fcb8      0x8  Wlt2564_Command.o [1]
  .rodata             const    0x0002fcc0      0x8  Wlt2564_Command.o [1]
  .rodata             const    0x0002fcc8      0x8  Wlt2564_Command.o [1]
  .rodata             const    0x0002fcd0      0x4  em_i2c.o [1]
  .rodata             const    0x0002fcd4      0x4  main.o [1]
  .rodata             const    0x0002fcd8      0x4  main.o [1]
  .rodata             const    0x0002fcdc      0x4  Show.o [1]
  .rodata             const    0x0002fce0      0x4  Show.o [1]
  .rodata             const    0x0002fce4      0x4  Show.o [1]
  .rodata             const    0x0002fce8      0x4  Strings.o [1]
  .rodata             const    0x0002fcec      0x4  Strings.o [1]
  .rodata             const    0x0002fcf0      0x4  Strings.o [1]
  .rodata             const    0x0002fcf4      0x4  Strings.o [1]
  .rodata             const    0x0002fcf8      0x4  Strings.o [1]
  .rodata             const    0x0002fcfc      0x4  Strings.o [1]
  .rodata             const    0x0002fd00      0x4  Strings.o [1]
  .rodata             const    0x0002fd04      0x4  Strings.o [1]
  .rodata             const    0x0002fd08      0x4  Strings.o [1]
  .rodata             const    0x0002fd0c      0x4  Strings.o [1]
  .rodata             const    0x0002fd10      0x4  Strings.o [1]
  .rodata             const    0x0002fd14      0x4  Strings.o [1]
  .rodata             const    0x0002fd18      0x4  Strings.o [1]
  .rodata             const    0x0002fd1c      0x4  Strings.o [1]
  .rodata             const    0x0002fd20      0x4  Strings.o [1]
  .rodata             const    0x0002fd24      0x4  Strings.o [1]
  .rodata             const    0x0002fd28      0x4  Strings.o [1]
  .rodata             const    0x0002fd2c      0x4  Strings.o [1]
  .rodata             const    0x0002fd30      0x4  Strings.o [1]
  .rodata             const    0x0002fd34      0x4  Strings.o [1]
  .rodata             const    0x0002fd38      0x4  Strings.o [1]
  .rodata             const    0x0002fd3c      0x4  Strings.o [1]
  .rodata             const    0x0002fd40      0x4  Strings.o [1]
  .rodata             const    0x0002fd44      0x4  Strings.o [1]
  .rodata             const    0x0002fd48      0x4  Strings.o [1]
  .rodata             const    0x0002fd4c      0x4  Strings.o [1]
  .rodata             const    0x0002fd50      0x4  Strings.o [1]
  .rodata             const    0x0002fd54      0x4  Strings.o [1]
  .rodata             const    0x0002fd58      0x4  Strings.o [1]
  .rodata             const    0x0002fd5c      0x4  Strings.o [1]
  .rodata             const    0x0002fd60      0x4  Strings.o [1]
  .rodata             const    0x0002fd64      0x4  Strings.o [1]
  .rodata             const    0x0002fd68      0x4  Strings.o [1]
  .rodata             const    0x0002fd6c      0x4  Strings.o [1]
  .rodata             const    0x0002fd70      0x4  Strings.o [1]
  .rodata             const    0x0002fd74      0x4  Strings.o [1]
  .rodata             const    0x0002fd78      0x4  Strings.o [1]
  .rodata             const    0x0002fd7c      0x4  Strings.o [1]
  .rodata             const    0x0002fd80      0x4  Strings.o [1]
  .rodata             const    0x0002fd84      0x4  Strings.o [1]
  .rodata             const    0x0002fd88      0x4  Strings.o [1]
  .rodata             const    0x0002fd8c      0x4  Strings.o [1]
  .rodata             const    0x0002fd90      0x4  Strings.o [1]
  .rodata             const    0x0002fd94      0x4  Strings.o [1]
  .rodata             const    0x0002fd98      0x4  Strings.o [1]
  .rodata             const    0x0002fd9c      0x4  Strings.o [1]
  .rodata             const    0x0002fda0      0x4  Wlt2564_Command.o [1]
  .rodata             const    0x0002fda4      0x4  Wlt2564_Command.o [1]
  .rodata             const    0x0002fda8      0x4  Wlt2564_Command.o [1]
  .text               ro code  0x0002fdac      0x4  startup_efm32lg.o [1]
  .text               ro code  0x0002fdb0      0x4  startup_efm32lg.o [1]
  .text               ro code  0x0002fdb4      0x4  startup_efm32lg.o [1]
  .text               ro code  0x0002fdb8      0x4  startup_efm32lg.o [1]
  .text               ro code  0x0002fdbc      0x4  startup_efm32lg.o [1]
  .text               ro code  0x0002fdc0      0x4  startup_efm32lg.o [1]
  .text               ro code  0x0002fdc4      0x4  startup_efm32lg.o [1]
  .text               ro code  0x0002fdc8      0x4  startup_efm32lg.o [1]
  .text               ro code  0x0002fdcc      0x4  startup_efm32lg.o [1]
  .text               ro code  0x0002fdd0      0x4  startup_efm32lg.o [1]
  .text               ro code  0x0002fdd4      0x4  startup_efm32lg.o [1]
  .text               ro code  0x0002fdd8      0x4  startup_efm32lg.o [1]
  .text               ro code  0x0002fddc      0x4  startup_efm32lg.o [1]
  .text               ro code  0x0002fde0      0x4  startup_efm32lg.o [1]
  .text               ro code  0x0002fde4      0x4  startup_efm32lg.o [1]
  .text               ro code  0x0002fde8      0x4  startup_efm32lg.o [1]
  .text               ro code  0x0002fdec      0x4  startup_efm32lg.o [1]
  .text               ro code  0x0002fdf0      0x4  startup_efm32lg.o [1]
  .text               ro code  0x0002fdf4      0x4  startup_efm32lg.o [1]
  .text               ro code  0x0002fdf8      0x4  startup_efm32lg.o [1]
  .text               ro code  0x0002fdfc      0x4  startup_efm32lg.o [1]
  .text               ro code  0x0002fe00      0x4  startup_efm32lg.o [1]
  .text               ro code  0x0002fe04      0x4  startup_efm32lg.o [1]
  .text               ro code  0x0002fe08      0x4  startup_efm32lg.o [1]
  .text               ro code  0x0002fe0c      0x4  startup_efm32lg.o [1]
  .text               ro code  0x0002fe10      0x4  startup_efm32lg.o [1]
  .text               ro code  0x0002fe14      0x4  startup_efm32lg.o [1]
  .text               ro code  0x0002fe18      0x4  startup_efm32lg.o [1]
  .text               ro code  0x0002fe1c      0x4  startup_efm32lg.o [1]
  .text               ro code  0x0002fe20      0x4  startup_efm32lg.o [1]
  .text               ro code  0x0002fe24      0x4  startup_efm32lg.o [1]
  .text               ro code  0x0002fe28      0x4  startup_efm32lg.o [1]
  .text               ro code  0x0002fe2c      0x4  startup_efm32lg.o [1]
  .text               ro code  0x0002fe30      0x4  startup_efm32lg.o [1]
  .text               ro code  0x0002fe34      0x4  startup_efm32lg.o [1]
  .text               ro code  0x0002fe38      0x4  startup_efm32lg.o [1]
  .text               ro code  0x0002fe3c      0x4  startup_efm32lg.o [1]
  .text               ro code  0x0002fe40      0x4  startup_efm32lg.o [1]
  .text               ro code  0x0002fe44      0x4  startup_efm32lg.o [1]
  .text               ro code  0x0002fe48      0x4  startup_efm32lg.o [1]
  .text               ro code  0x0002fe4c      0x4  startup_efm32lg.o [1]
  .text               ro code  0x0002fe50      0x4  startup_efm32lg.o [1]
  .text               ro code  0x0002fe54      0x4  startup_efm32lg.o [1]
  .text               ro code  0x0002fe58      0x4  startup_efm32lg.o [1]
  .text               ro code  0x0002fe5c      0x4  startup_efm32lg.o [1]
  .text               ro code  0x0002fe60      0x4  startup_efm32lg.o [1]
  .text               ro code  0x0002fe64      0x4  startup_efm32lg.o [1]
  .text               ro code  0x0002fe68      0x4  startup_efm32lg.o [1]
  .rodata             const    0x0002fe6c      0x0  zero_init3.o [5]
  .rodata             const    0x0002fe6c      0x0  lz77_init_single.o [5]
  Initializer bytes   const    0x0002fe6c    0x561  <for P3-1>
                             - 0x000303cd  0x302f1

"A1":                                         0x20
  .ModelAddr          const    0x0003e000     0x20  main.o [1]
                             - 0x0003e020     0x20

"A2":                                          0x8
  .MVerAddr           const    0x0003e020      0x8  main.o [1]
                             - 0x0003e028      0x8

"A3":                                          0x8
  .SVerAddr           const    0x0003e028      0x8  main.o [1]
                             - 0x0003e030      0x8

"A4":                                          0x4
  .checksum           const    0x0003e030      0x4  Place holder __checksum
                             - 0x0003e034      0x4

"A5":                                          0x4
  .UpdateStep         const    0x0003e034      0x4  main.o [1]
                             - 0x0003e038      0x4

Absolute sections:                            0xd8
  .noinit             uninit   0x20000000     0xd8  HAL_Lib.o [1]
                             - 0x200000d8     0xd8

"P3", part 1 of 3:                           0x766
  P3-1                         0x200000d8    0x766  <Init block>
    .data             inited   0x200000d8     0x14  Bluetooth_lib.o [1]
    .data             inited   0x200000ec     0x14  Bluetooth_lib.o [1]
    .data             inited   0x20000100    0x200  CRC.o [1]
    .data             inited   0x20000300     0x14  ftms.o [1]
    .data             inited   0x20000314     0x14  ftms.o [1]
    .data             inited   0x20000328     0x20  ftms.o [1]
    .data             inited   0x20000348     0x20  ftms.o [1]
    .data             inited   0x20000368     0x20  ftms.o [1]
    .data             inited   0x20000388     0x20  ftms.o [1]
    .data             inited   0x200003a8     0x20  ftms.o [1]
    .data             inited   0x200003c8     0x20  ftms.o [1]
    .data             inited   0x200003e8     0x10  ftms.o [1]
    .data             inited   0x200003f8     0x14  ftms.o [1]
    .data             inited   0x2000040c     0x14  ftms.o [1]
    .data             inited   0x20000420     0x14  ftms.o [1]
    .data             inited   0x20000434     0x14  ftms.o [1]
    .data             inited   0x20000448     0x14  ftms.o [1]
    .data             inited   0x2000045c     0x14  ftms.o [1]
    .data             inited   0x20000470     0x1c  ftms.o [1]
    .data             inited   0x2000048c     0x20  ftms.o [1]
    .data             inited   0x200004ac     0x14  ftms.o [1]
    .data             inited   0x200004c0     0x4c  ftms.o [1]
    .data             inited   0x2000050c     0x20  ftms_iface.o [1]
    .data             inited   0x2000052c      0x8  main.o [1]
    .data             inited   0x20000534      0x4  main.o [1]
    .data             inited   0x20000538      0x8  main.o [1]
    .data             inited   0x20000540      0xc  main.o [1]
    .data             inited   0x2000054c     0x10  main.o [1]
    .data             inited   0x2000055c     0x38  main.o [1]
    .data             inited   0x20000594      0x4  msdbot.o [1]
    .data             inited   0x20000598      0xa  Pro_hrc.o [1]
    .data             inited   0x200005a4      0x8  Programs.o [1]
    .data             inited   0x200005ac     0x18  Remote_process.o [1]
    .data             inited   0x200005c4     0x18  Remote_process.o [1]
    .data             inited   0x200005dc      0x4  system_efm32lg.o [1]
    .data             inited   0x200005e0      0x4  system_efm32lg.o [1]
    .data             inited   0x200005e4      0x4  USBManager.o [1]
    .data             inited   0x200005e8     0x18  USBManager.o [1]
    .data             inited   0x20000600      0x4  UtilitiesErrorcode.o [1]
    .data             inited   0x20000604      0x4  UtilitiesErrorcode.o [1]
    .data             inited   0x20000608     0x44  Wlt2564_Command.o [1]
    .data             inited   0x2000064c     0x58  Wlt2564_Command.o [1]
    .textrw           inited   0x200006a4    0x178  em_msc.o [1]
    __DLIB_PERTHREAD  inited   0x2000081c      0x4  errno.o [3]
    .data             inited   0x20000820      0x4  Data_Process.o [1]
    .data             inited   0x20000824      0x2  ftms_iface.o [1]
    .data             inited   0x20000826      0x2  ftms_iface.o [1]
    .data             inited   0x20000828      0x4  Pro_Custom.o [1]
    .data             inited   0x2000082c      0x2  Pro_goal.o [1]
    .data             inited   0x2000082e      0x2  Pro_hrc.o [1]
    .data             inited   0x20000830      0x2  Pro_manual.o [1]
    .data             inited   0x20000832      0x2  Pro_MyFirst5k.o [1]
    .data             inited   0x20000834      0x2  Pro_table.o [1]
    .data             inited   0x20000836      0x1  ftms_iface.o [1]
    .data             inited   0x20000837      0x1  HAL_Lib.o [1]
    .data             inited   0x20000838      0x1  msddiskio.o [1]
    .data             inited   0x20000839      0x1  Speed.o [1]
    .data             inited   0x2000083a      0x1  UtilitiesBor.o [1]
    .data             inited   0x2000083b      0x1  UtilitiesErrorcode.o [1]
    .data             inited   0x2000083c      0x1  UtilitiesErrorcode.o [1]
    .data             inited   0x2000083d      0x1  Wlt2564_Command.o [1]
                             - 0x2000083e    0x766

"P3", part 2 of 3:                          0x1600
  CSTACK                       0x20000840   0x1600  <Block>
    CSTACK            uninit   0x20000840   0x1600  <Block tail>
                             - 0x20001e40   0x1600

"P3", part 3 of 3:                          0x1f7c
  .bss                zero     0x20001e40    0x414  Wlt2564_Command.o [1]
  .bss                zero     0x20002254    0x414  Wlt2564_Command.o [1]
  .bss                zero     0x20002668    0x400  USBManager.o [1]
  .bss                zero     0x20002a68    0x320  Wlt2564_Command.o [1]
  .bss                zero     0x20002d88    0x234  USBManager.o [1]
  .bss                zero     0x20002fbc    0x224  USBManager.o [1]
  .bss                zero     0x200031e0    0x200  USBManager.o [1]
  .bss                zero     0x200033e0    0x104  Wlt2564_Command.o [1]
  .bss                zero     0x20003500    0x100  HAL_Lib.o [1]
  .bss                zero     0x20003600    0x100  USBManager.o [1]
  .bss                zero     0x20003700     0xac  HAL_Lib.o [1]
  .bss                zero     0x200037ac     0x94  HAL_Lib.o [1]
  .bss                zero     0x20003840     0x70  em_usbh.o [1]
  .bss                zero     0x200038b0     0x70  msdh.o [1]
  .bss                zero     0x20003920     0x68  msdh.o [1]
  .bss                zero     0x20003988     0x50  em_usbtimer.o [1]
  .bss                zero     0x200039d8     0x34  ftms.o [1]
  .bss                zero     0x20003a0c     0x34  ftms.o [1]
  .bss                zero     0x20003a40     0x34  HAL_Lib.o [1]
  .bss                zero     0x20003a74     0x24  HAL_Lib.o [1]
  .bss                zero     0x20003a98     0x20  LED.o [1]
  .bss                zero     0x20003ab8     0x20  Show.o [1]
  .bss                zero     0x20003ad8     0x20  USBManager.o [1]
  .bss                zero     0x20003af8     0x1c  Remote_general.o [1]
  .bss                zero     0x20003b14     0x18  em_i2c.o [1]
  .bss                zero     0x20003b2c     0x18  HAL_Lib.o [1]
  .bss                zero     0x20003b44     0x14  ftms.o [1]
  .bss                zero     0x20003b58     0x14  ftms.o [1]
  .bss                zero     0x20003b6c     0x14  ftms.o [1]
  .bss                zero     0x20003b80     0x14  Wlt2564_Command.o [1]
  .bss                zero     0x20003b94     0x10  em_usbh.o [1]
  .bss                zero     0x20003ba4     0x10  msdbot.o [1]
  .bss                zero     0x20003bb4     0x10  Wlt2564_Command.o [1]
  .bss                zero     0x20003bc4     0x10  Wlt2564_Command.o [1]
  .bss                zero     0x20003bd4     0x10  Wlt2564_Command.o [1]
  .bss                zero     0x20003be4      0xc  HAL_Lib.o [1]
  .bss                zero     0x20003bf0      0xc  RPM.o [1]
  .bss                zero     0x20003bfc      0xc  Wlt2564_Command.o [1]
  .bss                zero     0x20003c08      0x8  Engmode.o [1]
  .bss                zero     0x20003c10      0x8  HAL_Lib.o [1]
  .bss                zero     0x20003c18      0x8  HAL_Lib.o [1]
  .bss                zero     0x20003c20      0x8  Remote_workoutTracking.o [1]
  .bss                zero     0x20003c28      0x8  SetRtc.o [1]
  .bss                zero     0x20003c30      0x8  Wlt2564_Command.o [1]
  .bss                zero     0x20003c38      0x4  Bluetooth_lib.o [1]
  .bss                zero     0x20003c3c      0x4  Bluetooth_lib.o [1]
  .bss                zero     0x20003c40      0x4  Bluetooth_lib.o [1]
  .bss                zero     0x20003c44      0x4  Display.o [1]
  .bss                zero     0x20003c48      0x4  em_int.o [1]
  .bss                zero     0x20003c4c      0x4  em_usbh.o [1]
  .bss                zero     0x20003c50      0x4  em_usbtimer.o [1]
  .bss                zero     0x20003c54      0x4  em_usbtimer.o [1]
  .bss                zero     0x20003c58      0x4  em_usbtimer.o [1]
  .bss                zero     0x20003c5c      0x4  em_usbtimer.o [1]
  .bss                zero     0x20003c60      0x4  em_usbtimer.o [1]
  .bss                zero     0x20003c64      0x4  Engmode.o [1]
  .bss                zero     0x20003c68      0x4  ff.o [1]
  .bss                zero     0x20003c6c      0x4  HAL_Lib.o [1]
  .bss                zero     0x20003c70      0x4  HAL_Lib.o [1]
  .bss                zero     0x20003c74      0x4  HAL_Lib.o [1]
  .bss                zero     0x20003c78      0x4  LCB.o [1]
  .bss                zero     0x20003c7c      0x4  LCB.o [1]
  .bss                zero     0x20003c80      0x4  LCB.o [1]
  .bss                zero     0x20003c84      0x4  LCB.o [1]
  .bss                zero     0x20003c88      0x4  LCB.o [1]
  .bss                zero     0x20003c8c      0x4  LCB.o [1]
  .bss                zero     0x20003c90      0x4  main.o [1]
  .bss                zero     0x20003c94      0x4  msdbot.o [1]
  .bss                zero     0x20003c98      0x4  msdbot.o [1]
  .bss                zero     0x20003c9c      0x4  msdbot.o [1]
  .bss                zero     0x20003ca0      0x4  msdh.o [1]
  .bss                zero     0x20003ca4      0x4  msdh.o [1]
  .bss                zero     0x20003ca8      0x4  msdscsi.o [1]
  .bss                zero     0x20003cac      0x4  msdscsi.o [1]
  .bss                zero     0x20003cb0      0x4  Remote_general.o [1]
  .bss                zero     0x20003cb4      0x4  Show_Functions.o [1]
  .bss                zero     0x20003cb8      0x4  Speed.o [1]
  .bss                zero     0x20003cbc      0x4  Speed.o [1]
  .bss                zero     0x20003cc0      0x4  Speed.o [1]
  .bss                zero     0x20003cc4      0x4  Speed.o [1]
  .bss                zero     0x20003cc8      0x4  Speed.o [1]
  .bss                zero     0x20003ccc      0x4  Speed.o [1]
  .bss                zero     0x20003cd0      0x4  Speed.o [1]
  .bss                zero     0x20003cd4      0x4  Speed.o [1]
  .bss                zero     0x20003cd8      0x4  Speed.o [1]
  .bss                zero     0x20003cdc      0x4  Speed.o [1]
  .bss                zero     0x20003ce0      0x4  Speed.o [1]
  .bss                zero     0x20003ce4      0x4  Speed.o [1]
  .bss                zero     0x20003ce8      0x4  Speed.o [1]
  .bss                zero     0x20003cec      0x4  Speed.o [1]
  .bss                zero     0x20003cf0      0x4  system_efm32lg.o [1]
  .bss                zero     0x20003cf4      0x4  USBManager.o [1]
  .bss                zero     0x20003cf8      0x4  USBManager.o [1]
  .bss                zero     0x20003cfc      0x4  USBManager.o [1]
  .bss                zero     0x20003d00      0x4  USBManager.o [1]
  .bss                zero     0x20003d04      0x4  USBManager.o [1]
  .bss                zero     0x20003d08      0x4  Wlt2564_Command.o [1]
  .bss                zero     0x20003d0c      0x3  Engmode.o [1]
  .bss                zero     0x20003d0f      0x3  Engmode.o [1]
  .bss                zero     0x20003d12      0x3  LED.o [1]
  .bss                zero     0x20003d15      0x1  Bluetooth_lib.o [1]
  .bss                zero     0x20003d16      0x2  Bluetooth_lib.o [1]
  .bss                zero     0x20003d18      0x2  Bluetooth_lib.o [1]
  .bss                zero     0x20003d1a      0x2  Bluetooth_lib.o [1]
  .bss                zero     0x20003d1c      0x2  Bluetooth_lib.o [1]
  .bss                zero     0x20003d1e      0x2  Bluetooth_lib.o [1]
  .bss                zero     0x20003d20      0x2  Bluetooth_lib.o [1]
  .bss                zero     0x20003d22      0x2  Data_Process.o [1]
  .bss                zero     0x20003d24      0x2  em_emu.o [1]
  .bss                zero     0x20003d26      0x2  Engmode.o [1]
  .bss                zero     0x20003d28      0x2  ff.o [1]
  .bss                zero     0x20003d2a      0x2  ftms_iface.o [1]
  .bss                zero     0x20003d2c      0x2  ftms_iface.o [1]
  .bss                zero     0x20003d2e      0x2  HAL_Lib.o [1]
  .bss                zero     0x20003d30      0x2  LCB.o [1]
  .bss                zero     0x20003d32      0x2  LCB.o [1]
  .bss                zero     0x20003d34      0x2  LCB.o [1]
  .bss                zero     0x20003d36      0x2  LCB.o [1]
  .bss                zero     0x20003d38      0x2  LCB.o [1]
  .bss                zero     0x20003d3a      0x2  LCB.o [1]
  .bss                zero     0x20003d3c      0x2  LED.o [1]
  .bss                zero     0x20003d3e      0x2  Midware_Heart_01.o [1]
  .bss                zero     0x20003d40      0x2  Midware_Heart_01.o [1]
  .bss                zero     0x20003d42      0x2  Midware_Heart_01.o [1]
  .bss                zero     0x20003d44      0x2  Programs.o [1]
  .bss                zero     0x20003d46      0x2  Remote_general.o [1]
  .bss                zero     0x20003d48      0x2  Remote_process.o [1]
  .bss                zero     0x20003d4a      0x2  Remote_process.o [1]
  .bss                zero     0x20003d4c      0x2  RPM.o [1]
  .bss                zero     0x20003d4e      0x2  RPM.o [1]
  .bss                zero     0x20003d50      0x2  RPM.o [1]
  .bss                zero     0x20003d52      0x2  SetRtc.o [1]
  .bss                zero     0x20003d54      0x2  Show_Functions.o [1]
  .bss                zero     0x20003d56      0x2  Show_Functions.o [1]
  .bss                zero     0x20003d58      0x2  Show_Functions.o [1]
  .bss                zero     0x20003d5a      0x2  Speed.o [1]
  .bss                zero     0x20003d5c      0x2  Speed.o [1]
  .bss                zero     0x20003d5e      0x2  Speed.o [1]
  .bss                zero     0x20003d60      0x2  Speed.o [1]
  .bss                zero     0x20003d62      0x2  Speed.o [1]
  .bss                zero     0x20003d64      0x2  UtilitiesErrorcode.o [1]
  .bss                zero     0x20003d66      0x2  Wlt2564_Command.o [1]
  .bss                zero     0x20003d68      0x2  Wlt2564_Command.o [1]
  .bss                zero     0x20003d6a      0x2  Wlt2564_Command.o [1]
  .bss                zero     0x20003d6c      0x2  Wlt2564_Command.o [1]
  .bss                zero     0x20003d6e      0x2  Wlt2564_Command.o [1]
  .bss                zero     0x20003d70      0x1  Bluetooth_lib.o [1]
  .bss                zero     0x20003d71      0x1  Bluetooth_lib.o [1]
  .bss                zero     0x20003d72      0x1  Bluetooth_lib.o [1]
  .bss                zero     0x20003d73      0x1  Bluetooth_lib.o [1]
  .bss                zero     0x20003d74      0x1  Bluetooth_lib.o [1]
  .bss                zero     0x20003d75      0x1  Bluetooth_lib.o [1]
  .bss                zero     0x20003d76      0x1  em_usbh.o [1]
  .bss                zero     0x20003d77      0x1  Events_Handler.o [1]
  .bss                zero     0x20003d78      0x1  Events_Handler.o [1]
  .bss                zero     0x20003d79      0x1  ff.o [1]
  .bss                zero     0x20003d7a      0x1  ftms_iface.o [1]
  .bss                zero     0x20003d7b      0x1  ftms_iface.o [1]
  .bss                zero     0x20003d7c      0x1  ftms_iface.o [1]
  .bss                zero     0x20003d7d      0x1  ftms_iface.o [1]
  .bss                zero     0x20003d7e      0x1  ftms_iface.o [1]
  .bss                zero     0x20003d7f      0x1  ftms_iface.o [1]
  .bss                zero     0x20003d80      0x1  HAL_Lib.o [1]
  .bss                zero     0x20003d81      0x1  HAL_Lib.o [1]
  .bss                zero     0x20003d82      0x1  HAL_Lib.o [1]
  .bss                zero     0x20003d83      0x1  HAL_Lib.o [1]
  .bss                zero     0x20003d84      0x1  HAL_Lib.o [1]
  .bss                zero     0x20003d85      0x1  HAL_Lib.o [1]
  .bss                zero     0x20003d86      0x1  HAL_Lib.o [1]
  .bss                zero     0x20003d87      0x1  Incline_Count.o [1]
  .bss                zero     0x20003d88      0x1  LCB.o [1]
  .bss                zero     0x20003d89      0x1  LCB.o [1]
  .bss                zero     0x20003d8a      0x1  Midware_Heart_01.o [1]
  .bss                zero     0x20003d8b      0x1  Midware_Heart_01.o [1]
  .bss                zero     0x20003d8c      0x1  Midware_Heart_01.o [1]
  .bss                zero     0x20003d8d      0x1  Midware_Heart_01.o [1]
  .bss                zero     0x20003d8e      0x1  Midware_Heart_01.o [1]
  .bss                zero     0x20003d8f      0x1  Midware_Heart_01.o [1]
  .bss                zero     0x20003d90      0x1  Midware_Heart_01.o [1]
  .bss                zero     0x20003d91      0x1  Midware_Heart_01.o [1]
  .bss                zero     0x20003d92      0x1  Midware_Heart_01.o [1]
  .bss                zero     0x20003d93      0x1  Midware_Heart_01.o [1]
  .bss                zero     0x20003d94      0x1  Remote_general.o [1]
  .bss                zero     0x20003d95      0x1  Remote_workoutTracking.o [1]
  .bss                zero     0x20003d96      0x1  Remote_workoutTracking.o [1]
  .bss                zero     0x20003d97      0x1  RPM.o [1]
  .bss                zero     0x20003d98      0x1  SetRtc.o [1]
  .bss                zero     0x20003d99      0x1  SetRtc.o [1]
  .bss                zero     0x20003d9a      0x1  Show.o [1]
  .bss                zero     0x20003d9b      0x1  Speed.o [1]
  .bss                zero     0x20003d9c      0x1  Speed.o [1]
  .bss                zero     0x20003d9d      0x1  Speed.o [1]
  .bss                zero     0x20003d9e      0x1  Speed.o [1]
  .bss                zero     0x20003d9f      0x1  Speed.o [1]
  .bss                zero     0x20003da0      0x1  Speed.o [1]
  .bss                zero     0x20003da1      0x1  USBManager.o [1]
  .bss                zero     0x20003da2      0x1  USBManager.o [1]
  .bss                zero     0x20003da3      0x1  UtilitiesBeep.o [1]
  .bss                zero     0x20003da4      0x1  UtilitiesBor.o [1]
  .bss                zero     0x20003da5      0x1  UtilitiesErp.o [1]
  .bss                zero     0x20003da6      0x1  UtilitiesErrorcode.o [1]
  .bss                zero     0x20003da7      0x1  UtilitiesFan.o [1]
  .bss                zero     0x20003da8      0x1  UtilitiesKeyboard.o [1]
  .bss                zero     0x20003da9      0x1  UtilitiesKeyboard.o [1]
  .bss                zero     0x20003daa      0x1  UtilitiesKeyboard.o [1]
  .bss                zero     0x20003dab      0x1  UtilitiesKeyboard.o [1]
  .bss                zero     0x20003dac      0x1  UtilitiesKeyboard.o [1]
  .bss                zero     0x20003dad      0x1  UtilitiesKeyboard.o [1]
  .bss                zero     0x20003dae      0x1  UtilitiesKeyInputMethod.o [1]
  .bss                zero     0x20003daf      0x1  UtilitiesProcess.o [1]
  .bss                zero     0x20003db0      0x1  UtilitiesTimer.o [1]
  .bss                zero     0x20003db1      0x1  Wlt2564_Command.o [1]
  .bss                zero     0x20003db2      0x1  Wlt2564_Command.o [1]
  .bss                zero     0x20003db3      0x1  Wlt2564_Command.o [1]
  .bss                zero     0x20003db4      0x1  Wlt2564_Command.o [1]
  .bss                zero     0x20003db5      0x1  Wlt2564_Command.o [1]
  .bss                zero     0x20003db6      0x1  Wlt2564_Command.o [1]
  .bss                zero     0x20003db7      0x1  Wlt2564_Command.o [1]
  .bss                zero     0x20003db8      0x1  Wlt2564_Command.o [1]
  .bss                zero     0x20003db9      0x1  Wlt2564_Command.o [1]
                             - 0x20003dba   0x1f7a

"P1":                                       0x2ac8
  .noinit             uninit   0x20004000   0x16a4  SystemConfig.o [1]
  .noinit             uninit   0x200056a4    0x618  Remote_process.o [1]
  .noinit             uninit   0x20005cbc    0x1bc  Bluetooth_lib.o [1]
  .noinit             uninit   0x20005e78    0x118  Page.o [1]
  .noinit             uninit   0x20005f90     0xb8  Data_Process.o [1]
  .noinit             uninit   0x20006048     0xa0  LCB.o [1]
  .noinit             uninit   0x200060e8     0xa0  Pro_MyFirst5k.o [1]
  .noinit             uninit   0x20006188     0x9c  Programs.o [1]
  .noinit             uninit   0x20006224     0x94  Programs.o [1]
  .noinit             uninit   0x200062b8     0x80  UtilitiesTimer.o [1]
  .noinit             uninit   0x20006338     0x70  Engmode.o [1]
  .noinit             uninit   0x200063a8     0x54  Pro_hrc.o [1]
  .noinit             uninit   0x200063fc     0x50  LCB.o [1]
  .noinit             uninit   0x2000644c     0x44  Events_Handler.o [1]
  .noinit             uninit   0x20006490     0x48  Data_Process.o [1]
  .noinit             uninit   0x200064d8     0x48  LCB.o [1]
  .noinit             uninit   0x20006520     0x42  Pro_Custom.o [1]
  .noinit             uninit   0x20006562      0x2  Events_Handler.o [1]
  .noinit             uninit   0x20006564     0x40  Pro_Custom.o [1]
  .noinit             uninit   0x200065a4     0x40  Pro_goal.o [1]
  .noinit             uninit   0x200065e4     0x40  Pro_manual.o [1]
  .noinit             uninit   0x20006624     0x3c  Midware_Heart_01.o [1]
  .noinit             uninit   0x20006660     0x3c  Programs.o [1]
  .noinit             uninit   0x2000669c     0x30  Pro_Custom.o [1]
  .noinit             uninit   0x200066cc     0x30  Pro_table.o [1]
  .noinit             uninit   0x200066fc     0x30  Programs.o [1]
  .noinit             uninit   0x2000672c     0x28  Pro_table.o [1]
  .noinit             uninit   0x20006754     0x18  Pro_Custom.o [1]
  .noinit             uninit   0x2000676c     0x18  RF_AP.o [1]
  .noinit             uninit   0x20006784     0x14  Events_Handler.o [1]
  .noinit             uninit   0x20006798     0x14  Engmode.o [1]
  .noinit             uninit   0x200067ac     0x14  Page.o [1]
  .noinit             uninit   0x200067c0     0x14  Page.o [1]
  .noinit             uninit   0x200067d4     0x14  Page.o [1]
  .noinit             uninit   0x200067e8     0x14  Page.o [1]
  .noinit             uninit   0x200067fc     0x14  Page.o [1]
  .noinit             uninit   0x20006810     0x14  Page.o [1]
  .noinit             uninit   0x20006824     0x14  Page.o [1]
  .noinit             uninit   0x20006838     0x14  Page.o [1]
  .noinit             uninit   0x2000684c     0x14  Page.o [1]
  .noinit             uninit   0x20006860     0x14  Page.o [1]
  .noinit             uninit   0x20006874     0x14  Page.o [1]
  .noinit             uninit   0x20006888     0x14  Page.o [1]
  .noinit             uninit   0x2000689c     0x14  Page.o [1]
  .noinit             uninit   0x200068b0     0x14  Page.o [1]
  .noinit             uninit   0x200068c4     0x14  Page.o [1]
  .noinit             uninit   0x200068d8     0x14  Page.o [1]
  .noinit             uninit   0x200068ec     0x14  Page.o [1]
  .noinit             uninit   0x20006900     0x14  Page.o [1]
  .noinit             uninit   0x20006914     0x14  Page.o [1]
  .noinit             uninit   0x20006928     0x14  Page.o [1]
  .noinit             uninit   0x2000693c     0x14  Page.o [1]
  .noinit             uninit   0x20006950     0x14  Page.o [1]
  .noinit             uninit   0x20006964     0x10  User.o [1]
  .noinit             uninit   0x20006974      0xc  HAL_Lib.o [1]
  .noinit             uninit   0x20006980      0xc  LCB.o [1]
  .noinit             uninit   0x2000698c      0xc  User.o [1]
  .noinit             uninit   0x20006998      0x8  Pro_hrc.o [1]
  .noinit             uninit   0x200069a0      0x8  RPM.o [1]
  .noinit             uninit   0x200069a8      0x8  UtilitiesBurntest.o [1]
  .noinit             uninit   0x200069b0      0x8  UtilitiesProcess.o [1]
  .noinit             uninit   0x200069b8      0x4  Auto_Model.o [1]
  .noinit             uninit   0x200069bc      0x4  Events_Handler.o [1]
  .noinit             uninit   0x200069c0      0x4  Incline_Count.o [1]
  .noinit             uninit   0x200069c4      0x4  Incline_Count.o [1]
  .noinit             uninit   0x200069c8      0x4  Incline_Count.o [1]
  .noinit             uninit   0x200069cc      0x4  Incline_Count.o [1]
  .noinit             uninit   0x200069d0      0x4  Incline_Count.o [1]
  .noinit             uninit   0x200069d4      0x4  Incline_Count.o [1]
  .noinit             uninit   0x200069d8      0x4  Incline_Count.o [1]
  .noinit             uninit   0x200069dc      0x4  Incline_Count.o [1]
  .noinit             uninit   0x200069e0      0x4  Incline_Count.o [1]
  .noinit             uninit   0x200069e4      0x4  RPM.o [1]
  .noinit             uninit   0x200069e8      0x4  SetRtc.o [1]
  .noinit             uninit   0x200069ec      0x4  Speed.o [1]
  .noinit             uninit   0x200069f0      0x4  TM1804.o [1]
  .noinit             uninit   0x200069f4      0x4  USBManager.o [1]
  .noinit             uninit   0x200069f8      0x4  User.o [1]
  .noinit             uninit   0x200069fc      0x4  User.o [1]
  .noinit             uninit   0x20006a00      0x4  UtilitiesBeep.o [1]
  .noinit             uninit   0x20006a04      0x4  UtilitiesBor.o [1]
  .noinit             uninit   0x20006a08      0x4  UtilitiesBurntest.o [1]
  .noinit             uninit   0x20006a0c      0x4  UtilitiesErp.o [1]
  .noinit             uninit   0x20006a10      0x4  UtilitiesErp.o [1]
  .noinit             uninit   0x20006a14      0x4  UtilitiesFan.o [1]
  .noinit             uninit   0x20006a18      0x4  UtilitiesKeyboard.o [1]
  .noinit             uninit   0x20006a1c      0x4  UtilitiesKeyboard.o [1]
  .noinit             uninit   0x20006a20      0x4  UtilitiesKeyboard.o [1]
  .noinit             uninit   0x20006a24      0x4  UtilitiesKeyboard.o [1]
  .noinit             uninit   0x20006a28      0x4  UtilitiesLubeBelt.o [1]
  .noinit             uninit   0x20006a2c      0x4  Wlt2564_Command.o [1]
  .noinit             uninit   0x20006a30      0x2  Events_Handler.o [1]
  .noinit             uninit   0x20006a32      0x2  HAL_Lib.o [1]
  .noinit             uninit   0x20006a34      0x2  LCB.o [1]
  .noinit             uninit   0x20006a36      0x2  LCB.o [1]
  .noinit             uninit   0x20006a38      0x2  LCB.o [1]
  .noinit             uninit   0x20006a3a      0x2  LCB.o [1]
  .noinit             uninit   0x20006a3c      0x2  LCB.o [1]
  .noinit             uninit   0x20006a3e      0x2  LCB.o [1]
  .noinit             uninit   0x20006a40      0x2  LCB.o [1]
  .noinit             uninit   0x20006a42      0x2  LCB.o [1]
  .noinit             uninit   0x20006a44      0x2  Remote_control.o [1]
  .noinit             uninit   0x20006a46      0x2  RPM.o [1]
  .noinit             uninit   0x20006a48      0x2  RPM.o [1]
  .noinit             uninit   0x20006a4a      0x2  RPM.o [1]
  .noinit             uninit   0x20006a4c      0x2  RPM.o [1]
  .noinit             uninit   0x20006a4e      0x2  Speed.o [1]
  .noinit             uninit   0x20006a50      0x2  Speed.o [1]
  .noinit             uninit   0x20006a52      0x2  Speed.o [1]
  .noinit             uninit   0x20006a54      0x2  Speed.o [1]
  .noinit             uninit   0x20006a56      0x2  Speed.o [1]
  .noinit             uninit   0x20006a58      0x2  Speed.o [1]
  .noinit             uninit   0x20006a5a      0x2  Speed.o [1]
  .noinit             uninit   0x20006a5c      0x2  Speed.o [1]
  .noinit             uninit   0x20006a5e      0x2  Speed.o [1]
  .noinit             uninit   0x20006a60      0x2  Speed.o [1]
  .noinit             uninit   0x20006a62      0x2  Speed.o [1]
  .noinit             uninit   0x20006a64      0x2  Speed.o [1]
  .noinit             uninit   0x20006a66      0x2  Speed.o [1]
  .noinit             uninit   0x20006a68      0x2  Speed.o [1]
  .noinit             uninit   0x20006a6a      0x2  Speed.o [1]
  .noinit             uninit   0x20006a6c      0x2  Speed.o [1]
  .noinit             uninit   0x20006a6e      0x2  Speed.o [1]
  .noinit             uninit   0x20006a70      0x2  USBManager.o [1]
  .noinit             uninit   0x20006a72      0x2  User.o [1]
  .noinit             uninit   0x20006a74      0x2  User.o [1]
  .noinit             uninit   0x20006a76      0x2  UtilitiesBeep.o [1]
  .noinit             uninit   0x20006a78      0x2  UtilitiesBeep.o [1]
  .noinit             uninit   0x20006a7a      0x2  UtilitiesBeep.o [1]
  .noinit             uninit   0x20006a7c      0x2  UtilitiesBurntest.o [1]
  .noinit             uninit   0x20006a7e      0x2  UtilitiesErp.o [1]
  .noinit             uninit   0x20006a80      0x2  UtilitiesErp.o [1]
  .noinit             uninit   0x20006a82      0x2  UtilitiesKeyboard.o [1]
  .noinit             uninit   0x20006a84      0x2  UtilitiesProcess.o [1]
  .noinit             uninit   0x20006a86      0x2  UtilitiesTimer.o [1]
  .noinit             uninit   0x20006a88      0x2  Wlt2564_Command.o [1]
  .noinit             uninit   0x20006a8a      0x2  Wlt2564_Command.o [1]
  .noinit             uninit   0x20006a8c      0x2  Wlt2564_Command.o [1]
  .noinit             uninit   0x20006a8e      0x1  Bluetooth_lib.o [1]
  .noinit             uninit   0x20006a8f      0x1  Events_Handler.o [1]
  .noinit             uninit   0x20006a90      0x1  Events_Handler.o [1]
  .noinit             uninit   0x20006a91      0x1  Events_Handler.o [1]
  .noinit             uninit   0x20006a92      0x1  Events_Handler.o [1]
  .noinit             uninit   0x20006a93      0x1  HAL_Lib.o [1]
  .noinit             uninit   0x20006a94      0x1  Incline_Count.o [1]
  .noinit             uninit   0x20006a95      0x1  Incline_Count.o [1]
  .noinit             uninit   0x20006a96      0x1  Incline_Count.o [1]
  .noinit             uninit   0x20006a97      0x1  Incline_Count.o [1]
  .noinit             uninit   0x20006a98      0x1  Incline_Count.o [1]
  .noinit             uninit   0x20006a99      0x1  Incline_Count.o [1]
  .noinit             uninit   0x20006a9a      0x1  Incline_Count.o [1]
  .noinit             uninit   0x20006a9b      0x1  Incline_Count.o [1]
  .noinit             uninit   0x20006a9c      0x1  LCB.o [1]
  .noinit             uninit   0x20006a9d      0x1  LCB.o [1]
  .noinit             uninit   0x20006a9e      0x1  LCB.o [1]
  .noinit             uninit   0x20006a9f      0x1  main.o [1]
  .noinit             uninit   0x20006aa0      0x1  main.o [1]
  .noinit             uninit   0x20006aa1      0x1  main.o [1]
  .noinit             uninit   0x20006aa2      0x1  main.o [1]
  .noinit             uninit   0x20006aa3      0x1  main.o [1]
  .noinit             uninit   0x20006aa4      0x1  Midware_Heart_01.o [1]
  .noinit             uninit   0x20006aa5      0x1  Page.o [1]
  .noinit             uninit   0x20006aa6      0x1  Page.o [1]
  .noinit             uninit   0x20006aa7      0x1  Page.o [1]
  .noinit             uninit   0x20006aa8      0x1  Remote_control.o [1]
  .noinit             uninit   0x20006aa9      0x1  Speed.o [1]
  .noinit             uninit   0x20006aaa      0x1  Speed.o [1]
  .noinit             uninit   0x20006aab      0x1  Speed.o [1]
  .noinit             uninit   0x20006aac      0x1  Speed.o [1]
  .noinit             uninit   0x20006aad      0x1  Speed.o [1]
  .noinit             uninit   0x20006aae      0x1  Speed.o [1]
  .noinit             uninit   0x20006aaf      0x1  Speed.o [1]
  .noinit             uninit   0x20006ab0      0x1  Strings.o [1]
  .noinit             uninit   0x20006ab1      0x1  USBManager.o [1]
  .noinit             uninit   0x20006ab2      0x1  User.o [1]
  .noinit             uninit   0x20006ab3      0x1  User.o [1]
  .noinit             uninit   0x20006ab4      0x1  User.o [1]
  .noinit             uninit   0x20006ab5      0x1  User.o [1]
  .noinit             uninit   0x20006ab6      0x1  User.o [1]
  .noinit             uninit   0x20006ab7      0x1  User.o [1]
  .noinit             uninit   0x20006ab8      0x1  UtilitiesBeep.o [1]
  .noinit             uninit   0x20006ab9      0x1  UtilitiesBurntest.o [1]
  .noinit             uninit   0x20006aba      0x1  UtilitiesErp.o [1]
  .noinit             uninit   0x20006abb      0x1  UtilitiesErp.o [1]
  .noinit             uninit   0x20006abc      0x1  UtilitiesErp.o [1]
  .noinit             uninit   0x20006abd      0x1  UtilitiesErp.o [1]
  .noinit             uninit   0x20006abe      0x1  UtilitiesErp.o [1]
  .noinit             uninit   0x20006abf      0x1  UtilitiesErrorcode.o [1]
  .noinit             uninit   0x20006ac0      0x1  UtilitiesErrorcode.o [1]
  .noinit             uninit   0x20006ac1      0x1  UtilitiesFan.o [1]
  .noinit             uninit   0x20006ac2      0x1  UtilitiesKeyboard.o [1]
  .noinit             uninit   0x20006ac3      0x1  UtilitiesKeyboard.o [1]
  .noinit             uninit   0x20006ac4      0x1  UtilitiesKeyboard.o [1]
  .noinit             uninit   0x20006ac5      0x1  UtilitiesKeyboard.o [1]
  .noinit             uninit   0x20006ac6      0x1  UtilitiesLubeBelt.o [1]
  .noinit             uninit   0x20006ac7      0x1  Wlt2564_Command.o [1]
                             - 0x20006ac8   0x2ac8


*******************************************************************************
*** INIT TABLE
***

          Address     Size
          -------     ----
Zero (__iar_zero_init3)
    1 destination range, total size 0x1f7a:
          0x20001e40  0x1f7a

Copy/lz77 (__iar_lz77_init_single3)
    1 source range, total size 0x561 (72% of destination):
          0x0002fe6c   0x561
    1 destination range, total size 0x766:
          0x200000d8   0x766



*******************************************************************************
*** MODULE SUMMARY
***

    Module                     ro code  rw code  ro data  rw data  rw data
                                                                    (abs)
    ------                     -------  -------  -------  -------  -------
C:\Users\shaomingkun\Desktop\git\evolve5.0\2021sw\ECOM-5\Debug\Obj: [1]
    Auto_Model.o                   120                          4
    Bluetooth_lib.o              6 000                29      516
    CRC.o                           68               372      512
    Data_Process.o               4 716                 3      262
    Display.o                      132                          4
    Engmode.o                    7 804                        152
    Events_Handler.o            15 020                80      102
    HAL_Lib.o                   13 036               233      753      216
    Incline_Count.o              1 900                         45
    LCB.o                        1 920                        381
    LED.o                        2 296                         37
    Midware_Heart_01.o           1 176                         77
    Page.o                       2 336             1 716      723
    Pro_Custom.o                 3 744                 2      206
    Pro_MyFirst5k.o              4 688               181      162
    Pro_goal.o                   2 064                 2       66
    Pro_hrc.o                    4 124                 8      104
    Pro_manual.o                 1 620                 2       66
    Pro_table.o                  3 800                 2       90
    Programs.o                   9 944               147      422
    RF_AP.o                         52                         24
    RPM.o                        1 072                         39
    Remote_asset.o                  18
    Remote_control.o             1 808                          3
    Remote_general.o             5 060                         35
    Remote_process.o               972                35    1 612
    Remote_workoutTracking.o     3 184                         10
    SetRtc.o                     1 368                12       16
    Show.o                       8 160               676       33
    Show_Functions.o               124                         10
    Speed.o                      3 836                 1      118
    Strings.o                       80            11 328        1
    SystemConfig.o               9 432                24    5 796
    TLC59282.o                     156
    TM1804.o                       224                          4
    USBManager.o                 1 420               196    2 993
    User.o                       3 724                 1       46
    UtilitiesAMP.o                  30
    UtilitiesBeep.o                448                         12
    UtilitiesBor.o                 156                          6
    UtilitiesBurntest.o            292                         15
    UtilitiesErp.o               1 064                         18
    UtilitiesErrorcode.o           848               112       15
    UtilitiesFan.o                 364                          6
    UtilitiesKeyInputMethod.o       24                          1
    UtilitiesKeyboard.o          1 064                         28
    UtilitiesLubeBelt.o            464                          5
    UtilitiesProcess.o             244                         11
    UtilitiesTimer.o               340                        131
    Wlt2564_Command.o            6 048               749    3 427
    em_cmu.o                     2 584
    em_dma.o                       920
    em_emu.o                       240                          2
    em_gpio.o                      496
    em_i2c.o                       988                 4       24
    em_int.o                                                    4
    em_letimer.o                   214
    em_msc.o                       188      376      274
    em_system.o                     48
    em_timer.o                     432
    em_usart.o                     504
    em_usbh.o                    4 114                80      133
    em_usbhal.o                    916
    em_usbhep.o                    472
    em_usbhint.o                 1 356
    em_usbtimer.o                1 004                16      100
    em_wdog.o                      220
    ff.o                         5 364                16        7
    ftms.o                       1 380               709      688
    ftms_iface.o                 2 546                26       47
    main.o                       1 056             2 686      113
    msdbot.o                       528                 3       32
    msddiskio.o                    352                 1        1
    msdh.o                         920                60      224
    msdscsi.o                      328               192        8
    startup_efm32lg.o              428
    system_efm32lg.o               276                 6       12
    ----------------------------------------------------------------------
    Total:                     166 458      376   19 984   20 494      216

command line: [2]
    ----------------------------------------------------------------------
    Total:

dl7M_tln.a: [3]
    div.o                           14
    errno.o                         12                 3        4
    exit.o                           4
    low_level_init.o                 4
    snprintf.o                      68
    sprintf.o                       52
    strcat.o                        28
    strncat.o                       40
    strncmp.o                       44
    xprintflarge_nomb.o          3 114
    xsnprout.o                      26
    xsprout.o                       10
    xtls.o                           2
    ----------------------------------------------------------------------
    Total:                       3 418                 3        4

m7M_tl.a: [4]
    DblAdd.o                       232
    DblCmpEq.o                      32
    DblCmpGe.o                      46
    DblCmpLe.o                      46
    DblDiv.o                       598
    DblMul.o                       418
    DblSub.o                       384
    DblToI32.o                      88
    FltAdd.o                       132
    FltDiv.o                       252
    FltMul.o                       216
    FltSub.o                       230
    FltToDbl.o                      78
    FltToS32.o                      68
    I32ToDbl.o                      48
    I32ToFlt.o                      50
    pow.o                        2 120
    xdint.o                        126
    xdnorm.o                        68
    xdscale.o                      268
    xdtest.o                        50
    xexp.o                         700
    xlog.o                         172
    ----------------------------------------------------------------------
    Total:                       6 422

rt7M_tl.a: [5]
    ABImemclr.o                      6
    ABImemclr4.o                     6
    ABImemcpy_unaligned.o          118
    ABImemset.o                    102
    ABImemset48.o                   58
    I64DivMod.o                    238
    I64DivZer.o                      2
    cexit.o                         10
    cmain.o                         26
    cstartup_M.o                    12
    data_init.o                     40
    lz77_init_single.o             120
    memchr.o                        88
    memcmp_unaligned.o              98
    strchr.o                        22
    strcpy_unaligned.o              68
    strlen.o                        54
    strncpy_unaligned.o            108
    zero_init3.o                    64
    ----------------------------------------------------------------------
    Total:                       1 240

shb_l.a: [6]
    exit.o                          20
    ----------------------------------------------------------------------
    Total:                          20

    Gaps                            38                 2       30
    Linker created                  16                32    5 632
--------------------------------------------------------------------------
    Grand Total:               177 612      376   20 025   26 160      216


*******************************************************************************
*** ENTRY LIST
***

Entry                      Address    Size  Type      Object
-----                      -------    ----  ----      ------
.iar.init_table$$Base   0x0002d774           --   Gb  - Linker created -
.iar.init_table$$Limit  0x0002d794           --   Gb  - Linker created -
?main                   0x0002dcb9          Code  Gb  cmain.o [5]
ACMP0_IRQHandler        0x00010e81     0x8  Code  Gb  HAL_Lib.o [1]
ADC0_IRQHandler         0x00010e89     0x8  Code  Gb  HAL_Lib.o [1]
ADC_IntClear            0x0000deef     0x4  Code  Lc  HAL_Lib.o [1]
AES_IRQHandler          0x00010f11     0x8  Code  Gb  HAL_Lib.o [1]
AFG_DIRECTORY1          0x0002e888    0x14  Data  Gb  USBManager.o [1]
AFG_DIRECTORY2          0x0002e89c    0x14  Data  Gb  USBManager.o [1]
AMP_PROCESS             0x000213f1    0x1e  Code  Gb  UtilitiesAMP.o [1]
AddBTState              0x0000be6f    0xa0  Code  Gb  Bluetooth_lib.o [1]
AmpName                 0x200000ec    0x14  Data  Gb  Bluetooth_lib.o [1]
AutoRPM_Check           0x20003d22     0x1  Data  Gb  Data_Process.o [1]
Auto_RPM                0x20003d23     0x1  Data  Gb  Data_Process.o [1]
B                       0x20003c7c     0x4  Data  Gb  LCB.o [1]
B1                      0x20003cc0     0x4  Data  Gb  Speed.o [1]
BITBAND_Peripheral      0x00023d81     0xe  Code  Lc  em_cmu.o [1]
BITBAND_Peripheral      0x00025413     0xe  Code  Lc  em_dma.o [1]
BITBAND_Peripheral      0x00023ab5     0xe  Code  Lc  em_gpio.o [1]
BITBAND_Peripheral      0x00024799     0xe  Code  Lc  em_i2c.o [1]
BITBAND_Peripheral      0x00023ca5     0xe  Code  Lc  em_wdog.o [1]
BLINK_DISPLAY_CHANNEL   0x20006a9f     0x1  Data  Gb  main.o [1]
BOR_Check_Process       0x0000daf9    0x3e  Code  Gb  UtilitiesBor.o [1]
BOR_Check_Process::by_Counter
                        0x2000083a     0x1  Data  Lc  UtilitiesBor.o [1]
BOR_Get_Passcode        0x0000dad3     0x6  Code  Gb  UtilitiesBor.o [1]
BOR_Initial_IO          0x0000dac5     0x8  Code  Gb  UtilitiesBor.o [1]
BOR_Process_1ms_Int     0x0000dad9    0x20  Code  Gb  UtilitiesBor.o [1]
BOR_Process_1ms_Int::by_Timesflag
                        0x20003da4     0x1  Data  Lc  UtilitiesBor.o [1]
BOR_Set_Passcode        0x0000dacd     0x6  Code  Gb  UtilitiesBor.o [1]
BOTTOM_TEXT_WND         0x0002dec4    0x18  Data  Gb  Page.o [1]
BTCMD_MASTERMODE_BE_SENDED
                        0x20003d72     0x1  Data  Gb  Bluetooth_lib.o [1]
BTCMD_MASTERMODE_BE_SENDED_wait
                        0x20003d16     0x2  Data  Gb  Bluetooth_lib.o [1]
BTConnectInstant        0x20003db2     0x1  Data  Lc  Wlt2564_Command.o [1]
BTHRTimerChannel        0x20006aa3     0x1  Data  Gb  main.o [1]
BTNextState             0x0000bdc3    0xac  Code  Lc  Bluetooth_lib.o [1]
BT_1ms_ISR              0x0000cfd9   0x1ba  Code  Lc  Bluetooth_lib.o [1]
BT_CheckMac             0x00022843    0x1e  Code  Gb  Wlt2564_Command.o [1]
BT_DIRECTORY1           0x0002e8d8    0x14  Data  Gb  USBManager.o [1]
BT_Icon_Open_Close      0x00012271    0x14  Code  Gb  LED.o [1]
BT_Mac                  0x20003b80    0x14  Data  Gb  Wlt2564_Command.o [1]
BT_MacAddress           0x20003bfc     0xc  Data  Gb  Wlt2564_Command.o [1]
BT_Regist_Functions     0x0000d271    0x22  Code  Gb  Bluetooth_lib.o [1]
BT_SETNAME_FLAG         0x20003d18     0x2  Data  Gb  Bluetooth_lib.o [1]
BT_Set_SyncFlag         0x0000bdbd     0x6  Code  Gb  Bluetooth_lib.o [1]
BT_UpdateInfo           0x20003c30     0x8  Data  Gb  Wlt2564_Command.o [1]
BT_UpdatePercent        0x20003db7     0x1  Data  Gb  Wlt2564_Command.o [1]
BT_Version              0x20003bb4    0x10  Data  Gb  Wlt2564_Command.o [1]
BTfile_NAME             0x0002e900    0x14  Data  Gb  USBManager.o [1]
Beep_1ms_ISR            0x0000dbfd    0xd4  Code  Gb  UtilitiesBeep.o [1]
Beep_Get_OK             0x0000db85    0x10  Code  Gb  UtilitiesBeep.o [1]
Beep_Initial_Data       0x0000db65    0x20  Code  Gb  UtilitiesBeep.o [1]
Beep_Initial_IO         0x0000db5d     0x8  Code  Gb  UtilitiesBeep.o [1]
Beep_Regist_Functions   0x0000dcf3     0xe  Code  Gb  UtilitiesBeep.o [1]
Beep_Set_Beeps          0x0000db95    0x68  Code  Gb  UtilitiesBeep.o [1]
Beep_Set_Enable         0x0000dcd1    0x22  Code  Gb  UtilitiesBeep.o [1]
BikeEpAscent_Steps_Calculation
                        0x00015a9f    0xb6  Code  Gb  Data_Process.o [1]
BikeEpAscent_WattsUpdate
                        0x000159a5    0xfa  Code  Gb  Data_Process.o [1]
BleName                 0x200000d8    0x14  Data  Gb  Bluetooth_lib.o [1]
BlueheartAddressLength  0x20003bc4    0x10  Data  Gb  Wlt2564_Command.o [1]
BlueheartAddressLength_backup
                        0x20003bd4    0x10  Data  Lc  Wlt2564_Command.o [1]
BluetoothCMD            0x20000608    0x44  Data  Lc  Wlt2564_Command.o [1]
BluetoothGetBleName     0x0000cf77    0x1a  Code  Gb  Bluetooth_lib.o [1]
BluetoothGetLOCALName   0x0000cf91    0x1a  Code  Gb  Bluetooth_lib.o [1]
BluetoothMode           0x20003d71     0x1  Data  Gb  Bluetooth_lib.o [1]
BluetoothProcess        0x0000bf95   0xf80  Code  Gb  Bluetooth_lib.o [1]
BluetoothProcess::updateCNT
                        0x20003d74     0x1  Data  Lc  Bluetooth_lib.o [1]
BluetoothRecive         0x2000064c    0x58  Data  Lc  Wlt2564_Command.o [1]
BluetoothSTARTADVERTISING
                        0x0000cf5d    0x1a  Code  Gb  Bluetooth_lib.o [1]
BluetoothSetAmpName     0x0000cfab    0x1a  Code  Gb  Bluetooth_lib.o [1]
BluetoothSetBleName     0x0000cf3d    0x20  Code  Gb  Bluetooth_lib.o [1]
BluetoothSetDelay       0x0000d3d1    0x1e  Code  Gb  Bluetooth_lib.o [1]
BluetoothSetDirectSendFuncation
                        0x0000cfc5     0x8  Code  Gb  Bluetooth_lib.o [1]
BluetoothStartUpdate    0x0000bf61    0x34  Code  Gb  Bluetooth_lib.o [1]
BluetoothSwitchMode     0x0000cf1d    0x20  Code  Gb  Bluetooth_lib.o [1]
Bluetooth_AppPushData_1s
                        0x0000d3ef    0xd2  Code  Gb  Bluetooth_lib.o [1]
Bluetooth_AppPushData_1s::i
                        0x20003d75     0x1  Data  Lc  Bluetooth_lib.o [1]
Bluetooth_Events_Handler
                        0x00000bdd   0x16c  Code  Gb  Events_Handler.o [1]
Bluetooth_Get_BT_LED_Status
                        0x0000d373     0x8  Code  Gb  Bluetooth_lib.o [1]
Bluetooth_Get_BeltConnectStatus
                        0x0000d36b     0x8  Code  Gb  Bluetooth_lib.o [1]
Bluetooth_Get_ConnectStatus
                        0x0000d363     0x8  Code  Gb  Bluetooth_lib.o [1]
Bluetooth_Get_HeartData
                        0x0000d35b     0x8  Code  Gb  Bluetooth_lib.o [1]
Bluetooth_Set_BLENAME   0x0000d38f    0x1c  Code  Gb  Bluetooth_lib.o [1]
Bluetooth_Set_VirtualKey
                        0x0000d293    0xc8  Code  Gb  Bluetooth_lib.o [1]
Bluetooth_ftms_config   0x0000d3b1    0x20  Code  Gb  Bluetooth_lib.o [1]
Bor_Regist_Functions    0x0000db37     0xe  Code  Gb  UtilitiesBor.o [1]
BtLastSize              0x20003da1     0x1  Data  Gb  USBManager.o [1]
BtUpdateFileSize        0x20003cfc     0x4  Data  Gb  USBManager.o [1]
Bt_updateFlag           0x20003da2     0x1  Data  Gb  USBManager.o [1]
BurnTest_Process        0x00020cc9    0xee  Code  Gb  UtilitiesBurntest.o [1]
BurnTest_Save_MEM_FIFO  0x00020db7    0x24  Code  Gb  UtilitiesBurntest.o [1]
BurnTest_State          0x20006ab9     0x1  Data  Gb  UtilitiesBurntest.o [1]
BusFault_Handler        0x00010e59     0x8  Code  Gb  HAL_Lib.o [1]
CAL_DATA_WND            0x0002df6c    0x18  Data  Gb  Page.o [1]
CCA_Detect              0x2000676e     0x1  Data  Gb  RF_AP.o [1]
CCA_Point               0x20006780     0x4  Data  Gb  RF_AP.o [1]
CHIP_Init               0x0000de7d    0x36  Code  Lc  HAL_Lib.o [1]
CMU_AUXClkGet           0x00023e91    0x64  Code  Lc  em_cmu.o [1]
CMU_ClockDivSet         0x00023fcf   0x178  Code  Gb  em_cmu.o [1]
CMU_ClockEnable         0x00024147    0x86  Code  Gb  em_cmu.o [1]
CMU_ClockFreqGet        0x000241cd   0x13e  Code  Gb  em_cmu.o [1]
CMU_ClockSelectGet      0x0002430b   0x12c  Code  Gb  em_cmu.o [1]
CMU_ClockSelectSet      0x00024437   0x232  Code  Gb  em_cmu.o [1]
CMU_DBGClkGet           0x00023ef5    0x40  Code  Lc  em_cmu.o [1]
CMU_DivToLog2           0x00023dc7     0xe  Code  Lc  em_cmu.o [1]
CMU_FlashWaitStateControl
                        0x00023dd5    0x7e  Code  Lc  em_cmu.o [1]
CMU_FlashWaitStateMax   0x00023d8f    0x38  Code  Lc  em_cmu.o [1]
CMU_IRQHandler          0x00010ef1     0x8  Code  Gb  HAL_Lib.o [1]
CMU_LFClkGet            0x00023f35    0x84  Code  Lc  em_cmu.o [1]
CMU_Lock                0x000252e9     0x8  Code  Lc  em_emu.o [1]
CMU_OscillatorEnable    0x00024695    0x9c  Code  Gb  em_cmu.o [1]
CMU_Sync                0x00023fb9    0x16  Code  Lc  em_cmu.o [1]
CMU_USBCClkGet          0x00023e53    0x3e  Code  Lc  em_cmu.o [1]
CMU_Unlock              0x000252f1     0xa  Code  Lc  em_emu.o [1]
CRC_CCITT_Table         0x20000100   0x200  Data  Gb  CRC.o [1]
CSTACK$$Base            0x20000840           --   Gb  - Linker created -
CSTACK$$Limit           0x20001e40           --   Gb  - Linker created -
CUSTOM_SYNC             0x20003cb0     0x4  Data  Gb  Remote_general.o [1]
ChangeWorkoutTime       0x0002b651    0x26  Code  Lc  Remote_control.o [1]
Check_Array_consequent_zero
                        0x000228ad    0x48  Code  Gb  Wlt2564_Command.o [1]
CleargBluetoothData     0x0000d37b    0x14  Code  Gb  Bluetooth_lib.o [1]
CmdSend                 0x20003c38     0x4  Data  Lc  Bluetooth_lib.o [1]
Cmd_Buffer              0x20006048    0xa0  Data  Lc  LCB.o [1]
Coal_Data_Initial       0x00018e09    0x44  Code  Gb  Pro_goal.o [1]
ConsonetransactionId    0x20003d4a     0x2  Data  Gb  Remote_process.o [1]
CswMeaningful           0x0002a619    0x2a  Code  Lc  msdbot.o [1]
CswValid                0x0002a643    0x22  Code  Lc  msdbot.o [1]
CurrVol                 0x20003d79     0x1  Data  Lc  ff.o [1]
Custom                  0x2000669c    0x30  Data  Gb  Pro_Custom.o [1]
Custom_BeginWorkout     0x0001458d    0x7c  Code  Gb  Pro_Custom.o [1]
Custom_Data_Initial     0x000143eb   0x1a2  Code  Gb  Pro_Custom.o [1]
Custom_GetShow          0x00014acb   0x190  Code  Gb  Pro_Custom.o [1]
Custom_Run              0x00014c5b   0x24a  Code  Gb  Pro_Custom.o [1]
Custom_Run::WorkOut_Old_Time
                        0x2000082a     0x2  Data  Lc  Pro_Custom.o [1]
Custom_SetUp            0x000146af   0x41c  Code  Gb  Pro_Custom.o [1]
Custom_getSetOrNot      0x000150d1     0x6  Code  Gb  Pro_Custom.o [1]
Customcrc               0x20003d46     0x2  Data  Gb  Remote_general.o [1]
DAC0_IRQHandler         0x00010e91     0x8  Code  Gb  HAL_Lib.o [1]
DIS_DATA_WND            0x0002df9c    0x18  Data  Gb  Page.o [1]
DMA_ActivateBasic       0x000255a7    0x3c  Code  Gb  em_dma.o [1]
DMA_CfgChannel          0x000255e3    0x5a  Code  Gb  em_dma.o [1]
DMA_CfgDescr            0x0002563d    0x42  Code  Gb  em_dma.o [1]
DMA_IRQHandler          0x00025511    0x96  Code  Gb  em_dma.o [1]
DMA_Init                0x0002567f    0x38  Code  Gb  em_dma.o [1]
DMA_Prepare             0x00025421    0xf0  Code  Lc  em_dma.o [1]
DMA_Reset               0x000256b7    0x56  Code  Gb  em_dma.o [1]
D_USER_SLOTS            0x0001e076     0x1  Data  Gb  User.o [1]
Data                    0x20005f90    0xb8  Data  Lc  Data_Process.o [1]
Data_1ms_ISR            0x00015305    0x32  Code  Gb  Data_Process.o [1]
Data_1ms_ISR::w_Time_ms
                        0x20000822     0x2  Data  Lc  Data_Process.o [1]
Data_1s_Process         0x00015625   0x380  Code  Gb  Data_Process.o [1]
Data_Event              0x20006490     0x4  Data  Lc  Data_Process.o [1]
Data_Get_Calories       0x00016145    0x4c  Code  Gb  Data_Process.o [1]
Data_Get_Distance       0x00016195    0x3c  Code  Gb  Data_Process.o [1]
Data_Get_DotmatrixInclineData
                        0x00016305    0x3c  Code  Gb  Data_Process.o [1]
Data_Get_DotmatrixResistanceData
                        0x00016341    0x3a  Code  Gb  Data_Process.o [1]
Data_Get_Heart          0x000161f1    0x20  Code  Gb  Data_Process.o [1]
Data_Get_Incline        0x000160a9    0x9c  Code  Gb  Data_Process.o [1]
Data_Get_LapsCircle     0x00015e31    0x3c  Code  Gb  Data_Process.o [1]
Data_Get_Level          0x000162dd    0x20  Code  Gb  Data_Process.o [1]
Data_Get_Mets           0x000162fd     0x8  Code  Gb  Data_Process.o [1]
Data_Get_Nx             0x00015e83    0x10  Code  Gb  Data_Process.o [1]
Data_Get_RPM            0x0001605d    0x4c  Code  Gb  Data_Process.o [1]
Data_Get_Resistance     0x0001623d    0xa0  Code  Gb  Data_Process.o [1]
Data_Get_Speed          0x00015f11   0x14c  Code  Gb  Data_Process.o [1]
Data_Get_SpeedOffset    0x00016399    0x2a  Code  Gb  Data_Process.o [1]
Data_Get_Steps          0x000161d1    0x20  Code  Gb  Data_Process.o [1]
Data_Get_Time           0x00015e95    0x70  Code  Gb  Data_Process.o [1]
Data_Get_Watts          0x00016211    0x18  Code  Gb  Data_Process.o [1]
Data_Process            0x000153af   0x10e  Code  Gb  Data_Process.o [1]
Data_Process_Intilal_Data
                        0x000151bd   0x148  Code  Gb  Data_Process.o [1]
Data_Refresh_BeltDistanceData
                        0x000163c3    0x18  Code  Gb  Data_Process.o [1]
Data_Set_Calories       0x00015df9    0x24  Code  Gb  Data_Process.o [1]
Data_Set_CoolDown_Calories
                        0x00015d43     0xa  Code  Gb  Data_Process.o [1]
Data_Set_CoolDown_Distance
                        0x00015d25     0xa  Code  Gb  Data_Process.o [1]
Data_Set_CoolDown_Time  0x00015d13     0x8  Code  Gb  Data_Process.o [1]
Data_Set_Distance       0x00015d99    0x36  Code  Gb  Data_Process.o [1]
Data_Set_ElapsedOldTime
                        0x00015cad     0x8  Code  Gb  Data_Process.o [1]
Data_Set_Event          0x00015337    0x78  Code  Gb  Data_Process.o [1]
Data_Set_Incline        0x00015c0f    0x4e  Code  Gb  Data_Process.o [1]
Data_Set_InclineOffset  0x00016383     0x8  Code  Gb  Data_Process.o [1]
Data_Set_Level          0x00015d4d    0x18  Code  Gb  Data_Process.o [1]
Data_Set_Level_MaxVal   0x00015d65     0xa  Code  Gb  Data_Process.o [1]
Data_Set_Nx             0x00015e6d    0x16  Code  Gb  Data_Process.o [1]
Data_Set_Resistance     0x00015c5d    0x40  Code  Gb  Data_Process.o [1]
Data_Set_ResistanceOffset
                        0x0001637b     0x8  Code  Gb  Data_Process.o [1]
Data_Set_Speed          0x00015bb1    0x5e  Code  Gb  Data_Process.o [1]
Data_Set_SpeedOffset    0x0001638b     0x6  Code  Gb  Data_Process.o [1]
Data_Set_Speed_Base_User
                        0x00015b55    0x5c  Code  Gb  Data_Process.o [1]
Data_Set_StageTime      0x00015cff     0xc  Code  Gb  Data_Process.o [1]
Data_Set_Step           0x00016229     0x6  Code  Gb  Data_Process.o [1]
Data_Set_TargetHeart    0x00015d8b     0xa  Code  Gb  Data_Process.o [1]
Data_Set_TargetPWMValue
                        0x00015dcf     0xa  Code  Gb  Data_Process.o [1]
Data_Set_Time           0x00015c9d    0x10  Code  Gb  Data_Process.o [1]
Data_Set_WarmUP_Calories
                        0x00015d39     0xa  Code  Gb  Data_Process.o [1]
Data_Set_WarmUP_Distance
                        0x00015d1b     0xa  Code  Gb  Data_Process.o [1]
Data_Set_WarmUP_Time    0x00015d0b     0x8  Code  Gb  Data_Process.o [1]
Data_Set_Watt           0x00015d6f    0x1c  Code  Gb  Data_Process.o [1]
Data_Set_Weight         0x00015cb5    0x4a  Code  Gb  Data_Process.o [1]
Data_Set_remainingOldDistancex1000
                        0x00015de3     0xa  Code  Gb  Data_Process.o [1]
Data_Set_remainingOld_Calories
                        0x00015d2f     0xa  Code  Gb  Data_Process.o [1]
Data_Set_targetCalories
                        0x00016235     0x8  Code  Gb  Data_Process.o [1]
Data_Set_targetDistancex1000
                        0x00015dd9     0xa  Code  Gb  Data_Process.o [1]
DebugMon_Handler        0x00010e71     0x8  Code  Gb  HAL_Lib.o [1]
DefaultDotmatrix        0x2000623a     0x1  Data  Gb  Programs.o [1]
DefaultNumber           0x0000817c    0x18  Data  Gb  Programs.o [1]
Default_Data            0x00005349   0xcd0  Code  Lc  SystemConfig.o [1]
Delay1S                 0x20003d70     0x1  Data  Gb  Bluetooth_lib.o [1]
DelayTicks              0x000285c7    0x32  Code  Lc  em_usbtimer.o [1]
DeleteUser              0x0002b8a7     0x6  Code  Lc  Remote_control.o [1]
Demo_Event_Quit         0x20003d77     0x1  Data  Gb  Events_Handler.o [1]
Demo_Events_Handler     0x00003a79    0x58  Code  Gb  Events_Handler.o [1]
Demo_Set_VirtualKey     0x00003ad5    0x20  Code  Gb  Events_Handler.o [1]
DeviceModel             0x0003e000    0x20  Data  Gb  main.o [1]
DeviceSoftwareMVersion  0x0003e020     0x8  Data  Gb  main.o [1]
DeviceSoftwareSVersion  0x0003e028     0x8  Data  Gb  main.o [1]
DeviceUpdateRegion      0x0003e034     0x4  Data  Gb  main.o [1]
DisplayString           0x0000dd79    0x1e  Code  Gb  Display.o [1]
Display_DEMO_Process    0x0000dd71     0x8  Code  Gb  Display.o [1]
Display_Initial_Data    0x0000dd1d     0x8  Code  Gb  Display.o [1]
Display_Updata_Data     0x0000dd25    0x48  Code  Gb  Display.o [1]
DistanceTargetArray     0x0001b4d8    0x34  Data  Gb  Pro_table.o [1]
DotMatrixIntervalTimer  0x20003d56     0x2  Data  Gb  Show_Functions.o [1]
EMU_EnterEM2            0x0002537b    0x34  Code  Gb  em_emu.o [1]
EMU_Restore             0x000252fb    0x80  Code  Lc  em_emu.o [1]
EMU_UpdateOscConfig     0x000253af     0xa  Code  Gb  em_emu.o [1]
ENG0Test_Number         0x20003d27     0x1  Data  Lc  Engmode.o [1]
ENG0_SetUp              0x00009cd0     0x2  Data  Gb  Engmode.o [1]
ENG1_SetUp              0x00009cd4     0x4  Data  Gb  Engmode.o [1]
ENG2_SetUp              0x00009cd8     0x1  Data  Gb  Engmode.o [1]
ENG3_SetUp              0x00009cdc     0x8  Data  Gb  Engmode.o [1]
ENG4_SetUp              0x00009ce4     0x4  Data  Gb  Engmode.o [1]
ENG5_SetUp              0x00009ce8     0x2  Data  Gb  Engmode.o [1]
ENG8_SetUp              0x00009cec     0x8  Data  Gb  Engmode.o [1]
ENG_Events_Handler      0x0000226d   0xc78  Code  Gb  Events_Handler.o [1]
EP_CustomDistance_SetUp
                        0x0002cee0     0x8  Data  Gb  Programs.o [1]
EP_CustomTime_SetUp     0x0002ced8     0x8  Data  Gb  Programs.o [1]
EP_Distance_SetUp       0x0002cea4     0x4  Data  Gb  Programs.o [1]
EP_Goal_SetUp           0x0002ce68     0x4  Data  Gb  Programs.o [1]
EP_Manual_SetUp         0x0002ce6c     0x4  Data  Gb  Programs.o [1]
EP_ProMyFirst5k_SetUp   0x0002ceb8     0x8  Data  Gb  Programs.o [1]
EP_ProTable_CaloriesSetUp
                        0x0002ceb4     0x4  Data  Gb  Programs.o [1]
EP_ProTable_DistanceSetUp
                        0x0002ceb0     0x4  Data  Gb  Programs.o [1]
EP_Table                0x0002d3f8    0x34  Data  Lc  UtilitiesErrorcode.o [1]
ERP_100MS_FLAG          0x20006abc     0x1  Data  Lc  UtilitiesErp.o [1]
ERP_1S_FLAG             0x20006abb     0x1  Data  Lc  UtilitiesErp.o [1]
ERP_1ms_Int             0x0000d6eb    0x86  Code  Gb  UtilitiesErp.o [1]
ERP_1ms_Int::by_Times100ms
                        0x20003da5     0x1  Data  Lc  UtilitiesErp.o [1]
ERP_Clear_time          0x0000d78d    0x10  Code  Gb  UtilitiesErp.o [1]
ERP_Initial_Data        0x0000d6b9    0x32  Code  Gb  UtilitiesErp.o [1]
ERP_LETIMER_10ms_Int    0x0000d771    0x1c  Code  Gb  UtilitiesErp.o [1]
ERP_Mode                0x0000d98f    0xe0  Code  Gb  UtilitiesErp.o [1]
ERP_Process             0x0000d79d   0x1e8  Code  Gb  UtilitiesErp.o [1]
ERP_Quick_In            0x0000d985     0xa  Code  Gb  UtilitiesErp.o [1]
ERP_TimeOut_Counter     0x20006a80     0x2  Data  Lc  UtilitiesErp.o [1]
ERP_TimeOut_Flag        0x20006abd     0x1  Data  Lc  UtilitiesErp.o [1]
ERR_Process             0x00020a89   0x1d4  Code  Gb  UtilitiesErrorcode.o [1]
Eng0_Data_Initial       0x0000a201     0x2  Code  Gb  Engmode.o [1]
Eng0_Setup              0x0000a31f   0x148  Code  Gb  Engmode.o [1]
Eng1_Data_Initial       0x0000a203     0x2  Code  Gb  Engmode.o [1]
Eng1_Set_ECBCount       0x20003c0e     0x2  Data  Gb  Engmode.o [1]
Eng1_Set_InclineADC     0x20003c0c     0x2  Data  Gb  Engmode.o [1]
Eng1_Set_SpeedRPM       0x20003c0a     0x2  Data  Gb  Engmode.o [1]
Eng1_Setup              0x0000a469   0x310  Code  Gb  Engmode.o [1]
Eng2_Data_Initial       0x00009d1f    0x18  Code  Gb  Engmode.o [1]
Eng2_E1                 0x20003c66     0x2  Data  Gb  Engmode.o [1]
Eng2_Px                 0x20003c64     0x1  Data  Gb  Engmode.o [1]
Eng2_Run                0x00009e3d   0x19e  Code  Gb  Engmode.o [1]
Eng2_Setup              0x0000a205   0x11a  Code  Gb  Engmode.o [1]
Eng3_Setup              0x0000a795   0x862  Code  Gb  Engmode.o [1]
Eng4_Setup              0x0000aff7    0xe8  Code  Gb  Engmode.o [1]
Eng5_Setup              0x0000b0e9   0x282  Code  Gb  Engmode.o [1]
Eng8_Setup              0x0000b375   0x32a  Code  Gb  Engmode.o [1]
EngArray                0x20006338    0x70  Data  Lc  Engmode.o [1]
EngHw_Data_Initial      0x00009cf5    0x2a  Code  Gb  Engmode.o [1]
EngHw_Run               0x00009d37   0x104  Code  Gb  Engmode.o [1]
EngKey_event            0x2000679e     0x1  Data  Lc  Engmode.o [1]
EngKey_evt              0x20006798     0x4  Data  Gb  Engmode.o [1]
EngSetting_Array        0x200067a8     0x4  Data  Lc  Engmode.o [1]
EngSetting_Index        0x2000679d     0x1  Data  Lc  Engmode.o [1]
Eng_1ms_ISR             0x00009c1b    0x48  Code  Gb  Engmode.o [1]
Eng_Add_Array           0x0000a1e1    0x20  Code  Gb  Engmode.o [1]
Eng_Select_ID           0x00009c71    0x60  Code  Gb  Engmode.o [1]
Eng_timer_counter       0x20003c08     0x2  Data  Gb  Engmode.o [1]
Engmode_Get_Boot        0x0000b9bb     0x6  Code  Gb  Engmode.o [1]
Engmode_Get_Erp         0x0000b9b5     0x6  Code  Gb  Engmode.o [1]
Engmode_Get_KeyValue    0x0000b9a3     0x6  Code  Gb  Engmode.o [1]
Engmode_Get_Number      0x0000b9a9     0x6  Code  Gb  Engmode.o [1]
Engmode_Get_OverSpeedValue
                        0x0000b9c1     0x6  Code  Gb  Engmode.o [1]
Engmode_Get_PROG_Mult_Times
                        0x0000b997     0x6  Code  Gb  Engmode.o [1]
Engmode_Get_PROG_Setted_RPM
                        0x0000b99d     0x6  Code  Gb  Engmode.o [1]
Engmode_Get_ProEvent    0x00009fdb   0x206  Code  Gb  Engmode.o [1]
Engmode_Get_Uint        0x0000b9af     0x6  Code  Gb  Engmode.o [1]
Engmode_Initial_Data    0x00009bd1    0x4a  Code  Gb  Engmode.o [1]
Engmode_Process         0x0000b96b    0x2c  Code  Gb  Engmode.o [1]
Engmode_Regist_Function
                        0x00009c63     0xc  Code  Gb  Engmode.o [1]
Engmode_Set_VirtualKey  0x0000b7e3   0x188  Code  Gb  Engmode.o [1]
Engs_event              0x200067a0     0x8  Data  Lc  Engmode.o [1]
Erp_Regist_Functions    0x0000da6f    0x16  Code  Gb  UtilitiesErp.o [1]
Erp_State               0x20006abe     0x1  Data  Gb  UtilitiesErp.o [1]
Err_1ms_Int             0x0002098b    0xfe  Code  Gb  UtilitiesErrorcode.o [1]
Err_1ms_Int::Safe_Key_Inserted_Counter
                        0x20000604     0x4  Data  Lc  UtilitiesErrorcode.o [1]
Err_1ms_Int::Safe_Key_Removed_Counter
                        0x20000600     0x4  Data  Lc  UtilitiesErrorcode.o [1]
Err_1ms_Int::_delay_counter
                        0x2000083c     0x1  Data  Lc  UtilitiesErrorcode.o [1]
Err_Initial_Data        0x00020979    0x12  Code  Gb  UtilitiesErrorcode.o [1]
Err_Regist_Functions    0x00020c8d     0xe  Code  Gb  UtilitiesErrorcode.o [1]
Err_event               0x20006abf     0x1  Data  Gb  UtilitiesErrorcode.o [1]
Err_state               0x20006ac0     0x1  Data  Gb  UtilitiesErrorcode.o [1]
Event_Clr_ChangeDisplayFlag
                        0x00003af5     0xe  Code  Gb  Events_Handler.o [1]
Event_Flag              0x200069bc     0x4  Data  Gb  Events_Handler.o [1]
Event_Get_Page_matrix   0x000005e3    0x52  Code  Gb  Events_Handler.o [1]
Event_Handler_GetNewState
                        0x000006bf     0xa  Code  Gb  Events_Handler.o [1]
Event_Handler_Init_Data
                        0x00000635    0x82  Code  Gb  Events_Handler.o [1]
Event_Handler_SetNewState
                        0x000006b7     0x8  Code  Gb  Events_Handler.o [1]
Event_HideAllWnds       0x0000011d    0x56  Code  Lc  Events_Handler.o [1]
Event_Modal_Timer_Handler
                        0x00003441   0x20e  Code  Gb  Events_Handler.o [1]
Event_Refresh_Timer_Handler
                        0x00003a09    0x70  Code  Gb  Events_Handler.o [1]
Event_Set_Virtual_key   0x000006c9    0xcc  Code  Gb  Events_Handler.o [1]
Event_Set_Wnd_Para      0x000000dd    0x40  Code  Lc  Events_Handler.o [1]
Event_Static_Timer_Handler
                        0x00003655   0x130  Code  Gb  Events_Handler.o [1]
Event_VK_Converter      0x00000173   0x470  Code  Lc  Events_Handler.o [1]
Events_Blink_Timer_Handler
                        0x00003789   0x26e  Code  Gb  Events_Handler.o [1]
FAN_Speed               0x20006a14     0x4  Data  Gb  UtilitiesFan.o [1]
FD2_Info                0x2000050c    0x20  Data  Gb  ftms_iface.o [1]
FILE_NAME               0x0002e8ec    0x14  Data  Gb  USBManager.o [1]
FLASH_DATA              0x20004000  0x16a4  Data  Gb  SystemConfig.o [1]
Factory_Default         0x00026770    0x7c  Data  Gb  main.o [1]
Fan_Get_Level           0x0000d62b     0x6  Code  Gb  UtilitiesFan.o [1]
Fan_Increase_Level      0x0000d631    0x10  Code  Gb  UtilitiesFan.o [1]
Fan_Initial_Data        0x0000d541    0xea  Code  Gb  UtilitiesFan.o [1]
Fan_Initial_IO          0x0000d52d    0x14  Code  Gb  UtilitiesFan.o [1]
Fan_Level_Number        0x20003da7     0x1  Data  Lc  UtilitiesFan.o [1]
FatFs                   0x20003c68     0x4  Data  Lc  ff.o [1]
Fatfs                   0x20002d88   0x234  Data  Gb  USBManager.o [1]
Fileinfo                0x20002fbc   0x224  Data  Gb  USBManager.o [1]
FindSubString           0x00021411    0xf4  Code  Gb  Wlt2564_Command.o [1]
Fitness_Test_Get_Score  0x000080d5     0x4  Code  Gb  Programs.o [1]
Frame_OldStage          0x20006a30     0x2  Data  Lc  Events_Handler.o [1]
Frame_Stage             0x20006562     0x2  Data  Gb  Events_Handler.o [1]
Fsid                    0x20003d28     0x2  Data  Lc  ff.o [1]
GPIO_EVEN_IRQHandler    0x00010a13     0x8  Code  Gb  HAL_Lib.o [1]
GPIO_IntClear           0x0000deb3     0x8  Code  Lc  HAL_Lib.o [1]
GPIO_IntConfig          0x00023ac3    0x90  Code  Gb  em_gpio.o [1]
GPIO_IntEnable          0x0000debb    0x10  Code  Lc  HAL_Lib.o [1]
GPIO_IntGet             0x0000decb     0x8  Code  Lc  HAL_Lib.o [1]
GPIO_ODD_IRQHandler     0x00010a0b     0x8  Code  Gb  HAL_Lib.o [1]
GPIO_PinInGet           0x00023b53    0x14  Code  Gb  em_gpio.o [1]
GPIO_PinModeSet         0x00023b67    0xdc  Code  Gb  em_gpio.o [1]
GPIO_PinOutClear        0x00023c43    0x18  Code  Gb  em_gpio.o [1]
GPIO_PinOutGet          0x00023c5b    0x14  Code  Gb  em_gpio.o [1]
GPIO_PinOutSet          0x00023c6f    0x18  Code  Gb  em_gpio.o [1]
GenerateCRC_CCITT       0x00027f35    0x44  Code  Gb  CRC.o [1]
GetBleNameFlag          0x00022829     0xc  Code  Gb  Wlt2564_Command.o [1]
GetHeartrate            0x0002b8ad     0x2  Code  Gb  Remote_control.o [1]
GetStopWorkoutData      0x0001ccad    0xd8  Code  Lc  Remote_general.o [1]
GetSyncUserData         0x0001d03d   0x20c  Code  Lc  Remote_general.o [1]
GetUpdateFlag           0x0002288b     0xa  Code  Gb  Wlt2564_Command.o [1]
GetWlt25xxMAC           0x00022801    0x20  Code  Gb  Wlt2564_Command.o [1]
GetWorkoutData          0x000294a9   0x140  Code  Lc  Remote_workoutTracking.o [1]
GetWorkoutDataComplete  0x000295e9    0x92  Code  Lc  Remote_workoutTracking.o [1]
GetWorkoutDataCompleteEx
                        0x0002927d    0xa0  Code  Lc  Remote_workoutTracking.o [1]
GetWorkoutDataEx        0x0002931d   0x18c  Code  Lc  Remote_workoutTracking.o [1]
GetWorkoutDataFitnessTestExtra
                        0x00029181    0x56  Code  Lc  Remote_workoutTracking.o [1]
GetWorkoutDataRemote    0x0001cd91   0x2ac  Code  Lc  Remote_general.o [1]
GetWorkoutDataSprint8Extra
                        0x000291d7    0xa6  Code  Lc  Remote_workoutTracking.o [1]
Get_reset_flag          0x00003b09    0x12  Code  Gb  Events_Handler.o [1]
Goal_BeginWorkout       0x00018ef3     0x2  Code  Gb  Pro_goal.o [1]
Goal_ProfileShow        0x00019339    0x7c  Code  Gb  Pro_goal.o [1]
Goal_Run                0x000193b5   0x182  Code  Gb  Pro_goal.o [1]
Goal_Run::LastValue     0x2000082c     0x2  Data  Lc  Pro_goal.o [1]
Goal_RunData            0x00018f19    0x2e  Code  Gb  Pro_goal.o [1]
Goal_SetUp              0x00018f47   0x3f2  Code  Gb  Pro_goal.o [1]
Goal_SetUpData          0x00018ef5    0x24  Code  Gb  Pro_goal.o [1]
Goal_distance_Data_Initial
                        0x00018e4d    0xa6  Code  Gb  Pro_goal.o [1]
HAL_AMP_Check_AUX       0x0000fef5    0x18  Code  Gb  HAL_Lib.o [1]
HAL_AMP_Initial_IO      0x0000feb5    0x3c  Code  Gb  HAL_Lib.o [1]
HAL_BOR_Enable_ExtPower
                        0x0000e2e3    0x6c  Code  Gb  HAL_Lib.o [1]
HAL_BOR_Get_Enable      0x0000e2cb    0x18  Code  Gb  HAL_Lib.o [1]
HAL_BOR_Initial_IO      0x0000e28f    0x3c  Code  Gb  HAL_Lib.o [1]
HAL_BT_Enable_UARTI     0x00010f97    0x58  Code  Gb  HAL_Lib.o [1]
HAL_BT_GetData          0x00010fef     0xa  Code  Gb  HAL_Lib.o [1]
HAL_BT_Initial_IO       0x00010f19    0x6e  Code  Gb  HAL_Lib.o [1]
HAL_BT_SendData         0x00010f87    0x10  Code  Gb  HAL_Lib.o [1]
HAL_Beep_Initial_IO     0x0000fddb    0x8a  Code  Gb  HAL_Lib.o [1]
HAL_Beep_Set_Beep       0x0000fe65    0x36  Code  Gb  HAL_Lib.o [1]
HAL_Clear_IO_IntFlag    0x0000e015     0xe  Code  Gb  HAL_Lib.o [1]
HAL_Clear_WatchDog      0x0000e0a5     0x8  Code  Gb  HAL_Lib.o [1]
HAL_Config_Clock_Active
                        0x0000e0bf   0x14a  Code  Gb  HAL_Lib.o [1]
HAL_Config_Clock_Standby
                        0x0000e209    0x86  Code  Gb  HAL_Lib.o [1]
HAL_DLCB_Get_Rx         0x0000fdd9     0x2  Code  Gb  HAL_Lib.o [1]
HAL_Disable_MasterInterrupt
                        0x0000df1f     0x4  Code  Lc  HAL_Lib.o [1]
HAL_Disable_MasterInterrupt
                        0x00016bd9     0x4  Code  Lc  main.o [1]
HAL_Disable_MasterInterrupt
                        0x0000dac1     0x4  Code  Lc  UtilitiesBor.o [1]
HAL_Disable_WatchDog    0x0000e0ad     0xa  Code  Gb  HAL_Lib.o [1]
HAL_ERP_Enter_Standby_Mode
                        0x00010675     0xa  Code  Gb  HAL_Lib.o [1]
HAL_ERP_GPIO_EVEN_Inthandle
                        0x000100d1    0x1e  Code  Lc  HAL_Lib.o [1]
HAL_ERP_GPIO_ODD_Inthandle
                        0x000100ef    0x1e  Code  Lc  HAL_Lib.o [1]
HAL_ERP_Get_Reset_Flag  0x0001067f     0x8  Code  Gb  HAL_Lib.o [1]
HAL_ERP_LETIMER0_IRQHandler
                        0x0001010d    0x36  Code  Lc  HAL_Lib.o [1]
HAL_ERP_Low_POWER_Config
                        0x00010425   0x250  Code  Gb  HAL_Lib.o [1]
HAL_ERP_Regist_LETIMER_ISR
                        0x00010079    0x18  Code  Gb  HAL_Lib.o [1]
HAL_ERP_SOME_IO_IN      0x00010159   0x2cc  Code  Lc  HAL_Lib.o [1]
HAL_ERP_Set_Scan_Port_High
                        0x00010091    0x40  Code  Lc  HAL_Lib.o [1]
HAL_Enable_IO_Int       0x0000dfef     0xe  Code  Lc  HAL_Lib.o [1]
HAL_Enable_MasterInterrupt
                        0x0000df1b     0x4  Code  Lc  HAL_Lib.o [1]
HAL_Enable_MasterInterrupt
                        0x00016bd5     0x4  Code  Lc  main.o [1]
HAL_Enable_WatchDog     0x0000e09b     0xa  Code  Gb  HAL_Lib.o [1]
HAL_FAN_Initial_IO      0x0000fd01    0x20  Code  Gb  HAL_Lib.o [1]
HAL_FAN_Set_Duty        0x0000fd21    0x5a  Code  Gb  HAL_Lib.o [1]
HAL_FLASH_Burst_Read    0x0000ffd9    0x18  Code  Gb  HAL_Lib.o [1]
HAL_FLASH_Burst_Write   0x0000ff49    0x90  Code  Gb  HAL_Lib.o [1]
HAL_FLASH_Erase_Page    0x0000fff1    0x80  Code  Gb  HAL_Lib.o [1]
HAL_FLASH_Get_Page_Size
                        0x0000ff43     0x6  Code  Gb  HAL_Lib.o [1]
HAL_Get_IO              0x0000df23    0x7c  Code  Lc  HAL_Lib.o [1]
HAL_Get_IO_IntFlag      0x0000dffd    0x18  Code  Gb  HAL_Lib.o [1]
HAL_HR_Initial_IO       0x0000fd7b    0x3a  Code  Gb  HAL_Lib.o [1]
HAL_INT_Regist_Pin_INT  0x000109cf    0x12  Code  Gb  HAL_Lib.o [1]
HAL_ISR_Pin_INT         0x000109e1    0x2a  Code  Gb  HAL_Lib.o [1]
HAL_IntialDMA           0x0001068d    0x18  Code  Gb  HAL_Lib.o [1]
HAL_Key_Get_Value       0x0000e95b    0x32  Code  Gb  HAL_Lib.o [1]
HAL_Key_I2C_Get_Value   0x0000f399   0x8c4  Code  Lc  HAL_Lib.o [1]
HAL_Key_I2C_Get_Value::trans_return_value
                        0x20003d86     0x1  Data  Lc  HAL_Lib.o [1]
HAL_Key_I2C_IntISR      0x0000e9a1    0x56  Code  Lc  HAL_Lib.o [1]
HAL_Key_I2C_Release     0x0000f35f    0x10  Code  Gb  HAL_Lib.o [1]
HAL_Key_Initial_IO      0x0000e719   0x242  Code  Gb  HAL_Lib.o [1]
HAL_Key_Matrix_1msScan_Int
                        0x0000eb29    0x62  Code  Gb  HAL_Lib.o [1]
HAL_Key_Matrix_1msScan_Int::Counter20MS
                        0x20003d85     0x1  Data  Lc  HAL_Lib.o [1]
HAL_Key_Matrix_Get_Port
                        0x0000eae9    0x40  Code  Lc  HAL_Lib.o [1]
HAL_Key_Matrix_Get_Value
                        0x0000ec25   0x73a  Code  Gb  HAL_Lib.o [1]
HAL_Key_Matrix_Scan     0x0000ea1d    0xa0  Code  Lc  HAL_Lib.o [1]
HAL_Key_TCA8418_Get_Value
                        0x0000e679    0x8c  Code  Lc  HAL_Lib.o [1]
HAL_LFT_Get_Enable      0x0000e427    0x18  Code  Gb  HAL_Lib.o [1]
HAL_LFT_Initial_IO      0x0000e41b     0xc  Code  Gb  HAL_Lib.o [1]
HAL_PWM_Initial         0x0000fc5d    0xa4  Code  Gb  HAL_Lib.o [1]
HAL_Process_TCA8418_Value
                        0x0000e557   0x122  Code  Lc  HAL_Lib.o [1]
HAL_Reset_System        0x0000e0b7     0x8  Code  Gb  HAL_Lib.o [1]
HAL_SafetyKey_Get_Attached
                        0x0000fdc1    0x18  Code  Gb  HAL_Lib.o [1]
HAL_SafetyKey_Initial_IO
                        0x0000fdb5     0xc  Code  Gb  HAL_Lib.o [1]
HAL_Set_IO_High         0x0000e04f    0x12  Code  Gb  HAL_Lib.o [1]
HAL_Set_IO_Input        0x0000e039    0x16  Code  Gb  HAL_Lib.o [1]
HAL_Set_IO_IntMode      0x0000df9f    0x50  Code  Gb  HAL_Lib.o [1]
HAL_Set_IO_Low          0x0000e061    0x12  Code  Gb  HAL_Lib.o [1]
HAL_Set_IO_Output       0x0000e023    0x16  Code  Gb  HAL_Lib.o [1]
HAL_Switch_Initial_IO   0x0000ff41     0x2  Code  Gb  HAL_Lib.o [1]
HAL_TLC59282_Initial_IO
                        0x0000ff0d    0x34  Code  Gb  HAL_Lib.o [1]
HAL_TM1804_DMA_TransferComplete
                        0x000106b5    0x88  Code  Gb  HAL_Lib.o [1]
HAL_TM1804_Initial_IO   0x00010741   0x14a  Code  Gb  HAL_Lib.o [1]
HAL_TM1804_SendData     0x0001088d    0xbc  Code  Gb  HAL_Lib.o [1]
HAL_Time_Delay          0x00010071     0x8  Code  Gb  HAL_Lib.o [1]
HAL_WDT_Initial_IO      0x0000e073    0x28  Code  Lc  HAL_Lib.o [1]
HEART_DATA_LCDWND       0x0002de4c    0x18  Data  Gb  Page.o [1]
HEART_DATA_WND          0x0002df84    0x18  Data  Gb  Page.o [1]
HEART_TITLE_WND         0x0002de34    0x18  Data  Gb  Page.o [1]
HF_DIRECTORY1           0x0002e8b0    0x14  Data  Gb  USBManager.o [1]
HF_DIRECTORY2           0x0002e8c4    0x14  Data  Gb  USBManager.o [1]
HOLDTable               0x2000055c    0x38  Data  Gb  main.o [1]
HW_InclineCount_Clear_EXIFlg
                        0x00010e3f     0xa  Code  Gb  HAL_Lib.o [1]
HW_InclineCount_Get_EXIFlg
                        0x00010e33     0xc  Code  Gb  HAL_Lib.o [1]
HW_Incline_Check_Count  0x00010e27     0xc  Code  Gb  HAL_Lib.o [1]
HW_Incline_Check_Down   0x00010e03    0x18  Code  Gb  HAL_Lib.o [1]
HW_Incline_Check_Up     0x00010deb    0x18  Code  Gb  HAL_Lib.o [1]
HW_Incline_Check_Zero   0x00010e1b     0xc  Code  Gb  HAL_Lib.o [1]
HW_Incline_Initial_IO   0x00010d45    0x46  Code  Gb  HAL_Lib.o [1]
HW_Incline_Set_Down     0x00010db1    0x26  Code  Gb  HAL_Lib.o [1]
HW_Incline_Set_Stop     0x00010dd7    0x14  Code  Gb  HAL_Lib.o [1]
HW_Incline_Set_Up       0x00010d8b    0x26  Code  Gb  HAL_Lib.o [1]
HW_RPM_Get_TimerCCR     0x00010cf3     0x8  Code  Gb  HAL_Lib.o [1]
HW_RPM_Initial_IO       0x00010c95    0x5e  Code  Gb  HAL_Lib.o [1]
HW_RPM_Reload_TimerZero
                        0x00010cfb    0x10  Code  Gb  HAL_Lib.o [1]
HW_Speed_Initial_IO     0x00010b39    0xb6  Code  Gb  HAL_Lib.o [1]
HW_Speed_Pwm_Enable     0x00010c5d    0x2a  Code  Gb  HAL_Lib.o [1]
HW_Speed_Pwm_Value      0x00010c2b    0x2c  Code  Gb  HAL_Lib.o [1]
HW_Speed_Set_Motor      0x00010bef    0x1e  Code  Gb  HAL_Lib.o [1]
HW_Speed_Set_PWM        0x00010c0d    0x1e  Code  Gb  HAL_Lib.o [1]
Hal_Regist_ISR          0x00010949    0x36  Code  Gb  HAL_Lib.o [1]
Handle_HcInInt          0x0002be7d   0x132  Code  Lc  em_usbhint.o [1]
Handle_HcOutInt         0x0002bfaf    0xe6  Code  Lc  em_usbhint.o [1]
Handle_USB_GINTSTS_DISCONNINT
                        0x0002c095    0x74  Code  Lc  em_usbhint.o [1]
Handle_USB_GINTSTS_HCHINT
                        0x0002c109    0x40  Code  Lc  em_usbhint.o [1]
Handle_USB_GINTSTS_PRTINT
                        0x0002c1dd    0x8e  Code  Lc  em_usbhint.o [1]
HardFault_Handler       0x00010e49     0x8  Code  Gb  HAL_Lib.o [1]
I2C0_IRQHandler         0x00010e99     0x8  Code  Gb  HAL_Lib.o [1]
I2C_BusFreqSet          0x000247a7    0x6e  Code  Gb  em_i2c.o [1]
I2C_Init                0x00024815    0x34  Code  Gb  em_i2c.o [1]
I2C_Key_First           0x20006a93     0x1  Data  Gb  HAL_Lib.o [1]
I2C_Transfer            0x00024849   0x290  Code  Gb  em_i2c.o [1]
I2C_TransferInit        0x00024ad9    0x7c  Code  Gb  em_i2c.o [1]
I2c0_read               0x0000e43f    0x50  Code  Lc  HAL_Lib.o [1]
I2c0_write              0x0000e48f    0x50  Code  Lc  HAL_Lib.o [1]
I2cKeytype              0x20000837     0x1  Data  Lc  HAL_Lib.o [1]
INCLINE_DATA_WND        0x0002df24    0x18  Data  Gb  Page.o [1]
INITIAL_TITLE_WND       0x0002dda4    0x18  Data  Gb  Page.o [1]
INT_Disable             0x0001e0a5    0x24  Code  Lc  em_usbh.o [1]
INT_Disable             0x00027f79    0x24  Code  Lc  em_usbhal.o [1]
INT_Disable             0x0002bd61    0x24  Code  Lc  em_usbhint.o [1]
INT_Disable             0x00028511    0x24  Code  Lc  em_usbtimer.o [1]
INT_Enable              0x0001e0c9    0x2e  Code  Lc  em_usbh.o [1]
INT_Enable              0x00027f9d    0x28  Code  Lc  em_usbhal.o [1]
INT_Enable              0x0002bd85    0x2e  Code  Lc  em_usbhint.o [1]
INT_Enable              0x00028535    0x2e  Code  Lc  em_usbtimer.o [1]
INT_LockCnt             0x20003c48     0x4  Data  Gb  em_int.o [1]
Incl                    0x200069e0     0x4  Data  Lc  Incline_Count.o [1]
InclineDataBackup       0x20006239     0x1  Data  Lc  Programs.o [1]
InclineReset            0x20006a9b     0x1  Data  Gb  Incline_Count.o [1]
InclineTimeout          0x20003cb8     0x4  Data  Lc  Speed.o [1]
Incline_1ms_Int         0x000176ed    0x2a  Code  Gb  Incline_Count.o [1]
Incline_1ms_Int::by_Time_100ms
                        0x20003d87     0x1  Data  Lc  Incline_Count.o [1]
Incline_ADC_Covert      0x000154bd    0x4a  Code  Gb  Data_Process.o [1]
Incline_Add_Incline     0x0001762f    0x50  Code  Gb  Incline_Count.o [1]
Incline_Dec_Incline     0x0001767f    0x4c  Code  Gb  Incline_Count.o [1]
Incline_Get_Count       0x000175b1     0x6  Code  Gb  Incline_Count.o [1]
Incline_Get_Incline     0x000175b7    0x36  Code  Gb  Incline_Count.o [1]
Incline_Get_Incline_Active
                        0x000170ff     0x8  Code  Gb  Incline_Count.o [1]
Incline_Get_Incline_Reset
                        0x0001710f     0x8  Code  Gb  Incline_Count.o [1]
Incline_INT_ISR         0x000176d9    0x14  Code  Gb  Incline_Count.o [1]
Incline_Initial_Data    0x00016ff5    0x8a  Code  Gb  Incline_Count.o [1]
Incline_Int_100ms_Delay
                        0x000172bb    0xc6  Code  Gb  Incline_Count.o [1]
Incline_Int_1ms_Count   0x00017207    0x9a  Code  Gb  Incline_Count.o [1]
Incline_Int_1ms_Zero    0x00017117    0xf0  Code  Gb  Incline_Count.o [1]
Incline_Int_Ext_Count   0x000172a1    0x1a  Code  Gb  Incline_Count.o [1]
Incline_Power_On_Initial
                        0x0001707f    0x78  Code  Gb  Incline_Count.o [1]
Incline_Process         0x000173db   0x15c  Code  Gb  Incline_Count.o [1]
Incline_Set_CountActive
                        0x000176cb     0xe  Code  Gb  Incline_Count.o [1]
Incline_Set_EZero       0x000173c3    0x18  Code  Gb  Incline_Count.o [1]
Incline_Set_Incline     0x000175ed    0x42  Code  Gb  Incline_Count.o [1]
Incline_Set_Incline_Active
                        0x000170f7     0x8  Code  Gb  Incline_Count.o [1]
Incline_Set_Incline_Reset
                        0x00017107     0x8  Code  Gb  Incline_Count.o [1]
Incline_Set_Pause       0x00017537    0x16  Code  Gb  Incline_Count.o [1]
Incline_Set_Target_Count
                        0x0001757f    0x32  Code  Gb  Incline_Count.o [1]
Incline_Set_Zero        0x00017381    0x42  Code  Gb  Incline_Count.o [1]
Incline_Updata_Incline  0x0001754d    0x32  Code  Gb  Incline_Count.o [1]
InductionOutput_30P     0x20006660    0x3c  Data  Gb  Programs.o [1]
InductionOutput_5P      0x20006240     0xc  Data  Gb  Programs.o [1]
InitUsb                 0x0001edd5    0x4c  Code  Lc  em_usbh.o [1]
Interval_HR_SetUp       0x0002ce80     0x8  Data  Gb  Programs.o [1]
Intervals_Para_TM       0x2000052c     0x8  Data  Gb  main.o [1]
Intervals_StatusStageGoal_TM
                        0x0002f1e4     0xc  Data  Gb  main.o [1]
K                       0x20003c78     0x4  Data  Gb  LCB.o [1]
K1                      0x20003cbc     0x4  Data  Gb  Speed.o [1]
KB_Encoder              0x00024e53   0x108  Code  Gb  UtilitiesKeyboard.o [1]
KB_Flag                 0x20003d81     0x1  Data  Gb  HAL_Lib.o [1]
KB_Flag_1ms_Int         0x00024b75    0x68  Code  Gb  UtilitiesKeyboard.o [1]
KB_Flag_1ms_Int::w_KB_Cnt
                        0x20003da8     0x1  Data  Lc  UtilitiesKeyboard.o [1]
KEYPAD_Get_5S           0x00020ded    0x12  Code  Gb  UtilitiesKeyInputMethod.o [1]
KeyBoard_Get_Code       0x00024c39   0x21a  Code  Gb  UtilitiesKeyboard.o [1]
KeyBoard_Get_Code::by_Replay_Time
                        0x20003da9     0x1  Data  Lc  UtilitiesKeyboard.o [1]
KeyBoard_Get_Code::isSpeedUpLongPressed
                        0x20003daa     0x1  Data  Lc  UtilitiesKeyboard.o [1]
KeyBoard_Get_Code::w_KB_Long_Flag
                        0x20003dac     0x1  Data  Lc  UtilitiesKeyboard.o [1]
KeyBoard_Get_Code::w_KB_Short_Flag
                        0x20003dab     0x1  Data  Lc  UtilitiesKeyboard.o [1]
KeyBoard_Get_Code::wait_release
                        0x20003dad     0x1  Data  Lc  UtilitiesKeyboard.o [1]
KeyBoard_Set_KeyComboTable
                        0x00024c15    0x12  Code  Gb  UtilitiesKeyboard.o [1]
KeyBoard_Set_KeyholdTable
                        0x00024c27    0x12  Code  Gb  UtilitiesKeyboard.o [1]
KeyBoard_Set_TrueTable  0x00024bfd    0x18  Code  Gb  UtilitiesKeyboard.o [1]
Key_Events_Handler      0x00000795    0xa8  Code  Gb  Events_Handler.o [1]
Key_Releaseflag         0x20003d82     0x1  Data  Lc  HAL_Lib.o [1]
Keyboard_Initial_Data   0x00024bf3     0xa  Code  Gb  UtilitiesKeyboard.o [1]
Keyboard_Initial_IO     0x00024bdd    0x16  Code  Gb  UtilitiesKeyboard.o [1]
Keypad_Number_Notconfirmed
                        0x20003dae     0x1  Data  Gb  UtilitiesKeyInputMethod.o [1]
LAPSCIRCLE_WND          0x0002de1c    0x18  Data  Gb  Page.o [1]
LCB_1ms_Int             0x00016993    0x58  Code  Gb  LCB.o [1]
LCB_Dectect_Error       0x00016981    0x12  Code  Gb  LCB.o [1]
LCB_Get_Data            0x000167ab   0x122  Code  Gb  LCB.o [1]
LCB_Get_Induct          0x00016a25    0x1c  Code  Gb  LCB.o [1]
LCB_Get_MCBType         0x00016a19     0x6  Code  Gb  LCB.o [1]
LCB_Get_Version         0x00016a1f     0x6  Code  Gb  LCB.o [1]
LCB_Initial             0x00016429    0xc8  Code  Gb  LCB.o [1]
LCB_Initial_IO          0x00016a41    0x20  Code  Gb  LCB.o [1]
LCB_Power_On            0x000169eb    0x28  Code  Gb  LCB.o [1]
LCB_Process             0x000164f1   0x2ba  Code  Gb  LCB.o [1]
LCB_Process::_overspeedtimes
                        0x20003d89     0x1  Data  Lc  LCB.o [1]
LCB_Send_Cmd            0x000168cd    0xb4  Code  Gb  LCB.o [1]
LCB_Set_DriverType      0x00016a13     0x6  Code  Gb  LCB.o [1]
LCD_Calories_DATA_WND   0x0002de04    0x18  Data  Gb  Page.o [1]
LCD_Distance_DATA_WND   0x0002ddec    0x18  Data  Gb  Page.o [1]
LCD_IRQHandler          0x00010f01     0x8  Code  Gb  HAL_Lib.o [1]
LCD_TIME_DATA_WND       0x0002ddd4    0x18  Data  Gb  Page.o [1]
LEDCom                  0x00011aa1   0x3f0  Code  Gb  LED.o [1]
LED_1ms_ISR             0x000119bd    0x46  Code  Gb  LED.o [1]
LED_1ms_ISR::by_Count   0x20003d3d     0x1  Data  Lc  LED.o [1]
LED_1ms_ISR::sComIndex  0x20003d3c     0x1  Data  Lc  LED.o [1]
LED_Demo_Processs       0x00012105   0x13a  Code  Gb  LED.o [1]
LED_Demo_Processs::by_Dir
                        0x20003d13     0x1  Data  Lc  LED.o [1]
LED_Demo_Processs::lby_data
                        0x20003d14     0x1  Data  Lc  LED.o [1]
LED_Demo_Processs::w_DemoData
                        0x20003d12     0x1  Data  Lc  LED.o [1]
LED_Intial_Data         0x0001223f     0x8  Code  Gb  LED.o [1]
LED_Light               0x00011a05    0x9a  Code  Gb  LED.o [1]
LED_Regist_Functions    0x000120fb     0xa  Code  Gb  LED.o [1]
LED_Set_All             0x00012247    0x2a  Code  Gb  LED.o [1]
LED_String              0x000120d7    0x24  Code  Gb  LED.o [1]
LED_Window_Left         0x00011e91    0xc0  Code  Gb  LED.o [1]
LED_Window_Middle       0x00011fef    0xe8  Code  Gb  LED.o [1]
LED_Window_Right        0x00011f51    0x9e  Code  Gb  LED.o [1]
LETIMER0_IRQHandler     0x00010ec9     0x8  Code  Gb  HAL_Lib.o [1]
LETIMER_CompareSet      0x0002514d    0x24  Code  Gb  em_letimer.o [1]
LETIMER_Enable          0x00025171    0x12  Code  Gb  em_letimer.o [1]
LETIMER_Init            0x00025183    0x7c  Code  Gb  em_letimer.o [1]
LETIMER_RepeatSet       0x000251ff    0x24  Code  Gb  em_letimer.o [1]
LEUART0_IRQHandler      0x00010eb9     0x8  Code  Gb  HAL_Lib.o [1]
LEUART1_IRQHandler      0x00010ec1     0x8  Code  Gb  HAL_Lib.o [1]
Led                     0x200069f0     0x4  Data  Lc  TM1804.o [1]
LedMatrixDMAsendBuffer  0x20003700    0xac  Data  Gb  HAL_Lib.o [1]
LoadInt                 0x0002789f    0x6e  Code  Lc  xprintflarge_nomb.o [3]
LubeBelt_Initial_Data   0x0000bc31    0x20  Code  Gb  UtilitiesLubeBelt.o [1]
LubeBelt_Key_Event      0x20006a28     0x4  Data  Lc  UtilitiesLubeBelt.o [1]
LubeBelt_Process        0x0000bc51   0x15a  Code  Gb  UtilitiesLubeBelt.o [1]
LubeBelt_State          0x20006ac6     0x1  Data  Gb  UtilitiesLubeBelt.o [1]
MATRIX_DATA_WND         0x0002ddbc    0x18  Data  Gb  Page.o [1]
MODAL_WINDOW_CHANNEL    0x20006aa1     0x1  Data  Gb  main.o [1]
MSC_Deinit              0x000252a7    0x20  Code  Gb  em_msc.o [1]
MSC_ErasePage           0x200006a5    0x8a  Code  Gb  em_msc.o [1]
MSC_IRQHandler          0x00010f09     0x8  Code  Gb  HAL_Lib.o [1]
MSC_Init                0x00025225    0x82  Code  Gb  em_msc.o [1]
MSC_WriteWord           0x2000072f    0xd6  Code  Gb  em_msc.o [1]
MSDBOT_Init             0x0002a4a9    0x2c  Code  Gb  msdbot.o [1]
MSDBOT_Xfer             0x0002a4d5   0x144  Code  Gb  msdbot.o [1]
MSDH_GetBlockSize       0x0001f1d3    0x1a  Code  Gb  msdh.o [1]
MSDH_GetSectorCount     0x0001f19f    0x1a  Code  Gb  msdh.o [1]
MSDH_GetSectorSize      0x0001f1b9    0x1a  Code  Gb  msdh.o [1]
MSDH_Init               0x0001f08d   0x112  Code  Gb  msdh.o [1]
MSDH_ReadSectors        0x0001f1ed    0x16  Code  Gb  msdh.o [1]
MSDH_WriteSectors       0x0001f203    0x16  Code  Gb  msdh.o [1]
MSDSCSI_Init            0x000288d1    0x1a  Code  Gb  msdscsi.o [1]
MSDSCSI_Inquiry         0x000288eb    0x18  Code  Gb  msdscsi.o [1]
MSDSCSI_Read10          0x00028903    0x4a  Code  Gb  msdscsi.o [1]
MSDSCSI_ReadCapacity    0x0002894d    0x34  Code  Gb  msdscsi.o [1]
MSDSCSI_RequestSense    0x00028981    0x18  Code  Gb  msdscsi.o [1]
MSDSCSI_TestUnitReady   0x00028999    0x16  Code  Gb  msdscsi.o [1]
MSDSCSI_Write10         0x000289af    0x4a  Code  Gb  msdscsi.o [1]
Main_Init_Model_Data    0x00016f0f    0x3e  Code  Gb  main.o [1]
Main_Initial_Data       0x00016f4d    0x54  Code  Lc  main.o [1]
Main_Initial_IO         0x00016e59    0xb6  Code  Lc  main.o [1]
Main_PowerOn_Initial    0x00016d5b    0xfe  Code  Lc  main.o [1]
Manual_BeginWorkout     0x000187f9    0x12  Code  Gb  Pro_manual.o [1]
Manual_Data_Initial     0x000187b5    0x44  Code  Gb  Pro_manual.o [1]
Manual_ProfileShow      0x00018b4f    0x7c  Code  Gb  Pro_manual.o [1]
Manual_Run              0x00018bcb   0x18a  Code  Gb  Pro_manual.o [1]
Manual_Run::LastValue   0x20000830     0x2  Data  Lc  Pro_manual.o [1]
Manual_RunData          0x00018823    0x2e  Code  Gb  Pro_manual.o [1]
Manual_SetUp            0x00018851   0x2fe  Code  Gb  Pro_manual.o [1]
Manual_SetUpData        0x0001880b    0x18  Code  Gb  Pro_manual.o [1]
MemManage_Handler       0x00010e51     0x8  Code  Gb  HAL_Lib.o [1]
Midware_Heart_1ms_Int   0x0002102f   0x218  Code  Gb  Midware_Heart_01.o [1]
Midware_Heart_1ms_Int::heartrateHighLevelTime
                        0x20003d90     0x1  Data  Lc  Midware_Heart_01.o [1]
Midware_Heart_1ms_Int::heartrateKeepTime
                        0x20003d42     0x2  Data  Lc  Midware_Heart_01.o [1]
Midware_Heart_1ms_Int::heartrateLowLevelTime
                        0x20003d91     0x1  Data  Lc  Midware_Heart_01.o [1]
Midware_Heart_1ms_Int::heartrateValidFlag
                        0x20003d92     0x1  Data  Lc  Midware_Heart_01.o [1]
Midware_Heart_Get_Blink
                        0x00021391    0x1e  Code  Gb  Midware_Heart_01.o [1]
Midware_Heart_Get_Heart
                        0x00021377    0x1a  Code  Gb  Midware_Heart_01.o [1]
Midware_Heart_Initial_Data
                        0x00020fd9    0x56  Code  Gb  Midware_Heart_01.o [1]
Midware_Heart_Initial_IO
                        0x00020fcb     0xe  Code  Gb  Midware_Heart_01.o [1]
Midware_Heart_Interrupt
                        0x00020f59    0x72  Code  Lc  Midware_Heart_01.o [1]
Midware_Heart_Process   0x00021247   0x130  Code  Gb  Midware_Heart_01.o [1]
Midware_Heart_Process::lastHeartrateValidFlag
                        0x20003d93     0x1  Data  Lc  Midware_Heart_01.o [1]
ModalWndExist           0x20003d9a     0x1  Data  Gb  Show.o [1]
Model_Set_VirtualKey    0x0000ba4d    0x74  Code  Gb  Auto_Model.o [1]
Model_event             0x200069b8     0x4  Data  Lc  Auto_Model.o [1]
Models_Default          0x0002cb48   0x1c0  Data  Gb  main.o [1]
MyFirst5kRunWeek1Workout123
                        0x0002cd08    0x24  Data  Gb  Pro_MyFirst5k.o [1]
MyFirst5kRunWeek2Workout123
                        0x0002cd2c    0x1c  Data  Gb  Pro_MyFirst5k.o [1]
MyFirst5kRunWeek3Workout123
                        0x0002cd48    0x14  Data  Gb  Pro_MyFirst5k.o [1]
MyFirst5kRunWeek4Workout123
                        0x0002cd5c    0x14  Data  Gb  Pro_MyFirst5k.o [1]
MyFirst5kRunWeek5Workout123
                        0x0002cd70    0x10  Data  Gb  Pro_MyFirst5k.o [1]
MyFirst5kRunWeek6Workout1
                        0x0002cd80    0x10  Data  Gb  Pro_MyFirst5k.o [1]
MyFirst5kRunWeek6Workout2
                        0x0002cd90     0xc  Data  Gb  Pro_MyFirst5k.o [1]
MyFirst5kRunWeek6Workout3
                        0x0002cd9c     0x8  Data  Gb  Pro_MyFirst5k.o [1]
MyFirst5kRunWeek7Workout123
                        0x0002cda4     0x8  Data  Gb  Pro_MyFirst5k.o [1]
MyFirst5kRunWeek8Workout123
                        0x0002cdac     0x8  Data  Gb  Pro_MyFirst5k.o [1]
MyFirst5kRunWeek9Workout123
                        0x0002cdb4     0x8  Data  Gb  Pro_MyFirst5k.o [1]
MyFirst5kWorkoutDataArray
                        0x0001c678    0xd8  Data  Gb  Pro_MyFirst5k.o [1]
MyFirst5k_BeginWorkout  0x0001b9c1    0x58  Code  Gb  Pro_MyFirst5k.o [1]
MyFirst5k_Data_Initial  0x0001b769   0x258  Code  Gb  Pro_MyFirst5k.o [1]
MyFirst5k_Get_Result    0x0001c58f    0x84  Code  Lc  Pro_MyFirst5k.o [1]
MyFirst5k_ProfileShow   0x0001bb05   0x10e  Code  Gb  Pro_MyFirst5k.o [1]
MyFirst5k_Run           0x0001bf89   0x596  Code  Gb  Pro_MyFirst5k.o [1]
MyFirst5k_Run::LastValue
                        0x20000832     0x2  Data  Lc  Pro_MyFirst5k.o [1]
MyFirst5k_RunData       0x0001ba9d    0x68  Code  Gb  Pro_MyFirst5k.o [1]
MyFirst5k_SetUp         0x0001bc13   0x356  Code  Gb  Pro_MyFirst5k.o [1]
MyFirst5k_SetUpData     0x0001ba19    0x84  Code  Gb  Pro_MyFirst5k.o [1]
NVIC_ClearPendingIRQ    0x000253fd    0x16  Code  Lc  em_dma.o [1]
NVIC_ClearPendingIRQ    0x0001e08f    0x16  Code  Lc  em_usbh.o [1]
NVIC_ClearPendingIRQ    0x000284fb    0x16  Code  Lc  em_usbtimer.o [1]
NVIC_ClearPendingIRQ    0x0000dddd    0x16  Code  Lc  HAL_Lib.o [1]
NVIC_DisableIRQ         0x000253e7    0x16  Code  Lc  em_dma.o [1]
NVIC_DisableIRQ         0x0000ddc7    0x16  Code  Lc  HAL_Lib.o [1]
NVIC_EnableIRQ          0x000253d1    0x16  Code  Lc  em_dma.o [1]
NVIC_EnableIRQ          0x0001e079    0x16  Code  Lc  em_usbh.o [1]
NVIC_EnableIRQ          0x000284e5    0x16  Code  Lc  em_usbtimer.o [1]
NVIC_EnableIRQ          0x0000ddb1    0x16  Code  Lc  HAL_Lib.o [1]
NVIC_SetPriority        0x0000ddf3    0x2a  Code  Lc  HAL_Lib.o [1]
NVIC_SystemReset        0x0000de1d    0x20  Code  Lc  HAL_Lib.o [1]
NVIC_SystemReset        0x0000d699    0x20  Code  Lc  UtilitiesErp.o [1]
NameSprintBuffer        0x2000644c    0x44  Data  Gb  Events_Handler.o [1]
NoRpmTimer              0x20006a3e     0x2  Data  Gb  LCB.o [1]
NoRpmTimer2             0x20006a40     0x2  Data  Gb  LCB.o [1]
NumberKey_Data          0x20006224     0x8  Data  Gb  Programs.o [1]
Offset_Adress           0x200064d8    0x48  Data  Lc  LCB.o [1]
OverRead                0x20003cf8     0x4  Data  Gb  USBManager.o [1]
PCNT0_IRQHandler        0x00010ed1     0x8  Code  Gb  HAL_Lib.o [1]
PCNT1_IRQHandler        0x00010ed9     0x8  Code  Gb  HAL_Lib.o [1]
PCNT2_IRQHandler        0x00010ee1     0x8  Code  Gb  HAL_Lib.o [1]
PHrc_Cul_Data           0x000198b3    0xb6  Code  Gb  Pro_hrc.o [1]
PHrc_Get_HRTarget       0x0001983d    0x76  Code  Gb  Pro_hrc.o [1]
PHrc_Incline_Adjust     0x00019735   0x108  Code  Gb  Pro_hrc.o [1]
PHrc_Speed_Adjust       0x00019619   0x11a  Code  Gb  Pro_hrc.o [1]
PROGRAMBL_DATA_WND      0x0002de64    0x18  Data  Gb  Page.o [1]
PROG_Mult_Times         0x20003d10     0x1  Data  Gb  Engmode.o [1]
PROG_Setted_RPM         0x20003d11     0x1  Data  Gb  Engmode.o [1]
PTable                  0x2000672c    0x1c  Data  Lc  Pro_table.o [1]
Page_Init_Data          0x0001109d   0x4a0  Code  Gb  Page.o [1]
Page_Pop_OverlappedWindow
                        0x0001162f    0x4e  Code  Gb  Page.o [1]
Page_Push_OverlappedWindow
                        0x0001153d    0xf2  Code  Gb  Page.o [1]
Page_Reset_All_ModalWnds
                        0x000116df    0x32  Code  Gb  Page.o [1]
Page_Reset_Modal_Window
                        0x0001167d    0x62  Code  Gb  Page.o [1]
PauseWorkout            0x0002b7df    0x48  Code  Lc  Remote_control.o [1]
Pause_Status_flag       0x20003d88     0x1  Data  Gb  LCB.o [1]
Peak_intervals_Incline_TM
                        0x0002d2d8    0x3c  Data  Gb  main.o [1]
Peak_intervals_Para_TM  0x0002dd5c    0x18  Data  Gb  main.o [1]
PendSV_Handler          0x00010e79     0x8  Code  Gb  HAL_Lib.o [1]
PortDebounceComplete    0x0002c161    0x7c  Code  Lc  em_usbhint.o [1]
PortResetComplete       0x0002c149    0x18  Code  Lc  em_usbhint.o [1]
PressKey                0x0002b8a1     0x6  Code  Lc  Remote_control.o [1]
Prg321Isr               0x2000622c     0x4  Data  Lc  Programs.o [1]
PrgActionFlag           0x20006250     0x4  Data  Lc  Programs.o [1]
PrgKeyEvts              0x200005a8     0x4  Data  Lc  Programs.o [1]
PrgLib_TM_Config        0x20000538     0x8  Data  Gb  main.o [1]
PrgSpecialFunctionData  0x2000623c     0x4  Data  Lc  Programs.o [1]
PrgTimerIsr             0x200066fc    0x30  Data  Lc  Programs.o [1]
Prg_ProfileData         0x2000625c    0x5c  Data  Gb  Programs.o [1]
Prg_StateMachine        0x20006230     0x1  Data  Lc  Programs.o [1]
Prg_StateMachineBackup  0x20006231     0x1  Data  Lc  Programs.o [1]
PrintDeviceStrings      0x0001f387    0x7a  Code  Lc  msdh.o [1]
ProCustomDistance_Get_TotalTime
                        0x000142b1    0x68  Code  Gb  Pro_Custom.o [1]
ProCustom_Clear_Info    0x00014ea5    0x7a  Code  Gb  Pro_Custom.o [1]
ProCustom_RunData       0x00014641    0x6e  Code  Gb  Pro_Custom.o [1]
ProCustom_Save_Info     0x00014f45   0x14a  Code  Gb  Pro_Custom.o [1]
ProCustom_SetUpData     0x00014609    0x36  Code  Gb  Pro_Custom.o [1]
ProCustom_Set_APPData   0x00014319    0xd2  Code  Gb  Pro_Custom.o [1]
ProCustom_Set_SegRemainingDistance
                        0x00014295    0x1c  Code  Gb  Pro_Custom.o [1]
ProHrc_Set_TargetHR     0x0001a577     0x8  Code  Gb  Pro_hrc.o [1]
ProHrc_Set_TargetTime   0x0001a56f     0x8  Code  Gb  Pro_hrc.o [1]
ProMyFirst5k_AppData_Refresh
                        0x0001b519   0x16c  Code  Gb  Pro_MyFirst5k.o [1]
ProMyFirst5k_Get_GoodLuckFlag
                        0x0001c587     0x8  Code  Gb  Pro_MyFirst5k.o [1]
ProMyFirst5k_Save_Info  0x0001b685    0xe4  Code  Gb  Pro_MyFirst5k.o [1]
ProMyFirst5k_Set_DefaultData
                        0x0001c613    0x1c  Code  Gb  Pro_MyFirst5k.o [1]
ProMyFirst5k_Set_Speeed
                        0x0001b50d     0xc  Code  Gb  Pro_MyFirst5k.o [1]
ProTable_Time2SetUp     0x0002ce98     0x4  Data  Gb  Programs.o [1]
ProTable_TimeSetUp      0x0002ce90     0x8  Data  Gb  Programs.o [1]
Pro_table               0x200066cc    0x30  Data  Lc  Pro_table.o [1]
Pro_table_Set_Data      0x0001b379    0xb0  Code  Gb  Pro_table.o [1]
Profile                 0x20006754     0x8  Data  Lc  Pro_Custom.o [1]
Profile                 0x20006998     0x8  Data  Lc  Pro_hrc.o [1]
Profile                 0x20006748     0x8  Data  Lc  Pro_table.o [1]
ProfileIndex            0x2000623b     0x1  Data  Gb  Programs.o [1]
Profile_Pos             0x20006237     0x1  Data  Lc  Programs.o [1]
ProgramArray            0x20006188    0x9c  Data  Lc  Programs.o [1]
ProgramHrc_BeginWorkout
                        0x00019b31    0x40  Code  Gb  Pro_hrc.o [1]
ProgramHrc_Data_Initial
                        0x00019977   0x1ba  Code  Gb  Pro_hrc.o [1]
ProgramHrc_ProfileShow  0x0001a26d    0x82  Code  Gb  Pro_hrc.o [1]
ProgramHrc_Run          0x0001a2f9   0x276  Code  Gb  Pro_hrc.o [1]
ProgramHrc_Run::LastValue
                        0x2000082e     0x2  Data  Lc  Pro_hrc.o [1]
ProgramHrc_RunData      0x00019beb    0x2e  Code  Gb  Pro_hrc.o [1]
ProgramHrc_SetUp        0x00019c19   0x650  Code  Gb  Pro_hrc.o [1]
ProgramHrc_SetUpData    0x00019b71    0x7a  Code  Gb  Pro_hrc.o [1]
ProgramLibConfigPara    0x20006254     0x4  Data  Gb  Programs.o [1]
ProgramSubidArrayIndex  0x20006234     0x1  Data  Lc  Programs.o [1]
ProgramTable_BeginWorkout
                        0x0001aa3d    0xac  Code  Gb  Pro_table.o [1]
ProgramTable_Data_Initial
                        0x0001a8e3   0x15a  Code  Gb  Pro_table.o [1]
ProgramTable_LookUpParameter
                        0x0001a635   0x2ae  Code  Gb  Pro_table.o [1]
ProgramTable_ProfileShow
                        0x0001ae79   0x1ca  Code  Gb  Pro_table.o [1]
ProgramTable_Run        0x0001b043   0x330  Code  Gb  Pro_table.o [1]
ProgramTable_Run::LastValue
                        0x20000834     0x2  Data  Lc  Pro_table.o [1]
ProgramTable_RunData    0x0001ab3b    0x2e  Code  Gb  Pro_table.o [1]
ProgramTable_SetUp      0x0001ab69   0x310  Code  Gb  Pro_table.o [1]
ProgramTable_SetUpData  0x0001aae9    0x52  Code  Gb  Pro_table.o [1]
ProgramUUID             0x00008194   0x5a4  Data  Gb  Programs.o [1]
Program_1ms_ISR         0x00006061    0xc0  Code  Gb  Programs.o [1]
Program_1ms_ISR::w_Timer_100ms
                        0x20003d44     0x2  Data  Lc  Programs.o [1]
Program_Add_Program     0x000064dd    0x16  Code  Gb  Programs.o [1]
Program_Add_SubProgram  0x00006525    0x1e  Code  Gb  Programs.o [1]
Program_Dec_Program     0x000064f3    0x10  Code  Gb  Programs.o [1]
Program_Dec_SubProgram  0x00006543    0x18  Code  Gb  Programs.o [1]
Program_Events_Handler  0x00000db5  0x1300  Code  Gb  Events_Handler.o [1]
Program_Get_CalorieID   0x00008153     0x6  Code  Gb  Programs.o [1]
Program_Get_Calories    0x000073f5    0x32  Code  Gb  Programs.o [1]
Program_Get_CaloriesHR  0x0000742d     0x6  Code  Gb  Programs.o [1]
Program_Get_Calories_PerSecond
                        0x00007433     0x6  Code  Gb  Programs.o [1]
Program_Get_Calories_Target
                        0x00007439     0x6  Code  Gb  Programs.o [1]
Program_Get_CustomSegment
                        0x00008125    0x18  Code  Gb  Programs.o [1]
Program_Get_DefaultDotMatrix
                        0x000080d9     0x6  Code  Gb  Programs.o [1]
Program_Get_Description
                        0x000080a9     0x8  Code  Gb  Programs.o [1]
Program_Get_Distance    0x000073a5    0x4c  Code  Gb  Programs.o [1]
Program_Get_DistanceID  0x0000814d     0x6  Code  Gb  Programs.o [1]
Program_Get_DotmatixPos
                        0x0000743f     0x6  Code  Gb  Programs.o [1]
Program_Get_Elevation   0x000080c5     0x4  Code  Gb  Programs.o [1]
Program_Get_Floor       0x000080c1     0x4  Code  Gb  Programs.o [1]
Program_Get_Goal        0x0000757d     0x4  Code  Gb  Programs.o [1]
Program_Get_Goal_Remaining
                        0x000075ad     0x4  Code  Gb  Programs.o [1]
Program_Get_Goal_Type   0x00007581    0x20  Code  Gb  Programs.o [1]
Program_Get_HR          0x00007477    0x3c  Code  Gb  Programs.o [1]
Program_Get_Incline     0x00007345    0x1e  Code  Gb  Programs.o [1]
Program_Get_Lap_Index   0x000080b9     0x4  Code  Gb  Programs.o [1]
Program_Get_LapsCircle  0x0000813d    0x10  Code  Gb  Programs.o [1]
Program_Get_METs        0x00007509    0x20  Code  Gb  Programs.o [1]
Program_Get_MyFirst5k_WeekWorkout
                        0x000080df    0x1c  Code  Gb  Programs.o [1]
Program_Get_MyFirst5k_WeekWorkoutBuff
                        0x000080fb    0x1a  Code  Gb  Programs.o [1]
Program_Get_Pace        0x00007445    0x1e  Code  Gb  Programs.o [1]
Program_Get_Pace_Average
                        0x00007463    0x14  Code  Gb  Programs.o [1]
Program_Get_PerHeart    0x0001a5d5     0x6  Code  Gb  Pro_hrc.o [1]
Program_Get_Profile     0x0000755d    0x14  Code  Gb  Programs.o [1]
Program_Get_ProgramID   0x000065dd     0xe  Code  Gb  Programs.o [1]
Program_Get_RPM         0x00007537    0x26  Code  Gb  Programs.o [1]
Program_Get_Resistance  0x00007363    0x1e  Code  Gb  Programs.o [1]
Program_Get_Speed       0x0000729d    0x72  Code  Gb  Programs.o [1]
Program_Get_Speed_Average
                        0x00007315    0x30  Code  Gb  Programs.o [1]
Program_Get_Split_Index
                        0x000080bd     0x4  Code  Gb  Programs.o [1]
Program_Get_Stage       0x00007285     0xc  Code  Gb  Programs.o [1]
Program_Get_Stage_Goal  0x000080b5     0x4  Code  Gb  Programs.o [1]
Program_Get_Stage_Goal_Remaining
                        0x000080b1     0x4  Code  Gb  Programs.o [1]
Program_Get_Status      0x00006605     0x6  Code  Gb  Programs.o [1]
Program_Get_Steps       0x00007531     0x6  Code  Gb  Programs.o [1]
Program_Get_Time        0x000071d5    0x52  Code  Gb  Programs.o [1]
Program_Get_UUID        0x00008099    0x10  Code  Gb  Programs.o [1]
Program_Get_VO2         0x000080c9     0x4  Code  Gb  Programs.o [1]
Program_Get_Watts       0x000074b3    0x56  Code  Gb  Programs.o [1]
Program_Get_WorkoutLevel
                        0x00007381    0x1e  Code  Gb  Programs.o [1]
Program_Get_WorkoutTime
                        0x0000722d     0x6  Code  Gb  Programs.o [1]
Program_Get_WorkoutTime_Cooldown
                        0x0000725f    0x20  Code  Gb  Programs.o [1]
Program_Get_WorkoutTime_Elapsed
                        0x00007233     0x6  Code  Gb  Programs.o [1]
Program_Get_WorkoutTime_Remaining
                        0x00007239     0x6  Code  Gb  Programs.o [1]
Program_Get_WorkoutTime_Warmup
                        0x0000723f    0x20  Code  Gb  Programs.o [1]
Program_Get_stageTime   0x00007297     0x6  Code  Gb  Programs.o [1]
Program_Get_subProgramID
                        0x000065eb    0x1a  Code  Gb  Programs.o [1]
Program_Get_timeInStage
                        0x00007291     0x6  Code  Gb  Programs.o [1]
Program_Initial_Data    0x00006595     0x6  Code  Gb  Programs.o [1]
Program_Initial_FFD2    0x00006395    0x3a  Code  Gb  Programs.o [1]
Program_Initial_Inner_Data
                        0x000063cf    0xee  Code  Gb  Programs.o [1]
Program_Load_WattsTable
                        0x0000659b     0x6  Code  Gb  Programs.o [1]
Program_NextStatus      0x000064bd     0x2  Code  Gb  Programs.o [1]
Program_Process         0x000075b1   0xae8  Code  Gb  Programs.o [1]
Program_Process{4}{5}{59}{60}{61}{64}::lw_EP_OldSpeed
                        0x200005a4     0x2  Data  Lc  Programs.o [1]
Program_Read_5PointData
                        0x00006121   0x1fa  Code  Gb  Programs.o [1]
Program_Register_Function
                        0x000064bf    0x1e  Code  Gb  Programs.o [1]
Program_Select_ID       0x000065a1    0x3c  Code  Gb  Programs.o [1]
Program_Set_Parameter   0x00006e25   0x3aa  Code  Gb  Programs.o [1]
Program_Set_Status      0x0000660b     0x2  Code  Gb  Programs.o [1]
Program_Set_VirtualKey  0x00006621   0x7f6  Code  Gb  Programs.o [1]
Program_Set_nXTime      0x00007571     0x4  Code  Gb  Programs.o [1]
ProgramidArrayIndex     0x20006233     0x1  Data  Gb  Programs.o [1]
Ptable_RunPara          0x20006750     0x4  Data  Lc  Pro_table.o [1]
QualifyDevice           0x0001f219   0x16e  Code  Lc  msdh.o [1]
REFRESH_WINDOW_CHANNEL  0x20006aa2     0x1  Data  Gb  main.o [1]
RES_DATA_WND            0x0002deac    0x18  Data  Gb  Page.o [1]
RF_Event                0x20006778     0x4  Data  Lc  RF_AP.o [1]
RF_Key_Event            0x20006774     0x4  Data  Lc  RF_AP.o [1]
RF_Set_VirtualKey       0x0000bac5    0x30  Code  Gb  RF_AP.o [1]
ROOT_DIRECTORY          0x0002e874    0x14  Data  Gb  USBManager.o [1]
RPM_Calculate_Pulse_Int
                        0x0001c8b3    0x74  Code  Gb  RPM.o [1]
RPM_Calculate_Pulse_Limit
                        0x0001c86f    0x3e  Code  Gb  RPM.o [1]
RPM_Clear_STAB          0x0001cb0d    0x20  Code  Gb  RPM.o [1]
RPM_DATA_WND            0x0002de94    0x18  Data  Gb  Page.o [1]
RPM_Get_No_Pulse_Int    0x0001c831    0x3e  Code  Gb  RPM.o [1]
RPM_Get_OK              0x0001cb41    0x10  Code  Gb  RPM.o [1]
RPM_Get_STAB            0x0001cb2d    0x14  Code  Gb  RPM.o [1]
RPM_Get_STOP            0x0001c927    0x14  Code  Gb  RPM.o [1]
RPM_Get_Speed           0x0001c93b     0x6  Code  Gb  RPM.o [1]
RPM_Initial_Data        0x0001c7a5    0x2e  Code  Gb  RPM.o [1]
RPM_Initial_IO          0x0001c75d    0x48  Code  Gb  RPM.o [1]
RPM_Process_Decoder     0x0001c941   0x1cc  Code  Gb  RPM.o [1]
RPM_Process_Decoder::aw_Out
                        0x20003bf0     0xc  Data  Lc  RPM.o [1]
RPM_Set_100ms_Flag_Int  0x0001c7fd    0x34  Code  Gb  RPM.o [1]
RPM_Set_100ms_Flag_Int::by_RPM_Time
                        0x20003d97     0x1  Data  Lc  RPM.o [1]
RPM_Set_Scorll          0x0001c8ad     0x6  Code  Gb  RPM.o [1]
RPM_Set_Speed_Mode      0x0001c7d3    0x2a  Code  Gb  RPM.o [1]
RTCGetPMAMInfo          0x00026331     0x6  Code  Gb  SetRtc.o [1]
RTCGetSettedTimeData    0x0002632d     0x4  Code  Gb  SetRtc.o [1]
RTCSetModeInitialData   0x00025e6b   0x196  Code  Gb  SetRtc.o [1]
RTCSetMode_Process      0x00026001   0x32c  Code  Gb  SetRtc.o [1]
RTCSettingState         0x20003d98     0x1  Data  Gb  SetRtc.o [1]
RTCTimerCnt             0x20003d52     0x2  Data  Gb  SetRtc.o [1]
RTC_Event_Handler       0x000020e9   0x10c  Code  Gb  Events_Handler.o [1]
RTC_Evts                0x200069e8     0x4  Data  Lc  SetRtc.o [1]
RTC_Get_NumberOfDay     0x00025e35    0x36  Code  Lc  SetRtc.o [1]
RTC_Get_NumberOfDay::aby_NDM
                        0x0002f1f0     0xc  Data  Lc  SetRtc.o [1]
RTC_IRQHandler          0x00010ee9     0x8  Code  Gb  HAL_Lib.o [1]
RTC_Is_LeapYear         0x00025df9    0x3c  Code  Lc  SetRtc.o [1]
Receive_Update          0x2000676d     0x1  Data  Gb  RF_AP.o [1]
Region$$Table$$Base     0x0002d774           --   Gb  - Linker created -
Region$$Table$$Limit    0x0002d794           --   Gb  - Linker created -
Register_Program_ISR    0x00006577    0x1e  Code  Gb  Programs.o [1]
RemoteAssetProcess      0x000151ab     0xa  Code  Gb  Remote_asset.o [1]
RemoteAssetReceive      0x000151b5     0x8  Code  Gb  Remote_asset.o [1]
RemoteChangeWorkotState
                        0x0002967b   0x442  Code  Gb  Remote_workoutTracking.o [1]
RemoteChangeWorkoutStateCallback
                        0x000235a5    0x1a  Code  Gb  Remote_process.o [1]
RemoteControlProcess    0x0002b901   0x254  Code  Gb  Remote_control.o [1]
RemoteControlReceive    0x0002bb61   0x200  Code  Gb  Remote_control.o [1]
RemoteGeneralProcess    0x0001d3c5   0x818  Code  Gb  Remote_general.o [1]
RemoteGeneralReceive    0x0001dbdd   0x452  Code  Gb  Remote_general.o [1]
RemoteProcess           0x0002373f   0x214  Code  Gb  Remote_process.o [1]
RemoteProcessDataPre    0x000235d1    0x46  Code  Gb  Remote_process.o [1]
RemoteReceiveMessage    0x00023619   0x126  Code  Lc  Remote_process.o [1]
RemoteRegisterDevice    0x000235bf    0x12  Code  Gb  Remote_process.o [1]
RemoteStopWorkotState   0x0001cd85     0xc  Code  Gb  Remote_general.o [1]
RemoteWorkoutProcess    0x00029abd   0x2ea  Code  Gb  Remote_workoutTracking.o [1]
RemoteWorkoutReceive    0x00029db5    0x3c  Code  Gb  Remote_workoutTracking.o [1]
ResetInclinePauseZeroingTimer
                        0x00017a81     0xa  Code  Gb  Speed.o [1]
ResetRecovery           0x0002a665    0x3c  Code  Lc  msdbot.o [1]
Reset_From_ERP_Flag     0x20003d2e     0x2  Data  Lc  HAL_Lib.o [1]
ResetinitialBluetoothLib
                        0x0000d227    0x4a  Code  Gb  Bluetooth_lib.o [1]
ResistanceDataBackup    0x20006238     0x1  Data  Lc  Programs.o [1]
ResistanceTable         0x0002d45c    0x2c  Data  Gb  main.o [1]
Rtc_Data                0x20003c28     0x8  Data  Gb  SetRtc.o [1]
Rtc_Get_NumberOfDay     0x0001c549    0x3e  Code  Lc  Pro_MyFirst5k.o [1]
Rtc_Get_NumberOfDay::aby_NDM
                        0x0001c750     0xc  Data  Lc  Pro_MyFirst5k.o [1]
SAFEKEY_DATA1_WND       0x0002dedc    0x18  Data  Gb  Page.o [1]
SAFEKEY_DATA2_WND       0x0002def4    0x18  Data  Gb  Page.o [1]
SAFEKEY_DATA3_WND       0x0002df0c    0x18  Data  Gb  Page.o [1]
SPEED_DATA_LCDWND       0x0002de7c    0x18  Data  Gb  Page.o [1]
SPEED_DATA_WND          0x0002df3c    0x18  Data  Gb  Page.o [1]
STATIC_DISPLAY_CHANNEL  0x20006aa0     0x1  Data  Gb  main.o [1]
STEP_DATA_WND           0x0002dfb4    0x18  Data  Gb  Page.o [1]
SVC_Handler             0x00010e69     0x8  Code  Gb  HAL_Lib.o [1]
SYSTEM_ChipRevisionGet  0x00023a85    0x22  Code  Gb  em_system.o [1]
SafetyKeyAttached       0x2000083b     0x1  Data  Lc  UtilitiesErrorcode.o [1]
Safety_Key              0x20003d7d     0x1  Data  Gb  ftms_iface.o [1]
Safety_Key_pre          0x20003d7e     0x1  Data  Gb  ftms_iface.o [1]
SelectProgram           0x0002b78f    0x50  Code  Lc  Remote_control.o [1]
SendStepFlag            0x20003db3     0x1  Data  Gb  Wlt2564_Command.o [1]
SetBTStatus             0x00022869     0x6  Code  Gb  Wlt2564_Command.o [1]
SetBleNameFlag          0x00022835     0xe  Code  Gb  Wlt2564_Command.o [1]
SetIncline              0x0002b861    0x3a  Code  Lc  Remote_control.o [1]
SetLapCircle            0x0000dd97     0x6  Code  Gb  Display.o [1]
SetResistance           0x0002b89b     0x6  Code  Lc  Remote_control.o [1]
SetSpeed                0x0002b827    0x3a  Code  Lc  Remote_control.o [1]
SetUpdateFlag           0x00022895     0xe  Code  Gb  Wlt2564_Command.o [1]
SetUser                 0x0002b8af    0x52  Code  Lc  Remote_control.o [1]
SetUserInfo             0x0001d249   0x170  Code  Lc  Remote_general.o [1]
SetUserInfo{1}{2}{3}{5}{8}{9}::displayUnit
                        0x20003d94     0x1  Data  Lc  Remote_general.o [1]
Set_reset_flag          0x00003b1b     0x6  Code  Gb  Events_Handler.o [1]
ShowACCDis              0x000129a9    0x72  Code  Gb  Show.o [1]
ShowACCTime             0x00012a21    0x48  Code  Gb  Show.o [1]
ShowAgeData             0x0001238d    0x4c  Code  Gb  Show.o [1]
ShowBTUpdatePercent     0x00013357    0x38  Code  Gb  Show.o [1]
ShowBTVersion           0x000126ef    0x96  Code  Gb  Show.o [1]
ShowBottomTextBox       0x000125c1    0x64  Code  Gb  Show.o [1]
ShowCaloriesData        0x00013779    0x7c  Code  Gb  Show.o [1]
ShowCommonData          0x000128fd    0x28  Code  Gb  Show.o [1]
ShowCommonTextBox       0x000124ab    0x7e  Code  Gb  Show.o [1]
ShowCountTimeData       0x00012d37    0xa4  Code  Gb  Show.o [1]
ShowCustomSegment       0x00012bc9    0x94  Code  Gb  Show.o [1]
ShowDistanceData        0x00013645    0xa8  Code  Gb  Show.o [1]
ShowENG0LedNumber       0x00012557    0x48  Code  Gb  Show.o [1]
ShowENG2PWMData         0x0001294d    0x28  Code  Gb  Show.o [1]
ShowENGKeyValue         0x00012529    0x2e  Code  Gb  Show.o [1]
ShowENGLCBRPMData       0x00012975    0x28  Code  Gb  Show.o [1]
ShowENGSetRPMData       0x00012925    0x28  Code  Gb  Show.o [1]
ShowERPWaitTime         0x000127f1    0x70  Code  Gb  Show.o [1]
ShowHeartData           0x00013ab5    0x80  Code  Gb  Show.o [1]
ShowHeartTitle          0x00012b61    0x5e  Code  Gb  Show.o [1]
ShowInclineData         0x000134a1    0x90  Code  Gb  Show.o [1]
ShowLapsCircle          0x000132ed    0x6a  Code  Gb  Show.o [1]
ShowLcdCaloriesData     0x000137f9    0x58  Code  Gb  Show.o [1]
ShowLcdDistanceData     0x000136f5    0x82  Code  Gb  Show.o [1]
ShowLcdSpeedData        0x0001341b    0x86  Code  Gb  Show.o [1]
ShowMCBVision           0x00012ad9    0x6c  Code  Gb  Show.o [1]
ShowMacAddress          0x000126b1    0x3e  Code  Gb  Show.o [1]
ShowMaleTitle           0x0001243f    0x6c  Code  Gb  Show.o [1]
ShowMatrixData          0x00013c1d   0x30e  Code  Gb  Show.o [1]
ShowOverSpeedValue      0x00012861    0x2e  Code  Gb  Show.o [1]
ShowPage                0x00011711   0x25a  Code  Gb  Page.o [1]
ShowPasscode            0x0001266f    0x42  Code  Gb  Show.o [1]
ShowProgramBLData       0x00013211    0xd4  Code  Gb  Show.o [1]
ShowQuickMul            0x00012785    0x6a  Code  Gb  Show.o [1]
ShowRGBLight            0x0001410d    0x1a  Code  Gb  Show.o [1]
ShowRTCAMPM             0x00014081    0x70  Code  Gb  Show.o [1]
ShowRTCDate             0x00013fb3    0x42  Code  Gb  Show.o [1]
ShowRTCHour             0x00013ff9    0x42  Code  Gb  Show.o [1]
ShowRTCMinute           0x0001403b    0x42  Code  Gb  Show.o [1]
ShowRTCMonth            0x00013f71    0x42  Code  Gb  Show.o [1]
ShowRTCYear             0x00013f2b    0x42  Code  Gb  Show.o [1]
ShowResistanceData      0x0001385d    0x6c  Code  Gb  Show.o [1]
ShowRpmData             0x00013bad    0x5a  Code  Gb  Show.o [1]
ShowSafekeyOffLedNumber
                        0x0001259f    0x22  Code  Gb  Show.o [1]
ShowSetCalories         0x00012f3d    0x9e  Code  Gb  Show.o [1]
ShowSetDistance         0x00013531    0x82  Code  Gb  Show.o [1]
ShowSetGenderData       0x000123d9    0x66  Code  Gb  Show.o [1]
ShowSetIntervals        0x00012fe9    0xd8  Code  Gb  Show.o [1]
ShowSetLevel            0x00013b39    0x70  Code  Gb  Show.o [1]
ShowSetResistance       0x00013189    0x7e  Code  Gb  Show.o [1]
ShowSetSpeed            0x000130c1    0xc8  Code  Gb  Show.o [1]
ShowSetStep             0x000135b3    0x8e  Code  Gb  Show.o [1]
ShowSetTime             0x00012c65    0x64  Code  Gb  Show.o [1]
ShowSettedRPM           0x0001288f    0x6e  Code  Gb  Show.o [1]
ShowSpeedData           0x00013395    0x86  Code  Gb  Show.o [1]
ShowStepData            0x00012ccd    0x6a  Code  Gb  Show.o [1]
ShowTargetHeartData     0x00013945    0xb6  Code  Gb  Show.o [1]
ShowTargetPerHeartData  0x00013a01    0xb4  Code  Gb  Show.o [1]
ShowTimeData            0x00012df9    0xbc  Code  Gb  Show.o [1]
ShowUCBVision           0x00012a69    0x6a  Code  Gb  Show.o [1]
ShowUsrName             0x000122b5    0x4c  Code  Gb  Show.o [1]
ShowWattsData           0x000138d9    0x4c  Code  Gb  Show.o [1]
ShowWeightData          0x00012301    0x8c  Code  Gb  Show.o [1]
ShowXID                 0x0001262d    0x42  Code  Gb  Show.o [1]
Show_ClearLedLight      0x00014199    0x6c  Code  Gb  Show.o [1]
Show_DelayTimer         0x20003d54     0x2  Data  Gb  Show_Functions.o [1]
Show_LEDLight           0x000140f9    0x14  Code  Gb  Show.o [1]
Show_NoSpeed_Error_Flag
                        0x20003d36     0x2  Data  Gb  LCB.o [1]
Show_No_Speed           0x00014217    0x12  Code  Gb  Show.o [1]
Show_ProgramLED         0x00014127    0x72  Code  Gb  Show.o [1]
Show_Speed_Burst        0x00014205    0x12  Code  Gb  Show.o [1]
Show_Speed_Burst_Flag   0x20003d30     0x2  Data  Gb  LCB.o [1]
Show_State              0x20003cb4     0x4  Data  Gb  Show_Functions.o [1]
Show_Timer              0x00028b79    0x6a  Code  Gb  Show_Functions.o [1]
Show_UnderSpeed         0x00014229    0x12  Code  Gb  Show.o [1]
Show_Underspeed_Flag    0x20003d32     0x2  Data  Gb  LCB.o [1]
SpeedDataBackup         0x2000624e     0x2  Data  Lc  Programs.o [1]
Speed_1ms_Int           0x000183e9    0x64  Code  Gb  Speed.o [1]
Speed_Add_PWM_Target    0x00017d73    0x3a  Code  Gb  Speed.o [1]
Speed_Auto_Check_Move   0x00017e99    0x62  Code  Gb  Speed.o [1]
Speed_Auto_Run          0x00017f29   0x3a8  Code  Gb  Speed.o [1]
Speed_Auto_Run::MIN_Speed_Compute_PWM_flag
                        0x20003cec     0x4  Data  Lc  Speed.o [1]
Speed_Auto_Run::RPM0    0x20003cc4     0x4  Data  Lc  Speed.o [1]
Speed_Auto_Run::RPM1    0x20003cc8     0x4  Data  Lc  Speed.o [1]
Speed_Auto_Run::RPM2    0x20003ccc     0x4  Data  Lc  Speed.o [1]
Speed_Auto_Run::RPM3    0x20003cd0     0x4  Data  Lc  Speed.o [1]
Speed_Auto_Run::RPM4    0x20003cd4     0x4  Data  Lc  Speed.o [1]
Speed_Auto_Run::pwm0    0x20003cd8     0x4  Data  Lc  Speed.o [1]
Speed_Auto_Run::pwm1    0x20003cdc     0x4  Data  Lc  Speed.o [1]
Speed_Auto_Run::pwm2    0x20003ce0     0x4  Data  Lc  Speed.o [1]
Speed_Auto_Run::pwm3    0x20003ce4     0x4  Data  Lc  Speed.o [1]
Speed_Auto_Run::pwm4    0x20003ce8     0x4  Data  Lc  Speed.o [1]
Speed_Calculate_PWM_Point
                        0x00017963   0x11e  Code  Gb  Speed.o [1]
Speed_Calculate_PWM_Point::by_S1
                        0x20003d9c     0x1  Data  Lc  Speed.o [1]
Speed_Calculate_PWM_Point::by_S2
                        0x20003d9d     0x1  Data  Lc  Speed.o [1]
Speed_Calculate_PWM_Point::by_S3
                        0x20003d9e     0x1  Data  Lc  Speed.o [1]
Speed_Calculate_PWM_Point::by_S4
                        0x20003d9f     0x1  Data  Lc  Speed.o [1]
Speed_Clear_Auto        0x00017e7f    0x1a  Code  Gb  Speed.o [1]
Speed_Compute           0x00016a61    0xb6  Code  Gb  LCB.o [1]
Speed_Compute::Rpm_max  0x20003c8c     0x4  Data  Lc  LCB.o [1]
Speed_Compute::Rpm_min  0x20003c88     0x4  Data  Lc  LCB.o [1]
Speed_Compute::pwm_max  0x20003c84     0x4  Data  Lc  LCB.o [1]
Speed_Compute::pwm_min  0x20003c80     0x4  Data  Lc  LCB.o [1]
Speed_Compute_PWM       0x00018469   0x150  Code  Gb  Speed.o [1]
Speed_Dec_PWM_Target    0x00017dad    0x2c  Code  Gb  Speed.o [1]
Speed_Get_MAX           0x00017e6f     0x8  Code  Gb  Speed.o [1]
Speed_Get_MIN           0x00017e77     0x8  Code  Gb  Speed.o [1]
Speed_Get_PWM_MAX       0x00017df7     0x8  Code  Gb  Speed.o [1]
Speed_Get_PWM_MID       0x00017e07     0x8  Code  Gb  Speed.o [1]
Speed_Get_PWM_MIN       0x00017e17     0x8  Code  Gb  Speed.o [1]
Speed_Get_PWM_SP1       0x00017e0f     0x8  Code  Gb  Speed.o [1]
Speed_Get_PWM_SP2       0x00017dff     0x8  Code  Gb  Speed.o [1]
Speed_Get_PWM_Target    0x00017d6b     0x8  Code  Gb  Speed.o [1]
Speed_Get_PWM_Time      0x00017d63     0x8  Code  Gb  Speed.o [1]
Speed_IO_Check_Safe_AlwaysOff
                        0x00020c5d    0x18  Code  Gb  UtilitiesErrorcode.o [1]
Speed_IO_Check_Safe_AlwaysOn
                        0x00020c75    0x18  Code  Gb  UtilitiesErrorcode.o [1]
Speed_Initial_Data      0x00017761    0xe2  Code  Gb  Speed.o [1]
Speed_Process_PWM_Int_New
                        0x00017a8b   0x156  Code  Gb  Speed.o [1]
Speed_Quick_Stop        0x00017de1    0x16  Code  Gb  Speed.o [1]
Speed_Set_100ms_Flag_Int
                        0x00017897    0x34  Code  Gb  Speed.o [1]
Speed_Set_100ms_Flag_Int::by_AUTO_Time
                        0x20003d9b     0x1  Data  Lc  Speed.o [1]
Speed_Set_MAX           0x00017e47     0x8  Code  Gb  Speed.o [1]
Speed_Set_MID           0x00017e57     0x8  Code  Gb  Speed.o [1]
Speed_Set_MIN           0x00017e67     0x8  Code  Gb  Speed.o [1]
Speed_Set_PWM_MAX       0x00017e1f     0x8  Code  Gb  Speed.o [1]
Speed_Set_PWM_MID       0x00017e3f     0x8  Code  Gb  Speed.o [1]
Speed_Set_PWM_MIN       0x00017e2f     0x8  Code  Gb  Speed.o [1]
Speed_Set_PWM_SP1       0x00017e37     0x8  Code  Gb  Speed.o [1]
Speed_Set_PWM_SP2       0x00017e27     0x8  Code  Gb  Speed.o [1]
Speed_Set_PWM_Target    0x00017dd9     0x8  Code  Gb  Speed.o [1]
Speed_Set_PWM_Test      0x00017941    0x22  Code  Gb  Speed.o [1]
Speed_Set_SP1           0x00017e5f     0x8  Code  Gb  Speed.o [1]
Speed_Set_SP2           0x00017e4f     0x8  Code  Gb  Speed.o [1]
Speed_Set_Speed         0x000178eb    0x56  Code  Gb  Speed.o [1]
Speed_Set_Speed_Mode    0x0001786d    0x2a  Code  Gb  Speed.o [1]
Speed_Set_Start         0x00017843    0x2a  Code  Gb  Speed.o [1]
Speed_Set_Time_250ms    0x000183bd     0x6  Code  Gb  Speed.o [1]
Speed_Step_Switch       0x000182dd    0xdc  Code  Gb  Speed.o [1]
Speed_Switch_PWM        0x00017be1   0x182  Code  Gb  Speed.o [1]
Speed_Updata_Speed      0x000178cb    0x20  Code  Gb  Speed.o [1]
Speed_intervalsGoal_TM  0x0002f1d8     0xc  Data  Gb  main.o [1]
Speed_intervals_Para_TM
                        0x0002dd44    0x18  Data  Gb  main.o [1]
Speed_intervals_TM      0x0002d314    0x3c  Data  Gb  main.o [1]
Sprint8_Get_Sweat_Score
                        0x000080cd     0x4  Code  Gb  Programs.o [1]
Sprint8_Get_Total_Sweat_Score
                        0x000080d1     0x4  Code  Gb  Programs.o [1]
StartWorkout            0x0002b677   0x118  Code  Lc  Remote_control.o [1]
Stat                    0x20000838     0x1  Data  Gb  msddiskio.o [1]
Steps_HR_SetUp          0x0002ce88     0x8  Data  Gb  Programs.o [1]
StopShowTimer           0x20003d58     0x2  Data  Gb  Show_Functions.o [1]
StopWorkout             0x0001cc7d    0x30  Code  Lc  Remote_general.o [1]
Stop_Position           0x20006a32     0x2  Data  Lc  HAL_Lib.o [1]
String_Get_String       0x00025c7d    0x38  Code  Gb  Strings.o [1]
String_Init_Data        0x00025cb5     0xe  Code  Gb  Strings.o [1]
Strings                 0x0002a7f8   0xe58  Data  Gb  Strings.o [1]
SubIntervalsHRPrgIDArray
                        0x000187b2     0x2  Data  Gb  main.o [1]
SubIntervalsPrgIDArray  0x000187aa     0x2  Data  Gb  main.o [1]
Switch_Value            0x20006ac5     0x1  Data  Lc  UtilitiesKeyboard.o [1]
SysTick_Config          0x0000de3d    0x38  Code  Lc  HAL_Lib.o [1]
SysTick_Handler         0x0001097f    0x50  Code  Gb  HAL_Lib.o [1]
SystemConfigProcess     0x0000487d   0x8d4  Code  Gb  SystemConfig.o [1]
SystemConfigResetAllData
                        0x00005269     0xe  Code  Lc  SystemConfig.o [1]
SystemConfigRestoreToFactory
                        0x00005165   0x104  Code  Gb  SystemConfig.o [1]
SystemConfig_Compare_CustomInfo
                        0x00003ffb    0x6e  Code  Gb  SystemConfig.o [1]
SystemConfig_Get_Char   0x000043db   0x20a  Code  Gb  SystemConfig.o [1]
SystemConfig_Get_CustomInfo
                        0x000040df   0x11c  Code  Gb  SystemConfig.o [1]
SystemConfig_Get_Dapi_Version
                        0x00005299     0x4  Code  Gb  SystemConfig.o [1]
SystemConfig_Get_DefaultString
                        0x0000527b    0x14  Code  Gb  SystemConfig.o [1]
SystemConfig_Get_Display_Unit
                        0x000043cf     0xc  Code  Gb  SystemConfig.o [1]
SystemConfig_Get_FirstBoot_ADDRESS
                        0x0000601d     0x8  Code  Gb  SystemConfig.o [1]
SystemConfig_Get_Int    0x000045e5   0x246  Code  Gb  SystemConfig.o [1]
SystemConfig_Get_Long   0x0000482b    0x34  Code  Gb  SystemConfig.o [1]
SystemConfig_Get_MachineInfo
                        0x00003ed3    0x2e  Code  Gb  SystemConfig.o [1]
SystemConfig_Get_MaxUserNumber
                        0x00005277     0x4  Code  Gb  SystemConfig.o [1]
SystemConfig_Get_MyFirst5kInfo
                        0x00003f69    0x92  Code  Gb  SystemConfig.o [1]
SystemConfig_Get_UserInfo
                        0x00004275   0x15a  Code  Gb  SystemConfig.o [1]
SystemConfig_Initial    0x00003d1b   0x178  Code  Gb  SystemConfig.o [1]
SystemConfig_Set_CustomInfo
                        0x00004069    0x76  Code  Gb  SystemConfig.o [1]
SystemConfig_Set_MachineInfo
                        0x00003e93    0x40  Code  Gb  SystemConfig.o [1]
SystemConfig_Set_MyFirst5kInfo
                        0x00003f01    0x68  Code  Gb  SystemConfig.o [1]
SystemConfig_Set_UpdateFlag
                        0x000052fd    0x4c  Code  Gb  SystemConfig.o [1]
SystemConfig_Set_UserInfo
                        0x000041fb    0x7a  Code  Gb  SystemConfig.o [1]
SystemCoreClock         0x20003cf0     0x4  Data  Gb  system_efm32lg.o [1]
SystemCoreClockGet      0x00023971    0x28  Code  Gb  system_efm32lg.o [1]
