###############################################################################
#
# IAR ANSI C/C++ Compiler V7.80.4.12462/W32 for ARM       12/Dec/2022  11:41:17
# Copyright 1999-2017 IAR Systems AB.
#
#    Cpu mode     =  thumb
#    Endian       =  little
#    Source file  =  
#        C:\Users\shaomingkun\Desktop\git\evolve5.0\2021sw\ECOM-5\Modules\EFM32_lib\emlib\_src\em_cmu.c
#    Command line =  
#        C:\Users\shaomingkun\Desktop\git\evolve5.0\2021sw\ECOM-5\Modules\EFM32_lib\emlib\_src\em_cmu.c
#        -D EFM32LG380F256 -D BSP_CORTEX_EFM32 -D DEBUG_EFM_JJ -D
#        RF_MODULE_EXIST____ -lC
#        C:\Users\shaomingkun\Desktop\git\evolve5.0\2021sw\ECOM-5\Debug\List
#        -lA
#        C:\Users\shaomingkun\Desktop\git\evolve5.0\2021sw\ECOM-5\Debug\List -o
#        C:\Users\shaomingkun\Desktop\git\evolve5.0\2021sw\ECOM-5\Debug\Obj
#        --no_cse --no_unroll --no_inline --no_code_motion --no_tbaa
#        --no_clustering --no_scheduling --debug --endian=little
#        --cpu=Cortex-M3 -e --fpu=None --dlib_config "C:\Program Files
#        (x86)\IAR Systems\Embedded Workbench
#        7.5\arm\INC\c\DLib_Config_Normal.h" -I
#        C:\Users\shaomingkun\Desktop\git\evolve5.0\2021sw\ECOM-5\ -I
#        C:\Users\shaomingkun\Desktop\git\evolve5.0\2021sw\ECOM-5\Local\ -I
#        C:\Users\shaomingkun\Desktop\git\evolve5.0\2021sw\ECOM-5\Modules\ -I
#        C:\Users\shaomingkun\Desktop\git\evolve5.0\2021sw\ECOM-5\Modules\Utilities_Lib\
#        -I
#        C:\Users\shaomingkun\Desktop\git\evolve5.0\2021sw\ECOM-5\Modules\HAL_Lib\
#        -I
#        C:\Users\shaomingkun\Desktop\git\evolve5.0\2021sw\ECOM-5\Modules\LCB_Lib\
#        -I
#        C:\Users\shaomingkun\Desktop\git\evolve5.0\2021sw\ECOM-5\Modules\Eng_lib\
#        -I
#        C:\Users\shaomingkun\Desktop\git\evolve5.0\2021sw\ECOM-5\..\Modules\Eng_lib\
#        -I
#        C:\Users\shaomingkun\Desktop\git\evolve5.0\2021sw\ECOM-5\Modules\SystemConfig_Lib\
#        -I
#        C:\Users\shaomingkun\Desktop\git\evolve5.0\2021sw\ECOM-5\Modules\EFM32_lib\
#        -I
#        C:\Users\shaomingkun\Desktop\git\evolve5.0\2021sw\ECOM-5\Modules\EFM32_lib\drivers\
#        -I
#        C:\Users\shaomingkun\Desktop\git\evolve5.0\2021sw\ECOM-5\Modules\Program_lib\
#        -I
#        C:\Users\shaomingkun\Desktop\git\evolve5.0\2021sw\ECOM-5\Modules\RF_lib\
#        -I
#        C:\Users\shaomingkun\Desktop\git\evolve5.0\2021sw\ECOM-5\Modules\USB_lib\
#        -I
#        C:\Users\shaomingkun\Desktop\git\evolve5.0\2021sw\ECOM-5\Modules\USB_lib\usb\src\
#        -I
#        C:\Users\shaomingkun\Desktop\git\evolve5.0\2021sw\ECOM-5\Modules\USB_lib\usb\inc\
#        -I
#        C:\Users\shaomingkun\Desktop\git\evolve5.0\2021sw\ECOM-5\Modules\Bluetooth_lib\
#        -I
#        C:\Users\shaomingkun\Desktop\git\evolve5.0\2021sw\ECOM-5\Modules\Remote_lib\
#        -I
#        C:\Users\shaomingkun\Desktop\git\evolve5.0\2021sw\ECOM-5\Modules\EFM32_lib\Include\
#        -I
#        C:\Users\shaomingkun\Desktop\git\evolve5.0\2021sw\ECOM-5\Modules\EFM32_lib\emlib\inc\
#        -I
#        C:\Users\shaomingkun\Desktop\git\evolve5.0\2021sw\ECOM-5\Modules\EFM32_lib\emlib\src\
#        -I
#        C:\Users\shaomingkun\Desktop\git\evolve5.0\2021sw\ECOM-5\Modules\EFM32_lib\drivers\fatfs\src\
#        -I
#        C:\Users\shaomingkun\Desktop\git\evolve5.0\2021sw\ECOM-5\Modules\EFM32_lib\Device\EnergyMicro\EFM32LG\Include\
#        -I
#        C:\Users\shaomingkun\Desktop\git\evolve5.0\2021sw\ECOM-5\Modules\EFM32_lib\Device\EnergyMicro\EFM32LG\Source\
#        -I
#        C:\Users\shaomingkun\Desktop\git\evolve5.0\2021sw\ECOM-5\Modules\EFM32_lib\Device\EnergyMicro\EFM32LG\Source\IAR\
#        -I
#        C:\Users\shaomingkun\Desktop\git\evolve5.0\2021sw\ECOM-5\Modules\RTT_Lib\
#        -On
#    Locale       =  Chinese (Simplified)_China.936
#    List file    =  
#        C:\Users\shaomingkun\Desktop\git\evolve5.0\2021sw\ECOM-5\Debug\List\em_cmu.lst
#    Object file  =  
#        C:\Users\shaomingkun\Desktop\git\evolve5.0\2021sw\ECOM-5\Debug\Obj\em_cmu.o
#
###############################################################################

C:\Users\shaomingkun\Desktop\git\evolve5.0\2021sw\ECOM-5\Modules\EFM32_lib\emlib\_src\em_cmu.c
      1          /***************************************************************************//**
      2           * @file
      3           * @brief Clock management unit (CMU) Peripheral API
      4           * @author Energy Micro AS
      5           * @version 3.0.1
      6           *******************************************************************************
      7           * @section License
      8           * <b>(C) Copyright 2012 Energy Micro AS, http://www.energymicro.com</b>
      9           *******************************************************************************
     10           *
     11           * Permission is granted to anyone to use this software for any purpose,
     12           * including commercial applications, and to alter it and redistribute it
     13           * freely, subject to the following restrictions:
     14           *
     15           * 1. The origin of this software must not be misrepresented; you must not
     16           *    claim that you wrote the original software.
     17           * 2. Altered source versions must be plainly marked as such, and must not be
     18           *    misrepresented as being the original software.
     19           * 3. This notice may not be removed or altered from any source distribution.
     20           *
     21           * DISCLAIMER OF WARRANTY/LIMITATION OF REMEDIES: Energy Micro AS has no
     22           * obligation to support this Software. Energy Micro AS is providing the
     23           * Software "AS IS", with no express or implied warranties of any kind,
     24           * including, but not limited to, any implied warranties of merchantability
     25           * or fitness for any particular purpose or warranties against infringement
     26           * of any proprietary rights of a third party.
     27           *
     28           * Energy Micro AS will not be liable for any consequential, incidental, or
     29           * special damages, or any other relief, or for any claim by any third party,
     30           * arising from your use of this Software.
     31           *
     32           ******************************************************************************/
     33          #include "em_part.h"
     34          #include "em_cmu.h"

   \                                 In section .text, align 2, keep-with-next
   \   static __interwork __softfp void BITBAND_Peripheral(uint32_t volatile *, uint32_t, uint32_t)
   \                     BITBAND_Peripheral: (+1)
   \   00000000   0x008B             LSLS     R3,R1,#+2
   \   00000002   0xEB13 0x1340      ADDS     R3,R3,R0, LSL #+5
   \   00000006   0xF113 0x4384      ADDS     R3,R3,#+1107296256
   \   0000000A   0x601A             STR      R2,[R3, #+0]
   \   0000000C   0x4770             BX       LR               ;; return
     35          #include "em_assert.h"
     36          #include "em_bitband.h"
     37          #include "em_emu.h"
     38          
     39          /***************************************************************************//**
     40           * @addtogroup EM_Library
     41           * @{
     42           ******************************************************************************/
     43          
     44          /***************************************************************************//**
     45           * @addtogroup CMU
     46           * @brief Clock management unit (CMU) Peripheral API
     47           * @{
     48           ******************************************************************************/
     49          
     50          /*******************************************************************************
     51           ******************************   DEFINES   ************************************
     52           ******************************************************************************/
     53          
     54          /** @cond DO_NOT_INCLUDE_WITH_DOXYGEN */
     55          
     56          /** Maximum allowed core frequency when using 0 wait states on flash access. */
     57          #define CMU_MAX_FREQ_0WS    16000000
     58          /** Maximum allowed core frequency when using 1 wait states on flash access */
     59          #define CMU_MAX_FREQ_1WS    32000000
     60          /** Maximum frequency before HFLE needs to be enabled on Giant Gecko */
     61          #define CMU_MAX_FREQ_HFLE   32000000
     62          
     63          /** Low frequency A group identifier */
     64          #define CMU_LFA             0
     65          
     66          /** Low frequency B group identifier */
     67          #define CMU_LFB             1
     68          
     69          /** @endcond */
     70          
     71          /*******************************************************************************
     72           **************************   LOCAL FUNCTIONS   ********************************
     73           ******************************************************************************/
     74          
     75          /** @cond DO_NOT_INCLUDE_WITH_DOXYGEN */
     76          
     77          /***************************************************************************//**
     78           * @brief
     79           *   Configure flash access wait states to most conservative setting for
     80           *   this target. Retain SCBTP setting.
     81           ******************************************************************************/

   \                                 In section .text, align 2, keep-with-next
     82          static void CMU_FlashWaitStateMax(void)
     83          {
     84            uint32_t cfg;
     85          
     86            cfg = MSC->READCTRL;
   \                     CMU_FlashWaitStateMax: (+1)
   \   00000000   0x.... 0x....      LDR.W    R1,??DataTable18  ;; 0x400c0004
   \   00000004   0x6809             LDR      R1,[R1, #+0]
   \   00000006   0x0008             MOVS     R0,R1
     87          
     88            switch(cfg & _MSC_READCTRL_MODE_MASK)
   \   00000008   0xF010 0x0107      ANDS     R1,R0,#0x7
   \   0000000C   0x2900             CMP      R1,#+0
   \   0000000E   0xD008             BEQ.N    ??CMU_FlashWaitStateMax_0
   \   00000010   0x2902             CMP      R1,#+2
   \   00000012   0xD00A             BEQ.N    ??CMU_FlashWaitStateMax_1
   \   00000014   0xD305             BCC.N    ??CMU_FlashWaitStateMax_0
   \   00000016   0x2904             CMP      R1,#+4
   \   00000018   0xD003             BEQ.N    ??CMU_FlashWaitStateMax_0
   \   0000001A   0xD306             BCC.N    ??CMU_FlashWaitStateMax_1
   \   0000001C   0x2905             CMP      R1,#+5
   \   0000001E   0xD004             BEQ.N    ??CMU_FlashWaitStateMax_1
   \   00000020   0xE006             B.N      ??CMU_FlashWaitStateMax_2
     89            {
     90            case MSC_READCTRL_MODE_WS1:
     91            case MSC_READCTRL_MODE_WS0:
     92          #if defined(_EFM32_GIANT_FAMILY) || defined(_EFM32_WONDER_FAMILY)
     93            case MSC_READCTRL_MODE_WS2:
     94              cfg = (cfg & ~_MSC_READCTRL_MODE_MASK) | MSC_READCTRL_MODE_WS2;
   \                     ??CMU_FlashWaitStateMax_0: (+1)
   \   00000022   0x2104             MOVS     R1,#+4
   \   00000024   0xF361 0x0002      BFI      R0,R1,#+0,#+3
     95          #else
     96              cfg = (cfg & ~_MSC_READCTRL_MODE_MASK) | MSC_READCTRL_MODE_WS1;
     97          #endif
     98              break;
   \   00000028   0xE002             B.N      ??CMU_FlashWaitStateMax_2
     99            case MSC_READCTRL_MODE_WS1SCBTP:
    100            case MSC_READCTRL_MODE_WS0SCBTP:
    101          #if defined(_EFM32_GIANT_FAMILY) || defined(_EFM32_WONDER_FAMILY)
    102            case MSC_READCTRL_MODE_WS2SCBTP:
    103              cfg = (cfg & ~_MSC_READCTRL_MODE_MASK) | MSC_READCTRL_MODE_WS2SCBTP;
   \                     ??CMU_FlashWaitStateMax_1: (+1)
   \   0000002A   0x2105             MOVS     R1,#+5
   \   0000002C   0xF361 0x0002      BFI      R0,R1,#+0,#+3
    104          #else
    105              cfg = (cfg & ~_MSC_READCTRL_MODE_MASK) | MSC_READCTRL_MODE_WS1SCBTP;
    106          #endif
    107              break;
    108            }
    109            MSC->READCTRL = cfg;
   \                     ??CMU_FlashWaitStateMax_2: (+1)
   \   00000030   0x.... 0x....      LDR.W    R1,??DataTable18  ;; 0x400c0004
   \   00000034   0x6008             STR      R0,[R1, #+0]
    110          }
   \   00000036   0x4770             BX       LR               ;; return
    111          
    112          
    113          /***************************************************************************//**
    114           * @brief Convert dividend to prescaler logarithmic value. Only works for even
    115           *        numbers equal to 2^n
    116           * @param[in] div Unscaled dividend,
    117           * @return Base 2 logarithm of input, as used by fixed prescalers
    118           ******************************************************************************/

   \                                 In section .text, align 2, keep-with-next
    119          __STATIC_INLINE uint32_t CMU_DivToLog2(CMU_ClkDiv_TypeDef div)
    120          {
   \                     CMU_DivToLog2: (+1)
   \   00000000   0x0001             MOVS     R1,R0
    121            uint32_t log2;
    122          
    123            /* Prescalers take argument of 32768 or less */
    124            EFM_ASSERT((div>0) && (div <= 32768));
    125          
    126            /* Count leading zeroes and "reverse" result, Cortex-M3 intrinsic */
    127            log2 = (31 - __CLZ(div));
   \   00000002   0xFAB1 0xF281      CLZ      R2,R1
   \   00000006   0xF1D2 0x021F      RSBS     R2,R2,#+31
   \   0000000A   0x0010             MOVS     R0,R2
    128          
    129            return log2;
   \   0000000C   0x4770             BX       LR               ;; return
    130          }
    131          
    132          
    133          /***************************************************************************//**
    134           * @brief Convert logarithm of 2 prescaler to division factor
    135           * @param[in] log2
    136           * @return Dividend
    137           ******************************************************************************/

   \                                 In section .text, align 2, keep-with-next
    138          __STATIC_INLINE uint32_t CMU_Log2ToDiv(uint32_t log2)
    139          {
    140            return 1<<log2;
   \                     CMU_Log2ToDiv: (+1)
   \   00000000   0x2101             MOVS     R1,#+1
   \   00000002   0xFA11 0xF000      LSLS     R0,R1,R0
   \   00000006   0x4770             BX       LR               ;; return
    141          }
    142          
    143          
    144          /***************************************************************************//**
    145           * @brief
    146           *   Configure flash access wait states in order to support given HFCORECLK
    147           *   frequency.
    148           *
    149           * @param[in] hfcoreclk
    150           *   HFCORECLK frequency that flash access wait states must be configured for.
    151           ******************************************************************************/

   \                                 In section .text, align 2, keep-with-next
    152          static void CMU_FlashWaitStateControl(uint32_t hfcoreclk)
    153          {
    154            uint32_t cfg;
    155          
    156            cfg = MSC->READCTRL;
   \                     CMU_FlashWaitStateControl: (+1)
   \   00000000   0x.... 0x....      LDR.W    R2,??DataTable18  ;; 0x400c0004
   \   00000004   0x6812             LDR      R2,[R2, #+0]
   \   00000006   0x0011             MOVS     R1,R2
    157          
    158          #if defined(_EFM32_GIANT_FAMILY) || defined(_EFM32_WONDER_FAMILY)
    159            if (hfcoreclk > CMU_MAX_FREQ_1WS)
   \   00000008   0x.... 0x....      LDR.W    R2,??DataTable17  ;; 0x1e84801
   \   0000000C   0x4290             CMP      R0,R2
   \   0000000E   0xD30B             BCC.N    ??CMU_FlashWaitStateControl_0
    160            {
    161              switch(cfg & _MSC_READCTRL_MODE_MASK)
   \   00000010   0xF011 0x0207      ANDS     R2,R1,#0x7
   \   00000014   0x1E92             SUBS     R2,R2,#+2
   \   00000016   0x2A01             CMP      R2,#+1
   \   00000018   0xD803             BHI.N    ??CMU_FlashWaitStateControl_1
    162              {
    163              case MSC_READCTRL_MODE_WS0SCBTP:
    164              case MSC_READCTRL_MODE_WS1SCBTP:
    165                cfg = (cfg & ~_MSC_READCTRL_MODE_MASK) | MSC_READCTRL_MODE_WS2SCBTP;
   \                     ??CMU_FlashWaitStateControl_2: (+1)
   \   0000001A   0x2205             MOVS     R2,#+5
   \   0000001C   0xF362 0x0102      BFI      R1,R2,#+0,#+3
    166                break;
   \   00000020   0xE002             B.N      ??CMU_FlashWaitStateControl_0
    167              case MSC_READCTRL_MODE_WS0:
    168              case MSC_READCTRL_MODE_WS1:
    169              default:
    170                cfg = (cfg & ~_MSC_READCTRL_MODE_MASK) | MSC_READCTRL_MODE_WS2;
   \                     ??CMU_FlashWaitStateControl_1: (+1)
   \   00000022   0x2204             MOVS     R2,#+4
   \   00000024   0xF362 0x0102      BFI      R1,R2,#+0,#+3
    171                break;
    172              }
    173            }
    174          #endif
    175          
    176            if ((hfcoreclk > CMU_MAX_FREQ_0WS) && (hfcoreclk <= CMU_MAX_FREQ_1WS))
   \                     ??CMU_FlashWaitStateControl_0: (+1)
   \   00000028   0x.... 0x....      LDR.W    R2,??DataTable18_1  ;; 0xf42401
   \   0000002C   0x4290             CMP      R0,R2
   \   0000002E   0xD311             BCC.N    ??CMU_FlashWaitStateControl_3
   \   00000030   0x.... 0x....      LDR.W    R2,??DataTable17  ;; 0x1e84801
   \   00000034   0x4290             CMP      R0,R2
   \   00000036   0xD20D             BCS.N    ??CMU_FlashWaitStateControl_3
    177            {
    178              switch (cfg & _MSC_READCTRL_MODE_MASK)
   \   00000038   0xF011 0x0207      ANDS     R2,R1,#0x7
   \   0000003C   0x1E92             SUBS     R2,R2,#+2
   \   0000003E   0x2A01             CMP      R2,#+1
   \   00000040   0xD901             BLS.N    ??CMU_FlashWaitStateControl_4
   \   00000042   0x1ED2             SUBS     R2,R2,#+3
   \   00000044   0xD103             BNE.N    ??CMU_FlashWaitStateControl_5
    179              {
    180          #if defined(_EFM32_GIANT_FAMILY) || defined(_EFM32_WONDER_FAMILY)
    181              case MSC_READCTRL_MODE_WS2SCBTP:
    182          #endif
    183              case MSC_READCTRL_MODE_WS0SCBTP:
    184              case MSC_READCTRL_MODE_WS1SCBTP:
    185                cfg = (cfg & ~_MSC_READCTRL_MODE_MASK) | MSC_READCTRL_MODE_WS1SCBTP;
   \                     ??CMU_FlashWaitStateControl_4: (+1)
   \   00000046   0x2203             MOVS     R2,#+3
   \   00000048   0xF362 0x0102      BFI      R1,R2,#+0,#+3
    186                break;
   \   0000004C   0xE002             B.N      ??CMU_FlashWaitStateControl_3
    187          
    188              default:
    189                cfg = (cfg & ~_MSC_READCTRL_MODE_MASK) | MSC_READCTRL_MODE_WS1;
   \                     ??CMU_FlashWaitStateControl_5: (+1)
   \   0000004E   0x2201             MOVS     R2,#+1
   \   00000050   0xF362 0x0102      BFI      R1,R2,#+0,#+3
    190                break;
    191              }
    192            }
    193          
    194            if (hfcoreclk <= CMU_MAX_FREQ_0WS)
   \                     ??CMU_FlashWaitStateControl_3: (+1)
   \   00000054   0x.... 0x....      LDR.W    R2,??DataTable18_1  ;; 0xf42401
   \   00000058   0x4290             CMP      R0,R2
   \   0000005A   0xD20C             BCS.N    ??CMU_FlashWaitStateControl_6
    195            {
    196              switch (cfg & _MSC_READCTRL_MODE_MASK)
   \   0000005C   0xF011 0x0207      ANDS     R2,R1,#0x7
   \   00000060   0x1E92             SUBS     R2,R2,#+2
   \   00000062   0x2A01             CMP      R2,#+1
   \   00000064   0xD901             BLS.N    ??CMU_FlashWaitStateControl_7
   \   00000066   0x1ED2             SUBS     R2,R2,#+3
   \   00000068   0xD103             BNE.N    ??CMU_FlashWaitStateControl_8
    197              {
    198          #if defined(_EFM32_GIANT_FAMILY) || defined(_EFM32_WONDER_FAMILY)
    199              case MSC_READCTRL_MODE_WS2SCBTP:
    200          #endif
    201              case MSC_READCTRL_MODE_WS1SCBTP:
    202              case MSC_READCTRL_MODE_WS0SCBTP:
    203                cfg = (cfg & ~_MSC_READCTRL_MODE_MASK) | MSC_READCTRL_MODE_WS0SCBTP;
   \                     ??CMU_FlashWaitStateControl_7: (+1)
   \   0000006A   0x2202             MOVS     R2,#+2
   \   0000006C   0xF362 0x0102      BFI      R1,R2,#+0,#+3
    204                break;
   \   00000070   0xE001             B.N      ??CMU_FlashWaitStateControl_6
    205          
    206              default:
    207                cfg = (cfg & ~_MSC_READCTRL_MODE_MASK) | MSC_READCTRL_MODE_WS0;
   \                     ??CMU_FlashWaitStateControl_8: (+1)
   \   00000072   0x08C9             LSRS     R1,R1,#+3
   \   00000074   0x00C9             LSLS     R1,R1,#+3
    208                break;
    209              }
    210            }
    211          
    212            MSC->READCTRL = cfg;
   \                     ??CMU_FlashWaitStateControl_6: (+1)
   \   00000076   0x.... 0x....      LDR.W    R2,??DataTable18  ;; 0x400c0004
   \   0000007A   0x6011             STR      R1,[R2, #+0]
    213          }
   \   0000007C   0x4770             BX       LR               ;; return
    214          
    215          
    216          #if defined(USB_PRESENT)
    217          /***************************************************************************//**
    218           * @brief
    219           *   Get the USBC frequency
    220           *
    221           * @return
    222           *   USBC frequency in Hz
    223           ******************************************************************************/

   \                                 In section .text, align 2, keep-with-next
    224          static uint32_t CMU_USBCClkGet(void)
    225          {
   \                     CMU_USBCClkGet: (+1)
   \   00000000   0xB538             PUSH     {R3-R5,LR}
    226            uint32_t ret;
    227            CMU_Select_TypeDef clk;
    228          
    229            /* Get selected clock source */
    230            clk = CMU_ClockSelectGet(cmuClock_USBC);
   \   00000002   0x.... 0x....      LDR.W    R0,??DataTable21  ;; 0x1c2305
   \   00000006   0x.... 0x....      BL       CMU_ClockSelectGet
   \   0000000A   0x0005             MOVS     R5,R0
    231          
    232            switch(clk)
   \   0000000C   0xB2ED             UXTB     R5,R5            ;; ZeroExt  R5,R5,#+24,#+24
   \   0000000E   0x0028             MOVS     R0,R5
   \   00000010   0x2802             CMP      R0,#+2
   \   00000012   0xD004             BEQ.N    ??CMU_USBCClkGet_0
   \   00000014   0x2803             CMP      R0,#+3
   \   00000016   0xD006             BEQ.N    ??CMU_USBCClkGet_1
   \   00000018   0x2808             CMP      R0,#+8
   \   0000001A   0xD008             BEQ.N    ??CMU_USBCClkGet_2
   \   0000001C   0xE00B             B.N      ??CMU_USBCClkGet_3
    233            {
    234            case cmuSelect_LFXO:
    235              ret = SystemLFXOClockGet();
   \                     ??CMU_USBCClkGet_0: (+1)
   \   0000001E   0x.... 0x....      BL       SystemLFXOClockGet
   \   00000022   0x0004             MOVS     R4,R0
    236              break;
   \   00000024   0xE009             B.N      ??CMU_USBCClkGet_4
    237            case cmuSelect_LFRCO:
    238              ret = SystemLFRCOClockGet();
   \                     ??CMU_USBCClkGet_1: (+1)
   \   00000026   0x.... 0x....      BL       SystemLFRCOClockGet
   \   0000002A   0x0004             MOVS     R4,R0
    239              break;
   \   0000002C   0xE005             B.N      ??CMU_USBCClkGet_4
    240            case cmuSelect_HFCLK:
    241              ret = SystemHFClockGet();
   \                     ??CMU_USBCClkGet_2: (+1)
   \   0000002E   0x.... 0x....      BL       SystemHFClockGet
   \   00000032   0x0004             MOVS     R4,R0
    242              break;
   \   00000034   0xE001             B.N      ??CMU_USBCClkGet_4
    243            default:
    244              /* Clock is not enabled */
    245              ret = 0;
   \                     ??CMU_USBCClkGet_3: (+1)
   \   00000036   0x2000             MOVS     R0,#+0
   \   00000038   0x0004             MOVS     R4,R0
    246              break;
    247            }
    248            return ret;
   \                     ??CMU_USBCClkGet_4: (+1)
   \   0000003A   0x0020             MOVS     R0,R4
   \   0000003C   0xBD32             POP      {R1,R4,R5,PC}    ;; return
    249          }
    250          #endif
    251          
    252          
    253          /***************************************************************************//**
    254           * @brief
    255           *   Get the AUX clock frequency. Used by MSC flash programming and LESENSE,
    256           *   by default also as debug clock.
    257           *
    258           * @return
    259           *   AUX Frequency in Hz
    260           ******************************************************************************/

   \                                 In section .text, align 2, keep-with-next
    261          static uint32_t CMU_AUXClkGet(void)
    262          {
    263            uint32_t ret;
    264          
    265          #if defined (_EFM32_GECKO_FAMILY)
    266            /* Gecko has a fixed 14Mhz AUXHFRCO clock */
    267            ret = 14000000;
    268          #else
    269            switch(CMU->AUXHFRCOCTRL & _CMU_AUXHFRCOCTRL_BAND_MASK)
   \                     CMU_AUXClkGet: (+1)
   \   00000000   0x.... 0x....      LDR.W    R1,??DataTable19  ;; 0x400c8014
   \   00000004   0x6809             LDR      R1,[R1, #+0]
   \   00000006   0xF411 0x61E0      ANDS     R1,R1,#0x700
   \   0000000A   0x2900             CMP      R1,#+0
   \   0000000C   0xD01B             BEQ.N    ??CMU_AUXClkGet_0
   \   0000000E   0xF5B1 0x7F80      CMP      R1,#+256
   \   00000012   0xD014             BEQ.N    ??CMU_AUXClkGet_1
   \   00000014   0xF5B1 0x7F00      CMP      R1,#+512
   \   00000018   0xD00D             BEQ.N    ??CMU_AUXClkGet_2
   \   0000001A   0xF5B1 0x7F40      CMP      R1,#+768
   \   0000001E   0xD006             BEQ.N    ??CMU_AUXClkGet_3
   \   00000020   0xF5B1 0x6FC0      CMP      R1,#+1536
   \   00000024   0xD017             BEQ.N    ??CMU_AUXClkGet_4
   \   00000026   0xF5B1 0x6FE0      CMP      R1,#+1792
   \   0000002A   0xD010             BEQ.N    ??CMU_AUXClkGet_5
   \   0000002C   0xE017             B.N      ??CMU_AUXClkGet_6
    270            {
    271            case CMU_AUXHFRCOCTRL_BAND_1MHZ:
    272              ret = 1000000;
   \                     ??CMU_AUXClkGet_3: (+1)
   \   0000002E   0x.... 0x....      LDR.W    R1,??DataTable21_1  ;; 0xf4240
   \   00000032   0x0008             MOVS     R0,R1
    273              break;
   \   00000034   0xE015             B.N      ??CMU_AUXClkGet_7
    274            case CMU_AUXHFRCOCTRL_BAND_7MHZ:
    275              ret = 7000000;
   \                     ??CMU_AUXClkGet_2: (+1)
   \   00000036   0x.... 0x....      LDR.W    R1,??DataTable21_2  ;; 0x6acfc0
   \   0000003A   0x0008             MOVS     R0,R1
    276              break;
   \   0000003C   0xE011             B.N      ??CMU_AUXClkGet_7
    277            case CMU_AUXHFRCOCTRL_BAND_11MHZ:
    278              ret = 11000000;
   \                     ??CMU_AUXClkGet_1: (+1)
   \   0000003E   0x.... 0x....      LDR.W    R1,??DataTable21_3  ;; 0xa7d8c0
   \   00000042   0x0008             MOVS     R0,R1
    279              break;
   \   00000044   0xE00D             B.N      ??CMU_AUXClkGet_7
    280            case CMU_AUXHFRCOCTRL_BAND_14MHZ:
    281              ret = 14000000;
   \                     ??CMU_AUXClkGet_0: (+1)
   \   00000046   0x.... 0x....      LDR.W    R1,??DataTable21_4  ;; 0xd59f80
   \   0000004A   0x0008             MOVS     R0,R1
    282              break;
   \   0000004C   0xE009             B.N      ??CMU_AUXClkGet_7
    283            case CMU_AUXHFRCOCTRL_BAND_21MHZ:
    284              ret = 21000000;
   \                     ??CMU_AUXClkGet_5: (+1)
   \   0000004E   0x.... 0x....      LDR.W    R1,??DataTable21_5  ;; 0x1406f40
   \   00000052   0x0008             MOVS     R0,R1
    285              break;
   \   00000054   0xE005             B.N      ??CMU_AUXClkGet_7
    286            case CMU_AUXHFRCOCTRL_BAND_28MHZ:
    287              ret = 28000000;
   \                     ??CMU_AUXClkGet_4: (+1)
   \   00000056   0x.... 0x....      LDR.W    R1,??DataTable23  ;; 0x1ab3f00
   \   0000005A   0x0008             MOVS     R0,R1
    288              break;
   \   0000005C   0xE001             B.N      ??CMU_AUXClkGet_7
    289            default:
    290              ret = 0;
   \                     ??CMU_AUXClkGet_6: (+1)
   \   0000005E   0x2100             MOVS     R1,#+0
   \   00000060   0x0008             MOVS     R0,R1
    291              break;
    292            }
    293          #endif
    294            return ret;
   \                     ??CMU_AUXClkGet_7: (+1)
   \   00000062   0x4770             BX       LR               ;; return
    295          }
    296          
    297          
    298          /***************************************************************************//**
    299           * @brief
    300           *   Get the Debug Trace clock frequency
    301           *
    302           * @return
    303           *   Debug Trace frequency in Hz
    304           ******************************************************************************/

   \                                 In section .text, align 2, keep-with-next
    305          static uint32_t CMU_DBGClkGet(void)
    306          {
   \                     CMU_DBGClkGet: (+1)
   \   00000000   0xB538             PUSH     {R3-R5,LR}
    307            uint32_t ret;
    308            CMU_Select_TypeDef clk;
    309          
    310            /* Get selected clock source */
    311            clk = CMU_ClockSelectGet(cmuClock_DBG);
   \   00000002   0x.... 0x....      LDR.W    R0,??DataTable21_6  ;; 0x180004
   \   00000006   0x.... 0x....      BL       CMU_ClockSelectGet
   \   0000000A   0x0005             MOVS     R5,R0
    312          
    313            switch(clk)
   \   0000000C   0xB2ED             UXTB     R5,R5            ;; ZeroExt  R5,R5,#+24,#+24
   \   0000000E   0x0028             MOVS     R0,R5
   \   00000010   0x2807             CMP      R0,#+7
   \   00000012   0xD00D             BEQ.N    ??CMU_DBGClkGet_0
   \   00000014   0x2808             CMP      R0,#+8
   \   00000016   0xD10F             BNE.N    ??CMU_DBGClkGet_1
    314            {
    315            case cmuSelect_HFCLK:
    316              ret = SystemHFClockGet();
   \                     ??CMU_DBGClkGet_2: (+1)
   \   00000018   0x.... 0x....      BL       SystemHFClockGet
   \   0000001C   0x0004             MOVS     R4,R0
    317          #if defined(_EFM32_GIANT_FAMILY) || defined(_EFM32_WONDER_FAMILY)
    318              /* Giant Gecko has an additional divider, not used by USBC */
    319              ret = ret / (1 + ((CMU->CTRL & _CMU_CTRL_HFCLKDIV_MASK) >>
    320                                _CMU_CTRL_HFCLKDIV_SHIFT));
   \   0000001E   0x.... 0x....      LDR.W    R0,??DataTable23_1  ;; 0x400c8000
   \   00000022   0x6800             LDR      R0,[R0, #+0]
   \   00000024   0xF3C0 0x3082      UBFX     R0,R0,#+14,#+3
   \   00000028   0x1C40             ADDS     R0,R0,#+1
   \   0000002A   0xFBB4 0xF4F0      UDIV     R4,R4,R0
    321          #endif
    322              break;
   \   0000002E   0xE005             B.N      ??CMU_DBGClkGet_3
    323          
    324            case cmuSelect_AUXHFRCO:
    325              ret = CMU_AUXClkGet();
   \                     ??CMU_DBGClkGet_0: (+1)
   \   00000030   0x.... 0x....      BL       CMU_AUXClkGet
   \   00000034   0x0004             MOVS     R4,R0
    326              break;
   \   00000036   0xE001             B.N      ??CMU_DBGClkGet_3
    327          
    328            default:
    329              EFM_ASSERT(0);
    330              ret = 0;
   \                     ??CMU_DBGClkGet_1: (+1)
   \   00000038   0x2000             MOVS     R0,#+0
   \   0000003A   0x0004             MOVS     R4,R0
    331              break;
    332            }
    333            return ret;
   \                     ??CMU_DBGClkGet_3: (+1)
   \   0000003C   0x0020             MOVS     R0,R4
   \   0000003E   0xBD32             POP      {R1,R4,R5,PC}    ;; return
    334          }
    335          
    336          
    337          /***************************************************************************//**
    338           * @brief
    339           *   Get the LFnCLK frequency based on current configuration.
    340           *
    341           * @param[in] lfClkBranch
    342           *   LF branch, 0 = LFA, 1 = LFB, ...
    343           *
    344           * @return
    345           *   The LFnCLK frequency in Hz. If no LFnCLK is selected (disabled), 0 is
    346           *   returned.
    347           ******************************************************************************/

   \                                 In section .text, align 2, keep-with-next
    348          static uint32_t CMU_LFClkGet(unsigned int lfClkBranch)
    349          {
   \                     CMU_LFClkGet: (+1)
   \   00000000   0xB538             PUSH     {R3-R5,LR}
   \   00000002   0x0004             MOVS     R4,R0
    350            uint32_t ret;
    351          
    352            EFM_ASSERT(lfClkBranch == CMU_LFA || lfClkBranch == CMU_LFB);
    353          
    354            switch ((CMU->LFCLKSEL >> (lfClkBranch * 2)) & 0x3)
   \   00000004   0x.... 0x....      LDR.W    R0,??DataTable24  ;; 0x400c8028
   \   00000008   0x6800             LDR      R0,[R0, #+0]
   \   0000000A   0x0021             MOVS     R1,R4
   \   0000000C   0xB2C9             UXTB     R1,R1            ;; ZeroExt  R1,R1,#+24,#+24
   \   0000000E   0x0049             LSLS     R1,R1,#+1
   \   00000010   0x40C8             LSRS     R0,R0,R1
   \   00000012   0xF010 0x0003      ANDS     R0,R0,#0x3
   \   00000016   0x2800             CMP      R0,#+0
   \   00000018   0xD021             BEQ.N    ??CMU_LFClkGet_0
   \   0000001A   0x2802             CMP      R0,#+2
   \   0000001C   0xD007             BEQ.N    ??CMU_LFClkGet_1
   \   0000001E   0xD302             BCC.N    ??CMU_LFClkGet_2
   \   00000020   0x2803             CMP      R0,#+3
   \   00000022   0xD008             BEQ.N    ??CMU_LFClkGet_3
   \   00000024   0xE02A             B.N      ??CMU_LFClkGet_4
    355            {
    356            case _CMU_LFCLKSEL_LFA_LFRCO:
    357              ret = SystemLFRCOClockGet();
   \                     ??CMU_LFClkGet_2: (+1)
   \   00000026   0x.... 0x....      BL       SystemLFRCOClockGet
   \   0000002A   0x0005             MOVS     R5,R0
    358              break;
   \   0000002C   0xE028             B.N      ??CMU_LFClkGet_5
    359          
    360            case _CMU_LFCLKSEL_LFA_LFXO:
    361              ret = SystemLFXOClockGet();
   \                     ??CMU_LFClkGet_1: (+1)
   \   0000002E   0x.... 0x....      BL       SystemLFXOClockGet
   \   00000032   0x0005             MOVS     R5,R0
    362              break;
   \   00000034   0xE024             B.N      ??CMU_LFClkGet_5
    363          
    364            case _CMU_LFCLKSEL_LFA_HFCORECLKLEDIV2:
    365          #if defined (_EFM32_GIANT_FAMILY) || defined(_EFM32_WONDER_FAMILY)
    366              /* Giant Gecko can use a /4 divider (and must if >32MHz) or HFLE is set */
    367              if(((CMU->HFCORECLKDIV & _CMU_HFCORECLKDIV_HFCORECLKLEDIV_MASK) == CMU_HFCORECLKDIV_HFCORECLKLEDIV_DIV4)||
    368                 (CMU->CTRL & CMU_CTRL_HFLE))
   \                     ??CMU_LFClkGet_3: (+1)
   \   00000036   0x.... 0x....      LDR.W    R0,??DataTable22  ;; 0x400c8004
   \   0000003A   0x6800             LDR      R0,[R0, #+0]
   \   0000003C   0x05C0             LSLS     R0,R0,#+23
   \   0000003E   0xD404             BMI.N    ??CMU_LFClkGet_6
   \   00000040   0x.... 0x....      LDR.W    R0,??DataTable23_1  ;; 0x400c8000
   \   00000044   0x6800             LDR      R0,[R0, #+0]
   \   00000046   0x0040             LSLS     R0,R0,#+1
   \   00000048   0xD504             BPL.N    ??CMU_LFClkGet_7
    369              {
    370                ret = SystemCoreClockGet() / 4;
   \                     ??CMU_LFClkGet_6: (+1)
   \   0000004A   0x.... 0x....      BL       SystemCoreClockGet
   \   0000004E   0x0880             LSRS     R0,R0,#+2
   \   00000050   0x0005             MOVS     R5,R0
   \   00000052   0xE003             B.N      ??CMU_LFClkGet_8
    371              }
    372              else
    373              {
    374                ret = SystemCoreClockGet() / 2;
   \                     ??CMU_LFClkGet_7: (+1)
   \   00000054   0x.... 0x....      BL       SystemCoreClockGet
   \   00000058   0x0840             LSRS     R0,R0,#+1
   \   0000005A   0x0005             MOVS     R5,R0
    375              }
    376          #else
    377              ret = SystemCoreClockGet() / 2;
    378          #endif
    379              break;
   \                     ??CMU_LFClkGet_8: (+1)
   \   0000005C   0xE010             B.N      ??CMU_LFClkGet_5
    380          
    381            case _CMU_LFCLKSEL_LFA_DISABLED:
    382          #if defined (_EFM32_GIANT_FAMILY) || defined (_EFM32_TINY_FAMILY) || defined(_EFM32_WONDER_FAMILY)
    383              /* Check LF Extended bit setting for ULFRCO clock */
    384              if(CMU->LFCLKSEL >> (_CMU_LFCLKSEL_LFAE_SHIFT + lfClkBranch * 4))
   \                     ??CMU_LFClkGet_0: (+1)
   \   0000005E   0x.... 0x....      LDR.W    R0,??DataTable24  ;; 0x400c8028
   \   00000062   0x6800             LDR      R0,[R0, #+0]
   \   00000064   0x00A1             LSLS     R1,R4,#+2
   \   00000066   0x3110             ADDS     R1,R1,#+16
   \   00000068   0x40C8             LSRS     R0,R0,R1
   \   0000006A   0x2800             CMP      R0,#+0
   \   0000006C   0xD003             BEQ.N    ??CMU_LFClkGet_9
    385              {
    386                ret = SystemULFRCOClockGet();
   \   0000006E   0x.... 0x....      BL       SystemULFRCOClockGet
   \   00000072   0x0005             MOVS     R5,R0
   \   00000074   0xE001             B.N      ??CMU_LFClkGet_10
    387              }
    388              else
    389              {
    390                ret = 0;
   \                     ??CMU_LFClkGet_9: (+1)
   \   00000076   0x2000             MOVS     R0,#+0
   \   00000078   0x0005             MOVS     R5,R0
    391              }
    392          #else
    393              ret = 0;
    394          #endif
    395              break;
   \                     ??CMU_LFClkGet_10: (+1)
   \   0000007A   0xE001             B.N      ??CMU_LFClkGet_5
    396          
    397            default:
    398              ret = 0;
   \                     ??CMU_LFClkGet_4: (+1)
   \   0000007C   0x2000             MOVS     R0,#+0
   \   0000007E   0x0005             MOVS     R5,R0
    399              break;
    400            }
    401          
    402            return ret;
   \                     ??CMU_LFClkGet_5: (+1)
   \   00000080   0x0028             MOVS     R0,R5
   \   00000082   0xBD32             POP      {R1,R4,R5,PC}    ;; return
    403          }
    404          
    405          
    406          /***************************************************************************//**
    407           * @brief
    408           *   Wait for ongoing sync of register(s) to low frequency domain to complete.
    409           *
    410           * @param[in] mask
    411           *   Bitmask corresponding to SYNCBUSY register defined bits, indicating
    412           *   registers that must complete any ongoing synchronization.
    413           ******************************************************************************/

   \                                 In section .text, align 2, keep-with-next
    414          __STATIC_INLINE void CMU_Sync(uint32_t mask)
    415          {
    416            /* Avoid deadlock if modifying the same register twice when freeze mode is */
    417            /* activated. */
    418            if (CMU->FREEZE & CMU_FREEZE_REGFREEZE)
   \                     CMU_Sync: (+1)
   \   00000000   0x.... 0x....      LDR.W    R1,??DataTable23_2  ;; 0x400c8054
   \   00000004   0x6809             LDR      R1,[R1, #+0]
   \   00000006   0x07C9             LSLS     R1,R1,#+31
   \   00000008   0xD404             BMI.N    ??CMU_Sync_0
    419              return;
    420          
    421            /* Wait for any pending previous write operation to have been completed */
    422            /* in low frequency domain */
    423            while (CMU->SYNCBUSY & mask)
   \                     ??CMU_Sync_1: (+1)
   \   0000000A   0x.... 0x....      LDR.W    R1,??DataTable25  ;; 0x400c8050
   \   0000000E   0x6809             LDR      R1,[R1, #+0]
   \   00000010   0x4201             TST      R1,R0
   \   00000012   0xD1FA             BNE.N    ??CMU_Sync_1
    424              ;
    425          }
   \                     ??CMU_Sync_0: (+1)
   \   00000014   0x4770             BX       LR               ;; return
    426          
    427          
    428          /** @endcond */
    429          
    430          /*******************************************************************************
    431           **************************   GLOBAL FUNCTIONS   *******************************
    432           ******************************************************************************/
    433          
    434          /***************************************************************************//**
    435           * @brief
    436           *   Calibrate clock.
    437           *
    438           * @details
    439           *   Run a calibration for HFCLK against a selectable reference clock. Please
    440           *   refer to the EFM32 reference manual, CMU chapter, for further details.
    441           *
    442           * @note
    443           *   This function will not return until calibration measurement is completed.
    444           *
    445           * @param[in] HFCycles
    446           *   The number of HFCLK cycles to run calibration. Increasing this number
    447           *   increases precision, but the calibration will take more time.
    448           *
    449           * @param[in] ref
    450           *   The reference clock used to compare HFCLK with.
    451           *
    452           * @return
    453           *   The number of ticks the reference clock after HFCycles ticks on the HF
    454           *   clock.
    455           ******************************************************************************/

   \                                 In section .text, align 2, keep-with-next
    456          uint32_t CMU_Calibrate(uint32_t HFCycles, CMU_Osc_TypeDef ref)
    457          {
   \                     CMU_Calibrate: (+1)
   \   00000000   0x0002             MOVS     R2,R0
    458            EFM_ASSERT(HFCycles <= (_CMU_CALCNT_CALCNT_MASK >> _CMU_CALCNT_CALCNT_SHIFT));
    459          
    460            /* Set reference clock source */
    461            switch (ref)
   \   00000002   0xB2C9             UXTB     R1,R1            ;; ZeroExt  R1,R1,#+24,#+24
   \   00000004   0x2900             CMP      R1,#+0
   \   00000006   0xD006             BEQ.N    ??CMU_Calibrate_0
   \   00000008   0x2902             CMP      R1,#+2
   \   0000000A   0xD00E             BEQ.N    ??CMU_Calibrate_1
   \   0000000C   0xD308             BCC.N    ??CMU_Calibrate_2
   \   0000000E   0x2904             CMP      R1,#+4
   \   00000010   0xD015             BEQ.N    ??CMU_Calibrate_3
   \   00000012   0xD30F             BCC.N    ??CMU_Calibrate_4
   \   00000014   0xE018             B.N      ??CMU_Calibrate_5
    462            {
    463            case cmuOsc_LFXO:
    464              CMU->CALCTRL = CMU_CALCTRL_UPSEL_LFXO;
   \                     ??CMU_Calibrate_0: (+1)
   \   00000016   0x2001             MOVS     R0,#+1
   \   00000018   0x.... 0x....      LDR.W    R3,??DataTable23_3  ;; 0x400c8018
   \   0000001C   0x6018             STR      R0,[R3, #+0]
    465              break;
   \   0000001E   0xE015             B.N      ??CMU_Calibrate_6
    466          
    467            case cmuOsc_LFRCO:
    468              CMU->CALCTRL = CMU_CALCTRL_UPSEL_LFRCO;
   \                     ??CMU_Calibrate_2: (+1)
   \   00000020   0x2003             MOVS     R0,#+3
   \   00000022   0x.... 0x....      LDR.W    R3,??DataTable23_3  ;; 0x400c8018
   \   00000026   0x6018             STR      R0,[R3, #+0]
    469              break;
   \   00000028   0xE010             B.N      ??CMU_Calibrate_6
    470          
    471            case cmuOsc_HFXO:
    472              CMU->CALCTRL = CMU_CALCTRL_UPSEL_HFXO;
   \                     ??CMU_Calibrate_1: (+1)
   \   0000002A   0x2000             MOVS     R0,#+0
   \   0000002C   0x.... 0x....      LDR.W    R3,??DataTable23_3  ;; 0x400c8018
   \   00000030   0x6018             STR      R0,[R3, #+0]
    473              break;
   \   00000032   0xE00B             B.N      ??CMU_Calibrate_6
    474          
    475            case cmuOsc_HFRCO:
    476              CMU->CALCTRL = CMU_CALCTRL_UPSEL_HFRCO;
   \                     ??CMU_Calibrate_4: (+1)
   \   00000034   0x2002             MOVS     R0,#+2
   \   00000036   0x.... 0x....      LDR.W    R3,??DataTable23_3  ;; 0x400c8018
   \   0000003A   0x6018             STR      R0,[R3, #+0]
    477              break;
   \   0000003C   0xE006             B.N      ??CMU_Calibrate_6
    478          
    479            case cmuOsc_AUXHFRCO:
    480              CMU->CALCTRL = CMU_CALCTRL_UPSEL_AUXHFRCO;
   \                     ??CMU_Calibrate_3: (+1)
   \   0000003E   0x2004             MOVS     R0,#+4
   \   00000040   0x.... 0x....      LDR.W    R3,??DataTable23_3  ;; 0x400c8018
   \   00000044   0x6018             STR      R0,[R3, #+0]
    481              break;
   \   00000046   0xE001             B.N      ??CMU_Calibrate_6
    482          
    483            default:
    484              EFM_ASSERT(0);
    485              return 0;
   \                     ??CMU_Calibrate_5: (+1)
   \   00000048   0x2000             MOVS     R0,#+0
   \   0000004A   0xE00E             B.N      ??CMU_Calibrate_7
    486            }
    487          
    488            /* Set top value */
    489            CMU->CALCNT = HFCycles;
   \                     ??CMU_Calibrate_6: (+1)
   \   0000004C   0x.... 0x....      LDR.W    R0,??DataTable26  ;; 0x400c801c
   \   00000050   0x6002             STR      R2,[R0, #+0]
    490          
    491            /* Start calibration */
    492            CMU->CMD = CMU_CMD_CALSTART;
   \   00000052   0x2008             MOVS     R0,#+8
   \   00000054   0x.... 0x....      LDR.W    R3,??DataTable24_1  ;; 0x400c8024
   \   00000058   0x6018             STR      R0,[R3, #+0]
    493          
    494            /* Wait until calibration completes */
    495            while (CMU->STATUS & CMU_STATUS_CALBSY)
   \                     ??CMU_Calibrate_8: (+1)
   \   0000005A   0x.... 0x....      LDR.W    R0,??DataTable24_2  ;; 0x400c802c
   \   0000005E   0x6800             LDR      R0,[R0, #+0]
   \   00000060   0x0440             LSLS     R0,R0,#+17
   \   00000062   0xD4FA             BMI.N    ??CMU_Calibrate_8
    496              ;
    497          
    498            return CMU->CALCNT;
   \   00000064   0x.... 0x....      LDR.W    R0,??DataTable26  ;; 0x400c801c
   \   00000068   0x6800             LDR      R0,[R0, #+0]
   \                     ??CMU_Calibrate_7: (+1)
   \   0000006A   0x4770             BX       LR               ;; return
    499          }
    500          
    501          
    502          #if defined (_EFM32_TINY_FAMILY) || defined(_EFM32_GIANT_FAMILY) || defined(_EFM32_WONDER_FAMILY)
    503          /***************************************************************************//**
    504           * @brief
    505           *   Configure clock calibration
    506           *
    507           * @details
    508           *   Configure a calibration for a selectable clock source against another
    509           *   selectable reference clock.
    510           *   Refer to the EFM32 reference manual, CMU chapter, for further details.
    511           *
    512           * @note
    513           *   After configuration, a call to CMU_CalibrateStart() is required, and
    514           *   the resulting calibration value can be read out with the
    515           *   CMU_CalibrateCountGet() function call.
    516           *
    517           * @param[in] downCycles
    518           *   The number of downSel clock cycles to run calibration. Increasing this
    519           *   number increases precision, but the calibration will take more time.
    520           *
    521           * @param[in] downSel
    522           *   The clock which will be counted down downCycles
    523           *
    524           * @param[in] upSel
    525           *   The reference clock, the number of cycles generated by this clock will
    526           *   be counted and added up, the result can be given with the
    527           *   CMU_CalibrateCountGet() function call.
    528           ******************************************************************************/

   \                                 In section .text, align 2, keep-with-next
    529          void CMU_CalibrateConfig(uint32_t downCycles, CMU_Osc_TypeDef downSel,
    530                                   CMU_Osc_TypeDef upSel)
    531          {
   \                     CMU_CalibrateConfig: (+1)
   \   00000000   0xB410             PUSH     {R4}
    532            /* Keep untouched configuration settings */
    533            uint32_t calCtrl = CMU->CALCTRL & ~(_CMU_CALCTRL_UPSEL_MASK | _CMU_CALCTRL_DOWNSEL_MASK);
   \   00000002   0x.... 0x....      LDR.W    R3,??DataTable23_3  ;; 0x400c8018
   \   00000006   0x681B             LDR      R3,[R3, #+0]
   \   00000008   0x099B             LSRS     R3,R3,#+6
   \   0000000A   0x019B             LSLS     R3,R3,#+6
    534          
    535            /* 20 bits of precision to calibration count register */
    536            EFM_ASSERT(downCycles <= (_CMU_CALCNT_CALCNT_MASK >> _CMU_CALCNT_CALCNT_SHIFT));
    537          
    538            /* Set down counting clock source - down counter */
    539            switch (downSel)
   \   0000000C   0xB2C9             UXTB     R1,R1            ;; ZeroExt  R1,R1,#+24,#+24
   \   0000000E   0x2900             CMP      R1,#+0
   \   00000010   0xD006             BEQ.N    ??CMU_CalibrateConfig_0
   \   00000012   0x2902             CMP      R1,#+2
   \   00000014   0xD00A             BEQ.N    ??CMU_CalibrateConfig_1
   \   00000016   0xD306             BCC.N    ??CMU_CalibrateConfig_2
   \   00000018   0x2904             CMP      R1,#+4
   \   0000001A   0xD00D             BEQ.N    ??CMU_CalibrateConfig_3
   \   0000001C   0xD309             BCC.N    ??CMU_CalibrateConfig_4
   \   0000001E   0xE00E             B.N      ??CMU_CalibrateConfig_5
    540            {
    541            case cmuOsc_LFXO:
    542              calCtrl |= CMU_CALCTRL_DOWNSEL_LFXO;
   \                     ??CMU_CalibrateConfig_0: (+1)
   \   00000020   0xF053 0x0310      ORRS     R3,R3,#0x10
    543              break;
   \   00000024   0xE00B             B.N      ??CMU_CalibrateConfig_6
    544          
    545            case cmuOsc_LFRCO:
    546              calCtrl |= CMU_CALCTRL_DOWNSEL_LFRCO;
   \                     ??CMU_CalibrateConfig_2: (+1)
   \   00000026   0xF053 0x0320      ORRS     R3,R3,#0x20
    547              break;
   \   0000002A   0xE008             B.N      ??CMU_CalibrateConfig_6
    548          
    549            case cmuOsc_HFXO:
    550              calCtrl |= CMU_CALCTRL_DOWNSEL_HFXO;
   \                     ??CMU_CalibrateConfig_1: (+1)
   \   0000002C   0xF053 0x0308      ORRS     R3,R3,#0x8
    551              break;
   \   00000030   0xE005             B.N      ??CMU_CalibrateConfig_6
    552          
    553            case cmuOsc_HFRCO:
    554              calCtrl |= CMU_CALCTRL_DOWNSEL_HFRCO;
   \                     ??CMU_CalibrateConfig_4: (+1)
   \   00000032   0xF053 0x0318      ORRS     R3,R3,#0x18
    555              break;
   \   00000036   0xE002             B.N      ??CMU_CalibrateConfig_6
    556          
    557            case cmuOsc_AUXHFRCO:
    558              calCtrl |= CMU_CALCTRL_DOWNSEL_AUXHFRCO;
   \                     ??CMU_CalibrateConfig_3: (+1)
   \   00000038   0xF053 0x0328      ORRS     R3,R3,#0x28
    559              break;
   \   0000003C   0xE7FF             B.N      ??CMU_CalibrateConfig_6
    560          
    561            default:
    562              EFM_ASSERT(0);
    563            }
    564          
    565            /* Set top value to be counted down by the downSel clock */
    566            CMU->CALCNT = downCycles;
   \                     ??CMU_CalibrateConfig_5: (+1)
   \                     ??CMU_CalibrateConfig_6: (+1)
   \   0000003E   0x.... 0x....      LDR.W    R4,??DataTable26  ;; 0x400c801c
   \   00000042   0x6020             STR      R0,[R4, #+0]
    567          
    568            /* Set reference clock source - up counter */
    569            switch (upSel)
   \   00000044   0xB2D2             UXTB     R2,R2            ;; ZeroExt  R2,R2,#+24,#+24
   \   00000046   0x2A00             CMP      R2,#+0
   \   00000048   0xD006             BEQ.N    ??CMU_CalibrateConfig_7
   \   0000004A   0x2A02             CMP      R2,#+2
   \   0000004C   0xD00A             BEQ.N    ??CMU_CalibrateConfig_8
   \   0000004E   0xD306             BCC.N    ??CMU_CalibrateConfig_9
   \   00000050   0x2A04             CMP      R2,#+4
   \   00000052   0xD00B             BEQ.N    ??CMU_CalibrateConfig_10
   \   00000054   0xD307             BCC.N    ??CMU_CalibrateConfig_11
   \   00000056   0xE00C             B.N      ??CMU_CalibrateConfig_12
    570            {
    571            case cmuOsc_LFXO:
    572              calCtrl |= CMU_CALCTRL_UPSEL_LFXO;
   \                     ??CMU_CalibrateConfig_7: (+1)
   \   00000058   0xF053 0x0301      ORRS     R3,R3,#0x1
    573              break;
   \   0000005C   0xE009             B.N      ??CMU_CalibrateConfig_13
    574          
    575            case cmuOsc_LFRCO:
    576              calCtrl |= CMU_CALCTRL_UPSEL_LFRCO;
   \                     ??CMU_CalibrateConfig_9: (+1)
   \   0000005E   0xF053 0x0303      ORRS     R3,R3,#0x3
    577              break;
   \   00000062   0xE006             B.N      ??CMU_CalibrateConfig_13
    578          
    579            case cmuOsc_HFXO:
    580              calCtrl |= CMU_CALCTRL_UPSEL_HFXO;
    581              break;
   \                     ??CMU_CalibrateConfig_8: (+1)
   \   00000064   0xE005             B.N      ??CMU_CalibrateConfig_13
    582          
    583            case cmuOsc_HFRCO:
    584              calCtrl |= CMU_CALCTRL_UPSEL_HFRCO;
   \                     ??CMU_CalibrateConfig_11: (+1)
   \   00000066   0xF053 0x0302      ORRS     R3,R3,#0x2
    585              break;
   \   0000006A   0xE002             B.N      ??CMU_CalibrateConfig_13
    586          
    587            case cmuOsc_AUXHFRCO:
    588              calCtrl |= CMU_CALCTRL_UPSEL_AUXHFRCO;
   \                     ??CMU_CalibrateConfig_10: (+1)
   \   0000006C   0xF053 0x0304      ORRS     R3,R3,#0x4
    589              break;
   \   00000070   0xE7FF             B.N      ??CMU_CalibrateConfig_13
    590          
    591            default:
    592              EFM_ASSERT(0);
    593            }
    594          
    595            CMU->CALCTRL = calCtrl;
   \                     ??CMU_CalibrateConfig_12: (+1)
   \                     ??CMU_CalibrateConfig_13: (+1)
   \   00000072   0x.... 0x....      LDR.W    R4,??DataTable23_3  ;; 0x400c8018
   \   00000076   0x6023             STR      R3,[R4, #+0]
    596          }
   \   00000078   0xBC10             POP      {R4}
   \   0000007A   0x4770             BX       LR               ;; return
    597          #endif
    598          
    599          
    600          /***************************************************************************//**
    601           * @brief
    602           *   Get clock divisor/prescaler.
    603           *
    604           * @param[in] clock
    605           *   Clock point to get divisor/prescaler for. Notice that not all clock points
    606           *   have a divisor/prescaler. Please refer to CMU overview in reference manual.
    607           *
    608           * @return
    609           *   The current clock point divisor/prescaler. 1 is returned
    610           *   if @p clock specifies a clock point without a divisor/prescaler.
    611           ******************************************************************************/

   \                                 In section .text, align 2, keep-with-next
    612          CMU_ClkDiv_TypeDef CMU_ClockDivGet(CMU_Clock_TypeDef clock)
    613          {
   \                     CMU_ClockDivGet: (+1)
   \   00000000   0xB570             PUSH     {R4-R6,LR}
   \   00000002   0x0004             MOVS     R4,R0
    614            uint32_t           divReg;
    615            CMU_ClkDiv_TypeDef ret;
    616          
    617            /* Get divisor reg id */
    618            divReg = (clock >> CMU_DIV_REG_POS) & CMU_DIV_REG_MASK;
   \   00000004   0xF3C4 0x1003      UBFX     R0,R4,#+4,#+4
   \   00000008   0x0005             MOVS     R5,R0
    619          
    620            switch (divReg)
   \   0000000A   0x2D01             CMP      R5,#+1
   \   0000000C   0xD00F             BEQ.N    ??CMU_ClockDivGet_0
   \   0000000E   0xD379             BCC.N    ??CMU_ClockDivGet_1
   \   00000010   0x2D03             CMP      R5,#+3
   \   00000012   0xD022             BEQ.N    ??CMU_ClockDivGet_2
   \   00000014   0xD316             BCC.N    ??CMU_ClockDivGet_3
   \   00000016   0x2D05             CMP      R5,#+5
   \   00000018   0xD001             BEQ.N    ??CMU_ClockDivGet_4
   \   0000001A   0xD350             BCC.N    ??CMU_ClockDivGet_5
   \   0000001C   0xE072             B.N      ??CMU_ClockDivGet_1
    621            {
    622          #if defined(_EFM32_GIANT_FAMILY) || defined(_EFM32_WONDER_FAMILY)
    623            case CMU_HFCLKDIV_REG:
    624              ret = 1 + ((CMU->CTRL & _CMU_CTRL_HFCLKDIV_MASK) >>
    625                         _CMU_CTRL_HFCLKDIV_SHIFT);
   \                     ??CMU_ClockDivGet_4: (+1)
   \   0000001E   0x.... 0x....      LDR.W    R0,??DataTable23_1  ;; 0x400c8000
   \   00000022   0x6800             LDR      R0,[R0, #+0]
   \   00000024   0xF3C0 0x3082      UBFX     R0,R0,#+14,#+3
   \   00000028   0x1C40             ADDS     R0,R0,#+1
   \   0000002A   0x0006             MOVS     R6,R0
    626              break;
   \   0000002C   0xE06C             B.N      ??CMU_ClockDivGet_6
    627          #endif
    628          
    629            case CMU_HFPERCLKDIV_REG:
    630              ret = (CMU_ClkDiv_TypeDef)((CMU->HFPERCLKDIV &
    631                                          _CMU_HFPERCLKDIV_HFPERCLKDIV_MASK) >>
    632                                         _CMU_HFPERCLKDIV_HFPERCLKDIV_SHIFT);
   \                     ??CMU_ClockDivGet_0: (+1)
   \   0000002E   0x.... 0x....      LDR.W    R0,??DataTable26_1  ;; 0x400c8008
   \   00000032   0x6800             LDR      R0,[R0, #+0]
   \   00000034   0xF010 0x000F      ANDS     R0,R0,#0xF
   \   00000038   0x0006             MOVS     R6,R0
    633              ret = CMU_Log2ToDiv(ret);
   \   0000003A   0x0030             MOVS     R0,R6
   \   0000003C   0x.... 0x....      BL       CMU_Log2ToDiv
   \   00000040   0x0006             MOVS     R6,R0
    634              break;
   \   00000042   0xE061             B.N      ??CMU_ClockDivGet_6
    635          
    636            case CMU_HFCORECLKDIV_REG:
    637              ret = (CMU_ClkDiv_TypeDef)((CMU->HFCORECLKDIV &
    638                                          _CMU_HFCORECLKDIV_HFCORECLKDIV_MASK) >>
    639                                         _CMU_HFCORECLKDIV_HFCORECLKDIV_SHIFT);
   \                     ??CMU_ClockDivGet_3: (+1)
   \   00000044   0x.... 0x....      LDR.W    R0,??DataTable22  ;; 0x400c8004
   \   00000048   0x6800             LDR      R0,[R0, #+0]
   \   0000004A   0xF010 0x000F      ANDS     R0,R0,#0xF
   \   0000004E   0x0006             MOVS     R6,R0
    640              ret = CMU_Log2ToDiv(ret);
   \   00000050   0x0030             MOVS     R0,R6
   \   00000052   0x.... 0x....      BL       CMU_Log2ToDiv
   \   00000056   0x0006             MOVS     R6,R0
    641              break;
   \   00000058   0xE056             B.N      ??CMU_ClockDivGet_6
    642          
    643            case CMU_LFAPRESC0_REG:
    644              switch (clock)
   \                     ??CMU_ClockDivGet_2: (+1)
   \   0000005A   0x0020             MOVS     R0,R4
   \   0000005C   0x.... 0x....      LDR.W    R1,??DataTable26_2  ;; 0x81430
   \   00000060   0x4288             CMP      R0,R1
   \   00000062   0xD008             BEQ.N    ??CMU_ClockDivGet_7
   \   00000064   0x.... 0x....      LDR.W    R1,??DataTable26_3  ;; 0xa2430
   \   00000068   0x4288             CMP      R0,R1
   \   0000006A   0xD00F             BEQ.N    ??CMU_ClockDivGet_8
   \   0000006C   0x.... 0x....      LDR.W    R1,??DataTable26_4  ;; 0x100430
   \   00000070   0x4288             CMP      R0,R1
   \   00000072   0xD016             BEQ.N    ??CMU_ClockDivGet_9
   \   00000074   0xE020             B.N      ??CMU_ClockDivGet_10
    645              {
    646              case cmuClock_RTC:
    647                ret = (CMU_ClkDiv_TypeDef)(((CMU->LFAPRESC0 & _CMU_LFAPRESC0_RTC_MASK) >>
    648                                            _CMU_LFAPRESC0_RTC_SHIFT));
   \                     ??CMU_ClockDivGet_7: (+1)
   \   00000076   0x.... 0x....      LDR.W    R0,??DataTable26_5  ;; 0x400c8068
   \   0000007A   0x6800             LDR      R0,[R0, #+0]
   \   0000007C   0xF3C0 0x1003      UBFX     R0,R0,#+4,#+4
   \   00000080   0x0006             MOVS     R6,R0
    649                ret = CMU_Log2ToDiv(ret);
   \   00000082   0x0030             MOVS     R0,R6
   \   00000084   0x.... 0x....      BL       CMU_Log2ToDiv
   \   00000088   0x0006             MOVS     R6,R0
    650                break;
   \   0000008A   0xE017             B.N      ??CMU_ClockDivGet_11
    651          
    652          #if defined(_CMU_LFAPRESC0_LETIMER0_MASK)
    653              case cmuClock_LETIMER0:
    654                ret = (CMU_ClkDiv_TypeDef)(((CMU->LFAPRESC0 & _CMU_LFAPRESC0_LETIMER0_MASK) >>
    655                                            _CMU_LFAPRESC0_LETIMER0_SHIFT));
   \                     ??CMU_ClockDivGet_8: (+1)
   \   0000008C   0x.... 0x....      LDR.W    R0,??DataTable26_5  ;; 0x400c8068
   \   00000090   0x6800             LDR      R0,[R0, #+0]
   \   00000092   0xF3C0 0x2003      UBFX     R0,R0,#+8,#+4
   \   00000096   0x0006             MOVS     R6,R0
    656                ret = CMU_Log2ToDiv(ret);
   \   00000098   0x0030             MOVS     R0,R6
   \   0000009A   0x.... 0x....      BL       CMU_Log2ToDiv
   \   0000009E   0x0006             MOVS     R6,R0
    657                break;
   \   000000A0   0xE00C             B.N      ??CMU_ClockDivGet_11
    658          #endif
    659          
    660          #if defined(_CMU_LFAPRESC0_LCD_MASK)
    661              case cmuClock_LCDpre:
    662                ret = (CMU_ClkDiv_TypeDef)(((CMU->LFAPRESC0 & _CMU_LFAPRESC0_LCD_MASK) >>
    663                                            _CMU_LFAPRESC0_LCD_SHIFT) + CMU_DivToLog2(cmuClkDiv_16));
    664                ret = CMU_Log2ToDiv(ret);
    665                break;
    666          #endif
    667          
    668          #if defined(_CMU_LFAPRESC0_LESENSE_MASK)
    669              case cmuClock_LESENSE:
    670                ret = (CMU_ClkDiv_TypeDef)(((CMU->LFAPRESC0 & _CMU_LFAPRESC0_LESENSE_MASK) >>
    671                                            _CMU_LFAPRESC0_LESENSE_SHIFT));
   \                     ??CMU_ClockDivGet_9: (+1)
   \   000000A2   0x.... 0x....      LDR.W    R0,??DataTable26_5  ;; 0x400c8068
   \   000000A6   0x6800             LDR      R0,[R0, #+0]
   \   000000A8   0xF010 0x0003      ANDS     R0,R0,#0x3
   \   000000AC   0x0006             MOVS     R6,R0
    672                ret = CMU_Log2ToDiv(ret);
   \   000000AE   0x0030             MOVS     R0,R6
   \   000000B0   0x.... 0x....      BL       CMU_Log2ToDiv
   \   000000B4   0x0006             MOVS     R6,R0
    673                break;
   \   000000B6   0xE001             B.N      ??CMU_ClockDivGet_11
    674          #endif
    675          
    676              default:
    677                EFM_ASSERT(0);
    678                ret = cmuClkDiv_1;
   \                     ??CMU_ClockDivGet_10: (+1)
   \   000000B8   0x2001             MOVS     R0,#+1
   \   000000BA   0x0006             MOVS     R6,R0
    679                break;
    680              }
    681              break;
   \                     ??CMU_ClockDivGet_11: (+1)
   \   000000BC   0xE024             B.N      ??CMU_ClockDivGet_6
    682          
    683            case CMU_LFBPRESC0_REG:
    684              switch (clock)
   \                     ??CMU_ClockDivGet_5: (+1)
   \   000000BE   0x0020             MOVS     R0,R4
   \   000000C0   0x.... 0x....      LDR.W    R1,??DataTable26_6  ;; 0x140540
   \   000000C4   0x4288             CMP      R0,R1
   \   000000C6   0xD004             BEQ.N    ??CMU_ClockDivGet_12
   \   000000C8   0x.... 0x....      LDR.W    R1,??DataTable26_7  ;; 0x161540
   \   000000CC   0x4288             CMP      R0,R1
   \   000000CE   0xD00B             BEQ.N    ??CMU_ClockDivGet_13
   \   000000D0   0xE015             B.N      ??CMU_ClockDivGet_14
    685              {
    686          #if defined(_CMU_LFBPRESC0_LEUART0_MASK)
    687              case cmuClock_LEUART0:
    688                ret = (CMU_ClkDiv_TypeDef)(((CMU->LFBPRESC0 & _CMU_LFBPRESC0_LEUART0_MASK) >>
    689                                            _CMU_LFBPRESC0_LEUART0_SHIFT));
   \                     ??CMU_ClockDivGet_12: (+1)
   \   000000D2   0x.... 0x....      LDR.W    R0,??DataTable26_8  ;; 0x400c8070
   \   000000D6   0x6800             LDR      R0,[R0, #+0]
   \   000000D8   0xF010 0x0003      ANDS     R0,R0,#0x3
   \   000000DC   0x0006             MOVS     R6,R0
    690                ret = CMU_Log2ToDiv(ret);
   \   000000DE   0x0030             MOVS     R0,R6
   \   000000E0   0x.... 0x....      BL       CMU_Log2ToDiv
   \   000000E4   0x0006             MOVS     R6,R0
    691                break;
   \   000000E6   0xE00C             B.N      ??CMU_ClockDivGet_15
    692          #endif
    693          
    694          #if defined(_CMU_LFBPRESC0_LEUART1_MASK)
    695              case cmuClock_LEUART1:
    696                ret = (CMU_ClkDiv_TypeDef)(((CMU->LFBPRESC0 & _CMU_LFBPRESC0_LEUART1_MASK) >>
    697                                            _CMU_LFBPRESC0_LEUART1_SHIFT));
   \                     ??CMU_ClockDivGet_13: (+1)
   \   000000E8   0x.... 0x....      LDR.W    R0,??DataTable26_8  ;; 0x400c8070
   \   000000EC   0x6800             LDR      R0,[R0, #+0]
   \   000000EE   0xF3C0 0x1001      UBFX     R0,R0,#+4,#+2
   \   000000F2   0x0006             MOVS     R6,R0
    698                ret = CMU_Log2ToDiv(ret);
   \   000000F4   0x0030             MOVS     R0,R6
   \   000000F6   0x.... 0x....      BL       CMU_Log2ToDiv
   \   000000FA   0x0006             MOVS     R6,R0
    699                break;
   \   000000FC   0xE001             B.N      ??CMU_ClockDivGet_15
    700          #endif
    701          
    702              default:
    703                EFM_ASSERT(0);
    704                ret = cmuClkDiv_1;
   \                     ??CMU_ClockDivGet_14: (+1)
   \   000000FE   0x2001             MOVS     R0,#+1
   \   00000100   0x0006             MOVS     R6,R0
    705                break;
    706              }
    707              break;
   \                     ??CMU_ClockDivGet_15: (+1)
   \   00000102   0xE001             B.N      ??CMU_ClockDivGet_6
    708          
    709            default:
    710              EFM_ASSERT(0);
    711              ret = cmuClkDiv_1;
   \                     ??CMU_ClockDivGet_1: (+1)
   \   00000104   0x2001             MOVS     R0,#+1
   \   00000106   0x0006             MOVS     R6,R0
    712              break;
    713            }
    714          
    715            return(ret);
   \                     ??CMU_ClockDivGet_6: (+1)
   \   00000108   0x0030             MOVS     R0,R6
   \   0000010A   0xBD70             POP      {R4-R6,PC}       ;; return
    716          }
    717          
    718          
    719          /***************************************************************************//**
    720           * @brief
    721           *   Set clock divisor/prescaler.
    722           *
    723           * @note
    724           *   If setting a LF clock prescaler, synchronization into the low frequency
    725           *   domain is required. If the same register is modified before a previous
    726           *   update has completed, this function will stall until the previous
    727           *   synchronization has completed. Please refer to CMU_FreezeEnable() for
    728           *   a suggestion on how to reduce stalling time in some use cases.
    729           *
    730           * @param[in] clock
    731           *   Clock point to set divisor/prescaler for. Notice that not all clock points
    732           *   have a divisor/prescaler, please refer to CMU overview in the reference
    733           *   manual.
    734           *
    735           * @param[in] div
    736           *   The clock divisor to use (<= cmuClkDiv_512).
    737           ******************************************************************************/

   \                                 In section .text, align 2, keep-with-next
    738          void CMU_ClockDivSet(CMU_Clock_TypeDef clock, CMU_ClkDiv_TypeDef div)
    739          {
   \                     CMU_ClockDivSet: (+1)
   \   00000000   0xB5F8             PUSH     {R3-R7,LR}
   \   00000002   0x0004             MOVS     R4,R0
   \   00000004   0x000D             MOVS     R5,R1
    740            uint32_t freq;
    741            uint32_t divReg;
    742          
    743            /* Get divisor reg id */
    744            divReg = (clock >> CMU_DIV_REG_POS) & CMU_DIV_REG_MASK;
   \   00000006   0xF3C4 0x1003      UBFX     R0,R4,#+4,#+4
   \   0000000A   0x0007             MOVS     R7,R0
    745          
    746            switch (divReg)
   \   0000000C   0x2F01             CMP      R7,#+1
   \   0000000E   0xD01C             BEQ.N    ??CMU_ClockDivSet_0
   \   00000010   0xF0C0 0x80B1      BCC.W    ??CMU_ClockDivSet_1
   \   00000014   0x2F03             CMP      R7,#+3
   \   00000016   0xD03C             BEQ.N    ??CMU_ClockDivSet_2
   \   00000018   0xD325             BCC.N    ??CMU_ClockDivSet_3
   \   0000001A   0x2F05             CMP      R7,#+5
   \   0000001C   0xD001             BEQ.N    ??CMU_ClockDivSet_4
   \   0000001E   0xD37C             BCC.N    ??CMU_ClockDivSet_5
   \   00000020   0xE0A9             B.N      ??CMU_ClockDivSet_1
    747            {
    748          #if defined (_EFM32_GIANT_FAMILY) || defined(_EFM32_WONDER_FAMILY)
    749            case CMU_HFCLKDIV_REG:
    750              EFM_ASSERT((div>=cmuClkDiv_1) && (div<=cmuClkDiv_8));
    751          
    752              /* Configure worst case wait states for flash access before setting divisor */
    753              CMU_FlashWaitStateMax();
   \                     ??CMU_ClockDivSet_4: (+1)
   \   00000022   0x.... 0x....      BL       CMU_FlashWaitStateMax
    754          
    755              /* Set divider */
    756              CMU->CTRL = (CMU->CTRL & ~_CMU_CTRL_HFCLKDIV_MASK) |
    757                ((div-1) << _CMU_CTRL_HFCLKDIV_SHIFT);
   \   00000026   0x.... 0x....      LDR.W    R0,??DataTable23_1  ;; 0x400c8000
   \   0000002A   0x6800             LDR      R0,[R0, #+0]
   \   0000002C   0xF430 0x30E0      BICS     R0,R0,#0x1C000
   \   00000030   0x1E69             SUBS     R1,R5,#+1
   \   00000032   0xEA50 0x3081      ORRS     R0,R0,R1, LSL #+14
   \   00000036   0x.... 0x....      LDR.W    R1,??DataTable23_1  ;; 0x400c8000
   \   0000003A   0x6008             STR      R0,[R1, #+0]
    758          
    759              /* Update CMSIS core clock variable */
    760              /* (The function will update the global variable) */
    761              freq = SystemCoreClockGet();
   \   0000003C   0x.... 0x....      BL       SystemCoreClockGet
   \   00000040   0x0006             MOVS     R6,R0
    762          
    763              /* Optimize flash access wait state setting for current core clk */
    764              CMU_FlashWaitStateControl(freq);
   \   00000042   0x0030             MOVS     R0,R6
   \   00000044   0x.... 0x....      BL       CMU_FlashWaitStateControl
    765              break;
   \   00000048   0xE095             B.N      ??CMU_ClockDivSet_6
    766          #endif
    767          
    768            case CMU_HFPERCLKDIV_REG:
    769              EFM_ASSERT((div >= cmuClkDiv_1) && (div <= cmuClkDiv_512));
    770              /* Convert to correct scale */
    771              div = CMU_DivToLog2(div);
   \                     ??CMU_ClockDivSet_0: (+1)
   \   0000004A   0x0028             MOVS     R0,R5
   \   0000004C   0x.... 0x....      BL       CMU_DivToLog2
   \   00000050   0x0005             MOVS     R5,R0
    772              CMU->HFPERCLKDIV = (CMU->HFPERCLKDIV & ~_CMU_HFPERCLKDIV_HFPERCLKDIV_MASK) |
    773                                 (div << _CMU_HFPERCLKDIV_HFPERCLKDIV_SHIFT);
   \   00000052   0x.... 0x....      LDR.W    R0,??DataTable26_1  ;; 0x400c8008
   \   00000056   0x6800             LDR      R0,[R0, #+0]
   \   00000058   0x0900             LSRS     R0,R0,#+4
   \   0000005A   0x0100             LSLS     R0,R0,#+4
   \   0000005C   0x4328             ORRS     R0,R5,R0
   \   0000005E   0x.... 0x....      LDR.W    R1,??DataTable26_1  ;; 0x400c8008
   \   00000062   0x6008             STR      R0,[R1, #+0]
    774              break;
   \   00000064   0xE087             B.N      ??CMU_ClockDivSet_6
    775          
    776            case CMU_HFCORECLKDIV_REG:
    777              EFM_ASSERT(div <= cmuClkDiv_512);
    778          
    779              /* Configure worst case wait states for flash access before setting divisor */
    780              CMU_FlashWaitStateMax();
   \                     ??CMU_ClockDivSet_3: (+1)
   \   00000066   0x.... 0x....      BL       CMU_FlashWaitStateMax
    781          
    782              /* Convert to correct scale */
    783              div = CMU_DivToLog2(div);
   \   0000006A   0x0028             MOVS     R0,R5
   \   0000006C   0x.... 0x....      BL       CMU_DivToLog2
   \   00000070   0x0005             MOVS     R5,R0
    784          
    785              CMU->HFCORECLKDIV = (CMU->HFCORECLKDIV & ~_CMU_HFCORECLKDIV_HFCORECLKDIV_MASK) |
    786                                  (div << _CMU_HFCORECLKDIV_HFCORECLKDIV_SHIFT);
   \   00000072   0x.... 0x....      LDR.W    R0,??DataTable22  ;; 0x400c8004
   \   00000076   0x6800             LDR      R0,[R0, #+0]
   \   00000078   0x0900             LSRS     R0,R0,#+4
   \   0000007A   0x0100             LSLS     R0,R0,#+4
   \   0000007C   0x4328             ORRS     R0,R5,R0
   \   0000007E   0x.... 0x....      LDR.W    R1,??DataTable22  ;; 0x400c8004
   \   00000082   0x6008             STR      R0,[R1, #+0]
    787          
    788              /* Update CMSIS core clock variable */
    789              /* (The function will update the global variable) */
    790              freq = SystemCoreClockGet();
   \   00000084   0x.... 0x....      BL       SystemCoreClockGet
   \   00000088   0x0006             MOVS     R6,R0
    791          
    792              /* Optimize flash access wait state setting for current core clk */
    793              CMU_FlashWaitStateControl(freq);
   \   0000008A   0x0030             MOVS     R0,R6
   \   0000008C   0x.... 0x....      BL       CMU_FlashWaitStateControl
    794              break;
   \   00000090   0xE071             B.N      ??CMU_ClockDivSet_6
    795          
    796            case CMU_LFAPRESC0_REG:
    797              switch (clock)
   \                     ??CMU_ClockDivSet_2: (+1)
   \   00000092   0x0020             MOVS     R0,R4
   \   00000094   0x.... 0x....      LDR.W    R1,??DataTable26_2  ;; 0x81430
   \   00000098   0x4288             CMP      R0,R1
   \   0000009A   0xD008             BEQ.N    ??CMU_ClockDivSet_7
   \   0000009C   0x.... 0x....      LDR.W    R1,??DataTable26_3  ;; 0xa2430
   \   000000A0   0x4288             CMP      R0,R1
   \   000000A2   0xD016             BEQ.N    ??CMU_ClockDivSet_8
   \   000000A4   0x.... 0x....      LDR.W    R1,??DataTable26_4  ;; 0x100430
   \   000000A8   0x4288             CMP      R0,R1
   \   000000AA   0xD024             BEQ.N    ??CMU_ClockDivSet_9
   \   000000AC   0xE034             B.N      ??CMU_ClockDivSet_10
    798              {
    799              case cmuClock_RTC:
    800                EFM_ASSERT(div <= cmuClkDiv_32768);
    801          
    802                /* LF register about to be modified require sync. busy check */
    803                CMU_Sync(CMU_SYNCBUSY_LFAPRESC0);
   \                     ??CMU_ClockDivSet_7: (+1)
   \   000000AE   0x2004             MOVS     R0,#+4
   \   000000B0   0x.... 0x....      BL       CMU_Sync
    804          
    805                /* Convert to correct scale */
    806                div = CMU_DivToLog2(div);
   \   000000B4   0x0028             MOVS     R0,R5
   \   000000B6   0x.... 0x....      BL       CMU_DivToLog2
   \   000000BA   0x0005             MOVS     R5,R0
    807          
    808                CMU->LFAPRESC0 = (CMU->LFAPRESC0 & ~_CMU_LFAPRESC0_RTC_MASK) |
    809                                 (div << _CMU_LFAPRESC0_RTC_SHIFT);
   \   000000BC   0x.... 0x....      LDR.W    R0,??DataTable26_5  ;; 0x400c8068
   \   000000C0   0x6800             LDR      R0,[R0, #+0]
   \   000000C2   0xF030 0x00F0      BICS     R0,R0,#0xF0
   \   000000C6   0xEA50 0x1005      ORRS     R0,R0,R5, LSL #+4
   \   000000CA   0x.... 0x....      LDR.W    R1,??DataTable26_5  ;; 0x400c8068
   \   000000CE   0x6008             STR      R0,[R1, #+0]
    810                break;
   \   000000D0   0xE022             B.N      ??CMU_ClockDivSet_11
    811          
    812          #if defined(_CMU_LFAPRESC0_LETIMER0_MASK)
    813              case cmuClock_LETIMER0:
    814                EFM_ASSERT(div <= cmuClkDiv_32768);
    815          
    816                /* LF register about to be modified require sync. busy check */
    817                CMU_Sync(CMU_SYNCBUSY_LFAPRESC0);
   \                     ??CMU_ClockDivSet_8: (+1)
   \   000000D2   0x2004             MOVS     R0,#+4
   \   000000D4   0x.... 0x....      BL       CMU_Sync
    818          
    819                /* Convert to correct scale */
    820                div = CMU_DivToLog2(div);
   \   000000D8   0x0028             MOVS     R0,R5
   \   000000DA   0x.... 0x....      BL       CMU_DivToLog2
   \   000000DE   0x0005             MOVS     R5,R0
    821          
    822                CMU->LFAPRESC0 = (CMU->LFAPRESC0 & ~_CMU_LFAPRESC0_LETIMER0_MASK) |
    823                                 (div << _CMU_LFAPRESC0_LETIMER0_SHIFT);
   \   000000E0   0x.... 0x....      LDR.W    R0,??DataTable26_5  ;; 0x400c8068
   \   000000E4   0x6800             LDR      R0,[R0, #+0]
   \   000000E6   0xF430 0x6070      BICS     R0,R0,#0xF00
   \   000000EA   0xEA50 0x2005      ORRS     R0,R0,R5, LSL #+8
   \   000000EE   0x.... 0x....      LDR.W    R1,??DataTable26_5  ;; 0x400c8068
   \   000000F2   0x6008             STR      R0,[R1, #+0]
    824                break;
   \   000000F4   0xE010             B.N      ??CMU_ClockDivSet_11
    825          #endif
    826          
    827          #if defined(LCD_PRESENT)
    828              case cmuClock_LCDpre:
    829                EFM_ASSERT((div >= cmuClkDiv_16) && (div <= cmuClkDiv_128));
    830          
    831                /* LF register about to be modified require sync. busy check */
    832                CMU_Sync(CMU_SYNCBUSY_LFAPRESC0);
    833          
    834                /* Convert to correct scale */
    835                div = CMU_DivToLog2(div);
    836          
    837                CMU->LFAPRESC0 = (CMU->LFAPRESC0 & ~_CMU_LFAPRESC0_LCD_MASK) |
    838                                 ((div - CMU_DivToLog2(cmuClkDiv_16)) << _CMU_LFAPRESC0_LCD_SHIFT);
    839                break;
    840          #endif /* defined(LCD_PRESENT) */
    841          
    842          #if defined(LESENSE_PRESENT)
    843              case cmuClock_LESENSE:
    844                EFM_ASSERT(div <= cmuClkDiv_8);
    845          
    846                /* LF register about to be modified require sync. busy check */
    847                CMU_Sync(CMU_SYNCBUSY_LFAPRESC0);
   \                     ??CMU_ClockDivSet_9: (+1)
   \   000000F6   0x2004             MOVS     R0,#+4
   \   000000F8   0x.... 0x....      BL       CMU_Sync
    848          
    849                /* Convert to correct scale */
    850                div = CMU_DivToLog2(div);
   \   000000FC   0x0028             MOVS     R0,R5
   \   000000FE   0x.... 0x....      BL       CMU_DivToLog2
   \   00000102   0x0005             MOVS     R5,R0
    851          
    852                CMU->LFAPRESC0 = (CMU->LFAPRESC0 & ~_CMU_LFAPRESC0_LESENSE_MASK) |
    853                                 (div << _CMU_LFAPRESC0_LESENSE_SHIFT);
   \   00000104   0x.... 0x....      LDR.W    R0,??DataTable26_5  ;; 0x400c8068
   \   00000108   0x6800             LDR      R0,[R0, #+0]
   \   0000010A   0x0880             LSRS     R0,R0,#+2
   \   0000010C   0x0080             LSLS     R0,R0,#+2
   \   0000010E   0x4328             ORRS     R0,R5,R0
   \   00000110   0x.... 0x....      LDR.W    R1,??DataTable26_5  ;; 0x400c8068
   \   00000114   0x6008             STR      R0,[R1, #+0]
    854                break;
   \   00000116   0xE7FF             B.N      ??CMU_ClockDivSet_11
    855          #endif /* defined(LESENSE_PRESENT) */
    856          
    857              default:
    858                EFM_ASSERT(0);
    859                break;
    860              }
    861              break;
   \                     ??CMU_ClockDivSet_10: (+1)
   \                     ??CMU_ClockDivSet_11: (+1)
   \   00000118   0xE02D             B.N      ??CMU_ClockDivSet_6
    862          
    863            case CMU_LFBPRESC0_REG:
    864              switch (clock)
   \                     ??CMU_ClockDivSet_5: (+1)
   \   0000011A   0x0020             MOVS     R0,R4
   \   0000011C   0x.... 0x....      LDR.W    R1,??DataTable26_6  ;; 0x140540
   \   00000120   0x4288             CMP      R0,R1
   \   00000122   0xD004             BEQ.N    ??CMU_ClockDivSet_12
   \   00000124   0x.... 0x....      LDR.W    R1,??DataTable26_7  ;; 0x161540
   \   00000128   0x4288             CMP      R0,R1
   \   0000012A   0xD011             BEQ.N    ??CMU_ClockDivSet_13
   \   0000012C   0xE022             B.N      ??CMU_ClockDivSet_14
    865              {
    866          #if defined(_CMU_LFBPRESC0_LEUART0_MASK)
    867              case cmuClock_LEUART0:
    868                EFM_ASSERT(div <= cmuClkDiv_8);
    869          
    870                /* LF register about to be modified require sync. busy check */
    871                CMU_Sync(CMU_SYNCBUSY_LFBPRESC0);
   \                     ??CMU_ClockDivSet_12: (+1)
   \   0000012E   0x2040             MOVS     R0,#+64
   \   00000130   0x.... 0x....      BL       CMU_Sync
    872          
    873                /* Convert to correct scale */
    874                div = CMU_DivToLog2(div);
   \   00000134   0x0028             MOVS     R0,R5
   \   00000136   0x.... 0x....      BL       CMU_DivToLog2
   \   0000013A   0x0005             MOVS     R5,R0
    875          
    876                CMU->LFBPRESC0 = (CMU->LFBPRESC0 & ~_CMU_LFBPRESC0_LEUART0_MASK) |
    877                                 (((uint32_t)div) << _CMU_LFBPRESC0_LEUART0_SHIFT);
   \   0000013C   0x.... 0x....      LDR.W    R0,??DataTable26_8  ;; 0x400c8070
   \   00000140   0x6800             LDR      R0,[R0, #+0]
   \   00000142   0x0880             LSRS     R0,R0,#+2
   \   00000144   0x0080             LSLS     R0,R0,#+2
   \   00000146   0x4328             ORRS     R0,R5,R0
   \   00000148   0x.... 0x....      LDR.W    R1,??DataTable26_8  ;; 0x400c8070
   \   0000014C   0x6008             STR      R0,[R1, #+0]
    878                break;
   \   0000014E   0xE011             B.N      ??CMU_ClockDivSet_15
    879          #endif
    880          
    881          #if defined(_CMU_LFBPRESC0_LEUART1_MASK)
    882              case cmuClock_LEUART1:
    883                EFM_ASSERT(div <= cmuClkDiv_8);
    884          
    885                /* LF register about to be modified require sync. busy check */
    886                CMU_Sync(CMU_SYNCBUSY_LFBPRESC0);
   \                     ??CMU_ClockDivSet_13: (+1)
   \   00000150   0x2040             MOVS     R0,#+64
   \   00000152   0x.... 0x....      BL       CMU_Sync
    887          
    888                /* Convert to correct scale */
    889                div = CMU_DivToLog2(div);
   \   00000156   0x0028             MOVS     R0,R5
   \   00000158   0x.... 0x....      BL       CMU_DivToLog2
   \   0000015C   0x0005             MOVS     R5,R0
    890          
    891                CMU->LFBPRESC0 = (CMU->LFBPRESC0 & ~_CMU_LFBPRESC0_LEUART1_MASK) |
    892                                 (((uint32_t)div) << _CMU_LFBPRESC0_LEUART1_SHIFT);
   \   0000015E   0x.... 0x....      LDR.W    R0,??DataTable26_8  ;; 0x400c8070
   \   00000162   0x6800             LDR      R0,[R0, #+0]
   \   00000164   0xF030 0x0030      BICS     R0,R0,#0x30
   \   00000168   0xEA50 0x1005      ORRS     R0,R0,R5, LSL #+4
   \   0000016C   0x.... 0x....      LDR.W    R1,??DataTable26_8  ;; 0x400c8070
   \   00000170   0x6008             STR      R0,[R1, #+0]
    893                break;
   \   00000172   0xE7FF             B.N      ??CMU_ClockDivSet_15
    894          #endif
    895          
    896              default:
    897                EFM_ASSERT(0);
    898                break;
    899              }
    900              break;
   \                     ??CMU_ClockDivSet_14: (+1)
   \                     ??CMU_ClockDivSet_15: (+1)
   \   00000174   0xE7FF             B.N      ??CMU_ClockDivSet_6
    901          
    902            default:
    903              EFM_ASSERT(0);
    904              break;
    905            }
    906          }
   \                     ??CMU_ClockDivSet_1: (+1)
   \                     ??CMU_ClockDivSet_6: (+1)
   \   00000176   0xBDF1             POP      {R0,R4-R7,PC}    ;; return
    907          
    908          
    909          /***************************************************************************//**
    910           * @brief
    911           *   Enable/disable a clock.
    912           *
    913           * @details
    914           *   In general, module clocking is disabled after a reset. If a module
    915           *   clock is disabled, the registers of that module are not accessible and
    916           *   reading from such registers may return undefined values. Writing to
    917           *   registers of clock disabled modules have no effect. One should normally
    918           *   avoid accessing module registers of a module with a disabled clock.
    919           *
    920           * @note
    921           *   If enabling/disabling a LF clock, synchronization into the low frequency
    922           *   domain is required. If the same register is modified before a previous
    923           *   update has completed, this function will stall until the previous
    924           *   synchronization has completed. Please refer to CMU_FreezeEnable() for
    925           *   a suggestion on how to reduce stalling time in some use cases.
    926           *
    927           * @param[in] clock
    928           *   The clock to enable/disable. Notice that not all defined clock
    929           *   points have separate enable/disable control, please refer to CMU overview
    930           *   in reference manual.
    931           *
    932           * @param[in] enable
    933           *   @li true - enable specified clock.
    934           *   @li false - disable specified clock.
    935           ******************************************************************************/

   \                                 In section .text, align 2, keep-with-next
    936          void CMU_ClockEnable(CMU_Clock_TypeDef clock, bool enable)
    937          {
   \                     CMU_ClockEnable: (+1)
   \   00000000   0xE92D 0x41F0      PUSH     {R4-R8,LR}
   \   00000004   0x0004             MOVS     R4,R0
   \   00000006   0x000D             MOVS     R5,R1
    938            volatile uint32_t *reg;
    939            uint32_t          bit;
    940            uint32_t          sync = 0;
   \   00000008   0xF05F 0x0800      MOVS     R8,#+0
    941          
    942            /* Identify enable register */
    943            switch ((clock >> CMU_EN_REG_POS) & CMU_EN_REG_MASK)
   \   0000000C   0xF3C4 0x2003      UBFX     R0,R4,#+8,#+4
   \   00000010   0xB2C0             UXTB     R0,R0            ;; ZeroExt  R0,R0,#+24,#+24
   \   00000012   0x2801             CMP      R0,#+1
   \   00000014   0xD009             BEQ.N    ??CMU_ClockEnable_0
   \   00000016   0xD324             BCC.N    ??CMU_ClockEnable_1
   \   00000018   0x2803             CMP      R0,#+3
   \   0000001A   0xD00E             BEQ.N    ??CMU_ClockEnable_2
   \   0000001C   0xD309             BCC.N    ??CMU_ClockEnable_3
   \   0000001E   0x2805             CMP      R0,#+5
   \   00000020   0xD015             BEQ.N    ??CMU_ClockEnable_4
   \   00000022   0xD30E             BCC.N    ??CMU_ClockEnable_5
   \   00000024   0x2806             CMP      R0,#+6
   \   00000026   0xD018             BEQ.N    ??CMU_ClockEnable_6
   \   00000028   0xE01B             B.N      ??CMU_ClockEnable_1
    944            {
    945            case CMU_HFPERCLKDIV_EN_REG:
    946              reg = &(CMU->HFPERCLKDIV);
   \                     ??CMU_ClockEnable_0: (+1)
   \   0000002A   0x.... 0x....      LDR.W    R0,??DataTable26_1  ;; 0x400c8008
   \   0000002E   0x0006             MOVS     R6,R0
    947              break;
   \   00000030   0xE018             B.N      ??CMU_ClockEnable_7
    948          
    949            case CMU_HFPERCLKEN0_EN_REG:
    950              reg = &(CMU->HFPERCLKEN0);
   \                     ??CMU_ClockEnable_3: (+1)
   \   00000032   0x.... 0x....      LDR.W    R0,??DataTable26_9  ;; 0x400c8044
   \   00000036   0x0006             MOVS     R6,R0
    951              break;
   \   00000038   0xE014             B.N      ??CMU_ClockEnable_7
    952          
    953            case CMU_HFCORECLKEN0_EN_REG:
    954              reg = &(CMU->HFCORECLKEN0);
   \                     ??CMU_ClockEnable_2: (+1)
   \   0000003A   0x.... 0x....      LDR.W    R0,??DataTable26_10  ;; 0x400c8040
   \   0000003E   0x0006             MOVS     R6,R0
    955              break;
   \   00000040   0xE010             B.N      ??CMU_ClockEnable_7
    956          
    957            case CMU_LFACLKEN0_EN_REG:
    958              reg  = &(CMU->LFACLKEN0);
   \                     ??CMU_ClockEnable_5: (+1)
   \   00000042   0x.... 0x....      LDR.W    R0,??DataTable26_11  ;; 0x400c8058
   \   00000046   0x0006             MOVS     R6,R0
    959              sync = CMU_SYNCBUSY_LFACLKEN0;
   \   00000048   0x2001             MOVS     R0,#+1
   \   0000004A   0x4680             MOV      R8,R0
    960              break;
   \   0000004C   0xE00A             B.N      ??CMU_ClockEnable_7
    961          
    962            case CMU_LFBCLKEN0_EN_REG:
    963              reg  = &(CMU->LFBCLKEN0);
   \                     ??CMU_ClockEnable_4: (+1)
   \   0000004E   0x.... 0x....      LDR.W    R0,??DataTable26_12  ;; 0x400c8060
   \   00000052   0x0006             MOVS     R6,R0
    964              sync = CMU_SYNCBUSY_LFBCLKEN0;
   \   00000054   0x2010             MOVS     R0,#+16
   \   00000056   0x4680             MOV      R8,R0
    965              break;
   \   00000058   0xE004             B.N      ??CMU_ClockEnable_7
    966          
    967            case CMU_PCNT_EN_REG:
    968              reg = &(CMU->PCNTCTRL);
   \                     ??CMU_ClockEnable_6: (+1)
   \   0000005A   0x.... 0x....      LDR.W    R0,??DataTable26_13  ;; 0x400c8078
   \   0000005E   0x0006             MOVS     R6,R0
    969              break;
   \   00000060   0xE000             B.N      ??CMU_ClockEnable_7
    970          
    971            default: /* Cannot enable/disable clock point */
    972              EFM_ASSERT(0);
    973              return;
   \                     ??CMU_ClockEnable_1: (+1)
   \   00000062   0xE00E             B.N      ??CMU_ClockEnable_8
    974            }
    975          
    976            /* Get bit position used to enable/disable */
    977            bit = (clock >> CMU_EN_BIT_POS) & CMU_EN_BIT_MASK;
   \                     ??CMU_ClockEnable_7: (+1)
   \   00000064   0xF3C4 0x3004      UBFX     R0,R4,#+12,#+5
   \   00000068   0x0007             MOVS     R7,R0
    978          
    979            /* LF synchronization required? */
    980            if (sync)
   \   0000006A   0xF1B8 0x0F00      CMP      R8,#+0
   \   0000006E   0xD002             BEQ.N    ??CMU_ClockEnable_9
    981            {
    982              CMU_Sync(sync);
   \   00000070   0x4640             MOV      R0,R8
   \   00000072   0x.... 0x....      BL       CMU_Sync
    983            }
    984          
    985            /* Set/clear bit as requested */
    986            BITBAND_Peripheral(reg, bit, (unsigned int)enable);
   \                     ??CMU_ClockEnable_9: (+1)
   \   00000076   0xB2ED             UXTB     R5,R5            ;; ZeroExt  R5,R5,#+24,#+24
   \   00000078   0x002A             MOVS     R2,R5
   \   0000007A   0x0039             MOVS     R1,R7
   \   0000007C   0x0030             MOVS     R0,R6
   \   0000007E   0x.... 0x....      BL       BITBAND_Peripheral
    987          }
   \                     ??CMU_ClockEnable_8: (+1)
   \   00000082   0xE8BD 0x81F0      POP      {R4-R8,PC}       ;; return
    988          
    989          
    990          /***************************************************************************//**
    991           * @brief
    992           *   Get clock frequency for a clock point.
    993           *
    994           * @param[in] clock
    995           *   Clock point to fetch frequency for.
    996           *
    997           * @return
    998           *   The current frequency in Hz.
    999           ******************************************************************************/

   \                                 In section .text, align 2, keep-with-next
   1000          uint32_t CMU_ClockFreqGet(CMU_Clock_TypeDef clock)
   1001          {
   \                     CMU_ClockFreqGet: (+1)
   \   00000000   0xB538             PUSH     {R3-R5,LR}
   \   00000002   0x0004             MOVS     R4,R0
   1002            uint32_t ret;
   1003          
   1004            switch(clock & (CMU_CLK_BRANCH_MASK << CMU_CLK_BRANCH_POS))
   \   00000004   0xF414 0x1078      ANDS     R0,R4,#0x3E0000
   \   00000008   0x2800             CMP      R0,#+0
   \   0000000A   0xD024             BEQ.N    ??CMU_ClockFreqGet_0
   \   0000000C   0xF5B0 0x3F00      CMP      R0,#+131072
   \   00000010   0xD02D             BEQ.N    ??CMU_ClockFreqGet_1
   \   00000012   0xF5B0 0x2F80      CMP      R0,#+262144
   \   00000016   0xD03C             BEQ.N    ??CMU_ClockFreqGet_2
   \   00000018   0xF5B0 0x2FC0      CMP      R0,#+393216
   \   0000001C   0xD03D             BEQ.N    ??CMU_ClockFreqGet_3
   \   0000001E   0xF5B0 0x2F00      CMP      R0,#+524288
   \   00000022   0xD03F             BEQ.N    ??CMU_ClockFreqGet_4
   \   00000024   0xF5B0 0x2F20      CMP      R0,#+655360
   \   00000028   0xD047             BEQ.N    ??CMU_ClockFreqGet_5
   \   0000002A   0xF5B0 0x1F80      CMP      R0,#+1048576
   \   0000002E   0xD050             BEQ.N    ??CMU_ClockFreqGet_6
   \   00000030   0xF5B0 0x1F90      CMP      R0,#+1179648
   \   00000034   0xD058             BEQ.N    ??CMU_ClockFreqGet_7
   \   00000036   0xF5B0 0x1FA0      CMP      R0,#+1310720
   \   0000003A   0xD05A             BEQ.N    ??CMU_ClockFreqGet_8
   \   0000003C   0xF5B0 0x1FB0      CMP      R0,#+1441792
   \   00000040   0xD062             BEQ.N    ??CMU_ClockFreqGet_9
   \   00000042   0xF5B0 0x1FC0      CMP      R0,#+1572864
   \   00000046   0xD06A             BEQ.N    ??CMU_ClockFreqGet_10
   \   00000048   0xF5B0 0x1FD0      CMP      R0,#+1703936
   \   0000004C   0xD06B             BEQ.N    ??CMU_ClockFreqGet_11
   \   0000004E   0xF5B0 0x1FE0      CMP      R0,#+1835008
   \   00000052   0xD06C             BEQ.N    ??CMU_ClockFreqGet_12
   \   00000054   0xE06F             B.N      ??CMU_ClockFreqGet_13
   1005            {
   1006              case (CMU_HF_CLK_BRANCH << CMU_CLK_BRANCH_POS):
   1007              {
   1008                ret = SystemHFClockGet();
   \                     ??CMU_ClockFreqGet_0: (+1)
   \   00000056   0x.... 0x....      BL       SystemHFClockGet
   \   0000005A   0x0005             MOVS     R5,R0
   1009          #if defined(_EFM32_GIANT_FAMILY) || defined(_EFM32_WONDER_FAMILY)
   1010                /* Giant Gecko has an additional divider, not used by USBC */
   1011                ret = ret / (1 + ((CMU->CTRL & _CMU_CTRL_HFCLKDIV_MASK) >>
   1012                             _CMU_CTRL_HFCLKDIV_SHIFT));
   \   0000005C   0x.... 0x....      LDR.W    R0,??DataTable23_1  ;; 0x400c8000
   \   00000060   0x6800             LDR      R0,[R0, #+0]
   \   00000062   0xF3C0 0x3082      UBFX     R0,R0,#+14,#+3
   \   00000066   0x1C40             ADDS     R0,R0,#+1
   \   00000068   0xFBB5 0xF5F0      UDIV     R5,R5,R0
   1013          #endif
   1014              } break;
   \   0000006C   0xE065             B.N      ??CMU_ClockFreqGet_14
   1015          
   1016          #if defined(_CMU_HFPERCLKEN0_USART0_MASK) || \
   1017              defined(_CMU_HFPERCLKEN0_USART1_MASK) || \
   1018              defined(_CMU_HFPERCLKEN0_USART2_MASK) || \
   1019              defined(_CMU_HFPERCLKEN0_UART0_MASK) || \
   1020              defined(_CMU_HFPERCLKEN0_UART1_MASK) || \
   1021              defined(_CMU_HFPERCLKEN0_TIMER0_MASK) || \
   1022              defined(_CMU_HFPERCLKEN0_TIMER1_MASK) || \
   1023              defined(_CMU_HFPERCLKEN0_TIMER2_MASK) || \
   1024              defined(_CMU_HFPERCLKEN0_TIMER3_MASK) || \
   1025              defined(_CMU_HFPERCLKEN0_ACMP0_MASK) || \
   1026              defined(_CMU_HFPERCLKEN0_ACMP1_MASK) || \
   1027              defined(_CMU_HFPERCLKEN0_DAC0_MASK) || \
   1028              defined(_CMU_HFPERCLKEN0_ADC0_MASK) || \
   1029              defined(_CMU_HFPERCLKEN0_I2C0_MASK) || \
   1030              defined(_CMU_HFPERCLKEN0_I2C1_MASK) || \
   1031              defined(PRS_PRESENT) || \
   1032              defined(VCMP_PRESENT)|| \
   1033              defined(GPIO_PRESENT)
   1034              case (CMU_HFPER_CLK_BRANCH << CMU_CLK_BRANCH_POS):
   1035              {
   1036                ret   = SystemHFClockGet();
   \                     ??CMU_ClockFreqGet_1: (+1)
   \   0000006E   0x.... 0x....      BL       SystemHFClockGet
   \   00000072   0x0005             MOVS     R5,R0
   1037          #if defined (_EFM32_GIANT_FAMILY) || defined(_EFM32_WONDER_FAMILY)
   1038                /* Leopard/Giant Gecko has an additional divider */
   1039                ret = ret / (1 + ((CMU->CTRL & _CMU_CTRL_HFCLKDIV_MASK) >>
   1040                                  _CMU_CTRL_HFCLKDIV_SHIFT));
   \   00000074   0x.... 0x....      LDR.W    R0,??DataTable23_1  ;; 0x400c8000
   \   00000078   0x6800             LDR      R0,[R0, #+0]
   \   0000007A   0xF3C0 0x3082      UBFX     R0,R0,#+14,#+3
   \   0000007E   0x1C40             ADDS     R0,R0,#+1
   \   00000080   0xFBB5 0xF5F0      UDIV     R5,R5,R0
   1041          #endif
   1042                ret >>= (CMU->HFPERCLKDIV & _CMU_HFPERCLKDIV_HFPERCLKDIV_MASK) >>
   1043                        _CMU_HFPERCLKDIV_HFPERCLKDIV_SHIFT;
   \   00000084   0x.... 0x....      LDR.W    R0,??DataTable26_1  ;; 0x400c8008
   \   00000088   0x6800             LDR      R0,[R0, #+0]
   \   0000008A   0xF010 0x000F      ANDS     R0,R0,#0xF
   \   0000008E   0x40C5             LSRS     R5,R5,R0
   1044              } break;
   \   00000090   0xE053             B.N      ??CMU_ClockFreqGet_14
   1045          #endif
   1046          
   1047          #if defined(AES_PRESENT) || \
   1048              defined(DMA_PRESENT) || \
   1049              defined(EBI_PRESENT) || \
   1050              defined(USB_PRESENT)
   1051              case (CMU_HFCORE_CLK_BRANCH << CMU_CLK_BRANCH_POS):
   1052              {
   1053                ret = SystemCoreClockGet();
   \                     ??CMU_ClockFreqGet_2: (+1)
   \   00000092   0x.... 0x....      BL       SystemCoreClockGet
   \   00000096   0x0005             MOVS     R5,R0
   1054              } break;
   \   00000098   0xE04F             B.N      ??CMU_ClockFreqGet_14
   1055          #endif
   1056          
   1057              case (CMU_LFA_CLK_BRANCH << CMU_CLK_BRANCH_POS):
   1058              {
   1059                ret = CMU_LFClkGet(CMU_LFA);
   \                     ??CMU_ClockFreqGet_3: (+1)
   \   0000009A   0x2000             MOVS     R0,#+0
   \   0000009C   0x.... 0x....      BL       CMU_LFClkGet
   \   000000A0   0x0005             MOVS     R5,R0
   1060              } break;
   \   000000A2   0xE04A             B.N      ??CMU_ClockFreqGet_14
   1061          #if defined(_CMU_LFACLKEN0_RTC_MASK)
   1062              case (CMU_RTC_CLK_BRANCH << CMU_CLK_BRANCH_POS):
   1063              {
   1064                ret   = CMU_LFClkGet(CMU_LFA);
   \                     ??CMU_ClockFreqGet_4: (+1)
   \   000000A4   0x2000             MOVS     R0,#+0
   \   000000A6   0x.... 0x....      BL       CMU_LFClkGet
   \   000000AA   0x0005             MOVS     R5,R0
   1065                ret >>= (CMU->LFAPRESC0 & _CMU_LFAPRESC0_RTC_MASK) >>
   1066                        _CMU_LFAPRESC0_RTC_SHIFT;
   \   000000AC   0x.... 0x....      LDR.W    R0,??DataTable26_5  ;; 0x400c8068
   \   000000B0   0x6800             LDR      R0,[R0, #+0]
   \   000000B2   0xF3C0 0x1003      UBFX     R0,R0,#+4,#+4
   \   000000B6   0x40C5             LSRS     R5,R5,R0
   1067              } break;
   \   000000B8   0xE03F             B.N      ??CMU_ClockFreqGet_14
   1068          #endif
   1069          #if defined(_CMU_LFACLKEN0_LETIMER0_MASK)
   1070              case (CMU_LETIMER_CLK_BRANCH << CMU_CLK_BRANCH_POS):
   1071              {
   1072                ret   = CMU_LFClkGet(CMU_LFA);
   \                     ??CMU_ClockFreqGet_5: (+1)
   \   000000BA   0x2000             MOVS     R0,#+0
   \   000000BC   0x.... 0x....      BL       CMU_LFClkGet
   \   000000C0   0x0005             MOVS     R5,R0
   1073                ret >>= (CMU->LFAPRESC0 & _CMU_LFAPRESC0_LETIMER0_MASK) >>
   1074                        _CMU_LFAPRESC0_LETIMER0_SHIFT;
   \   000000C2   0x.... 0x....      LDR.W    R0,??DataTable26_5  ;; 0x400c8068
   \   000000C6   0x6800             LDR      R0,[R0, #+0]
   \   000000C8   0x0A00             LSRS     R0,R0,#+8
   \   000000CA   0xF010 0x000F      ANDS     R0,R0,#0xF
   \   000000CE   0x40C5             LSRS     R5,R5,R0
   1075              } break;
   \   000000D0   0xE033             B.N      ??CMU_ClockFreqGet_14
   1076          #endif
   1077          #if defined(_CMU_LFACLKEN0_LCD_MASK)
   1078              case (CMU_LCDPRE_CLK_BRANCH << CMU_CLK_BRANCH_POS):
   1079              {
   1080                ret   = CMU_LFClkGet(CMU_LFA);
   1081                ret >>= ((CMU->LFAPRESC0 & _CMU_LFAPRESC0_LCD_MASK) >>
   1082                        _CMU_LFAPRESC0_LCD_SHIFT) + CMU_DivToLog2(cmuClkDiv_16);
   1083              } break;
   1084          
   1085              case (CMU_LCD_CLK_BRANCH << CMU_CLK_BRANCH_POS):
   1086              {
   1087                ret   = CMU_LFClkGet(CMU_LFA);
   1088                ret >>= (CMU->LFAPRESC0 & _CMU_LFAPRESC0_LCD_MASK) >>
   1089                        _CMU_LFAPRESC0_LCD_SHIFT;
   1090                ret /= (1 + ((CMU->LCDCTRL & _CMU_LCDCTRL_FDIV_MASK) >>
   1091                             _CMU_LCDCTRL_FDIV_SHIFT));
   1092              } break;
   1093          #endif
   1094          #if defined(_CMU_LFACLKEN0_LESENSE_MASK)
   1095              case (CMU_LESENSE_CLK_BRANCH << CMU_CLK_BRANCH_POS):
   1096              {
   1097                ret   = CMU_LFClkGet(CMU_LFA);
   \                     ??CMU_ClockFreqGet_6: (+1)
   \   000000D2   0x2000             MOVS     R0,#+0
   \   000000D4   0x.... 0x....      BL       CMU_LFClkGet
   \   000000D8   0x0005             MOVS     R5,R0
   1098                ret >>= (CMU->LFAPRESC0 & _CMU_LFAPRESC0_LESENSE_MASK) >>
   1099                        _CMU_LFAPRESC0_LESENSE_SHIFT;
   \   000000DA   0x.... 0x....      LDR.W    R0,??DataTable26_5  ;; 0x400c8068
   \   000000DE   0x6800             LDR      R0,[R0, #+0]
   \   000000E0   0xF010 0x0003      ANDS     R0,R0,#0x3
   \   000000E4   0x40C5             LSRS     R5,R5,R0
   1100              } break;
   \   000000E6   0xE028             B.N      ??CMU_ClockFreqGet_14
   1101          #endif
   1102              case (CMU_LFB_CLK_BRANCH << CMU_CLK_BRANCH_POS):
   1103              {
   1104                ret = CMU_LFClkGet(CMU_LFB);
   \                     ??CMU_ClockFreqGet_7: (+1)
   \   000000E8   0x2001             MOVS     R0,#+1
   \   000000EA   0x.... 0x....      BL       CMU_LFClkGet
   \   000000EE   0x0005             MOVS     R5,R0
   1105              } break;
   \   000000F0   0xE023             B.N      ??CMU_ClockFreqGet_14
   1106          #if defined(_CMU_LFBCLKEN0_LEUART0_MASK)
   1107              case (CMU_LEUART0_CLK_BRANCH << CMU_CLK_BRANCH_POS):
   1108              {
   1109                ret   = CMU_LFClkGet(CMU_LFB);
   \                     ??CMU_ClockFreqGet_8: (+1)
   \   000000F2   0x2001             MOVS     R0,#+1
   \   000000F4   0x.... 0x....      BL       CMU_LFClkGet
   \   000000F8   0x0005             MOVS     R5,R0
   1110                ret >>= (CMU->LFBPRESC0 & _CMU_LFBPRESC0_LEUART0_MASK) >>
   1111                        _CMU_LFBPRESC0_LEUART0_SHIFT;
   \   000000FA   0x.... 0x....      LDR.W    R0,??DataTable26_8  ;; 0x400c8070
   \   000000FE   0x6800             LDR      R0,[R0, #+0]
   \   00000100   0xF010 0x0003      ANDS     R0,R0,#0x3
   \   00000104   0x40C5             LSRS     R5,R5,R0
   1112              } break;
   \   00000106   0xE018             B.N      ??CMU_ClockFreqGet_14
   1113          #endif
   1114          #if defined(_CMU_LFBCLKEN0_LEUART1_MASK)
   1115              case (CMU_LEUART1_CLK_BRANCH << CMU_CLK_BRANCH_POS):
   1116              {
   1117                ret   = CMU_LFClkGet(CMU_LFB);
   \                     ??CMU_ClockFreqGet_9: (+1)
   \   00000108   0x2001             MOVS     R0,#+1
   \   0000010A   0x.... 0x....      BL       CMU_LFClkGet
   \   0000010E   0x0005             MOVS     R5,R0
   1118                ret >>= (CMU->LFBPRESC0 & _CMU_LFBPRESC0_LEUART1_MASK) >>
   1119                  _CMU_LFBPRESC0_LEUART1_SHIFT;
   \   00000110   0x.... 0x....      LDR.W    R0,??DataTable26_8  ;; 0x400c8070
   \   00000114   0x6800             LDR      R0,[R0, #+0]
   \   00000116   0xF3C0 0x1001      UBFX     R0,R0,#+4,#+2
   \   0000011A   0x40C5             LSRS     R5,R5,R0
   1120              } break;
   \   0000011C   0xE00D             B.N      ??CMU_ClockFreqGet_14
   1121          #endif
   1122          
   1123              case (CMU_DBG_CLK_BRANCH << CMU_CLK_BRANCH_POS):
   1124              {
   1125                ret  = CMU_DBGClkGet();
   \                     ??CMU_ClockFreqGet_10: (+1)
   \   0000011E   0x.... 0x....      BL       CMU_DBGClkGet
   \   00000122   0x0005             MOVS     R5,R0
   1126              } break;
   \   00000124   0xE009             B.N      ??CMU_ClockFreqGet_14
   1127          
   1128              case (CMU_AUX_CLK_BRANCH << CMU_CLK_BRANCH_POS):
   1129              {
   1130                ret  = CMU_AUXClkGet();
   \                     ??CMU_ClockFreqGet_11: (+1)
   \   00000126   0x.... 0x....      BL       CMU_AUXClkGet
   \   0000012A   0x0005             MOVS     R5,R0
   1131              } break;
   \   0000012C   0xE005             B.N      ??CMU_ClockFreqGet_14
   1132          
   1133          #if defined(USB_PRESENT)
   1134              case (CMU_USBC_CLK_BRANCH << CMU_CLK_BRANCH_POS):
   1135              {
   1136                ret = CMU_USBCClkGet();
   \                     ??CMU_ClockFreqGet_12: (+1)
   \   0000012E   0x.... 0x....      BL       CMU_USBCClkGet
   \   00000132   0x0005             MOVS     R5,R0
   1137              } break;
   \   00000134   0xE001             B.N      ??CMU_ClockFreqGet_14
   1138          #endif
   1139              default:
   1140              {
   1141                EFM_ASSERT(0);
   1142                ret = 0;
   \                     ??CMU_ClockFreqGet_13: (+1)
   \   00000136   0x2000             MOVS     R0,#+0
   \   00000138   0x0005             MOVS     R5,R0
   1143              } break;
   1144            }
   1145            return ret;
   \                     ??CMU_ClockFreqGet_14: (+1)
   \   0000013A   0x0028             MOVS     R0,R5
   \   0000013C   0xBD32             POP      {R1,R4,R5,PC}    ;; return
   1146          }
   1147          
   1148          
   1149          /**************************************************************************//**
   1150           * @brief
   1151           *   Get currently selected reference clock used for a clock branch.
   1152           *
   1153           * @param[in] clock
   1154           *   Clock branch to fetch selected ref. clock for. One of:
   1155           *   @li #cmuClock_HF
   1156           *   @li #cmuClock_LFA
   1157           *   @li #cmuClock_LFB
   1158           *   @li #cmuClock_USBC
   1159           *   @li #cmuClock_DBG
   1160           *
   1161           * @return
   1162           *   Reference clock used for clocking selected branch, #cmuSelect_Error if
   1163           *   invalid @p clock provided.
   1164           *****************************************************************************/

   \                                 In section .text, align 2, keep-with-next
   1165          CMU_Select_TypeDef CMU_ClockSelectGet(CMU_Clock_TypeDef clock)
   1166          {
   \                     CMU_ClockSelectGet: (+1)
   \   00000000   0x0001             MOVS     R1,R0
   1167            CMU_Select_TypeDef ret = cmuSelect_Disabled;
   \   00000002   0x2001             MOVS     R0,#+1
   1168            uint32_t           selReg;
   1169          
   1170            selReg = (clock >> CMU_SEL_REG_POS) & CMU_SEL_REG_MASK;
   \   00000004   0xF011 0x030F      ANDS     R3,R1,#0xF
   \   00000008   0x001A             MOVS     R2,R3
   1171          
   1172            switch (selReg)
   \   0000000A   0x2A01             CMP      R2,#+1
   \   0000000C   0xD008             BEQ.N    ??CMU_ClockSelectGet_0
   \   0000000E   0xF0C0 0x8089      BCC.W    ??CMU_ClockSelectGet_1
   \   00000012   0x2A03             CMP      R2,#+3
   \   00000014   0xD03C             BEQ.N    ??CMU_ClockSelectGet_2
   \   00000016   0xD31D             BCC.N    ??CMU_ClockSelectGet_3
   \   00000018   0x2A05             CMP      R2,#+5
   \   0000001A   0xD068             BEQ.N    ??CMU_ClockSelectGet_4
   \   0000001C   0xD356             BCC.N    ??CMU_ClockSelectGet_5
   \   0000001E   0xE081             B.N      ??CMU_ClockSelectGet_1
   1173            {
   1174            case CMU_HFCLKSEL_REG:
   1175              switch (CMU->STATUS & (CMU_STATUS_HFRCOSEL | CMU_STATUS_HFXOSEL |
   1176                                     CMU_STATUS_LFRCOSEL | CMU_STATUS_LFXOSEL))
   \                     ??CMU_ClockSelectGet_0: (+1)
   \   00000020   0x.... 0x....      LDR.W    R3,??DataTable24_2  ;; 0x400c802c
   \   00000024   0x681B             LDR      R3,[R3, #+0]
   \   00000026   0xF413 0x5370      ANDS     R3,R3,#0x3C00
   \   0000002A   0xF5B3 0x6F00      CMP      R3,#+2048
   \   0000002E   0xD00B             BEQ.N    ??CMU_ClockSelectGet_6
   \   00000030   0xF5B3 0x5F80      CMP      R3,#+4096
   \   00000034   0xD005             BEQ.N    ??CMU_ClockSelectGet_7
   \   00000036   0xF5B3 0x5F00      CMP      R3,#+8192
   \   0000003A   0xD108             BNE.N    ??CMU_ClockSelectGet_8
   1177              {
   1178              case CMU_STATUS_LFXOSEL:
   1179                ret = cmuSelect_LFXO;
   \                     ??CMU_ClockSelectGet_9: (+1)
   \   0000003C   0x2302             MOVS     R3,#+2
   \   0000003E   0x0018             MOVS     R0,R3
   1180                break;
   \   00000040   0xE007             B.N      ??CMU_ClockSelectGet_10
   1181          
   1182              case CMU_STATUS_LFRCOSEL:
   1183                ret = cmuSelect_LFRCO;
   \                     ??CMU_ClockSelectGet_7: (+1)
   \   00000042   0x2303             MOVS     R3,#+3
   \   00000044   0x0018             MOVS     R0,R3
   1184                break;
   \   00000046   0xE004             B.N      ??CMU_ClockSelectGet_10
   1185          
   1186              case CMU_STATUS_HFXOSEL:
   1187                ret = cmuSelect_HFXO;
   \                     ??CMU_ClockSelectGet_6: (+1)
   \   00000048   0x2304             MOVS     R3,#+4
   \   0000004A   0x0018             MOVS     R0,R3
   1188                break;
   \   0000004C   0xE001             B.N      ??CMU_ClockSelectGet_10
   1189          
   1190              default:
   1191                ret = cmuSelect_HFRCO;
   \                     ??CMU_ClockSelectGet_8: (+1)
   \   0000004E   0x2305             MOVS     R3,#+5
   \   00000050   0x0018             MOVS     R0,R3
   1192                break;
   1193              }
   1194              break;
   \                     ??CMU_ClockSelectGet_10: (+1)
   \   00000052   0xE069             B.N      ??CMU_ClockSelectGet_11
   1195          
   1196            case CMU_LFACLKSEL_REG:
   1197              switch (CMU->LFCLKSEL & _CMU_LFCLKSEL_LFA_MASK)
   \                     ??CMU_ClockSelectGet_3: (+1)
   \   00000054   0x.... 0x....      LDR.W    R3,??DataTable24  ;; 0x400c8028
   \   00000058   0x681B             LDR      R3,[R3, #+0]
   \   0000005A   0xF013 0x0303      ANDS     R3,R3,#0x3
   \   0000005E   0x2B01             CMP      R3,#+1
   \   00000060   0xD004             BEQ.N    ??CMU_ClockSelectGet_12
   \   00000062   0xD30C             BCC.N    ??CMU_ClockSelectGet_13
   \   00000064   0x2B03             CMP      R3,#+3
   \   00000066   0xD007             BEQ.N    ??CMU_ClockSelectGet_14
   \   00000068   0xD303             BCC.N    ??CMU_ClockSelectGet_15
   \   0000006A   0xE008             B.N      ??CMU_ClockSelectGet_13
   1198              {
   1199              case CMU_LFCLKSEL_LFA_LFRCO:
   1200                ret = cmuSelect_LFRCO;
   \                     ??CMU_ClockSelectGet_12: (+1)
   \   0000006C   0x2303             MOVS     R3,#+3
   \   0000006E   0x0018             MOVS     R0,R3
   1201                break;
   \   00000070   0xE00D             B.N      ??CMU_ClockSelectGet_16
   1202          
   1203              case CMU_LFCLKSEL_LFA_LFXO:
   1204                ret = cmuSelect_LFXO;
   \                     ??CMU_ClockSelectGet_15: (+1)
   \   00000072   0x2302             MOVS     R3,#+2
   \   00000074   0x0018             MOVS     R0,R3
   1205                break;
   \   00000076   0xE00A             B.N      ??CMU_ClockSelectGet_16
   1206          
   1207              case CMU_LFCLKSEL_LFA_HFCORECLKLEDIV2:
   1208                ret = cmuSelect_CORELEDIV2;
   \                     ??CMU_ClockSelectGet_14: (+1)
   \   00000078   0x2306             MOVS     R3,#+6
   \   0000007A   0x0018             MOVS     R0,R3
   1209                break;
   \   0000007C   0xE007             B.N      ??CMU_ClockSelectGet_16
   1210          
   1211              default:
   1212          #if defined(_EFM32_TINY_FAMILY) || defined(_EFM32_GIANT_FAMILY) || defined(_EFM32_WONDER_FAMILY)
   1213                if (CMU->LFCLKSEL & _CMU_LFCLKSEL_LFAE_MASK)
   \                     ??CMU_ClockSelectGet_13: (+1)
   \   0000007E   0x.... 0x....      LDR.W    R3,??DataTable24  ;; 0x400c8028
   \   00000082   0x681B             LDR      R3,[R3, #+0]
   \   00000084   0x03DB             LSLS     R3,R3,#+15
   \   00000086   0xD502             BPL.N    ??CMU_ClockSelectGet_17
   1214                {
   1215                  ret = cmuSelect_ULFRCO;
   \   00000088   0x2309             MOVS     R3,#+9
   \   0000008A   0x0018             MOVS     R0,R3
   1216                  break;
   \   0000008C   0xE7FF             B.N      ??CMU_ClockSelectGet_16
   1217                }
   1218          #else
   1219                ret = cmuSelect_Disabled;
   1220          #endif
   1221                break;
   1222              }
   1223              break;
   \                     ??CMU_ClockSelectGet_17: (+1)
   \                     ??CMU_ClockSelectGet_16: (+1)
   \   0000008E   0xE04B             B.N      ??CMU_ClockSelectGet_11
   1224          
   1225            case CMU_LFBCLKSEL_REG:
   1226              switch (CMU->LFCLKSEL & _CMU_LFCLKSEL_LFB_MASK)
   \                     ??CMU_ClockSelectGet_2: (+1)
   \   00000090   0x.... 0x....      LDR.W    R3,??DataTable24  ;; 0x400c8028
   \   00000094   0x681B             LDR      R3,[R3, #+0]
   \   00000096   0xF013 0x030C      ANDS     R3,R3,#0xC
   \   0000009A   0x2B04             CMP      R3,#+4
   \   0000009C   0xD004             BEQ.N    ??CMU_ClockSelectGet_18
   \   0000009E   0x2B08             CMP      R3,#+8
   \   000000A0   0xD005             BEQ.N    ??CMU_ClockSelectGet_19
   \   000000A2   0x2B0C             CMP      R3,#+12
   \   000000A4   0xD006             BEQ.N    ??CMU_ClockSelectGet_20
   \   000000A6   0xE008             B.N      ??CMU_ClockSelectGet_21
   1227              {
   1228              case CMU_LFCLKSEL_LFB_LFRCO:
   1229                ret = cmuSelect_LFRCO;
   \                     ??CMU_ClockSelectGet_18: (+1)
   \   000000A8   0x2303             MOVS     R3,#+3
   \   000000AA   0x0018             MOVS     R0,R3
   1230                break;
   \   000000AC   0xE00D             B.N      ??CMU_ClockSelectGet_22
   1231          
   1232              case CMU_LFCLKSEL_LFB_LFXO:
   1233                ret = cmuSelect_LFXO;
   \                     ??CMU_ClockSelectGet_19: (+1)
   \   000000AE   0x2302             MOVS     R3,#+2
   \   000000B0   0x0018             MOVS     R0,R3
   1234                break;
   \   000000B2   0xE00A             B.N      ??CMU_ClockSelectGet_22
   1235          
   1236              case CMU_LFCLKSEL_LFB_HFCORECLKLEDIV2:
   1237                ret = cmuSelect_CORELEDIV2;
   \                     ??CMU_ClockSelectGet_20: (+1)
   \   000000B4   0x2306             MOVS     R3,#+6
   \   000000B6   0x0018             MOVS     R0,R3
   1238                break;
   \   000000B8   0xE007             B.N      ??CMU_ClockSelectGet_22
   1239          
   1240              default:
   1241          #if defined(_EFM32_TINY_FAMILY) || defined(_EFM32_GIANT_FAMILY) || defined(_EFM32_WONDER_FAMILY)
   1242                if (CMU->LFCLKSEL & _CMU_LFCLKSEL_LFBE_MASK)
   \                     ??CMU_ClockSelectGet_21: (+1)
   \   000000BA   0x.... 0x....      LDR.W    R3,??DataTable24  ;; 0x400c8028
   \   000000BE   0x681B             LDR      R3,[R3, #+0]
   \   000000C0   0x02DB             LSLS     R3,R3,#+11
   \   000000C2   0xD502             BPL.N    ??CMU_ClockSelectGet_23
   1243                {
   1244                  ret = cmuSelect_ULFRCO;
   \   000000C4   0x2309             MOVS     R3,#+9
   \   000000C6   0x0018             MOVS     R0,R3
   1245                  break;
   \   000000C8   0xE7FF             B.N      ??CMU_ClockSelectGet_22
   1246                }
   1247          #else
   1248                ret = cmuSelect_Disabled;
   1249          #endif
   1250                break;
   1251              }
   1252              break;
   \                     ??CMU_ClockSelectGet_23: (+1)
   \                     ??CMU_ClockSelectGet_22: (+1)
   \   000000CA   0xE02D             B.N      ??CMU_ClockSelectGet_11
   1253          
   1254            case CMU_DBGCLKSEL_REG:
   1255          #if defined(_EFM32_TINY_FAMILY) || defined(_EFM32_GIANT_FAMILY) || defined(_EFM32_WONDER_FAMILY)
   1256              switch(CMU->CTRL & _CMU_CTRL_DBGCLK_MASK)
   \                     ??CMU_ClockSelectGet_5: (+1)
   \   000000CC   0x.... 0x....      LDR.W    R3,??DataTable23_1  ;; 0x400c8000
   \   000000D0   0x681B             LDR      R3,[R3, #+0]
   \   000000D2   0xF013 0x5380      ANDS     R3,R3,#0x10000000
   \   000000D6   0x2B00             CMP      R3,#+0
   \   000000D8   0xD003             BEQ.N    ??CMU_ClockSelectGet_24
   \   000000DA   0xF1B3 0x5F80      CMP      R3,#+268435456
   \   000000DE   0xD003             BEQ.N    ??CMU_ClockSelectGet_25
   \   000000E0   0xE004             B.N      ??CMU_ClockSelectGet_26
   1257              {
   1258              case CMU_CTRL_DBGCLK_AUXHFRCO:
   1259                ret = cmuSelect_AUXHFRCO;
   \                     ??CMU_ClockSelectGet_24: (+1)
   \   000000E2   0x2307             MOVS     R3,#+7
   \   000000E4   0x0018             MOVS     R0,R3
   1260                break;
   \   000000E6   0xE001             B.N      ??CMU_ClockSelectGet_26
   1261          
   1262              case CMU_CTRL_DBGCLK_HFCLK:
   1263                ret = cmuSelect_HFCLK;
   \                     ??CMU_ClockSelectGet_25: (+1)
   \   000000E8   0x2308             MOVS     R3,#+8
   \   000000EA   0x0018             MOVS     R0,R3
   1264                break;
   1265              }
   1266          #endif
   1267          #if defined(_EFM32_GECKO_FAMILY)
   1268              ret = cmuSelect_AUXHFRCO;
   1269          #endif
   1270              break;
   \                     ??CMU_ClockSelectGet_26: (+1)
   \   000000EC   0xE01C             B.N      ??CMU_ClockSelectGet_11
   1271          
   1272          
   1273          #if defined(USB_PRESENT)
   1274            case CMU_USBCCLKSEL_REG:
   1275              switch(CMU->STATUS & (CMU_STATUS_USBCHFCLKSEL |
   1276                                    CMU_STATUS_USBCLFXOSEL |
   1277                                    CMU_STATUS_USBCLFRCOSEL))
   \                     ??CMU_ClockSelectGet_4: (+1)
   \   000000EE   0x.... 0x....      LDR.W    R3,??DataTable24_2  ;; 0x400c802c
   \   000000F2   0x681B             LDR      R3,[R3, #+0]
   \   000000F4   0xF413 0x3360      ANDS     R3,R3,#0x38000
   \   000000F8   0xF5B3 0x4F00      CMP      R3,#+32768
   \   000000FC   0xD006             BEQ.N    ??CMU_ClockSelectGet_27
   \   000000FE   0xF5B3 0x3F80      CMP      R3,#+65536
   \   00000102   0xD006             BEQ.N    ??CMU_ClockSelectGet_28
   \   00000104   0xF5B3 0x3F00      CMP      R3,#+131072
   \   00000108   0xD006             BEQ.N    ??CMU_ClockSelectGet_29
   \   0000010A   0xE008             B.N      ??CMU_ClockSelectGet_30
   1278              {
   1279              case CMU_STATUS_USBCHFCLKSEL:
   1280                ret = cmuSelect_HFCLK;
   \                     ??CMU_ClockSelectGet_27: (+1)
   \   0000010C   0x2308             MOVS     R3,#+8
   \   0000010E   0x0018             MOVS     R0,R3
   1281                break;
   \   00000110   0xE007             B.N      ??CMU_ClockSelectGet_31
   1282          
   1283              case CMU_STATUS_USBCLFXOSEL:
   1284                ret = cmuSelect_LFXO;
   \                     ??CMU_ClockSelectGet_28: (+1)
   \   00000112   0x2302             MOVS     R3,#+2
   \   00000114   0x0018             MOVS     R0,R3
   1285                break;
   \   00000116   0xE004             B.N      ??CMU_ClockSelectGet_31
   1286          
   1287              case CMU_STATUS_USBCLFRCOSEL:
   1288                ret = cmuSelect_LFRCO;
   \                     ??CMU_ClockSelectGet_29: (+1)
   \   00000118   0x2303             MOVS     R3,#+3
   \   0000011A   0x0018             MOVS     R0,R3
   1289                break;
   \   0000011C   0xE001             B.N      ??CMU_ClockSelectGet_31
   1290          
   1291              default:
   1292                ret = cmuSelect_Disabled;
   \                     ??CMU_ClockSelectGet_30: (+1)
   \   0000011E   0x2301             MOVS     R3,#+1
   \   00000120   0x0018             MOVS     R0,R3
   1293                break;
   1294              }
   1295              break;
   \                     ??CMU_ClockSelectGet_31: (+1)
   \   00000122   0xE001             B.N      ??CMU_ClockSelectGet_11
   1296          #endif
   1297          
   1298            default:
   1299              EFM_ASSERT(0);
   1300              ret = cmuSelect_Error;
   \                     ??CMU_ClockSelectGet_1: (+1)
   \   00000124   0x2300             MOVS     R3,#+0
   \   00000126   0x0018             MOVS     R0,R3
   1301              break;
   1302            }
   1303          
   1304            return ret;
   \                     ??CMU_ClockSelectGet_11: (+1)
   \   00000128   0xB2C0             UXTB     R0,R0            ;; ZeroExt  R0,R0,#+24,#+24
   \   0000012A   0x4770             BX       LR               ;; return
   1305          }
   1306          
   1307          
   1308          /**************************************************************************//**
   1309           * @brief
   1310           *   Select reference clock/oscillator used for a clock branch.
   1311           *
   1312           * @details
   1313           *   Notice that if a selected reference is not enabled prior to selecting its
   1314           *   use, it will be enabled, and this function will wait for the selected
   1315           *   oscillator to be stable. It will however NOT be disabled if another
   1316           *   reference clock is selected later.
   1317           *
   1318           *   This feature is particularly important if selecting a new reference
   1319           *   clock for the clock branch clocking the core, otherwise the system
   1320           *   may halt.
   1321           *
   1322           * @param[in] clock
   1323           *   Clock branch to select reference clock for. One of:
   1324           *   @li #cmuClock_HF
   1325           *   @li #cmuClock_LFA
   1326           *   @li #cmuClock_LFB
   1327           *   @li #cmuClock_USBC
   1328           *   @li #cmuClock_DBG
   1329           *
   1330           * @param[in] ref
   1331           *   Reference selected for clocking, please refer to reference manual for
   1332           *   for details on which reference is available for a specific clock branch.
   1333           *   @li #cmuSelect_HFRCO
   1334           *   @li #cmuSelect_LFRCO
   1335           *   @li #cmuSelect_HFXO
   1336           *   @li #cmuSelect_LFXO
   1337           *   @li #cmuSelect_CORELEDIV2
   1338           *   @li #cmuSelect_AUXHFRC
   1339           *   @li #cmuSelect_HFCLK
   1340           *   @li #cmuSelect_ULFRCO
   1341           *****************************************************************************/

   \                                 In section .text, align 2, keep-with-next
   1342          void CMU_ClockSelectSet(CMU_Clock_TypeDef clock, CMU_Select_TypeDef ref)
   1343          {
   \                     CMU_ClockSelectSet: (+1)
   \   00000000   0xE92D 0x4FF8      PUSH     {R3-R11,LR}
   \   00000004   0x0004             MOVS     R4,R0
   \   00000006   0x000D             MOVS     R5,R1
   1344            uint32_t        select = cmuOsc_HFRCO;
   \   00000008   0x2603             MOVS     R6,#+3
   1345            CMU_Osc_TypeDef osc    = cmuOsc_HFRCO;
   \   0000000A   0x2703             MOVS     R7,#+3
   1346            uint32_t        freq;
   1347            uint32_t        selReg;
   1348          #if defined(_EFM32_TINY_FAMILY) || defined(_EFM32_GIANT_FAMILY) || defined(_EFM32_WONDER_FAMILY)
   1349            uint32_t        lfExtended = 0;
   \   0000000C   0xF05F 0x0A00      MOVS     R10,#+0
   1350          #endif
   1351            uint32_t        tmp;
   1352          
   1353            selReg = (clock >> CMU_SEL_REG_POS) & CMU_SEL_REG_MASK;
   \   00000010   0xF014 0x000F      ANDS     R0,R4,#0xF
   \   00000014   0x4681             MOV      R9,R0
   1354          
   1355            switch (selReg)
   \   00000016   0xF1B9 0x0F01      CMP      R9,#+1
   \   0000001A   0xD00C             BEQ.N    ??CMU_ClockSelectSet_0
   \   0000001C   0xF0C0 0x8107      BCC.W    ??CMU_ClockSelectSet_1
   \   00000020   0xF1B9 0x0F03      CMP      R9,#+3
   \   00000024   0xD058             BEQ.N    ??CMU_ClockSelectSet_2
   \   00000026   0xD357             BCC.N    ??CMU_ClockSelectSet_2
   \   00000028   0xF1B9 0x0F05      CMP      R9,#+5
   \   0000002C   0xF000 0x80CF      BEQ.W    ??CMU_ClockSelectSet_3
   \   00000030   0xF0C0 0x80B2      BCC.W    ??CMU_ClockSelectSet_4
   \   00000034   0xE0FB             B.N      ??CMU_ClockSelectSet_1
   1356            {
   1357            case CMU_HFCLKSEL_REG:
   1358              switch (ref)
   \                     ??CMU_ClockSelectSet_0: (+1)
   \   00000036   0xB2ED             UXTB     R5,R5            ;; ZeroExt  R5,R5,#+24,#+24
   \   00000038   0x0028             MOVS     R0,R5
   \   0000003A   0x2802             CMP      R0,#+2
   \   0000003C   0xD008             BEQ.N    ??CMU_ClockSelectSet_5
   \   0000003E   0x2803             CMP      R0,#+3
   \   00000040   0xD00B             BEQ.N    ??CMU_ClockSelectSet_6
   \   00000042   0x2804             CMP      R0,#+4
   \   00000044   0xD00E             BEQ.N    ??CMU_ClockSelectSet_7
   \   00000046   0x2805             CMP      R0,#+5
   \   00000048   0xD02B             BEQ.N    ??CMU_ClockSelectSet_8
   \   0000004A   0x2809             CMP      R0,#+9
   \   0000004C   0xD02E             BEQ.N    ??CMU_ClockSelectSet_9
   \   0000004E   0xE02E             B.N      ??CMU_ClockSelectSet_10
   1359              {
   1360              case cmuSelect_LFXO:
   1361                select = CMU_CMD_HFCLKSEL_LFXO;
   \                     ??CMU_ClockSelectSet_5: (+1)
   \   00000050   0x2004             MOVS     R0,#+4
   \   00000052   0x0006             MOVS     R6,R0
   1362                osc    = cmuOsc_LFXO;
   \   00000054   0x2000             MOVS     R0,#+0
   \   00000056   0x0007             MOVS     R7,R0
   1363                break;
   \   00000058   0xE02A             B.N      ??CMU_ClockSelectSet_11
   1364          
   1365              case cmuSelect_LFRCO:
   1366                select = CMU_CMD_HFCLKSEL_LFRCO;
   \                     ??CMU_ClockSelectSet_6: (+1)
   \   0000005A   0x2003             MOVS     R0,#+3
   \   0000005C   0x0006             MOVS     R6,R0
   1367                osc    = cmuOsc_LFRCO;
   \   0000005E   0x2001             MOVS     R0,#+1
   \   00000060   0x0007             MOVS     R7,R0
   1368                break;
   \   00000062   0xE025             B.N      ??CMU_ClockSelectSet_11
   1369          
   1370              case cmuSelect_HFXO:
   1371                select = CMU_CMD_HFCLKSEL_HFXO;
   \                     ??CMU_ClockSelectSet_7: (+1)
   \   00000064   0x2002             MOVS     R0,#+2
   \   00000066   0x0006             MOVS     R6,R0
   1372                osc    = cmuOsc_HFXO;
   \   00000068   0x2002             MOVS     R0,#+2
   \   0000006A   0x0007             MOVS     R7,R0
   1373          #if defined(_EFM32_GIANT_FAMILY) || defined(_EFM32_WONDER_FAMILY)
   1374                /* Adjust HFXO buffer current for high frequencies, enable HFLE for */
   1375                /* frequencies above 32MHz */
   1376                if(SystemHFXOClockGet() > CMU_MAX_FREQ_HFLE)
   \   0000006C   0x.... 0x....      BL       SystemHFXOClockGet
   \   00000070   0x....             LDR.N    R1,??DataTable17  ;; 0x1e84801
   \   00000072   0x4288             CMP      R0,R1
   \   00000074   0xD30A             BCC.N    ??CMU_ClockSelectSet_12
   1377                {
   1378                  CMU->CTRL = (CMU->CTRL & ~_CMU_CTRL_HFXOBUFCUR_MASK) | 
   1379                    CMU_CTRL_HFXOBUFCUR_BOOSTABOVE32MHZ | 
   1380                    /* Must have HFLE enabled to access some LE peripherals >=32MHz */
   1381                    CMU_CTRL_HFLE;
   \   00000076   0x.... 0x....      LDR.W    R0,??DataTable26_14  ;; 0x400c8000
   \   0000007A   0x6800             LDR      R0,[R0, #+0]
   \   0000007C   0xF040 0x4080      ORR      R0,R0,#0x40000000
   \   00000080   0xF050 0x0060      ORRS     R0,R0,#0x60
   \   00000084   0x.... 0x....      LDR.W    R1,??DataTable26_14  ;; 0x400c8000
   \   00000088   0x6008             STR      R0,[R1, #+0]
   \   0000008A   0xE009             B.N      ??CMU_ClockSelectSet_13
   1382                } else {
   1383                  /* This can happen if the user configures the EFM32_HFXO_FREQ to */
   1384                  /* use another oscillator frequency */
   1385                  CMU->CTRL = (CMU->CTRL & ~_CMU_CTRL_HFXOBUFCUR_MASK) | 
   1386                    CMU_CTRL_HFXOBUFCUR_BOOSTUPTO32MHZ;
   \                     ??CMU_ClockSelectSet_12: (+1)
   \   0000008C   0x.... 0x....      LDR.W    R0,??DataTable26_14  ;; 0x400c8000
   \   00000090   0x6800             LDR      R0,[R0, #+0]
   \   00000092   0xF030 0x0060      BICS     R0,R0,#0x60
   \   00000096   0xF050 0x0020      ORRS     R0,R0,#0x20
   \   0000009A   0x.... 0x....      LDR.W    R1,??DataTable26_14  ;; 0x400c8000
   \   0000009E   0x6008             STR      R0,[R1, #+0]
   1387                }
   1388          #endif
   1389                break;
   \                     ??CMU_ClockSelectSet_13: (+1)
   \   000000A0   0xE006             B.N      ??CMU_ClockSelectSet_11
   1390          
   1391              case cmuSelect_HFRCO:
   1392                select = CMU_CMD_HFCLKSEL_HFRCO;
   \                     ??CMU_ClockSelectSet_8: (+1)
   \   000000A2   0x2001             MOVS     R0,#+1
   \   000000A4   0x0006             MOVS     R6,R0
   1393                osc    = cmuOsc_HFRCO;
   \   000000A6   0x2003             MOVS     R0,#+3
   \   000000A8   0x0007             MOVS     R7,R0
   1394                break;
   \   000000AA   0xE001             B.N      ??CMU_ClockSelectSet_11
   1395          
   1396          #if defined(_EFM32_TINY_FAMILY) || defined(_EFM32_GIANT_FAMILY) || defined(_EFM32_WONDER_FAMILY)
   1397              case cmuSelect_ULFRCO:
   1398                /* ULFRCO cannot be used as HFCLK  */
   1399                EFM_ASSERT(0);
   1400                break;
   \                     ??CMU_ClockSelectSet_9: (+1)
   \   000000AC   0xE000             B.N      ??CMU_ClockSelectSet_11
   1401          #endif
   1402          
   1403              default:
   1404                EFM_ASSERT(0);
   1405                return;
   \                     ??CMU_ClockSelectSet_10: (+1)
   \   000000AE   0xE0BE             B.N      ??CMU_ClockSelectSet_14
   1406              }
   1407          
   1408              /* Ensure selected oscillator is enabled, waiting for it to stabilize */
   1409              CMU_OscillatorEnable(osc, true, true);
   \                     ??CMU_ClockSelectSet_11: (+1)
   \   000000B0   0x2201             MOVS     R2,#+1
   \   000000B2   0x2101             MOVS     R1,#+1
   \   000000B4   0x0038             MOVS     R0,R7
   \   000000B6   0xB2C0             UXTB     R0,R0            ;; ZeroExt  R0,R0,#+24,#+24
   \   000000B8   0x.... 0x....      BL       CMU_OscillatorEnable
   1410          
   1411              /* Configure worst case wait states for flash access before selecting */
   1412              CMU_FlashWaitStateMax();
   \   000000BC   0x.... 0x....      BL       CMU_FlashWaitStateMax
   1413          
   1414              /* Switch to selected oscillator */
   1415              CMU->CMD = select;
   \   000000C0   0x.... 0x....      LDR.W    R0,??DataTable24_1  ;; 0x400c8024
   \   000000C4   0x6006             STR      R6,[R0, #+0]
   1416          
   1417              /* Keep EMU module informed */
   1418              EMU_UpdateOscConfig();
   \   000000C6   0x.... 0x....      BL       EMU_UpdateOscConfig
   1419          
   1420              /* Update CMSIS core clock variable */
   1421              /* (The function will update the global variable) */
   1422              freq = SystemCoreClockGet();
   \   000000CA   0x.... 0x....      BL       SystemCoreClockGet
   \   000000CE   0x4680             MOV      R8,R0
   1423          
   1424              /* Optimize flash access wait state setting for currently selected core clk */
   1425              CMU_FlashWaitStateControl(freq);
   \   000000D0   0x4640             MOV      R0,R8
   \   000000D2   0x.... 0x....      BL       CMU_FlashWaitStateControl
   1426              break;
   \   000000D6   0xE0AA             B.N      ??CMU_ClockSelectSet_15
   1427          
   1428            case CMU_LFACLKSEL_REG:
   1429            case CMU_LFBCLKSEL_REG:
   1430          
   1431              switch (ref)
   \                     ??CMU_ClockSelectSet_2: (+1)
   \   000000D8   0xB2ED             UXTB     R5,R5            ;; ZeroExt  R5,R5,#+24,#+24
   \   000000DA   0x0028             MOVS     R0,R5
   \   000000DC   0x2801             CMP      R0,#+1
   \   000000DE   0xD008             BEQ.N    ??CMU_ClockSelectSet_16
   \   000000E0   0x2802             CMP      R0,#+2
   \   000000E2   0xD009             BEQ.N    ??CMU_ClockSelectSet_17
   \   000000E4   0x2803             CMP      R0,#+3
   \   000000E6   0xD00F             BEQ.N    ??CMU_ClockSelectSet_18
   \   000000E8   0x2806             CMP      R0,#+6
   \   000000EA   0xD015             BEQ.N    ??CMU_ClockSelectSet_19
   \   000000EC   0x2809             CMP      R0,#+9
   \   000000EE   0xD02E             BEQ.N    ??CMU_ClockSelectSet_20
   \   000000F0   0xE032             B.N      ??CMU_ClockSelectSet_21
   1432              {
   1433              case cmuSelect_Disabled:
   1434                tmp = _CMU_LFCLKSEL_LFA_DISABLED;
   \                     ??CMU_ClockSelectSet_16: (+1)
   \   000000F2   0x2000             MOVS     R0,#+0
   \   000000F4   0x4683             MOV      R11,R0
   1435                break;
   \   000000F6   0xE030             B.N      ??CMU_ClockSelectSet_22
   1436          
   1437              case cmuSelect_LFXO:
   1438                /* Ensure selected oscillator is enabled, waiting for it to stabilize */
   1439                CMU_OscillatorEnable(cmuOsc_LFXO, true, true);
   \                     ??CMU_ClockSelectSet_17: (+1)
   \   000000F8   0x2201             MOVS     R2,#+1
   \   000000FA   0x2101             MOVS     R1,#+1
   \   000000FC   0x2000             MOVS     R0,#+0
   \   000000FE   0x.... 0x....      BL       CMU_OscillatorEnable
   1440                tmp = _CMU_LFCLKSEL_LFA_LFXO;
   \   00000102   0x2002             MOVS     R0,#+2
   \   00000104   0x4683             MOV      R11,R0
   1441                break;
   \   00000106   0xE028             B.N      ??CMU_ClockSelectSet_22
   1442          
   1443              case cmuSelect_LFRCO:
   1444                /* Ensure selected oscillator is enabled, waiting for it to stabilize */
   1445                CMU_OscillatorEnable(cmuOsc_LFRCO, true, true);
   \                     ??CMU_ClockSelectSet_18: (+1)
   \   00000108   0x2201             MOVS     R2,#+1
   \   0000010A   0x2101             MOVS     R1,#+1
   \   0000010C   0x2001             MOVS     R0,#+1
   \   0000010E   0x.... 0x....      BL       CMU_OscillatorEnable
   1446                tmp = _CMU_LFCLKSEL_LFA_LFRCO;
   \   00000112   0x2001             MOVS     R0,#+1
   \   00000114   0x4683             MOV      R11,R0
   1447                break;
   \   00000116   0xE020             B.N      ??CMU_ClockSelectSet_22
   1448          
   1449              case cmuSelect_CORELEDIV2:
   1450                /* Ensure HFCORE to LE clocking is enabled */
   1451                BITBAND_Peripheral(&(CMU->HFCORECLKEN0), _CMU_HFCORECLKEN0_LE_SHIFT, 1);
   \                     ??CMU_ClockSelectSet_19: (+1)
   \   00000118   0x2201             MOVS     R2,#+1
   \   0000011A   0x2104             MOVS     R1,#+4
   \   0000011C   0x.... 0x....      LDR.W    R0,??DataTable26_10  ;; 0x400c8040
   \   00000120   0x.... 0x....      BL       BITBAND_Peripheral
   1452                tmp = _CMU_LFCLKSEL_LFA_HFCORECLKLEDIV2;
   \   00000124   0x2003             MOVS     R0,#+3
   \   00000126   0x4683             MOV      R11,R0
   1453          #if defined(_EFM32_GIANT_FAMILY) || defined(_EFM32_WONDER_FAMILY)
   1454                /* If core frequency is > 32MHz on Giant/Leopard, enable HFLE and DIV4 */
   1455                freq = SystemCoreClockGet();
   \   00000128   0x.... 0x....      BL       SystemCoreClockGet
   \   0000012C   0x4680             MOV      R8,R0
   1456                if(freq > CMU_MAX_FREQ_HFLE)
   \   0000012E   0x....             LDR.N    R0,??DataTable17  ;; 0x1e84801
   \   00000130   0x4580             CMP      R8,R0
   \   00000132   0xD30B             BCC.N    ??CMU_ClockSelectSet_23
   1457                {
   1458                  /* Enable CMU HFLE */
   1459                  BITBAND_Peripheral(&(CMU->CTRL), _CMU_CTRL_HFLE_SHIFT, 1);
   \   00000134   0x2201             MOVS     R2,#+1
   \   00000136   0x211E             MOVS     R1,#+30
   \   00000138   0x.... 0x....      LDR.W    R0,??DataTable26_14  ;; 0x400c8000
   \   0000013C   0x.... 0x....      BL       BITBAND_Peripheral
   1460          
   1461                  /* Enable DIV4 factor for peripheral clock */
   1462                  BITBAND_Peripheral(&(CMU->HFCORECLKDIV), 
   1463                                     _CMU_HFCORECLKDIV_HFCORECLKLEDIV_SHIFT, 1);
   \   00000140   0x2201             MOVS     R2,#+1
   \   00000142   0x2108             MOVS     R1,#+8
   \   00000144   0x.... 0x....      LDR.W    R0,??DataTable22  ;; 0x400c8004
   \   00000148   0x.... 0x....      BL       BITBAND_Peripheral
   1464                }
   1465          #endif
   1466                break;
   \                     ??CMU_ClockSelectSet_23: (+1)
   \   0000014C   0xE005             B.N      ??CMU_ClockSelectSet_22
   1467          
   1468          #if defined(_EFM32_TINY_FAMILY) || defined(_EFM32_GIANT_FAMILY) || defined(_EFM32_WONDER_FAMILY) 
   1469              case cmuSelect_ULFRCO:
   1470                /* ULFRCO is always enabled */
   1471                tmp        = _CMU_LFCLKSEL_LFA_DISABLED;
   \                     ??CMU_ClockSelectSet_20: (+1)
   \   0000014E   0x2000             MOVS     R0,#+0
   \   00000150   0x4683             MOV      R11,R0
   1472                lfExtended = 1;
   \   00000152   0x2001             MOVS     R0,#+1
   \   00000154   0x4682             MOV      R10,R0
   1473                break;
   \   00000156   0xE000             B.N      ??CMU_ClockSelectSet_22
   1474          #endif
   1475          
   1476              default:
   1477                /* Illegal clock source for LFA/LFB selected */
   1478                EFM_ASSERT(0);
   1479                return;
   \                     ??CMU_ClockSelectSet_21: (+1)
   \   00000158   0xE069             B.N      ??CMU_ClockSelectSet_14
   1480              }
   1481          
   1482          
   1483              if (selReg == CMU_LFACLKSEL_REG)
   \                     ??CMU_ClockSelectSet_22: (+1)
   \   0000015A   0xF1B9 0x0F02      CMP      R9,#+2
   \   0000015E   0xD10D             BNE.N    ??CMU_ClockSelectSet_24
   1484              {
   1485                #if defined(_EFM32_TINY_FAMILY) || defined(_EFM32_GIANT_FAMILY) || defined(_EFM32_WONDER_FAMILY)
   1486                CMU->LFCLKSEL = (CMU->LFCLKSEL & ~(_CMU_LFCLKSEL_LFA_MASK | _CMU_LFCLKSEL_LFAE_MASK) ) |
   1487                              (tmp << _CMU_LFCLKSEL_LFA_SHIFT) | (lfExtended << _CMU_LFCLKSEL_LFAE_SHIFT);
   \   00000160   0x.... 0x....      LDR.W    R0,??DataTable24  ;; 0x400c8028
   \   00000164   0x6800             LDR      R0,[R0, #+0]
   \   00000166   0x.... 0x....      LDR.W    R1,??DataTable26_15  ;; 0xfffefffc
   \   0000016A   0x4008             ANDS     R0,R1,R0
   \   0000016C   0xEA5B 0x0000      ORRS     R0,R11,R0
   \   00000170   0xEA50 0x400A      ORRS     R0,R0,R10, LSL #+16
   \   00000174   0x.... 0x....      LDR.W    R1,??DataTable24  ;; 0x400c8028
   \   00000178   0x6008             STR      R0,[R1, #+0]
   \   0000017A   0xE00C             B.N      ??CMU_ClockSelectSet_25
   1488                #else
   1489                CMU->LFCLKSEL = (CMU->LFCLKSEL & ~_CMU_LFCLKSEL_LFA_MASK) |
   1490                              (tmp << _CMU_LFCLKSEL_LFA_SHIFT);
   1491                #endif
   1492              }
   1493              else
   1494              {
   1495                #if defined(_EFM32_TINY_FAMILY) || defined(_EFM32_GIANT_FAMILY) || defined(_EFM32_WONDER_FAMILY)
   1496                CMU->LFCLKSEL = (CMU->LFCLKSEL & ~(_CMU_LFCLKSEL_LFB_MASK | _CMU_LFCLKSEL_LFBE_MASK) ) |
   1497                              (tmp << _CMU_LFCLKSEL_LFB_SHIFT) | (lfExtended << _CMU_LFCLKSEL_LFBE_SHIFT);
   \                     ??CMU_ClockSelectSet_24: (+1)
   \   0000017C   0x.... 0x....      LDR.W    R0,??DataTable24  ;; 0x400c8028
   \   00000180   0x6800             LDR      R0,[R0, #+0]
   \   00000182   0x.... 0x....      LDR.W    R1,??DataTable26_16  ;; 0xffeffff3
   \   00000186   0x4008             ANDS     R0,R1,R0
   \   00000188   0xEA50 0x008B      ORRS     R0,R0,R11, LSL #+2
   \   0000018C   0xEA50 0x500A      ORRS     R0,R0,R10, LSL #+20
   \   00000190   0x.... 0x....      LDR.W    R1,??DataTable24  ;; 0x400c8028
   \   00000194   0x6008             STR      R0,[R1, #+0]
   1498                #else
   1499                CMU->LFCLKSEL = (CMU->LFCLKSEL & ~_CMU_LFCLKSEL_LFB_MASK) |
   1500                              (tmp << _CMU_LFCLKSEL_LFB_SHIFT);
   1501                #endif
   1502              }
   1503              break;
   \                     ??CMU_ClockSelectSet_25: (+1)
   \   00000196   0xE04A             B.N      ??CMU_ClockSelectSet_15
   1504          
   1505          #if defined(_EFM32_TINY_FAMILY) || defined(_EFM32_GIANT_FAMILY) || defined(_EFM32_WONDER_FAMILY)
   1506            case CMU_DBGCLKSEL_REG:
   1507              switch(ref)
   \                     ??CMU_ClockSelectSet_4: (+1)
   \   00000198   0xB2ED             UXTB     R5,R5            ;; ZeroExt  R5,R5,#+24,#+24
   \   0000019A   0x0028             MOVS     R0,R5
   \   0000019C   0x2807             CMP      R0,#+7
   \   0000019E   0xD002             BEQ.N    ??CMU_ClockSelectSet_26
   \   000001A0   0x2808             CMP      R0,#+8
   \   000001A2   0xD009             BEQ.N    ??CMU_ClockSelectSet_27
   \   000001A4   0xE011             B.N      ??CMU_ClockSelectSet_28
   1508              {
   1509              case cmuSelect_AUXHFRCO:
   1510                /* Select AUXHFRCO as debug clock */
   1511                CMU->CTRL = (CMU->CTRL & ~(_CMU_CTRL_DBGCLK_MASK))| CMU_CTRL_DBGCLK_AUXHFRCO;
   \                     ??CMU_ClockSelectSet_26: (+1)
   \   000001A6   0x.... 0x....      LDR.W    R0,??DataTable26_14  ;; 0x400c8000
   \   000001AA   0x6800             LDR      R0,[R0, #+0]
   \   000001AC   0xF030 0x5080      BICS     R0,R0,#0x10000000
   \   000001B0   0x.... 0x....      LDR.W    R1,??DataTable26_14  ;; 0x400c8000
   \   000001B4   0x6008             STR      R0,[R1, #+0]
   1512                break;
   \   000001B6   0xE009             B.N      ??CMU_ClockSelectSet_29
   1513          
   1514              case cmuSelect_HFCLK:
   1515                /* Select divided HFCLK as debug clock */
   1516                CMU->CTRL = (CMU->CTRL & ~(_CMU_CTRL_DBGCLK_MASK))| CMU_CTRL_DBGCLK_HFCLK;
   \                     ??CMU_ClockSelectSet_27: (+1)
   \   000001B8   0x.... 0x....      LDR.W    R0,??DataTable26_14  ;; 0x400c8000
   \   000001BC   0x6800             LDR      R0,[R0, #+0]
   \   000001BE   0xF050 0x5080      ORRS     R0,R0,#0x10000000
   \   000001C2   0x.... 0x....      LDR.W    R1,??DataTable26_14  ;; 0x400c8000
   \   000001C6   0x6008             STR      R0,[R1, #+0]
   1517                break;
   \   000001C8   0xE000             B.N      ??CMU_ClockSelectSet_29
   1518          
   1519              default:
   1520                /* Illegal clock source for debug selected */
   1521                EFM_ASSERT(0);
   1522                return;
   \                     ??CMU_ClockSelectSet_28: (+1)
   \   000001CA   0xE030             B.N      ??CMU_ClockSelectSet_14
   1523              }
   1524              break;
   \                     ??CMU_ClockSelectSet_29: (+1)
   \   000001CC   0xE02F             B.N      ??CMU_ClockSelectSet_15
   1525          #endif
   1526          
   1527          #if defined(USB_PRESENT)
   1528            case CMU_USBCCLKSEL_REG:
   1529              switch(ref)
   \                     ??CMU_ClockSelectSet_3: (+1)
   \   000001CE   0xB2ED             UXTB     R5,R5            ;; ZeroExt  R5,R5,#+24,#+24
   \   000001D0   0x0028             MOVS     R0,R5
   \   000001D2   0x2802             CMP      R0,#+2
   \   000001D4   0xD00D             BEQ.N    ??CMU_ClockSelectSet_30
   \   000001D6   0x2803             CMP      R0,#+3
   \   000001D8   0xD01A             BEQ.N    ??CMU_ClockSelectSet_31
   \   000001DA   0x2808             CMP      R0,#+8
   \   000001DC   0xD125             BNE.N    ??CMU_ClockSelectSet_32
   1530              {
   1531          
   1532              case cmuSelect_HFCLK:
   1533                /* Select undivided HFCLK as clock source for USB */
   1534                /* Oscillator must already be enabled, if not the core had stopped */
   1535                CMU->CMD = CMU_CMD_USBCCLKSEL_HFCLKNODIV;
   \                     ??CMU_ClockSelectSet_33: (+1)
   \   000001DE   0x2020             MOVS     R0,#+32
   \   000001E0   0x.... 0x....      LDR.W    R1,??DataTable24_1  ;; 0x400c8024
   \   000001E4   0x6008             STR      R0,[R1, #+0]
   1536                /* Wait until clock is activated */
   1537                while((CMU->STATUS & CMU_STATUS_USBCHFCLKSEL)==0);
   \                     ??CMU_ClockSelectSet_34: (+1)
   \   000001E6   0x.... 0x....      LDR.W    R0,??DataTable24_2  ;; 0x400c802c
   \   000001EA   0x6800             LDR      R0,[R0, #+0]
   \   000001EC   0x0400             LSLS     R0,R0,#+16
   \   000001EE   0xD5FA             BPL.N    ??CMU_ClockSelectSet_34
   1538                break;
   \   000001F0   0xE01C             B.N      ??CMU_ClockSelectSet_35
   1539          
   1540              case cmuSelect_LFXO:
   1541                /* Select LFXO as clock source for USB, can only be used in sleep mode */
   1542          
   1543                /* Ensure selected oscillator is enabled, waiting for it to stabilize */
   1544                CMU_OscillatorEnable(cmuOsc_LFXO, true, true);
   \                     ??CMU_ClockSelectSet_30: (+1)
   \   000001F2   0x2201             MOVS     R2,#+1
   \   000001F4   0x2101             MOVS     R1,#+1
   \   000001F6   0x2000             MOVS     R0,#+0
   \   000001F8   0x.... 0x....      BL       CMU_OscillatorEnable
   1545          
   1546                /* Switch oscillator */
   1547                CMU->CMD = CMU_CMD_USBCCLKSEL_LFXO;
   \   000001FC   0x2040             MOVS     R0,#+64
   \   000001FE   0x.... 0x....      LDR.W    R1,??DataTable24_1  ;; 0x400c8024
   \   00000202   0x6008             STR      R0,[R1, #+0]
   1548          
   1549                /* Wait until clock is activated */
   1550                while((CMU->STATUS & CMU_STATUS_USBCLFXOSEL)==0);
   \                     ??CMU_ClockSelectSet_36: (+1)
   \   00000204   0x.... 0x....      LDR.W    R0,??DataTable24_2  ;; 0x400c802c
   \   00000208   0x6800             LDR      R0,[R0, #+0]
   \   0000020A   0x03C0             LSLS     R0,R0,#+15
   \   0000020C   0xD5FA             BPL.N    ??CMU_ClockSelectSet_36
   1551                break;
   \   0000020E   0xE00D             B.N      ??CMU_ClockSelectSet_35
   1552          
   1553              case cmuSelect_LFRCO:
   1554                /* Select LFRCO as clock source for USB, can only be used in sleep mode */
   1555          
   1556                /* Ensure selected oscillator is enabled, waiting for it to stabilize */
   1557                CMU_OscillatorEnable(cmuOsc_LFRCO, true, true);
   \                     ??CMU_ClockSelectSet_31: (+1)
   \   00000210   0x2201             MOVS     R2,#+1
   \   00000212   0x2101             MOVS     R1,#+1
   \   00000214   0x2001             MOVS     R0,#+1
   \   00000216   0x.... 0x....      BL       CMU_OscillatorEnable
   1558          
   1559                /* Switch oscillator */
   1560                CMU->CMD = CMU_CMD_USBCCLKSEL_LFRCO;
   \   0000021A   0x2060             MOVS     R0,#+96
   \   0000021C   0x....             LDR.N    R1,??DataTable24_1  ;; 0x400c8024
   \   0000021E   0x6008             STR      R0,[R1, #+0]
   1561          
   1562                /* Wait until clock is activated */
   1563                while((CMU->STATUS & CMU_STATUS_USBCLFRCOSEL)==0);
   \                     ??CMU_ClockSelectSet_37: (+1)
   \   00000220   0x....             LDR.N    R0,??DataTable24_2  ;; 0x400c802c
   \   00000222   0x6800             LDR      R0,[R0, #+0]
   \   00000224   0x0380             LSLS     R0,R0,#+14
   \   00000226   0xD5FB             BPL.N    ??CMU_ClockSelectSet_37
   1564                break;
   \   00000228   0xE000             B.N      ??CMU_ClockSelectSet_35
   1565          
   1566              default:
   1567                /* Illegal clock source for USB */
   1568                EFM_ASSERT(0);
   1569                return;
   \                     ??CMU_ClockSelectSet_32: (+1)
   \   0000022A   0xE000             B.N      ??CMU_ClockSelectSet_14
   1570              }
   1571              /* Wait until clock has been activated */
   1572              break;
   \                     ??CMU_ClockSelectSet_35: (+1)
   \   0000022C   0xE7FF             B.N      ??CMU_ClockSelectSet_15
   1573          #endif
   1574          
   1575            default:
   1576              EFM_ASSERT(0);
   1577              break;
   1578            }
   1579          }
   \                     ??CMU_ClockSelectSet_1: (+1)
   \                     ??CMU_ClockSelectSet_15: (+1)
   \                     ??CMU_ClockSelectSet_14: (+1)
   \   0000022E   0xE8BD 0x8FF1      POP      {R0,R4-R11,PC}   ;; return
   1580          
   1581          
   1582          /**************************************************************************//**
   1583           * @brief
   1584           *   CMU low frequency register synchronization freeze control.
   1585           *
   1586           * @details
   1587           *   Some CMU registers requires synchronization into the low frequency (LF)
   1588           *   domain. The freeze feature allows for several such registers to be
   1589           *   modified before passing them to the LF domain simultaneously (which
   1590           *   takes place when the freeze mode is disabled).
   1591           *
   1592           *   Another usage scenario of this feature, is when using an API (such
   1593           *   as the CMU API) for modifying several bit fields consecutively in the
   1594           *   same register. If freeze mode is enabled during this sequence, stalling
   1595           *   can be avoided.
   1596           *
   1597           * @note
   1598           *   When enabling freeze mode, this function will wait for all current
   1599           *   ongoing CMU synchronization to LF domain to complete (Normally
   1600           *   synchronization will not be in progress.) However for this reason, when
   1601           *   using freeze mode, modifications of registers requiring LF synchronization
   1602           *   should be done within one freeze enable/disable block to avoid unecessary
   1603           *   stalling.
   1604           *
   1605           * @param[in] enable
   1606           *   @li true - enable freeze, modified registers are not propagated to the
   1607           *       LF domain
   1608           *   @li false - disable freeze, modified registers are propagated to LF
   1609           *       domain
   1610           *****************************************************************************/

   \                                 In section .text, align 2, keep-with-next
   1611          void CMU_FreezeEnable(bool enable)
   1612          {
   1613            if (enable)
   \                     CMU_FreezeEnable: (+1)
   \   00000000   0xB2C0             UXTB     R0,R0            ;; ZeroExt  R0,R0,#+24,#+24
   \   00000002   0x2800             CMP      R0,#+0
   \   00000004   0xD008             BEQ.N    ??CMU_FreezeEnable_0
   1614            {
   1615              /* Wait for any ongoing LF synchronization to complete. This is just to */
   1616              /* protect against the rare case when a user                            */
   1617              /* - modifies a register requiring LF sync                              */
   1618              /* - then enables freeze before LF sync completed                       */
   1619              /* - then modifies the same register again                              */
   1620              /* since modifying a register while it is in sync progress should be    */
   1621              /* avoided.                                                             */
   1622              while (CMU->SYNCBUSY)
   \                     ??CMU_FreezeEnable_1: (+1)
   \   00000006   0x.... 0x....      LDR.W    R1,??DataTable25  ;; 0x400c8050
   \   0000000A   0x6809             LDR      R1,[R1, #+0]
   \   0000000C   0x2900             CMP      R1,#+0
   \   0000000E   0xD1FA             BNE.N    ??CMU_FreezeEnable_1
   1623                ;
   1624          
   1625              CMU->FREEZE = CMU_FREEZE_REGFREEZE;
   \   00000010   0x2101             MOVS     R1,#+1
   \   00000012   0x....             LDR.N    R2,??DataTable23_2  ;; 0x400c8054
   \   00000014   0x6011             STR      R1,[R2, #+0]
   \   00000016   0xE002             B.N      ??CMU_FreezeEnable_2
   1626            }
   1627            else
   1628            {
   1629              CMU->FREEZE = 0;
   \                     ??CMU_FreezeEnable_0: (+1)
   \   00000018   0x2100             MOVS     R1,#+0
   \   0000001A   0x....             LDR.N    R2,??DataTable23_2  ;; 0x400c8054
   \   0000001C   0x6011             STR      R1,[R2, #+0]
   1630            }
   1631          }
   \                     ??CMU_FreezeEnable_2: (+1)
   \   0000001E   0x4770             BX       LR               ;; return
   1632          
   1633          
   1634          #if defined(_EFM32_TINY_FAMILY) || defined(_EFM32_GIANT_FAMILY) || defined(_EFM32_WONDER_FAMILY)
   1635          /***************************************************************************//**
   1636           * @brief
   1637           *   Get AUXHFRCO band in use.
   1638           *
   1639           * @return
   1640           *   AUXHFRCO band in use.
   1641           ******************************************************************************/

   \                                 In section .text, align 2, keep-with-next
   1642          CMU_AUXHFRCOBand_TypeDef CMU_AUXHFRCOBandGet(void)
   1643          {
   1644            return (CMU_AUXHFRCOBand_TypeDef)((CMU->AUXHFRCOCTRL & _CMU_AUXHFRCOCTRL_BAND_MASK) >>
   1645                                           _CMU_AUXHFRCOCTRL_BAND_SHIFT);
   \                     CMU_AUXHFRCOBandGet: (+1)
   \   00000000   0x....             LDR.N    R0,??DataTable19  ;; 0x400c8014
   \   00000002   0x6800             LDR      R0,[R0, #+0]
   \   00000004   0x0A00             LSRS     R0,R0,#+8
   \   00000006   0xF010 0x0007      ANDS     R0,R0,#0x7
   \   0000000A   0x4770             BX       LR               ;; return
   1646          }
   1647          
   1648          /***************************************************************************//**
   1649           * @brief
   1650           *   Set AUIXHFRCO band and the tuning value based on the value in the
   1651           *   calibration table made during production.
   1652           *
   1653           * @param[in] band
   1654           *   AUXHFRCO band to activate.
   1655           ******************************************************************************/

   \                                 In section .text, align 2, keep-with-next
   1656          void CMU_AUXHFRCOBandSet(CMU_AUXHFRCOBand_TypeDef band)
   1657          {
   1658            uint32_t           tuning;
   1659          
   1660            /* Read tuning value from calibration table */
   1661            switch (band)
   \                     CMU_AUXHFRCOBandSet: (+1)
   \   00000000   0xB2C0             UXTB     R0,R0            ;; ZeroExt  R0,R0,#+24,#+24
   \   00000002   0x0002             MOVS     R2,R0
   \   00000004   0x2A00             CMP      R2,#+0
   \   00000006   0xD01F             BEQ.N    ??CMU_AUXHFRCOBandSet_0
   \   00000008   0x2A01             CMP      R2,#+1
   \   0000000A   0xD016             BEQ.N    ??CMU_AUXHFRCOBandSet_1
   \   0000000C   0x2A02             CMP      R2,#+2
   \   0000000E   0xD00D             BEQ.N    ??CMU_AUXHFRCOBandSet_2
   \   00000010   0x2A03             CMP      R2,#+3
   \   00000012   0xD004             BEQ.N    ??CMU_AUXHFRCOBandSet_3
   \   00000014   0x2A06             CMP      R2,#+6
   \   00000016   0xD024             BEQ.N    ??CMU_AUXHFRCOBandSet_4
   \   00000018   0x2A07             CMP      R2,#+7
   \   0000001A   0xD01B             BEQ.N    ??CMU_AUXHFRCOBandSet_5
   \   0000001C   0xE027             B.N      ??CMU_AUXHFRCOBandSet_6
   1662            {
   1663            case cmuAUXHFRCOBand_1MHz:
   1664              tuning = (DEVINFO->AUXHFRCOCAL0 & _DEVINFO_AUXHFRCOCAL0_BAND1_MASK) >>
   1665                       _DEVINFO_AUXHFRCOCAL0_BAND1_SHIFT;
   \                     ??CMU_AUXHFRCOBandSet_3: (+1)
   \   0000001E   0x.... 0x....      LDR.W    R2,??DataTable26_17  ;; 0xfe081d4
   \   00000022   0x6812             LDR      R2,[R2, #+0]
   \   00000024   0xF002 0x02FF      AND      R2,R2,#0xFF
   \   00000028   0x0011             MOVS     R1,R2
   1666              break;
   \   0000002A   0xE021             B.N      ??CMU_AUXHFRCOBandSet_7
   1667          
   1668            case cmuAUXHFRCOBand_7MHz:
   1669              tuning = (DEVINFO->AUXHFRCOCAL0 & _DEVINFO_AUXHFRCOCAL0_BAND7_MASK) >>
   1670                       _DEVINFO_AUXHFRCOCAL0_BAND7_SHIFT;
   \                     ??CMU_AUXHFRCOBandSet_2: (+1)
   \   0000002C   0x.... 0x....      LDR.W    R2,??DataTable26_17  ;; 0xfe081d4
   \   00000030   0x6812             LDR      R2,[R2, #+0]
   \   00000032   0xF3C2 0x2207      UBFX     R2,R2,#+8,#+8
   \   00000036   0x0011             MOVS     R1,R2
   1671              break;
   \   00000038   0xE01A             B.N      ??CMU_AUXHFRCOBandSet_7
   1672          
   1673            case cmuAUXHFRCOBand_11MHz:
   1674              tuning = (DEVINFO->AUXHFRCOCAL0 & _DEVINFO_AUXHFRCOCAL0_BAND11_MASK) >>
   1675                       _DEVINFO_AUXHFRCOCAL0_BAND11_SHIFT;
   \                     ??CMU_AUXHFRCOBandSet_1: (+1)
   \   0000003A   0x.... 0x....      LDR.W    R2,??DataTable26_17  ;; 0xfe081d4
   \   0000003E   0x6812             LDR      R2,[R2, #+0]
   \   00000040   0xF3C2 0x4207      UBFX     R2,R2,#+16,#+8
   \   00000044   0x0011             MOVS     R1,R2
   1676              break;
   \   00000046   0xE013             B.N      ??CMU_AUXHFRCOBandSet_7
   1677          
   1678            case cmuAUXHFRCOBand_14MHz:
   1679              tuning = (DEVINFO->AUXHFRCOCAL0 & _DEVINFO_AUXHFRCOCAL0_BAND14_MASK) >>
   1680                       _DEVINFO_AUXHFRCOCAL0_BAND14_SHIFT;
   \                     ??CMU_AUXHFRCOBandSet_0: (+1)
   \   00000048   0x.... 0x....      LDR.W    R2,??DataTable26_17  ;; 0xfe081d4
   \   0000004C   0x6812             LDR      R2,[R2, #+0]
   \   0000004E   0x0E12             LSRS     R2,R2,#+24
   \   00000050   0x0011             MOVS     R1,R2
   1681              break;
   \   00000052   0xE00D             B.N      ??CMU_AUXHFRCOBandSet_7
   1682          
   1683            case cmuAUXHFRCOBand_21MHz:
   1684              tuning = (DEVINFO->AUXHFRCOCAL1 & _DEVINFO_AUXHFRCOCAL1_BAND21_MASK) >>
   1685                       _DEVINFO_AUXHFRCOCAL1_BAND21_SHIFT;
   \                     ??CMU_AUXHFRCOBandSet_5: (+1)
   \   00000054   0x.... 0x....      LDR.W    R2,??DataTable26_18  ;; 0xfe081d8
   \   00000058   0x6812             LDR      R2,[R2, #+0]
   \   0000005A   0xF002 0x02FF      AND      R2,R2,#0xFF
   \   0000005E   0x0011             MOVS     R1,R2
   1686              break;
   \   00000060   0xE006             B.N      ??CMU_AUXHFRCOBandSet_7
   1687          
   1688            case cmuAUXHFRCOBand_28MHz:
   1689              tuning = (DEVINFO->AUXHFRCOCAL1 & _DEVINFO_AUXHFRCOCAL1_BAND28_MASK) >>
   1690                       _DEVINFO_AUXHFRCOCAL1_BAND28_SHIFT;
   \                     ??CMU_AUXHFRCOBandSet_4: (+1)
   \   00000062   0x....             LDR.N    R2,??DataTable26_18  ;; 0xfe081d8
   \   00000064   0x6812             LDR      R2,[R2, #+0]
   \   00000066   0xF3C2 0x2207      UBFX     R2,R2,#+8,#+8
   \   0000006A   0x0011             MOVS     R1,R2
   1691              break;
   \   0000006C   0xE000             B.N      ??CMU_AUXHFRCOBandSet_7
   1692          
   1693            default:
   1694              EFM_ASSERT(0);
   1695              return;
   \                     ??CMU_AUXHFRCOBandSet_6: (+1)
   \   0000006E   0xE009             B.N      ??CMU_AUXHFRCOBandSet_8
   1696            }
   1697          
   1698            /* Set band/tuning */
   1699            CMU->AUXHFRCOCTRL = (CMU->AUXHFRCOCTRL &
   1700                              ~(_CMU_AUXHFRCOCTRL_BAND_MASK | _CMU_AUXHFRCOCTRL_TUNING_MASK)) |
   1701                             (band << _CMU_AUXHFRCOCTRL_BAND_SHIFT) |
   1702                             (tuning << _CMU_AUXHFRCOCTRL_TUNING_SHIFT);
   \                     ??CMU_AUXHFRCOBandSet_7: (+1)
   \   00000070   0x....             LDR.N    R2,??DataTable19  ;; 0x400c8014
   \   00000072   0x6812             LDR      R2,[R2, #+0]
   \   00000074   0x0AD2             LSRS     R2,R2,#+11
   \   00000076   0x02D2             LSLS     R2,R2,#+11
   \   00000078   0xB2C0             UXTB     R0,R0            ;; ZeroExt  R0,R0,#+24,#+24
   \   0000007A   0xEA51 0x2300      ORRS     R3,R1,R0, LSL #+8
   \   0000007E   0x431A             ORRS     R2,R3,R2
   \   00000080   0x....             LDR.N    R3,??DataTable19  ;; 0x400c8014
   \   00000082   0x601A             STR      R2,[R3, #+0]
   1703          
   1704          }
   \                     ??CMU_AUXHFRCOBandSet_8: (+1)
   \   00000084   0x4770             BX       LR               ;; return
   1705          #endif
   1706          
   1707          
   1708          /***************************************************************************//**
   1709           * @brief
   1710           *   Get HFRCO band in use.
   1711           *
   1712           * @return
   1713           *   HFRCO band in use.
   1714           ******************************************************************************/

   \                                 In section .text, align 2, keep-with-next
   1715          CMU_HFRCOBand_TypeDef CMU_HFRCOBandGet(void)
   1716          {
   1717            return (CMU_HFRCOBand_TypeDef)((CMU->HFRCOCTRL & _CMU_HFRCOCTRL_BAND_MASK) >>
   1718                                           _CMU_HFRCOCTRL_BAND_SHIFT);
   \                     CMU_HFRCOBandGet: (+1)
   \   00000000   0x....             LDR.N    R0,??DataTable26_19  ;; 0x400c800c
   \   00000002   0x6800             LDR      R0,[R0, #+0]
   \   00000004   0x0A00             LSRS     R0,R0,#+8
   \   00000006   0xF010 0x0007      ANDS     R0,R0,#0x7
   \   0000000A   0x4770             BX       LR               ;; return
   1719          }
   1720          
   1721          
   1722          /***************************************************************************//**
   1723           * @brief
   1724           *   Set HFRCO band and the tuning value based on the value in the calibration
   1725           *   table made during production.
   1726           *
   1727           * @param[in] band
   1728           *   HFRCO band to activate.
   1729           ******************************************************************************/

   \                                 In section .text, align 2, keep-with-next
   1730          void CMU_HFRCOBandSet(CMU_HFRCOBand_TypeDef band)
   1731          {
   \                     CMU_HFRCOBandSet: (+1)
   \   00000000   0xB5F8             PUSH     {R3-R7,LR}
   \   00000002   0x0004             MOVS     R4,R0
   1732            uint32_t           tuning;
   1733            uint32_t           freq;
   1734            CMU_Select_TypeDef osc;
   1735          
   1736            /* Read tuning value from calibration table */
   1737            switch (band)
   \   00000004   0xB2E4             UXTB     R4,R4            ;; ZeroExt  R4,R4,#+24,#+24
   \   00000006   0x2C00             CMP      R4,#+0
   \   00000008   0xD008             BEQ.N    ??CMU_HFRCOBandSet_0
   \   0000000A   0x2C02             CMP      R4,#+2
   \   0000000C   0xD012             BEQ.N    ??CMU_HFRCOBandSet_1
   \   0000000E   0xD30B             BCC.N    ??CMU_HFRCOBandSet_2
   \   00000010   0x2C04             CMP      R4,#+4
   \   00000012   0xD01A             BEQ.N    ??CMU_HFRCOBandSet_3
   \   00000014   0xD314             BCC.N    ??CMU_HFRCOBandSet_4
   \   00000016   0x2C05             CMP      R4,#+5
   \   00000018   0xD01D             BEQ.N    ??CMU_HFRCOBandSet_5
   \   0000001A   0xE022             B.N      ??CMU_HFRCOBandSet_6
   1738            {
   1739            case cmuHFRCOBand_1MHz:
   1740              tuning = (DEVINFO->HFRCOCAL0 & _DEVINFO_HFRCOCAL0_BAND1_MASK) >>
   1741                       _DEVINFO_HFRCOCAL0_BAND1_SHIFT;
   \                     ??CMU_HFRCOBandSet_0: (+1)
   \   0000001C   0x....             LDR.N    R0,??DataTable26_20  ;; 0xfe081dc
   \   0000001E   0x6800             LDR      R0,[R0, #+0]
   \   00000020   0xF000 0x00FF      AND      R0,R0,#0xFF
   \   00000024   0x0005             MOVS     R5,R0
   1742              break;
   \   00000026   0xE01D             B.N      ??CMU_HFRCOBandSet_7
   1743          
   1744            case cmuHFRCOBand_7MHz:
   1745              tuning = (DEVINFO->HFRCOCAL0 & _DEVINFO_HFRCOCAL0_BAND7_MASK) >>
   1746                       _DEVINFO_HFRCOCAL0_BAND7_SHIFT;
   \                     ??CMU_HFRCOBandSet_2: (+1)
   \   00000028   0x....             LDR.N    R0,??DataTable26_20  ;; 0xfe081dc
   \   0000002A   0x6800             LDR      R0,[R0, #+0]
   \   0000002C   0xF3C0 0x2007      UBFX     R0,R0,#+8,#+8
   \   00000030   0x0005             MOVS     R5,R0
   1747              break;
   \   00000032   0xE017             B.N      ??CMU_HFRCOBandSet_7
   1748          
   1749            case cmuHFRCOBand_11MHz:
   1750              tuning = (DEVINFO->HFRCOCAL0 & _DEVINFO_HFRCOCAL0_BAND11_MASK) >>
   1751                       _DEVINFO_HFRCOCAL0_BAND11_SHIFT;
   \                     ??CMU_HFRCOBandSet_1: (+1)
   \   00000034   0x....             LDR.N    R0,??DataTable26_20  ;; 0xfe081dc
   \   00000036   0x6800             LDR      R0,[R0, #+0]
   \   00000038   0xF3C0 0x4007      UBFX     R0,R0,#+16,#+8
   \   0000003C   0x0005             MOVS     R5,R0
   1752              break;
   \   0000003E   0xE011             B.N      ??CMU_HFRCOBandSet_7
   1753          
   1754            case cmuHFRCOBand_14MHz:
   1755              tuning = (DEVINFO->HFRCOCAL0 & _DEVINFO_HFRCOCAL0_BAND14_MASK) >>
   1756                       _DEVINFO_HFRCOCAL0_BAND14_SHIFT;
   \                     ??CMU_HFRCOBandSet_4: (+1)
   \   00000040   0x....             LDR.N    R0,??DataTable26_20  ;; 0xfe081dc
   \   00000042   0x6800             LDR      R0,[R0, #+0]
   \   00000044   0x0E00             LSRS     R0,R0,#+24
   \   00000046   0x0005             MOVS     R5,R0
   1757              break;
   \   00000048   0xE00C             B.N      ??CMU_HFRCOBandSet_7
   1758          
   1759            case cmuHFRCOBand_21MHz:
   1760              tuning = (DEVINFO->HFRCOCAL1 & _DEVINFO_HFRCOCAL1_BAND21_MASK) >>
   1761                       _DEVINFO_HFRCOCAL1_BAND21_SHIFT;
   \                     ??CMU_HFRCOBandSet_3: (+1)
   \   0000004A   0x....             LDR.N    R0,??DataTable26_21  ;; 0xfe081e0
   \   0000004C   0x6800             LDR      R0,[R0, #+0]
   \   0000004E   0xF000 0x00FF      AND      R0,R0,#0xFF
   \   00000052   0x0005             MOVS     R5,R0
   1762              break;
   \   00000054   0xE006             B.N      ??CMU_HFRCOBandSet_7
   1763          
   1764            case cmuHFRCOBand_28MHz:
   1765              tuning = (DEVINFO->HFRCOCAL1 & _DEVINFO_HFRCOCAL1_BAND28_MASK) >>
   1766                       _DEVINFO_HFRCOCAL1_BAND28_SHIFT;
   \                     ??CMU_HFRCOBandSet_5: (+1)
   \   00000056   0x....             LDR.N    R0,??DataTable26_21  ;; 0xfe081e0
   \   00000058   0x6800             LDR      R0,[R0, #+0]
   \   0000005A   0xF3C0 0x2007      UBFX     R0,R0,#+8,#+8
   \   0000005E   0x0005             MOVS     R5,R0
   1767              break;
   \   00000060   0xE000             B.N      ??CMU_HFRCOBandSet_7
   1768          
   1769            default:
   1770              EFM_ASSERT(0);
   1771              return;
   \                     ??CMU_HFRCOBandSet_6: (+1)
   \   00000062   0xE01B             B.N      ??CMU_HFRCOBandSet_8
   1772            }
   1773          
   1774            /* If HFRCO is used for core clock, we have to consider flash access WS. */
   1775            osc = CMU_ClockSelectGet(cmuClock_HF);
   \                     ??CMU_HFRCOBandSet_7: (+1)
   \   00000064   0x2051             MOVS     R0,#+81
   \   00000066   0x.... 0x....      BL       CMU_ClockSelectGet
   \   0000006A   0x0007             MOVS     R7,R0
   1776            if (osc == cmuSelect_HFRCO)
   \   0000006C   0xB2FF             UXTB     R7,R7            ;; ZeroExt  R7,R7,#+24,#+24
   \   0000006E   0x2F05             CMP      R7,#+5
   \   00000070   0xD101             BNE.N    ??CMU_HFRCOBandSet_9
   1777            {
   1778              /* Configure worst case wait states for flash access before setting divider */
   1779              CMU_FlashWaitStateMax();
   \   00000072   0x.... 0x....      BL       CMU_FlashWaitStateMax
   1780            }
   1781          
   1782            /* Set band/tuning */
   1783            CMU->HFRCOCTRL = (CMU->HFRCOCTRL &
   1784                              ~(_CMU_HFRCOCTRL_BAND_MASK | _CMU_HFRCOCTRL_TUNING_MASK)) |
   1785                             (band << _CMU_HFRCOCTRL_BAND_SHIFT) |
   1786                             (tuning << _CMU_HFRCOCTRL_TUNING_SHIFT);
   \                     ??CMU_HFRCOBandSet_9: (+1)
   \   00000076   0x....             LDR.N    R0,??DataTable26_19  ;; 0x400c800c
   \   00000078   0x6800             LDR      R0,[R0, #+0]
   \   0000007A   0x0AC0             LSRS     R0,R0,#+11
   \   0000007C   0x02C0             LSLS     R0,R0,#+11
   \   0000007E   0xB2E4             UXTB     R4,R4            ;; ZeroExt  R4,R4,#+24,#+24
   \   00000080   0xEA55 0x2104      ORRS     R1,R5,R4, LSL #+8
   \   00000084   0x4308             ORRS     R0,R1,R0
   \   00000086   0x....             LDR.N    R1,??DataTable26_19  ;; 0x400c800c
   \   00000088   0x6008             STR      R0,[R1, #+0]
   1787          
   1788            /* If HFRCO is used for core clock, optimize flash WS */
   1789            if (osc == cmuSelect_HFRCO)
   \   0000008A   0xB2FF             UXTB     R7,R7            ;; ZeroExt  R7,R7,#+24,#+24
   \   0000008C   0x2F05             CMP      R7,#+5
   \   0000008E   0xD105             BNE.N    ??CMU_HFRCOBandSet_10
   1790            {
   1791              /* Update CMSIS core clock variable and get current core clock */
   1792              /* (The function will update the global variable) */
   1793              /* NOTE! We need at least 21 cycles before setting zero wait state to flash */
   1794              /* (i.e. WS0) when going from the 28MHz to 1MHz in the HFRCO band */
   1795              freq = SystemCoreClockGet();
   \   00000090   0x.... 0x....      BL       SystemCoreClockGet
   \   00000094   0x0006             MOVS     R6,R0
   1796          
   1797              /* Optimize flash access wait state setting for current core clk */
   1798              CMU_FlashWaitStateControl(freq);
   \   00000096   0x0030             MOVS     R0,R6
   \   00000098   0x.... 0x....      BL       CMU_FlashWaitStateControl
   1799            }
   1800          }
   \                     ??CMU_HFRCOBandSet_10: (+1)
   \                     ??CMU_HFRCOBandSet_8: (+1)
   \   0000009C   0xBDF1             POP      {R0,R4-R7,PC}    ;; return
   1801          
   1802          
   1803          /***************************************************************************//**
   1804           * @brief
   1805           *   Get the HFRCO startup delay.
   1806           *
   1807           * @details
   1808           *   Please refer to the reference manual for further details.
   1809           *
   1810           * @return
   1811           *   The startup delay in use.
   1812           ******************************************************************************/

   \                                 In section .text, align 2, keep-with-next
   1813          uint32_t CMU_HFRCOStartupDelayGet(void)
   1814          {
   1815            return((CMU->HFRCOCTRL & _CMU_HFRCOCTRL_SUDELAY_MASK) >>
   1816                   _CMU_HFRCOCTRL_SUDELAY_SHIFT);
   \                     CMU_HFRCOStartupDelayGet: (+1)
   \   00000000   0x....             LDR.N    R0,??DataTable26_19  ;; 0x400c800c
   \   00000002   0x6800             LDR      R0,[R0, #+0]
   \   00000004   0xF3C0 0x3004      UBFX     R0,R0,#+12,#+5
   \   00000008   0x4770             BX       LR               ;; return
   1817          }
   1818          
   1819          
   1820          /***************************************************************************//**
   1821           * @brief
   1822           *   Set the HFRCO startup delay.
   1823           *
   1824           * @details
   1825           *   Please refer to the reference manual for further details.
   1826           *
   1827           * @param[in] delay
   1828           *   The startup delay to set (<= 31).
   1829           ******************************************************************************/

   \                                 In section .text, align 2, keep-with-next
   1830          void CMU_HFRCOStartupDelaySet(uint32_t delay)
   1831          {
   1832            EFM_ASSERT(delay <= 31);
   1833          
   1834            delay         &= (_CMU_HFRCOCTRL_SUDELAY_MASK >> _CMU_HFRCOCTRL_SUDELAY_SHIFT);
   \                     CMU_HFRCOStartupDelaySet: (+1)
   \   00000000   0xF010 0x001F      ANDS     R0,R0,#0x1F
   1835            CMU->HFRCOCTRL = (CMU->HFRCOCTRL & ~(_CMU_HFRCOCTRL_SUDELAY_MASK)) |
   1836                             (delay << _CMU_HFRCOCTRL_SUDELAY_SHIFT);
   \   00000004   0x....             LDR.N    R1,??DataTable26_19  ;; 0x400c800c
   \   00000006   0x6809             LDR      R1,[R1, #+0]
   \   00000008   0xF431 0x31F8      BICS     R1,R1,#0x1F000
   \   0000000C   0xEA51 0x3100      ORRS     R1,R1,R0, LSL #+12
   \   00000010   0x....             LDR.N    R2,??DataTable26_19  ;; 0x400c800c
   \   00000012   0x6011             STR      R1,[R2, #+0]
   1837          }
   \   00000014   0x4770             BX       LR               ;; return
   1838          
   1839          
   1840          /***************************************************************************//**
   1841           * @brief
   1842           *   Get the LCD framerate divisor (FDIV) setting.
   1843           *
   1844           * @return
   1845           *   The LCD framerate divisor.
   1846           ******************************************************************************/

   \                                 In section .text, align 2, keep-with-next
   1847          uint32_t CMU_LCDClkFDIVGet(void)
   1848          {
   1849          #if defined(LCD_PRESENT)
   1850            return((CMU->LCDCTRL & _CMU_LCDCTRL_FDIV_MASK) >> _CMU_LCDCTRL_FDIV_SHIFT);
   1851          #else
   1852            return 0;
   \                     CMU_LCDClkFDIVGet: (+1)
   \   00000000   0x2000             MOVS     R0,#+0
   \   00000002   0x4770             BX       LR               ;; return
   1853          #endif /* defined(LCD_PRESENT) */
   1854          }
   1855          
   1856          
   1857          /***************************************************************************//**
   1858           * @brief
   1859           *   Set the LCD framerate divisor (FDIV) setting.
   1860           *
   1861           * @note
   1862           *   The FDIV field (CMU LCDCTRL register) should only be modified while the
   1863           *   LCD module is clock disabled (CMU LFACLKEN0.LCD bit is 0). This function
   1864           *   will NOT modify FDIV if the LCD module clock is enabled. Please refer to
   1865           *   CMU_ClockEnable() for disabling/enabling LCD clock.
   1866           *
   1867           * @param[in] div
   1868           *   The FDIV setting to use.
   1869           ******************************************************************************/

   \                                 In section .text, align 2, keep-with-next
   1870          void CMU_LCDClkFDIVSet(uint32_t div)
   1871          {
   1872          #if defined(LCD_PRESENT)
   1873            EFM_ASSERT(div <= cmuClkDiv_128);
   1874          
   1875            /* Do not allow modification if LCD clock enabled */
   1876            if (CMU->LFACLKEN0 & CMU_LFACLKEN0_LCD)
   1877            {
   1878              return;
   1879            }
   1880          
   1881            div        <<= _CMU_LCDCTRL_FDIV_SHIFT;
   1882            div         &= _CMU_LCDCTRL_FDIV_MASK;
   1883            CMU->LCDCTRL = (CMU->LCDCTRL & ~_CMU_LCDCTRL_FDIV_MASK) | div;
   1884          #else
   1885            (void)div;  /* Unused parameter */
   1886          #endif /* defined(LCD_PRESENT) */
   1887          }
   \                     CMU_LCDClkFDIVSet: (+1)
   \   00000000   0x4770             BX       LR               ;; return
   1888          
   1889          
   1890          /***************************************************************************//**
   1891           * @brief
   1892           *   Enable/disable oscillator.
   1893           *
   1894           * @param[in] osc
   1895           *   The oscillator to enable/disable.
   1896           *
   1897           * @param[in] enable
   1898           *   @li true - enable specified oscillator.
   1899           *   @li false - disable specified oscillator.
   1900           *
   1901           * @param[in] wait
   1902           *   Only used if @p enable is true.
   1903           *   @li true - wait for oscillator start-up time to timeout before returning.
   1904           *   @li false - do not wait for oscillator start-up time to timeout before
   1905           *     returning.
   1906           ******************************************************************************/

   \                                 In section .text, align 2, keep-with-next
   1907          void CMU_OscillatorEnable(CMU_Osc_TypeDef osc, bool enable, bool wait)
   1908          {
   \                     CMU_OscillatorEnable: (+1)
   \   00000000   0xE92D 0x43F8      PUSH     {R3-R9,LR}
   \   00000004   0x0004             MOVS     R4,R0
   \   00000006   0x000D             MOVS     R5,R1
   \   00000008   0x0016             MOVS     R6,R2
   1909            uint32_t status;
   1910            uint32_t enBit;
   1911            uint32_t disBit;
   1912          
   1913            switch (osc)
   \   0000000A   0xB2E4             UXTB     R4,R4            ;; ZeroExt  R4,R4,#+24,#+24
   \   0000000C   0x2C00             CMP      R4,#+0
   \   0000000E   0xD024             BEQ.N    ??CMU_OscillatorEnable_0
   \   00000010   0x2C02             CMP      R4,#+2
   \   00000012   0xD00D             BEQ.N    ??CMU_OscillatorEnable_1
   \   00000014   0xD31A             BCC.N    ??CMU_OscillatorEnable_2
   \   00000016   0x2C04             CMP      R4,#+4
   \   00000018   0xD011             BEQ.N    ??CMU_OscillatorEnable_3
   \   0000001A   0xD302             BCC.N    ??CMU_OscillatorEnable_4
   \   0000001C   0x2C05             CMP      R4,#+5
   \   0000001E   0xD026             BEQ.N    ??CMU_OscillatorEnable_5
   \   00000020   0xE026             B.N      ??CMU_OscillatorEnable_6
   1914            {
   1915            case cmuOsc_HFRCO:
   1916              enBit  = CMU_OSCENCMD_HFRCOEN;
   \                     ??CMU_OscillatorEnable_4: (+1)
   \   00000022   0x2001             MOVS     R0,#+1
   \   00000024   0x4680             MOV      R8,R0
   1917              disBit = CMU_OSCENCMD_HFRCODIS;
   \   00000026   0x2002             MOVS     R0,#+2
   \   00000028   0x4681             MOV      R9,R0
   1918              status = CMU_STATUS_HFRCORDY;
   \   0000002A   0x2002             MOVS     R0,#+2
   \   0000002C   0x0007             MOVS     R7,R0
   1919              break;
   \   0000002E   0xE020             B.N      ??CMU_OscillatorEnable_7
   1920          
   1921            case cmuOsc_HFXO:
   1922              enBit  = CMU_OSCENCMD_HFXOEN;
   \                     ??CMU_OscillatorEnable_1: (+1)
   \   00000030   0x2004             MOVS     R0,#+4
   \   00000032   0x4680             MOV      R8,R0
   1923              disBit = CMU_OSCENCMD_HFXODIS;
   \   00000034   0x2008             MOVS     R0,#+8
   \   00000036   0x4681             MOV      R9,R0
   1924              status = CMU_STATUS_HFXORDY;
   \   00000038   0x2008             MOVS     R0,#+8
   \   0000003A   0x0007             MOVS     R7,R0
   1925              break;
   \   0000003C   0xE019             B.N      ??CMU_OscillatorEnable_7
   1926          
   1927            case cmuOsc_AUXHFRCO:
   1928              enBit  = CMU_OSCENCMD_AUXHFRCOEN;
   \                     ??CMU_OscillatorEnable_3: (+1)
   \   0000003E   0x2010             MOVS     R0,#+16
   \   00000040   0x4680             MOV      R8,R0
   1929              disBit = CMU_OSCENCMD_AUXHFRCODIS;
   \   00000042   0x2020             MOVS     R0,#+32
   \   00000044   0x4681             MOV      R9,R0
   1930              status = CMU_STATUS_AUXHFRCORDY;
   \   00000046   0x2020             MOVS     R0,#+32
   \   00000048   0x0007             MOVS     R7,R0
   1931              break;
   \   0000004A   0xE012             B.N      ??CMU_OscillatorEnable_7
   1932          
   1933            case cmuOsc_LFRCO:
   1934              enBit  = CMU_OSCENCMD_LFRCOEN;
   \                     ??CMU_OscillatorEnable_2: (+1)
   \   0000004C   0x2040             MOVS     R0,#+64
   \   0000004E   0x4680             MOV      R8,R0
   1935              disBit = CMU_OSCENCMD_LFRCODIS;
   \   00000050   0x2080             MOVS     R0,#+128
   \   00000052   0x4681             MOV      R9,R0
   1936              status = CMU_STATUS_LFRCORDY;
   \   00000054   0x2080             MOVS     R0,#+128
   \   00000056   0x0007             MOVS     R7,R0
   1937              break;
   \   00000058   0xE00B             B.N      ??CMU_OscillatorEnable_7
   1938          
   1939            case cmuOsc_LFXO:
   1940              enBit  = CMU_OSCENCMD_LFXOEN;
   \                     ??CMU_OscillatorEnable_0: (+1)
   \   0000005A   0xF44F 0x7080      MOV      R0,#+256
   \   0000005E   0x4680             MOV      R8,R0
   1941              disBit = CMU_OSCENCMD_LFXODIS;
   \   00000060   0xF44F 0x7000      MOV      R0,#+512
   \   00000064   0x4681             MOV      R9,R0
   1942              status = CMU_STATUS_LFXORDY;
   \   00000066   0xF44F 0x7000      MOV      R0,#+512
   \   0000006A   0x0007             MOVS     R7,R0
   1943              break;
   \   0000006C   0xE001             B.N      ??CMU_OscillatorEnable_7
   1944          
   1945          #if defined _CMU_LFCLKSEL_LFAE_ULFRCO
   1946            case cmuOsc_ULFRCO:
   1947              /* ULFRCO is always enabled, and cannot be turned off */
   1948              return;
   \                     ??CMU_OscillatorEnable_5: (+1)
   \   0000006E   0xE013             B.N      ??CMU_OscillatorEnable_8
   1949          #endif
   1950          
   1951            default:
   1952              /* Undefined clock source */
   1953              EFM_ASSERT(0);
   1954              return;
   \                     ??CMU_OscillatorEnable_6: (+1)
   \   00000070   0xE012             B.N      ??CMU_OscillatorEnable_8
   1955            }
   1956          
   1957            if (enable)
   \                     ??CMU_OscillatorEnable_7: (+1)
   \   00000072   0xB2ED             UXTB     R5,R5            ;; ZeroExt  R5,R5,#+24,#+24
   \   00000074   0x2D00             CMP      R5,#+0
   \   00000076   0xD00A             BEQ.N    ??CMU_OscillatorEnable_9
   1958            {
   1959              CMU->OSCENCMD = enBit;
   \   00000078   0x....             LDR.N    R0,??DataTable26_22  ;; 0x400c8020
   \   0000007A   0xF8C0 0x8000      STR      R8,[R0, #+0]
   1960          
   1961              /* Wait for clock to stabilize if requested */
   1962              if (wait)
   \   0000007E   0xB2F6             UXTB     R6,R6            ;; ZeroExt  R6,R6,#+24,#+24
   \   00000080   0x2E00             CMP      R6,#+0
   \   00000082   0xD007             BEQ.N    ??CMU_OscillatorEnable_10
   1963              {
   1964                while (!(CMU->STATUS & status))
   \                     ??CMU_OscillatorEnable_11: (+1)
   \   00000084   0x....             LDR.N    R0,??DataTable24_2  ;; 0x400c802c
   \   00000086   0x6800             LDR      R0,[R0, #+0]
   \   00000088   0x4238             TST      R0,R7
   \   0000008A   0xD103             BNE.N    ??CMU_OscillatorEnable_10
   \   0000008C   0xE7FA             B.N      ??CMU_OscillatorEnable_11
   1965                  ;
   1966              }
   1967            }
   1968            else
   1969            {
   1970              CMU->OSCENCMD = disBit;
   \                     ??CMU_OscillatorEnable_9: (+1)
   \   0000008E   0x....             LDR.N    R0,??DataTable26_22  ;; 0x400c8020
   \   00000090   0xF8C0 0x9000      STR      R9,[R0, #+0]
   1971            }
   1972          
   1973            /* Keep EMU module informed */
   1974            EMU_UpdateOscConfig();
   \                     ??CMU_OscillatorEnable_10: (+1)
   \   00000094   0x.... 0x....      BL       EMU_UpdateOscConfig
   1975          }
   \                     ??CMU_OscillatorEnable_8: (+1)
   \   00000098   0xE8BD 0x83F1      POP      {R0,R4-R9,PC}    ;; return
   1976          
   1977          
   1978          /***************************************************************************//**
   1979           * @brief
   1980           *   Get oscillator frequency tuning setting.
   1981           *
   1982           * @param[in] osc
   1983           *   Oscillator to get tuning value for, one of:
   1984           *   @li #cmuOsc_LFRCO
   1985           *   @li #cmuOsc_HFRCO
   1986           *   @li #cmuOsc_AUXHFRCO
   1987           *
   1988           * @return
   1989           *   The oscillator frequency tuning setting in use.
   1990           ******************************************************************************/

   \                                 In section .text, align 2, keep-with-next
   1991          uint32_t CMU_OscillatorTuningGet(CMU_Osc_TypeDef osc)
   1992          {
   \                     CMU_OscillatorTuningGet: (+1)
   \   00000000   0x0001             MOVS     R1,R0
   1993            uint32_t ret;
   1994          
   1995            switch (osc)
   \   00000002   0xB2C9             UXTB     R1,R1            ;; ZeroExt  R1,R1,#+24,#+24
   \   00000004   0x000A             MOVS     R2,R1
   \   00000006   0x2A01             CMP      R2,#+1
   \   00000008   0xD004             BEQ.N    ??CMU_OscillatorTuningGet_0
   \   0000000A   0x2A03             CMP      R2,#+3
   \   0000000C   0xD008             BEQ.N    ??CMU_OscillatorTuningGet_1
   \   0000000E   0x2A04             CMP      R2,#+4
   \   00000010   0xD00C             BEQ.N    ??CMU_OscillatorTuningGet_2
   \   00000012   0xE011             B.N      ??CMU_OscillatorTuningGet_3
   1996            {
   1997            case cmuOsc_LFRCO:
   1998              ret = (CMU->LFRCOCTRL & _CMU_LFRCOCTRL_TUNING_MASK) >>
   1999                    _CMU_LFRCOCTRL_TUNING_SHIFT;
   \                     ??CMU_OscillatorTuningGet_0: (+1)
   \   00000014   0x....             LDR.N    R2,??DataTable26_23  ;; 0x400c8010
   \   00000016   0x6812             LDR      R2,[R2, #+0]
   \   00000018   0xF012 0x027F      ANDS     R2,R2,#0x7F
   \   0000001C   0x0010             MOVS     R0,R2
   2000              break;
   \   0000001E   0xE00D             B.N      ??CMU_OscillatorTuningGet_4
   2001          
   2002            case cmuOsc_HFRCO:
   2003              ret = (CMU->HFRCOCTRL & _CMU_HFRCOCTRL_TUNING_MASK) >>
   2004                    _CMU_HFRCOCTRL_TUNING_SHIFT;
   \                     ??CMU_OscillatorTuningGet_1: (+1)
   \   00000020   0x....             LDR.N    R2,??DataTable26_19  ;; 0x400c800c
   \   00000022   0x6812             LDR      R2,[R2, #+0]
   \   00000024   0xF002 0x02FF      AND      R2,R2,#0xFF
   \   00000028   0x0010             MOVS     R0,R2
   2005              break;
   \   0000002A   0xE007             B.N      ??CMU_OscillatorTuningGet_4
   2006          
   2007            case cmuOsc_AUXHFRCO:
   2008              ret = (CMU->AUXHFRCOCTRL & _CMU_AUXHFRCOCTRL_TUNING_MASK) >>
   2009                    _CMU_AUXHFRCOCTRL_TUNING_SHIFT;
   \                     ??CMU_OscillatorTuningGet_2: (+1)
   \   0000002C   0x....             LDR.N    R2,??DataTable26_24  ;; 0x400c8014
   \   0000002E   0x6812             LDR      R2,[R2, #+0]
   \   00000030   0xF002 0x02FF      AND      R2,R2,#0xFF
   \   00000034   0x0010             MOVS     R0,R2
   2010              break;
   \   00000036   0xE001             B.N      ??CMU_OscillatorTuningGet_4
   2011          
   2012            default:
   2013              EFM_ASSERT(0);
   2014              ret = 0;
   \                     ??CMU_OscillatorTuningGet_3: (+1)
   \   00000038   0x2200             MOVS     R2,#+0
   \   0000003A   0x0010             MOVS     R0,R2
   2015              break;
   2016            }
   2017          
   2018            return(ret);
   \                     ??CMU_OscillatorTuningGet_4: (+1)
   \   0000003C   0x4770             BX       LR               ;; return
   2019          }
   2020          
   2021          
   2022          /***************************************************************************//**
   2023           * @brief
   2024           *   Set the oscillator frequency tuning control.
   2025           *
   2026           * @note
   2027           *   Oscillator tuning is done during production, and the tuning value is
   2028           *   automatically loaded after a reset. Changing the tuning value from the
   2029           *   calibrated value is for more advanced use.
   2030           *
   2031           * @param[in] osc
   2032           *   Oscillator to set tuning value for, one of:
   2033           *   @li #cmuOsc_LFRCO
   2034           *   @li #cmuOsc_HFRCO
   2035           *   @li #cmuOsc_AUXHFRCO
   2036           *
   2037           * @param[in] val
   2038           *   The oscillator frequency tuning setting to use.
   2039           ******************************************************************************/

   \                                 In section .text, align 2, keep-with-next
   2040          void CMU_OscillatorTuningSet(CMU_Osc_TypeDef osc, uint32_t val)
   2041          {
   2042            switch (osc)
   \                     CMU_OscillatorTuningSet: (+1)
   \   00000000   0xB2C0             UXTB     R0,R0            ;; ZeroExt  R0,R0,#+24,#+24
   \   00000002   0x0002             MOVS     R2,R0
   \   00000004   0x2A01             CMP      R2,#+1
   \   00000006   0xD004             BEQ.N    ??CMU_OscillatorTuningSet_0
   \   00000008   0x2A03             CMP      R2,#+3
   \   0000000A   0xD00C             BEQ.N    ??CMU_OscillatorTuningSet_1
