###############################################################################
#
# IAR ANSI C/C++ Compiler V7.80.4.12462/W32 for ARM       12/Dec/2022  11:41:17
# Copyright 1999-2017 IAR Systems AB.
#
#    Cpu mode     =  thumb
#    Endian       =  little
#    Source file  =  
#        C:\Users\shaomingkun\Desktop\git\evolve5.0\2021sw\ECOM-5\Modules\EFM32_lib\emlib\_src\em_dac.c
#    Command line =  
#        C:\Users\shaomingkun\Desktop\git\evolve5.0\2021sw\ECOM-5\Modules\EFM32_lib\emlib\_src\em_dac.c
#        -D EFM32LG380F256 -D BSP_CORTEX_EFM32 -D DEBUG_EFM_JJ -D
#        RF_MODULE_EXIST____ -lC
#        C:\Users\shaomingkun\Desktop\git\evolve5.0\2021sw\ECOM-5\Debug\List
#        -lA
#        C:\Users\shaomingkun\Desktop\git\evolve5.0\2021sw\ECOM-5\Debug\List -o
#        C:\Users\shaomingkun\Desktop\git\evolve5.0\2021sw\ECOM-5\Debug\Obj
#        --no_cse --no_unroll --no_inline --no_code_motion --no_tbaa
#        --no_clustering --no_scheduling --debug --endian=little
#        --cpu=Cortex-M3 -e --fpu=None --dlib_config "C:\Program Files
#        (x86)\IAR Systems\Embedded Workbench
#        7.5\arm\INC\c\DLib_Config_Normal.h" -I
#        C:\Users\shaomingkun\Desktop\git\evolve5.0\2021sw\ECOM-5\ -I
#        C:\Users\shaomingkun\Desktop\git\evolve5.0\2021sw\ECOM-5\Local\ -I
#        C:\Users\shaomingkun\Desktop\git\evolve5.0\2021sw\ECOM-5\Modules\ -I
#        C:\Users\shaomingkun\Desktop\git\evolve5.0\2021sw\ECOM-5\Modules\Utilities_Lib\
#        -I
#        C:\Users\shaomingkun\Desktop\git\evolve5.0\2021sw\ECOM-5\Modules\HAL_Lib\
#        -I
#        C:\Users\shaomingkun\Desktop\git\evolve5.0\2021sw\ECOM-5\Modules\LCB_Lib\
#        -I
#        C:\Users\shaomingkun\Desktop\git\evolve5.0\2021sw\ECOM-5\Modules\Eng_lib\
#        -I
#        C:\Users\shaomingkun\Desktop\git\evolve5.0\2021sw\ECOM-5\..\Modules\Eng_lib\
#        -I
#        C:\Users\shaomingkun\Desktop\git\evolve5.0\2021sw\ECOM-5\Modules\SystemConfig_Lib\
#        -I
#        C:\Users\shaomingkun\Desktop\git\evolve5.0\2021sw\ECOM-5\Modules\EFM32_lib\
#        -I
#        C:\Users\shaomingkun\Desktop\git\evolve5.0\2021sw\ECOM-5\Modules\EFM32_lib\drivers\
#        -I
#        C:\Users\shaomingkun\Desktop\git\evolve5.0\2021sw\ECOM-5\Modules\Program_lib\
#        -I
#        C:\Users\shaomingkun\Desktop\git\evolve5.0\2021sw\ECOM-5\Modules\RF_lib\
#        -I
#        C:\Users\shaomingkun\Desktop\git\evolve5.0\2021sw\ECOM-5\Modules\USB_lib\
#        -I
#        C:\Users\shaomingkun\Desktop\git\evolve5.0\2021sw\ECOM-5\Modules\USB_lib\usb\src\
#        -I
#        C:\Users\shaomingkun\Desktop\git\evolve5.0\2021sw\ECOM-5\Modules\USB_lib\usb\inc\
#        -I
#        C:\Users\shaomingkun\Desktop\git\evolve5.0\2021sw\ECOM-5\Modules\Bluetooth_lib\
#        -I
#        C:\Users\shaomingkun\Desktop\git\evolve5.0\2021sw\ECOM-5\Modules\Remote_lib\
#        -I
#        C:\Users\shaomingkun\Desktop\git\evolve5.0\2021sw\ECOM-5\Modules\EFM32_lib\Include\
#        -I
#        C:\Users\shaomingkun\Desktop\git\evolve5.0\2021sw\ECOM-5\Modules\EFM32_lib\emlib\inc\
#        -I
#        C:\Users\shaomingkun\Desktop\git\evolve5.0\2021sw\ECOM-5\Modules\EFM32_lib\emlib\src\
#        -I
#        C:\Users\shaomingkun\Desktop\git\evolve5.0\2021sw\ECOM-5\Modules\EFM32_lib\drivers\fatfs\src\
#        -I
#        C:\Users\shaomingkun\Desktop\git\evolve5.0\2021sw\ECOM-5\Modules\EFM32_lib\Device\EnergyMicro\EFM32LG\Include\
#        -I
#        C:\Users\shaomingkun\Desktop\git\evolve5.0\2021sw\ECOM-5\Modules\EFM32_lib\Device\EnergyMicro\EFM32LG\Source\
#        -I
#        C:\Users\shaomingkun\Desktop\git\evolve5.0\2021sw\ECOM-5\Modules\EFM32_lib\Device\EnergyMicro\EFM32LG\Source\IAR\
#        -I
#        C:\Users\shaomingkun\Desktop\git\evolve5.0\2021sw\ECOM-5\Modules\RTT_Lib\
#        -On
#    Locale       =  Chinese (Simplified)_China.936
#    List file    =  
#        C:\Users\shaomingkun\Desktop\git\evolve5.0\2021sw\ECOM-5\Debug\List\em_dac.lst
#    Object file  =  
#        C:\Users\shaomingkun\Desktop\git\evolve5.0\2021sw\ECOM-5\Debug\Obj\em_dac.o
#
###############################################################################

C:\Users\shaomingkun\Desktop\git\evolve5.0\2021sw\ECOM-5\Modules\EFM32_lib\emlib\_src\em_dac.c
      1          /***************************************************************************//**
      2           * @file
      3           * @brief Digital to Analog Coversion (DAC) Peripheral API
      4           * @author Energy Micro AS
      5           * @version 3.0.1
      6           *******************************************************************************
      7           * @section License
      8           * <b>(C) Copyright 2012 Energy Micro AS, http://www.energymicro.com</b>
      9           *******************************************************************************
     10           *
     11           * Permission is granted to anyone to use this software for any purpose,
     12           * including commercial applications, and to alter it and redistribute it
     13           * freely, subject to the following restrictions:
     14           *
     15           * 1. The origin of this software must not be misrepresented; you must not
     16           *    claim that you wrote the original software.
     17           * 2. Altered source versions must be plainly marked as such, and must not be
     18           *    misrepresented as being the original software.
     19           * 3. This notice may not be removed or altered from any source distribution.
     20           *
     21           * DISCLAIMER OF WARRANTY/LIMITATION OF REMEDIES: Energy Micro AS has no
     22           * obligation to support this Software. Energy Micro AS is providing the
     23           * Software "AS IS", with no express or implied warranties of any kind,
     24           * including, but not limited to, any implied warranties of merchantability
     25           * or fitness for any particular purpose or warranties against infringement
     26           * of any proprietary rights of a third party.
     27           *
     28           * Energy Micro AS will not be liable for any consequential, incidental, or
     29           * special damages, or any other relief, or for any claim by any third party,
     30           * arising from your use of this Software.
     31           *
     32           ******************************************************************************/
     33          #include "em_dac.h"
     34          #include "em_cmu.h"

   \                                 In section .text, align 2, keep-with-next
   \   static __interwork __softfp void BITBAND_Peripheral(uint32_t volatile *, uint32_t, uint32_t)
   \                     BITBAND_Peripheral: (+1)
   \   00000000   0x008B             LSLS     R3,R1,#+2
   \   00000002   0xEB13 0x1340      ADDS     R3,R3,R0, LSL #+5
   \   00000006   0xF113 0x4384      ADDS     R3,R3,#+1107296256
   \   0000000A   0x601A             STR      R2,[R3, #+0]
   \   0000000C   0x4770             BX       LR               ;; return
     35          #include "em_assert.h"
     36          #include "em_bitband.h"
     37          
     38          /***************************************************************************//**
     39           * @addtogroup EM_Library
     40           * @{
     41           ******************************************************************************/
     42          
     43          /***************************************************************************//**
     44           * @addtogroup DAC
     45           * @brief Digital to Analog Coversion (DAC) Peripheral API
     46           * @{
     47           ******************************************************************************/
     48          
     49          /*******************************************************************************
     50           *******************************   DEFINES   ***********************************
     51           ******************************************************************************/
     52          
     53          /** @cond DO_NOT_INCLUDE_WITH_DOXYGEN */
     54          
     55          /** Validation of DAC channel for assert statements. */
     56          #define DAC_CH_VALID(ch)    ((ch) <= 1)
     57          
     58          /** Max DAC clock */
     59          #define DAC_MAX_CLOCK    1000000
     60          
     61          /** @endcond */
     62          
     63          /*******************************************************************************
     64           **************************   GLOBAL FUNCTIONS   *******************************
     65           ******************************************************************************/
     66          
     67          /***************************************************************************//**
     68           * @brief
     69           *   Enable/disable DAC channel.
     70           *
     71           * @param[in] dac
     72           *   Pointer to DAC peripheral register block.
     73           *
     74           * @param[in] ch
     75           *   Channel to enable/disable.
     76           *
     77           * @param[in] enable
     78           *   true to enable DAC channel, false to disable.
     79           ******************************************************************************/

   \                                 In section .text, align 2, keep-with-next
     80          void DAC_Enable(DAC_TypeDef *dac, unsigned int ch, bool enable)
     81          {
   \                     DAC_Enable: (+1)
   \   00000000   0xB5F8             PUSH     {R3-R7,LR}
   \   00000002   0x0004             MOVS     R4,R0
   \   00000004   0x000D             MOVS     R5,R1
   \   00000006   0x0016             MOVS     R6,R2
     82            volatile uint32_t *reg;
     83          
     84            EFM_ASSERT(DAC_REF_VALID(dac));
     85            EFM_ASSERT(DAC_CH_VALID(ch));
     86          
     87            if (!ch)
   \   00000008   0x2D00             CMP      R5,#+0
   \   0000000A   0xD103             BNE.N    ??DAC_Enable_0
     88            {
     89              reg = &(dac->CH0CTRL);
   \   0000000C   0xF114 0x0008      ADDS     R0,R4,#+8
   \   00000010   0x0007             MOVS     R7,R0
   \   00000012   0xE002             B.N      ??DAC_Enable_1
     90            }
     91            else
     92            {
     93              reg = &(dac->CH1CTRL);
   \                     ??DAC_Enable_0: (+1)
   \   00000014   0xF114 0x000C      ADDS     R0,R4,#+12
   \   00000018   0x0007             MOVS     R7,R0
     94            }
     95          
     96            BITBAND_Peripheral(reg, _DAC_CH0CTRL_EN_SHIFT, (unsigned int)enable);
   \                     ??DAC_Enable_1: (+1)
   \   0000001A   0xB2F6             UXTB     R6,R6            ;; ZeroExt  R6,R6,#+24,#+24
   \   0000001C   0x0032             MOVS     R2,R6
   \   0000001E   0x2100             MOVS     R1,#+0
   \   00000020   0x0038             MOVS     R0,R7
   \   00000022   0x.... 0x....      BL       BITBAND_Peripheral
     97          }
   \   00000026   0xBDF1             POP      {R0,R4-R7,PC}    ;; return
     98          
     99          
    100          /***************************************************************************//**
    101           * @brief
    102           *   Initialize DAC.
    103           *
    104           * @details
    105           *   Initializes common parts for both channels. In addition, channel control
    106           *   configuration must be done, please refer to DAC_InitChannel().
    107           *
    108           * @note
    109           *   This function will disable both channels prior to configuration.
    110           *
    111           * @param[in] dac
    112           *   Pointer to DAC peripheral register block.
    113           *
    114           * @param[in] init
    115           *   Pointer to DAC initialization structure.
    116           ******************************************************************************/

   \                                 In section .text, align 2, keep-with-next
    117          void DAC_Init(DAC_TypeDef *dac, const DAC_Init_TypeDef *init)
    118          {
   \                     DAC_Init: (+1)
   \   00000000   0xB570             PUSH     {R4-R6,LR}
   \   00000002   0x0004             MOVS     R4,R0
   \   00000004   0x000D             MOVS     R5,R1
    119            uint32_t tmp;
    120          
    121            EFM_ASSERT(DAC_REF_VALID(dac));
    122          
    123            /* Make sure both channels are disabled. */
    124            BITBAND_Peripheral(&(dac->CH0CTRL), _DAC_CH0CTRL_EN_SHIFT, 0);
   \   00000006   0x2200             MOVS     R2,#+0
   \   00000008   0x2100             MOVS     R1,#+0
   \   0000000A   0xF114 0x0008      ADDS     R0,R4,#+8
   \   0000000E   0x.... 0x....      BL       BITBAND_Peripheral
    125            BITBAND_Peripheral(&(dac->CH1CTRL), _DAC_CH0CTRL_EN_SHIFT, 0);
   \   00000012   0x2200             MOVS     R2,#+0
   \   00000014   0x2100             MOVS     R1,#+0
   \   00000016   0xF114 0x000C      ADDS     R0,R4,#+12
   \   0000001A   0x.... 0x....      BL       BITBAND_Peripheral
    126          
    127            /* Load proper calibration data depending on selected reference */
    128            switch (init->reference)
   \   0000001E   0x7868             LDRB     R0,[R5, #+1]
   \   00000020   0x2801             CMP      R0,#+1
   \   00000022   0xD002             BEQ.N    ??DAC_Init_0
   \   00000024   0x2802             CMP      R0,#+2
   \   00000026   0xD004             BEQ.N    ??DAC_Init_1
   \   00000028   0xE007             B.N      ??DAC_Init_2
    129            {
    130            case dacRef2V5:
    131              dac->CAL = DEVINFO->DAC0CAL1;
   \                     ??DAC_Init_0: (+1)
   \   0000002A   0x....             LDR.N    R0,??DataTable2  ;; 0xfe081cc
   \   0000002C   0x6800             LDR      R0,[R0, #+0]
   \   0000002E   0x62E0             STR      R0,[R4, #+44]
    132              break;
   \   00000030   0xE006             B.N      ??DAC_Init_3
    133          
    134            case dacRefVDD:
    135              dac->CAL = DEVINFO->DAC0CAL2;
   \                     ??DAC_Init_1: (+1)
   \   00000032   0x....             LDR.N    R0,??DataTable2_1  ;; 0xfe081d0
   \   00000034   0x6800             LDR      R0,[R0, #+0]
   \   00000036   0x62E0             STR      R0,[R4, #+44]
    136              break;
   \   00000038   0xE002             B.N      ??DAC_Init_3
    137          
    138            default: /* 1.25V */
    139              dac->CAL = DEVINFO->DAC0CAL0;
   \                     ??DAC_Init_2: (+1)
   \   0000003A   0x....             LDR.N    R0,??DataTable2_2  ;; 0xfe081c8
   \   0000003C   0x6800             LDR      R0,[R0, #+0]
   \   0000003E   0x62E0             STR      R0,[R4, #+44]
    140              break;
    141            }
    142          
    143            tmp = ((uint32_t)(init->refresh) << _DAC_CTRL_REFRSEL_SHIFT) |
    144                  (((uint32_t)(init->prescale) << _DAC_CTRL_PRESC_SHIFT) & _DAC_CTRL_PRESC_MASK) |
    145                  ((uint32_t)(init->reference) << _DAC_CTRL_REFSEL_SHIFT) |
    146                  ((uint32_t)(init->outMode) << _DAC_CTRL_OUTMODE_SHIFT) |
    147                  ((uint32_t)(init->convMode) << _DAC_CTRL_CONVMODE_SHIFT);
   \                     ??DAC_Init_3: (+1)
   \   00000040   0x7828             LDRB     R0,[R5, #+0]
   \   00000042   0x7929             LDRB     R1,[R5, #+4]
   \   00000044   0x0409             LSLS     R1,R1,#+16
   \   00000046   0xF411 0x21E0      ANDS     R1,R1,#0x70000
   \   0000004A   0xEA51 0x5000      ORRS     R0,R1,R0, LSL #+20
   \   0000004E   0x7869             LDRB     R1,[R5, #+1]
   \   00000050   0xEA50 0x2001      ORRS     R0,R0,R1, LSL #+8
   \   00000054   0x78A9             LDRB     R1,[R5, #+2]
   \   00000056   0xEA50 0x1001      ORRS     R0,R0,R1, LSL #+4
   \   0000005A   0x78E9             LDRB     R1,[R5, #+3]
   \   0000005C   0xEA50 0x0081      ORRS     R0,R0,R1, LSL #+2
   \   00000060   0x0006             MOVS     R6,R0
    148          
    149            if (init->ch0ResetPre)
   \   00000062   0x79A8             LDRB     R0,[R5, #+6]
   \   00000064   0x2800             CMP      R0,#+0
   \   00000066   0xD001             BEQ.N    ??DAC_Init_4
    150            {
    151              tmp |= DAC_CTRL_CH0PRESCRST;
   \   00000068   0xF056 0x0680      ORRS     R6,R6,#0x80
    152            }
    153          
    154            if (init->outEnablePRS)
   \                     ??DAC_Init_4: (+1)
   \   0000006C   0x79E8             LDRB     R0,[R5, #+7]
   \   0000006E   0x2800             CMP      R0,#+0
   \   00000070   0xD001             BEQ.N    ??DAC_Init_5
    155            {
    156              tmp |= DAC_CTRL_OUTENPRS;
   \   00000072   0xF056 0x0640      ORRS     R6,R6,#0x40
    157            }
    158          
    159            if (init->sineEnable)
   \                     ??DAC_Init_5: (+1)
   \   00000076   0x7A28             LDRB     R0,[R5, #+8]
   \   00000078   0x2800             CMP      R0,#+0
   \   0000007A   0xD001             BEQ.N    ??DAC_Init_6
    160            {
    161              tmp |= DAC_CTRL_SINEMODE;
   \   0000007C   0xF056 0x0602      ORRS     R6,R6,#0x2
    162            }
    163          
    164            if (init->diff)
   \                     ??DAC_Init_6: (+1)
   \   00000080   0x7A68             LDRB     R0,[R5, #+9]
   \   00000082   0x2800             CMP      R0,#+0
   \   00000084   0xD001             BEQ.N    ??DAC_Init_7
    165            {
    166              tmp |= DAC_CTRL_DIFF;
   \   00000086   0xF056 0x0601      ORRS     R6,R6,#0x1
    167            }
    168          
    169            dac->CTRL = tmp;
   \                     ??DAC_Init_7: (+1)
   \   0000008A   0x6026             STR      R6,[R4, #+0]
    170          }
   \   0000008C   0xBD70             POP      {R4-R6,PC}       ;; return
    171          
    172          
    173          /***************************************************************************//**
    174           * @brief
    175           *   Initialize DAC channel.
    176           *
    177           * @param[in] dac
    178           *   Pointer to DAC peripheral register block.
    179           *
    180           * @param[in] init
    181           *   Pointer to DAC initialization structure.
    182           *
    183           * @param[in] ch
    184           *   Channel number to initialize.
    185           ******************************************************************************/

   \                                 In section .text, align 2, keep-with-next
    186          void DAC_InitChannel(DAC_TypeDef *dac,
    187                               const DAC_InitChannel_TypeDef *init,
    188                               unsigned int ch)
    189          {
   \                     DAC_InitChannel: (+1)
   \   00000000   0xB410             PUSH     {R4}
    190            uint32_t tmp;
    191          
    192            EFM_ASSERT(DAC_REF_VALID(dac));
    193            EFM_ASSERT(DAC_CH_VALID(ch));
    194          
    195            tmp = (uint32_t)(init->prsSel) << _DAC_CH0CTRL_PRSSEL_SHIFT;
   \   00000002   0x78CC             LDRB     R4,[R1, #+3]
   \   00000004   0x0124             LSLS     R4,R4,#+4
   \   00000006   0x0023             MOVS     R3,R4
    196          
    197            if (init->enable)
   \   00000008   0x780C             LDRB     R4,[R1, #+0]
   \   0000000A   0x2C00             CMP      R4,#+0
   \   0000000C   0xD001             BEQ.N    ??DAC_InitChannel_0
    198            {
    199              tmp |= DAC_CH0CTRL_EN;
   \   0000000E   0xF053 0x0301      ORRS     R3,R3,#0x1
    200            }
    201          
    202            if (init->prsEnable)
   \                     ??DAC_InitChannel_0: (+1)
   \   00000012   0x784C             LDRB     R4,[R1, #+1]
   \   00000014   0x2C00             CMP      R4,#+0
   \   00000016   0xD001             BEQ.N    ??DAC_InitChannel_1
    203            {
    204              tmp |= DAC_CH0CTRL_PRSEN;
   \   00000018   0xF053 0x0304      ORRS     R3,R3,#0x4
    205            }
    206          
    207            if (init->refreshEnable)
   \                     ??DAC_InitChannel_1: (+1)
   \   0000001C   0x788C             LDRB     R4,[R1, #+2]
   \   0000001E   0x2C00             CMP      R4,#+0
   \   00000020   0xD001             BEQ.N    ??DAC_InitChannel_2
    208            {
    209              tmp |= DAC_CH0CTRL_REFREN;
   \   00000022   0xF053 0x0302      ORRS     R3,R3,#0x2
    210            }
    211          
    212            if (ch)
   \                     ??DAC_InitChannel_2: (+1)
   \   00000026   0x2A00             CMP      R2,#+0
   \   00000028   0xD001             BEQ.N    ??DAC_InitChannel_3
    213            {
    214              dac->CH1CTRL = tmp;
   \   0000002A   0x60C3             STR      R3,[R0, #+12]
   \   0000002C   0xE000             B.N      ??DAC_InitChannel_4
    215            }
    216            else
    217            {
    218              dac->CH0CTRL = tmp;
   \                     ??DAC_InitChannel_3: (+1)
   \   0000002E   0x6083             STR      R3,[R0, #+8]
    219            }
    220          }
   \                     ??DAC_InitChannel_4: (+1)
   \   00000030   0xBC10             POP      {R4}
   \   00000032   0x4770             BX       LR               ;; return
    221          
    222          
    223          /***************************************************************************//**
    224           * @brief
    225           *   Calculate prescaler value used to determine DAC clock.
    226           *
    227           * @details
    228           *   The DAC clock is given by: HFPERCLK / (prescale ^ 2).
    229           *
    230           * @param[in] dacFreq DAC frequency wanted. The frequency will automatically
    231           *   be adjusted to be below max allowed DAC clock.
    232           *
    233           * @param[in] hfperFreq Frequency in Hz of reference HFPER clock. Set to 0 to
    234           *   use currently defined HFPER clock setting.
    235           *
    236           * @return
    237           *   Prescaler value to use for DAC in order to achieve a clock value
    238           *   <= @p dacFreq.
    239           ******************************************************************************/

   \                                 In section .text, align 2, keep-with-next
    240          uint8_t DAC_PrescaleCalc(uint32_t dacFreq, uint32_t hfperFreq)
    241          {
   \                     DAC_PrescaleCalc: (+1)
   \   00000000   0xB570             PUSH     {R4-R6,LR}
   \   00000002   0x0004             MOVS     R4,R0
   \   00000004   0x000D             MOVS     R5,R1
    242            uint32_t ret;
    243          
    244            /* Make sure selected DAC clock is below max value */
    245            if (dacFreq > DAC_MAX_CLOCK)
   \   00000006   0x....             LDR.N    R0,??DataTable2_3  ;; 0xf4241
   \   00000008   0x4284             CMP      R4,R0
   \   0000000A   0xD301             BCC.N    ??DAC_PrescaleCalc_0
    246            {
    247              dacFreq = DAC_MAX_CLOCK;
   \   0000000C   0x....             LDR.N    R0,??DataTable2_4  ;; 0xf4240
   \   0000000E   0x0004             MOVS     R4,R0
    248            }
    249          
    250            /* Use current HFPER frequency? */
    251            if (!hfperFreq)
   \                     ??DAC_PrescaleCalc_0: (+1)
   \   00000010   0x2D00             CMP      R5,#+0
   \   00000012   0xD103             BNE.N    ??DAC_PrescaleCalc_1
    252            {
    253              hfperFreq = CMU_ClockFreqGet(cmuClock_HFPER);
   \   00000014   0x....             LDR.N    R0,??DataTable2_5  ;; 0x28110
   \   00000016   0x.... 0x....      BL       CMU_ClockFreqGet
   \   0000001A   0x0005             MOVS     R5,R0
    254            }
    255          
    256            /* Iterate in order to determine best prescale value. Only a few possible */
    257            /* values. We start with lowest prescaler value in order to get first */
    258            /* equal or below wanted DAC frequency value. */
    259            for (ret = 0; ret <= (_DAC_CTRL_PRESC_MASK >> _DAC_CTRL_PRESC_SHIFT); ret++)
   \                     ??DAC_PrescaleCalc_1: (+1)
   \   0000001C   0x2000             MOVS     R0,#+0
   \   0000001E   0x0006             MOVS     R6,R0
   \                     ??DAC_PrescaleCalc_2: (+1)
   \   00000020   0x2E08             CMP      R6,#+8
   \   00000022   0xD205             BCS.N    ??DAC_PrescaleCalc_3
    260            {
    261              if ((hfperFreq >> ret) <= dacFreq)
   \   00000024   0x0028             MOVS     R0,R5
   \   00000026   0x40F0             LSRS     R0,R0,R6
   \   00000028   0x4284             CMP      R4,R0
   \   0000002A   0xD201             BCS.N    ??DAC_PrescaleCalc_3
    262                break;
    263            }
   \                     ??DAC_PrescaleCalc_4: (+1)
   \   0000002C   0x1C76             ADDS     R6,R6,#+1
   \   0000002E   0xE7F7             B.N      ??DAC_PrescaleCalc_2
    264          
    265            return((uint8_t)ret);
   \                     ??DAC_PrescaleCalc_3: (+1)
   \   00000030   0x0030             MOVS     R0,R6
   \   00000032   0xB2C0             UXTB     R0,R0            ;; ZeroExt  R0,R0,#+24,#+24
   \   00000034   0xBD70             POP      {R4-R6,PC}       ;; return
    266          }
    267          
    268          
    269          /***************************************************************************//**
    270           * @brief
    271           *   Reset DAC to same state as after a HW reset.
    272           *
    273           * @param[in] dac
    274           *   Pointer to ADC peripheral register block.
    275           ******************************************************************************/

   \                                 In section .text, align 2, keep-with-next
    276          void DAC_Reset(DAC_TypeDef *dac)
    277          {
    278            /* Disable channels, before resetting other registers. */
    279            dac->CH0CTRL  = _DAC_CH0CTRL_RESETVALUE;
   \                     DAC_Reset: (+1)
   \   00000000   0x2100             MOVS     R1,#+0
   \   00000002   0x6081             STR      R1,[R0, #+8]
    280            dac->CH1CTRL  = _DAC_CH1CTRL_RESETVALUE;
   \   00000004   0x2100             MOVS     R1,#+0
   \   00000006   0x60C1             STR      R1,[R0, #+12]
    281            dac->CTRL     = _DAC_CTRL_RESETVALUE;
   \   00000008   0x2110             MOVS     R1,#+16
   \   0000000A   0x6001             STR      R1,[R0, #+0]
    282            dac->IEN      = _DAC_IEN_RESETVALUE;
   \   0000000C   0x2100             MOVS     R1,#+0
   \   0000000E   0x6101             STR      R1,[R0, #+16]
    283            dac->IFC      = _DAC_IFC_MASK;
   \   00000010   0x2133             MOVS     R1,#+51
   \   00000012   0x61C1             STR      R1,[R0, #+28]
    284            dac->CAL      = DEVINFO->DAC0CAL0;
   \   00000014   0x....             LDR.N    R1,??DataTable2_2  ;; 0xfe081c8
   \   00000016   0x6809             LDR      R1,[R1, #+0]
   \   00000018   0x62C1             STR      R1,[R0, #+44]
    285            dac->BIASPROG = _DAC_BIASPROG_RESETVALUE;
   \   0000001A   0xF244 0x7147      MOVW     R1,#+18247
   \   0000001E   0x6301             STR      R1,[R0, #+48]
    286            /* Do not reset route register, setting should be done independently */
    287          }
   \   00000020   0x4770             BX       LR               ;; return

   \                                 In section .text, align 4, keep-with-next
   \                     ??DataTable2:
   \   00000000   0x0FE081CC         DC32     0xfe081cc

   \                                 In section .text, align 4, keep-with-next
   \                     ??DataTable2_1:
   \   00000000   0x0FE081D0         DC32     0xfe081d0

   \                                 In section .text, align 4, keep-with-next
   \                     ??DataTable2_2:
   \   00000000   0x0FE081C8         DC32     0xfe081c8

   \                                 In section .text, align 4, keep-with-next
   \                     ??DataTable2_3:
   \   00000000   0x000F4241         DC32     0xf4241

   \                                 In section .text, align 4, keep-with-next
   \                     ??DataTable2_4:
   \   00000000   0x000F4240         DC32     0xf4240

   \                                 In section .text, align 4, keep-with-next
   \                     ??DataTable2_5:
   \   00000000   0x00028110         DC32     0x28110
    288          
    289          
    290          /** @} (end addtogroup DAC) */
    291          /** @} (end addtogroup EM_Library) */

   Maximum stack usage in bytes:

   .cstack Function
   ------- --------
       0   BITBAND_Peripheral
      24   DAC_Enable
        24   -> BITBAND_Peripheral
      16   DAC_Init
        16   -> BITBAND_Peripheral
       4   DAC_InitChannel
      16   DAC_PrescaleCalc
        16   -> CMU_ClockFreqGet
       0   DAC_Reset


   Section sizes:

   Bytes  Function/Label
   -----  --------------
       4  ??DataTable2
       4  ??DataTable2_1
       4  ??DataTable2_2
       4  ??DataTable2_3
       4  ??DataTable2_4
       4  ??DataTable2_5
      14  BITBAND_Peripheral
      40  DAC_Enable
     142  DAC_Init
      52  DAC_InitChannel
      54  DAC_PrescaleCalc
      34  DAC_Reset

 
 360 bytes in section .text
 
 360 bytes of CODE memory

Errors: none
Warnings: none
