###############################################################################
#
# IAR ANSI C/C++ Compiler V7.80.4.12462/W32 for ARM       12/Dec/2022  11:41:18
# Copyright 1999-2017 IAR Systems AB.
#
#    Cpu mode     =  thumb
#    Endian       =  little
#    Source file  =  
#        C:\Users\shaomingkun\Desktop\git\evolve5.0\2021sw\ECOM-5\Modules\EFM32_lib\emlib\_src\em_ebi.c
#    Command line =  
#        C:\Users\shaomingkun\Desktop\git\evolve5.0\2021sw\ECOM-5\Modules\EFM32_lib\emlib\_src\em_ebi.c
#        -D EFM32LG380F256 -D BSP_CORTEX_EFM32 -D DEBUG_EFM_JJ -D
#        RF_MODULE_EXIST____ -lC
#        C:\Users\shaomingkun\Desktop\git\evolve5.0\2021sw\ECOM-5\Debug\List
#        -lA
#        C:\Users\shaomingkun\Desktop\git\evolve5.0\2021sw\ECOM-5\Debug\List -o
#        C:\Users\shaomingkun\Desktop\git\evolve5.0\2021sw\ECOM-5\Debug\Obj
#        --no_cse --no_unroll --no_inline --no_code_motion --no_tbaa
#        --no_clustering --no_scheduling --debug --endian=little
#        --cpu=Cortex-M3 -e --fpu=None --dlib_config "C:\Program Files
#        (x86)\IAR Systems\Embedded Workbench
#        7.5\arm\INC\c\DLib_Config_Normal.h" -I
#        C:\Users\shaomingkun\Desktop\git\evolve5.0\2021sw\ECOM-5\ -I
#        C:\Users\shaomingkun\Desktop\git\evolve5.0\2021sw\ECOM-5\Local\ -I
#        C:\Users\shaomingkun\Desktop\git\evolve5.0\2021sw\ECOM-5\Modules\ -I
#        C:\Users\shaomingkun\Desktop\git\evolve5.0\2021sw\ECOM-5\Modules\Utilities_Lib\
#        -I
#        C:\Users\shaomingkun\Desktop\git\evolve5.0\2021sw\ECOM-5\Modules\HAL_Lib\
#        -I
#        C:\Users\shaomingkun\Desktop\git\evolve5.0\2021sw\ECOM-5\Modules\LCB_Lib\
#        -I
#        C:\Users\shaomingkun\Desktop\git\evolve5.0\2021sw\ECOM-5\Modules\Eng_lib\
#        -I
#        C:\Users\shaomingkun\Desktop\git\evolve5.0\2021sw\ECOM-5\..\Modules\Eng_lib\
#        -I
#        C:\Users\shaomingkun\Desktop\git\evolve5.0\2021sw\ECOM-5\Modules\SystemConfig_Lib\
#        -I
#        C:\Users\shaomingkun\Desktop\git\evolve5.0\2021sw\ECOM-5\Modules\EFM32_lib\
#        -I
#        C:\Users\shaomingkun\Desktop\git\evolve5.0\2021sw\ECOM-5\Modules\EFM32_lib\drivers\
#        -I
#        C:\Users\shaomingkun\Desktop\git\evolve5.0\2021sw\ECOM-5\Modules\Program_lib\
#        -I
#        C:\Users\shaomingkun\Desktop\git\evolve5.0\2021sw\ECOM-5\Modules\RF_lib\
#        -I
#        C:\Users\shaomingkun\Desktop\git\evolve5.0\2021sw\ECOM-5\Modules\USB_lib\
#        -I
#        C:\Users\shaomingkun\Desktop\git\evolve5.0\2021sw\ECOM-5\Modules\USB_lib\usb\src\
#        -I
#        C:\Users\shaomingkun\Desktop\git\evolve5.0\2021sw\ECOM-5\Modules\USB_lib\usb\inc\
#        -I
#        C:\Users\shaomingkun\Desktop\git\evolve5.0\2021sw\ECOM-5\Modules\Bluetooth_lib\
#        -I
#        C:\Users\shaomingkun\Desktop\git\evolve5.0\2021sw\ECOM-5\Modules\Remote_lib\
#        -I
#        C:\Users\shaomingkun\Desktop\git\evolve5.0\2021sw\ECOM-5\Modules\EFM32_lib\Include\
#        -I
#        C:\Users\shaomingkun\Desktop\git\evolve5.0\2021sw\ECOM-5\Modules\EFM32_lib\emlib\inc\
#        -I
#        C:\Users\shaomingkun\Desktop\git\evolve5.0\2021sw\ECOM-5\Modules\EFM32_lib\emlib\src\
#        -I
#        C:\Users\shaomingkun\Desktop\git\evolve5.0\2021sw\ECOM-5\Modules\EFM32_lib\drivers\fatfs\src\
#        -I
#        C:\Users\shaomingkun\Desktop\git\evolve5.0\2021sw\ECOM-5\Modules\EFM32_lib\Device\EnergyMicro\EFM32LG\Include\
#        -I
#        C:\Users\shaomingkun\Desktop\git\evolve5.0\2021sw\ECOM-5\Modules\EFM32_lib\Device\EnergyMicro\EFM32LG\Source\
#        -I
#        C:\Users\shaomingkun\Desktop\git\evolve5.0\2021sw\ECOM-5\Modules\EFM32_lib\Device\EnergyMicro\EFM32LG\Source\IAR\
#        -I
#        C:\Users\shaomingkun\Desktop\git\evolve5.0\2021sw\ECOM-5\Modules\RTT_Lib\
#        -On
#    Locale       =  Chinese (Simplified)_China.936
#    List file    =  
#        C:\Users\shaomingkun\Desktop\git\evolve5.0\2021sw\ECOM-5\Debug\List\em_ebi.lst
#    Object file  =  
#        C:\Users\shaomingkun\Desktop\git\evolve5.0\2021sw\ECOM-5\Debug\Obj\em_ebi.o
#
###############################################################################

C:\Users\shaomingkun\Desktop\git\evolve5.0\2021sw\ECOM-5\Modules\EFM32_lib\emlib\_src\em_ebi.c
      1          /***************************************************************************//**
      2           * @file
      3           * @brief External Bus Interface (EBI) Peripheral API
      4           * @author Energy Micro AS
      5           * @version 3.0.1
      6           *******************************************************************************
      7           * @section License
      8           * <b>(C) Copyright 2012 Energy Micro AS, http://www.energymicro.com</b>
      9           *******************************************************************************
     10           *
     11           * Permission is granted to anyone to use this software for any purpose,
     12           * including commercial applications, and to alter it and redistribute it
     13           * freely, subject to the following restrictions:
     14           *
     15           * 1. The origin of this software must not be misrepresented; you must not
     16           *    claim that you wrote the original software.
     17           * 2. Altered source versions must be plainly marked as such, and must not be
     18           *    misrepresented as being the original software.
     19           * 3. This notice may not be removed or altered from any source distribution.
     20           *
     21           * DISCLAIMER OF WARRANTY/LIMITATION OF REMEDIES: Energy Micro AS has no
     22           * obligation to support this Software. Energy Micro AS is providing the
     23           * Software "AS IS", with no express or implied warranties of any kind,
     24           * including, but not limited to, any implied warranties of merchantability
     25           * or fitness for any particular purpose or warranties against infringement
     26           * of any proprietary rights of a third party.
     27           *
     28           * Energy Micro AS will not be liable for any consequential, incidental, or
     29           * special damages, or any other relief, or for any claim by any third party,
     30           * arising from your use of this Software.
     31           *
     32           ******************************************************************************/
     33          #include "em_ebi.h"

   \                                 In section .text, align 2, keep-with-next
   \   static __interwork __softfp void EBI_TFTFrameBaseSet(uint32_t)
   \                     EBI_TFTFrameBaseSet: (+1)
   \   00000000   0x.... 0x....      LDR.W    R1,??DataTable23  ;; 0x40008064
   \   00000004   0x6008             STR      R0,[R1, #+0]
   \   00000006   0x4770             BX       LR               ;; return
     34          #if defined(EBI_COUNT) && (EBI_COUNT > 0)
     35          #include "em_assert.h"
     36          #include "em_bitband.h"

   \                                 In section .text, align 2, keep-with-next
   \   static __interwork __softfp void BITBAND_Peripheral(uint32_t volatile *, uint32_t, uint32_t)
   \                     BITBAND_Peripheral: (+1)
   \   00000000   0x008B             LSLS     R3,R1,#+2
   \   00000002   0xEB13 0x1340      ADDS     R3,R3,R0, LSL #+5
   \   00000006   0xF113 0x4384      ADDS     R3,R3,#+1107296256
   \   0000000A   0x601A             STR      R2,[R3, #+0]
   \   0000000C   0x4770             BX       LR               ;; return
     37          
     38          /***************************************************************************//**
     39           * @addtogroup EM_Library
     40           * @{
     41           ******************************************************************************/
     42          
     43          /***************************************************************************//**
     44           * @addtogroup EBI
     45           * @brief EBI External Bus Interface (EBI) Peripheral API
     46           * @{
     47           ******************************************************************************/
     48          
     49          /***************************************************************************//**
     50           * @brief
     51           *   Configure and enable External Bus Interface
     52           *
     53           * @param[in] ebiInit
     54           *   EBI configuration structure
     55           *
     56           * @note
     57           *   GPIO lines must be configured as PUSH_PULL for correct operation
     58           *   GPIO and EBI clocks must be enabled in the CMU
     59           ******************************************************************************/

   \                                 In section .text, align 2, keep-with-next
     60          void EBI_Init(const EBI_Init_TypeDef *ebiInit)
     61          {
   \                     EBI_Init: (+1)
   \   00000000   0xB538             PUSH     {R3-R5,LR}
   \   00000002   0x0004             MOVS     R4,R0
     62            uint32_t ctrl = EBI->CTRL;
   \   00000004   0x.... 0x....      LDR.W    R0,??DataTable23_1  ;; 0x40008000
   \   00000008   0x6805             LDR      R5,[R0, #+0]
     63          
     64          #if defined(_EFM32_GIANT_FAMILY) || defined(_EFM32_WONDER_FAMILY)
     65            /* Enable Independent Timing for devices that supports it */
     66            ctrl |= EBI_CTRL_ITS;
   \   0000000A   0xF055 0x4580      ORRS     R5,R5,#0x40000000
     67          
     68            /* Set polarity of address ready */
     69            EBI_BankPolaritySet(ebiInit->banks, ebiLineARDY, ebiInit->ardyPolarity);
   \   0000000E   0x7862             LDRB     R2,[R4, #+1]
   \   00000010   0x2100             MOVS     R1,#+0
   \   00000012   0x68E0             LDR      R0,[R4, #+12]
   \   00000014   0x.... 0x....      BL       EBI_BankPolaritySet
     70            /* Set polarity of address latch enable */
     71            EBI_BankPolaritySet(ebiInit->banks, ebiLineALE, ebiInit->alePolarity);
   \   00000018   0x78A2             LDRB     R2,[R4, #+2]
   \   0000001A   0x2101             MOVS     R1,#+1
   \   0000001C   0x68E0             LDR      R0,[R4, #+12]
   \   0000001E   0x.... 0x....      BL       EBI_BankPolaritySet
     72            /* Set polarity of write enable */
     73            EBI_BankPolaritySet(ebiInit->banks, ebiLineWE, ebiInit->wePolarity);
   \   00000022   0x78E2             LDRB     R2,[R4, #+3]
   \   00000024   0x2102             MOVS     R1,#+2
   \   00000026   0x68E0             LDR      R0,[R4, #+12]
   \   00000028   0x.... 0x....      BL       EBI_BankPolaritySet
     74            /* Set polarity of read enable */
     75            EBI_BankPolaritySet(ebiInit->banks, ebiLineRE, ebiInit->rePolarity);
   \   0000002C   0x7922             LDRB     R2,[R4, #+4]
   \   0000002E   0x2103             MOVS     R1,#+3
   \   00000030   0x68E0             LDR      R0,[R4, #+12]
   \   00000032   0x.... 0x....      BL       EBI_BankPolaritySet
     76            /* Set polarity of chip select lines */
     77            EBI_BankPolaritySet(ebiInit->banks, ebiLineCS, ebiInit->csPolarity);
   \   00000036   0x7962             LDRB     R2,[R4, #+5]
   \   00000038   0x2104             MOVS     R1,#+4
   \   0000003A   0x68E0             LDR      R0,[R4, #+12]
   \   0000003C   0x.... 0x....      BL       EBI_BankPolaritySet
     78            /* Set polarity of byte lane line */
     79            EBI_BankPolaritySet(ebiInit->banks, ebiLineBL, ebiInit->blPolarity);
   \   00000040   0x79A2             LDRB     R2,[R4, #+6]
   \   00000042   0x2105             MOVS     R1,#+5
   \   00000044   0x68E0             LDR      R0,[R4, #+12]
   \   00000046   0x.... 0x....      BL       EBI_BankPolaritySet
     80          #else
     81            /* Set polarity of address ready */
     82            EBI_PolaritySet(ebiLineARDY, ebiInit->ardyPolarity);
     83            /* Set polarity of address latch enable */
     84            EBI_PolaritySet(ebiLineALE, ebiInit->alePolarity);
     85            /* Set polarity of write enable */
     86            EBI_PolaritySet(ebiLineWE, ebiInit->wePolarity);
     87            /* Set polarity of read enable */
     88            EBI_PolaritySet(ebiLineRE, ebiInit->rePolarity);
     89            /* Set polarity of chip select lines */
     90            EBI_PolaritySet(ebiLineCS, ebiInit->csPolarity);
     91          #endif
     92          
     93            /* Configure EBI mode and control settings  */
     94          #if defined(_EFM32_GIANT_FAMILY) || defined(_EFM32_WONDER_FAMILY)
     95            if (ebiInit->banks & EBI_BANK0)
   \   0000004A   0x7B20             LDRB     R0,[R4, #+12]
   \   0000004C   0x0780             LSLS     R0,R0,#+30
   \   0000004E   0xD516             BPL.N    ??EBI_Init_0
     96            {
     97              ctrl &= ~(_EBI_CTRL_MODE_MASK|
     98                        _EBI_CTRL_ARDYEN_MASK|
     99                        _EBI_CTRL_ARDYTODIS_MASK|
    100                        _EBI_CTRL_BL_MASK|
    101                        _EBI_CTRL_NOIDLE_MASK|
    102                        _EBI_CTRL_BANK0EN_MASK);
   \   00000050   0x.... 0x....      LDR.W    R0,??DataTable23_2  ;; 0xfefceefc
   \   00000054   0x4005             ANDS     R5,R0,R5
    103              ctrl |= (ebiInit->mode << _EBI_CTRL_MODE_SHIFT);
   \   00000056   0x7820             LDRB     R0,[R4, #+0]
   \   00000058   0x4305             ORRS     R5,R0,R5
    104              ctrl |= (ebiInit->ardyEnable << _EBI_CTRL_ARDYEN_SHIFT);
   \   0000005A   0x7A60             LDRB     R0,[R4, #+9]
   \   0000005C   0xEA55 0x4500      ORRS     R5,R5,R0, LSL #+16
    105              ctrl |= (ebiInit->ardyDisableTimeout << _EBI_CTRL_ARDYTODIS_SHIFT);
   \   00000060   0x7AA0             LDRB     R0,[R4, #+10]
   \   00000062   0xEA55 0x4540      ORRS     R5,R5,R0, LSL #+17
    106              ctrl |= (ebiInit->blEnable << _EBI_CTRL_BL_SHIFT);
   \   00000066   0x79E0             LDRB     R0,[R4, #+7]
   \   00000068   0xEA55 0x6500      ORRS     R5,R5,R0, LSL #+24
    107              ctrl |= (ebiInit->noIdle << _EBI_CTRL_NOIDLE_SHIFT);
   \   0000006C   0x7A20             LDRB     R0,[R4, #+8]
   \   0000006E   0xEA55 0x3500      ORRS     R5,R5,R0, LSL #+12
    108              if ( ebiInit->enable) 
   \   00000072   0xF894 0x004C      LDRB     R0,[R4, #+76]
   \   00000076   0x2800             CMP      R0,#+0
   \   00000078   0xD001             BEQ.N    ??EBI_Init_0
    109              {
    110                ctrl |= EBI_CTRL_BANK0EN;
   \   0000007A   0xF455 0x7580      ORRS     R5,R5,#0x100
    111              }
    112            }
    113            if (ebiInit->banks & EBI_BANK1)
   \                     ??EBI_Init_0: (+1)
   \   0000007E   0x7B20             LDRB     R0,[R4, #+12]
   \   00000080   0x0740             LSLS     R0,R0,#+29
   \   00000082   0xD517             BPL.N    ??EBI_Init_1
    114            {
    115              ctrl &= ~(_EBI_CTRL_BL1_MASK|
    116                        _EBI_CTRL_MODE1_MASK|
    117                        _EBI_CTRL_ARDY1EN_MASK|
    118                        _EBI_CTRL_ARDYTO1DIS_MASK|
    119                        _EBI_CTRL_NOIDLE1_MASK|
    120                        _EBI_CTRL_BANK1EN_MASK); 
   \   00000084   0x.... 0x....      LDR.W    R0,??DataTable23_3  ;; 0xfdf3ddf3
   \   00000088   0x4005             ANDS     R5,R0,R5
    121              ctrl |= (ebiInit->mode << _EBI_CTRL_MODE1_SHIFT);
   \   0000008A   0x7820             LDRB     R0,[R4, #+0]
   \   0000008C   0xEA55 0x0580      ORRS     R5,R5,R0, LSL #+2
    122              ctrl |= (ebiInit->ardyEnable << _EBI_CTRL_ARDY1EN_SHIFT);
   \   00000090   0x7A60             LDRB     R0,[R4, #+9]
   \   00000092   0xEA55 0x4580      ORRS     R5,R5,R0, LSL #+18
    123              ctrl |= (ebiInit->ardyDisableTimeout << _EBI_CTRL_ARDYTO1DIS_SHIFT);
   \   00000096   0x7AA0             LDRB     R0,[R4, #+10]
   \   00000098   0xEA55 0x45C0      ORRS     R5,R5,R0, LSL #+19
    124              ctrl |= (ebiInit->blEnable << _EBI_CTRL_BL1_SHIFT);
   \   0000009C   0x79E0             LDRB     R0,[R4, #+7]
   \   0000009E   0xEA55 0x6540      ORRS     R5,R5,R0, LSL #+25
    125              ctrl |= (ebiInit->noIdle << _EBI_CTRL_NOIDLE1_SHIFT);
   \   000000A2   0x7A20             LDRB     R0,[R4, #+8]
   \   000000A4   0xEA55 0x3540      ORRS     R5,R5,R0, LSL #+13
    126              if ( ebiInit->enable) 
   \   000000A8   0xF894 0x004C      LDRB     R0,[R4, #+76]
   \   000000AC   0x2800             CMP      R0,#+0
   \   000000AE   0xD001             BEQ.N    ??EBI_Init_1
    127              {
    128                ctrl |= EBI_CTRL_BANK1EN;
   \   000000B0   0xF455 0x7500      ORRS     R5,R5,#0x200
    129              }
    130            }
    131            if (ebiInit->banks & EBI_BANK2)
   \                     ??EBI_Init_1: (+1)
   \   000000B4   0x7B20             LDRB     R0,[R4, #+12]
   \   000000B6   0x0700             LSLS     R0,R0,#+28
   \   000000B8   0xD517             BPL.N    ??EBI_Init_2
    132            {
    133              ctrl &= ~(_EBI_CTRL_BL2_MASK|
    134                        _EBI_CTRL_MODE2_MASK|
    135                        _EBI_CTRL_ARDY2EN_MASK|
    136                        _EBI_CTRL_ARDYTO2DIS_MASK|
    137                        _EBI_CTRL_NOIDLE2_MASK|
    138                        _EBI_CTRL_BANK2EN_MASK);
   \   000000BA   0x.... 0x....      LDR.W    R0,??DataTable23_4  ;; 0xfbcfbbcf
   \   000000BE   0x4005             ANDS     R5,R0,R5
    139              ctrl |= (ebiInit->mode << _EBI_CTRL_MODE2_SHIFT);
   \   000000C0   0x7820             LDRB     R0,[R4, #+0]
   \   000000C2   0xEA55 0x1500      ORRS     R5,R5,R0, LSL #+4
    140              ctrl |= (ebiInit->ardyEnable << _EBI_CTRL_ARDY2EN_SHIFT);
   \   000000C6   0x7A60             LDRB     R0,[R4, #+9]
   \   000000C8   0xEA55 0x5500      ORRS     R5,R5,R0, LSL #+20
    141              ctrl |= (ebiInit->ardyDisableTimeout << _EBI_CTRL_ARDYTO2DIS_SHIFT);
   \   000000CC   0x7AA0             LDRB     R0,[R4, #+10]
   \   000000CE   0xEA55 0x5540      ORRS     R5,R5,R0, LSL #+21
    142              ctrl |= (ebiInit->blEnable << _EBI_CTRL_BL2_SHIFT);
   \   000000D2   0x79E0             LDRB     R0,[R4, #+7]
   \   000000D4   0xEA55 0x6580      ORRS     R5,R5,R0, LSL #+26
    143              ctrl |= (ebiInit->noIdle << _EBI_CTRL_NOIDLE2_SHIFT);
   \   000000D8   0x7A20             LDRB     R0,[R4, #+8]
   \   000000DA   0xEA55 0x3580      ORRS     R5,R5,R0, LSL #+14
    144              if ( ebiInit->enable) 
   \   000000DE   0xF894 0x004C      LDRB     R0,[R4, #+76]
   \   000000E2   0x2800             CMP      R0,#+0
   \   000000E4   0xD001             BEQ.N    ??EBI_Init_2
    145              {
    146                ctrl |= EBI_CTRL_BANK2EN;
   \   000000E6   0xF455 0x6580      ORRS     R5,R5,#0x400
    147              }
    148            }
    149            if (ebiInit->banks & EBI_BANK3)
   \                     ??EBI_Init_2: (+1)
   \   000000EA   0x7B20             LDRB     R0,[R4, #+12]
   \   000000EC   0x06C0             LSLS     R0,R0,#+27
   \   000000EE   0xD517             BPL.N    ??EBI_Init_3
    150            {
    151              ctrl &= ~(_EBI_CTRL_BL3_MASK|
    152                        _EBI_CTRL_MODE3_MASK|
    153                        _EBI_CTRL_ARDY3EN_MASK|
    154                        _EBI_CTRL_ARDYTO3DIS_MASK|
    155                        _EBI_CTRL_NOIDLE3_MASK|
    156                        _EBI_CTRL_BANK3EN_MASK); 
   \   000000F0   0x.... 0x....      LDR.W    R0,??DataTable23_5  ;; 0xf73f773f
   \   000000F4   0x4005             ANDS     R5,R0,R5
    157              ctrl |= (ebiInit->mode << _EBI_CTRL_MODE3_SHIFT);
   \   000000F6   0x7820             LDRB     R0,[R4, #+0]
   \   000000F8   0xEA55 0x1580      ORRS     R5,R5,R0, LSL #+6
    158              ctrl |= (ebiInit->ardyEnable << _EBI_CTRL_ARDY3EN_SHIFT);
   \   000000FC   0x7A60             LDRB     R0,[R4, #+9]
   \   000000FE   0xEA55 0x5580      ORRS     R5,R5,R0, LSL #+22
    159              ctrl |= (ebiInit->ardyDisableTimeout << _EBI_CTRL_ARDYTO3DIS_SHIFT);
   \   00000102   0x7AA0             LDRB     R0,[R4, #+10]
   \   00000104   0xEA55 0x55C0      ORRS     R5,R5,R0, LSL #+23
    160              ctrl |= (ebiInit->blEnable << _EBI_CTRL_BL3_SHIFT);
   \   00000108   0x79E0             LDRB     R0,[R4, #+7]
   \   0000010A   0xEA55 0x65C0      ORRS     R5,R5,R0, LSL #+27
    161              ctrl |= (ebiInit->noIdle << _EBI_CTRL_NOIDLE3_SHIFT);
   \   0000010E   0x7A20             LDRB     R0,[R4, #+8]
   \   00000110   0xEA55 0x35C0      ORRS     R5,R5,R0, LSL #+15
    162              if ( ebiInit->enable) 
   \   00000114   0xF894 0x004C      LDRB     R0,[R4, #+76]
   \   00000118   0x2800             CMP      R0,#+0
   \   0000011A   0xD001             BEQ.N    ??EBI_Init_3
    163              {
    164                ctrl |= EBI_CTRL_BANK3EN;
   \   0000011C   0xF455 0x6500      ORRS     R5,R5,#0x800
    165              }
    166            }
    167          #else
    168            ctrl &= ~(_EBI_CTRL_MODE_MASK|
    169                      _EBI_CTRL_ARDYEN_MASK|
    170                      _EBI_CTRL_ARDYTODIS_MASK|
    171                      _EBI_CTRL_BANK0EN_MASK|
    172                      _EBI_CTRL_BANK1EN_MASK|
    173                      _EBI_CTRL_BANK2EN_MASK|
    174                      _EBI_CTRL_BANK3EN_MASK);
    175            if ( ebiInit->enable) 
    176            {
    177              if ( ebiInit->banks & EBI_BANK0 )
    178              {
    179                ctrl |= EBI_CTRL_BANK0EN;
    180              }
    181              if ( ebiInit->banks & EBI_BANK1 )
    182              {
    183                ctrl |= EBI_CTRL_BANK1EN;
    184              }
    185              if ( ebiInit->banks & EBI_BANK2 )
    186              {
    187                ctrl |= EBI_CTRL_BANK2EN;
    188              }
    189              if ( ebiInit->banks & EBI_BANK3 )
    190              {
    191                ctrl |= EBI_CTRL_BANK3EN;
    192              }
    193            }
    194            ctrl |= ebiInit->mode;
    195            ctrl |= (ebiInit->ardyEnable << _EBI_CTRL_ARDYEN_SHIFT);
    196            ctrl |= (ebiInit->ardyDisableTimeout << _EBI_CTRL_ARDYTODIS_SHIFT);
    197          #endif
    198          
    199            /* Configure timing */
    200          #if defined(_EFM32_GIANT_FAMILY) || defined(_EFM32_WONDER_FAMILY)
    201            EBI_BankReadTimingSet(ebiInit->banks,
    202                                  ebiInit->readSetupCycles,
    203                                  ebiInit->readStrobeCycles,
    204                                  ebiInit->readHoldCycles);
   \                     ??EBI_Init_3: (+1)
   \   00000120   0x6AA3             LDR      R3,[R4, #+40]
   \   00000122   0x6A62             LDR      R2,[R4, #+36]
   \   00000124   0x6A21             LDR      R1,[R4, #+32]
   \   00000126   0x68E0             LDR      R0,[R4, #+12]
   \   00000128   0x.... 0x....      BL       EBI_BankReadTimingSet
    205            EBI_BankReadTimingConfig(ebiInit->banks,
    206                                     ebiInit->readPageMode,
    207                                     ebiInit->readPrefetch,
    208                                     ebiInit->readHalfRE);
   \   0000012C   0xF894 0x302E      LDRB     R3,[R4, #+46]
   \   00000130   0xF894 0x202D      LDRB     R2,[R4, #+45]
   \   00000134   0xF894 0x102C      LDRB     R1,[R4, #+44]
   \   00000138   0x68E0             LDR      R0,[R4, #+12]
   \   0000013A   0x.... 0x....      BL       EBI_BankReadTimingConfig
    209            EBI_BankWriteTimingSet(ebiInit->banks,
    210                                   ebiInit->writeSetupCycles,
    211                                   ebiInit->writeStrobeCycles,
    212                                   ebiInit->writeHoldCycles);
   \   0000013E   0x6BA3             LDR      R3,[R4, #+56]
   \   00000140   0x6B62             LDR      R2,[R4, #+52]
   \   00000142   0x6B21             LDR      R1,[R4, #+48]
   \   00000144   0x68E0             LDR      R0,[R4, #+12]
   \   00000146   0x.... 0x....      BL       EBI_BankWriteTimingSet
    213            EBI_BankWriteTimingConfig(ebiInit->banks,
    214                                      ebiInit->writeBufferDisable,
    215                                      ebiInit->writeHalfWE);
   \   0000014A   0xF894 0x203D      LDRB     R2,[R4, #+61]
   \   0000014E   0xF894 0x103C      LDRB     R1,[R4, #+60]
   \   00000152   0x68E0             LDR      R0,[R4, #+12]
   \   00000154   0x.... 0x....      BL       EBI_BankWriteTimingConfig
    216            EBI_BankAddressTimingSet(ebiInit->banks,
    217                                     ebiInit->addrSetupCycles,
    218                                     ebiInit->addrHoldCycles);
   \   00000158   0x69A2             LDR      R2,[R4, #+24]
   \   0000015A   0x6961             LDR      R1,[R4, #+20]
   \   0000015C   0x68E0             LDR      R0,[R4, #+12]
   \   0000015E   0x.... 0x....      BL       EBI_BankAddressTimingSet
    219            EBI_BankAddressTimingConfig(ebiInit->banks,
    220                                        ebiInit->addrHalfALE);
   \   00000162   0x7F21             LDRB     R1,[R4, #+28]
   \   00000164   0x68E0             LDR      R0,[R4, #+12]
   \   00000166   0x.... 0x....      BL       EBI_BankAddressTimingConfig
    221          #else
    222            EBI_ReadTimingSet(ebiInit->readSetupCycles,
    223                              ebiInit->readStrobeCycles,
    224                              ebiInit->readHoldCycles);
    225            EBI_WriteTimingSet(ebiInit->writeSetupCycles,
    226                               ebiInit->writeStrobeCycles,
    227                               ebiInit->writeHoldCycles);
    228            EBI_AddressTimingSet(ebiInit->addrSetupCycles,
    229                                 ebiInit->addrHoldCycles);
    230          #endif
    231          
    232            /* Activate new configuration */
    233            EBI->CTRL = ctrl;  
   \   0000016A   0x.... 0x....      LDR.W    R0,??DataTable23_1  ;; 0x40008000
   \   0000016E   0x6005             STR      R5,[R0, #+0]
    234          
    235            /* Configure Adress Latch Enable */
    236            switch (ebiInit->mode)
   \   00000170   0x7820             LDRB     R0,[R4, #+0]
   \   00000172   0x2800             CMP      R0,#+0
   \   00000174   0xD00C             BEQ.N    ??EBI_Init_4
   \   00000176   0x2802             CMP      R0,#+2
   \   00000178   0xD003             BEQ.N    ??EBI_Init_5
   \   0000017A   0xD302             BCC.N    ??EBI_Init_5
   \   0000017C   0x2803             CMP      R0,#+3
   \   0000017E   0xD007             BEQ.N    ??EBI_Init_4
   \   00000180   0xE00C             B.N      ??EBI_Init_6
    237            {
    238            case ebiModeD16A16ALE:
    239            case ebiModeD8A24ALE:
    240              /* Address Latch Enable */
    241              BITBAND_Peripheral(&(EBI->ROUTE), _EBI_ROUTE_ALEPEN_SHIFT, 1);
   \                     ??EBI_Init_5: (+1)
   \   00000182   0x2201             MOVS     R2,#+1
   \   00000184   0x2105             MOVS     R1,#+5
   \   00000186   0x.... 0x....      LDR.W    R0,??DataTable23_6  ;; 0x40008014
   \   0000018A   0x.... 0x....      BL       BITBAND_Peripheral
    242              break;
   \   0000018E   0xE005             B.N      ??EBI_Init_6
    243          #if defined(_EFM32_GIANT_FAMILY) || defined(_EFM32_WONDER_FAMILY)
    244            case ebiModeD16:
    245          #endif
    246            case ebiModeD8A8:
    247              /* Make sure Address Latch is disabled */
    248              BITBAND_Peripheral(&(EBI->ROUTE), _EBI_ROUTE_ALEPEN_SHIFT, 0);
   \                     ??EBI_Init_4: (+1)
   \   00000190   0x2200             MOVS     R2,#+0
   \   00000192   0x2105             MOVS     R1,#+5
   \   00000194   0x.... 0x....      LDR.W    R0,??DataTable23_6  ;; 0x40008014
   \   00000198   0x.... 0x....      BL       BITBAND_Peripheral
    249              break;
    250            }
    251          #if defined(_EFM32_GIANT_FAMILY) || defined(_EFM32_WONDER_FAMILY)
    252            /* Limit pin enable */
    253            EBI->ROUTE = (EBI->ROUTE & ~_EBI_ROUTE_ALB_MASK) | ebiInit->aLow;
   \                     ??EBI_Init_6: (+1)
   \   0000019C   0x.... 0x....      LDR.W    R0,??DataTable23_6  ;; 0x40008014
   \   000001A0   0x6800             LDR      R0,[R0, #+0]
   \   000001A2   0xF430 0x3040      BICS     R0,R0,#0x30000
   \   000001A6   0x6C21             LDR      R1,[R4, #+64]
   \   000001A8   0x4308             ORRS     R0,R1,R0
   \   000001AA   0x.... 0x....      LDR.W    R1,??DataTable23_6  ;; 0x40008014
   \   000001AE   0x6008             STR      R0,[R1, #+0]
    254            EBI->ROUTE = (EBI->ROUTE & ~_EBI_ROUTE_APEN_MASK) | ebiInit->aHigh;
   \   000001B0   0x.... 0x....      LDR.W    R0,??DataTable23_6  ;; 0x40008014
   \   000001B4   0x6800             LDR      R0,[R0, #+0]
   \   000001B6   0xF430 0x00F8      BICS     R0,R0,#0x7C0000
   \   000001BA   0x6C61             LDR      R1,[R4, #+68]
   \   000001BC   0x4308             ORRS     R0,R1,R0
   \   000001BE   0x.... 0x....      LDR.W    R1,??DataTable23_6  ;; 0x40008014
   \   000001C2   0x6008             STR      R0,[R1, #+0]
    255            /* Location */
    256            EBI->ROUTE = (EBI->ROUTE & ~_EBI_ROUTE_LOCATION_MASK) | ebiInit->location;
   \   000001C4   0x.... 0x....      LDR.W    R0,??DataTable23_6  ;; 0x40008014
   \   000001C8   0x6800             LDR      R0,[R0, #+0]
   \   000001CA   0xF030 0x40E0      BICS     R0,R0,#0x70000000
   \   000001CE   0x6CA1             LDR      R1,[R4, #+72]
   \   000001D0   0x4308             ORRS     R0,R1,R0
   \   000001D2   0x.... 0x....      LDR.W    R1,??DataTable23_6  ;; 0x40008014
   \   000001D6   0x6008             STR      R0,[R1, #+0]
    257          
    258            /* Enable EBI BL pin if necessary */
    259            if(ctrl & (_EBI_CTRL_BL_MASK|_EBI_CTRL_BL1_MASK|_EBI_CTRL_BL2_MASK|_EBI_CTRL_BL3_MASK))
   \   000001D8   0xF015 0x6F70      TST      R5,#0xF000000
   \   000001DC   0xD005             BEQ.N    ??EBI_Init_7
    260            {
    261              BITBAND_Peripheral(&(EBI->ROUTE), _EBI_ROUTE_BLPEN_SHIFT, ebiInit->blEnable);
   \   000001DE   0x79E2             LDRB     R2,[R4, #+7]
   \   000001E0   0x2107             MOVS     R1,#+7
   \   000001E2   0x.... 0x....      LDR.W    R0,??DataTable23_6  ;; 0x40008014
   \   000001E6   0x.... 0x....      BL       BITBAND_Peripheral
    262            }
    263          #endif
    264            /* Enable EBI pins EBI_WEn and EBI_REn */
    265            BITBAND_Peripheral(&(EBI->ROUTE), _EBI_ROUTE_EBIPEN_SHIFT, 1);
   \                     ??EBI_Init_7: (+1)
   \   000001EA   0x2201             MOVS     R2,#+1
   \   000001EC   0x2100             MOVS     R1,#+0
   \   000001EE   0x.... 0x....      LDR.W    R0,??DataTable23_6  ;; 0x40008014
   \   000001F2   0x.... 0x....      BL       BITBAND_Peripheral
    266          
    267            /* Enable chip select lines */
    268            EBI_ChipSelectEnable(ebiInit->csLines, true);
   \   000001F6   0x2101             MOVS     R1,#+1
   \   000001F8   0x6920             LDR      R0,[R4, #+16]
   \   000001FA   0x.... 0x....      BL       EBI_ChipSelectEnable
    269          }
   \   000001FE   0xBD31             POP      {R0,R4,R5,PC}    ;; return
    270          
    271          
    272          /***************************************************************************//**
    273           * @brief
    274           *   Disable External Bus Interface
    275           ******************************************************************************/

   \                                 In section .text, align 2, keep-with-next
    276          void EBI_Disable(void)
    277          {
    278            /* Disable pins */
    279            EBI->ROUTE = _EBI_ROUTE_RESETVALUE;
   \                     EBI_Disable: (+1)
   \   00000000   0x2000             MOVS     R0,#+0
   \   00000002   0x.... 0x....      LDR.W    R1,??DataTable23_6  ;; 0x40008014
   \   00000006   0x6008             STR      R0,[R1, #+0]
    280            /* Disable banks */
    281            EBI->CTRL = _EBI_CTRL_RESETVALUE;
   \   00000008   0x2000             MOVS     R0,#+0
   \   0000000A   0x.... 0x....      LDR.W    R1,??DataTable23_1  ;; 0x40008000
   \   0000000E   0x6008             STR      R0,[R1, #+0]
    282          }
   \   00000010   0x4770             BX       LR               ;; return
    283          
    284          
    285          /***************************************************************************//**
    286           * @brief
    287           *   Enable or disable EBI Bank
    288           *
    289           * @param[in] banks
    290           *   Banks to reconfigure, mask of EBI_BANK<n> flags
    291           *
    292           * @param[in] enable
    293           *   True to enable, false to disable
    294           ******************************************************************************/

   \                                 In section .text, align 2, keep-with-next
    295          void EBI_BankEnable(uint32_t banks, bool enable)
    296          {
   \                     EBI_BankEnable: (+1)
   \   00000000   0xB538             PUSH     {R3-R5,LR}
   \   00000002   0x0004             MOVS     R4,R0
   \   00000004   0x000D             MOVS     R5,R1
    297            if (banks & EBI_BANK0)
   \   00000006   0x07A0             LSLS     R0,R4,#+30
   \   00000008   0xD506             BPL.N    ??EBI_BankEnable_0
    298            {
    299              BITBAND_Peripheral(&(EBI->CTRL), _EBI_CTRL_BANK0EN_SHIFT, enable);
   \   0000000A   0xB2ED             UXTB     R5,R5            ;; ZeroExt  R5,R5,#+24,#+24
   \   0000000C   0x002A             MOVS     R2,R5
   \   0000000E   0x2108             MOVS     R1,#+8
   \   00000010   0x.... 0x....      LDR.W    R0,??DataTable23_1  ;; 0x40008000
   \   00000014   0x.... 0x....      BL       BITBAND_Peripheral
    300            }
    301            if (banks & EBI_BANK1)
   \                     ??EBI_BankEnable_0: (+1)
   \   00000018   0x0760             LSLS     R0,R4,#+29
   \   0000001A   0xD506             BPL.N    ??EBI_BankEnable_1
    302            {
    303              BITBAND_Peripheral(&(EBI->CTRL), _EBI_CTRL_BANK1EN_SHIFT, enable);
   \   0000001C   0xB2ED             UXTB     R5,R5            ;; ZeroExt  R5,R5,#+24,#+24
   \   0000001E   0x002A             MOVS     R2,R5
   \   00000020   0x2109             MOVS     R1,#+9
   \   00000022   0x.... 0x....      LDR.W    R0,??DataTable23_1  ;; 0x40008000
   \   00000026   0x.... 0x....      BL       BITBAND_Peripheral
    304            }
    305            if (banks & EBI_BANK2)
   \                     ??EBI_BankEnable_1: (+1)
   \   0000002A   0x0720             LSLS     R0,R4,#+28
   \   0000002C   0xD506             BPL.N    ??EBI_BankEnable_2
    306            {
    307              BITBAND_Peripheral(&(EBI->CTRL), _EBI_CTRL_BANK2EN_SHIFT, enable);
   \   0000002E   0xB2ED             UXTB     R5,R5            ;; ZeroExt  R5,R5,#+24,#+24
   \   00000030   0x002A             MOVS     R2,R5
   \   00000032   0x210A             MOVS     R1,#+10
   \   00000034   0x.... 0x....      LDR.W    R0,??DataTable23_1  ;; 0x40008000
   \   00000038   0x.... 0x....      BL       BITBAND_Peripheral
    308            }
    309            if (banks & EBI_BANK3)
   \                     ??EBI_BankEnable_2: (+1)
   \   0000003C   0x06E0             LSLS     R0,R4,#+27
   \   0000003E   0xD506             BPL.N    ??EBI_BankEnable_3
    310            {
    311              BITBAND_Peripheral(&(EBI->CTRL), _EBI_CTRL_BANK3EN_SHIFT, enable);
   \   00000040   0xB2ED             UXTB     R5,R5            ;; ZeroExt  R5,R5,#+24,#+24
   \   00000042   0x002A             MOVS     R2,R5
   \   00000044   0x210B             MOVS     R1,#+11
   \   00000046   0x.... 0x....      LDR.W    R0,??DataTable23_1  ;; 0x40008000
   \   0000004A   0x.... 0x....      BL       BITBAND_Peripheral
    312            }
    313          }
   \                     ??EBI_BankEnable_3: (+1)
   \   0000004E   0xBD31             POP      {R0,R4,R5,PC}    ;; return
    314          
    315          
    316          /***************************************************************************//**
    317           * @brief
    318           *   Return base address of EBI bank
    319           *
    320           * @param[in] bank
    321           *   Bank to return start address for
    322           *
    323           * @return
    324           *   Absolute address of bank
    325           ******************************************************************************/

   \                                 In section .text, align 2, keep-with-next
    326          uint32_t EBI_BankAddress(uint32_t bank)
    327          {
   \                     EBI_BankAddress: (+1)
   \   00000000   0x0001             MOVS     R1,R0
    328          #if defined (_EFM32_GIANT_FAMILY) || defined(_EFM32_WONDER_FAMILY)
    329            if(EBI->CTRL & EBI_CTRL_ALTMAP)
   \   00000002   0x.... 0x....      LDR.W    R0,??DataTable23_1  ;; 0x40008000
   \   00000006   0x6800             LDR      R0,[R0, #+0]
   \   00000008   0x2800             CMP      R0,#+0
   \   0000000A   0xD515             BPL.N    ??EBI_BankAddress_0
    330            {
    331              switch (bank)
   \   0000000C   0x0008             MOVS     R0,R1
   \   0000000E   0x2802             CMP      R0,#+2
   \   00000010   0xD006             BEQ.N    ??EBI_BankAddress_1
   \   00000012   0x2804             CMP      R0,#+4
   \   00000014   0xD007             BEQ.N    ??EBI_BankAddress_2
   \   00000016   0x2808             CMP      R0,#+8
   \   00000018   0xD008             BEQ.N    ??EBI_BankAddress_3
   \   0000001A   0x2810             CMP      R0,#+16
   \   0000001C   0xD009             BEQ.N    ??EBI_BankAddress_4
   \   0000001E   0xE00B             B.N      ??EBI_BankAddress_5
    332              {
    333              case EBI_BANK0:
    334                return(EBI_MEM_BASE);
   \                     ??EBI_BankAddress_1: (+1)
   \   00000020   0xF05F 0x4000      MOVS     R0,#-2147483648
   \   00000024   0xE01F             B.N      ??EBI_BankAddress_6
    335          
    336              case EBI_BANK1:
    337                return(EBI_MEM_BASE + 0x10000000UL);
   \                     ??EBI_BankAddress_2: (+1)
   \   00000026   0xF05F 0x4010      MOVS     R0,#-1879048192
   \   0000002A   0xE01C             B.N      ??EBI_BankAddress_6
    338          
    339              case EBI_BANK2:
    340                return(EBI_MEM_BASE + 0x20000000UL);
   \                     ??EBI_BankAddress_3: (+1)
   \   0000002C   0xF05F 0x4020      MOVS     R0,#-1610612736
   \   00000030   0xE019             B.N      ??EBI_BankAddress_6
    341          
    342              case EBI_BANK3:
    343                return(EBI_MEM_BASE + 0x30000000UL);
   \                     ??EBI_BankAddress_4: (+1)
   \   00000032   0xF05F 0x4030      MOVS     R0,#-1342177280
   \   00000036   0xE016             B.N      ??EBI_BankAddress_6
    344          
    345              default:
    346                EFM_ASSERT(0);
    347                break;
    348              }
    349            }
    350          #endif
    351            switch (bank)
   \                     ??EBI_BankAddress_5: (+1)
   \                     ??EBI_BankAddress_0: (+1)
   \   00000038   0x0008             MOVS     R0,R1
   \   0000003A   0x2802             CMP      R0,#+2
   \   0000003C   0xD006             BEQ.N    ??EBI_BankAddress_7
   \   0000003E   0x2804             CMP      R0,#+4
   \   00000040   0xD007             BEQ.N    ??EBI_BankAddress_8
   \   00000042   0x2808             CMP      R0,#+8
   \   00000044   0xD008             BEQ.N    ??EBI_BankAddress_9
   \   00000046   0x2810             CMP      R0,#+16
   \   00000048   0xD009             BEQ.N    ??EBI_BankAddress_10
   \   0000004A   0xE00B             B.N      ??EBI_BankAddress_11
    352            {
    353            case EBI_BANK0:
    354              return(EBI_MEM_BASE);
   \                     ??EBI_BankAddress_7: (+1)
   \   0000004C   0xF05F 0x4000      MOVS     R0,#-2147483648
   \   00000050   0xE009             B.N      ??EBI_BankAddress_6
    355          
    356            case EBI_BANK1:
    357              return(EBI_MEM_BASE + 0x04000000UL);
   \                     ??EBI_BankAddress_8: (+1)
   \   00000052   0xF05F 0x4004      MOVS     R0,#-2080374784
   \   00000056   0xE006             B.N      ??EBI_BankAddress_6
    358          
    359            case EBI_BANK2:
    360              return(EBI_MEM_BASE + 0x08000000UL);
   \                     ??EBI_BankAddress_9: (+1)
   \   00000058   0xF05F 0x4008      MOVS     R0,#-2013265920
   \   0000005C   0xE003             B.N      ??EBI_BankAddress_6
    361          
    362            case EBI_BANK3:
    363              return(EBI_MEM_BASE + 0x0C000000UL);
   \                     ??EBI_BankAddress_10: (+1)
   \   0000005E   0xF05F 0x400C      MOVS     R0,#-1946157056
   \   00000062   0xE000             B.N      ??EBI_BankAddress_6
    364          
    365            default:
    366              EFM_ASSERT(0);
    367              break;
    368            }
    369            return 0;
   \                     ??EBI_BankAddress_11: (+1)
   \   00000064   0x2000             MOVS     R0,#+0
   \                     ??EBI_BankAddress_6: (+1)
   \   00000066   0x4770             BX       LR               ;; return
    370          }
    371          
    372          
    373          /***************************************************************************//**
    374           * @brief
    375           *   Enable or disable EBI Chip Select
    376           *
    377           * @param[in] cs
    378           *   ChipSelect lines to reconfigure, mask of EBI_CS<n> flags
    379           *
    380           * @param[in] enable
    381           *   True to enable, false to disable
    382           ******************************************************************************/

   \                                 In section .text, align 2, keep-with-next
    383          void EBI_ChipSelectEnable(uint32_t cs, bool enable)
    384          {
   \                     EBI_ChipSelectEnable: (+1)
   \   00000000   0xB538             PUSH     {R3-R5,LR}
   \   00000002   0x0004             MOVS     R4,R0
   \   00000004   0x000D             MOVS     R5,R1
    385            if (cs & EBI_CS0)
   \   00000006   0x07A0             LSLS     R0,R4,#+30
   \   00000008   0xD506             BPL.N    ??EBI_ChipSelectEnable_0
    386            {
    387              BITBAND_Peripheral(&(EBI->ROUTE), _EBI_ROUTE_CS0PEN_SHIFT, enable);
   \   0000000A   0xB2ED             UXTB     R5,R5            ;; ZeroExt  R5,R5,#+24,#+24
   \   0000000C   0x002A             MOVS     R2,R5
   \   0000000E   0x2101             MOVS     R1,#+1
   \   00000010   0x.... 0x....      LDR.W    R0,??DataTable23_6  ;; 0x40008014
   \   00000014   0x.... 0x....      BL       BITBAND_Peripheral
    388            }
    389            if (cs & EBI_CS1)
   \                     ??EBI_ChipSelectEnable_0: (+1)
   \   00000018   0x0760             LSLS     R0,R4,#+29
   \   0000001A   0xD506             BPL.N    ??EBI_ChipSelectEnable_1
    390            {
    391              BITBAND_Peripheral(&(EBI->ROUTE), _EBI_ROUTE_CS1PEN_SHIFT, enable);
   \   0000001C   0xB2ED             UXTB     R5,R5            ;; ZeroExt  R5,R5,#+24,#+24
   \   0000001E   0x002A             MOVS     R2,R5
   \   00000020   0x2102             MOVS     R1,#+2
   \   00000022   0x.... 0x....      LDR.W    R0,??DataTable23_6  ;; 0x40008014
   \   00000026   0x.... 0x....      BL       BITBAND_Peripheral
    392            }
    393            if (cs & EBI_CS2)
   \                     ??EBI_ChipSelectEnable_1: (+1)
   \   0000002A   0x0720             LSLS     R0,R4,#+28
   \   0000002C   0xD506             BPL.N    ??EBI_ChipSelectEnable_2
    394            {
    395              BITBAND_Peripheral(&(EBI->ROUTE), _EBI_ROUTE_CS2PEN_SHIFT, enable);
   \   0000002E   0xB2ED             UXTB     R5,R5            ;; ZeroExt  R5,R5,#+24,#+24
   \   00000030   0x002A             MOVS     R2,R5
   \   00000032   0x2103             MOVS     R1,#+3
   \   00000034   0x.... 0x....      LDR.W    R0,??DataTable23_6  ;; 0x40008014
   \   00000038   0x.... 0x....      BL       BITBAND_Peripheral
    396            }
    397            if (cs & EBI_CS3)
   \                     ??EBI_ChipSelectEnable_2: (+1)
   \   0000003C   0x06E0             LSLS     R0,R4,#+27
   \   0000003E   0xD506             BPL.N    ??EBI_ChipSelectEnable_3
    398            {
    399              BITBAND_Peripheral(&(EBI->ROUTE), _EBI_ROUTE_CS3PEN_SHIFT, enable);
   \   00000040   0xB2ED             UXTB     R5,R5            ;; ZeroExt  R5,R5,#+24,#+24
   \   00000042   0x002A             MOVS     R2,R5
   \   00000044   0x2104             MOVS     R1,#+4
   \   00000046   0x.... 0x....      LDR.W    R0,??DataTable23_6  ;; 0x40008014
   \   0000004A   0x.... 0x....      BL       BITBAND_Peripheral
    400            }
    401          }
   \                     ??EBI_ChipSelectEnable_3: (+1)
   \   0000004E   0xBD31             POP      {R0,R4,R5,PC}    ;; return
    402          
    403          
    404          /***************************************************************************//**
    405           * @brief
    406           *   Configure EBI pin polarity
    407           *
    408           * @param[in] line
    409           *   Which pin/line to configure
    410           *
    411           * @param[in] polarity
    412           *   Active high, or active low
    413           ******************************************************************************/

   \                                 In section .text, align 2, keep-with-next
    414          void EBI_PolaritySet(EBI_Line_TypeDef line, EBI_Polarity_TypeDef polarity)
    415          {
   \                     EBI_PolaritySet: (+1)
   \   00000000   0xB538             PUSH     {R3-R5,LR}
   \   00000002   0x0004             MOVS     R4,R0
   \   00000004   0x000D             MOVS     R5,R1
    416            switch (line)
   \   00000006   0xB2E4             UXTB     R4,R4            ;; ZeroExt  R4,R4,#+24,#+24
   \   00000008   0x2C00             CMP      R4,#+0
   \   0000000A   0xD00F             BEQ.N    ??EBI_PolaritySet_0
   \   0000000C   0x2C02             CMP      R4,#+2
   \   0000000E   0xD01D             BEQ.N    ??EBI_PolaritySet_1
   \   00000010   0xD314             BCC.N    ??EBI_PolaritySet_2
   \   00000012   0x2C04             CMP      R4,#+4
   \   00000014   0xD02A             BEQ.N    ??EBI_PolaritySet_3
   \   00000016   0xD321             BCC.N    ??EBI_PolaritySet_4
   \   00000018   0x2C06             CMP      R4,#+6
   \   0000001A   0xD037             BEQ.N    ??EBI_PolaritySet_5
   \   0000001C   0xD32E             BCC.N    ??EBI_PolaritySet_6
   \   0000001E   0x2C08             CMP      R4,#+8
   \   00000020   0xD044             BEQ.N    ??EBI_PolaritySet_7
   \   00000022   0xD33B             BCC.N    ??EBI_PolaritySet_8
   \   00000024   0x2C0A             CMP      R4,#+10
   \   00000026   0xD051             BEQ.N    ??EBI_PolaritySet_9
   \   00000028   0xD348             BCC.N    ??EBI_PolaritySet_10
   \   0000002A   0xE057             B.N      ??EBI_PolaritySet_11
    417            {
    418            case ebiLineARDY:
    419              BITBAND_Peripheral(&(EBI->POLARITY), _EBI_POLARITY_ARDYPOL_SHIFT, polarity);
   \                     ??EBI_PolaritySet_0: (+1)
   \   0000002C   0xB2ED             UXTB     R5,R5            ;; ZeroExt  R5,R5,#+24,#+24
   \   0000002E   0x002A             MOVS     R2,R5
   \   00000030   0x2104             MOVS     R1,#+4
   \   00000032   0x.... 0x....      LDR.W    R0,??DataTable23_7  ;; 0x40008010
   \   00000036   0x.... 0x....      BL       BITBAND_Peripheral
    420              break;
   \   0000003A   0xE04F             B.N      ??EBI_PolaritySet_12
    421            case ebiLineALE:
    422              BITBAND_Peripheral(&(EBI->POLARITY), _EBI_POLARITY_ALEPOL_SHIFT, polarity);
   \                     ??EBI_PolaritySet_2: (+1)
   \   0000003C   0xB2ED             UXTB     R5,R5            ;; ZeroExt  R5,R5,#+24,#+24
   \   0000003E   0x002A             MOVS     R2,R5
   \   00000040   0x2103             MOVS     R1,#+3
   \   00000042   0x.... 0x....      LDR.W    R0,??DataTable23_7  ;; 0x40008010
   \   00000046   0x.... 0x....      BL       BITBAND_Peripheral
    423              break;
   \   0000004A   0xE047             B.N      ??EBI_PolaritySet_12
    424            case ebiLineWE:
    425              BITBAND_Peripheral(&(EBI->POLARITY), _EBI_POLARITY_WEPOL_SHIFT, polarity);
   \                     ??EBI_PolaritySet_1: (+1)
   \   0000004C   0xB2ED             UXTB     R5,R5            ;; ZeroExt  R5,R5,#+24,#+24
   \   0000004E   0x002A             MOVS     R2,R5
   \   00000050   0x2102             MOVS     R1,#+2
   \   00000052   0x.... 0x....      LDR.W    R0,??DataTable23_7  ;; 0x40008010
   \   00000056   0x.... 0x....      BL       BITBAND_Peripheral
    426              break;
   \   0000005A   0xE03F             B.N      ??EBI_PolaritySet_12
    427            case ebiLineRE:
    428              BITBAND_Peripheral(&(EBI->POLARITY), _EBI_POLARITY_REPOL_SHIFT, polarity);
   \                     ??EBI_PolaritySet_4: (+1)
   \   0000005C   0xB2ED             UXTB     R5,R5            ;; ZeroExt  R5,R5,#+24,#+24
   \   0000005E   0x002A             MOVS     R2,R5
   \   00000060   0x2101             MOVS     R1,#+1
   \   00000062   0x.... 0x....      LDR.W    R0,??DataTable23_7  ;; 0x40008010
   \   00000066   0x.... 0x....      BL       BITBAND_Peripheral
    429              break;
   \   0000006A   0xE037             B.N      ??EBI_PolaritySet_12
    430            case ebiLineCS:
    431              BITBAND_Peripheral(&(EBI->POLARITY), _EBI_POLARITY_CSPOL_SHIFT, polarity);
   \                     ??EBI_PolaritySet_3: (+1)
   \   0000006C   0xB2ED             UXTB     R5,R5            ;; ZeroExt  R5,R5,#+24,#+24
   \   0000006E   0x002A             MOVS     R2,R5
   \   00000070   0x2100             MOVS     R1,#+0
   \   00000072   0x.... 0x....      LDR.W    R0,??DataTable23_7  ;; 0x40008010
   \   00000076   0x.... 0x....      BL       BITBAND_Peripheral
    432              break;
   \   0000007A   0xE02F             B.N      ??EBI_PolaritySet_12
    433          #if defined (_EFM32_GIANT_FAMILY) || defined(_EFM32_WONDER_FAMILY)
    434            case ebiLineBL:
    435              BITBAND_Peripheral(&(EBI->POLARITY), _EBI_POLARITY_BLPOL_SHIFT, polarity);
   \                     ??EBI_PolaritySet_6: (+1)
   \   0000007C   0xB2ED             UXTB     R5,R5            ;; ZeroExt  R5,R5,#+24,#+24
   \   0000007E   0x002A             MOVS     R2,R5
   \   00000080   0x2105             MOVS     R1,#+5
   \   00000082   0x.... 0x....      LDR.W    R0,??DataTable23_7  ;; 0x40008010
   \   00000086   0x.... 0x....      BL       BITBAND_Peripheral
    436              break;
   \   0000008A   0xE027             B.N      ??EBI_PolaritySet_12
    437            case ebiLineTFTVSync:
    438              BITBAND_Peripheral(&(EBI->TFTPOLARITY), _EBI_TFTPOLARITY_VSYNCPOL_SHIFT, polarity);
   \                     ??EBI_PolaritySet_5: (+1)
   \   0000008C   0xB2ED             UXTB     R5,R5            ;; ZeroExt  R5,R5,#+24,#+24
   \   0000008E   0x002A             MOVS     R2,R5
   \   00000090   0x2104             MOVS     R1,#+4
   \   00000092   0x.... 0x....      LDR.W    R0,??DataTable23_8  ;; 0x4000807c
   \   00000096   0x.... 0x....      BL       BITBAND_Peripheral
    439              break;
   \   0000009A   0xE01F             B.N      ??EBI_PolaritySet_12
    440            case ebiLineTFTHSync:
    441              BITBAND_Peripheral(&(EBI->TFTPOLARITY), _EBI_TFTPOLARITY_HSYNCPOL_SHIFT, polarity);
   \                     ??EBI_PolaritySet_8: (+1)
   \   0000009C   0xB2ED             UXTB     R5,R5            ;; ZeroExt  R5,R5,#+24,#+24
   \   0000009E   0x002A             MOVS     R2,R5
   \   000000A0   0x2103             MOVS     R1,#+3
   \   000000A2   0x.... 0x....      LDR.W    R0,??DataTable23_8  ;; 0x4000807c
   \   000000A6   0x.... 0x....      BL       BITBAND_Peripheral
    442              break;
   \   000000AA   0xE017             B.N      ??EBI_PolaritySet_12
    443            case ebiLineTFTDataEn:
    444              BITBAND_Peripheral(&(EBI->TFTPOLARITY), _EBI_TFTPOLARITY_DATAENPOL_SHIFT, polarity);
   \                     ??EBI_PolaritySet_7: (+1)
   \   000000AC   0xB2ED             UXTB     R5,R5            ;; ZeroExt  R5,R5,#+24,#+24
   \   000000AE   0x002A             MOVS     R2,R5
   \   000000B0   0x2102             MOVS     R1,#+2
   \   000000B2   0x.... 0x....      LDR.W    R0,??DataTable23_8  ;; 0x4000807c
   \   000000B6   0x.... 0x....      BL       BITBAND_Peripheral
    445              break;
   \   000000BA   0xE00F             B.N      ??EBI_PolaritySet_12
    446            case ebiLineTFTDClk:
    447              BITBAND_Peripheral(&(EBI->TFTPOLARITY), _EBI_TFTPOLARITY_DCLKPOL_SHIFT, polarity);
   \                     ??EBI_PolaritySet_10: (+1)
   \   000000BC   0xB2ED             UXTB     R5,R5            ;; ZeroExt  R5,R5,#+24,#+24
   \   000000BE   0x002A             MOVS     R2,R5
   \   000000C0   0x2101             MOVS     R1,#+1
   \   000000C2   0x.... 0x....      LDR.W    R0,??DataTable23_8  ;; 0x4000807c
   \   000000C6   0x.... 0x....      BL       BITBAND_Peripheral
    448              break;
   \   000000CA   0xE007             B.N      ??EBI_PolaritySet_12
    449            case ebiLineTFTCS:
    450              BITBAND_Peripheral(&(EBI->TFTPOLARITY), _EBI_TFTPOLARITY_CSPOL_SHIFT, polarity);
   \                     ??EBI_PolaritySet_9: (+1)
   \   000000CC   0xB2ED             UXTB     R5,R5            ;; ZeroExt  R5,R5,#+24,#+24
   \   000000CE   0x002A             MOVS     R2,R5
   \   000000D0   0x2100             MOVS     R1,#+0
   \   000000D2   0x.... 0x....      LDR.W    R0,??DataTable23_8  ;; 0x4000807c
   \   000000D6   0x.... 0x....      BL       BITBAND_Peripheral
    451              break;
   \   000000DA   0xE7FF             B.N      ??EBI_PolaritySet_12
    452          #endif
    453            default:
    454              EFM_ASSERT(0);
    455              break;
    456            }
    457          }
   \                     ??EBI_PolaritySet_11: (+1)
   \                     ??EBI_PolaritySet_12: (+1)
   \   000000DC   0xBD31             POP      {R0,R4,R5,PC}    ;; return
    458          
    459          
    460          /***************************************************************************//**
    461           * @brief
    462           *   Configure timing values of read bus accesses
    463           *
    464           * @param[in] setupCycles
    465           *   Number of clock cycles for address setup before REn is asserted
    466           *
    467           * @param[in] strobeCycles
    468           *   The number of cycles the REn is held active. After the specified number of
    469           *   cycles, data is read. If set to 0, 1 cycle is inserted by HW
    470           *
    471           * @param[in] holdCycles
    472           *   The number of cycles CSn is held active after the REn is dessarted
    473           ******************************************************************************/

   \                                 In section .text, align 2, keep-with-next
    474          void EBI_ReadTimingSet(int setupCycles, int strobeCycles, int holdCycles)
    475          {
   \                     EBI_ReadTimingSet: (+1)
   \   00000000   0xB430             PUSH     {R4,R5}
    476            uint32_t readTiming;
    477          
    478            /* Check that timings are within limits */
    479            EFM_ASSERT(setupCycles < 4);
    480            EFM_ASSERT(strobeCycles < 16);
    481            EFM_ASSERT(holdCycles < 4);
    482          
    483            /* Configure timing values */
    484            readTiming = (setupCycles << _EBI_RDTIMING_RDSETUP_SHIFT) |
    485                         (strobeCycles << _EBI_RDTIMING_RDSTRB_SHIFT) |
    486                         (holdCycles << _EBI_RDTIMING_RDHOLD_SHIFT);
   \   00000002   0xEA50 0x2401      ORRS     R4,R0,R1, LSL #+8
   \   00000006   0xEA54 0x4402      ORRS     R4,R4,R2, LSL #+16
   \   0000000A   0x0023             MOVS     R3,R4
    487          
    488          
    489            EBI->RDTIMING = (EBI->RDTIMING &
    490                             ~(_EBI_RDTIMING_RDSETUP_MASK |
    491                               _EBI_RDTIMING_RDSTRB_MASK |
    492                               _EBI_RDTIMING_RDHOLD_MASK)) | readTiming;
   \   0000000C   0x.... 0x....      LDR.W    R4,??DataTable23_9  ;; 0x40008008
   \   00000010   0x6824             LDR      R4,[R4, #+0]
   \   00000012   0x.... 0x....      LDR.W    R5,??DataTable23_10  ;; 0xfffcc0fc
   \   00000016   0x402C             ANDS     R4,R5,R4
   \   00000018   0x431C             ORRS     R4,R3,R4
   \   0000001A   0x.... 0x....      LDR.W    R5,??DataTable23_9  ;; 0x40008008
   \   0000001E   0x602C             STR      R4,[R5, #+0]
    493          }
   \   00000020   0xBC30             POP      {R4,R5}
   \   00000022   0x4770             BX       LR               ;; return
    494          
    495          
    496          /***************************************************************************//**
    497           * @brief
    498           *   Configure timing values of write bus accesses
    499           *
    500           * @param[in] setupCycles
    501           *   Number of clock cycles for address setup before WEn is asserted
    502           *
    503           * @param[in] strobeCycles
    504           *   Number of cycles WEn is held active. If set to 0, 1 cycle is inserted by HW
    505           *
    506           * @param[in] holdCycles
    507           *   Number of cycles CSn is held active after the WEn is deasserted
    508           ******************************************************************************/

   \                                 In section .text, align 2, keep-with-next
    509          void EBI_WriteTimingSet(int setupCycles, int strobeCycles, int holdCycles)
    510          {
   \                     EBI_WriteTimingSet: (+1)
   \   00000000   0xB430             PUSH     {R4,R5}
    511            uint32_t writeTiming;
    512          
    513            /* Check that timings are within limits */
    514            EFM_ASSERT(setupCycles < 4);
    515            EFM_ASSERT(strobeCycles < 16);
    516            EFM_ASSERT(holdCycles < 4);
    517          
    518            /* Configure timing values */
    519            writeTiming = (setupCycles << _EBI_WRTIMING_WRSETUP_SHIFT) |
    520                          (strobeCycles << _EBI_WRTIMING_WRSTRB_SHIFT) |
    521                          (holdCycles << _EBI_WRTIMING_WRHOLD_SHIFT);
   \   00000002   0xEA50 0x2401      ORRS     R4,R0,R1, LSL #+8
   \   00000006   0xEA54 0x4402      ORRS     R4,R4,R2, LSL #+16
   \   0000000A   0x0023             MOVS     R3,R4
    522          
    523            EBI->WRTIMING = (EBI->WRTIMING &
    524                             ~(_EBI_WRTIMING_WRSETUP_MASK |
    525                               _EBI_WRTIMING_WRSTRB_MASK |
    526                               _EBI_WRTIMING_WRHOLD_MASK)) | writeTiming;
   \   0000000C   0x.... 0x....      LDR.W    R4,??DataTable23_11  ;; 0x4000800c
   \   00000010   0x6824             LDR      R4,[R4, #+0]
   \   00000012   0x.... 0x....      LDR.W    R5,??DataTable23_10  ;; 0xfffcc0fc
   \   00000016   0x402C             ANDS     R4,R5,R4
   \   00000018   0x431C             ORRS     R4,R3,R4
   \   0000001A   0x.... 0x....      LDR.W    R5,??DataTable23_11  ;; 0x4000800c
   \   0000001E   0x602C             STR      R4,[R5, #+0]
    527          }
   \   00000020   0xBC30             POP      {R4,R5}
   \   00000022   0x4770             BX       LR               ;; return
    528          
    529          
    530          /***************************************************************************//**
    531           * @brief
    532           *   Configure timing values of address latch bus accesses
    533           *
    534           * @param[in] setupCycles
    535           *   Sets the number of cycles the address is held after ALE is asserted
    536           *
    537           * @param[in] holdCycles
    538           *   Sets the number of cycles the address is driven onto the ADDRDAT bus before
    539           *   ALE is asserted. If set 0, 1 cycle is inserted by HW
    540           ******************************************************************************/

   \                                 In section .text, align 2, keep-with-next
    541          void EBI_AddressTimingSet(int setupCycles, int holdCycles)
    542          {
   \                     EBI_AddressTimingSet: (+1)
   \   00000000   0xB410             PUSH     {R4}
    543            uint32_t addressLatchTiming;
    544          
    545            /* Check that timing values are within limits */
    546            EFM_ASSERT(setupCycles < 4);
    547            EFM_ASSERT(holdCycles < 4);
    548          
    549            /* Configure address latch timing values */
    550            addressLatchTiming = (setupCycles << _EBI_ADDRTIMING_ADDRSETUP_SHIFT) |
    551                                 (holdCycles << _EBI_ADDRTIMING_ADDRHOLD_SHIFT);
   \   00000002   0xEA50 0x2301      ORRS     R3,R0,R1, LSL #+8
   \   00000006   0x001A             MOVS     R2,R3
    552          
    553            EBI->ADDRTIMING = (EBI->ADDRTIMING &
    554                               ~(_EBI_ADDRTIMING_ADDRSETUP_MASK |
    555                                 _EBI_ADDRTIMING_ADDRHOLD_MASK)) | addressLatchTiming;
   \   00000008   0x.... 0x....      LDR.W    R3,??DataTable23_12  ;; 0x40008004
   \   0000000C   0x681B             LDR      R3,[R3, #+0]
   \   0000000E   0x.... 0x....      LDR.W    R4,??DataTable23_13  ;; 0xfffffcfc
   \   00000012   0x4023             ANDS     R3,R4,R3
   \   00000014   0x4313             ORRS     R3,R2,R3
   \   00000016   0x.... 0x....      LDR.W    R4,??DataTable23_12  ;; 0x40008004
   \   0000001A   0x6023             STR      R3,[R4, #+0]
    556          }
   \   0000001C   0xBC10             POP      {R4}
   \   0000001E   0x4770             BX       LR               ;; return
    557          
    558          #if defined(_EFM32_GIANT_FAMILY) || defined(_EFM32_WONDER_FAMILY)
    559          /***************************************************************************//**
    560           * @brief
    561           *   Configure and initialize TFT Direct Drive
    562           *
    563           * @param[in] ebiTFTInit
    564           *   TFT Initialization structure
    565           ******************************************************************************/

   \                                 In section .text, align 2, keep-with-next
    566          void EBI_TFTInit(const EBI_TFTInit_TypeDef *ebiTFTInit)
    567          {
   \                     EBI_TFTInit: (+1)
   \   00000000   0xB538             PUSH     {R3-R5,LR}
   \   00000002   0x0004             MOVS     R4,R0
    568            uint32_t ctrl;
    569          
    570            /* Configure base address for frame buffer offset to EBI bank */
    571            EBI_TFTFrameBaseSet(ebiTFTInit->addressOffset);
   \   00000004   0x6BA0             LDR      R0,[R4, #+56]
   \   00000006   0x.... 0x....      BL       EBI_TFTFrameBaseSet
    572          
    573            /* Configure display size and porch areas */
    574            EBI_TFTSizeSet(ebiTFTInit->hsize,
    575                           ebiTFTInit->vsize);
   \   0000000A   0x6AA1             LDR      R1,[R4, #+40]
   \   0000000C   0x69A0             LDR      R0,[R4, #+24]
   \   0000000E   0x.... 0x....      BL       EBI_TFTSizeSet
    576            EBI_TFTHPorchSet(ebiTFTInit->hPorchFront,
    577                             ebiTFTInit->hPorchBack,
    578                             ebiTFTInit->hPulseWidth);
   \   00000012   0x6A62             LDR      R2,[R4, #+36]
   \   00000014   0x6A21             LDR      R1,[R4, #+32]
   \   00000016   0x69E0             LDR      R0,[R4, #+28]
   \   00000018   0x.... 0x....      BL       EBI_TFTHPorchSet
    579            EBI_TFTVPorchSet(ebiTFTInit->vPorchFront,
    580                             ebiTFTInit->vPorchBack,
    581                             ebiTFTInit->vPulseWidth);
   \   0000001C   0x6B62             LDR      R2,[R4, #+52]
   \   0000001E   0x6B21             LDR      R1,[R4, #+48]
   \   00000020   0x6AE0             LDR      R0,[R4, #+44]
   \   00000022   0x.... 0x....      BL       EBI_TFTVPorchSet
    582          
    583            /* Configure timing settings */
    584            EBI_TFTTimingSet(ebiTFTInit->dclkPeriod,
    585                             ebiTFTInit->startPosition,
    586                             ebiTFTInit->setupCycles,
    587                             ebiTFTInit->holdCycles);
   \   00000026   0x6CA3             LDR      R3,[R4, #+72]
   \   00000028   0x6C62             LDR      R2,[R4, #+68]
   \   0000002A   0x6C21             LDR      R1,[R4, #+64]
   \   0000002C   0x6BE0             LDR      R0,[R4, #+60]
   \   0000002E   0x.... 0x....      BL       EBI_TFTTimingSet
    588          
    589            /* Configure line polarity settings */
    590            EBI_PolaritySet(ebiLineTFTCS, ebiTFTInit->csPolarity);
   \   00000032   0x7C61             LDRB     R1,[R4, #+17]
   \   00000034   0x200A             MOVS     R0,#+10
   \   00000036   0x.... 0x....      BL       EBI_PolaritySet
    591            EBI_PolaritySet(ebiLineTFTDClk, ebiTFTInit->dclkPolarity);
   \   0000003A   0x7CA1             LDRB     R1,[R4, #+18]
   \   0000003C   0x2009             MOVS     R0,#+9
   \   0000003E   0x.... 0x....      BL       EBI_PolaritySet
    592            EBI_PolaritySet(ebiLineTFTDataEn, ebiTFTInit->dataenPolarity);
   \   00000042   0x7CE1             LDRB     R1,[R4, #+19]
   \   00000044   0x2008             MOVS     R0,#+8
   \   00000046   0x.... 0x....      BL       EBI_PolaritySet
    593            EBI_PolaritySet(ebiLineTFTVSync, ebiTFTInit->vsyncPolarity);
   \   0000004A   0x7D61             LDRB     R1,[R4, #+21]
   \   0000004C   0x2006             MOVS     R0,#+6
   \   0000004E   0x.... 0x....      BL       EBI_PolaritySet
    594            EBI_PolaritySet(ebiLineTFTHSync, ebiTFTInit->hsyncPolarity);
   \   00000052   0x7D21             LDRB     R1,[R4, #+20]
   \   00000054   0x2007             MOVS     R0,#+7
   \   00000056   0x.... 0x....      BL       EBI_PolaritySet
    595          
    596            /* Main control, EBI bank select, mask and blending configuration */
    597            ctrl =
    598              (uint32_t)(ebiTFTInit->bank) |
    599              (uint32_t)(ebiTFTInit->width) |
    600              (uint32_t)(ebiTFTInit->colSrc) |
    601              (uint32_t)(ebiTFTInit->interleave) |
    602              (uint32_t)(ebiTFTInit->fbTrigger) |
    603              (uint32_t)(ebiTFTInit->shiftDClk == true ? (1 << _EBI_TFTCTRL_SHIFTDCLKEN_SHIFT) : 0) |
    604              (uint32_t)(ebiTFTInit->maskBlend) |
    605              (uint32_t)(ebiTFTInit->driveMode);
   \   0000005A   0x7BA0             LDRB     R0,[R4, #+14]
   \   0000005C   0x2800             CMP      R0,#+0
   \   0000005E   0xD002             BEQ.N    ??EBI_TFTInit_0
   \   00000060   0xF44F 0x7080      MOV      R0,#+256
   \   00000064   0xE000             B.N      ??EBI_TFTInit_1
   \                     ??EBI_TFTInit_0: (+1)
   \   00000066   0x2000             MOVS     R0,#+0
   \                     ??EBI_TFTInit_1: (+1)
   \   00000068   0x6821             LDR      R1,[R4, #+0]
   \   0000006A   0x6862             LDR      R2,[R4, #+4]
   \   0000006C   0x4311             ORRS     R1,R2,R1
   \   0000006E   0xF9B4 0x2008      LDRSH    R2,[R4, #+8]
   \   00000072   0x4311             ORRS     R1,R2,R1
   \   00000074   0xF9B4 0x200A      LDRSH    R2,[R4, #+10]
   \   00000078   0x4311             ORRS     R1,R2,R1
   \   0000007A   0xF9B4 0x200C      LDRSH    R2,[R4, #+12]
   \   0000007E   0x4311             ORRS     R1,R2,R1
   \   00000080   0x4308             ORRS     R0,R0,R1
   \   00000082   0x7BE1             LDRB     R1,[R4, #+15]
   \   00000084   0x4308             ORRS     R0,R1,R0
   \   00000086   0x7C21             LDRB     R1,[R4, #+16]
   \   00000088   0xEA51 0x0500      ORRS     R5,R1,R0
    606          
    607            EBI->TFTCTRL = ctrl;
   \   0000008C   0x.... 0x....      LDR.W    R0,??DataTable23_14  ;; 0x4000805c
   \   00000090   0x6005             STR      R5,[R0, #+0]
    608          
    609            /* Enable TFT pins */
    610            if (ebiTFTInit->driveMode != ebiTFTDDModeDisabled)
   \   00000092   0x7C20             LDRB     R0,[R4, #+16]
   \   00000094   0x2800             CMP      R0,#+0
   \   00000096   0xD007             BEQ.N    ??EBI_TFTInit_2
    611            {
    612              EBI->ROUTE |= (EBI_ROUTE_TFTPEN);
   \   00000098   0x.... 0x....      LDR.W    R0,??DataTable23_6  ;; 0x40008014
   \   0000009C   0x6800             LDR      R0,[R0, #+0]
   \   0000009E   0xF050 0x7080      ORRS     R0,R0,#0x1000000
   \   000000A2   0x.... 0x....      LDR.W    R1,??DataTable23_6  ;; 0x40008014
   \   000000A6   0x6008             STR      R0,[R1, #+0]
    613            }
    614          }
   \                     ??EBI_TFTInit_2: (+1)
   \   000000A8   0xBD31             POP      {R0,R4,R5,PC}    ;; return
    615          
    616          
    617          /***************************************************************************//**
    618           * @brief
    619           *   Configure and initialize TFT size settings
    620           *
    621           * @param[in] horizontal
    622           *   TFT display horizontal size in pixels
    623           * @param[in] vertical
    624           *   TFT display vertical size in pixels
    625           ******************************************************************************/

   \                                 In section .text, align 2, keep-with-next
    626          void EBI_TFTSizeSet(uint32_t horizontal, uint32_t vertical)
    627          {
    628            EFM_ASSERT((horizontal-1) < 1024);
    629            EFM_ASSERT((vertical-1) < 1024);
    630          
    631            EBI->TFTSIZE = ((horizontal-1) << _EBI_TFTSIZE_HSZ_SHIFT) |
    632              ((vertical-1) << _EBI_TFTSIZE_VSZ_SHIFT);
   \                     EBI_TFTSizeSet: (+1)
   \   00000000   0x1E42             SUBS     R2,R0,#+1
   \   00000002   0x1E4B             SUBS     R3,R1,#+1
   \   00000004   0xEA52 0x4203      ORRS     R2,R2,R3, LSL #+16
   \   00000008   0x.... 0x....      LDR.W    R3,??DataTable23_15  ;; 0x4000806c
   \   0000000C   0x601A             STR      R2,[R3, #+0]
    633          }
   \   0000000E   0x4770             BX       LR               ;; return
    634          
    635          /***************************************************************************//**
    636           * @brief
    637           *   Configure and initialize Horizontal Porch Settings
    638           *
    639           * @param[in] front
    640           *   Horizontal front porch size in pixels
    641           * @param[in] back
    642           *   Horizontal back porch size in pixels
    643           * @param[in] pulseWidth
    644           *   Horizontal synchronization pulse width. Set to required -1.
    645           ******************************************************************************/

   \                                 In section .text, align 2, keep-with-next
    646          void EBI_TFTHPorchSet(int front, int back, int pulseWidth)
    647          {
   \                     EBI_TFTHPorchSet: (+1)
   \   00000000   0xB410             PUSH     {R4}
    648            EFM_ASSERT(front < 256);
    649            EFM_ASSERT(back < 256);
    650            EFM_ASSERT((pulseWidth-1) < 128);
    651          
    652            EBI->TFTHPORCH = (front << _EBI_TFTHPORCH_HFPORCH_SHIFT) |
    653                             (back << _EBI_TFTHPORCH_HBPORCH_SHIFT) |
    654                             ((pulseWidth-1) << _EBI_TFTHPORCH_HSYNC_SHIFT);
   \   00000002   0x048B             LSLS     R3,R1,#+18
   \   00000004   0xEA53 0x2300      ORRS     R3,R3,R0, LSL #+8
   \   00000008   0x1E54             SUBS     R4,R2,#+1
   \   0000000A   0x4323             ORRS     R3,R4,R3
   \   0000000C   0x.... 0x....      LDR.W    R4,??DataTable23_16  ;; 0x40008070
   \   00000010   0x6023             STR      R3,[R4, #+0]
    655          }
   \   00000012   0xBC10             POP      {R4}
   \   00000014   0x4770             BX       LR               ;; return
    656          
    657          
    658          /***************************************************************************//**
    659           * @brief
    660           *   Configure Vertical Porch Settings
    661           *
    662           * @param[in] front
    663           *   Vertical front porch size in pixels
    664           * @param[in] back
    665           *   Vertical back porch size in pixels
    666           * @param[in] pulseWidth
    667           *   Vertical synchronization pulse width. Set to required -1.
    668           ******************************************************************************/

   \                                 In section .text, align 2, keep-with-next
    669          void EBI_TFTVPorchSet(int front, int back, int pulseWidth)
    670          {
   \                     EBI_TFTVPorchSet: (+1)
   \   00000000   0xB410             PUSH     {R4}
    671            EFM_ASSERT(front < 256);
    672            EFM_ASSERT(back < 256);
    673            EFM_ASSERT((pulseWidth-1) < 128);
    674          
    675            EBI->TFTVPORCH = (front << _EBI_TFTVPORCH_VFPORCH_SHIFT) |
    676                             (back << _EBI_TFTVPORCH_VBPORCH_SHIFT) |
    677                             ((pulseWidth-1) << _EBI_TFTVPORCH_VSYNC_SHIFT);
   \   00000002   0x048B             LSLS     R3,R1,#+18
   \   00000004   0xEA53 0x2300      ORRS     R3,R3,R0, LSL #+8
   \   00000008   0x1E54             SUBS     R4,R2,#+1
   \   0000000A   0x4323             ORRS     R3,R4,R3
   \   0000000C   0x.... 0x....      LDR.W    R4,??DataTable23_17  ;; 0x40008074
   \   00000010   0x6023             STR      R3,[R4, #+0]
    678          }
   \   00000012   0xBC10             POP      {R4}
   \   00000014   0x4770             BX       LR               ;; return
    679          
    680          
    681          /***************************************************************************//**
    682           * @brief
    683           *   Configure TFT Direct Drive Timing Settings
    684           *
    685           * @param[in] dclkPeriod
    686           *   DCLK period in internal cycles
    687           *
    688           * @param[in] start
    689           *   Starting position of external direct drive, relative to DCLK inactive edge
    690           *
    691           * @param[in] setup
    692           *   Number of cycles RGB data is driven before active edge of DCLK
    693           *
    694           * @param[in] hold
    695           *   Number of cycles RGB data is held after active edge of DCLK
    696           ******************************************************************************/

   \                                 In section .text, align 2, keep-with-next
    697          void EBI_TFTTimingSet(int dclkPeriod, int start, int setup, int hold)
    698          {
   \                     EBI_TFTTimingSet: (+1)
   \   00000000   0xB430             PUSH     {R4,R5}
    699            EFM_ASSERT(dclkPeriod < 2048);
    700            EFM_ASSERT(start < 2048);
    701            EFM_ASSERT(setup < 4);
    702            EFM_ASSERT(hold < 4);
    703          
    704            EBI->TFTTIMING = (dclkPeriod << _EBI_TFTTIMING_DCLKPERIOD_SHIFT) |
    705                             (start << _EBI_TFTTIMING_TFTSTART_SHIFT) |
    706                             (setup << _EBI_TFTTIMING_TFTSETUP_SHIFT) |
    707                             (hold << _EBI_TFTTIMING_TFTHOLD_SHIFT);
   \   00000002   0xEA50 0x3401      ORRS     R4,R0,R1, LSL #+12
   \   00000006   0xEA54 0x6402      ORRS     R4,R4,R2, LSL #+24
   \   0000000A   0xEA54 0x7403      ORRS     R4,R4,R3, LSL #+28
   \   0000000E   0x.... 0x....      LDR.W    R5,??DataTable23_18  ;; 0x40008078
   \   00000012   0x602C             STR      R4,[R5, #+0]
    708          }
   \   00000014   0xBC30             POP      {R4,R5}
   \   00000016   0x4770             BX       LR               ;; return
    709          #endif
    710          
    711          #if defined(_EFM32_GIANT_FAMILY) || defined(_EFM32_WONDER_FAMILY)
    712          /***************************************************************************//**
    713           * @brief
    714           *   Configure read operation parameters for selected bank
    715           *
    716           * @param[in] banks
    717           *   Mask of memory bank(s) to configure write timing for
    718           *
    719           * @param[in] pageMode
    720           *   Enables or disables half cycle WE strobe in last strobe cycle
    721           *
    722           * @param[in] prefetch
    723           *   Enables or disables half cycle WE strobe in last strobe cycle
    724           *
    725           * @param[in] halfRE
    726           *   Enables or disables half cycle WE strobe in last strobe cycle
    727           ******************************************************************************/

   \                                 In section .text, align 2, keep-with-next
    728          void EBI_BankReadTimingConfig(uint32_t banks, bool pageMode, bool prefetch, bool halfRE)
    729          {
   \                     EBI_BankReadTimingConfig: (+1)
   \   00000000   0xB5F8             PUSH     {R3-R7,LR}
   \   00000002   0x0004             MOVS     R4,R0
   \   00000004   0x000D             MOVS     R5,R1
   \   00000006   0x0016             MOVS     R6,R2
   \   00000008   0x001F             MOVS     R7,R3
    730           /* Verify only valid banks are used */
    731            EFM_ASSERT((banks & ~(EBI_BANK0 | EBI_BANK1 | EBI_BANK2 | EBI_BANK3)) == 0);
    732          
    733            /* Configure read operation parameters */
    734            if( banks & EBI_BANK0 )
   \   0000000A   0x07A0             LSLS     R0,R4,#+30
   \   0000000C   0xD514             BPL.N    ??EBI_BankReadTimingConfig_0
    735            {
    736              BITBAND_Peripheral(&EBI->RDTIMING, _EBI_RDTIMING_PAGEMODE_SHIFT, pageMode);
   \   0000000E   0xB2ED             UXTB     R5,R5            ;; ZeroExt  R5,R5,#+24,#+24
   \   00000010   0x002A             MOVS     R2,R5
   \   00000012   0x211E             MOVS     R1,#+30
   \   00000014   0x.... 0x....      LDR.W    R0,??DataTable23_9  ;; 0x40008008
   \   00000018   0x.... 0x....      BL       BITBAND_Peripheral
    737              BITBAND_Peripheral(&EBI->RDTIMING, _EBI_RDTIMING_PREFETCH_SHIFT, prefetch);
   \   0000001C   0xB2F6             UXTB     R6,R6            ;; ZeroExt  R6,R6,#+24,#+24
   \   0000001E   0x0032             MOVS     R2,R6
   \   00000020   0x211D             MOVS     R1,#+29
   \   00000022   0x.... 0x....      LDR.W    R0,??DataTable23_9  ;; 0x40008008
   \   00000026   0x.... 0x....      BL       BITBAND_Peripheral
    738              BITBAND_Peripheral(&EBI->RDTIMING, _EBI_RDTIMING_HALFRE_SHIFT, halfRE);
   \   0000002A   0xB2FF             UXTB     R7,R7            ;; ZeroExt  R7,R7,#+24,#+24
   \   0000002C   0x003A             MOVS     R2,R7
   \   0000002E   0x211C             MOVS     R1,#+28
   \   00000030   0x.... 0x....      LDR.W    R0,??DataTable23_9  ;; 0x40008008
   \   00000034   0x.... 0x....      BL       BITBAND_Peripheral
    739            }
    740            if( banks & EBI_BANK1 )
   \                     ??EBI_BankReadTimingConfig_0: (+1)
   \   00000038   0x0760             LSLS     R0,R4,#+29
   \   0000003A   0xD514             BPL.N    ??EBI_BankReadTimingConfig_1
    741            {
    742              BITBAND_Peripheral(&EBI->RDTIMING1, _EBI_RDTIMING_PAGEMODE_SHIFT, pageMode);
   \   0000003C   0xB2ED             UXTB     R5,R5            ;; ZeroExt  R5,R5,#+24,#+24
   \   0000003E   0x002A             MOVS     R2,R5
   \   00000040   0x211E             MOVS     R1,#+30
   \   00000042   0x.... 0x....      LDR.W    R0,??DataTable23_19  ;; 0x4000801c
   \   00000046   0x.... 0x....      BL       BITBAND_Peripheral
    743              BITBAND_Peripheral(&EBI->RDTIMING1, _EBI_RDTIMING_PREFETCH_SHIFT, prefetch);
   \   0000004A   0xB2F6             UXTB     R6,R6            ;; ZeroExt  R6,R6,#+24,#+24
   \   0000004C   0x0032             MOVS     R2,R6
   \   0000004E   0x211D             MOVS     R1,#+29
   \   00000050   0x.... 0x....      LDR.W    R0,??DataTable23_19  ;; 0x4000801c
   \   00000054   0x.... 0x....      BL       BITBAND_Peripheral
    744              BITBAND_Peripheral(&EBI->RDTIMING1, _EBI_RDTIMING_HALFRE_SHIFT, halfRE);
   \   00000058   0xB2FF             UXTB     R7,R7            ;; ZeroExt  R7,R7,#+24,#+24
   \   0000005A   0x003A             MOVS     R2,R7
   \   0000005C   0x211C             MOVS     R1,#+28
   \   0000005E   0x.... 0x....      LDR.W    R0,??DataTable23_19  ;; 0x4000801c
   \   00000062   0x.... 0x....      BL       BITBAND_Peripheral
    745            }
    746            if( banks & EBI_BANK2 )
   \                     ??EBI_BankReadTimingConfig_1: (+1)
   \   00000066   0x0720             LSLS     R0,R4,#+28
   \   00000068   0xD514             BPL.N    ??EBI_BankReadTimingConfig_2
    747            {
    748              BITBAND_Peripheral(&EBI->RDTIMING2, _EBI_RDTIMING_PAGEMODE_SHIFT, pageMode);
   \   0000006A   0xB2ED             UXTB     R5,R5            ;; ZeroExt  R5,R5,#+24,#+24
   \   0000006C   0x002A             MOVS     R2,R5
   \   0000006E   0x211E             MOVS     R1,#+30
   \   00000070   0x.... 0x....      LDR.W    R0,??DataTable23_20  ;; 0x4000802c
   \   00000074   0x.... 0x....      BL       BITBAND_Peripheral
    749              BITBAND_Peripheral(&EBI->RDTIMING2, _EBI_RDTIMING_PREFETCH_SHIFT, prefetch);
   \   00000078   0xB2F6             UXTB     R6,R6            ;; ZeroExt  R6,R6,#+24,#+24
   \   0000007A   0x0032             MOVS     R2,R6
   \   0000007C   0x211D             MOVS     R1,#+29
   \   0000007E   0x.... 0x....      LDR.W    R0,??DataTable23_20  ;; 0x4000802c
   \   00000082   0x.... 0x....      BL       BITBAND_Peripheral
    750              BITBAND_Peripheral(&EBI->RDTIMING2, _EBI_RDTIMING_HALFRE_SHIFT, halfRE);
   \   00000086   0xB2FF             UXTB     R7,R7            ;; ZeroExt  R7,R7,#+24,#+24
   \   00000088   0x003A             MOVS     R2,R7
   \   0000008A   0x211C             MOVS     R1,#+28
   \   0000008C   0x.... 0x....      LDR.W    R0,??DataTable23_20  ;; 0x4000802c
   \   00000090   0x.... 0x....      BL       BITBAND_Peripheral
    751            }
    752            if( banks & EBI_BANK3 )
   \                     ??EBI_BankReadTimingConfig_2: (+1)
   \   00000094   0x06E0             LSLS     R0,R4,#+27
   \   00000096   0xD514             BPL.N    ??EBI_BankReadTimingConfig_3
    753            {
    754              BITBAND_Peripheral(&EBI->RDTIMING3, _EBI_RDTIMING_PAGEMODE_SHIFT, pageMode);
   \   00000098   0xB2ED             UXTB     R5,R5            ;; ZeroExt  R5,R5,#+24,#+24
   \   0000009A   0x002A             MOVS     R2,R5
   \   0000009C   0x211E             MOVS     R1,#+30
   \   0000009E   0x.... 0x....      LDR.W    R0,??DataTable23_21  ;; 0x4000803c
   \   000000A2   0x.... 0x....      BL       BITBAND_Peripheral
    755              BITBAND_Peripheral(&EBI->RDTIMING3, _EBI_RDTIMING_PREFETCH_SHIFT, prefetch);
   \   000000A6   0xB2F6             UXTB     R6,R6            ;; ZeroExt  R6,R6,#+24,#+24
   \   000000A8   0x0032             MOVS     R2,R6
   \   000000AA   0x211D             MOVS     R1,#+29
   \   000000AC   0x.... 0x....      LDR.W    R0,??DataTable23_21  ;; 0x4000803c
   \   000000B0   0x.... 0x....      BL       BITBAND_Peripheral
    756              BITBAND_Peripheral(&EBI->RDTIMING3, _EBI_RDTIMING_HALFRE_SHIFT, halfRE);
   \   000000B4   0xB2FF             UXTB     R7,R7            ;; ZeroExt  R7,R7,#+24,#+24
   \   000000B6   0x003A             MOVS     R2,R7
   \   000000B8   0x211C             MOVS     R1,#+28
   \   000000BA   0x.... 0x....      LDR.W    R0,??DataTable23_21  ;; 0x4000803c
   \   000000BE   0x.... 0x....      BL       BITBAND_Peripheral
    757            }
    758          }
   \                     ??EBI_BankReadTimingConfig_3: (+1)
   \   000000C2   0xBDF1             POP      {R0,R4-R7,PC}    ;; return
    759          
    760          /***************************************************************************//**
    761           * @brief
    762           *   Configure timing values of read bus accesses
    763           *
    764           * @param[in] banks
    765           *   Mask of memory bank(s) to configure timing for
    766           *
    767           * @param[in] setupCycles
    768           *   Number of clock cycles for address setup before REn is asserted
    769           *
    770           * @param[in] strobeCycles
    771           *   The number of cycles the REn is held active. After the specified number of
    772           *   cycles, data is read. If set to 0, 1 cycle is inserted by HW
    773           *
    774           * @param[in] holdCycles
    775           *   The number of cycles CSn is held active after the REn is dessarted
    776           ******************************************************************************/

   \                                 In section .text, align 2, keep-with-next
    777          void EBI_BankReadTimingSet(uint32_t banks, int setupCycles, int strobeCycles, int holdCycles)
    778          {
   \                     EBI_BankReadTimingSet: (+1)
   \   00000000   0xB470             PUSH     {R4-R6}
    779            uint32_t readTiming;
    780          
    781            /* Verify only valid banks are used */
    782            EFM_ASSERT((banks & ~(EBI_BANK0 | EBI_BANK1 | EBI_BANK2 | EBI_BANK3)) == 0);
    783          
    784            /* Check that timings are within limits */
    785            EFM_ASSERT(setupCycles < 4);
    786            EFM_ASSERT(strobeCycles < 64);
    787            EFM_ASSERT(holdCycles < 4);
    788          
    789            /* Configure timing values */
    790            readTiming = (setupCycles << _EBI_RDTIMING_RDSETUP_SHIFT) |
    791                         (strobeCycles << _EBI_RDTIMING_RDSTRB_SHIFT) |
    792                         (holdCycles << _EBI_RDTIMING_RDHOLD_SHIFT);
   \   00000002   0xEA51 0x2502      ORRS     R5,R1,R2, LSL #+8
   \   00000006   0xEA55 0x4503      ORRS     R5,R5,R3, LSL #+16
   \   0000000A   0x002C             MOVS     R4,R5
    793          
    794            if (banks & EBI_BANK0)
   \   0000000C   0x0785             LSLS     R5,R0,#+30
   \   0000000E   0xD509             BPL.N    ??EBI_BankReadTimingSet_0
    795            {
    796              EBI->RDTIMING = (EBI->RDTIMING &
    797                               ~(_EBI_RDTIMING_RDSETUP_MASK |
    798                                 _EBI_RDTIMING_RDSTRB_MASK |
    799                                 _EBI_RDTIMING_RDHOLD_MASK)) | readTiming;
   \   00000010   0x.... 0x....      LDR.W    R5,??DataTable23_9  ;; 0x40008008
   \   00000014   0x682D             LDR      R5,[R5, #+0]
   \   00000016   0x.... 0x....      LDR.W    R6,??DataTable23_10  ;; 0xfffcc0fc
   \   0000001A   0x4035             ANDS     R5,R6,R5
   \   0000001C   0x4325             ORRS     R5,R4,R5
   \   0000001E   0x.... 0x....      LDR.W    R6,??DataTable23_9  ;; 0x40008008
   \   00000022   0x6035             STR      R5,[R6, #+0]
    800            }
    801            if (banks & EBI_BANK1)
   \                     ??EBI_BankReadTimingSet_0: (+1)
   \   00000024   0x0745             LSLS     R5,R0,#+29
   \   00000026   0xD509             BPL.N    ??EBI_BankReadTimingSet_1
    802            {
    803              EBI->RDTIMING1 = (EBI->RDTIMING1 &
    804                                ~(_EBI_RDTIMING1_RDSETUP_MASK |
    805                                  _EBI_RDTIMING1_RDSTRB_MASK |
    806                                  _EBI_RDTIMING1_RDHOLD_MASK)) | readTiming;
   \   00000028   0x.... 0x....      LDR.W    R5,??DataTable23_19  ;; 0x4000801c
   \   0000002C   0x682D             LDR      R5,[R5, #+0]
   \   0000002E   0x.... 0x....      LDR.W    R6,??DataTable23_10  ;; 0xfffcc0fc
   \   00000032   0x4035             ANDS     R5,R6,R5
   \   00000034   0x4325             ORRS     R5,R4,R5
   \   00000036   0x.... 0x....      LDR.W    R6,??DataTable23_19  ;; 0x4000801c
   \   0000003A   0x6035             STR      R5,[R6, #+0]
    807            }
    808            if (banks & EBI_BANK2)
   \                     ??EBI_BankReadTimingSet_1: (+1)
   \   0000003C   0x0705             LSLS     R5,R0,#+28
   \   0000003E   0xD509             BPL.N    ??EBI_BankReadTimingSet_2
    809            {
    810              EBI->RDTIMING2 = (EBI->RDTIMING2 &
    811                                ~(_EBI_RDTIMING2_RDSETUP_MASK |
    812                                  _EBI_RDTIMING2_RDSTRB_MASK |
    813                                  _EBI_RDTIMING2_RDHOLD_MASK)) | readTiming;
   \   00000040   0x.... 0x....      LDR.W    R5,??DataTable23_20  ;; 0x4000802c
   \   00000044   0x682D             LDR      R5,[R5, #+0]
   \   00000046   0x.... 0x....      LDR.W    R6,??DataTable23_10  ;; 0xfffcc0fc
   \   0000004A   0x4035             ANDS     R5,R6,R5
   \   0000004C   0x4325             ORRS     R5,R4,R5
   \   0000004E   0x.... 0x....      LDR.W    R6,??DataTable23_20  ;; 0x4000802c
   \   00000052   0x6035             STR      R5,[R6, #+0]
    814            }
    815            if (banks & EBI_BANK3)
   \                     ??EBI_BankReadTimingSet_2: (+1)
   \   00000054   0x06C5             LSLS     R5,R0,#+27
   \   00000056   0xD508             BPL.N    ??EBI_BankReadTimingSet_3
    816            {
    817              EBI->RDTIMING3 = (EBI->RDTIMING3 &
    818                                ~(_EBI_RDTIMING3_RDSETUP_MASK |
    819                                  _EBI_RDTIMING3_RDSTRB_MASK |
    820                                  _EBI_RDTIMING3_RDHOLD_MASK)) | readTiming;
   \   00000058   0x.... 0x....      LDR.W    R5,??DataTable23_21  ;; 0x4000803c
   \   0000005C   0x682D             LDR      R5,[R5, #+0]
   \   0000005E   0x....             LDR.N    R6,??DataTable23_10  ;; 0xfffcc0fc
   \   00000060   0x4035             ANDS     R5,R6,R5
   \   00000062   0x4325             ORRS     R5,R4,R5
   \   00000064   0x.... 0x....      LDR.W    R6,??DataTable23_21  ;; 0x4000803c
   \   00000068   0x6035             STR      R5,[R6, #+0]
    821            }
    822          }
   \                     ??EBI_BankReadTimingSet_3: (+1)
   \   0000006A   0xBC70             POP      {R4-R6}
   \   0000006C   0x4770             BX       LR               ;; return
    823          
    824          
    825          /***************************************************************************//**
    826           * @brief
    827           *   Configure write operation parameters for selected bank
    828           *
    829           * @param[in] banks
    830           *   Mask of memory bank(s) to configure write timing for
    831           *
    832           * @param[in] writeBufferDisable
    833           *   If true, disable the write buffer
    834           *
    835           * @param[in] halfWE
    836           *   Enables or disables half cycle WE strobe in last strobe cycle
    837           ******************************************************************************/

   \                                 In section .text, align 2, keep-with-next
    838          void EBI_BankWriteTimingConfig(uint32_t banks, bool writeBufDisable, bool halfWE)
    839          {
   \                     EBI_BankWriteTimingConfig: (+1)
   \   00000000   0xB570             PUSH     {R4-R6,LR}
   \   00000002   0x0004             MOVS     R4,R0
   \   00000004   0x000D             MOVS     R5,R1
   \   00000006   0x0016             MOVS     R6,R2
    840            /* Verify only valid banks are used */
    841            EFM_ASSERT((banks & ~(EBI_BANK0 | EBI_BANK1 | EBI_BANK2 | EBI_BANK3)) == 0);
    842          
    843            /* Configure write operation parameters */
    844            if( banks & EBI_BANK0 )
   \   00000008   0x07A0             LSLS     R0,R4,#+30
   \   0000000A   0xD50B             BPL.N    ??EBI_BankWriteTimingConfig_0
    845            {
    846              BITBAND_Peripheral(&EBI->WRTIMING, _EBI_WRTIMING_WBUFDIS_SHIFT, writeBufDisable);
   \   0000000C   0xB2ED             UXTB     R5,R5            ;; ZeroExt  R5,R5,#+24,#+24
   \   0000000E   0x002A             MOVS     R2,R5
   \   00000010   0x211D             MOVS     R1,#+29
   \   00000012   0x....             LDR.N    R0,??DataTable23_11  ;; 0x4000800c
   \   00000014   0x.... 0x....      BL       BITBAND_Peripheral
    847              BITBAND_Peripheral(&EBI->WRTIMING, _EBI_WRTIMING_HALFWE_SHIFT, halfWE);
   \   00000018   0xB2F6             UXTB     R6,R6            ;; ZeroExt  R6,R6,#+24,#+24
   \   0000001A   0x0032             MOVS     R2,R6
   \   0000001C   0x211C             MOVS     R1,#+28
   \   0000001E   0x....             LDR.N    R0,??DataTable23_11  ;; 0x4000800c
   \   00000020   0x.... 0x....      BL       BITBAND_Peripheral
    848            }
    849            if( banks & EBI_BANK1 )
   \                     ??EBI_BankWriteTimingConfig_0: (+1)
   \   00000024   0x0760             LSLS     R0,R4,#+29
   \   00000026   0xD50B             BPL.N    ??EBI_BankWriteTimingConfig_1
    850            {
    851              BITBAND_Peripheral(&EBI->WRTIMING1, _EBI_WRTIMING_WBUFDIS_SHIFT, writeBufDisable);
   \   00000028   0xB2ED             UXTB     R5,R5            ;; ZeroExt  R5,R5,#+24,#+24
   \   0000002A   0x002A             MOVS     R2,R5
   \   0000002C   0x211D             MOVS     R1,#+29
   \   0000002E   0x....             LDR.N    R0,??DataTable23_22  ;; 0x40008020
   \   00000030   0x.... 0x....      BL       BITBAND_Peripheral
    852              BITBAND_Peripheral(&EBI->WRTIMING1, _EBI_WRTIMING_HALFWE_SHIFT, halfWE);
   \   00000034   0xB2F6             UXTB     R6,R6            ;; ZeroExt  R6,R6,#+24,#+24
   \   00000036   0x0032             MOVS     R2,R6
   \   00000038   0x211C             MOVS     R1,#+28
   \   0000003A   0x....             LDR.N    R0,??DataTable23_22  ;; 0x40008020
   \   0000003C   0x.... 0x....      BL       BITBAND_Peripheral
    853            }
    854            if( banks & EBI_BANK2 )
   \                     ??EBI_BankWriteTimingConfig_1: (+1)
   \   00000040   0x0720             LSLS     R0,R4,#+28
   \   00000042   0xD50B             BPL.N    ??EBI_BankWriteTimingConfig_2
    855            {
    856              BITBAND_Peripheral(&EBI->WRTIMING2, _EBI_WRTIMING_WBUFDIS_SHIFT, writeBufDisable);
   \   00000044   0xB2ED             UXTB     R5,R5            ;; ZeroExt  R5,R5,#+24,#+24
   \   00000046   0x002A             MOVS     R2,R5
   \   00000048   0x211D             MOVS     R1,#+29
   \   0000004A   0x....             LDR.N    R0,??DataTable23_23  ;; 0x40008030
   \   0000004C   0x.... 0x....      BL       BITBAND_Peripheral
    857              BITBAND_Peripheral(&EBI->WRTIMING2, _EBI_WRTIMING_HALFWE_SHIFT, halfWE);
   \   00000050   0xB2F6             UXTB     R6,R6            ;; ZeroExt  R6,R6,#+24,#+24
   \   00000052   0x0032             MOVS     R2,R6
   \   00000054   0x211C             MOVS     R1,#+28
   \   00000056   0x....             LDR.N    R0,??DataTable23_23  ;; 0x40008030
   \   00000058   0x.... 0x....      BL       BITBAND_Peripheral
    858            }
    859            if( banks & EBI_BANK3 )
   \                     ??EBI_BankWriteTimingConfig_2: (+1)
   \   0000005C   0x06E0             LSLS     R0,R4,#+27
   \   0000005E   0xD50B             BPL.N    ??EBI_BankWriteTimingConfig_3
    860            {
    861              BITBAND_Peripheral(&EBI->WRTIMING3, _EBI_WRTIMING_WBUFDIS_SHIFT, writeBufDisable);
   \   00000060   0xB2ED             UXTB     R5,R5            ;; ZeroExt  R5,R5,#+24,#+24
   \   00000062   0x002A             MOVS     R2,R5
   \   00000064   0x211D             MOVS     R1,#+29
   \   00000066   0x....             LDR.N    R0,??DataTable23_24  ;; 0x40008040
   \   00000068   0x.... 0x....      BL       BITBAND_Peripheral
    862              BITBAND_Peripheral(&EBI->WRTIMING3, _EBI_WRTIMING_HALFWE_SHIFT, halfWE);
   \   0000006C   0xB2F6             UXTB     R6,R6            ;; ZeroExt  R6,R6,#+24,#+24
   \   0000006E   0x0032             MOVS     R2,R6
   \   00000070   0x211C             MOVS     R1,#+28
   \   00000072   0x....             LDR.N    R0,??DataTable23_24  ;; 0x40008040
   \   00000074   0x.... 0x....      BL       BITBAND_Peripheral
    863            }
    864          }
   \                     ??EBI_BankWriteTimingConfig_3: (+1)
   \   00000078   0xBD70             POP      {R4-R6,PC}       ;; return
    865          
    866          
    867          /***************************************************************************//**
    868           * @brief
    869           *   Configure timing values of write bus accesses
    870           *
    871           * @param[in] banks
    872           *   Mask of memory bank(s) to configure write timing for
    873           *
    874           * @param[in] setupCycles
    875           *   Number of clock cycles for address setup before WEn is asserted
    876           *
    877           * @param[in] strobeCycles
    878           *   Number of cycles WEn is held active. If set to 0, 1 cycle is inserted by HW
    879           *
    880           * @param[in] holdCycles
    881           *   Number of cycles CSn is held active after the WEn is deasserted
    882           ******************************************************************************/

   \                                 In section .text, align 2, keep-with-next
    883          void EBI_BankWriteTimingSet(uint32_t banks, int setupCycles, int strobeCycles, int holdCycles)
    884          {
   \                     EBI_BankWriteTimingSet: (+1)
   \   00000000   0xB470             PUSH     {R4-R6}
    885            uint32_t writeTiming;
    886          
    887            /* Verify only valid banks are used */
    888            EFM_ASSERT((banks & ~(EBI_BANK0 | EBI_BANK1 | EBI_BANK2 | EBI_BANK3)) == 0);
    889          
    890            /* Check that timings are within limits */
    891            EFM_ASSERT(setupCycles < 4);
    892            EFM_ASSERT(strobeCycles < 64);
    893            EFM_ASSERT(holdCycles < 4);
    894          
    895            /* Configure timing values */
    896            writeTiming = (setupCycles << _EBI_WRTIMING_WRSETUP_SHIFT) |
    897                          (strobeCycles << _EBI_WRTIMING_WRSTRB_SHIFT) |
    898                          (holdCycles << _EBI_WRTIMING_WRHOLD_SHIFT);
   \   00000002   0xEA51 0x2502      ORRS     R5,R1,R2, LSL #+8
   \   00000006   0xEA55 0x4503      ORRS     R5,R5,R3, LSL #+16
   \   0000000A   0x002C             MOVS     R4,R5
    899          
    900            if (banks & EBI_BANK0)
   \   0000000C   0x0785             LSLS     R5,R0,#+30
   \   0000000E   0xD506             BPL.N    ??EBI_BankWriteTimingSet_0
    901            {
    902              EBI->WRTIMING = (EBI->WRTIMING &
    903                               ~(_EBI_WRTIMING_WRSETUP_MASK |
    904                                 _EBI_WRTIMING_WRSTRB_MASK |
    905                                 _EBI_WRTIMING_WRHOLD_MASK)) | writeTiming;
   \   00000010   0x....             LDR.N    R5,??DataTable23_11  ;; 0x4000800c
   \   00000012   0x682D             LDR      R5,[R5, #+0]
   \   00000014   0x....             LDR.N    R6,??DataTable23_10  ;; 0xfffcc0fc
   \   00000016   0x4035             ANDS     R5,R6,R5
   \   00000018   0x4325             ORRS     R5,R4,R5
   \   0000001A   0x....             LDR.N    R6,??DataTable23_11  ;; 0x4000800c
   \   0000001C   0x6035             STR      R5,[R6, #+0]
    906            }
    907            if (banks & EBI_BANK1)
   \                     ??EBI_BankWriteTimingSet_0: (+1)
   \   0000001E   0x0745             LSLS     R5,R0,#+29
   \   00000020   0xD506             BPL.N    ??EBI_BankWriteTimingSet_1
    908            {
    909              EBI->WRTIMING1 = (EBI->WRTIMING1 &
    910                                ~(_EBI_WRTIMING1_WRSETUP_MASK |
    911                                  _EBI_WRTIMING1_WRSTRB_MASK |
    912                                  _EBI_WRTIMING1_WRHOLD_MASK)) | writeTiming;
   \   00000022   0x....             LDR.N    R5,??DataTable23_22  ;; 0x40008020
   \   00000024   0x682D             LDR      R5,[R5, #+0]
   \   00000026   0x....             LDR.N    R6,??DataTable23_10  ;; 0xfffcc0fc
   \   00000028   0x4035             ANDS     R5,R6,R5
   \   0000002A   0x4325             ORRS     R5,R4,R5
   \   0000002C   0x....             LDR.N    R6,??DataTable23_22  ;; 0x40008020
   \   0000002E   0x6035             STR      R5,[R6, #+0]
    913            }
    914            if (banks & EBI_BANK2)
   \                     ??EBI_BankWriteTimingSet_1: (+1)
   \   00000030   0x0705             LSLS     R5,R0,#+28
   \   00000032   0xD506             BPL.N    ??EBI_BankWriteTimingSet_2
    915            {
    916              EBI->WRTIMING2 = (EBI->WRTIMING2 &
    917                                ~(_EBI_WRTIMING2_WRSETUP_MASK |
    918                                  _EBI_WRTIMING2_WRSTRB_MASK |
    919                                  _EBI_WRTIMING2_WRHOLD_MASK)) | writeTiming;
   \   00000034   0x....             LDR.N    R5,??DataTable23_23  ;; 0x40008030
   \   00000036   0x682D             LDR      R5,[R5, #+0]
   \   00000038   0x....             LDR.N    R6,??DataTable23_10  ;; 0xfffcc0fc
   \   0000003A   0x4035             ANDS     R5,R6,R5
   \   0000003C   0x4325             ORRS     R5,R4,R5
   \   0000003E   0x....             LDR.N    R6,??DataTable23_23  ;; 0x40008030
   \   00000040   0x6035             STR      R5,[R6, #+0]
    920            }
    921            if (banks & EBI_BANK3)
   \                     ??EBI_BankWriteTimingSet_2: (+1)
   \   00000042   0x06C5             LSLS     R5,R0,#+27
   \   00000044   0xD506             BPL.N    ??EBI_BankWriteTimingSet_3
    922            {
    923              EBI->WRTIMING3 = (EBI->WRTIMING3 &
    924                                ~(_EBI_WRTIMING3_WRSETUP_MASK |
    925                                  _EBI_WRTIMING3_WRSTRB_MASK |
    926                                  _EBI_WRTIMING3_WRHOLD_MASK)) | writeTiming;
   \   00000046   0x....             LDR.N    R5,??DataTable23_24  ;; 0x40008040
   \   00000048   0x682D             LDR      R5,[R5, #+0]
   \   0000004A   0x....             LDR.N    R6,??DataTable23_10  ;; 0xfffcc0fc
   \   0000004C   0x4035             ANDS     R5,R6,R5
   \   0000004E   0x4325             ORRS     R5,R4,R5
   \   00000050   0x....             LDR.N    R6,??DataTable23_24  ;; 0x40008040
   \   00000052   0x6035             STR      R5,[R6, #+0]
    927            }
    928          }
   \                     ??EBI_BankWriteTimingSet_3: (+1)
   \   00000054   0xBC70             POP      {R4-R6}
   \   00000056   0x4770             BX       LR               ;; return
    929          
    930          
    931          /***************************************************************************//**
    932           * @brief
    933           *   Configure address operation parameters for selected bank
    934           *
    935           * @param[in] banks
    936           *   Mask of memory bank(s) to configure write timing for
    937           *
    938           * @param[in] halfALE
    939           *   Enables or disables half cycle ALE strobe in last strobe cycle
    940           ******************************************************************************/

   \                                 In section .text, align 2, keep-with-next
    941          void EBI_BankAddressTimingConfig(uint32_t banks, bool halfALE)
    942          {
   \                     EBI_BankAddressTimingConfig: (+1)
   \   00000000   0xB538             PUSH     {R3-R5,LR}
   \   00000002   0x0004             MOVS     R4,R0
   \   00000004   0x000D             MOVS     R5,R1
    943            /* Verify only valid banks are used */
    944            EFM_ASSERT((banks & ~(EBI_BANK0 | EBI_BANK1 | EBI_BANK2 | EBI_BANK3)) == 0);
    945          
    946            if( banks & EBI_BANK0 )
   \   00000006   0x07A0             LSLS     R0,R4,#+30
   \   00000008   0xD505             BPL.N    ??EBI_BankAddressTimingConfig_0
    947            {
    948              BITBAND_Peripheral(&EBI->ADDRTIMING, _EBI_ADDRTIMING_HALFALE_SHIFT, halfALE);
   \   0000000A   0xB2ED             UXTB     R5,R5            ;; ZeroExt  R5,R5,#+24,#+24
   \   0000000C   0x002A             MOVS     R2,R5
   \   0000000E   0x211C             MOVS     R1,#+28
   \   00000010   0x....             LDR.N    R0,??DataTable23_12  ;; 0x40008004
   \   00000012   0x.... 0x....      BL       BITBAND_Peripheral
    949            }
    950            if( banks & EBI_BANK1 )
   \                     ??EBI_BankAddressTimingConfig_0: (+1)
   \   00000016   0x0760             LSLS     R0,R4,#+29
   \   00000018   0xD505             BPL.N    ??EBI_BankAddressTimingConfig_1
    951            {
    952              BITBAND_Peripheral(&EBI->ADDRTIMING1, _EBI_ADDRTIMING_HALFALE_SHIFT, halfALE);
   \   0000001A   0xB2ED             UXTB     R5,R5            ;; ZeroExt  R5,R5,#+24,#+24
   \   0000001C   0x002A             MOVS     R2,R5
   \   0000001E   0x211C             MOVS     R1,#+28
   \   00000020   0x....             LDR.N    R0,??DataTable23_25  ;; 0x40008018
   \   00000022   0x.... 0x....      BL       BITBAND_Peripheral
    953            }
    954            if( banks & EBI_BANK2 )
   \                     ??EBI_BankAddressTimingConfig_1: (+1)
   \   00000026   0x0720             LSLS     R0,R4,#+28
   \   00000028   0xD505             BPL.N    ??EBI_BankAddressTimingConfig_2
    955            {
    956              BITBAND_Peripheral(&EBI->ADDRTIMING2, _EBI_ADDRTIMING_HALFALE_SHIFT, halfALE);
   \   0000002A   0xB2ED             UXTB     R5,R5            ;; ZeroExt  R5,R5,#+24,#+24
   \   0000002C   0x002A             MOVS     R2,R5
   \   0000002E   0x211C             MOVS     R1,#+28
   \   00000030   0x....             LDR.N    R0,??DataTable23_26  ;; 0x40008028
   \   00000032   0x.... 0x....      BL       BITBAND_Peripheral
    957            }
    958            if( banks & EBI_BANK3 )
   \                     ??EBI_BankAddressTimingConfig_2: (+1)
   \   00000036   0x06E0             LSLS     R0,R4,#+27
   \   00000038   0xD505             BPL.N    ??EBI_BankAddressTimingConfig_3
    959            {
    960              BITBAND_Peripheral(&EBI->ADDRTIMING3, _EBI_ADDRTIMING_HALFALE_SHIFT, halfALE);
   \   0000003A   0xB2ED             UXTB     R5,R5            ;; ZeroExt  R5,R5,#+24,#+24
   \   0000003C   0x002A             MOVS     R2,R5
   \   0000003E   0x211C             MOVS     R1,#+28
   \   00000040   0x....             LDR.N    R0,??DataTable23_27  ;; 0x40008038
   \   00000042   0x.... 0x....      BL       BITBAND_Peripheral
    961            }
    962          }
   \                     ??EBI_BankAddressTimingConfig_3: (+1)
   \   00000046   0xBD31             POP      {R0,R4,R5,PC}    ;; return
    963          
    964          
    965          /***************************************************************************//**
    966           * @brief
    967           *   Configure timing values of address latch bus accesses
    968           *
    969           * @param[in] banks
    970           *   Mask of memory bank(s) to configure address timing for
    971           *
    972           * @param[in] setupCycles
    973           *   Sets the number of cycles the address is held after ALE is asserted
    974           *
    975           * @param[in] holdCycles
    976           *   Sets the number of cycles the address is driven onto the ADDRDAT bus before
    977           *   ALE is asserted. If set 0, 1 cycle is inserted by HW
    978           ******************************************************************************/

   \                                 In section .text, align 2, keep-with-next
    979          void EBI_BankAddressTimingSet(uint32_t banks, int setupCycles, int holdCycles)
    980          {
   \                     EBI_BankAddressTimingSet: (+1)
   \   00000000   0xB430             PUSH     {R4,R5}
    981            uint32_t addressLatchTiming;
    982          
    983            /* Verify only valid banks are used */
    984            EFM_ASSERT((banks & ~(EBI_BANK0 | EBI_BANK1 | EBI_BANK2 | EBI_BANK3)) == 0);
    985          
    986            /* Check that timing values are within limits */
    987            EFM_ASSERT(setupCycles < 4);
    988            EFM_ASSERT(holdCycles < 4);
    989          
    990            /* Configure address latch timing values */
    991            addressLatchTiming = (setupCycles << _EBI_ADDRTIMING_ADDRSETUP_SHIFT) |
    992                                 (holdCycles << _EBI_ADDRTIMING_ADDRHOLD_SHIFT);
   \   00000002   0xEA51 0x2402      ORRS     R4,R1,R2, LSL #+8
   \   00000006   0x0023             MOVS     R3,R4
    993          
    994            if (banks & EBI_BANK0)
   \   00000008   0x0784             LSLS     R4,R0,#+30
   \   0000000A   0xD506             BPL.N    ??EBI_BankAddressTimingSet_0
    995            {
    996              EBI->ADDRTIMING = (EBI->ADDRTIMING &
    997                                 ~(_EBI_ADDRTIMING_ADDRSETUP_MASK |
    998                                   _EBI_ADDRTIMING_ADDRHOLD_MASK)) | addressLatchTiming;
   \   0000000C   0x....             LDR.N    R4,??DataTable23_12  ;; 0x40008004
   \   0000000E   0x6824             LDR      R4,[R4, #+0]
   \   00000010   0x....             LDR.N    R5,??DataTable23_13  ;; 0xfffffcfc
   \   00000012   0x402C             ANDS     R4,R5,R4
   \   00000014   0x431C             ORRS     R4,R3,R4
   \   00000016   0x....             LDR.N    R5,??DataTable23_12  ;; 0x40008004
   \   00000018   0x602C             STR      R4,[R5, #+0]
    999            }
   1000            if (banks & EBI_BANK1)
   \                     ??EBI_BankAddressTimingSet_0: (+1)
   \   0000001A   0x0744             LSLS     R4,R0,#+29
   \   0000001C   0xD506             BPL.N    ??EBI_BankAddressTimingSet_1
   1001            {
   1002              EBI->ADDRTIMING1 = (EBI->ADDRTIMING1 &
   1003                                  ~(_EBI_ADDRTIMING1_ADDRSETUP_MASK |
   1004                                    _EBI_ADDRTIMING1_ADDRHOLD_MASK)) | addressLatchTiming;
   \   0000001E   0x....             LDR.N    R4,??DataTable23_25  ;; 0x40008018
   \   00000020   0x6824             LDR      R4,[R4, #+0]
   \   00000022   0x....             LDR.N    R5,??DataTable23_13  ;; 0xfffffcfc
   \   00000024   0x402C             ANDS     R4,R5,R4
   \   00000026   0x431C             ORRS     R4,R3,R4
   \   00000028   0x....             LDR.N    R5,??DataTable23_25  ;; 0x40008018
   \   0000002A   0x602C             STR      R4,[R5, #+0]
   1005            }
   1006            if (banks & EBI_BANK2)
   \                     ??EBI_BankAddressTimingSet_1: (+1)
   \   0000002C   0x0704             LSLS     R4,R0,#+28
   \   0000002E   0xD506             BPL.N    ??EBI_BankAddressTimingSet_2
   1007            {
   1008              EBI->ADDRTIMING2 = (EBI->ADDRTIMING2 &
   1009                                  ~(_EBI_ADDRTIMING2_ADDRSETUP_MASK |
   1010                                    _EBI_ADDRTIMING2_ADDRHOLD_MASK)) | addressLatchTiming;
   \   00000030   0x....             LDR.N    R4,??DataTable23_26  ;; 0x40008028
   \   00000032   0x6824             LDR      R4,[R4, #+0]
   \   00000034   0x....             LDR.N    R5,??DataTable23_13  ;; 0xfffffcfc
   \   00000036   0x402C             ANDS     R4,R5,R4
   \   00000038   0x431C             ORRS     R4,R3,R4
   \   0000003A   0x....             LDR.N    R5,??DataTable23_26  ;; 0x40008028
   \   0000003C   0x602C             STR      R4,[R5, #+0]
   1011            }
   1012            if (banks & EBI_BANK3)
   \                     ??EBI_BankAddressTimingSet_2: (+1)
   \   0000003E   0x06C4             LSLS     R4,R0,#+27
   \   00000040   0xD506             BPL.N    ??EBI_BankAddressTimingSet_3
   1013            {
   1014              EBI->ADDRTIMING3 = (EBI->ADDRTIMING3 &
   1015                                  ~(_EBI_ADDRTIMING3_ADDRSETUP_MASK |
   1016                                    _EBI_ADDRTIMING3_ADDRHOLD_MASK)) | addressLatchTiming;
   \   00000042   0x....             LDR.N    R4,??DataTable23_27  ;; 0x40008038
   \   00000044   0x6824             LDR      R4,[R4, #+0]
   \   00000046   0x....             LDR.N    R5,??DataTable23_13  ;; 0xfffffcfc
   \   00000048   0x402C             ANDS     R4,R5,R4
   \   0000004A   0x431C             ORRS     R4,R3,R4
   \   0000004C   0x....             LDR.N    R5,??DataTable23_27  ;; 0x40008038
   \   0000004E   0x602C             STR      R4,[R5, #+0]
   1017            }
   1018          }
   \                     ??EBI_BankAddressTimingSet_3: (+1)
   \   00000050   0xBC30             POP      {R4,R5}
   \   00000052   0x4770             BX       LR               ;; return
   1019          
   1020          
   1021          /***************************************************************************//**
   1022           * @brief
   1023           *   Configure EBI pin polarity for selected bank(s) for devices with individual
   1024           *   timing support
   1025           *
   1026           * @param[in] banks
   1027           *   Mask of memory bank(s) to configure polarity for
   1028           *
   1029           * @param[in] line
   1030           *   Which pin/line to configure
   1031           *
   1032           * @param[in] polarity
   1033           *   Active high, or active low
   1034           ******************************************************************************/

   \                                 In section .text, align 2, keep-with-next
   1035          void EBI_BankPolaritySet(uint32_t banks, EBI_Line_TypeDef line, EBI_Polarity_TypeDef polarity)
   1036          {
   \                     EBI_BankPolaritySet: (+1)
   \   00000000   0xE92D 0x41F0      PUSH     {R4-R8,LR}
   \   00000004   0x0004             MOVS     R4,R0
   \   00000006   0x000D             MOVS     R5,R1
   \   00000008   0x0016             MOVS     R6,R2
   1037            uint32_t bankSet = 0;
   \   0000000A   0x2700             MOVS     R7,#+0
   1038            volatile uint32_t *polRegister = 0;
   \   0000000C   0xF05F 0x0800      MOVS     R8,#+0
   1039          
   1040            /* Verify only valid banks are used */
   1041            EFM_ASSERT((banks & ~(EBI_BANK0 | EBI_BANK1 | EBI_BANK2 | EBI_BANK3)) == 0);
   1042          
   1043            while (banks)
   \                     ??EBI_BankPolaritySet_0: (+1)
   \   00000010   0x2C00             CMP      R4,#+0
   \   00000012   0xD079             BEQ.N    ??EBI_BankPolaritySet_1
   1044            {
   1045          #if defined(_EFM32_GIANT_FAMILY) || defined(_EFM32_WONDER_FAMILY)
   1046              if (banks & EBI_BANK0)
   \   00000014   0x07A0             LSLS     R0,R4,#+30
   \   00000016   0xD503             BPL.N    ??EBI_BankPolaritySet_2
   1047              {
   1048                polRegister = &EBI->POLARITY;
   \   00000018   0x....             LDR.N    R0,??DataTable23_7  ;; 0x40008010
   \   0000001A   0x4680             MOV      R8,R0
   1049                bankSet = EBI_BANK0;
   \   0000001C   0x2002             MOVS     R0,#+2
   \   0000001E   0x0007             MOVS     R7,R0
   1050              }
   1051              if (banks & EBI_BANK1)
   \                     ??EBI_BankPolaritySet_2: (+1)
   \   00000020   0x0760             LSLS     R0,R4,#+29
   \   00000022   0xD503             BPL.N    ??EBI_BankPolaritySet_3
   1052              {
   1053                polRegister = &EBI->POLARITY1;
   \   00000024   0x....             LDR.N    R0,??DataTable23_28  ;; 0x40008024
   \   00000026   0x4680             MOV      R8,R0
   1054                bankSet = EBI_BANK1;
   \   00000028   0x2004             MOVS     R0,#+4
   \   0000002A   0x0007             MOVS     R7,R0
   1055              }
   1056              if (banks & EBI_BANK2)
   \                     ??EBI_BankPolaritySet_3: (+1)
   \   0000002C   0x0720             LSLS     R0,R4,#+28
   \   0000002E   0xD503             BPL.N    ??EBI_BankPolaritySet_4
   1057              {
   1058                polRegister = &EBI->POLARITY2;
   \   00000030   0x....             LDR.N    R0,??DataTable23_29  ;; 0x40008034
   \   00000032   0x4680             MOV      R8,R0
   1059                bankSet = EBI_BANK2;
   \   00000034   0x2008             MOVS     R0,#+8
   \   00000036   0x0007             MOVS     R7,R0
   1060              }
   1061              if (banks & EBI_BANK3)
   \                     ??EBI_BankPolaritySet_4: (+1)
   \   00000038   0x06E0             LSLS     R0,R4,#+27
   \   0000003A   0xD503             BPL.N    ??EBI_BankPolaritySet_5
   1062              {
   1063                polRegister = &EBI->POLARITY3;
   \   0000003C   0x....             LDR.N    R0,??DataTable23_30  ;; 0x40008044
   \   0000003E   0x4680             MOV      R8,R0
   1064                bankSet = EBI_BANK3;
   \   00000040   0x2010             MOVS     R0,#+16
   \   00000042   0x0007             MOVS     R7,R0
   1065              }
   1066          #else
   1067              polRegister = &EBI->POLARITY;
   1068              banks       = 0;
   1069          #endif
   1070          
   1071              /* What line to configure */
   1072              switch (line)
   \                     ??EBI_BankPolaritySet_5: (+1)
   \   00000044   0xB2ED             UXTB     R5,R5            ;; ZeroExt  R5,R5,#+24,#+24
   \   00000046   0x2D00             CMP      R5,#+0
   \   00000048   0xD00F             BEQ.N    ??EBI_BankPolaritySet_6
   \   0000004A   0x2D02             CMP      R5,#+2
   \   0000004C   0xD01B             BEQ.N    ??EBI_BankPolaritySet_7
   \   0000004E   0xD313             BCC.N    ??EBI_BankPolaritySet_8
   \   00000050   0x2D04             CMP      R5,#+4
   \   00000052   0xD026             BEQ.N    ??EBI_BankPolaritySet_9
   \   00000054   0xD31E             BCC.N    ??EBI_BankPolaritySet_10
   \   00000056   0x2D06             CMP      R5,#+6
   \   00000058   0xD031             BEQ.N    ??EBI_BankPolaritySet_11
   \   0000005A   0xD329             BCC.N    ??EBI_BankPolaritySet_12
   \   0000005C   0x2D08             CMP      R5,#+8
   \   0000005E   0xD03C             BEQ.N    ??EBI_BankPolaritySet_13
   \   00000060   0xD334             BCC.N    ??EBI_BankPolaritySet_14
   \   00000062   0x2D0A             CMP      R5,#+10
   \   00000064   0xD047             BEQ.N    ??EBI_BankPolaritySet_15
   \   00000066   0xD33F             BCC.N    ??EBI_BankPolaritySet_16
   \   00000068   0xE04C             B.N      ??EBI_BankPolaritySet_17
   1073              {
   1074              case ebiLineARDY:
   1075                BITBAND_Peripheral(polRegister, _EBI_POLARITY_ARDYPOL_SHIFT, polarity);
   \                     ??EBI_BankPolaritySet_6: (+1)
   \   0000006A   0xB2F6             UXTB     R6,R6            ;; ZeroExt  R6,R6,#+24,#+24
   \   0000006C   0x0032             MOVS     R2,R6
   \   0000006E   0x2104             MOVS     R1,#+4
   \   00000070   0x4640             MOV      R0,R8
   \   00000072   0x.... 0x....      BL       BITBAND_Peripheral
   1076                break;
   \   00000076   0xE045             B.N      ??EBI_BankPolaritySet_18
   1077              case ebiLineALE:
   1078                BITBAND_Peripheral(polRegister, _EBI_POLARITY_ALEPOL_SHIFT, polarity);
   \                     ??EBI_BankPolaritySet_8: (+1)
   \   00000078   0xB2F6             UXTB     R6,R6            ;; ZeroExt  R6,R6,#+24,#+24
   \   0000007A   0x0032             MOVS     R2,R6
   \   0000007C   0x2103             MOVS     R1,#+3
   \   0000007E   0x4640             MOV      R0,R8
   \   00000080   0x.... 0x....      BL       BITBAND_Peripheral
   1079                break;
   \   00000084   0xE03E             B.N      ??EBI_BankPolaritySet_18
   1080              case ebiLineWE:
   1081                BITBAND_Peripheral(polRegister, _EBI_POLARITY_WEPOL_SHIFT, polarity);
   \                     ??EBI_BankPolaritySet_7: (+1)
   \   00000086   0xB2F6             UXTB     R6,R6            ;; ZeroExt  R6,R6,#+24,#+24
   \   00000088   0x0032             MOVS     R2,R6
   \   0000008A   0x2102             MOVS     R1,#+2
   \   0000008C   0x4640             MOV      R0,R8
   \   0000008E   0x.... 0x....      BL       BITBAND_Peripheral
   1082                break;
   \   00000092   0xE037             B.N      ??EBI_BankPolaritySet_18
   1083              case ebiLineRE:
   1084                BITBAND_Peripheral(polRegister, _EBI_POLARITY_REPOL_SHIFT, polarity);
   \                     ??EBI_BankPolaritySet_10: (+1)
   \   00000094   0xB2F6             UXTB     R6,R6            ;; ZeroExt  R6,R6,#+24,#+24
   \   00000096   0x0032             MOVS     R2,R6
   \   00000098   0x2101             MOVS     R1,#+1
   \   0000009A   0x4640             MOV      R0,R8
   \   0000009C   0x.... 0x....      BL       BITBAND_Peripheral
   1085                break;
   \   000000A0   0xE030             B.N      ??EBI_BankPolaritySet_18
   1086              case ebiLineCS:
   1087                BITBAND_Peripheral(polRegister, _EBI_POLARITY_CSPOL_SHIFT, polarity);
   \                     ??EBI_BankPolaritySet_9: (+1)
   \   000000A2   0xB2F6             UXTB     R6,R6            ;; ZeroExt  R6,R6,#+24,#+24
   \   000000A4   0x0032             MOVS     R2,R6
   \   000000A6   0x2100             MOVS     R1,#+0
   \   000000A8   0x4640             MOV      R0,R8
   \   000000AA   0x.... 0x....      BL       BITBAND_Peripheral
   1088                break;
   \   000000AE   0xE029             B.N      ??EBI_BankPolaritySet_18
   1089          #if defined(_EFM32_GIANT_FAMILY) || defined(_EFM32_WONDER_FAMILY)
   1090              case ebiLineBL:
   1091                BITBAND_Peripheral(polRegister, _EBI_POLARITY_BLPOL_SHIFT, polarity);
   \                     ??EBI_BankPolaritySet_12: (+1)
   \   000000B0   0xB2F6             UXTB     R6,R6            ;; ZeroExt  R6,R6,#+24,#+24
   \   000000B2   0x0032             MOVS     R2,R6
   \   000000B4   0x2105             MOVS     R1,#+5
   \   000000B6   0x4640             MOV      R0,R8
   \   000000B8   0x.... 0x....      BL       BITBAND_Peripheral
   1092                break;
   \   000000BC   0xE022             B.N      ??EBI_BankPolaritySet_18
   1093              case ebiLineTFTVSync:
   1094                BITBAND_Peripheral(&(EBI->TFTPOLARITY), _EBI_TFTPOLARITY_VSYNCPOL_SHIFT, polarity);
   \                     ??EBI_BankPolaritySet_11: (+1)
   \   000000BE   0xB2F6             UXTB     R6,R6            ;; ZeroExt  R6,R6,#+24,#+24
   \   000000C0   0x0032             MOVS     R2,R6
   \   000000C2   0x2104             MOVS     R1,#+4
   \   000000C4   0x....             LDR.N    R0,??DataTable23_8  ;; 0x4000807c
   \   000000C6   0x.... 0x....      BL       BITBAND_Peripheral
   1095                break;
   \   000000CA   0xE01B             B.N      ??EBI_BankPolaritySet_18
   1096              case ebiLineTFTHSync:
   1097                BITBAND_Peripheral(&(EBI->TFTPOLARITY), _EBI_TFTPOLARITY_HSYNCPOL_SHIFT, polarity);
   \                     ??EBI_BankPolaritySet_14: (+1)
   \   000000CC   0xB2F6             UXTB     R6,R6            ;; ZeroExt  R6,R6,#+24,#+24
   \   000000CE   0x0032             MOVS     R2,R6
   \   000000D0   0x2103             MOVS     R1,#+3
   \   000000D2   0x....             LDR.N    R0,??DataTable23_8  ;; 0x4000807c
   \   000000D4   0x.... 0x....      BL       BITBAND_Peripheral
   1098                break;
   \   000000D8   0xE014             B.N      ??EBI_BankPolaritySet_18
   1099              case ebiLineTFTDataEn:
   1100                BITBAND_Peripheral(&(EBI->TFTPOLARITY), _EBI_TFTPOLARITY_DATAENPOL_SHIFT, polarity);
   \                     ??EBI_BankPolaritySet_13: (+1)
   \   000000DA   0xB2F6             UXTB     R6,R6            ;; ZeroExt  R6,R6,#+24,#+24
   \   000000DC   0x0032             MOVS     R2,R6
   \   000000DE   0x2102             MOVS     R1,#+2
   \   000000E0   0x....             LDR.N    R0,??DataTable23_8  ;; 0x4000807c
   \   000000E2   0x.... 0x....      BL       BITBAND_Peripheral
   1101                break;
   \   000000E6   0xE00D             B.N      ??EBI_BankPolaritySet_18
   1102              case ebiLineTFTDClk:
   1103                BITBAND_Peripheral(&(EBI->TFTPOLARITY), _EBI_TFTPOLARITY_DCLKPOL_SHIFT, polarity);
   \                     ??EBI_BankPolaritySet_16: (+1)
   \   000000E8   0xB2F6             UXTB     R6,R6            ;; ZeroExt  R6,R6,#+24,#+24
   \   000000EA   0x0032             MOVS     R2,R6
   \   000000EC   0x2101             MOVS     R1,#+1
   \   000000EE   0x....             LDR.N    R0,??DataTable23_8  ;; 0x4000807c
   \   000000F0   0x.... 0x....      BL       BITBAND_Peripheral
   1104                break;
   \   000000F4   0xE006             B.N      ??EBI_BankPolaritySet_18
   1105              case ebiLineTFTCS:
   1106                BITBAND_Peripheral(&(EBI->TFTPOLARITY), _EBI_TFTPOLARITY_CSPOL_SHIFT, polarity);
   \                     ??EBI_BankPolaritySet_15: (+1)
   \   000000F6   0xB2F6             UXTB     R6,R6            ;; ZeroExt  R6,R6,#+24,#+24
   \   000000F8   0x0032             MOVS     R2,R6
   \   000000FA   0x2100             MOVS     R1,#+0
   \   000000FC   0x....             LDR.N    R0,??DataTable23_8  ;; 0x4000807c
   \   000000FE   0x.... 0x....      BL       BITBAND_Peripheral
   1107                break;
   \   00000102   0xE7FF             B.N      ??EBI_BankPolaritySet_18
   1108          #endif
   1109              default:
   1110                EFM_ASSERT(0);
   1111                break;
   1112              }
   1113              banks = banks & (~bankSet);
   \                     ??EBI_BankPolaritySet_17: (+1)
   \                     ??EBI_BankPolaritySet_18: (+1)
   \   00000104   0x43BC             BICS     R4,R4,R7
   \   00000106   0xE783             B.N      ??EBI_BankPolaritySet_0
   1114            }
   1115          }
   \                     ??EBI_BankPolaritySet_1: (+1)
   \   00000108   0xE8BD 0x81F0      POP      {R4-R8,PC}       ;; return
   1116          
   1117          
   1118          /***************************************************************************//**
   1119           * @brief
   1120           *   Configure Byte Lane Enable for select banks
   1121           *   timing support
   1122           *
   1123           * @param[in] banks
   1124           *   Mask of memory bank(s) to configure polarity for
   1125           *
   1126           * @param[in] enable
   1127           *   Flag
   1128           ******************************************************************************/

   \                                 In section .text, align 2, keep-with-next
   1129          void EBI_BankByteLaneEnable(uint32_t banks, bool enable)
   1130          {
   \                     EBI_BankByteLaneEnable: (+1)
   \   00000000   0xB538             PUSH     {R3-R5,LR}
   \   00000002   0x0004             MOVS     R4,R0
   \   00000004   0x000D             MOVS     R5,R1
   1131            /* Verify only valid banks are used */
   1132            EFM_ASSERT((banks & ~(EBI_BANK0 | EBI_BANK1 | EBI_BANK2 | EBI_BANK3)) == 0);
   1133          
   1134            /* Configure byte lane support for each selected bank */
   1135            if (banks & EBI_BANK0)
   \   00000006   0x07A0             LSLS     R0,R4,#+30
   \   00000008   0xD505             BPL.N    ??EBI_BankByteLaneEnable_0
   1136            {
   1137              BITBAND_Peripheral(&(EBI->CTRL), _EBI_CTRL_BL_SHIFT, enable);
   \   0000000A   0xB2ED             UXTB     R5,R5            ;; ZeroExt  R5,R5,#+24,#+24
   \   0000000C   0x002A             MOVS     R2,R5
   \   0000000E   0x2118             MOVS     R1,#+24
   \   00000010   0x....             LDR.N    R0,??DataTable23_1  ;; 0x40008000
   \   00000012   0x.... 0x....      BL       BITBAND_Peripheral
   1138            }
   1139            if (banks & EBI_BANK1)
   \                     ??EBI_BankByteLaneEnable_0: (+1)
   \   00000016   0x0760             LSLS     R0,R4,#+29
   \   00000018   0xD505             BPL.N    ??EBI_BankByteLaneEnable_1
   1140            {
   1141              BITBAND_Peripheral(&(EBI->CTRL), _EBI_CTRL_BL1_SHIFT, enable);
   \   0000001A   0xB2ED             UXTB     R5,R5            ;; ZeroExt  R5,R5,#+24,#+24
   \   0000001C   0x002A             MOVS     R2,R5
   \   0000001E   0x2119             MOVS     R1,#+25
   \   00000020   0x....             LDR.N    R0,??DataTable23_1  ;; 0x40008000
   \   00000022   0x.... 0x....      BL       BITBAND_Peripheral
   1142            }
   1143            if (banks & EBI_BANK2)
   \                     ??EBI_BankByteLaneEnable_1: (+1)
   \   00000026   0x0720             LSLS     R0,R4,#+28
   \   00000028   0xD505             BPL.N    ??EBI_BankByteLaneEnable_2
   1144            {
   1145              BITBAND_Peripheral(&(EBI->CTRL), _EBI_CTRL_BL2_SHIFT, enable);
   \   0000002A   0xB2ED             UXTB     R5,R5            ;; ZeroExt  R5,R5,#+24,#+24
   \   0000002C   0x002A             MOVS     R2,R5
   \   0000002E   0x211A             MOVS     R1,#+26
   \   00000030   0x....             LDR.N    R0,??DataTable23_1  ;; 0x40008000
   \   00000032   0x.... 0x....      BL       BITBAND_Peripheral
   1146            }
   1147            if (banks & EBI_BANK3)
   \                     ??EBI_BankByteLaneEnable_2: (+1)
   \   00000036   0x06E0             LSLS     R0,R4,#+27
   \   00000038   0xD505             BPL.N    ??EBI_BankByteLaneEnable_3
   1148            {
   1149              BITBAND_Peripheral(&(EBI->CTRL), _EBI_CTRL_BL3_SHIFT, enable);
   \   0000003A   0xB2ED             UXTB     R5,R5            ;; ZeroExt  R5,R5,#+24,#+24
   \   0000003C   0x002A             MOVS     R2,R5
   \   0000003E   0x211B             MOVS     R1,#+27
   \   00000040   0x....             LDR.N    R0,??DataTable23_1  ;; 0x40008000
   \   00000042   0x.... 0x....      BL       BITBAND_Peripheral
   1150            }
   1151          }
   \                     ??EBI_BankByteLaneEnable_3: (+1)
   \   00000046   0xBD31             POP      {R0,R4,R5,PC}    ;; return
   1152          
   1153          
   1154          /***************************************************************************//**
   1155           * @brief
   1156           *   Configure Alternate Address Map support
   1157           *   Enables or disables 256MB address range for all banks
   1158           *
   1159           * @param[in] enable
   1160           *   Set or clear address map extension
   1161           ******************************************************************************/

   \                                 In section .text, align 2, keep-with-next
   1162          void EBI_AltMapEnable(bool enable)
   1163          {
   \                     EBI_AltMapEnable: (+1)
   \   00000000   0xB510             PUSH     {R4,LR}
   \   00000002   0x0004             MOVS     R4,R0
   1164            BITBAND_Peripheral(&(EBI->CTRL), _EBI_CTRL_ALTMAP_SHIFT, enable);
   \   00000004   0xB2E4             UXTB     R4,R4            ;; ZeroExt  R4,R4,#+24,#+24
   \   00000006   0x0022             MOVS     R2,R4
   \   00000008   0x211F             MOVS     R1,#+31
   \   0000000A   0x....             LDR.N    R0,??DataTable23_1  ;; 0x40008000
   \   0000000C   0x.... 0x....      BL       BITBAND_Peripheral
   1165          }
   \   00000010   0xBD10             POP      {R4,PC}          ;; return

   \                                 In section .text, align 4, keep-with-next
   \                     ??DataTable23:
   \   00000000   0x40008064         DC32     0x40008064

   \                                 In section .text, align 4, keep-with-next
   \                     ??DataTable23_1:
   \   00000000   0x40008000         DC32     0x40008000

   \                                 In section .text, align 4, keep-with-next
   \                     ??DataTable23_2:
   \   00000000   0xFEFCEEFC         DC32     0xfefceefc

   \                                 In section .text, align 4, keep-with-next
   \                     ??DataTable23_3:
   \   00000000   0xFDF3DDF3         DC32     0xfdf3ddf3

   \                                 In section .text, align 4, keep-with-next
   \                     ??DataTable23_4:
   \   00000000   0xFBCFBBCF         DC32     0xfbcfbbcf

   \                                 In section .text, align 4, keep-with-next
   \                     ??DataTable23_5:
   \   00000000   0xF73F773F         DC32     0xf73f773f

   \                                 In section .text, align 4, keep-with-next
   \                     ??DataTable23_6:
   \   00000000   0x40008014         DC32     0x40008014

   \                                 In section .text, align 4, keep-with-next
   \                     ??DataTable23_7:
   \   00000000   0x40008010         DC32     0x40008010

   \                                 In section .text, align 4, keep-with-next
   \                     ??DataTable23_8:
   \   00000000   0x4000807C         DC32     0x4000807c

   \                                 In section .text, align 4, keep-with-next
   \                     ??DataTable23_9:
   \   00000000   0x40008008         DC32     0x40008008

   \                                 In section .text, align 4, keep-with-next
   \                     ??DataTable23_10:
   \   00000000   0xFFFCC0FC         DC32     0xfffcc0fc

   \                                 In section .text, align 4, keep-with-next
   \                     ??DataTable23_11:
   \   00000000   0x4000800C         DC32     0x4000800c

   \                                 In section .text, align 4, keep-with-next
   \                     ??DataTable23_12:
   \   00000000   0x40008004         DC32     0x40008004

   \                                 In section .text, align 4, keep-with-next
   \                     ??DataTable23_13:
   \   00000000   0xFFFFFCFC         DC32     0xfffffcfc

   \                                 In section .text, align 4, keep-with-next
   \                     ??DataTable23_14:
   \   00000000   0x4000805C         DC32     0x4000805c

   \                                 In section .text, align 4, keep-with-next
   \                     ??DataTable23_15:
   \   00000000   0x4000806C         DC32     0x4000806c

   \                                 In section .text, align 4, keep-with-next
   \                     ??DataTable23_16:
   \   00000000   0x40008070         DC32     0x40008070

   \                                 In section .text, align 4, keep-with-next
   \                     ??DataTable23_17:
   \   00000000   0x40008074         DC32     0x40008074

   \                                 In section .text, align 4, keep-with-next
   \                     ??DataTable23_18:
   \   00000000   0x40008078         DC32     0x40008078

   \                                 In section .text, align 4, keep-with-next
   \                     ??DataTable23_19:
   \   00000000   0x4000801C         DC32     0x4000801c

   \                                 In section .text, align 4, keep-with-next
   \                     ??DataTable23_20:
   \   00000000   0x4000802C         DC32     0x4000802c

   \                                 In section .text, align 4, keep-with-next
   \                     ??DataTable23_21:
   \   00000000   0x4000803C         DC32     0x4000803c

   \                                 In section .text, align 4, keep-with-next
   \                     ??DataTable23_22:
   \   00000000   0x40008020         DC32     0x40008020

   \                                 In section .text, align 4, keep-with-next
   \                     ??DataTable23_23:
   \   00000000   0x40008030         DC32     0x40008030

   \                                 In section .text, align 4, keep-with-next
   \                     ??DataTable23_24:
   \   00000000   0x40008040         DC32     0x40008040

   \                                 In section .text, align 4, keep-with-next
   \                     ??DataTable23_25:
   \   00000000   0x40008018         DC32     0x40008018

   \                                 In section .text, align 4, keep-with-next
   \                     ??DataTable23_26:
   \   00000000   0x40008028         DC32     0x40008028

   \                                 In section .text, align 4, keep-with-next
   \                     ??DataTable23_27:
   \   00000000   0x40008038         DC32     0x40008038

   \                                 In section .text, align 4, keep-with-next
   \                     ??DataTable23_28:
   \   00000000   0x40008024         DC32     0x40008024

   \                                 In section .text, align 4, keep-with-next
   \                     ??DataTable23_29:
   \   00000000   0x40008034         DC32     0x40008034

   \                                 In section .text, align 4, keep-with-next
   \                     ??DataTable23_30:
   \   00000000   0x40008044         DC32     0x40008044
   1166          
   1167          #endif
   1168          
   1169          /** @} (end addtogroup EBI) */
   1170          /** @} (end addtogroup EM_Library) */
   1171          
   1172          #endif /* defined(EBI_COUNT) && (EBI_COUNT > 0) */

   Maximum stack usage in bytes:

   .cstack Function
   ------- --------
       0   BITBAND_Peripheral
       4   EBI_AddressTimingSet
       8   EBI_AltMapEnable
         8   -> BITBAND_Peripheral
       0   EBI_BankAddress
      16   EBI_BankAddressTimingConfig
        16   -> BITBAND_Peripheral
       8   EBI_BankAddressTimingSet
      16   EBI_BankByteLaneEnable
        16   -> BITBAND_Peripheral
      16   EBI_BankEnable
        16   -> BITBAND_Peripheral
      24   EBI_BankPolaritySet
        24   -> BITBAND_Peripheral
      24   EBI_BankReadTimingConfig
        24   -> BITBAND_Peripheral
      12   EBI_BankReadTimingSet
      16   EBI_BankWriteTimingConfig
        16   -> BITBAND_Peripheral
      12   EBI_BankWriteTimingSet
      16   EBI_ChipSelectEnable
        16   -> BITBAND_Peripheral
       0   EBI_Disable
      16   EBI_Init
        16   -> BITBAND_Peripheral
        16   -> EBI_BankAddressTimingConfig
        16   -> EBI_BankAddressTimingSet
        16   -> EBI_BankPolaritySet
        16   -> EBI_BankReadTimingConfig
        16   -> EBI_BankReadTimingSet
        16   -> EBI_BankWriteTimingConfig
        16   -> EBI_BankWriteTimingSet
        16   -> EBI_ChipSelectEnable
      16   EBI_PolaritySet
        16   -> BITBAND_Peripheral
       8   EBI_ReadTimingSet
       0   EBI_TFTFrameBaseSet
       4   EBI_TFTHPorchSet
      16   EBI_TFTInit
        16   -> EBI_PolaritySet
        16   -> EBI_TFTFrameBaseSet
        16   -> EBI_TFTHPorchSet
        16   -> EBI_TFTSizeSet
        16   -> EBI_TFTTimingSet
        16   -> EBI_TFTVPorchSet
       0   EBI_TFTSizeSet
       8   EBI_TFTTimingSet
       4   EBI_TFTVPorchSet
       8   EBI_WriteTimingSet


   Section sizes:

   Bytes  Function/Label
   -----  --------------
       4  ??DataTable23
       4  ??DataTable23_1
       4  ??DataTable23_10
       4  ??DataTable23_11
       4  ??DataTable23_12
       4  ??DataTable23_13
       4  ??DataTable23_14
       4  ??DataTable23_15
       4  ??DataTable23_16
       4  ??DataTable23_17
       4  ??DataTable23_18
       4  ??DataTable23_19
       4  ??DataTable23_2
       4  ??DataTable23_20
       4  ??DataTable23_21
       4  ??DataTable23_22
       4  ??DataTable23_23
       4  ??DataTable23_24
       4  ??DataTable23_25
       4  ??DataTable23_26
       4  ??DataTable23_27
       4  ??DataTable23_28
       4  ??DataTable23_29
       4  ??DataTable23_3
       4  ??DataTable23_30
       4  ??DataTable23_4
       4  ??DataTable23_5
       4  ??DataTable23_6
       4  ??DataTable23_7
       4  ??DataTable23_8
       4  ??DataTable23_9
      14  BITBAND_Peripheral
      32  EBI_AddressTimingSet
      18  EBI_AltMapEnable
     104  EBI_BankAddress
      72  EBI_BankAddressTimingConfig
      84  EBI_BankAddressTimingSet
      72  EBI_BankByteLaneEnable
      80  EBI_BankEnable
     268  EBI_BankPolaritySet
     196  EBI_BankReadTimingConfig
     110  EBI_BankReadTimingSet
     122  EBI_BankWriteTimingConfig
      88  EBI_BankWriteTimingSet
      80  EBI_ChipSelectEnable
      18  EBI_Disable
     512  EBI_Init
     222  EBI_PolaritySet
      36  EBI_ReadTimingSet
       8  EBI_TFTFrameBaseSet
      22  EBI_TFTHPorchSet
     170  EBI_TFTInit
      16  EBI_TFTSizeSet
      24  EBI_TFTTimingSet
      22  EBI_TFTVPorchSet
      36  EBI_WriteTimingSet

 
 2 550 bytes in section .text
 
 2 550 bytes of CODE memory

Errors: none
Warnings: none
