###############################################################################
#
# IAR ANSI C/C++ Compiler V7.80.4.12462/W32 for ARM       12/Dec/2022  11:41:18
# Copyright 1999-2017 IAR Systems AB.
#
#    Cpu mode     =  thumb
#    Endian       =  little
#    Source file  =  
#        C:\Users\shaomingkun\Desktop\git\evolve5.0\2021sw\ECOM-5\Modules\EFM32_lib\emlib\_src\em_gpio.c
#    Command line =  
#        C:\Users\shaomingkun\Desktop\git\evolve5.0\2021sw\ECOM-5\Modules\EFM32_lib\emlib\_src\em_gpio.c
#        -D EFM32LG380F256 -D BSP_CORTEX_EFM32 -D DEBUG_EFM_JJ -D
#        RF_MODULE_EXIST____ -lC
#        C:\Users\shaomingkun\Desktop\git\evolve5.0\2021sw\ECOM-5\Debug\List
#        -lA
#        C:\Users\shaomingkun\Desktop\git\evolve5.0\2021sw\ECOM-5\Debug\List -o
#        C:\Users\shaomingkun\Desktop\git\evolve5.0\2021sw\ECOM-5\Debug\Obj
#        --no_cse --no_unroll --no_inline --no_code_motion --no_tbaa
#        --no_clustering --no_scheduling --debug --endian=little
#        --cpu=Cortex-M3 -e --fpu=None --dlib_config "C:\Program Files
#        (x86)\IAR Systems\Embedded Workbench
#        7.5\arm\INC\c\DLib_Config_Normal.h" -I
#        C:\Users\shaomingkun\Desktop\git\evolve5.0\2021sw\ECOM-5\ -I
#        C:\Users\shaomingkun\Desktop\git\evolve5.0\2021sw\ECOM-5\Local\ -I
#        C:\Users\shaomingkun\Desktop\git\evolve5.0\2021sw\ECOM-5\Modules\ -I
#        C:\Users\shaomingkun\Desktop\git\evolve5.0\2021sw\ECOM-5\Modules\Utilities_Lib\
#        -I
#        C:\Users\shaomingkun\Desktop\git\evolve5.0\2021sw\ECOM-5\Modules\HAL_Lib\
#        -I
#        C:\Users\shaomingkun\Desktop\git\evolve5.0\2021sw\ECOM-5\Modules\LCB_Lib\
#        -I
#        C:\Users\shaomingkun\Desktop\git\evolve5.0\2021sw\ECOM-5\Modules\Eng_lib\
#        -I
#        C:\Users\shaomingkun\Desktop\git\evolve5.0\2021sw\ECOM-5\..\Modules\Eng_lib\
#        -I
#        C:\Users\shaomingkun\Desktop\git\evolve5.0\2021sw\ECOM-5\Modules\SystemConfig_Lib\
#        -I
#        C:\Users\shaomingkun\Desktop\git\evolve5.0\2021sw\ECOM-5\Modules\EFM32_lib\
#        -I
#        C:\Users\shaomingkun\Desktop\git\evolve5.0\2021sw\ECOM-5\Modules\EFM32_lib\drivers\
#        -I
#        C:\Users\shaomingkun\Desktop\git\evolve5.0\2021sw\ECOM-5\Modules\Program_lib\
#        -I
#        C:\Users\shaomingkun\Desktop\git\evolve5.0\2021sw\ECOM-5\Modules\RF_lib\
#        -I
#        C:\Users\shaomingkun\Desktop\git\evolve5.0\2021sw\ECOM-5\Modules\USB_lib\
#        -I
#        C:\Users\shaomingkun\Desktop\git\evolve5.0\2021sw\ECOM-5\Modules\USB_lib\usb\src\
#        -I
#        C:\Users\shaomingkun\Desktop\git\evolve5.0\2021sw\ECOM-5\Modules\USB_lib\usb\inc\
#        -I
#        C:\Users\shaomingkun\Desktop\git\evolve5.0\2021sw\ECOM-5\Modules\Bluetooth_lib\
#        -I
#        C:\Users\shaomingkun\Desktop\git\evolve5.0\2021sw\ECOM-5\Modules\Remote_lib\
#        -I
#        C:\Users\shaomingkun\Desktop\git\evolve5.0\2021sw\ECOM-5\Modules\EFM32_lib\Include\
#        -I
#        C:\Users\shaomingkun\Desktop\git\evolve5.0\2021sw\ECOM-5\Modules\EFM32_lib\emlib\inc\
#        -I
#        C:\Users\shaomingkun\Desktop\git\evolve5.0\2021sw\ECOM-5\Modules\EFM32_lib\emlib\src\
#        -I
#        C:\Users\shaomingkun\Desktop\git\evolve5.0\2021sw\ECOM-5\Modules\EFM32_lib\drivers\fatfs\src\
#        -I
#        C:\Users\shaomingkun\Desktop\git\evolve5.0\2021sw\ECOM-5\Modules\EFM32_lib\Device\EnergyMicro\EFM32LG\Include\
#        -I
#        C:\Users\shaomingkun\Desktop\git\evolve5.0\2021sw\ECOM-5\Modules\EFM32_lib\Device\EnergyMicro\EFM32LG\Source\
#        -I
#        C:\Users\shaomingkun\Desktop\git\evolve5.0\2021sw\ECOM-5\Modules\EFM32_lib\Device\EnergyMicro\EFM32LG\Source\IAR\
#        -I
#        C:\Users\shaomingkun\Desktop\git\evolve5.0\2021sw\ECOM-5\Modules\RTT_Lib\
#        -On
#    Locale       =  Chinese (Simplified)_China.936
#    List file    =  
#        C:\Users\shaomingkun\Desktop\git\evolve5.0\2021sw\ECOM-5\Debug\List\em_gpio.lst
#    Object file  =  
#        C:\Users\shaomingkun\Desktop\git\evolve5.0\2021sw\ECOM-5\Debug\Obj\em_gpio.o
#
###############################################################################

C:\Users\shaomingkun\Desktop\git\evolve5.0\2021sw\ECOM-5\Modules\EFM32_lib\emlib\_src\em_gpio.c
      1          /***************************************************************************//**
      2           * @file
      3           * @brief General Purpose IO (GPIO) peripheral API
      4           *   devices.
      5           * @author Energy Micro AS
      6           * @version 3.0.1
      7           *******************************************************************************
      8           * @section License
      9           * <b>(C) Copyright 2012 Energy Micro AS, http://www.energymicro.com</b>
     10           *******************************************************************************
     11           *
     12           * Permission is granted to anyone to use this software for any purpose,
     13           * including commercial applications, and to alter it and redistribute it
     14           * freely, subject to the following restrictions:
     15           *
     16           * 1. The origin of this software must not be misrepresented; you must not
     17           *    claim that you wrote the original software.
     18           * 2. Altered source versions must be plainly marked as such, and must not be
     19           *    misrepresented as being the original software.
     20           * 3. This notice may not be removed or altered from any source distribution.
     21           *
     22           * DISCLAIMER OF WARRANTY/LIMITATION OF REMEDIES: Energy Micro AS has no
     23           * obligation to support this Software. Energy Micro AS is providing the
     24           * Software "AS IS", with no express or implied warranties of any kind,
     25           * including, but not limited to, any implied warranties of merchantability
     26           * or fitness for any particular purpose or warranties against infringement
     27           * of any proprietary rights of a third party.
     28           *
     29           * Energy Micro AS will not be liable for any consequential, incidental, or
     30           * special damages, or any other relief, or for any claim by any third party,
     31           * arising from your use of this Software.
     32           *
     33           ******************************************************************************/
     34          #include "em_gpio.h"

   \                                 In section .text, align 2, keep-with-next
   \   static __interwork __softfp void BITBAND_Peripheral(uint32_t volatile *, uint32_t, uint32_t)
   \                     BITBAND_Peripheral: (+1)
   \   00000000   0x008B             LSLS     R3,R1,#+2
   \   00000002   0xEB13 0x1340      ADDS     R3,R3,R0, LSL #+5
   \   00000006   0xF113 0x4384      ADDS     R3,R3,#+1107296256
   \   0000000A   0x601A             STR      R2,[R3, #+0]
   \   0000000C   0x4770             BX       LR               ;; return
     35          #include "em_bitband.h"
     36          #include "em_assert.h"
     37          
     38          /***************************************************************************//**
     39           * @addtogroup EM_Library
     40           * @{
     41           ******************************************************************************/
     42          
     43          /***************************************************************************//**
     44           * @addtogroup GPIO
     45           * @brief General Purpose Input/Output (GPIO) API
     46           * @{
     47           ******************************************************************************/
     48          
     49          /*******************************************************************************
     50           *******************************   DEFINES   ***********************************
     51           ******************************************************************************/
     52          
     53          /** @cond DO_NOT_INCLUDE_WITH_DOXYGEN */
     54          
     55          /** Validation of pin typically usable in assert statements. */
     56          #define GPIO_DRIVEMODE_VALID(mode)    ((mode) <= 3)
     57          
     58          /** Validation of pin typically usable in assert statements. */
     59          #define GPIO_PIN_VALID(pin)           ((pin) < 16)
     60          
     61          /** Validation of port typically usable in assert statements. */
     62          #define GPIO_PORT_VALID(port)         ((port) <= gpioPortF)
     63          
     64          /** @endcond */
     65          
     66          
     67          /*******************************************************************************
     68           **************************   GLOBAL FUNCTIONS   *******************************
     69           ******************************************************************************/
     70          
     71          /***************************************************************************//**
     72           * @brief
     73           *   Sets the pin location of the debug pins (Serial Wire interface).
     74           *
     75           * @note
     76           *   Changing the pins used for debugging uncontrolled, may result in a lockout.
     77           *
     78           * @param[in] location
     79           *   The debug pin location to use (0-3).
     80           ******************************************************************************/

   \                                 In section .text, align 2, keep-with-next
     81          void GPIO_DbgLocationSet(unsigned int location)
     82          {
     83            EFM_ASSERT(location < AFCHANLOC_MAX);
     84          
     85            GPIO->ROUTE = (GPIO->ROUTE & ~_GPIO_ROUTE_SWLOCATION_MASK) |
     86                          (location << _GPIO_ROUTE_SWLOCATION_SHIFT);
   \                     GPIO_DbgLocationSet: (+1)
   \   00000000   0x....             LDR.N    R1,??DataTable14  ;; 0x40006120
   \   00000002   0x6809             LDR      R1,[R1, #+0]
   \   00000004   0xF431 0x7140      BICS     R1,R1,#0x300
   \   00000008   0xEA51 0x2100      ORRS     R1,R1,R0, LSL #+8
   \   0000000C   0x....             LDR.N    R2,??DataTable14  ;; 0x40006120
   \   0000000E   0x6011             STR      R1,[R2, #+0]
     87          }
   \   00000010   0x4770             BX       LR               ;; return
     88          
     89          
     90          /***************************************************************************//**
     91           * @brief
     92           *   Sets the drive mode for a GPIO port.
     93           *
     94           * @param[in] port
     95           *   The GPIO port to access.
     96           *
     97           * @param[in] mode
     98           *   Drive mode to use for port.
     99           ******************************************************************************/

   \                                 In section .text, align 2, keep-with-next
    100          void GPIO_DriveModeSet(GPIO_Port_TypeDef port, GPIO_DriveMode_TypeDef mode)
    101          {
   \                     GPIO_DriveModeSet: (+1)
   \   00000000   0xB410             PUSH     {R4}
    102            EFM_ASSERT(GPIO_PORT_VALID(port) && GPIO_DRIVEMODE_VALID(mode));
    103          
    104            GPIO->P[port].CTRL = (GPIO->P[port].CTRL & ~(_GPIO_P_CTRL_DRIVEMODE_MASK))
    105                                 | (mode << _GPIO_P_CTRL_DRIVEMODE_SHIFT);
   \   00000002   0x....             LDR.N    R2,??DataTable14_1  ;; 0x40006000
   \   00000004   0xB2C0             UXTB     R0,R0            ;; ZeroExt  R0,R0,#+24,#+24
   \   00000006   0x2324             MOVS     R3,#+36
   \   00000008   0xFB03 0xF300      MUL      R3,R3,R0
   \   0000000C   0x58D2             LDR      R2,[R2, R3]
   \   0000000E   0x0892             LSRS     R2,R2,#+2
   \   00000010   0x0092             LSLS     R2,R2,#+2
   \   00000012   0xB2C9             UXTB     R1,R1            ;; ZeroExt  R1,R1,#+24,#+24
   \   00000014   0x430A             ORRS     R2,R1,R2
   \   00000016   0x....             LDR.N    R3,??DataTable14_1  ;; 0x40006000
   \   00000018   0xB2C0             UXTB     R0,R0            ;; ZeroExt  R0,R0,#+24,#+24
   \   0000001A   0x2424             MOVS     R4,#+36
   \   0000001C   0xFB04 0xF400      MUL      R4,R4,R0
   \   00000020   0x511A             STR      R2,[R3, R4]
    106          }
   \   00000022   0xBC10             POP      {R4}
   \   00000024   0x4770             BX       LR               ;; return
    107          
    108          
    109          /***************************************************************************//**
    110           * @brief
    111           *   Configure GPIO interrupt.
    112           *
    113           * @details
    114           *   If reconfiguring a GPIO interrupt that is already enabled, it is generally
    115           *   recommended to disable it first, see GPIO_Disable().
    116           *
    117           *   The actual GPIO interrupt handler must be in place before enabling the
    118           *   interrupt.
    119           *
    120           *   Notice that any pending interrupt for the selected pin is cleared by this
    121           *   function.
    122           *
    123           * @note
    124           *   A certain pin number can only be associated with one port. Ie, if GPIO
    125           *   interrupt 1 is assigned to port A/pin 1, then it is not possibly to use
    126           *   pin 1 from any other ports for interrupts. Please refer to the reference
    127           *   manual.
    128           *
    129           * @param[in] port
    130           *   The port to associate with @p pin.
    131           *
    132           * @param[in] pin
    133           *   The GPIO interrupt number (= port pin).
    134           *
    135           * @param[in] risingEdge
    136           *   Set to true if interrupts shall be enabled on rising edge, otherwise false.
    137           *
    138           * @param[in] fallingEdge
    139           *   Set to true if interrupts shall be enabled on falling edge, otherwise false.
    140           *
    141           * @param[in] enable
    142           *   Set to true if interrupt shall be enabled after configuration completed,
    143           *   false to leave disabled. See GPIO_IntDisable() and GPIO_IntEnable().
    144           ******************************************************************************/

   \                                 In section .text, align 2, keep-with-next
    145          void GPIO_IntConfig(GPIO_Port_TypeDef port,
    146                              unsigned int pin,
    147                              bool risingEdge,
    148                              bool fallingEdge,
    149                              bool enable)
    150          {
   \                     GPIO_IntConfig: (+1)
   \   00000000   0xE92D 0x43F8      PUSH     {R3-R9,LR}
   \   00000004   0x0005             MOVS     R5,R0
   \   00000006   0x000E             MOVS     R6,R1
   \   00000008   0x0017             MOVS     R7,R2
   \   0000000A   0x4698             MOV      R8,R3
   \   0000000C   0x9C08             LDR      R4,[SP, #+32]
    151            uint32_t tmp;
    152          
    153            EFM_ASSERT(GPIO_PORT_VALID(port) && GPIO_PIN_VALID(pin));
    154          
    155            /* There are two registers controlling the interrupt configuration:
    156             * The EXTIPSELL register controls pins 0-7 and EXTIPSELH controls
    157             * pins 8-15. */
    158            if (pin < 8)
   \   0000000E   0x2E08             CMP      R6,#+8
   \   00000010   0xD211             BCS.N    ??GPIO_IntConfig_0
    159            {
    160              GPIO->EXTIPSELL = (GPIO->EXTIPSELL & ~(0xF << (4 * pin))) |
    161                                (port << (4 * pin));
   \   00000012   0x....             LDR.N    R0,??DataTable14_2  ;; 0x40006100
   \   00000014   0x6800             LDR      R0,[R0, #+0]
   \   00000016   0x210F             MOVS     R1,#+15
   \   00000018   0x0032             MOVS     R2,R6
   \   0000001A   0xB2D2             UXTB     R2,R2            ;; ZeroExt  R2,R2,#+24,#+24
   \   0000001C   0x0092             LSLS     R2,R2,#+2
   \   0000001E   0x4091             LSLS     R1,R1,R2
   \   00000020   0x4388             BICS     R0,R0,R1
   \   00000022   0xB2ED             UXTB     R5,R5            ;; ZeroExt  R5,R5,#+24,#+24
   \   00000024   0x0031             MOVS     R1,R6
   \   00000026   0xB2C9             UXTB     R1,R1            ;; ZeroExt  R1,R1,#+24,#+24
   \   00000028   0x0089             LSLS     R1,R1,#+2
   \   0000002A   0xFA15 0xF101      LSLS     R1,R5,R1
   \   0000002E   0x4308             ORRS     R0,R1,R0
   \   00000030   0x....             LDR.N    R1,??DataTable14_2  ;; 0x40006100
   \   00000032   0x6008             STR      R0,[R1, #+0]
   \   00000034   0xE013             B.N      ??GPIO_IntConfig_1
    162            }
    163            else
    164            {
    165              tmp             = pin - 8;
   \                     ??GPIO_IntConfig_0: (+1)
   \   00000036   0xF1B6 0x0008      SUBS     R0,R6,#+8
   \   0000003A   0x4681             MOV      R9,R0
    166              GPIO->EXTIPSELH = (GPIO->EXTIPSELH & ~(0xF << (4 * tmp))) |
    167                                (port << (4 * tmp));
   \   0000003C   0x....             LDR.N    R0,??DataTable14_3  ;; 0x40006104
   \   0000003E   0x6800             LDR      R0,[R0, #+0]
   \   00000040   0x210F             MOVS     R1,#+15
   \   00000042   0x464A             MOV      R2,R9
   \   00000044   0xB2D2             UXTB     R2,R2            ;; ZeroExt  R2,R2,#+24,#+24
   \   00000046   0x0092             LSLS     R2,R2,#+2
   \   00000048   0x4091             LSLS     R1,R1,R2
   \   0000004A   0x4388             BICS     R0,R0,R1
   \   0000004C   0xB2ED             UXTB     R5,R5            ;; ZeroExt  R5,R5,#+24,#+24
   \   0000004E   0x4649             MOV      R1,R9
   \   00000050   0xB2C9             UXTB     R1,R1            ;; ZeroExt  R1,R1,#+24,#+24
   \   00000052   0x0089             LSLS     R1,R1,#+2
   \   00000054   0xFA15 0xF101      LSLS     R1,R5,R1
   \   00000058   0x4308             ORRS     R0,R1,R0
   \   0000005A   0x....             LDR.N    R1,??DataTable14_3  ;; 0x40006104
   \   0000005C   0x6008             STR      R0,[R1, #+0]
    168            }
    169          
    170            /* Enable/disable rising edge */
    171            BITBAND_Peripheral(&(GPIO->EXTIRISE), pin, (unsigned int)risingEdge);
   \                     ??GPIO_IntConfig_1: (+1)
   \   0000005E   0xB2FF             UXTB     R7,R7            ;; ZeroExt  R7,R7,#+24,#+24
   \   00000060   0x003A             MOVS     R2,R7
   \   00000062   0x0031             MOVS     R1,R6
   \   00000064   0x....             LDR.N    R0,??DataTable14_4  ;; 0x40006108
   \   00000066   0x.... 0x....      BL       BITBAND_Peripheral
    172          
    173            /* Enable/disable falling edge */
    174            BITBAND_Peripheral(&(GPIO->EXTIFALL), pin, (unsigned int)fallingEdge);
   \   0000006A   0xFA5F 0xF888      UXTB     R8,R8            ;; ZeroExt  R8,R8,#+24,#+24
   \   0000006E   0x4642             MOV      R2,R8
   \   00000070   0x0031             MOVS     R1,R6
   \   00000072   0x....             LDR.N    R0,??DataTable14_5  ;; 0x4000610c
   \   00000074   0x.... 0x....      BL       BITBAND_Peripheral
    175          
    176            /* Clear any pending interrupt */
    177            GPIO->IFC = 1 << pin;
   \   00000078   0x2001             MOVS     R0,#+1
   \   0000007A   0x40B0             LSLS     R0,R0,R6
   \   0000007C   0x....             LDR.N    R1,??DataTable14_6  ;; 0x4000611c
   \   0000007E   0x6008             STR      R0,[R1, #+0]
    178          
    179            /* Finally enable/disable interrupt */
    180            BITBAND_Peripheral(&(GPIO->IEN), pin, (unsigned int)enable);
   \   00000080   0xB2E4             UXTB     R4,R4            ;; ZeroExt  R4,R4,#+24,#+24
   \   00000082   0x0022             MOVS     R2,R4
   \   00000084   0x0031             MOVS     R1,R6
   \   00000086   0x....             LDR.N    R0,??DataTable14_7  ;; 0x40006110
   \   00000088   0x.... 0x....      BL       BITBAND_Peripheral
    181          }
   \   0000008C   0xE8BD 0x83F1      POP      {R0,R4-R9,PC}    ;; return
    182          
    183          
    184          /***************************************************************************//**
    185           * @brief
    186           *   Read the pad value for a single pin in a GPIO port.
    187           *
    188           * @param[in] port
    189           *   The GPIO port to access.
    190           *
    191           * @param[in] pin
    192           *   The pin number to read.
    193           *
    194           * @return
    195           *   The pin value, 0 or 1.
    196           ******************************************************************************/

   \                                 In section .text, align 2, keep-with-next
    197          unsigned int GPIO_PinInGet(GPIO_Port_TypeDef port, unsigned int pin)
    198          {
    199            EFM_ASSERT(GPIO_PORT_VALID(port) && GPIO_PIN_VALID(pin));
    200          
    201            return((unsigned int)((GPIO->P[port].DIN >> pin) & 0x1));
   \                     GPIO_PinInGet: (+1)
   \   00000000   0x....             LDR.N    R2,??DataTable14_1  ;; 0x40006000
   \   00000002   0xB2C0             UXTB     R0,R0            ;; ZeroExt  R0,R0,#+24,#+24
   \   00000004   0x2324             MOVS     R3,#+36
   \   00000006   0x4358             MULS     R0,R3,R0
   \   00000008   0x4410             ADD      R0,R2,R0
   \   0000000A   0x69C0             LDR      R0,[R0, #+28]
   \   0000000C   0x40C8             LSRS     R0,R0,R1
   \   0000000E   0xF010 0x0001      ANDS     R0,R0,#0x1
   \   00000012   0x4770             BX       LR               ;; return
    202          }
    203          
    204          
    205          /***************************************************************************//**
    206           * @brief
    207           *   Set the mode for a GPIO pin.
    208           *
    209           * @param[in] port
    210           *   The GPIO port to access.
    211           *
    212           * @param[in] pin
    213           *   The pin number in the port.
    214           *
    215           * @param[in] mode
    216           *   The desired pin mode.
    217           *
    218           * @param[in] out
    219           *   Value to set for pin in DOUT register. The DOUT setting is important for
    220           *   even some input mode configurations, determining pull-up/down direction.
    221           ******************************************************************************/

   \                                 In section .text, align 2, keep-with-next
    222          void GPIO_PinModeSet(GPIO_Port_TypeDef port,
    223                               unsigned int pin,
    224                               GPIO_Mode_TypeDef mode,
    225                               unsigned int out)
    226          {
   \                     GPIO_PinModeSet: (+1)
   \   00000000   0xB470             PUSH     {R4-R6}
    227            EFM_ASSERT(GPIO_PORT_VALID(port) && GPIO_PIN_VALID(pin));
    228          
    229            /* If disabling pin, do not modify DOUT in order to reduce chance for */
    230            /* glitch/spike (may not be sufficient precaution in all use cases) */
    231            if (mode != gpioModeDisabled)
   \   00000002   0xB2D2             UXTB     R2,R2            ;; ZeroExt  R2,R2,#+24,#+24
   \   00000004   0x2A00             CMP      R2,#+0
   \   00000006   0xD014             BEQ.N    ??GPIO_PinModeSet_0
    232            {
    233              if (out)
   \   00000008   0x2B00             CMP      R3,#+0
   \   0000000A   0xD009             BEQ.N    ??GPIO_PinModeSet_1
    234              {
    235                GPIO->P[port].DOUTSET = 1 << pin;
   \   0000000C   0x2401             MOVS     R4,#+1
   \   0000000E   0x408C             LSLS     R4,R4,R1
   \   00000010   0x....             LDR.N    R5,??DataTable14_1  ;; 0x40006000
   \   00000012   0xB2C0             UXTB     R0,R0            ;; ZeroExt  R0,R0,#+24,#+24
   \   00000014   0x2624             MOVS     R6,#+36
   \   00000016   0xFB06 0xF600      MUL      R6,R6,R0
   \   0000001A   0x4435             ADD      R5,R5,R6
   \   0000001C   0x612C             STR      R4,[R5, #+16]
   \   0000001E   0xE008             B.N      ??GPIO_PinModeSet_0
    236              }
    237              else
    238              {
    239                GPIO->P[port].DOUTCLR = 1 << pin;
   \                     ??GPIO_PinModeSet_1: (+1)
   \   00000020   0x2401             MOVS     R4,#+1
   \   00000022   0x408C             LSLS     R4,R4,R1
   \   00000024   0x....             LDR.N    R5,??DataTable14_1  ;; 0x40006000
   \   00000026   0xB2C0             UXTB     R0,R0            ;; ZeroExt  R0,R0,#+24,#+24
   \   00000028   0x2624             MOVS     R6,#+36
   \   0000002A   0xFB06 0xF600      MUL      R6,R6,R0
   \   0000002E   0x4435             ADD      R5,R5,R6
   \   00000030   0x616C             STR      R4,[R5, #+20]
    240              }
    241            }
    242          
    243            /* There are two registers controlling the pins for each port. The MODEL
    244             * register controls pins 0-7 and MODEH controls pins 8-15. */
    245            if (pin < 8)
   \                     ??GPIO_PinModeSet_0: (+1)
   \   00000032   0x2908             CMP      R1,#+8
   \   00000034   0xD21B             BCS.N    ??GPIO_PinModeSet_2
    246            {
    247              GPIO->P[port].MODEL = (GPIO->P[port].MODEL & ~(0xF << (pin * 4))) |
    248                                    (mode << (pin * 4));
   \   00000036   0x....             LDR.N    R4,??DataTable14_1  ;; 0x40006000
   \   00000038   0xB2C0             UXTB     R0,R0            ;; ZeroExt  R0,R0,#+24,#+24
   \   0000003A   0x2524             MOVS     R5,#+36
   \   0000003C   0xFB05 0xF500      MUL      R5,R5,R0
   \   00000040   0x442C             ADD      R4,R4,R5
   \   00000042   0x6864             LDR      R4,[R4, #+4]
   \   00000044   0x250F             MOVS     R5,#+15
   \   00000046   0x000E             MOVS     R6,R1
   \   00000048   0xB2F6             UXTB     R6,R6            ;; ZeroExt  R6,R6,#+24,#+24
   \   0000004A   0x00B6             LSLS     R6,R6,#+2
   \   0000004C   0x40B5             LSLS     R5,R5,R6
   \   0000004E   0x43AC             BICS     R4,R4,R5
   \   00000050   0xB2D2             UXTB     R2,R2            ;; ZeroExt  R2,R2,#+24,#+24
   \   00000052   0x000D             MOVS     R5,R1
   \   00000054   0xB2ED             UXTB     R5,R5            ;; ZeroExt  R5,R5,#+24,#+24
   \   00000056   0x00AD             LSLS     R5,R5,#+2
   \   00000058   0xFA12 0xF505      LSLS     R5,R2,R5
   \   0000005C   0x432C             ORRS     R4,R5,R4
   \   0000005E   0x....             LDR.N    R5,??DataTable14_1  ;; 0x40006000
   \   00000060   0xB2C0             UXTB     R0,R0            ;; ZeroExt  R0,R0,#+24,#+24
   \   00000062   0x2624             MOVS     R6,#+36
   \   00000064   0xFB06 0xF600      MUL      R6,R6,R0
   \   00000068   0x4435             ADD      R5,R5,R6
   \   0000006A   0x606C             STR      R4,[R5, #+4]
   \   0000006C   0xE01C             B.N      ??GPIO_PinModeSet_3
    249            }
    250            else
    251            {
    252              GPIO->P[port].MODEH = (GPIO->P[port].MODEH & ~(0xF << ((pin - 8) * 4))) |
    253                                    (mode << ((pin - 8) * 4));
   \                     ??GPIO_PinModeSet_2: (+1)
   \   0000006E   0x....             LDR.N    R4,??DataTable14_1  ;; 0x40006000
   \   00000070   0xB2C0             UXTB     R0,R0            ;; ZeroExt  R0,R0,#+24,#+24
   \   00000072   0x2524             MOVS     R5,#+36
   \   00000074   0xFB05 0xF500      MUL      R5,R5,R0
   \   00000078   0x442C             ADD      R4,R4,R5
   \   0000007A   0x68A4             LDR      R4,[R4, #+8]
   \   0000007C   0x250F             MOVS     R5,#+15
   \   0000007E   0x000E             MOVS     R6,R1
   \   00000080   0x3E08             SUBS     R6,R6,#+8
   \   00000082   0xB2F6             UXTB     R6,R6            ;; ZeroExt  R6,R6,#+24,#+24
   \   00000084   0x00B6             LSLS     R6,R6,#+2
   \   00000086   0x40B5             LSLS     R5,R5,R6
   \   00000088   0x43AC             BICS     R4,R4,R5
   \   0000008A   0xB2D2             UXTB     R2,R2            ;; ZeroExt  R2,R2,#+24,#+24
   \   0000008C   0x000D             MOVS     R5,R1
   \   0000008E   0x3D08             SUBS     R5,R5,#+8
   \   00000090   0xB2ED             UXTB     R5,R5            ;; ZeroExt  R5,R5,#+24,#+24
   \   00000092   0x00AD             LSLS     R5,R5,#+2
   \   00000094   0xFA12 0xF505      LSLS     R5,R2,R5
   \   00000098   0x432C             ORRS     R4,R5,R4
   \   0000009A   0x....             LDR.N    R5,??DataTable14_1  ;; 0x40006000
   \   0000009C   0xB2C0             UXTB     R0,R0            ;; ZeroExt  R0,R0,#+24,#+24
   \   0000009E   0x2624             MOVS     R6,#+36
   \   000000A0   0xFB06 0xF600      MUL      R6,R6,R0
   \   000000A4   0x4435             ADD      R5,R5,R6
   \   000000A6   0x60AC             STR      R4,[R5, #+8]
    254            }
    255          
    256            if (mode == gpioModeDisabled)
   \                     ??GPIO_PinModeSet_3: (+1)
   \   000000A8   0xB2D2             UXTB     R2,R2            ;; ZeroExt  R2,R2,#+24,#+24
   \   000000AA   0x2A00             CMP      R2,#+0
   \   000000AC   0xD114             BNE.N    ??GPIO_PinModeSet_4
    257            {
    258              if (out)
   \   000000AE   0x2B00             CMP      R3,#+0
   \   000000B0   0xD009             BEQ.N    ??GPIO_PinModeSet_5
    259              {
    260                GPIO->P[port].DOUTSET = 1 << pin;
   \   000000B2   0x2401             MOVS     R4,#+1
   \   000000B4   0x408C             LSLS     R4,R4,R1
   \   000000B6   0x....             LDR.N    R5,??DataTable14_1  ;; 0x40006000
   \   000000B8   0xB2C0             UXTB     R0,R0            ;; ZeroExt  R0,R0,#+24,#+24
   \   000000BA   0x2624             MOVS     R6,#+36
   \   000000BC   0xFB06 0xF600      MUL      R6,R6,R0
   \   000000C0   0x4435             ADD      R5,R5,R6
   \   000000C2   0x612C             STR      R4,[R5, #+16]
   \   000000C4   0xE008             B.N      ??GPIO_PinModeSet_4
    261              }
    262              else
    263              {
    264                GPIO->P[port].DOUTCLR = 1 << pin;
   \                     ??GPIO_PinModeSet_5: (+1)
   \   000000C6   0x2401             MOVS     R4,#+1
   \   000000C8   0x408C             LSLS     R4,R4,R1
   \   000000CA   0x....             LDR.N    R5,??DataTable14_1  ;; 0x40006000
   \   000000CC   0xB2C0             UXTB     R0,R0            ;; ZeroExt  R0,R0,#+24,#+24
   \   000000CE   0x2624             MOVS     R6,#+36
   \   000000D0   0xFB06 0xF600      MUL      R6,R6,R0
   \   000000D4   0x4435             ADD      R5,R5,R6
   \   000000D6   0x616C             STR      R4,[R5, #+20]
    265              }
    266            }
    267          }
   \                     ??GPIO_PinModeSet_4: (+1)
   \   000000D8   0xBC70             POP      {R4-R6}
   \   000000DA   0x4770             BX       LR               ;; return
    268          
    269          
    270          /***************************************************************************//**
    271           * @brief
    272           *   Set a single pin in GPIO data out port register to 0.
    273           *
    274           * @note
    275           *   In order for the setting to take effect on the output pad, the pin must
    276           *   have been configured properly. If not, it will take effect whenever the
    277           *   pin has been properly configured.
    278           *
    279           * @param[in] port
    280           *   The GPIO port to access.
    281           *
    282           * @param[in] pin
    283           *   The pin to set.
    284           ******************************************************************************/

   \                                 In section .text, align 2, keep-with-next
    285          void GPIO_PinOutClear(GPIO_Port_TypeDef port, unsigned int pin)
    286          {
   \                     GPIO_PinOutClear: (+1)
   \   00000000   0xB410             PUSH     {R4}
    287            EFM_ASSERT(GPIO_PORT_VALID(port) && GPIO_PIN_VALID(pin));
    288          
    289            GPIO->P[port].DOUTCLR = 1 << pin;
   \   00000002   0x2201             MOVS     R2,#+1
   \   00000004   0x408A             LSLS     R2,R2,R1
   \   00000006   0x....             LDR.N    R3,??DataTable14_1  ;; 0x40006000
   \   00000008   0xB2C0             UXTB     R0,R0            ;; ZeroExt  R0,R0,#+24,#+24
   \   0000000A   0x2424             MOVS     R4,#+36
   \   0000000C   0xFB04 0xF400      MUL      R4,R4,R0
   \   00000010   0x4423             ADD      R3,R3,R4
   \   00000012   0x615A             STR      R2,[R3, #+20]
    290          }
   \   00000014   0xBC10             POP      {R4}
   \   00000016   0x4770             BX       LR               ;; return
    291          
    292          
    293          /***************************************************************************//**
    294           * @brief
    295           *   Get current setting for a pin in a GPIO port data out register.
    296           *
    297           * @param[in] port
    298           *   The GPIO port to access.
    299           *
    300           * @param[in] pin
    301           *   The pin to get setting for.
    302           *
    303           * @return
    304           *   The DOUT setting for the requested pin, 0 or 1.
    305           ******************************************************************************/

   \                                 In section .text, align 2, keep-with-next
    306          unsigned int GPIO_PinOutGet(GPIO_Port_TypeDef port, unsigned int pin)
    307          {
    308            EFM_ASSERT(GPIO_PORT_VALID(port) && GPIO_PIN_VALID(pin));
    309          
    310            return((unsigned int)((GPIO->P[port].DOUT >> pin) & 0x1));
   \                     GPIO_PinOutGet: (+1)
   \   00000000   0x....             LDR.N    R2,??DataTable14_1  ;; 0x40006000
   \   00000002   0xB2C0             UXTB     R0,R0            ;; ZeroExt  R0,R0,#+24,#+24
   \   00000004   0x2324             MOVS     R3,#+36
   \   00000006   0x4358             MULS     R0,R3,R0
   \   00000008   0x4410             ADD      R0,R2,R0
   \   0000000A   0x68C0             LDR      R0,[R0, #+12]
   \   0000000C   0x40C8             LSRS     R0,R0,R1
   \   0000000E   0xF010 0x0001      ANDS     R0,R0,#0x1
   \   00000012   0x4770             BX       LR               ;; return
    311          }
    312          
    313          
    314          /***************************************************************************//**
    315           * @brief
    316           *   Set a single pin in GPIO data out register to 1.
    317           *
    318           * @note
    319           *   In order for the setting to take effect on the output pad, the pin must
    320           *   have been configured properly. If not, it will take effect whenever the
    321           *   pin has been properly configured.
    322           *
    323           * @param[in] port
    324           *   The GPIO port to access.
    325           *
    326           * @param[in] pin
    327           *   The pin to set.
    328           ******************************************************************************/

   \                                 In section .text, align 2, keep-with-next
    329          void GPIO_PinOutSet(GPIO_Port_TypeDef port, unsigned int pin)
    330          {
   \                     GPIO_PinOutSet: (+1)
   \   00000000   0xB410             PUSH     {R4}
    331            EFM_ASSERT(GPIO_PORT_VALID(port) && GPIO_PIN_VALID(pin));
    332          
    333            GPIO->P[port].DOUTSET = 1 << pin;
   \   00000002   0x2201             MOVS     R2,#+1
   \   00000004   0x408A             LSLS     R2,R2,R1
   \   00000006   0x....             LDR.N    R3,??DataTable14_1  ;; 0x40006000
   \   00000008   0xB2C0             UXTB     R0,R0            ;; ZeroExt  R0,R0,#+24,#+24
   \   0000000A   0x2424             MOVS     R4,#+36
   \   0000000C   0xFB04 0xF400      MUL      R4,R4,R0
   \   00000010   0x4423             ADD      R3,R3,R4
   \   00000012   0x611A             STR      R2,[R3, #+16]
    334          }
   \   00000014   0xBC10             POP      {R4}
   \   00000016   0x4770             BX       LR               ;; return
    335          
    336          
    337          /***************************************************************************//**
    338           * @brief
    339           *   Toggle a single pin in GPIO port data out register.
    340           *
    341           * @note
    342           *   In order for the setting to take effect on the output pad, the pin must
    343           *   have been configured properly. If not, it will take effect whenever the
    344           *   pin has been properly configured.
    345           *
    346           * @param[in] port
    347           *   The GPIO port to access.
    348           *
    349           * @param[in] pin
    350           *   The pin to toggle.
    351           ******************************************************************************/

   \                                 In section .text, align 2, keep-with-next
    352          void GPIO_PinOutToggle(GPIO_Port_TypeDef port, unsigned int pin)
    353          {
   \                     GPIO_PinOutToggle: (+1)
   \   00000000   0xB410             PUSH     {R4}
    354            EFM_ASSERT(GPIO_PORT_VALID(port) && GPIO_PIN_VALID(pin));
    355          
    356            GPIO->P[port].DOUTTGL = 1 << pin;
   \   00000002   0x2201             MOVS     R2,#+1
   \   00000004   0x408A             LSLS     R2,R2,R1
   \   00000006   0x....             LDR.N    R3,??DataTable14_1  ;; 0x40006000
   \   00000008   0xB2C0             UXTB     R0,R0            ;; ZeroExt  R0,R0,#+24,#+24
   \   0000000A   0x2424             MOVS     R4,#+36
   \   0000000C   0xFB04 0xF400      MUL      R4,R4,R0
   \   00000010   0x4423             ADD      R3,R3,R4
   \   00000012   0x619A             STR      R2,[R3, #+24]
    357          }
   \   00000014   0xBC10             POP      {R4}
   \   00000016   0x4770             BX       LR               ;; return
    358          
    359          
    360          /***************************************************************************//**
    361           * @brief
    362           *   Read the pad values for GPIO port.
    363           *
    364           * @param[in] port
    365           *   The GPIO port to access.
    366           ******************************************************************************/

   \                                 In section .text, align 2, keep-with-next
    367          uint32_t GPIO_PortInGet(GPIO_Port_TypeDef port)
    368          {
    369            EFM_ASSERT(GPIO_PORT_VALID(port));
    370          
    371            return(GPIO->P[port].DIN & _GPIO_P_DIN_DIN_MASK);
   \                     GPIO_PortInGet: (+1)
   \   00000000   0x....             LDR.N    R1,??DataTable14_1  ;; 0x40006000
   \   00000002   0xB2C0             UXTB     R0,R0            ;; ZeroExt  R0,R0,#+24,#+24
   \   00000004   0x2224             MOVS     R2,#+36
   \   00000006   0x4350             MULS     R0,R2,R0
   \   00000008   0x4408             ADD      R0,R1,R0
   \   0000000A   0x69C0             LDR      R0,[R0, #+28]
   \   0000000C   0xB280             UXTH     R0,R0            ;; ZeroExt  R0,R0,#+16,#+16
   \   0000000E   0x4770             BX       LR               ;; return
    372          }
    373          
    374          
    375          /***************************************************************************//**
    376           * @brief
    377           *   Set bits in DOUT register for a port to 0.
    378           *
    379           * @note
    380           *   In order for the setting to take effect on the output pad, the pin must
    381           *   have been configured properly. If not, it will take effect whenever the
    382           *   pin has been properly configured.
    383           *
    384           * @param[in] port
    385           *   The GPIO port to access.
    386           *
    387           * @param[in] pins
    388           *   Bit mask for bits to clear in DOUT register.
    389           ******************************************************************************/

   \                                 In section .text, align 2, keep-with-next
    390          void GPIO_PortOutClear(GPIO_Port_TypeDef port, uint32_t pins)
    391          {
   \                     GPIO_PortOutClear: (+1)
   \   00000000   0xB410             PUSH     {R4}
    392            EFM_ASSERT(GPIO_PORT_VALID(port));
    393          
    394            GPIO->P[port].DOUTCLR = pins & _GPIO_P_DOUTCLR_DOUTCLR_MASK;
   \   00000002   0xB28A             UXTH     R2,R1            ;; ZeroExt  R2,R1,#+16,#+16
   \   00000004   0x....             LDR.N    R3,??DataTable14_1  ;; 0x40006000
   \   00000006   0xB2C0             UXTB     R0,R0            ;; ZeroExt  R0,R0,#+24,#+24
   \   00000008   0x2424             MOVS     R4,#+36
   \   0000000A   0xFB04 0xF400      MUL      R4,R4,R0
   \   0000000E   0x4423             ADD      R3,R3,R4
   \   00000010   0x615A             STR      R2,[R3, #+20]
    395          }
   \   00000012   0xBC10             POP      {R4}
   \   00000014   0x4770             BX       LR               ;; return
    396          
    397          
    398          /***************************************************************************//**
    399           * @brief
    400           *   Get current setting for a GPIO port data out register.
    401           *
    402           * @param[in] port
    403           *   The GPIO port to access.
    404           *
    405           * @return
    406           *   The data out setting for the requested port.
    407           ******************************************************************************/

   \                                 In section .text, align 2, keep-with-next
    408          uint32_t GPIO_PortOutGet(GPIO_Port_TypeDef port)
    409          {
    410            EFM_ASSERT(GPIO_PORT_VALID(port));
    411          
    412            return(GPIO->P[port].DOUT & _GPIO_P_DOUT_DOUT_MASK);
   \                     GPIO_PortOutGet: (+1)
   \   00000000   0x....             LDR.N    R1,??DataTable14_1  ;; 0x40006000
   \   00000002   0xB2C0             UXTB     R0,R0            ;; ZeroExt  R0,R0,#+24,#+24
   \   00000004   0x2224             MOVS     R2,#+36
   \   00000006   0x4350             MULS     R0,R2,R0
   \   00000008   0x4408             ADD      R0,R1,R0
   \   0000000A   0x68C0             LDR      R0,[R0, #+12]
   \   0000000C   0xB280             UXTH     R0,R0            ;; ZeroExt  R0,R0,#+16,#+16
   \   0000000E   0x4770             BX       LR               ;; return
    413          }
    414          
    415          
    416          /***************************************************************************//**
    417           * @brief
    418           *   Set bits GPIO data out register to 1.
    419           *
    420           * @note
    421           *   In order for the setting to take effect on the respective output pads, the
    422           *   pins must have been configured properly. If not, it will take effect
    423           *   whenever the pin has been properly configured.
    424           *
    425           * @param[in] port
    426           *   The GPIO port to access.
    427           *
    428           * @param[in] pins
    429           *   Bit mask for bits to set to 1 in DOUT register.
    430           ******************************************************************************/

   \                                 In section .text, align 2, keep-with-next
    431          void GPIO_PortOutSet(GPIO_Port_TypeDef port, uint32_t pins)
    432          {
   \                     GPIO_PortOutSet: (+1)
   \   00000000   0xB410             PUSH     {R4}
    433            EFM_ASSERT(GPIO_PORT_VALID(port));
    434          
    435            GPIO->P[port].DOUTSET = pins & _GPIO_P_DOUTSET_DOUTSET_MASK;
   \   00000002   0xB28A             UXTH     R2,R1            ;; ZeroExt  R2,R1,#+16,#+16
   \   00000004   0x....             LDR.N    R3,??DataTable14_1  ;; 0x40006000
   \   00000006   0xB2C0             UXTB     R0,R0            ;; ZeroExt  R0,R0,#+24,#+24
   \   00000008   0x2424             MOVS     R4,#+36
   \   0000000A   0xFB04 0xF400      MUL      R4,R4,R0
   \   0000000E   0x4423             ADD      R3,R3,R4
   \   00000010   0x611A             STR      R2,[R3, #+16]
    436          }
   \   00000012   0xBC10             POP      {R4}
   \   00000014   0x4770             BX       LR               ;; return
    437          
    438          
    439          /***************************************************************************//**
    440           * @brief
    441           *   Set GPIO port data out register.
    442           *
    443           * @note
    444           *   In order for the setting to take effect on the respective output pads, the
    445           *   pins must have been configured properly. If not, it will take effect
    446           *   whenever the pin has been properly configured.
    447           *
    448           * @param[in] port
    449           *   The GPIO port to access.
    450           *
    451           * @param[in] val
    452           *   Value to write to port data out register.
    453           *
    454           * @param[in] mask
    455           *   Mask indicating which bits to modify.
    456           ******************************************************************************/

   \                                 In section .text, align 2, keep-with-next
    457          void GPIO_PortOutSetVal(GPIO_Port_TypeDef port, uint32_t val, uint32_t mask)
    458          {
   \                     GPIO_PortOutSetVal: (+1)
   \   00000000   0xB430             PUSH     {R4,R5}
    459            EFM_ASSERT(GPIO_PORT_VALID(port));
    460          
    461            GPIO->P[port].DOUT = (GPIO->P[port].DOUT & ~mask) | (val & mask);
   \   00000002   0x....             LDR.N    R3,??DataTable14_1  ;; 0x40006000
   \   00000004   0xB2C0             UXTB     R0,R0            ;; ZeroExt  R0,R0,#+24,#+24
   \   00000006   0x2424             MOVS     R4,#+36
   \   00000008   0xFB04 0xF400      MUL      R4,R4,R0
   \   0000000C   0x4423             ADD      R3,R3,R4
   \   0000000E   0x68DB             LDR      R3,[R3, #+12]
   \   00000010   0x4393             BICS     R3,R3,R2
   \   00000012   0xEA12 0x0401      ANDS     R4,R2,R1
   \   00000016   0x4323             ORRS     R3,R4,R3
   \   00000018   0x....             LDR.N    R4,??DataTable14_1  ;; 0x40006000
   \   0000001A   0xB2C0             UXTB     R0,R0            ;; ZeroExt  R0,R0,#+24,#+24
   \   0000001C   0x2524             MOVS     R5,#+36
   \   0000001E   0xFB05 0xF500      MUL      R5,R5,R0
   \   00000022   0x442C             ADD      R4,R4,R5
   \   00000024   0x60E3             STR      R3,[R4, #+12]
    462          }
   \   00000026   0xBC30             POP      {R4,R5}
   \   00000028   0x4770             BX       LR               ;; return
    463          
    464          
    465          /***************************************************************************//**
    466           * @brief
    467           *   Toggle a single pin in GPIO port data out register.
    468           *
    469           * @note
    470           *   In order for the setting to take effect on the output pad, the pin must
    471           *   have been configured properly. If not, it will take effect whenever the
    472           *   pin has been properly configured.
    473           *
    474           * @param[in] port
    475           *   The GPIO port to access.
    476           *
    477           * @param[in] pins
    478           *   Bitmask with pins to toggle.
    479           ******************************************************************************/

   \                                 In section .text, align 2, keep-with-next
    480          void GPIO_PortOutToggle(GPIO_Port_TypeDef port, uint32_t pins)
    481          {
   \                     GPIO_PortOutToggle: (+1)
   \   00000000   0xB410             PUSH     {R4}
    482            EFM_ASSERT(GPIO_PORT_VALID(port));
    483          
    484            GPIO->P[port].DOUTTGL = pins & _GPIO_P_DOUTTGL_DOUTTGL_MASK;
   \   00000002   0xB28A             UXTH     R2,R1            ;; ZeroExt  R2,R1,#+16,#+16
   \   00000004   0x....             LDR.N    R3,??DataTable14_1  ;; 0x40006000
   \   00000006   0xB2C0             UXTB     R0,R0            ;; ZeroExt  R0,R0,#+24,#+24
   \   00000008   0x2424             MOVS     R4,#+36
   \   0000000A   0xFB04 0xF400      MUL      R4,R4,R0
   \   0000000E   0x4423             ADD      R3,R3,R4
   \   00000010   0x619A             STR      R2,[R3, #+24]
    485          }
   \   00000012   0xBC10             POP      {R4}
   \   00000014   0x4770             BX       LR               ;; return

   \                                 In section .text, align 4, keep-with-next
   \                     ??DataTable14:
   \   00000000   0x40006120         DC32     0x40006120

   \                                 In section .text, align 4, keep-with-next
   \                     ??DataTable14_1:
   \   00000000   0x40006000         DC32     0x40006000

   \                                 In section .text, align 4, keep-with-next
   \                     ??DataTable14_2:
   \   00000000   0x40006100         DC32     0x40006100

   \                                 In section .text, align 4, keep-with-next
   \                     ??DataTable14_3:
   \   00000000   0x40006104         DC32     0x40006104

   \                                 In section .text, align 4, keep-with-next
   \                     ??DataTable14_4:
   \   00000000   0x40006108         DC32     0x40006108

   \                                 In section .text, align 4, keep-with-next
   \                     ??DataTable14_5:
   \   00000000   0x4000610C         DC32     0x4000610c

   \                                 In section .text, align 4, keep-with-next
   \                     ??DataTable14_6:
   \   00000000   0x4000611C         DC32     0x4000611c

   \                                 In section .text, align 4, keep-with-next
   \                     ??DataTable14_7:
   \   00000000   0x40006110         DC32     0x40006110
    486          
    487          
    488          /** @} (end addtogroup GPIO) */
    489          /** @} (end addtogroup EM_Library) */

   Maximum stack usage in bytes:

   .cstack Function
   ------- --------
       0   BITBAND_Peripheral
       0   GPIO_DbgLocationSet
       4   GPIO_DriveModeSet
      32   GPIO_IntConfig
        32   -> BITBAND_Peripheral
       0   GPIO_PinInGet
      12   GPIO_PinModeSet
       4   GPIO_PinOutClear
       0   GPIO_PinOutGet
       4   GPIO_PinOutSet
       4   GPIO_PinOutToggle
       0   GPIO_PortInGet
       4   GPIO_PortOutClear
       0   GPIO_PortOutGet
       4   GPIO_PortOutSet
       8   GPIO_PortOutSetVal
       4   GPIO_PortOutToggle


   Section sizes:

   Bytes  Function/Label
   -----  --------------
       4  ??DataTable14
       4  ??DataTable14_1
       4  ??DataTable14_2
       4  ??DataTable14_3
       4  ??DataTable14_4
       4  ??DataTable14_5
       4  ??DataTable14_6
       4  ??DataTable14_7
      14  BITBAND_Peripheral
      18  GPIO_DbgLocationSet
      38  GPIO_DriveModeSet
     144  GPIO_IntConfig
      20  GPIO_PinInGet
     220  GPIO_PinModeSet
      24  GPIO_PinOutClear
      20  GPIO_PinOutGet
      24  GPIO_PinOutSet
      24  GPIO_PinOutToggle
      16  GPIO_PortInGet
      22  GPIO_PortOutClear
      16  GPIO_PortOutGet
      22  GPIO_PortOutSet
      42  GPIO_PortOutSetVal
      22  GPIO_PortOutToggle

 
 718 bytes in section .text
 
 718 bytes of CODE memory

Errors: none
Warnings: none
