###############################################################################
#
# IAR ANSI C/C++ Compiler V7.80.4.12462/W32 for ARM       12/Dec/2022  11:41:18
# Copyright 1999-2017 IAR Systems AB.
#
#    Cpu mode     =  thumb
#    Endian       =  little
#    Source file  =  
#        C:\Users\shaomingkun\Desktop\git\evolve5.0\2021sw\ECOM-5\Modules\EFM32_lib\emlib\_src\em_leuart.c
#    Command line =  
#        C:\Users\shaomingkun\Desktop\git\evolve5.0\2021sw\ECOM-5\Modules\EFM32_lib\emlib\_src\em_leuart.c
#        -D EFM32LG380F256 -D BSP_CORTEX_EFM32 -D DEBUG_EFM_JJ -D
#        RF_MODULE_EXIST____ -lC
#        C:\Users\shaomingkun\Desktop\git\evolve5.0\2021sw\ECOM-5\Debug\List
#        -lA
#        C:\Users\shaomingkun\Desktop\git\evolve5.0\2021sw\ECOM-5\Debug\List -o
#        C:\Users\shaomingkun\Desktop\git\evolve5.0\2021sw\ECOM-5\Debug\Obj
#        --no_cse --no_unroll --no_inline --no_code_motion --no_tbaa
#        --no_clustering --no_scheduling --debug --endian=little
#        --cpu=Cortex-M3 -e --fpu=None --dlib_config "C:\Program Files
#        (x86)\IAR Systems\Embedded Workbench
#        7.5\arm\INC\c\DLib_Config_Normal.h" -I
#        C:\Users\shaomingkun\Desktop\git\evolve5.0\2021sw\ECOM-5\ -I
#        C:\Users\shaomingkun\Desktop\git\evolve5.0\2021sw\ECOM-5\Local\ -I
#        C:\Users\shaomingkun\Desktop\git\evolve5.0\2021sw\ECOM-5\Modules\ -I
#        C:\Users\shaomingkun\Desktop\git\evolve5.0\2021sw\ECOM-5\Modules\Utilities_Lib\
#        -I
#        C:\Users\shaomingkun\Desktop\git\evolve5.0\2021sw\ECOM-5\Modules\HAL_Lib\
#        -I
#        C:\Users\shaomingkun\Desktop\git\evolve5.0\2021sw\ECOM-5\Modules\LCB_Lib\
#        -I
#        C:\Users\shaomingkun\Desktop\git\evolve5.0\2021sw\ECOM-5\Modules\Eng_lib\
#        -I
#        C:\Users\shaomingkun\Desktop\git\evolve5.0\2021sw\ECOM-5\..\Modules\Eng_lib\
#        -I
#        C:\Users\shaomingkun\Desktop\git\evolve5.0\2021sw\ECOM-5\Modules\SystemConfig_Lib\
#        -I
#        C:\Users\shaomingkun\Desktop\git\evolve5.0\2021sw\ECOM-5\Modules\EFM32_lib\
#        -I
#        C:\Users\shaomingkun\Desktop\git\evolve5.0\2021sw\ECOM-5\Modules\EFM32_lib\drivers\
#        -I
#        C:\Users\shaomingkun\Desktop\git\evolve5.0\2021sw\ECOM-5\Modules\Program_lib\
#        -I
#        C:\Users\shaomingkun\Desktop\git\evolve5.0\2021sw\ECOM-5\Modules\RF_lib\
#        -I
#        C:\Users\shaomingkun\Desktop\git\evolve5.0\2021sw\ECOM-5\Modules\USB_lib\
#        -I
#        C:\Users\shaomingkun\Desktop\git\evolve5.0\2021sw\ECOM-5\Modules\USB_lib\usb\src\
#        -I
#        C:\Users\shaomingkun\Desktop\git\evolve5.0\2021sw\ECOM-5\Modules\USB_lib\usb\inc\
#        -I
#        C:\Users\shaomingkun\Desktop\git\evolve5.0\2021sw\ECOM-5\Modules\Bluetooth_lib\
#        -I
#        C:\Users\shaomingkun\Desktop\git\evolve5.0\2021sw\ECOM-5\Modules\Remote_lib\
#        -I
#        C:\Users\shaomingkun\Desktop\git\evolve5.0\2021sw\ECOM-5\Modules\EFM32_lib\Include\
#        -I
#        C:\Users\shaomingkun\Desktop\git\evolve5.0\2021sw\ECOM-5\Modules\EFM32_lib\emlib\inc\
#        -I
#        C:\Users\shaomingkun\Desktop\git\evolve5.0\2021sw\ECOM-5\Modules\EFM32_lib\emlib\src\
#        -I
#        C:\Users\shaomingkun\Desktop\git\evolve5.0\2021sw\ECOM-5\Modules\EFM32_lib\drivers\fatfs\src\
#        -I
#        C:\Users\shaomingkun\Desktop\git\evolve5.0\2021sw\ECOM-5\Modules\EFM32_lib\Device\EnergyMicro\EFM32LG\Include\
#        -I
#        C:\Users\shaomingkun\Desktop\git\evolve5.0\2021sw\ECOM-5\Modules\EFM32_lib\Device\EnergyMicro\EFM32LG\Source\
#        -I
#        C:\Users\shaomingkun\Desktop\git\evolve5.0\2021sw\ECOM-5\Modules\EFM32_lib\Device\EnergyMicro\EFM32LG\Source\IAR\
#        -I
#        C:\Users\shaomingkun\Desktop\git\evolve5.0\2021sw\ECOM-5\Modules\RTT_Lib\
#        -On
#    Locale       =  Chinese (Simplified)_China.936
#    List file    =  
#        C:\Users\shaomingkun\Desktop\git\evolve5.0\2021sw\ECOM-5\Debug\List\em_leuart.lst
#    Object file  =  
#        C:\Users\shaomingkun\Desktop\git\evolve5.0\2021sw\ECOM-5\Debug\Obj\em_leuart.o
#
###############################################################################

C:\Users\shaomingkun\Desktop\git\evolve5.0\2021sw\ECOM-5\Modules\EFM32_lib\emlib\_src\em_leuart.c
      1          /***************************************************************************//**
      2           * @file
      3           * @brief Low Energy Universal Asynchronous Receiver/Transmitter (LEUART)
      4           *   Peripheral API
      5           * @author Energy Micro AS
      6           * @version 3.0.1
      7           *******************************************************************************
      8           * @section License
      9           * <b>(C) Copyright 2012 Energy Micro AS, http://www.energymicro.com</b>
     10           *******************************************************************************
     11           *
     12           * Permission is granted to anyone to use this software for any purpose,
     13           * including commercial applications, and to alter it and redistribute it
     14           * freely, subject to the following restrictions:
     15           *
     16           * 1. The origin of this software must not be misrepresented; you must not
     17           *    claim that you wrote the original software.
     18           * 2. Altered source versions must be plainly marked as such, and must not be
     19           *    misrepresented as being the original software.
     20           * 3. This notice may not be removed or altered from any source distribution.
     21           *
     22           * DISCLAIMER OF WARRANTY/LIMITATION OF REMEDIES: Energy Micro AS has no
     23           * obligation to support this Software. Energy Micro AS is providing the
     24           * Software "AS IS", with no express or implied warranties of any kind,
     25           * including, but not limited to, any implied warranties of merchantability
     26           * or fitness for any particular purpose or warranties against infringement
     27           * of any proprietary rights of a third party.
     28           *
     29           * Energy Micro AS will not be liable for any consequential, incidental, or
     30           * special damages, or any other relief, or for any claim by any third party,
     31           * arising from your use of this Software.
     32           *
     33           ******************************************************************************/
     34          #include "em_leuart.h"
     35          #include "em_cmu.h"
     36          #include "em_assert.h"
     37          
     38          /***************************************************************************//**
     39           * @addtogroup EM_Library
     40           * @{
     41           ******************************************************************************/
     42          
     43          /***************************************************************************//**
     44           * @addtogroup LEUART
     45           * @brief Low Energy Universal Asynchronous Receiver/Transmitter (LEUART)
     46           *        Peripheral API
     47           * @{
     48           ******************************************************************************/
     49          
     50          /*******************************************************************************
     51           *******************************   DEFINES   ***********************************
     52           ******************************************************************************/
     53          
     54          /** @cond DO_NOT_INCLUDE_WITH_DOXYGEN */
     55          
     56          
     57          /** Validation of LEUART register block pointer reference
     58           *  for assert statements. */
     59          #if (LEUART_COUNT == 1)
     60          #define LEUART_REF_VALID(ref)    ((ref) == LEUART0)
     61          #elif (LEUART_COUNT == 2)
     62          #define LEUART_REF_VALID(ref)    (((ref) == LEUART0) || ((ref) == LEUART1))
     63          #else
     64          #error Undefined number of low energy UARTs (LEUART).
     65          #endif
     66          
     67          /** @endcond */
     68          
     69          /*******************************************************************************
     70           **************************   LOCAL FUNCTIONS   ********************************
     71           ******************************************************************************/
     72          
     73          /** @cond DO_NOT_INCLUDE_WITH_DOXYGEN */
     74          
     75          /***************************************************************************//**
     76           * @brief
     77           *   Wait for ongoing sync of register(s) to low frequency domain to complete.
     78           *
     79           * @param[in] leuart
     80           *   Pointer to LEUART peripheral register block
     81           *
     82           * @param[in] mask
     83           *   Bitmask corresponding to SYNCBUSY register defined bits, indicating
     84           *   registers that must complete any ongoing synchronization.
     85           ******************************************************************************/

   \                                 In section .text, align 2, keep-with-next
     86          __STATIC_INLINE void LEUART_Sync(LEUART_TypeDef *leuart, uint32_t mask)
     87          {
     88            /* Avoid deadlock if modifying the same register twice when freeze mode is */
     89            /* activated. */
     90            if (leuart->FREEZE & LEUART_FREEZE_REGFREEZE)
   \                     LEUART_Sync: (+1)
   \   00000000   0x6C02             LDR      R2,[R0, #+64]
   \   00000002   0x07D2             LSLS     R2,R2,#+31
   \   00000004   0xD402             BMI.N    ??LEUART_Sync_0
     91            {
     92              return;
     93            }
     94          
     95            /* Wait for any pending previous write operation to have been completed */
     96            /* in low frequency domain */
     97            while (leuart->SYNCBUSY & mask)
   \                     ??LEUART_Sync_1: (+1)
   \   00000006   0x6C42             LDR      R2,[R0, #+68]
   \   00000008   0x420A             TST      R2,R1
   \   0000000A   0xD1FC             BNE.N    ??LEUART_Sync_1
     98              ;
     99          }
   \                     ??LEUART_Sync_0: (+1)
   \   0000000C   0x4770             BX       LR               ;; return
    100          
    101          /** @endcond */
    102          
    103          /*******************************************************************************
    104           **************************   GLOBAL FUNCTIONS   *******************************
    105           ******************************************************************************/
    106          
    107          /***************************************************************************//**
    108           * @brief
    109           *   Calculate baudrate for LEUART given reference frequency and clock division.
    110           *
    111           * @details
    112           *   This function returns the baudrate that a LEUART module will use if
    113           *   configured with the given frequency and clock divisor. Notice that
    114           *   this function will not use actual HW configuration. It can be used
    115           *   to determinate if a given configuration is sufficiently accurate for the
    116           *   application.
    117           *
    118           * @param[in] refFreq
    119           *   LEUART peripheral frequency used.
    120           *
    121           * @param[in] clkdiv
    122           *   Clock division factor to be used.
    123           *
    124           * @return
    125           *   Baudrate with given settings.
    126           ******************************************************************************/

   \                                 In section .text, align 2, keep-with-next
    127          uint32_t LEUART_BaudrateCalc(uint32_t refFreq, uint32_t clkdiv)
    128          {
   \                     LEUART_BaudrateCalc: (+1)
   \   00000000   0xB470             PUSH     {R4-R6}
   \   00000002   0x0002             MOVS     R2,R0
    129            uint32_t divisor;
    130            uint32_t remainder;
    131            uint32_t quotient;
    132            uint32_t br;
    133          
    134            /* Mask out unused bits */
    135            clkdiv &= _LEUART_CLKDIV_MASK;
   \   00000004   0xF647 0x76F8      MOVW     R6,#+32760
   \   00000008   0x4031             ANDS     R1,R6,R1
    136          
    137            /* We want to use integer division to avoid forcing in float division */
    138            /* utils, and yet keep rounding effect errors to a minimum. */
    139          
    140            /*
    141             * Baudrate is given by:
    142             *
    143             * br = fLEUARTn/(1 + (CLKDIV / 256))
    144             *
    145             * which can be rewritten to
    146             *
    147             * br = (256 * fLEUARTn)/(256 + CLKDIV)
    148             *
    149             * Normally, with fLEUARTn appr 32768Hz, there is no problem with overflow
    150             * if using 32 bit arithmetic. However, since fLEUARTn may be derived from
    151             * HFCORECLK as well, we must consider overflow when using integer arithmetic.
    152             */
    153          
    154            /*
    155             * The basic problem with integer division in the above formula is that
    156             * the dividend (256 * fLEUARTn) may become higher than max 32 bit
    157             * integer. Yet we want to evaluate dividend first before dividing in
    158             * order to get as small rounding effects as possible. We do not want
    159             * to make too harsh restrictions on max fLEUARTn value either.
    160             *
    161             * For division a/b, we can write
    162             *
    163             * a = qb + r
    164             *
    165             * where q is the quotient and r is the remainder, both integers.
    166             *
    167             * The orignal baudrate formula can be rewritten as
    168             *
    169             * br = 256a / b = 256(qb + r)/b = 256q + 256r/b
    170             *
    171             * where a is 'refFreq' and b is 'divisor', referring to variable names.
    172             */
    173          
    174            divisor = 256 + clkdiv;
   \   0000000A   0xF511 0x7680      ADDS     R6,R1,#+256
   \   0000000E   0x0033             MOVS     R3,R6
    175          
    176            quotient  = refFreq / divisor;
   \   00000010   0xFBB2 0xF6F3      UDIV     R6,R2,R3
   \   00000014   0x0035             MOVS     R5,R6
    177            remainder = refFreq % divisor;
   \   00000016   0xFBB2 0xF6F3      UDIV     R6,R2,R3
   \   0000001A   0xFB03 0x2616      MLS      R6,R3,R6,R2
   \   0000001E   0x0034             MOVS     R4,R6
    178          
    179            /* Since divisor >= 256, the below cannot exceed max 32 bit value. */
    180            br = 256 * quotient;
   \   00000020   0xF44F 0x7680      MOV      R6,#+256
   \   00000024   0xFB06 0xF605      MUL      R6,R6,R5
   \   00000028   0x0030             MOVS     R0,R6
    181          
    182            /*
    183             * Remainder < (256 + clkdiv), which means dividend (256 * remainder) worst case is
    184             * 256*(256 + 0x7ff8) = 0x80F800.
    185             */
    186            br += (256 * remainder) / divisor;
   \   0000002A   0xF44F 0x7680      MOV      R6,#+256
   \   0000002E   0xFB06 0xF604      MUL      R6,R6,R4
   \   00000032   0xFBB6 0xF6F3      UDIV     R6,R6,R3
   \   00000036   0x1830             ADDS     R0,R6,R0
    187          
    188            return br;
   \   00000038   0xBC70             POP      {R4-R6}
   \   0000003A   0x4770             BX       LR               ;; return
    189          }
    190          
    191          
    192          /***************************************************************************//**
    193           * @brief
    194           *   Get current baudrate for LEUART.
    195           *
    196           * @details
    197           *   This function returns the actual baudrate (not considering oscillator
    198           *   inaccuracies) used by a LEUART peripheral.
    199           *
    200           * @param[in] leuart
    201           *   Pointer to LEUART peripheral register block.
    202           *
    203           * @return
    204           *   Current baudrate.
    205           ******************************************************************************/

   \                                 In section .text, align 2, keep-with-next
    206          uint32_t LEUART_BaudrateGet(LEUART_TypeDef *leuart)
    207          {
   \                     LEUART_BaudrateGet: (+1)
   \   00000000   0xB570             PUSH     {R4-R6,LR}
   \   00000002   0x0004             MOVS     R4,R0
    208            uint32_t          freq;
    209            CMU_Clock_TypeDef clock;
    210          
    211            /* Get current frequency */
    212            if (leuart == LEUART0)
   \   00000004   0x....             LDR.N    R0,??DataTable1  ;; 0x40084000
   \   00000006   0x4284             CMP      R4,R0
   \   00000008   0xD102             BNE.N    ??LEUART_BaudrateGet_0
    213            {
    214              clock = cmuClock_LEUART0;
   \   0000000A   0x....             LDR.N    R0,??DataTable1_1  ;; 0x140540
   \   0000000C   0x0006             MOVS     R6,R0
   \   0000000E   0xE007             B.N      ??LEUART_BaudrateGet_1
    215            }
    216          #if (LEUART_COUNT > 1)
    217            else if (leuart == LEUART1)
   \                     ??LEUART_BaudrateGet_0: (+1)
   \   00000010   0x....             LDR.N    R0,??DataTable1_2  ;; 0x40084400
   \   00000012   0x4284             CMP      R4,R0
   \   00000014   0xD102             BNE.N    ??LEUART_BaudrateGet_2
    218            {
    219              clock = cmuClock_LEUART1;
   \   00000016   0x....             LDR.N    R0,??DataTable1_3  ;; 0x161540
   \   00000018   0x0006             MOVS     R6,R0
   \   0000001A   0xE001             B.N      ??LEUART_BaudrateGet_1
    220            }
    221          #endif
    222            else
    223            {
    224              EFM_ASSERT(0);
    225              return 0;
   \                     ??LEUART_BaudrateGet_2: (+1)
   \   0000001C   0x2000             MOVS     R0,#+0
   \   0000001E   0xE007             B.N      ??LEUART_BaudrateGet_3
    226            }
    227          
    228            freq = CMU_ClockFreqGet(clock);
   \                     ??LEUART_BaudrateGet_1: (+1)
   \   00000020   0x0030             MOVS     R0,R6
   \   00000022   0x.... 0x....      BL       CMU_ClockFreqGet
   \   00000026   0x0005             MOVS     R5,R0
    229          
    230            return LEUART_BaudrateCalc(freq, leuart->CLKDIV);
   \   00000028   0x68E1             LDR      R1,[R4, #+12]
   \   0000002A   0x0028             MOVS     R0,R5
   \   0000002C   0x.... 0x....      BL       LEUART_BaudrateCalc
   \                     ??LEUART_BaudrateGet_3: (+1)
   \   00000030   0xBD70             POP      {R4-R6,PC}       ;; return
    231          }
    232          
    233          
    234          /***************************************************************************//**
    235           * @brief
    236           *   Configure baudrate (or as close as possible to specified baudrate).
    237           *
    238           * @note
    239           *   The setting of a baudrate requires synchronization into the
    240           *   low frequency domain. If the same register is modified before a previous
    241           *   update has completed, this function will stall until the previous
    242           *   synchronization has completed.
    243           *
    244           * @param[in] leuart
    245           *   Pointer to LEUART peripheral register block.
    246           *
    247           * @param[in] refFreq
    248           *   LEUART reference clock frequency in Hz that will be used. If set to 0,
    249           *   the currently configured reference clock is assumed.
    250           *
    251           * @param[in] baudrate
    252           *   Baudrate to try to achieve for LEUART.
    253           ******************************************************************************/

   \                                 In section .text, align 2, keep-with-next
    254          void LEUART_BaudrateSet(LEUART_TypeDef *leuart,
    255                                  uint32_t refFreq,
    256                                  uint32_t baudrate)
    257          {
   \                     LEUART_BaudrateSet: (+1)
   \   00000000   0xE92D 0x41F0      PUSH     {R4-R8,LR}
   \   00000004   0x0004             MOVS     R4,R0
   \   00000006   0x000D             MOVS     R5,R1
   \   00000008   0x0016             MOVS     R6,R2
    258            uint32_t          clkdiv;
    259            CMU_Clock_TypeDef clock;
    260          
    261            /* Inhibit divide by 0 */
    262            EFM_ASSERT(baudrate);
    263          
    264            /*
    265             * We want to use integer division to avoid forcing in float division
    266             * utils, and yet keep rounding effect errors to a minimum.
    267             *
    268             * CLKDIV in asynchronous mode is given by:
    269             *
    270             * CLKDIV = 256*(fLEUARTn/br - 1) = ((256*fLEUARTn)/br) - 256
    271             *
    272             * Normally, with fLEUARTn appr 32768Hz, there is no problem with overflow
    273             * if using 32 bit arithmetic. However, since fLEUARTn may be derived from
    274             * HFCORECLK as well, we must consider overflow when using integer arithmetic.
    275             *
    276             * The basic problem with integer division in the above formula is that
    277             * the dividend (256 * fLEUARTn) may become higher than max 32 bit
    278             * integer. Yet, we want to evaluate dividend first before dividing in
    279             * order to get as small rounding effects as possible. We do not want
    280             * to make too harsh restrictions on max fLEUARTn value either.
    281             *
    282             * Since the last 3 bits of CLKDIV are don't care, we can base our
    283             * integer arithmetic on the below formula
    284             *
    285             * CLKDIV/8 = ((32*fLEUARTn)/br) - 32
    286             *
    287             * and calculate 1/8 of CLKDIV first. This allows for fLEUARTn
    288             * up to 128MHz without overflowing a 32 bit value!
    289             */
    290          
    291            /* Get current frequency? */
    292            if (!refFreq)
   \   0000000A   0x2D00             CMP      R5,#+0
   \   0000000C   0xD110             BNE.N    ??LEUART_BaudrateSet_0
    293            {
    294              if (leuart == LEUART0)
   \   0000000E   0x....             LDR.N    R0,??DataTable1  ;; 0x40084000
   \   00000010   0x4284             CMP      R4,R0
   \   00000012   0xD102             BNE.N    ??LEUART_BaudrateSet_1
    295              {
    296                clock = cmuClock_LEUART0;
   \   00000014   0x....             LDR.N    R0,??DataTable1_1  ;; 0x140540
   \   00000016   0x4680             MOV      R8,R0
   \   00000018   0xE006             B.N      ??LEUART_BaudrateSet_2
    297              }
    298          #if (LEUART_COUNT > 1)
    299              else if (leuart == LEUART1)
   \                     ??LEUART_BaudrateSet_1: (+1)
   \   0000001A   0x....             LDR.N    R0,??DataTable1_2  ;; 0x40084400
   \   0000001C   0x4284             CMP      R4,R0
   \   0000001E   0xD102             BNE.N    ??LEUART_BaudrateSet_3
    300              {
    301                clock = cmuClock_LEUART1;
   \   00000020   0x....             LDR.N    R0,??DataTable1_3  ;; 0x161540
   \   00000022   0x4680             MOV      R8,R0
   \   00000024   0xE000             B.N      ??LEUART_BaudrateSet_2
    302              }
    303          #endif
    304              else
    305              {
    306                EFM_ASSERT(0);
    307                return;
   \                     ??LEUART_BaudrateSet_3: (+1)
   \   00000026   0xE011             B.N      ??LEUART_BaudrateSet_4
    308              }
    309          
    310              refFreq = CMU_ClockFreqGet(clock);
   \                     ??LEUART_BaudrateSet_2: (+1)
   \   00000028   0x4640             MOV      R0,R8
   \   0000002A   0x.... 0x....      BL       CMU_ClockFreqGet
   \   0000002E   0x0005             MOVS     R5,R0
    311            }
    312          
    313            /* Calculate and set CLKDIV with fractional bits */
    314            clkdiv  = (32 * refFreq) / baudrate;
   \                     ??LEUART_BaudrateSet_0: (+1)
   \   00000030   0x0168             LSLS     R0,R5,#+5
   \   00000032   0xFBB0 0xF0F6      UDIV     R0,R0,R6
   \   00000036   0x0007             MOVS     R7,R0
    315            clkdiv -= 32;
   \   00000038   0x3F20             SUBS     R7,R7,#+32
    316            clkdiv *= 8;
   \   0000003A   0x00FF             LSLS     R7,R7,#+3
    317          
    318            /* Verify that resulting clock divider is within limits */
    319            EFM_ASSERT(clkdiv <= _LEUART_CLKDIV_MASK);
    320          
    321            /* If EFM_ASSERT is not enabled, make sure we don't write to reserved bits */
    322            clkdiv &= _LEUART_CLKDIV_MASK;
   \   0000003C   0xF647 0x70F8      MOVW     R0,#+32760
   \   00000040   0x4007             ANDS     R7,R0,R7
    323          
    324            /* LF register about to be modified require sync. busy check */
    325            LEUART_Sync(leuart, LEUART_SYNCBUSY_CLKDIV);
   \   00000042   0x2104             MOVS     R1,#+4
   \   00000044   0x0020             MOVS     R0,R4
   \   00000046   0x.... 0x....      BL       LEUART_Sync
    326          
    327            leuart->CLKDIV = clkdiv;
   \   0000004A   0x60E7             STR      R7,[R4, #+12]
    328          }
   \                     ??LEUART_BaudrateSet_4: (+1)
   \   0000004C   0xE8BD 0x81F0      POP      {R4-R8,PC}       ;; return
    329          
    330          
    331          /***************************************************************************//**
    332           * @brief
    333           *   Enable/disable LEUART receiver and/or transmitter.
    334           *
    335           * @details
    336           *   Notice that this function does not do any configuration. Enabling should
    337           *   normally be done after initialization is done (if not enabled as part
    338           *   of init).
    339           *
    340           * @note
    341           *   Enabling/disabling requires synchronization into the low frequency domain.
    342           *   If the same register is modified before a previous update has completed,
    343           *   this function will stall until the previous synchronization has completed.
    344           *
    345           * @param[in] leuart
    346           *   Pointer to LEUART peripheral register block.
    347           *
    348           * @param[in] enable
    349           *   Select status for receiver/transmitter.
    350           ******************************************************************************/

   \                                 In section .text, align 2, keep-with-next
    351          void LEUART_Enable(LEUART_TypeDef *leuart, LEUART_Enable_TypeDef enable)
    352          {
   \                     LEUART_Enable: (+1)
   \   00000000   0xB570             PUSH     {R4-R6,LR}
   \   00000002   0x0004             MOVS     R4,R0
   \   00000004   0x000D             MOVS     R5,R1
    353            uint32_t tmp;
    354          
    355            /* Make sure the module exists on the selected chip */
    356            EFM_ASSERT(LEUART_REF_VALID(leuart));
    357          
    358            /* Disable as specified */
    359            tmp   = ~((uint32_t)(enable));
   \   00000006   0xB2ED             UXTB     R5,R5            ;; ZeroExt  R5,R5,#+24,#+24
   \   00000008   0x43E8             MVNS     R0,R5
   \   0000000A   0x0006             MOVS     R6,R0
    360            tmp  &= (_LEUART_CMD_RXEN_MASK | _LEUART_CMD_TXEN_MASK);
   \   0000000C   0xF016 0x0605      ANDS     R6,R6,#0x5
    361            tmp <<= 1;
   \   00000010   0x0076             LSLS     R6,R6,#+1
    362            /* Enable as specified */
    363            tmp |= (uint32_t)(enable);
   \   00000012   0xB2ED             UXTB     R5,R5            ;; ZeroExt  R5,R5,#+24,#+24
   \   00000014   0x432E             ORRS     R6,R5,R6
    364          
    365            /* LF register about to be modified require sync. busy check */
    366            LEUART_Sync(leuart, LEUART_SYNCBUSY_CMD);
   \   00000016   0x2102             MOVS     R1,#+2
   \   00000018   0x0020             MOVS     R0,R4
   \   0000001A   0x.... 0x....      BL       LEUART_Sync
    367          
    368            leuart->CMD = tmp;
   \   0000001E   0x6066             STR      R6,[R4, #+4]
    369          }
   \   00000020   0xBD70             POP      {R4-R6,PC}       ;; return
    370          
    371          
    372          /***************************************************************************//**
    373           * @brief
    374           *   LEUART register synchronization freeze control.
    375           *
    376           * @details
    377           *   Some LEUART registers require synchronization into the low frequency (LF)
    378           *   domain. The freeze feature allows for several such registers to be
    379           *   modified before passing them to the LF domain simultaneously (which
    380           *   takes place when the freeze mode is disabled).
    381           *
    382           * @note
    383           *   When enabling freeze mode, this function will wait for all current
    384           *   ongoing LEUART synchronization to LF domain to complete (Normally
    385           *   synchronization will not be in progress.) However for this reason, when
    386           *   using freeze mode, modifications of registers requiring LF synchronization
    387           *   should be done within one freeze enable/disable block to avoid unecessary
    388           *   stalling.
    389           *
    390           * @param[in] leuart
    391           *   Pointer to LEUART peripheral register block.
    392           *
    393           * @param[in] enable
    394           *   @li true - enable freeze, modified registers are not propagated to the
    395           *       LF domain
    396           *   @li false - disables freeze, modified registers are propagated to LF
    397           *       domain
    398           ******************************************************************************/

   \                                 In section .text, align 2, keep-with-next
    399          void LEUART_FreezeEnable(LEUART_TypeDef *leuart, bool enable)
    400          {
    401            if (enable)
   \                     LEUART_FreezeEnable: (+1)
   \   00000000   0xB2C9             UXTB     R1,R1            ;; ZeroExt  R1,R1,#+24,#+24
   \   00000002   0x2900             CMP      R1,#+0
   \   00000004   0xD005             BEQ.N    ??LEUART_FreezeEnable_0
    402            {
    403              /*
    404               * Wait for any ongoing LF synchronization to complete. This is just to
    405               * protect against the rare case when a user
    406               * - modifies a register requiring LF sync
    407               * - then enables freeze before LF sync completed
    408               * - then modifies the same register again
    409               * since modifying a register while it is in sync progress should be
    410               * avoided.
    411               */
    412              while (leuart->SYNCBUSY)
   \                     ??LEUART_FreezeEnable_1: (+1)
   \   00000006   0x6C42             LDR      R2,[R0, #+68]
   \   00000008   0x2A00             CMP      R2,#+0
   \   0000000A   0xD1FC             BNE.N    ??LEUART_FreezeEnable_1
    413                ;
    414          
    415              leuart->FREEZE = LEUART_FREEZE_REGFREEZE;
   \   0000000C   0x2201             MOVS     R2,#+1
   \   0000000E   0x6402             STR      R2,[R0, #+64]
   \   00000010   0xE001             B.N      ??LEUART_FreezeEnable_2
    416            }
    417            else
    418            {
    419              leuart->FREEZE = 0;
   \                     ??LEUART_FreezeEnable_0: (+1)
   \   00000012   0x2200             MOVS     R2,#+0
   \   00000014   0x6402             STR      R2,[R0, #+64]
    420            }
    421          }
   \                     ??LEUART_FreezeEnable_2: (+1)
   \   00000016   0x4770             BX       LR               ;; return
    422          
    423          
    424          /***************************************************************************//**
    425           * @brief
    426           *   Init LEUART.
    427           *
    428           * @details
    429           *   This function will configure basic settings in order to operate in normal
    430           *   asynchronous mode. Consider using LEUART_Reset() prior to this function if
    431           *   state of configuration is not known, since only configuration settings
    432           *   specified by @p init are set.
    433           *
    434           *   Special control setup not covered by this function may be done either
    435           *   before or after using this function (but normally before enabling)
    436           *   by direct modification of the CTRL register.
    437           *
    438           *   Notice that pins used by the LEUART module must be properly configured
    439           *   by the user explicitly, in order for the LEUART to work as intended.
    440           *   (When configuring pins, one should remember to consider the sequence of
    441           *   configuration, in order to avoid unintended pulses/glitches on output
    442           *   pins.)
    443           *
    444           * @note
    445           *   Initializing requires synchronization into the low frequency domain.
    446           *   If the same register is modified before a previous update has completed,
    447           *   this function will stall until the previous synchronization has completed.
    448           *
    449           * @param[in] leuart
    450           *   Pointer to LEUART peripheral register block.
    451           *
    452           * @param[in] init
    453           *   Pointer to initialization structure used to configure basic async setup.
    454           ******************************************************************************/

   \                                 In section .text, align 2, keep-with-next
    455          void LEUART_Init(LEUART_TypeDef *leuart, LEUART_Init_TypeDef const *init)
    456          {
   \                     LEUART_Init: (+1)
   \   00000000   0xB538             PUSH     {R3-R5,LR}
   \   00000002   0x0004             MOVS     R4,R0
   \   00000004   0x000D             MOVS     R5,R1
    457            /* Make sure the module exists on the selected chip */
    458            EFM_ASSERT(LEUART_REF_VALID(leuart));
    459          
    460            /* LF register about to be modified require sync. busy check */
    461            LEUART_Sync(leuart, LEUART_SYNCBUSY_CMD);
   \   00000006   0x2102             MOVS     R1,#+2
   \   00000008   0x0020             MOVS     R0,R4
   \   0000000A   0x.... 0x....      BL       LEUART_Sync
    462          
    463            /* Ensure disabled while doing config */
    464            leuart->CMD = LEUART_CMD_RXDIS | LEUART_CMD_TXDIS;
   \   0000000E   0x200A             MOVS     R0,#+10
   \   00000010   0x6060             STR      R0,[R4, #+4]
    465          
    466            /* Freeze registers to avoid stalling for LF synchronization */
    467            LEUART_FreezeEnable(leuart, true);
   \   00000012   0x2101             MOVS     R1,#+1
   \   00000014   0x0020             MOVS     R0,R4
   \   00000016   0x.... 0x....      BL       LEUART_FreezeEnable
    468          
    469            /* Configure databits and stopbits */
    470            leuart->CTRL = (leuart->CTRL & ~(_LEUART_CTRL_PARITY_MASK |
    471                                             _LEUART_CTRL_STOPBITS_MASK)) |
    472                           (uint32_t)(init->databits) |
    473                           (uint32_t)(init->parity) |
    474                           (uint32_t)(init->stopbits);
   \   0000001A   0x6820             LDR      R0,[R4, #+0]
   \   0000001C   0xF030 0x001C      BICS     R0,R0,#0x1C
   \   00000020   0x7B29             LDRB     R1,[R5, #+12]
   \   00000022   0x4308             ORRS     R0,R1,R0
   \   00000024   0x7B69             LDRB     R1,[R5, #+13]
   \   00000026   0x4308             ORRS     R0,R1,R0
   \   00000028   0x7BA9             LDRB     R1,[R5, #+14]
   \   0000002A   0x4308             ORRS     R0,R1,R0
   \   0000002C   0x6020             STR      R0,[R4, #+0]
    475          
    476            /* Configure baudrate */
    477            LEUART_BaudrateSet(leuart, init->refFreq, init->baudrate);
   \   0000002E   0x68AA             LDR      R2,[R5, #+8]
   \   00000030   0x6869             LDR      R1,[R5, #+4]
   \   00000032   0x0020             MOVS     R0,R4
   \   00000034   0x.... 0x....      BL       LEUART_BaudrateSet
    478          
    479            /* Finally enable (as specified) */
    480            leuart->CMD = (uint32_t)(init->enable);
   \   00000038   0x7828             LDRB     R0,[R5, #+0]
   \   0000003A   0x6060             STR      R0,[R4, #+4]
    481          
    482            /* Unfreeze registers, pass new settings on to LEUART */
    483            LEUART_FreezeEnable(leuart, false);
   \   0000003C   0x2100             MOVS     R1,#+0
   \   0000003E   0x0020             MOVS     R0,R4
   \   00000040   0x.... 0x....      BL       LEUART_FreezeEnable
    484          }
   \   00000044   0xBD31             POP      {R0,R4,R5,PC}    ;; return
    485          
    486          
    487          /***************************************************************************//**
    488           * @brief
    489           *   Reset LEUART to same state as after a HW reset.
    490           *
    491           * @param[in] leuart
    492           *   Pointer to LEUART peripheral register block.
    493           ******************************************************************************/

   \                                 In section .text, align 2, keep-with-next
    494          void LEUART_Reset(LEUART_TypeDef *leuart)
    495          {
   \                     LEUART_Reset: (+1)
   \   00000000   0xB510             PUSH     {R4,LR}
   \   00000002   0x0004             MOVS     R4,R0
    496            /* Make sure the module exists on the selected chip */
    497            EFM_ASSERT(LEUART_REF_VALID(leuart));
    498          
    499            /* Freeze registers to avoid stalling for LF synchronization */
    500            LEUART_FreezeEnable(leuart, true);
   \   00000004   0x2101             MOVS     R1,#+1
   \   00000006   0x0020             MOVS     R0,R4
   \   00000008   0x.... 0x....      BL       LEUART_FreezeEnable
    501          
    502            /* Make sure disabled first, before resetting other registers */
    503            leuart->CMD = LEUART_CMD_RXDIS | LEUART_CMD_TXDIS | LEUART_CMD_RXBLOCKDIS |
    504                          LEUART_CMD_CLEARTX | LEUART_CMD_CLEARRX;
   \   0000000C   0x20EA             MOVS     R0,#+234
   \   0000000E   0x6060             STR      R0,[R4, #+4]
    505            leuart->CTRL       = _LEUART_CTRL_RESETVALUE;
   \   00000010   0x2000             MOVS     R0,#+0
   \   00000012   0x6020             STR      R0,[R4, #+0]
    506            leuart->CLKDIV     = _LEUART_CLKDIV_RESETVALUE;
   \   00000014   0x2000             MOVS     R0,#+0
   \   00000016   0x60E0             STR      R0,[R4, #+12]
    507            leuart->STARTFRAME = _LEUART_STARTFRAME_RESETVALUE;
   \   00000018   0x2000             MOVS     R0,#+0
   \   0000001A   0x6120             STR      R0,[R4, #+16]
    508            leuart->SIGFRAME   = _LEUART_SIGFRAME_RESETVALUE;
   \   0000001C   0x2000             MOVS     R0,#+0
   \   0000001E   0x6160             STR      R0,[R4, #+20]
    509            leuart->IEN        = _LEUART_IEN_RESETVALUE;
   \   00000020   0x2000             MOVS     R0,#+0
   \   00000022   0x63A0             STR      R0,[R4, #+56]
    510            leuart->IFC        = _LEUART_IFC_MASK;
   \   00000024   0xF240 0x70F9      MOVW     R0,#+2041
   \   00000028   0x6360             STR      R0,[R4, #+52]
    511            leuart->PULSECTRL  = _LEUART_PULSECTRL_RESETVALUE;
   \   0000002A   0x2000             MOVS     R0,#+0
   \   0000002C   0x63E0             STR      R0,[R4, #+60]
    512            leuart->ROUTE      = _LEUART_ROUTE_RESETVALUE;
   \   0000002E   0x2000             MOVS     R0,#+0
   \   00000030   0x6560             STR      R0,[R4, #+84]
    513          
    514            /* Unfreeze registers, pass new settings on to LEUART */
    515            LEUART_FreezeEnable(leuart, false);
   \   00000032   0x2100             MOVS     R1,#+0
   \   00000034   0x0020             MOVS     R0,R4
   \   00000036   0x.... 0x....      BL       LEUART_FreezeEnable
    516          }
   \   0000003A   0xBD10             POP      {R4,PC}          ;; return
    517          
    518          
    519          /***************************************************************************//**
    520           * @brief
    521           *   Receive one 8 bit frame, (or part of 9 bit frame).
    522           *
    523           * @details
    524           *   This function is normally used to receive one frame when operating with
    525           *   frame length 8 bits. Please refer to LEUART_RxExt() for reception of
    526           *   9 bit frames.
    527           *
    528           *   Notice that possible parity/stop bits are not considered part of specified
    529           *   frame bit length.
    530           *
    531           * @note
    532           *   This function will stall if buffer is empty, until data is received.
    533           *
    534           * @param[in] leuart
    535           *   Pointer to LEUART peripheral register block.
    536           *
    537           * @return
    538           *   Data received.
    539           ******************************************************************************/

   \                                 In section .text, align 2, keep-with-next
    540          uint8_t LEUART_Rx(LEUART_TypeDef *leuart)
    541          {
    542            while (!(leuart->STATUS & LEUART_STATUS_RXDATAV))
   \                     LEUART_Rx: (+1)
   \                     ??LEUART_Rx_0: (+1)
   \   00000000   0x6881             LDR      R1,[R0, #+8]
   \   00000002   0x0689             LSLS     R1,R1,#+26
   \   00000004   0xD5FC             BPL.N    ??LEUART_Rx_0
    543              ;
    544          
    545            return (uint8_t)(leuart->RXDATA);
   \   00000006   0x69C0             LDR      R0,[R0, #+28]
   \   00000008   0xB2C0             UXTB     R0,R0            ;; ZeroExt  R0,R0,#+24,#+24
   \   0000000A   0x4770             BX       LR               ;; return
    546          }
    547          
    548          
    549          /***************************************************************************//**
    550           * @brief
    551           *   Receive one 8-9 bit frame, with extended information.
    552           *
    553           * @details
    554           *   This function is normally used to receive one frame and additional RX
    555           *   status information is required.
    556           *
    557           * @note
    558           *   This function will stall if buffer is empty, until data is received.
    559           *
    560           * @param[in] leuart
    561           *   Pointer to LEUART peripheral register block.
    562           *
    563           * @return
    564           *   Data received.
    565           ******************************************************************************/

   \                                 In section .text, align 2, keep-with-next
    566          uint16_t LEUART_RxExt(LEUART_TypeDef *leuart)
    567          {
    568            while (!(leuart->STATUS & LEUART_STATUS_RXDATAV))
   \                     LEUART_RxExt: (+1)
   \                     ??LEUART_RxExt_0: (+1)
   \   00000000   0x6881             LDR      R1,[R0, #+8]
   \   00000002   0x0689             LSLS     R1,R1,#+26
   \   00000004   0xD5FC             BPL.N    ??LEUART_RxExt_0
    569              ;
    570          
    571            return (uint16_t)(leuart->RXDATAX);
   \   00000006   0x6980             LDR      R0,[R0, #+24]
   \   00000008   0xB280             UXTH     R0,R0            ;; ZeroExt  R0,R0,#+16,#+16
   \   0000000A   0x4770             BX       LR               ;; return
    572          }
    573          
    574          
    575          /***************************************************************************//**
    576           * @brief
    577           *   Transmit one frame.
    578           *
    579           * @details
    580           *   Depending on frame length configuration, 8 (least significant) bits from
    581           *   @p data are transmitted. If frame length is 9, 8 bits are transmitted from
    582           *   @p data and one bit as specified by CTRL register, BIT8DV field. Please
    583           *   refer to LEUART_TxExt() for transmitting 9 bit frame with full control of
    584           *   all 9 bits.
    585           *
    586           *   Notice that possible parity/stop bits in asynchronous mode are not
    587           *   considered part of specified frame bit length.
    588           *
    589           * @note
    590           *   This function will stall if buffer is full, until buffer becomes available.
    591           *
    592           * @param[in] leuart
    593           *   Pointer to LEUART peripheral register block.
    594           *
    595           * @param[in] data
    596           *   Data to transmit. See details above for further info.
    597           ******************************************************************************/

   \                                 In section .text, align 2, keep-with-next
    598          void LEUART_Tx(LEUART_TypeDef *leuart, uint8_t data)
    599          {
   \                     LEUART_Tx: (+1)
   \   00000000   0xB538             PUSH     {R3-R5,LR}
   \   00000002   0x0004             MOVS     R4,R0
   \   00000004   0x000D             MOVS     R5,R1
    600            /* Check that transmit buffer is empty */
    601            while (!(leuart->STATUS & LEUART_STATUS_TXBL))
   \                     ??LEUART_Tx_0: (+1)
   \   00000006   0x68A0             LDR      R0,[R4, #+8]
   \   00000008   0x06C0             LSLS     R0,R0,#+27
   \   0000000A   0xD5FC             BPL.N    ??LEUART_Tx_0
    602              ;
    603          
    604            /* LF register about to be modified require sync. busy check */
    605            LEUART_Sync(leuart, LEUART_SYNCBUSY_TXDATA);
   \   0000000C   0x2140             MOVS     R1,#+64
   \   0000000E   0x0020             MOVS     R0,R4
   \   00000010   0x.... 0x....      BL       LEUART_Sync
    606          
    607            leuart->TXDATA = (uint32_t)data;
   \   00000014   0xB2ED             UXTB     R5,R5            ;; ZeroExt  R5,R5,#+24,#+24
   \   00000016   0x62A5             STR      R5,[R4, #+40]
    608          }
   \   00000018   0xBD31             POP      {R0,R4,R5,PC}    ;; return
    609          
    610          
    611          /***************************************************************************//**
    612           * @brief
    613           *   Transmit one 8-9 bit frame with extended control.
    614           *
    615           * @details
    616           *   Notice that possible parity/stop bits in asynchronous mode are not
    617           *   considered part of specified frame bit length.
    618           *
    619           * @note
    620           *   This function will stall if buffer is full, until buffer becomes available.
    621           *
    622           * @param[in] leuart
    623           *   Pointer to LEUART peripheral register block.
    624           *
    625           * @param[in] data
    626           *   Data to transmit with extended control. Least significant bits contains
    627           *   frame bits, and additional control bits are available as documented in
    628           *   the EFM32 reference manual (set to 0 if not used).
    629           ******************************************************************************/

   \                                 In section .text, align 2, keep-with-next
    630          void LEUART_TxExt(LEUART_TypeDef *leuart, uint16_t data)
    631          {
   \                     LEUART_TxExt: (+1)
   \   00000000   0xB538             PUSH     {R3-R5,LR}
   \   00000002   0x0004             MOVS     R4,R0
   \   00000004   0x000D             MOVS     R5,R1
    632            /* Check that transmit buffer is empty */
    633            while (!(leuart->STATUS & LEUART_STATUS_TXBL))
   \                     ??LEUART_TxExt_0: (+1)
   \   00000006   0x68A0             LDR      R0,[R4, #+8]
   \   00000008   0x06C0             LSLS     R0,R0,#+27
   \   0000000A   0xD5FC             BPL.N    ??LEUART_TxExt_0
    634              ;
    635          
    636            /* LF register about to be modified require sync. busy check */
    637            LEUART_Sync(leuart, LEUART_SYNCBUSY_TXDATAX);
   \   0000000C   0x2120             MOVS     R1,#+32
   \   0000000E   0x0020             MOVS     R0,R4
   \   00000010   0x.... 0x....      BL       LEUART_Sync
    638          
    639            leuart->TXDATAX = (uint32_t)data;
   \   00000014   0xB2AD             UXTH     R5,R5            ;; ZeroExt  R5,R5,#+16,#+16
   \   00000016   0x6265             STR      R5,[R4, #+36]
    640          }
   \   00000018   0xBD31             POP      {R0,R4,R5,PC}    ;; return

   \                                 In section .text, align 4, keep-with-next
   \                     ??DataTable1:
   \   00000000   0x40084000         DC32     0x40084000

   \                                 In section .text, align 4, keep-with-next
   \                     ??DataTable1_1:
   \   00000000   0x00140540         DC32     0x140540

   \                                 In section .text, align 4, keep-with-next
   \                     ??DataTable1_2:
   \   00000000   0x40084400         DC32     0x40084400

   \                                 In section .text, align 4, keep-with-next
   \                     ??DataTable1_3:
   \   00000000   0x00161540         DC32     0x161540
    641          
    642          
    643          /** @} (end addtogroup LEUART) */
    644          /** @} (end addtogroup EM_Library) */

   Maximum stack usage in bytes:

   .cstack Function
   ------- --------
      12   LEUART_BaudrateCalc
      16   LEUART_BaudrateGet
        16   -> CMU_ClockFreqGet
        16   -> LEUART_BaudrateCalc
      24   LEUART_BaudrateSet
        24   -> CMU_ClockFreqGet
        24   -> LEUART_Sync
      16   LEUART_Enable
        16   -> LEUART_Sync
       0   LEUART_FreezeEnable
      16   LEUART_Init
        16   -> LEUART_BaudrateSet
        16   -> LEUART_FreezeEnable
        16   -> LEUART_Sync
       8   LEUART_Reset
         8   -> LEUART_FreezeEnable
       0   LEUART_Rx
       0   LEUART_RxExt
       0   LEUART_Sync
      16   LEUART_Tx
        16   -> LEUART_Sync
      16   LEUART_TxExt
        16   -> LEUART_Sync


   Section sizes:

   Bytes  Function/Label
   -----  --------------
       4  ??DataTable1
       4  ??DataTable1_1
       4  ??DataTable1_2
       4  ??DataTable1_3
      60  LEUART_BaudrateCalc
      50  LEUART_BaudrateGet
      80  LEUART_BaudrateSet
      34  LEUART_Enable
      24  LEUART_FreezeEnable
      70  LEUART_Init
      60  LEUART_Reset
      12  LEUART_Rx
      12  LEUART_RxExt
      14  LEUART_Sync
      26  LEUART_Tx
      26  LEUART_TxExt

 
 484 bytes in section .text
 
 484 bytes of CODE memory

Errors: none
Warnings: none
