###############################################################################
#
# IAR ANSI C/C++ Compiler V7.80.4.12462/W32 for ARM       12/Dec/2022  11:41:19
# Copyright 1999-2017 IAR Systems AB.
#
#    Cpu mode     =  thumb
#    Endian       =  little
#    Source file  =  
#        C:\Users\shaomingkun\Desktop\git\evolve5.0\2021sw\ECOM-5\Modules\USB_lib\usb\src\em_usbdch9.c
#    Command line =  
#        C:\Users\shaomingkun\Desktop\git\evolve5.0\2021sw\ECOM-5\Modules\USB_lib\usb\src\em_usbdch9.c
#        -D EFM32LG380F256 -D BSP_CORTEX_EFM32 -D DEBUG_EFM_JJ -D
#        RF_MODULE_EXIST____ -lC
#        C:\Users\shaomingkun\Desktop\git\evolve5.0\2021sw\ECOM-5\Debug\List
#        -lA
#        C:\Users\shaomingkun\Desktop\git\evolve5.0\2021sw\ECOM-5\Debug\List -o
#        C:\Users\shaomingkun\Desktop\git\evolve5.0\2021sw\ECOM-5\Debug\Obj
#        --no_cse --no_unroll --no_inline --no_code_motion --no_tbaa
#        --no_clustering --no_scheduling --debug --endian=little
#        --cpu=Cortex-M3 -e --fpu=None --dlib_config "C:\Program Files
#        (x86)\IAR Systems\Embedded Workbench
#        7.5\arm\INC\c\DLib_Config_Normal.h" -I
#        C:\Users\shaomingkun\Desktop\git\evolve5.0\2021sw\ECOM-5\ -I
#        C:\Users\shaomingkun\Desktop\git\evolve5.0\2021sw\ECOM-5\Local\ -I
#        C:\Users\shaomingkun\Desktop\git\evolve5.0\2021sw\ECOM-5\Modules\ -I
#        C:\Users\shaomingkun\Desktop\git\evolve5.0\2021sw\ECOM-5\Modules\Utilities_Lib\
#        -I
#        C:\Users\shaomingkun\Desktop\git\evolve5.0\2021sw\ECOM-5\Modules\HAL_Lib\
#        -I
#        C:\Users\shaomingkun\Desktop\git\evolve5.0\2021sw\ECOM-5\Modules\LCB_Lib\
#        -I
#        C:\Users\shaomingkun\Desktop\git\evolve5.0\2021sw\ECOM-5\Modules\Eng_lib\
#        -I
#        C:\Users\shaomingkun\Desktop\git\evolve5.0\2021sw\ECOM-5\..\Modules\Eng_lib\
#        -I
#        C:\Users\shaomingkun\Desktop\git\evolve5.0\2021sw\ECOM-5\Modules\SystemConfig_Lib\
#        -I
#        C:\Users\shaomingkun\Desktop\git\evolve5.0\2021sw\ECOM-5\Modules\EFM32_lib\
#        -I
#        C:\Users\shaomingkun\Desktop\git\evolve5.0\2021sw\ECOM-5\Modules\EFM32_lib\drivers\
#        -I
#        C:\Users\shaomingkun\Desktop\git\evolve5.0\2021sw\ECOM-5\Modules\Program_lib\
#        -I
#        C:\Users\shaomingkun\Desktop\git\evolve5.0\2021sw\ECOM-5\Modules\RF_lib\
#        -I
#        C:\Users\shaomingkun\Desktop\git\evolve5.0\2021sw\ECOM-5\Modules\USB_lib\
#        -I
#        C:\Users\shaomingkun\Desktop\git\evolve5.0\2021sw\ECOM-5\Modules\USB_lib\usb\src\
#        -I
#        C:\Users\shaomingkun\Desktop\git\evolve5.0\2021sw\ECOM-5\Modules\USB_lib\usb\inc\
#        -I
#        C:\Users\shaomingkun\Desktop\git\evolve5.0\2021sw\ECOM-5\Modules\Bluetooth_lib\
#        -I
#        C:\Users\shaomingkun\Desktop\git\evolve5.0\2021sw\ECOM-5\Modules\Remote_lib\
#        -I
#        C:\Users\shaomingkun\Desktop\git\evolve5.0\2021sw\ECOM-5\Modules\EFM32_lib\Include\
#        -I
#        C:\Users\shaomingkun\Desktop\git\evolve5.0\2021sw\ECOM-5\Modules\EFM32_lib\emlib\inc\
#        -I
#        C:\Users\shaomingkun\Desktop\git\evolve5.0\2021sw\ECOM-5\Modules\EFM32_lib\emlib\src\
#        -I
#        C:\Users\shaomingkun\Desktop\git\evolve5.0\2021sw\ECOM-5\Modules\EFM32_lib\drivers\fatfs\src\
#        -I
#        C:\Users\shaomingkun\Desktop\git\evolve5.0\2021sw\ECOM-5\Modules\EFM32_lib\Device\EnergyMicro\EFM32LG\Include\
#        -I
#        C:\Users\shaomingkun\Desktop\git\evolve5.0\2021sw\ECOM-5\Modules\EFM32_lib\Device\EnergyMicro\EFM32LG\Source\
#        -I
#        C:\Users\shaomingkun\Desktop\git\evolve5.0\2021sw\ECOM-5\Modules\EFM32_lib\Device\EnergyMicro\EFM32LG\Source\IAR\
#        -I
#        C:\Users\shaomingkun\Desktop\git\evolve5.0\2021sw\ECOM-5\Modules\RTT_Lib\
#        -On
#    Locale       =  Chinese (Simplified)_China.936
#    List file    =  
#        C:\Users\shaomingkun\Desktop\git\evolve5.0\2021sw\ECOM-5\Debug\List\em_usbdch9.lst
#    Object file  =  
#        C:\Users\shaomingkun\Desktop\git\evolve5.0\2021sw\ECOM-5\Debug\Obj\em_usbdch9.o
#
###############################################################################

C:\Users\shaomingkun\Desktop\git\evolve5.0\2021sw\ECOM-5\Modules\USB_lib\usb\src\em_usbdch9.c
      1          /**************************************************************************//**
      2           * @file
      3           * @brief USB protocol stack library, USB chapter 9 command handler.
      4           * @author Energy Micro AS
      5           * @version 3.0.1
      6           ******************************************************************************
      7           * @section License
      8           * <b>(C) Copyright 2012 Energy Micro AS, http://www.energymicro.com</b>
      9           *******************************************************************************
     10           *
     11           * Permission is granted to anyone to use this software for any purpose,
     12           * including commercial applications, and to alter it and redistribute it
     13           * freely, subject to the following restrictions:
     14           *
     15           * 1. The origin of this software must not be misrepresented; you must not
     16           *    claim that you wrote the original software.
     17           * 2. Altered source versions must be plainly marked as such, and must not be
     18           *    misrepresented as being the original software.
     19           * 3. This notice may not be removed or altered from any source distribution.
     20           * 4. The source and compiled code may only be used on Energy Micro "EFM32"
     21           *    microcontrollers and "EFR4" radios.
     22           *
     23           * DISCLAIMER OF WARRANTY/LIMITATION OF REMEDIES: Energy Micro AS has no
     24           * obligation to support this Software. Energy Micro AS is providing the
     25           * Software "AS IS", with no express or implied warranties of any kind,
     26           * including, but not limited to, any implied warranties of merchantability
     27           * or fitness for any particular purpose or warranties against infringement
     28           * of any proprietary rights of a third party.
     29           *
     30           * Energy Micro AS will not be liable for any consequential, incidental, or
     31           * special damages, or any other relief, or for any claim by any third party,
     32           * arising from your use of this Software.
     33           *
     34           *****************************************************************************/
     35          #include "em_part.h"
     36          #if defined( USB_PRESENT ) && ( USB_COUNT == 1 )
     37          #include "em_usb.h"

  EFM32_PACK_START( 1 )
                    ^
"C:\Users\shaomingkun\Desktop\git\evolve5.0\2021sw\ECOM-5\Modules\USB_lib\usb\inc\em_usb.h",318  Warning[Pe1665]: 
          concatenation with "1)" in macro "EFM32_PACK_START" does not create a
          valid token

  EFM32_PACK_START( 1 )
  ^
"C:\Users\shaomingkun\Desktop\git\evolve5.0\2021sw\ECOM-5\Modules\USB_lib\usb\inc\em_usb.h",318  Warning[Pe1665]: 
          concatenation with ")" in macro "EFM32_PACK_START" does not create a
          valid token

  EFM32_PACK_START( 1 )
                    ^
"C:\Users\shaomingkun\Desktop\git\evolve5.0\2021sw\ECOM-5\Modules\USB_lib\usb\inc\em_usb.h",347  Warning[Pe1665]: 
          concatenation with "1)" in macro "EFM32_PACK_START" does not create a
          valid token

  EFM32_PACK_START( 1 )
  ^
"C:\Users\shaomingkun\Desktop\git\evolve5.0\2021sw\ECOM-5\Modules\USB_lib\usb\inc\em_usb.h",347  Warning[Pe1665]: 
          concatenation with ")" in macro "EFM32_PACK_START" does not create a
          valid token

  EFM32_PACK_START( 1 )
                    ^
"C:\Users\shaomingkun\Desktop\git\evolve5.0\2021sw\ECOM-5\Modules\USB_lib\usb\inc\em_usb.h",371  Warning[Pe1665]: 
          concatenation with "1)" in macro "EFM32_PACK_START" does not create a
          valid token

  EFM32_PACK_START( 1 )
  ^
"C:\Users\shaomingkun\Desktop\git\evolve5.0\2021sw\ECOM-5\Modules\USB_lib\usb\inc\em_usb.h",371  Warning[Pe1665]: 
          concatenation with ")" in macro "EFM32_PACK_START" does not create a
          valid token

  EFM32_PACK_START( 1 )
                    ^
"C:\Users\shaomingkun\Desktop\git\evolve5.0\2021sw\ECOM-5\Modules\USB_lib\usb\inc\em_usb.h",400  Warning[Pe1665]: 
          concatenation with "1)" in macro "EFM32_PACK_START" does not create a
          valid token

  EFM32_PACK_START( 1 )
  ^
"C:\Users\shaomingkun\Desktop\git\evolve5.0\2021sw\ECOM-5\Modules\USB_lib\usb\inc\em_usb.h",400  Warning[Pe1665]: 
          concatenation with ")" in macro "EFM32_PACK_START" does not create a
          valid token

  EFM32_PACK_START( 1 )
                    ^
"C:\Users\shaomingkun\Desktop\git\evolve5.0\2021sw\ECOM-5\Modules\USB_lib\usb\inc\em_usb.h",441  Warning[Pe1665]: 
          concatenation with "1)" in macro "EFM32_PACK_START" does not create a
          valid token

  EFM32_PACK_START( 1 )
  ^
"C:\Users\shaomingkun\Desktop\git\evolve5.0\2021sw\ECOM-5\Modules\USB_lib\usb\inc\em_usb.h",441  Warning[Pe1665]: 
          concatenation with ")" in macro "EFM32_PACK_START" does not create a
          valid token

  EFM32_PACK_START( 1 )
                    ^
"C:\Users\shaomingkun\Desktop\git\evolve5.0\2021sw\ECOM-5\Modules\USB_lib\usb\inc\em_usb.h",455  Warning[Pe1665]: 
          concatenation with "1)" in macro "EFM32_PACK_START" does not create a
          valid token

  EFM32_PACK_START( 1 )
  ^
"C:\Users\shaomingkun\Desktop\git\evolve5.0\2021sw\ECOM-5\Modules\USB_lib\usb\inc\em_usb.h",455  Warning[Pe1665]: 
          concatenation with ")" in macro "EFM32_PACK_START" does not create a
          valid token
     38          #if defined( USB_DEVICE )
     39          
     40          #include "em_usbtypes.h"
     41          #include "em_usbhal.h"
     42          #include "em_usbd.h"
     43          
     44          /** @cond DO_NOT_INCLUDE_WITH_DOXYGEN */
     45          
     46          static USB_Status_TypeDef ClearFeature     ( USBD_Device_TypeDef *pDev );
     47          static USB_Status_TypeDef GetConfiguration ( USBD_Device_TypeDef *pDev );
     48          static USB_Status_TypeDef GetDescriptor    ( USBD_Device_TypeDef *pDev );
     49          static USB_Status_TypeDef GetInterface     ( USBD_Device_TypeDef *pDev );
     50          static USB_Status_TypeDef GetStatus        ( USBD_Device_TypeDef *pDev );
     51          static USB_Status_TypeDef SetAddress       ( USBD_Device_TypeDef *pDev );
     52          static USB_Status_TypeDef SetConfiguration ( USBD_Device_TypeDef *pDev );
     53          static USB_Status_TypeDef SetFeature       ( USBD_Device_TypeDef *pDev );
     54          static USB_Status_TypeDef SetInterface     ( USBD_Device_TypeDef *pDev );
     55          
     56          static uint32_t txBuf;
     57          
     58          int USBDCH9_SetupCmd( USBD_Device_TypeDef *device )
     59          {
     60            int status;
     61            USB_Setup_TypeDef *p = device->setup;
     62          
     63            /* Vendor unique, Class or Standard setup commands override ? */
     64            if ( device->callbacks->setupCmd )
     65            {
     66              status = device->callbacks->setupCmd( p );
     67          
     68              if ( status != USB_STATUS_REQ_UNHANDLED )
     69              {
     70                return status;
     71              }
     72            }
     73          
     74            status = USB_STATUS_REQ_ERR;
     75          
     76            if ( p->Type == USB_SETUP_TYPE_STANDARD )
     77            {
     78              switch ( p->bRequest )
     79              {
     80                case GET_STATUS:
     81                  status = GetStatus( device );
     82                  break;
     83          
     84                case CLEAR_FEATURE:
     85                  status = ClearFeature( device );
     86                  break;
     87          
     88                case SET_FEATURE:
     89                  status = SetFeature( device );
     90                  break;
     91          
     92                case SET_ADDRESS:
     93                  status = SetAddress( device );
     94                  break;
     95          
     96                case GET_DESCRIPTOR:
     97                  status = GetDescriptor( device );
     98                  break;
     99          
    100                case GET_CONFIGURATION:
    101                  status = GetConfiguration( device );
    102                  break;
    103          
    104                case SET_CONFIGURATION:
    105                  status = SetConfiguration( device );
    106                  break;
    107          
    108                case GET_INTERFACE:
    109                  status = GetInterface( device );
    110                  break;
    111          
    112                case SET_INTERFACE:
    113                  status = SetInterface( device );
    114                  break;
    115          
    116                case SYNCH_FRAME:     /* Synch frame is for isochronous endpoints */
    117                case SET_DESCRIPTOR:  /* Set descriptor is optional */
    118                default:
    119                  break;
    120              }
    121            }
    122          
    123            return status;
    124          }
    125          
    126          static USB_Status_TypeDef ClearFeature( USBD_Device_TypeDef *pDev )
    127          {
    128            USBD_Ep_TypeDef *ep;
    129            USB_Setup_TypeDef *p = pDev->setup;
    130            USB_Status_TypeDef retVal = USB_STATUS_REQ_ERR;
    131          
    132            if ( p->wLength != 0 )
    133            {
    134              return USB_STATUS_REQ_ERR;
    135            }
    136          
    137            switch ( p->Recipient )
    138            {
    139              case USB_SETUP_RECIPIENT_DEVICE:
    140                if ( ( p->wIndex == 0                                 ) && /* ITF no. 0 */
    141                     ( p->wValue == USB_FEATURE_DEVICE_REMOTE_WAKEUP  ) &&
    142                     ( ( pDev->state == USBD_STATE_ADDRESSED     ) ||
    143                       ( pDev->state == USBD_STATE_CONFIGURED    )    )    )
    144                {
    145                  /* Remote wakeup feature clear */
    146                  if ( pDev->configDescriptor->bmAttributes & CONFIG_DESC_BM_REMOTEWAKEUP )
    147                    {
    148                    /* The device is capable of signalling remote wakeup */
    149                    pDev->remoteWakeupEnabled = false;
    150                    retVal = USB_STATUS_OK;
    151                    }
    152                }
    153                break;
    154          
    155              case USB_SETUP_RECIPIENT_ENDPOINT:
    156                ep = USBD_GetEpFromAddr( p->wIndex & 0xFF );
    157                if ( ep )
    158                {
    159                  if ( ( ep->num > 0                            ) &&
    160                       ( p->wValue == USB_FEATURE_ENDPOINT_HALT ) &&
    161                       ( pDev->state == USBD_STATE_CONFIGURED   )    )
    162                  {
    163                    retVal = USBDHAL_UnStallEp( ep );
    164                  }
    165                }
    166            }
    167          
    168            return retVal;
    169          }
    170          
    171          static USB_Status_TypeDef GetConfiguration( USBD_Device_TypeDef *pDev )
    172          {
    173            USB_Setup_TypeDef *p = pDev->setup;
    174            uint8_t *pConfigValue = (uint8_t*)&txBuf;
    175            USB_Status_TypeDef retVal = USB_STATUS_REQ_ERR;
    176          
    177            if ( ( p->wIndex    != 0                          ) ||
    178                 ( p->wLength   != 1                          ) ||
    179                 ( p->wValue    != 0                          ) ||
    180                 ( p->Direction != USB_SETUP_DIR_IN           ) ||
    181                 ( p->Recipient != USB_SETUP_RECIPIENT_DEVICE )    )
    182            {
    183              return USB_STATUS_REQ_ERR;
    184            }
    185          
    186            if ( pDev->state == USBD_STATE_ADDRESSED )
    187            {
    188              *pConfigValue = 0;
    189              USBD_Write( 0, pConfigValue, 1, NULL );
    190              retVal = USB_STATUS_OK;
    191            }
    192          
    193            else if ( pDev->state == USBD_STATE_CONFIGURED )
    194            {
    195              USBD_Write( 0, &pDev->configurationValue, 1, NULL );
    196              retVal = USB_STATUS_OK;
    197            }
    198          
    199            return retVal;
    200          }
    201          
    202          static USB_Status_TypeDef GetDescriptor( USBD_Device_TypeDef *pDev )
    203          {
    204            int index;
    205            uint16_t length = 0;
    206            const void *data = NULL;
    207            USB_Setup_TypeDef *p = pDev->setup;
    208            USB_Status_TypeDef retVal = USB_STATUS_REQ_ERR;
    209          
    210            if ( ( p->Recipient != USB_SETUP_RECIPIENT_DEVICE ) ||
    211                 ( p->Direction != USB_SETUP_DIR_IN           )    )
    212            {
    213              return USB_STATUS_REQ_ERR;
    214            }
    215          
    216            index = p->wValue & 0xFF;
    217            switch ( p->wValue >> 8 )
    218            {
    219              case USB_DEVICE_DESCRIPTOR :
    220                if ( index != 0 )
    221                {
    222                  break;
    223                }
    224                data   = pDev->deviceDescriptor;
    225                length = pDev->deviceDescriptor->bLength;
    226                break;
    227          
    228              case USB_CONFIG_DESCRIPTOR :
    229                if ( index != 0 )
    230                {
    231                  break;
    232                }
    233                data   = pDev->configDescriptor;
    234                length = pDev->configDescriptor->wTotalLength;
    235                break;
    236          
    237              case USB_STRING_DESCRIPTOR :
    238                if ( index < pDev->numberOfStrings )
    239                {
    240                  USB_StringDescriptor_TypeDef *s;
    241                  s = ((USB_StringDescriptor_TypeDef**)pDev->stringDescriptors)[index];
    242          
    243                  data   = s;
    244                  length = s->len;
    245                }
    246                break;
    247            }
    248          
    249            if ( length )
    250            {
    251              USBD_Write( 0, (void*)data, EFM32_MIN( length, p->wLength ), NULL );
    252              retVal = USB_STATUS_OK;
    253            }
    254          
    255            return retVal;
    256          }
    257          
    258          static USB_Status_TypeDef GetInterface( USBD_Device_TypeDef *pDev )
    259          {
    260            USB_Setup_TypeDef *p = pDev->setup;
    261            USB_Status_TypeDef retVal = USB_STATUS_REQ_ERR;
    262            uint8_t *pAlternateSetting = (uint8_t*)&txBuf;
    263          
    264            /* There is currently support for one interface and no alternate settings */
    265          
    266            if ( ( p->wIndex      != 0                             ) ||
    267                 ( p->wLength     != 1                             ) ||
    268                 ( p->wValue      != 0                             ) ||
    269                 ( p->Direction   != USB_SETUP_DIR_IN              ) ||
    270                 ( p->Recipient   != USB_SETUP_RECIPIENT_INTERFACE )    )
    271            {
    272              return USB_STATUS_REQ_ERR;
    273            }
    274          
    275            if ( pDev->state == USBD_STATE_CONFIGURED )
    276            {
    277              *pAlternateSetting = 0;
    278              USBD_Write( 0, pAlternateSetting, 1, NULL );
    279              retVal = USB_STATUS_OK;
    280            }
    281          
    282            return retVal;
    283          }
    284          
    285          static USB_Status_TypeDef GetStatus( USBD_Device_TypeDef *pDev )
    286          {
    287            USBD_Ep_TypeDef *ep;
    288            USB_Setup_TypeDef *p = pDev->setup;
    289            uint16_t *pStatus = (uint16_t*)&txBuf;
    290            USB_Status_TypeDef retVal = USB_STATUS_REQ_ERR;
    291          
    292            if ( ( p->wValue    != 0                ) ||
    293                 ( p->wLength   != 2                ) ||
    294                 ( p->Direction != USB_SETUP_DIR_IN )    )
    295            {
    296              return USB_STATUS_REQ_ERR;
    297            }
    298          
    299            switch ( p->Recipient )
    300            {
    301              case USB_SETUP_RECIPIENT_DEVICE:
    302                if ( ( p->wIndex == 0                              ) &&
    303                     ( ( pDev->state == USBD_STATE_ADDRESSED  ) ||
    304                       ( pDev->state == USBD_STATE_CONFIGURED )    )    )
    305                {
    306                  *pStatus = 0;
    307          
    308                  /* Remote wakeup feature status */
    309                  if ( pDev->remoteWakeupEnabled )
    310                    *pStatus |= REMOTE_WAKEUP_ENABLED;
    311          
    312                  /* Current self/bus power status */
    313                  if ( pDev->callbacks->isSelfPowered != NULL )
    314                  {
    315                    if ( pDev->callbacks->isSelfPowered() )
    316                    {
    317                      *pStatus |= DEVICE_IS_SELFPOWERED;
    318                    }
    319                  }
    320                  else
    321                  {
    322                    if ( pDev->configDescriptor->bmAttributes & CONFIG_DESC_BM_SELFPOWERED )
    323                    {
    324                      *pStatus |= DEVICE_IS_SELFPOWERED;
    325                    }
    326                  }
    327          
    328                  USBD_Write( 0, pStatus, 2, NULL );
    329                  retVal = USB_STATUS_OK;
    330                }
    331                break;
    332          
    333              case USB_SETUP_RECIPIENT_INTERFACE:
    334                if ( ( p->wIndex == 0                              ) &&
    335                     ( ( pDev->state == USBD_STATE_ADDRESSED  ) ||
    336                       ( pDev->state == USBD_STATE_CONFIGURED )    )    )
    337                {
    338                  *pStatus = 0;
    339                  USBD_Write( 0, pStatus, 2, NULL );
    340                  retVal = USB_STATUS_OK;
    341                }
    342                break;
    343          
    344              case USB_SETUP_RECIPIENT_ENDPOINT:
    345                ep = USBD_GetEpFromAddr( p->wIndex & 0xFF );
    346                if ( ep )
    347                {
    348                  if ( ( ep->num > 0                          ) &&
    349                       ( pDev->state == USBD_STATE_CONFIGURED )    )
    350                  {
    351                    /* Send 2 bytes w/halt status for endpoint */
    352                    retVal = USBDHAL_GetStallStatusEp( ep, pStatus );
    353                    if ( retVal == USB_STATUS_OK )
    354                    {
    355                      USBD_Write( 0, pStatus, 2, NULL );
    356                    }
    357                  }
    358                }
    359                break;
    360            }
    361          
    362            return retVal;
    363          }
    364          
    365          static USB_Status_TypeDef SetAddress( USBD_Device_TypeDef *pDev )
    366          {
    367            USB_Setup_TypeDef *p = pDev->setup;
    368            USB_Status_TypeDef retVal = USB_STATUS_REQ_ERR;
    369          
    370            if ( ( p->wIndex    != 0                          ) ||
    371                 ( p->wLength   != 0                          ) ||
    372                 ( p->wValue    >  127                        ) ||
    373                 ( p->Recipient != USB_SETUP_RECIPIENT_DEVICE )    )
    374            {
    375              return USB_STATUS_REQ_ERR;
    376            }
    377          
    378            if ( pDev->state == USBD_STATE_DEFAULT )
    379            {
    380              if ( p->wValue != 0 )
    381              {
    382                USBD_SetUsbState( USBD_STATE_ADDRESSED );
    383              }
    384              USBDHAL_SetAddr( p->wValue );
    385              retVal = USB_STATUS_OK;
    386            }
    387          
    388            else if ( pDev->state == USBD_STATE_ADDRESSED )
    389            {
    390              if ( p->wValue == 0 )
    391              {
    392                USBD_SetUsbState( USBD_STATE_DEFAULT );
    393              }
    394              USBDHAL_SetAddr( p->wValue );
    395              retVal = USB_STATUS_OK;
    396            }
    397          
    398            return retVal;
    399          }
    400          
    401          static USB_Status_TypeDef SetConfiguration( USBD_Device_TypeDef *pDev )
    402          {
    403            USB_Setup_TypeDef *p = pDev->setup;
    404            USB_Status_TypeDef retVal = USB_STATUS_REQ_ERR;
    405          
    406            if ( ( p->wIndex      != 0                          ) ||
    407                 ( p->wLength     != 0                          ) ||
    408                 ( (p->wValue>>8) != 0                          ) ||
    409                 ( p->Recipient   != USB_SETUP_RECIPIENT_DEVICE )    )
    410            {
    411              return USB_STATUS_REQ_ERR;
    412            }
    413          
    414            if ( pDev->state == USBD_STATE_ADDRESSED )
    415            {
    416              if ( ( p->wValue == 0                                           ) ||
    417                   ( p->wValue == pDev->configDescriptor->bConfigurationValue )    )
    418              {
    419                pDev->configurationValue = p->wValue;
    420                if ( p->wValue == pDev->configDescriptor->bConfigurationValue )
    421                {
    422                  USBD_ActivateAllEps( true );
    423                  USBD_SetUsbState( USBD_STATE_CONFIGURED );
    424                }
    425                retVal = USB_STATUS_OK;
    426              }
    427            }
    428          
    429            else if ( pDev->state == USBD_STATE_CONFIGURED )
    430            {
    431              if ( ( p->wValue == 0                                           ) ||
    432                   ( p->wValue == pDev->configDescriptor->bConfigurationValue )    )
    433              {
    434                pDev->configurationValue = p->wValue;
    435                if ( p->wValue == 0 )
    436                {
    437                  USBD_SetUsbState( USBD_STATE_ADDRESSED );
    438                  USBD_DeactivateAllEps( USB_STATUS_DEVICE_UNCONFIGURED );
    439                }
    440                else
    441                {
    442                  /* Reenable device endpoints, will reset data toggles */
    443                  USBD_ActivateAllEps( false );
    444                }
    445                retVal = USB_STATUS_OK;
    446              }
    447            }
    448          
    449            return retVal;
    450          }
    451          
    452          static USB_Status_TypeDef SetFeature( USBD_Device_TypeDef *pDev )
    453          {
    454            USBD_Ep_TypeDef *ep;
    455            USB_XferCompleteCb_TypeDef callback;
    456            USB_Setup_TypeDef *p = pDev->setup;
    457            USB_Status_TypeDef retVal = USB_STATUS_REQ_ERR;
    458          
    459            if ( p->wLength != 0 )
    460            {
    461              return USB_STATUS_REQ_ERR;
    462            }
    463          
    464            switch ( p->Recipient )
    465            {
    466              case USB_SETUP_RECIPIENT_DEVICE:
    467                if ( ( p->wIndex == 0                                ) &&  /* ITF no. 0 */
    468                     ( p->wValue == USB_FEATURE_DEVICE_REMOTE_WAKEUP ) &&
    469                     ( pDev->state == USBD_STATE_CONFIGURED          )    )
    470                {
    471                  /* Remote wakeup feature set */
    472                  if ( pDev->configDescriptor->bmAttributes & CONFIG_DESC_BM_REMOTEWAKEUP )
    473                    {
    474                    /* The device is capable of signalling remote wakeup */
    475                    pDev->remoteWakeupEnabled = true;
    476                    retVal = USB_STATUS_OK;
    477                    }
    478                }
    479                break;
    480          
    481              case USB_SETUP_RECIPIENT_ENDPOINT:
    482                ep = USBD_GetEpFromAddr( p->wIndex & 0xFF );
    483                if ( ep )
    484                {
    485                  if ( ( ep->num > 0                            ) &&
    486                       ( p->wValue == USB_FEATURE_ENDPOINT_HALT ) &&
    487                       ( pDev->state == USBD_STATE_CONFIGURED   )    )
    488                  {
    489                    retVal = USBDHAL_StallEp( ep );
    490          
    491                    ep->state = D_EP_IDLE;
    492                    /* Call end of transfer callback for endpoint */
    493                    if ( ( retVal == USB_STATUS_OK ) &&
    494                         ( ep->state != D_EP_IDLE  ) &&
    495                         ( ep->xferCompleteCb      )    )
    496                    {
    497                      callback = ep->xferCompleteCb;
    498                      ep->xferCompleteCb = NULL;
    499                      DEBUG_USB_API_PUTS( "\nEP cb(), EP stalled" );
    500                      callback( USB_STATUS_EP_STALLED, ep->xferred, ep->remaining);
    501                    }
    502                  }
    503                }
    504            }
    505          
    506            return retVal;
    507          }
    508          
    509          static USB_Status_TypeDef SetInterface( USBD_Device_TypeDef *pDev )
    510          {
    511            USB_Setup_TypeDef *p = pDev->setup;
    512            USB_Status_TypeDef retVal = USB_STATUS_REQ_ERR;
    513          
    514            /* There is currently support for one interface and no alternate settings */
    515          
    516            if ( ( p->wIndex    == 0                             ) &&
    517                 ( p->wLength   == 0                             ) &&
    518                 ( p->wValue    == 0                             ) &&
    519                 ( pDev->state  == USBD_STATE_CONFIGURED         ) &&
    520                 ( p->Recipient == USB_SETUP_RECIPIENT_INTERFACE )    )
    521            {
    522              /* Reset data toggles on EP's */
    523              USBD_ActivateAllEps( false );
    524              return USB_STATUS_OK;
    525            }
    526            return retVal;
    527          }
    528          
    529          /** @endcond */
    530          
    531          #endif /* defined( USB_DEVICE ) */
    532          #endif /* defined( USB_PRESENT ) && ( USB_COUNT == 1 ) */


 

 


Errors: none
Warnings: 12
