###############################################################################
#
# IAR ANSI C/C++ Compiler V7.80.4.12462/W32 for ARM       12/Dec/2022  11:41:21
# Copyright 1999-2017 IAR Systems AB.
#
#    Cpu mode     =  thumb
#    Endian       =  little
#    Source file  =  
#        C:\Users\shaomingkun\Desktop\git\evolve5.0\2021sw\ECOM-5\Modules\USB_lib\drivers\fatfs\src\ff.c
#    Command line =  
#        C:\Users\shaomingkun\Desktop\git\evolve5.0\2021sw\ECOM-5\Modules\USB_lib\drivers\fatfs\src\ff.c
#        -D EFM32LG380F256 -D BSP_CORTEX_EFM32 -D DEBUG_EFM_JJ -D
#        RF_MODULE_EXIST____ -lC
#        C:\Users\shaomingkun\Desktop\git\evolve5.0\2021sw\ECOM-5\Debug\List
#        -lA
#        C:\Users\shaomingkun\Desktop\git\evolve5.0\2021sw\ECOM-5\Debug\List -o
#        C:\Users\shaomingkun\Desktop\git\evolve5.0\2021sw\ECOM-5\Debug\Obj
#        --no_cse --no_unroll --no_inline --no_code_motion --no_tbaa
#        --no_clustering --no_scheduling --debug --endian=little
#        --cpu=Cortex-M3 -e --fpu=None --dlib_config "C:\Program Files
#        (x86)\IAR Systems\Embedded Workbench
#        7.5\arm\INC\c\DLib_Config_Normal.h" -I
#        C:\Users\shaomingkun\Desktop\git\evolve5.0\2021sw\ECOM-5\ -I
#        C:\Users\shaomingkun\Desktop\git\evolve5.0\2021sw\ECOM-5\Local\ -I
#        C:\Users\shaomingkun\Desktop\git\evolve5.0\2021sw\ECOM-5\Modules\ -I
#        C:\Users\shaomingkun\Desktop\git\evolve5.0\2021sw\ECOM-5\Modules\Utilities_Lib\
#        -I
#        C:\Users\shaomingkun\Desktop\git\evolve5.0\2021sw\ECOM-5\Modules\HAL_Lib\
#        -I
#        C:\Users\shaomingkun\Desktop\git\evolve5.0\2021sw\ECOM-5\Modules\LCB_Lib\
#        -I
#        C:\Users\shaomingkun\Desktop\git\evolve5.0\2021sw\ECOM-5\Modules\Eng_lib\
#        -I
#        C:\Users\shaomingkun\Desktop\git\evolve5.0\2021sw\ECOM-5\..\Modules\Eng_lib\
#        -I
#        C:\Users\shaomingkun\Desktop\git\evolve5.0\2021sw\ECOM-5\Modules\SystemConfig_Lib\
#        -I
#        C:\Users\shaomingkun\Desktop\git\evolve5.0\2021sw\ECOM-5\Modules\EFM32_lib\
#        -I
#        C:\Users\shaomingkun\Desktop\git\evolve5.0\2021sw\ECOM-5\Modules\EFM32_lib\drivers\
#        -I
#        C:\Users\shaomingkun\Desktop\git\evolve5.0\2021sw\ECOM-5\Modules\Program_lib\
#        -I
#        C:\Users\shaomingkun\Desktop\git\evolve5.0\2021sw\ECOM-5\Modules\RF_lib\
#        -I
#        C:\Users\shaomingkun\Desktop\git\evolve5.0\2021sw\ECOM-5\Modules\USB_lib\
#        -I
#        C:\Users\shaomingkun\Desktop\git\evolve5.0\2021sw\ECOM-5\Modules\USB_lib\usb\src\
#        -I
#        C:\Users\shaomingkun\Desktop\git\evolve5.0\2021sw\ECOM-5\Modules\USB_lib\usb\inc\
#        -I
#        C:\Users\shaomingkun\Desktop\git\evolve5.0\2021sw\ECOM-5\Modules\Bluetooth_lib\
#        -I
#        C:\Users\shaomingkun\Desktop\git\evolve5.0\2021sw\ECOM-5\Modules\Remote_lib\
#        -I
#        C:\Users\shaomingkun\Desktop\git\evolve5.0\2021sw\ECOM-5\Modules\EFM32_lib\Include\
#        -I
#        C:\Users\shaomingkun\Desktop\git\evolve5.0\2021sw\ECOM-5\Modules\EFM32_lib\emlib\inc\
#        -I
#        C:\Users\shaomingkun\Desktop\git\evolve5.0\2021sw\ECOM-5\Modules\EFM32_lib\emlib\src\
#        -I
#        C:\Users\shaomingkun\Desktop\git\evolve5.0\2021sw\ECOM-5\Modules\EFM32_lib\drivers\fatfs\src\
#        -I
#        C:\Users\shaomingkun\Desktop\git\evolve5.0\2021sw\ECOM-5\Modules\EFM32_lib\Device\EnergyMicro\EFM32LG\Include\
#        -I
#        C:\Users\shaomingkun\Desktop\git\evolve5.0\2021sw\ECOM-5\Modules\EFM32_lib\Device\EnergyMicro\EFM32LG\Source\
#        -I
#        C:\Users\shaomingkun\Desktop\git\evolve5.0\2021sw\ECOM-5\Modules\EFM32_lib\Device\EnergyMicro\EFM32LG\Source\IAR\
#        -I
#        C:\Users\shaomingkun\Desktop\git\evolve5.0\2021sw\ECOM-5\Modules\RTT_Lib\
#        -On
#    Locale       =  Chinese (Simplified)_China.936
#    List file    =  
#        C:\Users\shaomingkun\Desktop\git\evolve5.0\2021sw\ECOM-5\Debug\List\ff.lst
#    Object file  =  
#        C:\Users\shaomingkun\Desktop\git\evolve5.0\2021sw\ECOM-5\Debug\Obj\ff.o
#
###############################################################################

C:\Users\shaomingkun\Desktop\git\evolve5.0\2021sw\ECOM-5\Modules\USB_lib\drivers\fatfs\src\ff.c
      1          /*----------------------------------------------------------------------------/
      2          /  FatFs - FAT file system module  R0.09                  (C)ChaN, 2011
      3          /-----------------------------------------------------------------------------/
      4          / FatFs module is a generic FAT file system module for small embedded systems.
      5          / This is a free software that opened for education, research and commercial
      6          / developments under license policy of following terms.
      7          /
      8          /  Copyright (C) 2011, ChaN, all right reserved.
      9          /
     10          / * The FatFs module is a free software and there is NO WARRANTY.
     11          / * No restriction on use. You can use, modify and redistribute it for
     12          /   personal, non-profit or commercial products UNDER YOUR RESPONSIBILITY.
     13          / * Redistributions of source code must retain the above copyright notice.
     14          /
     15          /-----------------------------------------------------------------------------/
     16          / Feb 26,'06 R0.00  Prototype.
     17          /
     18          / Apr 29,'06 R0.01  First stable version.
     19          /
     20          / Jun 01,'06 R0.02  Added FAT12 support.
     21          /                   Removed unbuffered mode.
     22          /                   Fixed a problem on small (<32M) partition.
     23          / Jun 10,'06 R0.02a Added a configuration option (_FS_MINIMUM).
     24          /
     25          / Sep 22,'06 R0.03  Added f_rename().
     26          /                   Changed option _FS_MINIMUM to _FS_MINIMIZE.
     27          / Dec 11,'06 R0.03a Improved cluster scan algorithm to write files fast.
     28          /                   Fixed f_mkdir() creates incorrect directory on FAT32.
     29          /
     30          / Feb 04,'07 R0.04  Supported multiple drive system.
     31          /                   Changed some interfaces for multiple drive system.
     32          /                   Changed f_mountdrv() to f_mount().
     33          /                   Added f_mkfs().
     34          / Apr 01,'07 R0.04a Supported multiple partitions on a physical drive.
     35          /                   Added a capability of extending file size to f_lseek().
     36          /                   Added minimization level 3.
     37          /                   Fixed an endian sensitive code in f_mkfs().
     38          / May 05,'07 R0.04b Added a configuration option _USE_NTFLAG.
     39          /                   Added FSInfo support.
     40          /                   Fixed DBCS name can result FR_INVALID_NAME.
     41          /                   Fixed short seek (<= csize) collapses the file object.
     42          /
     43          / Aug 25,'07 R0.05  Changed arguments of f_read(), f_write() and f_mkfs().
     44          /                   Fixed f_mkfs() on FAT32 creates incorrect FSInfo.
     45          /                   Fixed f_mkdir() on FAT32 creates incorrect directory.
     46          / Feb 03,'08 R0.05a Added f_truncate() and f_utime().
     47          /                   Fixed off by one error at FAT sub-type determination.
     48          /                   Fixed btr in f_read() can be mistruncated.
     49          /                   Fixed cached sector is not flushed when create and close without write.
     50          /
     51          / Apr 01,'08 R0.06  Added fputc(), fputs(), fprintf() and fgets().
     52          /                   Improved performance of f_lseek() on moving to the same or following cluster.
     53          /
     54          / Apr 01,'09 R0.07  Merged Tiny-FatFs as a configuration option. (_FS_TINY)
     55          /                   Added long file name feature.
     56          /                   Added multiple code page feature.
     57          /                   Added re-entrancy for multitask operation.
     58          /                   Added auto cluster size selection to f_mkfs().
     59          /                   Added rewind option to f_readdir().
     60          /                   Changed result code of critical errors.
     61          /                   Renamed string functions to avoid name collision.
     62          / Apr 14,'09 R0.07a Separated out OS dependent code on reentrant cfg.
     63          /                   Added multiple sector size feature.
     64          / Jun 21,'09 R0.07c Fixed f_unlink() can return FR_OK on error.
     65          /                   Fixed wrong cache control in f_lseek().
     66          /                   Added relative path feature.
     67          /                   Added f_chdir() and f_chdrive().
     68          /                   Added proper case conversion to extended char.
     69          / Nov 03,'09 R0.07e Separated out configuration options from ff.h to ffconf.h.
     70          /                   Fixed f_unlink() fails to remove a sub-dir on _FS_RPATH.
     71          /                   Fixed name matching error on the 13 char boundary.
     72          /                   Added a configuration option, _LFN_UNICODE.
     73          /                   Changed f_readdir() to return the SFN with always upper case on non-LFN cfg.
     74          /
     75          / May 15,'10 R0.08  Added a memory configuration option. (_USE_LFN = 3)
     76          /                   Added file lock feature. (_FS_SHARE)
     77          /                   Added fast seek feature. (_USE_FASTSEEK)
     78          /                   Changed some types on the API, XCHAR->TCHAR.
     79          /                   Changed fname member in the FILINFO structure on Unicode cfg.
     80          /                   String functions support UTF-8 encoding files on Unicode cfg.
     81          / Aug 16,'10 R0.08a Added f_getcwd(). (_FS_RPATH = 2)
     82          /                   Added sector erase feature. (_USE_ERASE)
     83          /                   Moved file lock semaphore table from fs object to the bss.
     84          /                   Fixed a wrong directory entry is created on non-LFN cfg when the given name contains ';'.
     85          /                   Fixed f_mkfs() creates wrong FAT32 volume.
     86          / Jan 15,'11 R0.08b Fast seek feature is also applied to f_read() and f_write().
     87          /                   f_lseek() reports required table size on creating CLMP.
     88          /                   Extended format syntax of f_printf function.
     89          /                   Ignores duplicated directory separators in given path names.
     90          /
     91          / Sep 06,'11 R0.09  f_mkfs() supports multiple partition to finish the multiple partition feature.
     92          /                   Added f_fdisk(). (_MULTI_PARTITION = 2)
     93          /---------------------------------------------------------------------------*/
     94          
     95          #include "ff.h"			/* FatFs configurations and declarations */
     96          #include "diskio.h"		/* Declarations of low level disk I/O functions */
     97          
     98          
     99          /*--------------------------------------------------------------------------
    100          
    101             Module Private Definitions
    102          
    103          ---------------------------------------------------------------------------*/
    104          
    105          #if _FATFS != 6502	/* Revision ID */
    106          #error Wrong include file (ff.h).
    107          #endif
    108          
    109          
    110          /* Definitions on sector size */
    111          #if _MAX_SS != 512 && _MAX_SS != 1024 && _MAX_SS != 2048 && _MAX_SS != 4096
    112          #error Wrong sector size.
    113          #endif
    114          #if _MAX_SS != 512
    115          #define	SS(fs)	((fs)->ssize)	/* Variable sector size */
    116          #else
    117          #define	SS(fs)	512U			/* Fixed sector size */
    118          #endif
    119          
    120          
    121          /* Reentrancy related */
    122          #if _FS_REENTRANT
    123          #if _USE_LFN == 1
    124          #error Static LFN work area must not be used in re-entrant configuration.
    125          #endif
    126          #define	ENTER_FF(fs)		{ if (!lock_fs(fs)) return FR_TIMEOUT; }
    127          #define	LEAVE_FF(fs, res)	{ unlock_fs(fs, res); return res; }
    128          #else
    129          #define	ENTER_FF(fs)
    130          #define LEAVE_FF(fs, res)	return res
    131          #endif
    132          
    133          #define	ABORT(fs, res)		{ fp->flag |= FA__ERROR; LEAVE_FF(fs, res); }
    134          
    135          
    136          /* File shareing feature */
    137          #if _FS_SHARE
    138          #if _FS_READONLY
    139          #error _FS_SHARE must be 0 on read-only cfg.
    140          #endif
    141          typedef struct {
    142          	FATFS *fs;				/* File ID 1, volume (NULL:blank entry) */
    143          	DWORD clu;				/* File ID 2, directory */
    144          	WORD idx;				/* File ID 3, directory index */
    145          	WORD ctr;				/* File open counter, 0:none, 0x01..0xFF:read open count, 0x100:write mode */
    146          } FILESEM;
    147          #endif
    148          
    149          
    150          /* Misc definitions */
    151          #define LD_CLUST(dir)	(((DWORD)LD_WORD(dir+DIR_FstClusHI)<<16) | LD_WORD(dir+DIR_FstClusLO))
    152          #define ST_CLUST(dir,cl) {ST_WORD(dir+DIR_FstClusLO, cl); ST_WORD(dir+DIR_FstClusHI, (DWORD)cl>>16);}
    153          
    154          
    155          /* DBCS code ranges and SBCS extend char conversion table */
    156          
    157          #if _CODE_PAGE == 932	/* Japanese Shift-JIS */
    158          #define _DF1S	0x81	/* DBC 1st byte range 1 start */
    159          #define _DF1E	0x9F	/* DBC 1st byte range 1 end */
    160          #define _DF2S	0xE0	/* DBC 1st byte range 2 start */
    161          #define _DF2E	0xFC	/* DBC 1st byte range 2 end */
    162          #define _DS1S	0x40	/* DBC 2nd byte range 1 start */
    163          #define _DS1E	0x7E	/* DBC 2nd byte range 1 end */
    164          #define _DS2S	0x80	/* DBC 2nd byte range 2 start */
    165          #define _DS2E	0xFC	/* DBC 2nd byte range 2 end */
    166          
    167          #elif _CODE_PAGE == 936	/* Simplified Chinese GBK */
    168          #define _DF1S	0x81
    169          #define _DF1E	0xFE
    170          #define _DS1S	0x40
    171          #define _DS1E	0x7E
    172          #define _DS2S	0x80
    173          #define _DS2E	0xFE
    174          
    175          #elif _CODE_PAGE == 949	/* Korean */
    176          #define _DF1S	0x81
    177          #define _DF1E	0xFE
    178          #define _DS1S	0x41
    179          #define _DS1E	0x5A
    180          #define _DS2S	0x61
    181          #define _DS2E	0x7A
    182          #define _DS3S	0x81
    183          #define _DS3E	0xFE
    184          
    185          #elif _CODE_PAGE == 950	/* Traditional Chinese Big5 */
    186          #define _DF1S	0x81
    187          #define _DF1E	0xFE
    188          #define _DS1S	0x40
    189          #define _DS1E	0x7E
    190          #define _DS2S	0xA1
    191          #define _DS2E	0xFE
    192          
    193          #elif _CODE_PAGE == 437	/* U.S. (OEM) */
    194          #define _DF1S	0
    195          #define _EXCVT {0x80,0x9A,0x90,0x41,0x8E,0x41,0x8F,0x80,0x45,0x45,0x45,0x49,0x49,0x49,0x8E,0x8F,0x90,0x92,0x92,0x4F,0x99,0x4F,0x55,0x55,0x59,0x99,0x9A,0x9B,0x9C,0x9D,0x9E,0x9F, \
    196          				0x41,0x49,0x4F,0x55,0xA5,0xA5,0xA6,0xA7,0xA8,0xA9,0xAA,0xAB,0xAC,0x21,0xAE,0xAF,0xB0,0xB1,0xB2,0xB3,0xB4,0xB5,0xB6,0xB7,0xB8,0xB9,0xBA,0xBB,0xBC,0xBD,0xBE,0xBF, \
    197          				0xC0,0xC1,0xC2,0xC3,0xC4,0xC5,0xC6,0xC7,0xC8,0xC9,0xCA,0xCB,0xCC,0xCD,0xCE,0xCF,0xD0,0xD1,0xD2,0xD3,0xD4,0xD5,0xD6,0xD7,0xD8,0xD9,0xDA,0xDB,0xDC,0xDD,0xDE,0xDF, \
    198          				0xE0,0xE1,0xE2,0xE3,0xE4,0xE5,0xE6,0xE7,0xE8,0xE9,0xEA,0xEB,0xEC,0xED,0xEE,0xEF,0xF0,0xF1,0xF2,0xF3,0xF4,0xF5,0xF6,0xF7,0xF8,0xF9,0xFA,0xFB,0xFC,0xFD,0xFE,0xFF}
    199          
    200          #elif _CODE_PAGE == 720	/* Arabic (OEM) */
    201          #define _DF1S	0
    202          #define _EXCVT {0x80,0x81,0x45,0x41,0x84,0x41,0x86,0x43,0x45,0x45,0x45,0x49,0x49,0x8D,0x8E,0x8F,0x90,0x92,0x92,0x93,0x94,0x95,0x49,0x49,0x98,0x99,0x9A,0x9B,0x9C,0x9D,0x9E,0x9F, \
    203          				0xA0,0xA1,0xA2,0xA3,0xA4,0xA5,0xA6,0xA7,0xA8,0xA9,0xAA,0xAB,0xAC,0xAD,0xAE,0xAF,0xB0,0xB1,0xB2,0xB3,0xB4,0xB5,0xB6,0xB7,0xB8,0xB9,0xBA,0xBB,0xBC,0xBD,0xBE,0xBF, \
    204          				0xC0,0xC1,0xC2,0xC3,0xC4,0xC5,0xC6,0xC7,0xC8,0xC9,0xCA,0xCB,0xCC,0xCD,0xCE,0xCF,0xD0,0xD1,0xD2,0xD3,0xD4,0xD5,0xD6,0xD7,0xD8,0xD9,0xDA,0xDB,0xDC,0xDD,0xDE,0xDF, \
    205          				0xE0,0xE1,0xE2,0xE3,0xE4,0xE5,0xE6,0xE7,0xE8,0xE9,0xEA,0xEB,0xEC,0xED,0xEE,0xEF,0xF0,0xF1,0xF2,0xF3,0xF4,0xF5,0xF6,0xF7,0xF8,0xF9,0xFA,0xFB,0xFC,0xFD,0xFE,0xFF}
    206          
    207          #elif _CODE_PAGE == 737	/* Greek (OEM) */
    208          #define _DF1S	0
    209          #define _EXCVT {0x80,0x81,0x82,0x83,0x84,0x85,0x86,0x87,0x88,0x89,0x8A,0x8B,0x8C,0x8D,0x8E,0x8F,0x90,0x92,0x92,0x93,0x94,0x95,0x96,0x97,0x80,0x81,0x82,0x83,0x84,0x85,0x86,0x87, \
    210          				0x88,0x89,0x8A,0x8B,0x8C,0x8D,0x8E,0x8F,0x90,0x91,0xAA,0x92,0x93,0x94,0x95,0x96,0xB0,0xB1,0xB2,0xB3,0xB4,0xB5,0xB6,0xB7,0xB8,0xB9,0xBA,0xBB,0xBC,0xBD,0xBE,0xBF, \
    211          				0xC0,0xC1,0xC2,0xC3,0xC4,0xC5,0xC6,0xC7,0xC8,0xC9,0xCA,0xCB,0xCC,0xCD,0xCE,0xCF,0xD0,0xD1,0xD2,0xD3,0xD4,0xD5,0xD6,0xD7,0xD8,0xD9,0xDA,0xDB,0xDC,0xDD,0xDE,0xDF, \
    212          				0x97,0xEA,0xEB,0xEC,0xE4,0xED,0xEE,0xE7,0xE8,0xF1,0xEA,0xEB,0xEC,0xED,0xEE,0xEF,0xF0,0xF1,0xF2,0xF3,0xF4,0xF5,0xF6,0xF7,0xF8,0xF9,0xFA,0xFB,0xFC,0xFD,0xFE,0xFF}
    213          
    214          #elif _CODE_PAGE == 775	/* Baltic (OEM) */
    215          #define _DF1S	0
    216          #define _EXCVT {0x80,0x9A,0x91,0xA0,0x8E,0x95,0x8F,0x80,0xAD,0xED,0x8A,0x8A,0xA1,0x8D,0x8E,0x8F,0x90,0x92,0x92,0xE2,0x99,0x95,0x96,0x97,0x97,0x99,0x9A,0x9D,0x9C,0x9D,0x9E,0x9F, \
    217          				0xA0,0xA1,0xE0,0xA3,0xA3,0xA5,0xA6,0xA7,0xA8,0xA9,0xAA,0xAB,0xAC,0xAD,0xAE,0xAF,0xB0,0xB1,0xB2,0xB3,0xB4,0xB5,0xB6,0xB7,0xB8,0xB9,0xBA,0xBB,0xBC,0xBD,0xBE,0xBF, \
    218          				0xC0,0xC1,0xC2,0xC3,0xC4,0xC5,0xC6,0xC7,0xC8,0xC9,0xCA,0xCB,0xCC,0xCD,0xCE,0xCF,0xB5,0xB6,0xB7,0xB8,0xBD,0xBE,0xC6,0xC7,0xA5,0xD9,0xDA,0xDB,0xDC,0xDD,0xDE,0xDF, \
    219          				0xE0,0xE1,0xE2,0xE3,0xE5,0xE5,0xE6,0xE3,0xE8,0xE8,0xEA,0xEA,0xEE,0xED,0xEE,0xEF,0xF0,0xF1,0xF2,0xF3,0xF4,0xF5,0xF6,0xF7,0xF8,0xF9,0xFA,0xFB,0xFC,0xFD,0xFE,0xFF}
    220          
    221          #elif _CODE_PAGE == 850	/* Multilingual Latin 1 (OEM) */
    222          #define _DF1S	0
    223          #define _EXCVT {0x80,0x9A,0x90,0xB6,0x8E,0xB7,0x8F,0x80,0xD2,0xD3,0xD4,0xD8,0xD7,0xDE,0x8E,0x8F,0x90,0x92,0x92,0xE2,0x99,0xE3,0xEA,0xEB,0x59,0x99,0x9A,0x9D,0x9C,0x9D,0x9E,0x9F, \
    224          				0xB5,0xD6,0xE0,0xE9,0xA5,0xA5,0xA6,0xA7,0xA8,0xA9,0xAA,0xAB,0xAC,0x21,0xAE,0xAF,0xB0,0xB1,0xB2,0xB3,0xB4,0xB5,0xB6,0xB7,0xB8,0xB9,0xBA,0xBB,0xBC,0xBD,0xBE,0xBF, \
    225          				0xC0,0xC1,0xC2,0xC3,0xC4,0xC5,0xC7,0xC7,0xC8,0xC9,0xCA,0xCB,0xCC,0xCD,0xCE,0xCF,0xD0,0xD1,0xD2,0xD3,0xD4,0xD5,0xD6,0xD7,0xD8,0xD9,0xDA,0xDB,0xDC,0xDD,0xDE,0xDF, \
    226          				0xE0,0xE1,0xE2,0xE3,0xE5,0xE5,0xE6,0xE7,0xE7,0xE9,0xEA,0xEB,0xED,0xED,0xEE,0xEF,0xF0,0xF1,0xF2,0xF3,0xF4,0xF5,0xF6,0xF7,0xF8,0xF9,0xFA,0xFB,0xFC,0xFD,0xFE,0xFF}
    227          
    228          #elif _CODE_PAGE == 852	/* Latin 2 (OEM) */
    229          #define _DF1S	0
    230          #define _EXCVT {0x80,0x9A,0x90,0xB6,0x8E,0xDE,0x8F,0x80,0x9D,0xD3,0x8A,0x8A,0xD7,0x8D,0x8E,0x8F,0x90,0x91,0x91,0xE2,0x99,0x95,0x95,0x97,0x97,0x99,0x9A,0x9B,0x9B,0x9D,0x9E,0x9F, \
    231          				0xB5,0xD6,0xE0,0xE9,0xA4,0xA4,0xA6,0xA6,0xA8,0xA8,0xAA,0x8D,0xAC,0xB8,0xAE,0xAF,0xB0,0xB1,0xB2,0xB3,0xB4,0xB5,0xB6,0xB7,0xB8,0xB9,0xBA,0xBB,0xBC,0xBD,0xBD,0xBF, \
    232          				0xC0,0xC1,0xC2,0xC3,0xC4,0xC5,0xC6,0xC6,0xC8,0xC9,0xCA,0xCB,0xCC,0xCD,0xCE,0xCF,0xD1,0xD1,0xD2,0xD3,0xD2,0xD5,0xD6,0xD7,0xB7,0xD9,0xDA,0xDB,0xDC,0xDD,0xDE,0xDF, \
    233          				0xE0,0xE1,0xE2,0xE3,0xE3,0xD5,0xE6,0xE6,0xE8,0xE9,0xE8,0xEB,0xED,0xED,0xDD,0xEF,0xF0,0xF1,0xF2,0xF3,0xF4,0xF5,0xF6,0xF7,0xF8,0xF9,0xFA,0xEB,0xFC,0xFC,0xFE,0xFF}
    234          
    235          #elif _CODE_PAGE == 855	/* Cyrillic (OEM) */
    236          #define _DF1S	0
    237          #define _EXCVT {0x81,0x81,0x83,0x83,0x85,0x85,0x87,0x87,0x89,0x89,0x8B,0x8B,0x8D,0x8D,0x8F,0x8F,0x91,0x91,0x93,0x93,0x95,0x95,0x97,0x97,0x99,0x99,0x9B,0x9B,0x9D,0x9D,0x9F,0x9F, \
    238          				0xA1,0xA1,0xA3,0xA3,0xA5,0xA5,0xA7,0xA7,0xA9,0xA9,0xAB,0xAB,0xAD,0xAD,0xAE,0xAF,0xB0,0xB1,0xB2,0xB3,0xB4,0xB6,0xB6,0xB8,0xB8,0xB9,0xBA,0xBB,0xBC,0xBE,0xBE,0xBF, \
    239          				0xC0,0xC1,0xC2,0xC3,0xC4,0xC5,0xC7,0xC7,0xC8,0xC9,0xCA,0xCB,0xCC,0xCD,0xCE,0xCF,0xD1,0xD1,0xD3,0xD3,0xD5,0xD5,0xD7,0xD7,0xDD,0xD9,0xDA,0xDB,0xDC,0xDD,0xE0,0xDF, \
    240          				0xE0,0xE2,0xE2,0xE4,0xE4,0xE6,0xE6,0xE8,0xE8,0xEA,0xEA,0xEC,0xEC,0xEE,0xEE,0xEF,0xF0,0xF2,0xF2,0xF4,0xF4,0xF6,0xF6,0xF8,0xF8,0xFA,0xFA,0xFC,0xFC,0xFD,0xFE,0xFF}
    241          
    242          #elif _CODE_PAGE == 857	/* Turkish (OEM) */
    243          #define _DF1S	0
    244          #define _EXCVT {0x80,0x9A,0x90,0xB6,0x8E,0xB7,0x8F,0x80,0xD2,0xD3,0xD4,0xD8,0xD7,0x98,0x8E,0x8F,0x90,0x92,0x92,0xE2,0x99,0xE3,0xEA,0xEB,0x98,0x99,0x9A,0x9D,0x9C,0x9D,0x9E,0x9E, \
    245          				0xB5,0xD6,0xE0,0xE9,0xA5,0xA5,0xA6,0xA6,0xA8,0xA9,0xAA,0xAB,0xAC,0x21,0xAE,0xAF,0xB0,0xB1,0xB2,0xB3,0xB4,0xB5,0xB6,0xB7,0xB8,0xB9,0xBA,0xBB,0xBC,0xBD,0xBE,0xBF, \
    246          				0xC0,0xC1,0xC2,0xC3,0xC4,0xC5,0xC7,0xC7,0xC8,0xC9,0xCA,0xCB,0xCC,0xCD,0xCE,0xCF,0xD0,0xD1,0xD2,0xD3,0xD4,0xD5,0xD6,0xD7,0xD8,0xD9,0xDA,0xDB,0xDC,0xDD,0xDE,0xDF, \
    247          				0xE0,0xE1,0xE2,0xE3,0xE5,0xE5,0xE6,0xE7,0xE8,0xE9,0xEA,0xEB,0xDE,0x59,0xEE,0xEF,0xF0,0xF1,0xF2,0xF3,0xF4,0xF5,0xF6,0xF7,0xF8,0xF9,0xFA,0xFB,0xFC,0xFD,0xFE,0xFF}
    248          
    249          #elif _CODE_PAGE == 858	/* Multilingual Latin 1 + Euro (OEM) */
    250          #define _DF1S	0
    251          #define _EXCVT {0x80,0x9A,0x90,0xB6,0x8E,0xB7,0x8F,0x80,0xD2,0xD3,0xD4,0xD8,0xD7,0xDE,0x8E,0x8F,0x90,0x92,0x92,0xE2,0x99,0xE3,0xEA,0xEB,0x59,0x99,0x9A,0x9D,0x9C,0x9D,0x9E,0x9F, \
    252          				0xB5,0xD6,0xE0,0xE9,0xA5,0xA5,0xA6,0xA7,0xA8,0xA9,0xAA,0xAB,0xAC,0x21,0xAE,0xAF,0xB0,0xB1,0xB2,0xB3,0xB4,0xB5,0xB6,0xB7,0xB8,0xB9,0xBA,0xBB,0xBC,0xBD,0xBE,0xBF, \
    253          				0xC0,0xC1,0xC2,0xC3,0xC4,0xC5,0xC7,0xC7,0xC8,0xC9,0xCA,0xCB,0xCC,0xCD,0xCE,0xCF,0xD1,0xD1,0xD2,0xD3,0xD4,0xD5,0xD6,0xD7,0xD8,0xD9,0xDA,0xDB,0xDC,0xDD,0xDE,0xDF, \
    254          				0xE0,0xE1,0xE2,0xE3,0xE5,0xE5,0xE6,0xE7,0xE7,0xE9,0xEA,0xEB,0xED,0xED,0xEE,0xEF,0xF0,0xF1,0xF2,0xF3,0xF4,0xF5,0xF6,0xF7,0xF8,0xF9,0xFA,0xFB,0xFC,0xFD,0xFE,0xFF}
    255          
    256          #elif _CODE_PAGE == 862	/* Hebrew (OEM) */
    257          #define _DF1S	0
    258          #define _EXCVT {0x80,0x81,0x82,0x83,0x84,0x85,0x86,0x87,0x88,0x89,0x8A,0x8B,0x8C,0x8D,0x8E,0x8F,0x90,0x91,0x92,0x93,0x94,0x95,0x96,0x97,0x98,0x99,0x9A,0x9B,0x9C,0x9D,0x9E,0x9F, \
    259          				0x41,0x49,0x4F,0x55,0xA5,0xA5,0xA6,0xA7,0xA8,0xA9,0xAA,0xAB,0xAC,0x21,0xAE,0xAF,0xB0,0xB1,0xB2,0xB3,0xB4,0xB5,0xB6,0xB7,0xB8,0xB9,0xBA,0xBB,0xBC,0xBD,0xBE,0xBF, \
    260          				0xC0,0xC1,0xC2,0xC3,0xC4,0xC5,0xC6,0xC7,0xC8,0xC9,0xCA,0xCB,0xCC,0xCD,0xCE,0xCF,0xD0,0xD1,0xD2,0xD3,0xD4,0xD5,0xD6,0xD7,0xD8,0xD9,0xDA,0xDB,0xDC,0xDD,0xDE,0xDF, \
    261          				0xE0,0xE1,0xE2,0xE3,0xE4,0xE5,0xE6,0xE7,0xE8,0xE9,0xEA,0xEB,0xEC,0xED,0xEE,0xEF,0xF0,0xF1,0xF2,0xF3,0xF4,0xF5,0xF6,0xF7,0xF8,0xF9,0xFA,0xFB,0xFC,0xFD,0xFE,0xFF}
    262          
    263          #elif _CODE_PAGE == 866	/* Russian (OEM) */
    264          #define _DF1S	0
    265          #define _EXCVT {0x80,0x81,0x82,0x83,0x84,0x85,0x86,0x87,0x88,0x89,0x8A,0x8B,0x8C,0x8D,0x8E,0x8F,0x90,0x91,0x92,0x93,0x94,0x95,0x96,0x97,0x98,0x99,0x9A,0x9B,0x9C,0x9D,0x9E,0x9F, \
    266          				0x80,0x81,0x82,0x83,0x84,0x85,0x86,0x87,0x88,0x89,0x8A,0x8B,0x8C,0x8D,0x8E,0x8F,0xB0,0xB1,0xB2,0xB3,0xB4,0xB5,0xB6,0xB7,0xB8,0xB9,0xBA,0xBB,0xBC,0xBD,0xBE,0xBF, \
    267          				0xC0,0xC1,0xC2,0xC3,0xC4,0xC5,0xC6,0xC7,0xC8,0xC9,0xCA,0xCB,0xCC,0xCD,0xCE,0xCF,0xD0,0xD1,0xD2,0xD3,0xD4,0xD5,0xD6,0xD7,0xD8,0xD9,0xDA,0xDB,0xDC,0xDD,0xDE,0xDF, \
    268          				0x90,0x91,0x92,0x93,0x9d,0x95,0x96,0x97,0x98,0x99,0x9A,0x9B,0x9C,0x9D,0x9E,0x9F,0xF0,0xF0,0xF2,0xF2,0xF4,0xF4,0xF6,0xF6,0xF8,0xF9,0xFA,0xFB,0xFC,0xFD,0xFE,0xFF}
    269          
    270          #elif _CODE_PAGE == 874	/* Thai (OEM, Windows) */
    271          #define _DF1S	0
    272          #define _EXCVT {0x80,0x81,0x82,0x83,0x84,0x85,0x86,0x87,0x88,0x89,0x8A,0x8B,0x8C,0x8D,0x8E,0x8F,0x90,0x91,0x92,0x93,0x94,0x95,0x96,0x97,0x98,0x99,0x9A,0x9B,0x9C,0x9D,0x9E,0x9F, \
    273          				0xA0,0xA1,0xA2,0xA3,0xA4,0xA5,0xA6,0xA7,0xA8,0xA9,0xAA,0xAB,0xAC,0xAD,0xAE,0xAF,0xB0,0xB1,0xB2,0xB3,0xB4,0xB5,0xB6,0xB7,0xB8,0xB9,0xBA,0xBB,0xBC,0xBD,0xBE,0xBF, \
    274          				0xC0,0xC1,0xC2,0xC3,0xC4,0xC5,0xC6,0xC7,0xC8,0xC9,0xCA,0xCB,0xCC,0xCD,0xCE,0xCF,0xD0,0xD1,0xD2,0xD3,0xD4,0xD5,0xD6,0xD7,0xD8,0xD9,0xDA,0xDB,0xDC,0xDD,0xDE,0xDF, \
    275          				0xE0,0xE1,0xE2,0xE3,0xE4,0xE5,0xE6,0xE7,0xE8,0xE9,0xEA,0xEB,0xEC,0xED,0xEE,0xEF,0xF0,0xF1,0xF2,0xF3,0xF4,0xF5,0xF6,0xF7,0xF8,0xF9,0xFA,0xFB,0xFC,0xFD,0xFE,0xFF}
    276          
    277          #elif _CODE_PAGE == 1250 /* Central Europe (Windows) */
    278          #define _DF1S	0
    279          #define _EXCVT {0x80,0x81,0x82,0x83,0x84,0x85,0x86,0x87,0x88,0x89,0x8A,0x8B,0x8C,0x8D,0x8E,0x8F,0x90,0x91,0x92,0x93,0x94,0x95,0x96,0x97,0x98,0x99,0x8A,0x9B,0x8C,0x8D,0x8E,0x8F, \
    280          				0xA0,0xA1,0xA2,0xA3,0xA4,0xA5,0xA6,0xA7,0xA8,0xA9,0xAA,0xAB,0xAC,0xAD,0xAE,0xAF,0xB0,0xB1,0xB2,0xA3,0xB4,0xB5,0xB6,0xB7,0xB8,0xA5,0xAA,0xBB,0xBC,0xBD,0xBC,0xAF, \
    281          				0xC0,0xC1,0xC2,0xC3,0xC4,0xC5,0xC6,0xC7,0xC8,0xC9,0xCA,0xCB,0xCC,0xCD,0xCE,0xCF,0xD0,0xD1,0xD2,0xD3,0xD4,0xD5,0xD6,0xD7,0xD8,0xD9,0xDA,0xDB,0xDC,0xDD,0xDE,0xDF, \
    282          				0xC0,0xC1,0xC2,0xC3,0xC4,0xC5,0xC6,0xC7,0xC8,0xC9,0xCA,0xCB,0xCC,0xCD,0xCE,0xCF,0xD0,0xD1,0xD2,0xD3,0xD4,0xD5,0xD6,0xF7,0xD8,0xD9,0xDA,0xDB,0xDC,0xDD,0xDE,0xFF}
    283          
    284          #elif _CODE_PAGE == 1251 /* Cyrillic (Windows) */
    285          #define _DF1S	0
    286          #define _EXCVT {0x80,0x81,0x82,0x82,0x84,0x85,0x86,0x87,0x88,0x89,0x8A,0x8B,0x8C,0x8D,0x8E,0x8F,0x80,0x91,0x92,0x93,0x94,0x95,0x96,0x97,0x98,0x99,0x8A,0x9B,0x8C,0x8D,0x8E,0x8F, \
    287          				0xA0,0xA2,0xA2,0xA3,0xA4,0xA5,0xA6,0xA7,0xA8,0xA9,0xAA,0xAB,0xAC,0xAD,0xAE,0xAF,0xB0,0xB1,0xB2,0xB2,0xA5,0xB5,0xB6,0xB7,0xA8,0xB9,0xAA,0xBB,0xA3,0xBD,0xBD,0xAF, \
    288          				0xC0,0xC1,0xC2,0xC3,0xC4,0xC5,0xC6,0xC7,0xC8,0xC9,0xCA,0xCB,0xCC,0xCD,0xCE,0xCF,0xD0,0xD1,0xD2,0xD3,0xD4,0xD5,0xD6,0xD7,0xD8,0xD9,0xDA,0xDB,0xDC,0xDD,0xDE,0xDF, \
    289          				0xC0,0xC1,0xC2,0xC3,0xC4,0xC5,0xC6,0xC7,0xC8,0xC9,0xCA,0xCB,0xCC,0xCD,0xCE,0xCF,0xD0,0xD1,0xD2,0xD3,0xD4,0xD5,0xD6,0xD7,0xD8,0xD9,0xDA,0xDB,0xDC,0xDD,0xDE,0xDF}
    290          
    291          #elif _CODE_PAGE == 1252 /* Latin 1 (Windows) */
    292          #define _DF1S	0
    293          #define _EXCVT {0x80,0x81,0x82,0x83,0x84,0x85,0x86,0x87,0x88,0x89,0x8A,0x8B,0x8C,0x8D,0x8E,0x8F,0x90,0x91,0x92,0x93,0x94,0x95,0x96,0x97,0x98,0x99,0xAd,0x9B,0x8C,0x9D,0xAE,0x9F, \
    294          				0xA0,0x21,0xA2,0xA3,0xA4,0xA5,0xA6,0xA7,0xA8,0xA9,0xAA,0xAB,0xAC,0xAD,0xAE,0xAF,0xB0,0xB1,0xB2,0xB3,0xB4,0xB5,0xB6,0xB7,0xB8,0xB9,0xBA,0xBB,0xBC,0xBD,0xBE,0xBF, \
    295          				0xC0,0xC1,0xC2,0xC3,0xC4,0xC5,0xC6,0xC7,0xC8,0xC9,0xCA,0xCB,0xCC,0xCD,0xCE,0xCF,0xD0,0xD1,0xD2,0xD3,0xD4,0xD5,0xD6,0xD7,0xD8,0xD9,0xDA,0xDB,0xDC,0xDD,0xDE,0xDF, \
    296          				0xC0,0xC1,0xC2,0xC3,0xC4,0xC5,0xC6,0xC7,0xC8,0xC9,0xCA,0xCB,0xCC,0xCD,0xCE,0xCF,0xD0,0xD1,0xD2,0xD3,0xD4,0xD5,0xD6,0xF7,0xD8,0xD9,0xDA,0xDB,0xDC,0xDD,0xDE,0x9F}
    297          
    298          #elif _CODE_PAGE == 1253 /* Greek (Windows) */
    299          #define _DF1S	0
    300          #define _EXCVT {0x80,0x81,0x82,0x83,0x84,0x85,0x86,0x87,0x88,0x89,0x8A,0x8B,0x8C,0x8D,0x8E,0x8F,0x90,0x91,0x92,0x93,0x94,0x95,0x96,0x97,0x98,0x99,0x9A,0x9B,0x9C,0x9D,0x9E,0x9F, \
    301          				0xA0,0xA1,0xA2,0xA3,0xA4,0xA5,0xA6,0xA7,0xA8,0xA9,0xAA,0xAB,0xAC,0xAD,0xAE,0xAF,0xB0,0xB1,0xB2,0xB3,0xB4,0xB5,0xB6,0xB7,0xB8,0xB9,0xBA,0xBB,0xBC,0xBD,0xBE,0xBF, \
    302          				0xC0,0xC1,0xC2,0xC3,0xC4,0xC5,0xC6,0xC7,0xC8,0xC9,0xCA,0xCB,0xCC,0xCD,0xCE,0xCF,0xD0,0xD1,0xD2,0xD3,0xD4,0xD5,0xD6,0xD7,0xD8,0xD9,0xDA,0xDB,0xA2,0xB8,0xB9,0xBA, \
    303          				0xE0,0xC1,0xC2,0xC3,0xC4,0xC5,0xC6,0xC7,0xC8,0xC9,0xCA,0xCB,0xCC,0xCD,0xCE,0xCF,0xD0,0xD1,0xF2,0xD3,0xD4,0xD5,0xD6,0xD7,0xD8,0xD9,0xDA,0xFB,0xBC,0xFD,0xBF,0xFF}
    304          
    305          #elif _CODE_PAGE == 1254 /* Turkish (Windows) */
    306          #define _DF1S	0
    307          #define _EXCVT {0x80,0x81,0x82,0x83,0x84,0x85,0x86,0x87,0x88,0x89,0x8A,0x8B,0x8C,0x8D,0x8E,0x8F,0x90,0x91,0x92,0x93,0x94,0x95,0x96,0x97,0x98,0x99,0x8A,0x9B,0x8C,0x9D,0x9E,0x9F, \
    308          				0xA0,0x21,0xA2,0xA3,0xA4,0xA5,0xA6,0xA7,0xA8,0xA9,0xAA,0xAB,0xAC,0xAD,0xAE,0xAF,0xB0,0xB1,0xB2,0xB3,0xB4,0xB5,0xB6,0xB7,0xB8,0xB9,0xBA,0xBB,0xBC,0xBD,0xBE,0xBF, \
    309          				0xC0,0xC1,0xC2,0xC3,0xC4,0xC5,0xC6,0xC7,0xC8,0xC9,0xCA,0xCB,0xCC,0xCD,0xCE,0xCF,0xD0,0xD1,0xD2,0xD3,0xD4,0xD5,0xD6,0xD7,0xD8,0xD9,0xDA,0xDB,0xDC,0xDD,0xDE,0xDF, \
    310          				0xC0,0xC1,0xC2,0xC3,0xC4,0xC5,0xC6,0xC7,0xC8,0xC9,0xCA,0xCB,0xCC,0xCD,0xCE,0xCF,0xD0,0xD1,0xD2,0xD3,0xD4,0xD5,0xD6,0xF7,0xD8,0xD9,0xDA,0xDB,0xDC,0xDD,0xDE,0x9F}
    311          
    312          #elif _CODE_PAGE == 1255 /* Hebrew (Windows) */
    313          #define _DF1S	0
    314          #define _EXCVT {0x80,0x81,0x82,0x83,0x84,0x85,0x86,0x87,0x88,0x89,0x8A,0x8B,0x8C,0x8D,0x8E,0x8F,0x90,0x91,0x92,0x93,0x94,0x95,0x96,0x97,0x98,0x99,0x9A,0x9B,0x9C,0x9D,0x9E,0x9F, \
    315          				0xA0,0x21,0xA2,0xA3,0xA4,0xA5,0xA6,0xA7,0xA8,0xA9,0xAA,0xAB,0xAC,0xAD,0xAE,0xAF,0xB0,0xB1,0xB2,0xB3,0xB4,0xB5,0xB6,0xB7,0xB8,0xB9,0xBA,0xBB,0xBC,0xBD,0xBE,0xBF, \
    316          				0xC0,0xC1,0xC2,0xC3,0xC4,0xC5,0xC6,0xC7,0xC8,0xC9,0xCA,0xCB,0xCC,0xCD,0xCE,0xCF,0xD0,0xD1,0xD2,0xD3,0xD4,0xD5,0xD6,0xD7,0xD8,0xD9,0xDA,0xDB,0xDC,0xDD,0xDE,0xDF, \
    317          				0xE0,0xE1,0xE2,0xE3,0xE4,0xE5,0xE6,0xE7,0xE8,0xE9,0xEA,0xEB,0xEC,0xED,0xEE,0xEF,0xF0,0xF1,0xF2,0xF3,0xF4,0xF5,0xF6,0xF7,0xF8,0xF9,0xFA,0xFB,0xFC,0xFD,0xFE,0xFF}
    318          
    319          #elif _CODE_PAGE == 1256 /* Arabic (Windows) */
    320          #define _DF1S	0
    321          #define _EXCVT {0x80,0x81,0x82,0x83,0x84,0x85,0x86,0x87,0x88,0x89,0x8A,0x8B,0x8C,0x8D,0x8E,0x8F,0x90,0x91,0x92,0x93,0x94,0x95,0x96,0x97,0x98,0x99,0x9A,0x9B,0x8C,0x9D,0x9E,0x9F, \
    322          				0xA0,0xA1,0xA2,0xA3,0xA4,0xA5,0xA6,0xA7,0xA8,0xA9,0xAA,0xAB,0xAC,0xAD,0xAE,0xAF,0xB0,0xB1,0xB2,0xB3,0xB4,0xB5,0xB6,0xB7,0xB8,0xB9,0xBA,0xBB,0xBC,0xBD,0xBE,0xBF, \
    323          				0xC0,0xC1,0xC2,0xC3,0xC4,0xC5,0xC6,0xC7,0xC8,0xC9,0xCA,0xCB,0xCC,0xCD,0xCE,0xCF,0xD0,0xD1,0xD2,0xD3,0xD4,0xD5,0xD6,0xD7,0xD8,0xD9,0xDA,0xDB,0xDC,0xDD,0xDE,0xDF, \
    324          				0x41,0xE1,0x41,0xE3,0xE4,0xE5,0xE6,0x43,0x45,0x45,0x45,0x45,0xEC,0xED,0x49,0x49,0xF0,0xF1,0xF2,0xF3,0x4F,0xF5,0xF6,0xF7,0xF8,0x55,0xFA,0x55,0x55,0xFD,0xFE,0xFF}
    325          
    326          #elif _CODE_PAGE == 1257 /* Baltic (Windows) */
    327          #define _DF1S	0
    328          #define _EXCVT {0x80,0x81,0x82,0x83,0x84,0x85,0x86,0x87,0x88,0x89,0x8A,0x8B,0x8C,0x8D,0x8E,0x8F,0x90,0x91,0x92,0x93,0x94,0x95,0x96,0x97,0x98,0x99,0x9A,0x9B,0x9C,0x9D,0x9E,0x9F, \
    329          				0xA0,0xA1,0xA2,0xA3,0xA4,0xA5,0xA6,0xA7,0xA8,0xA9,0xAA,0xAB,0xAC,0xAD,0xAE,0xAF,0xB0,0xB1,0xB2,0xB3,0xB4,0xB5,0xB6,0xB7,0xA8,0xB9,0xAA,0xBB,0xBC,0xBD,0xBE,0xAF, \
    330          				0xC0,0xC1,0xC2,0xC3,0xC4,0xC5,0xC6,0xC7,0xC8,0xC9,0xCA,0xCB,0xCC,0xCD,0xCE,0xCF,0xD0,0xD1,0xD2,0xD3,0xD4,0xD5,0xD6,0xD7,0xD8,0xD9,0xDA,0xDB,0xDC,0xDD,0xDE,0xDF, \
    331          				0xC0,0xC1,0xC2,0xC3,0xC4,0xC5,0xC6,0xC7,0xC8,0xC9,0xCA,0xCB,0xCC,0xCD,0xCE,0xCF,0xD0,0xD1,0xD2,0xD3,0xD4,0xD5,0xD6,0xF7,0xD8,0xD9,0xDA,0xDB,0xDC,0xDD,0xDE,0xFF}
    332          
    333          #elif _CODE_PAGE == 1258 /* Vietnam (OEM, Windows) */
    334          #define _DF1S	0
    335          #define _EXCVT {0x80,0x81,0x82,0x83,0x84,0x85,0x86,0x87,0x88,0x89,0x8A,0x8B,0x8C,0x8D,0x8E,0x8F,0x90,0x91,0x92,0x93,0x94,0x95,0x96,0x97,0x98,0x99,0x9A,0x9B,0xAC,0x9D,0x9E,0x9F, \
    336          				0xA0,0x21,0xA2,0xA3,0xA4,0xA5,0xA6,0xA7,0xA8,0xA9,0xAA,0xAB,0xAC,0xAD,0xAE,0xAF,0xB0,0xB1,0xB2,0xB3,0xB4,0xB5,0xB6,0xB7,0xB8,0xB9,0xBA,0xBB,0xBC,0xBD,0xBE,0xBF, \
    337          				0xC0,0xC1,0xC2,0xC3,0xC4,0xC5,0xC6,0xC7,0xC8,0xC9,0xCA,0xCB,0xCC,0xCD,0xCE,0xCF,0xD0,0xD1,0xD2,0xD3,0xD4,0xD5,0xD6,0xD7,0xD8,0xD9,0xDA,0xDB,0xDC,0xDD,0xDE,0xDF, \
    338          				0xC0,0xC1,0xC2,0xC3,0xC4,0xC5,0xC6,0xC7,0xC8,0xC9,0xCA,0xCB,0xEC,0xCD,0xCE,0xCF,0xD0,0xD1,0xF2,0xD3,0xD4,0xD5,0xD6,0xF7,0xD8,0xD9,0xDA,0xDB,0xDC,0xDD,0xFE,0x9F}
    339          
    340          #elif _CODE_PAGE == 1	/* ASCII (for only non-LFN cfg) */
    341          #if _USE_LFN
    342          #error Cannot use LFN feature without valid code page.
    343          #endif
    344          #define _DF1S	0
    345          
    346          #else
    347          #error Unknown code page
    348          
    349          #endif
    350          
    351          
    352          /* Character code support macros */
    353          #define IsUpper(c)	(((c)>='A')&&((c)<='Z'))
    354          #define IsLower(c)	(((c)>='a')&&((c)<='z'))
    355          #define IsDigit(c)	(((c)>='0')&&((c)<='9'))
    356          
    357          #if _DF1S		/* Code page is DBCS */
    358          
    359          #ifdef _DF2S	/* Two 1st byte areas */
    360          #define IsDBCS1(c)	(((BYTE)(c) >= _DF1S && (BYTE)(c) <= _DF1E) || ((BYTE)(c) >= _DF2S && (BYTE)(c) <= _DF2E))
    361          #else			/* One 1st byte area */
    362          #define IsDBCS1(c)	((BYTE)(c) >= _DF1S && (BYTE)(c) <= _DF1E)
    363          #endif
    364          
    365          #ifdef _DS3S	/* Three 2nd byte areas */
    366          #define IsDBCS2(c)	(((BYTE)(c) >= _DS1S && (BYTE)(c) <= _DS1E) || ((BYTE)(c) >= _DS2S && (BYTE)(c) <= _DS2E) || ((BYTE)(c) >= _DS3S && (BYTE)(c) <= _DS3E))
    367          #else			/* Two 2nd byte areas */
    368          #define IsDBCS2(c)	(((BYTE)(c) >= _DS1S && (BYTE)(c) <= _DS1E) || ((BYTE)(c) >= _DS2S && (BYTE)(c) <= _DS2E))
    369          #endif
    370          
    371          #else			/* Code page is SBCS */
    372          
    373          #define IsDBCS1(c)	0
    374          #define IsDBCS2(c)	0
    375          
    376          #endif /* _DF1S */
    377          
    378          
    379          /* Name status flags */
    380          #define NS			11		/* Index of name status byte in fn[] */
    381          #define NS_LOSS		0x01	/* Out of 8.3 format */
    382          #define NS_LFN		0x02	/* Force to create LFN entry */
    383          #define NS_LAST		0x04	/* Last segment */
    384          #define NS_BODY		0x08	/* Lower case flag (body) */
    385          #define NS_EXT		0x10	/* Lower case flag (ext) */
    386          #define NS_DOT		0x20	/* Dot entry */
    387          
    388          
    389          /* FAT sub-type boundaries */
    390          /* Note that the FAT spec by Microsoft says 4085 but Windows works with 4087! */
    391          #define MIN_FAT16	4086	/* Minimum number of clusters for FAT16 */
    392          #define	MIN_FAT32	65526	/* Minimum number of clusters for FAT32 */
    393          
    394          
    395          /* FatFs refers the members in the FAT structures as byte array instead of
    396          / structure member because the structure is not binary compatible between
    397          / different platforms */
    398          
    399          #define BS_jmpBoot			0	/* Jump instruction (3) */
    400          #define BS_OEMName			3	/* OEM name (8) */
    401          #define BPB_BytsPerSec		11	/* Sector size [byte] (2) */
    402          #define BPB_SecPerClus		13	/* Cluster size [sector] (1) */
    403          #define BPB_RsvdSecCnt		14	/* Size of reserved area [sector] (2) */
    404          #define BPB_NumFATs			16	/* Number of FAT copies (1) */
    405          #define BPB_RootEntCnt		17	/* Number of root dir entries for FAT12/16 (2) */
    406          #define BPB_TotSec16		19	/* Volume size [sector] (2) */
    407          #define BPB_Media			21	/* Media descriptor (1) */
    408          #define BPB_FATSz16			22	/* FAT size [sector] (2) */
    409          #define BPB_SecPerTrk		24	/* Track size [sector] (2) */
    410          #define BPB_NumHeads		26	/* Number of heads (2) */
    411          #define BPB_HiddSec			28	/* Number of special hidden sectors (4) */
    412          #define BPB_TotSec32		32	/* Volume size [sector] (4) */
    413          #define BS_DrvNum			36	/* Physical drive number (2) */
    414          #define BS_BootSig			38	/* Extended boot signature (1) */
    415          #define BS_VolID			39	/* Volume serial number (4) */
    416          #define BS_VolLab			43	/* Volume label (8) */
    417          #define BS_FilSysType		54	/* File system type (1) */
    418          #define BPB_FATSz32			36	/* FAT size [sector] (4) */
    419          #define BPB_ExtFlags		40	/* Extended flags (2) */
    420          #define BPB_FSVer			42	/* File system version (2) */
    421          #define BPB_RootClus		44	/* Root dir first cluster (4) */
    422          #define BPB_FSInfo			48	/* Offset of FSInfo sector (2) */
    423          #define BPB_BkBootSec		50	/* Offset of backup boot sectot (2) */
    424          #define BS_DrvNum32			64	/* Physical drive number (2) */
    425          #define BS_BootSig32		66	/* Extended boot signature (1) */
    426          #define BS_VolID32			67	/* Volume serial number (4) */
    427          #define BS_VolLab32			71	/* Volume label (8) */
    428          #define BS_FilSysType32		82	/* File system type (1) */
    429          #define	FSI_LeadSig			0	/* FSI: Leading signature (4) */
    430          #define	FSI_StrucSig		484	/* FSI: Structure signature (4) */
    431          #define	FSI_Free_Count		488	/* FSI: Number of free clusters (4) */
    432          #define	FSI_Nxt_Free		492	/* FSI: Last allocated cluster (4) */
    433          #define MBR_Table			446	/* MBR: Partition table offset (2) */
    434          #define	SZ_PTE				16	/* MBR: Size of a partition table entry */
    435          #define BS_55AA				510	/* Boot sector signature (2) */
    436          
    437          #define	DIR_Name			0	/* Short file name (11) */
    438          #define	DIR_Attr			11	/* Attribute (1) */
    439          #define	DIR_NTres			12	/* NT flag (1) */
    440          #define	DIR_CrtTime			14	/* Created time (2) */
    441          #define	DIR_CrtDate			16	/* Created date (2) */
    442          #define	DIR_FstClusHI		20	/* Higher 16-bit of first cluster (2) */
    443          #define	DIR_WrtTime			22	/* Modified time (2) */
    444          #define	DIR_WrtDate			24	/* Modified date (2) */
    445          #define	DIR_FstClusLO		26	/* Lower 16-bit of first cluster (2) */
    446          #define	DIR_FileSize		28	/* File size (4) */
    447          #define	LDIR_Ord			0	/* LFN entry order and LLE flag (1) */
    448          #define	LDIR_Attr			11	/* LFN attribute (1) */
    449          #define	LDIR_Type			12	/* LFN type (1) */
    450          #define	LDIR_Chksum			13	/* Sum of corresponding SFN entry */
    451          #define	LDIR_FstClusLO		26	/* Filled by zero (0) */
    452          #define	SZ_DIR				32		/* Size of a directory entry */
    453          #define	LLE					0x40	/* Last long entry flag in LDIR_Ord */
    454          #define	DDE					0xE5	/* Deleted directory enrty mark in DIR_Name[0] */
    455          #define	NDDE				0x05	/* Replacement of a character collides with DDE */
    456          
    457          
    458          /*------------------------------------------------------------*/
    459          /* Module private work area                                   */
    460          /*------------------------------------------------------------*/
    461          /* Note that uninitialized variables with static duration are
    462          /  zeroed/nulled at start-up. If not, the compiler or start-up
    463          /  routine is out of ANSI-C standard.
    464          */
    465          
    466          #if _VOLUMES
    467          static

   \                                 In section .bss, align 4
    468          FATFS *FatFs[_VOLUMES];	/* Pointer to the file system objects (logical drives) */
   \                     FatFs:
   \   00000000                      DS8 4
    469          #else
    470          #error Number of volumes must not be 0.
    471          #endif
    472          
    473          static

   \                                 In section .bss, align 2
    474          WORD Fsid;				/* File system mount ID */
   \                     Fsid:
   \   00000000                      DS8 2
    475          
    476          #if _FS_RPATH
    477          static

   \                                 In section .bss, align 1
    478          BYTE CurrVol;			/* Current drive */
   \                     CurrVol:
   \   00000000                      DS8 1
    479          #endif
    480          
    481          #if _FS_SHARE
    482          static
    483          FILESEM	Files[_FS_SHARE];	/* File lock semaphores */
    484          #endif
    485          
    486          #if _USE_LFN == 0			/* No LFN feature */
    487          #define	DEF_NAMEBUF			BYTE sfn[12]
    488          #define INIT_BUF(dobj)		(dobj).fn = sfn
    489          #define	FREE_BUF()
    490          
    491          #elif _USE_LFN == 1			/* LFN feature with static working buffer */
    492          static WCHAR LfnBuf[_MAX_LFN+1];
    493          #define	DEF_NAMEBUF			BYTE sfn[12]
    494          #define INIT_BUF(dobj)		{ (dobj).fn = sfn; (dobj).lfn = LfnBuf; }
    495          #define	FREE_BUF()
    496          
    497          #elif _USE_LFN == 2 		/* LFN feature with dynamic working buffer on the stack */
    498          #define	DEF_NAMEBUF			BYTE sfn[12]; WCHAR lbuf[_MAX_LFN+1]
    499          #define INIT_BUF(dobj)		{ (dobj).fn = sfn; (dobj).lfn = lbuf; }
    500          #define	FREE_BUF()
    501          
    502          #elif _USE_LFN == 3 		/* LFN feature with dynamic working buffer on the heap */
    503          #define	DEF_NAMEBUF			BYTE sfn[12]; WCHAR *lfn
    504          #define INIT_BUF(dobj)		{ lfn = ff_memalloc((_MAX_LFN + 1) * 2); \
    505          							  if (!lfn) LEAVE_FF((dobj).fs, FR_NOT_ENOUGH_CORE); \
    506          							  (dobj).lfn = lfn;	(dobj).fn = sfn; }
    507          #define	FREE_BUF()			ff_memfree(lfn)
    508          
    509          #else
    510          #error Wrong LFN configuration.
    511          #endif
    512          
    513          
    514          
    515          
    516          /*--------------------------------------------------------------------------
    517          
    518             Module Private Functions
    519          
    520          ---------------------------------------------------------------------------*/
    521          
    522          
    523          /*-----------------------------------------------------------------------*/
    524          /* String functions                                                      */
    525          /*-----------------------------------------------------------------------*/
    526          
    527          /* Copy memory to memory */

   \                                 In section .text, align 2, keep-with-next
    528          static
    529          void mem_cpy (void* dst, const void* src, UINT cnt) {
   \                     mem_cpy: (+1)
   \   00000000   0xB430             PUSH     {R4,R5}
    530          	BYTE *d = (BYTE*)dst;
   \   00000002   0x0003             MOVS     R3,R0
    531          	const BYTE *s = (const BYTE*)src;
   \   00000004   0x000C             MOVS     R4,R1
    532          
    533          #if _WORD_ACCESS == 1
    534          	while (cnt >= sizeof(int)) {
    535          		*(int*)d = *(int*)s;
    536          		d += sizeof(int); s += sizeof(int);
    537          		cnt -= sizeof(int);
    538          	}
    539          #endif
    540          	while (cnt--)
   \                     ??mem_cpy_0: (+1)
   \   00000006   0x0015             MOVS     R5,R2
   \   00000008   0x1E6A             SUBS     R2,R5,#+1
   \   0000000A   0xB2AD             UXTH     R5,R5            ;; ZeroExt  R5,R5,#+16,#+16
   \   0000000C   0x2D00             CMP      R5,#+0
   \   0000000E   0xD004             BEQ.N    ??mem_cpy_1
    541          		*d++ = *s++;
   \   00000010   0x7825             LDRB     R5,[R4, #+0]
   \   00000012   0x701D             STRB     R5,[R3, #+0]
   \   00000014   0x1C64             ADDS     R4,R4,#+1
   \   00000016   0x1C5B             ADDS     R3,R3,#+1
   \   00000018   0xE7F5             B.N      ??mem_cpy_0
    542          }
   \                     ??mem_cpy_1: (+1)
   \   0000001A   0xBC30             POP      {R4,R5}
   \   0000001C   0x4770             BX       LR               ;; return
    543          
    544          /* Fill memory */

   \                                 In section .text, align 2, keep-with-next
    545          static
    546          void mem_set (void* dst, int val, UINT cnt) {
   \                     mem_set: (+1)
   \   00000000   0xB410             PUSH     {R4}
    547          	BYTE *d = (BYTE*)dst;
   \   00000002   0x0003             MOVS     R3,R0
    548          
    549          	while (cnt--)
   \                     ??mem_set_0: (+1)
   \   00000004   0x0014             MOVS     R4,R2
   \   00000006   0x1E62             SUBS     R2,R4,#+1
   \   00000008   0xB2A4             UXTH     R4,R4            ;; ZeroExt  R4,R4,#+16,#+16
   \   0000000A   0x2C00             CMP      R4,#+0
   \   0000000C   0xD002             BEQ.N    ??mem_set_1
    550          		*d++ = (BYTE)val;
   \   0000000E   0x7019             STRB     R1,[R3, #+0]
   \   00000010   0x1C5B             ADDS     R3,R3,#+1
   \   00000012   0xE7F7             B.N      ??mem_set_0
    551          }
   \                     ??mem_set_1: (+1)
   \   00000014   0xBC10             POP      {R4}
   \   00000016   0x4770             BX       LR               ;; return
    552          
    553          /* Compare memory to memory */

   \                                 In section .text, align 2, keep-with-next
    554          static
    555          int mem_cmp (const void* dst, const void* src, UINT cnt) {
   \                     mem_cmp: (+1)
   \   00000000   0xB470             PUSH     {R4-R6}
   \   00000002   0x0003             MOVS     R3,R0
    556          	const BYTE *d = (const BYTE *)dst, *s = (const BYTE *)src;
   \   00000004   0x001C             MOVS     R4,R3
   \   00000006   0x000D             MOVS     R5,R1
    557          	int r = 0;
   \   00000008   0x2000             MOVS     R0,#+0
    558          
    559          	while (cnt-- && (r = *d++ - *s++) == 0) ;
   \                     ??mem_cmp_0: (+1)
   \   0000000A   0x0016             MOVS     R6,R2
   \   0000000C   0x1E72             SUBS     R2,R6,#+1
   \   0000000E   0xB2B6             UXTH     R6,R6            ;; ZeroExt  R6,R6,#+16,#+16
   \   00000010   0x2E00             CMP      R6,#+0
   \   00000012   0xD006             BEQ.N    ??mem_cmp_1
   \   00000014   0x7820             LDRB     R0,[R4, #+0]
   \   00000016   0x782E             LDRB     R6,[R5, #+0]
   \   00000018   0x1B80             SUBS     R0,R0,R6
   \   0000001A   0x1C6D             ADDS     R5,R5,#+1
   \   0000001C   0x1C64             ADDS     R4,R4,#+1
   \   0000001E   0x2800             CMP      R0,#+0
   \   00000020   0xD0F3             BEQ.N    ??mem_cmp_0
    560          	return r;
   \                     ??mem_cmp_1: (+1)
   \   00000022   0xBC70             POP      {R4-R6}
   \   00000024   0x4770             BX       LR               ;; return
    561          }
    562          
    563          /* Check if chr is contained in the string */

   \                                 In section .text, align 2, keep-with-next
    564          static
    565          int chk_chr (const char* str, int chr) {
    566          	while (*str && *str != chr) str++;
   \                     chk_chr: (+1)
   \                     ??chk_chr_0: (+1)
   \   00000000   0x7802             LDRB     R2,[R0, #+0]
   \   00000002   0x2A00             CMP      R2,#+0
   \   00000004   0xD004             BEQ.N    ??chk_chr_1
   \   00000006   0x7802             LDRB     R2,[R0, #+0]
   \   00000008   0x428A             CMP      R2,R1
   \   0000000A   0xD001             BEQ.N    ??chk_chr_1
   \   0000000C   0x1C40             ADDS     R0,R0,#+1
   \   0000000E   0xE7F7             B.N      ??chk_chr_0
    567          	return *str;
   \                     ??chk_chr_1: (+1)
   \   00000010   0x7800             LDRB     R0,[R0, #+0]
   \   00000012   0x4770             BX       LR               ;; return
    568          }
    569          
    570          
    571          
    572          /*-----------------------------------------------------------------------*/
    573          /* Request/Release grant to access the volume                            */
    574          /*-----------------------------------------------------------------------*/
    575          #if _FS_REENTRANT
    576          
    577          static
    578          int lock_fs (
    579          	FATFS *fs		/* File system object */
    580          )
    581          {
    582          	return ff_req_grant(fs->sobj);
    583          }
    584          
    585          
    586          static
    587          void unlock_fs (
    588          	FATFS *fs,		/* File system object */
    589          	FRESULT res		/* Result code to be returned */
    590          )
    591          {
    592          	if (res != FR_NOT_ENABLED &&
    593          		res != FR_INVALID_DRIVE &&
    594          		res != FR_INVALID_OBJECT &&
    595          		res != FR_TIMEOUT) {
    596          		ff_rel_grant(fs->sobj);
    597          	}
    598          }
    599          #endif
    600          
    601          
    602          
    603          /*-----------------------------------------------------------------------*/
    604          /* File shareing control functions                                       */
    605          /*-----------------------------------------------------------------------*/
    606          #if _FS_SHARE
    607          
    608          static
    609          FRESULT chk_lock (	/* Check if the file can be accessed */
    610          	DIR* dj,		/* Directory object pointing the file to be checked */
    611          	int acc			/* Desired access (0:Read, 1:Write, 2:Delete/Rename) */
    612          )
    613          {
    614          	UINT i, be;
    615          
    616          	/* Search file semaphore table */
    617          	for (i = be = 0; i < _FS_SHARE; i++) {
    618          		if (Files[i].fs) {	/* Existing entry */
    619          			if (Files[i].fs == dj->fs &&	 	/* Check if the file matched with an open file */
    620          				Files[i].clu == dj->sclust &&
    621          				Files[i].idx == dj->index) break;
    622          		} else {			/* Blank entry */
    623          			be++;
    624          		}
    625          	}
    626          	if (i == _FS_SHARE)	/* The file is not opened */
    627          		return (be || acc == 2) ? FR_OK : FR_TOO_MANY_OPEN_FILES;	/* Is there a blank entry for new file? */
    628          
    629          	/* The file has been opened. Reject any open against writing file and all write mode open */
    630          	return (acc || Files[i].ctr == 0x100) ? FR_LOCKED : FR_OK;
    631          }
    632          
    633          
    634          static
    635          int enq_lock (void)	/* Check if an entry is available for a new file */
    636          {
    637          	UINT i;
    638          
    639          	for (i = 0; i < _FS_SHARE && Files[i].fs; i++) ;
    640          	return (i == _FS_SHARE) ? 0 : 1;
    641          }
    642          
    643          
    644          static
    645          UINT inc_lock (	/* Increment file open counter and returns its index (0:int error) */
    646          	DIR* dj,	/* Directory object pointing the file to register or increment */
    647          	int acc		/* Desired access mode (0:Read, !0:Write) */
    648          )
    649          {
    650          	UINT i;
    651          
    652          
    653          	for (i = 0; i < _FS_SHARE; i++) {	/* Find the file */
    654          		if (Files[i].fs == dj->fs &&
    655          			Files[i].clu == dj->sclust &&
    656          			Files[i].idx == dj->index) break;
    657          	}
    658          
    659          	if (i == _FS_SHARE) {				/* Not opened. Register it as new. */
    660          		for (i = 0; i < _FS_SHARE && Files[i].fs; i++) ;
    661          		if (i == _FS_SHARE) return 0;	/* No space to register (int err) */
    662          		Files[i].fs = dj->fs;
    663          		Files[i].clu = dj->sclust;
    664          		Files[i].idx = dj->index;
    665          		Files[i].ctr = 0;
    666          	}
    667          
    668          	if (acc && Files[i].ctr) return 0;	/* Access violation (int err) */
    669          
    670          	Files[i].ctr = acc ? 0x100 : Files[i].ctr + 1;	/* Set semaphore value */
    671          
    672          	return i + 1;
    673          }
    674          
    675          
    676          static
    677          FRESULT dec_lock (	/* Decrement file open counter */
    678          	UINT i			/* Semaphore index */
    679          )
    680          {
    681          	WORD n;
    682          	FRESULT res;
    683          
    684          
    685          	if (--i < _FS_SHARE) {
    686          		n = Files[i].ctr;
    687          		if (n == 0x100) n = 0;
    688          		if (n) n--;
    689          		Files[i].ctr = n;
    690          		if (!n) Files[i].fs = 0;
    691          		res = FR_OK;
    692          	} else {
    693          		res = FR_INT_ERR;
    694          	}
    695          	return res;
    696          }
    697          
    698          
    699          static
    700          void clear_lock (	/* Clear lock entries of the volume */
    701          	FATFS *fs
    702          )
    703          {
    704          	UINT i;
    705          
    706          	for (i = 0; i < _FS_SHARE; i++) {
    707          		if (Files[i].fs == fs) Files[i].fs = 0;
    708          	}
    709          }
    710          #endif
    711          
    712          
    713          
    714          /*-----------------------------------------------------------------------*/
    715          /* Change window offset                                                  */
    716          /*-----------------------------------------------------------------------*/
    717          

   \                                 In section .text, align 2, keep-with-next
    718          static
    719          FRESULT move_window (
    720          	FATFS *fs,		/* File system object */
    721          	DWORD sector	/* Sector number to make appearance in the fs->win[] */
    722          )					/* Move to zero only writes back dirty window */
    723          {
   \                     move_window: (+1)
   \   00000000   0xB5F8             PUSH     {R3-R7,LR}
   \   00000002   0x0004             MOVS     R4,R0
   \   00000004   0x000D             MOVS     R5,R1
    724          	DWORD wsect;
    725          
    726          
    727          	wsect = fs->winsect;
   \   00000006   0x6B20             LDR      R0,[R4, #+48]
   \   00000008   0x0006             MOVS     R6,R0
    728          	if (wsect != sector) {	/* Changed current window */
   \   0000000A   0x42AE             CMP      R6,R5
   \   0000000C   0xD032             BEQ.N    ??move_window_0
    729          #if !_FS_READONLY
    730          		if (fs->wflag) {	/* Write back dirty window if needed */
   \   0000000E   0x7920             LDRB     R0,[R4, #+4]
   \   00000010   0x2800             CMP      R0,#+0
   \   00000012   0xD021             BEQ.N    ??move_window_1
    731          			if (disk_write(fs->drv, fs->win, wsect, 1) != RES_OK)
   \   00000014   0x2301             MOVS     R3,#+1
   \   00000016   0x0032             MOVS     R2,R6
   \   00000018   0xF114 0x0134      ADDS     R1,R4,#+52
   \   0000001C   0x7860             LDRB     R0,[R4, #+1]
   \   0000001E   0x.... 0x....      BL       disk_write
   \   00000022   0x2800             CMP      R0,#+0
   \   00000024   0xD001             BEQ.N    ??move_window_2
    732          				return FR_DISK_ERR;
   \   00000026   0x2001             MOVS     R0,#+1
   \   00000028   0xE025             B.N      ??move_window_3
    733          			fs->wflag = 0;
   \                     ??move_window_2: (+1)
   \   0000002A   0x2000             MOVS     R0,#+0
   \   0000002C   0x7120             STRB     R0,[R4, #+4]
    734          			if (wsect < (fs->fatbase + fs->fsize)) {	/* In FAT area */
   \   0000002E   0x6A60             LDR      R0,[R4, #+36]
   \   00000030   0x6A21             LDR      R1,[R4, #+32]
   \   00000032   0x1808             ADDS     R0,R1,R0
   \   00000034   0x4286             CMP      R6,R0
   \   00000036   0xD20F             BCS.N    ??move_window_1
    735          				BYTE nf;
    736          				for (nf = fs->n_fats; nf > 1; nf--) {	/* Reflect the change to all FAT copies */
   \   00000038   0x78E0             LDRB     R0,[R4, #+3]
   \   0000003A   0x0007             MOVS     R7,R0
   \                     ??move_window_4: (+1)
   \   0000003C   0xB2FF             UXTB     R7,R7            ;; ZeroExt  R7,R7,#+24,#+24
   \   0000003E   0x2F02             CMP      R7,#+2
   \   00000040   0xDB0A             BLT.N    ??move_window_1
    737          					wsect += fs->fsize;
   \   00000042   0x6A20             LDR      R0,[R4, #+32]
   \   00000044   0x1986             ADDS     R6,R0,R6
    738          					disk_write(fs->drv, fs->win, wsect, 1);
   \   00000046   0x2301             MOVS     R3,#+1
   \   00000048   0x0032             MOVS     R2,R6
   \   0000004A   0xF114 0x0134      ADDS     R1,R4,#+52
   \   0000004E   0x7860             LDRB     R0,[R4, #+1]
   \   00000050   0x.... 0x....      BL       disk_write
    739          				}
   \   00000054   0x1E7F             SUBS     R7,R7,#+1
   \   00000056   0xE7F1             B.N      ??move_window_4
    740          			}
    741          		}
    742          #endif
    743          		if (sector) {
   \                     ??move_window_1: (+1)
   \   00000058   0x2D00             CMP      R5,#+0
   \   0000005A   0xD00B             BEQ.N    ??move_window_0
    744          			if (disk_read(fs->drv, fs->win, sector, 1) != RES_OK)
   \   0000005C   0x2301             MOVS     R3,#+1
   \   0000005E   0x002A             MOVS     R2,R5
   \   00000060   0xF114 0x0134      ADDS     R1,R4,#+52
   \   00000064   0x7860             LDRB     R0,[R4, #+1]
   \   00000066   0x.... 0x....      BL       disk_read
   \   0000006A   0x2800             CMP      R0,#+0
   \   0000006C   0xD001             BEQ.N    ??move_window_5
    745          				return FR_DISK_ERR;
   \   0000006E   0x2001             MOVS     R0,#+1
   \   00000070   0xE001             B.N      ??move_window_3
    746          			fs->winsect = sector;
   \                     ??move_window_5: (+1)
   \   00000072   0x6325             STR      R5,[R4, #+48]
    747          		}
    748          	}
    749          
    750          	return FR_OK;
   \                     ??move_window_0: (+1)
   \   00000074   0x2000             MOVS     R0,#+0
   \                     ??move_window_3: (+1)
   \   00000076   0xBDF2             POP      {R1,R4-R7,PC}    ;; return
    751          }
    752          
    753          
    754          
    755          
    756          /*-----------------------------------------------------------------------*/
    757          /* Clean-up cached data                                                  */
    758          /*-----------------------------------------------------------------------*/
    759          #if !_FS_READONLY

   \                                 In section .text, align 2, keep-with-next
    760          static
    761          FRESULT sync (	/* FR_OK: successful, FR_DISK_ERR: failed */
    762          	FATFS *fs	/* File system object */
    763          )
    764          {
   \                     sync: (+1)
   \   00000000   0xB538             PUSH     {R3-R5,LR}
   \   00000002   0x0004             MOVS     R4,R0
    765          	FRESULT res;
    766          
    767          
    768          	res = move_window(fs, 0);
   \   00000004   0x2100             MOVS     R1,#+0
   \   00000006   0x0020             MOVS     R0,R4
   \   00000008   0x.... 0x....      BL       move_window
   \   0000000C   0x0005             MOVS     R5,R0
    769          	if (res == FR_OK) {
   \   0000000E   0xB2ED             UXTB     R5,R5            ;; ZeroExt  R5,R5,#+24,#+24
   \   00000010   0x2D00             CMP      R5,#+0
   \   00000012   0xD15E             BNE.N    ??sync_0
    770          		/* Update FSInfo sector if needed */
    771          		if (fs->fs_type == FS_FAT32 && fs->fsi_flag) {
   \   00000014   0x7820             LDRB     R0,[R4, #+0]
   \   00000016   0x2803             CMP      R0,#+3
   \   00000018   0xD152             BNE.N    ??sync_1
   \   0000001A   0x7960             LDRB     R0,[R4, #+5]
   \   0000001C   0x2800             CMP      R0,#+0
   \   0000001E   0xD04F             BEQ.N    ??sync_1
    772          			fs->winsect = 0;
   \   00000020   0x2000             MOVS     R0,#+0
   \   00000022   0x6320             STR      R0,[R4, #+48]
    773          			/* Create FSInfo structure */
    774          			mem_set(fs->win, 0, 512);
   \   00000024   0xF44F 0x7200      MOV      R2,#+512
   \   00000028   0x2100             MOVS     R1,#+0
   \   0000002A   0xF114 0x0034      ADDS     R0,R4,#+52
   \   0000002E   0x.... 0x....      BL       mem_set
    775          			ST_WORD(fs->win+BS_55AA, 0xAA55);
   \   00000032   0x2055             MOVS     R0,#+85
   \   00000034   0xF884 0x0232      STRB     R0,[R4, #+562]
   \   00000038   0x20AA             MOVS     R0,#+170
   \   0000003A   0xF884 0x0233      STRB     R0,[R4, #+563]
    776          			ST_DWORD(fs->win+FSI_LeadSig, 0x41615252);
   \   0000003E   0x2052             MOVS     R0,#+82
   \   00000040   0xF884 0x0034      STRB     R0,[R4, #+52]
   \   00000044   0x2052             MOVS     R0,#+82
   \   00000046   0xF884 0x0035      STRB     R0,[R4, #+53]
   \   0000004A   0x2061             MOVS     R0,#+97
   \   0000004C   0xF884 0x0036      STRB     R0,[R4, #+54]
   \   00000050   0x2041             MOVS     R0,#+65
   \   00000052   0xF884 0x0037      STRB     R0,[R4, #+55]
    777          			ST_DWORD(fs->win+FSI_StrucSig, 0x61417272);
   \   00000056   0x2072             MOVS     R0,#+114
   \   00000058   0xF884 0x0218      STRB     R0,[R4, #+536]
   \   0000005C   0x2072             MOVS     R0,#+114
   \   0000005E   0xF884 0x0219      STRB     R0,[R4, #+537]
   \   00000062   0x2041             MOVS     R0,#+65
   \   00000064   0xF884 0x021A      STRB     R0,[R4, #+538]
   \   00000068   0x2061             MOVS     R0,#+97
   \   0000006A   0xF884 0x021B      STRB     R0,[R4, #+539]
    778          			ST_DWORD(fs->win+FSI_Free_Count, fs->free_clust);
   \   0000006E   0x6920             LDR      R0,[R4, #+16]
   \   00000070   0xF884 0x021C      STRB     R0,[R4, #+540]
   \   00000074   0x6920             LDR      R0,[R4, #+16]
   \   00000076   0xB280             UXTH     R0,R0            ;; ZeroExt  R0,R0,#+16,#+16
   \   00000078   0x0A00             LSRS     R0,R0,#+8
   \   0000007A   0xF884 0x021D      STRB     R0,[R4, #+541]
   \   0000007E   0x6920             LDR      R0,[R4, #+16]
   \   00000080   0x0C00             LSRS     R0,R0,#+16
   \   00000082   0xF884 0x021E      STRB     R0,[R4, #+542]
   \   00000086   0x6920             LDR      R0,[R4, #+16]
   \   00000088   0x0E00             LSRS     R0,R0,#+24
   \   0000008A   0xF884 0x021F      STRB     R0,[R4, #+543]
    779          			ST_DWORD(fs->win+FSI_Nxt_Free, fs->last_clust);
   \   0000008E   0x68E0             LDR      R0,[R4, #+12]
   \   00000090   0xF884 0x0220      STRB     R0,[R4, #+544]
   \   00000094   0x68E0             LDR      R0,[R4, #+12]
   \   00000096   0xB280             UXTH     R0,R0            ;; ZeroExt  R0,R0,#+16,#+16
   \   00000098   0x0A00             LSRS     R0,R0,#+8
   \   0000009A   0xF884 0x0221      STRB     R0,[R4, #+545]
   \   0000009E   0x68E0             LDR      R0,[R4, #+12]
   \   000000A0   0x0C00             LSRS     R0,R0,#+16
   \   000000A2   0xF884 0x0222      STRB     R0,[R4, #+546]
   \   000000A6   0x68E0             LDR      R0,[R4, #+12]
   \   000000A8   0x0E00             LSRS     R0,R0,#+24
   \   000000AA   0xF884 0x0223      STRB     R0,[R4, #+547]
    780          			/* Write it into the FSInfo sector */
    781          			disk_write(fs->drv, fs->win, fs->fsi_sector, 1);
   \   000000AE   0x2301             MOVS     R3,#+1
   \   000000B0   0x6962             LDR      R2,[R4, #+20]
   \   000000B2   0xF114 0x0134      ADDS     R1,R4,#+52
   \   000000B6   0x7860             LDRB     R0,[R4, #+1]
   \   000000B8   0x.... 0x....      BL       disk_write
    782          			fs->fsi_flag = 0;
   \   000000BC   0x2000             MOVS     R0,#+0
   \   000000BE   0x7160             STRB     R0,[R4, #+5]
    783          		}
    784          		/* Make sure that no pending write process in the physical drive */
    785          		if (disk_ioctl(fs->drv, CTRL_SYNC, 0) != RES_OK)
   \                     ??sync_1: (+1)
   \   000000C0   0x2200             MOVS     R2,#+0
   \   000000C2   0x2100             MOVS     R1,#+0
   \   000000C4   0x7860             LDRB     R0,[R4, #+1]
   \   000000C6   0x.... 0x....      BL       disk_ioctl
   \   000000CA   0x2800             CMP      R0,#+0
   \   000000CC   0xD001             BEQ.N    ??sync_0
    786          			res = FR_DISK_ERR;
   \   000000CE   0x2001             MOVS     R0,#+1
   \   000000D0   0x0005             MOVS     R5,R0
    787          	}
    788          
    789          	return res;
   \                     ??sync_0: (+1)
   \   000000D2   0x0028             MOVS     R0,R5
   \   000000D4   0xB2C0             UXTB     R0,R0            ;; ZeroExt  R0,R0,#+24,#+24
   \   000000D6   0xBD32             POP      {R1,R4,R5,PC}    ;; return
    790          }
    791          #endif
    792          
    793          
    794          
    795          
    796          /*-----------------------------------------------------------------------*/
    797          /* Get sector# from cluster#                                             */
    798          /*-----------------------------------------------------------------------*/
    799          
    800          

   \                                 In section .text, align 2, keep-with-next
    801          DWORD clust2sect (	/* !=0: Sector number, 0: Failed - invalid cluster# */
    802          	FATFS *fs,		/* File system object */
    803          	DWORD clst		/* Cluster# to be converted */
    804          )
    805          {
   \                     clust2sect: (+1)
   \   00000000   0x0002             MOVS     R2,R0
    806          	clst -= 2;
   \   00000002   0x1E89             SUBS     R1,R1,#+2
    807          	if (clst >= (fs->n_fatent - 2)) return 0;		/* Invalid cluster# */
   \   00000004   0x69D0             LDR      R0,[R2, #+28]
   \   00000006   0x1E80             SUBS     R0,R0,#+2
   \   00000008   0x4281             CMP      R1,R0
   \   0000000A   0xD301             BCC.N    ??clust2sect_0
   \   0000000C   0x2000             MOVS     R0,#+0
   \   0000000E   0xE003             B.N      ??clust2sect_1
    808          	return clst * fs->csize + fs->database;
   \                     ??clust2sect_0: (+1)
   \   00000010   0x7890             LDRB     R0,[R2, #+2]
   \   00000012   0x6AD2             LDR      R2,[R2, #+44]
   \   00000014   0xFB00 0x2001      MLA      R0,R0,R1,R2
   \                     ??clust2sect_1: (+1)
   \   00000018   0x4770             BX       LR               ;; return
    809          }
    810          
    811          
    812          
    813          
    814          /*-----------------------------------------------------------------------*/
    815          /* FAT access - Read value of a FAT entry                                */
    816          /*-----------------------------------------------------------------------*/
    817          
    818          

   \                                 In section .text, align 2, keep-with-next
    819          DWORD get_fat (	/* 0xFFFFFFFF:Disk error, 1:Internal error, Else:Cluster status */
    820          	FATFS *fs,	/* File system object */
    821          	DWORD clst	/* Cluster# to get the link information */
    822          )
    823          {
   \                     get_fat: (+1)
   \   00000000   0xE92D 0x41F0      PUSH     {R4-R8,LR}
   \   00000004   0x0004             MOVS     R4,R0
   \   00000006   0x000D             MOVS     R5,R1
    824          	UINT wc, bc;
    825          	BYTE *p;
    826          
    827          
    828          	if (clst < 2 || clst >= fs->n_fatent)	/* Chack range */
   \   00000008   0x2D02             CMP      R5,#+2
   \   0000000A   0xD302             BCC.N    ??get_fat_0
   \   0000000C   0x69E0             LDR      R0,[R4, #+28]
   \   0000000E   0x4285             CMP      R5,R0
   \   00000010   0xD301             BCC.N    ??get_fat_1
    829          		return 1;
   \                     ??get_fat_0: (+1)
   \   00000012   0x2001             MOVS     R0,#+1
   \   00000014   0xE074             B.N      ??get_fat_2
    830          
    831          	switch (fs->fs_type) {
   \                     ??get_fat_1: (+1)
   \   00000016   0x7820             LDRB     R0,[R4, #+0]
   \   00000018   0x2801             CMP      R0,#+1
   \   0000001A   0xD004             BEQ.N    ??get_fat_3
   \   0000001C   0xD36E             BCC.N    ??get_fat_4
   \   0000001E   0x2803             CMP      R0,#+3
   \   00000020   0xD051             BEQ.N    ??get_fat_5
   \   00000022   0xD33C             BCC.N    ??get_fat_6
   \   00000024   0xE06A             B.N      ??get_fat_4
    832          	case FS_FAT12 :
    833          		bc = (UINT)clst; bc += bc / 2;
   \                     ??get_fat_3: (+1)
   \   00000026   0x0028             MOVS     R0,R5
   \   00000028   0x4680             MOV      R8,R0
   \   0000002A   0x4640             MOV      R0,R8
   \   0000002C   0xB280             UXTH     R0,R0            ;; ZeroExt  R0,R0,#+16,#+16
   \   0000002E   0x2102             MOVS     R1,#+2
   \   00000030   0xFB90 0xF0F1      SDIV     R0,R0,R1
   \   00000034   0xEB10 0x0808      ADDS     R8,R0,R8
    834          		if (move_window(fs, fs->fatbase + (bc / SS(fs)))) break;
   \   00000038   0x6A60             LDR      R0,[R4, #+36]
   \   0000003A   0xFA1F 0xF888      UXTH     R8,R8            ;; ZeroExt  R8,R8,#+16,#+16
   \   0000003E   0xEB10 0x2158      ADDS     R1,R0,R8, LSR #+9
   \   00000042   0x0020             MOVS     R0,R4
   \   00000044   0x.... 0x....      BL       move_window
   \   00000048   0x2800             CMP      R0,#+0
   \   0000004A   0xD157             BNE.N    ??get_fat_4
    835          		wc = fs->win[bc % SS(fs)]; bc++;
   \                     ??get_fat_7: (+1)
   \   0000004C   0xFA1F 0xF888      UXTH     R8,R8            ;; ZeroExt  R8,R8,#+16,#+16
   \   00000050   0xEA5F 0x50C8      LSLS     R0,R8,#+23       ;; ZeroExtS R0,R8,#+23,#+23
   \   00000054   0x0DC0             LSRS     R0,R0,#+23
   \   00000056   0x4420             ADD      R0,R4,R0
   \   00000058   0xF890 0x0034      LDRB     R0,[R0, #+52]
   \   0000005C   0x0006             MOVS     R6,R0
   \   0000005E   0xF118 0x0801      ADDS     R8,R8,#+1
    836          		if (move_window(fs, fs->fatbase + (bc / SS(fs)))) break;
   \   00000062   0x6A60             LDR      R0,[R4, #+36]
   \   00000064   0xFA1F 0xF888      UXTH     R8,R8            ;; ZeroExt  R8,R8,#+16,#+16
   \   00000068   0xEB10 0x2158      ADDS     R1,R0,R8, LSR #+9
   \   0000006C   0x0020             MOVS     R0,R4
   \   0000006E   0x.... 0x....      BL       move_window
   \   00000072   0x2800             CMP      R0,#+0
   \   00000074   0xD142             BNE.N    ??get_fat_4
    837          		wc |= fs->win[bc % SS(fs)] << 8;
   \                     ??get_fat_8: (+1)
   \   00000076   0xFA1F 0xF888      UXTH     R8,R8            ;; ZeroExt  R8,R8,#+16,#+16
   \   0000007A   0xEA5F 0x50C8      LSLS     R0,R8,#+23       ;; ZeroExtS R0,R8,#+23,#+23
   \   0000007E   0x0DC0             LSRS     R0,R0,#+23
   \   00000080   0x4420             ADD      R0,R4,R0
   \   00000082   0xF890 0x0034      LDRB     R0,[R0, #+52]
   \   00000086   0xEA56 0x2600      ORRS     R6,R6,R0, LSL #+8
    838          		return (clst & 1) ? (wc >> 4) : (wc & 0xFFF);
   \   0000008A   0x07E8             LSLS     R0,R5,#+31
   \   0000008C   0xD503             BPL.N    ??get_fat_9
   \   0000008E   0xB2B6             UXTH     R6,R6            ;; ZeroExt  R6,R6,#+16,#+16
   \   00000090   0x0930             LSRS     R0,R6,#+4
   \   00000092   0xB280             UXTH     R0,R0            ;; ZeroExt  R0,R0,#+16,#+16
   \   00000094   0xE002             B.N      ??get_fat_10
   \                     ??get_fat_9: (+1)
   \   00000096   0xB2B6             UXTH     R6,R6            ;; ZeroExt  R6,R6,#+16,#+16
   \   00000098   0x0530             LSLS     R0,R6,#+20       ;; ZeroExtS R0,R6,#+20,#+20
   \   0000009A   0x0D00             LSRS     R0,R0,#+20
   \                     ??get_fat_10: (+1)
   \   0000009C   0xE030             B.N      ??get_fat_2
    839          
    840          	case FS_FAT16 :
    841          		if (move_window(fs, fs->fatbase + (clst / (SS(fs) / 2)))) break;
   \                     ??get_fat_6: (+1)
   \   0000009E   0x6A60             LDR      R0,[R4, #+36]
   \   000000A0   0xEB10 0x2115      ADDS     R1,R0,R5, LSR #+8
   \   000000A4   0x0020             MOVS     R0,R4
   \   000000A6   0x.... 0x....      BL       move_window
   \   000000AA   0x2800             CMP      R0,#+0
   \   000000AC   0xD126             BNE.N    ??get_fat_4
    842          		p = &fs->win[clst * 2 % SS(fs)];
   \                     ??get_fat_11: (+1)
   \   000000AE   0x0068             LSLS     R0,R5,#+1
   \   000000B0   0x05C0             LSLS     R0,R0,#+23       ;; ZeroExtS R0,R0,#+23,#+23
   \   000000B2   0x0DC0             LSRS     R0,R0,#+23
   \   000000B4   0x4420             ADD      R0,R4,R0
   \   000000B6   0x3034             ADDS     R0,R0,#+52
   \   000000B8   0x0007             MOVS     R7,R0
    843          		return LD_WORD(p);
   \   000000BA   0x7878             LDRB     R0,[R7, #+1]
   \   000000BC   0x7839             LDRB     R1,[R7, #+0]
   \   000000BE   0xEA51 0x2000      ORRS     R0,R1,R0, LSL #+8
   \   000000C2   0xB280             UXTH     R0,R0            ;; ZeroExt  R0,R0,#+16,#+16
   \   000000C4   0xE01C             B.N      ??get_fat_2
    844          
    845          	case FS_FAT32 :
    846          		if (move_window(fs, fs->fatbase + (clst / (SS(fs) / 4)))) break;
   \                     ??get_fat_5: (+1)
   \   000000C6   0x6A60             LDR      R0,[R4, #+36]
   \   000000C8   0xEB10 0x11D5      ADDS     R1,R0,R5, LSR #+7
   \   000000CC   0x0020             MOVS     R0,R4
   \   000000CE   0x.... 0x....      BL       move_window
   \   000000D2   0x2800             CMP      R0,#+0
   \   000000D4   0xD112             BNE.N    ??get_fat_4
    847          		p = &fs->win[clst * 4 % SS(fs)];
   \                     ??get_fat_12: (+1)
   \   000000D6   0x00A8             LSLS     R0,R5,#+2
   \   000000D8   0x05C0             LSLS     R0,R0,#+23       ;; ZeroExtS R0,R0,#+23,#+23
   \   000000DA   0x0DC0             LSRS     R0,R0,#+23
   \   000000DC   0x4420             ADD      R0,R4,R0
   \   000000DE   0x3034             ADDS     R0,R0,#+52
   \   000000E0   0x0007             MOVS     R7,R0
    848          		return LD_DWORD(p) & 0x0FFFFFFF;
   \   000000E2   0x78F8             LDRB     R0,[R7, #+3]
   \   000000E4   0x78B9             LDRB     R1,[R7, #+2]
   \   000000E6   0x0409             LSLS     R1,R1,#+16
   \   000000E8   0xEA51 0x6000      ORRS     R0,R1,R0, LSL #+24
   \   000000EC   0x7879             LDRB     R1,[R7, #+1]
   \   000000EE   0xEA50 0x2001      ORRS     R0,R0,R1, LSL #+8
   \   000000F2   0x7839             LDRB     R1,[R7, #+0]
   \   000000F4   0x4308             ORRS     R0,R1,R0
   \   000000F6   0xF020 0x4070      BIC      R0,R0,#0xF0000000
   \   000000FA   0xE001             B.N      ??get_fat_2
    849          	}
    850          
    851          	return 0xFFFFFFFF;	/* An error occurred at the disk I/O layer */
   \                     ??get_fat_4: (+1)
   \   000000FC   0xF05F 0x30FF      MOVS     R0,#-1
   \                     ??get_fat_2: (+1)
   \   00000100   0xE8BD 0x81F0      POP      {R4-R8,PC}       ;; return
    852          }
    853          
    854          
    855          
    856          
    857          /*-----------------------------------------------------------------------*/
    858          /* FAT access - Change value of a FAT entry                              */
    859          /*-----------------------------------------------------------------------*/
    860          #if !_FS_READONLY
    861          

   \                                 In section .text, align 2, keep-with-next
    862          FRESULT put_fat (
    863          	FATFS *fs,	/* File system object */
    864          	DWORD clst,	/* Cluster# to be changed in range of 2 to fs->n_fatent - 1 */
    865          	DWORD val	/* New value to mark the cluster */
    866          )
    867          {
   \                     put_fat: (+1)
   \   00000000   0xE92D 0x43F8      PUSH     {R3-R9,LR}
   \   00000004   0x0004             MOVS     R4,R0
   \   00000006   0x000D             MOVS     R5,R1
   \   00000008   0x0016             MOVS     R6,R2
    868          	UINT bc;
    869          	BYTE *p;
    870          	FRESULT res;
    871          
    872          
    873          	if (clst < 2 || clst >= fs->n_fatent) {	/* Check range */
   \   0000000A   0x2D02             CMP      R5,#+2
   \   0000000C   0xD302             BCC.N    ??put_fat_0
   \   0000000E   0x69E0             LDR      R0,[R4, #+28]
   \   00000010   0x4285             CMP      R5,R0
   \   00000012   0xD302             BCC.N    ??put_fat_1
    874          		res = FR_INT_ERR;
   \                     ??put_fat_0: (+1)
   \   00000014   0x2002             MOVS     R0,#+2
   \   00000016   0x4681             MOV      R9,R0
   \   00000018   0xE098             B.N      ??put_fat_2
    875          
    876          	} else {
    877          		switch (fs->fs_type) {
   \                     ??put_fat_1: (+1)
   \   0000001A   0x7820             LDRB     R0,[R4, #+0]
   \   0000001C   0x2801             CMP      R0,#+1
   \   0000001E   0xD005             BEQ.N    ??put_fat_3
   \   00000020   0xF0C0 0x8090      BCC.W    ??put_fat_4
   \   00000024   0x2803             CMP      R0,#+3
   \   00000026   0xD067             BEQ.N    ??put_fat_5
   \   00000028   0xD34C             BCC.N    ??put_fat_6
   \   0000002A   0xE08B             B.N      ??put_fat_4
    878          		case FS_FAT12 :
    879          			bc = clst; bc += bc / 2;
   \                     ??put_fat_3: (+1)
   \   0000002C   0x0028             MOVS     R0,R5
   \   0000002E   0x0007             MOVS     R7,R0
   \   00000030   0x0038             MOVS     R0,R7
   \   00000032   0xB280             UXTH     R0,R0            ;; ZeroExt  R0,R0,#+16,#+16
   \   00000034   0x2102             MOVS     R1,#+2
   \   00000036   0xFB90 0xF0F1      SDIV     R0,R0,R1
   \   0000003A   0x19C7             ADDS     R7,R0,R7
    880          			res = move_window(fs, fs->fatbase + (bc / SS(fs)));
   \   0000003C   0x6A60             LDR      R0,[R4, #+36]
   \   0000003E   0xB2BF             UXTH     R7,R7            ;; ZeroExt  R7,R7,#+16,#+16
   \   00000040   0xEB10 0x2157      ADDS     R1,R0,R7, LSR #+9
   \   00000044   0x0020             MOVS     R0,R4
   \   00000046   0x.... 0x....      BL       move_window
   \   0000004A   0x4681             MOV      R9,R0
    881          			if (res != FR_OK) break;
   \   0000004C   0xFA5F 0xF989      UXTB     R9,R9            ;; ZeroExt  R9,R9,#+24,#+24
   \   00000050   0xF1B9 0x0F00      CMP      R9,#+0
   \   00000054   0xD178             BNE.N    ??put_fat_7
    882          			p = &fs->win[bc % SS(fs)];
   \                     ??put_fat_8: (+1)
   \   00000056   0xB2BF             UXTH     R7,R7            ;; ZeroExt  R7,R7,#+16,#+16
   \   00000058   0x05F8             LSLS     R0,R7,#+23       ;; ZeroExtS R0,R7,#+23,#+23
   \   0000005A   0x0DC0             LSRS     R0,R0,#+23
   \   0000005C   0x4420             ADD      R0,R4,R0
   \   0000005E   0x3034             ADDS     R0,R0,#+52
   \   00000060   0x4680             MOV      R8,R0
    883          			*p = (clst & 1) ? ((*p & 0x0F) | ((BYTE)val << 4)) : (BYTE)val;
   \   00000062   0x07E8             LSLS     R0,R5,#+31
   \   00000064   0xD506             BPL.N    ??put_fat_9
   \   00000066   0xF898 0x0000      LDRB     R0,[R8, #+0]
   \   0000006A   0xF010 0x000F      ANDS     R0,R0,#0xF
   \   0000006E   0xEA50 0x1006      ORRS     R0,R0,R6, LSL #+4
   \   00000072   0xE000             B.N      ??put_fat_10
   \                     ??put_fat_9: (+1)
   \   00000074   0x0030             MOVS     R0,R6
   \                     ??put_fat_10: (+1)
   \   00000076   0xF888 0x0000      STRB     R0,[R8, #+0]
    884          			bc++;
   \   0000007A   0x1C7F             ADDS     R7,R7,#+1
    885          			fs->wflag = 1;
   \   0000007C   0x2001             MOVS     R0,#+1
   \   0000007E   0x7120             STRB     R0,[R4, #+4]
    886          			res = move_window(fs, fs->fatbase + (bc / SS(fs)));
   \   00000080   0x6A60             LDR      R0,[R4, #+36]
   \   00000082   0xB2BF             UXTH     R7,R7            ;; ZeroExt  R7,R7,#+16,#+16
   \   00000084   0xEB10 0x2157      ADDS     R1,R0,R7, LSR #+9
   \   00000088   0x0020             MOVS     R0,R4
   \   0000008A   0x.... 0x....      BL       move_window
   \   0000008E   0x4681             MOV      R9,R0
    887          			if (res != FR_OK) break;
   \   00000090   0xFA5F 0xF989      UXTB     R9,R9            ;; ZeroExt  R9,R9,#+24,#+24
   \   00000094   0xF1B9 0x0F00      CMP      R9,#+0
   \   00000098   0xD156             BNE.N    ??put_fat_7
    888          			p = &fs->win[bc % SS(fs)];
   \                     ??put_fat_11: (+1)
   \   0000009A   0xB2BF             UXTH     R7,R7            ;; ZeroExt  R7,R7,#+16,#+16
   \   0000009C   0x05F8             LSLS     R0,R7,#+23       ;; ZeroExtS R0,R7,#+23,#+23
   \   0000009E   0x0DC0             LSRS     R0,R0,#+23
   \   000000A0   0x4420             ADD      R0,R4,R0
   \   000000A2   0x3034             ADDS     R0,R0,#+52
   \   000000A4   0x4680             MOV      R8,R0
    889          			*p = (clst & 1) ? (BYTE)(val >> 4) : ((*p & 0xF0) | ((BYTE)(val >> 8) & 0x0F));
   \   000000A6   0x07E8             LSLS     R0,R5,#+31
   \   000000A8   0xD501             BPL.N    ??put_fat_12
   \   000000AA   0x0930             LSRS     R0,R6,#+4
   \   000000AC   0xE007             B.N      ??put_fat_13
   \                     ??put_fat_12: (+1)
   \   000000AE   0xF898 0x0000      LDRB     R0,[R8, #+0]
   \   000000B2   0xF010 0x00F0      ANDS     R0,R0,#0xF0
   \   000000B6   0x0A31             LSRS     R1,R6,#+8
   \   000000B8   0xF011 0x010F      ANDS     R1,R1,#0xF
   \   000000BC   0x4308             ORRS     R0,R1,R0
   \                     ??put_fat_13: (+1)
   \   000000BE   0xF888 0x0000      STRB     R0,[R8, #+0]
    890          			break;
   \   000000C2   0xE041             B.N      ??put_fat_7
    891          
    892          		case FS_FAT16 :
    893          			res = move_window(fs, fs->fatbase + (clst / (SS(fs) / 2)));
   \                     ??put_fat_6: (+1)
   \   000000C4   0x6A60             LDR      R0,[R4, #+36]
   \   000000C6   0xEB10 0x2115      ADDS     R1,R0,R5, LSR #+8
   \   000000CA   0x0020             MOVS     R0,R4
   \   000000CC   0x.... 0x....      BL       move_window
   \   000000D0   0x4681             MOV      R9,R0
    894          			if (res != FR_OK) break;
   \   000000D2   0xFA5F 0xF989      UXTB     R9,R9            ;; ZeroExt  R9,R9,#+24,#+24
   \   000000D6   0xF1B9 0x0F00      CMP      R9,#+0
   \   000000DA   0xD135             BNE.N    ??put_fat_7
    895          			p = &fs->win[clst * 2 % SS(fs)];
   \                     ??put_fat_14: (+1)
   \   000000DC   0x0068             LSLS     R0,R5,#+1
   \   000000DE   0x05C0             LSLS     R0,R0,#+23       ;; ZeroExtS R0,R0,#+23,#+23
   \   000000E0   0x0DC0             LSRS     R0,R0,#+23
   \   000000E2   0x4420             ADD      R0,R4,R0
   \   000000E4   0x3034             ADDS     R0,R0,#+52
   \   000000E6   0x4680             MOV      R8,R0
    896          			ST_WORD(p, (WORD)val);
   \   000000E8   0xF888 0x6000      STRB     R6,[R8, #+0]
   \   000000EC   0x0030             MOVS     R0,R6
   \   000000EE   0xB280             UXTH     R0,R0            ;; ZeroExt  R0,R0,#+16,#+16
   \   000000F0   0x0A00             LSRS     R0,R0,#+8
   \   000000F2   0xF888 0x0001      STRB     R0,[R8, #+1]
    897          			break;
   \   000000F6   0xE027             B.N      ??put_fat_7
    898          
    899          		case FS_FAT32 :
    900          			res = move_window(fs, fs->fatbase + (clst / (SS(fs) / 4)));
   \                     ??put_fat_5: (+1)
   \   000000F8   0x6A60             LDR      R0,[R4, #+36]
   \   000000FA   0xEB10 0x11D5      ADDS     R1,R0,R5, LSR #+7
   \   000000FE   0x0020             MOVS     R0,R4
   \   00000100   0x.... 0x....      BL       move_window
   \   00000104   0x4681             MOV      R9,R0
    901          			if (res != FR_OK) break;
   \   00000106   0xFA5F 0xF989      UXTB     R9,R9            ;; ZeroExt  R9,R9,#+24,#+24
   \   0000010A   0xF1B9 0x0F00      CMP      R9,#+0
   \   0000010E   0xD11B             BNE.N    ??put_fat_7
    902          			p = &fs->win[clst * 4 % SS(fs)];
   \                     ??put_fat_15: (+1)
   \   00000110   0x00A8             LSLS     R0,R5,#+2
   \   00000112   0x05C0             LSLS     R0,R0,#+23       ;; ZeroExtS R0,R0,#+23,#+23
   \   00000114   0x0DC0             LSRS     R0,R0,#+23
   \   00000116   0x4420             ADD      R0,R4,R0
   \   00000118   0x3034             ADDS     R0,R0,#+52
   \   0000011A   0x4680             MOV      R8,R0
    903          			val |= LD_DWORD(p) & 0xF0000000;
   \   0000011C   0xF898 0x0003      LDRB     R0,[R8, #+3]
   \   00000120   0x0600             LSLS     R0,R0,#+24
   \   00000122   0xF010 0x4070      ANDS     R0,R0,#0xF0000000
   \   00000126   0x4306             ORRS     R6,R0,R6
    904          			ST_DWORD(p, val);
   \   00000128   0xF888 0x6000      STRB     R6,[R8, #+0]
   \   0000012C   0x0030             MOVS     R0,R6
   \   0000012E   0xB280             UXTH     R0,R0            ;; ZeroExt  R0,R0,#+16,#+16
   \   00000130   0x0A00             LSRS     R0,R0,#+8
   \   00000132   0xF888 0x0001      STRB     R0,[R8, #+1]
   \   00000136   0x0C30             LSRS     R0,R6,#+16
   \   00000138   0xF888 0x0002      STRB     R0,[R8, #+2]
   \   0000013C   0x0E30             LSRS     R0,R6,#+24
   \   0000013E   0xF888 0x0003      STRB     R0,[R8, #+3]
    905          			break;
   \   00000142   0xE001             B.N      ??put_fat_7
    906          
    907          		default :
    908          			res = FR_INT_ERR;
   \                     ??put_fat_4: (+1)
   \   00000144   0x2002             MOVS     R0,#+2
   \   00000146   0x4681             MOV      R9,R0
    909          		}
    910          		fs->wflag = 1;
   \                     ??put_fat_7: (+1)
   \   00000148   0x2001             MOVS     R0,#+1
   \   0000014A   0x7120             STRB     R0,[R4, #+4]
    911          	}
    912          
    913          	return res;
   \                     ??put_fat_2: (+1)
   \   0000014C   0x4648             MOV      R0,R9
   \   0000014E   0xB2C0             UXTB     R0,R0            ;; ZeroExt  R0,R0,#+24,#+24
   \   00000150   0xE8BD 0x83F2      POP      {R1,R4-R9,PC}    ;; return
    914          }
    915          #endif /* !_FS_READONLY */
    916          
    917          
    918          
    919          
    920          /*-----------------------------------------------------------------------*/
    921          /* FAT handling - Remove a cluster chain                                 */
    922          /*-----------------------------------------------------------------------*/
    923          #if !_FS_READONLY

   \                                 In section .text, align 2, keep-with-next
    924          static
    925          FRESULT remove_chain (
    926          	FATFS *fs,			/* File system object */
    927          	DWORD clst			/* Cluster# to remove a chain from */
    928          )
    929          {
   \                     remove_chain: (+1)
   \   00000000   0xB5F8             PUSH     {R3-R7,LR}
   \   00000002   0x0004             MOVS     R4,R0
   \   00000004   0x000D             MOVS     R5,R1
    930          	FRESULT res;
    931          	DWORD nxt;
    932          #if _USE_ERASE
    933          	DWORD scl = clst, ecl = clst, resion[2];
    934          #endif
    935          
    936          	if (clst < 2 || clst >= fs->n_fatent) {	/* Check range */
   \   00000006   0x2D02             CMP      R5,#+2
   \   00000008   0xD302             BCC.N    ??remove_chain_0
   \   0000000A   0x69E0             LDR      R0,[R4, #+28]
   \   0000000C   0x4285             CMP      R5,R0
   \   0000000E   0xD302             BCC.N    ??remove_chain_1
    937          		res = FR_INT_ERR;
   \                     ??remove_chain_0: (+1)
   \   00000010   0x2002             MOVS     R0,#+2
   \   00000012   0x0006             MOVS     R6,R0
   \   00000014   0xE02A             B.N      ??remove_chain_2
    938          
    939          	} else {
    940          		res = FR_OK;
   \                     ??remove_chain_1: (+1)
   \   00000016   0x2000             MOVS     R0,#+0
   \   00000018   0x0006             MOVS     R6,R0
    941          		while (clst < fs->n_fatent) {			/* Not a last link? */
   \                     ??remove_chain_3: (+1)
   \   0000001A   0x69E0             LDR      R0,[R4, #+28]
   \   0000001C   0x4285             CMP      R5,R0
   \   0000001E   0xD225             BCS.N    ??remove_chain_2
    942          			nxt = get_fat(fs, clst);			/* Get cluster status */
   \   00000020   0x0029             MOVS     R1,R5
   \   00000022   0x0020             MOVS     R0,R4
   \   00000024   0x.... 0x....      BL       get_fat
   \   00000028   0x0007             MOVS     R7,R0
    943          			if (nxt == 0) break;				/* Empty cluster? */
   \   0000002A   0x2F00             CMP      R7,#+0
   \   0000002C   0xD01E             BEQ.N    ??remove_chain_2
    944          			if (nxt == 1) { res = FR_INT_ERR; break; }	/* Internal error? */
   \                     ??remove_chain_4: (+1)
   \   0000002E   0x2F01             CMP      R7,#+1
   \   00000030   0xD102             BNE.N    ??remove_chain_5
   \   00000032   0x2002             MOVS     R0,#+2
   \   00000034   0x0006             MOVS     R6,R0
   \   00000036   0xE019             B.N      ??remove_chain_2
    945          			if (nxt == 0xFFFFFFFF) { res = FR_DISK_ERR; break; }	/* Disk error? */
   \                     ??remove_chain_5: (+1)
   \   00000038   0xF117 0x0F01      CMN      R7,#+1
   \   0000003C   0xD102             BNE.N    ??remove_chain_6
   \   0000003E   0x2001             MOVS     R0,#+1
   \   00000040   0x0006             MOVS     R6,R0
   \   00000042   0xE013             B.N      ??remove_chain_2
    946          			res = put_fat(fs, clst, 0);			/* Mark the cluster "empty" */
   \                     ??remove_chain_6: (+1)
   \   00000044   0x2200             MOVS     R2,#+0
   \   00000046   0x0029             MOVS     R1,R5
   \   00000048   0x0020             MOVS     R0,R4
   \   0000004A   0x.... 0x....      BL       put_fat
   \   0000004E   0x0006             MOVS     R6,R0
    947          			if (res != FR_OK) break;
   \   00000050   0xB2F6             UXTB     R6,R6            ;; ZeroExt  R6,R6,#+24,#+24
   \   00000052   0x2E00             CMP      R6,#+0
   \   00000054   0xD10A             BNE.N    ??remove_chain_2
    948          			if (fs->free_clust != 0xFFFFFFFF) {	/* Update FSInfo */
   \                     ??remove_chain_7: (+1)
   \   00000056   0x6920             LDR      R0,[R4, #+16]
   \   00000058   0xF110 0x0F01      CMN      R0,#+1
   \   0000005C   0xD004             BEQ.N    ??remove_chain_8
    949          				fs->free_clust++;
   \   0000005E   0x6920             LDR      R0,[R4, #+16]
   \   00000060   0x1C40             ADDS     R0,R0,#+1
   \   00000062   0x6120             STR      R0,[R4, #+16]
    950          				fs->fsi_flag = 1;
   \   00000064   0x2001             MOVS     R0,#+1
   \   00000066   0x7160             STRB     R0,[R4, #+5]
    951          			}
    952          #if _USE_ERASE
    953          			if (ecl + 1 == nxt) {	/* Next cluster is contiguous */
    954          				ecl = nxt;
    955          			} else {				/* End of contiguous clusters */
    956          				resion[0] = clust2sect(fs, scl);					/* Start sector */
    957          				resion[1] = clust2sect(fs, ecl) + fs->csize - 1;	/* End sector */
    958          				disk_ioctl(fs->drv, CTRL_ERASE_SECTOR, resion);		/* Erase the block */
    959          				scl = ecl = nxt;
    960          			}
    961          #endif
    962          			clst = nxt;	/* Next cluster */
   \                     ??remove_chain_8: (+1)
   \   00000068   0x003D             MOVS     R5,R7
   \   0000006A   0xE7D6             B.N      ??remove_chain_3
    963          		}
    964          	}
    965          
    966          	return res;
   \                     ??remove_chain_2: (+1)
   \   0000006C   0x0030             MOVS     R0,R6
   \   0000006E   0xB2C0             UXTB     R0,R0            ;; ZeroExt  R0,R0,#+24,#+24
   \   00000070   0xBDF2             POP      {R1,R4-R7,PC}    ;; return
    967          }
    968          #endif
    969          
    970          
    971          
    972          
    973          /*-----------------------------------------------------------------------*/
    974          /* FAT handling - Stretch or Create a cluster chain                      */
    975          /*-----------------------------------------------------------------------*/
    976          #if !_FS_READONLY

   \                                 In section .text, align 2, keep-with-next
    977          static
    978          DWORD create_chain (	/* 0:No free cluster, 1:Internal error, 0xFFFFFFFF:Disk error, >=2:New cluster# */
    979          	FATFS *fs,			/* File system object */
    980          	DWORD clst			/* Cluster# to stretch. 0 means create a new chain. */
    981          )
    982          {
   \                     create_chain: (+1)
   \   00000000   0xE92D 0x43F8      PUSH     {R3-R9,LR}
   \   00000004   0x0004             MOVS     R4,R0
   \   00000006   0x000D             MOVS     R5,R1
    983          	DWORD cs, ncl, scl;
    984          	FRESULT res;
    985          
    986          
    987          	if (clst == 0) {		/* Create a new chain */
   \   00000008   0x2D00             CMP      R5,#+0
   \   0000000A   0xD10A             BNE.N    ??create_chain_0
    988          		scl = fs->last_clust;			/* Get suggested start point */
   \   0000000C   0x68E0             LDR      R0,[R4, #+12]
   \   0000000E   0x4680             MOV      R8,R0
    989          		if (!scl || scl >= fs->n_fatent) scl = 1;
   \   00000010   0xF1B8 0x0F00      CMP      R8,#+0
   \   00000014   0xD002             BEQ.N    ??create_chain_1
   \   00000016   0x69E0             LDR      R0,[R4, #+28]
   \   00000018   0x4580             CMP      R8,R0
   \   0000001A   0xD311             BCC.N    ??create_chain_2
   \                     ??create_chain_1: (+1)
   \   0000001C   0x2001             MOVS     R0,#+1
   \   0000001E   0x4680             MOV      R8,R0
   \   00000020   0xE00E             B.N      ??create_chain_2
    990          	}
    991          	else {					/* Stretch the current chain */
    992          		cs = get_fat(fs, clst);			/* Check the cluster status */
   \                     ??create_chain_0: (+1)
   \   00000022   0x0029             MOVS     R1,R5
   \   00000024   0x0020             MOVS     R0,R4
   \   00000026   0x.... 0x....      BL       get_fat
   \   0000002A   0x0006             MOVS     R6,R0
    993          		if (cs < 2) return 1;			/* It is an invalid cluster */
   \   0000002C   0x2E02             CMP      R6,#+2
   \   0000002E   0xD201             BCS.N    ??create_chain_3
   \   00000030   0x2001             MOVS     R0,#+1
   \   00000032   0xE051             B.N      ??create_chain_4
    994          		if (cs < fs->n_fatent) return cs;	/* It is already followed by next cluster */
   \                     ??create_chain_3: (+1)
   \   00000034   0x69E0             LDR      R0,[R4, #+28]
   \   00000036   0x4286             CMP      R6,R0
   \   00000038   0xD201             BCS.N    ??create_chain_5
   \   0000003A   0x0030             MOVS     R0,R6
   \   0000003C   0xE04C             B.N      ??create_chain_4
    995          		scl = clst;
   \                     ??create_chain_5: (+1)
   \   0000003E   0x46A8             MOV      R8,R5
    996          	}
    997          
    998          	ncl = scl;				/* Start cluster */
   \                     ??create_chain_2: (+1)
   \   00000040   0x4647             MOV      R7,R8
    999          	for (;;) {
   1000          		ncl++;							/* Next cluster */
   \                     ??create_chain_6: (+1)
   \   00000042   0x1C7F             ADDS     R7,R7,#+1
   1001          		if (ncl >= fs->n_fatent) {		/* Wrap around */
   \   00000044   0x69E0             LDR      R0,[R4, #+28]
   \   00000046   0x4287             CMP      R7,R0
   \   00000048   0xD305             BCC.N    ??create_chain_7
   1002          			ncl = 2;
   \   0000004A   0x2002             MOVS     R0,#+2
   \   0000004C   0x0007             MOVS     R7,R0
   1003          			if (ncl > scl) return 0;	/* No free cluster */
   \   0000004E   0x45B8             CMP      R8,R7
   \   00000050   0xD201             BCS.N    ??create_chain_7
   \   00000052   0x2000             MOVS     R0,#+0
   \   00000054   0xE040             B.N      ??create_chain_4
   1004          		}
   1005          		cs = get_fat(fs, ncl);			/* Get the cluster status */
   \                     ??create_chain_7: (+1)
   \   00000056   0x0039             MOVS     R1,R7
   \   00000058   0x0020             MOVS     R0,R4
   \   0000005A   0x.... 0x....      BL       get_fat
   \   0000005E   0x0006             MOVS     R6,R0
   1006          		if (cs == 0) break;				/* Found a free cluster */
   \   00000060   0x2E00             CMP      R6,#+0
   \   00000062   0xD10C             BNE.N    ??create_chain_8
   1007          		if (cs == 0xFFFFFFFF || cs == 1)/* An error occurred */
   1008          			return cs;
   1009          		if (ncl == scl) return 0;		/* No free cluster */
   1010          	}
   1011          
   1012          	res = put_fat(fs, ncl, 0x0FFFFFFF);	/* Mark the new cluster "last link" */
   \   00000064   0xF07F 0x4270      MVNS     R2,#-268435456
   \   00000068   0x0039             MOVS     R1,R7
   \   0000006A   0x0020             MOVS     R0,R4
   \   0000006C   0x.... 0x....      BL       put_fat
   \   00000070   0x4681             MOV      R9,R0
   1013          	if (res == FR_OK && clst != 0) {
   \   00000072   0xFA5F 0xF989      UXTB     R9,R9            ;; ZeroExt  R9,R9,#+24,#+24
   \   00000076   0xF1B9 0x0F00      CMP      R9,#+0
   \   0000007A   0xD113             BNE.N    ??create_chain_9
   \   0000007C   0xE00A             B.N      ??create_chain_10
   \                     ??create_chain_8: (+1)
   \   0000007E   0xF116 0x0F01      CMN      R6,#+1
   \   00000082   0xD001             BEQ.N    ??create_chain_11
   \   00000084   0x2E01             CMP      R6,#+1
   \   00000086   0xD101             BNE.N    ??create_chain_12
   \                     ??create_chain_11: (+1)
   \   00000088   0x0030             MOVS     R0,R6
   \   0000008A   0xE025             B.N      ??create_chain_4
   \                     ??create_chain_12: (+1)
   \   0000008C   0x4547             CMP      R7,R8
   \   0000008E   0xD1D8             BNE.N    ??create_chain_6
   \   00000090   0x2000             MOVS     R0,#+0
   \   00000092   0xE021             B.N      ??create_chain_4
   \                     ??create_chain_10: (+1)
   \   00000094   0x2D00             CMP      R5,#+0
   \   00000096   0xD005             BEQ.N    ??create_chain_9
   1014          		res = put_fat(fs, clst, ncl);	/* Link it to the previous one if needed */
   \   00000098   0x003A             MOVS     R2,R7
   \   0000009A   0x0029             MOVS     R1,R5
   \   0000009C   0x0020             MOVS     R0,R4
   \   0000009E   0x.... 0x....      BL       put_fat
   \   000000A2   0x4681             MOV      R9,R0
   1015          	}
   1016          	if (res == FR_OK) {
   \                     ??create_chain_9: (+1)
   \   000000A4   0xFA5F 0xF989      UXTB     R9,R9            ;; ZeroExt  R9,R9,#+24,#+24
   \   000000A8   0xF1B9 0x0F00      CMP      R9,#+0
   \   000000AC   0xD10A             BNE.N    ??create_chain_13
   1017          		fs->last_clust = ncl;			/* Update FSINFO */
   \   000000AE   0x60E7             STR      R7,[R4, #+12]
   1018          		if (fs->free_clust != 0xFFFFFFFF) {
   \   000000B0   0x6920             LDR      R0,[R4, #+16]
   \   000000B2   0xF110 0x0F01      CMN      R0,#+1
   \   000000B6   0xD00E             BEQ.N    ??create_chain_14
   1019          			fs->free_clust--;
   \   000000B8   0x6920             LDR      R0,[R4, #+16]
   \   000000BA   0x1E40             SUBS     R0,R0,#+1
   \   000000BC   0x6120             STR      R0,[R4, #+16]
   1020          			fs->fsi_flag = 1;
   \   000000BE   0x2001             MOVS     R0,#+1
   \   000000C0   0x7160             STRB     R0,[R4, #+5]
   \   000000C2   0xE008             B.N      ??create_chain_14
   1021          		}
   1022          	} else {
   1023          		ncl = (res == FR_DISK_ERR) ? 0xFFFFFFFF : 1;
   \                     ??create_chain_13: (+1)
   \   000000C4   0xFA5F 0xF989      UXTB     R9,R9            ;; ZeroExt  R9,R9,#+24,#+24
   \   000000C8   0xF1B9 0x0F01      CMP      R9,#+1
   \   000000CC   0xD102             BNE.N    ??create_chain_15
   \   000000CE   0xF05F 0x37FF      MOVS     R7,#-1
   \   000000D2   0xE000             B.N      ??create_chain_14
   \                     ??create_chain_15: (+1)
   \   000000D4   0x2701             MOVS     R7,#+1
   1024          	}
   1025          
   1026          	return ncl;		/* Return new cluster number or error code */
   \                     ??create_chain_14: (+1)
   \   000000D6   0x0038             MOVS     R0,R7
   \                     ??create_chain_4: (+1)
   \   000000D8   0xE8BD 0x83F2      POP      {R1,R4-R9,PC}    ;; return
   1027          }
   1028          #endif /* !_FS_READONLY */
   1029          
   1030          
   1031          
   1032          /*-----------------------------------------------------------------------*/
   1033          /* FAT handling - Convert offset into cluster with link map table        */
   1034          /*-----------------------------------------------------------------------*/
   1035          
   1036          #if _USE_FASTSEEK
   1037          static
   1038          DWORD clmt_clust (	/* <2:Error, >=2:Cluster number */
   1039          	FIL* fp,		/* Pointer to the file object */
   1040          	DWORD ofs		/* File offset to be converted to cluster# */
   1041          )
   1042          {
   1043          	DWORD cl, ncl, *tbl;
   1044          
   1045          
   1046          	tbl = fp->cltbl + 1;	/* Top of CLMT */
   1047          	cl = ofs / SS(fp->fs) / fp->fs->csize;	/* Cluster order from top of the file */
   1048          	for (;;) {
   1049          		ncl = *tbl++;			/* Number of cluters in the fragment */
   1050          		if (!ncl) return 0;		/* End of table? (error) */
   1051          		if (cl < ncl) break;	/* In this fragment? */
   1052          		cl -= ncl; tbl++;		/* Next fragment */
   1053          	}
   1054          	return cl + *tbl;	/* Return the cluster number */
   1055          }
   1056          #endif	/* _USE_FASTSEEK */
   1057          
   1058          
   1059          
   1060          /*-----------------------------------------------------------------------*/
   1061          /* Directory handling - Set directory index                              */
   1062          /*-----------------------------------------------------------------------*/
   1063          

   \                                 In section .text, align 2, keep-with-next
   1064          static
   1065          FRESULT dir_sdi (
   1066          	DIR *dj,		/* Pointer to directory object */
   1067          	WORD idx		/* Directory index number */
   1068          )
   1069          {
   \                     dir_sdi: (+1)
   \   00000000   0xB5F8             PUSH     {R3-R7,LR}
   \   00000002   0x0004             MOVS     R4,R0
   \   00000004   0x000D             MOVS     R5,R1
   1070          	DWORD clst;
   1071          	WORD ic;
   1072          
   1073          
   1074          	dj->index = idx;
   \   00000006   0x80E5             STRH     R5,[R4, #+6]
   1075          	clst = dj->sclust;
   \   00000008   0x68A0             LDR      R0,[R4, #+8]
   \   0000000A   0x0006             MOVS     R6,R0
   1076          	if (clst == 1 || clst >= dj->fs->n_fatent)	/* Check start cluster range */
   \   0000000C   0x2E01             CMP      R6,#+1
   \   0000000E   0xD003             BEQ.N    ??dir_sdi_0
   \   00000010   0x6820             LDR      R0,[R4, #+0]
   \   00000012   0x69C0             LDR      R0,[R0, #+28]
   \   00000014   0x4286             CMP      R6,R0
   \   00000016   0xD301             BCC.N    ??dir_sdi_1
   1077          		return FR_INT_ERR;
   \                     ??dir_sdi_0: (+1)
   \   00000018   0x2002             MOVS     R0,#+2
   \   0000001A   0xE04B             B.N      ??dir_sdi_2
   1078          	if (!clst && dj->fs->fs_type == FS_FAT32)	/* Replace cluster# 0 with root cluster# if in FAT32 */
   \                     ??dir_sdi_1: (+1)
   \   0000001C   0x2E00             CMP      R6,#+0
   \   0000001E   0xD106             BNE.N    ??dir_sdi_3
   \   00000020   0x6820             LDR      R0,[R4, #+0]
   \   00000022   0x7800             LDRB     R0,[R0, #+0]
   \   00000024   0x2803             CMP      R0,#+3
   \   00000026   0xD102             BNE.N    ??dir_sdi_3
   1079          		clst = dj->fs->dirbase;
   \   00000028   0x6820             LDR      R0,[R4, #+0]
   \   0000002A   0x6A80             LDR      R0,[R0, #+40]
   \   0000002C   0x0006             MOVS     R6,R0
   1080          
   1081          	if (clst == 0) {	/* Static table (root-dir in FAT12/16) */
   \                     ??dir_sdi_3: (+1)
   \   0000002E   0x2E00             CMP      R6,#+0
   \   00000030   0xD10F             BNE.N    ??dir_sdi_4
   1082          		dj->clust = clst;
   \   00000032   0x60E6             STR      R6,[R4, #+12]
   1083          		if (idx >= dj->fs->n_rootdir)		/* Index is out of range */
   \   00000034   0x0028             MOVS     R0,R5
   \   00000036   0x6821             LDR      R1,[R4, #+0]
   \   00000038   0x8909             LDRH     R1,[R1, #+8]
   \   0000003A   0xB280             UXTH     R0,R0            ;; ZeroExt  R0,R0,#+16,#+16
   \   0000003C   0x4288             CMP      R0,R1
   \   0000003E   0xD301             BCC.N    ??dir_sdi_5
   1084          			return FR_INT_ERR;
   \   00000040   0x2002             MOVS     R0,#+2
   \   00000042   0xE037             B.N      ??dir_sdi_2
   1085          		dj->sect = dj->fs->dirbase + idx / (SS(dj->fs) / SZ_DIR);	/* Sector# */
   \                     ??dir_sdi_5: (+1)
   \   00000044   0x6820             LDR      R0,[R4, #+0]
   \   00000046   0x6A80             LDR      R0,[R0, #+40]
   \   00000048   0xB2AD             UXTH     R5,R5            ;; ZeroExt  R5,R5,#+16,#+16
   \   0000004A   0xEB10 0x1015      ADDS     R0,R0,R5, LSR #+4
   \   0000004E   0x6120             STR      R0,[R4, #+16]
   \   00000050   0xE027             B.N      ??dir_sdi_6
   1086          	}
   1087          	else {				/* Dynamic table (sub-dirs or root-dir in FAT32) */
   1088          		ic = SS(dj->fs) / SZ_DIR * dj->fs->csize;	/* Entries per cluster */
   \                     ??dir_sdi_4: (+1)
   \   00000052   0x6820             LDR      R0,[R4, #+0]
   \   00000054   0x7880             LDRB     R0,[R0, #+2]
   \   00000056   0xB280             UXTH     R0,R0            ;; ZeroExt  R0,R0,#+16,#+16
   \   00000058   0x0100             LSLS     R0,R0,#+4
   \   0000005A   0x0007             MOVS     R7,R0
   1089          		while (idx >= ic) {	/* Follow cluster chain */
   \                     ??dir_sdi_7: (+1)
   \   0000005C   0x0028             MOVS     R0,R5
   \   0000005E   0x0039             MOVS     R1,R7
   \   00000060   0xB280             UXTH     R0,R0            ;; ZeroExt  R0,R0,#+16,#+16
   \   00000062   0xB289             UXTH     R1,R1            ;; ZeroExt  R1,R1,#+16,#+16
   \   00000064   0x4288             CMP      R0,R1
   \   00000066   0xD313             BCC.N    ??dir_sdi_8
   1090          			clst = get_fat(dj->fs, clst);				/* Get next cluster */
   \   00000068   0x0031             MOVS     R1,R6
   \   0000006A   0x6820             LDR      R0,[R4, #+0]
   \   0000006C   0x.... 0x....      BL       get_fat
   \   00000070   0x0006             MOVS     R6,R0
   1091          			if (clst == 0xFFFFFFFF) return FR_DISK_ERR;	/* Disk error */
   \   00000072   0xF116 0x0F01      CMN      R6,#+1
   \   00000076   0xD101             BNE.N    ??dir_sdi_9
   \   00000078   0x2001             MOVS     R0,#+1
   \   0000007A   0xE01B             B.N      ??dir_sdi_2
   1092          			if (clst < 2 || clst >= dj->fs->n_fatent)	/* Reached to end of table or int error */
   \                     ??dir_sdi_9: (+1)
   \   0000007C   0x2E02             CMP      R6,#+2
   \   0000007E   0xD303             BCC.N    ??dir_sdi_10
   \   00000080   0x6820             LDR      R0,[R4, #+0]
   \   00000082   0x69C0             LDR      R0,[R0, #+28]
   \   00000084   0x4286             CMP      R6,R0
   \   00000086   0xD301             BCC.N    ??dir_sdi_11
   1093          				return FR_INT_ERR;
   \                     ??dir_sdi_10: (+1)
   \   00000088   0x2002             MOVS     R0,#+2
   \   0000008A   0xE013             B.N      ??dir_sdi_2
   1094          			idx -= ic;
   \                     ??dir_sdi_11: (+1)
   \   0000008C   0x1BED             SUBS     R5,R5,R7
   \   0000008E   0xE7E5             B.N      ??dir_sdi_7
   1095          		}
   1096          		dj->clust = clst;
   \                     ??dir_sdi_8: (+1)
   \   00000090   0x60E6             STR      R6,[R4, #+12]
   1097          		dj->sect = clust2sect(dj->fs, clst) + idx / (SS(dj->fs) / SZ_DIR);	/* Sector# */
   \   00000092   0x0031             MOVS     R1,R6
   \   00000094   0x6820             LDR      R0,[R4, #+0]
   \   00000096   0x.... 0x....      BL       clust2sect
   \   0000009A   0xB2AD             UXTH     R5,R5            ;; ZeroExt  R5,R5,#+16,#+16
   \   0000009C   0xEB10 0x1015      ADDS     R0,R0,R5, LSR #+4
   \   000000A0   0x6120             STR      R0,[R4, #+16]
   1098          	}
   1099          
   1100          	dj->dir = dj->fs->win + (idx % (SS(dj->fs) / SZ_DIR)) * SZ_DIR;	/* Ptr to the entry in the sector */
   \                     ??dir_sdi_6: (+1)
   \   000000A2   0x6820             LDR      R0,[R4, #+0]
   \   000000A4   0xB2AD             UXTH     R5,R5            ;; ZeroExt  R5,R5,#+16,#+16
   \   000000A6   0xF015 0x010F      ANDS     R1,R5,#0xF
   \   000000AA   0x0149             LSLS     R1,R1,#+5
   \   000000AC   0x4408             ADD      R0,R0,R1
   \   000000AE   0x3034             ADDS     R0,R0,#+52
   \   000000B0   0x6160             STR      R0,[R4, #+20]
   1101          
   1102          	return FR_OK;	/* Seek succeeded */
   \   000000B2   0x2000             MOVS     R0,#+0
   \                     ??dir_sdi_2: (+1)
   \   000000B4   0xBDF2             POP      {R1,R4-R7,PC}    ;; return
   1103          }
   1104          
   1105          
   1106          
   1107          
   1108          /*-----------------------------------------------------------------------*/
   1109          /* Directory handling - Move directory index next                        */
   1110          /*-----------------------------------------------------------------------*/
   1111          

   \                                 In section .text, align 2, keep-with-next
   1112          static
   1113          FRESULT dir_next (	/* FR_OK:Succeeded, FR_NO_FILE:End of table, FR_DENIED:EOT and could not stretch */
   1114          	DIR *dj,		/* Pointer to directory object */
   1115          	int stretch		/* 0: Do not stretch table, 1: Stretch table if needed */
   1116          )
   1117          {
   \                     dir_next: (+1)
   \   00000000   0xE92D 0x41F0      PUSH     {R4-R8,LR}
   \   00000004   0x0004             MOVS     R4,R0
   \   00000006   0x000F             MOVS     R7,R1
   1118          	DWORD clst;
   1119          	WORD i;
   1120          
   1121          
   1122          	stretch = stretch;		/* To suppress warning on read-only cfg. */
   1123          	i = dj->index + 1;
   \   00000008   0x88E0             LDRH     R0,[R4, #+6]
   \   0000000A   0x1C40             ADDS     R0,R0,#+1
   \   0000000C   0x0006             MOVS     R6,R0
   1124          	if (!i || !dj->sect)	/* Report EOT when index has reached 65535 */
   \   0000000E   0xB2B6             UXTH     R6,R6            ;; ZeroExt  R6,R6,#+16,#+16
   \   00000010   0x2E00             CMP      R6,#+0
   \   00000012   0xD002             BEQ.N    ??dir_next_0
   \   00000014   0x6920             LDR      R0,[R4, #+16]
   \   00000016   0x2800             CMP      R0,#+0
   \   00000018   0xD101             BNE.N    ??dir_next_1
   1125          		return FR_NO_FILE;
   \                     ??dir_next_0: (+1)
   \   0000001A   0x2004             MOVS     R0,#+4
   \   0000001C   0xE087             B.N      ??dir_next_2
   1126          
   1127          	if (!(i % (SS(dj->fs) / SZ_DIR))) {	/* Sector changed? */
   \                     ??dir_next_1: (+1)
   \   0000001E   0x200F             MOVS     R0,#+15
   \   00000020   0x4206             TST      R6,R0
   \   00000022   0xD17A             BNE.N    ??dir_next_3
   1128          		dj->sect++;					/* Next sector */
   \   00000024   0x6920             LDR      R0,[R4, #+16]
   \   00000026   0x1C40             ADDS     R0,R0,#+1
   \   00000028   0x6120             STR      R0,[R4, #+16]
   1129          
   1130          		if (dj->clust == 0) {	/* Static table */
   \   0000002A   0x68E0             LDR      R0,[R4, #+12]
   \   0000002C   0x2800             CMP      R0,#+0
   \   0000002E   0xD107             BNE.N    ??dir_next_4
   1131          			if (i >= dj->fs->n_rootdir)	/* Report EOT when end of table */
   \   00000030   0x0030             MOVS     R0,R6
   \   00000032   0x6821             LDR      R1,[R4, #+0]
   \   00000034   0x8909             LDRH     R1,[R1, #+8]
   \   00000036   0xB280             UXTH     R0,R0            ;; ZeroExt  R0,R0,#+16,#+16
   \   00000038   0x4288             CMP      R0,R1
   \   0000003A   0xD36E             BCC.N    ??dir_next_3
   1132          				return FR_NO_FILE;
   \   0000003C   0x2004             MOVS     R0,#+4
   \   0000003E   0xE076             B.N      ??dir_next_2
   1133          		}
   1134          		else {					/* Dynamic table */
   1135          			if (((i / (SS(dj->fs) / SZ_DIR)) & (dj->fs->csize - 1)) == 0) {	/* Cluster changed? */
   \                     ??dir_next_4: (+1)
   \   00000040   0xB2B6             UXTH     R6,R6            ;; ZeroExt  R6,R6,#+16,#+16
   \   00000042   0x6820             LDR      R0,[R4, #+0]
   \   00000044   0x7880             LDRB     R0,[R0, #+2]
   \   00000046   0x1E40             SUBS     R0,R0,#+1
   \   00000048   0xEA10 0x1F16      TST      R0,R6, LSR #+4
   \   0000004C   0xD165             BNE.N    ??dir_next_3
   1136          				clst = get_fat(dj->fs, dj->clust);				/* Get next cluster */
   \   0000004E   0x68E1             LDR      R1,[R4, #+12]
   \   00000050   0x6820             LDR      R0,[R4, #+0]
   \   00000052   0x.... 0x....      BL       get_fat
   \   00000056   0x0005             MOVS     R5,R0
   1137          				if (clst <= 1) return FR_INT_ERR;
   \   00000058   0x2D02             CMP      R5,#+2
   \   0000005A   0xD201             BCS.N    ??dir_next_5
   \   0000005C   0x2002             MOVS     R0,#+2
   \   0000005E   0xE066             B.N      ??dir_next_2
   1138          				if (clst == 0xFFFFFFFF) return FR_DISK_ERR;
   \                     ??dir_next_5: (+1)
   \   00000060   0xF115 0x0F01      CMN      R5,#+1
   \   00000064   0xD101             BNE.N    ??dir_next_6
   \   00000066   0x2001             MOVS     R0,#+1
   \   00000068   0xE061             B.N      ??dir_next_2
   1139          				if (clst >= dj->fs->n_fatent) {					/* When it reached end of dynamic table */
   \                     ??dir_next_6: (+1)
   \   0000006A   0x6820             LDR      R0,[R4, #+0]
   \   0000006C   0x69C0             LDR      R0,[R0, #+28]
   \   0000006E   0x4285             CMP      R5,R0
   \   00000070   0xD34D             BCC.N    ??dir_next_7
   1140          #if !_FS_READONLY
   1141          					BYTE c;
   1142          					if (!stretch) return FR_NO_FILE;			/* When do not stretch, report EOT */
   \   00000072   0x2F00             CMP      R7,#+0
   \   00000074   0xD101             BNE.N    ??dir_next_8
   \   00000076   0x2004             MOVS     R0,#+4
   \   00000078   0xE059             B.N      ??dir_next_2
   1143          					clst = create_chain(dj->fs, dj->clust);		/* Stretch cluster chain */
   \                     ??dir_next_8: (+1)
   \   0000007A   0x68E1             LDR      R1,[R4, #+12]
   \   0000007C   0x6820             LDR      R0,[R4, #+0]
   \   0000007E   0x.... 0x....      BL       create_chain
   \   00000082   0x0005             MOVS     R5,R0
   1144          					if (clst == 0) return FR_DENIED;			/* No free cluster */
   \   00000084   0x2D00             CMP      R5,#+0
   \   00000086   0xD101             BNE.N    ??dir_next_9
   \   00000088   0x2007             MOVS     R0,#+7
   \   0000008A   0xE050             B.N      ??dir_next_2
   1145          					if (clst == 1) return FR_INT_ERR;
   \                     ??dir_next_9: (+1)
   \   0000008C   0x2D01             CMP      R5,#+1
   \   0000008E   0xD101             BNE.N    ??dir_next_10
   \   00000090   0x2002             MOVS     R0,#+2
   \   00000092   0xE04C             B.N      ??dir_next_2
   1146          					if (clst == 0xFFFFFFFF) return FR_DISK_ERR;
   \                     ??dir_next_10: (+1)
   \   00000094   0xF115 0x0F01      CMN      R5,#+1
   \   00000098   0xD101             BNE.N    ??dir_next_11
   \   0000009A   0x2001             MOVS     R0,#+1
   \   0000009C   0xE047             B.N      ??dir_next_2
   1147          					/* Clean-up stretched table */
   1148          					if (move_window(dj->fs, 0)) return FR_DISK_ERR;	/* Flush active window */
   \                     ??dir_next_11: (+1)
   \   0000009E   0x2100             MOVS     R1,#+0
   \   000000A0   0x6820             LDR      R0,[R4, #+0]
   \   000000A2   0x.... 0x....      BL       move_window
   \   000000A6   0x2800             CMP      R0,#+0
   \   000000A8   0xD001             BEQ.N    ??dir_next_12
   \   000000AA   0x2001             MOVS     R0,#+1
   \   000000AC   0xE03F             B.N      ??dir_next_2
   1149          					mem_set(dj->fs->win, 0, SS(dj->fs));			/* Clear window buffer */
   \                     ??dir_next_12: (+1)
   \   000000AE   0xF44F 0x7200      MOV      R2,#+512
   \   000000B2   0x2100             MOVS     R1,#+0
   \   000000B4   0x6820             LDR      R0,[R4, #+0]
   \   000000B6   0x3034             ADDS     R0,R0,#+52
   \   000000B8   0x.... 0x....      BL       mem_set
   1150          					dj->fs->winsect = clust2sect(dj->fs, clst);	/* Cluster start sector */
   \   000000BC   0x0029             MOVS     R1,R5
   \   000000BE   0x6820             LDR      R0,[R4, #+0]
   \   000000C0   0x.... 0x....      BL       clust2sect
   \   000000C4   0x6821             LDR      R1,[R4, #+0]
   \   000000C6   0x6308             STR      R0,[R1, #+48]
   1151          					for (c = 0; c < dj->fs->csize; c++) {		/* Fill the new cluster with 0 */
   \   000000C8   0x2000             MOVS     R0,#+0
   \   000000CA   0x4680             MOV      R8,R0
   \                     ??dir_next_13: (+1)
   \   000000CC   0x4640             MOV      R0,R8
   \   000000CE   0x6821             LDR      R1,[R4, #+0]
   \   000000D0   0x7889             LDRB     R1,[R1, #+2]
   \   000000D2   0xB2C0             UXTB     R0,R0            ;; ZeroExt  R0,R0,#+24,#+24
   \   000000D4   0x4288             CMP      R0,R1
   \   000000D6   0xD212             BCS.N    ??dir_next_14
   1152          						dj->fs->wflag = 1;
   \   000000D8   0x2001             MOVS     R0,#+1
   \   000000DA   0x6821             LDR      R1,[R4, #+0]
   \   000000DC   0x7108             STRB     R0,[R1, #+4]
   1153          						if (move_window(dj->fs, 0)) return FR_DISK_ERR;
   \   000000DE   0x2100             MOVS     R1,#+0
   \   000000E0   0x6820             LDR      R0,[R4, #+0]
   \   000000E2   0x.... 0x....      BL       move_window
   \   000000E6   0x2800             CMP      R0,#+0
   \   000000E8   0xD001             BEQ.N    ??dir_next_15
   \   000000EA   0x2001             MOVS     R0,#+1
   \   000000EC   0xE01F             B.N      ??dir_next_2
   1154          						dj->fs->winsect++;
   \                     ??dir_next_15: (+1)
   \   000000EE   0x6820             LDR      R0,[R4, #+0]
   \   000000F0   0x6B00             LDR      R0,[R0, #+48]
   \   000000F2   0x1C40             ADDS     R0,R0,#+1
   \   000000F4   0x6821             LDR      R1,[R4, #+0]
   \   000000F6   0x6308             STR      R0,[R1, #+48]
   1155          					}
   \   000000F8   0xF118 0x0801      ADDS     R8,R8,#+1
   \   000000FC   0xE7E6             B.N      ??dir_next_13
   1156          					dj->fs->winsect -= c;						/* Rewind window address */
   \                     ??dir_next_14: (+1)
   \   000000FE   0x6820             LDR      R0,[R4, #+0]
   \   00000100   0x6B00             LDR      R0,[R0, #+48]
   \   00000102   0xFA5F 0xF888      UXTB     R8,R8            ;; ZeroExt  R8,R8,#+24,#+24
   \   00000106   0xEBB0 0x0008      SUBS     R0,R0,R8
   \   0000010A   0x6821             LDR      R1,[R4, #+0]
   \   0000010C   0x6308             STR      R0,[R1, #+48]
   1157          #else
   1158          					return FR_NO_FILE;			/* Report EOT */
   1159          #endif
   1160          				}
   1161          				dj->clust = clst;				/* Initialize data for new cluster */
   \                     ??dir_next_7: (+1)
   \   0000010E   0x60E5             STR      R5,[R4, #+12]
   1162          				dj->sect = clust2sect(dj->fs, clst);
   \   00000110   0x0029             MOVS     R1,R5
   \   00000112   0x6820             LDR      R0,[R4, #+0]
   \   00000114   0x.... 0x....      BL       clust2sect
   \   00000118   0x6120             STR      R0,[R4, #+16]
   1163          			}
   1164          		}
   1165          	}
   1166          
   1167          	dj->index = i;
   \                     ??dir_next_3: (+1)
   \   0000011A   0x80E6             STRH     R6,[R4, #+6]
   1168          	dj->dir = dj->fs->win + (i % (SS(dj->fs) / SZ_DIR)) * SZ_DIR;
   \   0000011C   0x6820             LDR      R0,[R4, #+0]
   \   0000011E   0xB2B6             UXTH     R6,R6            ;; ZeroExt  R6,R6,#+16,#+16
   \   00000120   0xF016 0x010F      ANDS     R1,R6,#0xF
   \   00000124   0x0149             LSLS     R1,R1,#+5
   \   00000126   0x4408             ADD      R0,R0,R1
   \   00000128   0x3034             ADDS     R0,R0,#+52
   \   0000012A   0x6160             STR      R0,[R4, #+20]
   1169          
   1170          	return FR_OK;
   \   0000012C   0x2000             MOVS     R0,#+0
   \                     ??dir_next_2: (+1)
   \   0000012E   0xE8BD 0x81F0      POP      {R4-R8,PC}       ;; return
   1171          }
   1172          
   1173          
   1174          
   1175          
   1176          /*-----------------------------------------------------------------------*/
   1177          /* LFN handling - Test/Pick/Fit an LFN segment from/to directory entry   */
   1178          /*-----------------------------------------------------------------------*/
   1179          #if _USE_LFN
   1180          static
   1181          const BYTE LfnOfs[] = {1,3,5,7,9,14,16,18,20,22,24,28,30};	/* Offset of LFN chars in the directory entry */
   1182          
   1183          
   1184          static
   1185          int cmp_lfn (			/* 1:Matched, 0:Not matched */
   1186          	WCHAR *lfnbuf,		/* Pointer to the LFN to be compared */
   1187          	BYTE *dir			/* Pointer to the directory entry containing a part of LFN */
   1188          )
   1189          {
   1190          	UINT i, s;
   1191          	WCHAR wc, uc;
   1192          
   1193          
   1194          	i = ((dir[LDIR_Ord] & ~LLE) - 1) * 13;	/* Get offset in the LFN buffer */
   1195          	s = 0; wc = 1;
   1196          	do {
   1197          		uc = LD_WORD(dir+LfnOfs[s]);	/* Pick an LFN character from the entry */
   1198          		if (wc) {	/* Last char has not been processed */
   1199          			wc = ff_wtoupper(uc);		/* Convert it to upper case */
   1200          			if (i >= _MAX_LFN || wc != ff_wtoupper(lfnbuf[i++]))	/* Compare it */
   1201          				return 0;				/* Not matched */
   1202          		} else {
   1203          			if (uc != 0xFFFF) return 0;	/* Check filler */
   1204          		}
   1205          	} while (++s < 13);				/* Repeat until all chars in the entry are checked */
   1206          
   1207          	if ((dir[LDIR_Ord] & LLE) && wc && lfnbuf[i])	/* Last segment matched but different length */
   1208          		return 0;
   1209          
   1210          	return 1;						/* The part of LFN matched */
   1211          }
   1212          
   1213          
   1214          
   1215          static
   1216          int pick_lfn (			/* 1:Succeeded, 0:Buffer overflow */
   1217          	WCHAR *lfnbuf,		/* Pointer to the Unicode-LFN buffer */
   1218          	BYTE *dir			/* Pointer to the directory entry */
   1219          )
   1220          {
   1221          	UINT i, s;
   1222          	WCHAR wc, uc;
   1223          
   1224          
   1225          	i = ((dir[LDIR_Ord] & 0x3F) - 1) * 13;	/* Offset in the LFN buffer */
   1226          
   1227          	s = 0; wc = 1;
   1228          	do {
   1229          		uc = LD_WORD(dir+LfnOfs[s]);		/* Pick an LFN character from the entry */
   1230          		if (wc) {	/* Last char has not been processed */
   1231          			if (i >= _MAX_LFN) return 0;	/* Buffer overflow? */
   1232          			lfnbuf[i++] = wc = uc;			/* Store it */
   1233          		} else {
   1234          			if (uc != 0xFFFF) return 0;		/* Check filler */
   1235          		}
   1236          	} while (++s < 13);						/* Read all character in the entry */
   1237          
   1238          	if (dir[LDIR_Ord] & LLE) {				/* Put terminator if it is the last LFN part */
   1239          		if (i >= _MAX_LFN) return 0;		/* Buffer overflow? */
   1240          		lfnbuf[i] = 0;
   1241          	}
   1242          
   1243          	return 1;
   1244          }
   1245          
   1246          
   1247          #if !_FS_READONLY
   1248          static
   1249          void fit_lfn (
   1250          	const WCHAR *lfnbuf,	/* Pointer to the LFN buffer */
   1251          	BYTE *dir,				/* Pointer to the directory entry */
   1252          	BYTE ord,				/* LFN order (1-20) */
   1253          	BYTE sum				/* SFN sum */
   1254          )
   1255          {
   1256          	UINT i, s;
   1257          	WCHAR wc;
   1258          
   1259          
   1260          	dir[LDIR_Chksum] = sum;			/* Set check sum */
   1261          	dir[LDIR_Attr] = AM_LFN;		/* Set attribute. LFN entry */
   1262          	dir[LDIR_Type] = 0;
   1263          	ST_WORD(dir+LDIR_FstClusLO, 0);
   1264          
   1265          	i = (ord - 1) * 13;				/* Get offset in the LFN buffer */
   1266          	s = wc = 0;
   1267          	do {
   1268          		if (wc != 0xFFFF) wc = lfnbuf[i++];	/* Get an effective char */
   1269          		ST_WORD(dir+LfnOfs[s], wc);	/* Put it */
   1270          		if (!wc) wc = 0xFFFF;		/* Padding chars following last char */
   1271          	} while (++s < 13);
   1272          	if (wc == 0xFFFF || !lfnbuf[i]) ord |= LLE;	/* Bottom LFN part is the start of LFN sequence */
   1273          	dir[LDIR_Ord] = ord;			/* Set the LFN order */
   1274          }
   1275          
   1276          #endif
   1277          #endif
   1278          
   1279          
   1280          
   1281          /*-----------------------------------------------------------------------*/
   1282          /* Create numbered name                                                  */
   1283          /*-----------------------------------------------------------------------*/
   1284          #if _USE_LFN
   1285          void gen_numname (
   1286          	BYTE *dst,			/* Pointer to generated SFN */
   1287          	const BYTE *src,	/* Pointer to source SFN to be modified */
   1288          	const WCHAR *lfn,	/* Pointer to LFN */
   1289          	WORD seq			/* Sequence number */
   1290          )
   1291          {
   1292          	BYTE ns[8], c;
   1293          	UINT i, j;
   1294          
   1295          
   1296          	mem_cpy(dst, src, 11);
   1297          
   1298          	if (seq > 5) {	/* On many collisions, generate a hash number instead of sequential number */
   1299          		do seq = (seq >> 1) + (seq << 15) + (WORD)*lfn++; while (*lfn);
   1300          	}
   1301          
   1302          	/* itoa (hexdecimal) */
   1303          	i = 7;
   1304          	do {
   1305          		c = (seq % 16) + '0';
   1306          		if (c > '9') c += 7;
   1307          		ns[i--] = c;
   1308          		seq /= 16;
   1309          	} while (seq);
   1310          	ns[i] = '~';
   1311          
   1312          	/* Append the number */
   1313          	for (j = 0; j < i && dst[j] != ' '; j++) {
   1314          		if (IsDBCS1(dst[j])) {
   1315          			if (j == i - 1) break;
   1316          			j++;
   1317          		}
   1318          	}
   1319          	do {
   1320          		dst[j++] = (i < 8) ? ns[i++] : ' ';
   1321          	} while (j < 8);
   1322          }
   1323          #endif
   1324          
   1325          
   1326          
   1327          
   1328          /*-----------------------------------------------------------------------*/
   1329          /* Calculate sum of an SFN                                               */
   1330          /*-----------------------------------------------------------------------*/
   1331          #if _USE_LFN
   1332          static
   1333          BYTE sum_sfn (
   1334          	const BYTE *dir		/* Ptr to directory entry */
   1335          )
   1336          {
   1337          	BYTE sum = 0;
   1338          	UINT n = 11;
   1339          
   1340          	do sum = (sum >> 1) + (sum << 7) + *dir++; while (--n);
   1341          	return sum;
   1342          }
   1343          #endif
   1344          
   1345          
   1346          
   1347          
   1348          /*-----------------------------------------------------------------------*/
   1349          /* Directory handling - Find an object in the directory                  */
   1350          /*-----------------------------------------------------------------------*/
   1351          

   \                                 In section .text, align 2, keep-with-next
   1352          static
   1353          FRESULT dir_find (
   1354          	DIR *dj			/* Pointer to the directory object linked to the file name */
   1355          )
   1356          {
   \                     dir_find: (+1)
   \   00000000   0xB5F8             PUSH     {R3-R7,LR}
   \   00000002   0x0004             MOVS     R4,R0
   1357          	FRESULT res;
   1358          	BYTE c, *dir;
   1359          #if _USE_LFN
   1360          	BYTE a, ord, sum;
   1361          #endif
   1362          
   1363          	res = dir_sdi(dj, 0);			/* Rewind directory object */
   \   00000004   0x2100             MOVS     R1,#+0
   \   00000006   0x0020             MOVS     R0,R4
   \   00000008   0x.... 0x....      BL       dir_sdi
   \   0000000C   0x0007             MOVS     R7,R0
   1364          	if (res != FR_OK) return res;
   \   0000000E   0xB2FF             UXTB     R7,R7            ;; ZeroExt  R7,R7,#+24,#+24
   \   00000010   0x2F00             CMP      R7,#+0
   \   00000012   0xD002             BEQ.N    ??dir_find_0
   \   00000014   0x0038             MOVS     R0,R7
   \   00000016   0xB2C0             UXTB     R0,R0            ;; ZeroExt  R0,R0,#+24,#+24
   \   00000018   0xE025             B.N      ??dir_find_1
   1365          
   1366          #if _USE_LFN
   1367          	ord = sum = 0xFF;
   1368          #endif
   1369          	do {
   1370          		res = move_window(dj->fs, dj->sect);
   \                     ??dir_find_0: (+1)
   \   0000001A   0x6921             LDR      R1,[R4, #+16]
   \   0000001C   0x6820             LDR      R0,[R4, #+0]
   \   0000001E   0x.... 0x....      BL       move_window
   \   00000022   0x0007             MOVS     R7,R0
   1371          		if (res != FR_OK) break;
   \   00000024   0xB2FF             UXTB     R7,R7            ;; ZeroExt  R7,R7,#+24,#+24
   \   00000026   0x2F00             CMP      R7,#+0
   \   00000028   0xD11B             BNE.N    ??dir_find_2
   1372          		dir = dj->dir;					/* Ptr to the directory entry of current index */
   \                     ??dir_find_3: (+1)
   \   0000002A   0x6960             LDR      R0,[R4, #+20]
   \   0000002C   0x0006             MOVS     R6,R0
   1373          		c = dir[DIR_Name];
   \   0000002E   0x7830             LDRB     R0,[R6, #+0]
   \   00000030   0x0005             MOVS     R5,R0
   1374          		if (c == 0) { res = FR_NO_FILE; break; }	/* Reached to end of table */
   \   00000032   0xB2ED             UXTB     R5,R5            ;; ZeroExt  R5,R5,#+24,#+24
   \   00000034   0x2D00             CMP      R5,#+0
   \   00000036   0xD102             BNE.N    ??dir_find_4
   \   00000038   0x2004             MOVS     R0,#+4
   \   0000003A   0x0007             MOVS     R7,R0
   \   0000003C   0xE011             B.N      ??dir_find_2
   1375          #if _USE_LFN	/* LFN configuration */
   1376          		a = dir[DIR_Attr] & AM_MASK;
   1377          		if (c == DDE || ((a & AM_VOL) && a != AM_LFN)) {	/* An entry without valid data */
   1378          			ord = 0xFF;
   1379          		} else {
   1380          			if (a == AM_LFN) {			/* An LFN entry is found */
   1381          				if (dj->lfn) {
   1382          					if (c & LLE) {		/* Is it start of LFN sequence? */
   1383          						sum = dir[LDIR_Chksum];
   1384          						c &= ~LLE; ord = c;	/* LFN start order */
   1385          						dj->lfn_idx = dj->index;
   1386          					}
   1387          					/* Check validity of the LFN entry and compare it with given name */
   1388          					ord = (c == ord && sum == dir[LDIR_Chksum] && cmp_lfn(dj->lfn, dir)) ? ord - 1 : 0xFF;
   1389          				}
   1390          			} else {					/* An SFN entry is found */
   1391          				if (!ord && sum == sum_sfn(dir)) break;	/* LFN matched? */
   1392          				ord = 0xFF; dj->lfn_idx = 0xFFFF;	/* Reset LFN sequence */
   1393          				if (!(dj->fn[NS] & NS_LOSS) && !mem_cmp(dir, dj->fn, 11)) break;	/* SFN matched? */
   1394          			}
   1395          		}
   1396          #else		/* Non LFN configuration */
   1397          		if (!(dir[DIR_Attr] & AM_VOL) && !mem_cmp(dir, dj->fn, 11)) /* Is it a valid entry? */
   \                     ??dir_find_4: (+1)
   \   0000003E   0x7AF0             LDRB     R0,[R6, #+11]
   \   00000040   0x0700             LSLS     R0,R0,#+28
   \   00000042   0xD406             BMI.N    ??dir_find_5
   \   00000044   0x220B             MOVS     R2,#+11
   \   00000046   0x69A1             LDR      R1,[R4, #+24]
   \   00000048   0x0030             MOVS     R0,R6
   \   0000004A   0x.... 0x....      BL       mem_cmp
   \   0000004E   0x2800             CMP      R0,#+0
   \   00000050   0xD007             BEQ.N    ??dir_find_2
   1398          			break;
   1399          #endif
   1400          		res = dir_next(dj, 0);		/* Next entry */
   \                     ??dir_find_5: (+1)
   \   00000052   0x2100             MOVS     R1,#+0
   \   00000054   0x0020             MOVS     R0,R4
   \   00000056   0x.... 0x....      BL       dir_next
   \   0000005A   0x0007             MOVS     R7,R0
   1401          	} while (res == FR_OK);
   \   0000005C   0xB2FF             UXTB     R7,R7            ;; ZeroExt  R7,R7,#+24,#+24
   \   0000005E   0x2F00             CMP      R7,#+0
   \   00000060   0xD0DB             BEQ.N    ??dir_find_0
   1402          
   1403          	return res;
   \                     ??dir_find_2: (+1)
   \   00000062   0x0038             MOVS     R0,R7
   \   00000064   0xB2C0             UXTB     R0,R0            ;; ZeroExt  R0,R0,#+24,#+24
   \                     ??dir_find_1: (+1)
   \   00000066   0xBDF2             POP      {R1,R4-R7,PC}    ;; return
   1404          }
   1405          
   1406          
   1407          
   1408          
   1409          /*-----------------------------------------------------------------------*/
   1410          /* Read an object from the directory                                     */
   1411          /*-----------------------------------------------------------------------*/
   1412          #if _FS_MINIMIZE <= 1

   \                                 In section .text, align 2, keep-with-next
   1413          static
   1414          FRESULT dir_read (
   1415          	DIR *dj			/* Pointer to the directory object that pointing the entry to be read */
   1416          )
   1417          {
   \                     dir_read: (+1)
   \   00000000   0xB5F8             PUSH     {R3-R7,LR}
   \   00000002   0x0004             MOVS     R4,R0
   1418          	FRESULT res;
   1419          	BYTE c, *dir;
   1420          #if _USE_LFN
   1421          	BYTE a, ord = 0xFF, sum = 0xFF;
   1422          #endif
   1423          
   1424          	res = FR_NO_FILE;
   \   00000004   0x2004             MOVS     R0,#+4
   \   00000006   0x0005             MOVS     R5,R0
   1425          	while (dj->sect) {
   \                     ??dir_read_0: (+1)
   \   00000008   0x6920             LDR      R0,[R4, #+16]
   \   0000000A   0x2800             CMP      R0,#+0
   \   0000000C   0xD01F             BEQ.N    ??dir_read_1
   1426          		res = move_window(dj->fs, dj->sect);
   \   0000000E   0x6921             LDR      R1,[R4, #+16]
   \   00000010   0x6820             LDR      R0,[R4, #+0]
   \   00000012   0x.... 0x....      BL       move_window
   \   00000016   0x0005             MOVS     R5,R0
   1427          		if (res != FR_OK) break;
   \   00000018   0xB2ED             UXTB     R5,R5            ;; ZeroExt  R5,R5,#+24,#+24
   \   0000001A   0x2D00             CMP      R5,#+0
   \   0000001C   0xD117             BNE.N    ??dir_read_1
   1428          		dir = dj->dir;					/* Ptr to the directory entry of current index */
   \                     ??dir_read_2: (+1)
   \   0000001E   0x6960             LDR      R0,[R4, #+20]
   \   00000020   0x0007             MOVS     R7,R0
   1429          		c = dir[DIR_Name];
   \   00000022   0x7838             LDRB     R0,[R7, #+0]
   \   00000024   0x0006             MOVS     R6,R0
   1430          		if (c == 0) { res = FR_NO_FILE; break; }	/* Reached to end of table */
   \   00000026   0xB2F6             UXTB     R6,R6            ;; ZeroExt  R6,R6,#+24,#+24
   \   00000028   0x2E00             CMP      R6,#+0
   \   0000002A   0xD102             BNE.N    ??dir_read_3
   \   0000002C   0x2004             MOVS     R0,#+4
   \   0000002E   0x0005             MOVS     R5,R0
   \   00000030   0xE00D             B.N      ??dir_read_1
   1431          #if _USE_LFN	/* LFN configuration */
   1432          		a = dir[DIR_Attr] & AM_MASK;
   1433          		if (c == DDE || (!_FS_RPATH && c == '.') || ((a & AM_VOL) && a != AM_LFN)) {	/* An entry without valid data */
   1434          			ord = 0xFF;
   1435          		} else {
   1436          			if (a == AM_LFN) {			/* An LFN entry is found */
   1437          				if (c & LLE) {			/* Is it start of LFN sequence? */
   1438          					sum = dir[LDIR_Chksum];
   1439          					c &= ~LLE; ord = c;
   1440          					dj->lfn_idx = dj->index;
   1441          				}
   1442          				/* Check LFN validity and capture it */
   1443          				ord = (c == ord && sum == dir[LDIR_Chksum] && pick_lfn(dj->lfn, dir)) ? ord - 1 : 0xFF;
   1444          			} else {					/* An SFN entry is found */
   1445          				if (ord || sum != sum_sfn(dir))	/* Is there a valid LFN? */
   1446          					dj->lfn_idx = 0xFFFF;		/* It has no LFN. */
   1447          				break;
   1448          			}
   1449          		}
   1450          #else		/* Non LFN configuration */
   1451          		if (c != DDE && (_FS_RPATH || c != '.') && !(dir[DIR_Attr] & AM_VOL))	/* Is it a valid entry? */
   \                     ??dir_read_3: (+1)
   \   00000032   0xB2F6             UXTB     R6,R6            ;; ZeroExt  R6,R6,#+24,#+24
   \   00000034   0x2EE5             CMP      R6,#+229
   \   00000036   0xD002             BEQ.N    ??dir_read_4
   \   00000038   0x7AF8             LDRB     R0,[R7, #+11]
   \   0000003A   0x0700             LSLS     R0,R0,#+28
   \   0000003C   0xD507             BPL.N    ??dir_read_1
   1452          			break;
   1453          #endif
   1454          		res = dir_next(dj, 0);				/* Next entry */
   \                     ??dir_read_4: (+1)
   \   0000003E   0x2100             MOVS     R1,#+0
   \   00000040   0x0020             MOVS     R0,R4
   \   00000042   0x.... 0x....      BL       dir_next
   \   00000046   0x0005             MOVS     R5,R0
   1455          		if (res != FR_OK) break;
   \   00000048   0xB2ED             UXTB     R5,R5            ;; ZeroExt  R5,R5,#+24,#+24
   \   0000004A   0x2D00             CMP      R5,#+0
   \   0000004C   0xD0DC             BEQ.N    ??dir_read_0
   1456          	}
   1457          
   1458          	if (res != FR_OK) dj->sect = 0;
   \                     ??dir_read_1: (+1)
   \   0000004E   0xB2ED             UXTB     R5,R5            ;; ZeroExt  R5,R5,#+24,#+24
   \   00000050   0x2D00             CMP      R5,#+0
   \   00000052   0xD001             BEQ.N    ??dir_read_5
   \   00000054   0x2000             MOVS     R0,#+0
   \   00000056   0x6120             STR      R0,[R4, #+16]
   1459          
   1460          	return res;
   \                     ??dir_read_5: (+1)
   \   00000058   0x0028             MOVS     R0,R5
   \   0000005A   0xB2C0             UXTB     R0,R0            ;; ZeroExt  R0,R0,#+24,#+24
   \   0000005C   0xBDF2             POP      {R1,R4-R7,PC}    ;; return
   1461          }
   1462          #endif
   1463          
   1464          
   1465          
   1466          /*-----------------------------------------------------------------------*/
   1467          /* Register an object to the directory                                   */
   1468          /*-----------------------------------------------------------------------*/
   1469          #if !_FS_READONLY

   \                                 In section .text, align 2, keep-with-next
   1470          static
   1471          FRESULT dir_register (	/* FR_OK:Successful, FR_DENIED:No free entry or too many SFN collision, FR_DISK_ERR:Disk error */
   1472          	DIR *dj				/* Target directory with object name to be created */
   1473          )
   1474          {
   \                     dir_register: (+1)
   \   00000000   0xB5F8             PUSH     {R3-R7,LR}
   \   00000002   0x0004             MOVS     R4,R0
   1475          	FRESULT res;
   1476          	BYTE c, *dir;
   1477          #if _USE_LFN	/* LFN configuration */
   1478          	WORD n, ne, is;
   1479          	BYTE sn[12], *fn, sum;
   1480          	WCHAR *lfn;
   1481          
   1482          
   1483          	fn = dj->fn; lfn = dj->lfn;
   1484          	mem_cpy(sn, fn, 12);
   1485          
   1486          	if (_FS_RPATH && (sn[NS] & NS_DOT))		/* Cannot create dot entry */
   1487          		return FR_INVALID_NAME;
   1488          
   1489          	if (sn[NS] & NS_LOSS) {			/* When LFN is out of 8.3 format, generate a numbered name */
   1490          		fn[NS] = 0; dj->lfn = 0;			/* Find only SFN */
   1491          		for (n = 1; n < 100; n++) {
   1492          			gen_numname(fn, sn, lfn, n);	/* Generate a numbered name */
   1493          			res = dir_find(dj);				/* Check if the name collides with existing SFN */
   1494          			if (res != FR_OK) break;
   1495          		}
   1496          		if (n == 100) return FR_DENIED;		/* Abort if too many collisions */
   1497          		if (res != FR_NO_FILE) return res;	/* Abort if the result is other than 'not collided' */
   1498          		fn[NS] = sn[NS]; dj->lfn = lfn;
   1499          	}
   1500          
   1501          	if (sn[NS] & NS_LFN) {			/* When LFN is to be created, reserve an SFN + LFN entries. */
   1502          		for (ne = 0; lfn[ne]; ne++) ;
   1503          		ne = (ne + 25) / 13;
   1504          	} else {						/* Otherwise reserve only an SFN entry. */
   1505          		ne = 1;
   1506          	}
   1507          
   1508          	/* Reserve contiguous entries */
   1509          	res = dir_sdi(dj, 0);
   1510          	if (res != FR_OK) return res;
   1511          	n = is = 0;
   1512          	do {
   1513          		res = move_window(dj->fs, dj->sect);
   1514          		if (res != FR_OK) break;
   1515          		c = *dj->dir;				/* Check the entry status */
   1516          		if (c == DDE || c == 0) {	/* Is it a blank entry? */
   1517          			if (n == 0) is = dj->index;	/* First index of the contiguous entry */
   1518          			if (++n == ne) break;	/* A contiguous entry that required count is found */
   1519          		} else {
   1520          			n = 0;					/* Not a blank entry. Restart to search */
   1521          		}
   1522          		res = dir_next(dj, 1);		/* Next entry with table stretch */
   1523          	} while (res == FR_OK);
   1524          
   1525          	if (res == FR_OK && ne > 1) {	/* Initialize LFN entry if needed */
   1526          		res = dir_sdi(dj, is);
   1527          		if (res == FR_OK) {
   1528          			sum = sum_sfn(dj->fn);	/* Sum of the SFN tied to the LFN */
   1529          			ne--;
   1530          			do {					/* Store LFN entries in bottom first */
   1531          				res = move_window(dj->fs, dj->sect);
   1532          				if (res != FR_OK) break;
   1533          				fit_lfn(dj->lfn, dj->dir, (BYTE)ne, sum);
   1534          				dj->fs->wflag = 1;
   1535          				res = dir_next(dj, 0);	/* Next entry */
   1536          			} while (res == FR_OK && --ne);
   1537          		}
   1538          	}
   1539          
   1540          #else	/* Non LFN configuration */
   1541          	res = dir_sdi(dj, 0);
   \   00000004   0x2100             MOVS     R1,#+0
   \   00000006   0x0020             MOVS     R0,R4
   \   00000008   0x.... 0x....      BL       dir_sdi
   \   0000000C   0x0005             MOVS     R5,R0
   1542          	if (res == FR_OK) {
   \   0000000E   0xB2ED             UXTB     R5,R5            ;; ZeroExt  R5,R5,#+24,#+24
   \   00000010   0x2D00             CMP      R5,#+0
   \   00000012   0xD119             BNE.N    ??dir_register_0
   1543          		do {	/* Find a blank entry for the SFN */
   1544          			res = move_window(dj->fs, dj->sect);
   \                     ??dir_register_1: (+1)
   \   00000014   0x6921             LDR      R1,[R4, #+16]
   \   00000016   0x6820             LDR      R0,[R4, #+0]
   \   00000018   0x.... 0x....      BL       move_window
   \   0000001C   0x0005             MOVS     R5,R0
   1545          			if (res != FR_OK) break;
   \   0000001E   0xB2ED             UXTB     R5,R5            ;; ZeroExt  R5,R5,#+24,#+24
   \   00000020   0x2D00             CMP      R5,#+0
   \   00000022   0xD111             BNE.N    ??dir_register_0
   1546          			c = *dj->dir;
   \                     ??dir_register_2: (+1)
   \   00000024   0x6960             LDR      R0,[R4, #+20]
   \   00000026   0x7800             LDRB     R0,[R0, #+0]
   \   00000028   0x0006             MOVS     R6,R0
   1547          			if (c == DDE || c == 0) break;	/* Is it a blank entry? */
   \   0000002A   0xB2F6             UXTB     R6,R6            ;; ZeroExt  R6,R6,#+24,#+24
   \   0000002C   0x2EE5             CMP      R6,#+229
   \   0000002E   0xD002             BEQ.N    ??dir_register_3
   \   00000030   0xB2F6             UXTB     R6,R6            ;; ZeroExt  R6,R6,#+24,#+24
   \   00000032   0x2E00             CMP      R6,#+0
   \   00000034   0xD100             BNE.N    ??dir_register_4
   \                     ??dir_register_3: (+1)
   \   00000036   0xE007             B.N      ??dir_register_0
   1548          			res = dir_next(dj, 1);			/* Next entry with table stretch */
   \                     ??dir_register_4: (+1)
   \   00000038   0x2101             MOVS     R1,#+1
   \   0000003A   0x0020             MOVS     R0,R4
   \   0000003C   0x.... 0x....      BL       dir_next
   \   00000040   0x0005             MOVS     R5,R0
   1549          		} while (res == FR_OK);
   \   00000042   0xB2ED             UXTB     R5,R5            ;; ZeroExt  R5,R5,#+24,#+24
   \   00000044   0x2D00             CMP      R5,#+0
   \   00000046   0xD0E5             BEQ.N    ??dir_register_1
   1550          	}
   1551          #endif
   1552          
   1553          	if (res == FR_OK) {		/* Initialize the SFN entry */
   \                     ??dir_register_0: (+1)
   \   00000048   0xB2ED             UXTB     R5,R5            ;; ZeroExt  R5,R5,#+24,#+24
   \   0000004A   0x2D00             CMP      R5,#+0
   \   0000004C   0xD116             BNE.N    ??dir_register_5
   1554          		res = move_window(dj->fs, dj->sect);
   \   0000004E   0x6921             LDR      R1,[R4, #+16]
   \   00000050   0x6820             LDR      R0,[R4, #+0]
   \   00000052   0x.... 0x....      BL       move_window
   \   00000056   0x0005             MOVS     R5,R0
   1555          		if (res == FR_OK) {
   \   00000058   0xB2ED             UXTB     R5,R5            ;; ZeroExt  R5,R5,#+24,#+24
   \   0000005A   0x2D00             CMP      R5,#+0
   \   0000005C   0xD10E             BNE.N    ??dir_register_5
   1556          			dir = dj->dir;
   \   0000005E   0x6960             LDR      R0,[R4, #+20]
   \   00000060   0x0007             MOVS     R7,R0
   1557          			mem_set(dir, 0, SZ_DIR);	/* Clean the entry */
   \   00000062   0x2220             MOVS     R2,#+32
   \   00000064   0x2100             MOVS     R1,#+0
   \   00000066   0x0038             MOVS     R0,R7
   \   00000068   0x.... 0x....      BL       mem_set
   1558          			mem_cpy(dir, dj->fn, 11);	/* Put SFN */
   \   0000006C   0x220B             MOVS     R2,#+11
   \   0000006E   0x69A1             LDR      R1,[R4, #+24]
   \   00000070   0x0038             MOVS     R0,R7
   \   00000072   0x.... 0x....      BL       mem_cpy
   1559          #if _USE_LFN
   1560          			dir[DIR_NTres] = *(dj->fn+NS) & (NS_BODY | NS_EXT);	/* Put NT flag */
   1561          #endif
   1562          			dj->fs->wflag = 1;
   \   00000076   0x2001             MOVS     R0,#+1
   \   00000078   0x6821             LDR      R1,[R4, #+0]
   \   0000007A   0x7108             STRB     R0,[R1, #+4]
   1563          		}
   1564          	}
   1565          
   1566          	return res;
   \                     ??dir_register_5: (+1)
   \   0000007C   0x0028             MOVS     R0,R5
   \   0000007E   0xB2C0             UXTB     R0,R0            ;; ZeroExt  R0,R0,#+24,#+24
   \   00000080   0xBDF2             POP      {R1,R4-R7,PC}    ;; return
   1567          }
   1568          #endif /* !_FS_READONLY */
   1569          
   1570          
   1571          
   1572          
   1573          /*-----------------------------------------------------------------------*/
   1574          /* Remove an object from the directory                                   */
   1575          /*-----------------------------------------------------------------------*/
   1576          #if !_FS_READONLY && !_FS_MINIMIZE

   \                                 In section .text, align 2, keep-with-next
   1577          static
   1578          FRESULT dir_remove (	/* FR_OK: Successful, FR_DISK_ERR: A disk error */
   1579          	DIR *dj				/* Directory object pointing the entry to be removed */
   1580          )
   1581          {
   \                     dir_remove: (+1)
   \   00000000   0xB538             PUSH     {R3-R5,LR}
   \   00000002   0x0004             MOVS     R4,R0
   1582          	FRESULT res;
   1583          #if _USE_LFN	/* LFN configuration */
   1584          	WORD i;
   1585          
   1586          	i = dj->index;	/* SFN index */
   1587          	res = dir_sdi(dj, (WORD)((dj->lfn_idx == 0xFFFF) ? i : dj->lfn_idx));	/* Goto the SFN or top of the LFN entries */
   1588          	if (res == FR_OK) {
   1589          		do {
   1590          			res = move_window(dj->fs, dj->sect);
   1591          			if (res != FR_OK) break;
   1592          			*dj->dir = DDE;			/* Mark the entry "deleted" */
   1593          			dj->fs->wflag = 1;
   1594          			if (dj->index >= i) break;	/* When reached SFN, all entries of the object has been deleted. */
   1595          			res = dir_next(dj, 0);		/* Next entry */
   1596          		} while (res == FR_OK);
   1597          		if (res == FR_NO_FILE) res = FR_INT_ERR;
   1598          	}
   1599          
   1600          #else			/* Non LFN configuration */
   1601          	res = dir_sdi(dj, dj->index);
   \   00000004   0x88E1             LDRH     R1,[R4, #+6]
   \   00000006   0x0020             MOVS     R0,R4
   \   00000008   0x.... 0x....      BL       dir_sdi
   \   0000000C   0x0005             MOVS     R5,R0
   1602          	if (res == FR_OK) {
   \   0000000E   0xB2ED             UXTB     R5,R5            ;; ZeroExt  R5,R5,#+24,#+24
   \   00000010   0x2D00             CMP      R5,#+0
   \   00000012   0xD10D             BNE.N    ??dir_remove_0
   1603          		res = move_window(dj->fs, dj->sect);
   \   00000014   0x6921             LDR      R1,[R4, #+16]
   \   00000016   0x6820             LDR      R0,[R4, #+0]
   \   00000018   0x.... 0x....      BL       move_window
   \   0000001C   0x0005             MOVS     R5,R0
   1604          		if (res == FR_OK) {
   \   0000001E   0xB2ED             UXTB     R5,R5            ;; ZeroExt  R5,R5,#+24,#+24
   \   00000020   0x2D00             CMP      R5,#+0
   \   00000022   0xD105             BNE.N    ??dir_remove_0
   1605          			*dj->dir = DDE;			/* Mark the entry "deleted" */
   \   00000024   0x20E5             MOVS     R0,#+229
   \   00000026   0x6961             LDR      R1,[R4, #+20]
   \   00000028   0x7008             STRB     R0,[R1, #+0]
   1606          			dj->fs->wflag = 1;
   \   0000002A   0x2001             MOVS     R0,#+1
   \   0000002C   0x6821             LDR      R1,[R4, #+0]
   \   0000002E   0x7108             STRB     R0,[R1, #+4]
   1607          		}
   1608          	}
   1609          #endif
   1610          
   1611          	return res;
   \                     ??dir_remove_0: (+1)
   \   00000030   0x0028             MOVS     R0,R5
   \   00000032   0xB2C0             UXTB     R0,R0            ;; ZeroExt  R0,R0,#+24,#+24
   \   00000034   0xBD32             POP      {R1,R4,R5,PC}    ;; return
   1612          }
   1613          #endif /* !_FS_READONLY */
   1614          
   1615          
   1616          
   1617          
   1618          /*-----------------------------------------------------------------------*/
   1619          /* Pick a segment and create the object name in directory form           */
   1620          /*-----------------------------------------------------------------------*/
   1621          

   \                                 In section .text, align 2, keep-with-next
   1622          static
   1623          FRESULT create_name (
   1624          	DIR *dj,			/* Pointer to the directory object */
   1625          	const TCHAR **path	/* Pointer to pointer to the segment in the path string */
   1626          )
   1627          {
   \                     create_name: (+1)
   \   00000000   0xE92D 0x4FF3      PUSH     {R0,R1,R4-R11,LR}
   \   00000004   0xB081             SUB      SP,SP,#+4
   1628          #ifdef _EXCVT
   1629          	static const BYTE excvt[] = _EXCVT;	/* Upper conversion table for extended chars */
   1630          #endif
   1631          
   1632          #if _USE_LFN	/* LFN configuration */
   1633          	BYTE b, cf;
   1634          	WCHAR w, *lfn;
   1635          	UINT i, ni, si, di;
   1636          	const TCHAR *p;
   1637          
   1638          	/* Create LFN in Unicode */
   1639          	for (p = *path; *p == '/' || *p == '\\'; p++) ;	/* Strip duplicated separator */
   1640          	lfn = dj->lfn;
   1641          	si = di = 0;
   1642          	for (;;) {
   1643          		w = p[si++];					/* Get a character */
   1644          		if (w < ' ' || w == '/' || w == '\\') break;	/* Break on end of segment */
   1645          		if (di >= _MAX_LFN)				/* Reject too long name */
   1646          			return FR_INVALID_NAME;
   1647          #if !_LFN_UNICODE
   1648          		w &= 0xFF;
   1649          		if (IsDBCS1(w)) {				/* Check if it is a DBC 1st byte (always false on SBCS cfg) */
   1650          			b = (BYTE)p[si++];			/* Get 2nd byte */
   1651          			if (!IsDBCS2(b))
   1652          				return FR_INVALID_NAME;	/* Reject invalid sequence */
   1653          			w = (w << 8) + b;			/* Create a DBC */
   1654          		}
   1655          		w = ff_convert(w, 1);			/* Convert ANSI/OEM to Unicode */
   1656          		if (!w) return FR_INVALID_NAME;	/* Reject invalid code */
   1657          #endif
   1658          		if (w < 0x80 && chk_chr("\"*:<>\?|\x7F", w)) /* Reject illegal chars for LFN */
   1659          			return FR_INVALID_NAME;
   1660          		lfn[di++] = w;					/* Store the Unicode char */
   1661          	}
   1662          	*path = &p[si];						/* Return pointer to the next segment */
   1663          	cf = (w < ' ') ? NS_LAST : 0;		/* Set last segment flag if end of path */
   1664          #if _FS_RPATH
   1665          	if ((di == 1 && lfn[di-1] == '.') || /* Is this a dot entry? */
   1666          		(di == 2 && lfn[di-1] == '.' && lfn[di-2] == '.')) {
   1667          		lfn[di] = 0;
   1668          		for (i = 0; i < 11; i++)
   1669          			dj->fn[i] = (i < di) ? '.' : ' ';
   1670          		dj->fn[i] = cf | NS_DOT;		/* This is a dot entry */
   1671          		return FR_OK;
   1672          	}
   1673          #endif
   1674          	while (di) {						/* Strip trailing spaces and dots */
   1675          		w = lfn[di-1];
   1676          		if (w != ' ' && w != '.') break;
   1677          		di--;
   1678          	}
   1679          	if (!di) return FR_INVALID_NAME;	/* Reject nul string */
   1680          
   1681          	lfn[di] = 0;						/* LFN is created */
   1682          
   1683          	/* Create SFN in directory form */
   1684          	mem_set(dj->fn, ' ', 11);
   1685          	for (si = 0; lfn[si] == ' ' || lfn[si] == '.'; si++) ;	/* Strip leading spaces and dots */
   1686          	if (si) cf |= NS_LOSS | NS_LFN;
   1687          	while (di && lfn[di - 1] != '.') di--;	/* Find extension (di<=si: no extension) */
   1688          
   1689          	b = i = 0; ni = 8;
   1690          	for (;;) {
   1691          		w = lfn[si++];					/* Get an LFN char */
   1692          		if (!w) break;					/* Break on end of the LFN */
   1693          		if (w == ' ' || (w == '.' && si != di)) {	/* Remove spaces and dots */
   1694          			cf |= NS_LOSS | NS_LFN; continue;
   1695          		}
   1696          
   1697          		if (i >= ni || si == di) {		/* Extension or end of SFN */
   1698          			if (ni == 11) {				/* Long extension */
   1699          				cf |= NS_LOSS | NS_LFN; break;
   1700          			}
   1701          			if (si != di) cf |= NS_LOSS | NS_LFN;	/* Out of 8.3 format */
   1702          			if (si > di) break;			/* No extension */
   1703          			si = di; i = 8; ni = 11;	/* Enter extension section */
   1704          			b <<= 2; continue;
   1705          		}
   1706          
   1707          		if (w >= 0x80) {				/* Non ASCII char */
   1708          #ifdef _EXCVT
   1709          			w = ff_convert(w, 0);		/* Unicode -> OEM code */
   1710          			if (w) w = excvt[w - 0x80];	/* Convert extended char to upper (SBCS) */
   1711          #else
   1712          			w = ff_convert(ff_wtoupper(w), 0);	/* Upper converted Unicode -> OEM code */
   1713          #endif
   1714          			cf |= NS_LFN;				/* Force create LFN entry */
   1715          		}
   1716          
   1717          		if (_DF1S && w >= 0x100) {		/* Double byte char (always false on SBCS cfg) */
   1718          			if (i >= ni - 1) {
   1719          				cf |= NS_LOSS | NS_LFN; i = ni; continue;
   1720          			}
   1721          			dj->fn[i++] = (BYTE)(w >> 8);
   1722          		} else {						/* Single byte char */
   1723          			if (!w || chk_chr("+,;=[]", w)) {	/* Replace illegal chars for SFN */
   1724          				w = '_'; cf |= NS_LOSS | NS_LFN;/* Lossy conversion */
   1725          			} else {
   1726          				if (IsUpper(w)) {		/* ASCII large capital */
   1727          					b |= 2;
   1728          				} else {
   1729          					if (IsLower(w)) {	/* ASCII small capital */
   1730          						b |= 1; w -= 0x20;
   1731          					}
   1732          				}
   1733          			}
   1734          		}
   1735          		dj->fn[i++] = (BYTE)w;
   1736          	}
   1737          
   1738          	if (dj->fn[0] == DDE) dj->fn[0] = NDDE;	/* If the first char collides with deleted mark, replace it with 0x05 */
   1739          
   1740          	if (ni == 8) b <<= 2;
   1741          	if ((b & 0x0C) == 0x0C || (b & 0x03) == 0x03)	/* Create LFN entry when there are composite capitals */
   1742          		cf |= NS_LFN;
   1743          	if (!(cf & NS_LFN)) {						/* When LFN is in 8.3 format without extended char, NT flags are created */
   1744          		if ((b & 0x03) == 0x01) cf |= NS_EXT;	/* NT flag (Extension has only small capital) */
   1745          		if ((b & 0x0C) == 0x04) cf |= NS_BODY;	/* NT flag (Filename has only small capital) */
   1746          	}
   1747          
   1748          	dj->fn[NS] = cf;	/* SFN is created */
   1749          
   1750          	return FR_OK;
   1751          
   1752          
   1753          #else	/* Non-LFN configuration */
   1754          	BYTE b, c, d, *sfn;
   1755          	UINT ni, si, i;
   1756          	const char *p;
   1757          
   1758          	/* Create file name in directory form */
   1759          	for (p = *path; *p == '/' || *p == '\\'; p++) ;	/* Strip duplicated separator */
   \   00000006   0x9802             LDR      R0,[SP, #+8]
   \   00000008   0x6800             LDR      R0,[R0, #+0]
   \   0000000A   0x4681             MOV      R9,R0
   \                     ??create_name_0: (+1)
   \   0000000C   0xF899 0x0000      LDRB     R0,[R9, #+0]
   \   00000010   0x282F             CMP      R0,#+47
   \   00000012   0xD003             BEQ.N    ??create_name_1
   \   00000014   0xF899 0x0000      LDRB     R0,[R9, #+0]
   \   00000018   0x285C             CMP      R0,#+92
   \   0000001A   0xD102             BNE.N    ??create_name_2
   \                     ??create_name_1: (+1)
   \   0000001C   0xF119 0x0901      ADDS     R9,R9,#+1
   \   00000020   0xE7F4             B.N      ??create_name_0
   1760          	sfn = dj->fn;
   \                     ??create_name_2: (+1)
   \   00000022   0x9801             LDR      R0,[SP, #+4]
   \   00000024   0x6980             LDR      R0,[R0, #+24]
   \   00000026   0x0007             MOVS     R7,R0
   1761          	mem_set(sfn, ' ', 11);
   \   00000028   0x220B             MOVS     R2,#+11
   \   0000002A   0x2120             MOVS     R1,#+32
   \   0000002C   0x0038             MOVS     R0,R7
   \   0000002E   0x.... 0x....      BL       mem_set
   1762          	si = i = b = 0; ni = 8;
   \   00000032   0x2000             MOVS     R0,#+0
   \   00000034   0x0004             MOVS     R4,R0
   \   00000036   0xB2E4             UXTB     R4,R4            ;; ZeroExt  R4,R4,#+24,#+24
   \   00000038   0x46A3             MOV      R11,R4
   \   0000003A   0x46DA             MOV      R10,R11
   \   0000003C   0x2008             MOVS     R0,#+8
   \   0000003E   0x4680             MOV      R8,R0
   1763          #if _FS_RPATH
   1764          	if (p[si] == '.') { /* Is this a dot entry? */
   \   00000040   0xFA1F 0xFA8A      UXTH     R10,R10          ;; ZeroExt  R10,R10,#+16,#+16
   \   00000044   0xF819 0x000A      LDRB     R0,[R9, R10]
   \   00000048   0x282E             CMP      R0,#+46
   \   0000004A   0xD130             BNE.N    ??create_name_3
   1765          		for (;;) {
   1766          			c = (BYTE)p[si++];
   \                     ??create_name_4: (+1)
   \   0000004C   0xFA1F 0xFA8A      UXTH     R10,R10          ;; ZeroExt  R10,R10,#+16,#+16
   \   00000050   0xF819 0x000A      LDRB     R0,[R9, R10]
   \   00000054   0x0005             MOVS     R5,R0
   \   00000056   0xF11A 0x0A01      ADDS     R10,R10,#+1
   1767          			if (c != '.' || si >= 3) break;
   \   0000005A   0xB2ED             UXTB     R5,R5            ;; ZeroExt  R5,R5,#+24,#+24
   \   0000005C   0x2D2E             CMP      R5,#+46
   \   0000005E   0xD104             BNE.N    ??create_name_5
   \   00000060   0xFA1F 0xFA8A      UXTH     R10,R10          ;; ZeroExt  R10,R10,#+16,#+16
   \   00000064   0xF1BA 0x0F03      CMP      R10,#+3
   \   00000068   0xDB03             BLT.N    ??create_name_6
   1768          			sfn[i++] = c;
   1769          		}
   1770          		if (c != '/' && c != '\\' && c > ' ') return FR_INVALID_NAME;
   \                     ??create_name_5: (+1)
   \   0000006A   0xB2ED             UXTB     R5,R5            ;; ZeroExt  R5,R5,#+24,#+24
   \   0000006C   0x2D2F             CMP      R5,#+47
   \   0000006E   0xD107             BNE.N    ??create_name_7
   \   00000070   0xE00E             B.N      ??create_name_8
   \                     ??create_name_6: (+1)
   \   00000072   0xFA1F 0xFB8B      UXTH     R11,R11          ;; ZeroExt  R11,R11,#+16,#+16
   \   00000076   0xF807 0x500B      STRB     R5,[R7, R11]
   \   0000007A   0xF11B 0x0B01      ADDS     R11,R11,#+1
   \   0000007E   0xE7E5             B.N      ??create_name_4
   \                     ??create_name_7: (+1)
   \   00000080   0xB2ED             UXTB     R5,R5            ;; ZeroExt  R5,R5,#+24,#+24
   \   00000082   0x2D5C             CMP      R5,#+92
   \   00000084   0xD004             BEQ.N    ??create_name_8
   \   00000086   0xB2ED             UXTB     R5,R5            ;; ZeroExt  R5,R5,#+24,#+24
   \   00000088   0x2D21             CMP      R5,#+33
   \   0000008A   0xDB01             BLT.N    ??create_name_8
   \   0000008C   0x2006             MOVS     R0,#+6
   \   0000008E   0xE0C4             B.N      ??create_name_9
   1771          		*path = &p[si];									/* Return pointer to the next segment */
   \                     ??create_name_8: (+1)
   \   00000090   0xFA1F 0xFA8A      UXTH     R10,R10          ;; ZeroExt  R10,R10,#+16,#+16
   \   00000094   0xEB09 0x000A      ADD      R0,R9,R10
   \   00000098   0x9902             LDR      R1,[SP, #+8]
   \   0000009A   0x6008             STR      R0,[R1, #+0]
   1772          		sfn[NS] = (c <= ' ') ? NS_LAST | NS_DOT : NS_DOT;	/* Set last segment flag if end of path */
   \   0000009C   0xB2ED             UXTB     R5,R5            ;; ZeroExt  R5,R5,#+24,#+24
   \   0000009E   0x2D21             CMP      R5,#+33
   \   000000A0   0xDA01             BGE.N    ??create_name_10
   \   000000A2   0x2024             MOVS     R0,#+36
   \   000000A4   0xE000             B.N      ??create_name_11
   \                     ??create_name_10: (+1)
   \   000000A6   0x2020             MOVS     R0,#+32
   \                     ??create_name_11: (+1)
   \   000000A8   0x72F8             STRB     R0,[R7, #+11]
   1773          		return FR_OK;
   \   000000AA   0x2000             MOVS     R0,#+0
   \   000000AC   0xE0B5             B.N      ??create_name_9
   1774          	}
   1775          #endif
   1776          	for (;;) {
   1777          		c = (BYTE)p[si++];
   \                     ??create_name_3: (+1)
   \   000000AE   0xFA1F 0xFA8A      UXTH     R10,R10          ;; ZeroExt  R10,R10,#+16,#+16
   \   000000B2   0xF819 0x000A      LDRB     R0,[R9, R10]
   \   000000B6   0x0005             MOVS     R5,R0
   \   000000B8   0xF11A 0x0A01      ADDS     R10,R10,#+1
   1778          		if (c <= ' ' || c == '/' || c == '\\') break;	/* Break on end of segment */
   \   000000BC   0xB2ED             UXTB     R5,R5            ;; ZeroExt  R5,R5,#+24,#+24
   \   000000BE   0x2D21             CMP      R5,#+33
   \   000000C0   0xDB05             BLT.N    ??create_name_12
   \   000000C2   0xB2ED             UXTB     R5,R5            ;; ZeroExt  R5,R5,#+24,#+24
   \   000000C4   0x2D2F             CMP      R5,#+47
   \   000000C6   0xD002             BEQ.N    ??create_name_12
   \   000000C8   0xB2ED             UXTB     R5,R5            ;; ZeroExt  R5,R5,#+24,#+24
   \   000000CA   0x2D5C             CMP      R5,#+92
   \   000000CC   0xD109             BNE.N    ??create_name_13
   1779          		if (c == '.' || i >= ni) {
   1780          			if (ni != 8 || c != '.') return FR_INVALID_NAME;
   1781          			i = 8; ni = 11;
   1782          			b <<= 2; continue;
   1783          		}
   1784          		if (c >= 0x80) {				/* Extended char? */
   1785          			b |= 3;						/* Eliminate NT flag */
   1786          #ifdef _EXCVT
   1787          			c = excvt[c-0x80];			/* Upper conversion (SBCS) */
   1788          #else
   1789          #if !_DF1S	/* ASCII only cfg */
   1790          			return FR_INVALID_NAME;
   1791          #endif
   1792          #endif
   1793          		}
   1794          		if (IsDBCS1(c)) {				/* Check if it is a DBC 1st byte (always false on SBCS cfg) */
   1795          			d = (BYTE)p[si++];			/* Get 2nd byte */
   1796          			if (!IsDBCS2(d) || i >= ni - 1)	/* Reject invalid DBC */
   1797          				return FR_INVALID_NAME;
   1798          			sfn[i++] = c;
   1799          			sfn[i++] = d;
   1800          		} else {						/* Single byte code */
   1801          			if (chk_chr("\"*+,:;<=>\?[]|\x7F", c))	/* Reject illegal chrs for SFN */
   1802          				return FR_INVALID_NAME;
   1803          			if (IsUpper(c)) {			/* ASCII large capital? */
   1804          				b |= 2;
   1805          			} else {
   1806          				if (IsLower(c)) {		/* ASCII small capital? */
   1807          					b |= 1; c -= 0x20;
   1808          				}
   1809          			}
   1810          			sfn[i++] = c;
   1811          		}
   1812          	}
   1813          	*path = &p[si];						/* Return pointer to the next segment */
   \                     ??create_name_12: (+1)
   \   000000CE   0xFA1F 0xFA8A      UXTH     R10,R10          ;; ZeroExt  R10,R10,#+16,#+16
   \   000000D2   0xEB09 0x000A      ADD      R0,R9,R10
   \   000000D6   0x9902             LDR      R1,[SP, #+8]
   \   000000D8   0x6008             STR      R0,[R1, #+0]
   1814          	c = (c <= ' ') ? NS_LAST : 0;		/* Set last segment flag if end of path */
   \   000000DA   0xB2ED             UXTB     R5,R5            ;; ZeroExt  R5,R5,#+24,#+24
   \   000000DC   0x2D21             CMP      R5,#+33
   \   000000DE   0xDA79             BGE.N    ??create_name_14
   \   000000E0   0xE076             B.N      ??create_name_15
   \                     ??create_name_13: (+1)
   \   000000E2   0xB2ED             UXTB     R5,R5            ;; ZeroExt  R5,R5,#+24,#+24
   \   000000E4   0x2D2E             CMP      R5,#+46
   \   000000E6   0xD005             BEQ.N    ??create_name_16
   \   000000E8   0x4658             MOV      R0,R11
   \   000000EA   0x4641             MOV      R1,R8
   \   000000EC   0xB280             UXTH     R0,R0            ;; ZeroExt  R0,R0,#+16,#+16
   \   000000EE   0xB289             UXTH     R1,R1            ;; ZeroExt  R1,R1,#+16,#+16
   \   000000F0   0x4288             CMP      R0,R1
   \   000000F2   0xD30F             BCC.N    ??create_name_17
   \                     ??create_name_16: (+1)
   \   000000F4   0xFA1F 0xF888      UXTH     R8,R8            ;; ZeroExt  R8,R8,#+16,#+16
   \   000000F8   0xF1B8 0x0F08      CMP      R8,#+8
   \   000000FC   0xD102             BNE.N    ??create_name_18
   \   000000FE   0xB2ED             UXTB     R5,R5            ;; ZeroExt  R5,R5,#+24,#+24
   \   00000100   0x2D2E             CMP      R5,#+46
   \   00000102   0xD001             BEQ.N    ??create_name_19
   \                     ??create_name_18: (+1)
   \   00000104   0x2006             MOVS     R0,#+6
   \   00000106   0xE088             B.N      ??create_name_9
   \                     ??create_name_19: (+1)
   \   00000108   0x2008             MOVS     R0,#+8
   \   0000010A   0x4683             MOV      R11,R0
   \   0000010C   0x200B             MOVS     R0,#+11
   \   0000010E   0x4680             MOV      R8,R0
   \   00000110   0x00A4             LSLS     R4,R4,#+2
   \   00000112   0xE7CC             B.N      ??create_name_3
   \                     ??create_name_17: (+1)
   \   00000114   0xB2ED             UXTB     R5,R5            ;; ZeroExt  R5,R5,#+24,#+24
   \   00000116   0x2D80             CMP      R5,#+128
   \   00000118   0xDB01             BLT.N    ??create_name_20
   \   0000011A   0xF054 0x0403      ORRS     R4,R4,#0x3
   \                     ??create_name_20: (+1)
   \   0000011E   0xB2ED             UXTB     R5,R5            ;; ZeroExt  R5,R5,#+24,#+24
   \   00000120   0x2D81             CMP      R5,#+129
   \   00000122   0xDB02             BLT.N    ??create_name_21
   \   00000124   0xB2ED             UXTB     R5,R5            ;; ZeroExt  R5,R5,#+24,#+24
   \   00000126   0x2DA0             CMP      R5,#+160
   \   00000128   0xDB05             BLT.N    ??create_name_22
   \                     ??create_name_21: (+1)
   \   0000012A   0xB2ED             UXTB     R5,R5            ;; ZeroExt  R5,R5,#+24,#+24
   \   0000012C   0x2DE0             CMP      R5,#+224
   \   0000012E   0xDB2C             BLT.N    ??create_name_23
   \   00000130   0xB2ED             UXTB     R5,R5            ;; ZeroExt  R5,R5,#+24,#+24
   \   00000132   0x2DFD             CMP      R5,#+253
   \   00000134   0xDA29             BGE.N    ??create_name_23
   \                     ??create_name_22: (+1)
   \   00000136   0xFA1F 0xFA8A      UXTH     R10,R10          ;; ZeroExt  R10,R10,#+16,#+16
   \   0000013A   0xF819 0x000A      LDRB     R0,[R9, R10]
   \   0000013E   0x0006             MOVS     R6,R0
   \   00000140   0xF11A 0x0A01      ADDS     R10,R10,#+1
   \   00000144   0xB2F6             UXTB     R6,R6            ;; ZeroExt  R6,R6,#+24,#+24
   \   00000146   0x2E40             CMP      R6,#+64
   \   00000148   0xDB02             BLT.N    ??create_name_24
   \   0000014A   0xB2F6             UXTB     R6,R6            ;; ZeroExt  R6,R6,#+24,#+24
   \   0000014C   0x2E7F             CMP      R6,#+127
   \   0000014E   0xDB05             BLT.N    ??create_name_25
   \                     ??create_name_24: (+1)
   \   00000150   0xB2F6             UXTB     R6,R6            ;; ZeroExt  R6,R6,#+24,#+24
   \   00000152   0x2E80             CMP      R6,#+128
   \   00000154   0xDB0A             BLT.N    ??create_name_26
   \   00000156   0xB2F6             UXTB     R6,R6            ;; ZeroExt  R6,R6,#+24,#+24
   \   00000158   0x2EFD             CMP      R6,#+253
   \   0000015A   0xDA07             BGE.N    ??create_name_26
   \                     ??create_name_25: (+1)
   \   0000015C   0xFA1F 0xFB8B      UXTH     R11,R11          ;; ZeroExt  R11,R11,#+16,#+16
   \   00000160   0xFA1F 0xF888      UXTH     R8,R8            ;; ZeroExt  R8,R8,#+16,#+16
   \   00000164   0xF1B8 0x0001      SUBS     R0,R8,#+1
   \   00000168   0x4583             CMP      R11,R0
   \   0000016A   0xDB01             BLT.N    ??create_name_27
   \                     ??create_name_26: (+1)
   \   0000016C   0x2006             MOVS     R0,#+6
   \   0000016E   0xE054             B.N      ??create_name_9
   \                     ??create_name_27: (+1)
   \   00000170   0xFA1F 0xFB8B      UXTH     R11,R11          ;; ZeroExt  R11,R11,#+16,#+16
   \   00000174   0xF807 0x500B      STRB     R5,[R7, R11]
   \   00000178   0xF11B 0x0B01      ADDS     R11,R11,#+1
   \   0000017C   0xFA1F 0xFB8B      UXTH     R11,R11          ;; ZeroExt  R11,R11,#+16,#+16
   \   00000180   0xF807 0x600B      STRB     R6,[R7, R11]
   \   00000184   0xF11B 0x0B01      ADDS     R11,R11,#+1
   \   00000188   0xE791             B.N      ??create_name_3
   \                     ??create_name_23: (+1)
   \   0000018A   0xB2ED             UXTB     R5,R5            ;; ZeroExt  R5,R5,#+24,#+24
   \   0000018C   0x0029             MOVS     R1,R5
   \   0000018E   0x.... 0x....      LDR.W    R0,??DataTable3
   \   00000192   0x.... 0x....      BL       chk_chr
   \   00000196   0x2800             CMP      R0,#+0
   \   00000198   0xD001             BEQ.N    ??create_name_28
   \   0000019A   0x2006             MOVS     R0,#+6
   \   0000019C   0xE03D             B.N      ??create_name_9
   \                     ??create_name_28: (+1)
   \   0000019E   0xB2ED             UXTB     R5,R5            ;; ZeroExt  R5,R5,#+24,#+24
   \   000001A0   0x2D41             CMP      R5,#+65
   \   000001A2   0xDB05             BLT.N    ??create_name_29
   \   000001A4   0xB2ED             UXTB     R5,R5            ;; ZeroExt  R5,R5,#+24,#+24
   \   000001A6   0x2D5B             CMP      R5,#+91
   \   000001A8   0xDA02             BGE.N    ??create_name_29
   \   000001AA   0xF054 0x0402      ORRS     R4,R4,#0x2
   \   000001AE   0xE008             B.N      ??create_name_30
   \                     ??create_name_29: (+1)
   \   000001B0   0xB2ED             UXTB     R5,R5            ;; ZeroExt  R5,R5,#+24,#+24
   \   000001B2   0x2D61             CMP      R5,#+97
   \   000001B4   0xDB05             BLT.N    ??create_name_30
   \   000001B6   0xB2ED             UXTB     R5,R5            ;; ZeroExt  R5,R5,#+24,#+24
   \   000001B8   0x2D7B             CMP      R5,#+123
   \   000001BA   0xDA02             BGE.N    ??create_name_30
   \   000001BC   0xF054 0x0401      ORRS     R4,R4,#0x1
   \   000001C0   0x3D20             SUBS     R5,R5,#+32
   \                     ??create_name_30: (+1)
   \   000001C2   0xFA1F 0xFB8B      UXTH     R11,R11          ;; ZeroExt  R11,R11,#+16,#+16
   \   000001C6   0xF807 0x500B      STRB     R5,[R7, R11]
   \   000001CA   0xF11B 0x0B01      ADDS     R11,R11,#+1
   \   000001CE   0xE76E             B.N      ??create_name_3
   \                     ??create_name_15: (+1)
   \   000001D0   0x2504             MOVS     R5,#+4
   \   000001D2   0xE000             B.N      ??create_name_31
   \                     ??create_name_14: (+1)
   \   000001D4   0x2500             MOVS     R5,#+0
   1815          
   1816          	if (!i) return FR_INVALID_NAME;		/* Reject nul string */
   \                     ??create_name_31: (+1)
   \   000001D6   0xFA1F 0xFB8B      UXTH     R11,R11          ;; ZeroExt  R11,R11,#+16,#+16
   \   000001DA   0xF1BB 0x0F00      CMP      R11,#+0
   \   000001DE   0xD101             BNE.N    ??create_name_32
   \   000001E0   0x2006             MOVS     R0,#+6
   \   000001E2   0xE01A             B.N      ??create_name_9
   1817          	if (sfn[0] == DDE) sfn[0] = NDDE;	/* When first char collides with DDE, replace it with 0x05 */
   \                     ??create_name_32: (+1)
   \   000001E4   0x7838             LDRB     R0,[R7, #+0]
   \   000001E6   0x28E5             CMP      R0,#+229
   \   000001E8   0xD101             BNE.N    ??create_name_33
   \   000001EA   0x2005             MOVS     R0,#+5
   \   000001EC   0x7038             STRB     R0,[R7, #+0]
   1818          
   1819          	if (ni == 8) b <<= 2;
   \                     ??create_name_33: (+1)
   \   000001EE   0xFA1F 0xF888      UXTH     R8,R8            ;; ZeroExt  R8,R8,#+16,#+16
   \   000001F2   0xF1B8 0x0F08      CMP      R8,#+8
   \   000001F6   0xD100             BNE.N    ??create_name_34
   \   000001F8   0x00A4             LSLS     R4,R4,#+2
   1820          	if ((b & 0x03) == 0x01) c |= NS_EXT;	/* NT flag (Name extension has only small capital) */
   \                     ??create_name_34: (+1)
   \   000001FA   0xB2E4             UXTB     R4,R4            ;; ZeroExt  R4,R4,#+24,#+24
   \   000001FC   0xF014 0x0003      ANDS     R0,R4,#0x3
   \   00000200   0x2801             CMP      R0,#+1
   \   00000202   0xD101             BNE.N    ??create_name_35
   \   00000204   0xF055 0x0510      ORRS     R5,R5,#0x10
   1821          	if ((b & 0x0C) == 0x04) c |= NS_BODY;	/* NT flag (Name body has only small capital) */
   \                     ??create_name_35: (+1)
   \   00000208   0xB2E4             UXTB     R4,R4            ;; ZeroExt  R4,R4,#+24,#+24
   \   0000020A   0xF014 0x000C      ANDS     R0,R4,#0xC
   \   0000020E   0x2804             CMP      R0,#+4
   \   00000210   0xD101             BNE.N    ??create_name_36
   \   00000212   0xF055 0x0508      ORRS     R5,R5,#0x8
   1822          
   1823          	sfn[NS] = c;		/* Store NT flag, File name is created */
   \                     ??create_name_36: (+1)
   \   00000216   0x72FD             STRB     R5,[R7, #+11]
   1824          
   1825          	return FR_OK;
   \   00000218   0x2000             MOVS     R0,#+0
   \                     ??create_name_9: (+1)
   \   0000021A   0xE8BD 0x8FFE      POP      {R1-R11,PC}      ;; return
   1826          #endif
   1827          }
   1828          
   1829          
   1830          
   1831          
   1832          /*-----------------------------------------------------------------------*/
   1833          /* Get file information from directory entry                             */
   1834          /*-----------------------------------------------------------------------*/
   1835          #if _FS_MINIMIZE <= 1

   \                                 In section .text, align 2, keep-with-next
   1836          static
   1837          void get_fileinfo (		/* No return code */
   1838          	DIR *dj,			/* Pointer to the directory object */
   1839          	FILINFO *fno	 	/* Pointer to the file information to be filled */
   1840          )
   1841          {
   \                     get_fileinfo: (+1)
   \   00000000   0xB4F0             PUSH     {R4-R7}
   1842          	UINT i;
   1843          	BYTE nt, *dir;
   1844          	TCHAR *p, c;
   1845          
   1846          
   1847          	p = fno->fname;
   \   00000002   0xF111 0x0709      ADDS     R7,R1,#+9
   \   00000006   0x003D             MOVS     R5,R7
   1848          	if (dj->sect) {
   \   00000008   0x6907             LDR      R7,[R0, #+16]
   \   0000000A   0x2F00             CMP      R7,#+0
   \   0000000C   0xD04A             BEQ.N    ??get_fileinfo_0
   1849          		dir = dj->dir;
   \   0000000E   0x6947             LDR      R7,[R0, #+20]
   \   00000010   0x003B             MOVS     R3,R7
   1850          		nt = dir[DIR_NTres];		/* NT flag */
   \   00000012   0x7B1F             LDRB     R7,[R3, #+12]
   \   00000014   0x003A             MOVS     R2,R7
   1851          		for (i = 0; i < 8; i++) {	/* Copy name body */
   \   00000016   0x2700             MOVS     R7,#+0
   \   00000018   0x003E             MOVS     R6,R7
   \                     ??get_fileinfo_1: (+1)
   \   0000001A   0xB2B6             UXTH     R6,R6            ;; ZeroExt  R6,R6,#+16,#+16
   \   0000001C   0x2E08             CMP      R6,#+8
   \   0000001E   0xDA0E             BGE.N    ??get_fileinfo_2
   1852          			c = dir[i];
   \   00000020   0xB2B6             UXTH     R6,R6            ;; ZeroExt  R6,R6,#+16,#+16
   \   00000022   0x5D9F             LDRB     R7,[R3, R6]
   \   00000024   0x003C             MOVS     R4,R7
   1853          			if (c == ' ') break;
   \   00000026   0xB2E4             UXTB     R4,R4            ;; ZeroExt  R4,R4,#+24,#+24
   \   00000028   0x2C20             CMP      R4,#+32
   \   0000002A   0xD008             BEQ.N    ??get_fileinfo_2
   1854          			if (c == NDDE) c = (TCHAR)DDE;
   \                     ??get_fileinfo_3: (+1)
   \   0000002C   0xB2E4             UXTB     R4,R4            ;; ZeroExt  R4,R4,#+24,#+24
   \   0000002E   0x2C05             CMP      R4,#+5
   \   00000030   0xD101             BNE.N    ??get_fileinfo_4
   \   00000032   0x27E5             MOVS     R7,#+229
   \   00000034   0x003C             MOVS     R4,R7
   1855          			if (_USE_LFN && (nt & NS_BODY) && IsUpper(c)) c += 0x20;
   1856          #if _LFN_UNICODE
   1857          			if (IsDBCS1(c) && i < 7 && IsDBCS2(dir[i+1]))
   1858          				c = (c << 8) | dir[++i];
   1859          			c = ff_convert(c, 1);
   1860          			if (!c) c = '?';
   1861          #endif
   1862          			*p++ = c;
   \                     ??get_fileinfo_4: (+1)
   \   00000036   0x702C             STRB     R4,[R5, #+0]
   \   00000038   0x1C6D             ADDS     R5,R5,#+1
   1863          		}
   \   0000003A   0x1C76             ADDS     R6,R6,#+1
   \   0000003C   0xE7ED             B.N      ??get_fileinfo_1
   1864          		if (dir[8] != ' ') {		/* Copy name extension */
   \                     ??get_fileinfo_2: (+1)
   \   0000003E   0x7A1F             LDRB     R7,[R3, #+8]
   \   00000040   0x2F20             CMP      R7,#+32
   \   00000042   0xD011             BEQ.N    ??get_fileinfo_5
   1865          			*p++ = '.';
   \   00000044   0x272E             MOVS     R7,#+46
   \   00000046   0x702F             STRB     R7,[R5, #+0]
   \   00000048   0x1C6D             ADDS     R5,R5,#+1
   1866          			for (i = 8; i < 11; i++) {
   \   0000004A   0x2708             MOVS     R7,#+8
   \   0000004C   0x003E             MOVS     R6,R7
   \                     ??get_fileinfo_6: (+1)
   \   0000004E   0xB2B6             UXTH     R6,R6            ;; ZeroExt  R6,R6,#+16,#+16
   \   00000050   0x2E0B             CMP      R6,#+11
   \   00000052   0xDA09             BGE.N    ??get_fileinfo_5
   1867          				c = dir[i];
   \   00000054   0xB2B6             UXTH     R6,R6            ;; ZeroExt  R6,R6,#+16,#+16
   \   00000056   0x5D9F             LDRB     R7,[R3, R6]
   \   00000058   0x003C             MOVS     R4,R7
   1868          				if (c == ' ') break;
   \   0000005A   0xB2E4             UXTB     R4,R4            ;; ZeroExt  R4,R4,#+24,#+24
   \   0000005C   0x2C20             CMP      R4,#+32
   \   0000005E   0xD003             BEQ.N    ??get_fileinfo_5
   1869          				if (_USE_LFN && (nt & NS_EXT) && IsUpper(c)) c += 0x20;
   1870          #if _LFN_UNICODE
   1871          				if (IsDBCS1(c) && i < 10 && IsDBCS2(dir[i+1]))
   1872          					c = (c << 8) | dir[++i];
   1873          				c = ff_convert(c, 1);
   1874          				if (!c) c = '?';
   1875          #endif
   1876          				*p++ = c;
   \                     ??get_fileinfo_7: (+1)
   \   00000060   0x702C             STRB     R4,[R5, #+0]
   \   00000062   0x1C6D             ADDS     R5,R5,#+1
   1877          			}
   \   00000064   0x1C76             ADDS     R6,R6,#+1
   \   00000066   0xE7F2             B.N      ??get_fileinfo_6
   1878          		}
   1879          		fno->fattrib = dir[DIR_Attr];				/* Attribute */
   \                     ??get_fileinfo_5: (+1)
   \   00000068   0x7ADF             LDRB     R7,[R3, #+11]
   \   0000006A   0x720F             STRB     R7,[R1, #+8]
   1880          		fno->fsize = LD_DWORD(dir+DIR_FileSize);	/* Size */
   \   0000006C   0x7FDF             LDRB     R7,[R3, #+31]
   \   0000006E   0xF893 0xC01E      LDRB     R12,[R3, #+30]
   \   00000072   0xEA5F 0x4C0C      LSLS     R12,R12,#+16
   \   00000076   0xEA5C 0x6707      ORRS     R7,R12,R7, LSL #+24
   \   0000007A   0xF893 0xC01D      LDRB     R12,[R3, #+29]
   \   0000007E   0xEA57 0x270C      ORRS     R7,R7,R12, LSL #+8
   \   00000082   0xF893 0xC01C      LDRB     R12,[R3, #+28]
   \   00000086   0xEA5C 0x0707      ORRS     R7,R12,R7
   \   0000008A   0x600F             STR      R7,[R1, #+0]
   1881          		fno->fdate = LD_WORD(dir+DIR_WrtDate);		/* Date */
   \   0000008C   0x7E5F             LDRB     R7,[R3, #+25]
   \   0000008E   0xF893 0xC018      LDRB     R12,[R3, #+24]
   \   00000092   0xEA5C 0x2707      ORRS     R7,R12,R7, LSL #+8
   \   00000096   0x808F             STRH     R7,[R1, #+4]
   1882          		fno->ftime = LD_WORD(dir+DIR_WrtTime);		/* Time */
   \   00000098   0x7DDF             LDRB     R7,[R3, #+23]
   \   0000009A   0xF893 0xC016      LDRB     R12,[R3, #+22]
   \   0000009E   0xEA5C 0x2707      ORRS     R7,R12,R7, LSL #+8
   \   000000A2   0x80CF             STRH     R7,[R1, #+6]
   1883          	}
   1884          	*p = 0;		/* Terminate SFN str by a \0 */
   \                     ??get_fileinfo_0: (+1)
   \   000000A4   0x2700             MOVS     R7,#+0
   \   000000A6   0x702F             STRB     R7,[R5, #+0]
   1885          
   1886          #if _USE_LFN
   1887          	if (fno->lfname && fno->lfsize) {
   1888          		TCHAR *tp = fno->lfname;
   1889          		WCHAR w, *lfn;
   1890          
   1891          		i = 0;
   1892          		if (dj->sect && dj->lfn_idx != 0xFFFF) {/* Get LFN if available */
   1893          			lfn = dj->lfn;
   1894          			while ((w = *lfn++) != 0) {			/* Get an LFN char */
   1895          #if !_LFN_UNICODE
   1896          				w = ff_convert(w, 0);			/* Unicode -> OEM conversion */
   1897          				if (!w) { i = 0; break; }		/* Could not convert, no LFN */
   1898          				if (_DF1S && w >= 0x100)		/* Put 1st byte if it is a DBC (always false on SBCS cfg) */
   1899          					tp[i++] = (TCHAR)(w >> 8);
   1900          #endif
   1901          				if (i >= fno->lfsize - 1) { i = 0; break; }	/* Buffer overflow, no LFN */
   1902          				tp[i++] = (TCHAR)w;
   1903          			}
   1904          		}
   1905          		tp[i] = 0;	/* Terminate the LFN str by a \0 */
   1906          	}
   1907          #endif
   1908          }
   \   000000A8   0xBCF0             POP      {R4-R7}
   \   000000AA   0x4770             BX       LR               ;; return
   1909          #endif /* _FS_MINIMIZE <= 1 */
   1910          
   1911          
   1912          
   1913          
   1914          /*-----------------------------------------------------------------------*/
   1915          /* Follow a file path                                                    */
   1916          /*-----------------------------------------------------------------------*/
   1917          

   \                                 In section .text, align 2, keep-with-next
   1918          static
   1919          FRESULT follow_path (	/* FR_OK(0): successful, !=0: error code */
   1920          	DIR *dj,			/* Directory object to return last directory and found object */
   1921          	const TCHAR *path	/* Full-path string to find a file or directory */
   1922          )
   1923          {
   \                     follow_path: (+1)
   \   00000000   0xB5F2             PUSH     {R1,R4-R7,LR}
   \   00000002   0x0004             MOVS     R4,R0
   1924          	FRESULT res;
   1925          	BYTE *dir, ns;
   1926          
   1927          
   1928          #if _FS_RPATH
   1929          	if (*path == '/' || *path == '\\') { /* There is a heading separator */
   \   00000004   0x9800             LDR      R0,[SP, #+0]
   \   00000006   0x7800             LDRB     R0,[R0, #+0]
   \   00000008   0x282F             CMP      R0,#+47
   \   0000000A   0xD003             BEQ.N    ??follow_path_0
   \   0000000C   0x9800             LDR      R0,[SP, #+0]
   \   0000000E   0x7800             LDRB     R0,[R0, #+0]
   \   00000010   0x285C             CMP      R0,#+92
   \   00000012   0xD105             BNE.N    ??follow_path_1
   1930          		path++;	dj->sclust = 0;		/* Strip it and start from the root dir */
   \                     ??follow_path_0: (+1)
   \   00000014   0x9800             LDR      R0,[SP, #+0]
   \   00000016   0x1C40             ADDS     R0,R0,#+1
   \   00000018   0x9000             STR      R0,[SP, #+0]
   \   0000001A   0x2000             MOVS     R0,#+0
   \   0000001C   0x60A0             STR      R0,[R4, #+8]
   \   0000001E   0xE002             B.N      ??follow_path_2
   1931          	} else {							/* No heading separator */
   1932          		dj->sclust = dj->fs->cdir;	/* Start from the current dir */
   \                     ??follow_path_1: (+1)
   \   00000020   0x6820             LDR      R0,[R4, #+0]
   \   00000022   0x6980             LDR      R0,[R0, #+24]
   \   00000024   0x60A0             STR      R0,[R4, #+8]
   1933          	}
   1934          #else
   1935          	if (*path == '/' || *path == '\\')	/* Strip heading separator if exist */
   1936          		path++;
   1937          	dj->sclust = 0;						/* Start from the root dir */
   1938          #endif
   1939          
   1940          	if ((UINT)*path < ' ') {			/* Nul path means the start directory itself */
   \                     ??follow_path_2: (+1)
   \   00000026   0x9800             LDR      R0,[SP, #+0]
   \   00000028   0x7800             LDRB     R0,[R0, #+0]
   \   0000002A   0x2820             CMP      R0,#+32
   \   0000002C   0xDA07             BGE.N    ??follow_path_3
   1941          		res = dir_sdi(dj, 0);
   \   0000002E   0x2100             MOVS     R1,#+0
   \   00000030   0x0020             MOVS     R0,R4
   \   00000032   0x.... 0x....      BL       dir_sdi
   \   00000036   0x0005             MOVS     R5,R0
   1942          		dj->dir = 0;
   \   00000038   0x2000             MOVS     R0,#+0
   \   0000003A   0x6160             STR      R0,[R4, #+20]
   \   0000003C   0xE03C             B.N      ??follow_path_4
   1943          
   1944          	} else {							/* Follow path */
   1945          		for (;;) {
   1946          			res = create_name(dj, &path);	/* Get a segment */
   \                     ??follow_path_3: (+1)
   \   0000003E   0x4669             MOV      R1,SP
   \   00000040   0x0020             MOVS     R0,R4
   \   00000042   0x.... 0x....      BL       create_name
   \   00000046   0x0005             MOVS     R5,R0
   1947          			if (res != FR_OK) break;
   \   00000048   0xB2ED             UXTB     R5,R5            ;; ZeroExt  R5,R5,#+24,#+24
   \   0000004A   0x2D00             CMP      R5,#+0
   \   0000004C   0xD134             BNE.N    ??follow_path_4
   1948          			res = dir_find(dj);				/* Find it */
   \                     ??follow_path_5: (+1)
   \   0000004E   0x0020             MOVS     R0,R4
   \   00000050   0x.... 0x....      BL       dir_find
   \   00000054   0x0005             MOVS     R5,R0
   1949          			ns = *(dj->fn+NS);
   \   00000056   0x69A0             LDR      R0,[R4, #+24]
   \   00000058   0x7AC0             LDRB     R0,[R0, #+11]
   \   0000005A   0x0007             MOVS     R7,R0
   1950          			if (res != FR_OK) {				/* Failed to find the object */
   \   0000005C   0xB2ED             UXTB     R5,R5            ;; ZeroExt  R5,R5,#+24,#+24
   \   0000005E   0x2D00             CMP      R5,#+0
   \   00000060   0xD012             BEQ.N    ??follow_path_6
   1951          				if (res != FR_NO_FILE) break;	/* Abort if any hard error occured */
   \   00000062   0xB2ED             UXTB     R5,R5            ;; ZeroExt  R5,R5,#+24,#+24
   \   00000064   0x2D04             CMP      R5,#+4
   \   00000066   0xD127             BNE.N    ??follow_path_4
   1952          				/* Object not found */
   1953          				if (_FS_RPATH && (ns & NS_DOT)) {	/* If dot entry is not exit */
   \                     ??follow_path_7: (+1)
   \   00000068   0x06B8             LSLS     R0,R7,#+26
   \   0000006A   0xD508             BPL.N    ??follow_path_8
   1954          					dj->sclust = 0; dj->dir = 0;	/* It is the root dir */
