###############################################################################
#
# IAR ANSI C/C++ Compiler V7.80.4.12462/W32 for ARM       12/Dec/2022  11:41:21
# Copyright 1999-2017 IAR Systems AB.
#
#    Cpu mode     =  thumb
#    Endian       =  little
#    Source file  =  
#        C:\Users\shaomingkun\Desktop\git\evolve5.0\2021sw\ECOM-5\Modules\HAL_Lib\HT1621.c
#    Command line =  
#        C:\Users\shaomingkun\Desktop\git\evolve5.0\2021sw\ECOM-5\Modules\HAL_Lib\HT1621.c
#        -D EFM32LG380F256 -D BSP_CORTEX_EFM32 -D DEBUG_EFM_JJ -D
#        RF_MODULE_EXIST____ -lC
#        C:\Users\shaomingkun\Desktop\git\evolve5.0\2021sw\ECOM-5\Debug\List
#        -lA
#        C:\Users\shaomingkun\Desktop\git\evolve5.0\2021sw\ECOM-5\Debug\List -o
#        C:\Users\shaomingkun\Desktop\git\evolve5.0\2021sw\ECOM-5\Debug\Obj
#        --no_cse --no_unroll --no_inline --no_code_motion --no_tbaa
#        --no_clustering --no_scheduling --debug --endian=little
#        --cpu=Cortex-M3 -e --fpu=None --dlib_config "C:\Program Files
#        (x86)\IAR Systems\Embedded Workbench
#        7.5\arm\INC\c\DLib_Config_Normal.h" -I
#        C:\Users\shaomingkun\Desktop\git\evolve5.0\2021sw\ECOM-5\ -I
#        C:\Users\shaomingkun\Desktop\git\evolve5.0\2021sw\ECOM-5\Local\ -I
#        C:\Users\shaomingkun\Desktop\git\evolve5.0\2021sw\ECOM-5\Modules\ -I
#        C:\Users\shaomingkun\Desktop\git\evolve5.0\2021sw\ECOM-5\Modules\Utilities_Lib\
#        -I
#        C:\Users\shaomingkun\Desktop\git\evolve5.0\2021sw\ECOM-5\Modules\HAL_Lib\
#        -I
#        C:\Users\shaomingkun\Desktop\git\evolve5.0\2021sw\ECOM-5\Modules\LCB_Lib\
#        -I
#        C:\Users\shaomingkun\Desktop\git\evolve5.0\2021sw\ECOM-5\Modules\Eng_lib\
#        -I
#        C:\Users\shaomingkun\Desktop\git\evolve5.0\2021sw\ECOM-5\..\Modules\Eng_lib\
#        -I
#        C:\Users\shaomingkun\Desktop\git\evolve5.0\2021sw\ECOM-5\Modules\SystemConfig_Lib\
#        -I
#        C:\Users\shaomingkun\Desktop\git\evolve5.0\2021sw\ECOM-5\Modules\EFM32_lib\
#        -I
#        C:\Users\shaomingkun\Desktop\git\evolve5.0\2021sw\ECOM-5\Modules\EFM32_lib\drivers\
#        -I
#        C:\Users\shaomingkun\Desktop\git\evolve5.0\2021sw\ECOM-5\Modules\Program_lib\
#        -I
#        C:\Users\shaomingkun\Desktop\git\evolve5.0\2021sw\ECOM-5\Modules\RF_lib\
#        -I
#        C:\Users\shaomingkun\Desktop\git\evolve5.0\2021sw\ECOM-5\Modules\USB_lib\
#        -I
#        C:\Users\shaomingkun\Desktop\git\evolve5.0\2021sw\ECOM-5\Modules\USB_lib\usb\src\
#        -I
#        C:\Users\shaomingkun\Desktop\git\evolve5.0\2021sw\ECOM-5\Modules\USB_lib\usb\inc\
#        -I
#        C:\Users\shaomingkun\Desktop\git\evolve5.0\2021sw\ECOM-5\Modules\Bluetooth_lib\
#        -I
#        C:\Users\shaomingkun\Desktop\git\evolve5.0\2021sw\ECOM-5\Modules\Remote_lib\
#        -I
#        C:\Users\shaomingkun\Desktop\git\evolve5.0\2021sw\ECOM-5\Modules\EFM32_lib\Include\
#        -I
#        C:\Users\shaomingkun\Desktop\git\evolve5.0\2021sw\ECOM-5\Modules\EFM32_lib\emlib\inc\
#        -I
#        C:\Users\shaomingkun\Desktop\git\evolve5.0\2021sw\ECOM-5\Modules\EFM32_lib\emlib\src\
#        -I
#        C:\Users\shaomingkun\Desktop\git\evolve5.0\2021sw\ECOM-5\Modules\EFM32_lib\drivers\fatfs\src\
#        -I
#        C:\Users\shaomingkun\Desktop\git\evolve5.0\2021sw\ECOM-5\Modules\EFM32_lib\Device\EnergyMicro\EFM32LG\Include\
#        -I
#        C:\Users\shaomingkun\Desktop\git\evolve5.0\2021sw\ECOM-5\Modules\EFM32_lib\Device\EnergyMicro\EFM32LG\Source\
#        -I
#        C:\Users\shaomingkun\Desktop\git\evolve5.0\2021sw\ECOM-5\Modules\EFM32_lib\Device\EnergyMicro\EFM32LG\Source\IAR\
#        -I
#        C:\Users\shaomingkun\Desktop\git\evolve5.0\2021sw\ECOM-5\Modules\RTT_Lib\
#        -On
#    Locale       =  Chinese (Simplified)_China.936
#    List file    =  
#        C:\Users\shaomingkun\Desktop\git\evolve5.0\2021sw\ECOM-5\Debug\List\HT1621.lst
#    Object file  =  
#        C:\Users\shaomingkun\Desktop\git\evolve5.0\2021sw\ECOM-5\Debug\Obj\HT1621.o
#
###############################################################################

C:\Users\shaomingkun\Desktop\git\evolve5.0\2021sw\ECOM-5\Modules\HAL_Lib\HT1621.c
      1          /*
      2           * Function: Beep_hardware_Control
      3           *
      4           * Description: Beep_Sound
      5           *
      6           * New Design: Version: S001
      7           *             By:
      8           *             Date: 2004/12/3
      9           *
     10           * Use Region:
     11           *
     12           * Modify : Version: S003
     13           *          By:     Zhao Xiaodong
     14           *          Date:   2008.11.20
     15           *          Content:    HardWare Function
     16           *          Interrupt :
     17          */
     18          
     19          /************************************************************************************/
     20          #include "HT16CXX.h"

  EFM32_PACK_START( 1 )
                    ^
"C:\Users\shaomingkun\Desktop\git\evolve5.0\2021sw\ECOM-5\Modules\USB_lib\usb\inc\em_usb.h",318  Warning[Pe1665]: 
          concatenation with "1)" in macro "EFM32_PACK_START" does not create a
          valid token

  EFM32_PACK_START( 1 )
  ^
"C:\Users\shaomingkun\Desktop\git\evolve5.0\2021sw\ECOM-5\Modules\USB_lib\usb\inc\em_usb.h",318  Warning[Pe1665]: 
          concatenation with ")" in macro "EFM32_PACK_START" does not create a
          valid token

  EFM32_PACK_START( 1 )
                    ^
"C:\Users\shaomingkun\Desktop\git\evolve5.0\2021sw\ECOM-5\Modules\USB_lib\usb\inc\em_usb.h",347  Warning[Pe1665]: 
          concatenation with "1)" in macro "EFM32_PACK_START" does not create a
          valid token

  EFM32_PACK_START( 1 )
  ^
"C:\Users\shaomingkun\Desktop\git\evolve5.0\2021sw\ECOM-5\Modules\USB_lib\usb\inc\em_usb.h",347  Warning[Pe1665]: 
          concatenation with ")" in macro "EFM32_PACK_START" does not create a
          valid token

  EFM32_PACK_START( 1 )
                    ^
"C:\Users\shaomingkun\Desktop\git\evolve5.0\2021sw\ECOM-5\Modules\USB_lib\usb\inc\em_usb.h",371  Warning[Pe1665]: 
          concatenation with "1)" in macro "EFM32_PACK_START" does not create a
          valid token

  EFM32_PACK_START( 1 )
  ^
"C:\Users\shaomingkun\Desktop\git\evolve5.0\2021sw\ECOM-5\Modules\USB_lib\usb\inc\em_usb.h",371  Warning[Pe1665]: 
          concatenation with ")" in macro "EFM32_PACK_START" does not create a
          valid token

  EFM32_PACK_START( 1 )
                    ^
"C:\Users\shaomingkun\Desktop\git\evolve5.0\2021sw\ECOM-5\Modules\USB_lib\usb\inc\em_usb.h",400  Warning[Pe1665]: 
          concatenation with "1)" in macro "EFM32_PACK_START" does not create a
          valid token

  EFM32_PACK_START( 1 )
  ^
"C:\Users\shaomingkun\Desktop\git\evolve5.0\2021sw\ECOM-5\Modules\USB_lib\usb\inc\em_usb.h",400  Warning[Pe1665]: 
          concatenation with ")" in macro "EFM32_PACK_START" does not create a
          valid token

  EFM32_PACK_START( 1 )
                    ^
"C:\Users\shaomingkun\Desktop\git\evolve5.0\2021sw\ECOM-5\Modules\USB_lib\usb\inc\em_usb.h",441  Warning[Pe1665]: 
          concatenation with "1)" in macro "EFM32_PACK_START" does not create a
          valid token

  EFM32_PACK_START( 1 )
  ^
"C:\Users\shaomingkun\Desktop\git\evolve5.0\2021sw\ECOM-5\Modules\USB_lib\usb\inc\em_usb.h",441  Warning[Pe1665]: 
          concatenation with ")" in macro "EFM32_PACK_START" does not create a
          valid token

  EFM32_PACK_START( 1 )
                    ^
"C:\Users\shaomingkun\Desktop\git\evolve5.0\2021sw\ECOM-5\Modules\USB_lib\usb\inc\em_usb.h",455  Warning[Pe1665]: 
          concatenation with "1)" in macro "EFM32_PACK_START" does not create a
          valid token

  EFM32_PACK_START( 1 )
  ^
"C:\Users\shaomingkun\Desktop\git\evolve5.0\2021sw\ECOM-5\Modules\USB_lib\usb\inc\em_usb.h",455  Warning[Pe1665]: 
          concatenation with ")" in macro "EFM32_PACK_START" does not create a
          valid token
     21          /************************************************************************************/
     22          
     23          
     24          /***********************************/
     25          #define SYS_ENABLE         0X01
     26          #define LCD_ON             0x03
     27          #define RC_256K            0x18
     28          #define BIAS3              0x29
     29          /***********************************/
     30          
     31          #define BIT0                (0x00000001)
     32          #define BIT1                (0x00000002)
     33          #define BIT2                (0x00000004)
     34          #define BIT3                (0x00000008)
     35          #define BIT4                (0x00000010)
     36          #define BIT5                (0x00000020)
     37          #define BIT6                (0x00000040)
     38          #define BIT7                (0x00000080)
     39          #define BIT8                (0x00000100)
     40          #define BIT9                (0x00000200)
     41          #define BITA                (0x00000400)
     42          #define BITB                (0x00000800)
     43          #define BITC                (0x00001000)
     44          #define BITD                (0x00002000)
     45          #define BITE                (0x00004000)
     46          #define BITF                (0x00008000)
     47          
     48          void HT1621_Updata_Data_One(char by_Index,char *pby_Buf);
     49          void HT1621_Write_Command(char by_IC, char by_Dat);
     50          void HT1621_Initial_Command(char by_IC);
     51          

   \                                 In section .text, align 2, keep-with-next
     52          void HT1621_Initial_Command_First(char by_IC)
     53          {
   \                     HT1621_Initial_Command_First: (+1)
   \   00000000   0xB510             PUSH     {R4,LR}
   \   00000002   0x0004             MOVS     R4,R0
     54              HT1621_Write_Command(by_IC,0);
   \   00000004   0x2100             MOVS     R1,#+0
   \   00000006   0x0020             MOVS     R0,R4
   \   00000008   0xB2C0             UXTB     R0,R0            ;; ZeroExt  R0,R0,#+24,#+24
   \   0000000A   0x.... 0x....      BL       HT1621_Write_Command
     55              HT1621_Write_Command(by_IC,SYS_ENABLE);
   \   0000000E   0x2101             MOVS     R1,#+1
   \   00000010   0x0020             MOVS     R0,R4
   \   00000012   0xB2C0             UXTB     R0,R0            ;; ZeroExt  R0,R0,#+24,#+24
   \   00000014   0x.... 0x....      BL       HT1621_Write_Command
     56              HT1621_Write_Command(by_IC,LCD_ON);
   \   00000018   0x2103             MOVS     R1,#+3
   \   0000001A   0x0020             MOVS     R0,R4
   \   0000001C   0xB2C0             UXTB     R0,R0            ;; ZeroExt  R0,R0,#+24,#+24
   \   0000001E   0x.... 0x....      BL       HT1621_Write_Command
     57              HT1621_Write_Command(by_IC,RC_256K);	//Default Value is RC_256K
   \   00000022   0x2118             MOVS     R1,#+24
   \   00000024   0x0020             MOVS     R0,R4
   \   00000026   0xB2C0             UXTB     R0,R0            ;; ZeroExt  R0,R0,#+24,#+24
   \   00000028   0x.... 0x....      BL       HT1621_Write_Command
     58              HT1621_Write_Command(by_IC,BIAS3);
   \   0000002C   0x2129             MOVS     R1,#+41
   \   0000002E   0x0020             MOVS     R0,R4
   \   00000030   0xB2C0             UXTB     R0,R0            ;; ZeroExt  R0,R0,#+24,#+24
   \   00000032   0x.... 0x....      BL       HT1621_Write_Command
     59          }
   \   00000036   0xBD10             POP      {R4,PC}          ;; return
     60          /*------------------------------------------
     61          Function Contents: 虫1621﹍て(ず场ㄧ计)
     62          --------------------------------------------
     63          Use Regional : HT1621.c
     64          --------------------------------------------
     65          Input:  Name    Type     Min     Max
     66            1  by_IC      char      0       2
     67          --------------------------------------------
     68          Output:  N/A
     69          --------------------------------------------*/

   \                                 In section .text, align 2, keep-with-next
     70          void HT1621_Initial_Command(char by_IC)
     71          {
   \                     HT1621_Initial_Command: (+1)
   \   00000000   0xB510             PUSH     {R4,LR}
   \   00000002   0x0004             MOVS     R4,R0
     72              HT1621_Write_Command(by_IC,SYS_ENABLE);
   \   00000004   0x2101             MOVS     R1,#+1
   \   00000006   0x0020             MOVS     R0,R4
   \   00000008   0xB2C0             UXTB     R0,R0            ;; ZeroExt  R0,R0,#+24,#+24
   \   0000000A   0x.... 0x....      BL       HT1621_Write_Command
     73              HT1621_Write_Command(by_IC,LCD_ON);
   \   0000000E   0x2103             MOVS     R1,#+3
   \   00000010   0x0020             MOVS     R0,R4
   \   00000012   0xB2C0             UXTB     R0,R0            ;; ZeroExt  R0,R0,#+24,#+24
   \   00000014   0x.... 0x....      BL       HT1621_Write_Command
     74              HT1621_Write_Command(by_IC,RC_256K);	//Default Value is RC_256K
   \   00000018   0x2118             MOVS     R1,#+24
   \   0000001A   0x0020             MOVS     R0,R4
   \   0000001C   0xB2C0             UXTB     R0,R0            ;; ZeroExt  R0,R0,#+24,#+24
   \   0000001E   0x.... 0x....      BL       HT1621_Write_Command
     75              HT1621_Write_Command(by_IC,BIAS3);
   \   00000022   0x2129             MOVS     R1,#+41
   \   00000024   0x0020             MOVS     R0,R4
   \   00000026   0xB2C0             UXTB     R0,R0            ;; ZeroExt  R0,R0,#+24,#+24
   \   00000028   0x.... 0x....      BL       HT1621_Write_Command
     76          }
   \   0000002C   0xBD10             POP      {R4,PC}          ;; return
     77          
     78          /*------------------------------------------
     79          Function Contents: 计沮穝ㄧ计
     80          --------------------------------------------
     81          Use Regional : Display.c
     82          --------------------------------------------
     83          Input:  Name            Type     Min   Max
     84            1  pby_Lcd_Buffer     char *    0    oxffff
     85            2  by_1621_Count      char      0     2
     86          --------------------------------------------
     87          Output:  N/A
     88          --------------------------------------------*/

   \                                 In section .text, align 2, keep-with-next
     89          void HT1621_Updata_Data(char *pby_Lcd_Buffer,char by_1621_Count)     //*************
     90          {
   \                     HT1621_Updata_Data: (+1)
   \   00000000   0xB5F8             PUSH     {R3-R7,LR}
   \   00000002   0x0004             MOVS     R4,R0
   \   00000004   0x000D             MOVS     R5,R1
     91              char by_IC_Index;
     92              char by_Flag = by_1621_Count&0x80;
   \   00000006   0xF015 0x0780      ANDS     R7,R5,#0x80
     93              by_1621_Count = by_1621_Count&0x7F;
   \   0000000A   0xF015 0x057F      ANDS     R5,R5,#0x7F
     94              for(by_IC_Index = 0;by_IC_Index < by_1621_Count;by_IC_Index++)
   \   0000000E   0x2000             MOVS     R0,#+0
   \   00000010   0x0006             MOVS     R6,R0
   \                     ??HT1621_Updata_Data_0: (+1)
   \   00000012   0x0030             MOVS     R0,R6
   \   00000014   0x0029             MOVS     R1,R5
   \   00000016   0xB2C0             UXTB     R0,R0            ;; ZeroExt  R0,R0,#+24,#+24
   \   00000018   0xB2C9             UXTB     R1,R1            ;; ZeroExt  R1,R1,#+24,#+24
   \   0000001A   0x4288             CMP      R0,R1
   \   0000001C   0xD206             BCS.N    ??HT1621_Updata_Data_1
     95              {
     96                  HT1621_Updata_Data_One(by_IC_Index+by_Flag,pby_Lcd_Buffer);
   \   0000001E   0x0021             MOVS     R1,R4
   \   00000020   0x19B8             ADDS     R0,R7,R6
   \   00000022   0xB2C0             UXTB     R0,R0            ;; ZeroExt  R0,R0,#+24,#+24
   \   00000024   0x.... 0x....      BL       HT1621_Updata_Data_One
     97              }
   \   00000028   0x1C76             ADDS     R6,R6,#+1
   \   0000002A   0xE7F2             B.N      ??HT1621_Updata_Data_0
     98          }
   \                     ??HT1621_Updata_Data_1: (+1)
   \   0000002C   0xBDF1             POP      {R0,R4-R7,PC}    ;; return
     99          
    100          /*------------------------------------------
    101          Function Contents: 虫1621计沮穝ㄧ计(ず场ㄧ计)
    102          --------------------------------------------
    103          Use Regional : HT1621.c
    104          --------------------------------------------
    105          Input:  Name        Type     Min   Max
    106            1  pby_Buf        char *    0    oxffff
    107            2  by_IC          char      0     2
    108          --------------------------------------------
    109          Output:  N/A
    110          --------------------------------------------*/

   \                                 In section .text, align 2, keep-with-next
    111          void HT1621_Updata_Data_One(char by_IC,char *pby_Buf)
    112          {
   \                     HT1621_Updata_Data_One: (+1)
   \   00000000   0xE92D 0x43F8      PUSH     {R3-R9,LR}
   \   00000004   0x4681             MOV      R9,R0
   \   00000006   0x000C             MOVS     R4,R1
    113              char by_Out,by_Index = 0,by_Loop,by_MAX;
   \   00000008   0xF05F 0x0800      MOVS     R8,#+0
    114          
    115              if(by_IC&0x80)
   \   0000000C   0xEA5F 0x6009      LSLS     R0,R9,#+24
   \   00000010   0xD503             BPL.N    ??HT1621_Updata_Data_One_0
    116          		HT1621_Initial_Command(by_IC&0x7F);
   \   00000012   0xF019 0x007F      ANDS     R0,R9,#0x7F
   \   00000016   0x.... 0x....      BL       HT1621_Initial_Command
    117              by_IC &= 0x7f;
   \                     ??HT1621_Updata_Data_One_0: (+1)
   \   0000001A   0xF019 0x097F      ANDS     R9,R9,#0x7F
    118              HW_HT162x_Set_High_CS(by_IC,0);
                     ^
Warning[Pe223]: function "HW_HT162x_Set_High_CS" declared implicitly
   \   0000001E   0x2100             MOVS     R1,#+0
   \   00000020   0xFA5F 0xF989      UXTB     R9,R9            ;; ZeroExt  R9,R9,#+24,#+24
   \   00000024   0x4648             MOV      R0,R9
   \   00000026   0x.... 0x....      BL       HW_HT162x_Set_High_CS
    119              
    120              HW_HT162x_Set_High_Data(1);
                     ^
Warning[Pe223]: function "HW_HT162x_Set_High_Data" declared implicitly
   \   0000002A   0x2001             MOVS     R0,#+1
   \   0000002C   0x.... 0x....      BL       HW_HT162x_Set_High_Data
    121              HW_HT162x_Set_High_WR(0);
                     ^
Warning[Pe223]: function "HW_HT162x_Set_High_WR" declared implicitly
   \   00000030   0x2000             MOVS     R0,#+0
   \   00000032   0x.... 0x....      BL       HW_HT162x_Set_High_WR
    122              HW_HT162x_Set_High_WR(1);
   \   00000036   0x2001             MOVS     R0,#+1
   \   00000038   0x.... 0x....      BL       HW_HT162x_Set_High_WR
    123          
    124              HW_HT162x_Set_High_Data(0);
   \   0000003C   0x2000             MOVS     R0,#+0
   \   0000003E   0x.... 0x....      BL       HW_HT162x_Set_High_Data
    125              HW_HT162x_Set_High_WR(0);
   \   00000042   0x2000             MOVS     R0,#+0
   \   00000044   0x.... 0x....      BL       HW_HT162x_Set_High_WR
    126              HW_HT162x_Set_High_WR(1);
   \   00000048   0x2001             MOVS     R0,#+1
   \   0000004A   0x.... 0x....      BL       HW_HT162x_Set_High_WR
    127          
    128              HW_HT162x_Set_High_Data(1);
   \   0000004E   0x2001             MOVS     R0,#+1
   \   00000050   0x.... 0x....      BL       HW_HT162x_Set_High_Data
    129              HW_HT162x_Set_High_WR(0);
   \   00000054   0x2000             MOVS     R0,#+0
   \   00000056   0x.... 0x....      BL       HW_HT162x_Set_High_WR
    130              HW_HT162x_Set_High_WR(1);
   \   0000005A   0x2001             MOVS     R0,#+1
   \   0000005C   0x.... 0x....      BL       HW_HT162x_Set_High_WR
    131          
    132              
    133              by_MAX = 7;
   \   00000060   0x2007             MOVS     R0,#+7
   \   00000062   0x0007             MOVS     R7,R0
    134              
    135          	
    136              for(by_Loop=0; by_Loop<by_MAX; by_Loop++) //FROM THE FIRST ADDRESS
   \   00000064   0x2000             MOVS     R0,#+0
   \   00000066   0x0006             MOVS     R6,R0
   \                     ??HT1621_Updata_Data_One_1: (+1)
   \   00000068   0x0030             MOVS     R0,R6
   \   0000006A   0x0039             MOVS     R1,R7
   \   0000006C   0xB2C0             UXTB     R0,R0            ;; ZeroExt  R0,R0,#+24,#+24
   \   0000006E   0xB2C9             UXTB     R1,R1            ;; ZeroExt  R1,R1,#+24,#+24
   \   00000070   0x4288             CMP      R0,R1
   \   00000072   0xD20A             BCS.N    ??HT1621_Updata_Data_One_2
    137              {
    138                  HW_HT162x_Set_High_Data(0);
   \   00000074   0x2000             MOVS     R0,#+0
   \   00000076   0x.... 0x....      BL       HW_HT162x_Set_High_Data
    139                  HW_HT162x_Set_High_WR(0);
   \   0000007A   0x2000             MOVS     R0,#+0
   \   0000007C   0x.... 0x....      BL       HW_HT162x_Set_High_WR
    140                  HW_HT162x_Set_High_WR(1);
   \   00000080   0x2001             MOVS     R0,#+1
   \   00000082   0x.... 0x....      BL       HW_HT162x_Set_High_WR
    141              }
   \   00000086   0x1C76             ADDS     R6,R6,#+1
   \   00000088   0xE7EE             B.N      ??HT1621_Updata_Data_One_1
    142             for(by_Index=0;by_Index<64;by_Index++)
   \                     ??HT1621_Updata_Data_One_2: (+1)
   \   0000008A   0x2000             MOVS     R0,#+0
   \   0000008C   0x4680             MOV      R8,R0
   \                     ??HT1621_Updata_Data_One_3: (+1)
   \   0000008E   0xFA5F 0xF888      UXTB     R8,R8            ;; ZeroExt  R8,R8,#+24,#+24
   \   00000092   0xF1B8 0x0F40      CMP      R8,#+64
   \   00000096   0xDA22             BGE.N    ??HT1621_Updata_Data_One_4
    143              {
    144                by_Out = pby_Buf[by_IC*64+by_Index];//
   \   00000098   0xFA5F 0xF989      UXTB     R9,R9            ;; ZeroExt  R9,R9,#+24,#+24
   \   0000009C   0x2040             MOVS     R0,#+64
   \   0000009E   0xFA5F 0xF888      UXTB     R8,R8            ;; ZeroExt  R8,R8,#+24,#+24
   \   000000A2   0xFB00 0x8009      MLA      R0,R0,R9,R8
   \   000000A6   0x5C20             LDRB     R0,[R4, R0]
   \   000000A8   0x0005             MOVS     R5,R0
    145                 for(by_Loop = 0;by_Loop < 8; by_Loop++)
   \   000000AA   0x2000             MOVS     R0,#+0
   \   000000AC   0x0006             MOVS     R6,R0
   \                     ??HT1621_Updata_Data_One_5: (+1)
   \   000000AE   0xB2F6             UXTB     R6,R6            ;; ZeroExt  R6,R6,#+24,#+24
   \   000000B0   0x2E08             CMP      R6,#+8
   \   000000B2   0xDA11             BGE.N    ??HT1621_Updata_Data_One_6
    146                 {
    147                    if (by_Out & BIT7)
   \   000000B4   0x0628             LSLS     R0,R5,#+24
   \   000000B6   0xD503             BPL.N    ??HT1621_Updata_Data_One_7
    148                    {
    149                        HW_HT162x_Set_High_Data(1);
   \   000000B8   0x2001             MOVS     R0,#+1
   \   000000BA   0x.... 0x....      BL       HW_HT162x_Set_High_Data
   \   000000BE   0xE002             B.N      ??HT1621_Updata_Data_One_8
    150                    }
    151                    else
    152                    {
    153                        HW_HT162x_Set_High_Data(0);
   \                     ??HT1621_Updata_Data_One_7: (+1)
   \   000000C0   0x2000             MOVS     R0,#+0
   \   000000C2   0x.... 0x....      BL       HW_HT162x_Set_High_Data
    154                    }
    155                    HW_HT162x_Set_High_WR(0);
   \                     ??HT1621_Updata_Data_One_8: (+1)
   \   000000C6   0x2000             MOVS     R0,#+0
   \   000000C8   0x.... 0x....      BL       HW_HT162x_Set_High_WR
    156                    HW_HT162x_Set_High_WR(1);
   \   000000CC   0x2001             MOVS     R0,#+1
   \   000000CE   0x.... 0x....      BL       HW_HT162x_Set_High_WR
    157                    by_Out = by_Out << 1;
   \   000000D2   0x006D             LSLS     R5,R5,#+1
    158                 }
   \   000000D4   0x1C76             ADDS     R6,R6,#+1
   \   000000D6   0xE7EA             B.N      ??HT1621_Updata_Data_One_5
    159              }
   \                     ??HT1621_Updata_Data_One_6: (+1)
   \   000000D8   0xF118 0x0801      ADDS     R8,R8,#+1
   \   000000DC   0xE7D7             B.N      ??HT1621_Updata_Data_One_3
    160              HW_HT162x_Set_High_CS(by_IC,1);
   \                     ??HT1621_Updata_Data_One_4: (+1)
   \   000000DE   0x2101             MOVS     R1,#+1
   \   000000E0   0xFA5F 0xF989      UXTB     R9,R9            ;; ZeroExt  R9,R9,#+24,#+24
   \   000000E4   0x4648             MOV      R0,R9
   \   000000E6   0x.... 0x....      BL       HW_HT162x_Set_High_CS
    161          }
   \   000000EA   0xE8BD 0x83F1      POP      {R0,R4-R9,PC}    ;; return
    162          
    163          /*------------------------------------------
    164          Function Contents: 1621糶ㄧ计(ず场ㄧ计)
    165          --------------------------------------------
    166          Use Regional : HT1621.c
    167          --------------------------------------------
    168          Input:  Name        Type     Min   Max
    169            1  by_Dat         char     0     255
    170            2  by_IC          char      0     2
    171          --------------------------------------------
    172          Output:  N/A
    173          --------------------------------------------*/

   \                                 In section .text, align 2, keep-with-next
    174          void HT1621_Write_Command(char by_IC ,char by_Dat)
    175          {
   \                     HT1621_Write_Command: (+1)
   \   00000000   0xB5F8             PUSH     {R3-R7,LR}
   \   00000002   0x0004             MOVS     R4,R0
   \   00000004   0x000D             MOVS     R5,R1
    176              char by_Loop;
    177              char by_Out;
    178          
    179              HW_HT162x_Set_High_CS(by_IC,0);
                     ^
Warning[Pe223]: function "HW_HT162x_Set_High_CS" declared implicitly
   \   00000006   0x2100             MOVS     R1,#+0
   \   00000008   0xB2E4             UXTB     R4,R4            ;; ZeroExt  R4,R4,#+24,#+24
   \   0000000A   0x0020             MOVS     R0,R4
   \   0000000C   0x.... 0x....      BL       HW_HT162x_Set_High_CS
    180          
    181              HW_HT162x_Set_High_Data(1);  // 1
                     ^
Warning[Pe223]: function "HW_HT162x_Set_High_Data" declared implicitly
   \   00000010   0x2001             MOVS     R0,#+1
   \   00000012   0x.... 0x....      BL       HW_HT162x_Set_High_Data
    182              HW_HT162x_Set_High_WR(0);
                     ^
Warning[Pe223]: function "HW_HT162x_Set_High_WR" declared implicitly
   \   00000016   0x2000             MOVS     R0,#+0
   \   00000018   0x.... 0x....      BL       HW_HT162x_Set_High_WR
    183              HW_HT162x_Set_High_WR(1);
   \   0000001C   0x2001             MOVS     R0,#+1
   \   0000001E   0x.... 0x....      BL       HW_HT162x_Set_High_WR
    184          
    185              HW_HT162x_Set_High_Data(0); // 0
   \   00000022   0x2000             MOVS     R0,#+0
   \   00000024   0x.... 0x....      BL       HW_HT162x_Set_High_Data
    186              HW_HT162x_Set_High_WR(0);
   \   00000028   0x2000             MOVS     R0,#+0
   \   0000002A   0x.... 0x....      BL       HW_HT162x_Set_High_WR
    187              HW_HT162x_Set_High_WR(1);
   \   0000002E   0x2001             MOVS     R0,#+1
   \   00000030   0x.... 0x....      BL       HW_HT162x_Set_High_WR
    188          
    189              HW_HT162x_Set_High_Data(0); //0
   \   00000034   0x2000             MOVS     R0,#+0
   \   00000036   0x.... 0x....      BL       HW_HT162x_Set_High_Data
    190              HW_HT162x_Set_High_WR(0);
   \   0000003A   0x2000             MOVS     R0,#+0
   \   0000003C   0x.... 0x....      BL       HW_HT162x_Set_High_WR
    191              HW_HT162x_Set_High_WR(1);
   \   00000040   0x2001             MOVS     R0,#+1
   \   00000042   0x.... 0x....      BL       HW_HT162x_Set_High_WR
    192          
    193              by_Out = by_Dat;
   \   00000046   0x002F             MOVS     R7,R5
    194              for(by_Loop=0; by_Loop<8; by_Loop++)
   \   00000048   0x2000             MOVS     R0,#+0
   \   0000004A   0x0006             MOVS     R6,R0
   \                     ??HT1621_Write_Command_0: (+1)
   \   0000004C   0xB2F6             UXTB     R6,R6            ;; ZeroExt  R6,R6,#+24,#+24
   \   0000004E   0x2E08             CMP      R6,#+8
   \   00000050   0xDA11             BGE.N    ??HT1621_Write_Command_1
    195              {
    196                  if(by_Out & BIT7)
   \   00000052   0x0638             LSLS     R0,R7,#+24
   \   00000054   0xD503             BPL.N    ??HT1621_Write_Command_2
    197                  {
    198                      HW_HT162x_Set_High_Data(1);
   \   00000056   0x2001             MOVS     R0,#+1
   \   00000058   0x.... 0x....      BL       HW_HT162x_Set_High_Data
   \   0000005C   0xE002             B.N      ??HT1621_Write_Command_3
    199                  }
    200                  else
    201                  {
    202                      HW_HT162x_Set_High_Data(0);
   \                     ??HT1621_Write_Command_2: (+1)
   \   0000005E   0x2000             MOVS     R0,#+0
   \   00000060   0x.... 0x....      BL       HW_HT162x_Set_High_Data
    203                  }
    204                  HW_HT162x_Set_High_WR(0);
   \                     ??HT1621_Write_Command_3: (+1)
   \   00000064   0x2000             MOVS     R0,#+0
   \   00000066   0x.... 0x....      BL       HW_HT162x_Set_High_WR
    205                  HW_HT162x_Set_High_WR(1);
   \   0000006A   0x2001             MOVS     R0,#+1
   \   0000006C   0x.... 0x....      BL       HW_HT162x_Set_High_WR
    206                  by_Out = by_Out << 1;
   \   00000070   0x007F             LSLS     R7,R7,#+1
    207              }
   \   00000072   0x1C76             ADDS     R6,R6,#+1
   \   00000074   0xE7EA             B.N      ??HT1621_Write_Command_0
    208              HW_HT162x_Set_High_Data(0);
   \                     ??HT1621_Write_Command_1: (+1)
   \   00000076   0x2000             MOVS     R0,#+0
   \   00000078   0x.... 0x....      BL       HW_HT162x_Set_High_Data
    209              HW_HT162x_Set_High_WR(0);
   \   0000007C   0x2000             MOVS     R0,#+0
   \   0000007E   0x.... 0x....      BL       HW_HT162x_Set_High_WR
    210              HW_HT162x_Set_High_WR(1);
   \   00000082   0x2001             MOVS     R0,#+1
   \   00000084   0x.... 0x....      BL       HW_HT162x_Set_High_WR
    211          
    212              HW_HT162x_Set_High_CS(by_IC,1);
   \   00000088   0x2101             MOVS     R1,#+1
   \   0000008A   0xB2E4             UXTB     R4,R4            ;; ZeroExt  R4,R4,#+24,#+24
   \   0000008C   0x0020             MOVS     R0,R4
   \   0000008E   0x.... 0x....      BL       HW_HT162x_Set_High_CS
    213          }
   \   00000092   0xBDF1             POP      {R0,R4-R7,PC}    ;; return
    214          
    215          
    216          

   Maximum stack usage in bytes:

   .cstack Function
   ------- --------
       8   HT1621_Initial_Command
         8   -> HT1621_Write_Command
       8   HT1621_Initial_Command_First
         8   -> HT1621_Write_Command
      24   HT1621_Updata_Data
        24   -> HT1621_Updata_Data_One
      32   HT1621_Updata_Data_One
        32   -> HT1621_Initial_Command
        32   -> HW_HT162x_Set_High_CS
        32   -> HW_HT162x_Set_High_Data
        32   -> HW_HT162x_Set_High_WR
      24   HT1621_Write_Command
        24   -> HW_HT162x_Set_High_CS
        24   -> HW_HT162x_Set_High_Data
        24   -> HW_HT162x_Set_High_WR


   Section sizes:

   Bytes  Function/Label
   -----  --------------
      46  HT1621_Initial_Command
      56  HT1621_Initial_Command_First
      46  HT1621_Updata_Data
     238  HT1621_Updata_Data_One
     148  HT1621_Write_Command

 
 534 bytes in section .text
 
 534 bytes of CODE memory

Errors: none
Warnings: 18
