###############################################################################
#
# IAR ANSI C/C++ Compiler V7.80.4.12462/W32 for ARM       12/Dec/2022  11:41:22
# Copyright 1999-2017 IAR Systems AB.
#
#    Cpu mode     =  thumb
#    Endian       =  little
#    Source file  =  
#        C:\Users\shaomingkun\Desktop\git\evolve5.0\2021sw\ECOM-5\Modules\LCB_Lib\LCB.c
#    Command line =  
#        C:\Users\shaomingkun\Desktop\git\evolve5.0\2021sw\ECOM-5\Modules\LCB_Lib\LCB.c
#        -D EFM32LG380F256 -D BSP_CORTEX_EFM32 -D DEBUG_EFM_JJ -D
#        RF_MODULE_EXIST____ -lC
#        C:\Users\shaomingkun\Desktop\git\evolve5.0\2021sw\ECOM-5\Debug\List
#        -lA
#        C:\Users\shaomingkun\Desktop\git\evolve5.0\2021sw\ECOM-5\Debug\List -o
#        C:\Users\shaomingkun\Desktop\git\evolve5.0\2021sw\ECOM-5\Debug\Obj
#        --no_cse --no_unroll --no_inline --no_code_motion --no_tbaa
#        --no_clustering --no_scheduling --debug --endian=little
#        --cpu=Cortex-M3 -e --fpu=None --dlib_config "C:\Program Files
#        (x86)\IAR Systems\Embedded Workbench
#        7.5\arm\INC\c\DLib_Config_Normal.h" -I
#        C:\Users\shaomingkun\Desktop\git\evolve5.0\2021sw\ECOM-5\ -I
#        C:\Users\shaomingkun\Desktop\git\evolve5.0\2021sw\ECOM-5\Local\ -I
#        C:\Users\shaomingkun\Desktop\git\evolve5.0\2021sw\ECOM-5\Modules\ -I
#        C:\Users\shaomingkun\Desktop\git\evolve5.0\2021sw\ECOM-5\Modules\Utilities_Lib\
#        -I
#        C:\Users\shaomingkun\Desktop\git\evolve5.0\2021sw\ECOM-5\Modules\HAL_Lib\
#        -I
#        C:\Users\shaomingkun\Desktop\git\evolve5.0\2021sw\ECOM-5\Modules\LCB_Lib\
#        -I
#        C:\Users\shaomingkun\Desktop\git\evolve5.0\2021sw\ECOM-5\Modules\Eng_lib\
#        -I
#        C:\Users\shaomingkun\Desktop\git\evolve5.0\2021sw\ECOM-5\..\Modules\Eng_lib\
#        -I
#        C:\Users\shaomingkun\Desktop\git\evolve5.0\2021sw\ECOM-5\Modules\SystemConfig_Lib\
#        -I
#        C:\Users\shaomingkun\Desktop\git\evolve5.0\2021sw\ECOM-5\Modules\EFM32_lib\
#        -I
#        C:\Users\shaomingkun\Desktop\git\evolve5.0\2021sw\ECOM-5\Modules\EFM32_lib\drivers\
#        -I
#        C:\Users\shaomingkun\Desktop\git\evolve5.0\2021sw\ECOM-5\Modules\Program_lib\
#        -I
#        C:\Users\shaomingkun\Desktop\git\evolve5.0\2021sw\ECOM-5\Modules\RF_lib\
#        -I
#        C:\Users\shaomingkun\Desktop\git\evolve5.0\2021sw\ECOM-5\Modules\USB_lib\
#        -I
#        C:\Users\shaomingkun\Desktop\git\evolve5.0\2021sw\ECOM-5\Modules\USB_lib\usb\src\
#        -I
#        C:\Users\shaomingkun\Desktop\git\evolve5.0\2021sw\ECOM-5\Modules\USB_lib\usb\inc\
#        -I
#        C:\Users\shaomingkun\Desktop\git\evolve5.0\2021sw\ECOM-5\Modules\Bluetooth_lib\
#        -I
#        C:\Users\shaomingkun\Desktop\git\evolve5.0\2021sw\ECOM-5\Modules\Remote_lib\
#        -I
#        C:\Users\shaomingkun\Desktop\git\evolve5.0\2021sw\ECOM-5\Modules\EFM32_lib\Include\
#        -I
#        C:\Users\shaomingkun\Desktop\git\evolve5.0\2021sw\ECOM-5\Modules\EFM32_lib\emlib\inc\
#        -I
#        C:\Users\shaomingkun\Desktop\git\evolve5.0\2021sw\ECOM-5\Modules\EFM32_lib\emlib\src\
#        -I
#        C:\Users\shaomingkun\Desktop\git\evolve5.0\2021sw\ECOM-5\Modules\EFM32_lib\drivers\fatfs\src\
#        -I
#        C:\Users\shaomingkun\Desktop\git\evolve5.0\2021sw\ECOM-5\Modules\EFM32_lib\Device\EnergyMicro\EFM32LG\Include\
#        -I
#        C:\Users\shaomingkun\Desktop\git\evolve5.0\2021sw\ECOM-5\Modules\EFM32_lib\Device\EnergyMicro\EFM32LG\Source\
#        -I
#        C:\Users\shaomingkun\Desktop\git\evolve5.0\2021sw\ECOM-5\Modules\EFM32_lib\Device\EnergyMicro\EFM32LG\Source\IAR\
#        -I
#        C:\Users\shaomingkun\Desktop\git\evolve5.0\2021sw\ECOM-5\Modules\RTT_Lib\
#        -On
#    Locale       =  Chinese (Simplified)_China.936
#    List file    =  
#        C:\Users\shaomingkun\Desktop\git\evolve5.0\2021sw\ECOM-5\Debug\List\LCB.lst
#    Object file  =  
#        C:\Users\shaomingkun\Desktop\git\evolve5.0\2021sw\ECOM-5\Debug\Obj\LCB.o
#
###############################################################################

C:\Users\shaomingkun\Desktop\git\evolve5.0\2021sw\ECOM-5\Modules\LCB_Lib\LCB.c
      1          #include "LCB.h"

  EFM32_PACK_START( 1 )
                    ^
"C:\Users\shaomingkun\Desktop\git\evolve5.0\2021sw\ECOM-5\Modules\USB_lib\usb\inc\em_usb.h",318  Warning[Pe1665]: 
          concatenation with "1)" in macro "EFM32_PACK_START" does not create a
          valid token

  EFM32_PACK_START( 1 )
  ^
"C:\Users\shaomingkun\Desktop\git\evolve5.0\2021sw\ECOM-5\Modules\USB_lib\usb\inc\em_usb.h",318  Warning[Pe1665]: 
          concatenation with ")" in macro "EFM32_PACK_START" does not create a
          valid token

  EFM32_PACK_START( 1 )
                    ^
"C:\Users\shaomingkun\Desktop\git\evolve5.0\2021sw\ECOM-5\Modules\USB_lib\usb\inc\em_usb.h",347  Warning[Pe1665]: 
          concatenation with "1)" in macro "EFM32_PACK_START" does not create a
          valid token

  EFM32_PACK_START( 1 )
  ^
"C:\Users\shaomingkun\Desktop\git\evolve5.0\2021sw\ECOM-5\Modules\USB_lib\usb\inc\em_usb.h",347  Warning[Pe1665]: 
          concatenation with ")" in macro "EFM32_PACK_START" does not create a
          valid token

  EFM32_PACK_START( 1 )
                    ^
"C:\Users\shaomingkun\Desktop\git\evolve5.0\2021sw\ECOM-5\Modules\USB_lib\usb\inc\em_usb.h",371  Warning[Pe1665]: 
          concatenation with "1)" in macro "EFM32_PACK_START" does not create a
          valid token

  EFM32_PACK_START( 1 )
  ^
"C:\Users\shaomingkun\Desktop\git\evolve5.0\2021sw\ECOM-5\Modules\USB_lib\usb\inc\em_usb.h",371  Warning[Pe1665]: 
          concatenation with ")" in macro "EFM32_PACK_START" does not create a
          valid token

  EFM32_PACK_START( 1 )
                    ^
"C:\Users\shaomingkun\Desktop\git\evolve5.0\2021sw\ECOM-5\Modules\USB_lib\usb\inc\em_usb.h",400  Warning[Pe1665]: 
          concatenation with "1)" in macro "EFM32_PACK_START" does not create a
          valid token

  EFM32_PACK_START( 1 )
  ^
"C:\Users\shaomingkun\Desktop\git\evolve5.0\2021sw\ECOM-5\Modules\USB_lib\usb\inc\em_usb.h",400  Warning[Pe1665]: 
          concatenation with ")" in macro "EFM32_PACK_START" does not create a
          valid token

  EFM32_PACK_START( 1 )
                    ^
"C:\Users\shaomingkun\Desktop\git\evolve5.0\2021sw\ECOM-5\Modules\USB_lib\usb\inc\em_usb.h",441  Warning[Pe1665]: 
          concatenation with "1)" in macro "EFM32_PACK_START" does not create a
          valid token

  EFM32_PACK_START( 1 )
  ^
"C:\Users\shaomingkun\Desktop\git\evolve5.0\2021sw\ECOM-5\Modules\USB_lib\usb\inc\em_usb.h",441  Warning[Pe1665]: 
          concatenation with ")" in macro "EFM32_PACK_START" does not create a
          valid token

  EFM32_PACK_START( 1 )
                    ^
"C:\Users\shaomingkun\Desktop\git\evolve5.0\2021sw\ECOM-5\Modules\USB_lib\usb\inc\em_usb.h",455  Warning[Pe1665]: 
          concatenation with "1)" in macro "EFM32_PACK_START" does not create a
          valid token

  EFM32_PACK_START( 1 )
  ^
"C:\Users\shaomingkun\Desktop\git\evolve5.0\2021sw\ECOM-5\Modules\USB_lib\usb\inc\em_usb.h",455  Warning[Pe1665]: 
          concatenation with ")" in macro "EFM32_PACK_START" does not create a
          valid token
      2          #include "HAL_Lib.h"
      3          #include "SystemConfig.h"
      4          #include "Incline_Count.h"
      5          #include "Speed.h"
      6          #include "RPM.h"
      7          typedef enum
      8          {
      9              LCB_INIT_LCB  = 1,   
     10              LCB_ERP,
     11              LCB_IDLE,
     12              LCB_ERROR,
     13              LCB_STATE_COUNT,
     14          }LCB_STATE;
     15          
     16          typedef enum{ErrGet = 0, ErrHdle, ErrSkip, ErrWaitSkipACK, ErrIDLE}  ERR_STEP;
     17          
     18          
     19          typedef struct
     20          {
     21              UCHAR       Cmd;          //对应的Cmd
     22              UCHAR       RxOffset;     //
     23              UCHAR       RxLen;
     24          }RX_DATA_OFFSET;
     25          
     26          
     27          typedef struct
     28          {
     29              UCHAR Cmd;
     30              UCHAR TxLen;
     31              UCHAR RxLen;
     32          }CMD_PROPERTY;
     33          
     34          
     35          typedef struct
     36          {
     37              COM_TYPE    CmdType;
     38              UINT32      Data;
     39          }CMD_BUFF;
     40          
     41          
     42          typedef struct
     43          {
     44              COM_TYPE    CmdType;   //对应的Cmd种类
     45              UCHAR       RxLen;
     46          }RX_DATA_PROPERTY;
     47          
     48          
     49          //typedef enum{DctErr = 0, ErrGet, ErrHdle, ErrSkip}  ERR_STEP;
     50          

   \                                 In section .rodata, align 4
     51          static const CMD_PROPERTY Cmd_Talbe[CMD_LEN] = 
   \                     Cmd_Talbe:
   \   00000000   0x70 0x00          DC8 112, 0, 0, 113, 0, 0, 114, 0, 2, 115, 0, 2, 116, 0, 0, 117, 2, 1
   \              0x00 0x71    
   \              0x00 0x00    
   \              0x72 0x00    
   \              0x02 0x73    
   \              0x00 0x02    
   \              0x74 0x00    
   \              0x00 0x75    
   \              0x02 0x01    
   \   00000012   0x76 0x00          DC8 118, 0, 0, 119, 1, 1, 240, 2, 2, 241, 2, 0, 242, 2, 0, 243, 2, 0
   \              0x00 0x77    
   \              0x01 0x01    
   \              0xF0 0x02    
   \              0x02 0xF1    
   \              0x02 0x00    
   \              0xF2 0x02    
   \              0x00 0xF3    
   \              0x02 0x00    
   \   00000024   0xF4 0x02          DC8 244, 2, 0, 245, 1, 0, 246, 2, 0, 247, 1, 0, 248, 0, 2, 249, 0, 2
   \              0x00 0xF5    
   \              0x01 0x00    
   \              0xF6 0x02    
   \              0x00 0xF7    
   \              0x01 0x00    
   \              0xF8 0x00    
   \              0x02 0xF9    
   \              0x00 0x02    
   \   00000036   0xFA 0x00          DC8 250, 0, 2, 145, 0, 1, 144, 2, 0, 97, 0, 0, 98, 2, 0, 99, 0, 2, 130
   \              0x02 0x91    
   \              0x00 0x01    
   \              0x90 0x02    
   \              0x00 0x61    
   \              0x00 0x00    
   \              0x62 0x02    
   \              0x00 0x63    
   \              0x00 0x02    
   \              0x82         
   \   00000049   0x01 0x00          DC8 1, 0, 131, 0, 1, 132, 0, 2, 149, 0, 1, 101, 2, 2, 136, 2, 2, 137, 2
   \              0x83 0x00    
   \              0x01 0x84    
   \              0x00 0x02    
   \              0x95 0x00    
   \              0x01 0x65    
   \              0x02 0x02    
   \              0x88 0x02    
   \              0x02 0x89    
   \              0x02         
   \   0000005C   0x02 0x8A          DC8 2, 138, 2, 2, 139, 2, 2, 140, 2, 2, 141, 0, 2, 142, 0, 2, 143, 0, 2
   \              0x02 0x02    
   \              0x8B 0x02    
   \              0x02 0x8C    
   \              0x02 0x02    
   \              0x8D 0x00    
   \              0x02 0x8E    
   \              0x00 0x02    
   \              0x8F 0x00    
   \              0x02         
   \   0000006F   0x90 0x00          DC8 144, 0, 2, 145, 0, 2, 122, 1, 1, 80, 1, 6, 80, 4, 2, 80, 2, 3
   \              0x02 0x91    
   \              0x00 0x02    
   \              0x7A 0x01    
   \              0x01 0x50    
   \              0x01 0x06    
   \              0x50 0x04    
   \              0x02 0x50    
   \              0x02 0x03    
   \   00000081   0x00 0x00          DC8 0, 0, 0
   \              0x00         
     52          {   //cmd,  T,  R,  Index
     53              //Common Command
     54              {0x70,  0,  0 },//cmd initial
     55              {0x71,  0,  0 },//get status
     56              {0x72,  0,  2 },//get err code
     57              {0x73,  0,  2 },//get version
     58              {0x74,  0,  0 },//calibrate
     59              {0x75,  2,  1 },//update program
     60              {0x76,  0,  0 },//skio err
     61              {0x77,  1,  1 },//ext cmd
     62              //TM Command
     63              {0xf0,  2,  2 },//set Rpm max
     64              {0xf1,  2,  0 },//set Motor Rpm
     65              {0xf2,  2,  0 },//set add step 
     66              {0xf3,  2,  0 },//set dec step
     67              {0xf4,  2,  0 },//set stop step
     68              {0xf5,  1,  0 },//set inc action
     69              {0xf6,  2,  0 },//set inc location
     70              {0xf7,  1,  0 },//set work status
     71              {0xf8,  0,  2 },//get roller rpm
     72              {0xf9,  0,  2 },//get motor rpm
     73              {0xfa,  0,  2 },//get inc location
     74              {0x91,  0,  1 },//get Driver type
     75              {0x90,  2,  0 },//set motor hp
     76              //EP/BI Command   
     77              {0x61,  0,  0 },//set ECB Zero
     78              {0x62,  2,  0 },//set ECB Location
     79              {0x63,  0,  2 },//get EPBI Rpm
     80              {0x82,  1,  0 },//set ECB Action
     81              {0x83,  0,  1 },//get ECB status
     82              {0x84,  0,  2 },//get ECB count
     83              {0x95,  0,  1 },//get tm in used status
     84              {0x65,  2,  2 },//set inductor brake PWM
     85              {0x88,  2,  2 },//Save Calibration Point 1 PWM
     86              {0x89,  2,  2 },//Save Calibration Point 2 PWM
     87              {0x8A,  2,  2 },//Save Calibration Point 3 PWM  
     88              {0x8B,  2,  2 },//Save Calibration Point 4 PWM
     89              {0x8C,  2,  2 },//Save Calibration Point 5 PWM
     90              {0x8D,  0,  2 },//Get Calibration Point 1 PWM       
     91              {0x8E,  0,  2 },//Get Calibration Point 2 PWM
     92              {0x8F,  0,  2 },//Get Calibration Point 3 PWM
     93              {0x90,  0,  2 },//Get Calibration Point 4 PWM  
     94              {0x91,  0,  2 },//Get Calibration Point 5 PWM 
     95              {0x7A,  1,  1 },//CmdEUPsMode
     96              {0x50,  1,  6 },//Get Version New
     97              {0x50,  4,  2 },//Save PWM
     98              {0x50,  2,  3 },//Read PWM
     99          };
    100          
    101          
    102          static const RX_DATA_PROPERTY RxDataOffset[RX_DATA_LEN] =
    103          {
    104              { DG_ERRCODE,           0 },     //ERROR CODE
    105              { DG_VERSION,           0 },     //VERSION
    106              { DS_UPDATE,            0 },     //UPDATE
    107              { DS_EXTCMD,            0 },     //EXT_CMD
    108              { DS_RPM_RTN,           0 },     //RPM_RTN
    109              { DG_ROLLER_RPM,        0 },     //ROLLER RPM
    110              { DG_MOT_RPM,           0 },     //MOTOR RPM
    111              { DG_INC_LOCATION,      0 },     //INC LOCATION
    112              { DG_DRVE_TYPE,         0 },     //DRIVER_TYPE
    113              { DG_EPBI_RPM,          0 },     //GET EPBI RPM
    114              { DG_ECB_STATUS,        0 },     //GET ECB STATUS
    115              { DG_ECB_COUNT,         0 },     //GET ECB COUNT
    116              { DG_GET_TM_IN_USED,    0 },     //GET TM IN USED STATUS
    117              { DG_INDUCTION_CALP1,   0 },     //GET CALIBRATION POINT 1 PWM
    118              { DG_INDUCTION_CALP2,   0 },     //GET CALIBRATION POINT 2 PWM
    119              { DG_INDUCTION_CALP3,   0 },     //GET CALIBRATION POINT 3 PWM   
    120              { DG_INDUCTION_CALP4,   0 },     //GET CALIBRATION POINT 4 PWM     
    121              { DG_INDUCTION_CALP5,   0 },     //GET CALIBRATION POINT 5 PWM 
    122              { DS_EUP,               0 },     //ERP SLEEP AND WAKEUP
    123              { DS_SAVE_PWM,          0 },     //SAVE PWM
    124              { DS_READ_PWM,          0 },     //READ PWM
    125              
    126              { DG_NEW_VERSION,       0 },     //READ NEW MCB VERSION
    127              { CMD_NONE,             0 },     //READ NEW MCB TYPE ACCORD COMMAND G_NEW_VERSION - 到 G_NEW_VERSION 数组中提取
    128              { CMD_NONE,             1 },     //STATUS1
    129          };
    130          
    131          #define BIT0                (0x00000001)
    132          #define BIT1                (0x00000002)
    133          #define BIT2                (0x00000004)
    134          #define BIT3                (0x00000008)
    135          #define BIT4                (0x00000010)
    136          #define BIT5                (0x00000020)
    137          #define BIT6                (0x00000040)
    138          #define BIT7                (0x00000080)
    139          #define BIT8                (0x00000100)
    140          #define BIT9                (0x00000200)
    141          #define BITA                (0x00000400)
    142          #define BITB                (0x00000800)
    143          #define BITC                (0x00001000)
    144          #define BITD                (0x00002000)
    145          #define BITE                (0x00004000)
    146          #define BITF                (0x00008000)
    147          
    148          #define OVERSPEED_D_VALUE	340 //1190
    149          #define OVERSPEED_CONFIRMTIMES	5
    150          
    151          #define LCB_ERP_LEAVE       0x00
    152          #define LCB_ERP_ENTER       0xFF
    153          #define LCB_ERP_ACK_OK      0x01
    154          #define LCB_ERP_ACK_FAIL    0x00
    155          #define LCB_ERP_ACK_WAIT    0xA1
    156          #define LCB_SPEED_TIMER     800
    157          #define LCB_OVERSPEED_TIMER     200//800
    158          #define LCB_RPM_MAX         5000
    159          #define LCB_RPM_ADD_STEP    54
    160          #define LCB_RPM_DEC_STEP    65
    161          
    162          #define MCB_ADDRS           0xFF
    163          #define NO_PAR              0
    164          #define C_TX_BUFF_SIZE      20          //命令缓存个数
    165          #define C_LCB_STATE_SIZE    20          //状态缓存个数
    166          #define C_RX_LENGHT         20          //最大接收字节长度
    167          #define C_DATA_LEN          80          //接收数据保存buff大小
    168          #define C_KEEP_ONLINE       500         //ms
    169          #define C_KEEP_ONLINE_IDLE  300         //ms
    170          #define C_LOST_TIME         5000        //ms
    171          #define C_MCB_ERROR         BIT6
    172          #define C_MCB_INITIALING    BIT7
    173          #define LCB_NoSPEED_TIMER     2000
    174          #define LCB_NoSPEED_TIMER2     5000
    175          
    176          

   \                                 In section .noinit, align 4
    177          __no_init static UCHAR aby_Total[C_DATA_LEN];                                   //接收数据
   \                     aby_Total:
   \   00000000                      DS8 80

   \                                 In section .noinit, align 1
    178          __no_init static UCHAR by_Command_End;                                          //待发送命令buff 最后一个位置
   \                     by_Command_End:
   \   00000000                      DS8 1

   \                                 In section .noinit, align 4
    179          __no_init static RX_DATA_OFFSET Offset_Adress[RX_DATA_LEN];
   \                     Offset_Adress:
   \   00000000                      DS8 72

   \                                 In section .noinit, align 4
    180          __no_init static CMD_BUFF Cmd_Buffer[C_TX_BUFF_SIZE];                           //待发送命令buff
   \                     Cmd_Buffer:
   \   00000000                      DS8 160

   \                                 In section .noinit, align 2
    181          __no_init static UINT16 w_ErrorCode;
   \                     w_ErrorCode:
   \   00000000                      DS8 2

   \                                 In section .noinit, align 1
    182          __no_init static UCHAR by_State_Point;
   \                     by_State_Point:
   \   00000000                      DS8 1

   \                                 In section .noinit, align 1
    183          __no_init static UCHAR by_State_End;
   \                     by_State_End:
   \   00000000                      DS8 1

   \                                 In section .noinit, align 4
    184          __no_init static LCB_STATE LcbStateBuff[C_LCB_STATE_SIZE];
   \                     LcbStateBuff:
   \   00000000                      DS8 20

   \                                 In section .noinit, align 1
    185          __no_init static UCHAR  by_DriverType;
   \                     by_DriverType:
   \   00000000                      DS8 1

   \                                 In section .noinit, align 1
    186          __no_init static UCHAR  by_MCBType;
   \                     by_MCBType:
   \   00000000                      DS8 1

   \                                 In section .noinit, align 2
    187          __no_init static UINT16 w_MCBVersion;
   \                     w_MCBVersion:
   \   00000000                      DS8 2

   \                                 In section .noinit, align 4
    188          __no_init static LCB_SPEED_REF SpeedRef;
   \                     SpeedRef:
   \   00000000                      DS8 4

   \                                 In section .noinit, align 2
    189          __no_init static UINT16 w_CurrentSpeed;
   \                     w_CurrentSpeed:
   \   00000000                      DS8 2

   \                                 In section .noinit, align 2
    190          __no_init static UINT16 w_TargetSpeed;
   \                     w_TargetSpeed:
   \   00000000                      DS8 2

   \                                 In section .noinit, align 4
    191          __no_init static UINT16 w_InductData[5];
   \                     w_InductData:
   \   00000000                      DS8 12
    192          

   \                                 In section .noinit, align 2
    193          __no_init static UINT16 w_OverSpeedCheckTimer;
   \                     w_OverSpeedCheckTimer:
   \   00000000                      DS8 2

   \                                 In section .noinit, align 2
    194          __no_init static UINT16 w_UnderSpeedCheckTimer;
   \                     w_UnderSpeedCheckTimer:
   \   00000000                      DS8 2

   \                                 In section .noinit, align 2
    195          __no_init  UINT16 NoRpmTimer;
   \                     NoRpmTimer:
   \   00000000                      DS8 2

   \                                 In section .noinit, align 2
    196          __no_init  UINT16 NoRpmTimer2;
   \                     NoRpmTimer2:
   \   00000000                      DS8 2
    197          
    198          

   \                                 In section .bss, align 2
    199          UINT16 test= 0;
   \                     test:
   \   00000000                      DS8 2
    200          
    201          
    202          void LCB_CmdPack(COM_TYPE CmdType, UINT32 w_Data);
    203          void LCB_CmdProcess(void);
    204          void LCB_Next_State(void);
    205          void LCB_Speed_Update(void);
    206          void LCB_Add_State(LCB_STATE State);;
    207          
    208          

   \                                 In section .text, align 2, keep-with-next
    209          void LCB_Initial(void)
    210          {
   \                     LCB_Initial: (+1)
   \   00000000   0xB580             PUSH     {R7,LR}
    211            Speed_Set_PWM_MAX(SystemConfig_Get_Int(PWM_MAX_UINT16));
   \   00000002   0x203C             MOVS     R0,#+60
   \   00000004   0x.... 0x....      BL       SystemConfig_Get_Int
   \   00000008   0xB280             UXTH     R0,R0            ;; ZeroExt  R0,R0,#+16,#+16
   \   0000000A   0x.... 0x....      BL       Speed_Set_PWM_MAX
    212            Speed_Set_PWM_SP2(SystemConfig_Get_Int(PWM_SP2_UINT16));
   \   0000000E   0x203D             MOVS     R0,#+61
   \   00000010   0x.... 0x....      BL       SystemConfig_Get_Int
   \   00000014   0xB280             UXTH     R0,R0            ;; ZeroExt  R0,R0,#+16,#+16
   \   00000016   0x.... 0x....      BL       Speed_Set_PWM_SP2
    213            Speed_Set_PWM_MID(SystemConfig_Get_Int(PWM_MID_UINT16));
   \   0000001A   0x203E             MOVS     R0,#+62
   \   0000001C   0x.... 0x....      BL       SystemConfig_Get_Int
   \   00000020   0xB280             UXTH     R0,R0            ;; ZeroExt  R0,R0,#+16,#+16
   \   00000022   0x.... 0x....      BL       Speed_Set_PWM_MID
    214            Speed_Set_PWM_SP1(SystemConfig_Get_Int(PWM_SP1_UINT16));
   \   00000026   0x203F             MOVS     R0,#+63
   \   00000028   0x.... 0x....      BL       SystemConfig_Get_Int
   \   0000002C   0xB280             UXTH     R0,R0            ;; ZeroExt  R0,R0,#+16,#+16
   \   0000002E   0x.... 0x....      BL       Speed_Set_PWM_SP1
    215            Speed_Set_PWM_MIN(SystemConfig_Get_Int(PWM_MIN_UINT16));
   \   00000032   0x2040             MOVS     R0,#+64
   \   00000034   0x.... 0x....      BL       SystemConfig_Get_Int
   \   00000038   0xB280             UXTH     R0,R0            ;; ZeroExt  R0,R0,#+16,#+16
   \   0000003A   0x.... 0x....      BL       Speed_Set_PWM_MIN
    216            
    217            RPM_Set_Scorll(1350);//1500 1350
   \   0000003E   0xF240 0x5046      MOVW     R0,#+1350
   \   00000042   0x.... 0x....      BL       RPM_Set_Scorll
    218            RPM_Calculate_Pulse_Limit(250,5);
   \   00000046   0x2105             MOVS     R1,#+5
   \   00000048   0x20FA             MOVS     R0,#+250
   \   0000004A   0x.... 0x....      BL       RPM_Calculate_Pulse_Limit
    219            Speed_Initial_Data(); 
   \   0000004E   0x.... 0x....      BL       Speed_Initial_Data
    220            
    221            w_OverSpeedCheckTimer = 0 ;
   \   00000052   0x2000             MOVS     R0,#+0
   \   00000054   0x.... 0x....      LDR.W    R1,??DataTable17
   \   00000058   0x8008             STRH     R0,[R1, #+0]
    222              w_UnderSpeedCheckTimer = 0;
   \   0000005A   0x2000             MOVS     R0,#+0
   \   0000005C   0x.... 0x....      LDR.W    R1,??DataTable17_1
   \   00000060   0x8008             STRH     R0,[R1, #+0]
    223            NoRpmTimer = 0;
   \   00000062   0x2000             MOVS     R0,#+0
   \   00000064   0x.... 0x....      LDR.W    R1,??DataTable17_2
   \   00000068   0x8008             STRH     R0,[R1, #+0]
    224            NoRpmTimer2 = 0;
   \   0000006A   0x2000             MOVS     R0,#+0
   \   0000006C   0x.... 0x....      LDR.W    R1,??DataTable17_3
   \   00000070   0x8008             STRH     R0,[R1, #+0]
    225            if(SystemConfig_Get_Char(UNIT_FLAG_UCHAR))
   \   00000072   0x2007             MOVS     R0,#+7
   \   00000074   0x.... 0x....      BL       SystemConfig_Get_Char
   \   00000078   0x2800             CMP      R0,#+0
   \   0000007A   0xD012             BEQ.N    ??LCB_Initial_0
    226            {  
    227            Speed_Set_MAX(160);
   \   0000007C   0x20A0             MOVS     R0,#+160
   \   0000007E   0x.... 0x....      BL       Speed_Set_MAX
    228            Speed_Set_SP2(120);//smk 143
   \   00000082   0x2078             MOVS     R0,#+120
   \   00000084   0x.... 0x....      BL       Speed_Set_SP2
    229            Speed_Set_MID(80);//104
   \   00000088   0x2050             MOVS     R0,#+80
   \   0000008A   0x.... 0x....      BL       Speed_Set_MID
    230            Speed_Set_SP1(40);//43
   \   0000008E   0x2028             MOVS     R0,#+40
   \   00000090   0x.... 0x....      BL       Speed_Set_SP1
    231            Speed_Set_MIN(8);
   \   00000094   0x2008             MOVS     R0,#+8
   \   00000096   0x.... 0x....      BL       Speed_Set_MIN
    232              Speed_Compute_PWM(16);
   \   0000009A   0x2010             MOVS     R0,#+16
   \   0000009C   0x.... 0x....      BL       Speed_Compute_PWM
   \   000000A0   0xE011             B.N      ??LCB_Initial_1
    233            }
    234            else
    235            {
    236              //else mile
    237              Speed_Set_MAX(100);
   \                     ??LCB_Initial_0: (+1)
   \   000000A2   0x2064             MOVS     R0,#+100
   \   000000A4   0x.... 0x....      BL       Speed_Set_MAX
    238              Speed_Set_SP2(75);//89
   \   000000A8   0x204B             MOVS     R0,#+75
   \   000000AA   0x.... 0x....      BL       Speed_Set_SP2
    239              Speed_Set_MID(50);//65
   \   000000AE   0x2032             MOVS     R0,#+50
   \   000000B0   0x.... 0x....      BL       Speed_Set_MID
    240              Speed_Set_SP1(25);//27
   \   000000B4   0x2019             MOVS     R0,#+25
   \   000000B6   0x.... 0x....      BL       Speed_Set_SP1
    241              Speed_Set_MIN(5);
   \   000000BA   0x2005             MOVS     R0,#+5
   \   000000BC   0x.... 0x....      BL       Speed_Set_MIN
    242          	   Speed_Compute_PWM(10);
   \   000000C0   0x200A             MOVS     R0,#+10
   \   000000C2   0x.... 0x....      BL       Speed_Compute_PWM
    243            }
    244          }
   \                     ??LCB_Initial_1: (+1)
   \   000000C6   0xBD01             POP      {R0,PC}          ;; return

   \                                 In section .bss, align 2
    245          __no_init UINT16 Show_Speed_Burst_Flag = 0;
                                  ^
Warning[Pa034]: an initialized variable can not have the __no_init attribute
   \                     Show_Speed_Burst_Flag:
   \   00000000                      DS8 2

   \                                 In section .bss, align 2
    246          __no_init UINT16 Show_Underspeed_Flag = 0;
                                  ^
Warning[Pa034]: an initialized variable can not have the __no_init attribute
   \                     Show_Underspeed_Flag:
   \   00000000                      DS8 2

   \                                 In section .bss, align 2
    247          __no_init UINT16 time_compute_flag = 0;
                                  ^
Warning[Pa034]: an initialized variable can not have the __no_init attribute
   \                     time_compute_flag:
   \   00000000                      DS8 2

   \                                 In section .bss, align 2
    248          __no_init UINT16 Show_NoSpeed_Error_Flag = 0;
                                  ^
Warning[Pa034]: an initialized variable can not have the __no_init attribute
   \                     Show_NoSpeed_Error_Flag:
   \   00000000                      DS8 2

   \                                 In section .bss, align 2
    249          __no_init static UINT16 tempRPMBak =  0;
                                         ^
Warning[Pa034]: an initialized variable can not have the __no_init attribute
   \                     tempRPMBak:
   \   00000000                      DS8 2

   \                                 In section .noinit, align 2
    250          __no_init UINT16 tempRPM;
   \                     tempRPM:
   \   00000000                      DS8 2

   \                                 In section .bss, align 1
    251          __no_init UINT8 Pause_Status_flag=0;
                                 ^
Warning[Pa034]: an initialized variable can not have the __no_init attribute
   \                     Pause_Status_flag:
   \   00000000                      DS8 1

   \                                 In section .bss, align 2
    252          __no_init UINT16 UnderSpeed_count=0;
                                  ^
Warning[Pa034]: an initialized variable can not have the __no_init attribute
   \                     UnderSpeed_count:
   \   00000000                      DS8 2
    253          
    254          

   \                                 In section .text, align 2, keep-with-next
    255          UCHAR LCB_Process(void)
    256          {
   \                     LCB_Process: (+1)
   \   00000000   0xB570             PUSH     {R4-R6,LR}
    257            UCHAR by_Out = 0;
   \   00000002   0x2400             MOVS     R4,#+0
    258            static UINT8 _overspeedtimes = 0 ;
    259              extern UINT16 w_PWM_Target;
    260            extern UINT16 w_PWM_value;
    261            extern UINT16 w_PWM_Time;
    262            static UINT32 summ=0;
    263            static UINT16 Underspeed_average=0;
    264          //  static UINT16 tempRPMBak =  0;
    265            RPM_Process_Decoder();
   \   00000004   0x.... 0x....      BL       RPM_Process_Decoder
    266            if(Incline_Get_Incline_Active()==C_INC_PASSWORD)
   \   00000008   0x.... 0x....      BL       Incline_Get_Incline_Active
   \   0000000C   0xF24A 0x51A5      MOVW     R1,#+42405
   \   00000010   0x4288             CMP      R0,R1
   \   00000012   0xD101             BNE.N    ??LCB_Process_0
    267            {
    268              Incline_Process();
   \   00000014   0x.... 0x....      BL       Incline_Process
    269            }
    270            
    271              UINT8 _overspeedenable = 0 ;
   \                     ??LCB_Process_0: (+1)
   \   00000018   0x2500             MOVS     R5,#+0
    272          	if(Program_Get_Status()==PS_RUN  || (Program_Get_Status()==PS_WARMUP) || (Program_Get_Status()==PS_COOLDOWN))
                 	   ^
Warning[Pe223]: function "Program_Get_Status" declared implicitly
   \   0000001A   0x.... 0x....      BL       Program_Get_Status
   \   0000001E   0x2808             CMP      R0,#+8
   \   00000020   0xD007             BEQ.N    ??LCB_Process_1
   \   00000022   0x.... 0x....      BL       Program_Get_Status
   \   00000026   0x2807             CMP      R0,#+7
   \   00000028   0xD003             BEQ.N    ??LCB_Process_1
   \   0000002A   0x.... 0x....      BL       Program_Get_Status
   \   0000002E   0x2809             CMP      R0,#+9
   \   00000030   0xD101             BNE.N    ??LCB_Process_2
    273          	{
    274          		_overspeedenable = 1;
   \                     ??LCB_Process_1: (+1)
   \   00000032   0x2001             MOVS     R0,#+1
   \   00000034   0x0005             MOVS     R5,R0
    275          	}
    276                  
    277               if(1== _overspeedenable && w_PWM_value > w_PWM_Target)//w_PWM_Target一直在更新
   \                     ??LCB_Process_2: (+1)
   \   00000036   0xB2ED             UXTB     R5,R5            ;; ZeroExt  R5,R5,#+24,#+24
   \   00000038   0x2D01             CMP      R5,#+1
   \   0000003A   0xD12E             BNE.N    ??LCB_Process_3
   \   0000003C   0x.... 0x....      LDR.W    R0,??DataTable17_4
   \   00000040   0x8800             LDRH     R0,[R0, #+0]
   \   00000042   0x.... 0x....      LDR.W    R1,??DataTable17_5
   \   00000046   0x8809             LDRH     R1,[R1, #+0]
   \   00000048   0x4288             CMP      R0,R1
   \   0000004A   0xD226             BCS.N    ??LCB_Process_3
    278            {
    279              time_compute_flag=1;
   \   0000004C   0x2001             MOVS     R0,#+1
   \   0000004E   0x.... 0x....      LDR.W    R1,??DataTable17_6
   \   00000052   0x8008             STRH     R0,[R1, #+0]
    280              NoRpmTimer=0;
   \   00000054   0x2000             MOVS     R0,#+0
   \   00000056   0x.... 0x....      LDR.W    R1,??DataTable17_2
   \   0000005A   0x8008             STRH     R0,[R1, #+0]
    281              if(NoRpmTimer2 <= LCB_NoSPEED_TIMER2)//5s之内
   \   0000005C   0x.... 0x....      LDR.W    R0,??DataTable17_3
   \   00000060   0x8800             LDRH     R0,[R0, #+0]
   \   00000062   0xF241 0x3189      MOVW     R1,#+5001
   \   00000066   0x4288             CMP      R0,R1
   \   00000068   0xDA08             BGE.N    ??LCB_Process_4
    282              {
    283                if(RPM_Get_OK())//if(有RPM信号)
   \   0000006A   0x.... 0x....      BL       RPM_Get_OK
   \   0000006E   0x2800             CMP      R0,#+0
   \   00000070   0xD013             BEQ.N    ??LCB_Process_3
    284                {
    285                  //RPM_Clear_OK();
    286                  NoRpmTimer2=0;//清除计时，重新开始计时
   \   00000072   0x2000             MOVS     R0,#+0
   \   00000074   0x.... 0x....      LDR.W    R1,??DataTable17_3
   \   00000078   0x8008             STRH     R0,[R1, #+0]
   \   0000007A   0xE00E             B.N      ??LCB_Process_3
    287                }
    288              }
    289              else
    290              {
    291                // 机台停止，仪表显示E1
    292                // Key_Events_Handler(28);
    293                Event_Set_Virtual_key(VK_PAUSE);
                       ^
Warning[Pe223]: function "Event_Set_Virtual_key" declared implicitly
   \                     ??LCB_Process_4: (+1)
   \   0000007C   0x2005             MOVS     R0,#+5
   \   0000007E   0x.... 0x....      BL       Event_Set_Virtual_key
    294                Show_NoSpeed_Error_Flag=1;
   \   00000082   0x2001             MOVS     R0,#+1
   \   00000084   0x.... 0x....      LDR.W    R1,??DataTable17_7
   \   00000088   0x8008             STRH     R0,[R1, #+0]
    295                time_compute_flag=0;//停止计时
   \   0000008A   0x2000             MOVS     R0,#+0
   \   0000008C   0x.... 0x....      LDR.W    R1,??DataTable17_6
   \   00000090   0x8008             STRH     R0,[R1, #+0]
    296                NoRpmTimer2=0;
   \   00000092   0x2000             MOVS     R0,#+0
   \   00000094   0x.... 0x....      LDR.W    R1,??DataTable17_3
   \   00000098   0x8008             STRH     R0,[R1, #+0]
    297              }
    298              
    299            }
    300            if(1== _overspeedenable && w_PWM_value <= w_PWM_Target)//w_PWM_Target一直在更新
   \                     ??LCB_Process_3: (+1)
   \   0000009A   0xB2ED             UXTB     R5,R5            ;; ZeroExt  R5,R5,#+24,#+24
   \   0000009C   0x2D01             CMP      R5,#+1
   \   0000009E   0xD12D             BNE.N    ??LCB_Process_5
   \   000000A0   0x.... 0x....      LDR.W    R0,??DataTable17_4
   \   000000A4   0x8800             LDRH     R0,[R0, #+0]
   \   000000A6   0x.... 0x....      LDR.W    R1,??DataTable17_5
   \   000000AA   0x8809             LDRH     R1,[R1, #+0]
   \   000000AC   0x4288             CMP      R0,R1
   \   000000AE   0xD325             BCC.N    ??LCB_Process_5
    301            {
    302              time_compute_flag=1;
   \   000000B0   0x2001             MOVS     R0,#+1
   \   000000B2   0x.... 0x....      LDR.W    R1,??DataTable17_6
   \   000000B6   0x8008             STRH     R0,[R1, #+0]
    303              NoRpmTimer2=0;
   \   000000B8   0x2000             MOVS     R0,#+0
   \   000000BA   0x.... 0x....      LDR.W    R1,??DataTable17_3
   \   000000BE   0x8008             STRH     R0,[R1, #+0]
    304              if(NoRpmTimer <= LCB_NoSPEED_TIMER)//2s之内
   \   000000C0   0x.... 0x....      LDR.W    R0,??DataTable17_2
   \   000000C4   0x8800             LDRH     R0,[R0, #+0]
   \   000000C6   0xF5B0 0x6FFA      CMP      R0,#+2000
   \   000000CA   0xDC08             BGT.N    ??LCB_Process_6
    305              {
    306                if(RPM_Get_OK())//if(有RPM信号)
   \   000000CC   0x.... 0x....      BL       RPM_Get_OK
   \   000000D0   0x2800             CMP      R0,#+0
   \   000000D2   0xD013             BEQ.N    ??LCB_Process_5
    307                {
    308                  //RPM_Clear_OK();
    309                  NoRpmTimer=0;//清除计时，重新开始计时
   \   000000D4   0x2000             MOVS     R0,#+0
   \   000000D6   0x.... 0x....      LDR.W    R1,??DataTable17_2
   \   000000DA   0x8008             STRH     R0,[R1, #+0]
   \   000000DC   0xE00E             B.N      ??LCB_Process_5
    310                }
    311              }
    312              else
    313              {
    314                // 机台停止，仪表显示E1
    315                // Key_Events_Handler(28);
    316                Event_Set_Virtual_key(VK_PAUSE);
                       ^
Warning[Pe223]: function "Event_Set_Virtual_key" declared implicitly
   \                     ??LCB_Process_6: (+1)
   \   000000DE   0x2005             MOVS     R0,#+5
   \   000000E0   0x.... 0x....      BL       Event_Set_Virtual_key
    317                Show_NoSpeed_Error_Flag=1;
   \   000000E4   0x2001             MOVS     R0,#+1
   \   000000E6   0x.... 0x....      LDR.W    R1,??DataTable17_7
   \   000000EA   0x8008             STRH     R0,[R1, #+0]
    318                time_compute_flag=0;//停止计时
   \   000000EC   0x2000             MOVS     R0,#+0
   \   000000EE   0x.... 0x....      LDR.W    R1,??DataTable17_6
   \   000000F2   0x8008             STRH     R0,[R1, #+0]
    319                NoRpmTimer=0;
   \   000000F4   0x2000             MOVS     R0,#+0
   \   000000F6   0x.... 0x....      LDR.W    R1,??DataTable17_2
   \   000000FA   0x8008             STRH     R0,[R1, #+0]
    320              }
    321            }
    322          
    323            
    324                  
    325          	if(w_OverSpeedCheckTimer>= LCB_OVERSPEED_TIMER && 1== _overspeedenable)
   \                     ??LCB_Process_5: (+1)
   \   000000FC   0x.... 0x....      LDR.W    R0,??DataTable17
   \   00000100   0x8800             LDRH     R0,[R0, #+0]
   \   00000102   0x28C8             CMP      R0,#+200
   \   00000104   0xDB53             BLT.N    ??LCB_Process_7
   \   00000106   0xB2ED             UXTB     R5,R5            ;; ZeroExt  R5,R5,#+24,#+24
   \   00000108   0x2D01             CMP      R5,#+1
   \   0000010A   0xD150             BNE.N    ??LCB_Process_7
    326          	{
    327          		w_OverSpeedCheckTimer = 0 ;
   \   0000010C   0x2000             MOVS     R0,#+0
   \   0000010E   0x.... 0x....      LDR.W    R1,??DataTable17
   \   00000112   0x8008             STRH     R0,[R1, #+0]
    328              tempRPM =  RPM_Get_Speed();
   \   00000114   0x.... 0x....      BL       RPM_Get_Speed
   \   00000118   0x.... 0x....      LDR.W    R1,??DataTable17_8
   \   0000011C   0x8008             STRH     R0,[R1, #+0]
    329                  Speed_Compute();
   \   0000011E   0x.... 0x....      BL       Speed_Compute
    330          		UINT16 OverSpeed_threshold=(SystemConfig_Get_Display_Unit(User_Get_UserSlot( ))==METRIC?560:350);
                 		                                                          ^
Warning[Pe223]: function "User_Get_UserSlot" declared implicitly
   \   00000122   0x.... 0x....      BL       User_Get_UserSlot
   \   00000126   0xB2C0             UXTB     R0,R0            ;; ZeroExt  R0,R0,#+24,#+24
   \   00000128   0x.... 0x....      BL       SystemConfig_Get_Display_Unit
   \   0000012C   0x2801             CMP      R0,#+1
   \   0000012E   0xD102             BNE.N    ??LCB_Process_8
   \   00000130   0xF44F 0x760C      MOV      R6,#+560
   \   00000134   0xE001             B.N      ??LCB_Process_9
   \                     ??LCB_Process_8: (+1)
   \   00000136   0xF44F 0x76AF      MOV      R6,#+350
    331          		 //		UINT16 tempOverValue = 10 *SystemConfig_Get_Char(OVERSPEED_VALUE) ;
    332                if( tempRPM> tempRPMBak &&  tempRPM - tempRPMBak >= OverSpeed_threshold )
   \                     ??LCB_Process_9: (+1)
   \   0000013A   0x.... 0x....      LDR.W    R0,??DataTable17_9
   \   0000013E   0x8800             LDRH     R0,[R0, #+0]
   \   00000140   0x.... 0x....      LDR.W    R1,??DataTable17_8
   \   00000144   0x8809             LDRH     R1,[R1, #+0]
   \   00000146   0x4288             CMP      R0,R1
   \   00000148   0xD22D             BCS.N    ??LCB_Process_10
   \   0000014A   0x.... 0x....      LDR.W    R0,??DataTable17_8
   \   0000014E   0x8800             LDRH     R0,[R0, #+0]
   \   00000150   0x.... 0x....      LDR.W    R1,??DataTable17_9
   \   00000154   0x8809             LDRH     R1,[R1, #+0]
   \   00000156   0x1A40             SUBS     R0,R0,R1
   \   00000158   0xB2B6             UXTH     R6,R6            ;; ZeroExt  R6,R6,#+16,#+16
   \   0000015A   0x42B0             CMP      R0,R6
   \   0000015C   0xDB23             BLT.N    ??LCB_Process_10
    333                {
    334                  if(++_overspeedtimes >= OVERSPEED_CONFIRMTIMES)
   \   0000015E   0x.... 0x....      LDR.W    R0,??DataTable17_10
   \   00000162   0x7800             LDRB     R0,[R0, #+0]
   \   00000164   0x1C40             ADDS     R0,R0,#+1
   \   00000166   0x.... 0x....      LDR.W    R1,??DataTable17_10
   \   0000016A   0x7008             STRB     R0,[R1, #+0]
   \   0000016C   0x.... 0x....      LDR.W    R0,??DataTable17_10
   \   00000170   0x7800             LDRB     R0,[R0, #+0]
   \   00000172   0x2805             CMP      R0,#+5
   \   00000174   0xDB1B             BLT.N    ??LCB_Process_7
    335                  {
    336                    _overspeedtimes = OVERSPEED_CONFIRMTIMES;
   \   00000176   0x2005             MOVS     R0,#+5
   \   00000178   0x.... 0x....      LDR.W    R1,??DataTable17_10
   \   0000017C   0x7008             STRB     R0,[R1, #+0]
    337                   // Program_Set_VirtualKey(VK_SPEEDOVER);
    338                  Event_Set_Virtual_key(VK_PAUSE);
                         ^
Warning[Pe223]: function "Event_Set_Virtual_key" declared implicitly
   \   0000017E   0x2005             MOVS     R0,#+5
   \   00000180   0x.... 0x....      BL       Event_Set_Virtual_key
    339                  Incline_Set_Incline_Reset(1);
   \   00000184   0x2001             MOVS     R0,#+1
   \   00000186   0x.... 0x....      BL       Incline_Set_Incline_Reset
    340                  Incline_Set_Pause(0);
   \   0000018A   0x2000             MOVS     R0,#+0
   \   0000018C   0x.... 0x....      BL       Incline_Set_Pause
    341                  Incline_Set_EZero();
   \   00000190   0x.... 0x....      BL       Incline_Set_EZero
    342                  time_compute_flag=0;
   \   00000194   0x2000             MOVS     R0,#+0
   \   00000196   0x.... 0x....      LDR.W    R1,??DataTable17_6
   \   0000019A   0x8008             STRH     R0,[R1, #+0]
    343                  Show_Speed_Burst_Flag=1;
   \   0000019C   0x2001             MOVS     R0,#+1
   \   0000019E   0x.... 0x....      LDR.W    R1,??DataTable17_11
   \   000001A2   0x8008             STRH     R0,[R1, #+0]
   \   000001A4   0xE003             B.N      ??LCB_Process_7
    344                  }
    345                }
    346                else
    347                {
    348                  _overspeedtimes = 0;
   \                     ??LCB_Process_10: (+1)
   \   000001A6   0x2000             MOVS     R0,#+0
   \   000001A8   0x.... 0x....      LDR.W    R1,??DataTable17_10
   \   000001AC   0x7008             STRB     R0,[R1, #+0]
    349                }
    350              }
    351          	if((w_UnderSpeedCheckTimer>= LCB_OVERSPEED_TIMER) && (1== _overspeedenable))
   \                     ??LCB_Process_7: (+1)
   \   000001AE   0x.... 0x....      LDR.W    R0,??DataTable17_1
   \   000001B2   0x8800             LDRH     R0,[R0, #+0]
   \   000001B4   0x28C8             CMP      R0,#+200
   \   000001B6   0xDB5B             BLT.N    ??LCB_Process_11
   \   000001B8   0xB2ED             UXTB     R5,R5            ;; ZeroExt  R5,R5,#+24,#+24
   \   000001BA   0x2D01             CMP      R5,#+1
   \   000001BC   0xD158             BNE.N    ??LCB_Process_11
    352          	 {
    353          		w_UnderSpeedCheckTimer=0;
   \   000001BE   0x2000             MOVS     R0,#+0
   \   000001C0   0x.... 0x....      LDR.W    R1,??DataTable17_1
   \   000001C4   0x8008             STRH     R0,[R1, #+0]
    354          		tempRPM =  RPM_Get_Speed();
   \   000001C6   0x.... 0x....      BL       RPM_Get_Speed
   \   000001CA   0x.... 0x....      LDR.W    R1,??DataTable17_8
   \   000001CE   0x8008             STRH     R0,[R1, #+0]
    355          		Speed_Compute();
   \   000001D0   0x.... 0x....      BL       Speed_Compute
    356          		
    357          		UINT16 UnderSpeed_threshold=(SystemConfig_Get_Display_Unit(User_Get_UserSlot( ))==METRIC?320:200);
                 		                                                           ^
Warning[Pe223]: function "User_Get_UserSlot" declared implicitly
   \   000001D4   0x.... 0x....      BL       User_Get_UserSlot
   \   000001D8   0xB2C0             UXTB     R0,R0            ;; ZeroExt  R0,R0,#+24,#+24
   \   000001DA   0x.... 0x....      BL       SystemConfig_Get_Display_Unit
   \   000001DE   0x2801             CMP      R0,#+1
   \   000001E0   0xD102             BNE.N    ??LCB_Process_12
   \   000001E2   0xF44F 0x76A0      MOV      R6,#+320
   \   000001E6   0xE000             B.N      ??LCB_Process_13
   \                     ??LCB_Process_12: (+1)
   \   000001E8   0x26C8             MOVS     R6,#+200
    358          		if(w_PWM_Target==w_PWM_Time && tempRPM<tempRPMBak && (tempRPMBak-tempRPM > UnderSpeed_threshold))
   \                     ??LCB_Process_13: (+1)
   \   000001EA   0x.... 0x....      LDR.W    R0,??DataTable17_4
   \   000001EE   0x8800             LDRH     R0,[R0, #+0]
   \   000001F0   0x.... 0x....      LDR.W    R1,??DataTable17_12
   \   000001F4   0x8809             LDRH     R1,[R1, #+0]
   \   000001F6   0x4288             CMP      R0,R1
   \   000001F8   0xD136             BNE.N    ??LCB_Process_14
   \   000001FA   0x.... 0x....      LDR.W    R0,??DataTable17_8
   \   000001FE   0x8800             LDRH     R0,[R0, #+0]
   \   00000200   0x.... 0x....      LDR.W    R1,??DataTable17_9
   \   00000204   0x8809             LDRH     R1,[R1, #+0]
   \   00000206   0x4288             CMP      R0,R1
   \   00000208   0xD22E             BCS.N    ??LCB_Process_14
   \   0000020A   0xB2B6             UXTH     R6,R6            ;; ZeroExt  R6,R6,#+16,#+16
   \   0000020C   0x.... 0x....      LDR.W    R0,??DataTable17_9
   \   00000210   0x8800             LDRH     R0,[R0, #+0]
   \   00000212   0x.... 0x....      LDR.W    R1,??DataTable17_8
   \   00000216   0x8809             LDRH     R1,[R1, #+0]
   \   00000218   0x1A40             SUBS     R0,R0,R1
   \   0000021A   0x4286             CMP      R6,R0
   \   0000021C   0xDA24             BGE.N    ??LCB_Process_14
    359          		{
    360          	//		SEGGER_RTT_printf(0,"tempRPMBak:%d\n",tempRPMBak);
    361          	//		SEGGER_RTT_printf(0,"tempRPM:%d\n",tempRPM);
    362          			UnderSpeed_count++;
   \   0000021E   0x.... 0x....      LDR.W    R0,??DataTable17_13
   \   00000222   0x8800             LDRH     R0,[R0, #+0]
   \   00000224   0x1C40             ADDS     R0,R0,#+1
   \   00000226   0x.... 0x....      LDR.W    R1,??DataTable17_13
   \   0000022A   0x8008             STRH     R0,[R1, #+0]
    363          			if(UnderSpeed_count>=900)
   \   0000022C   0x.... 0x....      LDR.W    R0,??DataTable17_13
   \   00000230   0x8800             LDRH     R0,[R0, #+0]
   \   00000232   0xF5B0 0x7F61      CMP      R0,#+900
   \   00000236   0xDB1B             BLT.N    ??LCB_Process_11
    364          			{
    365          			Incline_Set_Incline_Reset(1);
   \   00000238   0x2001             MOVS     R0,#+1
   \   0000023A   0x.... 0x....      BL       Incline_Set_Incline_Reset
    366          			Incline_Set_Pause(0);
   \   0000023E   0x2000             MOVS     R0,#+0
   \   00000240   0x.... 0x....      BL       Incline_Set_Pause
    367          			Incline_Set_EZero();
   \   00000244   0x.... 0x....      BL       Incline_Set_EZero
    368          			time_compute_flag=0;
   \   00000248   0x2000             MOVS     R0,#+0
   \   0000024A   0x.... 0x....      LDR.W    R1,??DataTable17_6
   \   0000024E   0x8008             STRH     R0,[R1, #+0]
    369          			Show_Underspeed_Flag=1;
   \   00000250   0x2001             MOVS     R0,#+1
   \   00000252   0x.... 0x....      LDR.W    R1,??DataTable17_14
   \   00000256   0x8008             STRH     R0,[R1, #+0]
    370          			Event_Set_Virtual_key(VK_PAUSE);
                 			^
Warning[Pe223]: function "Event_Set_Virtual_key" declared implicitly
   \   00000258   0x2005             MOVS     R0,#+5
   \   0000025A   0x.... 0x....      BL       Event_Set_Virtual_key
    371          			UnderSpeed_count=0;
   \   0000025E   0x2000             MOVS     R0,#+0
   \   00000260   0x.... 0x....      LDR.W    R1,??DataTable17_13
   \   00000264   0x8008             STRH     R0,[R1, #+0]
   \   00000266   0xE003             B.N      ??LCB_Process_11
    372          			}
    373          		}
    374          		else
    375          		{
    376          	//		SEGGER_RTT_printf(0,"00000000000000000000%d\n");
    377          		  UnderSpeed_count=0;
   \                     ??LCB_Process_14: (+1)
   \   00000268   0x2000             MOVS     R0,#+0
   \   0000026A   0x.... 0x....      LDR.W    R1,??DataTable17_13
   \   0000026E   0x8008             STRH     R0,[R1, #+0]
    378          		}
    379          		}  
    380          	if(Show_Speed_Burst_Flag==1 || Show_Underspeed_Flag==1)
   \                     ??LCB_Process_11: (+1)
   \   00000270   0x.... 0x....      LDR.W    R0,??DataTable17_11
   \   00000274   0x8800             LDRH     R0,[R0, #+0]
   \   00000276   0x2801             CMP      R0,#+1
   \   00000278   0xD004             BEQ.N    ??LCB_Process_15
   \   0000027A   0x.... 0x....      LDR.W    R0,??DataTable17_14
   \   0000027E   0x8800             LDRH     R0,[R0, #+0]
   \   00000280   0x2801             CMP      R0,#+1
   \   00000282   0xD117             BNE.N    ??LCB_Process_16
    381          	  {
    382          		if(RPM_Get_Speed()==0 && Pause_Status_flag==1)
   \                     ??LCB_Process_15: (+1)
   \   00000284   0x.... 0x....      BL       RPM_Get_Speed
   \   00000288   0x2800             CMP      R0,#+0
   \   0000028A   0xD113             BNE.N    ??LCB_Process_16
   \   0000028C   0x.... 0x....      LDR.W    R0,??DataTable17_15
   \   00000290   0x7800             LDRB     R0,[R0, #+0]
   \   00000292   0x2801             CMP      R0,#+1
   \   00000294   0xD10E             BNE.N    ??LCB_Process_16
    383          		{
    384          		  Pause_Status_flag=0;
   \   00000296   0x2000             MOVS     R0,#+0
   \   00000298   0x.... 0x....      LDR.W    R1,??DataTable17_15
   \   0000029C   0x7008             STRB     R0,[R1, #+0]
    385          		  Show_Speed_Burst_Flag=0;
   \   0000029E   0x2000             MOVS     R0,#+0
   \   000002A0   0x.... 0x....      LDR.W    R1,??DataTable17_11
   \   000002A4   0x8008             STRH     R0,[R1, #+0]
    386          		  Show_Underspeed_Flag=0;
   \   000002A6   0x2000             MOVS     R0,#+0
   \   000002A8   0x.... 0x....      LDR.W    R1,??DataTable17_14
   \   000002AC   0x8008             STRH     R0,[R1, #+0]
    387          		  Program_Set_Status(PS_OVERSPEEDSTOP);
                 		  ^
Warning[Pe223]: function "Program_Set_Status" declared implicitly

    static UINT32 summ=0;
                  ^
"C:\Users\shaomingkun\Desktop\git\evolve5.0\2021sw\ECOM-5\Modules\LCB_Lib\LCB.c",262  Warning[Pe177]: 
          variable "summ" was declared but never referenced

    static UINT16 Underspeed_average=0;
                  ^
"C:\Users\shaomingkun\Desktop\git\evolve5.0\2021sw\ECOM-5\Modules\LCB_Lib\LCB.c",263  Warning[Pe177]: 
          variable "Underspeed_average" was declared but never referenced
   \   000002AE   0x200B             MOVS     R0,#+11
   \   000002B0   0x.... 0x....      BL       Program_Set_Status
    388          		}
    389          	  }
    390          
    391            return by_Out;
   \                     ??LCB_Process_16: (+1)
   \   000002B4   0x0020             MOVS     R0,R4
   \   000002B6   0xB2C0             UXTB     R0,R0            ;; ZeroExt  R0,R0,#+24,#+24
   \   000002B8   0xBD70             POP      {R4-R6,PC}       ;; return
    392          }

   \                                 In section .bss, align 1
   \                     `LCB_Process::_overspeedtimes`:
   \   00000000                      DS8 1
    393          

   \                                 In section .text, align 2, keep-with-next
    394          void LCB_CmdProcess(void)
    395          {}
   \                     LCB_CmdProcess: (+1)
   \   00000000   0x4770             BX       LR               ;; return
    396          

   \                                 In section .text, align 2, keep-with-next
    397          UINT16 LCB_Get_Data(RX_DATA_TYPE en_Index)
    398          {
   \                     LCB_Get_Data: (+1)
   \   00000000   0xB410             PUSH     {R4}
   \   00000002   0x0001             MOVS     R1,R0
    399              UINT16 w_Data = 0;
   \   00000004   0x2000             MOVS     R0,#+0
    400              
    401              if(en_Index == G_NEW_VERSION)
   \   00000006   0xB2C9             UXTB     R1,R1            ;; ZeroExt  R1,R1,#+24,#+24
   \   00000008   0x2915             CMP      R1,#+21
   \   0000000A   0xD125             BNE.N    ??LCB_Get_Data_0
    402              {
    403                  UINT16 n = aby_Total[Offset_Adress[G_NEW_VERSION].RxOffset + 1];
   \   0000000C   0x.... 0x....      LDR.W    R2,??DataTable17_16
   \   00000010   0x.... 0x....      LDR.W    R3,??DataTable17_17
   \   00000014   0xF893 0x3040      LDRB     R3,[R3, #+64]
   \   00000018   0x441A             ADD      R2,R2,R3
   \   0000001A   0x7852             LDRB     R2,[R2, #+1]
    404                  if(n) n--;
   \   0000001C   0xB292             UXTH     R2,R2            ;; ZeroExt  R2,R2,#+16,#+16
   \   0000001E   0x2A00             CMP      R2,#+0
   \   00000020   0xD000             BEQ.N    ??LCB_Get_Data_1
   \   00000022   0x1E52             SUBS     R2,R2,#+1
    405                  w_Data |= aby_Total[Offset_Adress[G_NEW_VERSION].RxOffset + 2 * n + 4];
   \                     ??LCB_Get_Data_1: (+1)
   \   00000024   0x.... 0x....      LDR.W    R3,??DataTable17_16
   \   00000028   0x.... 0x....      LDR.W    R4,??DataTable17_17
   \   0000002C   0xF894 0x4040      LDRB     R4,[R4, #+64]
   \   00000030   0xB292             UXTH     R2,R2            ;; ZeroExt  R2,R2,#+16,#+16
   \   00000032   0xEB14 0x0442      ADDS     R4,R4,R2, LSL #+1
   \   00000036   0x4423             ADD      R3,R3,R4
   \   00000038   0x791B             LDRB     R3,[R3, #+4]
   \   0000003A   0x4318             ORRS     R0,R3,R0
    406                  w_Data <<= 8;
   \   0000003C   0x0200             LSLS     R0,R0,#+8
    407                  w_Data += aby_Total[Offset_Adress[G_NEW_VERSION].RxOffset + 2 * n + 5];
   \   0000003E   0x.... 0x....      LDR.W    R3,??DataTable17_16
   \   00000042   0x.... 0x....      LDR.W    R4,??DataTable17_17
   \   00000046   0xF894 0x4040      LDRB     R4,[R4, #+64]
   \   0000004A   0xB292             UXTH     R2,R2            ;; ZeroExt  R2,R2,#+16,#+16
   \   0000004C   0xEB14 0x0242      ADDS     R2,R4,R2, LSL #+1
   \   00000050   0x441A             ADD      R2,R3,R2
   \   00000052   0x7952             LDRB     R2,[R2, #+5]
   \   00000054   0x1810             ADDS     R0,R2,R0
   \   00000056   0xE061             B.N      ??LCB_Get_Data_2
    408              }
    409              else if(en_Index == G_MCB_TYPE)
   \                     ??LCB_Get_Data_0: (+1)
   \   00000058   0xB2C9             UXTB     R1,R1            ;; ZeroExt  R1,R1,#+24,#+24
   \   0000005A   0x2916             CMP      R1,#+22
   \   0000005C   0xD109             BNE.N    ??LCB_Get_Data_3
    410              {
    411                  w_Data = aby_Total[Offset_Adress[G_NEW_VERSION].RxOffset + 2];
   \   0000005E   0x.... 0x....      LDR.W    R2,??DataTable17_16
   \   00000062   0x.... 0x....      LDR.W    R3,??DataTable17_17
   \   00000066   0xF893 0x3040      LDRB     R3,[R3, #+64]
   \   0000006A   0x441A             ADD      R2,R2,R3
   \   0000006C   0x7892             LDRB     R2,[R2, #+2]
   \   0000006E   0x0010             MOVS     R0,R2
   \   00000070   0xE054             B.N      ??LCB_Get_Data_2
    412              }
    413              else
    414              {
    415                  switch(Offset_Adress[en_Index].RxLen)
   \                     ??LCB_Get_Data_3: (+1)
   \   00000072   0x.... 0x....      LDR.W    R2,??DataTable17_17
   \   00000076   0xB2C9             UXTB     R1,R1            ;; ZeroExt  R1,R1,#+24,#+24
   \   00000078   0x2303             MOVS     R3,#+3
   \   0000007A   0xFB03 0xF301      MUL      R3,R3,R1
   \   0000007E   0x441A             ADD      R2,R2,R3
   \   00000080   0x7892             LDRB     R2,[R2, #+2]
   \   00000082   0x2A01             CMP      R2,#+1
   \   00000084   0xD004             BEQ.N    ??LCB_Get_Data_4
   \   00000086   0xD349             BCC.N    ??LCB_Get_Data_5
   \   00000088   0x2A03             CMP      R2,#+3
   \   0000008A   0xD029             BEQ.N    ??LCB_Get_Data_6
   \   0000008C   0xD30D             BCC.N    ??LCB_Get_Data_7
   \   0000008E   0xE045             B.N      ??LCB_Get_Data_5
    416                  {
    417                  case 1:
    418                      w_Data  |= aby_Total[Offset_Adress[en_Index].RxOffset];
   \                     ??LCB_Get_Data_4: (+1)
   \   00000090   0x.... 0x....      LDR.W    R2,??DataTable17_16
   \   00000094   0x.... 0x....      LDR.W    R3,??DataTable17_17
   \   00000098   0xB2C9             UXTB     R1,R1            ;; ZeroExt  R1,R1,#+24,#+24
   \   0000009A   0x2403             MOVS     R4,#+3
   \   0000009C   0xFB04 0xF401      MUL      R4,R4,R1
   \   000000A0   0x4423             ADD      R3,R3,R4
   \   000000A2   0x785B             LDRB     R3,[R3, #+1]
   \   000000A4   0x5CD2             LDRB     R2,[R2, R3]
   \   000000A6   0x4310             ORRS     R0,R2,R0
    419                      break;
   \   000000A8   0xE038             B.N      ??LCB_Get_Data_2
    420                  case 2:
    421                      w_Data  |= aby_Total[Offset_Adress[en_Index].RxOffset];
   \                     ??LCB_Get_Data_7: (+1)
   \   000000AA   0x.... 0x....      LDR.W    R2,??DataTable17_16
   \   000000AE   0x.... 0x....      LDR.W    R3,??DataTable17_17
   \   000000B2   0xB2C9             UXTB     R1,R1            ;; ZeroExt  R1,R1,#+24,#+24
   \   000000B4   0x2403             MOVS     R4,#+3
   \   000000B6   0xFB04 0xF401      MUL      R4,R4,R1
   \   000000BA   0x4423             ADD      R3,R3,R4
   \   000000BC   0x785B             LDRB     R3,[R3, #+1]
   \   000000BE   0x5CD2             LDRB     R2,[R2, R3]
   \   000000C0   0x4310             ORRS     R0,R2,R0
    422                      w_Data <<= 8;
   \   000000C2   0x0200             LSLS     R0,R0,#+8
    423                      w_Data  += aby_Total[Offset_Adress[en_Index].RxOffset+1];
   \   000000C4   0x.... 0x....      LDR.W    R2,??DataTable17_16
   \   000000C8   0x.... 0x....      LDR.W    R3,??DataTable17_17
   \   000000CC   0xB2C9             UXTB     R1,R1            ;; ZeroExt  R1,R1,#+24,#+24
   \   000000CE   0x2403             MOVS     R4,#+3
   \   000000D0   0xFB04 0xF401      MUL      R4,R4,R1
   \   000000D4   0x4423             ADD      R3,R3,R4
   \   000000D6   0x785B             LDRB     R3,[R3, #+1]
   \   000000D8   0x441A             ADD      R2,R2,R3
   \   000000DA   0x7852             LDRB     R2,[R2, #+1]
   \   000000DC   0x1810             ADDS     R0,R2,R0
    424                      break;
   \   000000DE   0xE01D             B.N      ??LCB_Get_Data_2
    425                  case 3:
    426                      w_Data   = 0;
   \                     ??LCB_Get_Data_6: (+1)
   \   000000E0   0x2200             MOVS     R2,#+0
   \   000000E2   0x0010             MOVS     R0,R2
    427                      w_Data  |= aby_Total[Offset_Adress[en_Index].RxOffset+1];
   \   000000E4   0x.... 0x....      LDR.W    R2,??DataTable17_16
   \   000000E8   0x.... 0x....      LDR.W    R3,??DataTable17_17
   \   000000EC   0xB2C9             UXTB     R1,R1            ;; ZeroExt  R1,R1,#+24,#+24
   \   000000EE   0x2403             MOVS     R4,#+3
   \   000000F0   0xFB04 0xF401      MUL      R4,R4,R1
   \   000000F4   0x4423             ADD      R3,R3,R4
   \   000000F6   0x785B             LDRB     R3,[R3, #+1]
   \   000000F8   0x441A             ADD      R2,R2,R3
   \   000000FA   0x7852             LDRB     R2,[R2, #+1]
   \   000000FC   0x4310             ORRS     R0,R2,R0
    428                      w_Data <<= 8;
   \   000000FE   0x0200             LSLS     R0,R0,#+8
    429                      w_Data  += aby_Total[Offset_Adress[en_Index].RxOffset+2];
   \   00000100   0x.... 0x....      LDR.W    R2,??DataTable17_16
   \   00000104   0x.... 0x....      LDR.W    R3,??DataTable17_17
   \   00000108   0xB2C9             UXTB     R1,R1            ;; ZeroExt  R1,R1,#+24,#+24
   \   0000010A   0x2403             MOVS     R4,#+3
   \   0000010C   0xFB04 0xF401      MUL      R4,R4,R1
   \   00000110   0x4423             ADD      R3,R3,R4
   \   00000112   0x785B             LDRB     R3,[R3, #+1]
   \   00000114   0x441A             ADD      R2,R2,R3
   \   00000116   0x7892             LDRB     R2,[R2, #+2]
   \   00000118   0x1810             ADDS     R0,R2,R0
    430                      break;
   \   0000011A   0xE7FF             B.N      ??LCB_Get_Data_2
    431                  default: break;
    432                  }
    433              }
    434              
    435              return w_Data;
   \                     ??LCB_Get_Data_5: (+1)
   \                     ??LCB_Get_Data_2: (+1)
   \   0000011C   0xB280             UXTH     R0,R0            ;; ZeroExt  R0,R0,#+16,#+16
   \   0000011E   0xBC10             POP      {R4}
   \   00000120   0x4770             BX       LR               ;; return
    436          }
    437          

   \                                 In section .text, align 2, keep-with-next
    438          void LCB_Clear_Data(RX_DATA_TYPE en_Index)
    439          {
   \                     LCB_Clear_Data: (+1)
   \   00000000   0xB5F8             PUSH     {R3-R7,LR}
   \   00000002   0x0004             MOVS     R4,R0
    440              memset(&aby_Total[Offset_Adress[en_Index].RxOffset], 0, Offset_Adress[en_Index].RxLen);
   \   00000004   0x.... 0x....      LDR.W    R0,??DataTable17_17
   \   00000008   0xB2E4             UXTB     R4,R4            ;; ZeroExt  R4,R4,#+24,#+24
   \   0000000A   0x2103             MOVS     R1,#+3
   \   0000000C   0xFB01 0xF104      MUL      R1,R1,R4
   \   00000010   0x4408             ADD      R0,R0,R1
   \   00000012   0x7885             LDRB     R5,[R0, #+2]
   \   00000014   0x2600             MOVS     R6,#+0
   \   00000016   0x.... 0x....      LDR.W    R0,??DataTable17_16
   \   0000001A   0x.... 0x....      LDR.W    R1,??DataTable17_17
   \   0000001E   0xB2E4             UXTB     R4,R4            ;; ZeroExt  R4,R4,#+24,#+24
   \   00000020   0x2203             MOVS     R2,#+3
   \   00000022   0xFB02 0xF204      MUL      R2,R2,R4
   \   00000026   0x4411             ADD      R1,R1,R2
   \   00000028   0x7849             LDRB     R1,[R1, #+1]
   \   0000002A   0xEB00 0x0701      ADD      R7,R0,R1
   \   0000002E   0x0032             MOVS     R2,R6
   \   00000030   0x0029             MOVS     R1,R5
   \   00000032   0x0038             MOVS     R0,R7
   \   00000034   0x.... 0x....      BL       __aeabi_memset
    441          }
   \   00000038   0xBDF1             POP      {R0,R4-R7,PC}    ;; return
    442          

   \                                 In section .text, align 2, keep-with-next
    443          void LCB_Send_Cmd(COM_TYPE CmdType, UINT32 w_Data)
    444          {
   \                     LCB_Send_Cmd: (+1)
   \   00000000   0xB410             PUSH     {R4}
    445              if(CmdType == DS_MOT_RPM)                                                   //如果是发送Speed的话,把Speed存入Buff中
   \   00000002   0xB2C0             UXTB     R0,R0            ;; ZeroExt  R0,R0,#+24,#+24
   \   00000004   0x2809             CMP      R0,#+9
   \   00000006   0xD103             BNE.N    ??LCB_Send_Cmd_0
    446              {
    447                  w_TargetSpeed = w_Data;
   \   00000008   0x.... 0x....      LDR.W    R2,??DataTable17_18
   \   0000000C   0x8011             STRH     R1,[R2, #+0]
   \   0000000E   0xE04F             B.N      ??LCB_Send_Cmd_1
    448              }
    449              else
    450              {
    451                  if(CmdType == DS_INC_LOCATION)
   \                     ??LCB_Send_Cmd_0: (+1)
   \   00000010   0xB2C0             UXTB     R0,R0            ;; ZeroExt  R0,R0,#+24,#+24
   \   00000012   0x280E             CMP      R0,#+14
   \   00000014   0xD115             BNE.N    ??LCB_Send_Cmd_2
    452                  {
    453                      if(by_MCBType == MCB_DELTA_COMMOCIAL || by_MCBType == MCB_TOPTEK)
   \   00000016   0x.... 0x....      LDR.W    R2,??DataTable17_19
   \   0000001A   0x7812             LDRB     R2,[R2, #+0]
   \   0000001C   0x2AC3             CMP      R2,#+195
   \   0000001E   0xD004             BEQ.N    ??LCB_Send_Cmd_3
   \   00000020   0x.... 0x....      LDR.W    R2,??DataTable17_19
   \   00000024   0x7812             LDRB     R2,[R2, #+0]
   \   00000026   0x2AC1             CMP      R2,#+193
   \   00000028   0xD10B             BNE.N    ??LCB_Send_Cmd_2
    454                      {
    455                          if(w_Data > DEFAULT_TOPTEK_MAX_INC)
   \                     ??LCB_Send_Cmd_3: (+1)
   \   0000002A   0x29CE             CMP      R1,#+206
   \   0000002C   0xD301             BCC.N    ??LCB_Send_Cmd_4
    456                          {
    457                              w_Data = DEFAULT_TOPTEK_MAX_INC;
   \   0000002E   0x22CD             MOVS     R2,#+205
   \   00000030   0x0011             MOVS     R1,R2
    458                          }
    459                          
    460                          if(w_Data < DEFAULT_TOPTEK_MIN_INC)
   \                     ??LCB_Send_Cmd_4: (+1)
   \   00000032   0x2914             CMP      R1,#+20
   \   00000034   0xD201             BCS.N    ??LCB_Send_Cmd_5
    461                          {
    462                              w_Data = DEFAULT_TOPTEK_MIN_INC;
   \   00000036   0x2214             MOVS     R2,#+20
   \   00000038   0x0011             MOVS     R1,R2
    463                          }
    464                          
    465                          w_Data = w_Data * 128;
   \                     ??LCB_Send_Cmd_5: (+1)
   \   0000003A   0x2280             MOVS     R2,#+128
   \   0000003C   0x4351             MULS     R1,R2,R1
    466                          w_Data |=0x8000;
   \   0000003E   0xF451 0x4100      ORRS     R1,R1,#0x8000
    467                      }
    468                  }
    469                  
    470                  //待发送Buff中已有相同命令,则丢弃
    471                  for(UCHAR i=0; i<C_TX_BUFF_SIZE; i++)
   \                     ??LCB_Send_Cmd_2: (+1)
   \   00000042   0x2200             MOVS     R2,#+0
   \                     ??LCB_Send_Cmd_6: (+1)
   \   00000044   0xB2D2             UXTB     R2,R2            ;; ZeroExt  R2,R2,#+24,#+24
   \   00000046   0x2A14             CMP      R2,#+20
   \   00000048   0xDA12             BGE.N    ??LCB_Send_Cmd_7
    472                  {
    473                      if(Cmd_Buffer[i].CmdType == CmdType && Cmd_Buffer[i].Data == w_Data)
   \   0000004A   0x.... 0x....      LDR.W    R3,??DataTable17_20
   \   0000004E   0xB2D2             UXTB     R2,R2            ;; ZeroExt  R2,R2,#+24,#+24
   \   00000050   0xF813 0x3032      LDRB     R3,[R3, R2, LSL #+3]
   \   00000054   0x0004             MOVS     R4,R0
   \   00000056   0xB2E4             UXTB     R4,R4            ;; ZeroExt  R4,R4,#+24,#+24
   \   00000058   0x42A3             CMP      R3,R4
   \   0000005A   0xD107             BNE.N    ??LCB_Send_Cmd_8
   \   0000005C   0x.... 0x....      LDR.W    R3,??DataTable17_20
   \   00000060   0xB2D2             UXTB     R2,R2            ;; ZeroExt  R2,R2,#+24,#+24
   \   00000062   0xEB03 0x03C2      ADD      R3,R3,R2, LSL #+3
   \   00000066   0x685B             LDR      R3,[R3, #+4]
   \   00000068   0x428B             CMP      R3,R1
   \   0000006A   0xD021             BEQ.N    ??LCB_Send_Cmd_9
    474                      {
    475                          return;
    476                      }
    477                  }
   \                     ??LCB_Send_Cmd_8: (+1)
   \   0000006C   0x1C52             ADDS     R2,R2,#+1
   \   0000006E   0xE7E9             B.N      ??LCB_Send_Cmd_6
    478                  
    479                  //存入Buff中
    480                  if(by_Command_End < (C_TX_BUFF_SIZE-1))
   \                     ??LCB_Send_Cmd_7: (+1)
   \   00000070   0x.... 0x....      LDR.W    R2,??DataTable17_21
   \   00000074   0x7812             LDRB     R2,[R2, #+0]
   \   00000076   0x2A13             CMP      R2,#+19
   \   00000078   0xDA07             BGE.N    ??LCB_Send_Cmd_10
    481                      by_Command_End++;
   \   0000007A   0x.... 0x....      LDR.W    R2,??DataTable17_21
   \   0000007E   0x7812             LDRB     R2,[R2, #+0]
   \   00000080   0x1C52             ADDS     R2,R2,#+1
   \   00000082   0x.... 0x....      LDR.W    R3,??DataTable17_21
   \   00000086   0x701A             STRB     R2,[R3, #+0]
   \   00000088   0xE003             B.N      ??LCB_Send_Cmd_11
    482                  else
    483                      by_Command_End = 0;
   \                     ??LCB_Send_Cmd_10: (+1)
   \   0000008A   0x2200             MOVS     R2,#+0
   \   0000008C   0x.... 0x....      LDR.W    R3,??DataTable17_21
   \   00000090   0x701A             STRB     R2,[R3, #+0]
    484                  
    485                  
    486                  Cmd_Buffer[by_Command_End].CmdType  = CmdType;
   \                     ??LCB_Send_Cmd_11: (+1)
   \   00000092   0x.... 0x....      LDR.W    R2,??DataTable17_20
   \   00000096   0x.... 0x....      LDR.W    R3,??DataTable17_21
   \   0000009A   0x781B             LDRB     R3,[R3, #+0]
   \   0000009C   0xF802 0x0033      STRB     R0,[R2, R3, LSL #+3]
    487                  Cmd_Buffer[by_Command_End].Data = w_Data;
   \   000000A0   0x.... 0x....      LDR.W    R2,??DataTable17_20
   \   000000A4   0x.... 0x....      LDR.W    R3,??DataTable17_21
   \   000000A8   0x781B             LDRB     R3,[R3, #+0]
   \   000000AA   0xEB02 0x02C3      ADD      R2,R2,R3, LSL #+3
   \   000000AE   0x6051             STR      R1,[R2, #+4]
    488              }
    489          }
   \                     ??LCB_Send_Cmd_1: (+1)
   \                     ??LCB_Send_Cmd_9: (+1)
   \   000000B0   0xBC10             POP      {R4}
   \   000000B2   0x4770             BX       LR               ;; return
    490          

   \                                 In section .text, align 2, keep-with-next
    491          UINT16 LCB_Dectect_Error(void)
    492          {
    493              UINT16 wOut = w_ErrorCode;
   \                     LCB_Dectect_Error: (+1)
   \   00000000   0x.... 0x....      LDR.W    R0,??DataTable17_22
   \   00000004   0x8800             LDRH     R0,[R0, #+0]
    494              w_ErrorCode = 0;
   \   00000006   0x2100             MOVS     R1,#+0
   \   00000008   0x.... 0x....      LDR.W    R2,??DataTable17_22
   \   0000000C   0x8011             STRH     R1,[R2, #+0]
    495              
    496          //    if(w_LostTimer >= C_LOST_TIME && wOut == 0)
    497          //    {
    498          //        wOut = 0x04A0;
    499          //    }
    500              
    501              return wOut;
   \   0000000E   0xB280             UXTH     R0,R0            ;; ZeroExt  R0,R0,#+16,#+16
   \   00000010   0x4770             BX       LR               ;; return
    502          }
    503          

   \                                 In section .text, align 2, keep-with-next
    504          void LCB_CmdPack(COM_TYPE CmdType, UINT32 w_Data)
    505          {
   \                     LCB_CmdPack: (+1)
   \   00000000   0xE92D 0x41F0      PUSH     {R4-R8,LR}
   \   00000004   0xB0A2             SUB      SP,SP,#+136
   \   00000006   0x0004             MOVS     R4,R0
   \   00000008   0x000D             MOVS     R5,R1
    506              CMD_TX CmdTx;
    507              memset(&CmdTx, 0, sizeof(CmdTx));
   \   0000000A   0x2683             MOVS     R6,#+131
   \   0000000C   0x2700             MOVS     R7,#+0
   \   0000000E   0x46E8             MOV      R8,SP
   \   00000010   0x003A             MOVS     R2,R7
   \   00000012   0x0031             MOVS     R1,R6
   \   00000014   0x4640             MOV      R0,R8
   \   00000016   0x.... 0x....      BL       __aeabi_memset
    508              CmdTx.Cmd = Cmd_Talbe[CmdType].Cmd;
   \   0000001A   0x.... 0x....      LDR.W    R0,??DataTable17_23
   \   0000001E   0xB2E4             UXTB     R4,R4            ;; ZeroExt  R4,R4,#+24,#+24
   \   00000020   0x2103             MOVS     R1,#+3
   \   00000022   0xFB01 0xF104      MUL      R1,R1,R4
   \   00000026   0x5C40             LDRB     R0,[R0, R1]
   \   00000028   0xF88D 0x0000      STRB     R0,[SP, #+0]
    509              CmdTx.Adress = MCB_ADDRS;
   \   0000002C   0x20FF             MOVS     R0,#+255
   \   0000002E   0xF88D 0x0001      STRB     R0,[SP, #+1]
    510              CmdTx.Len = Cmd_Talbe[CmdType].TxLen;
   \   00000032   0x.... 0x....      LDR.W    R0,??DataTable17_23
   \   00000036   0xB2E4             UXTB     R4,R4            ;; ZeroExt  R4,R4,#+24,#+24
   \   00000038   0x2103             MOVS     R1,#+3
   \   0000003A   0xFB01 0xF104      MUL      R1,R1,R4
   \   0000003E   0x4408             ADD      R0,R0,R1
   \   00000040   0x7840             LDRB     R0,[R0, #+1]
   \   00000042   0xF88D 0x0002      STRB     R0,[SP, #+2]
    511              
    512              if(CmdTx.Len)
   \   00000046   0xF89D 0x0002      LDRB     R0,[SP, #+2]
   \   0000004A   0x2800             CMP      R0,#+0
   \   0000004C   0xD014             BEQ.N    ??LCB_CmdPack_0
    513              {
    514                  for(UCHAR i=0; i<CmdTx.Len; i++)
   \   0000004E   0x2000             MOVS     R0,#+0
   \                     ??LCB_CmdPack_1: (+1)
   \   00000050   0x0001             MOVS     R1,R0
   \   00000052   0xF89D 0x2002      LDRB     R2,[SP, #+2]
   \   00000056   0xB2C9             UXTB     R1,R1            ;; ZeroExt  R1,R1,#+24,#+24
   \   00000058   0x4291             CMP      R1,R2
   \   0000005A   0xD20D             BCS.N    ??LCB_CmdPack_0
    515                  {
    516                      CmdTx.Data[i] = (UCHAR)(w_Data >> ((CmdTx.Len - 1 - i) * 8));       //仅可发送0-4个byte的数据
   \   0000005C   0xF89D 0x1002      LDRB     R1,[SP, #+2]
   \   00000060   0x1E49             SUBS     R1,R1,#+1
   \   00000062   0x1A09             SUBS     R1,R1,R0
   \   00000064   0xB2C9             UXTB     R1,R1            ;; ZeroExt  R1,R1,#+24,#+24
   \   00000066   0x00C9             LSLS     R1,R1,#+3
   \   00000068   0x002A             MOVS     R2,R5
   \   0000006A   0x40CA             LSRS     R2,R2,R1
   \   0000006C   0x4669             MOV      R1,SP
   \   0000006E   0xB2C0             UXTB     R0,R0            ;; ZeroExt  R0,R0,#+24,#+24
   \   00000070   0x4401             ADD      R1,R1,R0
   \   00000072   0x70CA             STRB     R2,[R1, #+3]
    517                  }
   \   00000074   0x1C40             ADDS     R0,R0,#+1
   \   00000076   0xE7EB             B.N      ??LCB_CmdPack_1
    518              }
    519              
    520              Digital_Cmd_Send_Cmd(&CmdTx);
   \                     ??LCB_CmdPack_0: (+1)
   \   00000078   0x4668             MOV      R0,SP
   \   0000007A   0x.... 0x....      BL       Digital_Cmd_Send_Cmd
    521          }
   \   0000007E   0xB022             ADD      SP,SP,#+136
   \   00000080   0xE8BD 0x81F0      POP      {R4-R8,PC}       ;; return
    522          

   \                                 In section .text, align 2, keep-with-next
    523          void LCB_1ms_Int(void)
    524          {
    525          //    Digital_Cmd_1ms_Int();
    526          //    
    527          //    if(w_KeepOnlineTimer < 0xFFFF) w_KeepOnlineTimer++;
    528          //    if(w_CommonTimer < 0xFFFF) w_CommonTimer++;
    529          //    if(w_SpecialTimer < 0xFFFF) w_SpecialTimer++;
    530          //    if(w_SpeedTimer < 0xFFFF) w_SpeedTimer++;
    531          //    if(w_LostTimer < 0xFFFF) w_LostTimer++;
    532              if(w_OverSpeedCheckTimer < 0xFFFF) w_OverSpeedCheckTimer++;
   \                     LCB_1ms_Int: (+1)
   \   00000000   0x....             LDR.N    R0,??DataTable17
   \   00000002   0x8800             LDRH     R0,[R0, #+0]
   \   00000004   0xF64F 0x71FF      MOVW     R1,#+65535
   \   00000008   0x4288             CMP      R0,R1
   \   0000000A   0xD004             BEQ.N    ??LCB_1ms_Int_0
   \   0000000C   0x....             LDR.N    R0,??DataTable17
   \   0000000E   0x8800             LDRH     R0,[R0, #+0]
   \   00000010   0x1C40             ADDS     R0,R0,#+1
   \   00000012   0x....             LDR.N    R1,??DataTable17
   \   00000014   0x8008             STRH     R0,[R1, #+0]
    533          	    if(w_UnderSpeedCheckTimer < 0xFFFF) w_UnderSpeedCheckTimer++;
   \                     ??LCB_1ms_Int_0: (+1)
   \   00000016   0x....             LDR.N    R0,??DataTable17_1
   \   00000018   0x8800             LDRH     R0,[R0, #+0]
   \   0000001A   0xF64F 0x71FF      MOVW     R1,#+65535
   \   0000001E   0x4288             CMP      R0,R1
   \   00000020   0xD004             BEQ.N    ??LCB_1ms_Int_1
   \   00000022   0x....             LDR.N    R0,??DataTable17_1
   \   00000024   0x8800             LDRH     R0,[R0, #+0]
   \   00000026   0x1C40             ADDS     R0,R0,#+1
   \   00000028   0x....             LDR.N    R1,??DataTable17_1
   \   0000002A   0x8008             STRH     R0,[R1, #+0]
    534              if(time_compute_flag==1)
   \                     ??LCB_1ms_Int_1: (+1)
   \   0000002C   0x....             LDR.N    R0,??DataTable17_6
   \   0000002E   0x8800             LDRH     R0,[R0, #+0]
   \   00000030   0x2801             CMP      R0,#+1
   \   00000032   0xD110             BNE.N    ??LCB_1ms_Int_2
    535              {
    536                if(w_PWM_value > w_PWM_Target)//1mph以下
                          ^
Warning[Pe676]: using out-of-scope declaration of variable "w_PWM_value"
          (declared at line 260)

        if(w_PWM_value > w_PWM_Target)//1mph以下
                         ^
"C:\Users\shaomingkun\Desktop\git\evolve5.0\2021sw\ECOM-5\Modules\LCB_Lib\LCB.c",536  Warning[Pe676]: 
          using out-of-scope declaration of variable "w_PWM_Target" (declared
          at line 259)

  static const RX_DATA_PROPERTY RxDataOffset[RX_DATA_LEN] =
                                ^
"C:\Users\shaomingkun\Desktop\git\evolve5.0\2021sw\ECOM-5\Modules\LCB_Lib\LCB.c",102  Warning[Pe177]: 
          variable "RxDataOffset" was declared but never referenced

  __no_init static LCB_STATE LcbStateBuff[C_LCB_STATE_SIZE];
                             ^
"C:\Users\shaomingkun\Desktop\git\evolve5.0\2021sw\ECOM-5\Modules\LCB_Lib\LCB.c",184  Warning[Pe550]: 
          variable "LcbStateBuff" was set but never used

  __no_init static UCHAR  by_DriverType;
                          ^
"C:\Users\shaomingkun\Desktop\git\evolve5.0\2021sw\ECOM-5\Modules\LCB_Lib\LCB.c",185  Warning[Pe550]: 
          variable "by_DriverType" was set but never used
   \   00000034   0x....             LDR.N    R0,??DataTable17_4
   \   00000036   0x8800             LDRH     R0,[R0, #+0]
   \   00000038   0x....             LDR.N    R1,??DataTable17_5
   \   0000003A   0x8809             LDRH     R1,[R1, #+0]
   \   0000003C   0x4288             CMP      R0,R1
   \   0000003E   0xD205             BCS.N    ??LCB_1ms_Int_3
    537                {
    538                 NoRpmTimer2++;
   \   00000040   0x....             LDR.N    R0,??DataTable17_3
   \   00000042   0x8800             LDRH     R0,[R0, #+0]
   \   00000044   0x1C40             ADDS     R0,R0,#+1
   \   00000046   0x....             LDR.N    R1,??DataTable17_3
   \   00000048   0x8008             STRH     R0,[R1, #+0]
   \   0000004A   0xE004             B.N      ??LCB_1ms_Int_2
    539                }
    540                else
    541                {
    542                NoRpmTimer++;
   \                     ??LCB_1ms_Int_3: (+1)
   \   0000004C   0x....             LDR.N    R0,??DataTable17_2
   \   0000004E   0x8800             LDRH     R0,[R0, #+0]
   \   00000050   0x1C40             ADDS     R0,R0,#+1
   \   00000052   0x....             LDR.N    R1,??DataTable17_2
   \   00000054   0x8008             STRH     R0,[R1, #+0]
    543                }
    544              }
    545          }
   \                     ??LCB_1ms_Int_2: (+1)
   \   00000056   0x4770             BX       LR               ;; return
    546          

   \                                 In section .text, align 2, keep-with-next
    547          void LCB_Add_State(LCB_STATE State)
    548          {
    549              if(by_State_End < (C_LCB_STATE_SIZE-1))
   \                     LCB_Add_State: (+1)
   \   00000000   0x....             LDR.N    R1,??DataTable17_24
   \   00000002   0x7809             LDRB     R1,[R1, #+0]
   \   00000004   0x2913             CMP      R1,#+19
   \   00000006   0xDA05             BGE.N    ??LCB_Add_State_0
    550                  by_State_End++;
   \   00000008   0x....             LDR.N    R1,??DataTable17_24
   \   0000000A   0x7809             LDRB     R1,[R1, #+0]
   \   0000000C   0x1C49             ADDS     R1,R1,#+1
   \   0000000E   0x....             LDR.N    R2,??DataTable17_24
   \   00000010   0x7011             STRB     R1,[R2, #+0]
   \   00000012   0xE002             B.N      ??LCB_Add_State_1
    551              else
    552                  by_State_End = 0;
   \                     ??LCB_Add_State_0: (+1)
   \   00000014   0x2100             MOVS     R1,#+0
   \   00000016   0x....             LDR.N    R2,??DataTable17_24
   \   00000018   0x7011             STRB     R1,[R2, #+0]
    553              
    554              LcbStateBuff[by_State_End] = State;
   \                     ??LCB_Add_State_1: (+1)
   \   0000001A   0x....             LDR.N    R1,??DataTable17_25
   \   0000001C   0x....             LDR.N    R2,??DataTable17_24
   \   0000001E   0x7812             LDRB     R2,[R2, #+0]
   \   00000020   0x5488             STRB     R0,[R1, R2]
    555          }
   \   00000022   0x4770             BX       LR               ;; return
    556          

   \                                 In section .text, align 2, keep-with-next
    557          void LCB_Next_State(void)
    558          {
    559              LcbStateBuff[by_State_Point] = LCB_IDLE;
   \                     LCB_Next_State: (+1)
   \   00000000   0x2003             MOVS     R0,#+3
   \   00000002   0x....             LDR.N    R1,??DataTable17_25
   \   00000004   0x....             LDR.N    R2,??DataTable17_26
   \   00000006   0x7812             LDRB     R2,[R2, #+0]
   \   00000008   0x5488             STRB     R0,[R1, R2]
    560              if(by_State_Point != by_State_End)
   \   0000000A   0x....             LDR.N    R0,??DataTable17_26
   \   0000000C   0x7800             LDRB     R0,[R0, #+0]
   \   0000000E   0x....             LDR.N    R1,??DataTable17_24
   \   00000010   0x7809             LDRB     R1,[R1, #+0]
   \   00000012   0x4288             CMP      R0,R1
   \   00000014   0xD00C             BEQ.N    ??LCB_Next_State_0
    561              {
    562                  if(by_State_Point < (C_LCB_STATE_SIZE-1))                               //发送下一个命令
   \   00000016   0x....             LDR.N    R0,??DataTable17_26
   \   00000018   0x7800             LDRB     R0,[R0, #+0]
   \   0000001A   0x2813             CMP      R0,#+19
   \   0000001C   0xDA05             BGE.N    ??LCB_Next_State_1
    563                      ++by_State_Point;
   \   0000001E   0x....             LDR.N    R0,??DataTable17_26
   \   00000020   0x7800             LDRB     R0,[R0, #+0]
   \   00000022   0x1C40             ADDS     R0,R0,#+1
   \   00000024   0x....             LDR.N    R1,??DataTable17_26
   \   00000026   0x7008             STRB     R0,[R1, #+0]
   \   00000028   0xE002             B.N      ??LCB_Next_State_0
    564                  else
    565                      by_State_Point = 0;
   \                     ??LCB_Next_State_1: (+1)
   \   0000002A   0x2000             MOVS     R0,#+0
   \   0000002C   0x....             LDR.N    R1,??DataTable17_26
   \   0000002E   0x7008             STRB     R0,[R1, #+0]
    566              } 
    567          }
   \                     ??LCB_Next_State_0: (+1)
   \   00000030   0x4770             BX       LR               ;; return
    568          

   \                                 In section .text, align 2, keep-with-next
    569          void LCB_Power_On(void)
    570          {
   \                     LCB_Power_On: (+1)
   \   00000000   0xB580             PUSH     {R7,LR}
    571              Incline_Initial_Data();
   \   00000002   0x.... 0x....      BL       Incline_Initial_Data
    572              Speed_Initial_Data();
   \   00000006   0x.... 0x....      BL       Speed_Initial_Data
    573              RPM_Initial_Data();
   \   0000000A   0x.... 0x....      BL       RPM_Initial_Data
    574              if(Incline_Get_Incline_Reset() == 1)//press reset
   \   0000000E   0x.... 0x....      BL       Incline_Get_Incline_Reset
   \   00000012   0x2801             CMP      R0,#+1
   \   00000014   0xD107             BNE.N    ??LCB_Power_On_0
    575              {
    576                Incline_Set_Incline_Reset(0);
   \   00000016   0x2000             MOVS     R0,#+0
   \   00000018   0x.... 0x....      BL       Incline_Set_Incline_Reset
    577                Incline_Set_Pause(0);
   \   0000001C   0x2000             MOVS     R0,#+0
   \   0000001E   0x.... 0x....      BL       Incline_Set_Pause
    578                Incline_Set_EZero();
   \   00000022   0x.... 0x....      BL       Incline_Set_EZero
    579              }
    580          }
   \                     ??LCB_Power_On_0: (+1)
   \   00000026   0xBD01             POP      {R0,PC}          ;; return
    581          

   \                                 In section .text, align 2, keep-with-next
    582          void LCB_Set_DriverType(UCHAR DriverType)
    583          {
    584              by_DriverType = DriverType;
   \                     LCB_Set_DriverType: (+1)
   \   00000000   0x....             LDR.N    R1,??DataTable17_27
   \   00000002   0x7008             STRB     R0,[R1, #+0]
    585          }
   \   00000004   0x4770             BX       LR               ;; return
    586          

   \                                 In section .text, align 2, keep-with-next
    587          void LCB_Speed_Update(void)
    588          {
   \                     LCB_Speed_Update: (+1)
   \   00000000   0xB410             PUSH     {R4}
    589              if(w_TargetSpeed > w_CurrentSpeed)
   \   00000002   0x....             LDR.N    R0,??DataTable17_28
   \   00000004   0x8800             LDRH     R0,[R0, #+0]
   \   00000006   0x....             LDR.N    R1,??DataTable17_18
   \   00000008   0x8809             LDRH     R1,[R1, #+0]
   \   0000000A   0x4288             CMP      R0,R1
   \   0000000C   0xD215             BCS.N    ??LCB_Speed_Update_0
    590              {
    591                  if((w_CurrentSpeed + SpeedRef.AddStep) <= w_TargetSpeed) 
   \   0000000E   0x....             LDR.N    R0,??DataTable17_18
   \   00000010   0x8800             LDRH     R0,[R0, #+0]
   \   00000012   0x....             LDR.N    R1,??DataTable17_28
   \   00000014   0x8809             LDRH     R1,[R1, #+0]
   \   00000016   0x....             LDR.N    R2,??DataTable17_29
   \   00000018   0x7892             LDRB     R2,[R2, #+2]
   \   0000001A   0x1851             ADDS     R1,R2,R1
   \   0000001C   0x4288             CMP      R0,R1
   \   0000001E   0xDB07             BLT.N    ??LCB_Speed_Update_1
    592                  {
    593                      w_CurrentSpeed += SpeedRef.AddStep;
   \   00000020   0x....             LDR.N    R0,??DataTable17_28
   \   00000022   0x8800             LDRH     R0,[R0, #+0]
   \   00000024   0x....             LDR.N    R1,??DataTable17_29
   \   00000026   0x7889             LDRB     R1,[R1, #+2]
   \   00000028   0x1808             ADDS     R0,R1,R0
   \   0000002A   0x....             LDR.N    R1,??DataTable17_28
   \   0000002C   0x8008             STRH     R0,[R1, #+0]
   \   0000002E   0xE024             B.N      ??LCB_Speed_Update_2
    594                  }
    595                  else
    596                  {
    597                      w_CurrentSpeed = w_TargetSpeed;
   \                     ??LCB_Speed_Update_1: (+1)
   \   00000030   0x....             LDR.N    R0,??DataTable17_18
   \   00000032   0x8800             LDRH     R0,[R0, #+0]
   \   00000034   0x....             LDR.N    R1,??DataTable17_28
   \   00000036   0x8008             STRH     R0,[R1, #+0]
   \   00000038   0xE01F             B.N      ??LCB_Speed_Update_2
    598                  }
    599              }
    600              else if(w_TargetSpeed < w_CurrentSpeed)
   \                     ??LCB_Speed_Update_0: (+1)
   \   0000003A   0x....             LDR.N    R0,??DataTable17_18
   \   0000003C   0x8800             LDRH     R0,[R0, #+0]
   \   0000003E   0x....             LDR.N    R1,??DataTable17_28
   \   00000040   0x8809             LDRH     R1,[R1, #+0]
   \   00000042   0x4288             CMP      R0,R1
   \   00000044   0xD215             BCS.N    ??LCB_Speed_Update_3
    601              {
    602                  if((w_CurrentSpeed - SpeedRef.DecStep) >= w_TargetSpeed) 
   \   00000046   0x....             LDR.N    R0,??DataTable17_28
   \   00000048   0x8800             LDRH     R0,[R0, #+0]
   \   0000004A   0x....             LDR.N    R1,??DataTable17_29
   \   0000004C   0x78C9             LDRB     R1,[R1, #+3]
   \   0000004E   0x1A40             SUBS     R0,R0,R1
   \   00000050   0x....             LDR.N    R1,??DataTable17_18
   \   00000052   0x8809             LDRH     R1,[R1, #+0]
   \   00000054   0x4288             CMP      R0,R1
   \   00000056   0xDB07             BLT.N    ??LCB_Speed_Update_4
    603                  {
    604                      w_CurrentSpeed -= SpeedRef.DecStep;
   \   00000058   0x....             LDR.N    R0,??DataTable17_28
   \   0000005A   0x8800             LDRH     R0,[R0, #+0]
   \   0000005C   0x....             LDR.N    R1,??DataTable17_29
   \   0000005E   0x78C9             LDRB     R1,[R1, #+3]
   \   00000060   0x1A40             SUBS     R0,R0,R1
   \   00000062   0x....             LDR.N    R1,??DataTable17_28
   \   00000064   0x8008             STRH     R0,[R1, #+0]
   \   00000066   0xE008             B.N      ??LCB_Speed_Update_2
    605                  }
    606                  else
    607                  {
    608                      w_CurrentSpeed = w_TargetSpeed;
   \                     ??LCB_Speed_Update_4: (+1)
   \   00000068   0x....             LDR.N    R0,??DataTable17_18
   \   0000006A   0x8800             LDRH     R0,[R0, #+0]
   \   0000006C   0x....             LDR.N    R1,??DataTable17_28
   \   0000006E   0x8008             STRH     R0,[R1, #+0]
   \   00000070   0xE003             B.N      ??LCB_Speed_Update_2
    609                  }
    610              }
    611              else
    612              {
    613                  w_CurrentSpeed = w_TargetSpeed;
   \                     ??LCB_Speed_Update_3: (+1)
   \   00000072   0x....             LDR.N    R0,??DataTable17_18
   \   00000074   0x8800             LDRH     R0,[R0, #+0]
   \   00000076   0x....             LDR.N    R1,??DataTable17_28
   \   00000078   0x8008             STRH     R0,[R1, #+0]
    614              }
    615              
    616              
    617              //LCB_Send_Cmd(DS_MOT_RPM, w_CurrentSpeed);
    618              COM_TYPE CmdType = DS_MOT_RPM;
   \                     ??LCB_Speed_Update_2: (+1)
   \   0000007A   0x2009             MOVS     R0,#+9
    619              UINT32 w_Data = w_CurrentSpeed;
   \   0000007C   0x....             LDR.N    R1,??DataTable17_28
   \   0000007E   0x8809             LDRH     R1,[R1, #+0]
    620              
    621              //待发送Buff中已有相同命令,则丢弃
    622              for(UCHAR i=0; i<C_TX_BUFF_SIZE; i++)
   \   00000080   0x2200             MOVS     R2,#+0
   \                     ??LCB_Speed_Update_5: (+1)
   \   00000082   0xB2D2             UXTB     R2,R2            ;; ZeroExt  R2,R2,#+24,#+24
   \   00000084   0x2A14             CMP      R2,#+20
   \   00000086   0xDA10             BGE.N    ??LCB_Speed_Update_6
    623              {
    624                  if(Cmd_Buffer[i].CmdType == CmdType && Cmd_Buffer[i].Data == w_Data)
   \   00000088   0x....             LDR.N    R3,??DataTable17_20
   \   0000008A   0xB2D2             UXTB     R2,R2            ;; ZeroExt  R2,R2,#+24,#+24
   \   0000008C   0xF813 0x3032      LDRB     R3,[R3, R2, LSL #+3]
   \   00000090   0x0004             MOVS     R4,R0
   \   00000092   0xB2E4             UXTB     R4,R4            ;; ZeroExt  R4,R4,#+24,#+24
   \   00000094   0x42A3             CMP      R3,R4
   \   00000096   0xD106             BNE.N    ??LCB_Speed_Update_7
   \   00000098   0x....             LDR.N    R3,??DataTable17_20
   \   0000009A   0xB2D2             UXTB     R2,R2            ;; ZeroExt  R2,R2,#+24,#+24
   \   0000009C   0xEB03 0x03C2      ADD      R3,R3,R2, LSL #+3
   \   000000A0   0x685B             LDR      R3,[R3, #+4]
   \   000000A2   0x428B             CMP      R3,R1
   \   000000A4   0xD019             BEQ.N    ??LCB_Speed_Update_8
    625                  {
    626                      return;
    627                  }
    628              }
   \                     ??LCB_Speed_Update_7: (+1)
   \   000000A6   0x1C52             ADDS     R2,R2,#+1
   \   000000A8   0xE7EB             B.N      ??LCB_Speed_Update_5
    629              
    630              //存入Buff中
    631              if(by_Command_End < (C_TX_BUFF_SIZE-1))
   \                     ??LCB_Speed_Update_6: (+1)
   \   000000AA   0x....             LDR.N    R2,??DataTable17_21
   \   000000AC   0x7812             LDRB     R2,[R2, #+0]
   \   000000AE   0x2A13             CMP      R2,#+19
   \   000000B0   0xDA05             BGE.N    ??LCB_Speed_Update_9
    632                  by_Command_End++;
   \   000000B2   0x....             LDR.N    R2,??DataTable17_21
   \   000000B4   0x7812             LDRB     R2,[R2, #+0]
   \   000000B6   0x1C52             ADDS     R2,R2,#+1
   \   000000B8   0x....             LDR.N    R3,??DataTable17_21
   \   000000BA   0x701A             STRB     R2,[R3, #+0]
   \   000000BC   0xE002             B.N      ??LCB_Speed_Update_10
    633              else
    634                  by_Command_End = 0;
   \                     ??LCB_Speed_Update_9: (+1)
   \   000000BE   0x2200             MOVS     R2,#+0
   \   000000C0   0x....             LDR.N    R3,??DataTable17_21
   \   000000C2   0x701A             STRB     R2,[R3, #+0]
    635              
    636              
    637              Cmd_Buffer[by_Command_End].CmdType  = CmdType;
   \                     ??LCB_Speed_Update_10: (+1)
   \   000000C4   0x....             LDR.N    R2,??DataTable17_20
   \   000000C6   0x....             LDR.N    R3,??DataTable17_21
   \   000000C8   0x781B             LDRB     R3,[R3, #+0]
   \   000000CA   0xF802 0x0033      STRB     R0,[R2, R3, LSL #+3]
    638              Cmd_Buffer[by_Command_End].Data = w_Data;
   \   000000CE   0x....             LDR.N    R2,??DataTable17_20
   \   000000D0   0x....             LDR.N    R3,??DataTable17_21
   \   000000D2   0x781B             LDRB     R3,[R3, #+0]
   \   000000D4   0xEB02 0x02C3      ADD      R2,R2,R3, LSL #+3
   \   000000D8   0x6051             STR      R1,[R2, #+4]
    639          }
   \                     ??LCB_Speed_Update_8: (+1)
   \   000000DA   0xBC10             POP      {R4}
   \   000000DC   0x4770             BX       LR               ;; return
    640          

   \                                 In section .text, align 2, keep-with-next
    641          UCHAR LCB_Get_MCBType(void)
    642          {
    643              return by_MCBType;
   \                     LCB_Get_MCBType: (+1)
   \   00000000   0x....             LDR.N    R0,??DataTable17_19
   \   00000002   0x7800             LDRB     R0,[R0, #+0]
   \   00000004   0x4770             BX       LR               ;; return
    644          }
    645          

   \                                 In section .text, align 2, keep-with-next
    646          UINT16 LCB_Get_Version(void)
    647          {
    648              return w_MCBVersion;
   \                     LCB_Get_Version: (+1)
   \   00000000   0x....             LDR.N    R0,??DataTable17_30
   \   00000002   0x8800             LDRH     R0,[R0, #+0]
   \   00000004   0x4770             BX       LR               ;; return
    649          }
    650          

   \                                 In section .text, align 2, keep-with-next
    651          void LCB_Set_SpeedRef(LCB_SPEED_REF *Ref)
    652          {
   \                     LCB_Set_SpeedRef: (+1)
   \   00000000   0xB570             PUSH     {R4-R6,LR}
   \   00000002   0x0004             MOVS     R4,R0
    653              memcpy(&SpeedRef, (void*)Ref, sizeof(SpeedRef));
   \   00000004   0x2504             MOVS     R5,#+4
   \   00000006   0x....             LDR.N    R6,??DataTable17_29
   \   00000008   0x002A             MOVS     R2,R5
   \   0000000A   0x0021             MOVS     R1,R4
   \   0000000C   0x0030             MOVS     R0,R6
   \   0000000E   0x.... 0x....      BL       __aeabi_memcpy
    654          }
   \   00000012   0xBD70             POP      {R4-R6,PC}       ;; return
    655          

   \                                 In section .text, align 2, keep-with-next
    656          void LCB_Get_Induct(UINT16 *pw)
    657          {
    658              for(UCHAR i=0; i<5; i++)
   \                     LCB_Get_Induct: (+1)
   \   00000000   0x2100             MOVS     R1,#+0
   \                     ??LCB_Get_Induct_0: (+1)
   \   00000002   0xB2C9             UXTB     R1,R1            ;; ZeroExt  R1,R1,#+24,#+24
   \   00000004   0x2905             CMP      R1,#+5
   \   00000006   0xDA08             BGE.N    ??LCB_Get_Induct_1
    659              {
    660                  pw[i] = w_InductData[i];
   \   00000008   0x....             LDR.N    R2,??DataTable17_31
   \   0000000A   0xB2C9             UXTB     R1,R1            ;; ZeroExt  R1,R1,#+24,#+24
   \   0000000C   0xF832 0x2011      LDRH     R2,[R2, R1, LSL #+1]
   \   00000010   0xB2C9             UXTB     R1,R1            ;; ZeroExt  R1,R1,#+24,#+24
   \   00000012   0xF820 0x2011      STRH     R2,[R0, R1, LSL #+1]
    661              }
   \   00000016   0x1C49             ADDS     R1,R1,#+1
   \   00000018   0xE7F3             B.N      ??LCB_Get_Induct_0
    662          }
   \                     ??LCB_Get_Induct_1: (+1)
   \   0000001A   0x4770             BX       LR               ;; return
    663          

   \                                 In section .text, align 2, keep-with-next
    664          void LCB_Erp(void)
    665          {
   \                     LCB_Erp: (+1)
   \   00000000   0xB580             PUSH     {R7,LR}
    666              LCB_Add_State(LCB_ERP);
   \   00000002   0x2002             MOVS     R0,#+2
   \   00000004   0x.... 0x....      BL       LCB_Add_State
    667          }
   \   00000008   0xBD01             POP      {R0,PC}          ;; return

   \                                 In section .text, align 2, keep-with-next
    668          void LCB_Initial_IO(void)
    669          {
   \                     LCB_Initial_IO: (+1)
   \   00000000   0xB580             PUSH     {R7,LR}
    670          //	HAL_DLCB_Initial_IO();
    671           //   HAL_SystemTicker_Alloc_ISR(Incline_1ms_Int);
    672          //	HAL_Digital_Regist_ISR(Digital_Cmd_Tx_Int,Digital_Cmd_Rx_Int);
    673                  Hal_Regist_ISR(MS_ISR, Incline_ISR_IDX, Incline_1ms_Int);
   \   00000002   0x....             LDR.N    R2,??DataTable17_32
   \   00000004   0x2123             MOVS     R1,#+35
   \   00000006   0x2000             MOVS     R0,#+0
   \   00000008   0x.... 0x....      BL       Hal_Regist_ISR
    674                  Hal_Regist_ISR(MS_ISR, Speed_ISR_IDX, Speed_1ms_Int);
   \   0000000C   0x....             LDR.N    R2,??DataTable17_33
   \   0000000E   0x2124             MOVS     R1,#+36
   \   00000010   0x2000             MOVS     R0,#+0
   \   00000012   0x.... 0x....      BL       Hal_Regist_ISR
    675              //HAL_PININT_Alloc_ISR(Incline_INT_ISR);
    676              //HAL_SystemTicker_Alloc_ISR(Speed_1ms_Int);
    677              HAL_INT_Regist_Pin_INT(PIN_INT_INCLINE,Incline_INT_ISR);    //zsf
   \   00000016   0x....             LDR.N    R1,??DataTable17_34
   \   00000018   0x2005             MOVS     R0,#+5
   \   0000001A   0x.... 0x....      BL       HAL_INT_Regist_Pin_INT
    678          
    679          }
   \   0000001E   0xBD01             POP      {R0,PC}          ;; return
    680          

   \                                 In section .bss, align 4
    681          float K,B;
   \                     K:
   \   00000000                      DS8 4

   \                                 In section .bss, align 4
   \                     `B`:
   \   00000000                      DS8 4

   \                                 In section .text, align 2, keep-with-next
    682          void Speed_Compute()
    683          {
   \                     Speed_Compute: (+1)
   \   00000000   0xB538             PUSH     {R3-R5,LR}
    684            extern UINT16 w_PWM_Time;
    685            static int pwm_min,pwm_max;
    686            static int Rpm_min,Rpm_max;
    687            pwm_min=SystemConfig_Get_Int(PWM_MIN_UINT16);
   \   00000002   0x2040             MOVS     R0,#+64
   \   00000004   0x.... 0x....      BL       SystemConfig_Get_Int
   \   00000008   0x....             LDR.N    R1,??DataTable17_35
   \   0000000A   0x6008             STR      R0,[R1, #+0]
    688            pwm_max=SystemConfig_Get_Int(PWM_MAX_UINT16);
   \   0000000C   0x203C             MOVS     R0,#+60
   \   0000000E   0x.... 0x....      BL       SystemConfig_Get_Int
   \   00000012   0x....             LDR.N    R1,??DataTable17_36
   \   00000014   0x6008             STR      R0,[R1, #+0]
    689            Rpm_max=Speed_Get_MAX();
   \   00000016   0x.... 0x....      BL       Speed_Get_MAX
   \   0000001A   0x....             LDR.N    R1,??DataTable17_37
   \   0000001C   0x6008             STR      R0,[R1, #+0]
    690            Rpm_min=Speed_Get_MIN();
   \   0000001E   0x.... 0x....      BL       Speed_Get_MIN
   \   00000022   0x....             LDR.N    R1,??DataTable17_38
   \   00000024   0x6008             STR      R0,[R1, #+0]
    691            K=((float)pwm_max-pwm_min)/((float)Rpm_max-Rpm_min);
   \   00000026   0x....             LDR.N    R0,??DataTable17_36
   \   00000028   0x6800             LDR      R0,[R0, #+0]
   \   0000002A   0x.... 0x....      BL       __aeabi_i2f
   \   0000002E   0x0004             MOVS     R4,R0
   \   00000030   0x....             LDR.N    R0,??DataTable17_35
   \   00000032   0x6800             LDR      R0,[R0, #+0]
   \   00000034   0x.... 0x....      BL       __aeabi_i2f
   \   00000038   0x0001             MOVS     R1,R0
   \   0000003A   0x0020             MOVS     R0,R4
   \   0000003C   0x.... 0x....      BL       __aeabi_fsub
   \   00000040   0x0004             MOVS     R4,R0
   \   00000042   0x....             LDR.N    R0,??DataTable17_37
   \   00000044   0x6800             LDR      R0,[R0, #+0]
   \   00000046   0x.... 0x....      BL       __aeabi_i2f
   \   0000004A   0x0005             MOVS     R5,R0
   \   0000004C   0x....             LDR.N    R0,??DataTable17_38
   \   0000004E   0x6800             LDR      R0,[R0, #+0]
   \   00000050   0x.... 0x....      BL       __aeabi_i2f
   \   00000054   0x0001             MOVS     R1,R0
   \   00000056   0x0028             MOVS     R0,R5
   \   00000058   0x.... 0x....      BL       __aeabi_fsub
   \   0000005C   0x0001             MOVS     R1,R0
   \   0000005E   0x0020             MOVS     R0,R4
   \   00000060   0x.... 0x....      BL       __aeabi_fdiv
   \   00000064   0x....             LDR.N    R1,??DataTable17_39
   \   00000066   0x6008             STR      R0,[R1, #+0]
    692            B=((float)pwm_max-Rpm_max*K);  
   \   00000068   0x....             LDR.N    R0,??DataTable17_36
   \   0000006A   0x6800             LDR      R0,[R0, #+0]
   \   0000006C   0x.... 0x....      BL       __aeabi_i2f
   \   00000070   0x0004             MOVS     R4,R0
   \   00000072   0x....             LDR.N    R0,??DataTable17_37
   \   00000074   0x6800             LDR      R0,[R0, #+0]
   \   00000076   0x.... 0x....      BL       __aeabi_i2f
   \   0000007A   0x....             LDR.N    R1,??DataTable17_39
   \   0000007C   0x6809             LDR      R1,[R1, #+0]
   \   0000007E   0x.... 0x....      BL       __aeabi_fmul
   \   00000082   0x0001             MOVS     R1,R0
   \   00000084   0x0020             MOVS     R0,R4
   \   00000086   0x.... 0x....      BL       __aeabi_fsub
   \   0000008A   0x....             LDR.N    R1,??DataTable17_40
   \   0000008C   0x6008             STR      R0,[R1, #+0]
    693            tempRPMBak=(int)(((w_PWM_Time-B)/K)*10);
   \   0000008E   0x....             LDR.N    R0,??DataTable17_12
   \   00000090   0x8800             LDRH     R0,[R0, #+0]
   \   00000092   0x.... 0x....      BL       __aeabi_ui2f
   \   00000096   0x....             LDR.N    R1,??DataTable17_40
   \   00000098   0x6809             LDR      R1,[R1, #+0]
   \   0000009A   0x.... 0x....      BL       __aeabi_fsub
   \   0000009E   0x....             LDR.N    R1,??DataTable17_39
   \   000000A0   0x6809             LDR      R1,[R1, #+0]
   \   000000A2   0x.... 0x....      BL       __aeabi_fdiv
   \   000000A6   0x....             LDR.N    R1,??DataTable17_41  ;; 0x41200000
   \   000000A8   0x.... 0x....      BL       __aeabi_fmul
   \   000000AC   0x.... 0x....      BL       __aeabi_f2iz
   \   000000B0   0x....             LDR.N    R1,??DataTable17_9
   \   000000B2   0x8008             STRH     R0,[R1, #+0]
    694          }
   \   000000B4   0xBD31             POP      {R0,R4,R5,PC}    ;; return

   \                                 In section .bss, align 4
   \                     `Speed_Compute::pwm_min`:
   \   00000000                      DS8 4

   \                                 In section .bss, align 4
   \                     `Speed_Compute::pwm_max`:
   \   00000000                      DS8 4

   \                                 In section .bss, align 4
   \                     `Speed_Compute::Rpm_min`:
   \   00000000                      DS8 4

   \                                 In section .bss, align 4
   \                     `Speed_Compute::Rpm_max`:
   \   00000000                      DS8 4

   \                                 In section .text, align 4, keep-with-next
   \                     ??DataTable17:
   \   00000000   0x........         DC32     w_OverSpeedCheckTimer

   \                                 In section .text, align 4, keep-with-next
   \                     ??DataTable17_1:
   \   00000000   0x........         DC32     w_UnderSpeedCheckTimer

   \                                 In section .text, align 4, keep-with-next
   \                     ??DataTable17_2:
   \   00000000   0x........         DC32     NoRpmTimer

   \                                 In section .text, align 4, keep-with-next
   \                     ??DataTable17_3:
   \   00000000   0x........         DC32     NoRpmTimer2

   \                                 In section .text, align 4, keep-with-next
   \                     ??DataTable17_4:
   \   00000000   0x........         DC32     w_PWM_Target

   \                                 In section .text, align 4, keep-with-next
   \                     ??DataTable17_5:
   \   00000000   0x........         DC32     w_PWM_value

   \                                 In section .text, align 4, keep-with-next
   \                     ??DataTable17_6:
   \   00000000   0x........         DC32     time_compute_flag

   \                                 In section .text, align 4, keep-with-next
   \                     ??DataTable17_7:
   \   00000000   0x........         DC32     Show_NoSpeed_Error_Flag

   \                                 In section .text, align 4, keep-with-next
   \                     ??DataTable17_8:
   \   00000000   0x........         DC32     tempRPM

   \                                 In section .text, align 4, keep-with-next
   \                     ??DataTable17_9:
   \   00000000   0x........         DC32     tempRPMBak

   \                                 In section .text, align 4, keep-with-next
   \                     ??DataTable17_10:
   \   00000000   0x........         DC32     `LCB_Process::_overspeedtimes`

   \                                 In section .text, align 4, keep-with-next
   \                     ??DataTable17_11:
   \   00000000   0x........         DC32     Show_Speed_Burst_Flag

   \                                 In section .text, align 4, keep-with-next
   \                     ??DataTable17_12:
   \   00000000   0x........         DC32     w_PWM_Time

   \                                 In section .text, align 4, keep-with-next
   \                     ??DataTable17_13:
   \   00000000   0x........         DC32     UnderSpeed_count

   \                                 In section .text, align 4, keep-with-next
   \                     ??DataTable17_14:
   \   00000000   0x........         DC32     Show_Underspeed_Flag

   \                                 In section .text, align 4, keep-with-next
   \                     ??DataTable17_15:
   \   00000000   0x........         DC32     Pause_Status_flag

   \                                 In section .text, align 4, keep-with-next
   \                     ??DataTable17_16:
   \   00000000   0x........         DC32     aby_Total

   \                                 In section .text, align 4, keep-with-next
   \                     ??DataTable17_17:
   \   00000000   0x........         DC32     Offset_Adress

   \                                 In section .text, align 4, keep-with-next
   \                     ??DataTable17_18:
   \   00000000   0x........         DC32     w_TargetSpeed

   \                                 In section .text, align 4, keep-with-next
   \                     ??DataTable17_19:
   \   00000000   0x........         DC32     by_MCBType

   \                                 In section .text, align 4, keep-with-next
   \                     ??DataTable17_20:
   \   00000000   0x........         DC32     Cmd_Buffer

   \                                 In section .text, align 4, keep-with-next
   \                     ??DataTable17_21:
   \   00000000   0x........         DC32     by_Command_End

   \                                 In section .text, align 4, keep-with-next
   \                     ??DataTable17_22:
   \   00000000   0x........         DC32     w_ErrorCode

   \                                 In section .text, align 4, keep-with-next
   \                     ??DataTable17_23:
   \   00000000   0x........         DC32     Cmd_Talbe

   \                                 In section .text, align 4, keep-with-next
   \                     ??DataTable17_24:
   \   00000000   0x........         DC32     by_State_End

   \                                 In section .text, align 4, keep-with-next
   \                     ??DataTable17_25:
   \   00000000   0x........         DC32     LcbStateBuff

   \                                 In section .text, align 4, keep-with-next
   \                     ??DataTable17_26:
   \   00000000   0x........         DC32     by_State_Point

   \                                 In section .text, align 4, keep-with-next
   \                     ??DataTable17_27:
   \   00000000   0x........         DC32     by_DriverType

   \                                 In section .text, align 4, keep-with-next
   \                     ??DataTable17_28:
   \   00000000   0x........         DC32     w_CurrentSpeed

   \                                 In section .text, align 4, keep-with-next
   \                     ??DataTable17_29:
   \   00000000   0x........         DC32     SpeedRef

   \                                 In section .text, align 4, keep-with-next
   \                     ??DataTable17_30:
   \   00000000   0x........         DC32     w_MCBVersion

   \                                 In section .text, align 4, keep-with-next
   \                     ??DataTable17_31:
   \   00000000   0x........         DC32     w_InductData

   \                                 In section .text, align 4, keep-with-next
   \                     ??DataTable17_32:
   \   00000000   0x........         DC32     Incline_1ms_Int

   \                                 In section .text, align 4, keep-with-next
   \                     ??DataTable17_33:
   \   00000000   0x........         DC32     Speed_1ms_Int

   \                                 In section .text, align 4, keep-with-next
   \                     ??DataTable17_34:
   \   00000000   0x........         DC32     Incline_INT_ISR

   \                                 In section .text, align 4, keep-with-next
   \                     ??DataTable17_35:
   \   00000000   0x........         DC32     `Speed_Compute::pwm_min`

   \                                 In section .text, align 4, keep-with-next
   \                     ??DataTable17_36:
   \   00000000   0x........         DC32     `Speed_Compute::pwm_max`

   \                                 In section .text, align 4, keep-with-next
   \                     ??DataTable17_37:
   \   00000000   0x........         DC32     `Speed_Compute::Rpm_max`

   \                                 In section .text, align 4, keep-with-next
   \                     ??DataTable17_38:
   \   00000000   0x........         DC32     `Speed_Compute::Rpm_min`

   \                                 In section .text, align 4, keep-with-next
   \                     ??DataTable17_39:
   \   00000000   0x........         DC32     K

   \                                 In section .text, align 4, keep-with-next
   \                     ??DataTable17_40:
   \   00000000   0x........         DC32     `B`

   \                                 In section .text, align 4, keep-with-next
   \                     ??DataTable17_41:
   \   00000000   0x41200000         DC32     0x41200000
    695          
    696          
    697          

   Maximum stack usage in bytes:

   .cstack Function
   ------- --------
       0   LCB_1ms_Int
       0   LCB_Add_State
      24   LCB_Clear_Data
        24   -> __aeabi_memset
     160   LCB_CmdPack
       160   -> Digital_Cmd_Send_Cmd
       160   -> __aeabi_memset
       0   LCB_CmdProcess
       0   LCB_Dectect_Error
       8   LCB_Erp
         8   -> LCB_Add_State
       4   LCB_Get_Data
       0   LCB_Get_Induct
       0   LCB_Get_MCBType
       0   LCB_Get_Version
       8   LCB_Initial
         8   -> RPM_Calculate_Pulse_Limit
         8   -> RPM_Set_Scorll
         8   -> Speed_Compute_PWM
         8   -> Speed_Initial_Data
         8   -> Speed_Set_MAX
         8   -> Speed_Set_MID
         8   -> Speed_Set_MIN
         8   -> Speed_Set_PWM_MAX
         8   -> Speed_Set_PWM_MID
         8   -> Speed_Set_PWM_MIN
         8   -> Speed_Set_PWM_SP1
         8   -> Speed_Set_PWM_SP2
         8   -> Speed_Set_SP1
         8   -> Speed_Set_SP2
         8   -> SystemConfig_Get_Char
         8   -> SystemConfig_Get_Int
       8   LCB_Initial_IO
         8   -> HAL_INT_Regist_Pin_INT
         8   -> Hal_Regist_ISR
       0   LCB_Next_State
       8   LCB_Power_On
         8   -> Incline_Get_Incline_Reset
         8   -> Incline_Initial_Data
         8   -> Incline_Set_EZero
         8   -> Incline_Set_Incline_Reset
         8   -> Incline_Set_Pause
         8   -> RPM_Initial_Data
         8   -> Speed_Initial_Data
      16   LCB_Process
        16   -> Event_Set_Virtual_key
        16   -> Incline_Get_Incline_Active
        16   -> Incline_Process
        16   -> Incline_Set_EZero
        16   -> Incline_Set_Incline_Reset
        16   -> Incline_Set_Pause
        16   -> Program_Get_Status
        16   -> Program_Set_Status
        16   -> RPM_Get_OK
        16   -> RPM_Get_Speed
        16   -> RPM_Process_Decoder
        16   -> Speed_Compute
        16   -> SystemConfig_Get_Display_Unit
        16   -> User_Get_UserSlot
       4   LCB_Send_Cmd
       0   LCB_Set_DriverType
      16   LCB_Set_SpeedRef
        16   -> __aeabi_memcpy
       4   LCB_Speed_Update
      16   Speed_Compute
        16   -> Speed_Get_MAX
        16   -> Speed_Get_MIN
        16   -> SystemConfig_Get_Int
        16   -> __aeabi_f2iz
        16   -> __aeabi_fdiv
        16   -> __aeabi_fmul
        16   -> __aeabi_fsub
        16   -> __aeabi_i2f
        16   -> __aeabi_ui2f


   Section sizes:

   Bytes  Function/Label
   -----  --------------
       4  ??DataTable17
       4  ??DataTable17_1
       4  ??DataTable17_10
       4  ??DataTable17_11
       4  ??DataTable17_12
       4  ??DataTable17_13
       4  ??DataTable17_14
       4  ??DataTable17_15
       4  ??DataTable17_16
       4  ??DataTable17_17
       4  ??DataTable17_18
       4  ??DataTable17_19
       4  ??DataTable17_2
       4  ??DataTable17_20
       4  ??DataTable17_21
       4  ??DataTable17_22
       4  ??DataTable17_23
       4  ??DataTable17_24
       4  ??DataTable17_25
       4  ??DataTable17_26
       4  ??DataTable17_27
       4  ??DataTable17_28
       4  ??DataTable17_29
       4  ??DataTable17_3
       4  ??DataTable17_30
       4  ??DataTable17_31
       4  ??DataTable17_32
       4  ??DataTable17_33
       4  ??DataTable17_34
       4  ??DataTable17_35
       4  ??DataTable17_36
       4  ??DataTable17_37
       4  ??DataTable17_38
       4  ??DataTable17_39
       4  ??DataTable17_4
       4  ??DataTable17_40
       4  ??DataTable17_41
       4  ??DataTable17_5
       4  ??DataTable17_6
       4  ??DataTable17_7
       4  ??DataTable17_8
       4  ??DataTable17_9
       4  B
     160  Cmd_Buffer
     132  Cmd_Talbe
       4  K
      88  LCB_1ms_Int
      36  LCB_Add_State
      58  LCB_Clear_Data
     132  LCB_CmdPack
       2  LCB_CmdProcess
      18  LCB_Dectect_Error
      10  LCB_Erp
     290  LCB_Get_Data
      28  LCB_Get_Induct
       6  LCB_Get_MCBType
       6  LCB_Get_Version
     200  LCB_Initial
      32  LCB_Initial_IO
      50  LCB_Next_State
      40  LCB_Power_On
     698  LCB_Process
     180  LCB_Send_Cmd
       6  LCB_Set_DriverType
      20  LCB_Set_SpeedRef
     222  LCB_Speed_Update
      20  LcbStateBuff
       2  NoRpmTimer
       2  NoRpmTimer2
      72  Offset_Adress
       1  Pause_Status_flag
       4  Rpm_max
       4  Rpm_min
       2  Show_NoSpeed_Error_Flag
       2  Show_Speed_Burst_Flag
       2  Show_Underspeed_Flag
       4  SpeedRef
     182  Speed_Compute
       2  UnderSpeed_count
       1  _overspeedtimes
      80  aby_Total
       1  by_Command_End
       1  by_DriverType
       1  by_MCBType
       1  by_State_End
       1  by_State_Point
       4  pwm_max
       4  pwm_min
       2  tempRPM
       2  tempRPMBak
       2  test
       2  time_compute_flag
       2  w_CurrentSpeed
       2  w_ErrorCode
      12  w_InductData
       2  w_MCBVersion
       2  w_OverSpeedCheckTimer
       2  w_TargetSpeed
       2  w_UnderSpeedCheckTimer

 
    40 bytes in section .bss
   371 bytes in section .noinit
   132 bytes in section .rodata
 2 472 bytes in section .text
 
 2 472 bytes of CODE  memory
   132 bytes of CONST memory
   411 bytes of DATA  memory

Errors: none
Warnings: 34
