###############################################################################
#
# IAR ANSI C/C++ Compiler V7.80.4.12462/W32 for ARM       12/Dec/2022  11:41:24
# Copyright 1999-2017 IAR Systems AB.
#
#    Cpu mode     =  thumb
#    Endian       =  little
#    Source file  =  
#        C:\Users\shaomingkun\Desktop\git\evolve5.0\2021sw\ECOM-5\Modules\Program_lib\Pro_manual.c
#    Command line =  
#        C:\Users\shaomingkun\Desktop\git\evolve5.0\2021sw\ECOM-5\Modules\Program_lib\Pro_manual.c
#        -D EFM32LG380F256 -D BSP_CORTEX_EFM32 -D DEBUG_EFM_JJ -D
#        RF_MODULE_EXIST____ -lC
#        C:\Users\shaomingkun\Desktop\git\evolve5.0\2021sw\ECOM-5\Debug\List -o
#        C:\Users\shaomingkun\Desktop\git\evolve5.0\2021sw\ECOM-5\Debug\Obj
#        --debug --endian=little --cpu=Cortex-M3 -e --fpu=None --dlib_config
#        "C:\Program Files (x86)\IAR Systems\Embedded Workbench
#        7.5\arm\INC\c\DLib_Config_Normal.h" -I
#        C:\Users\shaomingkun\Desktop\git\evolve5.0\2021sw\ECOM-5\ -I
#        C:\Users\shaomingkun\Desktop\git\evolve5.0\2021sw\ECOM-5\Local\ -I
#        C:\Users\shaomingkun\Desktop\git\evolve5.0\2021sw\ECOM-5\Modules\ -I
#        C:\Users\shaomingkun\Desktop\git\evolve5.0\2021sw\ECOM-5\Modules\Utilities_Lib\
#        -I
#        C:\Users\shaomingkun\Desktop\git\evolve5.0\2021sw\ECOM-5\Modules\HAL_Lib\
#        -I
#        C:\Users\shaomingkun\Desktop\git\evolve5.0\2021sw\ECOM-5\Modules\LCB_Lib\
#        -I
#        C:\Users\shaomingkun\Desktop\git\evolve5.0\2021sw\ECOM-5\Modules\Eng_lib\
#        -I
#        C:\Users\shaomingkun\Desktop\git\evolve5.0\2021sw\ECOM-5\..\Modules\Eng_lib\
#        -I
#        C:\Users\shaomingkun\Desktop\git\evolve5.0\2021sw\ECOM-5\Modules\SystemConfig_Lib\
#        -I
#        C:\Users\shaomingkun\Desktop\git\evolve5.0\2021sw\ECOM-5\Modules\EFM32_lib\
#        -I
#        C:\Users\shaomingkun\Desktop\git\evolve5.0\2021sw\ECOM-5\Modules\EFM32_lib\drivers\
#        -I
#        C:\Users\shaomingkun\Desktop\git\evolve5.0\2021sw\ECOM-5\Modules\Program_lib\
#        -I
#        C:\Users\shaomingkun\Desktop\git\evolve5.0\2021sw\ECOM-5\Modules\RF_lib\
#        -I
#        C:\Users\shaomingkun\Desktop\git\evolve5.0\2021sw\ECOM-5\Modules\USB_lib\
#        -I
#        C:\Users\shaomingkun\Desktop\git\evolve5.0\2021sw\ECOM-5\Modules\USB_lib\usb\src\
#        -I
#        C:\Users\shaomingkun\Desktop\git\evolve5.0\2021sw\ECOM-5\Modules\USB_lib\usb\inc\
#        -I
#        C:\Users\shaomingkun\Desktop\git\evolve5.0\2021sw\ECOM-5\Modules\Bluetooth_lib\
#        -I
#        C:\Users\shaomingkun\Desktop\git\evolve5.0\2021sw\ECOM-5\Modules\Remote_lib\
#        -I
#        C:\Users\shaomingkun\Desktop\git\evolve5.0\2021sw\ECOM-5\Modules\EFM32_lib\Include\
#        -I
#        C:\Users\shaomingkun\Desktop\git\evolve5.0\2021sw\ECOM-5\Modules\EFM32_lib\emlib\inc\
#        -I
#        C:\Users\shaomingkun\Desktop\git\evolve5.0\2021sw\ECOM-5\Modules\EFM32_lib\emlib\src\
#        -I
#        C:\Users\shaomingkun\Desktop\git\evolve5.0\2021sw\ECOM-5\Modules\EFM32_lib\drivers\fatfs\src\
#        -I
#        C:\Users\shaomingkun\Desktop\git\evolve5.0\2021sw\ECOM-5\Modules\EFM32_lib\Device\EnergyMicro\EFM32LG\Include\
#        -I
#        C:\Users\shaomingkun\Desktop\git\evolve5.0\2021sw\ECOM-5\Modules\EFM32_lib\Device\EnergyMicro\EFM32LG\Source\
#        -I
#        C:\Users\shaomingkun\Desktop\git\evolve5.0\2021sw\ECOM-5\Modules\EFM32_lib\Device\EnergyMicro\EFM32LG\Source\IAR\
#        -Oh
#    Locale       =  Chinese (Simplified)_China.936
#    List file    =  
#        C:\Users\shaomingkun\Desktop\git\evolve5.0\2021sw\ECOM-5\Debug\List\Pro_manual.lst
#    Object file  =  
#        C:\Users\shaomingkun\Desktop\git\evolve5.0\2021sw\ECOM-5\Debug\Obj\Pro_manual.o
#
###############################################################################

C:\Users\shaomingkun\Desktop\git\evolve5.0\2021sw\ECOM-5\Modules\Program_lib\Pro_manual.c
      1          #include"Pro_manual.h"

  EFM32_PACK_START( 1 )
                    ^
"C:\Users\shaomingkun\Desktop\git\evolve5.0\2021sw\ECOM-5\Modules\USB_lib\usb\inc\em_usb.h",318  Warning[Pe1665]: 
          concatenation with "1)" in macro "EFM32_PACK_START" does not create a
          valid token

  EFM32_PACK_START( 1 )
  ^
"C:\Users\shaomingkun\Desktop\git\evolve5.0\2021sw\ECOM-5\Modules\USB_lib\usb\inc\em_usb.h",318  Warning[Pe1665]: 
          concatenation with ")" in macro "EFM32_PACK_START" does not create a
          valid token

  EFM32_PACK_START( 1 )
                    ^
"C:\Users\shaomingkun\Desktop\git\evolve5.0\2021sw\ECOM-5\Modules\USB_lib\usb\inc\em_usb.h",347  Warning[Pe1665]: 
          concatenation with "1)" in macro "EFM32_PACK_START" does not create a
          valid token

  EFM32_PACK_START( 1 )
  ^
"C:\Users\shaomingkun\Desktop\git\evolve5.0\2021sw\ECOM-5\Modules\USB_lib\usb\inc\em_usb.h",347  Warning[Pe1665]: 
          concatenation with ")" in macro "EFM32_PACK_START" does not create a
          valid token

  EFM32_PACK_START( 1 )
                    ^
"C:\Users\shaomingkun\Desktop\git\evolve5.0\2021sw\ECOM-5\Modules\USB_lib\usb\inc\em_usb.h",371  Warning[Pe1665]: 
          concatenation with "1)" in macro "EFM32_PACK_START" does not create a
          valid token

  EFM32_PACK_START( 1 )
  ^
"C:\Users\shaomingkun\Desktop\git\evolve5.0\2021sw\ECOM-5\Modules\USB_lib\usb\inc\em_usb.h",371  Warning[Pe1665]: 
          concatenation with ")" in macro "EFM32_PACK_START" does not create a
          valid token

  EFM32_PACK_START( 1 )
                    ^
"C:\Users\shaomingkun\Desktop\git\evolve5.0\2021sw\ECOM-5\Modules\USB_lib\usb\inc\em_usb.h",400  Warning[Pe1665]: 
          concatenation with "1)" in macro "EFM32_PACK_START" does not create a
          valid token

  EFM32_PACK_START( 1 )
  ^
"C:\Users\shaomingkun\Desktop\git\evolve5.0\2021sw\ECOM-5\Modules\USB_lib\usb\inc\em_usb.h",400  Warning[Pe1665]: 
          concatenation with ")" in macro "EFM32_PACK_START" does not create a
          valid token

  EFM32_PACK_START( 1 )
                    ^
"C:\Users\shaomingkun\Desktop\git\evolve5.0\2021sw\ECOM-5\Modules\USB_lib\usb\inc\em_usb.h",441  Warning[Pe1665]: 
          concatenation with "1)" in macro "EFM32_PACK_START" does not create a
          valid token

  EFM32_PACK_START( 1 )
  ^
"C:\Users\shaomingkun\Desktop\git\evolve5.0\2021sw\ECOM-5\Modules\USB_lib\usb\inc\em_usb.h",441  Warning[Pe1665]: 
          concatenation with ")" in macro "EFM32_PACK_START" does not create a
          valid token

  EFM32_PACK_START( 1 )
                    ^
"C:\Users\shaomingkun\Desktop\git\evolve5.0\2021sw\ECOM-5\Modules\USB_lib\usb\inc\em_usb.h",455  Warning[Pe1665]: 
          concatenation with "1)" in macro "EFM32_PACK_START" does not create a
          valid token

  EFM32_PACK_START( 1 )
  ^
"C:\Users\shaomingkun\Desktop\git\evolve5.0\2021sw\ECOM-5\Modules\USB_lib\usb\inc\em_usb.h",455  Warning[Pe1665]: 
          concatenation with ")" in macro "EFM32_PACK_START" does not create a
          valid token
      2          
      3          #ifdef __PROGRAM_MANUAL__
      4          typedef struct{
      5            UINT16 SegmentTime;
      6            UINT8 WorkoutTotalSegment;
      7            UINT8 Stage;
      8            UINT8 SettingState;
      9          }Manual_Data;
     10          typedef struct{
     11          	struProgram StruProgram;
     12          	PROFILE Profile;
     13          	Manual_Data ManualData;
     14          }Manual;

   \                                 In section .noinit, align 4
     15          __no_init static Manual g_Manual;
   \                     g_Manual:
   \   00000000                      DS8 64

   \                                 In section .text, align 2, keep-with-next
     16          void Manual_Data_Initial(void)
     17          {
   \                     Manual_Data_Initial: (+1)
   \   00000000   0xB580             PUSH     {R7,LR}
     18          
     19          Data_Set_Speed_Base_User(Data_Get_Speed(MIN_SPEEDX10),0);
   \   00000002   0x200E             MOVS     R0,#+14
   \   00000004   0x.... 0x....      BL       Data_Get_Speed
   \   00000008   0x2100             MOVS     R1,#+0
   \   0000000A   0x.... 0x....      BL       Data_Set_Speed_Base_User
     20            //Data_Set_Speed(Data_Get_Speed(MIN_SPEEDX10),SystemConfig_Get_Display_Unit(User_Get_UserSlot( )),0); 
     21            Data_Set_Resistance(SystemConfig_Get_Char(MIN_RESISTANCE_UINT8),0);
   \   0000000E   0x2010             MOVS     R0,#+16
   \   00000010   0x.... 0x....      BL       SystemConfig_Get_Char
   \   00000014   0x2100             MOVS     R1,#+0
   \   00000016   0x.... 0x....      BL       Data_Set_Resistance
     22            Data_Set_Incline(0,0);      
   \   0000001A   0x2100             MOVS     R1,#+0
   \   0000001C   0x2000             MOVS     R0,#+0
   \   0000001E   0x.... 0x....      BL       Data_Set_Incline
     23            Data_Set_WarmUP_Time(0);
   \   00000022   0x2000             MOVS     R0,#+0
   \   00000024   0x.... 0x....      BL       Data_Set_WarmUP_Time
     24            Data_Set_CoolDown_Time(0);
   \   00000028   0x2000             MOVS     R0,#+0
   \   0000002A   0x.... 0x....      BL       Data_Set_CoolDown_Time
     25              if(SystemConfig_Get_Char(MACHINE_TYPE_UINT8)==TREADMILL)
   \   0000002E   0x2003             MOVS     R0,#+3
   \   00000030   0x.... 0x....      BL       SystemConfig_Get_Char
   \   00000034   0x2800             CMP      R0,#+0
     26                  DefaultDotmatrix=PROFILE_TYPE_SPEED;
     27              else
     28                  DefaultDotmatrix=PROFILE_TYPE_RESISTANCE;
   \   00000036   0x.... 0x....      LDR.W    R1,??DataTable3
   \   0000003A   0xBF0C             ITE      EQ 
   \   0000003C   0x2001             MOVEQ    R0,#+1
   \   0000003E   0x2003             MOVNE    R0,#+3
   \   00000040   0x7008             STRB     R0,[R1, #+0]
     29          }
   \   00000042   0xBD01             POP      {R0,PC}          ;; return

   \                                 In section .text, align 2, keep-with-next
     30          void Manual_BeginWorkout(void)
     31          {
   \                     Manual_BeginWorkout: (+1)
   \   00000000   0xB580             PUSH     {R7,LR}
     32              Data_Set_targetCalories(0);
   \   00000002   0x2000             MOVS     R0,#+0
   \   00000004   0x.... 0x....      BL       Data_Set_targetCalories
     33              Data_Set_targetDistancex1000(0);
   \   00000008   0xE8BD 0x4002      POP      {R1,LR}
   \   0000000C   0x2000             MOVS     R0,#+0
   \   0000000E   0x.... 0x....      B.W      Data_Set_targetDistancex1000
     34          }

   \                                 In section .text, align 2, keep-with-next
     35          UINT16 Manual_SetUpData(UINT8 ParaIndex)
     36          {
   \                     Manual_SetUpData: (+1)
   \   00000000   0x4601             MOV      R1,R0
     37          	UINT16 w_Dat=0;
   \   00000002   0x2000             MOVS     R0,#+0
     38               switch(ParaIndex)
   \   00000004   0x2901             CMP      R1,#+1
   \   00000006   0xD002             BEQ.N    ??Manual_SetUpData_0
   \   00000008   0x2903             CMP      R1,#+3
   \   0000000A   0xD002             BEQ.N    ??Manual_SetUpData_1
   \   0000000C   0x4770             BX       LR
     39          	{
     40          
     41          		case INDEX_TIME:
     42          			w_Dat=Data_Get_Time(TARGET_TIME);
   \                     ??Manual_SetUpData_0: (+1)
   \   0000000E   0x.... 0x....      B.W      Data_Get_Time
     43          		break;
     44          		case INDEX_SPEED:
     45          			w_Dat=Data_Get_Speed(TARGET_SPEEDX10_AUTO);
   \                     ??Manual_SetUpData_1: (+1)
   \   00000012   0x2005             MOVS     R0,#+5
   \   00000014   0x.... 0x....      B.W      Data_Get_Speed
     46          		break;
     47          		default:break;
     48               	}
     49          	 return w_Dat;
     50          }

   \                                 In section .text, align 2, keep-with-next
     51          UINT16 Manual_RunData(UINT8 ParaIndex)
     52          {
   \                     Manual_RunData: (+1)
   \   00000000   0x4601             MOV      R1,R0
   \   00000002   0xB580             PUSH     {R7,LR}
     53          	UINT16 w_Dat=0;
   \   00000004   0x2000             MOVS     R0,#+0
     54              switch(ParaIndex)
   \   00000006   0x2901             CMP      R1,#+1
   \   00000008   0xD002             BEQ.N    ??Manual_RunData_0
   \   0000000A   0x290B             CMP      R1,#+11
   \   0000000C   0xD00A             BEQ.N    ??Manual_RunData_1
   \   0000000E   0xBD02             POP      {R1,PC}
     55          	{
     56          		case INDEX_TIME:
     57                  if(Data_Get_Time(TARGET_TIME))
   \                     ??Manual_RunData_0: (+1)
   \   00000010   0x.... 0x....      BL       Data_Get_Time
     58                  {
     59                      w_Dat=Data_Get_Time(REMAINING_TIME);
     60                  }
     61                  else
     62                  {
     63                      w_Dat=Data_Get_Time(ELAPSED_TIME);
   \   00000014   0xE8BD 0x4002      POP      {R1,LR}
   \   00000018   0x2800             CMP      R0,#+0
   \   0000001A   0xBF14             ITE      NE 
   \   0000001C   0x2002             MOVNE    R0,#+2
   \   0000001E   0x2001             MOVEQ    R0,#+1
   \   00000020   0x.... 0x....      B.W      Data_Get_Time
     64                  }
     65                  break;
     66          		case INDEX_WATT:
     67                      w_Dat=Data_Get_Watts(CURRENT_WATT);
   \                     ??Manual_RunData_1: (+1)
   \   00000024   0xE8BD 0x4002      POP      {R1,LR}
   \   00000028   0x2001             MOVS     R0,#+1
   \   0000002A   0x.... 0x....      B.W      Data_Get_Watts
     68                  break;
     69              }
     70              return w_Dat;
     71          }

   \                                 In section .text, align 2, keep-with-next
     72          PROGRAM_PENDING_EVTS Manual_SetUp(ProgramKeyEvts *keyevt)
     73          {
   \                     Manual_SetUp: (+1)
   \   00000000   0xB5F0             PUSH     {R4-R7,LR}
   \   00000002   0xB083             SUB      SP,SP,#+12
   \   00000004   0x4604             MOV      R4,R0
     74              UINT32 l_Dat = 0;
     75              PROGRAM_PENDING_EVTS pendingEvt;
     76              pendingEvt.evt=PROGRAM_NONE_EVENT;
   \   00000006   0x2000             MOVS     R0,#+0
   \   00000008   0xF88D 0x0000      STRB     R0,[SP, #+0]
   \   0000000C   0x460E             MOV      R6,R1
     77              memset(&pendingEvt.WorkOutEvts,0,sizeof(pendingEvt.WorkOutEvts));
   \   0000000E   0xA801             ADD      R0,SP,#+4
   \   00000010   0x2100             MOVS     R1,#+0
   \   00000012   0x6001             STR      R1,[R0, #+0]
     78              if(keyevt->Bit_All == 0) return pendingEvt;
   \   00000014   0x6830             LDR      R0,[R6, #+0]
   \   00000016   0x2800             CMP      R0,#+0
   \   00000018   0xF000 0x8170      BEQ.W    ??Manual_SetUp_0
     79              
     80              if(keyevt->Bit_Flag.Key_Enter)
   \   0000001C   0x.... 0x....      LDR.W    R7,??DataTable3_1
   \   00000020   0x1D3D             ADDS     R5,R7,#+4
   \   00000022   0xF3C0 0x01C0      UBFX     R1,R0,#+3,#+1
   \   00000026   0xB1A9             CBZ.N    R1,??Manual_SetUp_1
     81              {
     82                  keyevt->Bit_Flag.Key_Enter=false;
   \   00000028   0xF020 0x0008      BIC      R0,R0,#0x8
   \   0000002C   0x6030             STR      R0,[R6, #+0]
     83                  if(g_Manual.StruProgram.Setting_Array[g_Manual.StruProgram.SettingArray_Index] != SET_PRESS_START )
   \   0000002E   0x7929             LDRB     R1,[R5, #+4]
   \   00000030   0x682A             LDR      R2,[R5, #+0]
   \   00000032   0x5C53             LDRB     R3,[R2, R1]
   \   00000034   0x2B1F             CMP      R3,#+31
   \   00000036   0xD045             BEQ.N    ??Manual_SetUp_2
     84                  {
     85                      keyevt->Bit_Flag.Key_StateChange=true;
   \   00000038   0xF440 0x5080      ORR      R0,R0,#0x1000
   \   0000003C   0x6030             STR      R0,[R6, #+0]
     86                      g_Manual.StruProgram.SettingArray_Index++;
   \   0000003E   0x1C48             ADDS     R0,R1,#+1
   \   00000040   0x7128             STRB     R0,[R5, #+4]
     87                      if(SET_TIME==g_Manual.StruProgram.Setting_Array[g_Manual.StruProgram.SettingArray_Index])
   \   00000042   0xB2C0             UXTB     R0,R0
   \   00000044   0x5C10             LDRB     R0,[R2, R0]
   \   00000046   0x2804             CMP      R0,#+4
   \   00000048   0xD13C             BNE.N    ??Manual_SetUp_2
     88                      {
     89                          Data_Set_Time(30*60);
   \   0000004A   0xF44F 0x60E1      MOV      R0,#+1800
   \   0000004E   0x.... 0x....      BL       Data_Set_Time
   \   00000052   0xE037             B.N      ??Manual_SetUp_2
     90                      }
     91                  }
     92              }
     93              else if(keyevt->Bit_Flag.Key_Back)
   \                     ??Manual_SetUp_1: (+1)
   \   00000054   0xF3C0 0x1100      UBFX     R1,R0,#+4,#+1
   \   00000058   0xB3A1             CBZ.N    R1,??Manual_SetUp_2
     94              {
     95                  keyevt->Bit_Flag.Key_Back=false;
   \   0000005A   0xF020 0x0010      BIC      R0,R0,#0x10
   \   0000005E   0x6030             STR      R0,[R6, #+0]
     96                  if(g_Manual.StruProgram.Setting_Array[g_Manual.StruProgram.SettingArray_Index] != NO_SETTING )
   \   00000060   0x7929             LDRB     R1,[R5, #+4]
   \   00000062   0x682A             LDR      R2,[R5, #+0]
   \   00000064   0x5C53             LDRB     R3,[R2, R1]
   \   00000066   0xB36B             CBZ.N    R3,??Manual_SetUp_2
     97                  {
     98                      keyevt->Bit_Flag.Key_StateChange=true;
   \   00000068   0xF440 0x5080      ORR      R0,R0,#0x1000
   \   0000006C   0x6030             STR      R0,[R6, #+0]
     99                      if(SET_PROGRAM==g_Manual.StruProgram.Setting_Array[g_Manual.StruProgram.SettingArray_Index])
   \   0000006E   0x5C50             LDRB     R0,[R2, R1]
   \   00000070   0x2801             CMP      R0,#+1
   \   00000072   0xBF18             IT       NE 
   \   00000074   0x2804             CMPNE    R0,#+4
    100                      {
    101                          Data_Set_Time(0);
    102                      }
    103                      else if(SET_TIME==g_Manual.StruProgram.Setting_Array[g_Manual.StruProgram.SettingArray_Index])
   \   00000076   0xD103             BNE.N    ??Manual_SetUp_3
    104                      {
    105                          Data_Set_Time(0);
   \   00000078   0x2000             MOVS     R0,#+0
   \   0000007A   0x.... 0x....      BL       Data_Set_Time
   \   0000007E   0xE01E             B.N      ??Manual_SetUp_4
    106                      }
    107                      else if(SET_SPEED==g_Manual.StruProgram.Setting_Array[g_Manual.StruProgram.SettingArray_Index])
   \                     ??Manual_SetUp_3: (+1)
   \   00000080   0x2805             CMP      R0,#+5
   \   00000082   0xD10D             BNE.N    ??Manual_SetUp_5
    108                      {
    109                          
    110                          UINT16 speed ;
    111                          if(SystemConfig_Get_Display_Unit(User_Get_UserSlot( ))==METRIC)
   \   00000084   0x.... 0x....      BL       User_Get_UserSlot
   \   00000088   0x.... 0x....      BL       SystemConfig_Get_Display_Unit
   \   0000008C   0x2801             CMP      R0,#+1
   \   0000008E   0xBF0C             ITE      EQ 
   \   00000090   0x2033             MOVEQ    R0,#+51
   \   00000092   0x2031             MOVNE    R0,#+49
    112                          {
    113                              speed  = SystemConfig_Get_Int(MIN_KPHX10_UINT16);
    114                          }
    115                          else
    116                          {
    117                              speed  = SystemConfig_Get_Int(MIN_MPHX10_UINT16);
   \   00000094   0x.... 0x....      BL       SystemConfig_Get_Int
    118                          }
    119                          Data_Set_Speed_Base_User(speed,0);
   \   00000098   0x2100             MOVS     R1,#+0
   \   0000009A   0x.... 0x....      BL       Data_Set_Speed_Base_User
   \   0000009E   0xE00E             B.N      ??Manual_SetUp_4
    120                          
    121                          // Data_Set_Speed(SystemConfig_Get_Display_Unit(User_Get_UserSlot( ))==METRIC?SystemConfig_Get_Int(MIN_KPHX10_UINT16):SystemConfig_Get_Int(MIN_MPHX10_UINT16),SystemConfig_Get_Display_Unit(User_Get_UserSlot( ))==METRIC?METRIC:STANDARD,0);
    122                      }
    123                      else if(SET_INCLINE==g_Manual.StruProgram.Setting_Array[g_Manual.StruProgram.SettingArray_Index])
   \                     ??Manual_SetUp_5: (+1)
   \   000000A0   0x2806             CMP      R0,#+6
   \   000000A2   0xD104             BNE.N    ??Manual_SetUp_6
    124                      {
    125                          Data_Set_Incline(0,0);
   \   000000A4   0x2100             MOVS     R1,#+0
   \   000000A6   0x2000             MOVS     R0,#+0
   \   000000A8   0x.... 0x....      BL       Data_Set_Incline
   \   000000AC   0xE007             B.N      ??Manual_SetUp_4
    126                      }
    127                      else if(SET_RESISTANCE==g_Manual.StruProgram.Setting_Array[g_Manual.StruProgram.SettingArray_Index])
   \                     ??Manual_SetUp_6: (+1)
   \   000000AE   0x2807             CMP      R0,#+7
   \   000000B0   0xD105             BNE.N    ??Manual_SetUp_4
    128                      {
    129                          Data_Set_Resistance(Data_Get_Resistance(MIN_RESISTANCE),0);
   \   000000B2   0x200A             MOVS     R0,#+10
   \   000000B4   0x.... 0x....      BL       Data_Get_Resistance
   \   000000B8   0x2100             MOVS     R1,#+0
   \   000000BA   0x.... 0x....      BL       Data_Set_Resistance
    130                      }
    131                      g_Manual.StruProgram.SettingArray_Index--;
   \                     ??Manual_SetUp_4: (+1)
   \   000000BE   0x7928             LDRB     R0,[R5, #+4]
   \   000000C0   0x1E40             SUBS     R0,R0,#+1
   \   000000C2   0x7128             STRB     R0,[R5, #+4]
    132                  }
    133              }
    134          	g_Manual.ManualData.SettingState=g_Manual.StruProgram.Setting_Array[g_Manual.StruProgram.SettingArray_Index];
   \                     ??Manual_SetUp_2: (+1)
   \   000000C4   0x6828             LDR      R0,[R5, #+0]
   \   000000C6   0x7929             LDRB     R1,[R5, #+4]
   \   000000C8   0x5C40             LDRB     R0,[R0, R1]
   \   000000CA   0xF887 0x003C      STRB     R0,[R7, #+60]
    135              switch(g_Manual.ManualData.SettingState)
   \   000000CE   0x2801             CMP      R0,#+1
   \   000000D0   0xD00D             BEQ.N    ??Manual_SetUp_7
   \   000000D2   0x2804             CMP      R0,#+4
   \   000000D4   0xD01D             BEQ.N    ??Manual_SetUp_8
   \   000000D6   0x2805             CMP      R0,#+5
   \   000000D8   0xD05C             BEQ.N    ??Manual_SetUp_9
   \   000000DA   0x2806             CMP      R0,#+6
   \   000000DC   0xF000 0x809E      BEQ.W    ??Manual_SetUp_10
   \   000000E0   0x2807             CMP      R0,#+7
   \   000000E2   0xF000 0x80C9      BEQ.W    ??Manual_SetUp_11
   \   000000E6   0x281F             CMP      R0,#+31
   \   000000E8   0xF000 0x80EC      BEQ.W    ??Manual_SetUp_12
   \   000000EC   0xE0F4             B.N      ??Manual_SetUp_13
    136              {
    137              case SET_PROGRAM:
    138                if(keyevt->Bit_Flag.Key_StateChange)
   \                     ??Manual_SetUp_7: (+1)
   \   000000EE   0x6830             LDR      R0,[R6, #+0]
   \   000000F0   0xF3C0 0x3100      UBFX     R1,R0,#+12,#+1
   \   000000F4   0x2900             CMP      R1,#+0
   \   000000F6   0xF000 0x80EF      BEQ.W    ??Manual_SetUp_13
    139                {
    140                  keyevt->Bit_Flag.Key_StateChange=false;
   \   000000FA   0xF420 0x5080      BIC      R0,R0,#0x1000
   \   000000FE   0x6030             STR      R0,[R6, #+0]
    141                  pendingEvt.evt=PROGRAM_CHANGE_EVENT;
   \   00000100   0x2002             MOVS     R0,#+2
   \   00000102   0xF88D 0x0000      STRB     R0,[SP, #+0]
    142          		g_Manual.StruProgram.Prg_NextStatus(PS_SELECTPRG);
   \   00000106   0x2001             MOVS     R0,#+1
   \   00000108   0x69E9             LDR      R1,[R5, #+28]
   \   0000010A   0x4788             BLX      R1
    143                  Manual_Data_Initial();
   \   0000010C   0x.... 0x....      BL       Manual_Data_Initial
   \   00000110   0xE0E2             B.N      ??Manual_SetUp_13
    144                }      
    145                break;
    146              case SET_TIME:
    147                if(keyevt->Bit_Flag.Key_StateChange)
   \                     ??Manual_SetUp_8: (+1)
   \   00000112   0x6830             LDR      R0,[R6, #+0]
   \   00000114   0xF3C0 0x3100      UBFX     R1,R0,#+12,#+1
   \   00000118   0xB129             CBZ.N    R1,??Manual_SetUp_14
    148                {
    149                  keyevt->Bit_Flag.Key_StateChange=false;
   \   0000011A   0xF420 0x5080      BIC      R0,R0,#0x1000
   \   0000011E   0x6030             STR      R0,[R6, #+0]
    150                  pendingEvt.evt=TIME_CHANGE_EVENT;
   \   00000120   0x2006             MOVS     R0,#+6
   \   00000122   0xF88D 0x0000      STRB     R0,[SP, #+0]
    151                }
    152                if(keyevt->Bit_Flag.Key_Up)
   \                     ??Manual_SetUp_14: (+1)
   \   00000126   0x6830             LDR      R0,[R6, #+0]
   \   00000128   0x07C1             LSLS     R1,R0,#+31
   \   0000012A   0xD516             BPL.N    ??Manual_SetUp_15
    153                {
    154                  if(Data_Get_Time(TARGET_TIME)==0)
   \   0000012C   0x2000             MOVS     R0,#+0
   \   0000012E   0x.... 0x....      BL       Data_Get_Time
   \   00000132   0xB910             CBNZ.N   R0,??Manual_SetUp_16
    155                  {
    156                      Data_Set_Time(5*60);
   \   00000134   0xF44F 0x7096      MOV      R0,#+300
   \   00000138   0xE028             B.N      ??Manual_SetUp_17
    157                  }
    158                  else if(Data_Get_Time(TARGET_TIME)<99*60)
   \                     ??Manual_SetUp_16: (+1)
   \   0000013A   0x2000             MOVS     R0,#+0
   \   0000013C   0x.... 0x....      BL       Data_Get_Time
   \   00000140   0xF241 0x7134      MOVW     R1,#+5940
   \   00000144   0x4288             CMP      R0,R1
   \   00000146   0xDA05             BGE.N    ??Manual_SetUp_18
    159                  {
    160                      Data_Set_Time(Data_Get_Time(TARGET_TIME)+60);
   \   00000148   0x2000             MOVS     R0,#+0
   \   0000014A   0x.... 0x....      BL       Data_Get_Time
   \   0000014E   0x303C             ADDS     R0,R0,#+60
   \   00000150   0xB280             UXTH     R0,R0
   \   00000152   0xE01B             B.N      ??Manual_SetUp_17
    161                  }            
    162                else  
    163                  Data_Set_Time(5*60);  
   \                     ??Manual_SetUp_18: (+1)
   \   00000154   0xF44F 0x7096      MOV      R0,#+300
   \   00000158   0xE018             B.N      ??Manual_SetUp_17
    164                  pendingEvt.evt=TIME_CHANGE_EVENT;
    165                }
    166                else if(keyevt->Bit_Flag.Key_Dn)
   \                     ??Manual_SetUp_15: (+1)
   \   0000015A   0xF3C0 0x0040      UBFX     R0,R0,#+1,#+1
   \   0000015E   0x2800             CMP      R0,#+0
   \   00000160   0xF000 0x80BA      BEQ.W    ??Manual_SetUp_13
    167                {
    168                  if(Data_Get_Time(TARGET_TIME)>5*60)
   \   00000164   0x2000             MOVS     R0,#+0
   \   00000166   0x.... 0x....      BL       Data_Get_Time
   \   0000016A   0xF5B0 0x7F96      CMP      R0,#+300
   \   0000016E   0xDD05             BLE.N    ??Manual_SetUp_19
    169                  {
    170                    Data_Set_Time(Data_Get_Time(TARGET_TIME)-60);
   \   00000170   0x2000             MOVS     R0,#+0
   \   00000172   0x.... 0x....      BL       Data_Get_Time
   \   00000176   0x383C             SUBS     R0,R0,#+60
   \   00000178   0xB280             UXTH     R0,R0
   \   0000017A   0xE007             B.N      ??Manual_SetUp_17
    171                  }
    172                  else if(Data_Get_Time(TARGET_TIME)==5*60)
   \                     ??Manual_SetUp_19: (+1)
   \   0000017C   0x2000             MOVS     R0,#+0
   \   0000017E   0x.... 0x....      BL       Data_Get_Time
   \   00000182   0xF5B0 0x7F96      CMP      R0,#+300
   \   00000186   0xD103             BNE.N    ??Manual_SetUp_20
    173                  {
    174                    Data_Set_Time(99*60);  
   \   00000188   0xF241 0x7034      MOVW     R0,#+5940
   \                     ??Manual_SetUp_17: (+1)
   \   0000018C   0x.... 0x....      BL       Data_Set_Time
    175                  }            
    176                  pendingEvt.evt=TIME_CHANGE_EVENT;
   \                     ??Manual_SetUp_20: (+1)
   \   00000190   0x2006             MOVS     R0,#+6
   \   00000192   0xE09F             B.N      ??Manual_SetUp_21
    177                }
    178          
    179                break;
    180              case SET_SPEED:
    181                if(keyevt->Bit_Flag.Key_StateChange)
   \                     ??Manual_SetUp_9: (+1)
   \   00000194   0x6830             LDR      R0,[R6, #+0]
   \   00000196   0xF3C0 0x3100      UBFX     R1,R0,#+12,#+1
   \   0000019A   0xB129             CBZ.N    R1,??Manual_SetUp_22
    182                {
    183                  keyevt->Bit_Flag.Key_StateChange=false;
   \   0000019C   0xF420 0x5080      BIC      R0,R0,#0x1000
   \   000001A0   0x6030             STR      R0,[R6, #+0]
    184                  pendingEvt.evt=SPEED_CHANGE_EVENT;
   \   000001A2   0x2011             MOVS     R0,#+17
   \   000001A4   0xF88D 0x0000      STRB     R0,[SP, #+0]
    185                }
    186                if(keyevt->Bit_Flag.Key_Up)
   \                     ??Manual_SetUp_22: (+1)
   \   000001A8   0x6830             LDR      R0,[R6, #+0]
   \   000001AA   0x07C1             LSLS     R1,R0,#+31
   \   000001AC   0xD50F             BPL.N    ??Manual_SetUp_23
    187                {
    188          		Data_Set_Speed(Data_Get_Speed(TARGET_SPEEDX10_AUTO)+1,SystemConfig_Get_Display_Unit(User_Get_UserSlot( ))==METRIC?METRIC:STANDARD,0);
   \   000001AE   0x.... 0x....      BL       User_Get_UserSlot
   \   000001B2   0x.... 0x....      BL       SystemConfig_Get_Display_Unit
   \   000001B6   0x2801             CMP      R0,#+1
   \   000001B8   0xBF0C             ITE      EQ 
   \   000001BA   0x2601             MOVEQ    R6,#+1
   \   000001BC   0x2600             MOVNE    R6,#+0
   \   000001BE   0x2005             MOVS     R0,#+5
   \   000001C0   0x.... 0x....      BL       Data_Get_Speed
   \   000001C4   0x1C40             ADDS     R0,R0,#+1
   \   000001C6   0x2200             MOVS     R2,#+0
   \   000001C8   0x4631             MOV      R1,R6
   \   000001CA   0xB280             UXTH     R0,R0
   \   000001CC   0xE022             B.N      ??Manual_SetUp_24
    189                }
    190                else if(keyevt->Bit_Flag.Key_Dn)
   \                     ??Manual_SetUp_23: (+1)
   \   000001CE   0xF3C0 0x0140      UBFX     R1,R0,#+1,#+1
   \   000001D2   0xB179             CBZ.N    R1,??Manual_SetUp_25
    191                {
    192          		Data_Set_Speed(Data_Get_Speed(TARGET_SPEEDX10_AUTO)-1,SystemConfig_Get_Display_Unit(User_Get_UserSlot( ))==METRIC?METRIC:STANDARD,0);
   \   000001D4   0x.... 0x....      BL       User_Get_UserSlot
   \   000001D8   0x.... 0x....      BL       SystemConfig_Get_Display_Unit
   \   000001DC   0x2801             CMP      R0,#+1
   \   000001DE   0xBF0C             ITE      EQ 
   \   000001E0   0x2601             MOVEQ    R6,#+1
   \   000001E2   0x2600             MOVNE    R6,#+0
   \   000001E4   0x2005             MOVS     R0,#+5
   \   000001E6   0x.... 0x....      BL       Data_Get_Speed
   \   000001EA   0x1E40             SUBS     R0,R0,#+1
   \   000001EC   0x2200             MOVS     R2,#+0
   \   000001EE   0x4631             MOV      R1,R6
   \   000001F0   0xB280             UXTH     R0,R0
   \   000001F2   0xE00F             B.N      ??Manual_SetUp_24
    193                }
    194                else if(keyevt->Bit_Flag.Key_QuickKey==true)
   \                     ??Manual_SetUp_25: (+1)
   \   000001F4   0xF3C0 0x40C0      UBFX     R0,R0,#+19,#+1
   \   000001F8   0xB170             CBZ.N    R0,??Manual_SetUp_26
    195                {
    196                    Data_Set_Speed(Data_Get_Speed(TARGET_SPEEDX10_AUTO),SystemConfig_Get_Display_Unit(User_Get_UserSlot( ))==METRIC?METRIC:STANDARD,0);
   \   000001FA   0x.... 0x....      BL       User_Get_UserSlot
   \   000001FE   0x.... 0x....      BL       SystemConfig_Get_Display_Unit
   \   00000202   0x2801             CMP      R0,#+1
   \   00000204   0xBF0C             ITE      EQ 
   \   00000206   0x2601             MOVEQ    R6,#+1
   \   00000208   0x2600             MOVNE    R6,#+0
   \   0000020A   0x2005             MOVS     R0,#+5
   \   0000020C   0x.... 0x....      BL       Data_Get_Speed
   \   00000210   0x2200             MOVS     R2,#+0
   \   00000212   0x4631             MOV      R1,R6
   \                     ??Manual_SetUp_24: (+1)
   \   00000214   0x.... 0x....      BL       Data_Set_Speed
    197                }
    198                pendingEvt.evt=SPEED_CHANGE_EVENT;
   \                     ??Manual_SetUp_26: (+1)
   \   00000218   0x2011             MOVS     R0,#+17
   \   0000021A   0xE05B             B.N      ??Manual_SetUp_21
    199                break;
    200              case SET_INCLINE:
    201                if(keyevt->Bit_Flag.Key_StateChange)
   \                     ??Manual_SetUp_10: (+1)
   \   0000021C   0x6830             LDR      R0,[R6, #+0]
   \   0000021E   0xF3C0 0x3100      UBFX     R1,R0,#+12,#+1
   \   00000222   0xB129             CBZ.N    R1,??Manual_SetUp_27
    202                {
    203                  keyevt->Bit_Flag.Key_StateChange=false;
   \   00000224   0xF420 0x5080      BIC      R0,R0,#0x1000
   \   00000228   0x6030             STR      R0,[R6, #+0]
    204                  pendingEvt.evt=INCLINE_CHANGE_EVENT;
   \   0000022A   0x2012             MOVS     R0,#+18
   \   0000022C   0xF88D 0x0000      STRB     R0,[SP, #+0]
    205                }
    206                if(keyevt->Bit_Flag.Key_Up)
   \                     ??Manual_SetUp_27: (+1)
   \   00000230   0x6830             LDR      R0,[R6, #+0]
   \   00000232   0x07C1             LSLS     R1,R0,#+31
   \   00000234   0xD50E             BPL.N    ??Manual_SetUp_28
    207                {
    208                  if(Data_Get_Incline(TARGET_INCLINEX10)<Data_Get_Incline(MAX_INCLINEX10))
   \   00000236   0x2008             MOVS     R0,#+8
   \   00000238   0x.... 0x....      BL       Data_Get_Incline
   \   0000023C   0x4606             MOV      R6,R0
   \   0000023E   0x2005             MOVS     R0,#+5
   \   00000240   0x.... 0x....      BL       Data_Get_Incline
   \   00000244   0x4286             CMP      R6,R0
   \   00000246   0xD215             BCS.N    ??Manual_SetUp_29
    209                    Data_Set_Incline(Program_Get_Incline(0)+5,0);        
   \   00000248   0x2000             MOVS     R0,#+0
   \   0000024A   0x.... 0x....      BL       Program_Get_Incline
   \   0000024E   0x2100             MOVS     R1,#+0
   \   00000250   0x1D40             ADDS     R0,R0,#+5
   \   00000252   0xE00C             B.N      ??Manual_SetUp_30
    210                  pendingEvt.evt=INCLINE_CHANGE_EVENT;
    211                }
    212                else if(keyevt->Bit_Flag.Key_Dn)
   \                     ??Manual_SetUp_28: (+1)
   \   00000254   0xF3C0 0x0040      UBFX     R0,R0,#+1,#+1
   \   00000258   0x2800             CMP      R0,#+0
   \   0000025A   0xD03D             BEQ.N    ??Manual_SetUp_13
    213                {
    214                  if(Program_Get_Incline(0))
   \   0000025C   0x2000             MOVS     R0,#+0
   \   0000025E   0x.... 0x....      BL       Program_Get_Incline
   \   00000262   0xB138             CBZ.N    R0,??Manual_SetUp_29
    215                    Data_Set_Incline(Program_Get_Incline(0)-5,0);
   \   00000264   0x2000             MOVS     R0,#+0
   \   00000266   0x.... 0x....      BL       Program_Get_Incline
   \   0000026A   0x2100             MOVS     R1,#+0
   \   0000026C   0x1F40             SUBS     R0,R0,#+5
   \                     ??Manual_SetUp_30: (+1)
   \   0000026E   0xB280             UXTH     R0,R0
   \   00000270   0x.... 0x....      BL       Data_Set_Incline
    216                  pendingEvt.evt=INCLINE_CHANGE_EVENT;
   \                     ??Manual_SetUp_29: (+1)
   \   00000274   0x2012             MOVS     R0,#+18
   \   00000276   0xE02D             B.N      ??Manual_SetUp_21
    217                }   
    218                break;
    219              case SET_RESISTANCE:
    220                if(keyevt->Bit_Flag.Key_StateChange)
   \                     ??Manual_SetUp_11: (+1)
   \   00000278   0x6830             LDR      R0,[R6, #+0]
   \   0000027A   0xF3C0 0x3100      UBFX     R1,R0,#+12,#+1
   \   0000027E   0xB111             CBZ.N    R1,??Manual_SetUp_31
    221                {
    222                  keyevt->Bit_Flag.Key_StateChange=false;
   \   00000280   0xF420 0x5080      BIC      R0,R0,#0x1000
   \   00000284   0x6030             STR      R0,[R6, #+0]
    223                }
    224                if(keyevt->Bit_Flag.Key_Up)
   \                     ??Manual_SetUp_31: (+1)
   \   00000286   0x6830             LDR      R0,[R6, #+0]
   \   00000288   0x07C1             LSLS     R1,R0,#+31
   \   0000028A   0xD506             BPL.N    ??Manual_SetUp_32
    225                {
    226                    Data_Set_Resistance(Program_Get_Resistance(0)+1,0);
   \   0000028C   0x2000             MOVS     R0,#+0
   \   0000028E   0x.... 0x....      BL       Program_Get_Resistance
   \   00000292   0x1C40             ADDS     R0,R0,#+1
   \   00000294   0x2100             MOVS     R1,#+0
   \   00000296   0xB280             UXTH     R0,R0
   \   00000298   0xE010             B.N      ??Manual_SetUp_33
    227                }
    228                else if(keyevt->Bit_Flag.Key_Dn)
   \                     ??Manual_SetUp_32: (+1)
   \   0000029A   0xF3C0 0x0140      UBFX     R1,R0,#+1,#+1
   \   0000029E   0xB131             CBZ.N    R1,??Manual_SetUp_34
    229                {
    230                    Data_Set_Resistance(Program_Get_Resistance(0)-1,0);
   \   000002A0   0x2000             MOVS     R0,#+0
   \   000002A2   0x.... 0x....      BL       Program_Get_Resistance
   \   000002A6   0x1E40             SUBS     R0,R0,#+1
   \   000002A8   0x2100             MOVS     R1,#+0
   \   000002AA   0xB280             UXTH     R0,R0
   \   000002AC   0xE006             B.N      ??Manual_SetUp_33
    231                }
    232                else if(keyevt->Bit_Flag.Key_QuickKey==true)
   \                     ??Manual_SetUp_34: (+1)
   \   000002AE   0xF3C0 0x40C0      UBFX     R0,R0,#+19,#+1
   \   000002B2   0xB128             CBZ.N    R0,??Manual_SetUp_35
    233                {
    234                    Data_Set_Resistance(Data_Get_Resistance(TARGET_RESISTANCE),0);
   \   000002B4   0x2006             MOVS     R0,#+6
   \   000002B6   0x.... 0x....      BL       Data_Get_Resistance
   \   000002BA   0x2100             MOVS     R1,#+0
   \                     ??Manual_SetUp_33: (+1)
   \   000002BC   0x.... 0x....      BL       Data_Set_Resistance
    235                }
    236                  pendingEvt.evt=RESISTANCE_CHANGE_EVENT;
   \                     ??Manual_SetUp_35: (+1)
   \   000002C0   0x2013             MOVS     R0,#+19
   \   000002C2   0xE007             B.N      ??Manual_SetUp_21
    237                  break;
    238                  case SET_PRESS_START:
    239                  if(keyevt->Bit_Flag.Key_StateChange)
   \                     ??Manual_SetUp_12: (+1)
   \   000002C4   0x6830             LDR      R0,[R6, #+0]
   \   000002C6   0xF3C0 0x3100      UBFX     R1,R0,#+12,#+1
   \   000002CA   0xB129             CBZ.N    R1,??Manual_SetUp_13
    240                  {
    241                      keyevt->Bit_Flag.Key_StateChange=false;
   \   000002CC   0xF420 0x5080      BIC      R0,R0,#0x1000
   \   000002D0   0x6030             STR      R0,[R6, #+0]
    242                      pendingEvt.evt=SETTING_COMPLETE_EVENT;
   \   000002D2   0x2019             MOVS     R0,#+25
   \                     ??Manual_SetUp_21: (+1)
   \   000002D4   0xF88D 0x0000      STRB     R0,[SP, #+0]
    243                  }    
    244                  break;
    245              }
    246              if(Data_Get_Time(TARGET_TIME) == 0) 
   \                     ??Manual_SetUp_13: (+1)
   \   000002D8   0x2000             MOVS     R0,#+0
   \   000002DA   0x.... 0x....      BL       Data_Get_Time
   \   000002DE   0xB910             CBNZ.N   R0,??Manual_SetUp_36
    247              {
    248                  g_Manual.ManualData.SegmentTime = 6000;  
   \   000002E0   0xF241 0x7070      MOVW     R0,#+6000
   \   000002E4   0xE009             B.N      ??Manual_SetUp_37
    249              }
    250              else
    251              {
    252                  l_Dat = (UINT32)Data_Get_Time(TARGET_TIME);
   \                     ??Manual_SetUp_36: (+1)
   \   000002E6   0x2000             MOVS     R0,#+0
   \   000002E8   0x.... 0x....      BL       Data_Get_Time
    253                  l_Dat *= 100;               
    254                  l_Dat /= ProgramLibConfigPara->DotMatrixLength;
    255                  g_Manual.ManualData.SegmentTime = l_Dat;
   \   000002EC   0x2164             MOVS     R1,#+100
   \   000002EE   0x4348             MULS     R0,R1,R0
   \   000002F0   0x....             LDR.N    R1,??DataTable3_2
   \   000002F2   0x6809             LDR      R1,[R1, #+0]
   \   000002F4   0x7949             LDRB     R1,[R1, #+5]
   \   000002F6   0xFBB0 0xF0F1      UDIV     R0,R0,R1
   \                     ??Manual_SetUp_37: (+1)
   \   000002FA   0x86A8             STRH     R0,[R5, #+52]
    256              }	
    257              return pendingEvt; 
   \                     ??Manual_SetUp_0: (+1)
   \   000002FC   0x....             B.N      ?Subroutine0
    258          }

   \                                 In section .text, align 2, keep-with-next
   \                     ?Subroutine0: (+1)
   \   00000000   0xE9DD 0x0100      LDRD     R0,R1,[SP, #+0]
   \   00000004   0xE9C4 0x0100      STRD     R0,R1,[R4, #+0]
   \   00000008   0xB003             ADD      SP,SP,#+12
   \   0000000A   0xBDF0             POP      {R4-R7,PC}       ;; return
    259          

   \                                 In section .text, align 2, keep-with-next
    260          PROFILE *Manual_ProfileShow(PROFILE_TAG tag_index,UCHAR* Dotmatrix_pos)
    261          {
   \                     Manual_ProfileShow: (+1)
   \   00000000   0xE92D 0x43F8      PUSH     {R3-R9,LR}
    262              *Dotmatrix_pos=g_Manual.ManualData.Stage%ProgramLibConfigPara->DotMatrixLength;
   \   00000004   0x....             LDR.N    R5,??DataTable3_2
   \   00000006   0x....             LDR.N    R4,??DataTable3_3
   \   00000008   0x682A             LDR      R2,[R5, #+0]
    263              
    264              for(UINT8 i = *Dotmatrix_pos; i < ProgramLibConfigPara->DotMatrixLength; i++)
   \   0000000A   0x.... 0x....      LDR.W    R8,??DataTable3_4
   \   0000000E   0x7952             LDRB     R2,[R2, #+5]
   \   00000010   0x4606             MOV      R6,R0
   \   00000012   0x7AE0             LDRB     R0,[R4, #+11]
   \   00000014   0xFB90 0xF3F2      SDIV     R3,R0,R2
   \   00000018   0xFB02 0x0013      MLS      R0,R2,R3,R0
   \   0000001C   0x7008             STRB     R0,[R1, #+0]
   \   0000001E   0x780F             LDRB     R7,[R1, #+0]
   \   00000020   0xE014             B.N      ??Manual_ProfileShow_0
    265              {
    266                  Prg_ProfileData.SpeedProfile[i]=Data_Get_Speed(TARGET_SPEEDX10_AUTO);
   \                     ??Manual_ProfileShow_1: (+1)
   \   00000022   0x2005             MOVS     R0,#+5
   \   00000024   0x.... 0x....      BL       Data_Get_Speed
   \   00000028   0xF808 0x0007      STRB     R0,[R8, R7]
    267                  Prg_ProfileData.InclineProfile[i]=Data_Get_Incline(TARGET_INCLINEX10);
   \   0000002C   0xEB08 0x0007      ADD      R0,R8,R7
   \   00000030   0xF100 0x091E      ADD      R9,R0,#+30
   \   00000034   0x2008             MOVS     R0,#+8
   \   00000036   0x.... 0x....      BL       Data_Get_Incline
   \   0000003A   0xF889 0x0000      STRB     R0,[R9, #+0]
    268                  Prg_ProfileData.ResistanceProfile[i]=Data_Get_Resistance(TARGET_RESISTANCE);
   \   0000003E   0x1C7F             ADDS     R7,R7,#+1
   \   00000040   0x2006             MOVS     R0,#+6
   \   00000042   0x.... 0x....      BL       Data_Get_Resistance
   \   00000046   0xF889 0x001E      STRB     R0,[R9, #+30]
    269              }
   \   0000004A   0xB2FF             UXTB     R7,R7
   \                     ??Manual_ProfileShow_0: (+1)
   \   0000004C   0x6828             LDR      R0,[R5, #+0]
   \   0000004E   0x7940             LDRB     R0,[R0, #+5]
   \   00000050   0x4287             CMP      R7,R0
   \   00000052   0xDBE6             BLT.N    ??Manual_ProfileShow_1
    270              if(SystemConfig_Get_Char(MACHINE_TYPE_UINT8)==TREADMILL)
   \   00000054   0x2003             MOVS     R0,#+3
   \   00000056   0x.... 0x....      BL       SystemConfig_Get_Char
   \   0000005A   0xB918             CBNZ.N   R0,??Manual_ProfileShow_2
    271            	{
    272                  switch(tag_index)
   \   0000005C   0x2E02             CMP      R6,#+2
   \   0000005E   0xD003             BEQ.N    ??Manual_ProfileShow_3
    273            		{
    274                      case SPEED_PROFILE:
    275          			g_Manual.Profile.ProfileData=Prg_ProfileData.SpeedProfile;
    276          			break;
    277                      case INCLINE_PROFILE:
    278          			g_Manual.Profile.ProfileData=Prg_ProfileData.InclineProfile;
    279          			break;
    280                      case DEFAULT_PROFILE:
    281          			g_Manual.Profile.ProfileData=Prg_ProfileData.SpeedProfile;
    282          			break;
    283          			default:
    284          			g_Manual.Profile.ProfileData=Prg_ProfileData.SpeedProfile;
   \   00000060   0x4640             MOV      R0,R8
    285                      break;
   \   00000062   0xE004             B.N      ??Manual_ProfileShow_4
    286            		}
    287            	}
    288              else
    289            	{
    290                  switch(tag_index)
   \                     ??Manual_ProfileShow_2: (+1)
   \   00000064   0x2E02             CMP      R6,#+2
   \   00000066   0xD101             BNE.N    ??Manual_ProfileShow_5
    291            		{
    292                      case RESISTANCE_PROFILE:
    293          			g_Manual.Profile.ProfileData=Prg_ProfileData.ResistanceProfile;
    294          			break;
    295                      case INCLINE_PROFILE:
    296          			g_Manual.Profile.ProfileData=Prg_ProfileData.InclineProfile;
   \                     ??Manual_ProfileShow_3: (+1)
   \   00000068   0x....             LDR.N    R0,??DataTable3_5
    297          			break;
   \   0000006A   0xE000             B.N      ??Manual_ProfileShow_4
    298                      case DEFAULT_PROFILE:
    299          			g_Manual.Profile.ProfileData=Prg_ProfileData.ResistanceProfile;
    300          			break;
    301          			default:
    302          			g_Manual.Profile.ProfileData=Prg_ProfileData.ResistanceProfile;
   \                     ??Manual_ProfileShow_5: (+1)
   \   0000006C   0x....             LDR.N    R0,??DataTable3_6
    303                      break;
   \                     ??Manual_ProfileShow_4: (+1)
   \   0000006E   0x6020             STR      R0,[R4, #+0]
    304            		}  
    305          	}
    306          	g_Manual.Profile.Length=ProgramLibConfigPara->DotMatrixLength;
   \   00000070   0x6828             LDR      R0,[R5, #+0]
   \   00000072   0x7940             LDRB     R0,[R0, #+5]
   \   00000074   0x7120             STRB     R0,[R4, #+4]
    307          	return &g_Manual.Profile;
   \   00000076   0x4620             MOV      R0,R4
   \   00000078   0xE8BD 0x83F2      POP      {R1,R4-R9,PC}    ;; return
    308          }
    309          
    310          
    311          

   \                                 In section .text, align 2, keep-with-next
    312          PROGRAM_PENDING_EVTS Manual_Run(ProgramKeyEvts *keyevt)
    313          {  
   \                     Manual_Run: (+1)
   \   00000000   0xB5F0             PUSH     {R4-R7,LR}
   \   00000002   0xB083             SUB      SP,SP,#+12
   \   00000004   0x4604             MOV      R4,R0
    314              PROGRAM_PENDING_EVTS pendingEvt;
    315              static UINT16 LastValue=0xffff;
    316              UINT32 l_Dat = 0;
    317              pendingEvt.evt=PROGRAM_NONE_EVENT;
   \   00000006   0x2000             MOVS     R0,#+0
   \   00000008   0xF88D 0x0000      STRB     R0,[SP, #+0]
   \   0000000C   0x460D             MOV      R5,R1
    318              memset(&pendingEvt.WorkOutEvts,0,sizeof(pendingEvt.WorkOutEvts));
   \   0000000E   0xA801             ADD      R0,SP,#+4
   \   00000010   0x2100             MOVS     R1,#+0
    319              
    320              if(g_Manual.StruProgram.Prg_CurrentStatus()<PS_WARMUP
    321                 ||g_Manual.StruProgram.Prg_CurrentStatus()>PS_COOLDOWN)
   \   00000012   0x....             LDR.N    R6,??DataTable3_7
   \   00000014   0x6001             STR      R1,[R0, #+0]
   \   00000016   0x6870             LDR      R0,[R6, #+4]
   \   00000018   0x4780             BLX      R0
   \   0000001A   0x2807             CMP      R0,#+7
   \   0000001C   0xF2C0 0x80B5      BLT.W    ??Manual_Run_0
   \   00000020   0x6870             LDR      R0,[R6, #+4]
   \   00000022   0x4780             BLX      R0
   \   00000024   0x280A             CMP      R0,#+10
   \   00000026   0xF280 0x80B0      BGE.W    ??Manual_Run_0
    322          	{
    323          		return pendingEvt;
    324          	}
    325              {
    326                  if(LastValue!=Data_Get_Time(ELAPSED_TIME))
   \   0000002A   0x2001             MOVS     R0,#+1
   \   0000002C   0x.... 0x....      BL       Data_Get_Time
   \   00000030   0x....             LDR.N    R7,??DataTable3_8
   \   00000032   0x8839             LDRH     R1,[R7, #+0]
   \   00000034   0x4281             CMP      R1,R0
   \   00000036   0xD041             BEQ.N    ??Manual_Run_1
    327                  {
    328                      LastValue=Data_Get_Time(ELAPSED_TIME);
   \   00000038   0x2001             MOVS     R0,#+1
   \   0000003A   0x.... 0x....      BL       Data_Get_Time
   \   0000003E   0x8038             STRH     R0,[R7, #+0]
    329                      if(Data_Get_Time(TARGET_TIME) == 0) //counting up
   \   00000040   0x2000             MOVS     R0,#+0
   \   00000042   0x.... 0x....      BL       Data_Get_Time
   \   00000046   0xB9B0             CBNZ.N   R0,??Manual_Run_2
    330                      {
    331                          if(Data_Get_Time(ELAPSED_TIME) < MAX_WORKOUT_TIME -1) //data.c to handle this
   \   00000048   0x2001             MOVS     R0,#+1
   \   0000004A   0x.... 0x....      BL       Data_Get_Time
   \   0000004E   0xF648 0x419F      MOVW     R1,#+35999
   \   00000052   0x4288             CMP      R0,R1
   \   00000054   0xDA32             BGE.N    ??Manual_Run_1
    332                          {
    333                              l_Dat = (UINT32)Data_Get_Time(ELAPSED_TIME);
   \   00000056   0x2001             MOVS     R0,#+1
   \   00000058   0x.... 0x....      BL       Data_Get_Time
    334                              l_Dat *= 100;
    335                              l_Dat /=  g_Manual.ManualData.SegmentTime;
   \   0000005C   0x2164             MOVS     R1,#+100
   \   0000005E   0x4348             MULS     R0,R1,R0
   \   00000060   0x8B31             LDRH     R1,[R6, #+24]
   \   00000062   0xFBB0 0xF0F1      UDIV     R0,R0,R1
    336                              l_Dat %= ProgramLibConfigPara->DotMatrixLength;
   \   00000066   0x....             LDR.N    R1,??DataTable3_2
   \   00000068   0x6809             LDR      R1,[R1, #+0]
   \   0000006A   0x7949             LDRB     R1,[R1, #+5]
    337                              g_Manual.ManualData.Stage = (UINT8)l_Dat; //This truncation is safe.
   \   0000006C   0xFBB0 0xF2F1      UDIV     R2,R0,R1
   \   00000070   0xFB01 0x0012      MLS      R0,R1,R2,R0
   \   00000074   0xE01E             B.N      ??Manual_Run_3
    338                              g_Manual.StruProgram.Prg_NextStatus(PS_RUN);
    339                          }
    340                      }
    341                      else   //counting down
    342                      {
    343                         if(Data_Get_Time(REMAINING_TIME) == 0)
   \                     ??Manual_Run_2: (+1)
   \   00000076   0x2002             MOVS     R0,#+2
   \   00000078   0x.... 0x....      BL       Data_Get_Time
   \   0000007C   0xB970             CBNZ.N   R0,??Manual_Run_4
    344                          {
    345                              if(g_Manual.StruProgram.Prg_CurrentStatus()!=PS_COMPLETED)
   \   0000007E   0x6870             LDR      R0,[R6, #+4]
   \   00000080   0x4780             BLX      R0
   \   00000082   0x2806             CMP      R0,#+6
   \   00000084   0xD01A             BEQ.N    ??Manual_Run_1
    346                              {
    347                                  g_Manual.StruProgram.Prg_NextStatus(PS_COMPLETED);
   \   00000086   0x6831             LDR      R1,[R6, #+0]
   \   00000088   0x2006             MOVS     R0,#+6
   \   0000008A   0x4788             BLX      R1
    348                                  pendingEvt.evt=WORKOUT_DATA_REFRESH_EVENT;
   \   0000008C   0x201F             MOVS     R0,#+31
   \   0000008E   0xF88D 0x0000      STRB     R0,[SP, #+0]
    349                                  pendingEvt.WorkOutEvts.Workout_Complete_Evt=true;
   \   00000092   0x9801             LDR      R0,[SP, #+4]
   \   00000094   0xF040 0x0008      ORR      R0,R0,#0x8
   \   00000098   0x9001             STR      R0,[SP, #+4]
   \   0000009A   0xE00F             B.N      ??Manual_Run_1
    350                                  
    351                              }
    352                          }
    353                          else
    354                          {
    355                              if(Data_Get_Time(ELAPSED_TIME))
   \                     ??Manual_Run_4: (+1)
   \   0000009C   0x2001             MOVS     R0,#+1
   \   0000009E   0x.... 0x....      BL       Data_Get_Time
   \   000000A2   0xB138             CBZ.N    R0,??Manual_Run_3
    356                              {
    357                                  l_Dat = Data_Get_Time(ELAPSED_TIME);
   \   000000A4   0x2001             MOVS     R0,#+1
   \   000000A6   0x.... 0x....      BL       Data_Get_Time
    358                                  l_Dat *= 100;
    359                                  l_Dat /= g_Manual.ManualData.SegmentTime;
    360                                  g_Manual.ManualData.Stage = (UINT8)l_Dat; //safe truncation
   \   000000AA   0x2164             MOVS     R1,#+100
   \   000000AC   0x4348             MULS     R0,R1,R0
   \   000000AE   0x8B31             LDRH     R1,[R6, #+24]
   \   000000B0   0xFBB0 0xF0F1      UDIV     R0,R0,R1
    361                              }
    362                              else
    363                                  g_Manual.ManualData.Stage = 0;
   \                     ??Manual_Run_3: (+1)
   \   000000B4   0x76F0             STRB     R0,[R6, #+27]
    364                              g_Manual.StruProgram.Prg_NextStatus(PS_RUN);
   \   000000B6   0x2008             MOVS     R0,#+8
   \   000000B8   0x6831             LDR      R1,[R6, #+0]
   \   000000BA   0x4788             BLX      R1
    365                              
    366                          }
    367                      }
    368                  }
    369                  if(keyevt->Bit_Flag.Key_SpeedUp)
   \                     ??Manual_Run_1: (+1)
   \   000000BC   0x6828             LDR      R0,[R5, #+0]
   \   000000BE   0xF3C0 0x1140      UBFX     R1,R0,#+5,#+1
   \   000000C2   0xB189             CBZ.N    R1,??Manual_Run_5
    370                  {
    371                      keyevt->Bit_Flag.Key_SpeedUp=false;
   \   000000C4   0xF020 0x0020      BIC      R0,R0,#0x20
   \   000000C8   0x6028             STR      R0,[R5, #+0]
    372                      Data_Set_Speed(Data_Get_Speed(TARGET_SPEEDX10_AUTO)+1,SystemConfig_Get_Display_Unit(User_Get_UserSlot( ))==METRIC?METRIC:STANDARD,1);
   \   000000CA   0x.... 0x....      BL       User_Get_UserSlot
   \   000000CE   0x.... 0x....      BL       SystemConfig_Get_Display_Unit
   \   000000D2   0x2801             CMP      R0,#+1
   \   000000D4   0xBF0C             ITE      EQ 
   \   000000D6   0x2601             MOVEQ    R6,#+1
   \   000000D8   0x2600             MOVNE    R6,#+0
   \   000000DA   0x2005             MOVS     R0,#+5
   \   000000DC   0x.... 0x....      BL       Data_Get_Speed
   \   000000E0   0x2201             MOVS     R2,#+1
   \   000000E2   0x4631             MOV      R1,R6
   \   000000E4   0x1C40             ADDS     R0,R0,#+1
   \   000000E6   0xE013             B.N      ??Manual_Run_6
    373                  }
    374                  else if(keyevt->Bit_Flag.Key_SpeedDn)
   \                     ??Manual_Run_5: (+1)
   \   000000E8   0xF3C0 0x1180      UBFX     R1,R0,#+6,#+1
   \   000000EC   0xB199             CBZ.N    R1,??Manual_Run_7
    375                  {
    376                      keyevt->Bit_Flag.Key_SpeedDn=false;
   \   000000EE   0xF020 0x0040      BIC      R0,R0,#0x40
   \   000000F2   0x6028             STR      R0,[R5, #+0]
    377                      Data_Set_Speed(Data_Get_Speed(TARGET_SPEEDX10_AUTO)-1,SystemConfig_Get_Display_Unit(User_Get_UserSlot( ))==METRIC?METRIC:STANDARD,1);
   \   000000F4   0x.... 0x....      BL       User_Get_UserSlot
   \   000000F8   0x.... 0x....      BL       SystemConfig_Get_Display_Unit
   \   000000FC   0x2801             CMP      R0,#+1
   \   000000FE   0xBF0C             ITE      EQ 
   \   00000100   0x2601             MOVEQ    R6,#+1
   \   00000102   0x2600             MOVNE    R6,#+0
   \   00000104   0x2005             MOVS     R0,#+5
   \   00000106   0x.... 0x....      BL       Data_Get_Speed
   \   0000010A   0x2201             MOVS     R2,#+1
   \   0000010C   0x4631             MOV      R1,R6
   \   0000010E   0x1E40             SUBS     R0,R0,#+1
   \                     ??Manual_Run_6: (+1)
   \   00000110   0xB280             UXTH     R0,R0
   \   00000112   0x.... 0x....      BL       Data_Set_Speed
    378                  } 
    379                  if(keyevt->Bit_Flag.Key_InclineUp)
   \                     ??Manual_Run_7: (+1)
   \   00000116   0x6828             LDR      R0,[R5, #+0]
   \   00000118   0xF3C0 0x11C0      UBFX     R1,R0,#+7,#+1
   \   0000011C   0xB141             CBZ.N    R1,??Manual_Run_8
    380                  {
    381                      keyevt->Bit_Flag.Key_InclineUp=false;
   \   0000011E   0xF020 0x0080      BIC      R0,R0,#0x80
   \   00000122   0x6028             STR      R0,[R5, #+0]
    382                      Data_Set_Incline(Program_Get_Incline(0)+5,1);
   \   00000124   0x2000             MOVS     R0,#+0
   \   00000126   0x.... 0x....      BL       Program_Get_Incline
   \   0000012A   0x2101             MOVS     R1,#+1
   \   0000012C   0x1D40             ADDS     R0,R0,#+5
   \   0000012E   0xE00E             B.N      ??Manual_Run_9
    383                  }
    384                  else if(keyevt->Bit_Flag.Key_InclineDn)
   \                     ??Manual_Run_8: (+1)
   \   00000130   0xF3C0 0x2100      UBFX     R1,R0,#+8,#+1
   \   00000134   0xB171             CBZ.N    R1,??Manual_Run_10
    385                  {
    386                      keyevt->Bit_Flag.Key_InclineDn=false;
   \   00000136   0xF420 0x7080      BIC      R0,R0,#0x100
   \   0000013A   0x6028             STR      R0,[R5, #+0]
    387                      if(Program_Get_Incline(0))
   \   0000013C   0x2000             MOVS     R0,#+0
   \   0000013E   0x.... 0x....      BL       Program_Get_Incline
   \   00000142   0xB138             CBZ.N    R0,??Manual_Run_10
    388                          Data_Set_Incline(Program_Get_Incline(0)-5,1);
   \   00000144   0x2000             MOVS     R0,#+0
   \   00000146   0x.... 0x....      BL       Program_Get_Incline
   \   0000014A   0x2101             MOVS     R1,#+1
   \   0000014C   0x1F40             SUBS     R0,R0,#+5
   \                     ??Manual_Run_9: (+1)
   \   0000014E   0xB280             UXTH     R0,R0
   \   00000150   0x.... 0x....      BL       Data_Set_Incline
    389                  }      
    390                  if(keyevt->Bit_Flag.Key_ResistanceUp)
   \                     ??Manual_Run_10: (+1)
   \   00000154   0x6828             LDR      R0,[R5, #+0]
   \   00000156   0xF3C0 0x2140      UBFX     R1,R0,#+9,#+1
   \   0000015A   0xB141             CBZ.N    R1,??Manual_Run_11
    391                  {
    392                      keyevt->Bit_Flag.Key_ResistanceUp=false;
   \   0000015C   0xF420 0x7000      BIC      R0,R0,#0x200
   \   00000160   0x6028             STR      R0,[R5, #+0]
    393                      Data_Set_Resistance(Program_Get_Resistance(0)+1,1);
   \   00000162   0x2000             MOVS     R0,#+0
   \   00000164   0x.... 0x....      BL       Program_Get_Resistance
   \   00000168   0x2101             MOVS     R1,#+1
   \   0000016A   0x1C40             ADDS     R0,R0,#+1
   \   0000016C   0xE00A             B.N      ??Manual_Run_12
    394                  }
    395                  else if(keyevt->Bit_Flag.Key_ResistanceDn)
   \                     ??Manual_Run_11: (+1)
   \   0000016E   0xF3C0 0x2180      UBFX     R1,R0,#+10,#+1
   \   00000172   0xB151             CBZ.N    R1,??Manual_Run_0
    396                  {
    397                      keyevt->Bit_Flag.Key_ResistanceDn=false;
   \   00000174   0xF420 0x6080      BIC      R0,R0,#0x400
   \   00000178   0x6028             STR      R0,[R5, #+0]
    398                      Data_Set_Resistance(Program_Get_Resistance(0)-1,1);
   \   0000017A   0x2000             MOVS     R0,#+0
   \   0000017C   0x.... 0x....      BL       Program_Get_Resistance
   \   00000180   0x2101             MOVS     R1,#+1
   \   00000182   0x1E40             SUBS     R0,R0,#+1
   \                     ??Manual_Run_12: (+1)
   \   00000184   0xB280             UXTH     R0,R0
   \   00000186   0x.... 0x....      BL       Data_Set_Resistance
    399                  }     
    400              }
    401              return pendingEvt;
   \                     ??Manual_Run_0: (+1)
   \   0000018A                      REQUIRE ?Subroutine0
   \   0000018A                      ;; // Fall through to label ?Subroutine0
    402          }

   \                                 In section .data, align 2
   \                     `Manual_Run::LastValue`:
   \   00000000   0xFFFF             DC16 65535
    403          

   \                                 In section .text, align 2, keep-with-next
    404          void initManual(void)
    405          {
   \                     initManual: (+1)
   \   00000000   0xB510             PUSH     {R4,LR}
    406              
    407          	g_Manual.StruProgram.Programid = PS_MANUAL;
   \   00000002   0x....             LDR.N    R4,??DataTable3_1
   \   00000004   0x2000             MOVS     R0,#+0
   \   00000006   0x7020             STRB     R0,[R4, #+0]
    408          	g_Manual.StruProgram.SettingArray_Index= 0;
   \   00000008   0x7220             STRB     R0,[R4, #+8]
    409          	
    410          	g_Manual.StruProgram.Prg_Initial = Manual_Data_Initial;
   \   0000000A   0x....             LDR.N    R0,??DataTable3_9
   \   0000000C   0x60E0             STR      R0,[R4, #+12]
    411          	g_Manual.StruProgram.BeginWorkout=Manual_BeginWorkout;
   \   0000000E   0x....             LDR.N    R0,??DataTable3_10
   \   00000010   0x6120             STR      R0,[R4, #+16]
    412          	g_Manual.StruProgram.Prg_Setup = Manual_SetUp;
   \   00000012   0x....             LDR.N    R0,??DataTable3_11
   \   00000014   0x61A0             STR      R0,[R4, #+24]
    413          	g_Manual.StruProgram.Prg_ProfileShow=Manual_ProfileShow;
   \   00000016   0x....             LDR.N    R0,??DataTable3_12
   \   00000018   0x6160             STR      R0,[R4, #+20]
    414          	g_Manual.StruProgram.Prg_Workout = Manual_Run;
   \   0000001A   0x....             LDR.N    R0,??DataTable3_13
   \   0000001C   0x61E0             STR      R0,[R4, #+28]
    415          	g_Manual.StruProgram.Prg_SetupData=Manual_SetUpData;
   \   0000001E   0x....             LDR.N    R0,??DataTable3_14
   \   00000020   0x62A0             STR      R0,[R4, #+40]
    416          	g_Manual.StruProgram.Prg_RunData=Manual_RunData;
   \   00000022   0x....             LDR.N    R0,??DataTable3_15
   \   00000024   0x62E0             STR      R0,[R4, #+44]
    417          	Program_Register_Function(&g_Manual.StruProgram);
   \   00000026   0x4620             MOV      R0,R4
   \   00000028   0x.... 0x....      BL       Program_Register_Function
    418          	if(SystemConfig_Get_Char(MACHINE_TYPE_UINT8)==TREADMILL )
   \   0000002C   0x2003             MOVS     R0,#+3
   \   0000002E   0x.... 0x....      BL       SystemConfig_Get_Char
   \   00000032   0xB908             CBNZ.N   R0,??initManual_0
    419          	{
    420                  g_Manual.StruProgram.Setting_Array=TM_Manual_SetUp;
   \   00000034   0x....             LDR.N    R0,??DataTable3_16
   \   00000036   0xE008             B.N      ??initManual_1
    421          	}
    422          	else
    423              {
    424                  if(SystemConfig_Get_Char(DRIVE_TYPE_UINT8) == EP_0B_JIS 
    425                     || SystemConfig_Get_Char(DRIVE_TYPE_UINT8) == INDUCTOR_BRAKE_INCLINE)
   \                     ??initManual_0: (+1)
   \   00000038   0x2008             MOVS     R0,#+8
   \   0000003A   0x.... 0x....      BL       SystemConfig_Get_Char
   \   0000003E   0x280B             CMP      R0,#+11
   \   00000040   0xBF1C             ITT      NE 
   \   00000042   0x2008             MOVNE    R0,#+8
   \   00000044   0x.... 0x....      BLNE     SystemConfig_Get_Char
    426                      
    427                      g_Manual.StruProgram.Setting_Array=EP_Manual_SetUp;                
    428                  else            
    429                      g_Manual.StruProgram.Setting_Array=EP_Manual_SetUp;
   \   00000048   0x....             LDR.N    R0,??DataTable3_17
   \                     ??initManual_1: (+1)
   \   0000004A   0x6060             STR      R0,[R4, #+4]
    430              }
    431              memset(&g_Manual.ManualData,0,sizeof(g_Manual.ManualData));
   \   0000004C   0x2106             MOVS     R1,#+6
   \   0000004E   0xF104 0x0038      ADD      R0,R4,#+56
   \   00000052   0x.... 0x....      BL       __aeabi_memclr4
    432              g_Manual.ManualData.SegmentTime = 6000;  
   \   00000056   0xF241 0x7070      MOVW     R0,#+6000
   \   0000005A   0x8720             STRH     R0,[R4, #+56]
    433              
    434          }
   \   0000005C   0xBD10             POP      {R4,PC}          ;; return

   \                                 In section .text, align 4, keep-with-next
   \                     ??DataTable3:
   \   00000000   0x........         DC32     DefaultDotmatrix

   \                                 In section .text, align 4, keep-with-next
   \                     ??DataTable3_1:
   \   00000000   0x........         DC32     g_Manual

   \                                 In section .text, align 4, keep-with-next
   \                     ??DataTable3_2:
   \   00000000   0x........         DC32     ProgramLibConfigPara

   \                                 In section .text, align 4, keep-with-next
   \                     ??DataTable3_3:
   \   00000000   0x........         DC32     g_Manual+0x30

   \                                 In section .text, align 4, keep-with-next
   \                     ??DataTable3_4:
   \   00000000   0x........         DC32     Prg_ProfileData

   \                                 In section .text, align 4, keep-with-next
   \                     ??DataTable3_5:
   \   00000000   0x........         DC32     Prg_ProfileData+0x1E

   \                                 In section .text, align 4, keep-with-next
   \                     ??DataTable3_6:
   \   00000000   0x........         DC32     Prg_ProfileData+0x3C

   \                                 In section .text, align 4, keep-with-next
   \                     ??DataTable3_7:
   \   00000000   0x........         DC32     g_Manual+0x20

   \                                 In section .text, align 4, keep-with-next
   \                     ??DataTable3_8:
   \   00000000   0x........         DC32     `Manual_Run::LastValue`

   \                                 In section .text, align 4, keep-with-next
   \                     ??DataTable3_9:
   \   00000000   0x........         DC32     Manual_Data_Initial

   \                                 In section .text, align 4, keep-with-next
   \                     ??DataTable3_10:
   \   00000000   0x........         DC32     Manual_BeginWorkout

   \                                 In section .text, align 4, keep-with-next
   \                     ??DataTable3_11:
   \   00000000   0x........         DC32     Manual_SetUp

   \                                 In section .text, align 4, keep-with-next
   \                     ??DataTable3_12:
   \   00000000   0x........         DC32     Manual_ProfileShow

   \                                 In section .text, align 4, keep-with-next
   \                     ??DataTable3_13:
   \   00000000   0x........         DC32     Manual_Run

   \                                 In section .text, align 4, keep-with-next
   \                     ??DataTable3_14:
   \   00000000   0x........         DC32     Manual_SetUpData

   \                                 In section .text, align 4, keep-with-next
   \                     ??DataTable3_15:
   \   00000000   0x........         DC32     Manual_RunData

   \                                 In section .text, align 4, keep-with-next
   \                     ??DataTable3_16:
   \   00000000   0x........         DC32     TM_Manual_SetUp

   \                                 In section .text, align 4, keep-with-next
   \                     ??DataTable3_17:
   \   00000000   0x........         DC32     EP_Manual_SetUp
    435          
    436          
    437          
    438          
    439          
    440          #endif
    441          

   Maximum stack usage in bytes:

   .cstack Function
   ------- --------
       8   Manual_BeginWorkout
         8   -> Data_Set_targetCalories
         0   -> Data_Set_targetDistancex1000
       8   Manual_Data_Initial
         8   -> Data_Get_Speed
         8   -> Data_Set_CoolDown_Time
         8   -> Data_Set_Incline
         8   -> Data_Set_Resistance
         8   -> Data_Set_Speed_Base_User
         8   -> Data_Set_WarmUP_Time
         8   -> SystemConfig_Get_Char
      32   Manual_ProfileShow
        32   -> Data_Get_Incline
        32   -> Data_Get_Resistance
        32   -> Data_Get_Speed
        32   -> SystemConfig_Get_Char
      32   Manual_Run
        32   -- Indirect call
        32   -> Data_Get_Speed
        32   -> Data_Get_Time
        32   -> Data_Set_Incline
        32   -> Data_Set_Resistance
        32   -> Data_Set_Speed
        32   -> Program_Get_Incline
        32   -> Program_Get_Resistance
        32   -> SystemConfig_Get_Display_Unit
        32   -> User_Get_UserSlot
       8   Manual_RunData
         0   -> Data_Get_Time
         8   -> Data_Get_Time
         0   -> Data_Get_Watts
      32   Manual_SetUp
        32   -- Indirect call
        32   -> Data_Get_Incline
        32   -> Data_Get_Resistance
        32   -> Data_Get_Speed
        32   -> Data_Get_Time
        32   -> Data_Set_Incline
        32   -> Data_Set_Resistance
        32   -> Data_Set_Speed
        32   -> Data_Set_Speed_Base_User
        32   -> Data_Set_Time
        32   -> Manual_Data_Initial
        32   -> Program_Get_Incline
        32   -> Program_Get_Resistance
        32   -> SystemConfig_Get_Display_Unit
        32   -> SystemConfig_Get_Int
        32   -> User_Get_UserSlot
       0   Manual_SetUpData
         0   -> Data_Get_Speed
         0   -> Data_Get_Time
       8   initManual
         8   -> Program_Register_Function
         8   -> SystemConfig_Get_Char
         8   -> __aeabi_memclr4


   Section sizes:

   Bytes  Function/Label
   -----  --------------
       4  ??DataTable3
       4  ??DataTable3_1
       4  ??DataTable3_10
       4  ??DataTable3_11
       4  ??DataTable3_12
       4  ??DataTable3_13
       4  ??DataTable3_14
       4  ??DataTable3_15
       4  ??DataTable3_16
       4  ??DataTable3_17
       4  ??DataTable3_2
       4  ??DataTable3_3
       4  ??DataTable3_4
       4  ??DataTable3_5
       4  ??DataTable3_6
       4  ??DataTable3_7
       4  ??DataTable3_8
       4  ??DataTable3_9
      12  ?Subroutine0
       2  LastValue
      18  Manual_BeginWorkout
      68  Manual_Data_Initial
     124  Manual_ProfileShow
     394  Manual_Run
      46  Manual_RunData
     766  Manual_SetUp
      24  Manual_SetUpData
      64  g_Manual
      94  initManual

 
     2 bytes in section .data
    64 bytes in section .noinit
 1 618 bytes in section .text
 
 1 618 bytes of CODE memory
    66 bytes of DATA memory

Errors: none
Warnings: 12
