###############################################################################
#
# IAR ANSI C/C++ Compiler V7.80.4.12462/W32 for ARM       12/Dec/2022  11:41:24
# Copyright 1999-2017 IAR Systems AB.
#
#    Cpu mode     =  thumb
#    Endian       =  little
#    Source file  =  
#        C:\Users\shaomingkun\Desktop\git\evolve5.0\2021sw\ECOM-5\Modules\Program_lib\Pro_table.c
#    Command line =  
#        C:\Users\shaomingkun\Desktop\git\evolve5.0\2021sw\ECOM-5\Modules\Program_lib\Pro_table.c
#        -D EFM32LG380F256 -D BSP_CORTEX_EFM32 -D DEBUG_EFM_JJ -D
#        RF_MODULE_EXIST____ -lC
#        C:\Users\shaomingkun\Desktop\git\evolve5.0\2021sw\ECOM-5\Debug\List -o
#        C:\Users\shaomingkun\Desktop\git\evolve5.0\2021sw\ECOM-5\Debug\Obj
#        --debug --endian=little --cpu=Cortex-M3 -e --fpu=None --dlib_config
#        "C:\Program Files (x86)\IAR Systems\Embedded Workbench
#        7.5\arm\INC\c\DLib_Config_Normal.h" -I
#        C:\Users\shaomingkun\Desktop\git\evolve5.0\2021sw\ECOM-5\ -I
#        C:\Users\shaomingkun\Desktop\git\evolve5.0\2021sw\ECOM-5\Local\ -I
#        C:\Users\shaomingkun\Desktop\git\evolve5.0\2021sw\ECOM-5\Modules\ -I
#        C:\Users\shaomingkun\Desktop\git\evolve5.0\2021sw\ECOM-5\Modules\Utilities_Lib\
#        -I
#        C:\Users\shaomingkun\Desktop\git\evolve5.0\2021sw\ECOM-5\Modules\HAL_Lib\
#        -I
#        C:\Users\shaomingkun\Desktop\git\evolve5.0\2021sw\ECOM-5\Modules\LCB_Lib\
#        -I
#        C:\Users\shaomingkun\Desktop\git\evolve5.0\2021sw\ECOM-5\Modules\Eng_lib\
#        -I
#        C:\Users\shaomingkun\Desktop\git\evolve5.0\2021sw\ECOM-5\..\Modules\Eng_lib\
#        -I
#        C:\Users\shaomingkun\Desktop\git\evolve5.0\2021sw\ECOM-5\Modules\SystemConfig_Lib\
#        -I
#        C:\Users\shaomingkun\Desktop\git\evolve5.0\2021sw\ECOM-5\Modules\EFM32_lib\
#        -I
#        C:\Users\shaomingkun\Desktop\git\evolve5.0\2021sw\ECOM-5\Modules\EFM32_lib\drivers\
#        -I
#        C:\Users\shaomingkun\Desktop\git\evolve5.0\2021sw\ECOM-5\Modules\Program_lib\
#        -I
#        C:\Users\shaomingkun\Desktop\git\evolve5.0\2021sw\ECOM-5\Modules\RF_lib\
#        -I
#        C:\Users\shaomingkun\Desktop\git\evolve5.0\2021sw\ECOM-5\Modules\USB_lib\
#        -I
#        C:\Users\shaomingkun\Desktop\git\evolve5.0\2021sw\ECOM-5\Modules\USB_lib\usb\src\
#        -I
#        C:\Users\shaomingkun\Desktop\git\evolve5.0\2021sw\ECOM-5\Modules\USB_lib\usb\inc\
#        -I
#        C:\Users\shaomingkun\Desktop\git\evolve5.0\2021sw\ECOM-5\Modules\Bluetooth_lib\
#        -I
#        C:\Users\shaomingkun\Desktop\git\evolve5.0\2021sw\ECOM-5\Modules\Remote_lib\
#        -I
#        C:\Users\shaomingkun\Desktop\git\evolve5.0\2021sw\ECOM-5\Modules\EFM32_lib\Include\
#        -I
#        C:\Users\shaomingkun\Desktop\git\evolve5.0\2021sw\ECOM-5\Modules\EFM32_lib\emlib\inc\
#        -I
#        C:\Users\shaomingkun\Desktop\git\evolve5.0\2021sw\ECOM-5\Modules\EFM32_lib\emlib\src\
#        -I
#        C:\Users\shaomingkun\Desktop\git\evolve5.0\2021sw\ECOM-5\Modules\EFM32_lib\drivers\fatfs\src\
#        -I
#        C:\Users\shaomingkun\Desktop\git\evolve5.0\2021sw\ECOM-5\Modules\EFM32_lib\Device\EnergyMicro\EFM32LG\Include\
#        -I
#        C:\Users\shaomingkun\Desktop\git\evolve5.0\2021sw\ECOM-5\Modules\EFM32_lib\Device\EnergyMicro\EFM32LG\Source\
#        -I
#        C:\Users\shaomingkun\Desktop\git\evolve5.0\2021sw\ECOM-5\Modules\EFM32_lib\Device\EnergyMicro\EFM32LG\Source\IAR\
#        -Oh
#    Locale       =  Chinese (Simplified)_China.936
#    List file    =  
#        C:\Users\shaomingkun\Desktop\git\evolve5.0\2021sw\ECOM-5\Debug\List\Pro_table.lst
#    Object file  =  
#        C:\Users\shaomingkun\Desktop\git\evolve5.0\2021sw\ECOM-5\Debug\Obj\Pro_table.o
#
###############################################################################

C:\Users\shaomingkun\Desktop\git\evolve5.0\2021sw\ECOM-5\Modules\Program_lib\Pro_table.c
      1          #include"Pro_table.h"

  EFM32_PACK_START( 1 )
                    ^
"C:\Users\shaomingkun\Desktop\git\evolve5.0\2021sw\ECOM-5\Modules\USB_lib\usb\inc\em_usb.h",318  Warning[Pe1665]: 
          concatenation with "1)" in macro "EFM32_PACK_START" does not create a
          valid token

  EFM32_PACK_START( 1 )
  ^
"C:\Users\shaomingkun\Desktop\git\evolve5.0\2021sw\ECOM-5\Modules\USB_lib\usb\inc\em_usb.h",318  Warning[Pe1665]: 
          concatenation with ")" in macro "EFM32_PACK_START" does not create a
          valid token

  EFM32_PACK_START( 1 )
                    ^
"C:\Users\shaomingkun\Desktop\git\evolve5.0\2021sw\ECOM-5\Modules\USB_lib\usb\inc\em_usb.h",347  Warning[Pe1665]: 
          concatenation with "1)" in macro "EFM32_PACK_START" does not create a
          valid token

  EFM32_PACK_START( 1 )
  ^
"C:\Users\shaomingkun\Desktop\git\evolve5.0\2021sw\ECOM-5\Modules\USB_lib\usb\inc\em_usb.h",347  Warning[Pe1665]: 
          concatenation with ")" in macro "EFM32_PACK_START" does not create a
          valid token

  EFM32_PACK_START( 1 )
                    ^
"C:\Users\shaomingkun\Desktop\git\evolve5.0\2021sw\ECOM-5\Modules\USB_lib\usb\inc\em_usb.h",371  Warning[Pe1665]: 
          concatenation with "1)" in macro "EFM32_PACK_START" does not create a
          valid token

  EFM32_PACK_START( 1 )
  ^
"C:\Users\shaomingkun\Desktop\git\evolve5.0\2021sw\ECOM-5\Modules\USB_lib\usb\inc\em_usb.h",371  Warning[Pe1665]: 
          concatenation with ")" in macro "EFM32_PACK_START" does not create a
          valid token

  EFM32_PACK_START( 1 )
                    ^
"C:\Users\shaomingkun\Desktop\git\evolve5.0\2021sw\ECOM-5\Modules\USB_lib\usb\inc\em_usb.h",400  Warning[Pe1665]: 
          concatenation with "1)" in macro "EFM32_PACK_START" does not create a
          valid token

  EFM32_PACK_START( 1 )
  ^
"C:\Users\shaomingkun\Desktop\git\evolve5.0\2021sw\ECOM-5\Modules\USB_lib\usb\inc\em_usb.h",400  Warning[Pe1665]: 
          concatenation with ")" in macro "EFM32_PACK_START" does not create a
          valid token

  EFM32_PACK_START( 1 )
                    ^
"C:\Users\shaomingkun\Desktop\git\evolve5.0\2021sw\ECOM-5\Modules\USB_lib\usb\inc\em_usb.h",441  Warning[Pe1665]: 
          concatenation with "1)" in macro "EFM32_PACK_START" does not create a
          valid token

  EFM32_PACK_START( 1 )
  ^
"C:\Users\shaomingkun\Desktop\git\evolve5.0\2021sw\ECOM-5\Modules\USB_lib\usb\inc\em_usb.h",441  Warning[Pe1665]: 
          concatenation with ")" in macro "EFM32_PACK_START" does not create a
          valid token

  EFM32_PACK_START( 1 )
                    ^
"C:\Users\shaomingkun\Desktop\git\evolve5.0\2021sw\ECOM-5\Modules\USB_lib\usb\inc\em_usb.h",455  Warning[Pe1665]: 
          concatenation with "1)" in macro "EFM32_PACK_START" does not create a
          valid token

  EFM32_PACK_START( 1 )
  ^
"C:\Users\shaomingkun\Desktop\git\evolve5.0\2021sw\ECOM-5\Modules\USB_lib\usb\inc\em_usb.h",455  Warning[Pe1665]: 
          concatenation with ")" in macro "EFM32_PACK_START" does not create a
          valid token
      2          #ifdef __PROGRAM_TABLE__
      3          
      4          #define WARM_UP	0
      5          #define COOL_DOWN	1
      6          #define REPEAT	2
      7          
      8          typedef struct{
      9            UINT8 Lable;
     10            UINT16 Data;
     11          }DistanceTargetStru;

   \                                 In section .text, align 4, keep-with-next
     12          const DistanceTargetStru DistanceTargetArray[D_END]={
   \                     DistanceTargetArray:
   \   00000000   0x00 0x00          DC8 0, 0
   \   00000002   0x03E8             DC16 1000
   \   00000004   0x01 0x00          DC8 1, 0
   \   00000006   0x07D0             DC16 2000
   \   00000008   0x02 0x00          DC8 2, 0
   \   0000000A   0x0C35             DC16 3125
   \   0000000C   0x03 0x00          DC8 3, 0
   \   0000000E   0x1388             DC16 5000
   \   00000010   0x04 0x00          DC8 4, 0
   \   00000012   0x186A             DC16 6250
   \   00000014   0x05 0x00          DC8 5, 0
   \   00000016   0x1F40             DC16 8000
   \   00000018   0x06 0x00          DC8 6, 0
   \   0000001A   0x249F             DC16 9375
   \   0000001C   0x07 0x00          DC8 7, 0
   \   0000001E   0x2710             DC16 10000
   \   00000020   0x08 0x00          DC8 8, 0
   \   00000022   0x30D4             DC16 12500
   \   00000024   0x09 0x00          DC8 9, 0
   \   00000026   0x332C             DC16 13100
   \   00000028   0x0A 0x00          DC8 10, 0
   \   0000002A   0x3A98             DC16 15000
   \   0000002C   0x0B 0x00          DC8 11, 0
   \   0000002E   0x4E20             DC16 20000
   \   00000030   0x0C 0x00          DC8 12, 0
   \   00000032   0x6658             DC16 26200
     13            {D_1_MILE,1000},
     14            {D_2_MILES,2000},
     15            {D_5_K,3125},
     16            {D_5_MILES,5000},
     17            {D_10_K,6250},
     18            {D_8_MILES,8000},
     19            {D_15_K,9375},
     20            {D_10_MILES,10000},
     21            {D_20_K,12500},
     22            {D_HALF_MARATHON,13100},
     23            {D_15_MILES,15000},
     24            {D_20_MILES,20000},
     25            {D_MARATHON,26200},	
     26          };
     27          typedef struct{
     28            UINT16 WorkoutTotalSegment;
     29            UINT16 TableTotalGoal;
     30            UINT16 StageTime;
     31            UINT16 SegmentGoal;
     32            UINT16 WarmupGoal;
     33            UINT16 CooldownGoal;
     34            UINT16 LastPoint;//last time point
     35            UINT16 targetTime;
     36            UINT16 targetCalories;
     37            UINT8 RepeatStart;
     38            UINT8 CoolDownStart;
     39            UINT8 Segamount;
     40            UINT8 Stage;
     41            UINT8 State;
     42            UINT8 DistanceIndex;
     43            UINT8 TableIndex;
     44            UINT8 SpeedBase;
     45            UINT8 InclineBase;
     46            UINT8 ResistanceBase;
     47          }P_Table;

   \                                 In section .noinit, align 4
     48          __no_init static struProgram Pro_table;
   \                     Pro_table:
   \   00000000                      DS8 48

   \                                 In section .noinit, align 4
     49          __no_init static P_Table PTable;
   \                     PTable:
   \   00000000                      DS8 28
   \   0000001C                      DS8 8
   \   00000024                      DS8 4
     50          __no_init static PROFILE Profile;
     51          
     52          __no_init static Pro_RunPara *Ptable_RunPara;
     53          
     54          

   \                                 In section .text, align 2, keep-with-next
     55          void ProgramTable_LookUpParameter(void)
     56          {
   \                     ProgramTable_LookUpParameter: (+1)
   \   00000000   0xB5F8             PUSH     {R3-R7,LR}
     57            char loopState = 0, returnVal = 0;
     58            UINT16 w_Dat=0;
     59            UINT8 j_index=0;
     60            PTable.WarmupGoal=0;
   \   00000002   0x.... 0x....      LDR.W    R4,??DataTable7
     61            PTable.CooldownGoal=0;
     62            PTable.TableTotalGoal=0;
     63            PTable.WorkoutTotalSegment=0;
     64            if(Ptable_RunPara->WorkoutRunType == FOLLOW_TABLE)
   \   00000006   0x6A61             LDR      R1,[R4, #+36]
   \   00000008   0x2000             MOVS     R0,#+0
   \   0000000A   0x60A0             STR      R0,[R4, #+8]
   \   0000000C   0x6020             STR      R0,[R4, #+0]
   \   0000000E   0x2500             MOVS     R5,#+0
   \   00000010   0x780A             LDRB     R2,[R1, #+0]
   \   00000012   0x2600             MOVS     R6,#+0
   \   00000014   0x2A01             CMP      R2,#+1
   \   00000016   0xD145             BNE.N    ??ProgramTable_LookUpParameter_0
     65            {
     66              PTable.Segamount=Ptable_RunPara->Segamount;
   \   00000018   0x790A             LDRB     R2,[R1, #+4]
   \   0000001A   0x7522             STRB     R2,[R4, #+20]
     67              for(char i = 0; i<Ptable_RunPara->Segamount; i++)
   \   0000001C   0x2200             MOVS     R2,#+0
   \   0000001E   0xE012             B.N      ??ProgramTable_LookUpParameter_1
     68              {
     69                returnVal=Ptable_RunPara->StatusStageGoal[i].Status;
     70                if(loopState==0 && returnVal==Repeat)
     71                {
     72                  PTable.WarmupGoal = PTable.TableTotalGoal;
     73                  PTable.RepeatStart = i;
     74                  loopState = 1;
     75                }
     76                if(loopState==1 && returnVal==CoolDown)
   \                     ??ProgramTable_LookUpParameter_2: (+1)
   \   00000020   0x2F02             CMP      R7,#+2
   \   00000022   0xD108             BNE.N    ??ProgramTable_LookUpParameter_3
     77                {
     78                  PTable.CooldownGoal += Ptable_RunPara->StatusStageGoal[i].StageGoal;
   \   00000024   0xEB05 0x0543      ADD      R5,R5,R3, LSL #+1
   \   00000028   0x8966             LDRH     R6,[R4, #+10]
   \   0000002A   0x786D             LDRB     R5,[R5, #+1]
   \   0000002C   0x19AD             ADDS     R5,R5,R6
   \   0000002E   0x8165             STRH     R5,[R4, #+10]
     79                  if(PTable.CoolDownStart == 0) 	PTable.CoolDownStart = i;
   \   00000030   0x7CE5             LDRB     R5,[R4, #+19]
   \   00000032   0xB905             CBNZ.N   R5,??ProgramTable_LookUpParameter_3
   \   00000034   0x74E2             STRB     R2,[R4, #+19]
     80                }
     81                PTable.TableTotalGoal  += Ptable_RunPara->StatusStageGoal[i].StageGoal;
   \                     ??ProgramTable_LookUpParameter_3: (+1)
   \   00000036   0x688E             LDR      R6,[R1, #+8]
   \   00000038   0x8865             LDRH     R5,[R4, #+2]
   \   0000003A   0xEB06 0x0343      ADD      R3,R6,R3, LSL #+1
   \   0000003E   0x1C52             ADDS     R2,R2,#+1
   \   00000040   0x785B             LDRB     R3,[R3, #+1]
   \   00000042   0x195B             ADDS     R3,R3,R5
   \   00000044   0x8063             STRH     R3,[R4, #+2]
   \                     ??ProgramTable_LookUpParameter_1: (+1)
   \   00000046   0xB2D3             UXTB     R3,R2
   \   00000048   0x790D             LDRB     R5,[R1, #+4]
   \   0000004A   0x42AB             CMP      R3,R5
   \   0000004C   0xD20C             BCS.N    ??ProgramTable_LookUpParameter_4
   \   0000004E   0x688D             LDR      R5,[R1, #+8]
   \   00000050   0xF815 0x7013      LDRB     R7,[R5, R3, LSL #+1]
   \   00000054   0x2800             CMP      R0,#+0
   \   00000056   0xB2D2             UXTB     R2,R2
   \   00000058   0xD1E2             BNE.N    ??ProgramTable_LookUpParameter_2
   \   0000005A   0x2F01             CMP      R7,#+1
   \   0000005C   0xD1EB             BNE.N    ??ProgramTable_LookUpParameter_3
   \   0000005E   0x8860             LDRH     R0,[R4, #+2]
   \   00000060   0x8120             STRH     R0,[R4, #+8]
   \   00000062   0x74A2             STRB     R2,[R4, #+18]
   \   00000064   0x2001             MOVS     R0,#+1
   \   00000066   0xE7E6             B.N      ??ProgramTable_LookUpParameter_3
     82              }
     83              
     84              Data_Set_SpeedOffset(0);
   \                     ??ProgramTable_LookUpParameter_4: (+1)
   \   00000068   0x2000             MOVS     R0,#+0
   \   0000006A   0x.... 0x....      BL       Data_Set_SpeedOffset
     85              Data_Set_InclineOffset(0);
   \   0000006E   0x2000             MOVS     R0,#+0
   \   00000070   0x.... 0x....      BL       Data_Set_InclineOffset
     86              Data_Set_ResistanceOffset(0);
   \   00000074   0x2000             MOVS     R0,#+0
   \   00000076   0x.... 0x....      BL       Data_Set_ResistanceOffset
     87              Data_Set_WarmUP_Time(PTable.WarmupGoal);
   \   0000007A   0x8920             LDRH     R0,[R4, #+8]
   \   0000007C   0x.... 0x....      BL       Data_Set_WarmUP_Time
     88              Data_Set_CoolDown_Time(PTable.CooldownGoal);
   \   00000080   0x8960             LDRH     R0,[R4, #+10]
   \   00000082   0x.... 0x....      BL       Data_Set_CoolDown_Time
     89              Data_Set_Time(PTable.TableTotalGoal);
   \   00000086   0x8860             LDRH     R0,[R4, #+2]
   \   00000088   0x.... 0x....      BL       Data_Set_Time
     90            }
     91            else if(Ptable_RunPara->WorkoutRunType == TOTAL_GOAL_AVERAGE)
     92            {
     93              PTable.Segamount=Ptable_RunPara->Segamount;
     94              Data_Set_WarmUP_Time(0);
     95              Data_Set_CoolDown_Time(0);
     96            }
     97            else if(Ptable_RunPara->WorkoutRunType == TOTALGOAL_WITH_REPEAT)
     98            {
     99              PTable.Segamount=Ptable_RunPara->Segamount;
    100              for(char i = 0; i<Ptable_RunPara->Segamount; i++)
    101              {
    102                returnVal=Ptable_RunPara->StatusStageGoal[i].Status;
    103                if(loopState==0 && returnVal==Repeat)
    104                {
    105                  PTable.WarmupGoal = PTable.TableTotalGoal;
    106                  PTable.RepeatStart = i;
    107                  loopState = 1;
    108                }
    109                if(loopState==1 && returnVal==CoolDown)
    110                {
    111                  PTable.CooldownGoal += Ptable_RunPara->StatusStageGoal[i].StageGoal;
    112                  if(PTable.CoolDownStart == 0) 	PTable.CoolDownStart = i;
    113                }
    114                PTable.TableTotalGoal  += Ptable_RunPara->StatusStageGoal[i].StageGoal;
    115              }
    116              if(Ptable_RunPara->StageGoalType==STAGEGOAL_TYPE_DISTANCE)
    117              {
    118                Data_Set_WarmUP_Distance(PTable.WarmupGoal);
    119                Data_Set_CoolDown_Distance(PTable.CooldownGoal);
    120              }
    121              else if(Ptable_RunPara->StageGoalType==STAGEGOAL_TYPE_TIME)
    122              {
    123                Data_Set_WarmUP_Time(PTable.WarmupGoal);
    124                Data_Set_CoolDown_Time(PTable.CooldownGoal);
    125              }
    126              else if(Ptable_RunPara->StageGoalType==STAGEGOAL_TYPE_CALORIES)
    127              {
    128                Data_Set_WarmUP_Calories(PTable.WarmupGoal);
    129                Data_Set_CoolDown_Calories(PTable.CooldownGoal);
    130              }
    131              if(Ptable_RunPara->WorkoutGoalType==GOAL_TYPES_DISTANCE)
    132              {
    133                for(UINT8 i=0;w_Dat<DistanceTargetArray[PTable.DistanceIndex].Data;i++)
    134                {
    135                  if(PTable.CoolDownStart !=0 )
    136                  {
    137                    if(PTable.CoolDownStart==i &&(Data_Get_Distance(COOLDOWN_DISTANCE)+w_Dat>DistanceTargetArray[PTable.DistanceIndex].Data))
    138                    {
    139                      i=PTable.RepeatStart; 
    140                    }
    141                    else
    142                    {
    143                      i=PTable.CoolDownStart; 
    144                    }
    145                  }
    146                  else
    147                  {
    148                    if(PTable.Segamount==i)
    149                    {
    150                      i=PTable.RepeatStart; 
    151                    }
    152                  }
    153                  w_Dat +=Ptable_RunPara->StatusStageGoal[i].StageGoal;
    154                  PTable.WorkoutTotalSegment++;
    155                }
    156              }
    157              else if(Ptable_RunPara->WorkoutGoalType==GOAL_TYPES_TIME)
    158              {
    159                	for( j_index=0;(PTable.targetTime+PTable.WarmupGoal+PTable.CooldownGoal)>w_Dat;j_index++)
    160          	{
    161          		if(PTable.CoolDownStart !=0)
    162          		{
    163          			//          if(w_Dat>Data_Get_Time(WARMUP_TIME)&&(j_index==PTable.RepeatStart))
    164          			//            j_index=PTable.RepeatStart;
    165          			if(/*PTable.CoolDownStart==j_index && */Data_Get_Time(COOLDOWN_TIME)+w_Dat==(PTable.targetTime+PTable.WarmupGoal+PTable.CooldownGoal))
    166          			{
    167          				//            j=PTable.RepeatStart;
    168          				j_index=PTable.CoolDownStart; 
    169          			}
    170          			else if(PTable.CoolDownStart==j_index && Data_Get_Time(COOLDOWN_TIME)+w_Dat<(PTable.targetTime+PTable.WarmupGoal+PTable.CooldownGoal)) //if()
    171          			{
    172          				j_index=PTable.RepeatStart;
    173          //				if(Program_Get_subProgramID()!=PS_EDURANCE_INTERVALS)
    174          //				{
    175          //					if((PTable.targetTime+PTable.WarmupGoal+PTable.CooldownGoal)-(Data_Get_Time(COOLDOWN_TIME)+w_Dat)<90)
    176          //					{
    177          //						j_index++;
    178          //						w_Dat=(PTable.targetTime+PTable.WarmupGoal+PTable.CooldownGoal)-Data_Get_Time(COOLDOWN_TIME)-30;
    179          //					}
    180          //				}
    181          				//            else
    182          				////            j=PTable.CoolDownStart; 
    183          				//            j=PTable.RepeatStart; 
    184          			}
    185          		}
    186          		else
    187          		{
    188          			if(PTable.Segamount==j_index)
    189          			{
    190          				j_index=PTable.RepeatStart; 
    191          			}
    192          		}
    193          		w_Dat +=Ptable_RunPara->StatusStageGoal[j_index].StageGoal;
    194          		PTable.WorkoutTotalSegment++;
    195          	}
    196              }
    197              else if(Ptable_RunPara->WorkoutGoalType==GOAL_TYPES_CALORIES)
    198              {
    199                for(UINT8 i=0;PTable.targetCalories>w_Dat;i++)
    200                {
    201                  if(PTable.CoolDownStart !=0)
    202                  {
    203                    if(Data_Get_Calories(COOLDOWN_CALORIES)+w_Dat>PTable.targetCalories)
    204                    {
    205                      if(PTable.CoolDownStart==i)
    206                        i=PTable.RepeatStart; 
    207                    }
    208                    else
    209                    {
    210                      i=PTable.CoolDownStart; 
    211                    }
    212                  }
    213                  else
    214                  {
    215                    if(PTable.Segamount==i)
    216                    {
    217                      i=PTable.RepeatStart; 
    218                    }
    219                  }
    220                  w_Dat +=Ptable_RunPara->StatusStageGoal[i].StageGoal;
    221                  PTable.WorkoutTotalSegment++;
    222                }
    223              }
    224            }
    225            if(Ptable_RunPara->WorkoutRunType == FOLLOW_TABLE)
   \                     ??ProgramTable_LookUpParameter_5: (+1)
   \   0000008C   0x6A61             LDR      R1,[R4, #+36]
   \   0000008E   0x7808             LDRB     R0,[R1, #+0]
   \   00000090   0x2801             CMP      R0,#+1
   \   00000092   0xF040 0x80EC      BNE.W    ??ProgramTable_LookUpParameter_6
    226            {
    227              PTable.SegmentGoal = Ptable_RunPara->StatusStageGoal[PTable.Stage].StageGoal;
   \   00000096   0x7D60             LDRB     R0,[R4, #+21]
   \   00000098   0x6889             LDR      R1,[R1, #+8]
   \   0000009A   0xEB01 0x0040      ADD      R0,R1,R0, LSL #+1
   \   0000009E   0x7840             LDRB     R0,[R0, #+1]
   \   000000A0   0x80E0             STRH     R0,[R4, #+6]
    228              Data_Set_StageTime(PTable.SegmentGoal);  
   \   000000A2   0xE0ED             B.N      ??ProgramTable_LookUpParameter_7
    229            }
   \                     ??ProgramTable_LookUpParameter_0: (+1)
   \   000000A4   0xB942             CBNZ.N   R2,??ProgramTable_LookUpParameter_8
   \   000000A6   0x7908             LDRB     R0,[R1, #+4]
   \   000000A8   0x7520             STRB     R0,[R4, #+20]
   \   000000AA   0x2000             MOVS     R0,#+0
   \   000000AC   0x.... 0x....      BL       Data_Set_WarmUP_Time
   \   000000B0   0x2000             MOVS     R0,#+0
   \   000000B2   0x.... 0x....      BL       Data_Set_CoolDown_Time
   \   000000B6   0xE7E9             B.N      ??ProgramTable_LookUpParameter_5
   \                     ??ProgramTable_LookUpParameter_8: (+1)
   \   000000B8   0x2A02             CMP      R2,#+2
   \   000000BA   0xD1E7             BNE.N    ??ProgramTable_LookUpParameter_5
   \   000000BC   0x790A             LDRB     R2,[R1, #+4]
   \   000000BE   0x7522             STRB     R2,[R4, #+20]
   \   000000C0   0x2200             MOVS     R2,#+0
   \   000000C2   0xE014             B.N      ??ProgramTable_LookUpParameter_9
   \                     ??ProgramTable_LookUpParameter_10: (+1)
   \   000000C4   0x2F02             CMP      R7,#+2
   \   000000C6   0xD109             BNE.N    ??ProgramTable_LookUpParameter_11
   \   000000C8   0xEB0C 0x0C43      ADD      R12,R12,R3, LSL #+1
   \   000000CC   0x8967             LDRH     R7,[R4, #+10]
   \   000000CE   0xF89C 0xC001      LDRB     R12,[R12, #+1]
   \   000000D2   0x4467             ADD      R7,R12,R7
   \   000000D4   0x8167             STRH     R7,[R4, #+10]
   \   000000D6   0x7CE7             LDRB     R7,[R4, #+19]
   \   000000D8   0xB907             CBNZ.N   R7,??ProgramTable_LookUpParameter_11
   \   000000DA   0x74E2             STRB     R2,[R4, #+19]
   \                     ??ProgramTable_LookUpParameter_11: (+1)
   \   000000DC   0xF8D1 0xC008      LDR      R12,[R1, #+8]
   \   000000E0   0x8867             LDRH     R7,[R4, #+2]
   \   000000E2   0xEB0C 0x0343      ADD      R3,R12,R3, LSL #+1
   \   000000E6   0x1C52             ADDS     R2,R2,#+1
   \   000000E8   0x785B             LDRB     R3,[R3, #+1]
   \   000000EA   0x19DB             ADDS     R3,R3,R7
   \   000000EC   0x8063             STRH     R3,[R4, #+2]
   \                     ??ProgramTable_LookUpParameter_9: (+1)
   \   000000EE   0xB2D3             UXTB     R3,R2
   \   000000F0   0x790F             LDRB     R7,[R1, #+4]
   \   000000F2   0x42BB             CMP      R3,R7
   \   000000F4   0xD20D             BCS.N    ??ProgramTable_LookUpParameter_12
   \   000000F6   0xF8D1 0xC008      LDR      R12,[R1, #+8]
   \   000000FA   0xF81C 0x7013      LDRB     R7,[R12, R3, LSL #+1]
   \   000000FE   0x2800             CMP      R0,#+0
   \   00000100   0xB2D2             UXTB     R2,R2
   \   00000102   0xD1DF             BNE.N    ??ProgramTable_LookUpParameter_10
   \   00000104   0x2F01             CMP      R7,#+1
   \   00000106   0xD1E9             BNE.N    ??ProgramTable_LookUpParameter_11
   \   00000108   0x8860             LDRH     R0,[R4, #+2]
   \   0000010A   0x8120             STRH     R0,[R4, #+8]
   \   0000010C   0x74A2             STRB     R2,[R4, #+18]
   \   0000010E   0x2001             MOVS     R0,#+1
   \   00000110   0xE7E4             B.N      ??ProgramTable_LookUpParameter_11
   \                     ??ProgramTable_LookUpParameter_12: (+1)
   \   00000112   0x7888             LDRB     R0,[R1, #+2]
   \   00000114   0x2802             CMP      R0,#+2
   \   00000116   0xD106             BNE.N    ??ProgramTable_LookUpParameter_13
   \   00000118   0x8920             LDRH     R0,[R4, #+8]
   \   0000011A   0x.... 0x....      BL       Data_Set_WarmUP_Distance
   \   0000011E   0x8960             LDRH     R0,[R4, #+10]
   \   00000120   0x.... 0x....      BL       Data_Set_CoolDown_Distance
   \   00000124   0xE010             B.N      ??ProgramTable_LookUpParameter_14
   \                     ??ProgramTable_LookUpParameter_13: (+1)
   \   00000126   0x2801             CMP      R0,#+1
   \   00000128   0xD106             BNE.N    ??ProgramTable_LookUpParameter_15
   \   0000012A   0x8920             LDRH     R0,[R4, #+8]
   \   0000012C   0x.... 0x....      BL       Data_Set_WarmUP_Time
   \   00000130   0x8960             LDRH     R0,[R4, #+10]
   \   00000132   0x.... 0x....      BL       Data_Set_CoolDown_Time
   \   00000136   0xE007             B.N      ??ProgramTable_LookUpParameter_14
   \                     ??ProgramTable_LookUpParameter_15: (+1)
   \   00000138   0x2803             CMP      R0,#+3
   \   0000013A   0xD105             BNE.N    ??ProgramTable_LookUpParameter_14
   \   0000013C   0x8920             LDRH     R0,[R4, #+8]
   \   0000013E   0x.... 0x....      BL       Data_Set_WarmUP_Calories
   \   00000142   0x8960             LDRH     R0,[R4, #+10]
   \   00000144   0x.... 0x....      BL       Data_Set_CoolDown_Calories
   \                     ??ProgramTable_LookUpParameter_14: (+1)
   \   00000148   0x6A60             LDR      R0,[R4, #+36]
   \   0000014A   0x7840             LDRB     R0,[R0, #+1]
   \   0000014C   0x2802             CMP      R0,#+2
   \   0000014E   0xD12C             BNE.N    ??ProgramTable_LookUpParameter_16
   \   00000150   0x2000             MOVS     R0,#+0
   \   00000152   0x.... 0x....      ADR.W    R6,DistanceTargetArray
   \   00000156   0xE010             B.N      ??ProgramTable_LookUpParameter_17
   \                     ??ProgramTable_LookUpParameter_18: (+1)
   \   00000158   0x7D21             LDRB     R1,[R4, #+20]
   \   0000015A   0xB2C2             UXTB     R2,R0
   \   0000015C   0x4291             CMP      R1,R2
   \   0000015E   0xD100             BNE.N    ??ProgramTable_LookUpParameter_19
   \                     ??ProgramTable_LookUpParameter_20: (+1)
   \   00000160   0x7CA0             LDRB     R0,[R4, #+18]
   \                     ??ProgramTable_LookUpParameter_19: (+1)
   \   00000162   0x6A61             LDR      R1,[R4, #+36]
   \   00000164   0x6889             LDR      R1,[R1, #+8]
   \   00000166   0xB2C0             UXTB     R0,R0
   \   00000168   0xEB01 0x0140      ADD      R1,R1,R0, LSL #+1
   \   0000016C   0x1C40             ADDS     R0,R0,#+1
   \   0000016E   0x7849             LDRB     R1,[R1, #+1]
   \   00000170   0x194D             ADDS     R5,R1,R5
   \   00000172   0x8821             LDRH     R1,[R4, #+0]
   \   00000174   0x1C49             ADDS     R1,R1,#+1
   \   00000176   0xB2AD             UXTH     R5,R5
   \   00000178   0x8021             STRH     R1,[R4, #+0]
   \                     ??ProgramTable_LookUpParameter_17: (+1)
   \   0000017A   0x7DE1             LDRB     R1,[R4, #+23]
   \   0000017C   0xEB06 0x0181      ADD      R1,R6,R1, LSL #+2
   \   00000180   0x8849             LDRH     R1,[R1, #+2]
   \   00000182   0x428D             CMP      R5,R1
   \   00000184   0xDA82             BGE.N    ??ProgramTable_LookUpParameter_5
   \   00000186   0x7CE1             LDRB     R1,[R4, #+19]
   \   00000188   0x000A             MOVS     R2,R1
   \   0000018A   0xD0E5             BEQ.N    ??ProgramTable_LookUpParameter_18
   \   0000018C   0xB2C0             UXTB     R0,R0
   \   0000018E   0x4281             CMP      R1,R0
   \   00000190   0xD109             BNE.N    ??ProgramTable_LookUpParameter_21
   \   00000192   0x2004             MOVS     R0,#+4
   \   00000194   0x.... 0x....      BL       Data_Get_Distance
   \   00000198   0x7DE1             LDRB     R1,[R4, #+23]
   \   0000019A   0xEB06 0x0181      ADD      R1,R6,R1, LSL #+2
   \   0000019E   0x1828             ADDS     R0,R5,R0
   \   000001A0   0x8849             LDRH     R1,[R1, #+2]
   \   000001A2   0x4281             CMP      R1,R0
   \   000001A4   0xDBDC             BLT.N    ??ProgramTable_LookUpParameter_20
   \                     ??ProgramTable_LookUpParameter_21: (+1)
   \   000001A6   0x7CE0             LDRB     R0,[R4, #+19]
   \   000001A8   0xE7DB             B.N      ??ProgramTable_LookUpParameter_19
   \                     ??ProgramTable_LookUpParameter_16: (+1)
   \   000001AA   0x2801             CMP      R0,#+1
   \   000001AC   0xD014             BEQ.N    ??ProgramTable_LookUpParameter_22
   \   000001AE   0x2803             CMP      R0,#+3
   \   000001B0   0xF47F 0xAF6C      BNE.W    ??ProgramTable_LookUpParameter_5
   \   000001B4   0xE049             B.N      ??ProgramTable_LookUpParameter_23
   \                     ??ProgramTable_LookUpParameter_24: (+1)
   \   000001B6   0x7D20             LDRB     R0,[R4, #+20]
   \   000001B8   0xB2F1             UXTB     R1,R6
   \   000001BA   0x4288             CMP      R0,R1
   \   000001BC   0xD100             BNE.N    ??ProgramTable_LookUpParameter_25
   \                     ??ProgramTable_LookUpParameter_26: (+1)
   \   000001BE   0x7CA6             LDRB     R6,[R4, #+18]
   \                     ??ProgramTable_LookUpParameter_25: (+1)
   \   000001C0   0x6A60             LDR      R0,[R4, #+36]
   \   000001C2   0x6880             LDR      R0,[R0, #+8]
   \   000001C4   0xB2F6             UXTB     R6,R6
   \   000001C6   0xEB00 0x0046      ADD      R0,R0,R6, LSL #+1
   \   000001CA   0x1C76             ADDS     R6,R6,#+1
   \   000001CC   0x7840             LDRB     R0,[R0, #+1]
   \   000001CE   0x1945             ADDS     R5,R0,R5
   \   000001D0   0x8820             LDRH     R0,[R4, #+0]
   \   000001D2   0x1C40             ADDS     R0,R0,#+1
   \   000001D4   0xB2AD             UXTH     R5,R5
   \   000001D6   0x8020             STRH     R0,[R4, #+0]
   \                     ??ProgramTable_LookUpParameter_22: (+1)
   \   000001D8   0x89E0             LDRH     R0,[R4, #+14]
   \   000001DA   0x8921             LDRH     R1,[R4, #+8]
   \   000001DC   0x1808             ADDS     R0,R1,R0
   \   000001DE   0x8961             LDRH     R1,[R4, #+10]
   \   000001E0   0x1808             ADDS     R0,R1,R0
   \   000001E2   0x4285             CMP      R5,R0
   \   000001E4   0xF6BF 0xAF52      BGE.W    ??ProgramTable_LookUpParameter_5
   \   000001E8   0x7CE0             LDRB     R0,[R4, #+19]
   \   000001EA   0x2800             CMP      R0,#+0
   \   000001EC   0xD0E3             BEQ.N    ??ProgramTable_LookUpParameter_24
   \   000001EE   0x2005             MOVS     R0,#+5
   \   000001F0   0x.... 0x....      BL       Data_Get_Time
   \   000001F4   0x89E1             LDRH     R1,[R4, #+14]
   \   000001F6   0x8922             LDRH     R2,[R4, #+8]
   \   000001F8   0x1851             ADDS     R1,R2,R1
   \   000001FA   0x8962             LDRH     R2,[R4, #+10]
   \   000001FC   0x1828             ADDS     R0,R5,R0
   \   000001FE   0x1851             ADDS     R1,R2,R1
   \   00000200   0x4288             CMP      R0,R1
   \   00000202   0xBF08             IT       EQ 
   \   00000204   0x7CE6             LDRBEQ   R6,[R4, #+19]
   \   00000206   0xD0DB             BEQ.N    ??ProgramTable_LookUpParameter_25
   \   00000208   0x7CE0             LDRB     R0,[R4, #+19]
   \   0000020A   0xB2F1             UXTB     R1,R6
   \   0000020C   0x4288             CMP      R0,R1
   \   0000020E   0xD1D7             BNE.N    ??ProgramTable_LookUpParameter_25
   \   00000210   0x2005             MOVS     R0,#+5
   \   00000212   0x.... 0x....      BL       Data_Get_Time
   \   00000216   0x89E1             LDRH     R1,[R4, #+14]
   \   00000218   0x8922             LDRH     R2,[R4, #+8]
   \   0000021A   0x1851             ADDS     R1,R2,R1
   \   0000021C   0x8962             LDRH     R2,[R4, #+10]
   \   0000021E   0x1828             ADDS     R0,R5,R0
   \   00000220   0x1851             ADDS     R1,R2,R1
   \   00000222   0x4288             CMP      R0,R1
   \   00000224   0xDACC             BGE.N    ??ProgramTable_LookUpParameter_25
   \   00000226   0xE7CA             B.N      ??ProgramTable_LookUpParameter_26
   \                     ??ProgramTable_LookUpParameter_27: (+1)
   \   00000228   0x7D20             LDRB     R0,[R4, #+20]
   \                     ??ProgramTable_LookUpParameter_28: (+1)
   \   0000022A   0xB2F1             UXTB     R1,R6
   \   0000022C   0x4288             CMP      R0,R1
   \   0000022E   0xBF08             IT       EQ 
   \   00000230   0x7CA6             LDRBEQ   R6,[R4, #+18]
   \                     ??ProgramTable_LookUpParameter_29: (+1)
   \   00000232   0x6A60             LDR      R0,[R4, #+36]
   \   00000234   0x6880             LDR      R0,[R0, #+8]
   \   00000236   0xB2F6             UXTB     R6,R6
   \   00000238   0xEB00 0x0046      ADD      R0,R0,R6, LSL #+1
   \   0000023C   0x1C76             ADDS     R6,R6,#+1
   \   0000023E   0x7840             LDRB     R0,[R0, #+1]
   \   00000240   0x1945             ADDS     R5,R0,R5
   \   00000242   0x8820             LDRH     R0,[R4, #+0]
   \   00000244   0x1C40             ADDS     R0,R0,#+1
   \   00000246   0xB2AD             UXTH     R5,R5
   \   00000248   0x8020             STRH     R0,[R4, #+0]
   \                     ??ProgramTable_LookUpParameter_23: (+1)
   \   0000024A   0x8A20             LDRH     R0,[R4, #+16]
   \   0000024C   0x4285             CMP      R5,R0
   \   0000024E   0xF6BF 0xAF1D      BGE.W    ??ProgramTable_LookUpParameter_5
   \   00000252   0x7CE0             LDRB     R0,[R4, #+19]
   \   00000254   0x2800             CMP      R0,#+0
   \   00000256   0xD0E7             BEQ.N    ??ProgramTable_LookUpParameter_27
   \   00000258   0x2004             MOVS     R0,#+4
   \   0000025A   0x.... 0x....      BL       Data_Get_Calories
   \   0000025E   0x8A21             LDRH     R1,[R4, #+16]
   \   00000260   0x1828             ADDS     R0,R5,R0
   \   00000262   0x4281             CMP      R1,R0
   \   00000264   0xBFB8             IT       LT 
   \   00000266   0x7CE0             LDRBLT   R0,[R4, #+19]
   \   00000268   0xDBDF             BLT.N    ??ProgramTable_LookUpParameter_28
   \   0000026A   0x7CE6             LDRB     R6,[R4, #+19]
   \   0000026C   0xE7E1             B.N      ??ProgramTable_LookUpParameter_29
    230            else if(Ptable_RunPara->WorkoutRunType == TOTAL_GOAL_AVERAGE)
   \                     ??ProgramTable_LookUpParameter_6: (+1)
   \   0000026E   0xB958             CBNZ.N   R0,??ProgramTable_LookUpParameter_30
    231            {
    232              PTable.SegmentGoal= Data_Get_Time(TARGET_TIME)/Ptable_RunPara->Segamount;
   \   00000270   0x.... 0x....      BL       Data_Get_Time
   \   00000274   0x6A61             LDR      R1,[R4, #+36]
   \   00000276   0x7909             LDRB     R1,[R1, #+4]
   \   00000278   0xFB90 0xF0F1      SDIV     R0,R0,R1
   \   0000027C   0x80E0             STRH     R0,[R4, #+6]
    233              Data_Set_StageTime(PTable.SegmentGoal);  
   \   0000027E   0x88E0             LDRH     R0,[R4, #+6]
   \                     ??ProgramTable_LookUpParameter_7: (+1)
   \   00000280   0xE8BD 0x40F2      POP      {R1,R4-R7,LR}
   \   00000284   0x.... 0x....      B.W      Data_Set_StageTime
    234            }
    235            else if(Ptable_RunPara->WorkoutRunType == TOTALGOAL_WITH_REPEAT)
   \                     ??ProgramTable_LookUpParameter_30: (+1)
   \   00000288   0x2802             CMP      R0,#+2
   \   0000028A   0xD10F             BNE.N    ??ProgramTable_LookUpParameter_31
    236            {
    237              PTable.SegmentGoal = Ptable_RunPara->StatusStageGoal[PTable.Stage].StageGoal;
   \   0000028C   0x7D60             LDRB     R0,[R4, #+21]
   \   0000028E   0x688A             LDR      R2,[R1, #+8]
   \   00000290   0xEB02 0x0040      ADD      R0,R2,R0, LSL #+1
   \   00000294   0x7840             LDRB     R0,[R0, #+1]
   \   00000296   0x80E0             STRH     R0,[R4, #+6]
    238              if(Ptable_RunPara->StageGoalType==STAGEGOAL_TYPE_TIME)
   \   00000298   0x7889             LDRB     R1,[R1, #+2]
   \   0000029A   0x2901             CMP      R1,#+1
   \   0000029C   0xD106             BNE.N    ??ProgramTable_LookUpParameter_31
    239              {
    240                Data_Set_StageTime(PTable.SegmentGoal);
   \   0000029E   0x.... 0x....      BL       Data_Set_StageTime
    241                Data_Set_Time(PTable.targetTime);//+PTable.WarmupGoal+PTable.CooldownGoal);
   \   000002A2   0x89E0             LDRH     R0,[R4, #+14]
   \   000002A4   0xE8BD 0x40F2      POP      {R1,R4-R7,LR}
   \   000002A8   0x.... 0x....      B.W      Data_Set_Time
    242              }
    243            }
    244          }
   \                     ??ProgramTable_LookUpParameter_31: (+1)
   \   000002AC   0xBDF1             POP      {R0,R4-R7,PC}    ;; return
    245          

   \                                 In section .text, align 2, keep-with-next
    246          void ProgramTable_Data_Initial(void)
    247          {
    248            UINT8 i=0,j=0;
    249            memset(&PTable,0,sizeof(P_Table));
   \                     ProgramTable_Data_Initial: (+1)
   \   00000000   0x211C             MOVS     R1,#+28
   \   00000002   0xE92D 0x47F0      PUSH     {R4-R10,LR}
   \   00000006   0x.... 0x....      LDR.W    R4,??DataTable7
    250            Pro_table.Setting_Array=ProTable_TimeSetUp;  
   \   0000000A   0x.... 0x....      LDR.W    R6,??DataTable9
   \   0000000E   0x.... 0x....      LDR.W    R8,??DataTable9_1
    251           	Ptable_RunPara = ProgramLibConfigPara->Pro_Config[3].RunParameter[0];  
   \   00000012   0x.... 0x....      LDR.W    R7,??DataTable9_2
   \   00000016   0x4620             MOV      R0,R4
   \   00000018   0x.... 0x....      BL       __aeabi_memclr4
   \   0000001C   0xF8C6 0x8004      STR      R8,[R6, #+4]
   \   00000020   0x2500             MOVS     R5,#+0
   \   00000022   0x6838             LDR      R0,[R7, #+0]
   \   00000024   0x6800             LDR      R0,[R0, #+0]
   \   00000026   0x6BC0             LDR      R0,[R0, #+60]
   \   00000028   0x6800             LDR      R0,[R0, #+0]
   \   0000002A   0x6260             STR      R0,[R4, #+36]
    252            for(i=0;i<ProgramLibConfigPara->ProgramTotalNum;i++)
   \   0000002C   0x46AA             MOV      R10,R5
   \   0000002E   0xE003             B.N      ??ProgramTable_Data_Initial_0
   \                     ??ProgramTable_Data_Initial_1: (+1)
   \   00000030   0xF10A 0x0001      ADD      R0,R10,#+1
   \   00000034   0xFA5F 0xFA80      UXTB     R10,R0
   \                     ??ProgramTable_Data_Initial_0: (+1)
   \   00000038   0x6838             LDR      R0,[R7, #+0]
   \   0000003A   0x7900             LDRB     R0,[R0, #+4]
   \   0000003C   0x4582             CMP      R10,R0
   \   0000003E   0xDA25             BGE.N    ??ProgramTable_Data_Initial_2
    253            {
    254              if(ProgramLibConfigPara->Pro_Config[i].ProgramFirstID==Program_Get_ProgramID())
   \   00000040   0x.... 0x....      BL       Program_Get_ProgramID
   \   00000044   0x6839             LDR      R1,[R7, #+0]
   \   00000046   0x6809             LDR      R1,[R1, #+0]
   \   00000048   0xEA4F 0x190A      LSL      R9,R10,#+4
   \   0000004C   0xF811 0x2009      LDRB     R2,[R1, R9]
   \   00000050   0x4282             CMP      R2,R0
   \   00000052   0xD1ED             BNE.N    ??ProgramTable_Data_Initial_1
    255              {
    256                Ptable_RunPara = ProgramLibConfigPara->Pro_Config[i].RunParameter[0];
   \   00000054   0xEB01 0x0009      ADD      R0,R1,R9
   \   00000058   0x68C0             LDR      R0,[R0, #+12]
   \   0000005A   0x6800             LDR      R0,[R0, #+0]
   \   0000005C   0x6260             STR      R0,[R4, #+36]
    257                for(j=0;j<ProgramLibConfigPara->Pro_Config[i].ProgramSubidNum;j++)
   \   0000005E   0xE000             B.N      ??ProgramTable_Data_Initial_3
   \                     ??ProgramTable_Data_Initial_4: (+1)
   \   00000060   0x1C6D             ADDS     R5,R5,#+1
   \                     ??ProgramTable_Data_Initial_3: (+1)
   \   00000062   0x6839             LDR      R1,[R7, #+0]
   \   00000064   0x6809             LDR      R1,[R1, #+0]
   \   00000066   0x4449             ADD      R1,R1,R9
   \   00000068   0xB2E8             UXTB     R0,R5
   \   0000006A   0x7A09             LDRB     R1,[R1, #+8]
   \   0000006C   0x4288             CMP      R0,R1
   \   0000006E   0xD20D             BCS.N    ??ProgramTable_Data_Initial_2
    258                {
    259                  if(ProgramLibConfigPara->Pro_Config[i].ProgramSubID[j]==Program_Get_subProgramID())
   \   00000070   0x.... 0x....      BL       Program_Get_subProgramID
   \   00000074   0x6839             LDR      R1,[R7, #+0]
   \   00000076   0x6809             LDR      R1,[R1, #+0]
   \   00000078   0x4449             ADD      R1,R1,R9
   \   0000007A   0xB2ED             UXTB     R5,R5
   \   0000007C   0x684A             LDR      R2,[R1, #+4]
   \   0000007E   0x5D52             LDRB     R2,[R2, R5]
   \   00000080   0x4282             CMP      R2,R0
   \   00000082   0xD1ED             BNE.N    ??ProgramTable_Data_Initial_4
    260                  {
    261                    Ptable_RunPara = ProgramLibConfigPara->Pro_Config[i].RunParameter[j];
   \   00000084   0x68C8             LDR      R0,[R1, #+12]
   \   00000086   0xF850 0x0025      LDR      R0,[R0, R5, LSL #+2]
   \   0000008A   0x6260             STR      R0,[R4, #+36]
    262                    break;
   \                     ??ProgramTable_Data_Initial_2: (+1)
   \   0000008C   0x6A60             LDR      R0,[R4, #+36]
   \   0000008E   0x7840             LDRB     R0,[R0, #+1]
   \   00000090   0x2802             CMP      R0,#+2
   \   00000092   0xD109             BNE.N    ??ProgramTable_Data_Initial_5
    263                  }
    264                }
    265                break;
    266              }
    267            }
    268            
    269            if(Ptable_RunPara->WorkoutGoalType==GOAL_TYPES_DISTANCE)
    270            {
    271              if(SystemConfig_Get_Char(MACHINE_TYPE_UINT8)==TREADMILL)
   \   00000094   0x2003             MOVS     R0,#+3
   \   00000096   0x.... 0x....      BL       SystemConfig_Get_Char
   \   0000009A   0x2800             CMP      R0,#+0
   \   0000009C   0xBF14             ITE      NE 
   \   0000009E   0x.... 0x....      LDRNE.W  R0,??DataTable9_3
   \   000000A2   0x.... 0x....      LDREQ.W  R0,??DataTable9_4
    272                Pro_table.Setting_Array = TM_ProTable_DistanceSetUp;
    273              else
    274                Pro_table.Setting_Array = EP_ProTable_DistanceSetUp;
   \   000000A6   0xE00E             B.N      ??ProgramTable_Data_Initial_6
    275            }
    276            else if(Ptable_RunPara->WorkoutGoalType==GOAL_TYPES_TIME)
   \                     ??ProgramTable_Data_Initial_5: (+1)
   \   000000A8   0x2801             CMP      R0,#+1
   \   000000AA   0xBF08             IT       EQ 
   \   000000AC   0xF8C6 0x8004      STREQ    R8,[R6, #+4]
    277            {
    278              Pro_table.Setting_Array=ProTable_TimeSetUp;
   \   000000B0   0xD00A             BEQ.N    ??ProgramTable_Data_Initial_7
    279            }
    280            else if(Ptable_RunPara->WorkoutGoalType==GOAL_TYPES_CALORIES)
   \   000000B2   0x2803             CMP      R0,#+3
   \   000000B4   0xD108             BNE.N    ??ProgramTable_Data_Initial_7
    281            {
    282              if(SystemConfig_Get_Char(MACHINE_TYPE_UINT8)==TREADMILL)
   \   000000B6   0x.... 0x....      BL       SystemConfig_Get_Char
   \   000000BA   0x2800             CMP      R0,#+0
   \   000000BC   0xBF0C             ITE      EQ 
   \   000000BE   0x.... 0x....      LDREQ.W  R0,??DataTable9_5
   \   000000C2   0x.... 0x....      LDRNE.W  R0,??DataTable9_6
    283                Pro_table.Setting_Array = TM_ProTable_CaloriesSetUp;
    284              else
    285                Pro_table.Setting_Array = EP_ProTable_CaloriesSetUp;
   \                     ??ProgramTable_Data_Initial_6: (+1)
   \   000000C6   0x6070             STR      R0,[R6, #+4]
   \                     ??ProgramTable_Data_Initial_7: (+1)
   \   000000C8   0x6A60             LDR      R0,[R4, #+36]
   \   000000CA   0x7840             LDRB     R0,[R0, #+1]
   \   000000CC   0x2801             CMP      R0,#+1
   \   000000CE   0xD103             BNE.N    ??ProgramTable_Data_Initial_8
    286            }
    287          //  else if(Ptable_RunPara->WorkoutGoalType==GOAL_TYPES_STEPS)
    288          //  {
    289          //    if(SystemConfig_Get_Char(MACHINE_TYPE_UINT8)==TREADMILL)
    290          //      Pro_table.Setting_Array = TM_ProTable_StepsSetUp;
    291          //    else
    292          //      Pro_table.Setting_Array = EP_ProTable_CaloriesSetUp;
    293          //  }
    294            if(Ptable_RunPara->WorkoutGoalType==GOAL_TYPES_TIME)
    295              PTable.targetTime=1800;
   \   000000D0   0xF44F 0x60E1      MOV      R0,#+1800
   \   000000D4   0x81E0             STRH     R0,[R4, #+14]
   \   000000D6   0xE008             B.N      ??ProgramTable_Data_Initial_9
    296            else if(Ptable_RunPara->WorkoutGoalType==GOAL_TYPES_CALORIES)
   \                     ??ProgramTable_Data_Initial_8: (+1)
   \   000000D8   0x2803             CMP      R0,#+3
   \   000000DA   0xD102             BNE.N    ??ProgramTable_Data_Initial_10
    297              PTable.targetCalories=100;
   \   000000DC   0x2064             MOVS     R0,#+100
   \   000000DE   0x8220             STRH     R0,[R4, #+16]
   \   000000E0   0xE003             B.N      ??ProgramTable_Data_Initial_9
    298            else if(Ptable_RunPara->WorkoutGoalType==GOAL_TYPES_DISTANCE)
   \                     ??ProgramTable_Data_Initial_10: (+1)
   \   000000E2   0x2802             CMP      R0,#+2
   \   000000E4   0xBF04             ITT      EQ 
   \   000000E6   0x2000             MOVEQ    R0,#+0
   \   000000E8   0x75A0             STRBEQ   R0,[R4, #+22]
    299              //    Data_Set_Distance(1000);
    300              PTable.State = WARM_UP;
    301            Data_Set_Level(1);
   \                     ??ProgramTable_Data_Initial_9: (+1)
   \   000000EA   0x2001             MOVS     R0,#+1
   \   000000EC   0x.... 0x....      BL       Data_Set_Level
    302            Data_Set_Level_MaxVal(Ptable_RunPara->Levelamount);
   \   000000F0   0x6A60             LDR      R0,[R4, #+36]
   \   000000F2   0x78C0             LDRB     R0,[R0, #+3]
   \   000000F4   0x.... 0x....      BL       Data_Set_Level_MaxVal
    303           // Data_Set_Speed_Base_User(Data_Get_Min_SpeedX10(),0);
    304             Data_Set_Speed(Data_Get_Speed(MIN_SPEEDX10),SystemConfig_Get_Display_Unit(User_Get_UserSlot( )),0); 
   \   000000F8   0x.... 0x....      BL       User_Get_UserSlot
   \   000000FC   0x.... 0x....      BL       SystemConfig_Get_Display_Unit
   \   00000100   0x4605             MOV      R5,R0
   \   00000102   0x200E             MOVS     R0,#+14
   \   00000104   0x.... 0x....      BL       Data_Get_Speed
   \   00000108   0x2200             MOVS     R2,#+0
   \   0000010A   0x4629             MOV      R1,R5
   \   0000010C   0x.... 0x....      BL       Data_Set_Speed
    305            Data_Set_Resistance(SystemConfig_Get_Char(MIN_RESISTANCE_UINT8),0);
   \   00000110   0x2010             MOVS     R0,#+16
   \   00000112   0x.... 0x....      BL       SystemConfig_Get_Char
   \   00000116   0x2100             MOVS     R1,#+0
   \   00000118   0x.... 0x....      BL       Data_Set_Resistance
    306            Data_Set_Incline(0,0);
   \   0000011C   0x2100             MOVS     R1,#+0
   \   0000011E   0x2000             MOVS     R0,#+0
   \   00000120   0x.... 0x....      BL       Data_Set_Incline
    307            
    308            ProgramTable_LookUpParameter();
   \   00000124   0x.... 0x....      BL       ProgramTable_LookUpParameter
    309            if(SystemConfig_Get_Char(MACHINE_TYPE_UINT8)==TREADMILL)
   \   00000128   0x2003             MOVS     R0,#+3
   \   0000012A   0x.... 0x....      BL       SystemConfig_Get_Char
   \   0000012E   0x2800             CMP      R0,#+0
   \   00000130   0x6A60             LDR      R0,[R4, #+36]
   \   00000132   0x7940             LDRB     R0,[R0, #+5]
   \   00000134   0xD103             BNE.N    ??ProgramTable_Data_Initial_11
    310            {
    311              if(Ptable_RunPara->DefalultProfleType==PROFILE_TYPE_SPEED)
   \   00000136   0x2801             CMP      R0,#+1
   \   00000138   0xD105             BNE.N    ??ProgramTable_Data_Initial_12
    312              {
    313                ProfileIndex=DefaultDotmatrix=PROFILE_TYPE_SPEED;
   \   0000013A   0x2101             MOVS     R1,#+1
   \   0000013C   0xE005             B.N      ??ProgramTable_Data_Initial_13
    314              }
    315              else
    316              {
    317                ProfileIndex=DefaultDotmatrix=PROFILE_TYPE_INCLINE;
    318              }
    319            }
    320            else
    321            {
    322              if(Ptable_RunPara->DefalultProfleType==PROFILE_TYPE_RESISTANCE)
   \                     ??ProgramTable_Data_Initial_11: (+1)
   \   0000013E   0x2803             CMP      R0,#+3
   \   00000140   0xBF08             IT       EQ 
   \   00000142   0x2103             MOVEQ    R1,#+3
    323              {
    324                ProfileIndex=DefaultDotmatrix=PROFILE_TYPE_RESISTANCE;
   \   00000144   0xD001             BEQ.N    ??ProgramTable_Data_Initial_13
    325              }
    326              else
    327              {
    328                ProfileIndex=DefaultDotmatrix=PROFILE_TYPE_INCLINE;
   \                     ??ProgramTable_Data_Initial_12: (+1)
   \   00000146   0x2002             MOVS     R0,#+2
   \   00000148   0x2102             MOVS     R1,#+2
   \                     ??ProgramTable_Data_Initial_13: (+1)
   \   0000014A   0x.... 0x....      LDR.W    R2,??DataTable9_7
   \   0000014E   0x7010             STRB     R0,[R2, #+0]
   \   00000150   0x.... 0x....      LDR.W    R0,??DataTable9_8
   \   00000154   0x7001             STRB     R1,[R0, #+0]
    329              }
    330            }
    331          }
   \   00000156   0xE8BD 0x87F0      POP      {R4-R10,PC}      ;; return

   \                                 In section .text, align 2, keep-with-next
    332          void ProgramTable_BeginWorkout(void)
    333          {
   \                     ProgramTable_BeginWorkout: (+1)
   \   00000000   0xB510             PUSH     {R4,LR}
    334            
    335            if(Ptable_RunPara->WorkoutGoalType==GOAL_TYPES_DISTANCE)
   \   00000002   0x.... 0x....      LDR.W    R4,??DataTable9_9
   \   00000006   0x6A60             LDR      R0,[R4, #+36]
   \   00000008   0x7840             LDRB     R0,[R0, #+1]
   \   0000000A   0x2802             CMP      R0,#+2
   \   0000000C   0xD10C             BNE.N    ??ProgramTable_BeginWorkout_0
    336            {
    337              Data_Set_targetDistancex1000(DistanceTargetArray[PTable.DistanceIndex].Data);
   \   0000000E   0x7DE1             LDRB     R1,[R4, #+23]
   \   00000010   0x.... 0x....      ADR.W    R0,DistanceTargetArray
   \   00000014   0xEB00 0x0081      ADD      R0,R0,R1, LSL #+2
   \   00000018   0x8840             LDRH     R0,[R0, #+2]
   \   0000001A   0x.... 0x....      BL       Data_Set_targetDistancex1000
    338              Data_Set_Time(0);
   \   0000001E   0x2000             MOVS     R0,#+0
   \   00000020   0x.... 0x....      BL       Data_Set_Time
    339              Data_Set_targetCalories(0);
   \   00000024   0x2000             MOVS     R0,#+0
   \   00000026   0xE017             B.N      ??ProgramTable_BeginWorkout_1
    340            }
    341            else if(Ptable_RunPara->WorkoutGoalType==GOAL_TYPES_TIME)
   \                     ??ProgramTable_BeginWorkout_0: (+1)
   \   00000028   0x2801             CMP      R0,#+1
   \   0000002A   0xD10C             BNE.N    ??ProgramTable_BeginWorkout_2
    342            {
    343              Data_Set_targetDistancex1000(0);
   \   0000002C   0x2000             MOVS     R0,#+0
   \   0000002E   0x.... 0x....      BL       Data_Set_targetDistancex1000
    344              Data_Set_Time(PTable.targetTime+PTable.WarmupGoal+PTable.CooldownGoal);//lxl
   \   00000032   0x89E0             LDRH     R0,[R4, #+14]
   \   00000034   0x8921             LDRH     R1,[R4, #+8]
   \   00000036   0x1808             ADDS     R0,R1,R0
   \   00000038   0x8961             LDRH     R1,[R4, #+10]
   \   0000003A   0x1808             ADDS     R0,R1,R0
   \   0000003C   0xB280             UXTH     R0,R0
   \   0000003E   0x.... 0x....      BL       Data_Set_Time
    345              Data_Set_targetCalories(0);
   \   00000042   0x2000             MOVS     R0,#+0
   \   00000044   0xE008             B.N      ??ProgramTable_BeginWorkout_1
    346            }
    347            else if(Ptable_RunPara->WorkoutGoalType==GOAL_TYPES_CALORIES)
   \                     ??ProgramTable_BeginWorkout_2: (+1)
   \   00000046   0x2803             CMP      R0,#+3
   \   00000048   0xD108             BNE.N    ??ProgramTable_BeginWorkout_3
    348            {
    349              Data_Set_targetDistancex1000(0);
   \   0000004A   0x2000             MOVS     R0,#+0
   \   0000004C   0x.... 0x....      BL       Data_Set_targetDistancex1000
    350              Data_Set_Time(0);
   \   00000050   0x2000             MOVS     R0,#+0
   \   00000052   0x.... 0x....      BL       Data_Set_Time
    351              Data_Set_targetCalories(PTable.targetCalories);
   \   00000056   0x8A20             LDRH     R0,[R4, #+16]
   \                     ??ProgramTable_BeginWorkout_1: (+1)
   \   00000058   0x.... 0x....      BL       Data_Set_targetCalories
    352            }
    353            if(Ptable_RunPara->SpeedTable!=NULL)
   \                     ??ProgramTable_BeginWorkout_3: (+1)
   \   0000005C   0x6A60             LDR      R0,[R4, #+36]
   \   0000005E   0x68C0             LDR      R0,[R0, #+12]
   \   00000060   0xB178             CBZ.N    R0,??ProgramTable_BeginWorkout_4
    354            {
    355              PTable.SpeedBase=Ptable_RunPara->SpeedTable[Ptable_RunPara->Segamount*(Data_Get_Level(TARGET_LEVEL)-1)+PTable.Stage];
   \   00000062   0x2002             MOVS     R0,#+2
   \   00000064   0x.... 0x....      BL       Data_Get_Level
   \   00000068   0x6A61             LDR      R1,[R4, #+36]
   \   0000006A   0x68CA             LDR      R2,[R1, #+12]
   \   0000006C   0x7909             LDRB     R1,[R1, #+4]
   \   0000006E   0x7D63             LDRB     R3,[R4, #+21]
   \   00000070   0x1E40             SUBS     R0,R0,#+1
   \   00000072   0xFB00 0x3001      MLA      R0,R0,R1,R3
    356              
    357            //  Data_Set_Speed_Base_User( PTable.SpeedBase,0);
    358              Data_Set_Speed( PTable.SpeedBase,STANDARD,0);
   \   00000076   0x2100             MOVS     R1,#+0
   \   00000078   0x5C10             LDRB     R0,[R2, R0]
   \   0000007A   0x7660             STRB     R0,[R4, #+25]
   \   0000007C   0x2200             MOVS     R2,#+0
   \   0000007E   0x.... 0x....      BL       Data_Set_Speed
    359            }
    360            if(Ptable_RunPara->InclineTable!=NULL)
   \                     ??ProgramTable_BeginWorkout_4: (+1)
   \   00000082   0x6A60             LDR      R0,[R4, #+36]
   \   00000084   0x6900             LDR      R0,[R0, #+16]
   \   00000086   0xB170             CBZ.N    R0,??ProgramTable_BeginWorkout_5
    361            {
    362             PTable.InclineBase=Ptable_RunPara->InclineTable[Ptable_RunPara->Segamount*(Data_Get_Level(TARGET_LEVEL)-1)+PTable.Stage];
   \   00000088   0x2002             MOVS     R0,#+2
   \   0000008A   0x.... 0x....      BL       Data_Get_Level
   \   0000008E   0x6A61             LDR      R1,[R4, #+36]
   \   00000090   0x690A             LDR      R2,[R1, #+16]
   \   00000092   0x7909             LDRB     R1,[R1, #+4]
   \   00000094   0x7D63             LDRB     R3,[R4, #+21]
   \   00000096   0x1E40             SUBS     R0,R0,#+1
   \   00000098   0xFB00 0x3001      MLA      R0,R0,R1,R3
    363           		Data_Set_Incline(PTable.InclineBase,0);
   \   0000009C   0x2100             MOVS     R1,#+0
   \   0000009E   0x5C10             LDRB     R0,[R2, R0]
   \   000000A0   0x76A0             STRB     R0,[R4, #+26]
   \   000000A2   0x.... 0x....      BL       Data_Set_Incline
    364            }
    365            if(Ptable_RunPara->ResistanceTable!=NULL)
    366            {
    367            //  PTable.ResistanceBase=Ptable_RunPara->ResistanceTable[Ptable_RunPara->Segamount*(Data_Get_Level(TARGET_LEVEL)-1)+PTable.Stage];
    368             // Data_Set_Resistance( PTable.ResistanceBase,0);
    369            }
    370            ProgramTable_LookUpParameter();
   \                     ??ProgramTable_BeginWorkout_5: (+1)
   \   000000A6   0xE8BD 0x4010      POP      {R4,LR}
   \   000000AA   0x....             B.N      ProgramTable_LookUpParameter
    371          }

   \                                 In section .text, align 2, keep-with-next
    372          UINT16 ProgramTable_SetUpData(UINT8 ParaIndex)
    373          {
   \                     ProgramTable_SetUpData: (+1)
   \   00000000   0x4601             MOV      R1,R0
    374            UINT16 w_Dat=0;
   \   00000002   0x2000             MOVS     R0,#+0
    375            switch(ParaIndex)
   \   00000004   0x2901             CMP      R1,#+1
   \   00000006   0xD008             BEQ.N    ??ProgramTable_SetUpData_0
   \   00000008   0x2903             CMP      R1,#+3
   \   0000000A   0xD01F             BEQ.N    ??ProgramTable_SetUpData_1
   \   0000000C   0x2905             CMP      R1,#+5
   \   0000000E   0xD008             BEQ.N    ??ProgramTable_SetUpData_2
   \   00000010   0x2907             CMP      R1,#+7
   \   00000012   0xD00F             BEQ.N    ??ProgramTable_SetUpData_3
   \   00000014   0x2910             CMP      R1,#+16
   \   00000016   0xD011             BEQ.N    ??ProgramTable_SetUpData_4
   \   00000018   0x4770             BX       LR
    376            {
    377              
    378            case INDEX_TIME:
    379              
    380              w_Dat=PTable.targetTime;
   \                     ??ProgramTable_SetUpData_0: (+1)
   \   0000001A   0x.... 0x....      LDR.W    R0,??DataTable9_9
   \   0000001E   0x89C0             LDRH     R0,[R0, #+14]
    381              break;
   \   00000020   0x4770             BX       LR
    382            case INDEX_DISTANCE:
    383              w_Dat=DistanceTargetArray[PTable.DistanceIndex].Data;
   \                     ??ProgramTable_SetUpData_2: (+1)
   \   00000022   0x.... 0x....      LDR.W    R1,??DataTable9_9
   \   00000026   0x.... 0x....      ADR.W    R0,DistanceTargetArray
   \   0000002A   0x7DC9             LDRB     R1,[R1, #+23]
   \   0000002C   0xEB00 0x0081      ADD      R0,R0,R1, LSL #+2
   \   00000030   0x8840             LDRH     R0,[R0, #+2]
    384              break;
   \   00000032   0x4770             BX       LR
    385            case INDEX_CALORIES:
    386              w_Dat=PTable.targetCalories;
   \                     ??ProgramTable_SetUpData_3: (+1)
   \   00000034   0x.... 0x....      LDR.W    R0,??DataTable9_9
   \   00000038   0x8A00             LDRH     R0,[R0, #+16]
    387              break;
   \   0000003A   0x4770             BX       LR
    388            case INDEX_DISTANCE_LABLE:
    389              w_Dat=DistanceTargetArray[PTable.DistanceIndex].Lable;
   \                     ??ProgramTable_SetUpData_4: (+1)
   \   0000003C   0x.... 0x....      LDR.W    R1,??DataTable9_9
   \   00000040   0x.... 0x....      ADR.W    R0,DistanceTargetArray
   \   00000044   0x7DC9             LDRB     R1,[R1, #+23]
   \   00000046   0xF810 0x0021      LDRB     R0,[R0, R1, LSL #+2]
    390              break;
   \   0000004A   0x4770             BX       LR
    391            case INDEX_SPEED:
    392              w_Dat=Data_Get_Speed(TARGET_SPEEDX10_AUTO);
   \                     ??ProgramTable_SetUpData_1: (+1)
   \   0000004C   0x2005             MOVS     R0,#+5
   \   0000004E   0x.... 0x....      B.W      Data_Get_Speed
    393              break;
    394            default:break;
    395            }
    396            return w_Dat;
    397          }

   \                                 In section .text, align 2, keep-with-next
    398          UINT16 ProgramTable_RunData(UINT8 ParaIndex)
    399          {
   \                     ProgramTable_RunData: (+1)
   \   00000000   0x4601             MOV      R1,R0
   \   00000002   0xB580             PUSH     {R7,LR}
    400            UINT16 w_Dat=0;
   \   00000004   0x2000             MOVS     R0,#+0
    401            switch(ParaIndex)
   \   00000006   0x2901             CMP      R1,#+1
   \   00000008   0xD002             BEQ.N    ??ProgramTable_RunData_0
   \   0000000A   0x290B             CMP      R1,#+11
   \   0000000C   0xD00A             BEQ.N    ??ProgramTable_RunData_1
   \   0000000E   0xBD02             POP      {R1,PC}
    402            {
    403            case INDEX_TIME:
    404              if(Data_Get_Time(TARGET_TIME))
   \                     ??ProgramTable_RunData_0: (+1)
   \   00000010   0x.... 0x....      BL       Data_Get_Time
    405              {
    406                //      if(Data_Get_Time(ELAPSED_TIME)<Data_Get_Time(WARMUP_TIME))
    407                //        w_Dat=Data_Get_Time(WARMUP_TIME)-Data_Get_Time(ELAPSED_TIME);
    408                w_Dat=Data_Get_Time(REMAINING_TIME);
    409              }
    410              else
    411              {
    412                w_Dat=Data_Get_Time(ELAPSED_TIME);
   \   00000014   0xE8BD 0x4002      POP      {R1,LR}
   \   00000018   0x2800             CMP      R0,#+0
   \   0000001A   0xBF14             ITE      NE 
   \   0000001C   0x2002             MOVNE    R0,#+2
   \   0000001E   0x2001             MOVEQ    R0,#+1
   \   00000020   0x.... 0x....      B.W      Data_Get_Time
    413              }
    414              break;
    415            case INDEX_WATT:
    416              w_Dat=Data_Get_Watts(CURRENT_WATT);
   \                     ??ProgramTable_RunData_1: (+1)
   \   00000024   0xE8BD 0x4002      POP      {R1,LR}
   \   00000028   0x2001             MOVS     R0,#+1
   \   0000002A   0x.... 0x....      B.W      Data_Get_Watts
    417              break;
    418            }
    419            return w_Dat;
    420          }

   \                                 In section .text, align 2, keep-with-next
    421          PROGRAM_PENDING_EVTS ProgramTable_SetUp(ProgramKeyEvts *keyevt)
    422          {
   \                     ProgramTable_SetUp: (+1)
   \   00000000   0xB5F0             PUSH     {R4-R7,LR}
   \   00000002   0xB083             SUB      SP,SP,#+12
   \   00000004   0x4604             MOV      R4,R0
    423            PROGRAM_PENDING_EVTS pendingEvt;
    424            pendingEvt.evt=PROGRAM_NONE_EVENT;
   \   00000006   0x2000             MOVS     R0,#+0
   \   00000008   0xF88D 0x0000      STRB     R0,[SP, #+0]
   \   0000000C   0x460E             MOV      R6,R1
    425            memset(&pendingEvt.WorkOutEvts,0,sizeof(pendingEvt.WorkOutEvts));
   \   0000000E   0xA801             ADD      R0,SP,#+4
   \   00000010   0x2100             MOVS     R1,#+0
   \   00000012   0x6001             STR      R1,[R0, #+0]
    426            if(keyevt->Bit_All == 0) return pendingEvt;
   \   00000014   0x6830             LDR      R0,[R6, #+0]
   \   00000016   0x2800             CMP      R0,#+0
   \   00000018   0xF000 0x8174      BEQ.W    ??ProgramTable_SetUp_0
    427            
    428            if(keyevt->Bit_Flag.Key_Enter)
   \   0000001C   0x.... 0x....      LDR.W    R7,??DataTable9
   \   00000020   0xF3C0 0x01C0      UBFX     R1,R0,#+3,#+1
   \   00000024   0xB1A9             CBZ.N    R1,??ProgramTable_SetUp_1
    429            {
    430              keyevt->Bit_Flag.Key_Enter=false;
   \   00000026   0xF020 0x0008      BIC      R0,R0,#0x8
   \   0000002A   0x6030             STR      R0,[R6, #+0]
    431              if(Pro_table.Setting_Array[Pro_table.SettingArray_Index] != SET_PRESS_START )
   \   0000002C   0x7A39             LDRB     R1,[R7, #+8]
   \   0000002E   0x687A             LDR      R2,[R7, #+4]
   \   00000030   0x5C52             LDRB     R2,[R2, R1]
   \   00000032   0x2A1F             CMP      R2,#+31
   \   00000034   0xD02C             BEQ.N    ??ProgramTable_SetUp_2
    432              {
    433                keyevt->Bit_Flag.Key_StateChange=true;
   \   00000036   0xF440 0x5080      ORR      R0,R0,#0x1000
   \   0000003A   0x6030             STR      R0,[R6, #+0]
    434                Pro_table.SettingArray_Index++;
   \   0000003C   0x1C48             ADDS     R0,R1,#+1
   \   0000003E   0x7238             STRB     R0,[R7, #+8]
    435                if((Program_Get_ProgramID()==PS_PERFORMANCE)&&Pro_table.SettingArray_Index==1)
   \   00000040   0x.... 0x....      BL       Program_Get_ProgramID
   \   00000044   0x2806             CMP      R0,#+6
   \   00000046   0xBF04             ITT      EQ 
   \   00000048   0x7A38             LDRBEQ   R0,[R7, #+8]
   \   0000004A   0x2801             CMPEQ    R0,#+1
   \   0000004C   0xD120             BNE.N    ??ProgramTable_SetUp_2
    436                 Pro_table.SettingArray_Index++;
   \   0000004E   0x2002             MOVS     R0,#+2
   \   00000050   0xE01D             B.N      ??ProgramTable_SetUp_3
    437              }
    438            }
    439            else if(keyevt->Bit_Flag.Key_Back)
   \                     ??ProgramTable_SetUp_1: (+1)
   \   00000052   0xF3C0 0x1100      UBFX     R1,R0,#+4,#+1
   \   00000056   0xB1D9             CBZ.N    R1,??ProgramTable_SetUp_2
    440            {
    441              keyevt->Bit_Flag.Key_Back=false;
   \   00000058   0xF020 0x0010      BIC      R0,R0,#0x10
   \   0000005C   0x6030             STR      R0,[R6, #+0]
    442              if(Pro_table.Setting_Array[Pro_table.SettingArray_Index] != NO_SETTING )
   \   0000005E   0x7A39             LDRB     R1,[R7, #+8]
   \   00000060   0x687A             LDR      R2,[R7, #+4]
   \   00000062   0x5C53             LDRB     R3,[R2, R1]
   \   00000064   0xB1A3             CBZ.N    R3,??ProgramTable_SetUp_2
    443              {
    444                keyevt->Bit_Flag.Key_StateChange=true;
   \   00000066   0xF440 0x5080      ORR      R0,R0,#0x1000
   \   0000006A   0x6030             STR      R0,[R6, #+0]
    445                if(SET_TIME==Pro_table.Setting_Array[Pro_table.SettingArray_Index])
   \   0000006C   0x5C50             LDRB     R0,[R2, R1]
   \   0000006E   0x2804             CMP      R0,#+4
   \   00000070   0xD104             BNE.N    ??ProgramTable_SetUp_4
    446                {
    447                  Data_Set_Time(30*60);
   \   00000072   0xF44F 0x60E1      MOV      R0,#+1800
   \   00000076   0x.... 0x....      BL       Data_Set_Time
   \   0000007A   0xE006             B.N      ??ProgramTable_SetUp_5
    448                }
    449                else if(SET_LEVEL==Pro_table.Setting_Array[Pro_table.SettingArray_Index])
   \                     ??ProgramTable_SetUp_4: (+1)
   \   0000007C   0x2808             CMP      R0,#+8
   \   0000007E   0xD104             BNE.N    ??ProgramTable_SetUp_5
    450                {
    451                  Data_Set_Level(Data_Get_Level(MIN_LEVEL));
   \   00000080   0x2001             MOVS     R0,#+1
   \   00000082   0x.... 0x....      BL       Data_Get_Level
   \   00000086   0x.... 0x....      BL       Data_Set_Level
    452                }
    453                Pro_table.SettingArray_Index--;
   \                     ??ProgramTable_SetUp_5: (+1)
   \   0000008A   0x7A38             LDRB     R0,[R7, #+8]
   \   0000008C   0x1E40             SUBS     R0,R0,#+1
   \                     ??ProgramTable_SetUp_3: (+1)
   \   0000008E   0x7238             STRB     R0,[R7, #+8]
    454              }
    455            }
    456            switch(Pro_table.Setting_Array[Pro_table.SettingArray_Index])
   \                     ??ProgramTable_SetUp_2: (+1)
   \   00000090   0x6878             LDR      R0,[R7, #+4]
   \   00000092   0x7A39             LDRB     R1,[R7, #+8]
   \   00000094   0x.... 0x....      LDR.W    R5,??DataTable9_9
   \   00000098   0x5C40             LDRB     R0,[R0, R1]
   \   0000009A   0x2801             CMP      R0,#+1
   \   0000009C   0xBF18             IT       NE 
   \   0000009E   0x2802             CMPNE    R0,#+2
   \   000000A0   0xD00F             BEQ.N    ??ProgramTable_SetUp_6
   \   000000A2   0x2804             CMP      R0,#+4
   \   000000A4   0xD01F             BEQ.N    ??ProgramTable_SetUp_7
   \   000000A6   0x2805             CMP      R0,#+5
   \   000000A8   0xF000 0x80B7      BEQ.W    ??ProgramTable_SetUp_8
   \   000000AC   0x2808             CMP      R0,#+8
   \   000000AE   0xF000 0x8080      BEQ.W    ??ProgramTable_SetUp_9
   \   000000B2   0x280C             CMP      R0,#+12
   \   000000B4   0xD03C             BEQ.N    ??ProgramTable_SetUp_10
   \   000000B6   0x280D             CMP      R0,#+13
   \   000000B8   0xD059             BEQ.N    ??ProgramTable_SetUp_11
   \   000000BA   0x281F             CMP      R0,#+31
   \   000000BC   0xF000 0x80F1      BEQ.W    ??ProgramTable_SetUp_12
   \   000000C0   0xE0F9             B.N      ??ProgramTable_SetUp_13
    457            {
    458            case SET_PROGRAM:
    459              if(keyevt->Bit_Flag.Key_StateChange)
    460              {
    461                keyevt->Bit_Flag.Key_StateChange=false;
    462                pendingEvt.evt=PROGRAM_CHANGE_EVENT;
    463                Pro_table.Prg_NextStatus(PS_SELECTPRG);
    464                
    465                ProgramTable_Data_Initial();
    466              }      
    467              break;
    468                case SET_SUBPROGRAM:
    469              if(keyevt->Bit_Flag.Key_StateChange)
   \                     ??ProgramTable_SetUp_6: (+1)
   \   000000C2   0x6830             LDR      R0,[R6, #+0]
   \   000000C4   0xF3C0 0x3100      UBFX     R1,R0,#+12,#+1
   \   000000C8   0x2900             CMP      R1,#+0
   \   000000CA   0xF000 0x80F4      BEQ.W    ??ProgramTable_SetUp_13
    470              {
    471                keyevt->Bit_Flag.Key_StateChange=false;
   \   000000CE   0xF420 0x5080      BIC      R0,R0,#0x1000
   \   000000D2   0x6030             STR      R0,[R6, #+0]
    472                pendingEvt.evt=PROGRAM_CHANGE_EVENT;
   \   000000D4   0x2002             MOVS     R0,#+2
   \   000000D6   0xF88D 0x0000      STRB     R0,[SP, #+0]
    473                Pro_table.Prg_NextStatus(PS_SELECTPRG);
   \   000000DA   0x2001             MOVS     R0,#+1
   \   000000DC   0x6A39             LDR      R1,[R7, #+32]
   \   000000DE   0x4788             BLX      R1
    474                
    475                ProgramTable_Data_Initial();
   \   000000E0   0x.... 0x....      BL       ProgramTable_Data_Initial
   \   000000E4   0xE0E7             B.N      ??ProgramTable_SetUp_13
    476              }      
    477              break;
    478             case SET_TIME:
    479              if(keyevt->Bit_Flag.Key_StateChange)
   \                     ??ProgramTable_SetUp_7: (+1)
   \   000000E6   0x6830             LDR      R0,[R6, #+0]
   \   000000E8   0xF3C0 0x3100      UBFX     R1,R0,#+12,#+1
   \   000000EC   0xB129             CBZ.N    R1,??ProgramTable_SetUp_14
    480              {
    481                keyevt->Bit_Flag.Key_StateChange=false;
   \   000000EE   0xF420 0x5080      BIC      R0,R0,#0x1000
   \   000000F2   0x6030             STR      R0,[R6, #+0]
    482                pendingEvt.evt=TIME_CHANGE_EVENT;
   \   000000F4   0x2006             MOVS     R0,#+6
   \   000000F6   0xF88D 0x0000      STRB     R0,[SP, #+0]
    483              }
    484              if(keyevt->Bit_Flag.Key_Up)
   \                     ??ProgramTable_SetUp_14: (+1)
   \   000000FA   0x6830             LDR      R0,[R6, #+0]
   \   000000FC   0x07C1             LSLS     R1,R0,#+31
   \   000000FE   0xD508             BPL.N    ??ProgramTable_SetUp_15
    485              {
    486                if(PTable.targetTime<99*60)
   \   00000100   0x89E8             LDRH     R0,[R5, #+14]
   \   00000102   0xF241 0x7134      MOVW     R1,#+5940
   \   00000106   0x4288             CMP      R0,R1
   \   00000108   0xBFB8             IT       LT 
   \   0000010A   0x303C             ADDLT    R0,R0,#+60
    487                {
    488                  PTable.targetTime +=60;
   \   0000010C   0xDB0D             BLT.N    ??ProgramTable_SetUp_16
    489                }
    490                else
    491                {
    492                  PTable.targetTime=99*60;
   \   0000010E   0x81E9             STRH     R1,[R5, #+14]
   \   00000110   0xE00C             B.N      ??ProgramTable_SetUp_17
    493                }
    494                pendingEvt.evt=TIME_CHANGE_EVENT;
    495              }
    496              else if(keyevt->Bit_Flag.Key_Dn)
   \                     ??ProgramTable_SetUp_15: (+1)
   \   00000112   0xF3C0 0x0040      UBFX     R0,R0,#+1,#+1
   \   00000116   0x2800             CMP      R0,#+0
   \   00000118   0xF000 0x80CD      BEQ.W    ??ProgramTable_SetUp_13
    497              {
    498                if(PTable.targetTime>15*60)
   \   0000011C   0x89E8             LDRH     R0,[R5, #+14]
   \   0000011E   0xF5B0 0x7F61      CMP      R0,#+900
   \   00000122   0xBFCC             ITE      GT 
   \   00000124   0x383C             SUBGT    R0,R0,#+60
   \   00000126   0xF44F 0x7061      MOVLE    R0,#+900
    499                {
    500                  PTable.targetTime -=60;
    501                }
    502                else
    503                {
    504                  PTable.targetTime=15*60;
   \                     ??ProgramTable_SetUp_16: (+1)
   \   0000012A   0x81E8             STRH     R0,[R5, #+14]
    505                }
    506                pendingEvt.evt=TIME_CHANGE_EVENT;
   \                     ??ProgramTable_SetUp_17: (+1)
   \   0000012C   0x2006             MOVS     R0,#+6
   \   0000012E   0xE0C0             B.N      ??ProgramTable_SetUp_18
    507              }
    508              break;
    509           case SET_DISTANCE:
    510              if(keyevt->Bit_Flag.Key_StateChange)
   \                     ??ProgramTable_SetUp_10: (+1)
   \   00000130   0x6830             LDR      R0,[R6, #+0]
   \   00000132   0xF3C0 0x3100      UBFX     R1,R0,#+12,#+1
   \   00000136   0xB129             CBZ.N    R1,??ProgramTable_SetUp_19
    511              {
    512                keyevt->Bit_Flag.Key_StateChange=false;
   \   00000138   0xF420 0x5080      BIC      R0,R0,#0x1000
   \   0000013C   0x6030             STR      R0,[R6, #+0]
    513                pendingEvt.evt=DISTANCE_CHANGE_EVENT;
   \   0000013E   0x200B             MOVS     R0,#+11
   \   00000140   0xF88D 0x0000      STRB     R0,[SP, #+0]
    514              }
    515              if(keyevt->Bit_Flag.Key_Up)
   \                     ??ProgramTable_SetUp_19: (+1)
   \   00000144   0x6830             LDR      R0,[R6, #+0]
   \   00000146   0x07C1             LSLS     R1,R0,#+31
   \   00000148   0xD505             BPL.N    ??ProgramTable_SetUp_20
    516              {
    517               if(PTable.DistanceIndex<D_MARATHON)
   \   0000014A   0x7DE8             LDRB     R0,[R5, #+23]
   \   0000014C   0x280C             CMP      R0,#+12
   \   0000014E   0xBFAC             ITE      GE 
   \   00000150   0x200C             MOVGE    R0,#+12
   \   00000152   0x1C40             ADDLT    R0,R0,#+1
    518                PTable.DistanceIndex++;
    519               else
    520                PTable.DistanceIndex=D_MARATHON;
   \   00000154   0xE008             B.N      ??ProgramTable_SetUp_21
    521                pendingEvt.evt=DISTANCE_CHANGE_EVENT;
    522              }
    523              else if(keyevt->Bit_Flag.Key_Dn)
   \                     ??ProgramTable_SetUp_20: (+1)
   \   00000156   0xF3C0 0x0040      UBFX     R0,R0,#+1,#+1
   \   0000015A   0x2800             CMP      R0,#+0
   \   0000015C   0xF000 0x80AB      BEQ.W    ??ProgramTable_SetUp_13
    524              {
    525               if(PTable.DistanceIndex>D_1_MILE)
   \   00000160   0x7DE8             LDRB     R0,[R5, #+23]
   \   00000162   0x0001             MOVS     R1,R0
   \   00000164   0xD001             BEQ.N    ??ProgramTable_SetUp_22
    526                PTable.DistanceIndex--;
   \   00000166   0x1E40             SUBS     R0,R0,#+1
   \                     ??ProgramTable_SetUp_21: (+1)
   \   00000168   0x75E8             STRB     R0,[R5, #+23]
    527               else
    528                PTable.DistanceIndex=D_1_MILE;
    529                pendingEvt.evt=DISTANCE_CHANGE_EVENT;
   \                     ??ProgramTable_SetUp_22: (+1)
   \   0000016A   0x200B             MOVS     R0,#+11
   \   0000016C   0xE0A1             B.N      ??ProgramTable_SetUp_18
    530              }
    531              break;
    532            case SET_CALORIES:
    533              if(keyevt->Bit_Flag.Key_StateChange)
   \                     ??ProgramTable_SetUp_11: (+1)
   \   0000016E   0x6830             LDR      R0,[R6, #+0]
   \   00000170   0xF3C0 0x3100      UBFX     R1,R0,#+12,#+1
   \   00000174   0xB129             CBZ.N    R1,??ProgramTable_SetUp_23
    534              {
    535                keyevt->Bit_Flag.Key_StateChange=false;
   \   00000176   0xF420 0x5080      BIC      R0,R0,#0x1000
   \   0000017A   0x6030             STR      R0,[R6, #+0]
    536                pendingEvt.evt=CALORIES_CHANGE_EVENT;
   \   0000017C   0x200A             MOVS     R0,#+10
   \   0000017E   0xF88D 0x0000      STRB     R0,[SP, #+0]
    537              }
    538              if(keyevt->Bit_Flag.Key_Up)
   \                     ??ProgramTable_SetUp_23: (+1)
   \   00000182   0x6830             LDR      R0,[R6, #+0]
   \   00000184   0x07C1             LSLS     R1,R0,#+31
   \   00000186   0xD507             BPL.N    ??ProgramTable_SetUp_24
    539              {
    540                 if(PTable.targetCalories<980)
   \   00000188   0x8A28             LDRH     R0,[R5, #+16]
   \   0000018A   0xF5B0 0x7F75      CMP      R0,#+980
   \   0000018E   0xBFAC             ITE      GE 
   \   00000190   0xF44F 0x7075      MOVGE    R0,#+980
   \   00000194   0x3014             ADDLT    R0,R0,#+20
    541          		PTable.targetCalories +=20;
    542          	else
    543          		PTable.targetCalories =980;
   \   00000196   0xE009             B.N      ??ProgramTable_SetUp_25
    544          	   	
    545                pendingEvt.evt=CALORIES_CHANGE_EVENT;
    546              }
    547              else if(keyevt->Bit_Flag.Key_Dn)
   \                     ??ProgramTable_SetUp_24: (+1)
   \   00000198   0xF3C0 0x0040      UBFX     R0,R0,#+1,#+1
   \   0000019C   0x2800             CMP      R0,#+0
   \   0000019E   0xF000 0x808A      BEQ.W    ??ProgramTable_SetUp_13
    548              {
    549                 if(PTable.targetCalories>20)
   \   000001A2   0x8A28             LDRH     R0,[R5, #+16]
   \   000001A4   0x2815             CMP      R0,#+21
   \   000001A6   0xBFAC             ITE      GE 
   \   000001A8   0x3814             SUBGE    R0,R0,#+20
   \   000001AA   0x2014             MOVLT    R0,#+20
    550          		PTable.targetCalories -=20;
    551          	else
    552          		PTable.targetCalories =20;
   \                     ??ProgramTable_SetUp_25: (+1)
   \   000001AC   0x8228             STRH     R0,[R5, #+16]
    553          	pendingEvt.evt=CALORIES_CHANGE_EVENT;
   \   000001AE   0x200A             MOVS     R0,#+10
   \   000001B0   0xE07F             B.N      ??ProgramTable_SetUp_18
    554              }
    555              break;
    556            case SET_LEVEL:
    557              if(keyevt->Bit_Flag.Key_StateChange)
   \                     ??ProgramTable_SetUp_9: (+1)
   \   000001B2   0x6830             LDR      R0,[R6, #+0]
   \   000001B4   0xF3C0 0x3100      UBFX     R1,R0,#+12,#+1
   \   000001B8   0xB129             CBZ.N    R1,??ProgramTable_SetUp_26
    558              {
    559                keyevt->Bit_Flag.Key_StateChange=false;
   \   000001BA   0xF420 0x5080      BIC      R0,R0,#0x1000
   \   000001BE   0x6030             STR      R0,[R6, #+0]
    560                pendingEvt.evt=LEVEL_CHANGE_EVENT;
   \   000001C0   0x2010             MOVS     R0,#+16
   \   000001C2   0xF88D 0x0000      STRB     R0,[SP, #+0]
    561              }
    562              if(keyevt->Bit_Flag.Key_Up)
   \                     ??ProgramTable_SetUp_26: (+1)
   \   000001C6   0x6830             LDR      R0,[R6, #+0]
   \   000001C8   0x07C1             LSLS     R1,R0,#+31
   \   000001CA   0xD519             BPL.N    ??ProgramTable_SetUp_27
    563              {
    564                keyevt->Bit_Flag.Key_Up=false;
   \   000001CC   0x0840             LSRS     R0,R0,#+1
   \   000001CE   0x0040             LSLS     R0,R0,#+1
   \   000001D0   0x6030             STR      R0,[R6, #+0]
    565          	  if(Program_Get_subProgramID()==PS_PEAK_INTERVALS)
   \   000001D2   0x.... 0x....      BL       Program_Get_subProgramID
   \   000001D6   0x2813             CMP      R0,#+19
   \   000001D8   0xD104             BNE.N    ??ProgramTable_SetUp_28
    566          	  	{
    567          		  if(Data_Get_Level(TARGET_LEVEL)<=5)
   \   000001DA   0x2002             MOVS     R0,#+2
   \   000001DC   0x.... 0x....      BL       Data_Get_Level
   \   000001E0   0x2806             CMP      R0,#+6
   \   000001E2   0xE003             B.N      ??ProgramTable_SetUp_29
    568          		  Data_Set_Level(Data_Get_Level(TARGET_LEVEL)+1);
    569          
    570          	  	}
    571          	  else
    572          	  	{
    573          
    574          			  if(Data_Get_Level(TARGET_LEVEL)<=9)
   \                     ??ProgramTable_SetUp_28: (+1)
   \   000001E4   0x2002             MOVS     R0,#+2
   \   000001E6   0x.... 0x....      BL       Data_Get_Level
   \   000001EA   0x280A             CMP      R0,#+10
   \                     ??ProgramTable_SetUp_29: (+1)
   \   000001EC   0xDA06             BGE.N    ??ProgramTable_SetUp_30
    575          			  Data_Set_Level(Data_Get_Level(TARGET_LEVEL)+1);
   \   000001EE   0x2002             MOVS     R0,#+2
   \   000001F0   0x.... 0x....      BL       Data_Get_Level
   \   000001F4   0x1C40             ADDS     R0,R0,#+1
   \   000001F6   0xB280             UXTH     R0,R0
   \   000001F8   0x.... 0x....      BL       Data_Set_Level
    576          
    577          	  	}
    578                pendingEvt.evt=LEVEL_CHANGE_EVENT;
   \                     ??ProgramTable_SetUp_30: (+1)
   \   000001FC   0x2010             MOVS     R0,#+16
   \   000001FE   0xE058             B.N      ??ProgramTable_SetUp_18
    579              }
    580              else if(keyevt->Bit_Flag.Key_Dn)
   \                     ??ProgramTable_SetUp_27: (+1)
   \   00000200   0xF3C0 0x0040      UBFX     R0,R0,#+1,#+1
   \   00000204   0x2800             CMP      R0,#+0
   \   00000206   0xD056             BEQ.N    ??ProgramTable_SetUp_13
    581              {
    582                Data_Set_Level(Data_Get_Level(TARGET_LEVEL)-1);
   \   00000208   0x2002             MOVS     R0,#+2
   \   0000020A   0x.... 0x....      BL       Data_Get_Level
   \   0000020E   0x1E40             SUBS     R0,R0,#+1
   \   00000210   0xB280             UXTH     R0,R0
   \   00000212   0x.... 0x....      BL       Data_Set_Level
    583                pendingEvt.evt=LEVEL_CHANGE_EVENT;
   \   00000216   0x2010             MOVS     R0,#+16
   \   00000218   0xE04B             B.N      ??ProgramTable_SetUp_18
    584              }
    585              break;
    586            case SET_SPEED:
    587                if(keyevt->Bit_Flag.Key_StateChange)
   \                     ??ProgramTable_SetUp_8: (+1)
   \   0000021A   0x6830             LDR      R0,[R6, #+0]
   \   0000021C   0xF3C0 0x3100      UBFX     R1,R0,#+12,#+1
   \   00000220   0xB129             CBZ.N    R1,??ProgramTable_SetUp_31
    588                {
    589                    keyevt->Bit_Flag.Key_StateChange=false;
   \   00000222   0xF420 0x5080      BIC      R0,R0,#0x1000
   \   00000226   0x6030             STR      R0,[R6, #+0]
    590                    pendingEvt.evt=SPEED_CHANGE_EVENT;
   \   00000228   0x2011             MOVS     R0,#+17
   \   0000022A   0xF88D 0x0000      STRB     R0,[SP, #+0]
    591                }
    592                if(keyevt->Bit_Flag.Key_Up)
   \                     ??ProgramTable_SetUp_31: (+1)
   \   0000022E   0x6830             LDR      R0,[R6, #+0]
   \   00000230   0x07C1             LSLS     R1,R0,#+31
   \   00000232   0xD50F             BPL.N    ??ProgramTable_SetUp_32
    593                {
    594                    Data_Set_Speed(Data_Get_Speed(TARGET_SPEEDX10_AUTO)+1,SystemConfig_Get_Display_Unit(User_Get_UserSlot( ))==METRIC?METRIC:STANDARD,0);
   \   00000234   0x.... 0x....      BL       User_Get_UserSlot
   \   00000238   0x.... 0x....      BL       SystemConfig_Get_Display_Unit
   \   0000023C   0x2801             CMP      R0,#+1
   \   0000023E   0xBF0C             ITE      EQ 
   \   00000240   0x2601             MOVEQ    R6,#+1
   \   00000242   0x2600             MOVNE    R6,#+0
   \   00000244   0x2005             MOVS     R0,#+5
   \   00000246   0x.... 0x....      BL       Data_Get_Speed
   \   0000024A   0x1C40             ADDS     R0,R0,#+1
   \   0000024C   0x2200             MOVS     R2,#+0
   \   0000024E   0x4631             MOV      R1,R6
   \   00000250   0xB280             UXTH     R0,R0
   \   00000252   0xE022             B.N      ??ProgramTable_SetUp_33
    595                }
    596                else if(keyevt->Bit_Flag.Key_Dn)
   \                     ??ProgramTable_SetUp_32: (+1)
   \   00000254   0xF3C0 0x0140      UBFX     R1,R0,#+1,#+1
   \   00000258   0xB179             CBZ.N    R1,??ProgramTable_SetUp_34
    597                {
    598                    Data_Set_Speed(Data_Get_Speed(TARGET_SPEEDX10_AUTO)-1,SystemConfig_Get_Display_Unit(User_Get_UserSlot( ))==METRIC?METRIC:STANDARD,0);
   \   0000025A   0x.... 0x....      BL       User_Get_UserSlot
   \   0000025E   0x.... 0x....      BL       SystemConfig_Get_Display_Unit
   \   00000262   0x2801             CMP      R0,#+1
   \   00000264   0xBF0C             ITE      EQ 
   \   00000266   0x2601             MOVEQ    R6,#+1
   \   00000268   0x2600             MOVNE    R6,#+0
   \   0000026A   0x2005             MOVS     R0,#+5
   \   0000026C   0x.... 0x....      BL       Data_Get_Speed
   \   00000270   0x1E40             SUBS     R0,R0,#+1
   \   00000272   0x2200             MOVS     R2,#+0
   \   00000274   0x4631             MOV      R1,R6
   \   00000276   0xB280             UXTH     R0,R0
   \   00000278   0xE00F             B.N      ??ProgramTable_SetUp_33
    599                }
    600                else if(keyevt->Bit_Flag.Key_QuickKey==true)
   \                     ??ProgramTable_SetUp_34: (+1)
   \   0000027A   0xF3C0 0x40C0      UBFX     R0,R0,#+19,#+1
   \   0000027E   0xB170             CBZ.N    R0,??ProgramTable_SetUp_35
    601                {
    602                    Data_Set_Speed(Data_Get_Speed(TARGET_SPEEDX10_AUTO),SystemConfig_Get_Display_Unit(User_Get_UserSlot( ))==METRIC?METRIC:STANDARD,0);
   \   00000280   0x.... 0x....      BL       User_Get_UserSlot
   \   00000284   0x.... 0x....      BL       SystemConfig_Get_Display_Unit
   \   00000288   0x2801             CMP      R0,#+1
   \   0000028A   0xBF0C             ITE      EQ 
   \   0000028C   0x2601             MOVEQ    R6,#+1
   \   0000028E   0x2600             MOVNE    R6,#+0
   \   00000290   0x2005             MOVS     R0,#+5
   \   00000292   0x.... 0x....      BL       Data_Get_Speed
   \   00000296   0x2200             MOVS     R2,#+0
   \   00000298   0x4631             MOV      R1,R6
   \                     ??ProgramTable_SetUp_33: (+1)
   \   0000029A   0x.... 0x....      BL       Data_Set_Speed
    603                }
    604                pendingEvt.evt=SPEED_CHANGE_EVENT;
   \                     ??ProgramTable_SetUp_35: (+1)
   \   0000029E   0x2011             MOVS     R0,#+17
   \   000002A0   0xE007             B.N      ??ProgramTable_SetUp_18
    605                break;
    606            case SET_PRESS_START:
    607              if(keyevt->Bit_Flag.Key_StateChange)
   \                     ??ProgramTable_SetUp_12: (+1)
   \   000002A2   0x6830             LDR      R0,[R6, #+0]
   \   000002A4   0xF3C0 0x3100      UBFX     R1,R0,#+12,#+1
   \   000002A8   0xB129             CBZ.N    R1,??ProgramTable_SetUp_13
    608              {
    609                keyevt->Bit_Flag.Key_StateChange=false;
   \   000002AA   0xF420 0x5080      BIC      R0,R0,#0x1000
   \   000002AE   0x6030             STR      R0,[R6, #+0]
    610                pendingEvt.evt=SETTING_COMPLETE_EVENT;
   \   000002B0   0x2019             MOVS     R0,#+25
   \                     ??ProgramTable_SetUp_18: (+1)
   \   000002B2   0xF88D 0x0000      STRB     R0,[SP, #+0]
    611              }   
    612            }
    613            if(Ptable_RunPara->SpeedTable!=NULL)
   \                     ??ProgramTable_SetUp_13: (+1)
   \   000002B6   0x6A68             LDR      R0,[R5, #+36]
   \   000002B8   0x68C0             LDR      R0,[R0, #+12]
   \   000002BA   0xB178             CBZ.N    R0,??ProgramTable_SetUp_36
    614            {
    615              PTable.SpeedBase=Ptable_RunPara->SpeedTable[Ptable_RunPara->Segamount*(Data_Get_Level(TARGET_LEVEL)-1)+PTable.Stage];
   \   000002BC   0x2002             MOVS     R0,#+2
   \   000002BE   0x.... 0x....      BL       Data_Get_Level
   \   000002C2   0x6A69             LDR      R1,[R5, #+36]
   \   000002C4   0x68CA             LDR      R2,[R1, #+12]
   \   000002C6   0x7909             LDRB     R1,[R1, #+4]
   \   000002C8   0x7D6B             LDRB     R3,[R5, #+21]
   \   000002CA   0x1E40             SUBS     R0,R0,#+1
   \   000002CC   0xFB00 0x3001      MLA      R0,R0,R1,R3
    616              Data_Set_Speed( PTable.SpeedBase,STANDARD,0);
   \   000002D0   0x2100             MOVS     R1,#+0
   \   000002D2   0x5C10             LDRB     R0,[R2, R0]
   \   000002D4   0x7668             STRB     R0,[R5, #+25]
   \   000002D6   0x2200             MOVS     R2,#+0
   \   000002D8   0x.... 0x....      BL       Data_Set_Speed
    617            }
    618            if(Ptable_RunPara->InclineTable!=NULL)
   \                     ??ProgramTable_SetUp_36: (+1)
   \   000002DC   0x6A68             LDR      R0,[R5, #+36]
   \   000002DE   0x6900             LDR      R0,[R0, #+16]
   \   000002E0   0xB170             CBZ.N    R0,??ProgramTable_SetUp_37
    619            {
    620              PTable.InclineBase=Ptable_RunPara->InclineTable[Ptable_RunPara->Segamount*(Data_Get_Level(TARGET_LEVEL)-1)+PTable.Stage];
   \   000002E2   0x2002             MOVS     R0,#+2
   \   000002E4   0x.... 0x....      BL       Data_Get_Level
   \   000002E8   0x6A69             LDR      R1,[R5, #+36]
   \   000002EA   0x690A             LDR      R2,[R1, #+16]
   \   000002EC   0x7909             LDRB     R1,[R1, #+4]
   \   000002EE   0x7D6B             LDRB     R3,[R5, #+21]
   \   000002F0   0x1E40             SUBS     R0,R0,#+1
   \   000002F2   0xFB00 0x3001      MLA      R0,R0,R1,R3
    621              Data_Set_Incline( PTable.InclineBase,0);
   \   000002F6   0x2100             MOVS     R1,#+0
   \   000002F8   0x5C10             LDRB     R0,[R2, R0]
   \   000002FA   0x76A8             STRB     R0,[R5, #+26]
   \   000002FC   0x.... 0x....      BL       Data_Set_Incline
    622            }
    623            if(Ptable_RunPara->ResistanceTable!=NULL)
    624            {
    625             // PTable.ResistanceBase=Ptable_RunPara->ResistanceTable[Ptable_RunPara->Segamount*(Data_Get_Level(TARGET_LEVEL)-1)+PTable.Stage];
    626              //Data_Set_Resistance( PTable.ResistanceBase,0);
    627            }
    628            
    629            ProgramTable_LookUpParameter();
   \                     ??ProgramTable_SetUp_37: (+1)
   \   00000300   0x.... 0x....      BL       ProgramTable_LookUpParameter
    630            return pendingEvt; 
   \                     ??ProgramTable_SetUp_0: (+1)
   \   00000304   0xE9DD 0x0100      LDRD     R0,R1,[SP, #+0]
   \   00000308   0xE9C4 0x0100      STRD     R0,R1,[R4, #+0]
   \   0000030C   0xB003             ADD      SP,SP,#+12
   \   0000030E   0xBDF0             POP      {R4-R7,PC}       ;; return
    631          }

   \                                 In section .text, align 2, keep-with-next
    632          PROFILE *ProgramTable_ProfileShow(PROFILE_TAG tag_index,UCHAR* Dotmatrix_pos)
    633          {
   \                     ProgramTable_ProfileShow: (+1)
   \   00000000   0xE92D 0x4FF8      PUSH     {R3-R11,LR}
    634          	UINT16 by_SEG;
    635          	UINT8 i,k,Index;
    636          	if(Ptable_RunPara->WorkoutRunType == TOTALGOAL_WITH_REPEAT)
   \   00000004   0x.... 0x....      LDR.W    R6,??DataTable7
   \   00000008   0x4681             MOV      R9,R0
   \   0000000A   0x6A70             LDR      R0,[R6, #+36]
   \   0000000C   0x7800             LDRB     R0,[R0, #+0]
   \   0000000E   0x2802             CMP      R0,#+2
   \   00000010   0xF040 0x809A      BNE.W    ??ProgramTable_ProfileShow_0
    637          	{
    638          		by_SEG=PTable.WorkoutTotalSegment-1-PTable.Stage;
   \   00000014   0x.... 0x....      LDR.W    R4,??DataTable9_2
   \   00000018   0x6824             LDR      R4,[R4, #+0]
   \   0000001A   0x8832             LDRH     R2,[R6, #+0]
   \   0000001C   0x7D70             LDRB     R0,[R6, #+21]
   \   0000001E   0x7964             LDRB     R4,[R4, #+5]
   \   00000020   0x1E53             SUBS     R3,R2,#+1
   \   00000022   0x1A1B             SUBS     R3,R3,R0
   \   00000024   0x42A2             CMP      R2,R4
   \   00000026   0xB29B             UXTH     R3,R3
   \   00000028   0xD304             BCC.N    ??ProgramTable_ProfileShow_1
    639          		if(PTable.WorkoutTotalSegment<ProgramLibConfigPara->DotMatrixLength)
    640          		{
    641          			*Dotmatrix_pos = PTable.Stage;
    642          		}
    643          		else
    644          		{
    645          			if(by_SEG < ProgramLibConfigPara->DotMatrixLength)//20
   \   0000002A   0x42A3             CMP      R3,R4
   \   0000002C   0xBFBA             ITTE     LT 
   \   0000002E   0x1E60             SUBLT    R0,R4,#+1
   \   00000030   0x1AC0             SUBLT    R0,R0,R3
   \   00000032   0x2000             MOVGE    R0,#+0
    646          			{
    647          				*Dotmatrix_pos = ProgramLibConfigPara->DotMatrixLength - 1 - by_SEG;
    648          			}
    649          			else
    650          			{
    651          				*Dotmatrix_pos = 0;
   \                     ??ProgramTable_ProfileShow_1: (+1)
   \   00000034   0x7008             STRB     R0,[R1, #+0]
    652          			}
    653          		}
    654          		for( i = *Dotmatrix_pos,k=0; i < ProgramLibConfigPara->DotMatrixLength; i++,k++)
   \   00000036   0xF04F 0x0800      MOV      R8,#+0
   \   0000003A   0x780D             LDRB     R5,[R1, #+0]
   \   0000003C   0x.... 0x....      LDR.W    R4,??DataTable9_10
   \   00000040   0xF04F 0x0AFF      MOV      R10,#+255
   \   00000044   0xE00A             B.N      ??ProgramTable_ProfileShow_2
    655          		{
    656          			Index=k+PTable.TableIndex;
    657                if(PTable.SegmentGoal==60&&k==1)
    658                  Index+=2;
    659          			if(i>=PTable.WorkoutTotalSegment)
    660          			{
    661          				for(i=PTable.WorkoutTotalSegment;i<20;i++)
    662          				{
    663          					Prg_ProfileData.SpeedProfile[i]=255; 
    664          					Prg_ProfileData.InclineProfile[i]=255;
    665          					Prg_ProfileData.ResistanceProfile[i]=0;
    666          				}
    667          			}
    668          			else
    669          			{
    670          				if(PTable.CoolDownStart !=0)
    671          				{//Index=Index%(PTable.CoolDownStart-PTable.RepeatStart)+PTable.CoolDownStart;
    672          					if(PTable.CoolDownStart<=Index)
    673          					{
    674          						if(k>(PTable.WorkoutTotalSegment-1-PTable.Stage)-2)
    675          						{
    676                        if((PTable.WorkoutTotalSegment%2==1)&&(PTable.WorkoutTotalSegment-1-PTable.Stage)<2)
    677                          Index+=1;
    678          							Index=((PTable.WorkoutTotalSegment-Index)%2)+PTable.CoolDownStart; ////2 is cooldown segments
    679          						}
    680          						else
    681          						{
    682          							Index -=PTable.RepeatStart; 
    683          							Index=Index%(PTable.CoolDownStart-PTable.RepeatStart)+PTable.RepeatStart;
    684          						}
    685          					}
    686          				}
    687          				else
    688          				{
    689          					if(PTable.Segamount<=Index)
    690          					{
    691          						Index -=PTable.RepeatStart; 
    692          						Index=Index%(PTable.Segamount-PTable.RepeatStart)+PTable.RepeatStart;
    693          					}
    694          				}
    695          				Index +=Ptable_RunPara->Segamount*(Data_Get_Level(TARGET_LEVEL)-1);
    696          				if(Ptable_RunPara->SpeedTable!=NULL)
    697          				{
    698          //			Prg_ProfileData.SpeedProfile[i]=Data_Get_DotmatrixSpeedData( Ptable_RunPara->SpeedTable[Index]);
    699          				}
    700          				else
    701          				{
    702          					Prg_ProfileData.SpeedProfile[i]=Data_Get_Speed(TARGET_SPEEDX10_AUTO);
    703          				}
    704          
    705          				if(Ptable_RunPara->InclineTable!=NULL)
    706          				{
    707          					Prg_ProfileData.InclineProfile[i]=Data_Get_DotmatrixInclineData( Ptable_RunPara->InclineTable[Index]);
    708          				}
    709          				else
    710          				{
    711          					Prg_ProfileData.InclineProfile[i]=Data_Get_Incline(TARGET_INCLINEX10);
    712          				}
    713          				if(Ptable_RunPara->ResistanceTable!=NULL)
    714          				{
    715          					Prg_ProfileData.ResistanceProfile[i]=Data_Get_DotmatrixResistanceData( Ptable_RunPara->ResistanceTable[Index]);
    716          				}
    717          				else
    718          				{
    719          					Prg_ProfileData.ResistanceProfile[i]=Data_Get_Resistance(TARGET_RESISTANCE);
   \                     ??ProgramTable_ProfileShow_3: (+1)
   \   00000046   0x2006             MOVS     R0,#+6
   \   00000048   0x.... 0x....      BL       Data_Get_Resistance
   \                     ??ProgramTable_ProfileShow_4: (+1)
   \   0000004C   0xF88B 0x001E      STRB     R0,[R11, #+30]
    720          				}
   \                     ??ProgramTable_ProfileShow_5: (+1)
   \   00000050   0x1C6D             ADDS     R5,R5,#+1
   \   00000052   0xF108 0x0001      ADD      R0,R8,#+1
   \   00000056   0xB2ED             UXTB     R5,R5
   \   00000058   0xFA5F 0xF880      UXTB     R8,R0
   \                     ??ProgramTable_ProfileShow_2: (+1)
   \   0000005C   0x.... 0x....      LDR.W    R0,??DataTable9_2
   \   00000060   0x6800             LDR      R0,[R0, #+0]
   \   00000062   0x7940             LDRB     R0,[R0, #+5]
   \   00000064   0x4285             CMP      R5,R0
   \   00000066   0xDA6F             BGE.N    ??ProgramTable_ProfileShow_0
   \   00000068   0x7E30             LDRB     R0,[R6, #+24]
   \   0000006A   0x8832             LDRH     R2,[R6, #+0]
   \   0000006C   0xEB00 0x0708      ADD      R7,R0,R8
   \   00000070   0x88F0             LDRH     R0,[R6, #+6]
   \   00000072   0xB2FF             UXTB     R7,R7
   \   00000074   0x283C             CMP      R0,#+60
   \   00000076   0xBF02             ITTT     EQ 
   \   00000078   0xF1B8 0x0F01      CMPEQ    R8,#+1
   \   0000007C   0x1CBF             ADDEQ    R7,R7,#+2
   \   0000007E   0xB2FF             UXTBEQ   R7,R7
   \   00000080   0x4295             CMP      R5,R2
   \   00000082   0xDB10             BLT.N    ??ProgramTable_ProfileShow_6
   \   00000084   0xB2D5             UXTB     R5,R2
   \   00000086   0xB2D2             UXTB     R2,R2
   \   00000088   0x2A14             CMP      R2,#+20
   \   0000008A   0xDAE1             BGE.N    ??ProgramTable_ProfileShow_5
   \   0000008C   0x1960             ADDS     R0,R4,R5
   \   0000008E   0x2100             MOVS     R1,#+0
   \                     ??ProgramTable_ProfileShow_7: (+1)
   \   00000090   0xF880 0xA000      STRB     R10,[R0, #+0]
   \   00000094   0xF880 0xA01E      STRB     R10,[R0, #+30]
   \   00000098   0xF880 0x103C      STRB     R1,[R0, #+60]
   \   0000009C   0x1C6D             ADDS     R5,R5,#+1
   \   0000009E   0x1C40             ADDS     R0,R0,#+1
   \   000000A0   0x2D14             CMP      R5,#+20
   \   000000A2   0xDBF5             BLT.N    ??ProgramTable_ProfileShow_7
   \   000000A4   0xE7D4             B.N      ??ProgramTable_ProfileShow_5
   \                     ??ProgramTable_ProfileShow_6: (+1)
   \   000000A6   0x7CF0             LDRB     R0,[R6, #+19]
   \   000000A8   0x0001             MOVS     R1,R0
   \   000000AA   0xD01A             BEQ.N    ??ProgramTable_ProfileShow_8
   \   000000AC   0x428F             CMP      R7,R1
   \   000000AE   0xDB25             BLT.N    ??ProgramTable_ProfileShow_9
   \   000000B0   0xF896 0xC015      LDRB     R12,[R6, #+21]
   \   000000B4   0x1E53             SUBS     R3,R2,#+1
   \   000000B6   0xEBA3 0x030C      SUB      R3,R3,R12
   \   000000BA   0xF1A3 0x0C02      SUB      R12,R3,#+2
   \   000000BE   0x45C4             CMP      R12,R8
   \   000000C0   0xDA12             BGE.N    ??ProgramTable_ProfileShow_10
   \   000000C2   0x0851             LSRS     R1,R2,#+1
   \   000000C4   0xEBA2 0x0141      SUB      R1,R2,R1, LSL #+1
   \   000000C8   0x2901             CMP      R1,#+1
   \   000000CA   0xD103             BNE.N    ??ProgramTable_ProfileShow_11
   \   000000CC   0x2B02             CMP      R3,#+2
   \   000000CE   0xBFBC             ITT      LT 
   \   000000D0   0x1C7F             ADDLT    R7,R7,#+1
   \   000000D2   0xB2FF             UXTBLT   R7,R7
   \                     ??ProgramTable_ProfileShow_11: (+1)
   \   000000D4   0x1BD1             SUBS     R1,R2,R7
   \   000000D6   0xEB01 0x72D1      ADD      R2,R1,R1, LSR #+31
   \   000000DA   0x1052             ASRS     R2,R2,#+1
   \   000000DC   0xEBA1 0x0142      SUB      R1,R1,R2, LSL #+1
   \   000000E0   0xE00A             B.N      ??ProgramTable_ProfileShow_12
   \                     ??ProgramTable_ProfileShow_8: (+1)
   \   000000E2   0x7D31             LDRB     R1,[R6, #+20]
   \   000000E4   0x428F             CMP      R7,R1
   \   000000E6   0xDB09             BLT.N    ??ProgramTable_ProfileShow_9
   \                     ??ProgramTable_ProfileShow_10: (+1)
   \   000000E8   0x7CB0             LDRB     R0,[R6, #+18]
   \   000000EA   0x1A3A             SUBS     R2,R7,R0
   \   000000EC   0xB2D2             UXTB     R2,R2
   \   000000EE   0x1A09             SUBS     R1,R1,R0
   \   000000F0   0xFB92 0xF3F1      SDIV     R3,R2,R1
   \   000000F4   0xFB01 0x2113      MLS      R1,R1,R3,R2
   \                     ??ProgramTable_ProfileShow_12: (+1)
   \   000000F8   0x1847             ADDS     R7,R0,R1
   \   000000FA   0xB2FF             UXTB     R7,R7
   \                     ??ProgramTable_ProfileShow_9: (+1)
   \   000000FC   0x2002             MOVS     R0,#+2
   \   000000FE   0x.... 0x....      BL       Data_Get_Level
   \   00000102   0x6A71             LDR      R1,[R6, #+36]
   \   00000104   0x790A             LDRB     R2,[R1, #+4]
   \   00000106   0x1E40             SUBS     R0,R0,#+1
   \   00000108   0xFB00 0x7702      MLA      R7,R0,R2,R7
   \   0000010C   0x68C8             LDR      R0,[R1, #+12]
   \   0000010E   0xB2FF             UXTB     R7,R7
   \   00000110   0xB918             CBNZ.N   R0,??ProgramTable_ProfileShow_13
   \   00000112   0x2005             MOVS     R0,#+5
   \   00000114   0x.... 0x....      BL       Data_Get_Speed
   \   00000118   0x5560             STRB     R0,[R4, R5]
   \                     ??ProgramTable_ProfileShow_13: (+1)
   \   0000011A   0x1961             ADDS     R1,R4,R5
   \   0000011C   0x6A70             LDR      R0,[R6, #+36]
   \   0000011E   0x6900             LDR      R0,[R0, #+16]
   \   00000120   0xF101 0x0B1E      ADD      R11,R1,#+30
   \   00000124   0xB118             CBZ.N    R0,??ProgramTable_ProfileShow_14
   \   00000126   0x5DC0             LDRB     R0,[R0, R7]
   \   00000128   0x.... 0x....      BL       Data_Get_DotmatrixInclineData
   \   0000012C   0xE002             B.N      ??ProgramTable_ProfileShow_15
   \                     ??ProgramTable_ProfileShow_14: (+1)
   \   0000012E   0x2008             MOVS     R0,#+8
   \   00000130   0x.... 0x....      BL       Data_Get_Incline
   \                     ??ProgramTable_ProfileShow_15: (+1)
   \   00000134   0xF88B 0x0000      STRB     R0,[R11, #+0]
   \   00000138   0x6A70             LDR      R0,[R6, #+36]
   \   0000013A   0x6940             LDR      R0,[R0, #+20]
   \   0000013C   0x2800             CMP      R0,#+0
   \   0000013E   0xD082             BEQ.N    ??ProgramTable_ProfileShow_3
   \   00000140   0x5DC0             LDRB     R0,[R0, R7]
   \   00000142   0x.... 0x....      BL       Data_Get_DotmatrixResistanceData
   \   00000146   0xE781             B.N      ??ProgramTable_ProfileShow_4
    721          			}
    722          		}
    723          	}
    724          
    725          	if(SystemConfig_Get_Char(MACHINE_TYPE_UINT8)==TREADMILL)
   \                     ??ProgramTable_ProfileShow_0: (+1)
   \   00000148   0x2003             MOVS     R0,#+3
   \   0000014A   0x.... 0x....      BL       SystemConfig_Get_Char
   \   0000014E   0xB9D0             CBNZ.N   R0,??ProgramTable_ProfileShow_16
    726          	{
    727          		switch(tag_index)
   \   00000150   0xF1B9 0x0F01      CMP      R9,#+1
   \   00000154   0xD006             BEQ.N    ??ProgramTable_ProfileShow_17
   \   00000156   0xF1B9 0x0F02      CMP      R9,#+2
   \   0000015A   0xD01F             BEQ.N    ??ProgramTable_ProfileShow_18
   \   0000015C   0xF1B9 0x0F04      CMP      R9,#+4
   \   00000160   0xD003             BEQ.N    ??ProgramTable_ProfileShow_19
   \   00000162   0xE009             B.N      ??ProgramTable_ProfileShow_20
    728          		{
    729          			case SPEED_PROFILE:
    730          				Profile.ProfileData=Prg_ProfileData.SpeedProfile;
   \                     ??ProgramTable_ProfileShow_17: (+1)
   \   00000164   0x.... 0x....      LDR.W    R4,??DataTable9_10
    731          				break;
   \   00000168   0xE024             B.N      ??ProgramTable_ProfileShow_21
    732          			case INCLINE_PROFILE:
    733          				Profile.ProfileData=Prg_ProfileData.InclineProfile;
    734          				break;
    735          			case DEFAULT_PROFILE:
    736          				if(Ptable_RunPara->DefalultProfleType==PROFILE_TYPE_SPEED)
   \                     ??ProgramTable_ProfileShow_19: (+1)
   \   0000016A   0x6A70             LDR      R0,[R6, #+36]
   \   0000016C   0x.... 0x....      LDR.W    R4,??DataTable9_10
   \   00000170   0x7940             LDRB     R0,[R0, #+5]
   \   00000172   0x2801             CMP      R0,#+1
   \   00000174   0xD01E             BEQ.N    ??ProgramTable_ProfileShow_21
    737          					Profile.ProfileData=Prg_ProfileData.SpeedProfile;
    738          				else
    739          					Profile.ProfileData=Prg_ProfileData.InclineProfile;
   \   00000176   0xE01C             B.N      ??ProgramTable_ProfileShow_22
    740          				break;
    741          			default:
    742          				if(Ptable_RunPara->DefalultProfleType==PROFILE_TYPE_SPEED)
   \                     ??ProgramTable_ProfileShow_20: (+1)
   \   00000178   0x6A70             LDR      R0,[R6, #+36]
   \   0000017A   0x.... 0x....      LDR.W    R4,??DataTable9_10
   \   0000017E   0x7940             LDRB     R0,[R0, #+5]
   \   00000180   0x2801             CMP      R0,#+1
   \   00000182   0xD017             BEQ.N    ??ProgramTable_ProfileShow_21
    743          					Profile.ProfileData=Prg_ProfileData.SpeedProfile;
    744          				else
    745          					Profile.ProfileData=Prg_ProfileData.InclineProfile;
   \   00000184   0xE015             B.N      ??ProgramTable_ProfileShow_22
    746          				break;
    747          			}
    748          		}
    749          	else
    750          	{
    751          		switch(tag_index)
   \                     ??ProgramTable_ProfileShow_16: (+1)
   \   00000186   0xF1B9 0x0F02      CMP      R9,#+2
   \   0000018A   0xD007             BEQ.N    ??ProgramTable_ProfileShow_18
   \   0000018C   0xD309             BCC.N    ??ProgramTable_ProfileShow_23
   \   0000018E   0xF1B9 0x0F04      CMP      R9,#+4
   \   00000192   0xD006             BEQ.N    ??ProgramTable_ProfileShow_23
   \   00000194   0xD205             BCS.N    ??ProgramTable_ProfileShow_23
    752          		{
    753          			case RESISTANCE_PROFILE:
    754          				Profile.ProfileData=Prg_ProfileData.ResistanceProfile;
   \   00000196   0x.... 0x....      LDR.W    R4,??DataTable9_11
    755          				break;
   \   0000019A   0xE00B             B.N      ??ProgramTable_ProfileShow_21
    756          			case INCLINE_PROFILE:
    757          				Profile.ProfileData=Prg_ProfileData.InclineProfile;
   \                     ??ProgramTable_ProfileShow_18: (+1)
   \   0000019C   0x.... 0x....      LDR.W    R4,??DataTable9_12
    758          				break;
   \   000001A0   0xE008             B.N      ??ProgramTable_ProfileShow_21
    759          			case DEFAULT_PROFILE:
    760          				if(Ptable_RunPara->DefalultProfleType==PROFILE_TYPE_RESISTANCE)
    761          					Profile.ProfileData=Prg_ProfileData.ResistanceProfile;
    762          				else
    763          					Profile.ProfileData=Prg_ProfileData.InclineProfile;
    764          				break;
    765          			default:
    766          				if(Ptable_RunPara->DefalultProfleType==PROFILE_TYPE_RESISTANCE)
   \                     ??ProgramTable_ProfileShow_23: (+1)
   \   000001A2   0x6A70             LDR      R0,[R6, #+36]
   \   000001A4   0x.... 0x....      LDR.W    R4,??DataTable9_10
   \   000001A8   0x7940             LDRB     R0,[R0, #+5]
   \   000001AA   0x2803             CMP      R0,#+3
   \   000001AC   0xBF08             IT       EQ 
   \   000001AE   0x343C             ADDEQ    R4,R4,#+60
    767          					Profile.ProfileData=Prg_ProfileData.ResistanceProfile;
   \   000001B0   0xD000             BEQ.N    ??ProgramTable_ProfileShow_21
    768          				else
    769          					Profile.ProfileData=Prg_ProfileData.InclineProfile;
   \                     ??ProgramTable_ProfileShow_22: (+1)
   \   000001B2   0x341E             ADDS     R4,R4,#+30
    770          				break;
    771          		}  
    772          	}
    773          	Profile.Length=ProgramLibConfigPara->DotMatrixLength;
   \                     ??ProgramTable_ProfileShow_21: (+1)
   \   000001B4   0x.... 0x....      LDR.W    R0,??DataTable9_2
   \   000001B8   0x61F4             STR      R4,[R6, #+28]
   \   000001BA   0x6800             LDR      R0,[R0, #+0]
   \   000001BC   0x7940             LDRB     R0,[R0, #+5]
   \   000001BE   0xF886 0x0020      STRB     R0,[R6, #+32]
    774          	return &Profile;
   \   000001C2   0xF106 0x001C      ADD      R0,R6,#+28
   \   000001C6   0xE8BD 0x8FF2      POP      {R1,R4-R11,PC}   ;; return
    775          }
    776          
    777          
    778          

   \                                 In section .text, align 2, keep-with-next
    779          PROGRAM_PENDING_EVTS ProgramTable_Run(ProgramKeyEvts *keyevt)
    780          {  
   \                     ProgramTable_Run: (+1)
   \   00000000   0xE92D 0x47FC      PUSH     {R2-R10,LR}
   \   00000004   0x4680             MOV      R8,R0
    781            UINT16 Remaining_Data;
    782            UINT16 DiffData;
    783            UINT16 TargetData;
    784            UINT16 ElapsedData;
    785            UINT16 CooldownData;
                          ^
Warning[Pe550]: variable "CooldownData" was set but never used
    786            static UINT16 LastValue=0xffff;
    787            
    788            PROGRAM_PENDING_EVTS pendingEvt;
    789            pendingEvt.evt=PROGRAM_NONE_EVENT;
   \   00000006   0x2000             MOVS     R0,#+0
   \   00000008   0xF88D 0x0000      STRB     R0,[SP, #+0]
   \   0000000C   0x460D             MOV      R5,R1
    790            memset(&pendingEvt.WorkOutEvts,0,sizeof(pendingEvt.WorkOutEvts));
   \   0000000E   0xA801             ADD      R0,SP,#+4
   \   00000010   0x2100             MOVS     R1,#+0
    791            if(Pro_table.Prg_CurrentStatus()<PS_WARMUP||Pro_table.Prg_CurrentStatus()>PS_COOLDOWN)return pendingEvt;
   \   00000012   0x.... 0x....      LDR.W    R7,??DataTable9
   \   00000016   0x6001             STR      R1,[R0, #+0]
   \   00000018   0x6A78             LDR      R0,[R7, #+36]
   \   0000001A   0x4780             BLX      R0
   \   0000001C   0x2807             CMP      R0,#+7
   \   0000001E   0xF2C0 0x8181      BLT.W    ??ProgramTable_Run_0
   \   00000022   0x6A78             LDR      R0,[R7, #+36]
   \   00000024   0x4780             BLX      R0
   \   00000026   0x280A             CMP      R0,#+10
   \   00000028   0xF280 0x817C      BGE.W    ??ProgramTable_Run_0
    792            
    793            if(Ptable_RunPara->WorkoutGoalType==GOAL_TYPES_DISTANCE)
   \   0000002C   0x....             LDR.N    R4,??DataTable7
   \   0000002E   0x6A60             LDR      R0,[R4, #+36]
   \   00000030   0x7840             LDRB     R0,[R0, #+1]
   \   00000032   0x2802             CMP      R0,#+2
   \   00000034   0xD10B             BNE.N    ??ProgramTable_Run_1
    794            {
    795              TargetData=Data_Get_Distance(TARGET_DISTANCE);
   \   00000036   0x2000             MOVS     R0,#+0
   \   00000038   0x.... 0x....      BL       Data_Get_Distance
   \   0000003C   0x4681             MOV      R9,R0
    796              ElapsedData=Data_Get_Distance(ELAPSED_DISTANCE);
   \   0000003E   0x2001             MOVS     R0,#+1
   \   00000040   0x.... 0x....      BL       Data_Get_Distance
   \   00000044   0x4606             MOV      R6,R0
    797              CooldownData=	Data_Get_Distance(COOLDOWN_DISTANCE);
   \   00000046   0x2004             MOVS     R0,#+4
   \   00000048   0x.... 0x....      BL       Data_Get_Distance
   \   0000004C   0xE01A             B.N      ??ProgramTable_Run_2
    798            }
    799            else if(Ptable_RunPara->WorkoutGoalType==GOAL_TYPES_TIME)
   \                     ??ProgramTable_Run_1: (+1)
   \   0000004E   0x2801             CMP      R0,#+1
   \   00000050   0xD10B             BNE.N    ??ProgramTable_Run_3
    800            {
    801              TargetData=Data_Get_Time(TARGET_TIME);
   \   00000052   0x2000             MOVS     R0,#+0
   \   00000054   0x.... 0x....      BL       Data_Get_Time
   \   00000058   0x4681             MOV      R9,R0
    802              ElapsedData=Data_Get_Time(ELAPSED_TIME);
   \   0000005A   0x2001             MOVS     R0,#+1
   \   0000005C   0x.... 0x....      BL       Data_Get_Time
   \   00000060   0x4606             MOV      R6,R0
    803              CooldownData=	Data_Get_Time(COOLDOWN_TIME);
   \   00000062   0x2005             MOVS     R0,#+5
   \   00000064   0x.... 0x....      BL       Data_Get_Time
   \   00000068   0xE00C             B.N      ??ProgramTable_Run_2
    804            }
    805            else if(Ptable_RunPara->WorkoutGoalType==GOAL_TYPES_CALORIES)
   \                     ??ProgramTable_Run_3: (+1)
   \   0000006A   0x2803             CMP      R0,#+3
   \   0000006C   0xD10A             BNE.N    ??ProgramTable_Run_2
    806            {
    807              TargetData=Data_Get_Calories(TARGET_CALORIES);
   \   0000006E   0x2000             MOVS     R0,#+0
   \   00000070   0x.... 0x....      BL       Data_Get_Calories
   \   00000074   0x4681             MOV      R9,R0
    808              ElapsedData=Data_Get_Calories(ELAPSED_CALORIES);
   \   00000076   0x2001             MOVS     R0,#+1
   \   00000078   0x.... 0x....      BL       Data_Get_Calories
   \   0000007C   0x4606             MOV      R6,R0
    809              CooldownData=Data_Get_Calories(COOLDOWN_CALORIES);
   \   0000007E   0x2004             MOVS     R0,#+4
   \   00000080   0x.... 0x....      BL       Data_Get_Calories
    810            }
    811            
    812            Remaining_Data=TargetData-ElapsedData;
   \                     ??ProgramTable_Run_2: (+1)
   \   00000084   0xEBA9 0x0006      SUB      R0,R9,R6
   \   00000088   0xFA1F 0xF980      UXTH     R9,R0
    813            if(LastValue!=ElapsedData)
   \   0000008C   0x.... 0x....      LDR.W    R0,??DataTable9_13
   \   00000090   0x8801             LDRH     R1,[R0, #+0]
   \   00000092   0xB2B2             UXTH     R2,R6
   \   00000094   0x4291             CMP      R1,R2
   \   00000096   0xF000 0x80F0      BEQ.W    ??ProgramTable_Run_4
    814            {
    815              LastValue=ElapsedData;
    816              if(Remaining_Data==0)
   \   0000009A   0xF1B9 0x0F00      CMP      R9,#+0
   \   0000009E   0x8006             STRH     R6,[R0, #+0]
   \   000000A0   0xD10F             BNE.N    ??ProgramTable_Run_5
    817              {
    818                if(Pro_table.Prg_CurrentStatus()!=PS_COMPLETED)
   \   000000A2   0x6A78             LDR      R0,[R7, #+36]
   \   000000A4   0x4780             BLX      R0
   \   000000A6   0x2806             CMP      R0,#+6
   \   000000A8   0xF000 0x80E7      BEQ.W    ??ProgramTable_Run_4
    819                {
    820                  Pro_table.Prg_NextStatus(PS_COMPLETED);
   \   000000AC   0x6A39             LDR      R1,[R7, #+32]
   \   000000AE   0x2006             MOVS     R0,#+6
   \   000000B0   0x4788             BLX      R1
    821                  pendingEvt.evt=WORKOUT_DATA_REFRESH_EVENT;
   \   000000B2   0x201F             MOVS     R0,#+31
   \   000000B4   0xF88D 0x0000      STRB     R0,[SP, #+0]
    822                  pendingEvt.WorkOutEvts.Workout_Complete_Evt=true;
   \   000000B8   0x9801             LDR      R0,[SP, #+4]
   \   000000BA   0xF040 0x0008      ORR      R0,R0,#0x8
   \   000000BE   0x9001             STR      R0,[SP, #+4]
   \   000000C0   0xE0DB             B.N      ??ProgramTable_Run_4
    823                }
    824              }
    825              else
    826              {
    827                DiffData = ElapsedData - PTable.LastPoint;
   \                     ??ProgramTable_Run_5: (+1)
   \   000000C2   0x89A0             LDRH     R0,[R4, #+12]
   \   000000C4   0xEBA6 0x0A00      SUB      R10,R6,R0
    828                if(Ptable_RunPara->WorkoutRunType == TOTALGOAL_WITH_REPEAT)
   \   000000C8   0x6A60             LDR      R0,[R4, #+36]
   \   000000CA   0x7800             LDRB     R0,[R0, #+0]
   \   000000CC   0x2802             CMP      R0,#+2
   \   000000CE   0xF040 0x80D4      BNE.W    ??ProgramTable_Run_4
    829                {
    830                  if(ElapsedData==0)
   \   000000D2   0xB2B0             UXTH     R0,R6
   \   000000D4   0xB950             CBNZ.N   R0,??ProgramTable_Run_6
    831                  {
    832                    PTable.State = WARM_UP;
   \   000000D6   0x75A0             STRB     R0,[R4, #+22]
    833                    Pro_table.Prg_NextStatus(PS_WARMUP);
   \   000000D8   0x2007             MOVS     R0,#+7
   \   000000DA   0x6A39             LDR      R1,[R7, #+32]
   \   000000DC   0x4788             BLX      R1
    834                    pendingEvt.evt=WORKOUT_DATA_REFRESH_EVENT;
   \   000000DE   0x201F             MOVS     R0,#+31
   \   000000E0   0xF88D 0x0000      STRB     R0,[SP, #+0]
    835                    pendingEvt.WorkOutEvts.Workout_Warmup_Evt=true;
   \   000000E4   0x9801             LDR      R0,[SP, #+4]
   \   000000E6   0xF040 0x0010      ORR      R0,R0,#0x10
   \   000000EA   0x9001             STR      R0,[SP, #+4]
    836                  }
    837                  if(DiffData >= PTable.SegmentGoal)
   \                     ??ProgramTable_Run_6: (+1)
   \   000000EC   0xFA1F 0xF18A      UXTH     R1,R10
   \   000000F0   0x88E0             LDRH     R0,[R4, #+6]
   \   000000F2   0x4281             CMP      R1,R0
   \   000000F4   0xF0C0 0x80C1      BCC.W    ??ProgramTable_Run_4
    838                  {
    839                    PTable.LastPoint = ElapsedData;
   \   000000F8   0x81A6             STRH     R6,[R4, #+12]
    840                    PTable.Stage++;
   \   000000FA   0x7D60             LDRB     R0,[R4, #+21]
   \   000000FC   0x1C40             ADDS     R0,R0,#+1
   \   000000FE   0x7560             STRB     R0,[R4, #+21]
    841                    PTable.TableIndex++;
   \   00000100   0x7E20             LDRB     R0,[R4, #+24]
   \   00000102   0x1C40             ADDS     R0,R0,#+1
   \   00000104   0x7620             STRB     R0,[R4, #+24]
    842                    if(PTable.CoolDownStart !=0 )
   \   00000106   0x7CE1             LDRB     R1,[R4, #+19]
   \   00000108   0xB399             CBZ.N    R1,??ProgramTable_Run_7
    843                    {
    844                      if(PTable.LastPoint >= PTable.WarmupGoal && PTable.State != COOL_DOWN)
   \   0000010A   0x89A0             LDRH     R0,[R4, #+12]
   \   0000010C   0x8921             LDRH     R1,[R4, #+8]
   \   0000010E   0x4288             CMP      R0,R1
   \   00000110   0xD30A             BCC.N    ??ProgramTable_Run_8
   \   00000112   0x7DA0             LDRB     R0,[R4, #+22]
   \   00000114   0x2801             CMP      R0,#+1
   \   00000116   0xD007             BEQ.N    ??ProgramTable_Run_8
    845                      {
    846                        PTable.State = REPEAT;
   \   00000118   0x2002             MOVS     R0,#+2
   \   0000011A   0x75A0             STRB     R0,[R4, #+22]
    847                        Pro_table.Prg_NextStatus(PS_RUN);
   \   0000011C   0x2008             MOVS     R0,#+8
   \   0000011E   0x6A39             LDR      R1,[R7, #+32]
   \   00000120   0x4788             BLX      R1
    848                        pendingEvt.evt=WORKOUT_DATA_REFRESH_EVENT;
   \   00000122   0x201F             MOVS     R0,#+31
   \   00000124   0xF88D 0x0000      STRB     R0,[SP, #+0]
    849                      }
    850                      if(Data_Get_Time(COOLDOWN_TIME)==Remaining_Data)
   \                     ??ProgramTable_Run_8: (+1)
   \   00000128   0x2005             MOVS     R0,#+5
   \   0000012A   0x.... 0x....      BL       Data_Get_Time
   \   0000012E   0x4548             CMP      R0,R9
   \   00000130   0xD10F             BNE.N    ??ProgramTable_Run_9
    851                      {
    852                        PTable.State = COOL_DOWN;
   \   00000132   0x2001             MOVS     R0,#+1
   \   00000134   0x75A0             STRB     R0,[R4, #+22]
    853          		pendingEvt.evt=WORKOUT_DATA_REFRESH_EVENT;
   \   00000136   0x201F             MOVS     R0,#+31
   \   00000138   0xF88D 0x0000      STRB     R0,[SP, #+0]
    854                    pendingEvt.WorkOutEvts.Workout_Cooldown_Evt=true;	  
   \   0000013C   0x9801             LDR      R0,[SP, #+4]
   \   0000013E   0xF040 0x0020      ORR      R0,R0,#0x20
   \   00000142   0x9001             STR      R0,[SP, #+4]
    855                        PTable.TableIndex=PTable.CoolDownStart; 
   \   00000144   0x7CE0             LDRB     R0,[R4, #+19]
   \   00000146   0x7620             STRB     R0,[R4, #+24]
    856                        PTable.SegmentGoal = Ptable_RunPara->StatusStageGoal[PTable.TableIndex].StageGoal;
   \   00000148   0x6A61             LDR      R1,[R4, #+36]
   \   0000014A   0x6889             LDR      R1,[R1, #+8]
   \   0000014C   0xEB01 0x0040      ADD      R0,R1,R0, LSL #+1
   \   00000150   0xE01A             B.N      ??ProgramTable_Run_10
    857                      }
    858                      else if(PTable.CoolDownStart==PTable.TableIndex && Data_Get_Time(COOLDOWN_TIME)<Remaining_Data) //if()
   \                     ??ProgramTable_Run_9: (+1)
   \   00000152   0x7CE0             LDRB     R0,[R4, #+19]
   \   00000154   0x7E21             LDRB     R1,[R4, #+24]
   \   00000156   0x4288             CMP      R0,R1
   \   00000158   0xD111             BNE.N    ??ProgramTable_Run_11
   \   0000015A   0x2005             MOVS     R0,#+5
   \   0000015C   0x.... 0x....      BL       Data_Get_Time
   \   00000160   0x4548             CMP      R0,R9
   \   00000162   0xDA0C             BGE.N    ??ProgramTable_Run_11
    859                      {
    860                        PTable.TableIndex=PTable.RepeatStart;
   \   00000164   0x7CA0             LDRB     R0,[R4, #+18]
   \   00000166   0x7620             STRB     R0,[R4, #+24]
    861                        PTable.SegmentGoal = Ptable_RunPara->StatusStageGoal[PTable.TableIndex].StageGoal;
   \   00000168   0x6A61             LDR      R1,[R4, #+36]
   \   0000016A   0x6889             LDR      R1,[R1, #+8]
   \   0000016C   0xEB01 0x0040      ADD      R0,R1,R0, LSL #+1
   \   00000170   0xE00A             B.N      ??ProgramTable_Run_10
    862          //              if(Program_Get_subProgramID()!=PS_EDURANCE_INTERVALS)
    863          //              {
    864          //                if(Remaining_Data-Data_Get_Time(COOLDOWN_TIME)<90)
    865          //                {
    866          //                  PTable.SegmentGoal =60;
    867          //                }
    868          //                else
    869          //                  PTable.SegmentGoal = Ptable_RunPara->StatusStageGoal[PTable.TableIndex].StageGoal;
    870          //              }
    871                      }
    872                      else
    873                        PTable.SegmentGoal = Ptable_RunPara->StatusStageGoal[PTable.TableIndex].StageGoal;
    874                    }
    875                    else
    876                    {
    877                      if(PTable.Segamount==PTable.TableIndex)
   \                     ??ProgramTable_Run_7: (+1)
   \   00000172   0x7D21             LDRB     R1,[R4, #+20]
   \   00000174   0xB2C0             UXTB     R0,R0
   \   00000176   0x4281             CMP      R1,R0
   \   00000178   0xBF04             ITT      EQ 
   \   0000017A   0x7CA0             LDRBEQ   R0,[R4, #+18]
   \   0000017C   0x7620             STRBEQ   R0,[R4, #+24]
    878                      {
    879                        PTable.TableIndex=PTable.RepeatStart; 
    880                      }
    881                      PTable.SegmentGoal = Ptable_RunPara->StatusStageGoal[PTable.TableIndex].StageGoal;
   \                     ??ProgramTable_Run_11: (+1)
   \   0000017E   0x6A60             LDR      R0,[R4, #+36]
   \   00000180   0x7E21             LDRB     R1,[R4, #+24]
   \   00000182   0x6880             LDR      R0,[R0, #+8]
   \   00000184   0xEB00 0x0041      ADD      R0,R0,R1, LSL #+1
   \                     ??ProgramTable_Run_10: (+1)
   \   00000188   0x7840             LDRB     R0,[R0, #+1]
   \   0000018A   0x80E0             STRH     R0,[R4, #+6]
    882                    }
    883                    if(Ptable_RunPara->StageGoalType==STAGEGOAL_TYPE_TIME)
   \   0000018C   0x6A60             LDR      R0,[R4, #+36]
   \   0000018E   0x7880             LDRB     R0,[R0, #+2]
   \   00000190   0x2801             CMP      R0,#+1
   \   00000192   0xBF04             ITT      EQ 
    884                    {
    885                      Data_Set_StageTime(PTable.SegmentGoal);  
   \   00000194   0x88E0             LDRHEQ   R0,[R4, #+6]
   \   00000196   0x.... 0x....      BLEQ     Data_Set_StageTime
    886                    }
    887                    if(Ptable_RunPara->SpeedTable!=NULL)
   \   0000019A   0x6A60             LDR      R0,[R4, #+36]
   \   0000019C   0x68C0             LDR      R0,[R0, #+12]
   \   0000019E   0xB310             CBZ.N    R0,??ProgramTable_Run_12
    888                    {
    889                      if(PTable.SpeedBase != Ptable_RunPara->SpeedTable[Ptable_RunPara->Segamount*(Data_Get_Level(TARGET_LEVEL)-1)+PTable.TableIndex])
   \   000001A0   0x2002             MOVS     R0,#+2
   \   000001A2   0x.... 0x....      BL       Data_Get_Level
   \   000001A6   0x6A61             LDR      R1,[R4, #+36]
   \   000001A8   0x68CB             LDR      R3,[R1, #+12]
   \   000001AA   0x7909             LDRB     R1,[R1, #+4]
   \   000001AC   0x7E26             LDRB     R6,[R4, #+24]
   \   000001AE   0x7E62             LDRB     R2,[R4, #+25]
   \   000001B0   0x1E40             SUBS     R0,R0,#+1
   \   000001B2   0xFB00 0x6001      MLA      R0,R0,R1,R6
   \   000001B6   0x5C18             LDRB     R0,[R3, R0]
   \   000001B8   0x4282             CMP      R2,R0
   \   000001BA   0xD014             BEQ.N    ??ProgramTable_Run_12
    890                      {
    891                        PTable.SpeedBase = Ptable_RunPara->SpeedTable[Ptable_RunPara->Segamount*(Data_Get_Level(TARGET_LEVEL)-1)+PTable.TableIndex];
   \   000001BC   0x2002             MOVS     R0,#+2
   \   000001BE   0x.... 0x....      BL       Data_Get_Level
   \   000001C2   0x6A61             LDR      R1,[R4, #+36]
   \   000001C4   0x68CA             LDR      R2,[R1, #+12]
   \   000001C6   0x7909             LDRB     R1,[R1, #+4]
   \   000001C8   0x7E23             LDRB     R3,[R4, #+24]
   \   000001CA   0x1E40             SUBS     R0,R0,#+1
   \   000001CC   0xFB00 0x3001      MLA      R0,R0,R1,R3
    892                        Data_Set_Speed( PTable.SpeedBase,STANDARD,0);
   \   000001D0   0x2100             MOVS     R1,#+0
   \   000001D2   0x5C10             LDRB     R0,[R2, R0]
   \   000001D4   0x7660             STRB     R0,[R4, #+25]
   \   000001D6   0x2200             MOVS     R2,#+0
   \   000001D8   0x.... 0x....      BL       Data_Set_Speed
    893                        Beep_Set_Beeps(1,3,1);
   \   000001DC   0x2201             MOVS     R2,#+1
   \   000001DE   0x2103             MOVS     R1,#+3
   \   000001E0   0x2001             MOVS     R0,#+1
   \   000001E2   0x.... 0x....      BL       Beep_Set_Beeps
    894                      }
    895                    }
    896                    if(Ptable_RunPara->InclineTable!=NULL)
   \                     ??ProgramTable_Run_12: (+1)
   \   000001E6   0x6A60             LDR      R0,[R4, #+36]
   \   000001E8   0x6900             LDR      R0,[R0, #+16]
   \   000001EA   0xB308             CBZ.N    R0,??ProgramTable_Run_13
    897                    {
    898                      
    899                      if(PTable.InclineBase != Ptable_RunPara->InclineTable[Ptable_RunPara->Segamount*(Data_Get_Level(TARGET_LEVEL)-1)+PTable.TableIndex])
   \   000001EC   0x2002             MOVS     R0,#+2
   \   000001EE   0x.... 0x....      BL       Data_Get_Level
   \   000001F2   0x6A61             LDR      R1,[R4, #+36]
   \   000001F4   0x690B             LDR      R3,[R1, #+16]
   \   000001F6   0x7909             LDRB     R1,[R1, #+4]
   \   000001F8   0x7E26             LDRB     R6,[R4, #+24]
   \   000001FA   0x7EA2             LDRB     R2,[R4, #+26]
   \   000001FC   0x1E40             SUBS     R0,R0,#+1
   \   000001FE   0xFB00 0x6001      MLA      R0,R0,R1,R6
   \   00000202   0x5C18             LDRB     R0,[R3, R0]
   \   00000204   0x4282             CMP      R2,R0
   \   00000206   0xD013             BEQ.N    ??ProgramTable_Run_13
    900                      {
    901                        PTable.InclineBase = Ptable_RunPara->InclineTable[Ptable_RunPara->Segamount*(Data_Get_Level(TARGET_LEVEL)-1)+PTable.TableIndex];
   \   00000208   0x2002             MOVS     R0,#+2
   \   0000020A   0x.... 0x....      BL       Data_Get_Level
   \   0000020E   0x6A61             LDR      R1,[R4, #+36]
   \   00000210   0x690A             LDR      R2,[R1, #+16]
   \   00000212   0x7909             LDRB     R1,[R1, #+4]
   \   00000214   0x7E23             LDRB     R3,[R4, #+24]
   \   00000216   0x1E40             SUBS     R0,R0,#+1
   \   00000218   0xFB00 0x3001      MLA      R0,R0,R1,R3
    902                        Data_Set_Incline( PTable.InclineBase,0);
   \   0000021C   0x2100             MOVS     R1,#+0
   \   0000021E   0x5C10             LDRB     R0,[R2, R0]
   \   00000220   0x76A0             STRB     R0,[R4, #+26]
   \   00000222   0x.... 0x....      BL       Data_Set_Incline
    903                        Beep_Set_Beeps(1,3,1);
   \   00000226   0x2201             MOVS     R2,#+1
   \   00000228   0x2103             MOVS     R1,#+3
   \   0000022A   0x2001             MOVS     R0,#+1
   \   0000022C   0x.... 0x....      BL       Beep_Set_Beeps
    904                      }
    905                    }
    906                    if(Ptable_RunPara->ResistanceTable!=NULL)
   \                     ??ProgramTable_Run_13: (+1)
   \   00000230   0x6A60             LDR      R0,[R4, #+36]
   \   00000232   0x6940             LDR      R0,[R0, #+20]
   \   00000234   0xB308             CBZ.N    R0,??ProgramTable_Run_4
    907                    {
    908                      if(PTable.ResistanceBase != Ptable_RunPara->ResistanceTable[Ptable_RunPara->Segamount*(Data_Get_Level(TARGET_LEVEL)-1)+PTable.TableIndex])
   \   00000236   0x2002             MOVS     R0,#+2
   \   00000238   0x.... 0x....      BL       Data_Get_Level
   \   0000023C   0x6A61             LDR      R1,[R4, #+36]
   \   0000023E   0x694B             LDR      R3,[R1, #+20]
   \   00000240   0x7909             LDRB     R1,[R1, #+4]
   \   00000242   0x7E26             LDRB     R6,[R4, #+24]
   \   00000244   0x7EE2             LDRB     R2,[R4, #+27]
   \   00000246   0x1E40             SUBS     R0,R0,#+1
   \   00000248   0xFB00 0x6001      MLA      R0,R0,R1,R6
   \   0000024C   0x5C18             LDRB     R0,[R3, R0]
   \   0000024E   0x4282             CMP      R2,R0
   \   00000250   0xD013             BEQ.N    ??ProgramTable_Run_4
    909                      {
    910                        PTable.ResistanceBase = Ptable_RunPara->ResistanceTable[Ptable_RunPara->Segamount*(Data_Get_Level(TARGET_LEVEL)-1)+PTable.TableIndex];
   \   00000252   0x2002             MOVS     R0,#+2
   \   00000254   0x.... 0x....      BL       Data_Get_Level
   \   00000258   0x6A61             LDR      R1,[R4, #+36]
   \   0000025A   0x694A             LDR      R2,[R1, #+20]
   \   0000025C   0x7909             LDRB     R1,[R1, #+4]
   \   0000025E   0x7E23             LDRB     R3,[R4, #+24]
   \   00000260   0x1E40             SUBS     R0,R0,#+1
   \   00000262   0xFB00 0x3001      MLA      R0,R0,R1,R3
    911                        Data_Set_Resistance( PTable.ResistanceBase,0);
   \   00000266   0x2100             MOVS     R1,#+0
   \   00000268   0x5C10             LDRB     R0,[R2, R0]
   \   0000026A   0x76E0             STRB     R0,[R4, #+27]
   \   0000026C   0x.... 0x....      BL       Data_Set_Resistance
    912                        Beep_Set_Beeps(1,3,1);
   \   00000270   0x2201             MOVS     R2,#+1
   \   00000272   0x2103             MOVS     R1,#+3
   \   00000274   0x2001             MOVS     R0,#+1
   \   00000276   0x.... 0x....      BL       Beep_Set_Beeps
    913                      }
    914                    }  
    915                  }
    916                }
    917              } 
    918            }
    919            
    920            if(keyevt->Bit_Flag.Key_SpeedUp)
   \                     ??ProgramTable_Run_4: (+1)
   \   0000027A   0x6828             LDR      R0,[R5, #+0]
   \   0000027C   0xF3C0 0x1140      UBFX     R1,R0,#+5,#+1
   \   00000280   0xB141             CBZ.N    R1,??ProgramTable_Run_14
    921            {
    922              keyevt->Bit_Flag.Key_SpeedUp=false;
   \   00000282   0xF020 0x0020      BIC      R0,R0,#0x20
   \   00000286   0x6028             STR      R0,[R5, #+0]
    923              //if(Program_Get_Status() == PS_RUN)
    924                Data_Set_Speed_Base_User(Data_Get_Speed(TARGET_SPEEDX10_AUTO)+1,1);
   \   00000288   0x2005             MOVS     R0,#+5
   \   0000028A   0x.... 0x....      BL       Data_Get_Speed
   \   0000028E   0x2101             MOVS     R1,#+1
   \   00000290   0x1C40             ADDS     R0,R0,#+1
   \   00000292   0xE00A             B.N      ??ProgramTable_Run_15
    925             // else if(Program_Get_Status() == PS_WARMUP || Program_Get_Status() == PS_COOLDOWN)
    926             //   Data_Set_Speed_Base_User(Data_Get_Speed(TARGET_SPEEDX10_AUTO)+1,0);
    927            }
    928            else if(keyevt->Bit_Flag.Key_SpeedDn)
   \                     ??ProgramTable_Run_14: (+1)
   \   00000294   0xF3C0 0x1180      UBFX     R1,R0,#+6,#+1
   \   00000298   0xB151             CBZ.N    R1,??ProgramTable_Run_16
    929            {
    930              keyevt->Bit_Flag.Key_SpeedDn=false;
   \   0000029A   0xF020 0x0040      BIC      R0,R0,#0x40
   \   0000029E   0x6028             STR      R0,[R5, #+0]
    931             // if(Program_Get_Status() == PS_RUN)
    932                Data_Set_Speed_Base_User(Data_Get_Speed(TARGET_SPEEDX10_AUTO)-1,1);
   \   000002A0   0x2005             MOVS     R0,#+5
   \   000002A2   0x.... 0x....      BL       Data_Get_Speed
   \   000002A6   0x2101             MOVS     R1,#+1
   \   000002A8   0x1E40             SUBS     R0,R0,#+1
   \                     ??ProgramTable_Run_15: (+1)
   \   000002AA   0xB280             UXTH     R0,R0
   \   000002AC   0x.... 0x....      BL       Data_Set_Speed_Base_User
    933             // else if(Program_Get_Status() == PS_WARMUP || Program_Get_Status() == PS_COOLDOWN)
    934             //   Data_Set_Speed_Base_User(Data_Get_Speed(TARGET_SPEEDX10_AUTO)-1,0);
    935            } 
    936          
    937            
    938            if(keyevt->Bit_Flag.Key_InclineUp)
   \                     ??ProgramTable_Run_16: (+1)
   \   000002B0   0x6828             LDR      R0,[R5, #+0]
   \   000002B2   0xF3C0 0x11C0      UBFX     R1,R0,#+7,#+1
   \   000002B6   0xB141             CBZ.N    R1,??ProgramTable_Run_17
    939            {
    940              keyevt->Bit_Flag.Key_InclineUp=false;
   \   000002B8   0xF020 0x0080      BIC      R0,R0,#0x80
   \   000002BC   0x6028             STR      R0,[R5, #+0]
    941             // if(Program_Get_Status() == PS_RUN)
    942                Data_Set_Incline(Program_Get_Incline(0)+5,1);
   \   000002BE   0x2000             MOVS     R0,#+0
   \   000002C0   0x.... 0x....      BL       Program_Get_Incline
   \   000002C4   0x2101             MOVS     R1,#+1
   \   000002C6   0x1D40             ADDS     R0,R0,#+5
   \   000002C8   0xE00E             B.N      ??ProgramTable_Run_18
    943              //else if(Program_Get_Status() == PS_WARMUP || Program_Get_Status() == PS_COOLDOWN)
    944              //  Data_Set_Incline(Program_Get_Incline(0)+5,0);
    945            }
    946            else if(keyevt->Bit_Flag.Key_InclineDn)
   \                     ??ProgramTable_Run_17: (+1)
   \   000002CA   0xF3C0 0x2100      UBFX     R1,R0,#+8,#+1
   \   000002CE   0xB171             CBZ.N    R1,??ProgramTable_Run_19
    947            {
    948              keyevt->Bit_Flag.Key_InclineDn=false;
   \   000002D0   0xF420 0x7080      BIC      R0,R0,#0x100
   \   000002D4   0x6028             STR      R0,[R5, #+0]
    949              if(Program_Get_Incline(0))
   \   000002D6   0x2000             MOVS     R0,#+0
   \   000002D8   0x.... 0x....      BL       Program_Get_Incline
   \   000002DC   0xB138             CBZ.N    R0,??ProgramTable_Run_19
    950              {
    951               // if(Program_Get_Status() == PS_RUN)
    952                  Data_Set_Incline(Program_Get_Incline(0)-5,1);
   \   000002DE   0x2000             MOVS     R0,#+0
   \   000002E0   0x.... 0x....      BL       Program_Get_Incline
   \   000002E4   0x2101             MOVS     R1,#+1
   \   000002E6   0x1F40             SUBS     R0,R0,#+5
   \                     ??ProgramTable_Run_18: (+1)
   \   000002E8   0xB280             UXTH     R0,R0
   \   000002EA   0x.... 0x....      BL       Data_Set_Incline
    953                //else if(Program_Get_Status() == PS_WARMUP || Program_Get_Status() == PS_COOLDOWN)
    954                 // Data_Set_Incline(Program_Get_Incline(0)-5,0);
    955              }
    956            }      
    957            if(keyevt->Bit_Flag.Key_ResistanceUp)
   \                     ??ProgramTable_Run_19: (+1)
   \   000002EE   0x6828             LDR      R0,[R5, #+0]
   \   000002F0   0xF3C0 0x2140      UBFX     R1,R0,#+9,#+1
   \   000002F4   0xB141             CBZ.N    R1,??ProgramTable_Run_20
    958            {
    959              keyevt->Bit_Flag.Key_ResistanceUp=false;
   \   000002F6   0xF420 0x7000      BIC      R0,R0,#0x200
   \   000002FA   0x6028             STR      R0,[R5, #+0]
    960             // if(Program_Get_Status() == PS_RUN)
    961                Data_Set_Resistance(Program_Get_Resistance(0)+1,1);
   \   000002FC   0x2000             MOVS     R0,#+0
   \   000002FE   0x.... 0x....      BL       Program_Get_Resistance
   \   00000302   0x2101             MOVS     R1,#+1
   \   00000304   0x1C40             ADDS     R0,R0,#+1
   \   00000306   0xE00A             B.N      ??ProgramTable_Run_21
    962              //else if(Program_Get_Status() == PS_WARMUP || Program_Get_Status() == PS_COOLDOWN)
    963              //  Data_Set_Resistance(Program_Get_Resistance(0)+1,0);
    964            }
    965            else if(keyevt->Bit_Flag.Key_ResistanceDn)
   \                     ??ProgramTable_Run_20: (+1)
   \   00000308   0xF3C0 0x2180      UBFX     R1,R0,#+10,#+1
   \   0000030C   0xB151             CBZ.N    R1,??ProgramTable_Run_0
    966            {
    967              keyevt->Bit_Flag.Key_ResistanceDn=false;
   \   0000030E   0xF420 0x6080      BIC      R0,R0,#0x400
   \   00000312   0x6028             STR      R0,[R5, #+0]
    968             // if(Program_Get_Status() == PS_RUN)
    969                Data_Set_Resistance(Program_Get_Resistance(0)-1,1);
   \   00000314   0x2000             MOVS     R0,#+0
   \   00000316   0x.... 0x....      BL       Program_Get_Resistance
   \   0000031A   0x2101             MOVS     R1,#+1
   \   0000031C   0x1E40             SUBS     R0,R0,#+1
   \                     ??ProgramTable_Run_21: (+1)
   \   0000031E   0xB280             UXTH     R0,R0
   \   00000320   0x.... 0x....      BL       Data_Set_Resistance
    970              //else if(Program_Get_Status() == PS_WARMUP || Program_Get_Status() == PS_COOLDOWN)
    971              //  Data_Set_Resistance(Program_Get_Resistance(0)-1,0);
    972            }   
    973            return pendingEvt;
   \                     ??ProgramTable_Run_0: (+1)
   \   00000324   0xE9DD 0x0100      LDRD     R0,R1,[SP, #+0]
   \   00000328   0xE9C8 0x0100      STRD     R0,R1,[R8, #+0]
   \   0000032C   0xE8BD 0x87F3      POP      {R0,R1,R4-R10,PC}  ;; return
    974          }

   \                                 In section .data, align 2
   \                     `ProgramTable_Run::LastValue`:
   \   00000000   0xFFFF             DC16 65535

   \                                 In section .text, align 2, keep-with-next
    975          void Pro_table_Set_Data(UINT16 w_Data)
    976          {
   \                     Pro_table_Set_Data: (+1)
   \   00000000   0xB510             PUSH     {R4,LR}
   \   00000002   0x4604             MOV      R4,R0
    977            switch(Program_Get_ProgramID())
   \   00000004   0x.... 0x....      BL       Program_Get_ProgramID
   \   00000008   0x2801             CMP      R0,#+1
   \   0000000A   0xD002             BEQ.N    ??Pro_table_Set_Data_0
   \   0000000C   0x2802             CMP      R0,#+2
   \   0000000E   0xD04C             BEQ.N    ??Pro_table_Set_Data_1
   \   00000010   0xBD10             POP      {R4,PC}
    978            {
    979            case PS_DISTANCE_GOAL:
    980              {
    981                switch(w_Data)
   \                     ??Pro_table_Set_Data_0: (+1)
   \   00000012   0xF5B4 0x7F7A      CMP      R4,#+1000
   \   00000016   0xD02E             BEQ.N    ??Pro_table_Set_Data_2
   \   00000018   0xF5B4 0x6FFA      CMP      R4,#+2000
   \   0000001C   0xD042             BEQ.N    ??Pro_table_Set_Data_3
   \   0000001E   0xF640 0x4035      MOVW     R0,#+3125
   \   00000022   0x4284             CMP      R4,R0
   \   00000024   0xD029             BEQ.N    ??Pro_table_Set_Data_4
   \   00000026   0xF241 0x3088      MOVW     R0,#+5000
   \   0000002A   0x4284             CMP      R4,R0
   \   0000002C   0xD027             BEQ.N    ??Pro_table_Set_Data_5
   \   0000002E   0xF641 0x006A      MOVW     R0,#+6250
   \   00000032   0x4284             CMP      R4,R0
   \   00000034   0xD025             BEQ.N    ??Pro_table_Set_Data_6
   \   00000036   0xF5B4 0x5FFA      CMP      R4,#+8000
   \   0000003A   0xD024             BEQ.N    ??Pro_table_Set_Data_7
   \   0000003C   0xF242 0x409F      MOVW     R0,#+9375
   \   00000040   0x4284             CMP      R4,R0
   \   00000042   0xD022             BEQ.N    ??Pro_table_Set_Data_8
   \   00000044   0xF242 0x7010      MOVW     R0,#+10000
   \   00000048   0x4284             CMP      R4,R0
   \   0000004A   0xD020             BEQ.N    ??Pro_table_Set_Data_9
   \   0000004C   0xF243 0x00D4      MOVW     R0,#+12500
   \   00000050   0x4284             CMP      R4,R0
   \   00000052   0xD01E             BEQ.N    ??Pro_table_Set_Data_10
   \   00000054   0xF243 0x302C      MOVW     R0,#+13100
   \   00000058   0x4284             CMP      R4,R0
   \   0000005A   0xD01C             BEQ.N    ??Pro_table_Set_Data_11
   \   0000005C   0xF643 0x2098      MOVW     R0,#+15000
   \   00000060   0x4284             CMP      R4,R0
   \   00000062   0xD01A             BEQ.N    ??Pro_table_Set_Data_12
   \   00000064   0xF644 0x6020      MOVW     R0,#+20000
   \   00000068   0x4284             CMP      R4,R0
   \   0000006A   0xD018             BEQ.N    ??Pro_table_Set_Data_13
   \   0000006C   0xF246 0x6058      MOVW     R0,#+26200
   \   00000070   0x4284             CMP      R4,R0
   \   00000072   0xD016             BEQ.N    ??Pro_table_Set_Data_14
   \   00000074   0xBD10             POP      {R4,PC}
    982                {
    983                case 1000:
    984                  PTable.DistanceIndex = D_1_MILE;
   \                     ??Pro_table_Set_Data_2: (+1)
   \   00000076   0x2000             MOVS     R0,#+0
   \   00000078   0xE014             B.N      ??Pro_table_Set_Data_3
    985                  break;
    986                case 2000:
    987                  PTable.DistanceIndex = D_2_MILES;
    988                  break;                
    989                case 3125:
    990                  PTable.DistanceIndex = D_5_K;
   \                     ??Pro_table_Set_Data_4: (+1)
   \   0000007A   0x2002             MOVS     R0,#+2
   \   0000007C   0xE012             B.N      ??Pro_table_Set_Data_3
    991                  break;    
    992                case 5000:
    993                  PTable.DistanceIndex = D_5_MILES;
   \                     ??Pro_table_Set_Data_5: (+1)
   \   0000007E   0x2003             MOVS     R0,#+3
   \   00000080   0xE010             B.N      ??Pro_table_Set_Data_3
    994                  break;
    995                case 6250:
    996                  PTable.DistanceIndex = D_10_K;
   \                     ??Pro_table_Set_Data_6: (+1)
   \   00000082   0x2004             MOVS     R0,#+4
   \   00000084   0xE00E             B.N      ??Pro_table_Set_Data_3
    997                  break; 
    998                case 8000:
    999                  PTable.DistanceIndex = D_8_MILES;
   \                     ??Pro_table_Set_Data_7: (+1)
   \   00000086   0x2005             MOVS     R0,#+5
   \   00000088   0xE00C             B.N      ??Pro_table_Set_Data_3
   1000                  break; 
   1001                case 9375:
   1002                  PTable.DistanceIndex = D_15_K;
   \                     ??Pro_table_Set_Data_8: (+1)
   \   0000008A   0x2006             MOVS     R0,#+6
   \   0000008C   0xE00A             B.N      ??Pro_table_Set_Data_3
   1003                  break; 
   1004                case 10000:
   1005                  PTable.DistanceIndex = D_10_MILES;
   \                     ??Pro_table_Set_Data_9: (+1)
   \   0000008E   0x2007             MOVS     R0,#+7
   \   00000090   0xE008             B.N      ??Pro_table_Set_Data_3
   1006                  break;
   1007                case 12500:
   1008                  PTable.DistanceIndex = D_20_K;
   \                     ??Pro_table_Set_Data_10: (+1)
   \   00000092   0x2008             MOVS     R0,#+8
   \   00000094   0xE006             B.N      ??Pro_table_Set_Data_3
   1009                  break; 
   1010                case 13100:
   1011                  PTable.DistanceIndex = D_HALF_MARATHON;
   \                     ??Pro_table_Set_Data_11: (+1)
   \   00000096   0x2009             MOVS     R0,#+9
   \   00000098   0xE004             B.N      ??Pro_table_Set_Data_3
   1012                  break; 
   1013                case 15000:
   1014                  PTable.DistanceIndex = D_15_MILES;
   \                     ??Pro_table_Set_Data_12: (+1)
   \   0000009A   0x200A             MOVS     R0,#+10
   \   0000009C   0xE002             B.N      ??Pro_table_Set_Data_3
   1015                  break;
   1016                case 20000:
   1017                  PTable.DistanceIndex = D_20_MILES;
   \                     ??Pro_table_Set_Data_13: (+1)
   \   0000009E   0x200B             MOVS     R0,#+11
   \   000000A0   0xE000             B.N      ??Pro_table_Set_Data_3
   1018                  break; 
   1019                case 26200:
   1020                  PTable.DistanceIndex = D_MARATHON;
   \                     ??Pro_table_Set_Data_14: (+1)
   \   000000A2   0x200C             MOVS     R0,#+12
   \                     ??Pro_table_Set_Data_3: (+1)
   \   000000A4   0x....             LDR.N    R1,??DataTable9_9
   \   000000A6   0x75C8             STRB     R0,[R1, #+23]
   1021                  break;   
   \   000000A8   0xBD10             POP      {R4,PC}
   1022                }
   1023              }
   1024              break;
   1025              //case PS_FATBURN:
   1026              //case PS_HILL_CLIMB:
   1027              //PTable.targetTime = w_Data;
   1028              //break;
   1029              
   1030            case PS_CALORIES_GOAL:
   1031              PTable.targetCalories = w_Data;
   \                     ??Pro_table_Set_Data_1: (+1)
   \   000000AA   0x....             LDR.N    R0,??DataTable9_9
   \   000000AC   0x8204             STRH     R4,[R0, #+16]
   1032              break;
   1033            }
   1034          }
   \   000000AE   0xBD10             POP      {R4,PC}          ;; return

   \                                 In section .text, align 2, keep-with-next
   1035          void initTable(void)
   1036          {
   \                     initTable: (+1)
   \   00000000   0xB510             PUSH     {R4,LR}
   1037            Pro_table.Prg_Initial = ProgramTable_Data_Initial;
   \   00000002   0x....             LDR.N    R4,??DataTable9
   \   00000004   0x....             LDR.N    R0,??DataTable9_14
   \   00000006   0x60E0             STR      R0,[R4, #+12]
   1038            Pro_table.BeginWorkout=  ProgramTable_BeginWorkout;
   \   00000008   0x....             LDR.N    R0,??DataTable9_15
   \   0000000A   0x6120             STR      R0,[R4, #+16]
   1039            Pro_table.Prg_Setup = ProgramTable_SetUp;
   \   0000000C   0x....             LDR.N    R0,??DataTable9_16
   \   0000000E   0x61A0             STR      R0,[R4, #+24]
   1040            Pro_table.Prg_ProfileShow=ProgramTable_ProfileShow;
   \   00000010   0x....             LDR.N    R0,??DataTable9_17
   \   00000012   0x6160             STR      R0,[R4, #+20]
   1041            Pro_table.Prg_Workout = ProgramTable_Run;
   \   00000014   0x....             LDR.N    R0,??DataTable9_18
   \   00000016   0x61E0             STR      R0,[R4, #+28]
   1042            Pro_table.Prg_SetupData=ProgramTable_SetUpData;
   \   00000018   0x....             LDR.N    R0,??DataTable9_19
   \   0000001A   0x62A0             STR      R0,[R4, #+40]
   1043            Pro_table.Prg_RunData = ProgramTable_RunData;
   \   0000001C   0x....             LDR.N    R0,??DataTable9_20
   \   0000001E   0x62E0             STR      R0,[R4, #+44]
   1044            Pro_table.Setting_Array=ProTable_TimeSetUp;  
   \   00000020   0x....             LDR.N    R0,??DataTable9_1
   \   00000022   0x6060             STR      R0,[R4, #+4]
   1045            Pro_table.SettingArray_Index=0;
   \   00000024   0x2000             MOVS     R0,#+0
   \   00000026   0x7220             STRB     R0,[R4, #+8]
   1046            Pro_table.Programid = PS_SPEED_INTERVALS;//PS_DISTANCE_GOAL;
   \   00000028   0x2012             MOVS     R0,#+18
   \   0000002A   0x7020             STRB     R0,[R4, #+0]
   1047          
   1048            Program_Register_Function(&Pro_table);
   \   0000002C   0x4620             MOV      R0,R4
   \   0000002E   0x.... 0x....      BL       Program_Register_Function
   1049            Pro_table.Programid = PS_PEAK_INTERVALS;//PS_CALORIES_GOAL;
   \   00000032   0x2013             MOVS     R0,#+19
   \   00000034   0x7020             STRB     R0,[R4, #+0]
   1050            Program_Register_Function(&Pro_table);
   \   00000036   0x4620             MOV      R0,R4
   \   00000038   0x.... 0x....      BL       Program_Register_Function
   1051            //  Pro_table.Programid = PS_EDURANCE_INTERVALS;
   1052            //  Program_Register_Function(&Pro_table);
   1053            Pro_table.Programid = PS_INTERVALS;
   \   0000003C   0x2003             MOVS     R0,#+3
   \   0000003E   0x7020             STRB     R0,[R4, #+0]
   1054            Program_Register_Function(&Pro_table);
   \   00000040   0x4620             MOV      R0,R4
   \   00000042   0x.... 0x....      BL       Program_Register_Function
   1055          
   1056          	Pro_table.Setting_Array=ProTable_Time2SetUp;  
   \   00000046   0x....             LDR.N    R0,??DataTable9_21
   \   00000048   0x6060             STR      R0,[R4, #+4]
   1057          
   1058              Pro_table.Programid = PS_PERFORMANCE;
   \   0000004A   0x2006             MOVS     R0,#+6
   \   0000004C   0x7020             STRB     R0,[R4, #+0]
   1059            Program_Register_Function(&Pro_table);
   \   0000004E   0x4620             MOV      R0,R4
   \   00000050   0xE8BD 0x4010      POP      {R4,LR}
   \   00000054   0x.... 0x....      B.W      Program_Register_Function
   1060            //  Pro_table.Setting_Array=TM_ProTable_DistanceSetUp;
   1061          
   1062            
   1063            //  Pro_table.Setting_Array=TM_ProTable_CaloriesSetUp;
   1064            //  Pro_table.Programid = PS_CALORIES_GOAL;
   1065            //  Program_Register_Function(&Pro_table);
   1066            
   1067          }

   \                                 In section .text, align 4, keep-with-next
   \                     ??DataTable7:
   \   00000000   0x........         DC32     PTable

   \                                 In section .text, align 4, keep-with-next
   \                     ??DataTable9:
   \   00000000   0x........         DC32     Pro_table

   \                                 In section .text, align 4, keep-with-next
   \                     ??DataTable9_1:
   \   00000000   0x........         DC32     ProTable_TimeSetUp

   \                                 In section .text, align 4, keep-with-next
   \                     ??DataTable9_2:
   \   00000000   0x........         DC32     ProgramLibConfigPara

   \                                 In section .text, align 4, keep-with-next
   \                     ??DataTable9_3:
   \   00000000   0x........         DC32     EP_ProTable_DistanceSetUp

   \                                 In section .text, align 4, keep-with-next
   \                     ??DataTable9_4:
   \   00000000   0x........         DC32     TM_ProTable_DistanceSetUp

   \                                 In section .text, align 4, keep-with-next
   \                     ??DataTable9_5:
   \   00000000   0x........         DC32     TM_ProTable_CaloriesSetUp

   \                                 In section .text, align 4, keep-with-next
   \                     ??DataTable9_6:
   \   00000000   0x........         DC32     EP_ProTable_CaloriesSetUp

   \                                 In section .text, align 4, keep-with-next
   \                     ??DataTable9_7:
   \   00000000   0x........         DC32     DefaultDotmatrix

   \                                 In section .text, align 4, keep-with-next
   \                     ??DataTable9_8:
   \   00000000   0x........         DC32     ProfileIndex

   \                                 In section .text, align 4, keep-with-next
   \                     ??DataTable9_9:
   \   00000000   0x........         DC32     PTable

   \                                 In section .text, align 4, keep-with-next
   \                     ??DataTable9_10:
   \   00000000   0x........         DC32     Prg_ProfileData

   \                                 In section .text, align 4, keep-with-next
   \                     ??DataTable9_11:
   \   00000000   0x........         DC32     Prg_ProfileData+0x3C

   \                                 In section .text, align 4, keep-with-next
   \                     ??DataTable9_12:
   \   00000000   0x........         DC32     Prg_ProfileData+0x1E

   \                                 In section .text, align 4, keep-with-next
   \                     ??DataTable9_13:
   \   00000000   0x........         DC32     `ProgramTable_Run::LastValue`

   \                                 In section .text, align 4, keep-with-next
   \                     ??DataTable9_14:
   \   00000000   0x........         DC32     ProgramTable_Data_Initial

   \                                 In section .text, align 4, keep-with-next
   \                     ??DataTable9_15:
   \   00000000   0x........         DC32     ProgramTable_BeginWorkout

   \                                 In section .text, align 4, keep-with-next
   \                     ??DataTable9_16:
   \   00000000   0x........         DC32     ProgramTable_SetUp

   \                                 In section .text, align 4, keep-with-next
   \                     ??DataTable9_17:
   \   00000000   0x........         DC32     ProgramTable_ProfileShow

   \                                 In section .text, align 4, keep-with-next
   \                     ??DataTable9_18:
   \   00000000   0x........         DC32     ProgramTable_Run

   \                                 In section .text, align 4, keep-with-next
   \                     ??DataTable9_19:
   \   00000000   0x........         DC32     ProgramTable_SetUpData

   \                                 In section .text, align 4, keep-with-next
   \                     ??DataTable9_20:
   \   00000000   0x........         DC32     ProgramTable_RunData

   \                                 In section .text, align 4, keep-with-next
   \                     ??DataTable9_21:
   \   00000000   0x........         DC32     ProTable_Time2SetUp
   1068          
   1069          
   1070          #endif
   1071          

   Maximum stack usage in bytes:

   .cstack Function
   ------- --------
       8   Pro_table_Set_Data
         8   -> Program_Get_ProgramID
       8   ProgramTable_BeginWorkout
         8   -> Data_Get_Level
         8   -> Data_Set_Incline
         8   -> Data_Set_Speed
         8   -> Data_Set_Time
         8   -> Data_Set_targetCalories
         8   -> Data_Set_targetDistancex1000
         0   -> ProgramTable_LookUpParameter
      32   ProgramTable_Data_Initial
        32   -> Data_Get_Speed
        32   -> Data_Set_Incline
        32   -> Data_Set_Level
        32   -> Data_Set_Level_MaxVal
        32   -> Data_Set_Resistance
        32   -> Data_Set_Speed
        32   -> ProgramTable_LookUpParameter
        32   -> Program_Get_ProgramID
        32   -> Program_Get_subProgramID
        32   -> SystemConfig_Get_Char
        32   -> SystemConfig_Get_Display_Unit
        32   -> User_Get_UserSlot
        32   -> __aeabi_memclr4
      24   ProgramTable_LookUpParameter
        24   -> Data_Get_Calories
        24   -> Data_Get_Distance
        24   -> Data_Get_Time
        24   -> Data_Set_CoolDown_Calories
        24   -> Data_Set_CoolDown_Distance
        24   -> Data_Set_CoolDown_Time
        24   -> Data_Set_InclineOffset
        24   -> Data_Set_ResistanceOffset
        24   -> Data_Set_SpeedOffset
         0   -> Data_Set_StageTime
        24   -> Data_Set_StageTime
         0   -> Data_Set_Time
        24   -> Data_Set_Time
        24   -> Data_Set_WarmUP_Calories
        24   -> Data_Set_WarmUP_Distance
        24   -> Data_Set_WarmUP_Time
      40   ProgramTable_ProfileShow
        40   -> Data_Get_DotmatrixInclineData
        40   -> Data_Get_DotmatrixResistanceData
        40   -> Data_Get_Incline
        40   -> Data_Get_Level
        40   -> Data_Get_Resistance
        40   -> Data_Get_Speed
        40   -> SystemConfig_Get_Char
      40   ProgramTable_Run
        40   -- Indirect call
        40   -> Beep_Set_Beeps
        40   -> Data_Get_Calories
        40   -> Data_Get_Distance
        40   -> Data_Get_Level
        40   -> Data_Get_Speed
        40   -> Data_Get_Time
        40   -> Data_Set_Incline
        40   -> Data_Set_Resistance
        40   -> Data_Set_Speed
        40   -> Data_Set_Speed_Base_User
        40   -> Data_Set_StageTime
        40   -> Program_Get_Incline
        40   -> Program_Get_Resistance
       8   ProgramTable_RunData
         0   -> Data_Get_Time
         8   -> Data_Get_Time
         0   -> Data_Get_Watts
      32   ProgramTable_SetUp
        32   -- Indirect call
        32   -> Data_Get_Level
        32   -> Data_Get_Speed
        32   -> Data_Set_Incline
        32   -> Data_Set_Level
        32   -> Data_Set_Speed
        32   -> Data_Set_Time
        32   -> ProgramTable_Data_Initial
        32   -> ProgramTable_LookUpParameter
        32   -> Program_Get_ProgramID
        32   -> Program_Get_subProgramID
        32   -> SystemConfig_Get_Display_Unit
        32   -> User_Get_UserSlot
       0   ProgramTable_SetUpData
         0   -> Data_Get_Speed
       8   initTable
         0   -> Program_Register_Function
         8   -> Program_Register_Function


   Section sizes:

   Bytes  Function/Label
   -----  --------------
       4  ??DataTable7
       4  ??DataTable9
       4  ??DataTable9_1
       4  ??DataTable9_10
       4  ??DataTable9_11
       4  ??DataTable9_12
       4  ??DataTable9_13
       4  ??DataTable9_14
       4  ??DataTable9_15
       4  ??DataTable9_16
       4  ??DataTable9_17
       4  ??DataTable9_18
       4  ??DataTable9_19
       4  ??DataTable9_2
       4  ??DataTable9_20
       4  ??DataTable9_21
       4  ??DataTable9_3
       4  ??DataTable9_4
       4  ??DataTable9_5
       4  ??DataTable9_6
       4  ??DataTable9_7
       4  ??DataTable9_8
       4  ??DataTable9_9
      52  DistanceTargetArray
       2  LastValue
      40  PTable
          Profile
          Ptable_RunPara
      48  Pro_table
     176  Pro_table_Set_Data
     172  ProgramTable_BeginWorkout
     346  ProgramTable_Data_Initial
     686  ProgramTable_LookUpParameter
     458  ProgramTable_ProfileShow
     816  ProgramTable_Run
      46  ProgramTable_RunData
     784  ProgramTable_SetUp
      82  ProgramTable_SetUpData
      88  initTable

 
     2 bytes in section .data
    88 bytes in section .noinit
 3 798 bytes in section .text
 
 3 798 bytes of CODE memory
    90 bytes of DATA memory

Errors: none
Warnings: 13
