###############################################################################
#
# IAR ANSI C/C++ Compiler V7.80.4.12462/W32 for ARM       20/Dec/2022  14:54:08
# Copyright 1999-2017 IAR Systems AB.
#
#    Cpu mode     =  thumb
#    Endian       =  little
#    Source file  =  
#        C:\Users\shaomingkun\Desktop\git\evolve5.0\2021sw\ECOM-5\Modules\Program_lib\Programs.c
#    Command line =  
#        C:\Users\shaomingkun\Desktop\git\evolve5.0\2021sw\ECOM-5\Modules\Program_lib\Programs.c
#        -D EFM32LG380F256 -D BSP_CORTEX_EFM32 -D DEBUG_EFM_JJ -D
#        RF_MODULE_EXIST____ -lC
#        C:\Users\shaomingkun\Desktop\git\evolve5.0\2021sw\ECOM-5\Debug\List -o
#        C:\Users\shaomingkun\Desktop\git\evolve5.0\2021sw\ECOM-5\Debug\Obj
#        --debug --endian=little --cpu=Cortex-M3 -e --fpu=None --dlib_config
#        "C:\Program Files (x86)\IAR Systems\Embedded Workbench
#        7.5\arm\INC\c\DLib_Config_Normal.h" -I
#        C:\Users\shaomingkun\Desktop\git\evolve5.0\2021sw\ECOM-5\ -I
#        C:\Users\shaomingkun\Desktop\git\evolve5.0\2021sw\ECOM-5\Local\ -I
#        C:\Users\shaomingkun\Desktop\git\evolve5.0\2021sw\ECOM-5\Modules\ -I
#        C:\Users\shaomingkun\Desktop\git\evolve5.0\2021sw\ECOM-5\Modules\Utilities_Lib\
#        -I
#        C:\Users\shaomingkun\Desktop\git\evolve5.0\2021sw\ECOM-5\Modules\HAL_Lib\
#        -I
#        C:\Users\shaomingkun\Desktop\git\evolve5.0\2021sw\ECOM-5\Modules\LCB_Lib\
#        -I
#        C:\Users\shaomingkun\Desktop\git\evolve5.0\2021sw\ECOM-5\Modules\Eng_lib\
#        -I
#        C:\Users\shaomingkun\Desktop\git\evolve5.0\2021sw\ECOM-5\..\Modules\Eng_lib\
#        -I
#        C:\Users\shaomingkun\Desktop\git\evolve5.0\2021sw\ECOM-5\Modules\SystemConfig_Lib\
#        -I
#        C:\Users\shaomingkun\Desktop\git\evolve5.0\2021sw\ECOM-5\Modules\EFM32_lib\
#        -I
#        C:\Users\shaomingkun\Desktop\git\evolve5.0\2021sw\ECOM-5\Modules\EFM32_lib\drivers\
#        -I
#        C:\Users\shaomingkun\Desktop\git\evolve5.0\2021sw\ECOM-5\Modules\Program_lib\
#        -I
#        C:\Users\shaomingkun\Desktop\git\evolve5.0\2021sw\ECOM-5\Modules\RF_lib\
#        -I
#        C:\Users\shaomingkun\Desktop\git\evolve5.0\2021sw\ECOM-5\Modules\USB_lib\
#        -I
#        C:\Users\shaomingkun\Desktop\git\evolve5.0\2021sw\ECOM-5\Modules\USB_lib\usb\src\
#        -I
#        C:\Users\shaomingkun\Desktop\git\evolve5.0\2021sw\ECOM-5\Modules\USB_lib\usb\inc\
#        -I
#        C:\Users\shaomingkun\Desktop\git\evolve5.0\2021sw\ECOM-5\Modules\Bluetooth_lib\
#        -I
#        C:\Users\shaomingkun\Desktop\git\evolve5.0\2021sw\ECOM-5\Modules\Remote_lib\
#        -I
#        C:\Users\shaomingkun\Desktop\git\evolve5.0\2021sw\ECOM-5\Modules\EFM32_lib\Include\
#        -I
#        C:\Users\shaomingkun\Desktop\git\evolve5.0\2021sw\ECOM-5\Modules\EFM32_lib\emlib\inc\
#        -I
#        C:\Users\shaomingkun\Desktop\git\evolve5.0\2021sw\ECOM-5\Modules\EFM32_lib\emlib\src\
#        -I
#        C:\Users\shaomingkun\Desktop\git\evolve5.0\2021sw\ECOM-5\Modules\EFM32_lib\drivers\fatfs\src\
#        -I
#        C:\Users\shaomingkun\Desktop\git\evolve5.0\2021sw\ECOM-5\Modules\EFM32_lib\Device\EnergyMicro\EFM32LG\Include\
#        -I
#        C:\Users\shaomingkun\Desktop\git\evolve5.0\2021sw\ECOM-5\Modules\EFM32_lib\Device\EnergyMicro\EFM32LG\Source\
#        -I
#        C:\Users\shaomingkun\Desktop\git\evolve5.0\2021sw\ECOM-5\Modules\EFM32_lib\Device\EnergyMicro\EFM32LG\Source\IAR\
#        -Oh
#    Locale       =  Chinese (Simplified)_China.936
#    List file    =  
#        C:\Users\shaomingkun\Desktop\git\evolve5.0\2021sw\ECOM-5\Debug\List\Programs.lst
#    Object file  =  
#        C:\Users\shaomingkun\Desktop\git\evolve5.0\2021sw\ECOM-5\Debug\Obj\Programs.o
#
###############################################################################

C:\Users\shaomingkun\Desktop\git\evolve5.0\2021sw\ECOM-5\Modules\Program_lib\Programs.c
      1          #include "Program_Inner.h"

  EFM32_PACK_START( 1 )
                    ^
"C:\Users\shaomingkun\Desktop\git\evolve5.0\2021sw\ECOM-5\Modules\USB_lib\usb\inc\em_usb.h",318  Warning[Pe1665]: 
          concatenation with "1)" in macro "EFM32_PACK_START" does not create a
          valid token

  EFM32_PACK_START( 1 )
  ^
"C:\Users\shaomingkun\Desktop\git\evolve5.0\2021sw\ECOM-5\Modules\USB_lib\usb\inc\em_usb.h",318  Warning[Pe1665]: 
          concatenation with ")" in macro "EFM32_PACK_START" does not create a
          valid token

  EFM32_PACK_START( 1 )
                    ^
"C:\Users\shaomingkun\Desktop\git\evolve5.0\2021sw\ECOM-5\Modules\USB_lib\usb\inc\em_usb.h",347  Warning[Pe1665]: 
          concatenation with "1)" in macro "EFM32_PACK_START" does not create a
          valid token

  EFM32_PACK_START( 1 )
  ^
"C:\Users\shaomingkun\Desktop\git\evolve5.0\2021sw\ECOM-5\Modules\USB_lib\usb\inc\em_usb.h",347  Warning[Pe1665]: 
          concatenation with ")" in macro "EFM32_PACK_START" does not create a
          valid token

  EFM32_PACK_START( 1 )
                    ^
"C:\Users\shaomingkun\Desktop\git\evolve5.0\2021sw\ECOM-5\Modules\USB_lib\usb\inc\em_usb.h",371  Warning[Pe1665]: 
          concatenation with "1)" in macro "EFM32_PACK_START" does not create a
          valid token

  EFM32_PACK_START( 1 )
  ^
"C:\Users\shaomingkun\Desktop\git\evolve5.0\2021sw\ECOM-5\Modules\USB_lib\usb\inc\em_usb.h",371  Warning[Pe1665]: 
          concatenation with ")" in macro "EFM32_PACK_START" does not create a
          valid token

  EFM32_PACK_START( 1 )
                    ^
"C:\Users\shaomingkun\Desktop\git\evolve5.0\2021sw\ECOM-5\Modules\USB_lib\usb\inc\em_usb.h",400  Warning[Pe1665]: 
          concatenation with "1)" in macro "EFM32_PACK_START" does not create a
          valid token

  EFM32_PACK_START( 1 )
  ^
"C:\Users\shaomingkun\Desktop\git\evolve5.0\2021sw\ECOM-5\Modules\USB_lib\usb\inc\em_usb.h",400  Warning[Pe1665]: 
          concatenation with ")" in macro "EFM32_PACK_START" does not create a
          valid token

  EFM32_PACK_START( 1 )
                    ^
"C:\Users\shaomingkun\Desktop\git\evolve5.0\2021sw\ECOM-5\Modules\USB_lib\usb\inc\em_usb.h",441  Warning[Pe1665]: 
          concatenation with "1)" in macro "EFM32_PACK_START" does not create a
          valid token

  EFM32_PACK_START( 1 )
  ^
"C:\Users\shaomingkun\Desktop\git\evolve5.0\2021sw\ECOM-5\Modules\USB_lib\usb\inc\em_usb.h",441  Warning[Pe1665]: 
          concatenation with ")" in macro "EFM32_PACK_START" does not create a
          valid token

  EFM32_PACK_START( 1 )
                    ^
"C:\Users\shaomingkun\Desktop\git\evolve5.0\2021sw\ECOM-5\Modules\USB_lib\usb\inc\em_usb.h",455  Warning[Pe1665]: 
          concatenation with "1)" in macro "EFM32_PACK_START" does not create a
          valid token

  EFM32_PACK_START( 1 )
  ^
"C:\Users\shaomingkun\Desktop\git\evolve5.0\2021sw\ECOM-5\Modules\USB_lib\usb\inc\em_usb.h",455  Warning[Pe1665]: 
          concatenation with ")" in macro "EFM32_PACK_START" does not create a
          valid token
      2          #include "HAL_Lib.h"
      3          #include "Setting_Config.h"

   \                                 In section .rodata, align 4, keep-with-next
   \   __absolute unsigned char const TM_Manual_SetUp[5]
   \                     TM_Manual_SetUp:
   \   00000000   0x01 0x04          DC8 1, 4, 6, 5, 31, 0, 0, 0
   \              0x06 0x05    
   \              0x1F 0x00    
   \              0x00 0x00    

   \                                 In section .rodata, align 4, keep-with-next
   \   __absolute unsigned char const TM_Goal_DistanceSetUp[4]
   \                     TM_Goal_DistanceSetUp:
   \   00000000   0x01 0x0B          DC8 1, 11, 5, 31
   \              0x05 0x1F    

   \                                 In section .rodata, align 4, keep-with-next
   \   __absolute unsigned char const EP_Goal_SetUp[4]
   \                     EP_Goal_SetUp:
   \   00000000   0x01 0x0B          DC8 1, 11, 7, 31
   \              0x07 0x1F    

   \                                 In section .rodata, align 4, keep-with-next
   \   __absolute unsigned char const TM_Calories_SetUp[4]
   \                     TM_Calories_SetUp:
   \   00000000   0x01 0x0D          DC8 1, 13, 5, 31
   \              0x05 0x1F    

   \                                 In section .rodata, align 4, keep-with-next
   \   __absolute unsigned char const EP_Manual_SetUp[4]
   \                     EP_Manual_SetUp:
   \   00000000   0x01 0x04          DC8 1, 4, 7, 31
   \              0x07 0x1F    

   \                                 In section .rodata, align 4, keep-with-next
   \   __absolute unsigned char const EP_Incline_Manual_SetUp[5]
   \                     EP_Incline_Manual_SetUp:
   \   00000000   0x01 0x04          DC8 1, 4, 7, 6, 31, 0, 0, 0
   \              0x07 0x06    
   \              0x1F 0x00    
   \              0x00 0x00    

   \                                 In section .rodata, align 4, keep-with-next
   \   __absolute unsigned char const EP_Calories_SetUp[4]
   \                     EP_Calories_SetUp:
   \   00000000   0x01 0x04          DC8 1, 4, 7, 31
   \              0x07 0x1F    

   \                                 In section .rodata, align 4, keep-with-next
   \   __absolute unsigned char const EP_Incline_Calories_SetUp[5]
   \                     EP_Incline_Calories_SetUp:
   \   00000000   0x01 0x04          DC8 1, 4, 7, 6, 31, 0, 0, 0
   \              0x07 0x06    
   \              0x1F 0x00    
   \              0x00 0x00    

   \                                 In section .rodata, align 4, keep-with-next
   \   __absolute unsigned char const THR_ZONE_SetUp[6]
   \                     THR_ZONE_SetUp:
   \   00000000   0x01 0x02          DC8 1, 2, 4, 17, 9, 31, 0, 0
   \              0x04 0x11    
   \              0x09 0x1F    
   \              0x00 0x00    

   \                                 In section .rodata, align 4, keep-with-next
   \   __absolute unsigned char const THR_PER_SetUp[6]
   \                     THR_PER_SetUp:
   \   00000000   0x01 0x02          DC8 1, 2, 4, 17, 9, 31, 0, 0
   \              0x04 0x11    
   \              0x09 0x1F    
   \              0x00 0x00    

   \                                 In section .rodata, align 4, keep-with-next
   \   __absolute unsigned char const Interval_HR_SetUp[7]
   \                     Interval_HR_SetUp:
   \   00000000   0x01 0x12          DC8 1, 18, 19, 20, 21, 4, 31, 0
   \              0x13 0x14    
   \              0x15 0x04    
   \              0x1F 0x00    

   \                                 In section .rodata, align 4, keep-with-next
   \   __absolute unsigned char const Steps_HR_SetUp[8]
   \                     Steps_HR_SetUp:
   \   00000000   0x01 0x16          DC8 1, 22, 23, 24, 25, 26, 4, 31
   \              0x17 0x18    
   \              0x19 0x1A    
   \              0x04 0x1F    

   \                                 In section .rodata, align 4, keep-with-next
   \   __absolute unsigned char const ProTable_TimeSetUp[5]
   \                     ProTable_TimeSetUp:
   \   00000000   0x01 0x02          DC8 1, 2, 4, 8, 31, 0, 0, 0
   \              0x04 0x08    
   \              0x1F 0x00    
   \              0x00 0x00    

   \                                 In section .rodata, align 4, keep-with-next
   \   __absolute unsigned char const ProTable_Time2SetUp[4]
   \                     ProTable_Time2SetUp:
   \   00000000   0x01 0x04          DC8 1, 4, 8, 31
   \              0x08 0x1F    

   \                                 In section .rodata, align 4, keep-with-next
   \   __absolute unsigned char const TM_ProTable_DistanceSetUp[5]
   \                     TM_ProTable_DistanceSetUp:
   \   00000000   0x01 0x0C          DC8 1, 12, 8, 5, 31, 0, 0, 0
   \              0x08 0x05    
   \              0x1F 0x00    
   \              0x00 0x00    

   \                                 In section .rodata, align 4, keep-with-next
   \   __absolute unsigned char const TM_Distance_SetUp[4]
   \                     TM_Distance_SetUp:
   \   00000000   0x01 0x0C          DC8 1, 12, 5, 31
   \              0x05 0x1F    

   \                                 In section .rodata, align 4, keep-with-next
   \   __absolute unsigned char const EP_Distance_SetUp[4]
   \                     EP_Distance_SetUp:
   \   00000000   0x01 0x0C          DC8 1, 12, 7, 31
   \              0x07 0x1F    

   \                                 In section .rodata, align 4, keep-with-next
   \   __absolute unsigned char const EP_Incline_Distance_SetUp[5]
   \                     EP_Incline_Distance_SetUp:
   \   00000000   0x01 0x0C          DC8 1, 12, 8, 6, 31, 0, 0, 0
   \              0x08 0x06    
   \              0x1F 0x00    
   \              0x00 0x00    

   \                                 In section .rodata, align 4, keep-with-next
   \   __absolute unsigned char const TM_ProTable_CaloriesSetUp[5]
   \                     TM_ProTable_CaloriesSetUp:
   \   00000000   0x01 0x0D          DC8 1, 13, 8, 5, 31, 0, 0, 0
   \              0x08 0x05    
   \              0x1F 0x00    
   \              0x00 0x00    

   \                                 In section .rodata, align 4, keep-with-next
   \   __absolute unsigned char const TM_CaloriesSetUp[5]
   \                     TM_CaloriesSetUp:
   \   00000000   0x01 0x0D          DC8 1, 13, 8, 5, 31, 0, 0, 0
   \              0x08 0x05    
   \              0x1F 0x00    
   \              0x00 0x00    

   \                                 In section .rodata, align 4, keep-with-next
   \   __absolute unsigned char const EP_ProTable_DistanceSetUp[4]
   \                     EP_ProTable_DistanceSetUp:
   \   00000000   0x01 0x0C          DC8 1, 12, 8, 31
   \              0x08 0x1F    

   \                                 In section .rodata, align 4, keep-with-next
   \   __absolute unsigned char const EP_ProTable_CaloriesSetUp[4]
   \                     EP_ProTable_CaloriesSetUp:
   \   00000000   0x01 0x0D          DC8 1, 13, 8, 31
   \              0x08 0x1F    

   \                                 In section .rodata, align 4, keep-with-next
   \   __absolute unsigned char const ProSprint8_SetUp[3]
   \                     ProSprint8_SetUp:
   \   00000000   0x01 0x08          DC8 1, 8, 31, 0
   \              0x1F 0x00    

   \                                 In section .rodata, align 4, keep-with-next
   \   __absolute unsigned char const PConstantWatt_SetUp[4]
   \                     PConstantWatt_SetUp:
   \   00000000   0x01 0x04          DC8 1, 4, 10, 31
   \              0x0A 0x1F    

   \                                 In section .rodata, align 4, keep-with-next
   \   __absolute unsigned char const EP_ProMyFirst5k_SetUp[6]
   \                     EP_ProMyFirst5k_SetUp:
   \   00000000   0x01 0x1C          DC8 1, 28, 29, 30, 7, 31, 0, 0
   \              0x1D 0x1E    
   \              0x07 0x1F    
   \              0x00 0x00    

   \                                 In section .rodata, align 4, keep-with-next
   \   __absolute unsigned char const TM_ProMyFirst5k_SetUp[6]
   \                     TM_ProMyFirst5k_SetUp:
   \   00000000   0x01 0x1C          DC8 1, 28, 29, 30, 6, 31, 0, 0
   \              0x1D 0x1E    
   \              0x06 0x1F    
   \              0x00 0x00    

   \                                 In section .rodata, align 4, keep-with-next
   \   __absolute unsigned char const TM_CustomTime_SetUp[6]
   \                     TM_CustomTime_SetUp:
   \   00000000   0x01 0x1C          DC8 1, 28, 4, 5, 6, 31, 0, 0
   \              0x04 0x05    
   \              0x06 0x1F    
   \              0x00 0x00    

   \                                 In section .rodata, align 4, keep-with-next
   \   __absolute unsigned char const TM_CustomDistance_SetUp[7]
   \                     TM_CustomDistance_SetUp:
   \   00000000   0x01 0x02          DC8 1, 2, 28, 12, 5, 6, 31, 0
   \              0x1C 0x0C    
   \              0x05 0x06    
   \              0x1F 0x00    

   \                                 In section .rodata, align 4, keep-with-next
   \   __absolute unsigned char const EP_CustomTime_SetUp[7]
   \                     EP_CustomTime_SetUp:
   \   00000000   0x01 0x02          DC8 1, 2, 28, 3, 7, 6, 31, 0
   \              0x1C 0x03    
   \              0x07 0x06    
   \              0x1F 0x00    

   \                                 In section .rodata, align 4, keep-with-next
   \   __absolute unsigned char const EP_CustomDistance_SetUp[7]
   \                     EP_CustomDistance_SetUp:
   \   00000000   0x01 0x02          DC8 1, 2, 28, 12, 7, 6, 31, 0
   \              0x1C 0x0C    
   \              0x07 0x06    
   \              0x1F 0x00    

   \                                 In section .rodata, align 4, keep-with-next
   \   __absolute unsigned char const TM_CustomHr_SetUp[6]
   \                     TM_CustomHr_SetUp:
   \   00000000   0x01 0x1C          DC8 1, 28, 14, 15, 16, 31, 0, 0
   \              0x0E 0x0F    
   \              0x10 0x1F    
   \              0x00 0x00    
      4          #include"Pro_manual.h"
      5          #include"Pro_goal.h"
      6          #include"Pro_hrc.h"
      7          #include"Pro_table.h"
      8          #include"Pro_constant.h"
      9          #include"ProSprint8.h"
     10          #include"Pro_MyFirst5k.h"
     11          #include "Pro_Custom.h"
     12          #include "Bluetooth_lib.h"
     13          #include "page.h"
     14          #include <string.h>
     15          #include "Incline_Count.h"
     16          #include"Speed.h"
     17          //#include "Pro_distance.h"
     18          //#include "Pro_calories.h"
     19          
     20          #define PROGRAM_VISION "1.0.2"
     21          #define SETPARANUM 8
     22          #define TIMER_CH_NUM 16
     23          typedef struct
     24          {
     25              UINT16 ScanMode:1;
     26              UINT16 ReadPWM:1;
     27              UINT16 HRSignalStatus:1;	
     28          }PrgAction_Flag;
     29          typedef struct
     30          {
     31              UINT16 Timer_Delay[TIMER_CH_NUM];
     32              UINT8  Timer_Channel[TIMER_CH_NUM];
     33          }PrgTimer_Isr;
     34          typedef struct
     35          {
     36              UINT16 TimerDelay;
     37              UINT8 TimerCount;
     38              UINT8 WaitFlag:1;
     39          }Prg321_Isr;
     40          typedef struct
     41          {
     42              UINT8 LessOneMileCounter;
     43          }Prg_SpecialFunctionData;
     44          const struct
     45          {
     46              struct
     47              {
     48                  unsigned char Used : 1;   // 0:不使用数字键, 1:使用
     49                  unsigned char Digits : 7; // 数字位数
     50              }NumericKey;    
     51              unsigned char SetState;
     52              unsigned char EventChange;

   \                                 In section .text, align 4, keep-with-next
     53          }DefaultNumber[SETPARANUM] = 
   \                     DefaultNumber:
   \   00000000   0x05 0x04          DC8 5, 4, 6, 7, 5, 17, 7, 6, 18, 5, 7, 19, 5, 8, 16, 7, 9, 8, 7, 10, 9
   \              0x06 0x07    
   \              0x05 0x11    
   \              0x07 0x06    
   \              0x12 0x05    
   \              0x07 0x13    
   \              0x05 0x08    
   \              0x10 0x07    
   \              0x09 0x08    
   \              0x07 0x0A    
   \              0x09         
   \   00000015   0x00 0x00          DC8 0, 0, 0
   \              0x00         
     54          {
     55              {1,2,SET_TIME,TIME_CHANGE_EVENT},              
     56              {1,3,SET_SPEED,SPEED_CHANGE_EVENT},              
     57              {1,3,SET_INCLINE,INCLINE_CHANGE_EVENT},              
     58              {1,2,SET_RESISTANCE,RESISTANCE_CHANGE_EVENT},              
     59              {1,2,SET_LEVEL,LEVEL_CHANGE_EVENT},              
     60              {1,3,SET_HEART,HEART_CHANGE_EVENT},              
     61              {1,3,SET_WATTS,WATTS_CHANGE_EVENT},              
     62          };
     63          

   \                                 In section .text, align 4, keep-with-next
     64          const char ProgramUUID[PS_TOTALS][37]=
   \                     ProgramUUID:
   \   00000000   0x30 0x30          DC8 "00000000-0000-0000-0000-000000000000"
   \              0x30 0x30    
   \              0x30 0x30    
   \              0x30 0x30    
   \              0x2D 0x30    
   \              0x30 0x30    
   \              0x30 0x2D    
   \              0x30 0x30    
   \              0x30 0x30    
   \              0x2D 0x30    
   \              0x30 0x30    
   \              0x30 0x2D    
   \              0x30 0x30    
   \              0x30 0x30    
   \              0x30 0x30    
   \              0x30 0x30    
   \              0x30 0x30    
   \              0x30 0x30    
   \              0x00         
   \   00000025   0x30 0x30          DC8 "00000000-0000-0000-0000-000000000000"
   \              0x30 0x30    
   \              0x30 0x30    
   \              0x30 0x30    
   \              0x2D 0x30    
   \              0x30 0x30    
   \              0x30 0x2D    
   \              0x30 0x30    
   \              0x30 0x30    
   \              0x2D 0x30    
   \              0x30 0x30    
   \              0x30 0x2D    
   \              0x30 0x30    
   \              0x30 0x30    
   \              0x30 0x30    
   \              0x30 0x30    
   \              0x30 0x30    
   \              0x30 0x30    
   \              0x00         
   \   0000004A   0x30 0x30          DC8 "00000000-0000-0000-0000-000000000000"
   \              0x30 0x30    
   \              0x30 0x30    
   \              0x30 0x30    
   \              0x2D 0x30    
   \              0x30 0x30    
   \              0x30 0x2D    
   \              0x30 0x30    
   \              0x30 0x30    
   \              0x2D 0x30    
   \              0x30 0x30    
   \              0x30 0x2D    
   \              0x30 0x30    
   \              0x30 0x30    
   \              0x30 0x30    
   \              0x30 0x30    
   \              0x30 0x30    
   \              0x30 0x30    
   \              0x00         
   \   0000006F   0x30 0x30          DC8 "00000000-0000-0000-0000-000000000000"
   \              0x30 0x30    
   \              0x30 0x30    
   \              0x30 0x30    
   \              0x2D 0x30    
   \              0x30 0x30    
   \              0x30 0x2D    
   \              0x30 0x30    
   \              0x30 0x30    
   \              0x2D 0x30    
   \              0x30 0x30    
   \              0x30 0x2D    
   \              0x30 0x30    
   \              0x30 0x30    
   \              0x30 0x30    
   \              0x30 0x30    
   \              0x30 0x30    
   \              0x30 0x30    
   \              0x00         
   \   00000094   0x30 0x30          DC8 "00000000-0000-0000-0000-000000000000"
   \              0x30 0x30    
   \              0x30 0x30    
   \              0x30 0x30    
   \              0x2D 0x30    
   \              0x30 0x30    
   \              0x30 0x2D    
   \              0x30 0x30    
   \              0x30 0x30    
   \              0x2D 0x30    
   \              0x30 0x30    
   \              0x30 0x2D    
   \              0x30 0x30    
   \              0x30 0x30    
   \              0x30 0x30    
   \              0x30 0x30    
   \              0x30 0x30    
   \              0x30 0x30    
   \              0x00         
   \   000000B9   0x30 0x30          DC8 "00000000-0000-0000-0000-000000000000"
   \              0x30 0x30    
   \              0x30 0x30    
   \              0x30 0x30    
   \              0x2D 0x30    
   \              0x30 0x30    
   \              0x30 0x2D    
   \              0x30 0x30    
   \              0x30 0x30    
   \              0x2D 0x30    
   \              0x30 0x30    
   \              0x30 0x2D    
   \              0x30 0x30    
   \              0x30 0x30    
   \              0x30 0x30    
   \              0x30 0x30    
   \              0x30 0x30    
   \              0x30 0x30    
   \              0x00         
   \   000000DE   0x30 0x30          DC8 "00000000-0000-0000-0000-000000000000"
   \              0x30 0x30    
   \              0x30 0x30    
   \              0x30 0x30    
   \              0x2D 0x30    
   \              0x30 0x30    
   \              0x30 0x2D    
   \              0x30 0x30    
   \              0x30 0x30    
   \              0x2D 0x30    
   \              0x30 0x30    
   \              0x30 0x2D    
   \              0x30 0x30    
   \              0x30 0x30    
   \              0x30 0x30    
   \              0x30 0x30    
   \              0x30 0x30    
   \              0x30 0x30    
   \              0x00         
   \   00000103   0x30 0x30          DC8 "00000000-0000-0000-0000-000000000000"
   \              0x30 0x30    
   \              0x30 0x30    
   \              0x30 0x30    
   \              0x2D 0x30    
   \              0x30 0x30    
   \              0x30 0x2D    
   \              0x30 0x30    
   \              0x30 0x30    
   \              0x2D 0x30    
   \              0x30 0x30    
   \              0x30 0x2D    
   \              0x30 0x30    
   \              0x30 0x30    
   \              0x30 0x30    
   \              0x30 0x30    
   \              0x30 0x30    
   \              0x30 0x30    
   \              0x00         
   \   00000128   0x30 0x30          DC8 "00000000-0000-0000-0000-000000000000"
   \              0x30 0x30    
   \              0x30 0x30    
   \              0x30 0x30    
   \              0x2D 0x30    
   \              0x30 0x30    
   \              0x30 0x2D    
   \              0x30 0x30    
   \              0x30 0x30    
   \              0x2D 0x30    
   \              0x30 0x30    
   \              0x30 0x2D    
   \              0x30 0x30    
   \              0x30 0x30    
   \              0x30 0x30    
   \              0x30 0x30    
   \              0x30 0x30    
   \              0x30 0x30    
   \              0x00         
   \   0000014D   0x30 0x30          DC8 "00000000-0000-0000-0000-000000000000"
   \              0x30 0x30    
   \              0x30 0x30    
   \              0x30 0x30    
   \              0x2D 0x30    
   \              0x30 0x30    
   \              0x30 0x2D    
   \              0x30 0x30    
   \              0x30 0x30    
   \              0x2D 0x30    
   \              0x30 0x30    
   \              0x30 0x2D    
   \              0x30 0x30    
   \              0x30 0x30    
   \              0x30 0x30    
   \              0x30 0x30    
   \              0x30 0x30    
   \              0x30 0x30    
   \              0x00         
   \   00000172   0x30 0x30          DC8 "00000000-0000-0000-0000-000000000000"
   \              0x30 0x30    
   \              0x30 0x30    
   \              0x30 0x30    
   \              0x2D 0x30    
   \              0x30 0x30    
   \              0x30 0x2D    
   \              0x30 0x30    
   \              0x30 0x30    
   \              0x2D 0x30    
   \              0x30 0x30    
   \              0x30 0x2D    
   \              0x30 0x30    
   \              0x30 0x30    
   \              0x30 0x30    
   \              0x30 0x30    
   \              0x30 0x30    
   \              0x30 0x30    
   \              0x00         
   \   00000197   0x30 0x30          DC8 "00000000-0000-0000-0000-000000000000"
   \              0x30 0x30    
   \              0x30 0x30    
   \              0x30 0x30    
   \              0x2D 0x30    
   \              0x30 0x30    
   \              0x30 0x2D    
   \              0x30 0x30    
   \              0x30 0x30    
   \              0x2D 0x30    
   \              0x30 0x30    
   \              0x30 0x2D    
   \              0x30 0x30    
   \              0x30 0x30    
   \              0x30 0x30    
   \              0x30 0x30    
   \              0x30 0x30    
   \              0x30 0x30    
   \              0x00         
   \   000001BC   0x30 0x30          DC8 "00000000-0000-0000-0000-000000000000"
   \              0x30 0x30    
   \              0x30 0x30    
   \              0x30 0x30    
   \              0x2D 0x30    
   \              0x30 0x30    
   \              0x30 0x2D    
   \              0x30 0x30    
   \              0x30 0x30    
   \              0x2D 0x30    
   \              0x30 0x30    
   \              0x30 0x2D    
   \              0x30 0x30    
   \              0x30 0x30    
   \              0x30 0x30    
   \              0x30 0x30    
   \              0x30 0x30    
   \              0x30 0x30    
   \              0x00         
   \   000001E1   0x30 0x30          DC8 "00000000-0000-0000-0000-000000000000"
   \              0x30 0x30    
   \              0x30 0x30    
   \              0x30 0x30    
   \              0x2D 0x30    
   \              0x30 0x30    
   \              0x30 0x2D    
   \              0x30 0x30    
   \              0x30 0x30    
   \              0x2D 0x30    
   \              0x30 0x30    
   \              0x30 0x2D    
   \              0x30 0x30    
   \              0x30 0x30    
   \              0x30 0x30    
   \              0x30 0x30    
   \              0x30 0x30    
   \              0x30 0x30    
   \              0x00         
   \   00000206   0x30 0x30          DC8 "00000000-0000-0000-0000-000000000000"
   \              0x30 0x30    
   \              0x30 0x30    
   \              0x30 0x30    
   \              0x2D 0x30    
   \              0x30 0x30    
   \              0x30 0x2D    
   \              0x30 0x30    
   \              0x30 0x30    
   \              0x2D 0x30    
   \              0x30 0x30    
   \              0x30 0x2D    
   \              0x30 0x30    
   \              0x30 0x30    
   \              0x30 0x30    
   \              0x30 0x30    
   \              0x30 0x30    
   \              0x30 0x30    
   \              0x00         
   \   0000022B   0x30 0x30          DC8 "00000000-0000-0000-0000-000000000000"
   \              0x30 0x30    
   \              0x30 0x30    
   \              0x30 0x30    
   \              0x2D 0x30    
   \              0x30 0x30    
   \              0x30 0x2D    
   \              0x30 0x30    
   \              0x30 0x30    
   \              0x2D 0x30    
   \              0x30 0x30    
   \              0x30 0x2D    
   \              0x30 0x30    
   \              0x30 0x30    
   \              0x30 0x30    
   \              0x30 0x30    
   \              0x30 0x30    
   \              0x30 0x30    
   \              0x00         
   \   00000250   0x30 0x30          DC8 "00000000-0000-0000-0000-000000000000"
   \              0x30 0x30    
   \              0x30 0x30    
   \              0x30 0x30    
   \              0x2D 0x30    
   \              0x30 0x30    
   \              0x30 0x2D    
   \              0x30 0x30    
   \              0x30 0x30    
   \              0x2D 0x30    
   \              0x30 0x30    
   \              0x30 0x2D    
   \              0x30 0x30    
   \              0x30 0x30    
   \              0x30 0x30    
   \              0x30 0x30    
   \              0x30 0x30    
   \              0x30 0x30    
   \              0x00         
   \   00000275   0x30 0x30          DC8 "00000000-0000-0000-0000-000000000000"
   \              0x30 0x30    
   \              0x30 0x30    
   \              0x30 0x30    
   \              0x2D 0x30    
   \              0x30 0x30    
   \              0x30 0x2D    
   \              0x30 0x30    
   \              0x30 0x30    
   \              0x2D 0x30    
   \              0x30 0x30    
   \              0x30 0x2D    
   \              0x30 0x30    
   \              0x30 0x30    
   \              0x30 0x30    
   \              0x30 0x30    
   \              0x30 0x30    
   \              0x30 0x30    
   \              0x00         
   \   0000029A   0x30 0x30          DC8 "00000000-0000-0000-0000-000000000000"
   \              0x30 0x30    
   \              0x30 0x30    
   \              0x30 0x30    
   \              0x2D 0x30    
   \              0x30 0x30    
   \              0x30 0x2D    
   \              0x30 0x30    
   \              0x30 0x30    
   \              0x2D 0x30    
   \              0x30 0x30    
   \              0x30 0x2D    
   \              0x30 0x30    
   \              0x30 0x30    
   \              0x30 0x30    
   \              0x30 0x30    
   \              0x30 0x30    
   \              0x30 0x30    
   \              0x00         
   \   000002BF   0x30 0x30          DC8 "00000000-0000-0000-0000-000000000000"
   \              0x30 0x30    
   \              0x30 0x30    
   \              0x30 0x30    
   \              0x2D 0x30    
   \              0x30 0x30    
   \              0x30 0x2D    
   \              0x30 0x30    
   \              0x30 0x30    
   \              0x2D 0x30    
   \              0x30 0x30    
   \              0x30 0x2D    
   \              0x30 0x30    
   \              0x30 0x30    
   \              0x30 0x30    
   \              0x30 0x30    
   \              0x30 0x30    
   \              0x30 0x30    
   \              0x00         
   \   000002E4   0x30 0x30          DC8 "00000000-0000-0000-0000-000000000000"
   \              0x30 0x30    
   \              0x30 0x30    
   \              0x30 0x30    
   \              0x2D 0x30    
   \              0x30 0x30    
   \              0x30 0x2D    
   \              0x30 0x30    
   \              0x30 0x30    
   \              0x2D 0x30    
   \              0x30 0x30    
   \              0x30 0x2D    
   \              0x30 0x30    
   \              0x30 0x30    
   \              0x30 0x30    
   \              0x30 0x30    
   \              0x30 0x30    
   \              0x30 0x30    
   \              0x00         
   \   00000309   0x30 0x30          DC8 "00000000-0000-0000-0000-000000000000"
   \              0x30 0x30    
   \              0x30 0x30    
   \              0x30 0x30    
   \              0x2D 0x30    
   \              0x30 0x30    
   \              0x30 0x2D    
   \              0x30 0x30    
   \              0x30 0x30    
   \              0x2D 0x30    
   \              0x30 0x30    
   \              0x30 0x2D    
   \              0x30 0x30    
   \              0x30 0x30    
   \              0x30 0x30    
   \              0x30 0x30    
   \              0x30 0x30    
   \              0x30 0x30    
   \              0x00         
   \   0000032E   0x30 0x30          DC8 "00000000-0000-0000-0000-000000000000"
   \              0x30 0x30    
   \              0x30 0x30    
   \              0x30 0x30    
   \              0x2D 0x30    
   \              0x30 0x30    
   \              0x30 0x2D    
   \              0x30 0x30    
   \              0x30 0x30    
   \              0x2D 0x30    
   \              0x30 0x30    
   \              0x30 0x2D    
   \              0x30 0x30    
   \              0x30 0x30    
   \              0x30 0x30    
   \              0x30 0x30    
   \              0x30 0x30    
   \              0x30 0x30    
   \              0x00         
   \   00000353   0x30 0x30          DC8 "00000000-0000-0000-0000-000000000000"
   \              0x30 0x30    
   \              0x30 0x30    
   \              0x30 0x30    
   \              0x2D 0x30    
   \              0x30 0x30    
   \              0x30 0x2D    
   \              0x30 0x30    
   \              0x30 0x30    
   \              0x2D 0x30    
   \              0x30 0x30    
   \              0x30 0x2D    
   \              0x30 0x30    
   \              0x30 0x30    
   \              0x30 0x30    
   \              0x30 0x30    
   \              0x30 0x30    
   \              0x30 0x30    
   \              0x00         
   \   00000378   0x30 0x30          DC8 "00000000-0000-0000-0000-000000000000"
   \              0x30 0x30    
   \              0x30 0x30    
   \              0x30 0x30    
   \              0x2D 0x30    
   \              0x30 0x30    
   \              0x30 0x2D    
   \              0x30 0x30    
   \              0x30 0x30    
   \              0x2D 0x30    
   \              0x30 0x30    
   \              0x30 0x2D    
   \              0x30 0x30    
   \              0x30 0x30    
   \              0x30 0x30    
   \              0x30 0x30    
   \              0x30 0x30    
   \              0x30 0x30    
   \              0x00         
   \   0000039D   0x30 0x30          DC8 "00000000-0000-0000-0000-000000000000"
   \              0x30 0x30    
   \              0x30 0x30    
   \              0x30 0x30    
   \              0x2D 0x30    
   \              0x30 0x30    
   \              0x30 0x2D    
   \              0x30 0x30    
   \              0x30 0x30    
   \              0x2D 0x30    
   \              0x30 0x30    
   \              0x30 0x2D    
   \              0x30 0x30    
   \              0x30 0x30    
   \              0x30 0x30    
   \              0x30 0x30    
   \              0x30 0x30    
   \              0x30 0x30    
   \              0x00         
   \   000003C2   0x00 0x00          DC8 0, 0, 0, 0, 0, 0, 0, 0, 0, 0, 0, 0, 0, 0, 0, 0
   \              0x00 0x00    
   \              0x00 0x00    
   \              0x00 0x00    
   \              0x00 0x00    
   \              0x00 0x00    
   \              0x00 0x00    
   \              0x00 0x00    
   \   000003D2   0x00 0x00          DC8 0, 0, 0, 0, 0, 0, 0, 0, 0, 0, 0, 0, 0, 0, 0, 0
   \              0x00 0x00    
   \              0x00 0x00    
   \              0x00 0x00    
   \              0x00 0x00    
   \              0x00 0x00    
   \              0x00 0x00    
   \              0x00 0x00    
   \   000003E2   0x00 0x00          DC8 0, 0, 0, 0, 0, 0, 0, 0, 0, 0, 0, 0, 0, 0, 0, 0
   \              0x00 0x00    
   \              0x00 0x00    
   \              0x00 0x00    
   \              0x00 0x00    
   \              0x00 0x00    
   \              0x00 0x00    
   \              0x00 0x00    
   \   000003F2   0x00 0x00          DC8 0, 0, 0, 0, 0, 0, 0, 0, 0, 0, 0, 0, 0, 0, 0, 0
   \              0x00 0x00    
   \              0x00 0x00    
   \              0x00 0x00    
   \              0x00 0x00    
   \              0x00 0x00    
   \              0x00 0x00    
   \              0x00 0x00    
   \   00000402   0x00 0x00          DC8 0, 0, 0, 0, 0, 0, 0, 0, 0, 0, 0, 0, 0, 0, 0, 0
   \              0x00 0x00    
   \              0x00 0x00    
   \              0x00 0x00    
   \              0x00 0x00    
   \              0x00 0x00    
   \              0x00 0x00    
   \              0x00 0x00    
   \   00000412   0x00 0x00          DC8 0, 0, 0, 0, 0, 0, 0, 0, 0, 0, 0, 0, 0, 0, 0, 0
   \              0x00 0x00    
   \              0x00 0x00    
   \              0x00 0x00    
   \              0x00 0x00    
   \              0x00 0x00    
   \              0x00 0x00    
   \              0x00 0x00    
   \   00000422   0x00 0x00          DC8 0, 0, 0, 0, 0, 0, 0, 0, 0, 0, 0, 0, 0, 0, 0, 0
   \              0x00 0x00    
   \              0x00 0x00    
   \              0x00 0x00    
   \              0x00 0x00    
   \              0x00 0x00    
   \              0x00 0x00    
   \              0x00 0x00    
   \   00000432   0x00 0x00          DC8 0, 0, 0, 0, 0, 0, 0, 0, 0, 0, 0, 0, 0, 0, 0, 0
   \              0x00 0x00    
   \              0x00 0x00    
   \              0x00 0x00    
   \              0x00 0x00    
   \              0x00 0x00    
   \              0x00 0x00    
   \              0x00 0x00    
   \   00000442   0x00 0x00          DC8 0, 0, 0, 0, 0, 0, 0, 0, 0, 0, 0, 0, 0, 0, 0, 0
   \              0x00 0x00    
   \              0x00 0x00    
   \              0x00 0x00    
   \              0x00 0x00    
   \              0x00 0x00    
   \              0x00 0x00    
   \              0x00 0x00    
   \   00000452   0x00 0x00          DC8 0, 0, 0, 0, 0, 0, 0, 0, 0, 0, 0, 0, 0, 0, 0, 0
   \              0x00 0x00    
   \              0x00 0x00    
   \              0x00 0x00    
   \              0x00 0x00    
   \              0x00 0x00    
   \              0x00 0x00    
   \              0x00 0x00    
   \   00000462   0x00 0x00          DC8 0, 0, 0, 0, 0, 0, 0, 0, 0, 0, 0, 0, 0, 0, 0, 0
   \              0x00 0x00    
   \              0x00 0x00    
   \              0x00 0x00    
   \              0x00 0x00    
   \              0x00 0x00    
   \              0x00 0x00    
   \              0x00 0x00    
   \   00000472   0x00 0x00          DC8 0, 0, 0, 0, 0, 0, 0, 0, 0, 0, 0, 0, 0, 0, 0, 0
   \              0x00 0x00    
   \              0x00 0x00    
   \              0x00 0x00    
   \              0x00 0x00    
   \              0x00 0x00    
   \              0x00 0x00    
   \              0x00 0x00    
   \   00000482   0x00 0x00          DC8 0, 0, 0, 0, 0, 0, 0, 0, 0, 0, 0, 0, 0, 0, 0, 0
   \              0x00 0x00    
   \              0x00 0x00    
   \              0x00 0x00    
   \              0x00 0x00    
   \              0x00 0x00    
   \              0x00 0x00    
   \              0x00 0x00    
   \   00000492   0x00 0x00          DC8 0, 0, 0, 0, 0, 0, 0, 0, 0, 0, 0, 0, 0, 0, 0, 0
   \              0x00 0x00    
   \              0x00 0x00    
   \              0x00 0x00    
   \              0x00 0x00    
   \              0x00 0x00    
   \              0x00 0x00    
   \              0x00 0x00    
   \   000004A2   0x00 0x00          DC8 0, 0, 0, 0, 0, 0, 0, 0, 0, 0, 0, 0, 0, 0, 0, 0
   \              0x00 0x00    
   \              0x00 0x00    
   \              0x00 0x00    
   \              0x00 0x00    
   \              0x00 0x00    
   \              0x00 0x00    
   \              0x00 0x00    
   \   000004B2   0x00 0x00          DC8 0, 0, 0, 0, 0, 0, 0, 0, 0, 0, 0, 0, 0, 0, 0, 0
   \              0x00 0x00    
   \              0x00 0x00    
   \              0x00 0x00    
   \              0x00 0x00    
   \              0x00 0x00    
   \              0x00 0x00    
   \              0x00 0x00    
   \   000004C2   0x00 0x00          DC8 0, 0, 0, 0, 0, 0, 0, 0, 0, 0, 0, 0, 0, 0, 0, 0
   \              0x00 0x00    
   \              0x00 0x00    
   \              0x00 0x00    
   \              0x00 0x00    
   \              0x00 0x00    
   \              0x00 0x00    
   \              0x00 0x00    
   \   000004D2   0x00 0x00          DC8 0, 0, 0, 0, 0, 0, 0, 0, 0, 0, 0, 0, 0, 0, 0, 0
   \              0x00 0x00    
   \              0x00 0x00    
   \              0x00 0x00    
   \              0x00 0x00    
   \              0x00 0x00    
   \              0x00 0x00    
   \              0x00 0x00    
   \   000004E2   0x00 0x00          DC8 0, 0, 0, 0, 0, 0, 0, 0, 0, 0, 0, 0, 0, 0, 0, 0
   \              0x00 0x00    
   \              0x00 0x00    
   \              0x00 0x00    
   \              0x00 0x00    
   \              0x00 0x00    
   \              0x00 0x00    
   \              0x00 0x00    
   \   000004F2   0x00 0x00          DC8 0, 0, 0, 0, 0, 0, 0, 0, 0, 0, 0, 0, 0, 0, 0, 0
   \              0x00 0x00    
   \              0x00 0x00    
   \              0x00 0x00    
   \              0x00 0x00    
   \              0x00 0x00    
   \              0x00 0x00    
   \              0x00 0x00    
   \   00000502   0x00 0x00          DC8 0, 0, 0, 0, 0, 0, 0, 0, 0, 0, 0, 0, 0, 0, 0, 0
   \              0x00 0x00    
   \              0x00 0x00    
   \              0x00 0x00    
   \              0x00 0x00    
   \              0x00 0x00    
   \              0x00 0x00    
   \              0x00 0x00    
   \   00000512   0x00 0x00          DC8 0, 0, 0, 0, 0, 0, 0, 0, 0, 0, 0, 0, 0, 0, 0, 0
   \              0x00 0x00    
   \              0x00 0x00    
   \              0x00 0x00    
   \              0x00 0x00    
   \              0x00 0x00    
   \              0x00 0x00    
   \              0x00 0x00    
   \   00000522   0x00 0x00          DC8 0, 0, 0, 0, 0, 0, 0, 0, 0, 0, 0, 0, 0, 0, 0, 0
   \              0x00 0x00    
   \              0x00 0x00    
   \              0x00 0x00    
   \              0x00 0x00    
   \              0x00 0x00    
   \              0x00 0x00    
   \              0x00 0x00    
   \   00000532   0x00 0x00          DC8 0, 0, 0, 0, 0, 0, 0, 0, 0, 0, 0, 0, 0, 0, 0, 0
   \              0x00 0x00    
   \              0x00 0x00    
   \              0x00 0x00    
   \              0x00 0x00    
   \              0x00 0x00    
   \              0x00 0x00    
   \              0x00 0x00    
   \   00000542   0x00 0x00          DC8 0, 0, 0, 0, 0, 0, 0, 0, 0, 0, 0, 0, 0, 0, 0, 0
   \              0x00 0x00    
   \              0x00 0x00    
   \              0x00 0x00    
   \              0x00 0x00    
   \              0x00 0x00    
   \              0x00 0x00    
   \              0x00 0x00    
   \   00000552   0x00 0x00          DC8 0, 0, 0, 0, 0, 0, 0, 0, 0, 0, 0, 0, 0, 0, 0, 0
   \              0x00 0x00    
   \              0x00 0x00    
   \              0x00 0x00    
   \              0x00 0x00    
   \              0x00 0x00    
   \              0x00 0x00    
   \              0x00 0x00    
   \   00000562   0x00 0x00          DC8 0, 0, 0, 0, 0, 0, 0, 0, 0, 0, 0, 0, 0, 0, 0, 0
   \              0x00 0x00    
   \              0x00 0x00    
   \              0x00 0x00    
   \              0x00 0x00    
   \              0x00 0x00    
   \              0x00 0x00    
   \              0x00 0x00    
   \   00000572   0x00 0x00          DC8 0, 0, 0, 0, 0, 0, 0, 0, 0, 0, 0, 0, 0, 0, 0, 0
   \              0x00 0x00    
   \              0x00 0x00    
   \              0x00 0x00    
   \              0x00 0x00    
   \              0x00 0x00    
   \              0x00 0x00    
   \              0x00 0x00    
   \   00000582   0x00 0x00          DC8 0, 0, 0, 0, 0, 0, 0, 0, 0, 0, 0, 0, 0, 0, 0, 0
   \              0x00 0x00    
   \              0x00 0x00    
   \              0x00 0x00    
   \              0x00 0x00    
   \              0x00 0x00    
   \              0x00 0x00    
   \              0x00 0x00    
   \   00000592   0x00 0x00          DC8 0, 0, 0, 0, 0, 0, 0, 0, 0, 0, 0, 0, 0, 0, 0, 0, 0, 0
   \              0x00 0x00    
   \              0x00 0x00    
   \              0x00 0x00    
   \              0x00 0x00    
   \              0x00 0x00    
   \              0x00 0x00    
   \              0x00 0x00    
   \              0x00 0x00    
     65          {
     66              {"00000000-0000-0000-0000-000000000000"},//PS_MANUAL
     67              {"00000000-0000-0000-0000-000000000000"},//PS_INTERVALS
     68              {"00000000-0000-0000-0000-000000000000"},//PS_WEIGHTLOSS
     69              {"00000000-0000-0000-0000-000000000000"},//PS_ROLLING_HILLS
     70              {"00000000-0000-0000-0000-000000000000"},//PS_SPRINT8
     71              {"00000000-0000-0000-0000-000000000000"},//PS_THR_ZONE
     72              {"00000000-0000-0000-0000-000000000000"},//PS_INTERVALS_HR
     73              {"00000000-0000-0000-0000-000000000000"},//PS_STEPS_THR
     74              {"00000000-0000-0000-0000-000000000000"},//PS_SPRING_CLASSIC
     75              {"00000000-0000-0000-0000-000000000000"},//PS_INTERVAL_PLUS
     76              {"00000000-0000-0000-0000-000000000000"},//PS_WEIGHTLOSS_PLUS
     77              {"00000000-0000-0000-0000-000000000000"},//PS_DISTANCE_GOAL
     78              {"00000000-0000-0000-0000-000000000000"},//PS_CALORIES_GOAL
     79              {"00000000-0000-0000-0000-000000000000"},//PS_STEPS_GOAL
     80              {"00000000-0000-0000-0000-000000000000"},//PS_CLIMB_GOAL
     81              {"00000000-0000-0000-0000-000000000000"},//PS_5K
     82              {"00000000-0000-0000-0000-000000000000"},//PS_10K
     83              {"00000000-0000-0000-0000-000000000000"},//PS_20K
     84              {"00000000-0000-0000-0000-000000000000"},//PS_40K
     85              {"00000000-0000-0000-0000-000000000000"},//PS_PTHR
     86              {"00000000-0000-0000-0000-000000000000"},//PS_THR_INTERVALS
     87              {"00000000-0000-0000-0000-000000000000"},//PS_CONSTANT_WATTS
     88              {"00000000-0000-0000-0000-000000000000"},//PS_WATT_INTERVALS
     89              {"00000000-0000-0000-0000-000000000000"},//PS_GERKIN
     90              {"00000000-0000-0000-0000-000000000000"},//PS_PEB
     91              {"00000000-0000-0000-0000-000000000000"},//PS_FATBURN
     92          };

   \                                 In section .text, align 4, keep-with-next
     93          const int aby_pwm_Offset[30]=
   \                     aby_pwm_Offset:
   \   00000000   0x0000000A         DC32 10, 13, 17, 20, 24, 27, 29, 31, 33, 35, 37, 39, 41, 43, 45, 47, 50
   \              0x0000000D   
   \              0x00000011   
   \              0x00000014   
   \              0x00000018   
   \              0x0000001B   
   \              0x0000001D   
   \              0x0000001F   
   \              0x00000021   
   \              0x00000023   
   \              0x00000025   
   \              0x00000027   
   \              0x00000029   
   \              0x0000002B   
   \              0x0000002D   
   \              0x0000002F   
   \              0x00000032   
   \   00000044   0x00000034         DC32 52, 54, 57, 59, 61, 64, 66, 68, 71, 73, 75, 78, 80
   \              0x00000036   
   \              0x00000039   
   \              0x0000003B   
   \              0x0000003D   
   \              0x00000040   
   \              0x00000042   
   \              0x00000044   
   \              0x00000047   
   \              0x00000049   
   \              0x0000004B   
   \              0x0000004E   
   \              0x00000050   
     94          {
     95              //L1	L2	L3	L4	L5	L6	L7	L8	L9	L10	L11	L12	L13	L14	L15	L16	L17	L18	L19	L20	L21	L22	L23	L24	L25	L26	L27	L28	L29	L30
     96              10,	13,	17,	20,	24,	27,	29,	31,	33,	35,	37,	39,	41,	43,	45,	47,	50,	52,	54,	57,	59,	61,	64,	66,	68,	71,	73,	75,	78,	80,
     97          };

   \                                 In section .noinit, align 4
     98          __no_init static PROGRAM_STATUS Prg_StateMachine,Prg_StateMachineBackup;
     99          
    100          __no_init static PrgAction_Flag PrgActionFlag;
    101          __no_init static PrgTimer_Isr PrgTimerIsr;
    102          __no_init static Prg321_Isr Prg321Isr;
    103          __no_init static Prg_SpecialFunctionData PrgSpecialFunctionData;
    104          
    105          __no_init static struProgram *ProgramArray[PS_TOTALS];
    106          __no_init static UCHAR proCurrentIndex;
    107          __no_init char ProgramidArrayIndex;
    108          __no_init static char ProgramSubidArrayIndex;
    109          
    110          //__no_init UINT16 Target_calories;
    111          __no_init TARGET_DIS_ENUM Target_distance;
    112          __no_init TARGET_CAL_ENUM Target_calorie;
    113          __no_init UINT16 Target_steps;
    114          
    115          __no_init ProgramLibPara *ProgramLibConfigPara;
    116          __no_init const WattsParameterStruct *Watts_ParameterData;
    117          __no_init  Prg_ProfileStruct Prg_ProfileData;
    118          
    119          __no_init static UCHAR Profile_Pos;
    120          __no_init static UCHAR ResistanceDataBackup,InclineDataBackup;
    121          __no_init static UINT16 SpeedDataBackup;
    122          __no_init NumberKeyData NumberKey_Data;
   \                     NumberKey_Data:
   \   00000000                      DS8 8
   \   00000008                      DS8 4
   \   0000000C                      DS8 1
   \   0000000D                      DS8 1
   \   0000000E                      DS8 1
   \                     ProgramidArrayIndex:
   \   0000000F                      DS8 1
   \   00000010                      DS8 1
   \                     Target_distance:
   \   00000011                      DS8 1
   \                     Target_calorie:
   \   00000012                      DS8 1
   \   00000013                      DS8 1
   \   00000014                      DS8 1
   \   00000015                      DS8 1
    123          __no_init  UINT8 DefaultDotmatrix;
   \                     DefaultDotmatrix:
   \   00000016                      DS8 1
    124          __no_init  UINT8 ProfileIndex;
   \                     ProfileIndex:
   \   00000017                      DS8 1
   \   00000018                      DS8 4
    125          
    126          __no_init  UINT16 InductionOutput_5P[5];
   \                     InductionOutput_5P:
   \   0000001C                      DS8 12
   \                     Target_steps:
   \   00000028                      DS8 2
   \   0000002A                      DS8 2
   \   0000002C                      DS8 4
   \                     ProgramLibConfigPara:
   \   00000030                      DS8 4
   \                     Watts_ParameterData:
   \   00000034                      DS8 4
   \                     Prg_ProfileData:
   \   00000038                      DS8 92

   \                                 In section .noinit, align 4
   \                     PrgTimerIsr:
   \   00000000                      DS8 48

   \                                 In section .noinit, align 4
   \                     ProgramArray:
   \   00000000                      DS8 156

   \                                 In section .noinit, align 4
    127          __no_init  UINT16 InductionOutput_30P[30];
   \                     InductionOutput_30P:
   \   00000000                      DS8 60
    128          
    129          extern UINT16 time_compute_flag;
    130          extern UINT16 NoRpmTimer;
    131          extern UINT16 NoRpmTimer2;
    132          extern UINT16 Show_NoSpeed_Error_Flag;
    133          
    134          extern VR_PAGE  nCurrentPage;
    135          extern VR_PAGE  g_BackPage;
    136          extern void Pro_table_Set_Data(UINT16 w_Data);
    137          extern void ProMyFirst5k_Set_Speeed(UINT16 Speed_Data);
    138          
    139          static ProgramKeyEvts PrgKeyEvts;
    140          
    141          void Program_1ms_ISR(void);
    142          UINT8 Prg_isr_TimerCounter(UINT8 by_Who,UINT16 w_Dat);
    143          void Prg_isr_TimerCounterClear(UINT8 by_Index);
    144          void Prg_isr_TimerColse(UINT8 by_Dat);
    145          
    146          //UCHAR T75_Overspeed_Flag = 0;
    147          //UCHAR ShowOverspeedStringTime;
    148          

   \                                 In section .text, align 2, keep-with-next
    149          void Program_Data_Update(void)
    150          {
   \                     Program_Data_Update: (+1)
   \   00000000   0xB580             PUSH     {R7,LR}
    151              Speed_Updata_Speed();//Data_Get_Speed
   \   00000002   0x.... 0x....      BL       Speed_Updata_Speed
    152              Incline_Updata_Incline(0);
   \   00000006   0xE8BD 0x4002      POP      {R1,LR}
   \   0000000A   0x2000             MOVS     R0,#+0
   \   0000000C   0x.... 0x....      B.W      Incline_Updata_Incline
    153          }
    154          

   \                                 In section .text, align 2, keep-with-next
    155          UINT8 Prg_isr_TimerCounter(UINT8 by_Who,UINT16 w_Dat)
    156          {
   \                     Prg_isr_TimerCounter: (+1)
   \   00000000   0xB430             PUSH     {R4,R5}
    157              UINT8 b_Out = 0;
    158              if(PrgTimerIsr.Timer_Channel[by_Who] == 1 && PrgTimerIsr.Timer_Delay[by_Who] >= w_Dat)
   \   00000002   0x.... 0x....      LDR.W    R3,??DataTable54
   \   00000006   0x181C             ADDS     R4,R3,R0
   \   00000008   0x2200             MOVS     R2,#+0
   \   0000000A   0xF894 0x5020      LDRB     R5,[R4, #+32]
   \   0000000E   0x2D01             CMP      R5,#+1
   \   00000010   0xD107             BNE.N    ??Prg_isr_TimerCounter_0
   \   00000012   0xF833 0x0010      LDRH     R0,[R3, R0, LSL #+1]
   \   00000016   0x4288             CMP      R0,R1
   \   00000018   0xD303             BCC.N    ??Prg_isr_TimerCounter_0
    159              {
    160                  b_Out=1;
    161                  PrgTimerIsr.Timer_Channel[by_Who] = 0;
   \   0000001A   0x2000             MOVS     R0,#+0
   \   0000001C   0x2201             MOVS     R2,#+1
   \   0000001E   0xF884 0x0020      STRB     R0,[R4, #+32]
    162              }
    163              return b_Out;
   \                     ??Prg_isr_TimerCounter_0: (+1)
   \   00000022   0x4610             MOV      R0,R2
   \   00000024   0xBC30             POP      {R4,R5}
   \   00000026   0x4770             BX       LR               ;; return
    164          }

   \                                 In section .text, align 2, keep-with-next
    165          void Prg_isr_TimerCounterClear(UINT8 by_Index)
    166          {
    167              PrgTimerIsr.Timer_Delay[by_Index]=0;
   \                     Prg_isr_TimerCounterClear: (+1)
   \   00000000   0x.... 0x....      LDR.W    R1,??DataTable54
   \   00000004   0x2200             MOVS     R2,#+0
   \   00000006   0xF821 0x2010      STRH     R2,[R1, R0, LSL #+1]
    168              PrgTimerIsr.Timer_Channel[by_Index]=1;
   \   0000000A   0x4408             ADD      R0,R1,R0
   \   0000000C   0x2201             MOVS     R2,#+1
   \   0000000E   0xF880 0x2020      STRB     R2,[R0, #+32]
    169          }
   \   00000012   0x4770             BX       LR               ;; return

   \                                 In section .text, align 2, keep-with-next
    170          void Prg_isr_TimerColse(UINT8 by_Dat)
    171          {
    172              PrgTimerIsr.Timer_Channel[by_Dat]=0;
   \                     Prg_isr_TimerColse: (+1)
   \   00000000   0x.... 0x....      LDR.W    R2,??DataTable54
   \   00000004   0x4410             ADD      R0,R2,R0
   \   00000006   0x2100             MOVS     R1,#+0
   \   00000008   0xF880 0x1020      STRB     R1,[R0, #+32]
    173          }
   \   0000000C   0x4770             BX       LR               ;; return

   \                                 In section .text, align 2, keep-with-next
    174          void Program_1ms_ISR(void)
    175          {
    176              static UINT16 w_Timer_100ms=0;
    177              if(Program_Get_Status()==PS_WAIT_3S||Program_Get_Status()==PS_RESTART_321)
   \                     Program_1ms_ISR: (+1)
   \   00000000   0x.... 0x....      LDR.W    R0,??DataTable54_1
   \   00000004   0x7B01             LDRB     R1,[R0, #+12]
   \   00000006   0x2903             CMP      R1,#+3
   \   00000008   0xBF18             IT       NE 
   \   0000000A   0x2904             CMPNE    R1,#+4
   \   0000000C   0xD112             BNE.N    ??Program_1ms_ISR_0
    178              {
    179                  if(!Prg321Isr.WaitFlag)
   \   0000000E   0x7AC1             LDRB     R1,[R0, #+11]
   \   00000010   0x07C9             LSLS     R1,R1,#+31
   \   00000012   0xD40F             BMI.N    ??Program_1ms_ISR_0
    180                  {
    181                      if(Prg321Isr.TimerDelay++>850)
   \   00000014   0x8901             LDRH     R1,[R0, #+8]
   \   00000016   0x1C4A             ADDS     R2,R1,#+1
   \   00000018   0x8102             STRH     R2,[R0, #+8]
   \   0000001A   0xF240 0x3253      MOVW     R2,#+851
   \   0000001E   0x4291             CMP      R1,R2
   \   00000020   0xDB08             BLT.N    ??Program_1ms_ISR_0
    182                      {
    183                          Prg321Isr.TimerCount++;
   \   00000022   0x7A81             LDRB     R1,[R0, #+10]
   \   00000024   0x1C49             ADDS     R1,R1,#+1
   \   00000026   0x7281             STRB     R1,[R0, #+10]
    184                          Prg321Isr.TimerDelay=0;
   \   00000028   0x2100             MOVS     R1,#+0
   \   0000002A   0x8101             STRH     R1,[R0, #+8]
    185                          Prg321Isr.WaitFlag=1;
   \   0000002C   0x7AC1             LDRB     R1,[R0, #+11]
   \   0000002E   0xF041 0x0101      ORR      R1,R1,#0x1
   \   00000032   0x72C1             STRB     R1,[R0, #+11]
    186                      }
    187                  }
    188              }  
    189              if(++w_Timer_100ms<100)return;
   \                     ??Program_1ms_ISR_0: (+1)
   \   00000034   0x.... 0x....      LDR.W    R0,??DataTable54_2
   \   00000038   0x8801             LDRH     R1,[R0, #+0]
   \   0000003A   0x1C49             ADDS     R1,R1,#+1
   \   0000003C   0x8001             STRH     R1,[R0, #+0]
   \   0000003E   0xB289             UXTH     R1,R1
   \   00000040   0x2964             CMP      R1,#+100
   \   00000042   0xDB3C             BLT.N    ??Program_1ms_ISR_1
    190              w_Timer_100ms=0;
   \   00000044   0x2100             MOVS     R1,#+0
   \   00000046   0x8001             STRH     R1,[R0, #+0]
    191              for(UINT8 i=0;i<TIMER_CH_NUM;i++)
   \   00000048   0x2200             MOVS     R2,#+0
   \   0000004A   0xF64F 0x70FF      MOVW     R0,#+65535
   \   0000004E   0x.... 0x....      LDR.W    R1,??DataTable55
    192              {
    193                  if(PrgTimerIsr.Timer_Channel[i]==1 && PrgTimerIsr.Timer_Delay[i]<0xffff)
   \                     ??Program_1ms_ISR_2: (+1)
   \   00000052   0x188B             ADDS     R3,R1,R2
   \   00000054   0xF893 0x3020      LDRB     R3,[R3, #+32]
   \   00000058   0x2B01             CMP      R3,#+1
   \   0000005A   0xD106             BNE.N    ??Program_1ms_ISR_3
   \   0000005C   0xF831 0x3012      LDRH     R3,[R1, R2, LSL #+1]
   \   00000060   0x4283             CMP      R3,R0
   \   00000062   0xBF1C             ITT      NE 
   \   00000064   0x1C5B             ADDNE    R3,R3,#+1
   \   00000066   0xF821 0x3012      STRHNE   R3,[R1, R2, LSL #+1]
    194                  {
    195                      PrgTimerIsr.Timer_Delay[i]++;
   \                     ??Program_1ms_ISR_3: (+1)
   \   0000006A   0x1C52             ADDS     R2,R2,#+1
   \   0000006C   0x188B             ADDS     R3,R1,R2
   \   0000006E   0xF893 0x3020      LDRB     R3,[R3, #+32]
   \   00000072   0x2B01             CMP      R3,#+1
   \   00000074   0xD106             BNE.N    ??Program_1ms_ISR_4
   \   00000076   0xF831 0x3012      LDRH     R3,[R1, R2, LSL #+1]
   \   0000007A   0x4283             CMP      R3,R0
   \   0000007C   0xBF1C             ITT      NE 
   \   0000007E   0x1C5B             ADDNE    R3,R3,#+1
   \   00000080   0xF821 0x3012      STRHNE   R3,[R1, R2, LSL #+1]
   \                     ??Program_1ms_ISR_4: (+1)
   \   00000084   0x1C52             ADDS     R2,R2,#+1
   \   00000086   0x188B             ADDS     R3,R1,R2
   \   00000088   0xF893 0x3020      LDRB     R3,[R3, #+32]
   \   0000008C   0x2B01             CMP      R3,#+1
   \   0000008E   0xD106             BNE.N    ??Program_1ms_ISR_5
   \   00000090   0xF831 0x3012      LDRH     R3,[R1, R2, LSL #+1]
   \   00000094   0x4283             CMP      R3,R0
   \   00000096   0xBF1C             ITT      NE 
   \   00000098   0x1C5B             ADDNE    R3,R3,#+1
   \   0000009A   0xF821 0x3012      STRHNE   R3,[R1, R2, LSL #+1]
   \                     ??Program_1ms_ISR_5: (+1)
   \   0000009E   0x1C52             ADDS     R2,R2,#+1
   \   000000A0   0x188B             ADDS     R3,R1,R2
   \   000000A2   0xF893 0x3020      LDRB     R3,[R3, #+32]
   \   000000A6   0x2B01             CMP      R3,#+1
   \   000000A8   0xD106             BNE.N    ??Program_1ms_ISR_6
   \   000000AA   0xF831 0x3012      LDRH     R3,[R1, R2, LSL #+1]
   \   000000AE   0x4283             CMP      R3,R0
   \   000000B0   0xBF1C             ITT      NE 
   \   000000B2   0x1C5B             ADDNE    R3,R3,#+1
   \   000000B4   0xF821 0x3012      STRHNE   R3,[R1, R2, LSL #+1]
    196                  }
    197              }
   \                     ??Program_1ms_ISR_6: (+1)
   \   000000B8   0x1C52             ADDS     R2,R2,#+1
   \   000000BA   0x2A10             CMP      R2,#+16
   \   000000BC   0xDBC9             BLT.N    ??Program_1ms_ISR_2
    198          //    if(ShowOverspeedStringTime<30)
    199          //    {
    200          //        if(T75_Overspeed_Flag)
    201          //        {
    202          //            ShowOverspeedStringTime++;
    203          //        }
    204          //    }
    205          }
   \                     ??Program_1ms_ISR_1: (+1)
   \   000000BE   0x4770             BX       LR               ;; return

   \                                 In section .bss, align 2
   \                     `Program_1ms_ISR::w_Timer_100ms`:
   \   00000000                      DS8 2

   \                                 In section .text, align 2, keep-with-next
    206          void Program_Read_5PointData(void)
    207          {
   \                     Program_Read_5PointData: (+1)
   \   00000000   0xB538             PUSH     {R3-R5,LR}
    208              int by_Dat=0;
    209              unsigned int w_K=0;
    210              unsigned int w_B=0;
    211              char by_Loop=0;
    212              if(PrgActionFlag.ReadPWM)
   \   00000002   0x.... 0x....      LDR.W    R4,??DataTable54_1
   \   00000006   0x8DA0             LDRH     R0,[R4, #+44]
   \   00000008   0xF3C0 0x0140      UBFX     R1,R0,#+1,#+1
   \   0000000C   0x2900             CMP      R1,#+0
   \   0000000E   0xF000 0x80D0      BEQ.W    ??Program_Read_5PointData_0
    213              {
    214                  PrgActionFlag.ReadPWM=0;
   \   00000012   0xF64F 0x71FD      MOVW     R1,#+65533
   \   00000016   0x4008             ANDS     R0,R1,R0
   \   00000018   0x85A0             STRH     R0,[R4, #+44]
    215                  LCB_Get_Induct(InductionOutput_5P);
   \   0000001A   0xF104 0x001C      ADD      R0,R4,#+28
   \   0000001E   0x.... 0x....      BL       LCB_Get_Induct
    216                  if(InductionOutput_5P[0]<InductionOutput_5P[2] && InductionOutput_5P[2]<InductionOutput_5P[4])
   \   00000022   0x8C20             LDRH     R0,[R4, #+32]
   \   00000024   0x8BA1             LDRH     R1,[R4, #+28]
   \   00000026   0x4281             CMP      R1,R0
   \   00000028   0xBF3C             ITT      CC 
   \   0000002A   0x8CA2             LDRHCC   R2,[R4, #+36]
   \   0000002C   0x4290             CMPCC    R0,R2
   \   0000002E   0xF080 0x8088      BCS.W    ??Program_Read_5PointData_1
    217                  {
    218                      InductionOutput_30P[0]=InductionOutput_5P[0];
   \   00000032   0x.... 0x....      LDR.W    R5,??DataTable55_1
   \   00000036   0x8029             STRH     R1,[R5, #+0]
    219                      InductionOutput_30P[14]=InductionOutput_5P[2];
   \   00000038   0x83A8             STRH     R0,[R5, #+28]
    220                      InductionOutput_30P[29]=InductionOutput_5P[4];
   \   0000003A   0x876A             STRH     R2,[R5, #+58]
    221                      if((InductionOutput_30P[5]==0) && (InductionOutput_30P[14]!=0) && (InductionOutput_30P[21]==0))
   \   0000003C   0x8969             LDRH     R1,[R5, #+10]
   \   0000003E   0xBB89             CBNZ.N   R1,??Program_Read_5PointData_2
   \   00000040   0xB380             CBZ.N    R0,??Program_Read_5PointData_2
   \   00000042   0x8D68             LDRH     R0,[R5, #+42]
   \   00000044   0xBB70             CBNZ.N   R0,??Program_Read_5PointData_2
    222                      {
    223                          if(SystemConfig_Get_Char(DRIVE_TYPE_UINT8)==INDUCTOR_BRAKE_INCLINE)
   \   00000046   0x2008             MOVS     R0,#+8
   \   00000048   0x.... 0x....      BL       SystemConfig_Get_Char
   \   0000004C   0x2815             CMP      R0,#+21
   \   0000004E   0x8BA8             LDRH     R0,[R5, #+28]
   \   00000050   0x8829             LDRH     R1,[R5, #+0]
   \   00000052   0xD111             BNE.N    ??Program_Read_5PointData_3
    224                          {
    225                              w_K=(int)((InductionOutput_30P[14]-InductionOutput_30P[0])/(14-0));
    226                              w_B=(int)(InductionOutput_30P[0]-w_K);
    227                              InductionOutput_30P[5] = w_K*6+w_B;
   \   00000054   0x1A42             SUBS     R2,R0,R1
   \   00000056   0x230E             MOVS     R3,#+14
   \   00000058   0xFB92 0xF2F3      SDIV     R2,R2,R3
   \   0000005C   0xEB02 0x0282      ADD      R2,R2,R2, LSL #+2
   \   00000060   0x1851             ADDS     R1,R2,R1
   \   00000062   0x8169             STRH     R1,[R5, #+10]
    228                              
    229                              w_K=(int)((InductionOutput_30P[29]-InductionOutput_30P[14])/(29-14)*10/12);
    230                              w_B=(int)(InductionOutput_30P[14]-w_K);
    231                              InductionOutput_30P[21] = w_K*8+w_B;
   \   00000064   0x220F             MOVS     R2,#+15
   \   00000066   0x8F69             LDRH     R1,[R5, #+58]
   \   00000068   0x1A09             SUBS     R1,R1,R0
   \   0000006A   0xFB91 0xF1F2      SDIV     R1,R1,R2
   \   0000006E   0xEB01 0x0281      ADD      R2,R1,R1, LSL #+2
   \   00000072   0x0051             LSLS     R1,R2,#+1
   \   00000074   0x220C             MOVS     R2,#+12
   \   00000076   0xE00F             B.N      ??Program_Read_5PointData_4
    232                          }
    233                          else
    234                          {
    235                              w_K=(int)((InductionOutput_30P[14]-InductionOutput_30P[0])/(14-0)*13/10);
    236                              w_B=(int)(InductionOutput_30P[0]-w_K);
    237                              InductionOutput_30P[5] = w_K*6+w_B;
   \                     ??Program_Read_5PointData_3: (+1)
   \   00000078   0x1A42             SUBS     R2,R0,R1
   \   0000007A   0x230E             MOVS     R3,#+14
   \   0000007C   0xFB92 0xF2F3      SDIV     R2,R2,R3
   \   00000080   0x230D             MOVS     R3,#+13
   \   00000082   0x435A             MULS     R2,R3,R2
   \   00000084   0x230A             MOVS     R3,#+10
   \   00000086   0xFB92 0xF2F3      SDIV     R2,R2,R3
   \   0000008A   0xEB02 0x0282      ADD      R2,R2,R2, LSL #+2
   \   0000008E   0x1851             ADDS     R1,R2,R1
   \   00000090   0x8169             STRH     R1,[R5, #+10]
    238                              
    239                              w_K=(int)((InductionOutput_30P[29]-InductionOutput_30P[14])/(29-14));
    240                              w_B=(int)(InductionOutput_30P[14]-w_K);
    241                              InductionOutput_30P[21] = w_K*8+w_B;
   \   00000092   0x220F             MOVS     R2,#+15
   \   00000094   0x8F69             LDRH     R1,[R5, #+58]
   \   00000096   0x1A09             SUBS     R1,R1,R0
   \                     ??Program_Read_5PointData_4: (+1)
   \   00000098   0xFB91 0xF1F2      SDIV     R1,R1,R2
   \   0000009C   0xEBC1 0x01C1      RSB      R1,R1,R1, LSL #+3
   \   000000A0   0x1808             ADDS     R0,R1,R0
   \   000000A2   0x8568             STRH     R0,[R5, #+42]
    242                          }
    243                          
    244                      }
    245                      by_Dat=(InductionOutput_30P[5]-InductionOutput_30P[0])/5; 
   \                     ??Program_Read_5PointData_2: (+1)
   \   000000A4   0x8969             LDRH     R1,[R5, #+10]
   \   000000A6   0x8828             LDRH     R0,[R5, #+0]
   \   000000A8   0x1A0A             SUBS     R2,R1,R0
   \   000000AA   0x2305             MOVS     R3,#+5
   \   000000AC   0xFB92 0xF2F3      SDIV     R2,R2,R3
    246                      for(by_Loop=1;by_Loop<5;by_Loop++)
    247                          InductionOutput_30P[by_Loop]=InductionOutput_30P[by_Loop-1]+by_Dat;
   \   000000B0   0x1810             ADDS     R0,R2,R0
   \   000000B2   0x8068             STRH     R0,[R5, #+2]
    248                      
    249                      by_Dat=(InductionOutput_30P[14]-InductionOutput_30P[5])/9; 
   \   000000B4   0x2309             MOVS     R3,#+9
   \   000000B6   0x1810             ADDS     R0,R2,R0
   \   000000B8   0x80A8             STRH     R0,[R5, #+4]
   \   000000BA   0x1810             ADDS     R0,R2,R0
   \   000000BC   0x80E8             STRH     R0,[R5, #+6]
   \   000000BE   0x1810             ADDS     R0,R2,R0
   \   000000C0   0x8128             STRH     R0,[R5, #+8]
   \   000000C2   0x8BA8             LDRH     R0,[R5, #+28]
   \   000000C4   0x1A42             SUBS     R2,R0,R1
   \   000000C6   0xFB92 0xF2F3      SDIV     R2,R2,R3
    250                      for(by_Loop=6;by_Loop<14;by_Loop++)
    251                          InductionOutput_30P[by_Loop]=InductionOutput_30P[by_Loop-1]+by_Dat;
   \   000000CA   0x1851             ADDS     R1,R2,R1
   \   000000CC   0x81A9             STRH     R1,[R5, #+12]
    252                      
    253                      by_Dat=(InductionOutput_30P[21]-InductionOutput_30P[14])/7; 
   \   000000CE   0x2307             MOVS     R3,#+7
   \   000000D0   0x1851             ADDS     R1,R2,R1
   \   000000D2   0x81E9             STRH     R1,[R5, #+14]
   \   000000D4   0x1851             ADDS     R1,R2,R1
   \   000000D6   0x8229             STRH     R1,[R5, #+16]
   \   000000D8   0x1851             ADDS     R1,R2,R1
   \   000000DA   0x8269             STRH     R1,[R5, #+18]
   \   000000DC   0x1851             ADDS     R1,R2,R1
   \   000000DE   0x82A9             STRH     R1,[R5, #+20]
   \   000000E0   0x1851             ADDS     R1,R2,R1
   \   000000E2   0x82E9             STRH     R1,[R5, #+22]
   \   000000E4   0x1851             ADDS     R1,R2,R1
   \   000000E6   0x8329             STRH     R1,[R5, #+24]
   \   000000E8   0x1851             ADDS     R1,R2,R1
   \   000000EA   0x8369             STRH     R1,[R5, #+26]
   \   000000EC   0x8D69             LDRH     R1,[R5, #+42]
   \   000000EE   0x1A0A             SUBS     R2,R1,R0
   \   000000F0   0xFB92 0xF2F3      SDIV     R2,R2,R3
    254                      for(by_Loop=15;by_Loop<21;by_Loop++)
    255                          InductionOutput_30P[by_Loop]=InductionOutput_30P[by_Loop-1]+by_Dat;
   \   000000F4   0x1810             ADDS     R0,R2,R0
   \   000000F6   0x83E8             STRH     R0,[R5, #+30]
   \   000000F8   0x1810             ADDS     R0,R2,R0
   \   000000FA   0x8428             STRH     R0,[R5, #+32]
   \   000000FC   0x1810             ADDS     R0,R2,R0
   \   000000FE   0x8468             STRH     R0,[R5, #+34]
   \   00000100   0x1810             ADDS     R0,R2,R0
   \   00000102   0x84A8             STRH     R0,[R5, #+36]
   \   00000104   0x1810             ADDS     R0,R2,R0
   \   00000106   0x84E8             STRH     R0,[R5, #+38]
   \   00000108   0x1810             ADDS     R0,R2,R0
   \   0000010A   0x8528             STRH     R0,[R5, #+40]
    256                      
    257                      by_Dat=(InductionOutput_30P[29]-InductionOutput_30P[21])/8; 
   \   0000010C   0x8F68             LDRH     R0,[R5, #+58]
   \   0000010E   0x1A40             SUBS     R0,R0,R1
   \   00000110   0x1082             ASRS     R2,R0,#+2
   \   00000112   0xEB00 0x7052      ADD      R0,R0,R2, LSR #+29
    258                      for(by_Loop=22;by_Loop<29;by_Loop++)
    259                          InductionOutput_30P[by_Loop]=InductionOutput_30P[by_Loop-1]+by_Dat;     
   \   00000116   0xEB01 0x01E0      ADD      R1,R1,R0, ASR #+3
   \   0000011A   0x85A9             STRH     R1,[R5, #+44]
   \   0000011C   0xEB01 0x01E0      ADD      R1,R1,R0, ASR #+3
   \   00000120   0x85E9             STRH     R1,[R5, #+46]
   \   00000122   0xEB01 0x01E0      ADD      R1,R1,R0, ASR #+3
   \   00000126   0x8629             STRH     R1,[R5, #+48]
   \   00000128   0xEB01 0x01E0      ADD      R1,R1,R0, ASR #+3
   \   0000012C   0x8669             STRH     R1,[R5, #+50]
   \   0000012E   0xEB01 0x01E0      ADD      R1,R1,R0, ASR #+3
   \   00000132   0x86A9             STRH     R1,[R5, #+52]
   \   00000134   0xEB01 0x01E0      ADD      R1,R1,R0, ASR #+3
   \   00000138   0xEB01 0x00E0      ADD      R0,R1,R0, ASR #+3
   \   0000013C   0x86E9             STRH     R1,[R5, #+54]
   \   0000013E   0x8728             STRH     R0,[R5, #+56]
   \   00000140   0xE015             B.N      ??Program_Read_5PointData_5
    260                  }
    261                  else
    262                  {
    263                      for(char i=0;i<30;i++)
   \                     ??Program_Read_5PointData_1: (+1)
   \   00000142   0x2000             MOVS     R0,#+0
   \   00000144   0x.... 0x....      LDR.W    R5,??DataTable55_1
    264                          InductionOutput_30P[i]=Watts_ParameterData->PWM_ECBCount_Table[i];
   \                     ??Program_Read_5PointData_6: (+1)
   \   00000148   0x6B61             LDR      R1,[R4, #+52]
   \   0000014A   0x6889             LDR      R1,[R1, #+8]
   \   0000014C   0xF831 0x2010      LDRH     R2,[R1, R0, LSL #+1]
   \   00000150   0xF825 0x2010      STRH     R2,[R5, R0, LSL #+1]
   \   00000154   0x1C40             ADDS     R0,R0,#+1
   \   00000156   0xF831 0x2010      LDRH     R2,[R1, R0, LSL #+1]
   \   0000015A   0xF825 0x2010      STRH     R2,[R5, R0, LSL #+1]
   \   0000015E   0x1C40             ADDS     R0,R0,#+1
   \   00000160   0xF831 0x1010      LDRH     R1,[R1, R0, LSL #+1]
   \   00000164   0xF825 0x1010      STRH     R1,[R5, R0, LSL #+1]
   \   00000168   0x1C40             ADDS     R0,R0,#+1
   \   0000016A   0x281E             CMP      R0,#+30
   \   0000016C   0xDBEC             BLT.N    ??Program_Read_5PointData_6
    265                  }
    266                  if(SystemConfig_Get_Char(DRIVE_TYPE_UINT8)==BIKE_0C_JIS)
   \                     ??Program_Read_5PointData_5: (+1)
   \   0000016E   0x2008             MOVS     R0,#+8
   \   00000170   0x.... 0x....      BL       SystemConfig_Get_Char
   \   00000174   0x280C             CMP      R0,#+12
   \   00000176   0xD11C             BNE.N    ??Program_Read_5PointData_0
    267                  {
    268                      for(char i=0;i<30;i++)
   \   00000178   0x2100             MOVS     R1,#+0
   \   0000017A   0x.... 0x....      ADR.W    R0,aby_pwm_Offset
    269                          InductionOutput_30P[i] +=aby_pwm_Offset[i];
   \                     ??Program_Read_5PointData_7: (+1)
   \   0000017E   0xF835 0x2011      LDRH     R2,[R5, R1, LSL #+1]
   \   00000182   0xF850 0x3021      LDR      R3,[R0, R1, LSL #+2]
   \   00000186   0x189A             ADDS     R2,R3,R2
   \   00000188   0xF825 0x2011      STRH     R2,[R5, R1, LSL #+1]
   \   0000018C   0x1C49             ADDS     R1,R1,#+1
   \   0000018E   0xF835 0x2011      LDRH     R2,[R5, R1, LSL #+1]
   \   00000192   0xF850 0x3021      LDR      R3,[R0, R1, LSL #+2]
   \   00000196   0x189A             ADDS     R2,R3,R2
   \   00000198   0xF825 0x2011      STRH     R2,[R5, R1, LSL #+1]
   \   0000019C   0x1C49             ADDS     R1,R1,#+1
   \   0000019E   0xF835 0x2011      LDRH     R2,[R5, R1, LSL #+1]
   \   000001A2   0xF850 0x3021      LDR      R3,[R0, R1, LSL #+2]
   \   000001A6   0x189A             ADDS     R2,R3,R2
   \   000001A8   0xF825 0x2011      STRH     R2,[R5, R1, LSL #+1]
   \   000001AC   0x1C49             ADDS     R1,R1,#+1
   \   000001AE   0x291E             CMP      R1,#+30
   \   000001B0   0xDBE5             BLT.N    ??Program_Read_5PointData_7
    270                  }
    271              }
    272              if(ProgramArray[proCurrentIndex]->Programid != PS_CONSTANT_WATTS)
   \                     ??Program_Read_5PointData_0: (+1)
   \   000001B2   0x.... 0x....      LDR.W    R0,??DataTable55_2
   \   000001B6   0x7BA1             LDRB     R1,[R4, #+14]
   \   000001B8   0xF850 0x0021      LDR      R0,[R0, R1, LSL #+2]
   \   000001BC   0x7800             LDRB     R0,[R0, #+0]
   \   000001BE   0x2822             CMP      R0,#+34
   \   000001C0   0xD01A             BEQ.N    ??Program_Read_5PointData_8
    273              {
    274          		if(Data_Get_Resistance(TARGET_RESISTANCE)<SystemConfig_Get_Char(MIN_RESISTANCE_UINT8))
   \   000001C2   0x2006             MOVS     R0,#+6
   \   000001C4   0x.... 0x....      BL       Data_Get_Resistance
   \   000001C8   0x4604             MOV      R4,R0
   \   000001CA   0x2010             MOVS     R0,#+16
   \   000001CC   0x.... 0x....      BL       SystemConfig_Get_Char
   \   000001D0   0x.... 0x....      LDR.W    R5,??DataTable55_1
   \   000001D4   0x4284             CMP      R4,R0
   \   000001D6   0xBF38             IT       CC 
   \   000001D8   0x8828             LDRHCC   R0,[R5, #+0]
    275          		{
    276          			Data_Set_TargetPWMValue(InductionOutput_30P[0]);
   \   000001DA   0xD309             BCC.N    ??Program_Read_5PointData_9
    277          		}
    278          		else
    279          		{
    280          			Data_Set_TargetPWMValue(InductionOutput_30P[Data_Get_Resistance(TARGET_RESISTANCE)-SystemConfig_Get_Char(MIN_RESISTANCE_UINT8)]);
   \   000001DC   0x2006             MOVS     R0,#+6
   \   000001DE   0x.... 0x....      BL       Data_Get_Resistance
   \   000001E2   0x4604             MOV      R4,R0
   \   000001E4   0x2010             MOVS     R0,#+16
   \   000001E6   0x.... 0x....      BL       SystemConfig_Get_Char
   \   000001EA   0x1A20             SUBS     R0,R4,R0
   \   000001EC   0xF835 0x0010      LDRH     R0,[R5, R0, LSL #+1]
   \                     ??Program_Read_5PointData_9: (+1)
   \   000001F0   0xE8BD 0x4032      POP      {R1,R4,R5,LR}
   \   000001F4   0x.... 0x....      B.W      Data_Set_TargetPWMValue
    281          		}
    282              }
    283          }
   \                     ??Program_Read_5PointData_8: (+1)
   \   000001F8   0xBD31             POP      {R0,R4,R5,PC}    ;; return
    284          
    285          

   \                                 In section .text, align 2, keep-with-next
    286          void Program_Initial_FFD2(void)
    287          {
   \                     Program_Initial_FFD2: (+1)
   \   00000000   0xB580             PUSH     {R7,LR}
    288            Data_Set_targetDistancex1000(0);
   \   00000002   0x2000             MOVS     R0,#+0
   \   00000004   0x.... 0x....      BL       Data_Set_targetDistancex1000
    289            Data_Set_Time(0);
   \   00000008   0x2000             MOVS     R0,#+0
   \   0000000A   0x.... 0x....      BL       Data_Set_Time
    290            Data_Set_Calories(0);
                   ^
Warning[Pe223]: function "Data_Set_Calories" declared implicitly
   \   0000000E   0x2000             MOVS     R0,#+0
   \   00000010   0x.... 0x....      BL       Data_Set_Calories
    291            Data_Set_Step(0);
                   ^
Warning[Pe223]: function "Data_Set_Step" declared implicitly
   \   00000014   0x2000             MOVS     R0,#+0
   \   00000016   0x.... 0x....      BL       Data_Set_Step
    292            Data_Set_TargetHeart (0);
   \   0000001A   0x2000             MOVS     R0,#+0
   \   0000001C   0x.... 0x....      BL       Data_Set_TargetHeart
    293            Data_Set_Speed(8, METRIC, 1);  
   \   00000020   0x2201             MOVS     R2,#+1
   \   00000022   0x2101             MOVS     R1,#+1
   \   00000024   0x2008             MOVS     R0,#+8
   \   00000026   0x.... 0x....      BL       Data_Set_Speed
    294             Data_Set_Incline(0,1);
   \   0000002A   0x2101             MOVS     R1,#+1
   \   0000002C   0x2000             MOVS     R0,#+0
   \   0000002E   0x.... 0x....      BL       Data_Set_Incline
    295            ProgramidArrayIndex=0;
   \   00000032   0x....             LDR.N    R1,??DataTable54_1
   \   00000034   0x2000             MOVS     R0,#+0
   \   00000036   0x73C8             STRB     R0,[R1, #+15]
    296          }
   \   00000038   0xBD01             POP      {R0,PC}          ;; return
    297          
    298          

   \                                 In section .text, align 2, keep-with-next
    299          void Program_Initial_Inner_Data(void)
    300          {
   \                     Program_Initial_Inner_Data: (+1)
   \   00000000   0xB510             PUSH     {R4,LR}
    301              Data_Process_Intilal_Data();
   \   00000002   0x.... 0x....      BL       Data_Process_Intilal_Data
    302              memset(&Prg_ProfileData.SpeedProfile,Data_Get_Speed(TARGET_SPEEDX10_AUTO),sizeof(Prg_ProfileData.SpeedProfile));
   \   00000006   0x2005             MOVS     R0,#+5
   \   00000008   0x.... 0x....      BL       Data_Get_Speed
   \   0000000C   0x....             LDR.N    R4,??DataTable54_1
   \   0000000E   0x4602             MOV      R2,R0
   \   00000010   0x211E             MOVS     R1,#+30
   \   00000012   0xF104 0x0038      ADD      R0,R4,#+56
   \   00000016   0x.... 0x....      BL       __aeabi_memset4
    303              memset(&Prg_ProfileData.InclineProfile,0,sizeof(Prg_ProfileData.InclineProfile));
   \   0000001A   0x211E             MOVS     R1,#+30
   \   0000001C   0xF104 0x0056      ADD      R0,R4,#+86
   \   00000020   0x.... 0x....      BL       __aeabi_memclr
    304              memset(&Prg_ProfileData.ResistanceProfile,Data_Get_Resistance(MIN_RESISTANCE),sizeof(Prg_ProfileData.ResistanceProfile));
   \   00000024   0x200A             MOVS     R0,#+10
   \   00000026   0x.... 0x....      BL       Data_Get_Resistance
   \   0000002A   0x4602             MOV      R2,R0
   \   0000002C   0x211E             MOVS     R1,#+30
   \   0000002E   0xF104 0x0074      ADD      R0,R4,#+116
   \   00000032   0x.... 0x....      BL       __aeabi_memset4
    305              memset(&ProgramArray,0,sizeof(struProgram));
   \   00000036   0x2130             MOVS     R1,#+48
   \   00000038   0x.... 0x....      LDR.W    R0,??DataTable55_2
   \   0000003C   0x.... 0x....      BL       __aeabi_memclr4
    306              memset(&NumberKey_Data,0,sizeof(NumberKeyData));
   \   00000040   0x2000             MOVS     R0,#+0
   \   00000042   0xE9C4 0x0000      STRD     R0,R0,[R4, #+0]
    307              memset(&PrgTimerIsr,0,sizeof(PrgTimer_Isr));
   \   00000046   0x2130             MOVS     R1,#+48
   \   00000048   0x....             LDR.N    R0,??DataTable54
   \   0000004A   0x.... 0x....      BL       __aeabi_memclr4
    308              memset(&PrgActionFlag,0,sizeof(PrgAction_Flag));
   \   0000004E   0x2102             MOVS     R1,#+2
   \   00000050   0xF104 0x002C      ADD      R0,R4,#+44
   \   00000054   0x.... 0x....      BL       __aeabi_memclr4
    309              memset(&Prg321Isr,0,sizeof(Prg321_Isr));
   \   00000058   0xF104 0x0008      ADD      R0,R4,#+8
   \   0000005C   0x2100             MOVS     R1,#+0
   \   0000005E   0x6001             STR      R1,[R0, #+0]
    310              memset(&PrgSpecialFunctionData,0,sizeof(Prg_SpecialFunctionData));
   \   00000060   0xF104 0x0018      ADD      R0,R4,#+24
   \   00000064   0x2101             MOVS     R1,#+1
   \   00000066   0x.... 0x....      BL       __aeabi_memclr4
    311              memset(&InductionOutput_30P,0,sizeof(InductionOutput_30P));
   \   0000006A   0x213C             MOVS     R1,#+60
   \   0000006C   0x.... 0x....      LDR.W    R0,??DataTable55_1
   \   00000070   0x.... 0x....      BL       __aeabi_memclr4
    312          	
    313              PrgActionFlag.ReadPWM=1;
   \   00000074   0x8DA0             LDRH     R0,[R4, #+44]
   \   00000076   0xF040 0x0002      ORR      R0,R0,#0x2
   \   0000007A   0x85A0             STRH     R0,[R4, #+44]
    314              Prg321Isr.WaitFlag=1;
   \   0000007C   0x7AE0             LDRB     R0,[R4, #+11]
   \   0000007E   0xF040 0x0001      ORR      R0,R0,#0x1
   \   00000082   0x72E0             STRB     R0,[R4, #+11]
    315              PrgSpecialFunctionData.LessOneMileCounter=0;
   \   00000084   0x2000             MOVS     R0,#+0
   \   00000086   0x7620             STRB     R0,[R4, #+24]
    316              proCurrentIndex = 0;
   \   00000088   0x73A0             STRB     R0,[R4, #+14]
    317              Profile_Pos=0;
   \   0000008A   0x74E0             STRB     R0,[R4, #+19]
    318              Target_distance=TARGET_1KM;
   \   0000008C   0x2001             MOVS     R0,#+1
   \   0000008E   0x7460             STRB     R0,[R4, #+17]
    319              Target_steps=5000;
   \   00000090   0xF241 0x3088      MOVW     R0,#+5000
   \   00000094   0x8520             STRH     R0,[R4, #+40]
    320              Target_calorie=TARGET_300;
   \   00000096   0x2001             MOVS     R0,#+1
   \   00000098   0x74A0             STRB     R0,[R4, #+18]
    321              ProgramidArrayIndex=0;
   \   0000009A   0x2000             MOVS     R0,#+0
   \   0000009C   0x73E0             STRB     R0,[R4, #+15]
    322          	ProgramSubidArrayIndex=0;
   \   0000009E   0x7420             STRB     R0,[R4, #+16]
    323              if(SystemConfig_Get_Char(MACHINE_TYPE_UINT8)==TREADMILL)
   \   000000A0   0x2003             MOVS     R0,#+3
   \   000000A2   0x.... 0x....      BL       SystemConfig_Get_Char
   \   000000A6   0x2800             CMP      R0,#+0
   \   000000A8   0xBF0C             ITE      EQ 
   \   000000AA   0x2001             MOVEQ    R0,#+1
   \   000000AC   0x2003             MOVNE    R0,#+3
    324                  ProfileIndex=DefaultDotmatrix=PROFILE_TYPE_SPEED;
    325              else
    326                  ProfileIndex=DefaultDotmatrix=PROFILE_TYPE_RESISTANCE;
   \   000000AE   0x75A0             STRB     R0,[R4, #+22]
   \   000000B0   0x75E0             STRB     R0,[R4, #+23]
    327              SpeedDataBackup=Data_Get_Speed(TARGET_SPEEDX1000);
   \   000000B2   0x2008             MOVS     R0,#+8
   \   000000B4   0x.... 0x....      BL       Data_Get_Speed
   \   000000B8   0x8560             STRH     R0,[R4, #+42]
    328              InclineDataBackup=Data_Get_Incline(TARGET_INCLINEX10);
   \   000000BA   0x2008             MOVS     R0,#+8
   \   000000BC   0x.... 0x....      BL       Data_Get_Incline
   \   000000C0   0x7560             STRB     R0,[R4, #+21]
    329              ResistanceDataBackup=Data_Get_Resistance(TARGET_RESISTANCE);
   \   000000C2   0x2006             MOVS     R0,#+6
   \   000000C4   0x.... 0x....      BL       Data_Get_Resistance
   \   000000C8   0x7520             STRB     R0,[R4, #+20]
    330              
    331          #ifdef __PROGRAM_MANUAL__
    332              initManual();
   \   000000CA   0x.... 0x....      BL       initManual
    333          #endif
    334          #ifdef __PROGRAM_GOAL__
    335              initGoal();
                     ^
Warning[Pe223]: function "initGoal" declared implicitly
   \   000000CE   0x.... 0x....      BL       initGoal
    336          #endif    
    337          //#ifdef __PROGRAM_DISTANCE__
    338          //    initDistance();
    339          //#endif    
    340          //#ifdef __PROGRAM_CALORIES__
    341          //    initCalories();
    342          //#endif
    343          #ifdef __PROGRAM_HRC__
    344              initHrc();
   \   000000D2   0x.... 0x....      BL       initHrc
    345          #endif
    346          #ifdef __PROGRAM_TABLE__
    347              initTable();
   \   000000D6   0x.... 0x....      BL       initTable
    348          #endif
    349          #ifdef __PROGRAM_CONSTANT__
    350              initConstantWatts();
    351          #endif
    352          #ifdef __PROGRAM_SPRINT8__
    353              initSprint8();
    354          #endif
    355          #ifdef __PROGRAM_MYFIRST_5K__
    356              initMyFirst5k();
   \   000000DA   0x.... 0x....      BL       initMyFirst5k
    357          #endif
    358          #ifdef __PROGRAM_CUSTOM__
    359              initCustom();
   \   000000DE   0x.... 0x....      BL       initCustom
    360          #endif
    361              Prg_StateMachine=Prg_StateMachineBackup=PS_IDLE;
   \   000000E2   0x2000             MOVS     R0,#+0
    362              
    363              extern UINT8 appStart;    //zsf
    364              appStart = 0;    //zsf
   \   000000E4   0x.... 0x....      LDR.W    R1,??DataTable57
   \   000000E8   0x81A0             STRH     R0,[R4, #+12]
   \   000000EA   0x7008             STRB     R0,[R1, #+0]
    365          }
   \   000000EC   0xBD10             POP      {R4,PC}          ;; return

   \                                 In section .text, align 2, keep-with-next
    366          void Program_NextStatus(PROGRAM_STATUS status)
    367          {
    368          	Prg_StateMachine = status;
   \                     Program_NextStatus: (+1)
   \   00000000   0x....             B.N      ?Subroutine0
    369          }

   \                                 In section .text, align 2, keep-with-next
   \                     ?Subroutine0: (+1)
   \   00000000   0x.... 0x....      LDR.W    R1,??DataTable64
   \   00000004   0x7308             STRB     R0,[R1, #+12]
   \   00000006   0x4770             BX       LR               ;; return

   \                                 In section .text, align 2, keep-with-next
    370          void Program_Register_Function(struProgram *pro)
    371          {
    372              if(pro->Programid<PS_TOTALS)
   \                     Program_Register_Function: (+1)
   \   00000000   0x7801             LDRB     R1,[R0, #+0]
   \   00000002   0x2927             CMP      R1,#+39
   \   00000004   0xDA0A             BGE.N    ??Program_Register_Function_0
    373              {
    374              	pro->Prg_NextStatus = Program_NextStatus;
   \   00000006   0x.... 0x....      LDR.W    R1,??DataTable56
   \   0000000A   0x6201             STR      R1,[R0, #+32]
    375              	pro->Prg_CurrentStatus = Program_Get_Status;
   \   0000000C   0x.... 0x....      ADR.W    R1,Program_Get_Status
   \   00000010   0x6241             STR      R1,[R0, #+36]
    376                  ProgramArray[pro->Programid] = pro;
   \   00000012   0x7802             LDRB     R2,[R0, #+0]
   \   00000014   0x.... 0x....      LDR.W    R1,??DataTable55_2
   \   00000018   0xF841 0x0022      STR      R0,[R1, R2, LSL #+2]
    377              }
    378          }
   \                     ??Program_Register_Function_0: (+1)
   \   0000001C   0x4770             BX       LR               ;; return
    379          

   \                                 In section .text, align 2, keep-with-next
    380          void Program_Add_Program(void)
    381          {
   \                     Program_Add_Program: (+1)
   \   00000000   0xB510             PUSH     {R4,LR}
    382          	if(ProgramidArrayIndex < ProgramLibConfigPara->ProgramTotalNum-1)
   \   00000002   0x....             LDR.N    R4,??DataTable54_1
   \   00000004   0x6B20             LDR      R0,[R4, #+48]
   \   00000006   0x7902             LDRB     R2,[R0, #+4]
   \   00000008   0x7BE1             LDRB     R1,[R4, #+15]
   \   0000000A   0x1E52             SUBS     R2,R2,#+1
   \   0000000C   0x4291             CMP      R1,R2
   \   0000000E   0xBFB4             ITE      LT 
   \   00000010   0x1C49             ADDLT    R1,R1,#+1
   \   00000012   0x2100             MOVGE    R1,#+0
    383                  ProgramidArrayIndex++;
    384              else
    385                  ProgramidArrayIndex=0;
   \   00000014   0x....             B.N      ?Subroutine1
    386              
    387          	proCurrentIndex=ProgramLibConfigPara->Pro_Config[ProgramidArrayIndex].ProgramFirstID;
    388          	ProgramArray[proCurrentIndex]->Prg_Initial();  
    389              
    390          	ProfileIndex=DefaultDotmatrix;
    391          	ProgramSubidArrayIndex=0;
    392          }

   \                                 In section .text, align 2, keep-with-next
   \                     ?Subroutine1: (+1)
   \   00000000   0x73E1             STRB     R1,[R4, #+15]
   \   00000002   0x7BE1             LDRB     R1,[R4, #+15]
   \   00000004   0x6800             LDR      R0,[R0, #+0]
   \   00000006   0x0109             LSLS     R1,R1,#+4
   \   00000008   0x5C40             LDRB     R0,[R0, R1]
   \   0000000A   0x.... 0x....      LDR.W    R1,??DataTable55_2
   \   0000000E   0x73A0             STRB     R0,[R4, #+14]
   \   00000010   0xF851 0x0020      LDR      R0,[R1, R0, LSL #+2]
   \   00000014   0x68C0             LDR      R0,[R0, #+12]
   \   00000016   0x4780             BLX      R0
   \   00000018   0x7DA0             LDRB     R0,[R4, #+22]
   \   0000001A   0x75E0             STRB     R0,[R4, #+23]
   \   0000001C   0x2000             MOVS     R0,#+0
   \   0000001E   0x7420             STRB     R0,[R4, #+16]
   \   00000020   0xBD10             POP      {R4,PC}          ;; return

   \                                 In section .text, align 2, keep-with-next
    393          void Program_Dec_Program(void)
    394          {
   \                     Program_Dec_Program: (+1)
   \   00000000   0xB510             PUSH     {R4,LR}
    395          	if(ProgramidArrayIndex > 0)
   \   00000002   0x....             LDR.N    R4,??DataTable54_1
   \   00000004   0x7BE1             LDRB     R1,[R4, #+15]
   \   00000006   0x6B20             LDR      R0,[R4, #+48]
   \   00000008   0x000A             MOVS     R2,R1
   \   0000000A   0xBF08             IT       EQ 
   \   0000000C   0x7901             LDRBEQ   R1,[R0, #+4]
    396          		ProgramidArrayIndex--;
    397              else
    398                  ProgramidArrayIndex=ProgramLibConfigPara->ProgramTotalNum-1;
   \   0000000E   0x1E49             SUBS     R1,R1,#+1
   \   00000010                      REQUIRE ?Subroutine1
   \   00000010                      ;; // Fall through to label ?Subroutine1
    399          	proCurrentIndex=ProgramLibConfigPara->Pro_Config[ProgramidArrayIndex].ProgramFirstID;
    400          	ProgramArray[proCurrentIndex]->Prg_Initial();  
    401          	ProfileIndex=DefaultDotmatrix;
    402          	ProgramSubidArrayIndex=0;
    403          	
    404          }

   \                                 In section .text, align 2, keep-with-next
    405          void Program_Add_SubProgram(void)
    406          {
   \                     Program_Add_SubProgram: (+1)
   \   00000000   0xB510             PUSH     {R4,LR}
    407          	if(ProgramSubidArrayIndex!=(ProgramLibConfigPara->Pro_Config[ProgramidArrayIndex].ProgramSubidNum-1))
   \   00000002   0x....             LDR.N    R4,??DataTable54_1
   \   00000004   0x6B20             LDR      R0,[R4, #+48]
   \   00000006   0x7BE1             LDRB     R1,[R4, #+15]
   \   00000008   0x6800             LDR      R0,[R0, #+0]
   \   0000000A   0xEB00 0x1001      ADD      R0,R0,R1, LSL #+4
   \   0000000E   0x7A02             LDRB     R2,[R0, #+8]
   \   00000010   0x7C21             LDRB     R1,[R4, #+16]
   \   00000012   0x1E52             SUBS     R2,R2,#+1
   \   00000014   0x4291             CMP      R1,R2
   \   00000016   0xBF14             ITE      NE 
   \   00000018   0x1C49             ADDNE    R1,R1,#+1
   \   0000001A   0x2100             MOVEQ    R1,#+0
    408                  {
    409                  ProgramSubidArrayIndex++;
    410                  }
    411              else
    412                  ProgramSubidArrayIndex=0;
   \   0000001C   0x....             B.N      ?Subroutine2
    413              
    414          	proCurrentIndex=ProgramLibConfigPara->Pro_Config[ProgramidArrayIndex].ProgramSubID[ProgramSubidArrayIndex];
    415          	ProgramArray[proCurrentIndex]->Prg_Initial();  
    416              
    417          	ProfileIndex=DefaultDotmatrix;
    418          	
    419          }

   \                                 In section .text, align 2, keep-with-next
   \                     ?Subroutine2: (+1)
   \   00000000   0x7421             STRB     R1,[R4, #+16]
   \   00000002   0x6840             LDR      R0,[R0, #+4]
   \   00000004   0x7C21             LDRB     R1,[R4, #+16]
   \   00000006   0x5C40             LDRB     R0,[R0, R1]
   \   00000008   0x.... 0x....      LDR.W    R1,??DataTable55_2
   \   0000000C   0x73A0             STRB     R0,[R4, #+14]
   \   0000000E   0xF851 0x0020      LDR      R0,[R1, R0, LSL #+2]
   \   00000012   0x68C0             LDR      R0,[R0, #+12]
   \   00000014   0x4780             BLX      R0
   \   00000016   0x7DA0             LDRB     R0,[R4, #+22]
   \   00000018   0x75E0             STRB     R0,[R4, #+23]
   \   0000001A   0xBD10             POP      {R4,PC}          ;; return

   \                                 In section .text, align 2, keep-with-next
    420          void Program_Dec_SubProgram(void)
    421          {
   \                     Program_Dec_SubProgram: (+1)
   \   00000000   0xB510             PUSH     {R4,LR}
    422          	if(ProgramSubidArrayIndex!=0)
   \   00000002   0x....             LDR.N    R4,??DataTable54_1
   \   00000004   0x6B20             LDR      R0,[R4, #+48]
   \   00000006   0x7BE1             LDRB     R1,[R4, #+15]
   \   00000008   0x6800             LDR      R0,[R0, #+0]
   \   0000000A   0xEB00 0x1001      ADD      R0,R0,R1, LSL #+4
   \   0000000E   0x7C21             LDRB     R1,[R4, #+16]
   \   00000010   0x000A             MOVS     R2,R1
   \   00000012   0xBF08             IT       EQ 
   \   00000014   0x7A01             LDRBEQ   R1,[R0, #+8]
    423          		ProgramSubidArrayIndex--;
    424              else
    425                  ProgramSubidArrayIndex=ProgramLibConfigPara->Pro_Config[ProgramidArrayIndex].ProgramSubidNum-1;
   \   00000016   0x1E49             SUBS     R1,R1,#+1
   \   00000018                      REQUIRE ?Subroutine2
   \   00000018                      ;; // Fall through to label ?Subroutine2
    426          	proCurrentIndex=ProgramLibConfigPara->Pro_Config[ProgramidArrayIndex].ProgramSubID[ProgramSubidArrayIndex];
    427          	ProgramArray[proCurrentIndex]->Prg_Initial();  
    428          	ProfileIndex=DefaultDotmatrix;
    429          	
    430          }

   \                                 In section .text, align 2, keep-with-next
    431          void Program_Set_RPM(UINT8 by_Dat)
    432          {
    433              Data_Set_AutoRPM(by_Dat);
   \                     Program_Set_RPM: (+1)
   \   00000000   0x.... 0x....      B.W      Data_Set_AutoRPM
    434          }
    435          /***************************************************************************//**
    436          * @brief
    437          *注册中断服务  
    438          * @param[in]:none
    439          * @param[out]:none
    440          ******************************************************************************/
    441          

   \                                 In section .text, align 2, keep-with-next
    442          void Register_Program_ISR(void)
    443          {
   \                     Register_Program_ISR: (+1)
   \   00000000   0xB580             PUSH     {R7,LR}
    444              Hal_Regist_ISR(MS_ISR,DATA_ISR_IDX,Data_1ms_ISR);
   \   00000002   0x.... 0x....      LDR.W    R2,??DataTable59
   \   00000006   0x2113             MOVS     R1,#+19
   \   00000008   0x2000             MOVS     R0,#+0
   \   0000000A   0x.... 0x....      BL       Hal_Regist_ISR
    445              Hal_Regist_ISR(MS_ISR,PRG_ISR_IDX,Program_1ms_ISR);
   \   0000000E   0xE8BD 0x4008      POP      {R3,LR}
   \   00000012   0x.... 0x....      LDR.W    R2,??DataTable60
   \   00000016   0x2118             MOVS     R1,#+24
   \   00000018   0x2000             MOVS     R0,#+0
   \   0000001A   0x.... 0x....      B.W      Hal_Regist_ISR
    446          }
    447          
    448          /***************************************************************************//**
    449          * @brief
    450          *  初始化程式
    451          * @param[in]
    452          *   array[]指向初始化结构体；
    453          *   size是TABLE表个数
    454          *  DotMatrix_length:点阵列数
    455          * @param[out]：none
    456          ******************************************************************************/

   \                                 In section .text, align 2, keep-with-next
    457          void Program_Initial_Data(ProgramLibPara *ProgramLib)
    458          {
    459              ProgramLibConfigPara=ProgramLib;
   \                     Program_Initial_Data: (+1)
   \   00000000   0x....             LDR.N    R1,??DataTable54_1
   \   00000002   0x6308             STR      R0,[R1, #+48]
    460              Program_Initial_Inner_Data();
   \   00000004   0x....             B.N      Program_Initial_Inner_Data
    461          }
    462          
    463          
    464          
    465          /***************************************************************************//**
    466          * @brief
    467          *  初始化EP或BIKE的瓦特表，仅用于EP或BIKE
    468          * @param[in]
    469          *   Watts_Para：初始化瓦特表结构体；
    470          * @param[out]：none
    471          ******************************************************************************/

   \                                 In section .text, align 2, keep-with-next
    472          void Program_Load_WattsTable(const WattsParameterStruct *Watts_Para)
    473          {
    474              Watts_ParameterData=Watts_Para;
   \                     Program_Load_WattsTable: (+1)
   \   00000000   0x....             LDR.N    R1,??DataTable54_1
   \   00000002   0x6348             STR      R0,[R1, #+52]
    475          }
   \   00000004   0x4770             BX       LR               ;; return
    476          
    477          /***************************************************************************//**
    478          * @brief
    479          * 此函数用于选择对应的程式
    480          * @param[in]
    481          *   prg_Type：程式名的枚举变量；
    482          * @param[out]：none
    483          ******************************************************************************/

   \                                 In section .text, align 2, keep-with-next
    484          void Program_Select_ID(PROGRAM_ID prg_Type)
    485          {
   \                     Program_Select_ID: (+1)
   \   00000000   0xB538             PUSH     {R3-R5,LR}
    486              UINT8 i;
    487          //    if(Bluetooth_Get_ConnectStatus()&& Program_Get_Status()!=PS_PAUSED)
    488          //    {
    489          //        Program_Initial_Inner_Data();
    490          //    }
    491              proCurrentIndex = prg_Type;
   \   00000002   0x....             LDR.N    R4,??DataTable54_1
    492              for(i=0;i<ProgramLibConfigPara->ProgramTotalNum/*-1*/;i++)
   \   00000004   0x6B21             LDR      R1,[R4, #+48]
   \   00000006   0x73A0             STRB     R0,[R4, #+14]
   \   00000008   0x2000             MOVS     R0,#+0
   \   0000000A   0x7BA2             LDRB     R2,[R4, #+14]
   \   0000000C   0xE000             B.N      ??Program_Select_ID_0
   \                     ??Program_Select_ID_1: (+1)
   \   0000000E   0x1C40             ADDS     R0,R0,#+1
   \                     ??Program_Select_ID_0: (+1)
   \   00000010   0x790D             LDRB     R5,[R1, #+4]
   \   00000012   0xB2C3             UXTB     R3,R0
   \   00000014   0x42AB             CMP      R3,R5
   \   00000016   0xD20C             BCS.N    ??Program_Select_ID_2
    493            	{
    494          		if(ProgramLibConfigPara->Pro_Config[i].ProgramFirstID==proCurrentIndex)
   \   00000018   0x680B             LDR      R3,[R1, #+0]
   \   0000001A   0xB2C0             UXTB     R0,R0
   \   0000001C   0x0105             LSLS     R5,R0,#+4
   \   0000001E   0x5D5B             LDRB     R3,[R3, R5]
   \   00000020   0x4293             CMP      R3,R2
   \   00000022   0xD1F4             BNE.N    ??Program_Select_ID_1
    495          		{
    496          			ProgramidArrayIndex=i;
   \   00000024   0x73E0             STRB     R0,[R4, #+15]
    497          			ProgramArray[proCurrentIndex]->Prg_Initial();  
   \   00000026   0x.... 0x....      LDR.W    R0,??DataTable55_2
   \   0000002A   0xF850 0x0022      LDR      R0,[R0, R2, LSL #+2]
   \   0000002E   0x68C0             LDR      R0,[R0, #+12]
   \   00000030   0x4780             BLX      R0
    498          			break;
    499          		}
    500            	}
    501          	ProfileIndex=DefaultDotmatrix;
   \                     ??Program_Select_ID_2: (+1)
   \   00000032   0x7DA0             LDRB     R0,[R4, #+22]
   \   00000034   0x75E0             STRB     R0,[R4, #+23]
    502          	ProgramSubidArrayIndex=0;
   \   00000036   0x2000             MOVS     R0,#+0
   \   00000038   0x7420             STRB     R0,[R4, #+16]
    503              
    504          }
   \   0000003A   0xBD31             POP      {R0,R4,R5,PC}    ;; return
    505          /***************************************************************************//**
    506          * @brief
    507          * 此函数用于取得当前的程式
    508          * @param[in]
    509          *   none
    510          * @param[out]：
    511          *返回程式的ID号
    512          ******************************************************************************/

   \                                 In section .text, align 2, keep-with-next
    513          PROGRAM_ID Program_Get_ProgramID(void)
    514          {
    515          //    if(ProgramLibConfigPara->Pro_Config[ProgramidArrayIndex].ProgramSubID!=NULL)
    516           //       return (PROGRAM_ID)ProgramLibConfigPara->Pro_Config[ProgramidArrayIndex].ProgramSubID[ProgramSubidArrayIndex];
    517           //   else
    518                  return (PROGRAM_ID)ProgramLibConfigPara->Pro_Config[ProgramidArrayIndex].ProgramFirstID;   
   \                     Program_Get_ProgramID: (+1)
   \   00000000   0x....             LDR.N    R0,??DataTable54_1
   \   00000002   0x6B01             LDR      R1,[R0, #+48]
   \   00000004   0x7BC0             LDRB     R0,[R0, #+15]
   \   00000006   0x6809             LDR      R1,[R1, #+0]
   \   00000008   0x0100             LSLS     R0,R0,#+4
   \   0000000A   0x5C08             LDRB     R0,[R1, R0]
   \   0000000C   0x4770             BX       LR               ;; return
    519          	//return (PROGRAM_ID)ProgramArray[proCurrentIndex]->Programid;
    520          }
    521          /***************************************************************************//**
    522          * @brief
    523          * 此函数用于取得当前的程式
    524          * @param[in]
    525          *   none
    526          * @param[out]：
    527          *返回程式的当前状态
    528          ******************************************************************************/

   \                                 In section .text, align 2, keep-with-next
    529          PROGRAM_ID Program_Get_subProgramID(void)
    530          {
    531              if(ProgramLibConfigPara->Pro_Config[ProgramidArrayIndex].ProgramSubID!=NULL)
   \                     Program_Get_subProgramID: (+1)
   \   00000000   0x....             LDR.N    R0,??DataTable54_1
   \   00000002   0x6B01             LDR      R1,[R0, #+48]
   \   00000004   0x7BC2             LDRB     R2,[R0, #+15]
   \   00000006   0x6809             LDR      R1,[R1, #+0]
   \   00000008   0xEB01 0x1102      ADD      R1,R1,R2, LSL #+4
   \   0000000C   0x6849             LDR      R1,[R1, #+4]
   \   0000000E   0xB111             CBZ.N    R1,??Program_Get_subProgramID_0
    532                  return (PROGRAM_ID)ProgramLibConfigPara->Pro_Config[ProgramidArrayIndex].ProgramSubID[ProgramSubidArrayIndex];
   \   00000010   0x7C00             LDRB     R0,[R0, #+16]
   \   00000012   0x5C08             LDRB     R0,[R1, R0]
   \   00000014   0x4770             BX       LR
    533              else
    534              return PS_MANUAL;   
   \                     ??Program_Get_subProgramID_0: (+1)
   \   00000016   0x2000             MOVS     R0,#+0
   \   00000018   0x4770             BX       LR               ;; return
    535          }
    536          
    537          
    538          
    539          
    540          

   \                                 In section .text, align 4, keep-with-next
    541          PROGRAM_STATUS Program_Get_Status(void)
    542          {
    543              return Prg_StateMachine;
   \                     Program_Get_Status: (+1)
   \   00000000   0x....             LDR.N    R0,??DataTable54_1
   \   00000002   0x7B00             LDRB     R0,[R0, #+12]
   \   00000004   0x4770             BX       LR               ;; return
    544          }
    545          /***************************************************************************//**
    546          * @brief
    547          * 此函数用于设置程序状态
    548          * @param[in]
    549          *   prgstatus：状态设置变量
    550          * @param[out]：none
    551          ******************************************************************************/

   \                                 In section .text, align 2, keep-with-next
    552          void Program_Set_Status(PROGRAM_STATUS prgstatus)
   \                     Program_Set_Status: (+1)
   \   00000000   0xBF00             Nop      
    553          {
    554              Prg_StateMachine=prgstatus;
   \   00000002                      REQUIRE ?Subroutine0
   \   00000002                      ;; // Fall through to label ?Subroutine0
    555          }
    556          /***************************************************************************//**
    557          * @brief
    558          * 此函数用于设置虚拟按键
    559          * @param[in]
    560          *   vrKey：程式虚拟按键枚举变量
    561          * @param[out]：
    562          *返回是否执行OK
    563          *true表示成功；false表示失败
    564          ******************************************************************************/

   \                                 In section .text, align 4, keep-with-next
    565          bool Program_Set_VirtualKey(UINT16 vrKey)
    566          {
   \                     Program_Set_VirtualKey: (+1)
   \   00000000   0xE92D 0x48F0      PUSH     {R4-R7,R11,LR}
    567              bool Result=false;
   \   00000004   0x2400             MOVS     R4,#+0
    568              UINT16 _stage = vrKey & 0xFF00 ;
   \   00000006   0xF400 0x4B7F      AND      R11,R0,#0xFF00
    569              UINT8 TempKey = (UINT8)(vrKey&0x00FF);
    570              
    571              if(_stage == FRAME_STAGE_USER)
   \   0000000A   0xF5BB 0x7F00      CMP      R11,#+512
   \   0000000E   0xF5AD 0x6DA7      SUB      SP,SP,#+1336
   \   00000012   0xB2C7             UXTB     R7,R0
   \   00000014   0xD106             BNE.N    ??Program_Set_VirtualKey_2
    572              { 
    573                  if(TempKey == VK_PAUSE_START || TempKey == VK_START)
   \   00000016   0x2FA2             CMP      R7,#+162
   \   00000018   0xD102             BNE.N    ??Program_Set_VirtualKey_3
   \                     ??Program_Set_VirtualKey_4: (+1)
   \   0000001A   0xF44F 0x6B10      MOV      R11,#+2304
   \   0000001E   0xE01B             B.N      ??Program_Set_VirtualKey_5
   \                     ??Program_Set_VirtualKey_3: (+1)
   \   00000020   0x2F01             CMP      R7,#+1
   \   00000022   0xD0FA             BEQ.N    ??Program_Set_VirtualKey_4
    574                  {
    575                      _stage= FRAME_STAGE_PRGRUN;
    576                  }
    577              }
    578              if(TempKey == VK_SAFEKEYON || TempKey == VK_SAFEKEYOFF || TempKey == VK_INITIAL || TempKey == VK_DEMO_ERP_WAKEUP)
   \                     ??Program_Set_VirtualKey_2: (+1)
   \   00000024   0x2F0E             CMP      R7,#+14
   \   00000026   0xD00C             BEQ.N    ??Program_Set_VirtualKey_6
   \   00000028   0x2F0D             CMP      R7,#+13
   \   0000002A   0xD004             BEQ.N    ??Program_Set_VirtualKey_7
   \   0000002C   0x2FA0             CMP      R7,#+160
   \   0000002E   0xD008             BEQ.N    ??Program_Set_VirtualKey_6
   \   00000030   0x2FA7             CMP      R7,#+167
   \   00000032   0xD108             BNE.N    ??Program_Set_VirtualKey_8
   \   00000034   0xE005             B.N      ??Program_Set_VirtualKey_6
    579              {
    580                  if(VK_SAFEKEYOFF==TempKey)
    581                  {
    582                      if(_stage ==FRAME_STAGE_PRGRUN) 
   \                     ??Program_Set_VirtualKey_7: (+1)
   \   00000036   0xF5BB 0x6F10      CMP      R11,#+2304
   \   0000003A   0xBF04             ITT      EQ 
    583                      {
    584                          Data_Set_Event(DATA_SAVEDATA_EVENT);
   \   0000003C   0x2003             MOVEQ    R0,#+3
   \   0000003E   0x.... 0x....      BLEQ     Data_Set_Event
    585                      }
    586                  }
    587                  Program_Initial_Inner_Data();
   \                     ??Program_Set_VirtualKey_6: (+1)
   \   00000042   0x.... 0x....      BL       Program_Initial_Inner_Data
    588              }
    589              if(((TempKey !=VK_RESET)&&(((_stage != FRAME_STAGE_PRGSETUP)&&(_stage != FRAME_STAGE_PRGRUN) )||\
    590          		TempKey == VK_NULL || Program_Get_Status()==PS_WAIT_3S||Program_Get_Status()==PS_RESTART_321) ) ||(_stage == FRAME_STAGE_ENG))
   \                     ??Program_Set_VirtualKey_8: (+1)
   \   00000046   0x2F06             CMP      R7,#+6
   \   00000048   0xD00F             BEQ.N    ??Program_Set_VirtualKey_9
   \   0000004A   0xF5BB 0x7F40      CMP      R11,#+768
   \   0000004E   0xBF18             IT       NE 
   \   00000050   0xF5BB 0x6F10      CMPNE    R11,#+2304
   \   00000054   0xF040 0x83CA      BNE.W    ??Program_Set_VirtualKey_10
   \                     ??Program_Set_VirtualKey_5: (+1)
   \   00000058   0x2F00             CMP      R7,#+0
   \   0000005A   0xBF1F             ITTTT    NE 
   \   0000005C   0x.... 0x....      LDRNE.W  R5,??DataTable64
   \   00000060   0x7B28             LDRBNE   R0,[R5, #+12]
   \   00000062   0x2803             CMPNE    R0,#+3
   \   00000064   0x2804             CMPNE    R0,#+4
   \   00000066   0xF000 0x83C1      BEQ.W    ??Program_Set_VirtualKey_10
   \                     ??Program_Set_VirtualKey_9: (+1)
   \   0000006A   0xF5BB 0x6F80      CMP      R11,#+1024
   \   0000006E   0xF000 0x83BD      BEQ.W    ??Program_Set_VirtualKey_10
    591            {
    592              return Result;
    593            }
    594          //  if(wlt2564_Get_ConnectStatus())
    595          //  {
    596          //      if(TempKey == VK_UPDATE)
    597          //      {
    598          //          Program_NextStatus(PS_SELECTPRG);
    599          //          PrgKeyEvts.Bit_Flag.key_Updata = 1;
    600          //      }
    601          //      return Result;
    602          //  }
    603            switch(TempKey)
   \   00000072   0x2F06             CMP      R7,#+6
   \   00000074   0x.... 0x....      LDR.W    R5,??DataTable64
   \   00000078   0xD03D             BEQ.N    ??Program_Set_VirtualKey_11
   \   0000007A   0x2F08             CMP      R7,#+8
   \   0000007C   0xD00A             BEQ.N    ??Program_Set_VirtualKey_12
   \   0000007E   0x2F97             CMP      R7,#+151
   \   00000080   0xD057             BEQ.N    ??Program_Set_VirtualKey_13
   \   00000082   0x2F99             CMP      R7,#+153
   \   00000084   0xD067             BEQ.N    ??Program_Set_VirtualKey_14
   \   00000086   0x2FA0             CMP      R7,#+160
   \   00000088   0xD047             BEQ.N    ??Program_Set_VirtualKey_15
   \   0000008A   0x2FA3             CMP      R7,#+163
   \   0000008C   0xD051             BEQ.N    ??Program_Set_VirtualKey_13
   \   0000008E   0x2FB7             CMP      R7,#+183
   \   00000090   0xD06C             BEQ.N    ??Program_Set_VirtualKey_16
   \   00000092   0xE071             B.N      ??Program_Set_VirtualKey_17
    604            {
    605                case VK_UPDATE: 
    606                Program_NextStatus(PS_SELECTPRG);
   \                     ??Program_Set_VirtualKey_12: (+1)
   \   00000094   0x2001             MOVS     R0,#+1
   \   00000096   0x7328             STRB     R0,[R5, #+12]
    607                PrgKeyEvts.Bit_Flag.key_update = 1;   
    608                Result=true;
   \   00000098   0x2401             MOVS     R4,#+1
   \   0000009A   0x.... 0x....      LDR.W    R0,??DataTable66
   \   0000009E   0x6841             LDR      R1,[R0, #+4]
   \   000000A0   0xF041 0x0104      ORR      R1,R1,#0x4
   \   000000A4   0x6041             STR      R1,[R0, #+4]
    609                break;
   \                     ??Program_Set_VirtualKey_18: (+1)
   \   000000A6   0x.... 0x....      LDR.W    R1,??DataTable55_2
   \   000000AA   0x7BA8             LDRB     R0,[R5, #+14]
   \   000000AC   0xF851 0x0020      LDR      R0,[R1, R0, LSL #+2]
   \   000000B0   0x6841             LDR      R1,[R0, #+4]
   \   000000B2   0x7A00             LDRB     R0,[R0, #+8]
   \   000000B4   0x5C08             LDRB     R0,[R1, R0]
   \   000000B6   0x2805             CMP      R0,#+5
   \   000000B8   0xD00A             BEQ.N    ??Program_Set_VirtualKey_19
   \   000000BA   0x2806             CMP      R0,#+6
   \   000000BC   0xF000 0x81E3      BEQ.W    ??Program_Set_VirtualKey_20
   \   000000C0   0x2807             CMP      R0,#+7
   \   000000C2   0xF000 0x81F2      BEQ.W    ??Program_Set_VirtualKey_21
   \   000000C6   0x281D             CMP      R0,#+29
   \   000000C8   0xBF18             IT       NE 
   \   000000CA   0x281E             CMPNE    R0,#+30
   \   000000CC   0xF040 0x838E      BNE.W    ??Program_Set_VirtualKey_10
    610          //        case VK_RESET:
    611          //        Incline_Set_Incline_Reset(1);
    612          //        Speed_Quick_Stop();
    613          ////      HW_Incline_Set_Stop();
    614          //        Incline_Set_Pause(0);
    615          //        Incline_Set_EZero();
    616          //        PrgKeyEvts.Bit_Flag.Key_Reset=true;
    617          //        Result=true;
    618          //        break;
    619                case VK_RESET: 
    620                      if(((Prg_StateMachine<=PS_COOLDOWN && Prg_StateMachine>=PS_WARMUP)||Prg_StateMachine==PS_PAUSED))
    621                      {
    622                        //        if(DigitalGetRFstatus())
    623          //              if(!GetBTStatus())
    624          //              {
    625                          PrgKeyEvts.Bit_Flag.Key_WorkoutSummary=true;
    626          //              }
    627          //              else
    628          //              {
    629          //                PrgKeyEvts.Bit_Flag.Key_Reset=true;
    630          //              }
    631                      }
    632                      else
    633                      {
    634                        PrgKeyEvts.Bit_Flag.Key_Reset=true;
    635                      }
    636                      break;
    637                  case VK_INITIAL: 
    638                  LCB_Initial();
    639                  LCB_Power_On();
    640                  PrgKeyEvts.Bit_Flag.Key_Initial=true;
    641                  Result=true;
    642                  break;
    643                  case VK_ENTER: 
    644                  case VK_ENTER_CHANGEDIS:
    645                  if(Bluetooth_Get_ConnectStatus() == 0)
    646                  {
    647                      PrgKeyEvts.Bit_Flag.Key_Enter=true;
    648                      PrgActionFlag.ScanMode=false;
    649                      Prg_isr_TimerColse(TIMER_ScanFunction);
    650                  }
    651                  break;
    652                  case VK_BACK: 
    653                  if(NumberKey_Data.Events.Bits_All!=0)
    654                  {
    655                      memset(&NumberKey_Data,0,sizeof(NumberKeyData));
    656                  }
    657                  else
    658                  {
    659                      PrgKeyEvts.Bit_Flag.Key_Back=true;
    660                  }          
    661                  break;
    662                  case VK_SPEEDOVER:
    663          	    {
    664          			PrgKeyEvts.Bit_Flag.Key_SpeedOver=true;
    665          		}
    666          		break;
    667                  default:break;
    668              }
    669              switch(Program_Get_Status())
    670              {
    671                  case PS_IDLE:
    672                  case PS_SELECTPRG:
    673                  case PS_SETUP:
    674                  {
    675                      switch(TempKey)
    676                      {
    677                      case VK_START:
    678                      case VK_PAUSE_START:
    679                        if(SystemConfig_Get_Char(MACHINE_TYPE_UINT8)==TREADMILL)
    680                        {
    681                            if(!RPM_Get_STOP())
                                       ^
Warning[Pe223]: function "RPM_Get_STOP" declared implicitly
    682                              {
    683                                      Result = true;
    684                                      break;
    685                              }
    686                    
    687                        }
    688                  
    689                        Speed_Set_Start(1);
    690                        if(!Incline_Get_Incline_Active())
    691                        {
    692                            Incline_Set_Zero();     
    693                            Incline_Set_EZero();////////////2010-3-3 
    694                        }
    695                        else
    696                        {
    697                            Incline_Set_EZero();////////////2010-3-3
    698                        }
    699                        while(Beep_Get_OK() == false);
    700                        ProgramArray[proCurrentIndex]->BeginWorkout();
    701          //              LCB_Send_Cmd(DS_INC_LOCATION,Data_Get_Incline(TARGET_INCLINE_ADC));
    702          //#ifdef TM
    703          //              LCB_Send_Cmd(DS_ECB_ZERO,0);
    704          //#else
    705          //		      ECB_Set_Zero();
    706          //              ECB_Data_Updata();
    707          //#endif
    708                        SpeedDataBackup=Data_Get_Speed(TARGET_SPEEDX1000);
    709                        InclineDataBackup=Data_Get_Incline(TARGET_INCLINEX10);
    710                        ResistanceDataBackup=Data_Get_Resistance(TARGET_RESISTANCE);
    711                        Program_NextStatus(PS_WAIT_3S);
    712                        
    713                        Speed_Step_Switch(1);
    714                        Speed_Set_Speed(Program_Get_Speed(DATA_AUTO,0));
    715                        //                Result=true;
    716                        if(Bluetooth_Get_ConnectStatus() == 0)
    717                        {
    718                          UINT8 UserID = User_Get_UserSlot();
    719                          USERS_INFO userinfo = SystemConfig_Get_UserInfo(UserID);
    720                          UINT8 j = userinfo.WorkoutSummaryDataCount % 3;
    721                          userinfo.WorkoutSummaryData[j].workoutunits = SystemConfig_Get_Display_Unit(UserID);//SystemConfig_Get_Char(UNIT_FLAG_UCHAR);
    722                          DateTime_T Rtc_Time;
    723          //                RTC_Read_Time(&Rtc_Time);
    724                          userinfo.WorkoutSummaryData[j].workoutstartyear = Rtc_Time.year + 2000;
                                                                                   ^
Warning[Pe549]: variable "Rtc_Time" is used before its value is set
    725                          userinfo.WorkoutSummaryData[j].workoutstartmonth = Rtc_Time.month;
    726                          userinfo.WorkoutSummaryData[j].workoutstartday = Rtc_Time.date;
    727                          userinfo.WorkoutSummaryData[j].workoutstarthour = Rtc_Time.hours;
    728                          userinfo.WorkoutSummaryData[j].workoutstartminute = Rtc_Time.minutes;
    729                          userinfo.WorkoutSummaryData[j].workoutstartsecond = Rtc_Time.seconds;
    730                          if(SystemConfig_Set_UserInfo(userinfo,UserID))
    731                          {
    732                            SystemConfigProcess(SVK_SAVE_USER2FLASH, &UserID, sizeof(UserID));
    733                          }
    734                        }
    735                        break;
    736                      case VK_SPEEDUP_LONG_PRESS:
    737                       // if(0 == Bluetooth_Get_ConnectStatus())
    738                          PrgKeyEvts.Bit_Flag.Key_Up=true;
    739                        break;
    740                      case VK_UP:
    741                      case VK_INCLINEUP:
    742                      case VK_SPEEDUP:
    743                      case VK_RESISTANCEUP:
    744                       // if(Bluetooth_Get_ConnectStatus() == 0)
    745                          PrgKeyEvts.Bit_Flag.Key_Up=true;
    746                        break;
    747                      case VK_DOWN:
    748                      case VK_INCLINEDOWN:
    749                      case VK_SPEEDDOWN:
    750                      case VK_RESISTANCEDOWN:
    751                     //   if(Bluetooth_Get_ConnectStatus() == 0)
    752                          PrgKeyEvts.Bit_Flag.Key_Dn=true;
    753                        break;
    754                      case VK_ENTER_CHANGEDIS:
    755          			//	if(Bluetooth_Get_ConnectStatus() == 0)
    756                        PrgKeyEvts.Bit_Flag.Key_Enter=true;
    757                        break;
    758                      case VR_MANUAL:
    759                        Program_Initial_Inner_Data();
    760                        PrgKeyEvts.Bit_Flag.Key_Manual = true;
    761                        Program_NextStatus(PS_SELECTPRG);            
    762                        break;
    763                      case VR_WEIGHT_LOSS:
    764                        Program_Initial_Inner_Data();
    765                        PrgKeyEvts.Bit_Flag.Key_WeightLoss = true;
    766                        Program_NextStatus(PS_SELECTPRG);             
    767                        break;
    768                      case VR_INTERVALS:
    769                        Program_Initial_Inner_Data();
    770                        PrgKeyEvts.Bit_Flag.Key_Intervals = true;
    771                        Program_NextStatus(PS_SELECTPRG);         
    772                        break;
    773                      case VR_DISTANCE:
    774                        Program_Initial_Inner_Data();
    775                        PrgKeyEvts.Bit_Flag.Key_Distance = true;
    776                        Program_NextStatus(PS_SELECTPRG);
    777                        break;
    778                      case VR_CALORIES:
    779                        Program_Initial_Inner_Data();
    780                        PrgKeyEvts.Bit_Flag.Key_Calories = true;
    781                        Program_NextStatus(PS_SELECTPRG);
    782                        break;
    783                      case VR_HILLCLIMB:
    784                        Program_Initial_Inner_Data();
    785                        PrgKeyEvts.Bit_Flag.Key_HillClimb = true;
    786                        Program_NextStatus(PS_SELECTPRG);
    787                      case VK_NUM0:
    788                      case VK_NUM1:
    789                      case VK_NUM2:
    790                      case VK_NUM3:
    791                      case VK_NUM4:
    792                      case VK_NUM5:
    793                      case VK_NUM6:
    794                      case VK_NUM7:
    795                      case VK_NUM8:
    796                      case VK_NUM9:
    797                        {
    798                          PrgKeyEvts.Bit_Flag.Key_NumberKey=true;
    799                          NumberKey_Data.InputValue = TempKey - VK_NUM0;
    800                          NumberKey_Data.Timer_Counter = 0;
    801                          switch(ProgramArray[proCurrentIndex]->Setting_Array[ProgramArray[proCurrentIndex]->SettingArray_Index])
    802                          {
    803                          case SET_TIME:
    804                            NumberKey_Data.Events.Bit.Time=1;
    805                            break;
    806                          case SET_SPEED:
    807                            NumberKey_Data.Events.Bit.Spd=1;
    808                            break;
    809                          case SET_INCLINE:
    810                            NumberKey_Data.Events.Bit.Inl=1;
    811                            break;
    812                          case SET_RESISTANCE:
    813                            NumberKey_Data.Events.Bit.Res=1;
    814                            break;
    815                          case SET_LEVEL:
    816                            NumberKey_Data.Events.Bit.Level=1;
    817                            break;
    818                          case SET_WATTS:
    819                            NumberKey_Data.Events.Bit.Watt=1;
    820                            break;
    821                          }	
    822                        }
    823                        break;
    824                      default:
    825                        switch(ProgramArray[proCurrentIndex]->Setting_Array[ProgramArray[proCurrentIndex]->SettingArray_Index])
    826                        {
    827                        case SET_WALK_SPEED:
    828                        case SET_JOG_SPEED:
    829                        case SET_SPEED:
    830                          if(TempKey>=VK_QK_SPEED1 && TempKey<=VK_QK_SPEED20)
   \                     ??Program_Set_VirtualKey_19: (+1)
   \   000000D0   0xF1A7 0x0040      SUB      R0,R7,#+64
   \   000000D4   0x2814             CMP      R0,#+20
   \   000000D6   0xF080 0x8389      BCS.W    ??Program_Set_VirtualKey_10
    831                          {
    832                            PrgKeyEvts.Bit_Flag.Key_QuickKey=true;
   \   000000DA   0x.... 0x....      LDR.W    R0,??DataTable66
   \   000000DE   0x6841             LDR      R1,[R0, #+4]
   \   000000E0   0xF441 0x2100      ORR      R1,R1,#0x80000
   \   000000E4   0x6041             STR      R1,[R0, #+4]
    833                            TempKey=(TempKey-VK_QK_SPEED1+1)*10;
    834                            Data_Set_Speed_Base_User(TempKey,0);
   \   000000E6   0xF1A7 0x003F      SUB      R0,R7,#+63
   \   000000EA   0xEB00 0x0280      ADD      R2,R0,R0, LSL #+2
   \   000000EE   0x0050             LSLS     R0,R2,#+1
   \   000000F0   0x2100             MOVS     R1,#+0
   \   000000F2   0xB2C0             UXTB     R0,R0
   \   000000F4   0xE339             B.N      ??Program_Set_VirtualKey_22
    835                            //Data_Set_Speed(TempKey,SystemConfig_Get_Display_Unit(User_Get_UserSlot( ))==METRIC,0);
    836                          }
   \                     ??Program_Set_VirtualKey_11: (+1)
   \   000000F6   0x7B28             LDRB     R0,[R5, #+12]
   \   000000F8   0x1FC1             SUBS     R1,R0,#+7
   \   000000FA   0x2903             CMP      R1,#+3
   \   000000FC   0xD301             BCC.N    ??Program_Set_VirtualKey_23
   \   000000FE   0x2805             CMP      R0,#+5
   \   00000100   0xD105             BNE.N    ??Program_Set_VirtualKey_24
   \                     ??Program_Set_VirtualKey_23: (+1)
   \   00000102   0x.... 0x....      LDR.W    R0,??DataTable66
   \   00000106   0x6841             LDR      R1,[R0, #+4]
   \   00000108   0xF041 0x4180      ORR      R1,R1,#0x40000000
   \   0000010C   0xE033             B.N      ??Program_Set_VirtualKey_25
   \                     ??Program_Set_VirtualKey_24: (+1)
   \   0000010E   0x.... 0x....      LDR.W    R0,??DataTable66
   \   00000112   0x6841             LDR      R1,[R0, #+4]
   \   00000114   0xF441 0x4180      ORR      R1,R1,#0x4000
   \   00000118   0xE02D             B.N      ??Program_Set_VirtualKey_25
   \                     ??Program_Set_VirtualKey_15: (+1)
   \   0000011A   0x.... 0x....      BL       LCB_Initial
   \   0000011E   0x.... 0x....      BL       LCB_Power_On
   \   00000122   0x.... 0x....      LDR.W    R0,??DataTable66
   \   00000126   0x6841             LDR      R1,[R0, #+4]
   \   00000128   0xF441 0x3100      ORR      R1,R1,#0x20000
   \   0000012C   0x6041             STR      R1,[R0, #+4]
   \   0000012E   0x2401             MOVS     R4,#+1
   \   00000130   0xE022             B.N      ??Program_Set_VirtualKey_17
   \                     ??Program_Set_VirtualKey_13: (+1)
   \   00000132   0x.... 0x....      BL       Bluetooth_Get_ConnectStatus
   \   00000136   0xB9F8             CBNZ.N   R0,??Program_Set_VirtualKey_17
   \   00000138   0x.... 0x....      LDR.W    R0,??DataTable66
   \   0000013C   0x6841             LDR      R1,[R0, #+4]
   \   0000013E   0xF041 0x0108      ORR      R1,R1,#0x8
   \   00000142   0x6041             STR      R1,[R0, #+4]
   \   00000144   0xF64F 0x71FE      MOVW     R1,#+65534
   \   00000148   0x8DA8             LDRH     R0,[R5, #+44]
   \   0000014A   0x4008             ANDS     R0,R1,R0
   \   0000014C   0x.... 0x....      LDR.W    R1,??DataTable67
   \   00000150   0x85A8             STRH     R0,[R5, #+44]
   \   00000152   0x774C             STRB     R4,[R1, #+29]
   \   00000154   0xE010             B.N      ??Program_Set_VirtualKey_17
   \                     ??Program_Set_VirtualKey_14: (+1)
   \   00000156   0x79E8             LDRB     R0,[R5, #+7]
   \   00000158   0xB110             CBZ.N    R0,??Program_Set_VirtualKey_26
   \   0000015A   0xE9C5 0x4400      STRD     R4,R4,[R5, #+0]
   \   0000015E   0xE00B             B.N      ??Program_Set_VirtualKey_17
   \                     ??Program_Set_VirtualKey_26: (+1)
   \   00000160   0x.... 0x....      LDR.W    R0,??DataTable66
   \   00000164   0x6841             LDR      R1,[R0, #+4]
   \   00000166   0xF041 0x0110      ORR      R1,R1,#0x10
   \   0000016A   0xE004             B.N      ??Program_Set_VirtualKey_25
   \                     ??Program_Set_VirtualKey_16: (+1)
   \   0000016C   0x.... 0x....      LDR.W    R0,??DataTable66
   \   00000170   0x6841             LDR      R1,[R0, #+4]
   \   00000172   0xF041 0x5180      ORR      R1,R1,#0x10000000
   \                     ??Program_Set_VirtualKey_25: (+1)
   \   00000176   0x6041             STR      R1,[R0, #+4]
   \                     ??Program_Set_VirtualKey_17: (+1)
   \   00000178   0x7B28             LDRB     R0,[R5, #+12]
   \   0000017A   0x2809             CMP      R0,#+9
   \   0000017C   0xF200 0x8336      BHI.W    ??Program_Set_VirtualKey_10
   \   00000180   0xE8DF 0xF010      TBH      [PC, R0, LSL #+1]
   \                     ??Program_Set_VirtualKey_0:
   \   00000184   0x000A 0x000A      DC16     0xA,0xA,0xA,0x334
   \              0x000A 0x0334
   \   0000018C   0x0334 0x01A3      DC16     0x334,0x1A3,0x1E5,0x1F1
   \              0x01E5 0x01F1
   \   00000194   0x01F1 0x01F1      DC16     0x1F1,0x1F1
   \                     ??Program_Set_VirtualKey_27: (+1)
   \   00000198   0x1E78             SUBS     R0,R7,#+1
   \   0000019A   0xD036             BEQ.N    ??Program_Set_VirtualKey_28
   \   0000019C   0x3808             SUBS     R0,R0,#+8
   \   0000019E   0xF000 0x80EB      BEQ.W    ??Program_Set_VirtualKey_29
   \   000001A2   0x1E40             SUBS     R0,R0,#+1
   \   000001A4   0xF000 0x80EE      BEQ.W    ??Program_Set_VirtualKey_30
   \   000001A8   0x1F40             SUBS     R0,R0,#+5
   \   000001AA   0xF000 0x80E5      BEQ.W    ??Program_Set_VirtualKey_29
   \   000001AE   0x1E40             SUBS     R0,R0,#+1
   \   000001B0   0xF000 0x80E8      BEQ.W    ??Program_Set_VirtualKey_30
   \   000001B4   0x1E40             SUBS     R0,R0,#+1
   \   000001B6   0xF000 0x80DF      BEQ.W    ??Program_Set_VirtualKey_29
   \   000001BA   0x1E40             SUBS     R0,R0,#+1
   \   000001BC   0xF000 0x80E2      BEQ.W    ??Program_Set_VirtualKey_30
   \   000001C0   0x1E40             SUBS     R0,R0,#+1
   \   000001C2   0xF000 0x80D9      BEQ.W    ??Program_Set_VirtualKey_29
   \   000001C6   0x1E40             SUBS     R0,R0,#+1
   \   000001C8   0xF000 0x80DC      BEQ.W    ??Program_Set_VirtualKey_30
   \   000001CC   0x3816             SUBS     R0,R0,#+22
   \   000001CE   0x2809             CMP      R0,#+9
   \   000001D0   0xF240 0x8120      BLS.W    ??Program_Set_VirtualKey_31
   \   000001D4   0x3878             SUBS     R0,R0,#+120
   \   000001D6   0xD018             BEQ.N    ??Program_Set_VirtualKey_28
   \   000001D8   0x1E40             SUBS     R0,R0,#+1
   \   000001DA   0xF000 0x80D9      BEQ.W    ??Program_Set_VirtualKey_32
   \   000001DE   0x1E40             SUBS     R0,R0,#+1
   \   000001E0   0xF000 0x80C4      BEQ.W    ??Program_Set_VirtualKey_33
   \   000001E4   0x1FC0             SUBS     R0,R0,#+7
   \   000001E6   0xF000 0x80D9      BEQ.W    ??Program_Set_VirtualKey_34
   \   000001EA   0x1E40             SUBS     R0,R0,#+1
   \   000001EC   0xF000 0x80F4      BEQ.W    ??Program_Set_VirtualKey_35
   \   000001F0   0x1E40             SUBS     R0,R0,#+1
   \   000001F2   0xF000 0x80DD      BEQ.W    ??Program_Set_VirtualKey_36
   \   000001F6   0x1E40             SUBS     R0,R0,#+1
   \   000001F8   0xF000 0x80F8      BEQ.W    ??Program_Set_VirtualKey_37
   \   000001FC   0x1E40             SUBS     R0,R0,#+1
   \   000001FE   0xF000 0x80FF      BEQ.W    ??Program_Set_VirtualKey_38
   \   00000202   0x1E40             SUBS     R0,R0,#+1
   \   00000204   0xF000 0x80DE      BEQ.W    ??Program_Set_VirtualKey_39
   \   00000208   0xE74D             B.N      ??Program_Set_VirtualKey_18
   \                     ??Program_Set_VirtualKey_28: (+1)
   \   0000020A   0x2003             MOVS     R0,#+3
   \   0000020C   0x.... 0x....      BL       SystemConfig_Get_Char
   \   00000210   0xB920             CBNZ.N   R0,??Program_Set_VirtualKey_40
   \   00000212   0x.... 0x....      BL       RPM_Get_STOP
   \   00000216   0x2800             CMP      R0,#+0
   \   00000218   0xF000 0x825B      BEQ.W    ??Program_Set_VirtualKey_41
   \                     ??Program_Set_VirtualKey_40: (+1)
   \   0000021C   0x2001             MOVS     R0,#+1
   \   0000021E   0x.... 0x....      BL       Speed_Set_Start
   \   00000222   0x.... 0x....      BL       Incline_Get_Incline_Active
   \   00000226   0xB908             CBNZ.N   R0,??Program_Set_VirtualKey_42
   \   00000228   0x.... 0x....      BL       Incline_Set_Zero
   \                     ??Program_Set_VirtualKey_42: (+1)
   \   0000022C   0x.... 0x....      BL       Incline_Set_EZero
   \                     ??Program_Set_VirtualKey_43: (+1)
   \   00000230   0x.... 0x....      BL       Beep_Get_OK
   \   00000234   0x2800             CMP      R0,#+0
   \   00000236   0xD0FB             BEQ.N    ??Program_Set_VirtualKey_43
   \   00000238   0x.... 0x....      LDR.W    R7,??DataTable55_2
   \   0000023C   0x7BA8             LDRB     R0,[R5, #+14]
   \   0000023E   0xF857 0x0020      LDR      R0,[R7, R0, LSL #+2]
   \   00000242   0x6900             LDR      R0,[R0, #+16]
   \   00000244   0x4780             BLX      R0
   \   00000246   0x2008             MOVS     R0,#+8
   \   00000248   0x.... 0x....      BL       Data_Get_Speed
   \   0000024C   0x8568             STRH     R0,[R5, #+42]
   \   0000024E   0x2008             MOVS     R0,#+8
   \   00000250   0x.... 0x....      BL       Data_Get_Incline
   \   00000254   0x7568             STRB     R0,[R5, #+21]
   \   00000256   0x2006             MOVS     R0,#+6
   \   00000258   0x.... 0x....      BL       Data_Get_Resistance
   \   0000025C   0x7528             STRB     R0,[R5, #+20]
   \   0000025E   0x2003             MOVS     R0,#+3
   \   00000260   0x7328             STRB     R0,[R5, #+12]
   \   00000262   0x2001             MOVS     R0,#+1
   \   00000264   0x.... 0x....      BL       Speed_Step_Switch
   \   00000268   0x7B28             LDRB     R0,[R5, #+12]
   \   0000026A   0x2803             CMP      R0,#+3
   \   0000026C   0xDA06             BGE.N    ??Program_Set_VirtualKey_44
   \   0000026E   0x7BA9             LDRB     R1,[R5, #+14]
   \   00000270   0xF857 0x1021      LDR      R1,[R7, R1, LSL #+2]
   \   00000274   0x6A89             LDR      R1,[R1, #+40]
   \   00000276   0x2003             MOVS     R0,#+3
   \   00000278   0x4788             BLX      R1
   \   0000027A   0xE01A             B.N      ??Program_Set_VirtualKey_45
   \                     ??Program_Set_VirtualKey_44: (+1)
   \   0000027C   0x2003             MOVS     R0,#+3
   \   0000027E   0x.... 0x....      BL       SystemConfig_Get_Char
   \   00000282   0x2800             CMP      R0,#+0
   \   00000284   0xBF0C             ITE      EQ 
   \   00000286   0x2008             MOVEQ    R0,#+8
   \   00000288   0x2002             MOVNE    R0,#+2
   \   0000028A   0x.... 0x....      BL       Data_Get_Speed
   \   0000028E   0x4605             MOV      R5,R0
   \   00000290   0x.... 0x....      BL       User_Get_UserSlot
   \   00000294   0x.... 0x....      BL       SystemConfig_Get_Display_Unit
   \   00000298   0x2801             CMP      R0,#+1
   \   0000029A   0xD107             BNE.N    ??Program_Set_VirtualKey_46
   \   0000029C   0x.... 0x....      LDR.W    R0,??DataTable72  ;; 0x311d0
   \   000002A0   0x.... 0x....      LDR.W    R1,??DataTable72_1  ;; 0x1e848
   \   000002A4   0x4368             MULS     R0,R0,R5
   \   000002A6   0xFBB0 0xF0F1      UDIV     R0,R0,R1
   \   000002AA   0x1C85             ADDS     R5,R0,#+2
   \                     ??Program_Set_VirtualKey_46: (+1)
   \   000002AC   0x2064             MOVS     R0,#+100
   \   000002AE   0xFBB5 0xF0F0      UDIV     R0,R5,R0
   \                     ??Program_Set_VirtualKey_45: (+1)
   \   000002B2   0xB2C0             UXTB     R0,R0
   \   000002B4   0x.... 0x....      BL       Speed_Set_Speed
   \   000002B8   0x.... 0x....      BL       Bluetooth_Get_ConnectStatus
   \   000002BC   0x2800             CMP      R0,#+0
   \   000002BE   0xF040 0x8295      BNE.W    ??Program_Set_VirtualKey_10
   \   000002C2   0x.... 0x....      BL       User_Get_UserSlot
   \   000002C6   0xF88D 0x0294      STRB     R0,[SP, #+660]
   \   000002CA   0x4601             MOV      R1,R0
   \   000002CC   0xA8A6             ADD      R0,SP,#+664
   \   000002CE   0x.... 0x....      BL       SystemConfig_Get_UserInfo
   \   000002D2   0xF89D 0x0479      LDRB     R0,[SP, #+1145]
   \   000002D6   0x2103             MOVS     R1,#+3
   \   000002D8   0xFB90 0xF1F1      SDIV     R1,R0,R1
   \   000002DC   0xEB01 0x0141      ADD      R1,R1,R1, LSL #+1
   \   000002E0   0x1A40             SUBS     R0,R0,R1
   \   000002E2   0xB2C0             UXTB     R0,R0
   \   000002E4   0x2113             MOVS     R1,#+19
   \   000002E6   0xFB01 0xF500      MUL      R5,R1,R0
   \   000002EA   0xF89D 0x0294      LDRB     R0,[SP, #+660]
   \   000002EE   0x.... 0x....      BL       SystemConfig_Get_Display_Unit
   \   000002F2   0xA9A6             ADD      R1,SP,#+664
   \   000002F4   0x4429             ADD      R1,R1,R5
   \   000002F6   0xF44F 0x72F7      MOV      R2,#+494
   \   000002FA   0xF881 0x01ED      STRB     R0,[R1, #+493]
   \   000002FE   0xA9A6             ADD      R1,SP,#+664
   \   00000300   0xF89D 0x0001      LDRB     R0,[SP, #+1]
   \   00000304   0x4429             ADD      R1,R1,R5
   \   00000306   0xF500 0x60FA      ADD      R0,R0,#+2000
   \   0000030A   0xF8A1 0x01EE      STRH     R0,[R1, #+494]
   \   0000030E   0xA9A6             ADD      R1,SP,#+664
   \   00000310   0x4429             ADD      R1,R1,R5
   \   00000312   0xF89D 0x0000      LDRB     R0,[SP, #+0]
   \   00000316   0x4411             ADD      R1,R1,R2
   \   00000318   0x7088             STRB     R0,[R1, #+2]
   \   0000031A   0xA8A6             ADD      R0,SP,#+664
   \   0000031C   0x4428             ADD      R0,R0,R5
   \   0000031E   0x4410             ADD      R0,R0,R2
   \   00000320   0xA9A6             ADD      R1,SP,#+664
   \   00000322   0x70C6             STRB     R6,[R0, #+3]
   \   00000324   0xA8A6             ADD      R0,SP,#+664
   \   00000326   0x4428             ADD      R0,R0,R5
   \   00000328   0x4410             ADD      R0,R0,R2
   \   0000032A   0xF880 0xA004      STRB     R10,[R0, #+4]
   \   0000032E   0xA8A6             ADD      R0,SP,#+664
   \   00000330   0x4428             ADD      R0,R0,R5
   \   00000332   0x4410             ADD      R0,R0,R2
   \   00000334   0xF880 0x8005      STRB     R8,[R0, #+5]
   \   00000338   0xA8A6             ADD      R0,SP,#+664
   \   0000033A   0x4428             ADD      R0,R0,R5
   \   0000033C   0x4410             ADD      R0,R0,R2
   \   0000033E   0xF44F 0x7228      MOV      R2,#+672
   \   00000342   0xF880 0x9006      STRB     R9,[R0, #+6]
   \   00000346   0xF89D 0x0294      LDRB     R0,[SP, #+660]
   \   0000034A   0x90A4             STR      R0,[SP, #+656]
   \   0000034C   0xB084             SUB      SP,SP,#+16
   \   0000034E   0x4668             MOV      R0,SP
   \   00000350   0x.... 0x....      BL       __aeabi_memcpy4
   \   00000354   0xBC0F             POP      {R0-R3}
   \   00000356   0x.... 0x....      BL       SystemConfig_Set_UserInfo
   \   0000035A   0x2800             CMP      R0,#+0
   \   0000035C   0xF000 0x8246      BEQ.W    ??Program_Set_VirtualKey_10
   \   00000360   0x2201             MOVS     R2,#+1
   \   00000362   0xA9A5             ADD      R1,SP,#+660
   \   00000364   0x2072             MOVS     R0,#+114
   \   00000366   0x.... 0x....      BL       SystemConfigProcess
   \   0000036A   0xE23F             B.N      ??Program_Set_VirtualKey_10
   \                     ??Program_Set_VirtualKey_33: (+1)
   \   0000036C   0x.... 0x....      LDR.W    R0,??DataTable66
   \   00000370   0x6841             LDR      R1,[R0, #+4]
   \   00000372   0xF041 0x0101      ORR      R1,R1,#0x1
   \   00000376   0xE1C0             B.N      ??Program_Set_VirtualKey_47
   \                     ??Program_Set_VirtualKey_29: (+1)
   \   00000378   0x.... 0x....      LDR.W    R0,??DataTable66
   \   0000037C   0x6841             LDR      R1,[R0, #+4]
   \   0000037E   0xF041 0x0101      ORR      R1,R1,#0x1
   \   00000382   0xE1BA             B.N      ??Program_Set_VirtualKey_47
   \                     ??Program_Set_VirtualKey_30: (+1)
   \   00000384   0x.... 0x....      LDR.W    R0,??DataTable66
   \   00000388   0x6841             LDR      R1,[R0, #+4]
   \   0000038A   0xF041 0x0102      ORR      R1,R1,#0x2
   \   0000038E   0xE1B4             B.N      ??Program_Set_VirtualKey_47
   \                     ??Program_Set_VirtualKey_32: (+1)
   \   00000390   0x.... 0x....      LDR.W    R0,??DataTable66
   \   00000394   0x6841             LDR      R1,[R0, #+4]
   \   00000396   0xF041 0x0108      ORR      R1,R1,#0x8
   \   0000039A   0xE1AE             B.N      ??Program_Set_VirtualKey_47
   \                     ??Program_Set_VirtualKey_34: (+1)
   \   0000039C   0x.... 0x....      BL       Program_Initial_Inner_Data
   \   000003A0   0x.... 0x....      LDR.W    R0,??DataTable66
   \   000003A4   0x6841             LDR      R1,[R0, #+4]
   \   000003A6   0xF441 0x0100      ORR      R1,R1,#0x800000
   \   000003AA   0x6041             STR      R1,[R0, #+4]
   \   000003AC   0x2001             MOVS     R0,#+1
   \   000003AE   0xE0CC             B.N      ??Program_Set_VirtualKey_48
   \                     ??Program_Set_VirtualKey_36: (+1)
   \   000003B0   0x.... 0x....      BL       Program_Initial_Inner_Data
   \   000003B4   0x.... 0x....      LDR.W    R0,??DataTable66
   \   000003B8   0x6841             LDR      R1,[R0, #+4]
   \   000003BA   0xF041 0x7180      ORR      R1,R1,#0x1000000
   \   000003BE   0x6041             STR      R1,[R0, #+4]
   \   000003C0   0x2001             MOVS     R0,#+1
   \   000003C2   0xE0C2             B.N      ??Program_Set_VirtualKey_48
   \                     ??Program_Set_VirtualKey_39: (+1)
   \   000003C4   0x.... 0x....      BL       Program_Initial_Inner_Data
   \   000003C8   0x.... 0x....      LDR.W    R0,??DataTable66
   \   000003CC   0x6841             LDR      R1,[R0, #+4]
   \   000003CE   0xF041 0x7100      ORR      R1,R1,#0x2000000
   \   000003D2   0x6041             STR      R1,[R0, #+4]
   \   000003D4   0x2001             MOVS     R0,#+1
   \   000003D6   0xE0B8             B.N      ??Program_Set_VirtualKey_48
   \                     ??Program_Set_VirtualKey_35: (+1)
   \   000003D8   0x.... 0x....      BL       Program_Initial_Inner_Data
   \   000003DC   0x.... 0x....      LDR.W    R0,??DataTable66
   \   000003E0   0x6841             LDR      R1,[R0, #+4]
   \   000003E2   0xF041 0x6180      ORR      R1,R1,#0x4000000
   \   000003E6   0x6041             STR      R1,[R0, #+4]
   \   000003E8   0x2001             MOVS     R0,#+1
   \   000003EA   0xE0AE             B.N      ??Program_Set_VirtualKey_48
   \                     ??Program_Set_VirtualKey_37: (+1)
   \   000003EC   0x.... 0x....      BL       Program_Initial_Inner_Data
   \   000003F0   0x.... 0x....      LDR.W    R0,??DataTable66
   \   000003F4   0x6841             LDR      R1,[R0, #+4]
   \   000003F6   0xF041 0x6100      ORR      R1,R1,#0x8000000
   \   000003FA   0x6041             STR      R1,[R0, #+4]
   \   000003FC   0x2001             MOVS     R0,#+1
   \   000003FE   0xE0A4             B.N      ??Program_Set_VirtualKey_48
   \                     ??Program_Set_VirtualKey_38: (+1)
   \   00000400   0x.... 0x....      BL       Program_Initial_Inner_Data
   \   00000404   0x.... 0x....      LDR.W    R0,??DataTable66
   \   00000408   0x6841             LDR      R1,[R0, #+4]
   \   0000040A   0xF041 0x5100      ORR      R1,R1,#0x20000000
   \   0000040E   0x6041             STR      R1,[R0, #+4]
   \   00000410   0x2001             MOVS     R0,#+1
   \   00000412   0x7328             STRB     R0,[R5, #+12]
   \                     ??Program_Set_VirtualKey_31: (+1)
   \   00000414   0x.... 0x....      LDR.W    R0,??DataTable66
   \   00000418   0x6841             LDR      R1,[R0, #+4]
   \   0000041A   0xF441 0x3180      ORR      R1,R1,#0x10000
   \   0000041E   0x6041             STR      R1,[R0, #+4]
   \   00000420   0xF1A7 0x002A      SUB      R0,R7,#+42
   \   00000424   0x8028             STRH     R0,[R5, #+0]
   \   00000426   0x2000             MOVS     R0,#+0
   \   00000428   0x80A8             STRH     R0,[R5, #+4]
   \   0000042A   0x.... 0x....      LDR.W    R1,??DataTable55_2
   \   0000042E   0x7BA8             LDRB     R0,[R5, #+14]
   \   00000430   0xF851 0x0020      LDR      R0,[R1, R0, LSL #+2]
   \   00000434   0x6841             LDR      R1,[R0, #+4]
   \   00000436   0x7A00             LDRB     R0,[R0, #+8]
   \   00000438   0x5C08             LDRB     R0,[R1, R0]
   \   0000043A   0x1F00             SUBS     R0,R0,#+4
   \   0000043C   0x2806             CMP      R0,#+6
   \   0000043E   0xF200 0x81D5      BHI.W    ??Program_Set_VirtualKey_10
   \   00000442   0xE8DF 0xF010      TBH      [PC, R0, LSL #+1]
   \                     ??Program_Set_VirtualKey_1:
   \   00000446   0x0007 0x000B      DC16     0x7,0xB,0xF,0x13
   \              0x000F 0x0013
   \   0000044E   0x0017 0x01D3      DC16     0x17,0x1D3,0x1B
   \              0x001B       
   \                     ??Program_Set_VirtualKey_49: (+1)
   \   00000454   0x79E8             LDRB     R0,[R5, #+7]
   \   00000456   0xF040 0x0008      ORR      R0,R0,#0x8
   \   0000045A   0xE012             B.N      ??Program_Set_VirtualKey_50
   \                     ??Program_Set_VirtualKey_51: (+1)
   \   0000045C   0x79E8             LDRB     R0,[R5, #+7]
   \   0000045E   0xF040 0x0001      ORR      R0,R0,#0x1
   \   00000462   0xE00E             B.N      ??Program_Set_VirtualKey_50
   \                     ??Program_Set_VirtualKey_52: (+1)
   \   00000464   0x79E8             LDRB     R0,[R5, #+7]
   \   00000466   0xF040 0x0002      ORR      R0,R0,#0x2
   \   0000046A   0xE00A             B.N      ??Program_Set_VirtualKey_50
   \                     ??Program_Set_VirtualKey_53: (+1)
   \   0000046C   0x79E8             LDRB     R0,[R5, #+7]
   \   0000046E   0xF040 0x0004      ORR      R0,R0,#0x4
   \   00000472   0xE006             B.N      ??Program_Set_VirtualKey_50
   \                     ??Program_Set_VirtualKey_54: (+1)
   \   00000474   0x79E8             LDRB     R0,[R5, #+7]
   \   00000476   0xF040 0x0010      ORR      R0,R0,#0x10
   \   0000047A   0xE002             B.N      ??Program_Set_VirtualKey_50
   \                     ??Program_Set_VirtualKey_55: (+1)
   \   0000047C   0x79E8             LDRB     R0,[R5, #+7]
   \   0000047E   0xF040 0x0040      ORR      R0,R0,#0x40
   \                     ??Program_Set_VirtualKey_50: (+1)
   \   00000482   0x71E8             STRB     R0,[R5, #+7]
   \   00000484   0xE1B2             B.N      ??Program_Set_VirtualKey_10
    837                          break;
    838                        case SET_INCLINE:
    839                          if(TempKey>=VK_QK_INCLINE_0 && TempKey<=VK_QK_INCLINE_150)
   \                     ??Program_Set_VirtualKey_20: (+1)
   \   00000486   0xF1A7 0x0072      SUB      R0,R7,#+114
   \   0000048A   0x281F             CMP      R0,#+31
   \   0000048C   0xF080 0x81AE      BCS.W    ??Program_Set_VirtualKey_10
    840                          {
    841                            PrgKeyEvts.Bit_Flag.Key_QuickKey=true;
   \   00000490   0x.... 0x....      LDR.W    R0,??DataTable66
   \   00000494   0x6841             LDR      R1,[R0, #+4]
   \   00000496   0xF441 0x2100      ORR      R1,R1,#0x80000
   \   0000049A   0x6041             STR      R1,[R0, #+4]
    842                            TempKey=(TempKey-VK_QK_INCLINE_0)*5;
    843                            Data_Set_Incline(TempKey,0);
   \   0000049C   0xF1A7 0x0072      SUB      R0,R7,#+114
   \   000004A0   0xEB00 0x0080      ADD      R0,R0,R0, LSL #+2
   \   000004A4   0x2100             MOVS     R1,#+0
   \   000004A6   0xB2C0             UXTB     R0,R0
   \   000004A8   0xE19E             B.N      ??Program_Set_VirtualKey_56
    844                          }
    845                          break;
    846                        case SET_RESISTANCE:
    847                          if(TempKey>=VK_QK_RESISTACE_1 && TempKey<=VK_QK_RESISTACE_30)
   \                     ??Program_Set_VirtualKey_21: (+1)
   \   000004AA   0xF1A7 0x0054      SUB      R0,R7,#+84
   \   000004AE   0x281E             CMP      R0,#+30
   \   000004B0   0xF080 0x819C      BCS.W    ??Program_Set_VirtualKey_10
    848                          {
    849                            PrgKeyEvts.Bit_Flag.Key_QuickKey=true;
   \   000004B4   0x.... 0x....      LDR.W    R0,??DataTable66
   \   000004B8   0x6841             LDR      R1,[R0, #+4]
   \   000004BA   0xF441 0x2100      ORR      R1,R1,#0x80000
   \   000004BE   0x6041             STR      R1,[R0, #+4]
    850                            TempKey=TempKey-VK_QK_RESISTACE_1+1;
    851                            Data_Set_Resistance(TempKey,0);
   \   000004C0   0xF1A7 0x0053      SUB      R0,R7,#+83
   \   000004C4   0x2100             MOVS     R1,#+0
   \   000004C6   0xB2C0             UXTB     R0,R0
   \   000004C8   0xE16D             B.N      ??Program_Set_VirtualKey_57
    852                          }
    853                          break;
    854                        }	
    855                        break;
    856                      }
    857                  }
    858                  break;
    859                  case PS_WAIT_3S:
    860                  break;
    861                  case PS_PAUSED:
    862                  switch(TempKey)
   \                     ??Program_Set_VirtualKey_58: (+1)
   \   000004CA   0x2F01             CMP      R7,#+1
   \   000004CC   0xD004             BEQ.N    ??Program_Set_VirtualKey_59
   \   000004CE   0x2F98             CMP      R7,#+152
   \   000004D0   0xD043             BEQ.N    ??Program_Set_VirtualKey_60
   \   000004D2   0x2FA2             CMP      R7,#+162
   \   000004D4   0xF040 0x818A      BNE.W    ??Program_Set_VirtualKey_10
    863                  {
    864                      case VK_START:
    865                      case VK_PAUSE_START:
    866          //            if(SystemConfig_Get_Char(MACHINE_TYPE_UINT8)==TREADMILL)
    867          //            {
    868          //                if(Data_Get_RPM(MOTOR_RPM))
    869          //                {
    870          //                    Result=true;
    871          //                    break;
    872          //                }
    873          //            }
    874          //            LCB_Send_Cmd(DS_INC_LOCATION,Data_Get_Incline(TARGET_INCLINE_ADC));
    875          //#ifdef TM			
    876          //            LCB_Send_Cmd(DS_ECB_LOCATION,Data_Get_Resistance(TARGET_ECBCOUNT));
    877          //#else			
    878          //			ECB_Set_Resistance(Data_Get_Resistance(TARGET_RESISTANCE)); 
    879          //            ECB_Data_Updata();
    880          //#endif			
    881          //            LCB_Send_Cmd(DS_INDUCTION_PWM,Data_Get_Resistance(TARGET_PWM));
    882                      if(SystemConfig_Get_Char(MACHINE_TYPE_UINT8)==TREADMILL)
   \                     ??Program_Set_VirtualKey_59: (+1)
   \   000004D8   0x2003             MOVS     R0,#+3
   \   000004DA   0x.... 0x....      BL       SystemConfig_Get_Char
   \   000004DE   0xB920             CBNZ.N   R0,??Program_Set_VirtualKey_61
    883                      {
    884                          if(!RPM_Get_STOP())break;
                                     ^
Warning[Pe223]: function "RPM_Get_STOP" declared implicitly
   \   000004E0   0x.... 0x....      BL       RPM_Get_STOP
   \   000004E4   0x2800             CMP      R0,#+0
   \   000004E6   0xF000 0x8181      BEQ.W    ??Program_Set_VirtualKey_10
    885                      }
    886                      Speed_Set_Start(1);
   \                     ??Program_Set_VirtualKey_61: (+1)
   \   000004EA   0x2001             MOVS     R0,#+1
   \   000004EC   0x.... 0x....      BL       Speed_Set_Start
    887                      Speed_Step_Switch(1);
   \   000004F0   0x2001             MOVS     R0,#+1
   \   000004F2   0x.... 0x....      BL       Speed_Step_Switch
    888                      Speed_Set_Speed(Program_Get_Speed(DATA_AUTO,0));
   \   000004F6   0x7B28             LDRB     R0,[R5, #+12]
   \   000004F8   0x2803             CMP      R0,#+3
   \   000004FA   0xDA07             BGE.N    ??Program_Set_VirtualKey_62
   \   000004FC   0x....             LDR.N    R1,??DataTable55_2
   \   000004FE   0x7BAA             LDRB     R2,[R5, #+14]
   \   00000500   0xF851 0x1022      LDR      R1,[R1, R2, LSL #+2]
   \   00000504   0x6A89             LDR      R1,[R1, #+40]
   \   00000506   0x2003             MOVS     R0,#+3
   \   00000508   0x4788             BLX      R1
   \   0000050A   0xE01A             B.N      ??Program_Set_VirtualKey_63
   \                     ??Program_Set_VirtualKey_62: (+1)
   \   0000050C   0x2003             MOVS     R0,#+3
   \   0000050E   0x.... 0x....      BL       SystemConfig_Get_Char
   \   00000512   0x2800             CMP      R0,#+0
   \   00000514   0xBF0C             ITE      EQ 
   \   00000516   0x2008             MOVEQ    R0,#+8
   \   00000518   0x2002             MOVNE    R0,#+2
   \   0000051A   0x.... 0x....      BL       Data_Get_Speed
   \   0000051E   0x4606             MOV      R6,R0
   \   00000520   0x.... 0x....      BL       User_Get_UserSlot
   \   00000524   0x.... 0x....      BL       SystemConfig_Get_Display_Unit
   \   00000528   0x2801             CMP      R0,#+1
   \   0000052A   0xD107             BNE.N    ??Program_Set_VirtualKey_64
   \   0000052C   0x.... 0x....      LDR.W    R0,??DataTable72  ;; 0x311d0
   \   00000530   0x.... 0x....      LDR.W    R1,??DataTable72_1  ;; 0x1e848
   \   00000534   0x4370             MULS     R0,R0,R6
   \   00000536   0xFBB0 0xF0F1      UDIV     R0,R0,R1
   \   0000053A   0x1C86             ADDS     R6,R0,#+2
   \                     ??Program_Set_VirtualKey_64: (+1)
   \   0000053C   0x2064             MOVS     R0,#+100
   \   0000053E   0xFBB6 0xF0F0      UDIV     R0,R6,R0
   \                     ??Program_Set_VirtualKey_63: (+1)
   \   00000542   0xB2C0             UXTB     R0,R0
   \   00000544   0x.... 0x....      BL       Speed_Set_Speed
    889                  
    890                      Program_NextStatus(PS_RESTART_321);
   \   00000548   0x2004             MOVS     R0,#+4
   \                     ??Program_Set_VirtualKey_48: (+1)
   \   0000054A   0x7328             STRB     R0,[R5, #+12]
    891          //            Result=true;
    892                      break;
   \   0000054C   0xE14E             B.N      ??Program_Set_VirtualKey_10
    893                      case VK_CHANGE_DISPLAY: 
    894                      PrgKeyEvts.Bit_Flag.Key_ChangeDisplay=true;
    895                      Result=true;
    896                      break;
    897                      default:
    898                      break;
    899                  }
    900                  break;
    901                  case PS_COMPLETED:
    902                  switch(TempKey)
   \                     ??Program_Set_VirtualKey_65: (+1)
   \   0000054E   0x2F98             CMP      R7,#+152
   \   00000550   0xD003             BEQ.N    ??Program_Set_VirtualKey_60
   \   00000552   0x2FA3             CMP      R7,#+163
   \   00000554   0xF000 0x80C6      BEQ.W    ??Program_Set_VirtualKey_66
   \   00000558   0xE148             B.N      ??Program_Set_VirtualKey_10
    903                  {
    904                      case VK_CHANGE_DISPLAY: 
    905                      PrgKeyEvts.Bit_Flag.Key_ChangeDisplay=true;
   \                     ??Program_Set_VirtualKey_60: (+1)
   \   0000055A   0x.... 0x....      LDR.W    R0,??DataTable66
   \   0000055E   0x6841             LDR      R1,[R0, #+4]
   \   00000560   0xF441 0x4100      ORR      R1,R1,#0x8000
   \   00000564   0xE0B4             B.N      ??Program_Set_VirtualKey_67
    906                      Result=true;
    907                      break;
    908                      case VK_ENTER_CHANGEDIS:
    909                      if(NumberKey_Data.Events.Bit.Spd || NumberKey_Data.Events.Bit.Res)
    910                      {
    911                          PrgKeyEvts.Bit_Flag.Key_Enter=true;
    912                      }
    913                      else
    914                      {
    915                          PrgKeyEvts.Bit_Flag.Key_ChangeDisplay=true;
    916                      }
    917                      break;
    918                      default:
    919                      break;
    920                  }
    921                  break;
    922                  case PS_WARMUP:
    923                  case PS_RUN:
    924                  case PS_COOLDOWN:
    925                  switch(TempKey)
   \                     ??Program_Set_VirtualKey_68: (+1)
   \   00000566   0x1EF8             SUBS     R0,R7,#+3
   \   00000568   0xF000 0x80AB      BEQ.W    ??Program_Set_VirtualKey_69
   \   0000056C   0x1E80             SUBS     R0,R0,#+2
   \   0000056E   0xF000 0x808E      BEQ.W    ??Program_Set_VirtualKey_70
   \   00000572   0x380A             SUBS     R0,R0,#+10
   \   00000574   0xD067             BEQ.N    ??Program_Set_VirtualKey_71
   \   00000576   0x1E40             SUBS     R0,R0,#+1
   \   00000578   0xD06D             BEQ.N    ??Program_Set_VirtualKey_72
   \   0000057A   0x1E40             SUBS     R0,R0,#+1
   \   0000057C   0xD053             BEQ.N    ??Program_Set_VirtualKey_73
   \   0000057E   0x1E40             SUBS     R0,R0,#+1
   \   00000580   0xD059             BEQ.N    ??Program_Set_VirtualKey_74
   \   00000582   0x1E40             SUBS     R0,R0,#+1
   \   00000584   0xD06F             BEQ.N    ??Program_Set_VirtualKey_75
   \   00000586   0x1E40             SUBS     R0,R0,#+1
   \   00000588   0xD073             BEQ.N    ??Program_Set_VirtualKey_76
   \   0000058A   0x3816             SUBS     R0,R0,#+22
   \   0000058C   0x2809             CMP      R0,#+9
   \   0000058E   0xF240 0x80B6      BLS.W    ??Program_Set_VirtualKey_77
   \   00000592   0x386E             SUBS     R0,R0,#+110
   \   00000594   0xF000 0x809F      BEQ.W    ??Program_Set_VirtualKey_78
   \   00000598   0x380A             SUBS     R0,R0,#+10
   \   0000059A   0xD078             BEQ.N    ??Program_Set_VirtualKey_70
   \   0000059C   0x1E40             SUBS     R0,R0,#+1
   \   0000059E   0xF000 0x80A1      BEQ.W    ??Program_Set_VirtualKey_66
   \   000005A2   0x1E40             SUBS     R0,R0,#+1
   \   000005A4   0xD002             BEQ.N    ??Program_Set_VirtualKey_79
   \   000005A6   0x1E40             SUBS     R0,R0,#+1
   \   000005A8   0xD03B             BEQ.N    ??Program_Set_VirtualKey_80
   \   000005AA   0xE0BF             B.N      ??Program_Set_VirtualKey_81
    926                  {
    927                      case VK_SPEEDUP_LONG_PRESS:
    928                      if(SystemConfig_Get_Display_Unit(User_Get_UserSlot( ))==METRIC)
   \                     ??Program_Set_VirtualKey_79: (+1)
   \   000005AC   0x.... 0x....      BL       User_Get_UserSlot
   \   000005B0   0x.... 0x....      BL       SystemConfig_Get_Display_Unit
   \   000005B4   0x2801             CMP      R0,#+1
   \   000005B6   0x7E28             LDRB     R0,[R5, #+24]
   \   000005B8   0xD115             BNE.N    ??Program_Set_VirtualKey_82
    929                      {
    930                          if(PrgSpecialFunctionData.LessOneMileCounter<15)
   \   000005BA   0x280F             CMP      R0,#+15
   \   000005BC   0xF280 0x8116      BGE.W    ??Program_Set_VirtualKey_10
    931                          {
    932                              PrgSpecialFunctionData.LessOneMileCounter++;
   \   000005C0   0x1C40             ADDS     R0,R0,#+1
   \   000005C2   0x7628             STRB     R0,[R5, #+24]
    933                              if(Program_Get_ProgramID() != PS_CUSTOM_TIME && Program_Get_ProgramID() != PS_CUSTOM_DISTANCE && Program_Get_ProgramID() != PS_MYFIRST5K)
   \   000005C4   0x6B29             LDR      R1,[R5, #+48]
   \   000005C6   0x7BE8             LDRB     R0,[R5, #+15]
   \   000005C8   0x6809             LDR      R1,[R1, #+0]
   \   000005CA   0x0100             LSLS     R0,R0,#+4
   \   000005CC   0x5C08             LDRB     R0,[R1, R0]
   \   000005CE   0x2807             CMP      R0,#+7
   \   000005D0   0xBF1C             ITT      NE 
   \   000005D2   0x2810             CMPNE    R0,#+16
   \   000005D4   0x280C             CMPNE    R0,#+12
   \   000005D6   0xD004             BEQ.N    ??Program_Set_VirtualKey_83
    934                                  Data_Set_Speed_Base_User(Data_Get_Speed(TARGET_SPEEDX10_KPH)+1,1);
   \   000005D8   0x2007             MOVS     R0,#+7
   \   000005DA   0x.... 0x....      BL       Data_Get_Speed
   \   000005DE   0x2101             MOVS     R1,#+1
   \   000005E0   0xE019             B.N      ??Program_Set_VirtualKey_84
    935                              else
    936                                  Data_Set_Speed_Base_User(Data_Get_Speed(TARGET_SPEEDX10_KPH)+1,0);
   \                     ??Program_Set_VirtualKey_83: (+1)
   \   000005E2   0x2007             MOVS     R0,#+7
   \   000005E4   0xE014             B.N      ??Program_Set_VirtualKey_85
    937                                          ProgramArray[proCurrentIndex]->Prg_RunData(INDEX_SPEED);
    938                     		//Data_Set_Speed(Data_Get_Speed(TARGET_SPEEDX10_KPH)+1,DATA_METRIC,1);
    939                          }
    940                      }
    941                      else
    942                      {
    943                          if(PrgSpecialFunctionData.LessOneMileCounter<9)
   \                     ??Program_Set_VirtualKey_82: (+1)
   \   000005E6   0x2809             CMP      R0,#+9
   \   000005E8   0xF280 0x8100      BGE.W    ??Program_Set_VirtualKey_10
    944                          {
    945                              PrgSpecialFunctionData.LessOneMileCounter++;
   \   000005EC   0x1C40             ADDS     R0,R0,#+1
   \   000005EE   0x7628             STRB     R0,[R5, #+24]
    946                              if(Program_Get_ProgramID() != PS_CUSTOM_TIME && Program_Get_ProgramID() != PS_CUSTOM_DISTANCE && Program_Get_ProgramID() != PS_MYFIRST5K)
   \   000005F0   0x6B29             LDR      R1,[R5, #+48]
   \   000005F2   0x7BE8             LDRB     R0,[R5, #+15]
   \   000005F4   0x6809             LDR      R1,[R1, #+0]
   \   000005F6   0x0100             LSLS     R0,R0,#+4
   \   000005F8   0x5C08             LDRB     R0,[R1, R0]
   \   000005FA   0x2807             CMP      R0,#+7
   \   000005FC   0xBF1C             ITT      NE 
   \   000005FE   0x2810             CMPNE    R0,#+16
   \   00000600   0x280C             CMPNE    R0,#+12
   \   00000602   0xD004             BEQ.N    ??Program_Set_VirtualKey_86
    947                                  Data_Set_Speed_Base_User(Data_Get_Speed(TARGET_SPEEDX10_MPH)+1,1);
   \   00000604   0x2006             MOVS     R0,#+6
   \   00000606   0x.... 0x....      BL       Data_Get_Speed
   \   0000060A   0x2101             MOVS     R1,#+1
   \   0000060C   0xE003             B.N      ??Program_Set_VirtualKey_84
    948                              else
    949                                  Data_Set_Speed_Base_User(Data_Get_Speed(TARGET_SPEEDX10_MPH)+1,0);
   \                     ??Program_Set_VirtualKey_86: (+1)
   \   0000060E   0x2006             MOVS     R0,#+6
   \                     ??Program_Set_VirtualKey_85: (+1)
   \   00000610   0x.... 0x....      BL       Data_Get_Speed
   \   00000614   0x2100             MOVS     R1,#+0
   \                     ??Program_Set_VirtualKey_84: (+1)
   \   00000616   0x1C40             ADDS     R0,R0,#+1
   \   00000618   0xB280             UXTH     R0,R0
   \   0000061A   0x.... 0x....      BL       Data_Set_Speed_Base_User
    950                              ProgramArray[proCurrentIndex]->Prg_RunData(INDEX_SPEED);
   \   0000061E   0x2003             MOVS     R0,#+3
   \   00000620   0xE02E             B.N      ??Program_Set_VirtualKey_87
    951                            //  Data_Set_Speed(Data_Get_Speed(TARGET_SPEEDX10_MPH)+1,STANDARD,1);
    952                          }
    953                      }
    954                      break;
    955                      case VK_SPEEDUP_RElEASE:
    956                      PrgSpecialFunctionData.LessOneMileCounter=0;
   \                     ??Program_Set_VirtualKey_80: (+1)
   \   00000622   0x7628             STRB     R0,[R5, #+24]
    957                      break;      
   \   00000624   0xE0E2             B.N      ??Program_Set_VirtualKey_10
    958                      case VK_INCLINEUP:
    959                      PrgKeyEvts.Bit_Flag.Key_InclineUp=true;
   \                     ??Program_Set_VirtualKey_73: (+1)
   \   00000626   0x.... 0x....      LDR.W    R0,??DataTable66
   \   0000062A   0x6841             LDR      R1,[R0, #+4]
   \   0000062C   0xF041 0x0180      ORR      R1,R1,#0x80
   \   00000630   0x6041             STR      R1,[R0, #+4]
    960                      ProgramArray[proCurrentIndex]->Prg_RunData(INDEX_INCLINE);
   \   00000632   0x2002             MOVS     R0,#+2
   \   00000634   0xE024             B.N      ??Program_Set_VirtualKey_87
    961                      break;
    962                      case VK_INCLINEDOWN:
    963                      PrgKeyEvts.Bit_Flag.Key_InclineDn=true;
   \                     ??Program_Set_VirtualKey_74: (+1)
   \   00000636   0x.... 0x....      LDR.W    R0,??DataTable66
   \   0000063A   0x6841             LDR      R1,[R0, #+4]
   \   0000063C   0xF441 0x7180      ORR      R1,R1,#0x100
   \   00000640   0x6041             STR      R1,[R0, #+4]
    964                      ProgramArray[proCurrentIndex]->Prg_RunData(INDEX_INCLINE);
   \   00000642   0x2002             MOVS     R0,#+2
   \   00000644   0xE01C             B.N      ??Program_Set_VirtualKey_87
    965                      break;
    966                      case VK_SPEEDUP:
    967                      PrgKeyEvts.Bit_Flag.Key_SpeedUp=true;
   \                     ??Program_Set_VirtualKey_71: (+1)
   \   00000646   0x.... 0x....      LDR.W    R0,??DataTable66
   \   0000064A   0x6841             LDR      R1,[R0, #+4]
   \   0000064C   0xF041 0x0120      ORR      R1,R1,#0x20
   \   00000650   0x6041             STR      R1,[R0, #+4]
    968                      ProgramArray[proCurrentIndex]->Prg_RunData(INDEX_SPEED);
   \   00000652   0x2003             MOVS     R0,#+3
   \   00000654   0xE014             B.N      ??Program_Set_VirtualKey_87
    969                      break;
    970                      case VK_SPEEDDOWN:
    971                      PrgKeyEvts.Bit_Flag.Key_SpeedDn=true;
   \                     ??Program_Set_VirtualKey_72: (+1)
   \   00000656   0x.... 0x....      LDR.W    R0,??DataTable66
   \   0000065A   0x6841             LDR      R1,[R0, #+4]
   \   0000065C   0xF041 0x0140      ORR      R1,R1,#0x40
   \   00000660   0x6041             STR      R1,[R0, #+4]
    972                      ProgramArray[proCurrentIndex]->Prg_RunData(INDEX_SPEED);
   \   00000662   0x2003             MOVS     R0,#+3
   \   00000664   0xE00C             B.N      ??Program_Set_VirtualKey_87
    973                      break;
    974                      case VK_RESISTANCEUP:
    975                      PrgKeyEvts.Bit_Flag.Key_ResistanceUp=true;
   \                     ??Program_Set_VirtualKey_75: (+1)
   \   00000666   0x.... 0x....      LDR.W    R0,??DataTable66
   \   0000066A   0x6841             LDR      R1,[R0, #+4]
   \   0000066C   0xF441 0x7100      ORR      R1,R1,#0x200
   \   00000670   0xE004             B.N      ??Program_Set_VirtualKey_88
    976                      ProgramArray[proCurrentIndex]->Prg_RunData(INDEX_RESISTANCE);
    977                      break;
    978                      case VK_RESISTANCEDOWN:
    979                      PrgKeyEvts.Bit_Flag.Key_ResistanceDn=true;
   \                     ??Program_Set_VirtualKey_76: (+1)
   \   00000672   0x.... 0x....      LDR.W    R0,??DataTable66
   \   00000676   0x6841             LDR      R1,[R0, #+4]
   \   00000678   0xF441 0x6180      ORR      R1,R1,#0x400
   \                     ??Program_Set_VirtualKey_88: (+1)
   \   0000067C   0x6041             STR      R1,[R0, #+4]
    980                      ProgramArray[proCurrentIndex]->Prg_RunData(INDEX_RESISTANCE);
   \   0000067E   0x2004             MOVS     R0,#+4
   \                     ??Program_Set_VirtualKey_87: (+1)
   \   00000680   0x....             LDR.N    R1,??DataTable55_2
   \   00000682   0x7BAA             LDRB     R2,[R5, #+14]
   \   00000684   0xF851 0x1022      LDR      R1,[R1, R2, LSL #+2]
   \   00000688   0x6AC9             LDR      R1,[R1, #+44]
   \   0000068A   0x4788             BLX      R1
    981                      break;
   \   0000068C   0xE0AE             B.N      ??Program_Set_VirtualKey_10
    982                      case VK_PAUSE_START:
    983                      case VK_PAUSE: 
    984                      Incline_Set_CountActive(0);//2010-5-19
   \                     ??Program_Set_VirtualKey_70: (+1)
   \   0000068E   0x2000             MOVS     R0,#+0
   \   00000690   0x.... 0x....      BL       Incline_Set_CountActive
    985                      Incline_Set_Pause(1);
   \   00000694   0x2001             MOVS     R0,#+1
   \   00000696   0x.... 0x....      BL       Incline_Set_Pause
    986                      HW_Incline_Set_Stop();
   \   0000069A   0x.... 0x....      BL       HW_Incline_Set_Stop
    987                      Speed_Step_Switch(0);
   \   0000069E   0x2000             MOVS     R0,#+0
   \   000006A0   0x.... 0x....      BL       Speed_Step_Switch
    988                      Speed_Set_Start(0);
   \   000006A4   0x2000             MOVS     R0,#+0
   \   000006A6   0x.... 0x....      BL       Speed_Set_Start
    989                      Prg_isr_TimerCounterClear(TIMER_5S_PedalStart);
   \   000006AA   0x.... 0x....      LDR.W    R0,??DataTable67
   \   000006AE   0x2100             MOVS     R1,#+0
   \   000006B0   0x8001             STRH     R1,[R0, #+0]
   \   000006B2   0x2101             MOVS     R1,#+1
   \   000006B4   0x7701             STRB     R1,[R0, #+28]
    990                      PrgKeyEvts.Bit_Flag.Key_Pause=true;
   \   000006B6   0x.... 0x....      LDR.W    R0,??DataTable66
   \   000006BA   0x6841             LDR      R1,[R0, #+4]
   \   000006BC   0xF441 0x5100      ORR      R1,R1,#0x2000
   \   000006C0   0xE006             B.N      ??Program_Set_VirtualKey_67
    991                      Result=true;
    992                      break;
    993                      case VK_COOLDOWN: 
    994                      Program_NextStatus(PS_COOLDOWN);
   \                     ??Program_Set_VirtualKey_69: (+1)
   \   000006C2   0x2009             MOVS     R0,#+9
   \   000006C4   0x7328             STRB     R0,[R5, #+12]
    995                      PrgKeyEvts.Bit_Flag.Key_CoolDn=true;
   \   000006C6   0x.... 0x....      LDR.W    R0,??DataTable66
   \   000006CA   0x6841             LDR      R1,[R0, #+4]
   \   000006CC   0xF441 0x6100      ORR      R1,R1,#0x800
   \                     ??Program_Set_VirtualKey_67: (+1)
   \   000006D0   0x6041             STR      R1,[R0, #+4]
    996                      Result=true;
   \                     ??Program_Set_VirtualKey_41: (+1)
   \   000006D2   0x2401             MOVS     R4,#+1
    997                      break;
   \   000006D4   0xE08A             B.N      ??Program_Set_VirtualKey_10
    998                      case VK_CHANGE_DISPLAY: 
    999                      PrgKeyEvts.Bit_Flag.Key_ChangeDisplay=true;
   \                     ??Program_Set_VirtualKey_78: (+1)
   \   000006D6   0x.... 0x....      LDR.W    R0,??DataTable66
   \   000006DA   0x6841             LDR      R1,[R0, #+4]
   \   000006DC   0xF441 0x4100      ORR      R1,R1,#0x8000
   \   000006E0   0x6041             STR      R1,[R0, #+4]
   1000                      Result=true;
   \   000006E2   0x2401             MOVS     R4,#+1
   1001                      case VK_ENTER_CHANGEDIS:
   1002                      if(NumberKey_Data.Events.Bit.Spd || NumberKey_Data.Events.Bit.Res)
   \                     ??Program_Set_VirtualKey_66: (+1)
   \   000006E4   0x.... 0x....      LDR.W    R0,??DataTable66
   \   000006E8   0x79EA             LDRB     R2,[R5, #+7]
   \   000006EA   0x6841             LDR      R1,[R0, #+4]
   \   000006EC   0x2305             MOVS     R3,#+5
   \   000006EE   0x421A             TST      R2,R3
   \   000006F0   0xBF14             ITE      NE 
   \   000006F2   0xF041 0x0108      ORRNE    R1,R1,#0x8
   \   000006F6   0xF441 0x4100      ORREQ    R1,R1,#0x8000
   1003                      {
   1004                          PrgKeyEvts.Bit_Flag.Key_Enter=true;
   1005                      }
   1006                      else
   1007                      {
   1008                          PrgKeyEvts.Bit_Flag.Key_ChangeDisplay=true;
   \                     ??Program_Set_VirtualKey_47: (+1)
   \   000006FA   0x6041             STR      R1,[R0, #+4]
   \   000006FC   0xE076             B.N      ??Program_Set_VirtualKey_10
   1009                      }
   1010                      break;
   1011                      break;
   1012          //            case VK_SCAN: 
   1013          //            PrgActionFlag.ScanMode=true;
   1014          //            Prg_isr_TimerCounterClear(TIMER_ScanFunction);	
   1015          //            Result=true;
   1016          //            break;
   1017                      case VK_NUM0:
   1018                      case VK_NUM1:
   1019                      case VK_NUM2:
   1020                      case VK_NUM3:
   1021                      case VK_NUM4:
   1022                      case VK_NUM5:
   1023                      case VK_NUM6:
   1024                      case VK_NUM7:
   1025                      case VK_NUM8:
   1026                      case VK_NUM9:
   1027                      PrgKeyEvts.Bit_Flag.Key_NumberKey=true;
   \                     ??Program_Set_VirtualKey_77: (+1)
   \   000006FE   0x.... 0x....      LDR.W    R0,??DataTable66
   \   00000702   0x6841             LDR      R1,[R0, #+4]
   \   00000704   0xF441 0x3180      ORR      R1,R1,#0x10000
   \   00000708   0x6041             STR      R1,[R0, #+4]
   1028                      NumberKey_Data.InputValue = TempKey - VK_NUM0;
   \   0000070A   0xF1A7 0x002A      SUB      R0,R7,#+42
   \   0000070E   0x8028             STRH     R0,[R5, #+0]
   1029                      if(SystemConfig_Get_Char(MACHINE_TYPE_UINT8)==TREADMILL)
   \   00000710   0x2003             MOVS     R0,#+3
   \   00000712   0x.... 0x....      BL       SystemConfig_Get_Char
   \   00000716   0x2800             CMP      R0,#+0
   \   00000718   0x79E8             LDRB     R0,[R5, #+7]
   \   0000071A   0xBF0C             ITE      EQ 
   \   0000071C   0xF040 0x0001      ORREQ    R0,R0,#0x1
   \   00000720   0xF040 0x0004      ORRNE    R0,R0,#0x4
   1030                      {
   1031                          NumberKey_Data.Events.Bit.Spd=1;
   1032                      }
   1033                      else
   1034                      {
   1035                          NumberKey_Data.Events.Bit.Res=1;
   \   00000724   0x71E8             STRB     R0,[R5, #+7]
   1036                      }
   1037                      NumberKey_Data.Timer_Counter = 0 ;
   \   00000726   0x2000             MOVS     R0,#+0
   \   00000728   0x80A8             STRH     R0,[R5, #+4]
   1038                      break;
   \   0000072A   0xE05F             B.N      ??Program_Set_VirtualKey_10
   1039                      default:
   1040          			if(TempKey>=VK_QK_SPEED1 && TempKey<=VK_QK_SPEED20)
   \                     ??Program_Set_VirtualKey_81: (+1)
   \   0000072C   0xF1A7 0x0040      SUB      R0,R7,#+64
   \   00000730   0x2814             CMP      R0,#+20
   \   00000732   0xD21D             BCS.N    ??Program_Set_VirtualKey_89
   1041          	  		{
   1042                          PrgKeyEvts.Bit_Flag.Key_SPDQuickKey=true;
   \   00000734   0x.... 0x....      LDR.W    R0,??DataTable66
   \   00000738   0x6841             LDR      R1,[R0, #+4]
   \   0000073A   0xF441 0x1180      ORR      R1,R1,#0x100000
   \   0000073E   0x6041             STR      R1,[R0, #+4]
   1043          		  		TempKey=(TempKey-VK_QK_SPEED1+1)*10;
   \   00000740   0xF1A7 0x003F      SUB      R0,R7,#+63
   \   00000744   0xEB00 0x0180      ADD      R1,R0,R0, LSL #+2
   1044                          if(Program_Get_ProgramID() != PS_CUSTOM_TIME && Program_Get_ProgramID() != PS_CUSTOM_DISTANCE && Program_Get_ProgramID() != PS_MYFIRST5K)
   \   00000748   0x7BE8             LDRB     R0,[R5, #+15]
   \   0000074A   0x0100             LSLS     R0,R0,#+4
   \   0000074C   0x004F             LSLS     R7,R1,#+1
   \   0000074E   0x6B29             LDR      R1,[R5, #+48]
   \   00000750   0x6809             LDR      R1,[R1, #+0]
   \   00000752   0x5C08             LDRB     R0,[R1, R0]
   \   00000754   0x2807             CMP      R0,#+7
   \   00000756   0xBF18             IT       NE 
   \   00000758   0x2810             CMPNE    R0,#+16
   \   0000075A   0xB2FF             UXTB     R7,R7
   \   0000075C   0xD003             BEQ.N    ??Program_Set_VirtualKey_90
   \   0000075E   0x280C             CMP      R0,#+12
   \   00000760   0xBF18             IT       NE 
   \   00000762   0x2101             MOVNE    R1,#+1
   1045                              Data_Set_Speed_Base_User(TempKey,1);
   \   00000764   0xD100             BNE.N    ??Program_Set_VirtualKey_91
   1046                          else
   1047                              Data_Set_Speed_Base_User(TempKey,0);
   \                     ??Program_Set_VirtualKey_90: (+1)
   \   00000766   0x2100             MOVS     R1,#+0
   \                     ??Program_Set_VirtualKey_91: (+1)
   \   00000768   0x4638             MOV      R0,R7
   \                     ??Program_Set_VirtualKey_22: (+1)
   \   0000076A   0x.... 0x....      BL       Data_Set_Speed_Base_User
   \   0000076E   0xE03D             B.N      ??Program_Set_VirtualKey_10
   1048                      }
   1049          			else if(TempKey>=VK_QK_RESISTACE_1 && TempKey<=VK_QK_RESISTACE_30)
   \                     ??Program_Set_VirtualKey_89: (+1)
   \   00000770   0xF1A7 0x0054      SUB      R0,R7,#+84
   \   00000774   0x281E             CMP      R0,#+30
   \   00000776   0xD219             BCS.N    ??Program_Set_VirtualKey_92
   1050          			{
   1051                          PrgKeyEvts.Bit_Flag.Key_RESQuickKey=true;
   \   00000778   0x.... 0x....      LDR.W    R0,??DataTable66
   \   0000077C   0x6841             LDR      R1,[R0, #+4]
   \   0000077E   0xF441 0x0180      ORR      R1,R1,#0x400000
   \   00000782   0x6041             STR      R1,[R0, #+4]
   1052          				TempKey=TempKey-VK_QK_RESISTACE_1+1;
   \   00000784   0x3F53             SUBS     R7,R7,#+83
   1053                          if(Program_Get_ProgramID() != PS_CUSTOM_TIME && Program_Get_ProgramID() != PS_CUSTOM_DISTANCE && Program_Get_ProgramID() != PS_MYFIRST5K)
   \   00000786   0x6B29             LDR      R1,[R5, #+48]
   \   00000788   0x7BE8             LDRB     R0,[R5, #+15]
   \   0000078A   0x6809             LDR      R1,[R1, #+0]
   \   0000078C   0x0100             LSLS     R0,R0,#+4
   \   0000078E   0xB2FF             UXTB     R7,R7
   \   00000790   0x5C08             LDRB     R0,[R1, R0]
   \   00000792   0x2807             CMP      R0,#+7
   \   00000794   0xBF18             IT       NE 
   \   00000796   0x2810             CMPNE    R0,#+16
   \   00000798   0xD003             BEQ.N    ??Program_Set_VirtualKey_93
   \   0000079A   0x280C             CMP      R0,#+12
   \   0000079C   0xBF18             IT       NE 
   \   0000079E   0x2101             MOVNE    R1,#+1
   1054                              Data_Set_Resistance(TempKey,1);
   \   000007A0   0xD100             BNE.N    ??Program_Set_VirtualKey_94
   1055                          else
   1056                              Data_Set_Resistance(TempKey,0);
   \                     ??Program_Set_VirtualKey_93: (+1)
   \   000007A2   0x2100             MOVS     R1,#+0
   \                     ??Program_Set_VirtualKey_94: (+1)
   \   000007A4   0x4638             MOV      R0,R7
   \                     ??Program_Set_VirtualKey_57: (+1)
   \   000007A6   0x.... 0x....      BL       Data_Set_Resistance
   \   000007AA   0xE01F             B.N      ??Program_Set_VirtualKey_10
   1057          			}
   1058          			else if(TempKey>=VK_QK_INCLINE_0 && TempKey<=VK_QK_INCLINE_150)
   \                     ??Program_Set_VirtualKey_92: (+1)
   \   000007AC   0xF1A7 0x0072      SUB      R0,R7,#+114
   \   000007B0   0x281F             CMP      R0,#+31
   \   000007B2   0xD21B             BCS.N    ??Program_Set_VirtualKey_10
   1059          			{
   1060                          PrgKeyEvts.Bit_Flag.Key_INCQuickKey=true;
   \   000007B4   0x.... 0x....      LDR.W    R0,??DataTable66
   \   000007B8   0x6841             LDR      R1,[R0, #+4]
   \   000007BA   0xF441 0x1100      ORR      R1,R1,#0x200000
   \   000007BE   0x6041             STR      R1,[R0, #+4]
   1061          				TempKey=(TempKey-VK_QK_INCLINE_0)*5;
   \   000007C0   0xF1A7 0x0072      SUB      R0,R7,#+114
   1062                          if(Program_Get_ProgramID() != PS_CUSTOM_TIME && Program_Get_ProgramID() != PS_CUSTOM_DISTANCE && Program_Get_ProgramID() != PS_MYFIRST5K)
   \   000007C4   0x6B29             LDR      R1,[R5, #+48]
   \   000007C6   0x6809             LDR      R1,[R1, #+0]
   \   000007C8   0xEB00 0x0780      ADD      R7,R0,R0, LSL #+2
   \   000007CC   0x7BE8             LDRB     R0,[R5, #+15]
   \   000007CE   0x0100             LSLS     R0,R0,#+4
   \   000007D0   0xB2FF             UXTB     R7,R7
   \   000007D2   0x5C08             LDRB     R0,[R1, R0]
   \   000007D4   0x2807             CMP      R0,#+7
   \   000007D6   0xBF18             IT       NE 
   \   000007D8   0x2810             CMPNE    R0,#+16
   \   000007DA   0xD003             BEQ.N    ??Program_Set_VirtualKey_95
   \   000007DC   0x280C             CMP      R0,#+12
   \   000007DE   0xBF18             IT       NE 
   \   000007E0   0x2101             MOVNE    R1,#+1
   1063                              Data_Set_Incline(TempKey,1);
   \   000007E2   0xD100             BNE.N    ??Program_Set_VirtualKey_96
   1064                          else
   1065                              Data_Set_Incline(TempKey,0);
   \                     ??Program_Set_VirtualKey_95: (+1)
   \   000007E4   0x2100             MOVS     R1,#+0
   \                     ??Program_Set_VirtualKey_96: (+1)
   \   000007E6   0x4638             MOV      R0,R7
   \                     ??Program_Set_VirtualKey_56: (+1)
   \   000007E8   0x.... 0x....      BL       Data_Set_Incline
   1066          			}
   1067                      break;
   1068                  }
   1069                  break;
   1070              }	
   1071              return Result;
   \                     ??Program_Set_VirtualKey_10: (+1)
   \   000007EC   0x4620             MOV      R0,R4
   \   000007EE   0xF50D 0x6DA7      ADD      SP,SP,#+1336
   \   000007F2   0xE8BD 0x88F0      POP      {R4-R7,R11,PC}   ;; return
   1072          }
   1073          /***************************************************************************//**
   1074          * @brief
   1075          * 此函数用于设置参数
   1076          * @param[in]：
   1077          vrKey：参数索引
   1078          *p：设置的值
   1079          * @param[out]：none
   1080          ******************************************************************************/
   1081          

   \                                 In section .text, align 2, keep-with-next
   1082          void Program_Set_Parameter(UINT16 vrKey,void *p)
   1083          {
   \                     Program_Set_Parameter: (+1)
   \   00000000   0xB538             PUSH     {R3-R5,LR}
   \   00000002   0x460D             MOV      R5,R1
   1084              UINT16 ret=0;
   \   00000004   0x2100             MOVS     R1,#+0
   1085              switch(vrKey)
   \   00000006   0x2834             CMP      R0,#+52
   \   00000008   0xF8AD 0x1000      STRH     R1,[SP, #+0]
   \   0000000C   0xF000 0x808B      BEQ.W    ??Program_Set_Parameter_0
   \   00000010   0x2835             CMP      R0,#+53
   \   00000012   0xF000 0x80A4      BEQ.W    ??Program_Set_Parameter_1
   \   00000016   0x2836             CMP      R0,#+54
   \   00000018   0xF000 0x80FE      BEQ.W    ??Program_Set_Parameter_2
   \   0000001C   0x2837             CMP      R0,#+55
   \   0000001E   0xF000 0x811D      BEQ.W    ??Program_Set_Parameter_3
   \   00000022   0x2838             CMP      R0,#+56
   \   00000024   0xF000 0x8147      BEQ.W    ??Program_Set_Parameter_4
   \   00000028   0x2839             CMP      R0,#+57
   \   0000002A   0xF000 0x8161      BEQ.W    ??Program_Set_Parameter_5
   \   0000002E   0x283A             CMP      R0,#+58
   \   00000030   0xF000 0x8192      BEQ.W    ??Program_Set_Parameter_6
   \   00000034   0x283B             CMP      R0,#+59
   \   00000036   0xF000 0x819A      BEQ.W    ??Program_Set_Parameter_7
   \   0000003A   0x283C             CMP      R0,#+60
   \   0000003C   0xF000 0x81AA      BEQ.W    ??Program_Set_Parameter_8
   \   00000040   0x2891             CMP      R0,#+145
   \   00000042   0xF000 0x80DE      BEQ.W    ??Program_Set_Parameter_9
   \   00000046   0x2892             CMP      R0,#+146
   \   00000048   0xD006             BEQ.N    ??Program_Set_Parameter_10
   \   0000004A   0x2893             CMP      R0,#+147
   \   0000004C   0xD031             BEQ.N    ??Program_Set_Parameter_11
   \   0000004E   0x2894             CMP      R0,#+148
   \   00000050   0xD03E             BEQ.N    ??Program_Set_Parameter_12
   \   00000052   0x2895             CMP      R0,#+149
   \   00000054   0xD051             BEQ.N    ??Program_Set_Parameter_13
   \   00000056   0xBD31             POP      {R0,R4,R5,PC}
   1086              {
   1087                  case VK_SET_WORKOUT_TIME:
   1088                  {
   1089                      memcpy((void*)&(ret),p,sizeof(UINT16));
   \                     ??Program_Set_Parameter_10: (+1)
   \   00000058   0x7829             LDRB     R1,[R5, #+0]
   1090          			//ret = *((UINT16*))p;
   1091                    //  UINT16 ElapsedTime = Data_Get_Time(ELAPSED_TIME);
   1092                      if(Program_Get_ProgramID() == PS_MANUAL)
   \   0000005A   0x.... 0x....      LDR.W    R4,??DataTable64
   \   0000005E   0x7BE0             LDRB     R0,[R4, #+15]
   \   00000060   0xF88D 0x1000      STRB     R1,[SP, #+0]
   \   00000064   0x0100             LSLS     R0,R0,#+4
   \   00000066   0x7869             LDRB     R1,[R5, #+1]
   \   00000068   0xF88D 0x1001      STRB     R1,[SP, #+1]
   \   0000006C   0x6B21             LDR      R1,[R4, #+48]
   \   0000006E   0x6809             LDR      R1,[R1, #+0]
   \   00000070   0x5C08             LDRB     R0,[R1, R0]
   \   00000072   0x0001             MOVS     R1,R0
   \   00000074   0xD110             BNE.N    ??Program_Set_Parameter_14
   1093                      {
   1094                          extern UINT8 appStart;    //zsf
   1095                          if(appStart == 0)    //zsf
   \   00000076   0x....             LDR.N    R0,??DataTable57
   \   00000078   0x7800             LDRB     R0,[R0, #+0]
   \   0000007A   0xB940             CBNZ.N   R0,??Program_Set_Parameter_15
   1096                          {
   1097                              if(ret>0&&ret<5*60)
   \   0000007C   0xF8BD 0x0000      LDRH     R0,[SP, #+0]
   \   00000080   0xB128             CBZ.N    R0,??Program_Set_Parameter_15
   \   00000082   0xF5B0 0x7F96      CMP      R0,#+300
   \   00000086   0xBFBC             ITT      LT 
   \   00000088   0x2000             MOVLT    R0,#+0
   \   0000008A   0xF8AD 0x0000      STRHLT   R0,[SP, #+0]
   1098                                  ret=0;
   1099                          }
   1100                          Data_Set_Time(ret);
   \                     ??Program_Set_Parameter_15: (+1)
   \   0000008E   0xF8BD 0x0000      LDRH     R0,[SP, #+0]
   \   00000092   0x.... 0x....      BL       Data_Set_Time
   \   00000096   0xBD31             POP      {R0,R4,R5,PC}
   1101                      }
   1102                      else if(Program_Get_ProgramID() == PS_THR_ZONE)
   \                     ??Program_Set_Parameter_14: (+1)
   \   00000098   0x280B             CMP      R0,#+11
   \   0000009A   0xD104             BNE.N    ??Program_Set_Parameter_16
   1103                      {
   1104                          ProHrc_Set_TargetTime(ret);
   \   0000009C   0xF8BD 0x0000      LDRH     R0,[SP, #+0]
   \   000000A0   0x.... 0x....      BL       ProHrc_Set_TargetTime
   \   000000A4   0xBD31             POP      {R0,R4,R5,PC}
   1105                      }
   1106                      else if(Program_Get_ProgramID() == PS_HILL_CLIMB||Program_Get_ProgramID() == PS_FATBURN)
   \                     ??Program_Set_Parameter_16: (+1)
   \   000000A6   0x2809             CMP      R0,#+9
   \   000000A8   0xD022             BEQ.N    ??Program_Set_Parameter_17
   \   000000AA   0x2808             CMP      R0,#+8
   \   000000AC   0xF040 0x817C      BNE.W    ??Program_Set_Parameter_18
