###############################################################################
#
# IAR ANSI C/C++ Compiler V7.80.4.12462/W32 for ARM       12/Dec/2022  11:41:26
# Copyright 1999-2017 IAR Systems AB.
#
#    Cpu mode     =  thumb
#    Endian       =  little
#    Source file  =  
#        C:\Users\shaomingkun\Desktop\git\evolve5.0\2021sw\ECOM-5\Modules\Remote_lib\Remote_user.c
#    Command line =  
#        C:\Users\shaomingkun\Desktop\git\evolve5.0\2021sw\ECOM-5\Modules\Remote_lib\Remote_user.c
#        -D EFM32LG380F256 -D BSP_CORTEX_EFM32 -D DEBUG_EFM_JJ -D
#        RF_MODULE_EXIST____ -lC
#        C:\Users\shaomingkun\Desktop\git\evolve5.0\2021sw\ECOM-5\Debug\List
#        -lA
#        C:\Users\shaomingkun\Desktop\git\evolve5.0\2021sw\ECOM-5\Debug\List -o
#        C:\Users\shaomingkun\Desktop\git\evolve5.0\2021sw\ECOM-5\Debug\Obj
#        --no_cse --no_unroll --no_inline --no_code_motion --no_tbaa
#        --no_clustering --no_scheduling --debug --endian=little
#        --cpu=Cortex-M3 -e --fpu=None --dlib_config "C:\Program Files
#        (x86)\IAR Systems\Embedded Workbench
#        7.5\arm\INC\c\DLib_Config_Normal.h" -I
#        C:\Users\shaomingkun\Desktop\git\evolve5.0\2021sw\ECOM-5\ -I
#        C:\Users\shaomingkun\Desktop\git\evolve5.0\2021sw\ECOM-5\Local\ -I
#        C:\Users\shaomingkun\Desktop\git\evolve5.0\2021sw\ECOM-5\Modules\ -I
#        C:\Users\shaomingkun\Desktop\git\evolve5.0\2021sw\ECOM-5\Modules\Utilities_Lib\
#        -I
#        C:\Users\shaomingkun\Desktop\git\evolve5.0\2021sw\ECOM-5\Modules\HAL_Lib\
#        -I
#        C:\Users\shaomingkun\Desktop\git\evolve5.0\2021sw\ECOM-5\Modules\LCB_Lib\
#        -I
#        C:\Users\shaomingkun\Desktop\git\evolve5.0\2021sw\ECOM-5\Modules\Eng_lib\
#        -I
#        C:\Users\shaomingkun\Desktop\git\evolve5.0\2021sw\ECOM-5\..\Modules\Eng_lib\
#        -I
#        C:\Users\shaomingkun\Desktop\git\evolve5.0\2021sw\ECOM-5\Modules\SystemConfig_Lib\
#        -I
#        C:\Users\shaomingkun\Desktop\git\evolve5.0\2021sw\ECOM-5\Modules\EFM32_lib\
#        -I
#        C:\Users\shaomingkun\Desktop\git\evolve5.0\2021sw\ECOM-5\Modules\EFM32_lib\drivers\
#        -I
#        C:\Users\shaomingkun\Desktop\git\evolve5.0\2021sw\ECOM-5\Modules\Program_lib\
#        -I
#        C:\Users\shaomingkun\Desktop\git\evolve5.0\2021sw\ECOM-5\Modules\RF_lib\
#        -I
#        C:\Users\shaomingkun\Desktop\git\evolve5.0\2021sw\ECOM-5\Modules\USB_lib\
#        -I
#        C:\Users\shaomingkun\Desktop\git\evolve5.0\2021sw\ECOM-5\Modules\USB_lib\usb\src\
#        -I
#        C:\Users\shaomingkun\Desktop\git\evolve5.0\2021sw\ECOM-5\Modules\USB_lib\usb\inc\
#        -I
#        C:\Users\shaomingkun\Desktop\git\evolve5.0\2021sw\ECOM-5\Modules\Bluetooth_lib\
#        -I
#        C:\Users\shaomingkun\Desktop\git\evolve5.0\2021sw\ECOM-5\Modules\Remote_lib\
#        -I
#        C:\Users\shaomingkun\Desktop\git\evolve5.0\2021sw\ECOM-5\Modules\EFM32_lib\Include\
#        -I
#        C:\Users\shaomingkun\Desktop\git\evolve5.0\2021sw\ECOM-5\Modules\EFM32_lib\emlib\inc\
#        -I
#        C:\Users\shaomingkun\Desktop\git\evolve5.0\2021sw\ECOM-5\Modules\EFM32_lib\emlib\src\
#        -I
#        C:\Users\shaomingkun\Desktop\git\evolve5.0\2021sw\ECOM-5\Modules\EFM32_lib\drivers\fatfs\src\
#        -I
#        C:\Users\shaomingkun\Desktop\git\evolve5.0\2021sw\ECOM-5\Modules\EFM32_lib\Device\EnergyMicro\EFM32LG\Include\
#        -I
#        C:\Users\shaomingkun\Desktop\git\evolve5.0\2021sw\ECOM-5\Modules\EFM32_lib\Device\EnergyMicro\EFM32LG\Source\
#        -I
#        C:\Users\shaomingkun\Desktop\git\evolve5.0\2021sw\ECOM-5\Modules\EFM32_lib\Device\EnergyMicro\EFM32LG\Source\IAR\
#        -I
#        C:\Users\shaomingkun\Desktop\git\evolve5.0\2021sw\ECOM-5\Modules\RTT_Lib\
#        -On
#    Locale       =  Chinese (Simplified)_China.936
#    List file    =  
#        C:\Users\shaomingkun\Desktop\git\evolve5.0\2021sw\ECOM-5\Debug\List\Remote_user.lst
#    Object file  =  
#        C:\Users\shaomingkun\Desktop\git\evolve5.0\2021sw\ECOM-5\Debug\Obj\Remote_user.o
#
###############################################################################

C:\Users\shaomingkun\Desktop\git\evolve5.0\2021sw\ECOM-5\Modules\Remote_lib\Remote_user.c
      1          #include"remote_user.h"

  EFM32_PACK_START( 1 )
                    ^
"C:\Users\shaomingkun\Desktop\git\evolve5.0\2021sw\ECOM-5\Modules\USB_lib\usb\inc\em_usb.h",318  Warning[Pe1665]: 
          concatenation with "1)" in macro "EFM32_PACK_START" does not create a
          valid token

  EFM32_PACK_START( 1 )
  ^
"C:\Users\shaomingkun\Desktop\git\evolve5.0\2021sw\ECOM-5\Modules\USB_lib\usb\inc\em_usb.h",318  Warning[Pe1665]: 
          concatenation with ")" in macro "EFM32_PACK_START" does not create a
          valid token

  EFM32_PACK_START( 1 )
                    ^
"C:\Users\shaomingkun\Desktop\git\evolve5.0\2021sw\ECOM-5\Modules\USB_lib\usb\inc\em_usb.h",347  Warning[Pe1665]: 
          concatenation with "1)" in macro "EFM32_PACK_START" does not create a
          valid token

  EFM32_PACK_START( 1 )
  ^
"C:\Users\shaomingkun\Desktop\git\evolve5.0\2021sw\ECOM-5\Modules\USB_lib\usb\inc\em_usb.h",347  Warning[Pe1665]: 
          concatenation with ")" in macro "EFM32_PACK_START" does not create a
          valid token

  EFM32_PACK_START( 1 )
                    ^
"C:\Users\shaomingkun\Desktop\git\evolve5.0\2021sw\ECOM-5\Modules\USB_lib\usb\inc\em_usb.h",371  Warning[Pe1665]: 
          concatenation with "1)" in macro "EFM32_PACK_START" does not create a
          valid token

  EFM32_PACK_START( 1 )
  ^
"C:\Users\shaomingkun\Desktop\git\evolve5.0\2021sw\ECOM-5\Modules\USB_lib\usb\inc\em_usb.h",371  Warning[Pe1665]: 
          concatenation with ")" in macro "EFM32_PACK_START" does not create a
          valid token

  EFM32_PACK_START( 1 )
                    ^
"C:\Users\shaomingkun\Desktop\git\evolve5.0\2021sw\ECOM-5\Modules\USB_lib\usb\inc\em_usb.h",400  Warning[Pe1665]: 
          concatenation with "1)" in macro "EFM32_PACK_START" does not create a
          valid token

  EFM32_PACK_START( 1 )
  ^
"C:\Users\shaomingkun\Desktop\git\evolve5.0\2021sw\ECOM-5\Modules\USB_lib\usb\inc\em_usb.h",400  Warning[Pe1665]: 
          concatenation with ")" in macro "EFM32_PACK_START" does not create a
          valid token

  EFM32_PACK_START( 1 )
                    ^
"C:\Users\shaomingkun\Desktop\git\evolve5.0\2021sw\ECOM-5\Modules\USB_lib\usb\inc\em_usb.h",441  Warning[Pe1665]: 
          concatenation with "1)" in macro "EFM32_PACK_START" does not create a
          valid token

  EFM32_PACK_START( 1 )
  ^
"C:\Users\shaomingkun\Desktop\git\evolve5.0\2021sw\ECOM-5\Modules\USB_lib\usb\inc\em_usb.h",441  Warning[Pe1665]: 
          concatenation with ")" in macro "EFM32_PACK_START" does not create a
          valid token

  EFM32_PACK_START( 1 )
                    ^
"C:\Users\shaomingkun\Desktop\git\evolve5.0\2021sw\ECOM-5\Modules\USB_lib\usb\inc\em_usb.h",455  Warning[Pe1665]: 
          concatenation with "1)" in macro "EFM32_PACK_START" does not create a
          valid token

  EFM32_PACK_START( 1 )
  ^
"C:\Users\shaomingkun\Desktop\git\evolve5.0\2021sw\ECOM-5\Modules\USB_lib\usb\inc\em_usb.h",455  Warning[Pe1665]: 
          concatenation with ")" in macro "EFM32_PACK_START" does not create a
          valid token
      2          #ifdef __REMOTE_USER_MANAGE__
      3          #include "Global_Config.h"
      4          #include "SystemConfig.h"
      5          #include "Remote_datatype.h"
      6          #include "Remote_process.h"
      7          #include "remote_port.h"
      8          
      9          
     10          
     11          
     12          

   \                                 In section .text, align 2, keep-with-next
     13          SubProcessState RemoteUserProcess(RemoteDevicesInformation *deviceinfor, UINT8* buf, UINT16 *bufLength,const  DapiGlobalVariable* dapiGlobalVariable)
     14          {
   \                     RemoteUserProcess: (+1)
   \   00000000   0xE92D 0x4FFE      PUSH     {R1-R11,LR}
   \   00000004   0xF5AD 0x6D20      SUB      SP,SP,#+2560
   \   00000008   0xB08A             SUB      SP,SP,#+40
   \   0000000A   0x4683             MOV      R11,R0
     15              SubProcessState ret = SUB_PROCESS_STATE_NOT_SUPPORTED;
   \   0000000C   0x2400             MOVS     R4,#+0
     16          //    UINT8 flag = deviceinfor->currentState>>8;
     17              UINT8 command = (UINT8)(deviceinfor->currentState&0x00ff);
   \   0000000E   0xF8BB 0x002C      LDRH     R0,[R11, #+44]
   \   00000012   0xF88D 0x07C4      STRB     R0,[SP, #+1988]
   \   00000016   0xF240 0x70C6      MOVW     R0,#+1990
   \   0000001A   0x4468             ADD      R0,R0,SP
   \   0000001C   0x.... 0x....      BL       SystemConfig_Get_MachineInfo
     18              MACHINE_INFO machineConfig=SystemConfig_Get_MachineInfo( );     
   \   00000020   0xF50D 0x60AC      ADD      R0,SP,#+1376
   \   00000024   0xF240 0x71C6      MOVW     R1,#+1990
   \   00000028   0x4469             ADD      R1,R1,SP
   \   0000002A   0xF240 0x2262      MOVW     R2,#+610
   \   0000002E   0x.... 0x....      BL       __aeabi_memcpy
     19              SystemSettingType Settings = SystemConfig_Get_DefaultString( SETTING_DEFAULT_MACHINE_UUID );
   \   00000032   0x2100             MOVS     R1,#+0
   \   00000034   0xA804             ADD      R0,SP,#+16
   \   00000036   0x.... 0x....      BL       SystemConfig_Get_DefaultString
     20              RemoteHeader *remoteHeader = (RemoteHeader*) buf;
   \   0000003A   0xF8DD 0x0A28      LDR      R0,[SP, #+2600]
   \   0000003E   0x9003             STR      R0,[SP, #+12]
     21          
     22          
     23              remoteHeader->syncWord = 0xAA55;
   \   00000040   0xF64A 0x2055      MOVW     R0,#+43605
   \   00000044   0x9903             LDR      R1,[SP, #+12]
   \   00000046   0x8008             STRH     R0,[R1, #+0]
     24              remoteHeader->lingoId = DAPI_LINGO_USER_MANAGEMENT;
   \   00000048   0x2083             MOVS     R0,#+131
   \   0000004A   0x9903             LDR      R1,[SP, #+12]
   \   0000004C   0x7108             STRB     R0,[R1, #+4]
     25              remoteHeader->messageId = command;
   \   0000004E   0xF89D 0x07C4      LDRB     R0,[SP, #+1988]
   \   00000052   0x9903             LDR      R1,[SP, #+12]
   \   00000054   0x7148             STRB     R0,[R1, #+5]
     26              
     27              switch(command)
   \   00000056   0xF89D 0x07C4      LDRB     R0,[SP, #+1988]
   \   0000005A   0x2800             CMP      R0,#+0
   \   0000005C   0xD011             BEQ.N    ??RemoteUserProcess_0
   \   0000005E   0x2801             CMP      R0,#+1
   \   00000060   0xD010             BEQ.N    ??RemoteUserProcess_1
   \   00000062   0x2802             CMP      R0,#+2
   \   00000064   0xF000 0x80AF      BEQ.W    ??RemoteUserProcess_2
   \   00000068   0x280A             CMP      R0,#+10
   \   0000006A   0xF000 0x80F2      BEQ.W    ??RemoteUserProcess_3
   \   0000006E   0x2812             CMP      R0,#+18
   \   00000070   0xF000 0x8116      BEQ.W    ??RemoteUserProcess_4
   \   00000074   0x2813             CMP      R0,#+19
   \   00000076   0xF000 0x814F      BEQ.W    ??RemoteUserProcess_5
   \   0000007A   0x2814             CMP      R0,#+20
   \   0000007C   0xF000 0x8196      BEQ.W    ??RemoteUserProcess_6
   \   00000080   0xE1C9             B.N      ??RemoteUserProcess_7
     28              {
     29                  case REMOTE_USER_MANAGEMENT_ACKNOWLEDGMENT:
     30                  {
     31                  }
     32                  break;
   \                     ??RemoteUserProcess_0: (+1)
   \   00000082   0xE1C8             B.N      ??RemoteUserProcess_8
     33                  case REMOTE_SYNC_USER_INFO:
     34                  {
     35                      UINT8 totalUser = SystemConfig_Get_MaxUserNumber();
   \                     ??RemoteUserProcess_1: (+1)
   \   00000084   0x.... 0x....      BL       SystemConfig_Get_MaxUserNumber
   \   00000088   0xF88D 0x07C5      STRB     R0,[SP, #+1989]
     36                      if(deviceinfor->currentSubState< totalUser )
   \   0000008C   0xF89B 0x003D      LDRB     R0,[R11, #+61]
   \   00000090   0xF89D 0x17C5      LDRB     R1,[SP, #+1989]
   \   00000094   0x4288             CMP      R0,R1
   \   00000096   0xD202             BCS.N    ??RemoteUserProcess_9
     37                      {
     38                          ret = SUB_PROCESS_STATE_NEXT_STATE;
   \   00000098   0x2004             MOVS     R0,#+4
   \   0000009A   0x0004             MOVS     R4,R0
   \   0000009C   0xE092             B.N      ??RemoteUserProcess_10
     39                      }
   \                     ??RemoteUserProcess_9: (+1)
   \   0000009E   0xF89B 0x103D      LDRB     R1,[R11, #+61]
   \   000000A2   0xA808             ADD      R0,SP,#+32
   \   000000A4   0x.... 0x....      BL       SystemConfig_Get_UserInfo
     40                      else
     41                      {
     42                          USERS_INFO userinfo = SystemConfig_Get_UserInfo( deviceinfor->currentSubState );
   \   000000A8   0xA8B0             ADD      R0,SP,#+704
   \   000000AA   0xA908             ADD      R1,SP,#+32
   \   000000AC   0xF44F 0x7228      MOV      R2,#+672
   \   000000B0   0x.... 0x....      BL       __aeabi_memcpy
     43                          UserSyncRequestData *requestdata =(UserSyncRequestData*)( buf+ sizeof(RemoteHeader));   
   \   000000B4   0xF8DD 0x0A28      LDR      R0,[SP, #+2600]
   \   000000B8   0xF110 0x050A      ADDS     R5,R0,#+10
     44                          
     45                          *bufLength = sizeof(UserSyncRequestData)+sizeof(RemoteHeader);   
   \   000000BC   0x209E             MOVS     R0,#+158
   \   000000BE   0xF8DD 0x1A2C      LDR      R1,[SP, #+2604]
   \   000000C2   0x8008             STRH     R0,[R1, #+0]
     46                          requestdata->userConsoleId = deviceinfor->currentSubState;
   \   000000C4   0xF89B 0x003D      LDRB     R0,[R11, #+61]
   \   000000C8   0x7028             STRB     R0,[R5, #+0]
     47                          memcpy( requestdata->xid, userinfo.xid, XIDMAXLENGTH );
   \   000000CA   0x200E             MOVS     R0,#+14
   \   000000CC   0x9007             STR      R0,[SP, #+28]
   \   000000CE   0xA8B0             ADD      R0,SP,#+704
   \   000000D0   0x1C80             ADDS     R0,R0,#+2
   \   000000D2   0x9006             STR      R0,[SP, #+24]
   \   000000D4   0x1CAE             ADDS     R6,R5,#+2
   \   000000D6   0x9A07             LDR      R2,[SP, #+28]
   \   000000D8   0x9906             LDR      R1,[SP, #+24]
   \   000000DA   0x0030             MOVS     R0,R6
   \   000000DC   0x.... 0x....      BL       __aeabi_memcpy
     48                          memcpy( requestdata->passcode, userinfo.passcode, 4 );
   \   000000E0   0x2004             MOVS     R0,#+4
   \   000000E2   0x9002             STR      R0,[SP, #+8]
   \   000000E4   0xA8B4             ADD      R0,SP,#+720
   \   000000E6   0x9001             STR      R0,[SP, #+4]
   \   000000E8   0xF115 0x0610      ADDS     R6,R5,#+16
   \   000000EC   0x9A02             LDR      R2,[SP, #+8]
   \   000000EE   0x9901             LDR      R1,[SP, #+4]
   \   000000F0   0x0030             MOVS     R0,R6
   \   000000F2   0x.... 0x....      BL       __aeabi_memcpy
     49                          memcpy( requestdata->macAddress, deviceinfor->deviceMacAddress, 6 );
   \   000000F6   0x2006             MOVS     R0,#+6
   \   000000F8   0x9000             STR      R0,[SP, #+0]
   \   000000FA   0xF115 0x0614      ADDS     R6,R5,#+20
   \   000000FE   0x9A00             LDR      R2,[SP, #+0]
   \   00000100   0x4659             MOV      R1,R11
   \   00000102   0x0030             MOVS     R0,R6
   \   00000104   0x.... 0x....      BL       __aeabi_memcpy
     50                          memcpy( requestdata->machineIdentification, machineConfig.machineUUID,Settings.StringMaxLength);
   \   00000108   0xF8BD 0x6010      LDRH     R6,[SP, #+16]
   \   0000010C   0xF240 0x67FC      MOVW     R7,#+1788
   \   00000110   0x446F             ADD      R7,R7,SP
   \   00000112   0xF115 0x081A      ADDS     R8,R5,#+26
   \   00000116   0x0032             MOVS     R2,R6
   \   00000118   0x0039             MOVS     R1,R7
   \   0000011A   0x4640             MOV      R0,R8
   \   0000011C   0x.... 0x....      BL       __aeabi_memcpy
     51                          requestdata->lastChangeYear = userinfo.timeStampYear;
   \   00000120   0xF8BD 0x02DC      LDRH     R0,[SP, #+732]
   \   00000124   0x87E8             STRH     R0,[R5, #+62]
     52                          requestdata->lastChangeMonth = userinfo.timeStampMonth;
   \   00000126   0xF89D 0x02DE      LDRB     R0,[SP, #+734]
   \   0000012A   0xF885 0x0040      STRB     R0,[R5, #+64]
     53                          requestdata->lastChangeDay = userinfo.timeStampDate;
   \   0000012E   0xF89D 0x02DF      LDRB     R0,[SP, #+735]
   \   00000132   0xF885 0x0041      STRB     R0,[R5, #+65]
     54                          requestdata->lastChangeHour = userinfo.timeStampHour;
   \   00000136   0xF89D 0x02E0      LDRB     R0,[SP, #+736]
   \   0000013A   0xF885 0x0042      STRB     R0,[R5, #+66]
     55                          requestdata->lastChangeMinute = userinfo.timeStampMinute;
   \   0000013E   0xF89D 0x02E1      LDRB     R0,[SP, #+737]
   \   00000142   0xF885 0x0043      STRB     R0,[R5, #+67]
     56                          requestdata->lastChangeSecond = userinfo.timeStampSeconds;
   \   00000146   0xF89D 0x02E2      LDRB     R0,[SP, #+738]
   \   0000014A   0xF885 0x0044      STRB     R0,[R5, #+68]
     57                          requestdata->gender = userinfo.gender;
   \   0000014E   0xF89D 0x02DB      LDRB     R0,[SP, #+731]
   \   00000152   0xF885 0x0045      STRB     R0,[R5, #+69]
     58                          requestdata->weightX10 = userinfo.weightStandardX100/10;
   \   00000156   0xF8BD 0x02D4      LDRH     R0,[SP, #+724]
   \   0000015A   0x210A             MOVS     R1,#+10
   \   0000015C   0xFB90 0xF0F1      SDIV     R0,R0,R1
   \   00000160   0xF8A5 0x0046      STRH     R0,[R5, #+70]
     59                          requestdata->age = userinfo.age;
   \   00000164   0xF89D 0x02D6      LDRB     R0,[SP, #+726]
   \   00000168   0xF885 0x0048      STRB     R0,[R5, #+72]
     60                          requestdata->year = userinfo.year;
   \   0000016C   0xF8BD 0x02D7      LDRH     R0,[SP, #+727]
   \   00000170   0xF8A5 0x004A      STRH     R0,[R5, #+74]
     61                          requestdata->month = userinfo.month;
   \   00000174   0xF89D 0x02D9      LDRB     R0,[SP, #+729]
   \   00000178   0xF885 0x004C      STRB     R0,[R5, #+76]
     62                          requestdata->day = userinfo.date;
   \   0000017C   0xF89D 0x02DA      LDRB     R0,[SP, #+730]
   \   00000180   0xF885 0x004D      STRB     R0,[R5, #+77]
     63                          requestdata->language = userinfo.languageId;
   \   00000184   0xF89D 0x0325      LDRB     R0,[SP, #+805]
   \   00000188   0xF885 0x004E      STRB     R0,[R5, #+78]
     64                          requestdata->WorkoutDataShare = userinfo.isShareWorkouts;
   \   0000018C   0xF89D 0x0327      LDRB     R0,[SP, #+807]
   \   00000190   0xF885 0x0092      STRB     R0,[R5, #+146]
     65                          requestdata->DisplayUnits = userinfo.displayUnit;
   \   00000194   0xF89D 0x02E3      LDRB     R0,[SP, #+739]
   \   00000198   0xF885 0x004F      STRB     R0,[R5, #+79]
     66                          requestdata->AcceptedTerms = userinfo.isAcceptedTerms;
   \   0000019C   0xF89D 0x0326      LDRB     R0,[SP, #+806]
   \   000001A0   0xF885 0x0091      STRB     R0,[R5, #+145]
     67                          memcpy( requestdata->name, userinfo.name, 65 );
   \   000001A4   0xF05F 0x0841      MOVS     R8,#+65
   \   000001A8   0xF50D 0x7939      ADD      R9,SP,#+740
   \   000001AC   0xF115 0x0A50      ADDS     R10,R5,#+80
   \   000001B0   0x4642             MOV      R2,R8
   \   000001B2   0x4649             MOV      R1,R9
   \   000001B4   0x4650             MOV      R0,R10
   \   000001B6   0x.... 0x....      BL       __aeabi_memcpy
     68                          requestdata->UserSetup= userinfo.isSetup;                
   \   000001BA   0xF89D 0x0329      LDRB     R0,[SP, #+809]
   \   000001BE   0x7068             STRB     R0,[R5, #+1]
     69                          ret = SUB_PROCESS_STATE_NEXT_SUBSTATE;
   \   000001C0   0x2002             MOVS     R0,#+2
   \   000001C2   0x0004             MOVS     R4,R0
     70                      }
     71                  }
     72                  break;
   \                     ??RemoteUserProcess_10: (+1)
   \   000001C4   0xE127             B.N      ??RemoteUserProcess_8
     73                  case REMOTE_USER_LOGIN:
     74                  {
     75                      switch(deviceinfor->currentSubState)
   \                     ??RemoteUserProcess_2: (+1)
   \   000001C6   0xF89B 0x003D      LDRB     R0,[R11, #+61]
   \   000001CA   0x2800             CMP      R0,#+0
   \   000001CC   0xD002             BEQ.N    ??RemoteUserProcess_11
   \   000001CE   0x2801             CMP      R0,#+1
   \   000001D0   0xD03C             BEQ.N    ??RemoteUserProcess_12
   \   000001D2   0xE03D             B.N      ??RemoteUserProcess_13
     76                      {
     77                          case 0:
     78                          {                    
     79                              UserLoginRequest *userLoginRequest = (UserLoginRequest*)buf+ sizeof(RemoteHeader);
   \                     ??RemoteUserProcess_11: (+1)
   \   000001D4   0xF8DD 0x0A28      LDR      R0,[SP, #+2600]
   \   000001D8   0xF200 0x2062      ADDW     R0,R0,#+610
   \   000001DC   0x9000             STR      R0,[SP, #+0]
     80                              memcpy( userLoginRequest->xid, dapiGlobalVariable->dataInfor.loginInfor._loginRequest.xid, XIDMAXLENGTH );
   \   000001DE   0x250E             MOVS     R5,#+14
   \   000001E0   0xF8DD 0x0A30      LDR      R0,[SP, #+2608]
   \   000001E4   0x1C40             ADDS     R0,R0,#+1
   \   000001E6   0x9001             STR      R0,[SP, #+4]
   \   000001E8   0x9800             LDR      R0,[SP, #+0]
   \   000001EA   0x1C46             ADDS     R6,R0,#+1
   \   000001EC   0x002A             MOVS     R2,R5
   \   000001EE   0x9901             LDR      R1,[SP, #+4]
   \   000001F0   0x0030             MOVS     R0,R6
   \   000001F2   0x.... 0x....      BL       __aeabi_memcpy
     81                              memcpy( userLoginRequest->passcode, dapiGlobalVariable->dataInfor.loginInfor._loginRequest.passcode, 4 );
   \   000001F6   0x2604             MOVS     R6,#+4
   \   000001F8   0xF8DD 0x0A30      LDR      R0,[SP, #+2608]
   \   000001FC   0x300F             ADDS     R0,R0,#+15
   \   000001FE   0x9002             STR      R0,[SP, #+8]
   \   00000200   0x9800             LDR      R0,[SP, #+0]
   \   00000202   0xF110 0x070F      ADDS     R7,R0,#+15
   \   00000206   0x0032             MOVS     R2,R6
   \   00000208   0x9902             LDR      R1,[SP, #+8]
   \   0000020A   0x0038             MOVS     R0,R7
   \   0000020C   0x.... 0x....      BL       __aeabi_memcpy
     82                              memcpy( userLoginRequest->macAddress, deviceinfor->deviceMacAddress, 6 );
   \   00000210   0x2706             MOVS     R7,#+6
   \   00000212   0x9800             LDR      R0,[SP, #+0]
   \   00000214   0xF110 0x0813      ADDS     R8,R0,#+19
   \   00000218   0x003A             MOVS     R2,R7
   \   0000021A   0x4659             MOV      R1,R11
   \   0000021C   0x4640             MOV      R0,R8
   \   0000021E   0x.... 0x....      BL       __aeabi_memcpy
     83                              memcpy( userLoginRequest->MachineID, machineConfig.machineUUID, Settings.StringMaxLength);
   \   00000222   0xF8BD 0x8010      LDRH     R8,[SP, #+16]
   \   00000226   0xF240 0x69FC      MOVW     R9,#+1788
   \   0000022A   0x44E9             ADD      R9,R9,SP
   \   0000022C   0x9800             LDR      R0,[SP, #+0]
   \   0000022E   0xF110 0x0A19      ADDS     R10,R0,#+25
   \   00000232   0x4642             MOV      R2,R8
   \   00000234   0x4649             MOV      R1,R9
   \   00000236   0x4650             MOV      R0,R10
   \   00000238   0x.... 0x....      BL       __aeabi_memcpy
     84                              userLoginRequest->userId = dapiGlobalVariable->dataInfor.loginInfor._loginRequest.userId;
   \   0000023C   0xF8DD 0x0A30      LDR      R0,[SP, #+2608]
   \   00000240   0x7800             LDRB     R0,[R0, #+0]
   \   00000242   0x9900             LDR      R1,[SP, #+0]
   \   00000244   0x7008             STRB     R0,[R1, #+0]
     85                              ret = SUB_PROCESS_STATE_NEXT_SUBSTATE;
   \   00000246   0x2002             MOVS     R0,#+2
   \   00000248   0x0004             MOVS     R4,R0
     86                          }
     87                          break;
   \   0000024A   0xE001             B.N      ??RemoteUserProcess_13
     88                          case 1:
     89                          {
     90                              ret = SUB_PROCESS_STATE_NEXT_STATE;
   \                     ??RemoteUserProcess_12: (+1)
   \   0000024C   0x2004             MOVS     R0,#+4
   \   0000024E   0x0004             MOVS     R4,R0
     91                          }
     92                          break;
     93                      }
     94                  }
     95                  break;
   \                     ??RemoteUserProcess_13: (+1)
   \   00000250   0xE0E1             B.N      ??RemoteUserProcess_8
     96                  case REMOTE_USER_UNLINK_USER:
     97                  {
     98                      switch(deviceinfor->currentSubState)
   \                     ??RemoteUserProcess_3: (+1)
   \   00000252   0xF89B 0x003D      LDRB     R0,[R11, #+61]
   \   00000256   0x2800             CMP      R0,#+0
   \   00000258   0xD002             BEQ.N    ??RemoteUserProcess_14
   \   0000025A   0x2801             CMP      R0,#+1
   \   0000025C   0xD01D             BEQ.N    ??RemoteUserProcess_15
   \   0000025E   0xE01E             B.N      ??RemoteUserProcess_16
     99                      {
    100                          case 0:
    101                          {
    102                              UnlinkUser *unlinkUser = ( UnlinkUser*)(buf+ sizeof(RemoteHeader));
   \                     ??RemoteUserProcess_14: (+1)
   \   00000260   0xF8DD 0x0A28      LDR      R0,[SP, #+2600]
   \   00000264   0xF110 0x050A      ADDS     R5,R0,#+10
    103                              memset( unlinkUser, 0, sizeof(UnlinkUser));
   \   00000268   0x2625             MOVS     R6,#+37
   \   0000026A   0x2700             MOVS     R7,#+0
   \   0000026C   0x003A             MOVS     R2,R7
   \   0000026E   0x0031             MOVS     R1,R6
   \   00000270   0x0028             MOVS     R0,R5
   \   00000272   0x.... 0x....      BL       __aeabi_memset
    104                              unlinkUser->UserIndex = deviceinfor->cmdParameter;
   \   00000276   0xF8BB 0x002E      LDRH     R0,[R11, #+46]
   \   0000027A   0x7028             STRB     R0,[R5, #+0]
    105                              memcpy( unlinkUser->machineIdentification, machineConfig.machineUUID, Settings.StringMaxLength);
   \   0000027C   0xF8BD 0x8010      LDRH     R8,[SP, #+16]
   \   00000280   0xF240 0x69FC      MOVW     R9,#+1788
   \   00000284   0x44E9             ADD      R9,R9,SP
   \   00000286   0xF115 0x0A01      ADDS     R10,R5,#+1
   \   0000028A   0x4642             MOV      R2,R8
   \   0000028C   0x4649             MOV      R1,R9
   \   0000028E   0x4650             MOV      R0,R10
   \   00000290   0x.... 0x....      BL       __aeabi_memcpy
    106                              ret = SUB_PROCESS_STATE_NEXT_SUBSTATE;
   \   00000294   0x2002             MOVS     R0,#+2
   \   00000296   0x0004             MOVS     R4,R0
    107                          }
    108                          break;
   \   00000298   0xE001             B.N      ??RemoteUserProcess_16
    109                          case 1:
    110                          {
    111                              ret = SUB_PROCESS_STATE_NEXT_STATE;
   \                     ??RemoteUserProcess_15: (+1)
   \   0000029A   0x2004             MOVS     R0,#+4
   \   0000029C   0x0004             MOVS     R4,R0
    112                          }
    113                          break;
    114                      }
    115                  }
    116                  break;
   \                     ??RemoteUserProcess_16: (+1)
   \   0000029E   0xE0BA             B.N      ??RemoteUserProcess_8
    117                  case REMOTE_USER_RFID_LOGIN:
    118                  {
    119                      switch(deviceinfor->currentSubState)
   \                     ??RemoteUserProcess_4: (+1)
   \   000002A0   0xF89B 0x003D      LDRB     R0,[R11, #+61]
   \   000002A4   0x2800             CMP      R0,#+0
   \   000002A6   0xD002             BEQ.N    ??RemoteUserProcess_17
   \   000002A8   0x2801             CMP      R0,#+1
   \   000002AA   0xD032             BEQ.N    ??RemoteUserProcess_18
   \   000002AC   0xE033             B.N      ??RemoteUserProcess_19
    120                      {
    121                      case 0:
    122                      {
    123                          UserRFidLoginReq *rfidLoginReq =(UserRFidLoginReq*) buf+ sizeof(RemoteHeader);
   \                     ??RemoteUserProcess_17: (+1)
   \   000002AE   0xF8DD 0x0A28      LDR      R0,[SP, #+2600]
   \   000002B2   0xF44F 0x7116      MOV      R1,#+600
   \   000002B6   0xEB00 0x0501      ADD      R5,R0,R1
    124                          memcpy( rfidLoginReq->macAddress, deviceinfor->deviceMacAddress, 6 );
   \   000002BA   0x2606             MOVS     R6,#+6
   \   000002BC   0xF115 0x0724      ADDS     R7,R5,#+36
   \   000002C0   0x0032             MOVS     R2,R6
   \   000002C2   0x4659             MOV      R1,R11
   \   000002C4   0x0038             MOVS     R0,R7
   \   000002C6   0x.... 0x....      BL       __aeabi_memcpy
    125                          memcpy( rfidLoginReq->MachineID, machineConfig.machineUUID, Settings.StringMaxLength);
   \   000002CA   0xF8BD 0x7010      LDRH     R7,[SP, #+16]
   \   000002CE   0xF240 0x68FC      MOVW     R8,#+1788
   \   000002D2   0x44E8             ADD      R8,R8,SP
   \   000002D4   0x003A             MOVS     R2,R7
   \   000002D6   0x4641             MOV      R1,R8
   \   000002D8   0x0028             MOVS     R0,R5
   \   000002DA   0x.... 0x....      BL       __aeabi_memcpy
    126                          memcpy(rfidLoginReq->RFIDTag, dapiGlobalVariable->dataInfor.loginInfor.rfiddata.rfidTag, 16);
   \   000002DE   0xF05F 0x0910      MOVS     R9,#+16
   \   000002E2   0xF8DD 0x0A30      LDR      R0,[SP, #+2608]
   \   000002E6   0x1C40             ADDS     R0,R0,#+1
   \   000002E8   0x9000             STR      R0,[SP, #+0]
   \   000002EA   0xF115 0x0A2B      ADDS     R10,R5,#+43
   \   000002EE   0x464A             MOV      R2,R9
   \   000002F0   0x9900             LDR      R1,[SP, #+0]
   \   000002F2   0x4650             MOV      R0,R10
   \   000002F4   0x.... 0x....      BL       __aeabi_memcpy
    127                          rfidLoginReq->RFIDCarrier = dapiGlobalVariable->dataInfor.loginInfor.rfiddata.rfidCarrier;
   \   000002F8   0xF8DD 0x0A30      LDR      R0,[SP, #+2608]
   \   000002FC   0x7C40             LDRB     R0,[R0, #+17]
   \   000002FE   0xF885 0x003B      STRB     R0,[R5, #+59]
    128                          rfidLoginReq->userID = dapiGlobalVariable->dataInfor.loginInfor.rfiddata.userIndex;
   \   00000302   0xF8DD 0x0A30      LDR      R0,[SP, #+2608]
   \   00000306   0x7800             LDRB     R0,[R0, #+0]
   \   00000308   0xF885 0x002A      STRB     R0,[R5, #+42]
    129                          ret = SUB_PROCESS_STATE_NEXT_SUBSTATE;
   \   0000030C   0x2002             MOVS     R0,#+2
   \   0000030E   0x0004             MOVS     R4,R0
    130                      }
    131                      break;
   \   00000310   0xE001             B.N      ??RemoteUserProcess_19
    132                      case 1:
    133                      {
    134                          ret = SUB_PROCESS_STATE_NEXT_STATE;
   \                     ??RemoteUserProcess_18: (+1)
   \   00000312   0x2004             MOVS     R0,#+4
   \   00000314   0x0004             MOVS     R4,R0
    135                      }
    136                      break;
    137                      }
    138                  }
    139                  break;
   \                     ??RemoteUserProcess_19: (+1)
   \   00000316   0xE07E             B.N      ??RemoteUserProcess_8
    140                  case REMOTE_USER_RFID_ASSOCIATE:
    141                  {
    142                      switch(deviceinfor->currentSubState)
   \                     ??RemoteUserProcess_5: (+1)
   \   00000318   0xF89B 0x003D      LDRB     R0,[R11, #+61]
   \   0000031C   0x2800             CMP      R0,#+0
   \   0000031E   0xD002             BEQ.N    ??RemoteUserProcess_20
   \   00000320   0x2801             CMP      R0,#+1
   \   00000322   0xD040             BEQ.N    ??RemoteUserProcess_21
   \   00000324   0xE041             B.N      ??RemoteUserProcess_22
    143                      {
    144                      case 0:
    145                      {
    146                          UserRFidAssociateReq *userRFidAssociateReq  = (UserRFidAssociateReq*)buf+ sizeof(RemoteHeader);
   \                     ??RemoteUserProcess_20: (+1)
   \   00000326   0xF8DD 0x0A28      LDR      R0,[SP, #+2600]
   \   0000032A   0xF44F 0x7170      MOV      R1,#+960
   \   0000032E   0xEB00 0x0501      ADD      R5,R0,R1
    147                          memcpy( userRFidAssociateReq->macAddress, deviceinfor->deviceMacAddress, 6 );
   \   00000332   0x2006             MOVS     R0,#+6
   \   00000334   0x9000             STR      R0,[SP, #+0]
   \   00000336   0xF115 0x0624      ADDS     R6,R5,#+36
   \   0000033A   0x9A00             LDR      R2,[SP, #+0]
   \   0000033C   0x4659             MOV      R1,R11
   \   0000033E   0x0030             MOVS     R0,R6
   \   00000340   0x.... 0x....      BL       __aeabi_memcpy
    148                          memcpy( userRFidAssociateReq->MachineID, machineConfig.machineUUID, Settings.StringMaxLength);
   \   00000344   0xF8BD 0x6010      LDRH     R6,[SP, #+16]
   \   00000348   0xF240 0x67FC      MOVW     R7,#+1788
   \   0000034C   0x446F             ADD      R7,R7,SP
   \   0000034E   0x0032             MOVS     R2,R6
   \   00000350   0x0039             MOVS     R1,R7
   \   00000352   0x0028             MOVS     R0,R5
   \   00000354   0x.... 0x....      BL       __aeabi_memcpy
    149                          memcpy(userRFidAssociateReq->RFIDTag, dapiGlobalVariable->dataInfor.loginInfor.rfiddata.rfidTag, 16);
   \   00000358   0xF05F 0x0810      MOVS     R8,#+16
   \   0000035C   0xF8DD 0x0A30      LDR      R0,[SP, #+2608]
   \   00000360   0x1C40             ADDS     R0,R0,#+1
   \   00000362   0x9002             STR      R0,[SP, #+8]
   \   00000364   0xF115 0x094F      ADDS     R9,R5,#+79
   \   00000368   0x4642             MOV      R2,R8
   \   0000036A   0x9902             LDR      R1,[SP, #+8]
   \   0000036C   0x4648             MOV      R0,R9
   \   0000036E   0x.... 0x....      BL       __aeabi_memcpy
    150                          userRFidAssociateReq->userID = dapiGlobalVariable->dataInfor.loginInfor.rfiddata.userIndex;
   \   00000372   0xF8DD 0x0A30      LDR      R0,[SP, #+2608]
   \   00000376   0x7800             LDRB     R0,[R0, #+0]
   \   00000378   0xF885 0x002A      STRB     R0,[R5, #+42]
    151                          userRFidAssociateReq->RFIDCarrier = dapiGlobalVariable->dataInfor.loginInfor.rfiddata.rfidCarrier;
   \   0000037C   0xF8DD 0x0A30      LDR      R0,[SP, #+2608]
   \   00000380   0x7C40             LDRB     R0,[R0, #+17]
   \   00000382   0xF885 0x005F      STRB     R0,[R5, #+95]
    152                          memcpy(userRFidAssociateReq->externalUserID , dapiGlobalVariable->dataInfor.workoutInfor._UserExternalID+1,36);
   \   00000386   0xF05F 0x0924      MOVS     R9,#+36
   \   0000038A   0xF8DD 0x0A30      LDR      R0,[SP, #+2608]
   \   0000038E   0x1C40             ADDS     R0,R0,#+1
   \   00000390   0x9001             STR      R0,[SP, #+4]
   \   00000392   0xF115 0x0A2B      ADDS     R10,R5,#+43
   \   00000396   0x464A             MOV      R2,R9
   \   00000398   0x9901             LDR      R1,[SP, #+4]
   \   0000039A   0x4650             MOV      R0,R10
   \   0000039C   0x.... 0x....      BL       __aeabi_memcpy
    153                          ret = SUB_PROCESS_STATE_NEXT_SUBSTATE;
   \   000003A0   0x2002             MOVS     R0,#+2
   \   000003A2   0x0004             MOVS     R4,R0
    154                      }
    155                      break;
   \   000003A4   0xE001             B.N      ??RemoteUserProcess_22
    156                      case 1:
    157                      {
    158                          ret = SUB_PROCESS_STATE_NEXT_STATE;
   \                     ??RemoteUserProcess_21: (+1)
   \   000003A6   0x2004             MOVS     R0,#+4
   \   000003A8   0x0004             MOVS     R4,R0
    159                      }
    160                      break;
    161                      }
    162                  }
    163                  break;
   \                     ??RemoteUserProcess_22: (+1)
   \   000003AA   0xE034             B.N      ??RemoteUserProcess_8
    164                  case REMOTE_USER_RFID_DISASSOCIATE:
    165                  {
    166                      switch(deviceinfor->currentSubState)
   \                     ??RemoteUserProcess_6: (+1)
   \   000003AC   0xF89B 0x003D      LDRB     R0,[R11, #+61]
   \   000003B0   0x2800             CMP      R0,#+0
   \   000003B2   0xD002             BEQ.N    ??RemoteUserProcess_23
   \   000003B4   0x2801             CMP      R0,#+1
   \   000003B6   0xD02B             BEQ.N    ??RemoteUserProcess_24
   \   000003B8   0xE02C             B.N      ??RemoteUserProcess_25
    167                      {
    168                      case 0:
    169                      {
    170                          UserRFidDisassociateReq *userRFidDisassociateReq  = (UserRFidDisassociateReq*)buf+ sizeof(RemoteHeader);
   \                     ??RemoteUserProcess_23: (+1)
   \   000003BA   0xF8DD 0x0A28      LDR      R0,[SP, #+2600]
   \   000003BE   0xF200 0x254E      ADDW     R5,R0,#+590
    171                          memcpy( userRFidDisassociateReq->macAddress, deviceinfor->deviceMacAddress, 6 );
   \   000003C2   0x2606             MOVS     R6,#+6
   \   000003C4   0xF115 0x0724      ADDS     R7,R5,#+36
   \   000003C8   0x0032             MOVS     R2,R6
   \   000003CA   0x4659             MOV      R1,R11
   \   000003CC   0x0038             MOVS     R0,R7
   \   000003CE   0x.... 0x....      BL       __aeabi_memcpy
    172                          memcpy( userRFidDisassociateReq->MachineID, machineConfig.machineUUID, Settings.StringMaxLength);
   \   000003D2   0xF8BD 0x7010      LDRH     R7,[SP, #+16]
   \   000003D6   0xF240 0x68FC      MOVW     R8,#+1788
   \   000003DA   0x44E8             ADD      R8,R8,SP
   \   000003DC   0x003A             MOVS     R2,R7
   \   000003DE   0x4641             MOV      R1,R8
   \   000003E0   0x0028             MOVS     R0,R5
   \   000003E2   0x.... 0x....      BL       __aeabi_memcpy
    173                          memcpy(userRFidDisassociateReq->RFIDTag, dapiGlobalVariable->dataInfor.loginInfor.rfiddata.rfidTag, 16);
   \   000003E6   0xF05F 0x0910      MOVS     R9,#+16
   \   000003EA   0xF8DD 0x0A30      LDR      R0,[SP, #+2608]
   \   000003EE   0x1C40             ADDS     R0,R0,#+1
   \   000003F0   0x9000             STR      R0,[SP, #+0]
   \   000003F2   0xF115 0x0A2A      ADDS     R10,R5,#+42
   \   000003F6   0x464A             MOV      R2,R9
   \   000003F8   0x9900             LDR      R1,[SP, #+0]
   \   000003FA   0x4650             MOV      R0,R10
   \   000003FC   0x.... 0x....      BL       __aeabi_memcpy
    174                          userRFidDisassociateReq->RFIDCarrier = dapiGlobalVariable->dataInfor.loginInfor.rfiddata.rfidCarrier;
   \   00000400   0xF8DD 0x0A30      LDR      R0,[SP, #+2608]
   \   00000404   0x7C40             LDRB     R0,[R0, #+17]
   \   00000406   0xF885 0x003A      STRB     R0,[R5, #+58]
    175                          ret = SUB_PROCESS_STATE_NEXT_SUBSTATE;
   \   0000040A   0x2002             MOVS     R0,#+2
   \   0000040C   0x0004             MOVS     R4,R0
    176                      }
    177                      break;
   \   0000040E   0xE001             B.N      ??RemoteUserProcess_25
    178                      case 1:
    179                      {
    180                          ret = SUB_PROCESS_STATE_NEXT_STATE;
   \                     ??RemoteUserProcess_24: (+1)
   \   00000410   0x2004             MOVS     R0,#+4
   \   00000412   0x0004             MOVS     R4,R0
    181                      }
    182                      break;
    183                      }
    184                  }
    185                  break;
   \                     ??RemoteUserProcess_25: (+1)
   \   00000414   0xE7FF             B.N      ??RemoteUserProcess_8
    186                  default:
    187                          break;
    188              }
    189          
    190          
    191          
    192              return ret;
   \                     ??RemoteUserProcess_7: (+1)
   \                     ??RemoteUserProcess_8: (+1)
   \   00000416   0x0020             MOVS     R0,R4
   \   00000418   0xB2C0             UXTB     R0,R0            ;; ZeroExt  R0,R0,#+24,#+24
   \   0000041A   0xF50D 0x6D20      ADD      SP,SP,#+2560
   \   0000041E   0xB00D             ADD      SP,SP,#+52
   \   00000420   0xE8BD 0x8FF0      POP      {R4-R11,PC}      ;; return
    193          }
    194          
    195          

   \                                 In section .text, align 2, keep-with-next
    196          RemoteResponse RemoteUserReceive(SubReceiveDataType datatype, ADDSTATESFUNC addstatefunc, DapiGlobalVariable* dapiGlobalVariable )
    197          {
   \                     RemoteUserReceive: (+1)
   \   00000000   0xE92D 0x4FFF      PUSH     {R0-R11,LR}
   \   00000004   0xF5AD 0x5D88      SUB      SP,SP,#+4352
   \   00000008   0xB0B9             SUB      SP,SP,#+228
   \   0000000A   0xF50D 0x5480      ADD      R4,SP,#+4096
   \   0000000E   0xF8D4 0x4218      LDR      R4,[R4, #+536]
    198              RemoteResponse ret = REMOTE_RESPONSE_START;
   \   00000012   0xF05F 0x0A00      MOVS     R10,#+0
    199          
    200              switch(datatype.command)
   \   00000016   0xF50D 0x5080      ADD      R0,SP,#+4096
   \   0000001A   0xF890 0x01E4      LDRB     R0,[R0, #+484]
   \   0000001E   0x2800             CMP      R0,#+0
   \   00000020   0xD008             BEQ.N    ??RemoteUserReceive_0
   \   00000022   0x2801             CMP      R0,#+1
   \   00000024   0xD022             BEQ.N    ??RemoteUserReceive_1
   \   00000026   0x2802             CMP      R0,#+2
   \   00000028   0xF000 0x80BB      BEQ.W    ??RemoteUserReceive_2
   \   0000002C   0x2812             CMP      R0,#+18
   \   0000002E   0xF000 0x819A      BEQ.W    ??RemoteUserReceive_3
   \   00000032   0xE260             B.N      ??RemoteUserReceive_4
    201              {
    202                  case REMOTE_USER_MANAGEMENT_ACKNOWLEDGMENT:
    203                  {
    204                      RemoteDataAck *ack =(RemoteDataAck*) datatype.data;
   \                     ??RemoteUserReceive_0: (+1)
   \   00000034   0xF50D 0x5080      ADD      R0,SP,#+4096
   \   00000038   0xF8D0 0x01E8      LDR      R0,[R0, #+488]
    205                      switch( ack->messageType )
   \   0000003C   0x7801             LDRB     R1,[R0, #+0]
   \   0000003E   0x2901             CMP      R1,#+1
   \   00000040   0xD00C             BEQ.N    ??RemoteUserReceive_5
   \   00000042   0x2902             CMP      R1,#+2
   \   00000044   0xD00B             BEQ.N    ??RemoteUserReceive_6
   \   00000046   0x2905             CMP      R1,#+5
   \   00000048   0xD00A             BEQ.N    ??RemoteUserReceive_7
   \   0000004A   0x290A             CMP      R1,#+10
   \   0000004C   0xD009             BEQ.N    ??RemoteUserReceive_8
   \   0000004E   0x2912             CMP      R1,#+18
   \   00000050   0xD008             BEQ.N    ??RemoteUserReceive_9
   \   00000052   0x2913             CMP      R1,#+19
   \   00000054   0xD007             BEQ.N    ??RemoteUserReceive_10
   \   00000056   0x2914             CMP      R1,#+20
   \   00000058   0xD006             BEQ.N    ??RemoteUserReceive_11
   \   0000005A   0xE006             B.N      ??RemoteUserReceive_12
    206                      {
    207                          case REMOTE_SYNC_USER_INFO:
    208                          {
    209                          }
    210                          break;
   \                     ??RemoteUserReceive_5: (+1)
   \   0000005C   0xE005             B.N      ??RemoteUserReceive_13
    211                          case REMOTE_USER_LOGIN:
    212                          {
    213                          }
    214                          break;
   \                     ??RemoteUserReceive_6: (+1)
   \   0000005E   0xE004             B.N      ??RemoteUserReceive_13
    215                          case REMOTE_USER_CLEAR_USERS:
    216                          {
    217                          }
    218                          break;
   \                     ??RemoteUserReceive_7: (+1)
   \   00000060   0xE003             B.N      ??RemoteUserReceive_13
    219                          case REMOTE_USER_UNLINK_USER:
    220                          {
    221                          }
    222                          break;
   \                     ??RemoteUserReceive_8: (+1)
   \   00000062   0xE002             B.N      ??RemoteUserReceive_13
    223                          case REMOTE_USER_RFID_LOGIN:
    224                          {
    225                          }
    226                          break;
   \                     ??RemoteUserReceive_9: (+1)
   \   00000064   0xE001             B.N      ??RemoteUserReceive_13
    227                          case REMOTE_USER_RFID_ASSOCIATE:
    228                          {
    229                          }
    230                          break;
   \                     ??RemoteUserReceive_10: (+1)
   \   00000066   0xE000             B.N      ??RemoteUserReceive_13
    231                          case REMOTE_USER_RFID_DISASSOCIATE:
    232                          {
    233                          }
    234                          break;
   \                     ??RemoteUserReceive_11: (+1)
   \   00000068   0xE7FF             B.N      ??RemoteUserReceive_13
    235                          default:
    236                              break;
    237                      }
    238                  }
    239                  break;
   \                     ??RemoteUserReceive_12: (+1)
   \                     ??RemoteUserReceive_13: (+1)
   \   0000006A   0xE244             B.N      ??RemoteUserReceive_14
    240                  case REMOTE_SYNC_USER_INFO:
    241                  {
    242                      UserSyncResponseData *responseData = (UserSyncResponseData*)datatype.data;
   \                     ??RemoteUserReceive_1: (+1)
   \   0000006C   0xF50D 0x5580      ADD      R5,SP,#+4096
   \   00000070   0xF8D5 0x51E8      LDR      R5,[R5, #+488]
    243                      UINT8 userIndex = responseData->userConsoleId;
   \   00000074   0x7828             LDRB     R0,[R5, #+0]
   \   00000076   0xF88D 0x0296      STRB     R0,[SP, #+662]
    244                      if( userIndex < SystemConfig_Get_MaxUserNumber( ))
   \   0000007A   0x.... 0x....      BL       SystemConfig_Get_MaxUserNumber
   \   0000007E   0xF89D 0x1296      LDRB     R1,[SP, #+662]
   \   00000082   0xB2C0             UXTB     R0,R0            ;; ZeroExt  R0,R0,#+24,#+24
   \   00000084   0x4281             CMP      R1,R0
   \   00000086   0xF080 0x808B      BCS.W    ??RemoteUserReceive_15
   \   0000008A   0xF89D 0x1296      LDRB     R1,[SP, #+662]
   \   0000008E   0xA8A5             ADD      R0,SP,#+660
   \   00000090   0x1CC0             ADDS     R0,R0,#+3
   \   00000092   0x.... 0x....      BL       SystemConfig_Get_UserInfo
    245                      {
    246                          USERS_INFO userinfo = SystemConfig_Get_UserInfo(userIndex);
   \   00000096   0xF50D 0x6074      ADD      R0,SP,#+3904
   \   0000009A   0xA9A5             ADD      R1,SP,#+660
   \   0000009C   0x1CC9             ADDS     R1,R1,#+3
   \   0000009E   0xF44F 0x7228      MOV      R2,#+672
   \   000000A2   0x.... 0x....      BL       __aeabi_memcpy
    247                          if(responseData->UserSetup == 0)
   \   000000A6   0x7868             LDRB     R0,[R5, #+1]
   \   000000A8   0x2800             CMP      R0,#+0
   \   000000AA   0xD116             BNE.N    ??RemoteUserReceive_16
    248                          {
    249                              if( strncmp( userinfo.xid, DEFAULTXID, XIDMAXLENGTH ) != 0 )
   \   000000AC   0x220E             MOVS     R2,#+14
   \   000000AE   0x.... 0x....      LDR.W    R1,??DataTable0
   \   000000B2   0xF640 0x7042      MOVW     R0,#+3906
   \   000000B6   0x4468             ADD      R0,R0,SP
   \   000000B8   0x.... 0x....      BL       strncmp
   \   000000BC   0x2800             CMP      R0,#+0
   \   000000BE   0xD06F             BEQ.N    ??RemoteUserReceive_15
    250                              {
    251                                  if(SystemConfig_Reset_User_Default(userIndex))
   \   000000C0   0xF89D 0x0296      LDRB     R0,[SP, #+662]
   \   000000C4   0x.... 0x....      BL       SystemConfig_Reset_User_Default
   \   000000C8   0x2800             CMP      R0,#+0
   \   000000CA   0xD069             BEQ.N    ??RemoteUserReceive_15
    252                                  {
    253                                      SystemConfigProcess(SVK_SAVE_USER2FLASH, &userIndex, sizeof(userIndex));
   \   000000CC   0x2201             MOVS     R2,#+1
   \   000000CE   0xA9A5             ADD      R1,SP,#+660
   \   000000D0   0x1C89             ADDS     R1,R1,#+2
   \   000000D2   0x2072             MOVS     R0,#+114
   \   000000D4   0x.... 0x....      BL       SystemConfigProcess
   \   000000D8   0xE062             B.N      ??RemoteUserReceive_15
    254                                  }
    255                              }
    256                          }
    257                          else
    258                          {                
    259                              memcpy( userinfo.xid, responseData->xid, XIDMAXLENGTH );
   \                     ??RemoteUserReceive_16: (+1)
   \   000000DA   0xF05F 0x090E      MOVS     R9,#+14
   \   000000DE   0x1CA8             ADDS     R0,R5,#+2
   \   000000E0   0x90A7             STR      R0,[SP, #+668]
   \   000000E2   0xF640 0x7642      MOVW     R6,#+3906
   \   000000E6   0x446E             ADD      R6,R6,SP
   \   000000E8   0x464A             MOV      R2,R9
   \   000000EA   0x99A7             LDR      R1,[SP, #+668]
   \   000000EC   0x0030             MOVS     R0,R6
   \   000000EE   0x.... 0x....      BL       __aeabi_memcpy
    260                              memcpy( userinfo.passcode, responseData->passcode, 4 );
   \   000000F2   0xF05F 0x0804      MOVS     R8,#+4
   \   000000F6   0xF115 0x0010      ADDS     R0,R5,#+16
   \   000000FA   0x90A6             STR      R0,[SP, #+664]
   \   000000FC   0xF50D 0x6675      ADD      R6,SP,#+3920
   \   00000100   0x4642             MOV      R2,R8
   \   00000102   0x99A6             LDR      R1,[SP, #+664]
   \   00000104   0x0030             MOVS     R0,R6
   \   00000106   0x.... 0x....      BL       __aeabi_memcpy
    261                              userinfo.weightStandardX100= responseData->weightX10*10+5;
   \   0000010A   0x8AE8             LDRH     R0,[R5, #+22]
   \   0000010C   0x210A             MOVS     R1,#+10
   \   0000010E   0x4348             MULS     R0,R1,R0
   \   00000110   0x1D40             ADDS     R0,R0,#+5
   \   00000112   0xF8AD 0x0F54      STRH     R0,[SP, #+3924]
    262                              userinfo.age = responseData->age;
   \   00000116   0x7E28             LDRB     R0,[R5, #+24]
   \   00000118   0xF88D 0x0F56      STRB     R0,[SP, #+3926]
    263                              userinfo.year = responseData->year;
   \   0000011C   0x8B68             LDRH     R0,[R5, #+26]
   \   0000011E   0xF8AD 0x0F57      STRH     R0,[SP, #+3927]
    264                              userinfo.month = responseData->month;
   \   00000122   0x7F28             LDRB     R0,[R5, #+28]
   \   00000124   0xF88D 0x0F59      STRB     R0,[SP, #+3929]
    265                              userinfo.date= responseData->day;
   \   00000128   0x7F68             LDRB     R0,[R5, #+29]
   \   0000012A   0xF88D 0x0F5A      STRB     R0,[SP, #+3930]
    266                              userinfo.gender = responseData->gender;
   \   0000012E   0x7D28             LDRB     R0,[R5, #+20]
   \   00000130   0xF88D 0x0F5B      STRB     R0,[SP, #+3931]
    267                              userinfo.languageId= responseData->language;
   \   00000134   0x7FA8             LDRB     R0,[R5, #+30]
   \   00000136   0xF88D 0x0FA5      STRB     R0,[SP, #+4005]
    268                              userinfo.displayUnit= responseData->DisplayUnits;
   \   0000013A   0x7FE8             LDRB     R0,[R5, #+31]
   \   0000013C   0xF88D 0x0F63      STRB     R0,[SP, #+3939]
    269                              userinfo.isAcceptedTerms= responseData->AcceptedTerms;
   \   00000140   0xF895 0x0061      LDRB     R0,[R5, #+97]
   \   00000144   0xF88D 0x0FA6      STRB     R0,[SP, #+4006]
    270                              userinfo.isShareWorkouts= responseData->WorkoutDataShare;
   \   00000148   0xF895 0x0062      LDRB     R0,[R5, #+98]
   \   0000014C   0xF88D 0x0FA7      STRB     R0,[SP, #+4007]
    271                              memset( userinfo.name, 0, 65 );
   \   00000150   0x2641             MOVS     R6,#+65
   \   00000152   0x2700             MOVS     R7,#+0
   \   00000154   0xF640 0x7B64      MOVW     R11,#+3940
   \   00000158   0x44EB             ADD      R11,R11,SP
   \   0000015A   0x003A             MOVS     R2,R7
   \   0000015C   0x0031             MOVS     R1,R6
   \   0000015E   0x4658             MOV      R0,R11
   \   00000160   0x.... 0x....      BL       __aeabi_memset
    272                              strncpy( userinfo.name, responseData->name, 65 );
   \   00000164   0x2241             MOVS     R2,#+65
   \   00000166   0xF115 0x0120      ADDS     R1,R5,#+32
   \   0000016A   0xF640 0x7064      MOVW     R0,#+3940
   \   0000016E   0x4468             ADD      R0,R0,SP
   \   00000170   0x.... 0x....      BL       strncpy
    273                              if(SystemConfig_Set_UserInfo(userinfo,userIndex))
   \   00000174   0xF89D 0x0296      LDRB     R0,[SP, #+662]
   \   00000178   0x90A4             STR      R0,[SP, #+656]
   \   0000017A   0xF50D 0x6174      ADD      R1,SP,#+3904
   \   0000017E   0xB084             SUB      SP,SP,#+16
   \   00000180   0x4668             MOV      R0,SP
   \   00000182   0xF44F 0x7228      MOV      R2,#+672
   \   00000186   0x.... 0x....      BL       __aeabi_memcpy4
   \   0000018A   0xBC0F             POP      {R0-R3}
   \   0000018C   0x.... 0x....      BL       SystemConfig_Set_UserInfo
   \   00000190   0x2800             CMP      R0,#+0
   \   00000192   0xD005             BEQ.N    ??RemoteUserReceive_15
    274                              { 
    275                                  SystemConfigProcess(SVK_SAVE_USER2FLASH, &userIndex, sizeof(userIndex));
   \   00000194   0x2201             MOVS     R2,#+1
   \   00000196   0xA9A5             ADD      R1,SP,#+660
   \   00000198   0x1C89             ADDS     R1,R1,#+2
   \   0000019A   0x2072             MOVS     R0,#+114
   \   0000019C   0x.... 0x....      BL       SystemConfigProcess
    276                              }
    277                          }
    278                      }
    279                  }
    280                  break;
   \                     ??RemoteUserReceive_15: (+1)
   \   000001A0   0xE1A9             B.N      ??RemoteUserReceive_14
    281                  case REMOTE_USER_LOGIN:
    282                  {
    283                      UserLoginResponse *loginResponse = (UserLoginResponse*)datatype.data;
   \                     ??RemoteUserReceive_2: (+1)
   \   000001A2   0xF50D 0x5580      ADD      R5,SP,#+4096
   \   000001A6   0xF8D5 0x51E8      LDR      R5,[R5, #+488]
    284                      UINT8 userId = loginResponse->userId;	
   \   000001AA   0x7828             LDRB     R0,[R5, #+0]
   \   000001AC   0xF88D 0x0295      STRB     R0,[SP, #+661]
    285                      if(userId < SystemConfig_Get_MaxUserNumber( ))
   \   000001B0   0x.... 0x....      BL       SystemConfig_Get_MaxUserNumber
   \   000001B4   0xF89D 0x1295      LDRB     R1,[SP, #+661]
   \   000001B8   0xB2C0             UXTB     R0,R0            ;; ZeroExt  R0,R0,#+24,#+24
   \   000001BA   0x4281             CMP      R1,R0
   \   000001BC   0xF080 0x80D2      BCS.W    ??RemoteUserReceive_17
   \   000001C0   0xF89D 0x1295      LDRB     R1,[SP, #+661]
   \   000001C4   0xA8A5             ADD      R0,SP,#+660
   \   000001C6   0x1CC0             ADDS     R0,R0,#+3
   \   000001C8   0x.... 0x....      BL       SystemConfig_Get_UserInfo
    286                      {
    287                          USERS_INFO userinfo = SystemConfig_Get_UserInfo(userId);
   \   000001CC   0xF50D 0x604A      ADD      R0,SP,#+3232
   \   000001D0   0xA9A5             ADD      R1,SP,#+660
   \   000001D2   0x1CC9             ADDS     R1,R1,#+3
   \   000001D4   0xF44F 0x7228      MOV      R2,#+672
   \   000001D8   0x.... 0x....      BL       __aeabi_memcpy
   \   000001DC   0x4668             MOV      R0,SP
   \   000001DE   0x.... 0x....      BL       SystemConfig_Get_MachineInfo
    288                          MACHINE_INFO machineConfig=SystemConfig_Get_MachineInfo();
   \   000001E2   0xF640 0x203C      MOVW     R0,#+2620
   \   000001E6   0x4468             ADD      R0,R0,SP
   \   000001E8   0x4669             MOV      R1,SP
   \   000001EA   0xF240 0x2262      MOVW     R2,#+610
   \   000001EE   0x.... 0x....      BL       __aeabi_memcpy
    289                          memcpy(userinfo.xid, dapiGlobalVariable->dataInfor.loginInfor._loginRequest.xid, XIDMAXLENGTH );
   \   000001F2   0x260E             MOVS     R6,#+14
   \   000001F4   0x1C60             ADDS     R0,R4,#+1
   \   000001F6   0x9001             STR      R0,[SP, #+4]
   \   000001F8   0xF640 0x47A2      MOVW     R7,#+3234
   \   000001FC   0x446F             ADD      R7,R7,SP
   \   000001FE   0x0032             MOVS     R2,R6
   \   00000200   0x9901             LDR      R1,[SP, #+4]
   \   00000202   0x0038             MOVS     R0,R7
   \   00000204   0x.... 0x....      BL       __aeabi_memcpy
    290                          memcpy( userinfo.passcode, dapiGlobalVariable->dataInfor.loginInfor._loginRequest.passcode, 4 );
   \   00000208   0x2704             MOVS     R7,#+4
   \   0000020A   0xF114 0x000F      ADDS     R0,R4,#+15
   \   0000020E   0x9000             STR      R0,[SP, #+0]
   \   00000210   0xF50D 0x684B      ADD      R8,SP,#+3248
   \   00000214   0x003A             MOVS     R2,R7
   \   00000216   0x9900             LDR      R1,[SP, #+0]
   \   00000218   0x4640             MOV      R0,R8
   \   0000021A   0x.... 0x....      BL       __aeabi_memcpy
    291                          userinfo.weightStandardX100 = loginResponse->weightX10*10+5;
   \   0000021E   0x8CE8             LDRH     R0,[R5, #+38]
   \   00000220   0x210A             MOVS     R1,#+10
   \   00000222   0x4348             MULS     R0,R1,R0
   \   00000224   0x1D40             ADDS     R0,R0,#+5
   \   00000226   0xF8AD 0x0CB4      STRH     R0,[SP, #+3252]
    292                          userinfo.age = loginResponse->age;
   \   0000022A   0xF895 0x0028      LDRB     R0,[R5, #+40]
   \   0000022E   0xF88D 0x0CB6      STRB     R0,[SP, #+3254]
    293                          userinfo.year = loginResponse->year;
   \   00000232   0x8D68             LDRH     R0,[R5, #+42]
   \   00000234   0xF8AD 0x0CB7      STRH     R0,[SP, #+3255]
    294                          userinfo.month = loginResponse->month;
   \   00000238   0xF895 0x002C      LDRB     R0,[R5, #+44]
   \   0000023C   0xF88D 0x0CB9      STRB     R0,[SP, #+3257]
    295                          userinfo.date = loginResponse->day;
   \   00000240   0xF895 0x002D      LDRB     R0,[R5, #+45]
   \   00000244   0xF88D 0x0CBA      STRB     R0,[SP, #+3258]
    296                          userinfo.gender = loginResponse->gender;
   \   00000248   0xF895 0x0025      LDRB     R0,[R5, #+37]
   \   0000024C   0xF88D 0x0CBB      STRB     R0,[SP, #+3259]
    297                          userinfo.languageId= loginResponse->language;
   \   00000250   0xF895 0x002E      LDRB     R0,[R5, #+46]
   \   00000254   0xF88D 0x0D05      STRB     R0,[SP, #+3333]
    298                          userinfo.displayUnit = loginResponse->DisplayUnits;
   \   00000258   0xF895 0x002F      LDRB     R0,[R5, #+47]
   \   0000025C   0xF88D 0x0CC3      STRB     R0,[SP, #+3267]
    299                          dapiGlobalVariable->dataInfor.workoutInfor._UserExternalID[0] = userId;
   \   00000260   0xF89D 0x0295      LDRB     R0,[SP, #+661]
   \   00000264   0x7020             STRB     R0,[R4, #+0]
    300                          memcpy( dapiGlobalVariable->dataInfor.workoutInfor._UserExternalID+1,  loginResponse->externalUserId,  36 );
   \   00000266   0xF05F 0x0824      MOVS     R8,#+36
   \   0000026A   0xF115 0x0901      ADDS     R9,R5,#+1
   \   0000026E   0xF114 0x0B01      ADDS     R11,R4,#+1
   \   00000272   0x4642             MOV      R2,R8
   \   00000274   0x4649             MOV      R1,R9
   \   00000276   0x4658             MOV      R0,R11
   \   00000278   0x.... 0x....      BL       __aeabi_memcpy
    301                          userinfo.isAcceptedTerms = 0;
   \   0000027C   0x2000             MOVS     R0,#+0
   \   0000027E   0xF88D 0x0D06      STRB     R0,[SP, #+3334]
    302                          userinfo.isSetup= 1;
   \   00000282   0x2001             MOVS     R0,#+1
   \   00000284   0xF88D 0x0D09      STRB     R0,[SP, #+3337]
    303                          if(machineConfig.lastLoggedUser != userId )
   \   00000288   0xF89D 0x0C3E      LDRB     R0,[SP, #+3134]
   \   0000028C   0xF89D 0x1295      LDRB     R1,[SP, #+661]
   \   00000290   0x4288             CMP      R0,R1
   \   00000292   0xD01D             BEQ.N    ??RemoteUserReceive_18
    304                          {
    305                                  USERS_INFO Tempuserinfo = SystemConfig_Get_UserInfo( machineConfig.lastLoggedUser );
   \   00000294   0xF89D 0x1C3E      LDRB     R1,[SP, #+3134]
   \   00000298   0xA8A6             ADD      R0,SP,#+664
   \   0000029A   0x.... 0x....      BL       SystemConfig_Get_UserInfo
    306                                  Tempuserinfo.isLoggedOn = 0;
   \   0000029E   0x2000             MOVS     R0,#+0
   \   000002A0   0xF88D 0x0300      STRB     R0,[SP, #+768]
    307                                  if((SystemConfig_Set_UserInfo(Tempuserinfo,machineConfig.lastLoggedUser)))   
   \   000002A4   0xF89D 0x0C3E      LDRB     R0,[SP, #+3134]
   \   000002A8   0x90A4             STR      R0,[SP, #+656]
   \   000002AA   0xA9A6             ADD      R1,SP,#+664
   \   000002AC   0xB084             SUB      SP,SP,#+16
   \   000002AE   0x4668             MOV      R0,SP
   \   000002B0   0xF44F 0x7228      MOV      R2,#+672
   \   000002B4   0x.... 0x....      BL       __aeabi_memcpy4
   \   000002B8   0xBC0F             POP      {R0-R3}
   \   000002BA   0x.... 0x....      BL       SystemConfig_Set_UserInfo
   \   000002BE   0x2800             CMP      R0,#+0
   \   000002C0   0xD006             BEQ.N    ??RemoteUserReceive_18
    308                                  {
    309                                      SystemConfigProcess(SVK_SAVE_USER2FLASH, &machineConfig.lastLoggedUser,sizeof(machineConfig.lastLoggedUser));
   \   000002C2   0x2201             MOVS     R2,#+1
   \   000002C4   0xF640 0x413E      MOVW     R1,#+3134
   \   000002C8   0x4469             ADD      R1,R1,SP
   \   000002CA   0x2072             MOVS     R0,#+114
   \   000002CC   0x.... 0x....      BL       SystemConfigProcess
    310                                  }
    311                          }
    312                          machineConfig.lastLoggedUser = userId;
   \                     ??RemoteUserReceive_18: (+1)
   \   000002D0   0xF89D 0x0295      LDRB     R0,[SP, #+661]
   \   000002D4   0xF88D 0x0C3E      STRB     R0,[SP, #+3134]
    313                          userinfo.isLoggedOn = 1;
   \   000002D8   0x2001             MOVS     R0,#+1
   \   000002DA   0xF88D 0x0D08      STRB     R0,[SP, #+3336]
    314          	         machineConfig.unit = userinfo.displayUnit;             
   \   000002DE   0xF89D 0x0CC3      LDRB     R0,[SP, #+3267]
   \   000002E2   0xF88D 0x0A41      STRB     R0,[SP, #+2625]
    315                         memset( userinfo.name, 0, 65 );
   \   000002E6   0xF05F 0x0841      MOVS     R8,#+65
   \   000002EA   0x2600             MOVS     R6,#+0
   \   000002EC   0xF640 0x47C4      MOVW     R7,#+3268
   \   000002F0   0x446F             ADD      R7,R7,SP
   \   000002F2   0x0032             MOVS     R2,R6
   \   000002F4   0x4641             MOV      R1,R8
   \   000002F6   0x0038             MOVS     R0,R7
   \   000002F8   0x.... 0x....      BL       __aeabi_memset
    316                         memcpy( userinfo.name, loginResponse->userName, 65 );
   \   000002FC   0x2741             MOVS     R7,#+65
   \   000002FE   0xF115 0x0930      ADDS     R9,R5,#+48
   \   00000302   0xF640 0x4BC4      MOVW     R11,#+3268
   \   00000306   0x44EB             ADD      R11,R11,SP
   \   00000308   0x003A             MOVS     R2,R7
   \   0000030A   0x4649             MOV      R1,R9
   \   0000030C   0x4658             MOV      R0,R11
   \   0000030E   0x.... 0x....      BL       __aeabi_memcpy
    317                         if(SystemConfig_Set_UserInfo(userinfo,userId))
   \   00000312   0xF89D 0x0295      LDRB     R0,[SP, #+661]
   \   00000316   0x90A4             STR      R0,[SP, #+656]
   \   00000318   0xF50D 0x614A      ADD      R1,SP,#+3232
   \   0000031C   0xB084             SUB      SP,SP,#+16
   \   0000031E   0x4668             MOV      R0,SP
   \   00000320   0xF44F 0x7228      MOV      R2,#+672
   \   00000324   0x.... 0x....      BL       __aeabi_memcpy4
   \   00000328   0xBC0F             POP      {R0-R3}
   \   0000032A   0x.... 0x....      BL       SystemConfig_Set_UserInfo
   \   0000032E   0x2800             CMP      R0,#+0
   \   00000330   0xD005             BEQ.N    ??RemoteUserReceive_19
    318                         {
    319                             SystemConfigProcess(SVK_SAVE_USER2FLASH, &userId,sizeof(userId));                        
   \   00000332   0x2201             MOVS     R2,#+1
   \   00000334   0xA9A5             ADD      R1,SP,#+660
   \   00000336   0x1C49             ADDS     R1,R1,#+1
   \   00000338   0x2072             MOVS     R0,#+114
   \   0000033A   0x.... 0x....      BL       SystemConfigProcess
    320                         }
    321                         if(SystemConfig_Set_MachineInfo(machineConfig))
   \                     ??RemoteUserReceive_19: (+1)
   \   0000033E   0xF640 0x213C      MOVW     R1,#+2620
   \   00000342   0x4469             ADD      R1,R1,SP
   \   00000344   0xB084             SUB      SP,SP,#+16
   \   00000346   0x4668             MOV      R0,SP
   \   00000348   0xF44F 0x7219      MOV      R2,#+612
   \   0000034C   0x.... 0x....      BL       __aeabi_memcpy4
   \   00000350   0xBC0F             POP      {R0-R3}
   \   00000352   0x.... 0x....      BL       SystemConfig_Set_MachineInfo
   \   00000356   0x2800             CMP      R0,#+0
   \   00000358   0xD004             BEQ.N    ??RemoteUserReceive_17
    322                         {                        
    323                             SystemConfigProcess(SVK_SAVE_MACHINEINFO2FLASH, NULL,0);
   \   0000035A   0x2200             MOVS     R2,#+0
   \   0000035C   0x2100             MOVS     R1,#+0
   \   0000035E   0x2073             MOVS     R0,#+115
   \   00000360   0x.... 0x....      BL       SystemConfigProcess
    324                         }
    325                      }
    326                  }
    327                  break;
   \                     ??RemoteUserReceive_17: (+1)
   \   00000364   0xE0C7             B.N      ??RemoteUserReceive_14
    328                  case REMOTE_USER_RFID_LOGIN:
    329                  {
    330                      UserRFidLoginResp *response = (UserRFidLoginResp *)datatype.data;
   \                     ??RemoteUserReceive_3: (+1)
   \   00000366   0xF50D 0x5580      ADD      R5,SP,#+4096
   \   0000036A   0xF8D5 0x51E8      LDR      R5,[R5, #+488]
    331                      UINT8 userId = response->userID;            
   \   0000036E   0x7828             LDRB     R0,[R5, #+0]
   \   00000370   0xF88D 0x0294      STRB     R0,[SP, #+660]
    332                      if(userId < SystemConfig_Get_MaxUserNumber( ))
   \   00000374   0x.... 0x....      BL       SystemConfig_Get_MaxUserNumber
   \   00000378   0xF89D 0x1294      LDRB     R1,[SP, #+660]
   \   0000037C   0xB2C0             UXTB     R0,R0            ;; ZeroExt  R0,R0,#+24,#+24
   \   0000037E   0x4281             CMP      R1,R0
   \   00000380   0xF080 0x80B8      BCS.W    ??RemoteUserReceive_20
   \   00000384   0xF89D 0x1294      LDRB     R1,[SP, #+660]
   \   00000388   0xA8A5             ADD      R0,SP,#+660
   \   0000038A   0x1CC0             ADDS     R0,R0,#+3
   \   0000038C   0x.... 0x....      BL       SystemConfig_Get_UserInfo
    333                      {                
    334                          USERS_INFO userinfo = SystemConfig_Get_UserInfo(userId);
   \   00000390   0xF240 0x709C      MOVW     R0,#+1948
   \   00000394   0x4468             ADD      R0,R0,SP
   \   00000396   0xA9A5             ADD      R1,SP,#+660
   \   00000398   0x1CC9             ADDS     R1,R1,#+3
   \   0000039A   0xF44F 0x7228      MOV      R2,#+672
   \   0000039E   0x.... 0x....      BL       __aeabi_memcpy
   \   000003A2   0x4668             MOV      R0,SP
   \   000003A4   0x.... 0x....      BL       SystemConfig_Get_MachineInfo
    335                          MACHINE_INFO machineConfig=SystemConfig_Get_MachineInfo();
   \   000003A8   0xF50D 0x60A7      ADD      R0,SP,#+1336
   \   000003AC   0x4669             MOV      R1,SP
   \   000003AE   0xF240 0x2262      MOVW     R2,#+610
   \   000003B2   0x.... 0x....      BL       __aeabi_memcpy
    336                          
    337                          dapiGlobalVariable->dataInfor.workoutInfor._UserExternalID[0] = userId;
   \   000003B6   0xF89D 0x0294      LDRB     R0,[SP, #+660]
   \   000003BA   0x7020             STRB     R0,[R4, #+0]
    338                          memcpy( dapiGlobalVariable->dataInfor.workoutInfor._UserExternalID+1,  response->externalUserID,  36 );                
   \   000003BC   0x2624             MOVS     R6,#+36
   \   000003BE   0x1C68             ADDS     R0,R5,#+1
   \   000003C0   0x9001             STR      R0,[SP, #+4]
   \   000003C2   0x1C67             ADDS     R7,R4,#+1
   \   000003C4   0x0032             MOVS     R2,R6
   \   000003C6   0x9901             LDR      R1,[SP, #+4]
   \   000003C8   0x0038             MOVS     R0,R7
   \   000003CA   0x.... 0x....      BL       __aeabi_memcpy
    339                          userinfo.gender = response->gender;
   \   000003CE   0xF895 0x0025      LDRB     R0,[R5, #+37]
   \   000003D2   0xF88D 0x07B7      STRB     R0,[SP, #+1975]
    340                          userinfo.weightStandardX100 = response->userWeightX10*10;
   \   000003D6   0x8CE8             LDRH     R0,[R5, #+38]
   \   000003D8   0x210A             MOVS     R1,#+10
   \   000003DA   0x4348             MULS     R0,R1,R0
   \   000003DC   0xF8AD 0x07B0      STRH     R0,[SP, #+1968]
    341                          userinfo.age = response->userAge;
   \   000003E0   0xF895 0x0028      LDRB     R0,[R5, #+40]
   \   000003E4   0xF88D 0x07B2      STRB     R0,[SP, #+1970]
    342                          userinfo.year = response->userBirthYear;
   \   000003E8   0x8D68             LDRH     R0,[R5, #+42]
   \   000003EA   0xF8AD 0x07B3      STRH     R0,[SP, #+1971]
    343                          userinfo.month = response->userBirthMonth;
   \   000003EE   0x8DA8             LDRH     R0,[R5, #+44]
   \   000003F0   0xF88D 0x07B5      STRB     R0,[SP, #+1973]
    344                          userinfo.date= response->userBirthDay;
   \   000003F4   0x8DE8             LDRH     R0,[R5, #+46]
   \   000003F6   0xF88D 0x07B6      STRB     R0,[SP, #+1974]
    345                          userinfo.languageId= response->userLanguageId;
   \   000003FA   0xF895 0x0030      LDRB     R0,[R5, #+48]
   \   000003FE   0xF88D 0x0801      STRB     R0,[SP, #+2049]
    346                          userinfo.displayUnit= response->displayUnits;
   \   00000402   0xF895 0x0031      LDRB     R0,[R5, #+49]
   \   00000406   0xF88D 0x07BF      STRB     R0,[SP, #+1983]
    347                          userinfo.isAcceptedTerms= response->acceptedTerms;
   \   0000040A   0xF895 0x0073      LDRB     R0,[R5, #+115]
   \   0000040E   0xF88D 0x0802      STRB     R0,[SP, #+2050]
    348                          userinfo.isShareWorkouts= response->shareWorkoutData;
   \   00000412   0xF895 0x0074      LDRB     R0,[R5, #+116]
   \   00000416   0xF88D 0x0803      STRB     R0,[SP, #+2051]
    349                          memset( userinfo.name, 0, 65 );
   \   0000041A   0x2741             MOVS     R7,#+65
   \   0000041C   0xF05F 0x0800      MOVS     R8,#+0
   \   00000420   0xF50D 0x69F8      ADD      R9,SP,#+1984
   \   00000424   0x4642             MOV      R2,R8
   \   00000426   0x0039             MOVS     R1,R7
   \   00000428   0x4648             MOV      R0,R9
   \   0000042A   0x.... 0x....      BL       __aeabi_memset
    350                          memcpy( userinfo.name, response->userName, 65 );                
   \   0000042E   0xF05F 0x0941      MOVS     R9,#+65
   \   00000432   0xF115 0x0032      ADDS     R0,R5,#+50
   \   00000436   0x9000             STR      R0,[SP, #+0]
   \   00000438   0xF50D 0x6BF8      ADD      R11,SP,#+1984
   \   0000043C   0x464A             MOV      R2,R9
   \   0000043E   0x9900             LDR      R1,[SP, #+0]
   \   00000440   0x4658             MOV      R0,R11
   \   00000442   0x.... 0x....      BL       __aeabi_memcpy
    351                          if(machineConfig.lastLoggedUser != userId )
   \   00000446   0xF89D 0x073A      LDRB     R0,[SP, #+1850]
   \   0000044A   0xF89D 0x1294      LDRB     R1,[SP, #+660]
   \   0000044E   0x4288             CMP      R0,R1
   \   00000450   0xD01D             BEQ.N    ??RemoteUserReceive_21
    352                          {
    353                              USERS_INFO Tempuserinfo = SystemConfig_Get_UserInfo( machineConfig.lastLoggedUser );
   \   00000452   0xF89D 0x173A      LDRB     R1,[SP, #+1850]
   \   00000456   0xA8A6             ADD      R0,SP,#+664
   \   00000458   0x.... 0x....      BL       SystemConfig_Get_UserInfo
    354                              Tempuserinfo.isLoggedOn = 0;
   \   0000045C   0x2000             MOVS     R0,#+0
   \   0000045E   0xF88D 0x0300      STRB     R0,[SP, #+768]
    355                              if((SystemConfig_Set_UserInfo(Tempuserinfo,machineConfig.lastLoggedUser)))   
   \   00000462   0xF89D 0x073A      LDRB     R0,[SP, #+1850]
   \   00000466   0x90A4             STR      R0,[SP, #+656]
   \   00000468   0xA9A6             ADD      R1,SP,#+664
   \   0000046A   0xB084             SUB      SP,SP,#+16
   \   0000046C   0x4668             MOV      R0,SP
   \   0000046E   0xF44F 0x7228      MOV      R2,#+672
   \   00000472   0x.... 0x....      BL       __aeabi_memcpy4
   \   00000476   0xBC0F             POP      {R0-R3}
   \   00000478   0x.... 0x....      BL       SystemConfig_Set_UserInfo
   \   0000047C   0x2800             CMP      R0,#+0
   \   0000047E   0xD006             BEQ.N    ??RemoteUserReceive_21
    356                              {
    357                                  SystemConfigProcess(SVK_SAVE_USER2FLASH, &machineConfig.lastLoggedUser,sizeof(machineConfig.lastLoggedUser));
   \   00000480   0x2201             MOVS     R2,#+1
   \   00000482   0xF240 0x713A      MOVW     R1,#+1850
   \   00000486   0x4469             ADD      R1,R1,SP
   \   00000488   0x2072             MOVS     R0,#+114
   \   0000048A   0x.... 0x....      BL       SystemConfigProcess
    358                              }
    359                          }
    360                          machineConfig.lastLoggedUser = userId;
   \                     ??RemoteUserReceive_21: (+1)
   \   0000048E   0xF89D 0x0294      LDRB     R0,[SP, #+660]
   \   00000492   0xF88D 0x073A      STRB     R0,[SP, #+1850]
    361                          userinfo.isLoggedOn = 1;
   \   00000496   0x2001             MOVS     R0,#+1
   \   00000498   0xF88D 0x0804      STRB     R0,[SP, #+2052]
    362                          machineConfig.unit = userinfo.displayUnit; 
   \   0000049C   0xF89D 0x07BF      LDRB     R0,[SP, #+1983]
   \   000004A0   0xF88D 0x053D      STRB     R0,[SP, #+1341]
    363                          if((SystemConfig_Set_UserInfo(userinfo,userId)))
   \   000004A4   0xF89D 0x0294      LDRB     R0,[SP, #+660]
   \   000004A8   0x90A4             STR      R0,[SP, #+656]
   \   000004AA   0xF240 0x719C      MOVW     R1,#+1948
   \   000004AE   0x4469             ADD      R1,R1,SP
   \   000004B0   0xB084             SUB      SP,SP,#+16
   \   000004B2   0x4668             MOV      R0,SP
   \   000004B4   0xF44F 0x7228      MOV      R2,#+672
   \   000004B8   0x.... 0x....      BL       __aeabi_memcpy4
   \   000004BC   0xBC0F             POP      {R0-R3}
   \   000004BE   0x.... 0x....      BL       SystemConfig_Set_UserInfo
   \   000004C2   0x2800             CMP      R0,#+0
   \   000004C4   0xD004             BEQ.N    ??RemoteUserReceive_22
    364                          {
    365                              SystemConfigProcess(SVK_SAVE_USER2FLASH, &userId,sizeof(userId));
   \   000004C6   0x2201             MOVS     R2,#+1
   \   000004C8   0xA9A5             ADD      R1,SP,#+660
   \   000004CA   0x2072             MOVS     R0,#+114
   \   000004CC   0x.... 0x....      BL       SystemConfigProcess
    366                          }
    367                          if(SystemConfig_Set_MachineInfo(machineConfig))
   \                     ??RemoteUserReceive_22: (+1)
   \   000004D0   0xF50D 0x61A7      ADD      R1,SP,#+1336
   \   000004D4   0xB084             SUB      SP,SP,#+16
   \   000004D6   0x4668             MOV      R0,SP
   \   000004D8   0xF44F 0x7219      MOV      R2,#+612
   \   000004DC   0x.... 0x....      BL       __aeabi_memcpy4
   \   000004E0   0xBC0F             POP      {R0-R3}
   \   000004E2   0x.... 0x....      BL       SystemConfig_Set_MachineInfo
   \   000004E6   0x2800             CMP      R0,#+0
   \   000004E8   0xD004             BEQ.N    ??RemoteUserReceive_20
    368                          {
    369                              SystemConfigProcess(SVK_SAVE_MACHINEINFO2FLASH, NULL,0);
   \   000004EA   0x2200             MOVS     R2,#+0
   \   000004EC   0x2100             MOVS     R1,#+0
   \   000004EE   0x2073             MOVS     R0,#+115
   \   000004F0   0x.... 0x....      BL       SystemConfigProcess
    370                          }
    371                      }
    372                  }
    373                  break;
   \                     ??RemoteUserReceive_20: (+1)
   \   000004F4   0xE7FF             B.N      ??RemoteUserReceive_14
    374                  default:
    375                          break;
    376              }
    377              return ret;
   \                     ??RemoteUserReceive_4: (+1)
   \                     ??RemoteUserReceive_14: (+1)
   \   000004F6   0x4650             MOV      R0,R10
   \   000004F8   0xB2C0             UXTB     R0,R0            ;; ZeroExt  R0,R0,#+24,#+24
   \   000004FA   0xF50D 0x5D88      ADD      SP,SP,#+4352
   \   000004FE   0xB03D             ADD      SP,SP,#+244
   \   00000500   0xE8BD 0x8FF0      POP      {R4-R11,PC}      ;; return
    378          }

   \                                 In section .text, align 4, keep-with-next
   \                     ??DataTable0:
   \   00000000   0x........         DC32     ?_0

   \                                 In section .rodata, align 4
   \                     ?_0:
   \   00000000   0x30 0x30          DC8 "00000000000000"
   \              0x30 0x30    
   \              0x30 0x30    
   \              0x30 0x30    
   \              0x30 0x30    
   \              0x30 0x30    
   \              0x30 0x30    
   \              0x00         
   \   0000000F   0x00               DC8 0
    379          
    380          #endif
    381          
    382          

   Maximum stack usage in bytes:

   .cstack Function
   ------- --------
    2648   RemoteUserProcess
      2648   -> SystemConfig_Get_DefaultString
      2648   -> SystemConfig_Get_MachineInfo
      2648   -> SystemConfig_Get_MaxUserNumber
      2648   -> SystemConfig_Get_UserInfo
      2648   -> __aeabi_memcpy
      2648   -> __aeabi_memset
    4648   RemoteUserReceive
      4632   -> SystemConfigProcess
      4632   -> SystemConfig_Get_MachineInfo
      4632   -> SystemConfig_Get_MaxUserNumber
      4632   -> SystemConfig_Get_UserInfo
      4632   -> SystemConfig_Reset_User_Default
      4632   -> SystemConfig_Set_MachineInfo
      4632   -> SystemConfig_Set_UserInfo
      4632   -> __aeabi_memcpy
      4648   -> __aeabi_memcpy4
      4632   -> __aeabi_memset
      4632   -> strncmp
      4632   -> strncpy


   Section sizes:

   Bytes  Function/Label
   -----  --------------
       4  ??DataTable0
      16  ?_0
    1060  RemoteUserProcess
    1284  RemoteUserReceive

 
    16 bytes in section .rodata
 2 348 bytes in section .text
 
 2 348 bytes of CODE  memory
    16 bytes of CONST memory

Errors: none
Warnings: 12
