###############################################################################
#
# IAR ANSI C/C++ Compiler V7.80.4.12462/W32 for ARM       12/Dec/2022  11:41:26
# Copyright 1999-2017 IAR Systems AB.
#
#    Cpu mode     =  thumb
#    Endian       =  little
#    Source file  =  
#        C:\Users\shaomingkun\Desktop\git\evolve5.0\2021sw\ECOM-5\Modules\RTT_Lib\SEGGER_RTT.c
#    Command line =  
#        C:\Users\shaomingkun\Desktop\git\evolve5.0\2021sw\ECOM-5\Modules\RTT_Lib\SEGGER_RTT.c
#        -D EFM32LG380F256 -D BSP_CORTEX_EFM32 -D DEBUG_EFM_JJ -D
#        RF_MODULE_EXIST____ -lC
#        C:\Users\shaomingkun\Desktop\git\evolve5.0\2021sw\ECOM-5\Debug\List
#        -lA
#        C:\Users\shaomingkun\Desktop\git\evolve5.0\2021sw\ECOM-5\Debug\List -o
#        C:\Users\shaomingkun\Desktop\git\evolve5.0\2021sw\ECOM-5\Debug\Obj
#        --no_cse --no_unroll --no_inline --no_code_motion --no_tbaa
#        --no_clustering --no_scheduling --debug --endian=little
#        --cpu=Cortex-M3 -e --fpu=None --dlib_config "C:\Program Files
#        (x86)\IAR Systems\Embedded Workbench
#        7.5\arm\INC\c\DLib_Config_Normal.h" -I
#        C:\Users\shaomingkun\Desktop\git\evolve5.0\2021sw\ECOM-5\ -I
#        C:\Users\shaomingkun\Desktop\git\evolve5.0\2021sw\ECOM-5\Local\ -I
#        C:\Users\shaomingkun\Desktop\git\evolve5.0\2021sw\ECOM-5\Modules\ -I
#        C:\Users\shaomingkun\Desktop\git\evolve5.0\2021sw\ECOM-5\Modules\Utilities_Lib\
#        -I
#        C:\Users\shaomingkun\Desktop\git\evolve5.0\2021sw\ECOM-5\Modules\HAL_Lib\
#        -I
#        C:\Users\shaomingkun\Desktop\git\evolve5.0\2021sw\ECOM-5\Modules\LCB_Lib\
#        -I
#        C:\Users\shaomingkun\Desktop\git\evolve5.0\2021sw\ECOM-5\Modules\Eng_lib\
#        -I
#        C:\Users\shaomingkun\Desktop\git\evolve5.0\2021sw\ECOM-5\..\Modules\Eng_lib\
#        -I
#        C:\Users\shaomingkun\Desktop\git\evolve5.0\2021sw\ECOM-5\Modules\SystemConfig_Lib\
#        -I
#        C:\Users\shaomingkun\Desktop\git\evolve5.0\2021sw\ECOM-5\Modules\EFM32_lib\
#        -I
#        C:\Users\shaomingkun\Desktop\git\evolve5.0\2021sw\ECOM-5\Modules\EFM32_lib\drivers\
#        -I
#        C:\Users\shaomingkun\Desktop\git\evolve5.0\2021sw\ECOM-5\Modules\Program_lib\
#        -I
#        C:\Users\shaomingkun\Desktop\git\evolve5.0\2021sw\ECOM-5\Modules\RF_lib\
#        -I
#        C:\Users\shaomingkun\Desktop\git\evolve5.0\2021sw\ECOM-5\Modules\USB_lib\
#        -I
#        C:\Users\shaomingkun\Desktop\git\evolve5.0\2021sw\ECOM-5\Modules\USB_lib\usb\src\
#        -I
#        C:\Users\shaomingkun\Desktop\git\evolve5.0\2021sw\ECOM-5\Modules\USB_lib\usb\inc\
#        -I
#        C:\Users\shaomingkun\Desktop\git\evolve5.0\2021sw\ECOM-5\Modules\Bluetooth_lib\
#        -I
#        C:\Users\shaomingkun\Desktop\git\evolve5.0\2021sw\ECOM-5\Modules\Remote_lib\
#        -I
#        C:\Users\shaomingkun\Desktop\git\evolve5.0\2021sw\ECOM-5\Modules\EFM32_lib\Include\
#        -I
#        C:\Users\shaomingkun\Desktop\git\evolve5.0\2021sw\ECOM-5\Modules\EFM32_lib\emlib\inc\
#        -I
#        C:\Users\shaomingkun\Desktop\git\evolve5.0\2021sw\ECOM-5\Modules\EFM32_lib\emlib\src\
#        -I
#        C:\Users\shaomingkun\Desktop\git\evolve5.0\2021sw\ECOM-5\Modules\EFM32_lib\drivers\fatfs\src\
#        -I
#        C:\Users\shaomingkun\Desktop\git\evolve5.0\2021sw\ECOM-5\Modules\EFM32_lib\Device\EnergyMicro\EFM32LG\Include\
#        -I
#        C:\Users\shaomingkun\Desktop\git\evolve5.0\2021sw\ECOM-5\Modules\EFM32_lib\Device\EnergyMicro\EFM32LG\Source\
#        -I
#        C:\Users\shaomingkun\Desktop\git\evolve5.0\2021sw\ECOM-5\Modules\EFM32_lib\Device\EnergyMicro\EFM32LG\Source\IAR\
#        -I
#        C:\Users\shaomingkun\Desktop\git\evolve5.0\2021sw\ECOM-5\Modules\RTT_Lib\
#        -On
#    Locale       =  Chinese (Simplified)_China.936
#    List file    =  
#        C:\Users\shaomingkun\Desktop\git\evolve5.0\2021sw\ECOM-5\Debug\List\SEGGER_RTT.lst
#    Object file  =  
#        C:\Users\shaomingkun\Desktop\git\evolve5.0\2021sw\ECOM-5\Debug\Obj\SEGGER_RTT.o
#
###############################################################################

C:\Users\shaomingkun\Desktop\git\evolve5.0\2021sw\ECOM-5\Modules\RTT_Lib\SEGGER_RTT.c
      1          /*********************************************************************
      2          *               SEGGER MICROCONTROLLER GmbH & Co. KG                 *
      3          *       Solutions for real time microcontroller applications         *
      4          **********************************************************************
      5          *                                                                    *
      6          *       (c) 2014 - 2016  SEGGER Microcontroller GmbH & Co. KG        *
      7          *                                                                    *
      8          *       www.segger.com     Support: support@segger.com               *
      9          *                                                                    *
     10          **********************************************************************
     11          *                                                                    *
     12          *       SEGGER RTT * Real Time Transfer for embedded targets         *
     13          *                                                                    *
     14          **********************************************************************
     15          *                                                                    *
     16          * All rights reserved.                                               *
     17          *                                                                    *
     18          * * This software may in its unmodified form be freely redistributed *
     19          *   in source form.                                                  *
     20          * * The source code may be modified, provided the source code        *
     21          *   retains the above copyright notice, this list of conditions and  *
     22          *   the following disclaimer.                                        *
     23          * * Modified versions of this software in source or linkable form    *
     24          *   may not be distributed without prior consent of SEGGER.          *
     25          * * This software may only be used for communication with SEGGER     *
     26          *   J-Link debug probes.                                             *
     27          *                                                                    *
     28          * THIS SOFTWARE IS PROVIDED BY THE COPYRIGHT HOLDERS AND             *
     29          * CONTRIBUTORS "AS IS" AND ANY EXPRESS OR IMPLIED WARRANTIES,        *
     30          * INCLUDING, BUT NOT LIMITED TO, THE IMPLIED WARRANTIES OF           *
     31          * MERCHANTABILITY AND FITNESS FOR A PARTICULAR PURPOSE ARE           *
     32          * DISCLAIMED. IN NO EVENT SHALL SEGGER Microcontroller BE LIABLE FOR *
     33          * ANY DIRECT, INDIRECT, INCIDENTAL, SPECIAL, EXEMPLARY, OR           *
     34          * CONSEQUENTIAL DAMAGES (INCLUDING, BUT NOT LIMITED TO, PROCUREMENT  *
     35          * OF SUBSTITUTE GOODS OR SERVICES; LOSS OF USE, DATA, OR PROFITS;    *
     36          * OR BUSINESS INTERRUPTION) HOWEVER CAUSED AND ON ANY THEORY OF      *
     37          * LIABILITY, WHETHER IN CONTRACT, STRICT LIABILITY, OR TORT          *
     38          * (INCLUDING NEGLIGENCE OR OTHERWISE) ARISING IN ANY WAY OUT OF THE  *
     39          * USE OF THIS SOFTWARE, EVEN IF ADVISED OF THE POSSIBILITY OF SUCH   *
     40          * DAMAGE.                                                            *
     41          *                                                                    *
     42          **********************************************************************
     43          *                                                                    *
     44          *       RTT version: 5.12f                                           *
     45          *                                                                    *
     46          **********************************************************************
     47          ---------------------------END-OF-HEADER------------------------------
     48          File    : SEGGER_RTT.c
     49          Purpose : Implementation of SEGGER real-time transfer (RTT) which
     50                    allows real-time communication on targets which support
     51                    debugger memory accesses while the CPU is running.
     52          
     53          Additional information:
     54                    Type "int" is assumed to be 32-bits in size
     55                    H->T    Host to target communication
     56                    T->H    Target to host communication
     57          
     58                    RTT channel 0 is always present and reserved for Terminal usage.
     59                    Name is fixed to "Terminal"
     60          
     61                    Effective buffer size: SizeOfBuffer - 1
     62          
     63                    WrOff == RdOff:       Buffer is empty
     64                    WrOff == (RdOff - 1): Buffer is full
     65                    WrOff >  RdOff:       Free space includes wrap-around
     66                    WrOff <  RdOff:       Used space includes wrap-around
     67                    (WrOff == (SizeOfBuffer - 1)) && (RdOff == 0):  
     68                                          Buffer full and wrap-around after next byte
     69          
     70          
     71          ----------------------------------------------------------------------
     72          */
     73          
     74          #include "SEGGER_RTT.h"
     75          
     76          #include <string.h>                 // for memcpy
     77          
     78          /*********************************************************************
     79          *
     80          *       Configuration, default values
     81          *
     82          **********************************************************************
     83          */
     84          
     85          #ifndef   BUFFER_SIZE_UP
     86            #define BUFFER_SIZE_UP                                  1024  // Size of the buffer for terminal output of target, up to host
     87          #endif
     88          
     89          #ifndef   BUFFER_SIZE_DOWN
     90            #define BUFFER_SIZE_DOWN                                16    // Size of the buffer for terminal input to target from host (Usually keyboard input)
     91          #endif
     92          
     93          #ifndef   SEGGER_RTT_MAX_NUM_UP_BUFFERS
     94            #define SEGGER_RTT_MAX_NUM_UP_BUFFERS                    2    // Number of up-buffers (T->H) available on this target
     95          #endif
     96          
     97          #ifndef   SEGGER_RTT_MAX_NUM_DOWN_BUFFERS
     98            #define SEGGER_RTT_MAX_NUM_DOWN_BUFFERS                  2    // Number of down-buffers (H->T) available on this target
     99          #endif
    100          
    101          #ifndef SEGGER_RTT_BUFFER_SECTION
    102            #if defined SEGGER_RTT_SECTION
    103              #define SEGGER_RTT_BUFFER_SECTION SEGGER_RTT_SECTION
    104            #endif
    105          #endif
    106          
    107          #ifndef   SEGGER_RTT_MODE_DEFAULT
    108            #define SEGGER_RTT_MODE_DEFAULT                         SEGGER_RTT_MODE_NO_BLOCK_SKIP
    109          #endif
    110          
    111          #ifndef   SEGGER_RTT_LOCK
    112            #define SEGGER_RTT_LOCK()
    113          #endif
    114          
    115          #ifndef   SEGGER_RTT_UNLOCK
    116            #define SEGGER_RTT_UNLOCK()
    117          #endif
    118          
    119          #ifndef   STRLEN
    120            #define STRLEN(a)                                       strlen((a))
    121          #endif
    122          
    123          #ifndef   MEMCPY
    124            #define MEMCPY(pDest, pSrc, NumBytes)                   memcpy((pDest), (pSrc), (NumBytes))
    125          #endif
    126          
    127          #ifndef   MIN
    128            #define MIN(a, b)         (((a) < (b)) ? (a) : (b))
    129          #endif
    130          
    131          #ifndef   MAX
    132            #define MAX(a, b)         (((a) > (b)) ? (a) : (b))
    133          #endif
    134          //
    135          // For some environments, NULL may not be defined until certain headers are included
    136          //
    137          #ifndef NULL
    138            #define NULL 0
    139          #endif
    140          
    141          /*********************************************************************
    142          *
    143          *       Static const data
    144          *
    145          **********************************************************************
    146          */
    147          

   \                                 In section .data, align 4
    148          static unsigned char _aTerminalId[16] = { '0', '1', '2', '3', '4', '5', '6', '7', '8', '9', 'A', 'B', 'C', 'D', 'E', 'F' };
   \                     _aTerminalId:
   \   00000000   0x30 0x31          DC8 48, 49, 50, 51, 52, 53, 54, 55, 56, 57, 65, 66, 67, 68, 69, 70
   \              0x32 0x33    
   \              0x34 0x35    
   \              0x36 0x37    
   \              0x38 0x39    
   \              0x41 0x42    
   \              0x43 0x44    
   \              0x45 0x46    
    149          
    150          /*********************************************************************
    151          *
    152          *       Static data
    153          *
    154          **********************************************************************
    155          */
    156          //
    157          // RTT Control Block and allocate buffers for channel 0
    158          //
    159          #ifdef SEGGER_RTT_SECTION
    160            #if (defined __GNUC__)
    161              __attribute__ ((section (SEGGER_RTT_SECTION))) SEGGER_RTT_CB _SEGGER_RTT;
    162            #elif (defined __ICCARM__) || (defined __ICCRX__)
    163              #pragma location=SEGGER_RTT_SECTION
    164              SEGGER_RTT_CB _SEGGER_RTT;
    165            #elif (defined __CC_ARM__)
    166              __attribute__ ((section (SEGGER_RTT_SECTION), zero_init)) SEGGER_RTT_CB _SEGGER_RTT;
    167            #else
    168              SEGGER_RTT_CB _SEGGER_RTT;
    169            #endif
    170          #else

   \                                 In section .bss, align 4
    171              SEGGER_RTT_CB _SEGGER_RTT;
   \                     _SEGGER_RTT:
   \   00000000                      DS8 120
    172          #endif
    173          
    174          #ifdef SEGGER_RTT_BUFFER_SECTION
    175            #if (defined __GNUC__)
    176              __attribute__ ((section (SEGGER_RTT_BUFFER_SECTION))) static char _acUpBuffer  [BUFFER_SIZE_UP];
    177              __attribute__ ((section (SEGGER_RTT_BUFFER_SECTION))) static char _acDownBuffer[BUFFER_SIZE_DOWN];
    178            #elif (defined __ICCARM__) || (defined __ICCRX__)
    179              #pragma location=SEGGER_RTT_BUFFER_SECTION
    180              static char _acUpBuffer  [BUFFER_SIZE_UP];
    181              #pragma location=SEGGER_RTT_BUFFER_SECTION
    182              static char _acDownBuffer[BUFFER_SIZE_DOWN];
    183            #elif (defined __CC_ARM__)
    184              __attribute__ ((section (SEGGER_RTT_BUFFER_SECTION), zero_init)) static char _acUpBuffer  [BUFFER_SIZE_UP];
    185              __attribute__ ((section (SEGGER_RTT_BUFFER_SECTION), zero_init)) static char _acDownBuffer[BUFFER_SIZE_DOWN];
    186            #else
    187              static char _acUpBuffer  [BUFFER_SIZE_UP];
    188              static char _acDownBuffer[BUFFER_SIZE_DOWN];
    189            #endif
    190          #else

   \                                 In section .bss, align 4
    191              static char _acUpBuffer  [BUFFER_SIZE_UP];
   \                     _acUpBuffer:
   \   00000000                      DS8 1024

   \                                 In section .bss, align 4
    192              static char _acDownBuffer[BUFFER_SIZE_DOWN];
   \                     _acDownBuffer:
   \   00000000                      DS8 16
    193          #endif
    194          

   \                                 In section .bss, align 1
    195          static char _ActiveTerminal;
   \                     _ActiveTerminal:
   \   00000000                      DS8 1
    196          
    197          /*********************************************************************
    198          *
    199          *       Static functions
    200          *
    201          **********************************************************************
    202          */
    203          
    204          /*********************************************************************
    205          *
    206          *       _DoInit()
    207          *
    208          *  Function description
    209          *    Initializes the control block an buffers.
    210          *    May only be called via INIT() to avoid overriding settings.
    211          *
    212          */
    213          #define INIT()  do {                                            \
    214                            if (_SEGGER_RTT.acID[0] == '\0') { _DoInit(); }  \
    215                          } while (0)

   \                                 In section .text, align 2, keep-with-next
    216          static void _DoInit(void) {
   \                     _DoInit: (+1)
   \   00000000   0xB510             PUSH     {R4,LR}
    217            SEGGER_RTT_CB* p;
    218            //
    219            // Initialize control block
    220            //
    221            p = &_SEGGER_RTT;
   \   00000002   0x.... 0x....      LDR.W    R0,??DataTable16
   \   00000006   0x0004             MOVS     R4,R0
    222            p->MaxNumUpBuffers    = SEGGER_RTT_MAX_NUM_UP_BUFFERS;
   \   00000008   0x2002             MOVS     R0,#+2
   \   0000000A   0x6120             STR      R0,[R4, #+16]
    223            p->MaxNumDownBuffers  = SEGGER_RTT_MAX_NUM_DOWN_BUFFERS;
   \   0000000C   0x2002             MOVS     R0,#+2
   \   0000000E   0x6160             STR      R0,[R4, #+20]
    224            //
    225            // Initialize up buffer 0
    226            //
    227            p->aUp[0].sName         = "Terminal";
   \   00000010   0x.... 0x....      LDR.W    R0,??DataTable16_1
   \   00000014   0x61A0             STR      R0,[R4, #+24]
    228            p->aUp[0].pBuffer       = _acUpBuffer;
   \   00000016   0x.... 0x....      LDR.W    R0,??DataTable16_2
   \   0000001A   0x61E0             STR      R0,[R4, #+28]
    229            p->aUp[0].SizeOfBuffer  = sizeof(_acUpBuffer);
   \   0000001C   0xF44F 0x6080      MOV      R0,#+1024
   \   00000020   0x6220             STR      R0,[R4, #+32]
    230            p->aUp[0].RdOff         = 0u;
   \   00000022   0x2000             MOVS     R0,#+0
   \   00000024   0x62A0             STR      R0,[R4, #+40]
    231            p->aUp[0].WrOff         = 0u;
   \   00000026   0x2000             MOVS     R0,#+0
   \   00000028   0x6260             STR      R0,[R4, #+36]
    232            p->aUp[0].Flags         = SEGGER_RTT_MODE_DEFAULT;
   \   0000002A   0x2000             MOVS     R0,#+0
   \   0000002C   0x62E0             STR      R0,[R4, #+44]
    233            //
    234            // Initialize down buffer 0
    235            //
    236            p->aDown[0].sName         = "Terminal";
   \   0000002E   0x.... 0x....      LDR.W    R0,??DataTable16_1
   \   00000032   0x64A0             STR      R0,[R4, #+72]
    237            p->aDown[0].pBuffer       = _acDownBuffer;
   \   00000034   0x.... 0x....      LDR.W    R0,??DataTable16_3
   \   00000038   0x64E0             STR      R0,[R4, #+76]
    238            p->aDown[0].SizeOfBuffer  = sizeof(_acDownBuffer);
   \   0000003A   0x2010             MOVS     R0,#+16
   \   0000003C   0x6520             STR      R0,[R4, #+80]
    239            p->aDown[0].RdOff         = 0u;
   \   0000003E   0x2000             MOVS     R0,#+0
   \   00000040   0x65A0             STR      R0,[R4, #+88]
    240            p->aDown[0].WrOff         = 0u;
   \   00000042   0x2000             MOVS     R0,#+0
   \   00000044   0x6560             STR      R0,[R4, #+84]
    241            p->aDown[0].Flags         = SEGGER_RTT_MODE_DEFAULT;
   \   00000046   0x2000             MOVS     R0,#+0
   \   00000048   0x65E0             STR      R0,[R4, #+92]
    242            //
    243            // Finish initialization of the control block.
    244            // Copy Id string in three steps to make sure "SEGGER RTT" is not found
    245            // in initializer memory (usually flash) by J-Link
    246            //
    247            strcpy(&p->acID[7], "RTT");
   \   0000004A   0x....             ADR.N    R1,??DataTable3  ;; "RTT"
   \   0000004C   0x1DE0             ADDS     R0,R4,#+7
   \   0000004E   0x.... 0x....      BL       strcpy
    248            strcpy(&p->acID[0], "SEGGER");
   \   00000052   0x.... 0x....      LDR.W    R1,??DataTable16_4
   \   00000056   0x0020             MOVS     R0,R4
   \   00000058   0x.... 0x....      BL       strcpy
    249            p->acID[6] = ' ';
   \   0000005C   0x2020             MOVS     R0,#+32
   \   0000005E   0x71A0             STRB     R0,[R4, #+6]
    250          }
   \   00000060   0xBD10             POP      {R4,PC}          ;; return
    251          
    252          /*********************************************************************
    253          *
    254          *       _WriteBlocking()
    255          *
    256          *  Function description
    257          *    Stores a specified number of characters in SEGGER RTT ring buffer
    258          *    and updates the associated write pointer which is periodically
    259          *    read by the host.
    260          *    The caller is responsible for managing the write chunk sizes as
    261          *    _WriteBlocking() will block until all data has been posted successfully.
    262          *
    263          *  Parameters
    264          *    pRing        Ring buffer to post to.
    265          *    pBuffer      Pointer to character array. Does not need to point to a \0 terminated string.
    266          *    NumBytes     Number of bytes to be stored in the SEGGER RTT control block.
    267          *
    268          *  Return value
    269          *    >= 0 - Number of bytes written into buffer.
    270          */

   \                                 In section .text, align 2, keep-with-next
    271          static unsigned _WriteBlocking(SEGGER_RTT_BUFFER_UP* pRing, const char* pBuffer, unsigned NumBytes) {
   \                     _WriteBlocking: (+1)
   \   00000000   0xE92D 0x4FF8      PUSH     {R3-R11,LR}
   \   00000004   0x0004             MOVS     R4,R0
   \   00000006   0x000D             MOVS     R5,R1
   \   00000008   0x0016             MOVS     R6,R2
    272            unsigned NumBytesToWrite;
    273            unsigned NumBytesWritten;
    274            unsigned RdOff;
    275            unsigned WrOff;
    276            //
    277            // Write data to buffer and handle wrap-around if necessary
    278            //
    279            NumBytesWritten = 0u;
   \   0000000A   0x2000             MOVS     R0,#+0
   \   0000000C   0x0007             MOVS     R7,R0
    280            WrOff = pRing->WrOff;
   \   0000000E   0x68E0             LDR      R0,[R4, #+12]
   \   00000010   0x4681             MOV      R9,R0
    281            do {
    282              RdOff = pRing->RdOff;                         // May be changed by host (debug probe) in the meantime
   \                     ??_WriteBlocking_0: (+1)
   \   00000012   0x6920             LDR      R0,[R4, #+16]
   \   00000014   0x4680             MOV      R8,R0
    283              if (RdOff > WrOff) {
   \   00000016   0x45C1             CMP      R9,R8
   \   00000018   0xD204             BCS.N    ??_WriteBlocking_1
    284                NumBytesToWrite = RdOff - WrOff - 1u;
   \   0000001A   0xEBB8 0x0009      SUBS     R0,R8,R9
   \   0000001E   0x1E40             SUBS     R0,R0,#+1
   \   00000020   0x4682             MOV      R10,R0
   \   00000022   0xE006             B.N      ??_WriteBlocking_2
    285              } else {
    286                NumBytesToWrite = pRing->SizeOfBuffer - (WrOff - RdOff + 1u);
   \                     ??_WriteBlocking_1: (+1)
   \   00000024   0x68A0             LDR      R0,[R4, #+8]
   \   00000026   0xEBB0 0x0009      SUBS     R0,R0,R9
   \   0000002A   0xEB18 0x0000      ADDS     R0,R8,R0
   \   0000002E   0x1E40             SUBS     R0,R0,#+1
   \   00000030   0x4682             MOV      R10,R0
    287              }
    288              NumBytesToWrite = MIN(NumBytesToWrite, (pRing->SizeOfBuffer - WrOff));      // Number of bytes that can be written until buffer wrap-around
   \                     ??_WriteBlocking_2: (+1)
   \   00000032   0x68A0             LDR      R0,[R4, #+8]
   \   00000034   0xEBB0 0x0009      SUBS     R0,R0,R9
   \   00000038   0x4582             CMP      R10,R0
   \   0000003A   0xD302             BCC.N    ??_WriteBlocking_3
   \                     ??_WriteBlocking_4: (+1)
   \   0000003C   0x68A0             LDR      R0,[R4, #+8]
   \   0000003E   0xEBB0 0x0A09      SUBS     R10,R0,R9
    289              NumBytesToWrite = MIN(NumBytesToWrite, NumBytes);
   \                     ??_WriteBlocking_3: (+1)
   \   00000042   0x45B2             CMP      R10,R6
   \   00000044   0xD300             BCC.N    ??_WriteBlocking_5
   \                     ??_WriteBlocking_6: (+1)
   \   00000046   0x46B2             MOV      R10,R6
    290              memcpy(pRing->pBuffer + WrOff, pBuffer, NumBytesToWrite);
   \                     ??_WriteBlocking_5: (+1)
   \   00000048   0x9500             STR      R5,[SP, #+0]
   \   0000004A   0x6860             LDR      R0,[R4, #+4]
   \   0000004C   0xEB00 0x0B09      ADD      R11,R0,R9
   \   00000050   0x4652             MOV      R2,R10
   \   00000052   0x9900             LDR      R1,[SP, #+0]
   \   00000054   0x4658             MOV      R0,R11
   \   00000056   0x.... 0x....      BL       __aeabi_memcpy
    291              NumBytesWritten += NumBytesToWrite;
   \   0000005A   0xEB1A 0x0707      ADDS     R7,R10,R7
    292              pBuffer         += NumBytesToWrite;
   \   0000005E   0x4455             ADD      R5,R5,R10
    293              NumBytes        -= NumBytesToWrite;
   \   00000060   0xEBB6 0x060A      SUBS     R6,R6,R10
    294              WrOff           += NumBytesToWrite;
   \   00000064   0xEB1A 0x0909      ADDS     R9,R10,R9
    295              if (WrOff == pRing->SizeOfBuffer) {
   \   00000068   0x68A0             LDR      R0,[R4, #+8]
   \   0000006A   0x4581             CMP      R9,R0
   \   0000006C   0xD101             BNE.N    ??_WriteBlocking_7
    296                WrOff = 0u;
   \   0000006E   0x2000             MOVS     R0,#+0
   \   00000070   0x4681             MOV      R9,R0
    297              }
    298              pRing->WrOff = WrOff;
   \                     ??_WriteBlocking_7: (+1)
   \   00000072   0xF8C4 0x900C      STR      R9,[R4, #+12]
    299            } while (NumBytes);
   \   00000076   0x2E00             CMP      R6,#+0
   \   00000078   0xD1CB             BNE.N    ??_WriteBlocking_0
    300            //
    301            return NumBytesWritten;
   \   0000007A   0x0038             MOVS     R0,R7
   \   0000007C   0xE8BD 0x8FF2      POP      {R1,R4-R11,PC}   ;; return
    302          }
    303          
    304          /*********************************************************************
    305          *
    306          *       _WriteNoCheck()
    307          *
    308          *  Function description
    309          *    Stores a specified number of characters in SEGGER RTT ring buffer
    310          *    and updates the associated write pointer which is periodically
    311          *    read by the host.
    312          *    It is callers responsibility to make sure data actually fits in buffer.
    313          *
    314          *  Parameters
    315          *    pRing        Ring buffer to post to.
    316          *    pBuffer      Pointer to character array. Does not need to point to a \0 terminated string.
    317          *    NumBytes     Number of bytes to be stored in the SEGGER RTT control block.
    318          *
    319          *  Notes
    320          *    (1) If there might not be enough space in the "Up"-buffer, call _WriteBlocking
    321          */

   \                                 In section .text, align 2, keep-with-next
    322          static void _WriteNoCheck(SEGGER_RTT_BUFFER_UP* pRing, const char* pData, unsigned NumBytes) {
   \                     _WriteNoCheck: (+1)
   \   00000000   0xE92D 0x4FF8      PUSH     {R3-R11,LR}
   \   00000004   0x0004             MOVS     R4,R0
   \   00000006   0x000D             MOVS     R5,R1
   \   00000008   0x0016             MOVS     R6,R2
    323            unsigned NumBytesAtOnce;
    324            unsigned WrOff;
    325            unsigned Rem;
    326          
    327            WrOff = pRing->WrOff;
   \   0000000A   0x68E0             LDR      R0,[R4, #+12]
   \   0000000C   0x0007             MOVS     R7,R0
    328            Rem = pRing->SizeOfBuffer - WrOff;
   \   0000000E   0x68A0             LDR      R0,[R4, #+8]
   \   00000010   0x1BC0             SUBS     R0,R0,R7
   \   00000012   0x4680             MOV      R8,R0
    329            if (Rem > NumBytes) {
   \   00000014   0x4546             CMP      R6,R8
   \   00000016   0xD20A             BCS.N    ??_WriteNoCheck_0
    330              //
    331              // All data fits before wrap around
    332              //
    333              memcpy(pRing->pBuffer + WrOff, pData, NumBytes);
   \   00000018   0x6860             LDR      R0,[R4, #+4]
   \   0000001A   0xEB00 0x0907      ADD      R9,R0,R7
   \   0000001E   0x0032             MOVS     R2,R6
   \   00000020   0x0029             MOVS     R1,R5
   \   00000022   0x4648             MOV      R0,R9
   \   00000024   0x.... 0x....      BL       __aeabi_memcpy
    334              pRing->WrOff = WrOff + NumBytes;
   \   00000028   0x19F0             ADDS     R0,R6,R7
   \   0000002A   0x60E0             STR      R0,[R4, #+12]
   \   0000002C   0xE017             B.N      ??_WriteNoCheck_1
    335            } else {
    336              //
    337              // We reach the end of the buffer, so need to wrap around
    338              //
    339              NumBytesAtOnce = Rem;
   \                     ??_WriteNoCheck_0: (+1)
   \   0000002E   0x46C3             MOV      R11,R8
    340              memcpy(pRing->pBuffer + WrOff, pData, NumBytesAtOnce);
   \   00000030   0x46D8             MOV      R8,R11
   \   00000032   0x6860             LDR      R0,[R4, #+4]
   \   00000034   0xEB00 0x0907      ADD      R9,R0,R7
   \   00000038   0x4642             MOV      R2,R8
   \   0000003A   0x0029             MOVS     R1,R5
   \   0000003C   0x4648             MOV      R0,R9
   \   0000003E   0x.... 0x....      BL       __aeabi_memcpy
    341              NumBytesAtOnce = NumBytes - Rem;
   \   00000042   0xEBB6 0x0008      SUBS     R0,R6,R8
   \   00000046   0x4683             MOV      R11,R0
    342              memcpy(pRing->pBuffer, pData + Rem, NumBytesAtOnce);
   \   00000048   0xEB05 0x0908      ADD      R9,R5,R8
   \   0000004C   0xF8D4 0xA004      LDR      R10,[R4, #+4]
   \   00000050   0x465A             MOV      R2,R11
   \   00000052   0x4649             MOV      R1,R9
   \   00000054   0x4650             MOV      R0,R10
   \   00000056   0x.... 0x....      BL       __aeabi_memcpy
    343              pRing->WrOff = NumBytesAtOnce;
   \   0000005A   0xF8C4 0xB00C      STR      R11,[R4, #+12]
    344            }
    345          }
   \                     ??_WriteNoCheck_1: (+1)
   \   0000005E   0xE8BD 0x8FF1      POP      {R0,R4-R11,PC}   ;; return
    346          
    347          /*********************************************************************
    348          *
    349          *       _PostTerminalSwitch()
    350          *
    351          *  Function description
    352          *    Switch terminal to the given terminal ID.  It is the caller's
    353          *    responsibility to ensure the terminal ID is correct and there is
    354          *    enough space in the buffer for this to complete successfully.
    355          *
    356          *  Parameters
    357          *    pRing        Ring buffer to post to.
    358          *    TerminalId   Terminal ID to switch to.
    359          */

   \                                 In section .text, align 2, keep-with-next
    360          static void _PostTerminalSwitch(SEGGER_RTT_BUFFER_UP* pRing, unsigned char TerminalId) {
   \                     _PostTerminalSwitch: (+1)
   \   00000000   0xB538             PUSH     {R3-R5,LR}
   \   00000002   0x0004             MOVS     R4,R0
   \   00000004   0x000D             MOVS     R5,R1
    361            char ac[2];
    362          
    363            ac[0] = 0xFFu;
   \   00000006   0x20FF             MOVS     R0,#+255
   \   00000008   0xF88D 0x0000      STRB     R0,[SP, #+0]
    364            ac[1] = _aTerminalId[TerminalId];  // Caller made already sure that TerminalId does not exceed our terminal limit
   \   0000000C   0x.... 0x....      LDR.W    R0,??DataTable16_5
   \   00000010   0xB2ED             UXTB     R5,R5            ;; ZeroExt  R5,R5,#+24,#+24
   \   00000012   0x5D40             LDRB     R0,[R0, R5]
   \   00000014   0xF88D 0x0001      STRB     R0,[SP, #+1]
    365            _WriteBlocking(pRing, ac, 2u);
   \   00000018   0x2202             MOVS     R2,#+2
   \   0000001A   0x4669             MOV      R1,SP
   \   0000001C   0x0020             MOVS     R0,R4
   \   0000001E   0x.... 0x....      BL       _WriteBlocking
    366          }
   \   00000022   0xBD31             POP      {R0,R4,R5,PC}    ;; return
    367          
    368          /*********************************************************************
    369          *
    370          *       _GetAvailWriteSpace()
    371          *
    372          *  Function description
    373          *    Returns the number of bytes that can be written to the ring
    374          *    buffer without blocking.
    375          *
    376          *  Parameters
    377          *    pRing        Ring buffer to check.
    378          *
    379          *  Return value
    380          *    Number of bytes that are free in the buffer.
    381          */

   \                                 In section .text, align 2, keep-with-next
    382          static unsigned _GetAvailWriteSpace(SEGGER_RTT_BUFFER_UP* pRing) {
   \                     _GetAvailWriteSpace: (+1)
   \   00000000   0xB410             PUSH     {R4}
   \   00000002   0x0001             MOVS     R1,R0
    383            unsigned RdOff;
    384            unsigned WrOff;
    385            unsigned r;
    386            //
    387            // Avoid warnings regarding volatile access order.  It's not a problem
    388            // in this case, but dampen compiler enthusiasm.
    389            //
    390            RdOff = pRing->RdOff;
   \   00000004   0x690C             LDR      R4,[R1, #+16]
   \   00000006   0x0022             MOVS     R2,R4
    391            WrOff = pRing->WrOff;
   \   00000008   0x68CC             LDR      R4,[R1, #+12]
   \   0000000A   0x0023             MOVS     R3,R4
    392            if (RdOff <= WrOff) {
   \   0000000C   0x4293             CMP      R3,R2
   \   0000000E   0xD305             BCC.N    ??_GetAvailWriteSpace_0
    393              r = pRing->SizeOfBuffer - 1u - WrOff + RdOff;
   \   00000010   0x688C             LDR      R4,[R1, #+8]
   \   00000012   0x1E64             SUBS     R4,R4,#+1
   \   00000014   0x1AE4             SUBS     R4,R4,R3
   \   00000016   0x1914             ADDS     R4,R2,R4
   \   00000018   0x0020             MOVS     R0,R4
   \   0000001A   0xE002             B.N      ??_GetAvailWriteSpace_1
    394            } else {
    395              r = RdOff - WrOff - 1u;
   \                     ??_GetAvailWriteSpace_0: (+1)
   \   0000001C   0x1AD4             SUBS     R4,R2,R3
   \   0000001E   0x1E64             SUBS     R4,R4,#+1
   \   00000020   0x0020             MOVS     R0,R4
    396            }
    397            return r;
   \                     ??_GetAvailWriteSpace_1: (+1)
   \   00000022   0xBC10             POP      {R4}
   \   00000024   0x4770             BX       LR               ;; return
    398          }
    399          
    400          /*********************************************************************
    401          *
    402          *       Public code
    403          *
    404          **********************************************************************
    405          */
    406          /*********************************************************************
    407          *
    408          *       SEGGER_RTT_ReadNoLock()
    409          *
    410          *  Function description
    411          *    Reads characters from SEGGER real-time-terminal control block
    412          *    which have been previously stored by the host.
    413          *    Do not lock against interrupts and multiple access.
    414          *
    415          *  Parameters
    416          *    BufferIndex  Index of Down-buffer to be used (e.g. 0 for "Terminal").
    417          *    pBuffer      Pointer to buffer provided by target application, to copy characters from RTT-down-buffer to.
    418          *    BufferSize   Size of the target application buffer.
    419          *
    420          *  Return value
    421          *    Number of bytes that have been read.
    422          */

   \                                 In section .text, align 2, keep-with-next
    423          unsigned SEGGER_RTT_ReadNoLock(unsigned BufferIndex, void* pData, unsigned BufferSize) {
   \                     SEGGER_RTT_ReadNoLock: (+1)
   \   00000000   0xE92D 0x4FF0      PUSH     {R4-R11,LR}
   \   00000004   0xB083             SUB      SP,SP,#+12
   \   00000006   0x0004             MOVS     R4,R0
   \   00000008   0x000D             MOVS     R5,R1
   \   0000000A   0x4690             MOV      R8,R2
    424            unsigned                NumBytesRem;
    425            unsigned                NumBytesRead;
    426            unsigned                RdOff;
    427            unsigned                WrOff;
    428            unsigned char*          pBuffer;
    429            SEGGER_RTT_BUFFER_DOWN* pRing;
    430            //
    431            INIT();
   \   0000000C   0x.... 0x....      LDR.W    R0,??DataTable16
   \   00000010   0x7800             LDRB     R0,[R0, #+0]
   \   00000012   0x2800             CMP      R0,#+0
   \   00000014   0xD101             BNE.N    ??SEGGER_RTT_ReadNoLock_0
   \   00000016   0x.... 0x....      BL       _DoInit
    432            pRing = &_SEGGER_RTT.aDown[BufferIndex];
   \                     ??SEGGER_RTT_ReadNoLock_0: (+1)
   \   0000001A   0x.... 0x....      LDR.W    R0,??DataTable16
   \   0000001E   0x2118             MOVS     R1,#+24
   \   00000020   0xFB01 0xF104      MUL      R1,R1,R4
   \   00000024   0x4408             ADD      R0,R0,R1
   \   00000026   0x3048             ADDS     R0,R0,#+72
   \   00000028   0x0006             MOVS     R6,R0
    433            pBuffer = (unsigned char*)pData;
   \   0000002A   0x46AB             MOV      R11,R5
    434            RdOff = pRing->RdOff;
   \   0000002C   0x6930             LDR      R0,[R6, #+16]
   \   0000002E   0x4681             MOV      R9,R0
    435            WrOff = pRing->WrOff;
   \   00000030   0x68F0             LDR      R0,[R6, #+12]
   \   00000032   0x9001             STR      R0,[SP, #+4]
    436            NumBytesRead = 0u;
   \   00000034   0x2000             MOVS     R0,#+0
   \   00000036   0x0007             MOVS     R7,R0
    437            //
    438            // Read from current read position to wrap-around of buffer, first
    439            //
    440            if (RdOff > WrOff) {
   \   00000038   0x9801             LDR      R0,[SP, #+4]
   \   0000003A   0x4548             CMP      R0,R9
   \   0000003C   0xD21A             BCS.N    ??SEGGER_RTT_ReadNoLock_1
    441              NumBytesRem = pRing->SizeOfBuffer - RdOff;
   \   0000003E   0x68B0             LDR      R0,[R6, #+8]
   \   00000040   0xEBB0 0x0009      SUBS     R0,R0,R9
   \   00000044   0x4682             MOV      R10,R0
    442              NumBytesRem = MIN(NumBytesRem, BufferSize);
   \   00000046   0x45C2             CMP      R10,R8
   \   00000048   0xD300             BCC.N    ??SEGGER_RTT_ReadNoLock_2
   \                     ??SEGGER_RTT_ReadNoLock_3: (+1)
   \   0000004A   0x46C2             MOV      R10,R8
    443              memcpy(pBuffer, pRing->pBuffer + RdOff, NumBytesRem);
   \                     ??SEGGER_RTT_ReadNoLock_2: (+1)
   \   0000004C   0x6870             LDR      R0,[R6, #+4]
   \   0000004E   0x4448             ADD      R0,R0,R9
   \   00000050   0x9000             STR      R0,[SP, #+0]
   \   00000052   0x4652             MOV      R2,R10
   \   00000054   0x9900             LDR      R1,[SP, #+0]
   \   00000056   0x4658             MOV      R0,R11
   \   00000058   0x.... 0x....      BL       __aeabi_memcpy
    444              NumBytesRead += NumBytesRem;
   \   0000005C   0xEB1A 0x0707      ADDS     R7,R10,R7
    445              pBuffer      += NumBytesRem;
   \   00000060   0x44D3             ADD      R11,R11,R10
    446              BufferSize   -= NumBytesRem;
   \   00000062   0xEBB8 0x080A      SUBS     R8,R8,R10
    447              RdOff        += NumBytesRem;
   \   00000066   0xEB1A 0x0909      ADDS     R9,R10,R9
    448              //
    449              // Handle wrap-around of buffer
    450              //
    451              if (RdOff == pRing->SizeOfBuffer) {
   \   0000006A   0x68B0             LDR      R0,[R6, #+8]
   \   0000006C   0x4581             CMP      R9,R0
   \   0000006E   0xD101             BNE.N    ??SEGGER_RTT_ReadNoLock_1
    452                RdOff = 0u;
   \   00000070   0x2000             MOVS     R0,#+0
   \   00000072   0x4681             MOV      R9,R0
    453              }
    454            }
    455            //
    456            // Read remaining items of buffer
    457            //
    458            NumBytesRem = WrOff - RdOff;
   \                     ??SEGGER_RTT_ReadNoLock_1: (+1)
   \   00000074   0x9801             LDR      R0,[SP, #+4]
   \   00000076   0xEBB0 0x0009      SUBS     R0,R0,R9
   \   0000007A   0x4682             MOV      R10,R0
    459            NumBytesRem = MIN(NumBytesRem, BufferSize);
   \   0000007C   0x45C2             CMP      R10,R8
   \   0000007E   0xD300             BCC.N    ??SEGGER_RTT_ReadNoLock_4
   \                     ??SEGGER_RTT_ReadNoLock_5: (+1)
   \   00000080   0x46C2             MOV      R10,R8
    460            if (NumBytesRem > 0u) {
   \                     ??SEGGER_RTT_ReadNoLock_4: (+1)
   \   00000082   0xF1BA 0x0F00      CMP      R10,#+0
   \   00000086   0xD00E             BEQ.N    ??SEGGER_RTT_ReadNoLock_6
    461              memcpy(pBuffer, pRing->pBuffer + RdOff, NumBytesRem);
   \   00000088   0x6870             LDR      R0,[R6, #+4]
   \   0000008A   0x4448             ADD      R0,R0,R9
   \   0000008C   0x9000             STR      R0,[SP, #+0]
   \   0000008E   0x4652             MOV      R2,R10
   \   00000090   0x9900             LDR      R1,[SP, #+0]
   \   00000092   0x4658             MOV      R0,R11
   \   00000094   0x.... 0x....      BL       __aeabi_memcpy
    462              NumBytesRead += NumBytesRem;
   \   00000098   0xEB1A 0x0707      ADDS     R7,R10,R7
    463              pBuffer      += NumBytesRem;
   \   0000009C   0x44D3             ADD      R11,R11,R10
    464              BufferSize   -= NumBytesRem;
   \   0000009E   0xEBB8 0x080A      SUBS     R8,R8,R10
    465              RdOff        += NumBytesRem;
   \   000000A2   0xEB1A 0x0909      ADDS     R9,R10,R9
    466            }
    467            if (NumBytesRead) {
   \                     ??SEGGER_RTT_ReadNoLock_6: (+1)
   \   000000A6   0x2F00             CMP      R7,#+0
   \   000000A8   0xD001             BEQ.N    ??SEGGER_RTT_ReadNoLock_7
    468              pRing->RdOff = RdOff;
   \   000000AA   0xF8C6 0x9010      STR      R9,[R6, #+16]
    469            }
    470            //
    471            return NumBytesRead;
   \                     ??SEGGER_RTT_ReadNoLock_7: (+1)
   \   000000AE   0x0038             MOVS     R0,R7
   \   000000B0   0xE8BD 0x8FFE      POP      {R1-R11,PC}      ;; return
    472          }
    473          
    474          /*********************************************************************
    475          *
    476          *       SEGGER_RTT_Read
    477          *
    478          *  Function description
    479          *    Reads characters from SEGGER real-time-terminal control block
    480          *    which have been previously stored by the host.
    481          *
    482          *  Parameters
    483          *    BufferIndex  Index of Down-buffer to be used (e.g. 0 for "Terminal").
    484          *    pBuffer      Pointer to buffer provided by target application, to copy characters from RTT-down-buffer to.
    485          *    BufferSize   Size of the target application buffer.
    486          *
    487          *  Return value
    488          *    Number of bytes that have been read.
    489          */

   \                                 In section .text, align 2, keep-with-next
    490          unsigned SEGGER_RTT_Read(unsigned BufferIndex, void* pBuffer, unsigned BufferSize) {
   \                     SEGGER_RTT_Read: (+1)
   \   00000000   0xE92D 0x41F0      PUSH     {R4-R8,LR}
   \   00000004   0x0004             MOVS     R4,R0
   \   00000006   0x000D             MOVS     R5,R1
   \   00000008   0x0016             MOVS     R6,R2
    491            unsigned NumBytesRead;
    492            //
    493            SEGGER_RTT_LOCK();
   \   0000000A   0xF3EF 0x8811      MRS      R8,BASEPRI
   \   0000000E   0x2020             MOVS     R0,#+32
   \   00000010   0xF380 0x8811      MSR      BASEPRI,R0
    494            //
    495            // Call the non-locking read function
    496            //
    497            NumBytesRead = SEGGER_RTT_ReadNoLock(BufferIndex, pBuffer, BufferSize);
   \   00000014   0x0032             MOVS     R2,R6
   \   00000016   0x0029             MOVS     R1,R5
   \   00000018   0x0020             MOVS     R0,R4
   \   0000001A   0x.... 0x....      BL       SEGGER_RTT_ReadNoLock
   \   0000001E   0x0007             MOVS     R7,R0
    498            //
    499            // Finish up.
    500            //
    501            SEGGER_RTT_UNLOCK();
   \   00000020   0xF388 0x8811      MSR      BASEPRI,R8
    502            //
    503            return NumBytesRead;
   \   00000024   0x0038             MOVS     R0,R7
   \   00000026   0xE8BD 0x81F0      POP      {R4-R8,PC}       ;; return
    504          }
    505          
    506          /*********************************************************************
    507          *
    508          *       SEGGER_RTT_WriteWithOverwriteNoLock
    509          *
    510          *  Function description
    511          *    Stores a specified number of characters in SEGGER RTT
    512          *    control block.
    513          *    SEGGER_RTT_WriteWithOverwriteNoLock does not lock the application 
    514          *    and overwrites data if the data does not fit into the buffer.
    515          *
    516          *  Parameters
    517          *    BufferIndex  Index of "Up"-buffer to be used (e.g. 0 for "Terminal").
    518          *    pBuffer      Pointer to character array. Does not need to point to a \0 terminated string.
    519          *    NumBytes     Number of bytes to be stored in the SEGGER RTT control block.
    520          *
    521          *  Notes
    522          *    (1) If there is not enough space in the "Up"-buffer, data is overwritten.
    523          *    (2) For performance reasons this function does not call Init()
    524          *        and may only be called after RTT has been initialized.
    525          *        Either by calling SEGGER_RTT_Init() or calling another RTT API function first.
    526          *    (3) Do not use SEGGER_RTT_WriteWithOverwriteNoLock if a J-Link 
    527          *        connection reads RTT data.
    528          */

   \                                 In section .text, align 2, keep-with-next
    529          void SEGGER_RTT_WriteWithOverwriteNoLock(unsigned BufferIndex, const void* pBuffer, unsigned NumBytes) {
   \                     SEGGER_RTT_WriteWithOverwriteNoLock: (+1)
   \   00000000   0xE92D 0x4FF8      PUSH     {R3-R11,LR}
   \   00000004   0x0004             MOVS     R4,R0
   \   00000006   0x000D             MOVS     R5,R1
   \   00000008   0x0016             MOVS     R6,R2
    530            const char*           pData;
    531            SEGGER_RTT_BUFFER_UP* pRing;
    532            unsigned              Avail;
    533          
    534            pData = (const char *)pBuffer;
   \   0000000A   0x002F             MOVS     R7,R5
    535            //
    536            // Get "to-host" ring buffer and copy some elements into local variables.
    537            //
    538            pRing = &_SEGGER_RTT.aUp[BufferIndex];
   \   0000000C   0x.... 0x....      LDR.W    R0,??DataTable16
   \   00000010   0x2118             MOVS     R1,#+24
   \   00000012   0xFB01 0xF104      MUL      R1,R1,R4
   \   00000016   0x4408             ADD      R0,R0,R1
   \   00000018   0x3018             ADDS     R0,R0,#+24
   \   0000001A   0x4680             MOV      R8,R0
    539            //
    540            // Check if we will overwrite data and need to adjust the RdOff.
    541            //
    542            if (pRing->WrOff == pRing->RdOff) {
   \   0000001C   0xF8D8 0x000C      LDR      R0,[R8, #+12]
   \   00000020   0xF8D8 0x1010      LDR      R1,[R8, #+16]
   \   00000024   0x4288             CMP      R0,R1
   \   00000026   0xD104             BNE.N    ??SEGGER_RTT_WriteWithOverwriteNoLock_0
    543              Avail = pRing->SizeOfBuffer - 1u;
   \   00000028   0xF8D8 0x0008      LDR      R0,[R8, #+8]
   \   0000002C   0x1E40             SUBS     R0,R0,#+1
   \   0000002E   0x4681             MOV      R9,R0
   \   00000030   0xE017             B.N      ??SEGGER_RTT_WriteWithOverwriteNoLock_1
    544            } else if ( pRing->WrOff < pRing->RdOff) {
   \                     ??SEGGER_RTT_WriteWithOverwriteNoLock_0: (+1)
   \   00000032   0xF8D8 0x000C      LDR      R0,[R8, #+12]
   \   00000036   0xF8D8 0x1010      LDR      R1,[R8, #+16]
   \   0000003A   0x4288             CMP      R0,R1
   \   0000003C   0xD207             BCS.N    ??SEGGER_RTT_WriteWithOverwriteNoLock_2
    545              Avail = pRing->RdOff - pRing->WrOff - 1u;
   \   0000003E   0xF8D8 0x0010      LDR      R0,[R8, #+16]
   \   00000042   0xF8D8 0x100C      LDR      R1,[R8, #+12]
   \   00000046   0x1A40             SUBS     R0,R0,R1
   \   00000048   0x1E40             SUBS     R0,R0,#+1
   \   0000004A   0x4681             MOV      R9,R0
   \   0000004C   0xE009             B.N      ??SEGGER_RTT_WriteWithOverwriteNoLock_1
    546            } else {
    547              Avail = pRing->RdOff - pRing->WrOff - 1u + pRing->SizeOfBuffer;
   \                     ??SEGGER_RTT_WriteWithOverwriteNoLock_2: (+1)
   \   0000004E   0xF8D8 0x0010      LDR      R0,[R8, #+16]
   \   00000052   0xF8D8 0x100C      LDR      R1,[R8, #+12]
   \   00000056   0x1A40             SUBS     R0,R0,R1
   \   00000058   0xF8D8 0x1008      LDR      R1,[R8, #+8]
   \   0000005C   0x1808             ADDS     R0,R1,R0
   \   0000005E   0x1E40             SUBS     R0,R0,#+1
   \   00000060   0x4681             MOV      R9,R0
    548            }
    549            if (NumBytes > Avail) {
   \                     ??SEGGER_RTT_WriteWithOverwriteNoLock_1: (+1)
   \   00000062   0x45B1             CMP      R9,R6
   \   00000064   0xD214             BCS.N    ??SEGGER_RTT_WriteWithOverwriteNoLock_3
    550              pRing->RdOff += (NumBytes - Avail);
   \   00000066   0xF8D8 0x0010      LDR      R0,[R8, #+16]
   \   0000006A   0x1830             ADDS     R0,R6,R0
   \   0000006C   0xEBB0 0x0009      SUBS     R0,R0,R9
   \   00000070   0xF8C8 0x0010      STR      R0,[R8, #+16]
    551              while (pRing->RdOff >= pRing->SizeOfBuffer) {
   \                     ??SEGGER_RTT_WriteWithOverwriteNoLock_4: (+1)
   \   00000074   0xF8D8 0x0010      LDR      R0,[R8, #+16]
   \   00000078   0xF8D8 0x1008      LDR      R1,[R8, #+8]
   \   0000007C   0x4288             CMP      R0,R1
   \   0000007E   0xD307             BCC.N    ??SEGGER_RTT_WriteWithOverwriteNoLock_3
    552                pRing->RdOff -= pRing->SizeOfBuffer;
   \   00000080   0xF8D8 0x0010      LDR      R0,[R8, #+16]
   \   00000084   0xF8D8 0x1008      LDR      R1,[R8, #+8]
   \   00000088   0x1A40             SUBS     R0,R0,R1
   \   0000008A   0xF8C8 0x0010      STR      R0,[R8, #+16]
   \   0000008E   0xE7F1             B.N      ??SEGGER_RTT_WriteWithOverwriteNoLock_4
    553              }
    554            }
    555            //
    556            // Write all data, no need to check the RdOff, but possibly handle multiple wrap-arounds
    557            //
    558            Avail = pRing->SizeOfBuffer - pRing->WrOff;
   \                     ??SEGGER_RTT_WriteWithOverwriteNoLock_3: (+1)
   \   00000090   0xF8D8 0x0008      LDR      R0,[R8, #+8]
   \   00000094   0xF8D8 0x100C      LDR      R1,[R8, #+12]
   \   00000098   0x1A40             SUBS     R0,R0,R1
   \   0000009A   0x4681             MOV      R9,R0
    559            do {
    560              if (Avail > NumBytes) {
   \                     ??SEGGER_RTT_WriteWithOverwriteNoLock_5: (+1)
   \   0000009C   0x454E             CMP      R6,R9
   \   0000009E   0xD212             BCS.N    ??SEGGER_RTT_WriteWithOverwriteNoLock_6
    561                //
    562                // Last round
    563                //
    564          #if 1 // memcpy() is good for large amounts of data, but the overhead is too big for small amounts. Use a simple byte loop instead.
    565                char* pDst;
    566                pDst = pRing->pBuffer + pRing->WrOff;
   \   000000A0   0xF8D8 0x1004      LDR      R1,[R8, #+4]
   \   000000A4   0xF8D8 0x200C      LDR      R2,[R8, #+12]
   \   000000A8   0x4411             ADD      R1,R1,R2
   \   000000AA   0x0008             MOVS     R0,R1
    567                pRing->WrOff += NumBytes;
   \   000000AC   0xF8D8 0x100C      LDR      R1,[R8, #+12]
   \   000000B0   0x1871             ADDS     R1,R6,R1
   \   000000B2   0xF8C8 0x100C      STR      R1,[R8, #+12]
    568                do {
    569                  *pDst++ = *pData++;
   \                     ??SEGGER_RTT_WriteWithOverwriteNoLock_7: (+1)
   \   000000B6   0x7839             LDRB     R1,[R7, #+0]
   \   000000B8   0x7001             STRB     R1,[R0, #+0]
   \   000000BA   0x1C7F             ADDS     R7,R7,#+1
   \   000000BC   0x1C40             ADDS     R0,R0,#+1
    570                } while (--NumBytes);
   \   000000BE   0x1E76             SUBS     R6,R6,#+1
   \   000000C0   0x2E00             CMP      R6,#+0
   \   000000C2   0xD1F8             BNE.N    ??SEGGER_RTT_WriteWithOverwriteNoLock_7
    571          #else
    572                memcpy(pRing->pBuffer + WrOff, pData, NumBytes);
    573                pRing->WrOff += NumBytes;
    574          #endif
    575                break;  //Alternatively: NumBytes = 0;
   \   000000C4   0xE019             B.N      ??SEGGER_RTT_WriteWithOverwriteNoLock_8
    576              } else {
    577                //
    578                //  Wrap-around necessary, write until wrap-around and reset WrOff
    579                //
    580                memcpy(pRing->pBuffer + pRing->WrOff, pData, Avail);
   \                     ??SEGGER_RTT_WriteWithOverwriteNoLock_6: (+1)
   \   000000C6   0xF8CD 0x9000      STR      R9,[SP, #+0]
   \   000000CA   0x46BA             MOV      R10,R7
   \   000000CC   0xF8D8 0x0004      LDR      R0,[R8, #+4]
   \   000000D0   0xF8D8 0x100C      LDR      R1,[R8, #+12]
   \   000000D4   0xEB00 0x0B01      ADD      R11,R0,R1
   \   000000D8   0x9A00             LDR      R2,[SP, #+0]
   \   000000DA   0x4651             MOV      R1,R10
   \   000000DC   0x4658             MOV      R0,R11
   \   000000DE   0x.... 0x....      BL       __aeabi_memcpy
    581                pData += Avail;
   \   000000E2   0x444F             ADD      R7,R7,R9
    582                pRing->WrOff = 0;
   \   000000E4   0x2000             MOVS     R0,#+0
   \   000000E6   0xF8C8 0x000C      STR      R0,[R8, #+12]
    583                NumBytes -= Avail;
   \   000000EA   0xEBB6 0x0609      SUBS     R6,R6,R9
    584                Avail = (pRing->SizeOfBuffer - 1);
   \   000000EE   0xF8D8 0x0008      LDR      R0,[R8, #+8]
   \   000000F2   0x1E40             SUBS     R0,R0,#+1
   \   000000F4   0x4681             MOV      R9,R0
    585              }
    586            } while (NumBytes);
   \   000000F6   0x2E00             CMP      R6,#+0
   \   000000F8   0xD1D0             BNE.N    ??SEGGER_RTT_WriteWithOverwriteNoLock_5
    587          }
   \                     ??SEGGER_RTT_WriteWithOverwriteNoLock_8: (+1)
   \   000000FA   0xE8BD 0x8FF1      POP      {R0,R4-R11,PC}   ;; return
    588          
    589          /*********************************************************************
    590          *
    591          *       SEGGER_RTT_WriteSkipNoLock
    592          *
    593          *  Function description
    594          *    Stores a specified number of characters in SEGGER RTT
    595          *    control block which is then read by the host.
    596          *    SEGGER_RTT_WriteSkipNoLock does not lock the application and
    597          *    skips all data, if the data does not fit into the buffer.
    598          *
    599          *  Parameters
    600          *    BufferIndex  Index of "Up"-buffer to be used (e.g. 0 for "Terminal").
    601          *    pBuffer      Pointer to character array. Does not need to point to a \0 terminated string.
    602          *    NumBytes     Number of bytes to be stored in the SEGGER RTT control block.
    603          *
    604          *  Return value
    605          *    Number of bytes which have been stored in the "Up"-buffer.
    606          *
    607          *  Notes
    608          *    (1) If there is not enough space in the "Up"-buffer, all data is dropped.
    609          *    (2) For performance reasons this function does not call Init()
    610          *        and may only be called after RTT has been initialized.
    611          *        Either by calling SEGGER_RTT_Init() or calling another RTT API function first.
    612          */

   \                                 In section .text, align 2, keep-with-next
    613          unsigned SEGGER_RTT_WriteSkipNoLock(unsigned BufferIndex, const void* pBuffer, unsigned NumBytes) {
   \                     SEGGER_RTT_WriteSkipNoLock: (+1)
   \   00000000   0xE92D 0x4FF0      PUSH     {R4-R11,LR}
   \   00000004   0xB085             SUB      SP,SP,#+20
   \   00000006   0x0004             MOVS     R4,R0
   \   00000008   0x000D             MOVS     R5,R1
   \   0000000A   0x4690             MOV      R8,R2
    614            const char*           pData;
    615            SEGGER_RTT_BUFFER_UP* pRing;
    616            unsigned              Avail;
    617            unsigned              RdOff;
    618            unsigned              WrOff;
    619            unsigned              Rem;
    620          
    621            pData = (const char *)pBuffer;
   \   0000000C   0x46AB             MOV      R11,R5
    622            //
    623            // Get "to-host" ring buffer and copy some elements into local variables.
    624            //
    625            pRing = &_SEGGER_RTT.aUp[BufferIndex];
   \   0000000E   0x.... 0x....      LDR.W    R0,??DataTable16
   \   00000012   0x2118             MOVS     R1,#+24
   \   00000014   0xFB01 0xF104      MUL      R1,R1,R4
   \   00000018   0x4408             ADD      R0,R0,R1
   \   0000001A   0x3018             ADDS     R0,R0,#+24
   \   0000001C   0x0006             MOVS     R6,R0
    626            RdOff = pRing->RdOff;
   \   0000001E   0x6930             LDR      R0,[R6, #+16]
   \   00000020   0x9001             STR      R0,[SP, #+4]
    627            WrOff = pRing->WrOff;
   \   00000022   0x68F0             LDR      R0,[R6, #+12]
   \   00000024   0x0007             MOVS     R7,R0
    628            //
    629            // Handle the most common cases fastest.
    630            // Which is:
    631            //    RdOff <= WrOff -> Space until wrap around is free.
    632            //  AND
    633            //    WrOff + NumBytes < SizeOfBuffer -> No Wrap around necessary.
    634            //
    635            //  OR
    636            //
    637            //    RdOff > WrOff -> Space until RdOff - 1 is free.
    638            //  AND
    639            //    WrOff + NumBytes < RdOff -> Data fits into buffer
    640            //
    641            if (RdOff <= WrOff) {
   \   00000026   0x9801             LDR      R0,[SP, #+4]
   \   00000028   0x4287             CMP      R7,R0
   \   0000002A   0xD34F             BCC.N    ??SEGGER_RTT_WriteSkipNoLock_0
    642              //
    643              // Get space until WrOff will be at wrap around.
    644              //
    645              Avail = pRing->SizeOfBuffer - 1u - WrOff ;
   \   0000002C   0x68B0             LDR      R0,[R6, #+8]
   \   0000002E   0x1E40             SUBS     R0,R0,#+1
   \   00000030   0x1BC0             SUBS     R0,R0,R7
   \   00000032   0x4681             MOV      R9,R0
    646              if (Avail >= NumBytes) {
   \   00000034   0x45C1             CMP      R9,R8
   \   00000036   0xD314             BCC.N    ??SEGGER_RTT_WriteSkipNoLock_1
    647          #if 1 // memcpy() is good for large amounts of data, but the overhead is too big for small amounts. Use a simple byte loop instead.
    648                char* pDst;
    649                pDst = pRing->pBuffer + WrOff;
   \   00000038   0x6870             LDR      R0,[R6, #+4]
   \   0000003A   0x4438             ADD      R0,R0,R7
   \   0000003C   0x0001             MOVS     R1,R0
    650                WrOff += NumBytes;
   \   0000003E   0xEB18 0x0707      ADDS     R7,R8,R7
    651                do {
    652                  *pDst++ = *pData++;
   \                     ??SEGGER_RTT_WriteSkipNoLock_2: (+1)
   \   00000042   0xF89B 0x0000      LDRB     R0,[R11, #+0]
   \   00000046   0x7008             STRB     R0,[R1, #+0]
   \   00000048   0xF11B 0x0B01      ADDS     R11,R11,#+1
   \   0000004C   0x1C49             ADDS     R1,R1,#+1
    653                } while (--NumBytes);
   \   0000004E   0xF1B8 0x0801      SUBS     R8,R8,#+1
   \   00000052   0xF1B8 0x0F00      CMP      R8,#+0
   \   00000056   0xD1F4             BNE.N    ??SEGGER_RTT_WriteSkipNoLock_2
    654                pRing->WrOff = WrOff + NumBytes;
   \   00000058   0xEB18 0x0007      ADDS     R0,R8,R7
   \   0000005C   0x60F0             STR      R0,[R6, #+12]
    655          #else
    656                memcpy(pRing->pBuffer + WrOff, pData, NumBytes);
    657                pRing->WrOff = WrOff + NumBytes;
    658          #endif
    659                return 1;
   \   0000005E   0x2001             MOVS     R0,#+1
   \   00000060   0xE048             B.N      ??SEGGER_RTT_WriteSkipNoLock_3
    660              }
    661              //
    662              // If data did not fit into space until wrap around calculate complete space in buffer.
    663              //
    664              Avail += RdOff;
   \                     ??SEGGER_RTT_WriteSkipNoLock_1: (+1)
   \   00000062   0x9801             LDR      R0,[SP, #+4]
   \   00000064   0xEB10 0x0909      ADDS     R9,R0,R9
    665              //
    666              // If there is still no space for the whole of this output, don't bother.
    667              //
    668              if (Avail >= NumBytes) {
   \   00000068   0x45C1             CMP      R9,R8
   \   0000006A   0xD342             BCC.N    ??SEGGER_RTT_WriteSkipNoLock_4
    669                //
    670                //  OK, we have enough space in buffer. Copy in one or 2 chunks
    671                //
    672                Rem = pRing->SizeOfBuffer - WrOff;      // Space until end of buffer
   \   0000006C   0x68B0             LDR      R0,[R6, #+8]
   \   0000006E   0x1BC0             SUBS     R0,R0,R7
   \   00000070   0x9000             STR      R0,[SP, #+0]
    673                if (Rem > NumBytes) {
   \   00000072   0x9800             LDR      R0,[SP, #+0]
   \   00000074   0x4580             CMP      R8,R0
   \   00000076   0xD20B             BCS.N    ??SEGGER_RTT_WriteSkipNoLock_5
    674                  memcpy(pRing->pBuffer + WrOff, pData, NumBytes);
   \   00000078   0x6870             LDR      R0,[R6, #+4]
   \   0000007A   0xEB00 0x0A07      ADD      R10,R0,R7
   \   0000007E   0x4642             MOV      R2,R8
   \   00000080   0x4659             MOV      R1,R11
   \   00000082   0x4650             MOV      R0,R10
   \   00000084   0x.... 0x....      BL       __aeabi_memcpy
    675                  pRing->WrOff = WrOff + NumBytes;
   \   00000088   0xEB18 0x0007      ADDS     R0,R8,R7
   \   0000008C   0x60F0             STR      R0,[R6, #+12]
   \   0000008E   0xE01B             B.N      ??SEGGER_RTT_WriteSkipNoLock_6
    676                } else {
    677                  //
    678                  // We reach the end of the buffer, so need to wrap around
    679                  //
    680                  memcpy(pRing->pBuffer + WrOff, pData, Rem);
   \                     ??SEGGER_RTT_WriteSkipNoLock_5: (+1)
   \   00000090   0x9800             LDR      R0,[SP, #+0]
   \   00000092   0x9004             STR      R0,[SP, #+16]
   \   00000094   0x6870             LDR      R0,[R6, #+4]
   \   00000096   0xEB00 0x0A07      ADD      R10,R0,R7
   \   0000009A   0x9A04             LDR      R2,[SP, #+16]
   \   0000009C   0x4659             MOV      R1,R11
   \   0000009E   0x4650             MOV      R0,R10
   \   000000A0   0x.... 0x....      BL       __aeabi_memcpy
    681                  memcpy(pRing->pBuffer, pData + Rem, NumBytes - Rem);
   \   000000A4   0x9800             LDR      R0,[SP, #+0]
   \   000000A6   0xEBB8 0x0000      SUBS     R0,R8,R0
   \   000000AA   0x9003             STR      R0,[SP, #+12]
   \   000000AC   0x9800             LDR      R0,[SP, #+0]
   \   000000AE   0x4458             ADD      R0,R11,R0
   \   000000B0   0x9002             STR      R0,[SP, #+8]
   \   000000B2   0xF8D6 0xA004      LDR      R10,[R6, #+4]
   \   000000B6   0x9A03             LDR      R2,[SP, #+12]
   \   000000B8   0x9902             LDR      R1,[SP, #+8]
   \   000000BA   0x4650             MOV      R0,R10
   \   000000BC   0x.... 0x....      BL       __aeabi_memcpy
    682                  pRing->WrOff = NumBytes - Rem;
   \   000000C0   0x9800             LDR      R0,[SP, #+0]
   \   000000C2   0xEBB8 0x0000      SUBS     R0,R8,R0
   \   000000C6   0x60F0             STR      R0,[R6, #+12]
    683                }
    684                return 1;
   \                     ??SEGGER_RTT_WriteSkipNoLock_6: (+1)
   \   000000C8   0x2001             MOVS     R0,#+1
   \   000000CA   0xE013             B.N      ??SEGGER_RTT_WriteSkipNoLock_3
    685              }
    686            } else {
    687              Avail = RdOff - WrOff - 1u;
   \                     ??SEGGER_RTT_WriteSkipNoLock_0: (+1)
   \   000000CC   0x9801             LDR      R0,[SP, #+4]
   \   000000CE   0x1BC0             SUBS     R0,R0,R7
   \   000000D0   0x1E40             SUBS     R0,R0,#+1
   \   000000D2   0x4681             MOV      R9,R0
    688              if (Avail >= NumBytes) {
   \   000000D4   0x45C1             CMP      R9,R8
   \   000000D6   0xD30C             BCC.N    ??SEGGER_RTT_WriteSkipNoLock_4
    689                memcpy(pRing->pBuffer + WrOff, pData, NumBytes);
   \   000000D8   0x6870             LDR      R0,[R6, #+4]
   \   000000DA   0xEB00 0x0A07      ADD      R10,R0,R7
   \   000000DE   0x4642             MOV      R2,R8
   \   000000E0   0x4659             MOV      R1,R11
   \   000000E2   0x4650             MOV      R0,R10
   \   000000E4   0x.... 0x....      BL       __aeabi_memcpy
    690                pRing->WrOff = WrOff + NumBytes;
   \   000000E8   0xEB18 0x0007      ADDS     R0,R8,R7
   \   000000EC   0x60F0             STR      R0,[R6, #+12]
    691                return 1;
   \   000000EE   0x2001             MOVS     R0,#+1
   \   000000F0   0xE000             B.N      ??SEGGER_RTT_WriteSkipNoLock_3
    692              }
    693            }
    694            //
    695            // If we reach this point no data has been written
    696            //
    697            return 0;
   \                     ??SEGGER_RTT_WriteSkipNoLock_4: (+1)
   \   000000F2   0x2000             MOVS     R0,#+0
   \                     ??SEGGER_RTT_WriteSkipNoLock_3: (+1)
   \   000000F4   0xB005             ADD      SP,SP,#+20
   \   000000F6   0xE8BD 0x8FF0      POP      {R4-R11,PC}      ;; return
    698          }
    699          
    700          /*********************************************************************
    701          *
    702          *       SEGGER_RTT_WriteNoLock
    703          *
    704          *  Function description
    705          *    Stores a specified number of characters in SEGGER RTT
    706          *    control block which is then read by the host.
    707          *    SEGGER_RTT_WriteNoLock does not lock the application.
    708          *
    709          *  Parameters
    710          *    BufferIndex  Index of "Up"-buffer to be used (e.g. 0 for "Terminal").
    711          *    pBuffer      Pointer to character array. Does not need to point to a \0 terminated string.
    712          *    NumBytes     Number of bytes to be stored in the SEGGER RTT control block.
    713          *
    714          *  Return value
    715          *    Number of bytes which have been stored in the "Up"-buffer.
    716          *
    717          *  Notes
    718          *    (1) If there is not enough space in the "Up"-buffer, remaining characters of pBuffer are dropped.
    719          *    (2) For performance reasons this function does not call Init()
    720          *        and may only be called after RTT has been initialized.
    721          *        Either by calling SEGGER_RTT_Init() or calling another RTT API function first.
    722          */

   \                                 In section .text, align 2, keep-with-next
    723          unsigned SEGGER_RTT_WriteNoLock(unsigned BufferIndex, const void* pBuffer, unsigned NumBytes) {
   \                     SEGGER_RTT_WriteNoLock: (+1)
   \   00000000   0xE92D 0x47F0      PUSH     {R4-R10,LR}
   \   00000004   0x0004             MOVS     R4,R0
   \   00000006   0x000D             MOVS     R5,R1
   \   00000008   0x0016             MOVS     R6,R2
    724            unsigned              Status;
    725            unsigned              Avail;
    726            const char*           pData;
    727            SEGGER_RTT_BUFFER_UP* pRing;
    728          
    729            pData = (const char *)pBuffer;
   \   0000000A   0x46A9             MOV      R9,R5
    730            //
    731            // Get "to-host" ring buffer.
    732            //
    733            pRing = &_SEGGER_RTT.aUp[BufferIndex];
   \   0000000C   0x.... 0x....      LDR.W    R0,??DataTable16
   \   00000010   0x2118             MOVS     R1,#+24
   \   00000012   0xFB01 0xF104      MUL      R1,R1,R4
   \   00000016   0x4408             ADD      R0,R0,R1
   \   00000018   0x3018             ADDS     R0,R0,#+24
   \   0000001A   0x4682             MOV      R10,R0
    734            //
    735            // How we output depends upon the mode...
    736            //
    737            switch (pRing->Flags) {
   \   0000001C   0xF8DA 0x0014      LDR      R0,[R10, #+20]
   \   00000020   0x2800             CMP      R0,#+0
   \   00000022   0xD003             BEQ.N    ??SEGGER_RTT_WriteNoLock_0
   \   00000024   0x2802             CMP      R0,#+2
   \   00000026   0xD020             BEQ.N    ??SEGGER_RTT_WriteNoLock_1
   \   00000028   0xD310             BCC.N    ??SEGGER_RTT_WriteNoLock_2
   \   0000002A   0xE025             B.N      ??SEGGER_RTT_WriteNoLock_3
    738            case SEGGER_RTT_MODE_NO_BLOCK_SKIP:
    739              //
    740              // If we are in skip mode and there is no space for the whole
    741              // of this output, don't bother.
    742              //
    743              Avail = _GetAvailWriteSpace(pRing);
   \                     ??SEGGER_RTT_WriteNoLock_0: (+1)
   \   0000002C   0x4650             MOV      R0,R10
   \   0000002E   0x.... 0x....      BL       _GetAvailWriteSpace
   \   00000032   0x4680             MOV      R8,R0
    744              if (Avail < NumBytes) {
   \   00000034   0x45B0             CMP      R8,R6
   \   00000036   0xD202             BCS.N    ??SEGGER_RTT_WriteNoLock_4
    745                Status = 0u;
   \   00000038   0x2000             MOVS     R0,#+0
   \   0000003A   0x0007             MOVS     R7,R0
   \   0000003C   0xE005             B.N      ??SEGGER_RTT_WriteNoLock_5
    746              } else {
    747                Status = NumBytes;
   \                     ??SEGGER_RTT_WriteNoLock_4: (+1)
   \   0000003E   0x0037             MOVS     R7,R6
    748                _WriteNoCheck(pRing, pData, NumBytes);
   \   00000040   0x0032             MOVS     R2,R6
   \   00000042   0x4649             MOV      R1,R9
   \   00000044   0x4650             MOV      R0,R10
   \   00000046   0x.... 0x....      BL       _WriteNoCheck
    749              }
    750              break;
   \                     ??SEGGER_RTT_WriteNoLock_5: (+1)
   \   0000004A   0xE017             B.N      ??SEGGER_RTT_WriteNoLock_6
    751            case SEGGER_RTT_MODE_NO_BLOCK_TRIM:
    752              //
    753              // If we are in trim mode, trim to what we can output without blocking.
    754              //
    755              Avail = _GetAvailWriteSpace(pRing);
   \                     ??SEGGER_RTT_WriteNoLock_2: (+1)
   \   0000004C   0x4650             MOV      R0,R10
   \   0000004E   0x.... 0x....      BL       _GetAvailWriteSpace
   \   00000052   0x4680             MOV      R8,R0
    756              Status = Avail < NumBytes ? Avail : NumBytes;
   \   00000054   0x45B0             CMP      R8,R6
   \   00000056   0xD201             BCS.N    ??SEGGER_RTT_WriteNoLock_7
   \   00000058   0x4647             MOV      R7,R8
   \   0000005A   0xE000             B.N      ??SEGGER_RTT_WriteNoLock_8
   \                     ??SEGGER_RTT_WriteNoLock_7: (+1)
   \   0000005C   0x0037             MOVS     R7,R6
    757              _WriteNoCheck(pRing, pData, Status);
   \                     ??SEGGER_RTT_WriteNoLock_8: (+1)
   \   0000005E   0x003A             MOVS     R2,R7
   \   00000060   0x4649             MOV      R1,R9
   \   00000062   0x4650             MOV      R0,R10
   \   00000064   0x.... 0x....      BL       _WriteNoCheck
    758              break;
   \   00000068   0xE008             B.N      ??SEGGER_RTT_WriteNoLock_6
    759            case SEGGER_RTT_MODE_BLOCK_IF_FIFO_FULL:
    760              //
    761              // If we are in blocking mode, output everything.
    762              //
    763              Status = _WriteBlocking(pRing, pData, NumBytes);
   \                     ??SEGGER_RTT_WriteNoLock_1: (+1)
   \   0000006A   0x0032             MOVS     R2,R6
   \   0000006C   0x4649             MOV      R1,R9
   \   0000006E   0x4650             MOV      R0,R10
   \   00000070   0x.... 0x....      BL       _WriteBlocking
   \   00000074   0x0007             MOVS     R7,R0
    764              break;
   \   00000076   0xE001             B.N      ??SEGGER_RTT_WriteNoLock_6
    765            default:
    766              Status = 0u;
   \                     ??SEGGER_RTT_WriteNoLock_3: (+1)
   \   00000078   0x2000             MOVS     R0,#+0
   \   0000007A   0x0007             MOVS     R7,R0
    767              break;
    768            }
    769            //
    770            // Finish up.
    771            //
    772            return Status;
   \                     ??SEGGER_RTT_WriteNoLock_6: (+1)
   \   0000007C   0x0038             MOVS     R0,R7
   \   0000007E   0xE8BD 0x87F0      POP      {R4-R10,PC}      ;; return
    773          }
    774          
    775          /*********************************************************************
    776          *
    777          *       SEGGER_RTT_Write
    778          *
    779          *  Function description
    780          *    Stores a specified number of characters in SEGGER RTT
    781          *    control block which is then read by the host.
    782          *
    783          *  Parameters
    784          *    BufferIndex  Index of "Up"-buffer to be used (e.g. 0 for "Terminal").
    785          *    pBuffer      Pointer to character array. Does not need to point to a \0 terminated string.
    786          *    NumBytes     Number of bytes to be stored in the SEGGER RTT control block.
    787          *
    788          *  Return value
    789          *    Number of bytes which have been stored in the "Up"-buffer.
    790          *
    791          *  Notes
    792          *    (1) If there is not enough space in the "Up"-buffer, remaining characters of pBuffer are dropped.
    793          */

   \                                 In section .text, align 2, keep-with-next
    794          unsigned SEGGER_RTT_Write(unsigned BufferIndex, const void* pBuffer, unsigned NumBytes) {
   \                     SEGGER_RTT_Write: (+1)
   \   00000000   0xE92D 0x41F0      PUSH     {R4-R8,LR}
   \   00000004   0x0004             MOVS     R4,R0
   \   00000006   0x000D             MOVS     R5,R1
   \   00000008   0x0016             MOVS     R6,R2
    795            unsigned Status;
    796            //
    797            INIT();
   \   0000000A   0x.... 0x....      LDR.W    R0,??DataTable16
   \   0000000E   0x7800             LDRB     R0,[R0, #+0]
   \   00000010   0x2800             CMP      R0,#+0
   \   00000012   0xD101             BNE.N    ??SEGGER_RTT_Write_0
   \   00000014   0x.... 0x....      BL       _DoInit
    798            SEGGER_RTT_LOCK();
   \                     ??SEGGER_RTT_Write_0: (+1)
   \   00000018   0xF3EF 0x8811      MRS      R8,BASEPRI
   \   0000001C   0x2020             MOVS     R0,#+32
   \   0000001E   0xF380 0x8811      MSR      BASEPRI,R0
    799            //
    800            // Call the non-locking write function
    801            //
    802            Status = SEGGER_RTT_WriteNoLock(BufferIndex, pBuffer, NumBytes);
   \   00000022   0x0032             MOVS     R2,R6
   \   00000024   0x0029             MOVS     R1,R5
   \   00000026   0x0020             MOVS     R0,R4
   \   00000028   0x.... 0x....      BL       SEGGER_RTT_WriteNoLock
   \   0000002C   0x0007             MOVS     R7,R0
    803            //
    804            // Finish up.
    805            //
    806            SEGGER_RTT_UNLOCK();
   \   0000002E   0xF388 0x8811      MSR      BASEPRI,R8
    807            //
    808            return Status;
   \   00000032   0x0038             MOVS     R0,R7
   \   00000034   0xE8BD 0x81F0      POP      {R4-R8,PC}       ;; return
    809          }
    810          
    811          /*********************************************************************
    812          *
    813          *       SEGGER_RTT_WriteString
    814          *
    815          *  Function description
    816          *    Stores string in SEGGER RTT control block.
    817          *    This data is read by the host.
    818          *
    819          *  Parameters
    820          *    BufferIndex  Index of "Up"-buffer to be used (e.g. 0 for "Terminal").
    821          *    s            Pointer to string.
    822          *
    823          *  Return value
    824          *    Number of bytes which have been stored in the "Up"-buffer.
    825          *
    826          *  Notes
    827          *    (1) If there is not enough space in the "Up"-buffer, depending on configuration,
    828          *        remaining characters may be dropped or RTT module waits until there is more space in the buffer.
    829          *    (2) String passed to this function has to be \0 terminated
    830          *    (3) \0 termination character is *not* stored in RTT buffer
    831          */

   \                                 In section .text, align 2, keep-with-next
    832          unsigned SEGGER_RTT_WriteString(unsigned BufferIndex, const char* s) {
   \                     SEGGER_RTT_WriteString: (+1)
   \   00000000   0xB570             PUSH     {R4-R6,LR}
   \   00000002   0x0004             MOVS     R4,R0
   \   00000004   0x000D             MOVS     R5,R1
    833            unsigned Len;
    834          
    835            Len = STRLEN(s);
   \   00000006   0x0028             MOVS     R0,R5
   \   00000008   0x.... 0x....      BL       strlen
   \   0000000C   0x0006             MOVS     R6,R0
    836            return SEGGER_RTT_Write(BufferIndex, s, Len);
   \   0000000E   0x0032             MOVS     R2,R6
   \   00000010   0x0029             MOVS     R1,R5
   \   00000012   0x0020             MOVS     R0,R4
   \   00000014   0x.... 0x....      BL       SEGGER_RTT_Write
   \   00000018   0xBD70             POP      {R4-R6,PC}       ;; return
    837          }
    838          
    839          /*********************************************************************
    840          *
    841          *       SEGGER_RTT_GetKey
    842          *
    843          *  Function description
    844          *    Reads one character from the SEGGER RTT buffer.
    845          *    Host has previously stored data there.
    846          *
    847          *  Return value
    848          *    <  0 -   No character available (buffer empty).
    849          *    >= 0 -   Character which has been read. (Possible values: 0 - 255)
    850          *
    851          *  Notes
    852          *    (1) This function is only specified for accesses to RTT buffer 0.
    853          */

   \                                 In section .text, align 2, keep-with-next
    854          int SEGGER_RTT_GetKey(void) {
   \                     SEGGER_RTT_GetKey: (+1)
   \   00000000   0xB510             PUSH     {R4,LR}
   \   00000002   0xB082             SUB      SP,SP,#+8
    855            char c;
    856            int r;
    857          
    858            r = (int)SEGGER_RTT_Read(0u, &c, 1u);
   \   00000004   0x2201             MOVS     R2,#+1
   \   00000006   0x4669             MOV      R1,SP
   \   00000008   0x2000             MOVS     R0,#+0
   \   0000000A   0x.... 0x....      BL       SEGGER_RTT_Read
   \   0000000E   0x0004             MOVS     R4,R0
    859            if (r == 1) {
   \   00000010   0x2C01             CMP      R4,#+1
   \   00000012   0xD103             BNE.N    ??SEGGER_RTT_GetKey_0
    860              r = (int)(unsigned char)c;
   \   00000014   0xF89D 0x0000      LDRB     R0,[SP, #+0]
   \   00000018   0x0004             MOVS     R4,R0
   \   0000001A   0xE002             B.N      ??SEGGER_RTT_GetKey_1
    861            } else {
    862              r = -1;
   \                     ??SEGGER_RTT_GetKey_0: (+1)
   \   0000001C   0xF05F 0x30FF      MOVS     R0,#-1
   \   00000020   0x0004             MOVS     R4,R0
    863            }
    864            return r;
   \                     ??SEGGER_RTT_GetKey_1: (+1)
   \   00000022   0x0020             MOVS     R0,R4
   \   00000024   0xBD16             POP      {R1,R2,R4,PC}    ;; return
    865          }
    866          
    867          /*********************************************************************
    868          *
    869          *       SEGGER_RTT_WaitKey
    870          *
    871          *  Function description
    872          *    Waits until at least one character is avaible in the SEGGER RTT buffer.
    873          *    Once a character is available, it is read and this function returns.
    874          *
    875          *  Return value
    876          *    >=0 -   Character which has been read.
    877          *
    878          *  Notes
    879          *    (1) This function is only specified for accesses to RTT buffer 0
    880          *    (2) This function is blocking if no character is present in RTT buffer
    881          */

   \                                 In section .text, align 2, keep-with-next
    882          int SEGGER_RTT_WaitKey(void) {
   \                     SEGGER_RTT_WaitKey: (+1)
   \   00000000   0xB510             PUSH     {R4,LR}
    883            int r;
    884          
    885            do {
    886              r = SEGGER_RTT_GetKey();
   \                     ??SEGGER_RTT_WaitKey_0: (+1)
   \   00000002   0x.... 0x....      BL       SEGGER_RTT_GetKey
   \   00000006   0x0004             MOVS     R4,R0
    887            } while (r < 0);
   \   00000008   0x2C00             CMP      R4,#+0
   \   0000000A   0xD4FA             BMI.N    ??SEGGER_RTT_WaitKey_0
    888            return r;
   \   0000000C   0x0020             MOVS     R0,R4
   \   0000000E   0xBD10             POP      {R4,PC}          ;; return
    889          }
    890          
    891          /*********************************************************************
    892          *
    893          *       SEGGER_RTT_HasKey
    894          *
    895          *  Function description
    896          *    Checks if at least one character for reading is available in the SEGGER RTT buffer.
    897          *
    898          *  Return value
    899          *    == 0 -     No characters are available to read.
    900          *    == 1 -     At least one character is available.
    901          *
    902          *  Notes
    903          *    (1) This function is only specified for accesses to RTT buffer 0
    904          */

   \                                 In section .text, align 2, keep-with-next
    905          int SEGGER_RTT_HasKey(void) {
   \                     SEGGER_RTT_HasKey: (+1)
   \   00000000   0xB538             PUSH     {R3-R5,LR}
    906            unsigned RdOff;
    907            int r;
    908          
    909            INIT();
   \   00000002   0x.... 0x....      LDR.W    R0,??DataTable16
   \   00000006   0x7800             LDRB     R0,[R0, #+0]
   \   00000008   0x2800             CMP      R0,#+0
   \   0000000A   0xD101             BNE.N    ??SEGGER_RTT_HasKey_0
   \   0000000C   0x.... 0x....      BL       _DoInit
    910            RdOff = _SEGGER_RTT.aDown[0].RdOff;
   \                     ??SEGGER_RTT_HasKey_0: (+1)
   \   00000010   0x.... 0x....      LDR.W    R0,??DataTable16
   \   00000014   0x6D80             LDR      R0,[R0, #+88]
   \   00000016   0x0004             MOVS     R4,R0
    911            if (RdOff != _SEGGER_RTT.aDown[0].WrOff) {
   \   00000018   0x.... 0x....      LDR.W    R0,??DataTable16
   \   0000001C   0x6D40             LDR      R0,[R0, #+84]
   \   0000001E   0x4284             CMP      R4,R0
   \   00000020   0xD002             BEQ.N    ??SEGGER_RTT_HasKey_1
    912              r = 1;
   \   00000022   0x2001             MOVS     R0,#+1
   \   00000024   0x0005             MOVS     R5,R0
   \   00000026   0xE001             B.N      ??SEGGER_RTT_HasKey_2
    913            } else {
    914              r = 0;
   \                     ??SEGGER_RTT_HasKey_1: (+1)
   \   00000028   0x2000             MOVS     R0,#+0
   \   0000002A   0x0005             MOVS     R5,R0
    915            }
    916            return r;
   \                     ??SEGGER_RTT_HasKey_2: (+1)
   \   0000002C   0x0028             MOVS     R0,R5
   \   0000002E   0xBD32             POP      {R1,R4,R5,PC}    ;; return
    917          }
    918          
    919          /*********************************************************************
    920          *
    921          *       SEGGER_RTT_HasData
    922          *
    923          *  Function description
    924          *    Check if there is data from the host in the given buffer.
    925          *
    926          *  Return value:
    927          *  ==0:  No data
    928          *  !=0:  Data in buffer
    929          *
    930          */

   \                                 In section .text, align 2, keep-with-next
    931          unsigned SEGGER_RTT_HasData(unsigned BufferIndex) {
   \                     SEGGER_RTT_HasData: (+1)
   \   00000000   0xB410             PUSH     {R4}
   \   00000002   0x0001             MOVS     R1,R0
    932            SEGGER_RTT_BUFFER_DOWN* pRing;
    933            unsigned                v;
    934          
    935            pRing = &_SEGGER_RTT.aDown[BufferIndex];
   \   00000004   0x.... 0x....      LDR.W    R3,??DataTable16
   \   00000008   0x2418             MOVS     R4,#+24
   \   0000000A   0xFB04 0xF401      MUL      R4,R4,R1
   \   0000000E   0x4423             ADD      R3,R3,R4
   \   00000010   0x3348             ADDS     R3,R3,#+72
   \   00000012   0x0018             MOVS     R0,R3
    936            v = pRing->WrOff;
   \   00000014   0x68C3             LDR      R3,[R0, #+12]
   \   00000016   0x001A             MOVS     R2,R3
    937            return v - pRing->RdOff;
   \   00000018   0x6900             LDR      R0,[R0, #+16]
   \   0000001A   0x1A10             SUBS     R0,R2,R0
   \   0000001C   0xBC10             POP      {R4}
   \   0000001E   0x4770             BX       LR               ;; return
    938          }
    939          
    940          /*********************************************************************
    941          *
    942          *       SEGGER_RTT_AllocDownBuffer
    943          *
    944          *  Function description
    945          *    Run-time configuration of the next down-buffer (H->T).
    946          *    The next buffer, which is not used yet is configured.
    947          *    This includes: Buffer address, size, name, flags, ...
    948          *
    949          *  Parameters
    950          *    sName        Pointer to a constant name string.
    951          *    pBuffer      Pointer to a buffer to be used.
    952          *    BufferSize   Size of the buffer.
    953          *    Flags        Operating modes. Define behavior if buffer is full (not enough space for entire message).
    954          *
    955          *  Return value
    956          *    >= 0 - O.K. Buffer Index
    957          *     < 0 - Error
    958          */

   \                                 In section .text, align 2, keep-with-next
    959          int SEGGER_RTT_AllocDownBuffer(const char* sName, void* pBuffer, unsigned BufferSize, unsigned Flags) {
   \                     SEGGER_RTT_AllocDownBuffer: (+1)
   \   00000000   0xE92D 0x41F0      PUSH     {R4-R8,LR}
   \   00000004   0x0004             MOVS     R4,R0
   \   00000006   0x000D             MOVS     R5,R1
   \   00000008   0x0016             MOVS     R6,R2
   \   0000000A   0x001F             MOVS     R7,R3
    960            int BufferIndex;
    961          
    962            INIT();
   \   0000000C   0x.... 0x....      LDR.W    R0,??DataTable16
   \   00000010   0x7800             LDRB     R0,[R0, #+0]
   \   00000012   0x2800             CMP      R0,#+0
   \   00000014   0xD101             BNE.N    ??SEGGER_RTT_AllocDownBuffer_0
   \   00000016   0x.... 0x....      BL       _DoInit
    963            SEGGER_RTT_LOCK();
   \                     ??SEGGER_RTT_AllocDownBuffer_0: (+1)
   \   0000001A   0xF3EF 0x8111      MRS      R1,BASEPRI
   \   0000001E   0x2020             MOVS     R0,#+32
   \   00000020   0xF380 0x8811      MSR      BASEPRI,R0
    964            BufferIndex = 0;
   \   00000024   0x2000             MOVS     R0,#+0
   \   00000026   0x4680             MOV      R8,R0
    965            do {
    966              if (_SEGGER_RTT.aDown[BufferIndex].pBuffer == NULL) {
   \                     ??SEGGER_RTT_AllocDownBuffer_1: (+1)
   \   00000028   0x.... 0x....      LDR.W    R0,??DataTable16
   \   0000002C   0x2218             MOVS     R2,#+24
   \   0000002E   0xFB02 0xF208      MUL      R2,R2,R8
   \   00000032   0x4410             ADD      R0,R0,R2
   \   00000034   0x6CC0             LDR      R0,[R0, #+76]
   \   00000036   0x2800             CMP      R0,#+0
   \   00000038   0xD006             BEQ.N    ??SEGGER_RTT_AllocDownBuffer_2
    967                break;
    968              }
    969              BufferIndex++;
   \                     ??SEGGER_RTT_AllocDownBuffer_3: (+1)
   \   0000003A   0xF118 0x0801      ADDS     R8,R8,#+1
    970            } while (BufferIndex < _SEGGER_RTT.MaxNumDownBuffers);
   \   0000003E   0x.... 0x....      LDR.W    R0,??DataTable16
   \   00000042   0x6940             LDR      R0,[R0, #+20]
   \   00000044   0x4580             CMP      R8,R0
   \   00000046   0xDBEF             BLT.N    ??SEGGER_RTT_AllocDownBuffer_1
    971            if (BufferIndex < _SEGGER_RTT.MaxNumDownBuffers) {
   \                     ??SEGGER_RTT_AllocDownBuffer_2: (+1)
   \   00000048   0x.... 0x....      LDR.W    R0,??DataTable16
   \   0000004C   0x6940             LDR      R0,[R0, #+20]
   \   0000004E   0x4580             CMP      R8,R0
   \   00000050   0xDA2C             BGE.N    ??SEGGER_RTT_AllocDownBuffer_4
    972              _SEGGER_RTT.aDown[BufferIndex].sName        = sName;
   \   00000052   0x.... 0x....      LDR.W    R0,??DataTable16
   \   00000056   0x2218             MOVS     R2,#+24
   \   00000058   0xFB02 0xF208      MUL      R2,R2,R8
   \   0000005C   0x4410             ADD      R0,R0,R2
   \   0000005E   0x6484             STR      R4,[R0, #+72]
    973              _SEGGER_RTT.aDown[BufferIndex].pBuffer      = (char*)pBuffer;
   \   00000060   0x.... 0x....      LDR.W    R0,??DataTable16
   \   00000064   0x2218             MOVS     R2,#+24
   \   00000066   0xFB02 0xF208      MUL      R2,R2,R8
   \   0000006A   0x4410             ADD      R0,R0,R2
   \   0000006C   0x64C5             STR      R5,[R0, #+76]
    974              _SEGGER_RTT.aDown[BufferIndex].SizeOfBuffer = BufferSize;
   \   0000006E   0x.... 0x....      LDR.W    R0,??DataTable16
   \   00000072   0x2218             MOVS     R2,#+24
   \   00000074   0xFB02 0xF208      MUL      R2,R2,R8
   \   00000078   0x4410             ADD      R0,R0,R2
   \   0000007A   0x6506             STR      R6,[R0, #+80]
    975              _SEGGER_RTT.aDown[BufferIndex].RdOff        = 0u;
   \   0000007C   0x2000             MOVS     R0,#+0
   \   0000007E   0x.... 0x....      LDR.W    R2,??DataTable16
   \   00000082   0x2318             MOVS     R3,#+24
   \   00000084   0xFB03 0xF308      MUL      R3,R3,R8
   \   00000088   0x441A             ADD      R2,R2,R3
   \   0000008A   0x6590             STR      R0,[R2, #+88]
    976              _SEGGER_RTT.aDown[BufferIndex].WrOff        = 0u;
   \   0000008C   0x2000             MOVS     R0,#+0
   \   0000008E   0x.... 0x....      LDR.W    R2,??DataTable16
   \   00000092   0x2318             MOVS     R3,#+24
   \   00000094   0xFB03 0xF308      MUL      R3,R3,R8
   \   00000098   0x441A             ADD      R2,R2,R3
   \   0000009A   0x6550             STR      R0,[R2, #+84]
    977              _SEGGER_RTT.aDown[BufferIndex].Flags        = Flags;
   \   0000009C   0x.... 0x....      LDR.W    R0,??DataTable16
   \   000000A0   0x2218             MOVS     R2,#+24
   \   000000A2   0xFB02 0xF208      MUL      R2,R2,R8
   \   000000A6   0x4410             ADD      R0,R0,R2
   \   000000A8   0x65C7             STR      R7,[R0, #+92]
   \   000000AA   0xE002             B.N      ??SEGGER_RTT_AllocDownBuffer_5
    978            } else {
    979              BufferIndex = -1;
   \                     ??SEGGER_RTT_AllocDownBuffer_4: (+1)
   \   000000AC   0xF05F 0x30FF      MOVS     R0,#-1
   \   000000B0   0x4680             MOV      R8,R0
    980            }
    981            SEGGER_RTT_UNLOCK();
   \                     ??SEGGER_RTT_AllocDownBuffer_5: (+1)
   \   000000B2   0xF381 0x8811      MSR      BASEPRI,R1
    982            return BufferIndex;
   \   000000B6   0x4640             MOV      R0,R8
   \   000000B8   0xE8BD 0x81F0      POP      {R4-R8,PC}       ;; return
    983          }
    984          
    985          /*********************************************************************
    986          *
    987          *       SEGGER_RTT_AllocUpBuffer
    988          *
    989          *  Function description
    990          *    Run-time configuration of the next up-buffer (T->H).
    991          *    The next buffer, which is not used yet is configured.
    992          *    This includes: Buffer address, size, name, flags, ...
    993          *
    994          *  Parameters
    995          *    sName        Pointer to a constant name string.
    996          *    pBuffer      Pointer to a buffer to be used.
    997          *    BufferSize   Size of the buffer.
    998          *    Flags        Operating modes. Define behavior if buffer is full (not enough space for entire message).
    999          *
   1000          *  Return value
   1001          *    >= 0 - O.K. Buffer Index
   1002          *     < 0 - Error
   1003          */

   \                                 In section .text, align 2, keep-with-next
   1004          int SEGGER_RTT_AllocUpBuffer(const char* sName, void* pBuffer, unsigned BufferSize, unsigned Flags) {
   \                     SEGGER_RTT_AllocUpBuffer: (+1)
   \   00000000   0xE92D 0x41F0      PUSH     {R4-R8,LR}
   \   00000004   0x0004             MOVS     R4,R0
   \   00000006   0x000D             MOVS     R5,R1
   \   00000008   0x0016             MOVS     R6,R2
   \   0000000A   0x001F             MOVS     R7,R3
   1005            int BufferIndex;
   1006          
   1007            INIT();
   \   0000000C   0x.... 0x....      LDR.W    R0,??DataTable16
   \   00000010   0x7800             LDRB     R0,[R0, #+0]
   \   00000012   0x2800             CMP      R0,#+0
   \   00000014   0xD101             BNE.N    ??SEGGER_RTT_AllocUpBuffer_0
   \   00000016   0x.... 0x....      BL       _DoInit
   1008            SEGGER_RTT_LOCK();
   \                     ??SEGGER_RTT_AllocUpBuffer_0: (+1)
   \   0000001A   0xF3EF 0x8111      MRS      R1,BASEPRI
   \   0000001E   0x2020             MOVS     R0,#+32
   \   00000020   0xF380 0x8811      MSR      BASEPRI,R0
   1009            BufferIndex = 0;
   \   00000024   0x2000             MOVS     R0,#+0
   \   00000026   0x4680             MOV      R8,R0
   1010            do {
   1011              if (_SEGGER_RTT.aUp[BufferIndex].pBuffer == NULL) {
   \                     ??SEGGER_RTT_AllocUpBuffer_1: (+1)
   \   00000028   0x.... 0x....      LDR.W    R0,??DataTable16
   \   0000002C   0x2218             MOVS     R2,#+24
   \   0000002E   0xFB02 0xF208      MUL      R2,R2,R8
   \   00000032   0x4410             ADD      R0,R0,R2
   \   00000034   0x69C0             LDR      R0,[R0, #+28]
   \   00000036   0x2800             CMP      R0,#+0
   \   00000038   0xD006             BEQ.N    ??SEGGER_RTT_AllocUpBuffer_2
   1012                break;
   1013              }
   1014              BufferIndex++;
   \                     ??SEGGER_RTT_AllocUpBuffer_3: (+1)
   \   0000003A   0xF118 0x0801      ADDS     R8,R8,#+1
   1015            } while (BufferIndex < _SEGGER_RTT.MaxNumUpBuffers);
   \   0000003E   0x.... 0x....      LDR.W    R0,??DataTable16
   \   00000042   0x6900             LDR      R0,[R0, #+16]
   \   00000044   0x4580             CMP      R8,R0
   \   00000046   0xDBEF             BLT.N    ??SEGGER_RTT_AllocUpBuffer_1
   1016            if (BufferIndex < _SEGGER_RTT.MaxNumUpBuffers) {
   \                     ??SEGGER_RTT_AllocUpBuffer_2: (+1)
   \   00000048   0x.... 0x....      LDR.W    R0,??DataTable16
   \   0000004C   0x6900             LDR      R0,[R0, #+16]
   \   0000004E   0x4580             CMP      R8,R0
   \   00000050   0xDA2B             BGE.N    ??SEGGER_RTT_AllocUpBuffer_4
   1017              _SEGGER_RTT.aUp[BufferIndex].sName        = sName;
   \   00000052   0x.... 0x....      LDR.W    R0,??DataTable16
   \   00000056   0x2218             MOVS     R2,#+24
   \   00000058   0xFB02 0xF208      MUL      R2,R2,R8
   \   0000005C   0x4410             ADD      R0,R0,R2
   \   0000005E   0x6184             STR      R4,[R0, #+24]
   1018              _SEGGER_RTT.aUp[BufferIndex].pBuffer      = (char*)pBuffer;
   \   00000060   0x.... 0x....      LDR.W    R0,??DataTable16
   \   00000064   0x2218             MOVS     R2,#+24
   \   00000066   0xFB02 0xF208      MUL      R2,R2,R8
   \   0000006A   0x4410             ADD      R0,R0,R2
   \   0000006C   0x61C5             STR      R5,[R0, #+28]
   1019              _SEGGER_RTT.aUp[BufferIndex].SizeOfBuffer = BufferSize;
   \   0000006E   0x.... 0x....      LDR.W    R0,??DataTable16
   \   00000072   0x2218             MOVS     R2,#+24
   \   00000074   0xFB02 0xF208      MUL      R2,R2,R8
   \   00000078   0x4410             ADD      R0,R0,R2
   \   0000007A   0x6206             STR      R6,[R0, #+32]
   1020              _SEGGER_RTT.aUp[BufferIndex].RdOff        = 0u;
   \   0000007C   0x2000             MOVS     R0,#+0
   \   0000007E   0x.... 0x....      LDR.W    R2,??DataTable16
   \   00000082   0x2318             MOVS     R3,#+24
   \   00000084   0xFB03 0xF308      MUL      R3,R3,R8
   \   00000088   0x441A             ADD      R2,R2,R3
   \   0000008A   0x6290             STR      R0,[R2, #+40]
   1021              _SEGGER_RTT.aUp[BufferIndex].WrOff        = 0u;
   \   0000008C   0x2000             MOVS     R0,#+0
   \   0000008E   0x.... 0x....      LDR.W    R2,??DataTable16
   \   00000092   0x2318             MOVS     R3,#+24
   \   00000094   0xFB03 0xF308      MUL      R3,R3,R8
   \   00000098   0x441A             ADD      R2,R2,R3
   \   0000009A   0x6250             STR      R0,[R2, #+36]
   1022              _SEGGER_RTT.aUp[BufferIndex].Flags        = Flags;
   \   0000009C   0x....             LDR.N    R0,??DataTable16
   \   0000009E   0x2218             MOVS     R2,#+24
   \   000000A0   0xFB02 0xF208      MUL      R2,R2,R8
   \   000000A4   0x4410             ADD      R0,R0,R2
   \   000000A6   0x62C7             STR      R7,[R0, #+44]
   \   000000A8   0xE002             B.N      ??SEGGER_RTT_AllocUpBuffer_5
   1023            } else {
   1024              BufferIndex = -1;
   \                     ??SEGGER_RTT_AllocUpBuffer_4: (+1)
   \   000000AA   0xF05F 0x30FF      MOVS     R0,#-1
   \   000000AE   0x4680             MOV      R8,R0
   1025            }
   1026            SEGGER_RTT_UNLOCK();
   \                     ??SEGGER_RTT_AllocUpBuffer_5: (+1)
   \   000000B0   0xF381 0x8811      MSR      BASEPRI,R1
   1027            return BufferIndex;
   \   000000B4   0x4640             MOV      R0,R8
   \   000000B6   0xE8BD 0x81F0      POP      {R4-R8,PC}       ;; return
   1028          }
   1029          
   1030          /*********************************************************************
   1031          *
   1032          *       SEGGER_RTT_ConfigUpBuffer
   1033          *
   1034          *  Function description
   1035          *    Run-time configuration of a specific up-buffer (T->H).
   1036          *    Buffer to be configured is specified by index.
   1037          *    This includes: Buffer address, size, name, flags, ...
   1038          *
   1039          *  Parameters
   1040          *    BufferIndex  Index of the buffer to configure.
   1041          *    sName        Pointer to a constant name string.
   1042          *    pBuffer      Pointer to a buffer to be used.
   1043          *    BufferSize   Size of the buffer.
   1044          *    Flags        Operating modes. Define behavior if buffer is full (not enough space for entire message).
   1045          *
   1046          *  Return value
   1047          *    >= 0 - O.K.
   1048          *     < 0 - Error
   1049          */

   \                                 In section .text, align 2, keep-with-next
   1050          int SEGGER_RTT_ConfigUpBuffer(unsigned BufferIndex, const char* sName, void* pBuffer, unsigned BufferSize, unsigned Flags) {
   \                     SEGGER_RTT_ConfigUpBuffer: (+1)
   \   00000000   0xE92D 0x43F8      PUSH     {R3-R9,LR}
   \   00000004   0x0004             MOVS     R4,R0
   \   00000006   0x000D             MOVS     R5,R1
   \   00000008   0x0016             MOVS     R6,R2
   \   0000000A   0x001F             MOVS     R7,R3
   \   0000000C   0xF8DD 0x8020      LDR      R8,[SP, #+32]
   1051            int r;
   1052          
   1053            INIT();
   \   00000010   0x....             LDR.N    R0,??DataTable16
   \   00000012   0x7800             LDRB     R0,[R0, #+0]
   \   00000014   0x2800             CMP      R0,#+0
   \   00000016   0xD101             BNE.N    ??SEGGER_RTT_ConfigUpBuffer_0
   \   00000018   0x.... 0x....      BL       _DoInit
   1054            if (BufferIndex < (unsigned)_SEGGER_RTT.MaxNumUpBuffers) {
   \                     ??SEGGER_RTT_ConfigUpBuffer_0: (+1)
   \   0000001C   0x....             LDR.N    R0,??DataTable16
   \   0000001E   0x6900             LDR      R0,[R0, #+16]
   \   00000020   0x4284             CMP      R4,R0
   \   00000022   0xD232             BCS.N    ??SEGGER_RTT_ConfigUpBuffer_1
   1055              SEGGER_RTT_LOCK();
   \   00000024   0xF3EF 0x8011      MRS      R0,BASEPRI
   \   00000028   0x2120             MOVS     R1,#+32
   \   0000002A   0xF381 0x8811      MSR      BASEPRI,R1
   1056              if (BufferIndex > 0u) {
   \   0000002E   0x2C00             CMP      R4,#+0
   \   00000030   0xD01F             BEQ.N    ??SEGGER_RTT_ConfigUpBuffer_2
   1057                _SEGGER_RTT.aUp[BufferIndex].sName        = sName;
   \   00000032   0x....             LDR.N    R1,??DataTable16
   \   00000034   0x2218             MOVS     R2,#+24
   \   00000036   0xFB02 0xF204      MUL      R2,R2,R4
   \   0000003A   0x4411             ADD      R1,R1,R2
   \   0000003C   0x618D             STR      R5,[R1, #+24]
   1058                _SEGGER_RTT.aUp[BufferIndex].pBuffer      = (char*)pBuffer;
   \   0000003E   0x....             LDR.N    R1,??DataTable16
   \   00000040   0x2218             MOVS     R2,#+24
   \   00000042   0xFB02 0xF204      MUL      R2,R2,R4
   \   00000046   0x4411             ADD      R1,R1,R2
   \   00000048   0x61CE             STR      R6,[R1, #+28]
   1059                _SEGGER_RTT.aUp[BufferIndex].SizeOfBuffer = BufferSize;
   \   0000004A   0x....             LDR.N    R1,??DataTable16
   \   0000004C   0x2218             MOVS     R2,#+24
   \   0000004E   0xFB02 0xF204      MUL      R2,R2,R4
   \   00000052   0x4411             ADD      R1,R1,R2
   \   00000054   0x620F             STR      R7,[R1, #+32]
   1060                _SEGGER_RTT.aUp[BufferIndex].RdOff        = 0u;
   \   00000056   0x2100             MOVS     R1,#+0
   \   00000058   0x....             LDR.N    R2,??DataTable16
   \   0000005A   0x2318             MOVS     R3,#+24
   \   0000005C   0xFB03 0xF304      MUL      R3,R3,R4
   \   00000060   0x441A             ADD      R2,R2,R3
   \   00000062   0x6291             STR      R1,[R2, #+40]
   1061                _SEGGER_RTT.aUp[BufferIndex].WrOff        = 0u;
   \   00000064   0x2100             MOVS     R1,#+0
   \   00000066   0x....             LDR.N    R2,??DataTable16
   \   00000068   0x2318             MOVS     R3,#+24
   \   0000006A   0xFB03 0xF304      MUL      R3,R3,R4
   \   0000006E   0x441A             ADD      R2,R2,R3
   \   00000070   0x6251             STR      R1,[R2, #+36]
   1062              }
   1063              _SEGGER_RTT.aUp[BufferIndex].Flags          = Flags;
   \                     ??SEGGER_RTT_ConfigUpBuffer_2: (+1)
   \   00000072   0x....             LDR.N    R1,??DataTable16
   \   00000074   0x2218             MOVS     R2,#+24
   \   00000076   0xFB02 0xF204      MUL      R2,R2,R4
   \   0000007A   0x4411             ADD      R1,R1,R2
   \   0000007C   0xF8C1 0x802C      STR      R8,[R1, #+44]
   1064              SEGGER_RTT_UNLOCK();
   \   00000080   0xF380 0x8811      MSR      BASEPRI,R0
   1065              r =  0;
   \   00000084   0x2100             MOVS     R1,#+0
   \   00000086   0x4689             MOV      R9,R1
   \   00000088   0xE002             B.N      ??SEGGER_RTT_ConfigUpBuffer_3
   1066            } else {
   1067              r = -1;
   \                     ??SEGGER_RTT_ConfigUpBuffer_1: (+1)
   \   0000008A   0xF05F 0x30FF      MOVS     R0,#-1
   \   0000008E   0x4681             MOV      R9,R0
   1068            }
   1069            return r;
   \                     ??SEGGER_RTT_ConfigUpBuffer_3: (+1)
   \   00000090   0x4648             MOV      R0,R9
   \   00000092   0xE8BD 0x83F2      POP      {R1,R4-R9,PC}    ;; return
   1070          }
   1071          
   1072          /*********************************************************************
   1073          *
   1074          *       SEGGER_RTT_ConfigDownBuffer
   1075          *
   1076          *  Function description
   1077          *    Run-time configuration of a specific down-buffer (H->T).
   1078          *    Buffer to be configured is specified by index.
   1079          *    This includes: Buffer address, size, name, flags, ...
   1080          *
   1081          *  Parameters
   1082          *    BufferIndex  Index of the buffer to configure.
   1083          *    sName        Pointer to a constant name string.
   1084          *    pBuffer      Pointer to a buffer to be used.
   1085          *    BufferSize   Size of the buffer.
   1086          *    Flags        Operating modes. Define behavior if buffer is full (not enough space for entire message).
   1087          *
   1088          *  Return value
   1089          *    >= 0  O.K.
   1090          *     < 0  Error
   1091          */

   \                                 In section .text, align 2, keep-with-next
   1092          int SEGGER_RTT_ConfigDownBuffer(unsigned BufferIndex, const char* sName, void* pBuffer, unsigned BufferSize, unsigned Flags) {
   \                     SEGGER_RTT_ConfigDownBuffer: (+1)
   \   00000000   0xE92D 0x43F8      PUSH     {R3-R9,LR}
   \   00000004   0x0004             MOVS     R4,R0
   \   00000006   0x000D             MOVS     R5,R1
   \   00000008   0x0016             MOVS     R6,R2
   \   0000000A   0x001F             MOVS     R7,R3
   \   0000000C   0xF8DD 0x8020      LDR      R8,[SP, #+32]
   1093            int r;
   1094          
   1095            INIT();
   \   00000010   0x....             LDR.N    R0,??DataTable16
   \   00000012   0x7800             LDRB     R0,[R0, #+0]
   \   00000014   0x2800             CMP      R0,#+0
   \   00000016   0xD101             BNE.N    ??SEGGER_RTT_ConfigDownBuffer_0
   \   00000018   0x.... 0x....      BL       _DoInit
   1096            if (BufferIndex < (unsigned)_SEGGER_RTT.MaxNumDownBuffers) {
   \                     ??SEGGER_RTT_ConfigDownBuffer_0: (+1)
   \   0000001C   0x....             LDR.N    R0,??DataTable16
   \   0000001E   0x6940             LDR      R0,[R0, #+20]
   \   00000020   0x4284             CMP      R4,R0
   \   00000022   0xD232             BCS.N    ??SEGGER_RTT_ConfigDownBuffer_1
   1097              SEGGER_RTT_LOCK();
   \   00000024   0xF3EF 0x8011      MRS      R0,BASEPRI
   \   00000028   0x2120             MOVS     R1,#+32
   \   0000002A   0xF381 0x8811      MSR      BASEPRI,R1
   1098              if (BufferIndex > 0u) {
   \   0000002E   0x2C00             CMP      R4,#+0
   \   00000030   0xD01F             BEQ.N    ??SEGGER_RTT_ConfigDownBuffer_2
   1099                _SEGGER_RTT.aDown[BufferIndex].sName        = sName;
   \   00000032   0x....             LDR.N    R1,??DataTable16
   \   00000034   0x2218             MOVS     R2,#+24
   \   00000036   0xFB02 0xF204      MUL      R2,R2,R4
   \   0000003A   0x4411             ADD      R1,R1,R2
   \   0000003C   0x648D             STR      R5,[R1, #+72]
   1100                _SEGGER_RTT.aDown[BufferIndex].pBuffer      = (char*)pBuffer;
   \   0000003E   0x....             LDR.N    R1,??DataTable16
   \   00000040   0x2218             MOVS     R2,#+24
   \   00000042   0xFB02 0xF204      MUL      R2,R2,R4
   \   00000046   0x4411             ADD      R1,R1,R2
   \   00000048   0x64CE             STR      R6,[R1, #+76]
   1101                _SEGGER_RTT.aDown[BufferIndex].SizeOfBuffer = BufferSize;
   \   0000004A   0x....             LDR.N    R1,??DataTable16
   \   0000004C   0x2218             MOVS     R2,#+24
   \   0000004E   0xFB02 0xF204      MUL      R2,R2,R4
   \   00000052   0x4411             ADD      R1,R1,R2
   \   00000054   0x650F             STR      R7,[R1, #+80]
   1102                _SEGGER_RTT.aDown[BufferIndex].RdOff        = 0u;
   \   00000056   0x2100             MOVS     R1,#+0
   \   00000058   0x....             LDR.N    R2,??DataTable16
   \   0000005A   0x2318             MOVS     R3,#+24
   \   0000005C   0xFB03 0xF304      MUL      R3,R3,R4
   \   00000060   0x441A             ADD      R2,R2,R3
   \   00000062   0x6591             STR      R1,[R2, #+88]
   1103                _SEGGER_RTT.aDown[BufferIndex].WrOff        = 0u;
   \   00000064   0x2100             MOVS     R1,#+0
   \   00000066   0x....             LDR.N    R2,??DataTable16
   \   00000068   0x2318             MOVS     R3,#+24
   \   0000006A   0xFB03 0xF304      MUL      R3,R3,R4
   \   0000006E   0x441A             ADD      R2,R2,R3
   \   00000070   0x6551             STR      R1,[R2, #+84]
   1104              }
   1105              _SEGGER_RTT.aDown[BufferIndex].Flags          = Flags;
   \                     ??SEGGER_RTT_ConfigDownBuffer_2: (+1)
   \   00000072   0x....             LDR.N    R1,??DataTable16
   \   00000074   0x2218             MOVS     R2,#+24
   \   00000076   0xFB02 0xF204      MUL      R2,R2,R4
   \   0000007A   0x4411             ADD      R1,R1,R2
   \   0000007C   0xF8C1 0x805C      STR      R8,[R1, #+92]
   1106              SEGGER_RTT_UNLOCK();
   \   00000080   0xF380 0x8811      MSR      BASEPRI,R0
   1107              r =  0;
   \   00000084   0x2100             MOVS     R1,#+0
   \   00000086   0x4689             MOV      R9,R1
   \   00000088   0xE002             B.N      ??SEGGER_RTT_ConfigDownBuffer_3
   1108            } else {
   1109              r = -1;
   \                     ??SEGGER_RTT_ConfigDownBuffer_1: (+1)
   \   0000008A   0xF05F 0x30FF      MOVS     R0,#-1
   \   0000008E   0x4681             MOV      R9,R0
   1110            }
   1111            return r;
   \                     ??SEGGER_RTT_ConfigDownBuffer_3: (+1)
   \   00000090   0x4648             MOV      R0,R9
   \   00000092   0xE8BD 0x83F2      POP      {R1,R4-R9,PC}    ;; return
   1112          }
   1113          
   1114          /*********************************************************************
   1115          *
   1116          *       SEGGER_RTT_SetNameUpBuffer
   1117          *
   1118          *  Function description
   1119          *    Run-time configuration of a specific up-buffer name (T->H).
   1120          *    Buffer to be configured is specified by index.
   1121          *
   1122          *  Parameters
   1123          *    BufferIndex  Index of the buffer to renamed.
   1124          *    sName        Pointer to a constant name string.
   1125          *
   1126          *  Return value
   1127          *    >= 0  O.K.
   1128          *     < 0  Error
   1129          */

   \                                 In section .text, align 2, keep-with-next
   1130          int SEGGER_RTT_SetNameUpBuffer(unsigned BufferIndex, const char* sName) {
   \                     SEGGER_RTT_SetNameUpBuffer: (+1)
   \   00000000   0xB570             PUSH     {R4-R6,LR}
   \   00000002   0x0004             MOVS     R4,R0
   \   00000004   0x000D             MOVS     R5,R1
   1131            int r;
   1132          
   1133            INIT();
   \   00000006   0x....             LDR.N    R0,??DataTable16
   \   00000008   0x7800             LDRB     R0,[R0, #+0]
   \   0000000A   0x2800             CMP      R0,#+0
   \   0000000C   0xD101             BNE.N    ??SEGGER_RTT_SetNameUpBuffer_0
   \   0000000E   0x.... 0x....      BL       _DoInit
   1134            if (BufferIndex < (unsigned)_SEGGER_RTT.MaxNumUpBuffers) {
   \                     ??SEGGER_RTT_SetNameUpBuffer_0: (+1)
   \   00000012   0x....             LDR.N    R0,??DataTable16
   \   00000014   0x6900             LDR      R0,[R0, #+16]
   \   00000016   0x4284             CMP      R4,R0
   \   00000018   0xD20F             BCS.N    ??SEGGER_RTT_SetNameUpBuffer_1
   1135              SEGGER_RTT_LOCK();
   \   0000001A   0xF3EF 0x8011      MRS      R0,BASEPRI
   \   0000001E   0x2120             MOVS     R1,#+32
   \   00000020   0xF381 0x8811      MSR      BASEPRI,R1
   1136              _SEGGER_RTT.aUp[BufferIndex].sName = sName;
   \   00000024   0x....             LDR.N    R1,??DataTable16
   \   00000026   0x2218             MOVS     R2,#+24
   \   00000028   0xFB02 0xF204      MUL      R2,R2,R4
   \   0000002C   0x4411             ADD      R1,R1,R2
   \   0000002E   0x618D             STR      R5,[R1, #+24]
   1137              SEGGER_RTT_UNLOCK();
   \   00000030   0xF380 0x8811      MSR      BASEPRI,R0
   1138              r =  0;
   \   00000034   0x2100             MOVS     R1,#+0
   \   00000036   0x000E             MOVS     R6,R1
   \   00000038   0xE002             B.N      ??SEGGER_RTT_SetNameUpBuffer_2
   1139            } else {
   1140              r = -1;
   \                     ??SEGGER_RTT_SetNameUpBuffer_1: (+1)
   \   0000003A   0xF05F 0x30FF      MOVS     R0,#-1
   \   0000003E   0x0006             MOVS     R6,R0
   1141            }
   1142            return r;
   \                     ??SEGGER_RTT_SetNameUpBuffer_2: (+1)
   \   00000040   0x0030             MOVS     R0,R6
   \   00000042   0xBD70             POP      {R4-R6,PC}       ;; return
   1143          }
   1144          
   1145          /*********************************************************************
   1146          *
   1147          *       SEGGER_RTT_SetNameDownBuffer
   1148          *
   1149          *  Function description
   1150          *    Run-time configuration of a specific Down-buffer name (T->H).
   1151          *    Buffer to be configured is specified by index.
   1152          *
   1153          *  Parameters
   1154          *    BufferIndex  Index of the buffer to renamed.
   1155          *    sName        Pointer to a constant name string.
   1156          *
   1157          *  Return value
   1158          *    >= 0  O.K.
   1159          *     < 0  Error
   1160          */

   \                                 In section .text, align 2, keep-with-next
   1161          int SEGGER_RTT_SetNameDownBuffer(unsigned BufferIndex, const char* sName) {
   \                     SEGGER_RTT_SetNameDownBuffer: (+1)
   \   00000000   0xB570             PUSH     {R4-R6,LR}
   \   00000002   0x0004             MOVS     R4,R0
   \   00000004   0x000D             MOVS     R5,R1
   1162            int r;
   1163          
   1164            INIT();
   \   00000006   0x....             LDR.N    R0,??DataTable16
   \   00000008   0x7800             LDRB     R0,[R0, #+0]
   \   0000000A   0x2800             CMP      R0,#+0
   \   0000000C   0xD101             BNE.N    ??SEGGER_RTT_SetNameDownBuffer_0
   \   0000000E   0x.... 0x....      BL       _DoInit
   1165            if (BufferIndex < (unsigned)_SEGGER_RTT.MaxNumDownBuffers) {
   \                     ??SEGGER_RTT_SetNameDownBuffer_0: (+1)
   \   00000012   0x....             LDR.N    R0,??DataTable16
   \   00000014   0x6940             LDR      R0,[R0, #+20]
   \   00000016   0x4284             CMP      R4,R0
   \   00000018   0xD20F             BCS.N    ??SEGGER_RTT_SetNameDownBuffer_1
   1166              SEGGER_RTT_LOCK();
   \   0000001A   0xF3EF 0x8011      MRS      R0,BASEPRI
   \   0000001E   0x2120             MOVS     R1,#+32
   \   00000020   0xF381 0x8811      MSR      BASEPRI,R1
   1167              _SEGGER_RTT.aDown[BufferIndex].sName = sName;
   \   00000024   0x....             LDR.N    R1,??DataTable16
   \   00000026   0x2218             MOVS     R2,#+24
   \   00000028   0xFB02 0xF204      MUL      R2,R2,R4
   \   0000002C   0x4411             ADD      R1,R1,R2
   \   0000002E   0x648D             STR      R5,[R1, #+72]
   1168              SEGGER_RTT_UNLOCK();
   \   00000030   0xF380 0x8811      MSR      BASEPRI,R0
   1169              r =  0;
   \   00000034   0x2100             MOVS     R1,#+0
   \   00000036   0x000E             MOVS     R6,R1
   \   00000038   0xE002             B.N      ??SEGGER_RTT_SetNameDownBuffer_2
   1170            } else {
   1171              r = -1;
   \                     ??SEGGER_RTT_SetNameDownBuffer_1: (+1)
   \   0000003A   0xF05F 0x30FF      MOVS     R0,#-1
   \   0000003E   0x0006             MOVS     R6,R0
   1172            }
   1173            return r;
   \                     ??SEGGER_RTT_SetNameDownBuffer_2: (+1)
   \   00000040   0x0030             MOVS     R0,R6
   \   00000042   0xBD70             POP      {R4-R6,PC}       ;; return
   1174          }
   1175          
   1176          /*********************************************************************
   1177          *
   1178          *       SEGGER_RTT_Init
   1179          *
   1180          *  Function description
   1181          *    Initializes the RTT Control Block.
   1182          *    Should be used in RAM targets, at start of the application.
   1183          *
   1184          */

   \                                 In section .text, align 2, keep-with-next
   1185          void SEGGER_RTT_Init (void) {
   \                     SEGGER_RTT_Init: (+1)
   \   00000000   0xB580             PUSH     {R7,LR}
   1186            _DoInit();
   \   00000002   0x.... 0x....      BL       _DoInit
   1187          }
   \   00000006   0xBD01             POP      {R0,PC}          ;; return
   1188          
   1189          /*********************************************************************
   1190          *
   1191          *       SEGGER_RTT_SetTerminal
   1192          *
   1193          *  Function description
   1194          *    Sets the terminal to be used for output on channel 0.
   1195          *
   1196          *  Parameters
   1197          *    TerminalId  Index of the terminal.
   1198          *
   1199          *  Return value
   1200          *    >= 0  O.K.
   1201          *     < 0  Error (e.g. if RTT is configured for non-blocking mode and there was no space in the buffer to set the new terminal Id)
   1202          */

   \                                 In section .text, align 2, keep-with-next
   1203          int SEGGER_RTT_SetTerminal (char TerminalId) {
   \                     SEGGER_RTT_SetTerminal: (+1)
   \   00000000   0xE92D 0x41F0      PUSH     {R4-R8,LR}
   \   00000004   0xB082             SUB      SP,SP,#+8
   \   00000006   0x0004             MOVS     R4,R0
   1204            char                  ac[2];
   1205            SEGGER_RTT_BUFFER_UP* pRing;
   1206            unsigned Avail;
   1207            int r;
   1208            //
   1209            INIT();
   \   00000008   0x....             LDR.N    R0,??DataTable16
   \   0000000A   0x7800             LDRB     R0,[R0, #+0]
   \   0000000C   0x2800             CMP      R0,#+0
   \   0000000E   0xD101             BNE.N    ??SEGGER_RTT_SetTerminal_0
   \   00000010   0x.... 0x....      BL       _DoInit
   1210            //
   1211            r = 0;
   \                     ??SEGGER_RTT_SetTerminal_0: (+1)
   \   00000014   0x2000             MOVS     R0,#+0
   \   00000016   0x0007             MOVS     R7,R0
   1212            ac[0] = 0xFFU;
   \   00000018   0x20FF             MOVS     R0,#+255
   \   0000001A   0xF88D 0x0000      STRB     R0,[SP, #+0]
   1213            if ((unsigned char)TerminalId < (unsigned char)sizeof(_aTerminalId)) { // We only support a certain number of channels
   \   0000001E   0xB2E4             UXTB     R4,R4            ;; ZeroExt  R4,R4,#+24,#+24
   \   00000020   0x2C10             CMP      R4,#+16
   \   00000022   0xDA2C             BGE.N    ??SEGGER_RTT_SetTerminal_1
   1214              ac[1] = _aTerminalId[(unsigned char)TerminalId];
   \   00000024   0x....             LDR.N    R0,??DataTable16_5
   \   00000026   0xB2E4             UXTB     R4,R4            ;; ZeroExt  R4,R4,#+24,#+24
   \   00000028   0x5D00             LDRB     R0,[R0, R4]
   \   0000002A   0xF88D 0x0001      STRB     R0,[SP, #+1]
   1215              pRing = &_SEGGER_RTT.aUp[0];    // Buffer 0 is always reserved for terminal I/O, so we can use index 0 here, fixed
   \   0000002E   0x....             LDR.N    R0,??DataTable16_6
   \   00000030   0x0005             MOVS     R5,R0
   1216              SEGGER_RTT_LOCK();    // Lock to make sure that no other task is writing into buffer, while we are and number of free bytes in buffer does not change downwards after checking and before writing
   \   00000032   0xF3EF 0x8811      MRS      R8,BASEPRI
   \   00000036   0x2020             MOVS     R0,#+32
   \   00000038   0xF380 0x8811      MSR      BASEPRI,R0
   1217              if ((pRing->Flags & SEGGER_RTT_MODE_MASK) == SEGGER_RTT_MODE_BLOCK_IF_FIFO_FULL) {
   \   0000003C   0x7D28             LDRB     R0,[R5, #+20]
   \   0000003E   0xF010 0x0003      ANDS     R0,R0,#0x3
   \   00000042   0x2802             CMP      R0,#+2
   \   00000044   0xD107             BNE.N    ??SEGGER_RTT_SetTerminal_2
   1218                _ActiveTerminal = TerminalId;
   \   00000046   0x....             LDR.N    R0,??DataTable16_7
   \   00000048   0x7004             STRB     R4,[R0, #+0]
   1219                _WriteBlocking(pRing, ac, 2u);
   \   0000004A   0x2202             MOVS     R2,#+2
   \   0000004C   0x4669             MOV      R1,SP
   \   0000004E   0x0028             MOVS     R0,R5
   \   00000050   0x.... 0x....      BL       _WriteBlocking
   \   00000054   0xE010             B.N      ??SEGGER_RTT_SetTerminal_3
   1220              } else {                                                                            // Skipping mode or trim mode? => We cannot trim this command so handling is the same for both modes
   1221                Avail = _GetAvailWriteSpace(pRing);
   \                     ??SEGGER_RTT_SetTerminal_2: (+1)
   \   00000056   0x0028             MOVS     R0,R5
   \   00000058   0x.... 0x....      BL       _GetAvailWriteSpace
   \   0000005C   0x0006             MOVS     R6,R0
   1222                if (Avail >= 2) {
   \   0000005E   0x2E02             CMP      R6,#+2
   \   00000060   0xD307             BCC.N    ??SEGGER_RTT_SetTerminal_4
   1223                  _ActiveTerminal = TerminalId;    // Only change active terminal in case of success
   \   00000062   0x....             LDR.N    R0,??DataTable16_7
   \   00000064   0x7004             STRB     R4,[R0, #+0]
   1224                  _WriteNoCheck(pRing, ac, 2u);
   \   00000066   0x2202             MOVS     R2,#+2
   \   00000068   0x4669             MOV      R1,SP
   \   0000006A   0x0028             MOVS     R0,R5
   \   0000006C   0x.... 0x....      BL       _WriteNoCheck
   \   00000070   0xE002             B.N      ??SEGGER_RTT_SetTerminal_3
   1225                } else {
   1226                  r = -1;
   \                     ??SEGGER_RTT_SetTerminal_4: (+1)
   \   00000072   0xF05F 0x30FF      MOVS     R0,#-1
   \   00000076   0x0007             MOVS     R7,R0
   1227                }
   1228              }
   1229              SEGGER_RTT_UNLOCK();
   \                     ??SEGGER_RTT_SetTerminal_3: (+1)
   \   00000078   0xF388 0x8811      MSR      BASEPRI,R8
   \   0000007C   0xE002             B.N      ??SEGGER_RTT_SetTerminal_5
   1230            } else {
   1231              r = -1;
   \                     ??SEGGER_RTT_SetTerminal_1: (+1)
   \   0000007E   0xF05F 0x30FF      MOVS     R0,#-1
   \   00000082   0x0007             MOVS     R7,R0
   1232            }
   1233            return r;
   \                     ??SEGGER_RTT_SetTerminal_5: (+1)
   \   00000084   0x0038             MOVS     R0,R7
   \   00000086   0xE8BD 0x81F6      POP      {R1,R2,R4-R8,PC}  ;; return
   1234          }
   1235          
   1236          /*********************************************************************
   1237          *
   1238          *       SEGGER_RTT_TerminalOut
   1239          *
   1240          *  Function description
   1241          *    Writes a string to the given terminal
   1242          *     without changing the terminal for channel 0.
   1243          *
   1244          *  Parameters
   1245          *    TerminalId   Index of the terminal.
   1246          *    s            String to be printed on the terminal.
   1247          *
   1248          *  Return value
   1249          *    >= 0 - Number of bytes written.
   1250          *     < 0 - Error.
   1251          *
   1252          */

   \                                 In section .text, align 2, keep-with-next
   1253          int SEGGER_RTT_TerminalOut (char TerminalId, const char* s) {
   \                     SEGGER_RTT_TerminalOut: (+1)
   \   00000000   0xE92D 0x47F0      PUSH     {R4-R10,LR}
   \   00000004   0x0004             MOVS     R4,R0
   \   00000006   0x000D             MOVS     R5,R1
   1254            int                   Status;
   1255            unsigned              FragLen;
   1256            unsigned              Avail;
   1257            SEGGER_RTT_BUFFER_UP* pRing;
   1258            //
   1259            INIT();
   \   00000008   0x....             LDR.N    R0,??DataTable16
   \   0000000A   0x7800             LDRB     R0,[R0, #+0]
   \   0000000C   0x2800             CMP      R0,#+0
   \   0000000E   0xD101             BNE.N    ??SEGGER_RTT_TerminalOut_0
   \   00000010   0x.... 0x....      BL       _DoInit
   1260            //
   1261            // Validate terminal ID.
   1262            //
   1263            if (TerminalId < (char)sizeof(_aTerminalId)) { // We only support a certain number of channels
   \                     ??SEGGER_RTT_TerminalOut_0: (+1)
   \   00000014   0xB2E4             UXTB     R4,R4            ;; ZeroExt  R4,R4,#+24,#+24
   \   00000016   0x2C10             CMP      R4,#+16
   \   00000018   0xDA65             BGE.N    ??SEGGER_RTT_TerminalOut_1
   1264              //
   1265              // Get "to-host" ring buffer.
   1266              //
   1267              pRing = &_SEGGER_RTT.aUp[0];
   \   0000001A   0x....             LDR.N    R0,??DataTable16_6
   \   0000001C   0x4681             MOV      R9,R0
   1268              //
   1269              // Need to be able to change terminal, write data, change back.
   1270              // Compute the fixed and variable sizes.
   1271              //
   1272              FragLen = strlen(s);
   \   0000001E   0x0028             MOVS     R0,R5
   \   00000020   0x.... 0x....      BL       strlen
   \   00000024   0x0007             MOVS     R7,R0
   1273              //
   1274              // How we output depends upon the mode...
   1275              //
   1276              SEGGER_RTT_LOCK();
   \   00000026   0xF3EF 0x8A11      MRS      R10,BASEPRI
   \   0000002A   0x2020             MOVS     R0,#+32
   \   0000002C   0xF380 0x8811      MSR      BASEPRI,R0
   1277              Avail = _GetAvailWriteSpace(pRing);
   \   00000030   0x4648             MOV      R0,R9
   \   00000032   0x.... 0x....      BL       _GetAvailWriteSpace
   \   00000036   0x4680             MOV      R8,R0
   1278              switch (pRing->Flags & SEGGER_RTT_MODE_MASK) {
   \   00000038   0xF899 0x0014      LDRB     R0,[R9, #+20]
   \   0000003C   0xF010 0x0003      ANDS     R0,R0,#0x3
   \   00000040   0x2800             CMP      R0,#+0
   \   00000042   0xD003             BEQ.N    ??SEGGER_RTT_TerminalOut_2
   \   00000044   0x2802             CMP      R0,#+2
   \   00000046   0xD037             BEQ.N    ??SEGGER_RTT_TerminalOut_3
   \   00000048   0xD317             BCC.N    ??SEGGER_RTT_TerminalOut_4
   \   0000004A   0xE046             B.N      ??SEGGER_RTT_TerminalOut_5
   1279              case SEGGER_RTT_MODE_NO_BLOCK_SKIP:
   1280                //
   1281                // If we are in skip mode and there is no space for the whole
   1282                // of this output, don't bother switching terminals at all.
   1283                //
   1284                if (Avail < (FragLen + 4u)) {
   \                     ??SEGGER_RTT_TerminalOut_2: (+1)
   \   0000004C   0x1D38             ADDS     R0,R7,#+4
   \   0000004E   0x4580             CMP      R8,R0
   \   00000050   0xD202             BCS.N    ??SEGGER_RTT_TerminalOut_6
   1285                  Status = 0;
   \   00000052   0x2000             MOVS     R0,#+0
   \   00000054   0x0006             MOVS     R6,R0
   \   00000056   0xE00F             B.N      ??SEGGER_RTT_TerminalOut_7
   1286                } else {
   1287                  _PostTerminalSwitch(pRing, TerminalId);
   \                     ??SEGGER_RTT_TerminalOut_6: (+1)
   \   00000058   0x0021             MOVS     R1,R4
   \   0000005A   0xB2C9             UXTB     R1,R1            ;; ZeroExt  R1,R1,#+24,#+24
   \   0000005C   0x4648             MOV      R0,R9
   \   0000005E   0x.... 0x....      BL       _PostTerminalSwitch
   1288                  Status = (int)_WriteBlocking(pRing, s, FragLen);
   \   00000062   0x003A             MOVS     R2,R7
   \   00000064   0x0029             MOVS     R1,R5
   \   00000066   0x4648             MOV      R0,R9
   \   00000068   0x.... 0x....      BL       _WriteBlocking
   \   0000006C   0x0006             MOVS     R6,R0
   1289                  _PostTerminalSwitch(pRing, _ActiveTerminal);
   \   0000006E   0x....             LDR.N    R0,??DataTable16_7
   \   00000070   0x7801             LDRB     R1,[R0, #+0]
   \   00000072   0x4648             MOV      R0,R9
   \   00000074   0x.... 0x....      BL       _PostTerminalSwitch
   1290                }
   1291                break;
   \                     ??SEGGER_RTT_TerminalOut_7: (+1)
   \   00000078   0xE032             B.N      ??SEGGER_RTT_TerminalOut_8
   1292              case SEGGER_RTT_MODE_NO_BLOCK_TRIM:
   1293                //
   1294                // If we are in trim mode and there is not enough space for everything,
   1295                // trim the output but always include the terminal switch.  If no room
   1296                // for terminal switch, skip that totally.
   1297                //
   1298                if (Avail < 4u) {
   \                     ??SEGGER_RTT_TerminalOut_4: (+1)
   \   0000007A   0xF1B8 0x0F04      CMP      R8,#+4
   \   0000007E   0xD203             BCS.N    ??SEGGER_RTT_TerminalOut_9
   1299                  Status = -1;
   \   00000080   0xF05F 0x30FF      MOVS     R0,#-1
   \   00000084   0x0006             MOVS     R6,R0
   \   00000086   0xE016             B.N      ??SEGGER_RTT_TerminalOut_10
   1300                } else {
   1301                  _PostTerminalSwitch(pRing, TerminalId);
   \                     ??SEGGER_RTT_TerminalOut_9: (+1)
   \   00000088   0x0021             MOVS     R1,R4
   \   0000008A   0xB2C9             UXTB     R1,R1            ;; ZeroExt  R1,R1,#+24,#+24
   \   0000008C   0x4648             MOV      R0,R9
   \   0000008E   0x.... 0x....      BL       _PostTerminalSwitch
   1302                  Status = (int)_WriteBlocking(pRing, s, (FragLen < (Avail - 4u)) ? FragLen : (Avail - 4u));
   \   00000092   0xF1B8 0x0004      SUBS     R0,R8,#+4
   \   00000096   0x4287             CMP      R7,R0
   \   00000098   0xD201             BCS.N    ??SEGGER_RTT_TerminalOut_11
   \   0000009A   0x003A             MOVS     R2,R7
   \   0000009C   0xE001             B.N      ??SEGGER_RTT_TerminalOut_12
   \                     ??SEGGER_RTT_TerminalOut_11: (+1)
   \   0000009E   0xF1B8 0x0204      SUBS     R2,R8,#+4
   \                     ??SEGGER_RTT_TerminalOut_12: (+1)
   \   000000A2   0x0029             MOVS     R1,R5
   \   000000A4   0x4648             MOV      R0,R9
   \   000000A6   0x.... 0x....      BL       _WriteBlocking
   \   000000AA   0x0006             MOVS     R6,R0
   1303                  _PostTerminalSwitch(pRing, _ActiveTerminal);
   \   000000AC   0x....             LDR.N    R0,??DataTable16_7
   \   000000AE   0x7801             LDRB     R1,[R0, #+0]
   \   000000B0   0x4648             MOV      R0,R9
   \   000000B2   0x.... 0x....      BL       _PostTerminalSwitch
   1304                }
   1305                break;
   \                     ??SEGGER_RTT_TerminalOut_10: (+1)
   \   000000B6   0xE013             B.N      ??SEGGER_RTT_TerminalOut_8
   1306              case SEGGER_RTT_MODE_BLOCK_IF_FIFO_FULL:
   1307                //
   1308                // If we are in blocking mode, output everything.
   1309                //
   1310                _PostTerminalSwitch(pRing, TerminalId);
   \                     ??SEGGER_RTT_TerminalOut_3: (+1)
   \   000000B8   0x0021             MOVS     R1,R4
   \   000000BA   0xB2C9             UXTB     R1,R1            ;; ZeroExt  R1,R1,#+24,#+24
   \   000000BC   0x4648             MOV      R0,R9
   \   000000BE   0x.... 0x....      BL       _PostTerminalSwitch
   1311                Status = (int)_WriteBlocking(pRing, s, FragLen);
   \   000000C2   0x003A             MOVS     R2,R7
   \   000000C4   0x0029             MOVS     R1,R5
   \   000000C6   0x4648             MOV      R0,R9
   \   000000C8   0x.... 0x....      BL       _WriteBlocking
   \   000000CC   0x0006             MOVS     R6,R0
   1312                _PostTerminalSwitch(pRing, _ActiveTerminal);
   \   000000CE   0x....             LDR.N    R0,??DataTable16_7
   \   000000D0   0x7801             LDRB     R1,[R0, #+0]
   \   000000D2   0x4648             MOV      R0,R9
   \   000000D4   0x.... 0x....      BL       _PostTerminalSwitch
   1313                break;
   \   000000D8   0xE002             B.N      ??SEGGER_RTT_TerminalOut_8
   1314              default:
   1315                Status = -1;
   \                     ??SEGGER_RTT_TerminalOut_5: (+1)
   \   000000DA   0xF05F 0x30FF      MOVS     R0,#-1
   \   000000DE   0x0006             MOVS     R6,R0
   1316                break;
   1317              }
   1318              //
   1319              // Finish up.
   1320              //
   1321              SEGGER_RTT_UNLOCK();
   \                     ??SEGGER_RTT_TerminalOut_8: (+1)
   \   000000E0   0xF38A 0x8811      MSR      BASEPRI,R10
   \   000000E4   0xE002             B.N      ??SEGGER_RTT_TerminalOut_13
   1322            } else {
   1323              Status = -1;
   \                     ??SEGGER_RTT_TerminalOut_1: (+1)
   \   000000E6   0xF05F 0x30FF      MOVS     R0,#-1
   \   000000EA   0x0006             MOVS     R6,R0
   1324            }
   1325            return Status;
   \                     ??SEGGER_RTT_TerminalOut_13: (+1)
   \   000000EC   0x0030             MOVS     R0,R6
   \   000000EE   0xE8BD 0x87F0      POP      {R4-R10,PC}      ;; return
   1326          }

   \                                 In section .text, align 4, keep-with-next
   \                     ??DataTable3:
   \   00000000   0x52 0x54          DC8      "RTT"
   \              0x54 0x00    

   \                                 In section .text, align 4, keep-with-next
   \                     ??DataTable16:
   \   00000000   0x........         DC32     _SEGGER_RTT

   \                                 In section .text, align 4, keep-with-next
   \                     ??DataTable16_1:
   \   00000000   0x........         DC32     ?_0

   \                                 In section .text, align 4, keep-with-next
   \                     ??DataTable16_2:
   \   00000000   0x........         DC32     _acUpBuffer

   \                                 In section .text, align 4, keep-with-next
   \                     ??DataTable16_3:
   \   00000000   0x........         DC32     _acDownBuffer

   \                                 In section .text, align 4, keep-with-next
   \                     ??DataTable16_4:
   \   00000000   0x........         DC32     ?_2

   \                                 In section .text, align 4, keep-with-next
   \                     ??DataTable16_5:
   \   00000000   0x........         DC32     _aTerminalId

   \                                 In section .text, align 4, keep-with-next
   \                     ??DataTable16_6:
   \   00000000   0x........         DC32     _SEGGER_RTT+0x18

   \                                 In section .text, align 4, keep-with-next
   \                     ??DataTable16_7:
   \   00000000   0x........         DC32     _ActiveTerminal

   \                                 In section .rodata, align 4
   \                     ?_0:
   \   00000000   0x54 0x65          DC8 "Terminal"
   \              0x72 0x6D    
   \              0x69 0x6E    
   \              0x61 0x6C    
   \              0x00         
   \   00000009   0x00 0x00          DC8 0, 0, 0
   \              0x00         

   \                                 In section .rodata, align 4
   \   00000000   0x52 0x54          DC8 "RTT"
   \              0x54 0x00    

   \                                 In section .rodata, align 4
   \                     ?_2:
   \   00000000   0x53 0x45          DC8 "SEGGER"
   \              0x47 0x47    
   \              0x45 0x52    
   \              0x00         
   \   00000007   0x00               DC8 0
   1327          
   1328          
   1329          /*************************** End of file ****************************/

   Maximum stack usage in bytes:

   .cstack Function
   ------- --------
      24   SEGGER_RTT_AllocDownBuffer
        24   -> _DoInit
      24   SEGGER_RTT_AllocUpBuffer
        24   -> _DoInit
      32   SEGGER_RTT_ConfigDownBuffer
        32   -> _DoInit
      32   SEGGER_RTT_ConfigUpBuffer
        32   -> _DoInit
      16   SEGGER_RTT_GetKey
        16   -> SEGGER_RTT_Read
       4   SEGGER_RTT_HasData
      16   SEGGER_RTT_HasKey
        16   -> _DoInit
       8   SEGGER_RTT_Init
         8   -> _DoInit
      24   SEGGER_RTT_Read
        24   -> SEGGER_RTT_ReadNoLock
      48   SEGGER_RTT_ReadNoLock
        48   -> _DoInit
        48   -> __aeabi_memcpy
      16   SEGGER_RTT_SetNameDownBuffer
        16   -> _DoInit
      16   SEGGER_RTT_SetNameUpBuffer
        16   -> _DoInit
      32   SEGGER_RTT_SetTerminal
        32   -> _DoInit
        32   -> _GetAvailWriteSpace
        32   -> _WriteBlocking
        32   -> _WriteNoCheck
      32   SEGGER_RTT_TerminalOut
        32   -> _DoInit
        32   -> _GetAvailWriteSpace
        32   -> _PostTerminalSwitch
        32   -> _WriteBlocking
        32   -> strlen
       8   SEGGER_RTT_WaitKey
         8   -> SEGGER_RTT_GetKey
      24   SEGGER_RTT_Write
        24   -> SEGGER_RTT_WriteNoLock
        24   -> _DoInit
      32   SEGGER_RTT_WriteNoLock
        32   -> _GetAvailWriteSpace
        32   -> _WriteBlocking
        32   -> _WriteNoCheck
      56   SEGGER_RTT_WriteSkipNoLock
        56   -> __aeabi_memcpy
      16   SEGGER_RTT_WriteString
        16   -> SEGGER_RTT_Write
        16   -> strlen
      40   SEGGER_RTT_WriteWithOverwriteNoLock
        40   -> __aeabi_memcpy
       8   _DoInit
         8   -> strcpy
       4   _GetAvailWriteSpace
      16   _PostTerminalSwitch
        16   -> _WriteBlocking
      40   _WriteBlocking
        40   -> __aeabi_memcpy
      40   _WriteNoCheck
        40   -> __aeabi_memcpy


   Section sizes:

   Bytes  Function/Label
   -----  --------------
       4  ??DataTable16
       4  ??DataTable16_1
       4  ??DataTable16_2
       4  ??DataTable16_3
       4  ??DataTable16_4
       4  ??DataTable16_5
       4  ??DataTable16_6
       4  ??DataTable16_7
       4  ??DataTable3
      12  ?_0
       4  ?_1
       8  ?_2
     188  SEGGER_RTT_AllocDownBuffer
     186  SEGGER_RTT_AllocUpBuffer
     150  SEGGER_RTT_ConfigDownBuffer
     150  SEGGER_RTT_ConfigUpBuffer
      38  SEGGER_RTT_GetKey
      32  SEGGER_RTT_HasData
      48  SEGGER_RTT_HasKey
       8  SEGGER_RTT_Init
      42  SEGGER_RTT_Read
     180  SEGGER_RTT_ReadNoLock
      68  SEGGER_RTT_SetNameDownBuffer
      68  SEGGER_RTT_SetNameUpBuffer
     138  SEGGER_RTT_SetTerminal
     242  SEGGER_RTT_TerminalOut
      16  SEGGER_RTT_WaitKey
      56  SEGGER_RTT_Write
     130  SEGGER_RTT_WriteNoLock
     250  SEGGER_RTT_WriteSkipNoLock
      26  SEGGER_RTT_WriteString
     254  SEGGER_RTT_WriteWithOverwriteNoLock
       1  _ActiveTerminal
      98  _DoInit
      38  _GetAvailWriteSpace
      36  _PostTerminalSwitch
     120  _SEGGER_RTT
     128  _WriteBlocking
      98  _WriteNoCheck
      16  _aTerminalId
      16  _acDownBuffer
    1024  _acUpBuffer

 
 1 161 bytes in section .bss
    16 bytes in section .data
    24 bytes in section .rodata
 2 704 bytes in section .text
 
 2 704 bytes of CODE  memory
    24 bytes of CONST memory
 1 177 bytes of DATA  memory

Errors: none
Warnings: none
