###############################################################################
#
# IAR ANSI C/C++ Compiler V7.80.4.12462/W32 for ARM       12/Dec/2022  11:41:27
# Copyright 1999-2017 IAR Systems AB.
#
#    Cpu mode     =  thumb
#    Endian       =  little
#    Source file  =  
#        C:\Users\shaomingkun\Desktop\git\evolve5.0\2021sw\ECOM-5\Modules\LCB_Lib\Speed.c
#    Command line =  
#        C:\Users\shaomingkun\Desktop\git\evolve5.0\2021sw\ECOM-5\Modules\LCB_Lib\Speed.c
#        -D EFM32LG380F256 -D BSP_CORTEX_EFM32 -D DEBUG_EFM_JJ -D
#        RF_MODULE_EXIST____ -lC
#        C:\Users\shaomingkun\Desktop\git\evolve5.0\2021sw\ECOM-5\Debug\List
#        -lA
#        C:\Users\shaomingkun\Desktop\git\evolve5.0\2021sw\ECOM-5\Debug\List -o
#        C:\Users\shaomingkun\Desktop\git\evolve5.0\2021sw\ECOM-5\Debug\Obj
#        --no_cse --no_unroll --no_inline --no_code_motion --no_tbaa
#        --no_clustering --no_scheduling --debug --endian=little
#        --cpu=Cortex-M3 -e --fpu=None --dlib_config "C:\Program Files
#        (x86)\IAR Systems\Embedded Workbench
#        7.5\arm\INC\c\DLib_Config_Normal.h" -I
#        C:\Users\shaomingkun\Desktop\git\evolve5.0\2021sw\ECOM-5\ -I
#        C:\Users\shaomingkun\Desktop\git\evolve5.0\2021sw\ECOM-5\Local\ -I
#        C:\Users\shaomingkun\Desktop\git\evolve5.0\2021sw\ECOM-5\Modules\ -I
#        C:\Users\shaomingkun\Desktop\git\evolve5.0\2021sw\ECOM-5\Modules\Utilities_Lib\
#        -I
#        C:\Users\shaomingkun\Desktop\git\evolve5.0\2021sw\ECOM-5\Modules\HAL_Lib\
#        -I
#        C:\Users\shaomingkun\Desktop\git\evolve5.0\2021sw\ECOM-5\Modules\LCB_Lib\
#        -I
#        C:\Users\shaomingkun\Desktop\git\evolve5.0\2021sw\ECOM-5\Modules\Eng_lib\
#        -I
#        C:\Users\shaomingkun\Desktop\git\evolve5.0\2021sw\ECOM-5\..\Modules\Eng_lib\
#        -I
#        C:\Users\shaomingkun\Desktop\git\evolve5.0\2021sw\ECOM-5\Modules\SystemConfig_Lib\
#        -I
#        C:\Users\shaomingkun\Desktop\git\evolve5.0\2021sw\ECOM-5\Modules\EFM32_lib\
#        -I
#        C:\Users\shaomingkun\Desktop\git\evolve5.0\2021sw\ECOM-5\Modules\EFM32_lib\drivers\
#        -I
#        C:\Users\shaomingkun\Desktop\git\evolve5.0\2021sw\ECOM-5\Modules\Program_lib\
#        -I
#        C:\Users\shaomingkun\Desktop\git\evolve5.0\2021sw\ECOM-5\Modules\RF_lib\
#        -I
#        C:\Users\shaomingkun\Desktop\git\evolve5.0\2021sw\ECOM-5\Modules\USB_lib\
#        -I
#        C:\Users\shaomingkun\Desktop\git\evolve5.0\2021sw\ECOM-5\Modules\USB_lib\usb\src\
#        -I
#        C:\Users\shaomingkun\Desktop\git\evolve5.0\2021sw\ECOM-5\Modules\USB_lib\usb\inc\
#        -I
#        C:\Users\shaomingkun\Desktop\git\evolve5.0\2021sw\ECOM-5\Modules\Bluetooth_lib\
#        -I
#        C:\Users\shaomingkun\Desktop\git\evolve5.0\2021sw\ECOM-5\Modules\Remote_lib\
#        -I
#        C:\Users\shaomingkun\Desktop\git\evolve5.0\2021sw\ECOM-5\Modules\EFM32_lib\Include\
#        -I
#        C:\Users\shaomingkun\Desktop\git\evolve5.0\2021sw\ECOM-5\Modules\EFM32_lib\emlib\inc\
#        -I
#        C:\Users\shaomingkun\Desktop\git\evolve5.0\2021sw\ECOM-5\Modules\EFM32_lib\emlib\src\
#        -I
#        C:\Users\shaomingkun\Desktop\git\evolve5.0\2021sw\ECOM-5\Modules\EFM32_lib\drivers\fatfs\src\
#        -I
#        C:\Users\shaomingkun\Desktop\git\evolve5.0\2021sw\ECOM-5\Modules\EFM32_lib\Device\EnergyMicro\EFM32LG\Include\
#        -I
#        C:\Users\shaomingkun\Desktop\git\evolve5.0\2021sw\ECOM-5\Modules\EFM32_lib\Device\EnergyMicro\EFM32LG\Source\
#        -I
#        C:\Users\shaomingkun\Desktop\git\evolve5.0\2021sw\ECOM-5\Modules\EFM32_lib\Device\EnergyMicro\EFM32LG\Source\IAR\
#        -I
#        C:\Users\shaomingkun\Desktop\git\evolve5.0\2021sw\ECOM-5\Modules\RTT_Lib\
#        -On
#    Locale       =  Chinese (Simplified)_China.936
#    List file    =  
#        C:\Users\shaomingkun\Desktop\git\evolve5.0\2021sw\ECOM-5\Debug\List\Speed.lst
#    Object file  =  
#        C:\Users\shaomingkun\Desktop\git\evolve5.0\2021sw\ECOM-5\Debug\Obj\Speed.o
#
###############################################################################

C:\Users\shaomingkun\Desktop\git\evolve5.0\2021sw\ECOM-5\Modules\LCB_Lib\Speed.c
      1          #include "Speed.h"
      2          #include "RPM.h"
      3          #include "HAL_Lib.h"

  EFM32_PACK_START( 1 )
                    ^
"C:\Users\shaomingkun\Desktop\git\evolve5.0\2021sw\ECOM-5\Modules\USB_lib\usb\inc\em_usb.h",318  Warning[Pe1665]: 
          concatenation with "1)" in macro "EFM32_PACK_START" does not create a
          valid token

  EFM32_PACK_START( 1 )
  ^
"C:\Users\shaomingkun\Desktop\git\evolve5.0\2021sw\ECOM-5\Modules\USB_lib\usb\inc\em_usb.h",318  Warning[Pe1665]: 
          concatenation with ")" in macro "EFM32_PACK_START" does not create a
          valid token

  EFM32_PACK_START( 1 )
                    ^
"C:\Users\shaomingkun\Desktop\git\evolve5.0\2021sw\ECOM-5\Modules\USB_lib\usb\inc\em_usb.h",347  Warning[Pe1665]: 
          concatenation with "1)" in macro "EFM32_PACK_START" does not create a
          valid token

  EFM32_PACK_START( 1 )
  ^
"C:\Users\shaomingkun\Desktop\git\evolve5.0\2021sw\ECOM-5\Modules\USB_lib\usb\inc\em_usb.h",347  Warning[Pe1665]: 
          concatenation with ")" in macro "EFM32_PACK_START" does not create a
          valid token

  EFM32_PACK_START( 1 )
                    ^
"C:\Users\shaomingkun\Desktop\git\evolve5.0\2021sw\ECOM-5\Modules\USB_lib\usb\inc\em_usb.h",371  Warning[Pe1665]: 
          concatenation with "1)" in macro "EFM32_PACK_START" does not create a
          valid token

  EFM32_PACK_START( 1 )
  ^
"C:\Users\shaomingkun\Desktop\git\evolve5.0\2021sw\ECOM-5\Modules\USB_lib\usb\inc\em_usb.h",371  Warning[Pe1665]: 
          concatenation with ")" in macro "EFM32_PACK_START" does not create a
          valid token

  EFM32_PACK_START( 1 )
                    ^
"C:\Users\shaomingkun\Desktop\git\evolve5.0\2021sw\ECOM-5\Modules\USB_lib\usb\inc\em_usb.h",400  Warning[Pe1665]: 
          concatenation with "1)" in macro "EFM32_PACK_START" does not create a
          valid token

  EFM32_PACK_START( 1 )
  ^
"C:\Users\shaomingkun\Desktop\git\evolve5.0\2021sw\ECOM-5\Modules\USB_lib\usb\inc\em_usb.h",400  Warning[Pe1665]: 
          concatenation with ")" in macro "EFM32_PACK_START" does not create a
          valid token

  EFM32_PACK_START( 1 )
                    ^
"C:\Users\shaomingkun\Desktop\git\evolve5.0\2021sw\ECOM-5\Modules\USB_lib\usb\inc\em_usb.h",441  Warning[Pe1665]: 
          concatenation with "1)" in macro "EFM32_PACK_START" does not create a
          valid token

  EFM32_PACK_START( 1 )
  ^
"C:\Users\shaomingkun\Desktop\git\evolve5.0\2021sw\ECOM-5\Modules\USB_lib\usb\inc\em_usb.h",441  Warning[Pe1665]: 
          concatenation with ")" in macro "EFM32_PACK_START" does not create a
          valid token

  EFM32_PACK_START( 1 )
                    ^
"C:\Users\shaomingkun\Desktop\git\evolve5.0\2021sw\ECOM-5\Modules\USB_lib\usb\inc\em_usb.h",455  Warning[Pe1665]: 
          concatenation with "1)" in macro "EFM32_PACK_START" does not create a
          valid token

  EFM32_PACK_START( 1 )
  ^
"C:\Users\shaomingkun\Desktop\git\evolve5.0\2021sw\ECOM-5\Modules\USB_lib\usb\inc\em_usb.h",455  Warning[Pe1665]: 
          concatenation with ")" in macro "EFM32_PACK_START" does not create a
          valid token
      4          #include "SystemConfig.h"
      5          #include "Programs.h"
      6          #include "Data_Process.h"
      7          #define C_MILE         		 	0
      8          #define C_KM           		 	1
      9          #define BIT0                (0x00000001)
     10          #define BIT1                (0x00000002)
     11          #define BIT2                (0x00000004)
     12          #define BIT3                (0x00000008)
     13          #define BIT4                (0x00000010)
     14          #define BIT5                (0x00000020)
     15          #define BIT6                (0x00000040)
     16          #define BIT7                (0x00000080)
     17          #define BIT8                (0x00000100)
     18          #define BIT9                (0x00000200)
     19          #define BITA                (0x00000400)
     20          #define BITB                (0x00000800)
     21          #define BITC                (0x00001000)
     22          #define BITD                (0x00002000)
     23          #define BITE                (0x00004000)
     24          #define BITF                (0x00008000)
     25          void Speed_Switch_PWM(UCHAR by_Dat);
     26          void Speed_Calculate_PWM_Point(void);
     27          
     28          #define C_PWM_DELAY_ADD_TIME  75//150   //30S 虫 0.1Sec //100   //300   30S 虫 0.1Sec    
     29          #define C_PWM_DELAY_DEC_TIME  80   //10S 虫 0.1Sec//100
     30          
     31          #define C_PWM_STOP 120//100
     32          #define C_PWM_BASE C_PWM_STOP+10
     33          #define C_PWM_MAX  8000//8170
     34          #define C_DEFAULT_AUTO_SPEED_STEP 33

   \                                 In section .noinit, align 2
     35          __no_init UINT16 step_limit;
   \                     step_limit:
   \   00000000                      DS8 2

   \                                 In section .noinit, align 1
     36          __no_init static UCHAR by_Speed;
   \                     by_Speed:
   \   00000000                      DS8 1

   \                                 In section .noinit, align 1
     37          __no_init static UCHAR by_Base;
   \                     by_Base:
   \   00000000                      DS8 1

   \                                 In section .noinit, align 1
     38          __no_init static UCHAR by_Speed_MAX,by_Speed_SP2,by_Speed_MID,by_Speed_SP1,by_Speed_MIN;
   \                     by_Speed_MAX:
   \   00000000                      DS8 1

   \                                 In section .noinit, align 1
   \                     by_Speed_SP2:
   \   00000000                      DS8 1

   \                                 In section .noinit, align 1
   \                     by_Speed_MID:
   \   00000000                      DS8 1

   \                                 In section .noinit, align 1
   \                     by_Speed_SP1:
   \   00000000                      DS8 1

   \                                 In section .noinit, align 1
   \                     by_Speed_MIN:
   \   00000000                      DS8 1

   \                                 In section .noinit, align 2
     39          __no_init static INT16 i_Offset;
   \                     i_Offset:
   \   00000000                      DS8 2
     40          //__no_init static UINT16 w_PWM_Time;

   \                                 In section .noinit, align 2
     41          __no_init  UINT16 w_PWM_Target;
   \                     w_PWM_Target:
   \   00000000                      DS8 2

   \                                 In section .noinit, align 2
     42          __no_init  UINT16 w_PWM_value;
   \                     w_PWM_value:
   \   00000000                      DS8 2
     43          

   \                                 In section .noinit, align 2
     44          __no_init UINT16 w_PWM_MAX,w_PWM_SP2,w_PWM_MID,w_PWM_SP1,w_PWM_MIN;
   \                     w_PWM_MAX:
   \   00000000                      DS8 2

   \                                 In section .noinit, align 2
   \                     w_PWM_SP2:
   \   00000000                      DS8 2

   \                                 In section .noinit, align 2
   \                     w_PWM_MID:
   \   00000000                      DS8 2

   \                                 In section .noinit, align 2
   \                     w_PWM_SP1:
   \   00000000                      DS8 2

   \                                 In section .noinit, align 2
   \                     w_PWM_MIN:
   \   00000000                      DS8 2

   \                                 In section .noinit, align 2
     45          __no_init UINT16 w_S1_PWM_Data,w_S2_PWM_Data,w_S3_PWM_Data,w_S4_PWM_Data;
   \                     w_S1_PWM_Data:
   \   00000000                      DS8 2

   \                                 In section .noinit, align 2
   \                     w_S2_PWM_Data:
   \   00000000                      DS8 2

   \                                 In section .noinit, align 2
   \                     w_S3_PWM_Data:
   \   00000000                      DS8 2

   \                                 In section .noinit, align 2
   \                     w_S4_PWM_Data:
   \   00000000                      DS8 2

   \                                 In section .noinit, align 2
     46          __no_init static UINT16 w_PWM_Add_Step,w_PWM_Dec_Step;
   \                     w_PWM_Add_Step:
   \   00000000                      DS8 2

   \                                 In section .noinit, align 2
   \                     w_PWM_Dec_Step:
   \   00000000                      DS8 2

   \                                 In section .noinit, align 2
     47          __no_init UINT16 w_Auto_Speed_Step;
   \                     w_Auto_Speed_Step:
   \   00000000                      DS8 2

   \                                 In section .noinit, align 2
     48          __no_init  UINT16 w_PWM_Time;//决定高电平的时间
   \                     w_PWM_Time:
   \   00000000                      DS8 2

   \                                 In section .bss, align 2
     49            static UINT16 by_Time_250ms;
   \                     by_Time_250ms:
   \   00000000                      DS8 2

   \                                 In section .bss, align 2
     50            static UINT16 by_Time_100ms;
   \                     by_Time_100ms:
   \   00000000                      DS8 2
     51          __no_init static struct
     52          {
     53            unsigned SPEED_MODE :  1;
     54            unsigned SPEED_OK :    1;
     55            
     56            unsigned SPEED_ERROR1 :    1;
     57            
     58            
     59            unsigned SPEED_START : 1;
     60            unsigned AUTO_FLAG :   1;
     61            unsigned SPEED_Auto:   1;//1--校速   0--自动调整速度，
     62            unsigned SPEED_burst : 1;//速度暴冲
     63            

   \                                 In section .noinit, align 4
     64          } b;
   \                     `b`:
   \   00000000                      DS8 4
     65          
     66          
     67          
     68          typedef struct PIDValue
     69          {
     70            unsigned int Ek_Uint32[3];         //畉玂?﹚㎝は?畉
     71            unsigned  EkFlag_Uint8[3];     //才?1???Ek[i]???0???Ek[i]?タ?
     72            unsigned   KP_Uint8;
     73            unsigned   KI_Uint8;
     74            unsigned   KD_Uint8;
     75            unsigned   B_Uint8;     //??? 
     76            unsigned   KP;      //?ボэ?ノ
     77            unsigned   KI;      //
     78            unsigned   KD;      //
     79            unsigned   B;       //
     80            //long unsigned int  Uk_Uint16;    //?ㄨ北??
     81            
     82            //long unsigned int    w_PWM_Time_Old;
     83          }PIDValueStr; 

   \                                 In section .bss, align 4
     84          PIDValueStr  PID;
   \                     PID:
   \   00000000                      DS8 56
     85          
     86          
     87          

   \                                 In section .text, align 2, keep-with-next
     88          void Speed_Initial_Data(void)
     89          {
   \                     Speed_Initial_Data: (+1)
   \   00000000   0xB580             PUSH     {R7,LR}
     90            by_Time_250ms=0;
   \   00000002   0x2000             MOVS     R0,#+0
   \   00000004   0x.... 0x....      LDR.W    R1,??DataTable46
   \   00000008   0x8008             STRH     R0,[R1, #+0]
     91            by_Time_100ms=0;
   \   0000000A   0x2000             MOVS     R0,#+0
   \   0000000C   0x.... 0x....      LDR.W    R1,??DataTable46_1
   \   00000010   0x8008             STRH     R0,[R1, #+0]
     92            by_Speed = by_Speed_MIN;
   \   00000012   0x.... 0x....      LDR.W    R0,??DataTable46_2
   \   00000016   0x7800             LDRB     R0,[R0, #+0]
   \   00000018   0x.... 0x....      LDR.W    R1,??DataTable46_3
   \   0000001C   0x7008             STRB     R0,[R1, #+0]
     93            by_Base = by_Speed_MIN;
   \   0000001E   0x.... 0x....      LDR.W    R0,??DataTable46_2
   \   00000022   0x7800             LDRB     R0,[R0, #+0]
   \   00000024   0x.... 0x....      LDR.W    R1,??DataTable46_4
   \   00000028   0x7008             STRB     R0,[R1, #+0]
     94            w_Auto_Speed_Step = C_DEFAULT_AUTO_SPEED_STEP;//33
   \   0000002A   0x2021             MOVS     R0,#+33
   \   0000002C   0x.... 0x....      LDR.W    R1,??DataTable46_5
   \   00000030   0x8008             STRH     R0,[R1, #+0]
     95            i_Offset = 0;
   \   00000032   0x2000             MOVS     R0,#+0
   \   00000034   0x.... 0x....      LDR.W    R1,??DataTable46_6
   \   00000038   0x8008             STRH     R0,[R1, #+0]
     96            
     97            b.SPEED_ERROR1 = 0;
   \   0000003A   0x.... 0x....      LDR.W    R0,??DataTable46_7
   \   0000003E   0x6800             LDR      R0,[R0, #+0]
   \   00000040   0xF030 0x0004      BICS     R0,R0,#0x4
   \   00000044   0x.... 0x....      LDR.W    R1,??DataTable46_7
   \   00000048   0x6008             STR      R0,[R1, #+0]
     98            
     99            b.SPEED_OK = 0;
   \   0000004A   0x.... 0x....      LDR.W    R0,??DataTable46_7
   \   0000004E   0x6800             LDR      R0,[R0, #+0]
   \   00000050   0xF030 0x0002      BICS     R0,R0,#0x2
   \   00000054   0x.... 0x....      LDR.W    R1,??DataTable46_7
   \   00000058   0x6008             STR      R0,[R1, #+0]
    100            b.SPEED_START = 0;
   \   0000005A   0x.... 0x....      LDR.W    R0,??DataTable46_7
   \   0000005E   0x6800             LDR      R0,[R0, #+0]
   \   00000060   0xF030 0x0008      BICS     R0,R0,#0x8
   \   00000064   0x.... 0x....      LDR.W    R1,??DataTable46_7
   \   00000068   0x6008             STR      R0,[R1, #+0]
    101            b.SPEED_Auto = 0;
   \   0000006A   0x.... 0x....      LDR.W    R0,??DataTable46_7
   \   0000006E   0x6800             LDR      R0,[R0, #+0]
   \   00000070   0xF030 0x0020      BICS     R0,R0,#0x20
   \   00000074   0x.... 0x....      LDR.W    R1,??DataTable46_7
   \   00000078   0x6008             STR      R0,[R1, #+0]
    102            b.SPEED_burst = 0;
   \   0000007A   0x.... 0x....      LDR.W    R0,??DataTable46_7
   \   0000007E   0x6800             LDR      R0,[R0, #+0]
   \   00000080   0xF030 0x0040      BICS     R0,R0,#0x40
   \   00000084   0x.... 0x....      LDR.W    R1,??DataTable46_7
   \   00000088   0x6008             STR      R0,[R1, #+0]
    103            w_PWM_Target = w_PWM_Time = C_PWM_STOP;
   \   0000008A   0x2078             MOVS     R0,#+120
   \   0000008C   0x.... 0x....      LDR.W    R1,??DataTable46_8
   \   00000090   0x8008             STRH     R0,[R1, #+0]
   \   00000092   0x.... 0x....      LDR.W    R0,??DataTable46_8
   \   00000096   0x8800             LDRH     R0,[R0, #+0]
   \   00000098   0x.... 0x....      LDR.W    R1,??DataTable46_9
   \   0000009C   0x8008             STRH     R0,[R1, #+0]
    104            b.SPEED_MODE = 1;
   \   0000009E   0x.... 0x....      LDR.W    R0,??DataTable46_7
   \   000000A2   0x6800             LDR      R0,[R0, #+0]
   \   000000A4   0xF050 0x0001      ORRS     R0,R0,#0x1
   \   000000A8   0x.... 0x....      LDR.W    R1,??DataTable46_7
   \   000000AC   0x6008             STR      R0,[R1, #+0]
    105            RPM_Set_Speed_Mode(SystemConfig_Get_Char(UNIT_FLAG_UCHAR));//YANG
   \   000000AE   0x2007             MOVS     R0,#+7
   \   000000B0   0x.... 0x....      BL       SystemConfig_Get_Char
   \   000000B4   0xB2C0             UXTB     R0,R0            ;; ZeroExt  R0,R0,#+24,#+24
   \   000000B6   0x.... 0x....      BL       RPM_Set_Speed_Mode
    106            Speed_Set_Speed_Mode(SystemConfig_Get_Char(UNIT_FLAG_UCHAR));
   \   000000BA   0x2007             MOVS     R0,#+7
   \   000000BC   0x.... 0x....      BL       SystemConfig_Get_Char
   \   000000C0   0xB2C0             UXTB     R0,R0            ;; ZeroExt  R0,R0,#+24,#+24
   \   000000C2   0x.... 0x....      BL       Speed_Set_Speed_Mode
    107            Speed_Calculate_PWM_Point();
   \   000000C6   0x.... 0x....      BL       Speed_Calculate_PWM_Point
    108            Speed_Switch_PWM(by_Speed);
   \   000000CA   0x.... 0x....      LDR.W    R0,??DataTable46_3
   \   000000CE   0x7800             LDRB     R0,[R0, #+0]
   \   000000D0   0x.... 0x....      BL       Speed_Switch_PWM
    109          //  if(b.SPEED_MODE==1)//判断公英制,
    110          //    //然后决定小步长减小的范围值（100或160）
    111          //  step_limit=160;//80-1600  1.6km
    112          //  else
    113          //  step_limit=100; //50-1000 1mile
    114            step_limit=SystemConfig_Get_Int(PWM_MIN_UINT16);
   \   000000D4   0x2040             MOVS     R0,#+64
   \   000000D6   0x.... 0x....      BL       SystemConfig_Get_Int
   \   000000DA   0x.... 0x....      LDR.W    R1,??DataTable47
   \   000000DE   0x8008             STRH     R0,[R1, #+0]
    115          }
   \   000000E0   0xBD01             POP      {R0,PC}          ;; return
    116          

   \                                 In section .text, align 2, keep-with-next
    117          void Speed_Set_Start(UCHAR by_Dat)
    118          {
    119            if(by_Dat) 
   \                     Speed_Set_Start: (+1)
   \   00000000   0xB2C0             UXTB     R0,R0            ;; ZeroExt  R0,R0,#+24,#+24
   \   00000002   0x2800             CMP      R0,#+0
   \   00000004   0xD008             BEQ.N    ??Speed_Set_Start_0
    120            {
    121              b.SPEED_START = 1;
   \   00000006   0x.... 0x....      LDR.W    R1,??DataTable46_7
   \   0000000A   0x6809             LDR      R1,[R1, #+0]
   \   0000000C   0xF051 0x0108      ORRS     R1,R1,#0x8
   \   00000010   0x.... 0x....      LDR.W    R2,??DataTable46_7
   \   00000014   0x6011             STR      R1,[R2, #+0]
   \   00000016   0xE007             B.N      ??Speed_Set_Start_1
    122              //w_PWM_Time = C_PWM_STOP+150;//by ckm  debug-------????--------
    123            }
    124            else 
    125              b.SPEED_START = 0;
   \                     ??Speed_Set_Start_0: (+1)
   \   00000018   0x.... 0x....      LDR.W    R1,??DataTable46_7
   \   0000001C   0x6809             LDR      R1,[R1, #+0]
   \   0000001E   0xF031 0x0108      BICS     R1,R1,#0x8
   \   00000022   0x.... 0x....      LDR.W    R2,??DataTable46_7
   \   00000026   0x6011             STR      R1,[R2, #+0]
    126          }
   \                     ??Speed_Set_Start_1: (+1)
   \   00000028   0x4770             BX       LR               ;; return
    127          
    128          

   \                                 In section .text, align 2, keep-with-next
    129          void Speed_Set_Speed_Mode(UCHAR by_Dat)
    130          {
    131            if(by_Dat) 
   \                     Speed_Set_Speed_Mode: (+1)
   \   00000000   0xB2C0             UXTB     R0,R0            ;; ZeroExt  R0,R0,#+24,#+24
   \   00000002   0x2800             CMP      R0,#+0
   \   00000004   0xD008             BEQ.N    ??Speed_Set_Speed_Mode_0
    132              b.SPEED_MODE = 1;
   \   00000006   0x.... 0x....      LDR.W    R1,??DataTable46_7
   \   0000000A   0x6809             LDR      R1,[R1, #+0]
   \   0000000C   0xF051 0x0101      ORRS     R1,R1,#0x1
   \   00000010   0x.... 0x....      LDR.W    R2,??DataTable46_7
   \   00000014   0x6011             STR      R1,[R2, #+0]
   \   00000016   0xE007             B.N      ??Speed_Set_Speed_Mode_1
    133            else 
    134              b.SPEED_MODE = 0;
   \                     ??Speed_Set_Speed_Mode_0: (+1)
   \   00000018   0x.... 0x....      LDR.W    R1,??DataTable46_7
   \   0000001C   0x6809             LDR      R1,[R1, #+0]
   \   0000001E   0x0849             LSRS     R1,R1,#+1
   \   00000020   0x0049             LSLS     R1,R1,#+1
   \   00000022   0x.... 0x....      LDR.W    R2,??DataTable46_7
   \   00000026   0x6011             STR      R1,[R2, #+0]
    135          }
   \                     ??Speed_Set_Speed_Mode_1: (+1)
   \   00000028   0x4770             BX       LR               ;; return
    136          

   \                                 In section .text, align 2, keep-with-next
    137          void Speed_Set_100ms_Flag_Int(void)
    138          {
    139            static UCHAR by_AUTO_Time=0;
    140            if(by_AUTO_Time == 20)//2s
   \                     Speed_Set_100ms_Flag_Int: (+1)
   \   00000000   0x.... 0x....      LDR.W    R0,??DataTable48
   \   00000004   0x7800             LDRB     R0,[R0, #+0]
   \   00000006   0x2814             CMP      R0,#+20
   \   00000008   0xD10C             BNE.N    ??Speed_Set_100ms_Flag_Int_0
    141            {
    142              b.AUTO_FLAG = 1;
   \   0000000A   0x.... 0x....      LDR.W    R0,??DataTable46_7
   \   0000000E   0x6800             LDR      R0,[R0, #+0]
   \   00000010   0xF050 0x0010      ORRS     R0,R0,#0x10
   \   00000014   0x.... 0x....      LDR.W    R1,??DataTable46_7
   \   00000018   0x6008             STR      R0,[R1, #+0]
    143              by_AUTO_Time = 0;
   \   0000001A   0x2000             MOVS     R0,#+0
   \   0000001C   0x.... 0x....      LDR.W    R1,??DataTable48
   \   00000020   0x7008             STRB     R0,[R1, #+0]
   \   00000022   0xE006             B.N      ??Speed_Set_100ms_Flag_Int_1
    144            }
    145            else 
    146            {
    147              ++by_AUTO_Time;
   \                     ??Speed_Set_100ms_Flag_Int_0: (+1)
   \   00000024   0x.... 0x....      LDR.W    R0,??DataTable48
   \   00000028   0x7800             LDRB     R0,[R0, #+0]
   \   0000002A   0x1C40             ADDS     R0,R0,#+1
   \   0000002C   0x.... 0x....      LDR.W    R1,??DataTable48
   \   00000030   0x7008             STRB     R0,[R1, #+0]
    148            }
    149          }
   \                     ??Speed_Set_100ms_Flag_Int_1: (+1)
   \   00000032   0x4770             BX       LR               ;; return

   \                                 In section .bss, align 1
   \                     `Speed_Set_100ms_Flag_Int::by_AUTO_Time`:
   \   00000000                      DS8 1
    150          

   \                                 In section .text, align 2, keep-with-next
    151          bool Speed_Get_Safe_Key(void)
    152          {
   \                     Speed_Get_Safe_Key: (+1)
   \   00000000   0xB580             PUSH     {R7,LR}
    153            if(HAL_SafetyKey_Get_Attached())
   \   00000002   0x.... 0x....      BL       HAL_SafetyKey_Get_Attached
   \   00000006   0x2800             CMP      R0,#+0
   \   00000008   0xD016             BEQ.N    ??Speed_Get_Safe_Key_0
    154            {
    155              b.SPEED_START = 0;
   \   0000000A   0x.... 0x....      LDR.W    R0,??DataTable46_7
   \   0000000E   0x6800             LDR      R0,[R0, #+0]
   \   00000010   0xF030 0x0008      BICS     R0,R0,#0x8
   \   00000014   0x.... 0x....      LDR.W    R1,??DataTable46_7
   \   00000018   0x6008             STR      R0,[R1, #+0]
    156              w_PWM_Time = w_PWM_Target = C_PWM_STOP;
   \   0000001A   0x2078             MOVS     R0,#+120
   \   0000001C   0x.... 0x....      LDR.W    R1,??DataTable46_9
   \   00000020   0x8008             STRH     R0,[R1, #+0]
   \   00000022   0x.... 0x....      LDR.W    R0,??DataTable46_9
   \   00000026   0x8800             LDRH     R0,[R0, #+0]
   \   00000028   0x.... 0x....      LDR.W    R1,??DataTable46_8
   \   0000002C   0x8008             STRH     R0,[R1, #+0]
    157              HW_Speed_Set_Motor(0);
   \   0000002E   0x2000             MOVS     R0,#+0
   \   00000030   0x.... 0x....      BL       HW_Speed_Set_Motor
    158              return 1;
   \   00000034   0x2001             MOVS     R0,#+1
   \   00000036   0xE000             B.N      ??Speed_Get_Safe_Key_1
    159            }
    160            return 0;
   \                     ??Speed_Get_Safe_Key_0: (+1)
   \   00000038   0x2000             MOVS     R0,#+0
   \                     ??Speed_Get_Safe_Key_1: (+1)
   \   0000003A   0xBD02             POP      {R1,PC}          ;; return
    161          }
    162          
    163          
    164          

   \                                 In section .text, align 2, keep-with-next
    165          void Speed_Set_Base(UCHAR by_Dat)
    166          {
    167            if(by_Dat) 
   \                     Speed_Set_Base: (+1)
   \   00000000   0xB2C0             UXTB     R0,R0            ;; ZeroExt  R0,R0,#+24,#+24
   \   00000002   0x2800             CMP      R0,#+0
   \   00000004   0xD003             BEQ.N    ??Speed_Set_Base_0
    168              by_Base = by_Dat;
   \   00000006   0x.... 0x....      LDR.W    R1,??DataTable46_4
   \   0000000A   0x7008             STRB     R0,[R1, #+0]
   \   0000000C   0xE005             B.N      ??Speed_Set_Base_1
    169            else
    170              by_Base = by_Speed_MIN;
   \                     ??Speed_Set_Base_0: (+1)
   \   0000000E   0x.... 0x....      LDR.W    R1,??DataTable46_2
   \   00000012   0x7809             LDRB     R1,[R1, #+0]
   \   00000014   0x.... 0x....      LDR.W    R2,??DataTable46_4
   \   00000018   0x7011             STRB     R1,[R2, #+0]
    171          }
   \                     ??Speed_Set_Base_1: (+1)
   \   0000001A   0x4770             BX       LR               ;; return
    172          

   \                                 In section .text, align 2, keep-with-next
    173          void Speed_Add_Base(UCHAR by_Dat)
    174          {
    175            if(by_Base < by_Speed_MAX-by_Dat+1)
   \                     Speed_Add_Base: (+1)
   \   00000000   0x.... 0x....      LDR.W    R1,??DataTable46_4
   \   00000004   0x7809             LDRB     R1,[R1, #+0]
   \   00000006   0x.... 0x....      LDR.W    R2,??DataTable46_10
   \   0000000A   0x7812             LDRB     R2,[R2, #+0]
   \   0000000C   0xB2C0             UXTB     R0,R0            ;; ZeroExt  R0,R0,#+24,#+24
   \   0000000E   0x1A12             SUBS     R2,R2,R0
   \   00000010   0x1C52             ADDS     R2,R2,#+1
   \   00000012   0x4291             CMP      R1,R2
   \   00000014   0xDA06             BGE.N    ??Speed_Add_Base_0
    176              by_Base+=by_Dat;
   \   00000016   0x.... 0x....      LDR.W    R1,??DataTable46_4
   \   0000001A   0x7809             LDRB     R1,[R1, #+0]
   \   0000001C   0x1841             ADDS     R1,R0,R1
   \   0000001E   0x.... 0x....      LDR.W    R2,??DataTable46_4
   \   00000022   0x7011             STRB     R1,[R2, #+0]
    177          }
   \                     ??Speed_Add_Base_0: (+1)
   \   00000024   0x4770             BX       LR               ;; return
    178          

   \                                 In section .text, align 2, keep-with-next
    179          void Speed_Dec_Base(UCHAR by_Dat)
    180          {
    181            if(by_Base > by_Speed_MIN+by_Dat-1)
   \                     Speed_Dec_Base: (+1)
   \   00000000   0x.... 0x....      LDR.W    R1,??DataTable46_2
   \   00000004   0x7809             LDRB     R1,[R1, #+0]
   \   00000006   0xB2C0             UXTB     R0,R0            ;; ZeroExt  R0,R0,#+24,#+24
   \   00000008   0x1841             ADDS     R1,R0,R1
   \   0000000A   0x1E49             SUBS     R1,R1,#+1
   \   0000000C   0x.... 0x....      LDR.W    R2,??DataTable46_4
   \   00000010   0x7812             LDRB     R2,[R2, #+0]
   \   00000012   0x4291             CMP      R1,R2
   \   00000014   0xDA06             BGE.N    ??Speed_Dec_Base_0
    182              by_Base-=by_Dat;
   \   00000016   0x.... 0x....      LDR.W    R1,??DataTable46_4
   \   0000001A   0x7809             LDRB     R1,[R1, #+0]
   \   0000001C   0x1A09             SUBS     R1,R1,R0
   \   0000001E   0x.... 0x....      LDR.W    R2,??DataTable46_4
   \   00000022   0x7011             STRB     R1,[R2, #+0]
    183          }
   \                     ??Speed_Dec_Base_0: (+1)
   \   00000024   0x4770             BX       LR               ;; return
    184          

   \                                 In section .text, align 2, keep-with-next
    185          UCHAR Speed_Get_Program(UCHAR by_Dat)
    186          {
   \                     Speed_Get_Program: (+1)
   \   00000000   0x0001             MOVS     R1,R0
    187            UCHAR by_Out;
    188            if((i_Offset+(int)by_Dat) > (int)by_Speed_MAX)
   \   00000002   0x.... 0x....      LDR.W    R0,??DataTable46_10
   \   00000006   0x7800             LDRB     R0,[R0, #+0]
   \   00000008   0x.... 0x....      LDR.W    R3,??DataTable46_6
   \   0000000C   0xF9B3 0x3000      LDRSH    R3,[R3, #+0]
   \   00000010   0xB2C9             UXTB     R1,R1            ;; ZeroExt  R1,R1,#+24,#+24
   \   00000012   0x18CB             ADDS     R3,R1,R3
   \   00000014   0x4298             CMP      R0,R3
   \   00000016   0xDA03             BGE.N    ??Speed_Get_Program_0
    189            {
    190              return(by_Speed_MAX);
   \   00000018   0x.... 0x....      LDR.W    R0,??DataTable46_10
   \   0000001C   0x7800             LDRB     R0,[R0, #+0]
   \   0000001E   0xE015             B.N      ??Speed_Get_Program_1
    191            }
    192            if((i_Offset+(int)by_Dat) < (int)by_Speed_MIN)
   \                     ??Speed_Get_Program_0: (+1)
   \   00000020   0x.... 0x....      LDR.W    R0,??DataTable46_6
   \   00000024   0xF9B0 0x0000      LDRSH    R0,[R0, #+0]
   \   00000028   0xB2C9             UXTB     R1,R1            ;; ZeroExt  R1,R1,#+24,#+24
   \   0000002A   0x1808             ADDS     R0,R1,R0
   \   0000002C   0x.... 0x....      LDR.W    R3,??DataTable46_2
   \   00000030   0x781B             LDRB     R3,[R3, #+0]
   \   00000032   0x4298             CMP      R0,R3
   \   00000034   0xDA03             BGE.N    ??Speed_Get_Program_2
    193            {
    194              return(by_Speed_MIN);
   \   00000036   0x.... 0x....      LDR.W    R0,??DataTable46_2
   \   0000003A   0x7800             LDRB     R0,[R0, #+0]
   \   0000003C   0xE006             B.N      ??Speed_Get_Program_1
    195            }
    196            by_Out = (UCHAR)(i_Offset+(int)by_Dat);
   \                     ??Speed_Get_Program_2: (+1)
   \   0000003E   0x.... 0x....      LDR.W    R0,??DataTable46_6
   \   00000042   0x8800             LDRH     R0,[R0, #+0]
   \   00000044   0x1808             ADDS     R0,R1,R0
   \   00000046   0x0002             MOVS     R2,R0
    197            return(by_Out);
   \   00000048   0x0010             MOVS     R0,R2
   \   0000004A   0xB2C0             UXTB     R0,R0            ;; ZeroExt  R0,R0,#+24,#+24
   \                     ??Speed_Get_Program_1: (+1)
   \   0000004C   0x4770             BX       LR               ;; return
    198          }
    199          

   \                                 In section .text, align 2, keep-with-next
    200          UCHAR Speed_Get_Base(void)
    201          {
    202            return(by_Base);
   \                     Speed_Get_Base: (+1)
   \   00000000   0x.... 0x....      LDR.W    R0,??DataTable46_4
   \   00000004   0x7800             LDRB     R0,[R0, #+0]
   \   00000006   0x4770             BX       LR               ;; return
    203          }

   \                                 In section .text, align 2, keep-with-next
    204          UCHAR Speed_Get_Speed(void)
    205          {
    206            if((i_Offset+by_Base) > by_Speed_MAX)
   \                     Speed_Get_Speed: (+1)
   \   00000000   0x.... 0x....      LDR.W    R0,??DataTable46_10
   \   00000004   0x7800             LDRB     R0,[R0, #+0]
   \   00000006   0x.... 0x....      LDR.W    R1,??DataTable46_6
   \   0000000A   0xF9B1 0x1000      LDRSH    R1,[R1, #+0]
   \   0000000E   0x.... 0x....      LDR.W    R2,??DataTable46_4
   \   00000012   0x7812             LDRB     R2,[R2, #+0]
   \   00000014   0x1851             ADDS     R1,R2,R1
   \   00000016   0x4288             CMP      R0,R1
   \   00000018   0xDA09             BGE.N    ??Speed_Get_Speed_0
    207            {
    208              by_Speed = by_Speed_MAX;
   \   0000001A   0x.... 0x....      LDR.W    R0,??DataTable46_10
   \   0000001E   0x7800             LDRB     R0,[R0, #+0]
   \   00000020   0x.... 0x....      LDR.W    R1,??DataTable46_3
   \   00000024   0x7008             STRB     R0,[R1, #+0]
    209              return(by_Speed);
   \   00000026   0x.... 0x....      LDR.W    R0,??DataTable46_3
   \   0000002A   0x7800             LDRB     R0,[R0, #+0]
   \   0000002C   0xE023             B.N      ??Speed_Get_Speed_1
    210            }
    211            if((i_Offset+by_Base) < by_Speed_MIN)
   \                     ??Speed_Get_Speed_0: (+1)
   \   0000002E   0x.... 0x....      LDR.W    R0,??DataTable46_6
   \   00000032   0xF9B0 0x0000      LDRSH    R0,[R0, #+0]
   \   00000036   0x.... 0x....      LDR.W    R1,??DataTable46_4
   \   0000003A   0x7809             LDRB     R1,[R1, #+0]
   \   0000003C   0x1808             ADDS     R0,R1,R0
   \   0000003E   0x.... 0x....      LDR.W    R1,??DataTable46_2
   \   00000042   0x7809             LDRB     R1,[R1, #+0]
   \   00000044   0x4288             CMP      R0,R1
   \   00000046   0xDA09             BGE.N    ??Speed_Get_Speed_2
    212            {
    213              by_Speed = by_Speed_MIN;
   \   00000048   0x.... 0x....      LDR.W    R0,??DataTable46_2
   \   0000004C   0x7800             LDRB     R0,[R0, #+0]
   \   0000004E   0x.... 0x....      LDR.W    R1,??DataTable46_3
   \   00000052   0x7008             STRB     R0,[R1, #+0]
    214              return(by_Speed);
   \   00000054   0x.... 0x....      LDR.W    R0,??DataTable46_3
   \   00000058   0x7800             LDRB     R0,[R0, #+0]
   \   0000005A   0xE00C             B.N      ??Speed_Get_Speed_1
    215            }
    216            by_Speed = i_Offset+by_Base;
   \                     ??Speed_Get_Speed_2: (+1)
   \   0000005C   0x.... 0x....      LDR.W    R0,??DataTable46_6
   \   00000060   0x8800             LDRH     R0,[R0, #+0]
   \   00000062   0x.... 0x....      LDR.W    R1,??DataTable46_4
   \   00000066   0x7809             LDRB     R1,[R1, #+0]
   \   00000068   0x1808             ADDS     R0,R1,R0
   \   0000006A   0x.... 0x....      LDR.W    R1,??DataTable46_3
   \   0000006E   0x7008             STRB     R0,[R1, #+0]
    217            return(by_Speed);
   \   00000070   0x.... 0x....      LDR.W    R0,??DataTable46_3
   \   00000074   0x7800             LDRB     R0,[R0, #+0]
   \                     ??Speed_Get_Speed_1: (+1)
   \   00000076   0x4770             BX       LR               ;; return
    218          }

   \                                 In section .text, align 2, keep-with-next
    219          void Speed_Updata_Speed(void)
    220          {
   \                     Speed_Updata_Speed: (+1)
   \   00000000   0xB580             PUSH     {R7,LR}
    221            if(b.SPEED_Auto == 1)return;//lxl20160111
   \   00000002   0x.... 0x....      LDR.W    R0,??DataTable46_7
   \   00000006   0x6800             LDR      R0,[R0, #+0]
   \   00000008   0xF3C0 0x1040      UBFX     R0,R0,#+5,#+1
   \   0000000C   0x2800             CMP      R0,#+0
   \   0000000E   0xD106             BNE.N    ??Speed_Updata_Speed_0
    222            //    Speed_Switch_PWM(Data_Get_Speed(TARGET_SPEED)/100);
    223            Speed_Switch_PWM(Program_Get_Speed(DATA_AUTO,1));
   \                     ??Speed_Updata_Speed_1: (+1)
   \   00000010   0x2101             MOVS     R1,#+1
   \   00000012   0x2002             MOVS     R0,#+2
   \   00000014   0x.... 0x....      BL       Program_Get_Speed
   \   00000018   0xB2C0             UXTB     R0,R0            ;; ZeroExt  R0,R0,#+24,#+24
   \   0000001A   0x.... 0x....      BL       Speed_Switch_PWM
    224            //    Program_Get_Speed(DATA_AUTO,1);
    225          }
   \                     ??Speed_Updata_Speed_0: (+1)
   \   0000001E   0xBD01             POP      {R0,PC}          ;; return

   \                                 In section .text, align 2, keep-with-next
    226          void Speed_Set_Speed(UCHAR by_Dat)
    227          {
   \                     Speed_Set_Speed: (+1)
   \   00000000   0xB510             PUSH     {R4,LR}
   \   00000002   0x0004             MOVS     R4,R0
    228            if(by_Dat > by_Speed_MAX) by_Dat = by_Speed_MAX;
   \   00000004   0x.... 0x....      LDR.W    R0,??DataTable46_10
   \   00000008   0x7800             LDRB     R0,[R0, #+0]
   \   0000000A   0x0021             MOVS     R1,R4
   \   0000000C   0xB2C9             UXTB     R1,R1            ;; ZeroExt  R1,R1,#+24,#+24
   \   0000000E   0x4288             CMP      R0,R1
   \   00000010   0xD203             BCS.N    ??Speed_Set_Speed_0
   \   00000012   0x.... 0x....      LDR.W    R0,??DataTable46_10
   \   00000016   0x7800             LDRB     R0,[R0, #+0]
   \   00000018   0x0004             MOVS     R4,R0
    229            if(by_Dat < by_Speed_MIN) by_Dat = by_Speed_MIN;
   \                     ??Speed_Set_Speed_0: (+1)
   \   0000001A   0x0020             MOVS     R0,R4
   \   0000001C   0x.... 0x....      LDR.W    R1,??DataTable46_2
   \   00000020   0x7809             LDRB     R1,[R1, #+0]
   \   00000022   0xB2C0             UXTB     R0,R0            ;; ZeroExt  R0,R0,#+24,#+24
   \   00000024   0x4288             CMP      R0,R1
   \   00000026   0xD203             BCS.N    ??Speed_Set_Speed_1
   \   00000028   0x.... 0x....      LDR.W    R0,??DataTable46_2
   \   0000002C   0x7800             LDRB     R0,[R0, #+0]
   \   0000002E   0x0004             MOVS     R4,R0
    230            by_Speed = by_Dat;
   \                     ??Speed_Set_Speed_1: (+1)
   \   00000030   0x.... 0x....      LDR.W    R0,??DataTable46_3
   \   00000034   0x7004             STRB     R4,[R0, #+0]
    231            i_Offset = by_Speed - by_Base;
   \   00000036   0x.... 0x....      LDR.W    R0,??DataTable46_3
   \   0000003A   0x7800             LDRB     R0,[R0, #+0]
   \   0000003C   0x.... 0x....      LDR.W    R1,??DataTable46_4
   \   00000040   0x7809             LDRB     R1,[R1, #+0]
   \   00000042   0x1A40             SUBS     R0,R0,R1
   \   00000044   0x.... 0x....      LDR.W    R1,??DataTable46_6
   \   00000048   0x8008             STRH     R0,[R1, #+0]
    232            Speed_Switch_PWM(by_Speed);
   \   0000004A   0x.... 0x....      LDR.W    R0,??DataTable46_3
   \   0000004E   0x7800             LDRB     R0,[R0, #+0]
   \   00000050   0x.... 0x....      BL       Speed_Switch_PWM
    233          }
   \   00000054   0xBD10             POP      {R4,PC}          ;; return
    234          //void Speed_Add_Speed(UCHAR by_Dat)
    235          //{
    236          //    if(by_Speed_MAX > (i_Offset+by_Base))
    237          //    {
    238          //        if((i_Offset+by_Base) < by_Speed_MIN)
    239          //        {
    240          //          by_Speed = by_Speed_MIN;
    241          //          i_Offset = by_Speed - by_Base;
    242          //        }
    243          //        if(b.SPEED_MODE == C_KM&& ((i_Offset+by_Base) >= 100))
    244          //        {
    245          //          i_Offset+=by_Dat;// i_Offset+=10*by_Dat;  by ckm
    246          //        }       
    247          //        else
    248          //        {
    249          //          i_Offset+=by_Dat;
    250          //        }
    251          //        by_Speed = i_Offset+by_Base;
    252          //    }
    253          //    Speed_Switch_PWM(by_Speed);
    254          //    //Speed_Switch_PWM_TEST(by_Speed);
    255          //}
    256          //void Speed_Dec_Speed(UCHAR by_Dat)
    257          //{
    258          //    if(by_Speed_MIN < (i_Offset+by_Base))
    259          //    {
    260          //        if((i_Offset+by_Base) > by_Speed_MAX)
    261          //        {
    262          //          by_Speed = by_Speed_MAX;
    263          //          i_Offset = by_Speed - by_Base;
    264          //        }
    265          //        if(b.SPEED_MODE == C_KM&& ((i_Offset+by_Base) > 100))
    266          //        {
    267          //          i_Offset-=by_Dat;// i_Offset+=10*by_Dat;  by ckm
    268          //        }
    269          //        else
    270          //        {
    271          //          i_Offset-=by_Dat;
    272          //        }
    273          //        by_Speed = i_Offset+by_Base;
    274          //    }
    275          //    Speed_Switch_PWM(by_Speed);
    276          //    //Speed_Switch_PWM_TEST(by_Speed);
    277          //}
    278          //

   \                                 In section .text, align 2, keep-with-next
    279          void Speed_Set_PWM_Test(void)
    280          {
    281            w_PWM_Dec_Step = 50;
   \                     Speed_Set_PWM_Test: (+1)
   \   00000000   0x2032             MOVS     R0,#+50
   \   00000002   0x.... 0x....      LDR.W    R1,??DataTable47_1
   \   00000006   0x8008             STRH     R0,[R1, #+0]
    282            w_PWM_Add_Step = 50;
   \   00000008   0x2032             MOVS     R0,#+50
   \   0000000A   0x.... 0x....      LDR.W    R1,??DataTable47_2
   \   0000000E   0x8008             STRH     R0,[R1, #+0]
    283            b.SPEED_Auto = 1;
   \   00000010   0x.... 0x....      LDR.W    R0,??DataTable46_7
   \   00000014   0x6800             LDR      R0,[R0, #+0]
   \   00000016   0xF050 0x0020      ORRS     R0,R0,#0x20
   \   0000001A   0x.... 0x....      LDR.W    R1,??DataTable46_7
   \   0000001E   0x6008             STR      R0,[R1, #+0]
    284          }
   \   00000020   0x4770             BX       LR               ;; return

   \                                 In section .text, align 2, keep-with-next
    285          void Speed_Calculate_PWM_Point(void)
    286          {
    287            static UCHAR by_S1,by_S2,by_S3,by_S4;
    288            by_S1 = by_Speed_SP1 - by_Speed_MIN;
   \                     Speed_Calculate_PWM_Point: (+1)
   \   00000000   0x.... 0x....      LDR.W    R0,??DataTable49
   \   00000004   0x7800             LDRB     R0,[R0, #+0]
   \   00000006   0x.... 0x....      LDR.W    R1,??DataTable46_2
   \   0000000A   0x7809             LDRB     R1,[R1, #+0]
   \   0000000C   0x1A40             SUBS     R0,R0,R1
   \   0000000E   0x.... 0x....      LDR.W    R1,??DataTable49_1
   \   00000012   0x7008             STRB     R0,[R1, #+0]
    289            by_S2 = by_Speed_MID - by_Speed_SP1;
   \   00000014   0x.... 0x....      LDR.W    R0,??DataTable49_2
   \   00000018   0x7800             LDRB     R0,[R0, #+0]
   \   0000001A   0x.... 0x....      LDR.W    R1,??DataTable49
   \   0000001E   0x7809             LDRB     R1,[R1, #+0]
   \   00000020   0x1A40             SUBS     R0,R0,R1
   \   00000022   0x.... 0x....      LDR.W    R1,??DataTable49_3
   \   00000026   0x7008             STRB     R0,[R1, #+0]
    290            by_S3 = by_Speed_SP2 - by_Speed_MID;
   \   00000028   0x.... 0x....      LDR.W    R0,??DataTable49_4
   \   0000002C   0x7800             LDRB     R0,[R0, #+0]
   \   0000002E   0x.... 0x....      LDR.W    R1,??DataTable49_2
   \   00000032   0x7809             LDRB     R1,[R1, #+0]
   \   00000034   0x1A40             SUBS     R0,R0,R1
   \   00000036   0x.... 0x....      LDR.W    R1,??DataTable49_5
   \   0000003A   0x7008             STRB     R0,[R1, #+0]
    291            by_S4 = by_Speed_MAX - by_Speed_SP2;
   \   0000003C   0x.... 0x....      LDR.W    R0,??DataTable46_10
   \   00000040   0x7800             LDRB     R0,[R0, #+0]
   \   00000042   0x.... 0x....      LDR.W    R1,??DataTable49_4
   \   00000046   0x7809             LDRB     R1,[R1, #+0]
   \   00000048   0x1A40             SUBS     R0,R0,R1
   \   0000004A   0x.... 0x....      LDR.W    R1,??DataTable49_6
   \   0000004E   0x7008             STRB     R0,[R1, #+0]
    292            
    293            w_S4_PWM_Data=((w_PWM_MAX*10)-(w_PWM_SP2*10))/by_S4;
   \   00000050   0x.... 0x....      LDR.W    R0,??DataTable50
   \   00000054   0x8800             LDRH     R0,[R0, #+0]
   \   00000056   0x210A             MOVS     R1,#+10
   \   00000058   0x4348             MULS     R0,R1,R0
   \   0000005A   0x.... 0x....      LDR.W    R1,??DataTable49_7
   \   0000005E   0x8809             LDRH     R1,[R1, #+0]
   \   00000060   0x220A             MOVS     R2,#+10
   \   00000062   0xFB02 0x0011      MLS      R0,R2,R1,R0
   \   00000066   0x.... 0x....      LDR.W    R1,??DataTable49_6
   \   0000006A   0x7809             LDRB     R1,[R1, #+0]
   \   0000006C   0xFB90 0xF0F1      SDIV     R0,R0,R1
   \   00000070   0x.... 0x....      LDR.W    R1,??DataTable49_8
   \   00000074   0x8008             STRH     R0,[R1, #+0]
    294            w_S3_PWM_Data=((w_PWM_SP2*10)-(w_PWM_MID*10))/by_S3;
   \   00000076   0x.... 0x....      LDR.W    R0,??DataTable49_7
   \   0000007A   0x8800             LDRH     R0,[R0, #+0]
   \   0000007C   0x210A             MOVS     R1,#+10
   \   0000007E   0x4348             MULS     R0,R1,R0
   \   00000080   0x.... 0x....      LDR.W    R1,??DataTable50_1
   \   00000084   0x8809             LDRH     R1,[R1, #+0]
   \   00000086   0x220A             MOVS     R2,#+10
   \   00000088   0xFB02 0x0011      MLS      R0,R2,R1,R0
   \   0000008C   0x.... 0x....      LDR.W    R1,??DataTable49_5
   \   00000090   0x7809             LDRB     R1,[R1, #+0]
   \   00000092   0xFB90 0xF0F1      SDIV     R0,R0,R1
   \   00000096   0x.... 0x....      LDR.W    R1,??DataTable50_2
   \   0000009A   0x8008             STRH     R0,[R1, #+0]
    295            w_S2_PWM_Data=((w_PWM_MID*10)-(w_PWM_SP1*10))/by_S2;
   \   0000009C   0x.... 0x....      LDR.W    R0,??DataTable50_1
   \   000000A0   0x8800             LDRH     R0,[R0, #+0]
   \   000000A2   0x210A             MOVS     R1,#+10
   \   000000A4   0x4348             MULS     R0,R1,R0
   \   000000A6   0x.... 0x....      LDR.W    R1,??DataTable50_3
   \   000000AA   0x8809             LDRH     R1,[R1, #+0]
   \   000000AC   0x220A             MOVS     R2,#+10
   \   000000AE   0xFB02 0x0011      MLS      R0,R2,R1,R0
   \   000000B2   0x.... 0x....      LDR.W    R1,??DataTable49_3
   \   000000B6   0x7809             LDRB     R1,[R1, #+0]
   \   000000B8   0xFB90 0xF0F1      SDIV     R0,R0,R1
   \   000000BC   0x.... 0x....      LDR.W    R1,??DataTable50_4
   \   000000C0   0x8008             STRH     R0,[R1, #+0]
    296            w_S1_PWM_Data=((w_PWM_SP1*10)-(w_PWM_MIN*10))/by_S1;
   \   000000C2   0x.... 0x....      LDR.W    R0,??DataTable50_3
   \   000000C6   0x8800             LDRH     R0,[R0, #+0]
   \   000000C8   0x210A             MOVS     R1,#+10
   \   000000CA   0x4348             MULS     R0,R1,R0
   \   000000CC   0x.... 0x....      LDR.W    R1,??DataTable50_5
   \   000000D0   0x8809             LDRH     R1,[R1, #+0]
   \   000000D2   0x220A             MOVS     R2,#+10
   \   000000D4   0xFB02 0x0011      MLS      R0,R2,R1,R0
   \   000000D8   0x.... 0x....      LDR.W    R1,??DataTable49_1
   \   000000DC   0x7809             LDRB     R1,[R1, #+0]
   \   000000DE   0xFB90 0xF0F1      SDIV     R0,R0,R1
   \   000000E2   0x.... 0x....      LDR.W    R1,??DataTable50_6
   \   000000E6   0x8008             STRH     R0,[R1, #+0]
    297            
    298            w_PWM_Add_Step=(w_PWM_MAX-w_PWM_MIN)/C_PWM_DELAY_ADD_TIME;//2800/150=18
   \   000000E8   0x.... 0x....      LDR.W    R0,??DataTable50
   \   000000EC   0x8800             LDRH     R0,[R0, #+0]
   \   000000EE   0x.... 0x....      LDR.W    R1,??DataTable50_5
   \   000000F2   0x8809             LDRH     R1,[R1, #+0]
   \   000000F4   0x1A40             SUBS     R0,R0,R1
   \   000000F6   0x214B             MOVS     R1,#+75
   \   000000F8   0xFB90 0xF0F1      SDIV     R0,R0,R1
   \   000000FC   0x.... 0x....      LDR.W    R1,??DataTable47_2
   \   00000100   0x8008             STRH     R0,[R1, #+0]
    299            w_PWM_Dec_Step=(w_PWM_MAX-w_PWM_MIN)/C_PWM_DELAY_DEC_TIME;//2800/100=28
   \   00000102   0x.... 0x....      LDR.W    R0,??DataTable50
   \   00000106   0x8800             LDRH     R0,[R0, #+0]
   \   00000108   0x.... 0x....      LDR.W    R1,??DataTable50_5
   \   0000010C   0x8809             LDRH     R1,[R1, #+0]
   \   0000010E   0x1A40             SUBS     R0,R0,R1
   \   00000110   0x2150             MOVS     R1,#+80
   \   00000112   0xFB90 0xF0F1      SDIV     R0,R0,R1
   \   00000116   0x.... 0x....      LDR.W    R1,??DataTable47_1
   \   0000011A   0x8008             STRH     R0,[R1, #+0]
    300          }
   \   0000011C   0x4770             BX       LR               ;; return

   \                                 In section .bss, align 1
   \                     `Speed_Calculate_PWM_Point::by_S1`:
   \   00000000                      DS8 1

   \                                 In section .bss, align 1
   \                     `Speed_Calculate_PWM_Point::by_S2`:
   \   00000000                      DS8 1

   \                                 In section .bss, align 1
   \                     `Speed_Calculate_PWM_Point::by_S3`:
   \   00000000                      DS8 1

   \                                 In section .bss, align 1
   \                     `Speed_Calculate_PWM_Point::by_S4`:
   \   00000000                      DS8 1

   \                                 In section .text, align 2, keep-with-next
    301          UCHAR Speed_Get_OK(void)
    302          {
    303            if(b.SPEED_OK) 
   \                     Speed_Get_OK: (+1)
   \   00000000   0x.... 0x....      LDR.W    R0,??DataTable46_7
   \   00000004   0x6800             LDR      R0,[R0, #+0]
   \   00000006   0xF3C0 0x0040      UBFX     R0,R0,#+1,#+1
   \   0000000A   0x2800             CMP      R0,#+0
   \   0000000C   0xD001             BEQ.N    ??Speed_Get_OK_0
    304              return(1);
   \   0000000E   0x2001             MOVS     R0,#+1
   \   00000010   0xE000             B.N      ??Speed_Get_OK_1
    305            else 
    306              return(0);
   \                     ??Speed_Get_OK_0: (+1)
   \   00000012   0x2000             MOVS     R0,#+0
   \                     ??Speed_Get_OK_1: (+1)
   \   00000014   0x4770             BX       LR               ;; return
    307          }

   \                                 In section .text, align 2, keep-with-next
    308          char Speed_Get_bySPEED()
    309          {
    310            return by_Speed;
   \                     Speed_Get_bySPEED: (+1)
   \   00000000   0x.... 0x....      LDR.W    R0,??DataTable46_3
   \   00000004   0x7800             LDRB     R0,[R0, #+0]
   \   00000006   0x4770             BX       LR               ;; return
    311          }
    312          

   \                                 In section .text, align 2, keep-with-next
    313          UCHAR Speed_Get_ERROR1(void)
    314          {
    315            if(b.SPEED_ERROR1) 
   \                     Speed_Get_ERROR1: (+1)
   \   00000000   0x.... 0x....      LDR.W    R0,??DataTable46_7
   \   00000004   0x6800             LDR      R0,[R0, #+0]
   \   00000006   0xF3C0 0x0080      UBFX     R0,R0,#+2,#+1
   \   0000000A   0x2800             CMP      R0,#+0
   \   0000000C   0xD001             BEQ.N    ??Speed_Get_ERROR1_0
    316              return(1);
   \   0000000E   0x2001             MOVS     R0,#+1
   \   00000010   0xE000             B.N      ??Speed_Get_ERROR1_1
    317            else 
    318              return(0);
   \                     ??Speed_Get_ERROR1_0: (+1)
   \   00000012   0x2000             MOVS     R0,#+0
   \                     ??Speed_Get_ERROR1_1: (+1)
   \   00000014   0x4770             BX       LR               ;; return
    319          }

   \                                 In section .text, align 2, keep-with-next
    320          void Speed_Set_ERROR1(UCHAR by_Dat)
    321          {
    322            if(by_Dat) 	 
   \                     Speed_Set_ERROR1: (+1)
   \   00000000   0xB2C0             UXTB     R0,R0            ;; ZeroExt  R0,R0,#+24,#+24
   \   00000002   0x2800             CMP      R0,#+0
   \   00000004   0xD008             BEQ.N    ??Speed_Set_ERROR1_0
    323              b.SPEED_ERROR1 = 1;
   \   00000006   0x.... 0x....      LDR.W    R1,??DataTable46_7
   \   0000000A   0x6809             LDR      R1,[R1, #+0]
   \   0000000C   0xF051 0x0104      ORRS     R1,R1,#0x4
   \   00000010   0x.... 0x....      LDR.W    R2,??DataTable46_7
   \   00000014   0x6011             STR      R1,[R2, #+0]
   \   00000016   0xE007             B.N      ??Speed_Set_ERROR1_1
    324            else     		 
    325              b.SPEED_ERROR1 = 0;
   \                     ??Speed_Set_ERROR1_0: (+1)
   \   00000018   0x.... 0x....      LDR.W    R1,??DataTable46_7
   \   0000001C   0x6809             LDR      R1,[R1, #+0]
   \   0000001E   0xF031 0x0104      BICS     R1,R1,#0x4
   \   00000022   0x.... 0x....      LDR.W    R2,??DataTable46_7
   \   00000026   0x6011             STR      R1,[R2, #+0]
    326          }
   \                     ??Speed_Set_ERROR1_1: (+1)
   \   00000028   0x4770             BX       LR               ;; return
    327          
    328          static UINT8 InclineNeedsToMove = 0;

   \                                 In section .bss, align 4
    329          static UINT32 InclineTimeout = 0;
   \                     InclineTimeout:
   \   00000000                      DS8 4
    330          #define MAX_INCLINE_RETURN_TO_ZERO_TIME_MS 20000
    331          
    332          //void SetInclineNeedsToMove(UINT8 val)
    333          //{
    334          //    InclineNeedsToMove = val;
    335          //}
    336          

   \                                 In section .text, align 2, keep-with-next
    337          void ResetInclinePauseZeroingTimer(void)
    338          {
    339              InclineTimeout = 0;
   \                     ResetInclinePauseZeroingTimer: (+1)
   \   00000000   0x2000             MOVS     R0,#+0
   \   00000002   0x.... 0x....      LDR.W    R1,??DataTable51
   \   00000006   0x6008             STR      R0,[R1, #+0]
    340          }
   \   00000008   0x4770             BX       LR               ;; return
    341          

   \                                 In section .text, align 2, keep-with-next
    342          void Speed_Process_PWM_Int_New(void)//250ms
    343          {
   \                     Speed_Process_PWM_Int_New: (+1)
   \   00000000   0xB53E             PUSH     {R1-R5,LR}
    344            unsigned int Temp[3];  //
                                ^
Warning[Pe550]: variable "Temp" was set but never used
    345            unsigned int PostSum;  
                                ^
Warning[Pe550]: variable "PostSum" was set but never used
    346            unsigned int NegSum;   
                                ^
Warning[Pe550]: variable "NegSum" was set but never used
    347            
    348            unsigned int RPM_Speed_Back;   
                                ^
Warning[Pe177]: variable "RPM_Speed_Back" was declared but never referenced
    349            unsigned int RPM_Speed_Target;   
                                ^
Warning[Pe177]: variable "RPM_Speed_Target" was declared but never referenced

  static UINT8 InclineNeedsToMove = 0;
               ^
"C:\Users\shaomingkun\Desktop\git\evolve5.0\2021sw\ECOM-5\Modules\LCB_Lib\Speed.c",328  Warning[Pe177]: 
          variable "InclineNeedsToMove" was declared but never referenced
    350            
    351            Temp[0] = 0;
   \   00000002   0x2000             MOVS     R0,#+0
   \   00000004   0x9000             STR      R0,[SP, #+0]
    352            Temp[1] = 0;
   \   00000006   0x2000             MOVS     R0,#+0
   \   00000008   0x9001             STR      R0,[SP, #+4]
    353            Temp[2] = 0;
   \   0000000A   0x2000             MOVS     R0,#+0
   \   0000000C   0x9002             STR      R0,[SP, #+8]
    354            
    355            PostSum = 0;
   \   0000000E   0x2000             MOVS     R0,#+0
   \   00000010   0x0004             MOVS     R4,R0
    356            NegSum = 0;	 
   \   00000012   0x2000             MOVS     R0,#+0
   \   00000014   0x0005             MOVS     R5,R0
    357            
    358            if(w_PWM_Time > C_PWM_STOP)
   \   00000016   0x.... 0x....      LDR.W    R0,??DataTable51_1
   \   0000001A   0x8800             LDRH     R0,[R0, #+0]
   \   0000001C   0x2879             CMP      R0,#+121
   \   0000001E   0xDB0D             BLT.N    ??Speed_Process_PWM_Int_New_0
    359            {
    360              if(b.SPEED_START)
   \   00000020   0x.... 0x....      LDR.W    R0,??DataTable46_7
   \   00000024   0x6800             LDR      R0,[R0, #+0]
   \   00000026   0xF3C0 0x00C0      UBFX     R0,R0,#+3,#+1
   \   0000002A   0x2800             CMP      R0,#+0
   \   0000002C   0xD009             BEQ.N    ??Speed_Process_PWM_Int_New_1
    361              {
    362                HW_Speed_Pwm_Enable(1);
   \   0000002E   0x2001             MOVS     R0,#+1
   \   00000030   0x.... 0x....      BL       HW_Speed_Pwm_Enable
    363                HW_Speed_Set_Motor(1);
   \   00000034   0x2001             MOVS     R0,#+1
   \   00000036   0x.... 0x....      BL       HW_Speed_Set_Motor
   \   0000003A   0xE002             B.N      ??Speed_Process_PWM_Int_New_1
    364              }
    365            }
    366          
    367            else
    368            {
    369             // HW_Speed_Set_Motor(0);
    370              HW_Speed_Pwm_Enable(0);
   \                     ??Speed_Process_PWM_Int_New_0: (+1)
   \   0000003C   0x2000             MOVS     R0,#+0
   \   0000003E   0x.... 0x....      BL       HW_Speed_Pwm_Enable
    371            }
    372            //-------------------------------------------------------------	
    373            HW_Speed_Pwm_Value(w_PWM_Time);   //----10us =  20time------
   \                     ??Speed_Process_PWM_Int_New_1: (+1)
   \   00000042   0x.... 0x....      LDR.W    R0,??DataTable51_1
   \   00000046   0x8800             LDRH     R0,[R0, #+0]
   \   00000048   0x.... 0x....      BL       HW_Speed_Pwm_Value
    374            //-------------------------------------------------------------	
    375            if(!b.SPEED_START)
   \   0000004C   0x.... 0x....      LDR.W    R0,??DataTable46_7
   \   00000050   0x6800             LDR      R0,[R0, #+0]
   \   00000052   0xF3C0 0x00C0      UBFX     R0,R0,#+3,#+1
   \   00000056   0x2800             CMP      R0,#+0
   \   00000058   0xD118             BNE.N    ??Speed_Process_PWM_Int_New_2
    376            {
    377              if(w_PWM_Time > (C_PWM_STOP+w_PWM_Dec_Step))  
   \   0000005A   0x.... 0x....      LDR.W    R0,??DataTable47_1
   \   0000005E   0x8800             LDRH     R0,[R0, #+0]
   \   00000060   0x3078             ADDS     R0,R0,#+120
   \   00000062   0x.... 0x....      LDR.W    R1,??DataTable51_1
   \   00000066   0x8809             LDRH     R1,[R1, #+0]
   \   00000068   0x4288             CMP      R0,R1
   \   0000006A   0xDA0A             BGE.N    ??Speed_Process_PWM_Int_New_3
    378                w_PWM_Time -= w_PWM_Dec_Step;//--??--
   \   0000006C   0x.... 0x....      LDR.W    R0,??DataTable51_1
   \   00000070   0x8800             LDRH     R0,[R0, #+0]
   \   00000072   0x.... 0x....      LDR.W    R1,??DataTable47_1
   \   00000076   0x8809             LDRH     R1,[R1, #+0]
   \   00000078   0x1A40             SUBS     R0,R0,R1
   \   0000007A   0x.... 0x....      LDR.W    R1,??DataTable51_1
   \   0000007E   0x8008             STRH     R0,[R1, #+0]
   \   00000080   0xE003             B.N      ??Speed_Process_PWM_Int_New_4
    379              else 
    380                w_PWM_Time = C_PWM_STOP;
   \                     ??Speed_Process_PWM_Int_New_3: (+1)
   \   00000082   0x2078             MOVS     R0,#+120
   \   00000084   0x.... 0x....      LDR.W    R1,??DataTable51_1
   \   00000088   0x8008             STRH     R0,[R1, #+0]
    381              return;
   \                     ??Speed_Process_PWM_Int_New_4: (+1)
   \   0000008A   0xE063             B.N      ??Speed_Process_PWM_Int_New_5
    382            }
    383            //HW_Speed_Pwm_Value(w_PWM_Time);
    384           // if((!RPM_Get_Speed()) || b.SPEED_Auto)
    385           // {
    386              if(w_PWM_Time == w_PWM_Target)
   \                     ??Speed_Process_PWM_Int_New_2: (+1)
   \   0000008C   0x.... 0x....      LDR.W    R0,??DataTable51_1
   \   00000090   0x8800             LDRH     R0,[R0, #+0]
   \   00000092   0x.... 0x....      LDR.W    R1,??DataTable46_9
   \   00000096   0x8809             LDRH     R1,[R1, #+0]
   \   00000098   0x4288             CMP      R0,R1
   \   0000009A   0xD108             BNE.N    ??Speed_Process_PWM_Int_New_6
    387              { 
    388                b.SPEED_OK = 1;
   \   0000009C   0x.... 0x....      LDR.W    R0,??DataTable46_7
   \   000000A0   0x6800             LDR      R0,[R0, #+0]
   \   000000A2   0xF050 0x0002      ORRS     R0,R0,#0x2
   \   000000A6   0x.... 0x....      LDR.W    R1,??DataTable46_7
   \   000000AA   0x6008             STR      R0,[R1, #+0]
    389                return; 
   \   000000AC   0xE052             B.N      ??Speed_Process_PWM_Int_New_5
    390              }
    391              
    392              b.SPEED_OK = 0;
   \                     ??Speed_Process_PWM_Int_New_6: (+1)
   \   000000AE   0x.... 0x....      LDR.W    R0,??DataTable46_7
   \   000000B2   0x6800             LDR      R0,[R0, #+0]
   \   000000B4   0xF030 0x0002      BICS     R0,R0,#0x2
   \   000000B8   0x.... 0x....      LDR.W    R1,??DataTable46_7
   \   000000BC   0x6008             STR      R0,[R1, #+0]
    393              
    394              if(w_PWM_Time > w_PWM_Target)
   \   000000BE   0x.... 0x....      LDR.W    R0,??DataTable46_9
   \   000000C2   0x8800             LDRH     R0,[R0, #+0]
   \   000000C4   0x.... 0x....      LDR.W    R1,??DataTable51_1
   \   000000C8   0x8809             LDRH     R1,[R1, #+0]
   \   000000CA   0x4288             CMP      R0,R1
   \   000000CC   0xD21D             BCS.N    ??Speed_Process_PWM_Int_New_7
    395              { 
    396                if(w_PWM_Time > (w_PWM_Target + w_PWM_Dec_Step))  w_PWM_Time -= w_PWM_Dec_Step;
   \   000000CE   0x.... 0x....      LDR.W    R0,??DataTable46_9
   \   000000D2   0x8800             LDRH     R0,[R0, #+0]
   \   000000D4   0x.... 0x....      LDR.W    R1,??DataTable47_1
   \   000000D8   0x8809             LDRH     R1,[R1, #+0]
   \   000000DA   0x1808             ADDS     R0,R1,R0
   \   000000DC   0x.... 0x....      LDR.W    R1,??DataTable51_1
   \   000000E0   0x8809             LDRH     R1,[R1, #+0]
   \   000000E2   0x4288             CMP      R0,R1
   \   000000E4   0xDA0A             BGE.N    ??Speed_Process_PWM_Int_New_8
   \   000000E6   0x.... 0x....      LDR.W    R0,??DataTable51_1
   \   000000EA   0x8800             LDRH     R0,[R0, #+0]
   \   000000EC   0x.... 0x....      LDR.W    R1,??DataTable47_1
   \   000000F0   0x8809             LDRH     R1,[R1, #+0]
   \   000000F2   0x1A40             SUBS     R0,R0,R1
   \   000000F4   0x.... 0x....      LDR.W    R1,??DataTable51_1
   \   000000F8   0x8008             STRH     R0,[R1, #+0]
   \   000000FA   0xE005             B.N      ??Speed_Process_PWM_Int_New_9
    397                else w_PWM_Time = w_PWM_Target;
   \                     ??Speed_Process_PWM_Int_New_8: (+1)
   \   000000FC   0x.... 0x....      LDR.W    R0,??DataTable46_9
   \   00000100   0x8800             LDRH     R0,[R0, #+0]
   \   00000102   0x.... 0x....      LDR.W    R1,??DataTable51_1
   \   00000106   0x8008             STRH     R0,[R1, #+0]
    398                return;
   \                     ??Speed_Process_PWM_Int_New_9: (+1)
   \   00000108   0xE024             B.N      ??Speed_Process_PWM_Int_New_5
    399              }
    400              if(w_PWM_Time < w_PWM_Target)
   \                     ??Speed_Process_PWM_Int_New_7: (+1)
   \   0000010A   0x.... 0x....      LDR.W    R0,??DataTable51_1
   \   0000010E   0x8800             LDRH     R0,[R0, #+0]
   \   00000110   0x.... 0x....      LDR.W    R1,??DataTable46_9
   \   00000114   0x8809             LDRH     R1,[R1, #+0]
   \   00000116   0x4288             CMP      R0,R1
   \   00000118   0xD21C             BCS.N    ??Speed_Process_PWM_Int_New_10
    401              {
    402                if(w_PWM_Time < (w_PWM_Target - w_PWM_Add_Step))  w_PWM_Time += w_PWM_Add_Step;
   \   0000011A   0x.... 0x....      LDR.W    R0,??DataTable51_1
   \   0000011E   0x8800             LDRH     R0,[R0, #+0]
   \   00000120   0x.... 0x....      LDR.W    R1,??DataTable46_9
   \   00000124   0x8809             LDRH     R1,[R1, #+0]
   \   00000126   0x.... 0x....      LDR.W    R2,??DataTable47_2
   \   0000012A   0x8812             LDRH     R2,[R2, #+0]
   \   0000012C   0x1A89             SUBS     R1,R1,R2
   \   0000012E   0x4288             CMP      R0,R1
   \   00000130   0xDA0A             BGE.N    ??Speed_Process_PWM_Int_New_11
   \   00000132   0x.... 0x....      LDR.W    R0,??DataTable51_1
   \   00000136   0x8800             LDRH     R0,[R0, #+0]
   \   00000138   0x.... 0x....      LDR.W    R1,??DataTable47_2
   \   0000013C   0x8809             LDRH     R1,[R1, #+0]
   \   0000013E   0x1808             ADDS     R0,R1,R0
   \   00000140   0x.... 0x....      LDR.W    R1,??DataTable51_1
   \   00000144   0x8008             STRH     R0,[R1, #+0]
   \   00000146   0xE004             B.N      ??Speed_Process_PWM_Int_New_12
    403                else w_PWM_Time = w_PWM_Target;
   \                     ??Speed_Process_PWM_Int_New_11: (+1)
   \   00000148   0x....             LDR.N    R0,??DataTable46_9
   \   0000014A   0x8800             LDRH     R0,[R0, #+0]
   \   0000014C   0x.... 0x....      LDR.W    R1,??DataTable51_1
   \   00000150   0x8008             STRH     R0,[R1, #+0]
    404                return;
   \                     ??Speed_Process_PWM_Int_New_12: (+1)
   \   00000152   0xE7FF             B.N      ??Speed_Process_PWM_Int_New_5
    405              }
    406            //}     
    407          //  else
    408          //  { 
    409          //    RPM_Speed_Back = RPM_Get_Speed();//---1mph = 100time---
    410          //    //        RPM_Speed_Target = by_Speed*10;//speed*10
    411          //    //        RPM_Speed_Target = Data_Get_Speed(TARGET_SPEED)/10;
    412          //    RPM_Speed_Target=Program_Get_Speed(DATA_AUTO,0)*10;//50 1000,  80,1600
    413          //    if((C_PWM_MAX == w_PWM_Time)&&(RPM_Speed_Back < 500 ))   Speed_Set_ERROR1(1);//---2mph = 200 times---
    414          //    if( RPM_Speed_Target > RPM_Speed_Back )  //实际设置目标速度比回传RPM大
    415          //    {
    416          //      Temp[0] = RPM_Speed_Target - RPM_Speed_Back;   //?衡Ek[0]100
    417          //      
    418          //      PID.Ek_Uint32[1] = PID.Ek_Uint32[0];
    419          //      PID.Ek_Uint32[0] = Temp[0];
    420          //      
    421          //      PID.EkFlag_Uint8[1] = PID.EkFlag_Uint8[0];
    422          //      PID.EkFlag_Uint8[0] = 0;                       //pwm up
    423          //      
    424          //      Temp[0]/*50*/ =  PID.Ek_Uint32[0]<<1;    // KP*EK0
    425          //      Temp[1]/*100*/ =  PID.Ek_Uint32[1];         // KI*EK1			       		 
    426          //    }
    427          //    else   //实际设置目标速度比回传RPM小
    428          //    {
    429          //      Temp[0] = RPM_Speed_Back - RPM_Speed_Target;   //?衡Ek[0]
    430          //      
    431          //      PID.Ek_Uint32[1] = PID.Ek_Uint32[0];
    432          //      PID.Ek_Uint32[0] = Temp[0];
    433          //      
    434          //      //才?簿		
    435          //      PID.EkFlag_Uint8[1] = PID.EkFlag_Uint8[0];
    436          //      PID.EkFlag_Uint8[0] = 1;                       //pwm down
    437          //      
    438          //      Temp[0] = PID.Ek_Uint32[0]<<1;    // KP*EK0
    439          //      Temp[1] =  PID.Ek_Uint32[1];        // KI*EK1			            	           	
    440          //    }	 
    441          //    //-------------------------------------------------------------
    442          //    if(PID.EkFlag_Uint8[0]==0)//本次速度小了需要加PWM，pwm up
    443          //    {
    444          //      PostSum += Temp[0];   //タ?㎝
    445          //    }
    446          //    else//本次速度大了，需要减的速度值
    447          //    {
    448          //      NegSum += Temp[0];    //??㎝
    449          //    }                         // KP*EK0
    450          //    //-------------------------------------------------------------	 
    451          //    if(PID.EkFlag_Uint8[1]!=0)  // 上次实际速度大了需要减PWM               pwm down   
    452          //    {
    453          //      PostSum += Temp[1];   //タ?㎝
    454          //    }
    455          //    else//上次实际速度小了，需要加PWM
    456          //    {
    457          //      NegSum += Temp[1];    //??㎝
    458          //    }                         // - kI * EK1				                                         
    459          //    //-------------------------------------------------------------		
    460          //    if( PostSum > NegSum )   //pwm up	
    461          //    {
    462          //      //------------------------
    463          //      Temp[0] = PostSum - NegSum;
    464          //      //------------------------					
    465          //      if((Temp[0] >= 1)&&(Temp[0] <= 80))
    466          //      {
    467          //        w_PWM_Time += Temp[0]>>2;
    468          //      }
    469          //      
    470          //      else
    471          //      {
    472          //        w_PWM_Time += w_PWM_Add_Step;
    473          //      }//---30---				
    474          //      
    475          //      if(w_PWM_Time > SystemConfig_Get_Int(PWM_MAX_UINT16)) 
    476          //      {
    477          //        w_PWM_Time =  SystemConfig_Get_Int(PWM_MAX_UINT16);
    478          //      }
    479          //      if(w_PWM_Time < step_limit)  
    480          //      {
    481          //        w_PWM_Time = step_limit;
    482          //      }
    483          //    }
    484          //    else  if( NegSum > PostSum )   //pwm down            
    485          //    {        	
    486          //      //------------------------
    487          //      Temp[0] = NegSum - PostSum;
    488          //      //------------------------					
    489          //      if((Temp[0] >= 1)&&(Temp[0] <= 80))
    490          //      {
    491          //        w_PWM_Time -= Temp[0]>>2; 
    492          //        if(w_PWM_Time < step_limit)//C_PWM_STOP340)  
    493          //        {
    494          //          w_PWM_Time = step_limit;//C_PWM_STOP;120
    495          //        }
    496          //      } 
    497          //      else
    498          //      {
    499          //        w_PWM_Time -= w_PWM_Dec_Step;//28
    500          //        if(w_PWM_Time < step_limit)//C_PWM_STOP340)  
    501          //        {
    502          //          w_PWM_Time = step_limit;//C_PWM_STOP;120
    503          //        }//换成：PWM_MIN_UINT16
    504          //        //校速后的值保存在其中，可以克服pwm因机台而异的问题
    505          //        //
    506          //      }//---30---	
    507          //      
    508          //      if(w_PWM_Time >  SystemConfig_Get_Int(PWM_MAX_UINT16))  
    509          //      {
    510          //        w_PWM_Time =  SystemConfig_Get_Int(PWM_MAX_UINT16);
    511          //      }
    512          //    }			
    513          //  }	
    514          }
   \                     ??Speed_Process_PWM_Int_New_10: (+1)
   \                     ??Speed_Process_PWM_Int_New_5: (+1)
   \   00000154   0xBD37             POP      {R0-R2,R4,R5,PC}  ;; return
    515          
    516          

   \                                 In section .text, align 2, keep-with-next
    517          void Speed_Switch_PWM(UCHAR by_Dat)
    518          {
    519            if(by_Dat <= by_Speed_MIN)
   \                     Speed_Switch_PWM: (+1)
   \   00000000   0x....             LDR.N    R1,??DataTable46_2
   \   00000002   0x7809             LDRB     R1,[R1, #+0]
   \   00000004   0x0002             MOVS     R2,R0
   \   00000006   0xB2D2             UXTB     R2,R2            ;; ZeroExt  R2,R2,#+24,#+24
   \   00000008   0x4291             CMP      R1,R2
   \   0000000A   0xD305             BCC.N    ??Speed_Switch_PWM_0
    520            {
    521              w_PWM_Target=w_PWM_MIN;
   \   0000000C   0x.... 0x....      LDR.W    R1,??DataTable50_5
   \   00000010   0x8809             LDRH     R1,[R1, #+0]
   \   00000012   0x....             LDR.N    R2,??DataTable46_9
   \   00000014   0x8011             STRH     R1,[R2, #+0]
    522              return;
   \   00000016   0xE0B3             B.N      ??Speed_Switch_PWM_1
    523            }
    524            if(by_Dat >= by_Speed_MAX)
   \                     ??Speed_Switch_PWM_0: (+1)
   \   00000018   0x0001             MOVS     R1,R0
   \   0000001A   0x....             LDR.N    R2,??DataTable46_10
   \   0000001C   0x7812             LDRB     R2,[R2, #+0]
   \   0000001E   0xB2C9             UXTB     R1,R1            ;; ZeroExt  R1,R1,#+24,#+24
   \   00000020   0x4291             CMP      R1,R2
   \   00000022   0xD305             BCC.N    ??Speed_Switch_PWM_2
    525            {
    526              w_PWM_Target=w_PWM_MAX;
   \   00000024   0x.... 0x....      LDR.W    R1,??DataTable50
   \   00000028   0x8809             LDRH     R1,[R1, #+0]
   \   0000002A   0x....             LDR.N    R2,??DataTable46_9
   \   0000002C   0x8011             STRH     R1,[R2, #+0]
    527              return;
   \   0000002E   0xE0A7             B.N      ??Speed_Switch_PWM_1
    528            }
    529            if(by_Dat == by_Speed_SP2)
   \                     ??Speed_Switch_PWM_2: (+1)
   \   00000030   0x0001             MOVS     R1,R0
   \   00000032   0x.... 0x....      LDR.W    R2,??DataTable49_4
   \   00000036   0x7812             LDRB     R2,[R2, #+0]
   \   00000038   0xB2C9             UXTB     R1,R1            ;; ZeroExt  R1,R1,#+24,#+24
   \   0000003A   0x4291             CMP      R1,R2
   \   0000003C   0xD105             BNE.N    ??Speed_Switch_PWM_3
    530            {
    531              w_PWM_Target=w_PWM_SP2;
   \   0000003E   0x.... 0x....      LDR.W    R1,??DataTable49_7
   \   00000042   0x8809             LDRH     R1,[R1, #+0]
   \   00000044   0x....             LDR.N    R2,??DataTable46_9
   \   00000046   0x8011             STRH     R1,[R2, #+0]
    532              return;
   \   00000048   0xE09A             B.N      ??Speed_Switch_PWM_1
    533            }
    534            if(by_Dat == by_Speed_MID)
   \                     ??Speed_Switch_PWM_3: (+1)
   \   0000004A   0x0001             MOVS     R1,R0
   \   0000004C   0x.... 0x....      LDR.W    R2,??DataTable49_2
   \   00000050   0x7812             LDRB     R2,[R2, #+0]
   \   00000052   0xB2C9             UXTB     R1,R1            ;; ZeroExt  R1,R1,#+24,#+24
   \   00000054   0x4291             CMP      R1,R2
   \   00000056   0xD105             BNE.N    ??Speed_Switch_PWM_4
    535            {
    536              w_PWM_Target=w_PWM_MID;
   \   00000058   0x.... 0x....      LDR.W    R1,??DataTable50_1
   \   0000005C   0x8809             LDRH     R1,[R1, #+0]
   \   0000005E   0x....             LDR.N    R2,??DataTable46_9
   \   00000060   0x8011             STRH     R1,[R2, #+0]
    537              return;
   \   00000062   0xE08D             B.N      ??Speed_Switch_PWM_1
    538            }
    539            if(by_Dat == by_Speed_SP1)
   \                     ??Speed_Switch_PWM_4: (+1)
   \   00000064   0x0001             MOVS     R1,R0
   \   00000066   0x.... 0x....      LDR.W    R2,??DataTable49
   \   0000006A   0x7812             LDRB     R2,[R2, #+0]
   \   0000006C   0xB2C9             UXTB     R1,R1            ;; ZeroExt  R1,R1,#+24,#+24
   \   0000006E   0x4291             CMP      R1,R2
   \   00000070   0xD105             BNE.N    ??Speed_Switch_PWM_5
    540            {
    541              w_PWM_Target=w_PWM_SP1;
   \   00000072   0x.... 0x....      LDR.W    R1,??DataTable50_3
   \   00000076   0x8809             LDRH     R1,[R1, #+0]
   \   00000078   0x....             LDR.N    R2,??DataTable46_9
   \   0000007A   0x8011             STRH     R1,[R2, #+0]
    542              return;
   \   0000007C   0xE080             B.N      ??Speed_Switch_PWM_1
    543            }
    544            if((by_Dat > by_Speed_MIN) && (by_Dat < by_Speed_SP1))
   \                     ??Speed_Switch_PWM_5: (+1)
   \   0000007E   0x....             LDR.N    R1,??DataTable46_2
   \   00000080   0x7809             LDRB     R1,[R1, #+0]
   \   00000082   0x0002             MOVS     R2,R0
   \   00000084   0xB2D2             UXTB     R2,R2            ;; ZeroExt  R2,R2,#+24,#+24
   \   00000086   0x4291             CMP      R1,R2
   \   00000088   0xD218             BCS.N    ??Speed_Switch_PWM_6
   \   0000008A   0x0001             MOVS     R1,R0
   \   0000008C   0x.... 0x....      LDR.W    R2,??DataTable49
   \   00000090   0x7812             LDRB     R2,[R2, #+0]
   \   00000092   0xB2C9             UXTB     R1,R1            ;; ZeroExt  R1,R1,#+24,#+24
   \   00000094   0x4291             CMP      R1,R2
   \   00000096   0xD211             BCS.N    ??Speed_Switch_PWM_6
    545            {
    546              w_PWM_Target=(((by_Dat-by_Speed_MIN)*(w_S1_PWM_Data))/10)+w_PWM_MIN;
   \   00000098   0xB2C0             UXTB     R0,R0            ;; ZeroExt  R0,R0,#+24,#+24
   \   0000009A   0x....             LDR.N    R1,??DataTable46_2
   \   0000009C   0x7809             LDRB     R1,[R1, #+0]
   \   0000009E   0x1A41             SUBS     R1,R0,R1
   \   000000A0   0x.... 0x....      LDR.W    R2,??DataTable50_6
   \   000000A4   0x8812             LDRH     R2,[R2, #+0]
   \   000000A6   0x4351             MULS     R1,R2,R1
   \   000000A8   0x220A             MOVS     R2,#+10
   \   000000AA   0xFB91 0xF1F2      SDIV     R1,R1,R2
   \   000000AE   0x.... 0x....      LDR.W    R2,??DataTable50_5
   \   000000B2   0x8812             LDRH     R2,[R2, #+0]
   \   000000B4   0x1851             ADDS     R1,R2,R1
   \   000000B6   0x....             LDR.N    R2,??DataTable46_9
   \   000000B8   0x8011             STRH     R1,[R2, #+0]
    547              return;
   \   000000BA   0xE061             B.N      ??Speed_Switch_PWM_1
    548            }
    549            if((by_Dat > by_Speed_SP1) && (by_Dat < by_Speed_MID))
   \                     ??Speed_Switch_PWM_6: (+1)
   \   000000BC   0x.... 0x....      LDR.W    R1,??DataTable49
   \   000000C0   0x7809             LDRB     R1,[R1, #+0]
   \   000000C2   0x0002             MOVS     R2,R0
   \   000000C4   0xB2D2             UXTB     R2,R2            ;; ZeroExt  R2,R2,#+24,#+24
   \   000000C6   0x4291             CMP      R1,R2
   \   000000C8   0xD219             BCS.N    ??Speed_Switch_PWM_7
   \   000000CA   0x0001             MOVS     R1,R0
   \   000000CC   0x.... 0x....      LDR.W    R2,??DataTable49_2
   \   000000D0   0x7812             LDRB     R2,[R2, #+0]
   \   000000D2   0xB2C9             UXTB     R1,R1            ;; ZeroExt  R1,R1,#+24,#+24
   \   000000D4   0x4291             CMP      R1,R2
   \   000000D6   0xD212             BCS.N    ??Speed_Switch_PWM_7
    550            {
    551              w_PWM_Target=(((by_Dat-by_Speed_SP1)*(w_S2_PWM_Data))/10)+w_PWM_SP1;
   \   000000D8   0xB2C0             UXTB     R0,R0            ;; ZeroExt  R0,R0,#+24,#+24
   \   000000DA   0x.... 0x....      LDR.W    R1,??DataTable49
   \   000000DE   0x7809             LDRB     R1,[R1, #+0]
   \   000000E0   0x1A41             SUBS     R1,R0,R1
   \   000000E2   0x.... 0x....      LDR.W    R2,??DataTable50_4
   \   000000E6   0x8812             LDRH     R2,[R2, #+0]
   \   000000E8   0x4351             MULS     R1,R2,R1
   \   000000EA   0x220A             MOVS     R2,#+10
   \   000000EC   0xFB91 0xF1F2      SDIV     R1,R1,R2
   \   000000F0   0x.... 0x....      LDR.W    R2,??DataTable50_3
   \   000000F4   0x8812             LDRH     R2,[R2, #+0]
   \   000000F6   0x1851             ADDS     R1,R2,R1
   \   000000F8   0x....             LDR.N    R2,??DataTable46_9
   \   000000FA   0x8011             STRH     R1,[R2, #+0]
    552              return;
   \   000000FC   0xE040             B.N      ??Speed_Switch_PWM_1
    553            }
    554            if((by_Dat > by_Speed_MID) && (by_Dat < by_Speed_SP2))
   \                     ??Speed_Switch_PWM_7: (+1)
   \   000000FE   0x.... 0x....      LDR.W    R1,??DataTable49_2
   \   00000102   0x7809             LDRB     R1,[R1, #+0]
   \   00000104   0x0002             MOVS     R2,R0
   \   00000106   0xB2D2             UXTB     R2,R2            ;; ZeroExt  R2,R2,#+24,#+24
   \   00000108   0x4291             CMP      R1,R2
   \   0000010A   0xD219             BCS.N    ??Speed_Switch_PWM_8
   \   0000010C   0x0001             MOVS     R1,R0
   \   0000010E   0x.... 0x....      LDR.W    R2,??DataTable49_4
   \   00000112   0x7812             LDRB     R2,[R2, #+0]
   \   00000114   0xB2C9             UXTB     R1,R1            ;; ZeroExt  R1,R1,#+24,#+24
   \   00000116   0x4291             CMP      R1,R2
   \   00000118   0xD212             BCS.N    ??Speed_Switch_PWM_8
    555            {
    556              w_PWM_Target=(((by_Dat-by_Speed_MID)*(w_S3_PWM_Data))/10)+w_PWM_MID;
   \   0000011A   0xB2C0             UXTB     R0,R0            ;; ZeroExt  R0,R0,#+24,#+24
   \   0000011C   0x.... 0x....      LDR.W    R1,??DataTable49_2
   \   00000120   0x7809             LDRB     R1,[R1, #+0]
   \   00000122   0x1A41             SUBS     R1,R0,R1
   \   00000124   0x.... 0x....      LDR.W    R2,??DataTable50_2
   \   00000128   0x8812             LDRH     R2,[R2, #+0]
   \   0000012A   0x4351             MULS     R1,R2,R1
   \   0000012C   0x220A             MOVS     R2,#+10
   \   0000012E   0xFB91 0xF1F2      SDIV     R1,R1,R2
   \   00000132   0x.... 0x....      LDR.W    R2,??DataTable50_1
   \   00000136   0x8812             LDRH     R2,[R2, #+0]
   \   00000138   0x1851             ADDS     R1,R2,R1
   \   0000013A   0x....             LDR.N    R2,??DataTable46_9
   \   0000013C   0x8011             STRH     R1,[R2, #+0]
    557              return;
   \   0000013E   0xE01F             B.N      ??Speed_Switch_PWM_1
    558            }
    559            if((by_Dat > by_Speed_SP2) && (by_Dat < by_Speed_MAX))
   \                     ??Speed_Switch_PWM_8: (+1)
   \   00000140   0x.... 0x....      LDR.W    R1,??DataTable49_4
   \   00000144   0x7809             LDRB     R1,[R1, #+0]
   \   00000146   0x0002             MOVS     R2,R0
   \   00000148   0xB2D2             UXTB     R2,R2            ;; ZeroExt  R2,R2,#+24,#+24
   \   0000014A   0x4291             CMP      R1,R2
   \   0000014C   0xD218             BCS.N    ??Speed_Switch_PWM_9
   \   0000014E   0x0001             MOVS     R1,R0
   \   00000150   0x....             LDR.N    R2,??DataTable46_10
   \   00000152   0x7812             LDRB     R2,[R2, #+0]
   \   00000154   0xB2C9             UXTB     R1,R1            ;; ZeroExt  R1,R1,#+24,#+24
   \   00000156   0x4291             CMP      R1,R2
   \   00000158   0xD212             BCS.N    ??Speed_Switch_PWM_9
    560            {
    561              w_PWM_Target=(((by_Dat-by_Speed_SP2)*(w_S4_PWM_Data))/10)+w_PWM_SP2;
   \   0000015A   0xB2C0             UXTB     R0,R0            ;; ZeroExt  R0,R0,#+24,#+24
   \   0000015C   0x.... 0x....      LDR.W    R1,??DataTable49_4
   \   00000160   0x7809             LDRB     R1,[R1, #+0]
   \   00000162   0x1A41             SUBS     R1,R0,R1
   \   00000164   0x.... 0x....      LDR.W    R2,??DataTable49_8
   \   00000168   0x8812             LDRH     R2,[R2, #+0]
   \   0000016A   0x4351             MULS     R1,R2,R1
   \   0000016C   0x220A             MOVS     R2,#+10
   \   0000016E   0xFB91 0xF1F2      SDIV     R1,R1,R2
   \   00000172   0x.... 0x....      LDR.W    R2,??DataTable49_7
   \   00000176   0x8812             LDRH     R2,[R2, #+0]
   \   00000178   0x1851             ADDS     R1,R2,R1
   \   0000017A   0x....             LDR.N    R2,??DataTable46_9
   \   0000017C   0x8011             STRH     R1,[R2, #+0]
    562              return;
   \   0000017E   0xE7FF             B.N      ??Speed_Switch_PWM_1
    563            }
    564          }
   \                     ??Speed_Switch_PWM_9: (+1)
   \                     ??Speed_Switch_PWM_1: (+1)
   \   00000180   0x4770             BX       LR               ;; return

   \                                 In section .text, align 2, keep-with-next
    565          UINT16 Speed_Get_PWM_Time(void)
    566          {
    567            return(w_PWM_Time);
   \                     Speed_Get_PWM_Time: (+1)
   \   00000000   0x.... 0x....      LDR.W    R0,??DataTable51_1
   \   00000004   0x8800             LDRH     R0,[R0, #+0]
   \   00000006   0x4770             BX       LR               ;; return
    568          }

   \                                 In section .text, align 2, keep-with-next
    569          UINT16 Speed_Get_PWM_Target(void)
    570          {
    571            return(w_PWM_Target);
   \                     Speed_Get_PWM_Target: (+1)
   \   00000000   0x.... 0x....      LDR.W    R0,??DataTable51_2
   \   00000004   0x8800             LDRH     R0,[R0, #+0]
   \   00000006   0x4770             BX       LR               ;; return
    572          }

   \                                 In section .text, align 2, keep-with-next
    573          void Speed_Add_PWM_Target(UCHAR by_Dat)
    574          {
   \                     Speed_Add_PWM_Target: (+1)
   \   00000000   0xB510             PUSH     {R4,LR}
   \   00000002   0x0004             MOVS     R4,R0
    575            if(( SystemConfig_Get_Int(PWM_MAX_UINT16)-by_Dat) > w_PWM_Target)                                                                                                             
   \   00000004   0x203C             MOVS     R0,#+60
   \   00000006   0x.... 0x....      BL       SystemConfig_Get_Int
   \   0000000A   0x.... 0x....      LDR.W    R1,??DataTable51_2
   \   0000000E   0x8809             LDRH     R1,[R1, #+0]
   \   00000010   0xB280             UXTH     R0,R0            ;; ZeroExt  R0,R0,#+16,#+16
   \   00000012   0xB2E4             UXTB     R4,R4            ;; ZeroExt  R4,R4,#+24,#+24
   \   00000014   0x1B00             SUBS     R0,R0,R4
   \   00000016   0x4281             CMP      R1,R0
   \   00000018   0xDA08             BGE.N    ??Speed_Add_PWM_Target_0
    576              w_PWM_Target += by_Dat;
   \   0000001A   0x.... 0x....      LDR.W    R0,??DataTable51_2
   \   0000001E   0x8800             LDRH     R0,[R0, #+0]
   \   00000020   0xB2E4             UXTB     R4,R4            ;; ZeroExt  R4,R4,#+24,#+24
   \   00000022   0x1820             ADDS     R0,R4,R0
   \   00000024   0x.... 0x....      LDR.W    R1,??DataTable51_2
   \   00000028   0x8008             STRH     R0,[R1, #+0]
   \   0000002A   0xE005             B.N      ??Speed_Add_PWM_Target_1
    577            else 
    578              w_PWM_Target =  SystemConfig_Get_Int(PWM_MAX_UINT16);
   \                     ??Speed_Add_PWM_Target_0: (+1)
   \   0000002C   0x203C             MOVS     R0,#+60
   \   0000002E   0x.... 0x....      BL       SystemConfig_Get_Int
   \   00000032   0x.... 0x....      LDR.W    R1,??DataTable51_2
   \   00000036   0x8008             STRH     R0,[R1, #+0]
    579          }
   \                     ??Speed_Add_PWM_Target_1: (+1)
   \   00000038   0xBD10             POP      {R4,PC}          ;; return

   \                                 In section .text, align 2, keep-with-next
    580          void Speed_Dec_PWM_Target(UCHAR by_Dat)
    581          {
    582            if((C_PWM_BASE+by_Dat) < w_PWM_Target) 
   \                     Speed_Dec_PWM_Target: (+1)
   \   00000000   0xB2C0             UXTB     R0,R0            ;; ZeroExt  R0,R0,#+24,#+24
   \   00000002   0xF110 0x0182      ADDS     R1,R0,#+130
   \   00000006   0x.... 0x....      LDR.W    R2,??DataTable51_2
   \   0000000A   0x8812             LDRH     R2,[R2, #+0]
   \   0000000C   0x4291             CMP      R1,R2
   \   0000000E   0xDA08             BGE.N    ??Speed_Dec_PWM_Target_0
    583              w_PWM_Target -= by_Dat;
   \   00000010   0x.... 0x....      LDR.W    R1,??DataTable51_2
   \   00000014   0x8809             LDRH     R1,[R1, #+0]
   \   00000016   0xB2C0             UXTB     R0,R0            ;; ZeroExt  R0,R0,#+24,#+24
   \   00000018   0x1A09             SUBS     R1,R1,R0
   \   0000001A   0x.... 0x....      LDR.W    R2,??DataTable51_2
   \   0000001E   0x8011             STRH     R1,[R2, #+0]
   \   00000020   0xE003             B.N      ??Speed_Dec_PWM_Target_1
    584            else 
    585              w_PWM_Target = C_PWM_BASE;
   \                     ??Speed_Dec_PWM_Target_0: (+1)
   \   00000022   0x2182             MOVS     R1,#+130
   \   00000024   0x.... 0x....      LDR.W    R2,??DataTable51_2
   \   00000028   0x8011             STRH     R1,[R2, #+0]
    586          }
   \                     ??Speed_Dec_PWM_Target_1: (+1)
   \   0000002A   0x4770             BX       LR               ;; return

   \                                 In section .text, align 2, keep-with-next
    587          void Speed_Set_PWM_Target(UINT16 w_Dat)
    588          {
    589            w_PWM_Target = w_Dat;
   \                     Speed_Set_PWM_Target: (+1)
   \   00000000   0x.... 0x....      LDR.W    R1,??DataTable51_2
   \   00000004   0x8008             STRH     R0,[R1, #+0]
    590          }
   \   00000006   0x4770             BX       LR               ;; return

   \                                 In section .text, align 2, keep-with-next
    591          void Speed_Quick_Stop(void)
    592          {
    593            b.SPEED_START = 0;
   \                     Speed_Quick_Stop: (+1)
   \   00000000   0x....             LDR.N    R0,??DataTable46_7
   \   00000002   0x6800             LDR      R0,[R0, #+0]
   \   00000004   0xF030 0x0008      BICS     R0,R0,#0x8
   \   00000008   0x....             LDR.N    R1,??DataTable46_7
   \   0000000A   0x6008             STR      R0,[R1, #+0]
    594            //w_PWM_Time = w_PWM_Target = C_PWM_STOP;
    595              w_PWM_Target = C_PWM_STOP;//zmj
   \   0000000C   0x2078             MOVS     R0,#+120
   \   0000000E   0x.... 0x....      LDR.W    R1,??DataTable51_2
   \   00000012   0x8008             STRH     R0,[R1, #+0]
    596          }
   \   00000014   0x4770             BX       LR               ;; return

   \                                 In section .text, align 2, keep-with-next
    597          UINT16 Speed_Get_PWM_MAX(void)
    598          {
    599            return(w_PWM_MAX);
   \                     Speed_Get_PWM_MAX: (+1)
   \   00000000   0x.... 0x....      LDR.W    R0,??DataTable51_3
   \   00000004   0x8800             LDRH     R0,[R0, #+0]
   \   00000006   0x4770             BX       LR               ;; return
    600          }

   \                                 In section .text, align 2, keep-with-next
    601          UINT16 Speed_Get_PWM_SP2(void)
    602          {
    603            return(w_PWM_SP2);
   \                     Speed_Get_PWM_SP2: (+1)
   \   00000000   0x.... 0x....      LDR.W    R0,??DataTable51_4
   \   00000004   0x8800             LDRH     R0,[R0, #+0]
   \   00000006   0x4770             BX       LR               ;; return
    604          }

   \                                 In section .text, align 2, keep-with-next
    605          UINT16 Speed_Get_PWM_MID(void)
    606          {
    607            return(w_PWM_MID);
   \                     Speed_Get_PWM_MID: (+1)
   \   00000000   0x.... 0x....      LDR.W    R0,??DataTable51_5
   \   00000004   0x8800             LDRH     R0,[R0, #+0]
   \   00000006   0x4770             BX       LR               ;; return
    608          }

   \                                 In section .text, align 2, keep-with-next
    609          UINT16 Speed_Get_PWM_SP1(void)
    610          {
    611            return(w_PWM_SP1);
   \                     Speed_Get_PWM_SP1: (+1)
   \   00000000   0x.... 0x....      LDR.W    R0,??DataTable51_6
   \   00000004   0x8800             LDRH     R0,[R0, #+0]
   \   00000006   0x4770             BX       LR               ;; return
    612          }

   \                                 In section .text, align 2, keep-with-next
    613          UINT16 Speed_Get_PWM_MIN(void)
    614          {
    615            return(w_PWM_MIN);
   \                     Speed_Get_PWM_MIN: (+1)
   \   00000000   0x.... 0x....      LDR.W    R0,??DataTable51_7
   \   00000004   0x8800             LDRH     R0,[R0, #+0]
   \   00000006   0x4770             BX       LR               ;; return
    616          }

   \                                 In section .text, align 2, keep-with-next
    617          void Speed_Set_PWM_MAX(UINT16 w_Dat)
    618          {
    619            w_PWM_MAX=w_Dat;
   \                     Speed_Set_PWM_MAX: (+1)
   \   00000000   0x.... 0x....      LDR.W    R1,??DataTable51_3
   \   00000004   0x8008             STRH     R0,[R1, #+0]
    620          }
   \   00000006   0x4770             BX       LR               ;; return

   \                                 In section .text, align 2, keep-with-next
    621          void Speed_Set_PWM_SP2(UINT16 w_Dat)
    622          {
    623            w_PWM_SP2=w_Dat;
   \                     Speed_Set_PWM_SP2: (+1)
   \   00000000   0x.... 0x....      LDR.W    R1,??DataTable51_4
   \   00000004   0x8008             STRH     R0,[R1, #+0]
    624          }
   \   00000006   0x4770             BX       LR               ;; return

   \                                 In section .text, align 2, keep-with-next
    625          void Speed_Set_PWM_MIN(UINT16 w_Dat)
    626          {
    627            w_PWM_MIN=w_Dat;
   \                     Speed_Set_PWM_MIN: (+1)
   \   00000000   0x.... 0x....      LDR.W    R1,??DataTable51_7
   \   00000004   0x8008             STRH     R0,[R1, #+0]
    628          }
   \   00000006   0x4770             BX       LR               ;; return

   \                                 In section .text, align 2, keep-with-next
    629          void Speed_Set_PWM_SP1(UINT16 w_Dat)
    630          {
    631            w_PWM_SP1=w_Dat;
   \                     Speed_Set_PWM_SP1: (+1)
   \   00000000   0x.... 0x....      LDR.W    R1,??DataTable51_6
   \   00000004   0x8008             STRH     R0,[R1, #+0]
    632          }	
   \   00000006   0x4770             BX       LR               ;; return

   \                                 In section .text, align 2, keep-with-next
    633          void Speed_Set_PWM_MID(UINT16 w_Dat)
    634          {
    635            w_PWM_MID=w_Dat;
   \                     Speed_Set_PWM_MID: (+1)
   \   00000000   0x.... 0x....      LDR.W    R1,??DataTable51_5
   \   00000004   0x8008             STRH     R0,[R1, #+0]
    636          }	
   \   00000006   0x4770             BX       LR               ;; return

   \                                 In section .text, align 2, keep-with-next
    637          void Speed_Set_MAX(UCHAR by_Dat)
    638          {
    639            by_Speed_MAX = by_Dat;
   \                     Speed_Set_MAX: (+1)
   \   00000000   0x.... 0x....      LDR.W    R1,??DataTable51_8
   \   00000004   0x7008             STRB     R0,[R1, #+0]
    640          }
   \   00000006   0x4770             BX       LR               ;; return

   \                                 In section .text, align 2, keep-with-next
    641          void Speed_Set_SP2(UCHAR by_Dat)
    642          {
    643            by_Speed_SP2 = by_Dat;
   \                     Speed_Set_SP2: (+1)
   \   00000000   0x.... 0x....      LDR.W    R1,??DataTable51_9
   \   00000004   0x7008             STRB     R0,[R1, #+0]
    644          }
   \   00000006   0x4770             BX       LR               ;; return

   \                                 In section .text, align 2, keep-with-next
    645          void Speed_Set_MID(UCHAR by_Dat)
    646          {
    647            by_Speed_MID = by_Dat;
   \                     Speed_Set_MID: (+1)
   \   00000000   0x.... 0x....      LDR.W    R1,??DataTable51_10
   \   00000004   0x7008             STRB     R0,[R1, #+0]
    648          }
   \   00000006   0x4770             BX       LR               ;; return

   \                                 In section .text, align 2, keep-with-next
    649          void Speed_Set_SP1(UCHAR by_Dat)
    650          {
    651            by_Speed_SP1 = by_Dat;
   \                     Speed_Set_SP1: (+1)
   \   00000000   0x.... 0x....      LDR.W    R1,??DataTable51_11
   \   00000004   0x7008             STRB     R0,[R1, #+0]
    652          }
   \   00000006   0x4770             BX       LR               ;; return

   \                                 In section .text, align 2, keep-with-next
    653          void Speed_Set_MIN(UCHAR by_Dat)
    654          {
    655            by_Speed_MIN = by_Dat;
   \                     Speed_Set_MIN: (+1)
   \   00000000   0x.... 0x....      LDR.W    R1,??DataTable51_12
   \   00000004   0x7008             STRB     R0,[R1, #+0]
    656          }
   \   00000006   0x4770             BX       LR               ;; return

   \                                 In section .text, align 2, keep-with-next
    657          char Speed_Get_MAX(void)
    658          {
    659            return(by_Speed_MAX);
   \                     Speed_Get_MAX: (+1)
   \   00000000   0x.... 0x....      LDR.W    R0,??DataTable51_8
   \   00000004   0x7800             LDRB     R0,[R0, #+0]
   \   00000006   0x4770             BX       LR               ;; return
    660          }

   \                                 In section .text, align 2, keep-with-next
    661          char Speed_Get_MIN(void)
    662          {
    663            return(by_Speed_MIN);
   \                     Speed_Get_MIN: (+1)
   \   00000000   0x.... 0x....      LDR.W    R0,??DataTable51_12
   \   00000004   0x7800             LDRB     R0,[R0, #+0]
   \   00000006   0x4770             BX       LR               ;; return
    664          }
    665          
    666          #define C_AUTO_OFFSET 10
    667          #define C_AUTO_E1_TIME 5
    668          #define C_MAX_SPEED_AUTO_STEP 12//12 
    669          

   \                                 In section .bss, align 2
    670          static UINT16 w_PWM_Old = 0;
                               ^
Warning[Pe550]: variable "w_PWM_Old" was set but never used
   \                     w_PWM_Old:
   \   00000000                      DS8 2

   \                                 In section .bss, align 2
    671          static UINT16 w_Speed_Old = 0;
                               ^
Warning[Pe550]: variable "w_Speed_Old" was set but never used
   \                     w_Speed_Old:
   \   00000000                      DS8 2

   \                                 In section .bss, align 1
    672          static UCHAR by_Stop_Time=0;
   \                     by_Stop_Time:
   \   00000000                      DS8 1
    673          

   \                                 In section .text, align 2, keep-with-next
    674          void Speed_Clear_Auto(void)
    675          {
    676            w_PWM_Old = 0;
   \                     Speed_Clear_Auto: (+1)
   \   00000000   0x2000             MOVS     R0,#+0
   \   00000002   0x.... 0x....      LDR.W    R1,??DataTable51_13
   \   00000006   0x8008             STRH     R0,[R1, #+0]
    677            w_Speed_Old = 0;
   \   00000008   0x2000             MOVS     R0,#+0
   \   0000000A   0x.... 0x....      LDR.W    R1,??DataTable51_14
   \   0000000E   0x8008             STRH     R0,[R1, #+0]
    678            by_Stop_Time = 0;
   \   00000010   0x2000             MOVS     R0,#+0
   \   00000012   0x.... 0x....      LDR.W    R1,??DataTable51_15
   \   00000016   0x7008             STRB     R0,[R1, #+0]
    679          }
   \   00000018   0x4770             BX       LR               ;; return
    680          

   \                                 In section .text, align 2, keep-with-next
    681          UCHAR Speed_Auto_Check_Move(UINT16 w_RPM_Speed)
    682          {
   \                     Speed_Auto_Check_Move: (+1)
   \   00000000   0x0001             MOVS     R1,R0
    683            if(!b.AUTO_FLAG) return 0 ;
   \   00000002   0x....             LDR.N    R0,??DataTable46_7
   \   00000004   0x6800             LDR      R0,[R0, #+0]
   \   00000006   0xF3C0 0x1000      UBFX     R0,R0,#+4,#+1
   \   0000000A   0x2800             CMP      R0,#+0
   \   0000000C   0xD101             BNE.N    ??Speed_Auto_Check_Move_0
   \   0000000E   0x2000             MOVS     R0,#+0
   \   00000010   0xE026             B.N      ??Speed_Auto_Check_Move_1
    684            b.AUTO_FLAG = 0;
   \                     ??Speed_Auto_Check_Move_0: (+1)
   \   00000012   0x....             LDR.N    R0,??DataTable46_7
   \   00000014   0x6800             LDR      R0,[R0, #+0]
   \   00000016   0xF030 0x0010      BICS     R0,R0,#0x10
   \   0000001A   0x....             LDR.N    R2,??DataTable46_7
   \   0000001C   0x6010             STR      R0,[R2, #+0]
    685            if(w_RPM_Speed == 0)//every 2 seconds
   \   0000001E   0xB289             UXTH     R1,R1            ;; ZeroExt  R1,R1,#+16,#+16
   \   00000020   0x2900             CMP      R1,#+0
   \   00000022   0xD111             BNE.N    ??Speed_Auto_Check_Move_2
    686            {
    687              if(by_Stop_Time > 1)  w_PWM_Target+= 50;
   \   00000024   0x.... 0x....      LDR.W    R0,??DataTable51_15
   \   00000028   0x7800             LDRB     R0,[R0, #+0]
   \   0000002A   0x2802             CMP      R0,#+2
   \   0000002C   0xDB04             BLT.N    ??Speed_Auto_Check_Move_3
   \   0000002E   0x....             LDR.N    R0,??DataTable46_9
   \   00000030   0x8800             LDRH     R0,[R0, #+0]
   \   00000032   0x3032             ADDS     R0,R0,#+50
   \   00000034   0x....             LDR.N    R2,??DataTable46_9
   \   00000036   0x8010             STRH     R0,[R2, #+0]
    688              by_Stop_Time++;
   \                     ??Speed_Auto_Check_Move_3: (+1)
   \   00000038   0x.... 0x....      LDR.W    R0,??DataTable51_15
   \   0000003C   0x7800             LDRB     R0,[R0, #+0]
   \   0000003E   0x1C40             ADDS     R0,R0,#+1
   \   00000040   0x.... 0x....      LDR.W    R2,??DataTable51_15
   \   00000044   0x7010             STRB     R0,[R2, #+0]
   \   00000046   0xE003             B.N      ??Speed_Auto_Check_Move_4
    689            }
    690            else 
    691              by_Stop_Time=0;
   \                     ??Speed_Auto_Check_Move_2: (+1)
   \   00000048   0x2000             MOVS     R0,#+0
   \   0000004A   0x.... 0x....      LDR.W    R2,??DataTable51_15
   \   0000004E   0x7010             STRB     R0,[R2, #+0]
    692            if(by_Stop_Time >= (C_AUTO_E1_TIME+2)) //14s
   \                     ??Speed_Auto_Check_Move_4: (+1)
   \   00000050   0x.... 0x....      LDR.W    R0,??DataTable51_15
   \   00000054   0x7800             LDRB     R0,[R0, #+0]
   \   00000056   0x2807             CMP      R0,#+7
   \   00000058   0xDB01             BLT.N    ??Speed_Auto_Check_Move_5
    693              return 1;
   \   0000005A   0x2001             MOVS     R0,#+1
   \   0000005C   0xE000             B.N      ??Speed_Auto_Check_Move_1
    694            else 
    695              return 0;
   \                     ??Speed_Auto_Check_Move_5: (+1)
   \   0000005E   0x2000             MOVS     R0,#+0
   \                     ??Speed_Auto_Check_Move_1: (+1)
   \   00000060   0x4770             BX       LR               ;; return
    696          }

   \                                 In section .data, align 1
    697          static UINT8 old_by_mode=0xff;
   \                     old_by_mode:
   \   00000000   0xFF               DC8 255

   \                                 In section .bss, align 4
    698          float K1,B1;
   \                     K1:
   \   00000000                      DS8 4

   \                                 In section .bss, align 4
   \                     B1:
   \   00000000                      DS8 4

   \                                 In section .bss, align 2
    699          UINT16  pwm_value; 
   \                     pwm_value:
   \   00000000                      DS8 2

   \                                 In section .text, align 2, keep-with-next
    700          UCHAR Speed_Auto_Run(UCHAR by_Mode,UINT16 w_RPM_Speed)
    701          {
   \                     Speed_Auto_Run: (+1)
   \   00000000   0xE92D 0x41F0      PUSH     {R4-R8,LR}
   \   00000004   0x0004             MOVS     R4,R0
   \   00000006   0x000D             MOVS     R5,R1
    702            
    703            UINT16 w_Target,Mode_PWM_Target;
    704            //UINT16 w_PWM_Offset;
    705          static int RPM0,RPM1,RPM2,RPM3,RPM4;
    706          static int pwm0,pwm1, pwm2,pwm3,pwm4;
    707          static int MIN_Speed_Compute_PWM_flag=0;
    708            switch(by_Mode)
   \   00000008   0xB2E4             UXTB     R4,R4            ;; ZeroExt  R4,R4,#+24,#+24
   \   0000000A   0x2C00             CMP      R4,#+0
   \   0000000C   0xD006             BEQ.N    ??Speed_Auto_Run_0
   \   0000000E   0x2C02             CMP      R4,#+2
   \   00000010   0xD018             BEQ.N    ??Speed_Auto_Run_1
   \   00000012   0xD30D             BCC.N    ??Speed_Auto_Run_2
   \   00000014   0x2C04             CMP      R4,#+4
   \   00000016   0xD029             BEQ.N    ??Speed_Auto_Run_3
   \   00000018   0xD31E             BCC.N    ??Speed_Auto_Run_4
   \   0000001A   0xE031             B.N      ??Speed_Auto_Run_5
    709            {
    710              case 0 : w_Target =  by_Speed_MIN*10;  Mode_PWM_Target=700; break;//80
   \                     ??Speed_Auto_Run_0: (+1)
   \   0000001C   0x.... 0x....      LDR.W    R0,??DataTable51_12
   \   00000020   0x7800             LDRB     R0,[R0, #+0]
   \   00000022   0x210A             MOVS     R1,#+10
   \   00000024   0x4348             MULS     R0,R1,R0
   \   00000026   0x0006             MOVS     R6,R0
   \   00000028   0xF44F 0x702F      MOV      R0,#+700
   \   0000002C   0x0007             MOVS     R7,R0
   \   0000002E   0xE027             B.N      ??Speed_Auto_Run_6
    711              case 1 : w_Target =  by_Speed_SP1*10;  Mode_PWM_Target=1600; break;//430
   \                     ??Speed_Auto_Run_2: (+1)
   \   00000030   0x.... 0x....      LDR.W    R0,??DataTable49
   \   00000034   0x7800             LDRB     R0,[R0, #+0]
   \   00000036   0x210A             MOVS     R1,#+10
   \   00000038   0x4348             MULS     R0,R1,R0
   \   0000003A   0x0006             MOVS     R6,R0
   \   0000003C   0xF44F 0x60C8      MOV      R0,#+1600
   \   00000040   0x0007             MOVS     R7,R0
   \   00000042   0xE01D             B.N      ??Speed_Auto_Run_6
    712              case 2 : w_Target =  by_Speed_MID*10;  Mode_PWM_Target=3200; break;
   \                     ??Speed_Auto_Run_1: (+1)
   \   00000044   0x.... 0x....      LDR.W    R0,??DataTable49_2
   \   00000048   0x7800             LDRB     R0,[R0, #+0]
   \   0000004A   0x210A             MOVS     R1,#+10
   \   0000004C   0x4348             MULS     R0,R1,R0
   \   0000004E   0x0006             MOVS     R6,R0
   \   00000050   0xF44F 0x6048      MOV      R0,#+3200
   \   00000054   0x0007             MOVS     R7,R0
   \   00000056   0xE013             B.N      ??Speed_Auto_Run_6
    713              case 3 : w_Target =  by_Speed_SP2*10;  Mode_PWM_Target=4800; break;
   \                     ??Speed_Auto_Run_4: (+1)
   \   00000058   0x.... 0x....      LDR.W    R0,??DataTable49_4
   \   0000005C   0x7800             LDRB     R0,[R0, #+0]
   \   0000005E   0x210A             MOVS     R1,#+10
   \   00000060   0x4348             MULS     R0,R1,R0
   \   00000062   0x0006             MOVS     R6,R0
   \   00000064   0xF44F 0x5096      MOV      R0,#+4800
   \   00000068   0x0007             MOVS     R7,R0
   \   0000006A   0xE009             B.N      ??Speed_Auto_Run_6
    714              case 4 : w_Target =  by_Speed_MAX*10;  Mode_PWM_Target=7100; break;//1600
   \                     ??Speed_Auto_Run_3: (+1)
   \   0000006C   0x.... 0x....      LDR.W    R0,??DataTable51_8
   \   00000070   0x7800             LDRB     R0,[R0, #+0]
   \   00000072   0x210A             MOVS     R1,#+10
   \   00000074   0x4348             MULS     R0,R1,R0
   \   00000076   0x0006             MOVS     R6,R0
   \   00000078   0xF641 0x30BC      MOVW     R0,#+7100
   \   0000007C   0x0007             MOVS     R7,R0
   \   0000007E   0xE7FF             B.N      ??Speed_Auto_Run_6
    715              default:break;
    716            }
    717          if(old_by_mode!=by_Mode)
   \                     ??Speed_Auto_Run_5: (+1)
   \                     ??Speed_Auto_Run_6: (+1)
   \   00000080   0x.... 0x....      LDR.W    R0,??DataTable51_16
   \   00000084   0x7800             LDRB     R0,[R0, #+0]
   \   00000086   0x0021             MOVS     R1,R4
   \   00000088   0xB2C9             UXTB     R1,R1            ;; ZeroExt  R1,R1,#+24,#+24
   \   0000008A   0x4288             CMP      R0,R1
   \   0000008C   0xD007             BEQ.N    ??Speed_Auto_Run_7
    718          	{
    719          	  old_by_mode=by_Mode;
   \   0000008E   0x.... 0x....      LDR.W    R0,??DataTable51_16
   \   00000092   0x7004             STRB     R4,[R0, #+0]
    720          	w_PWM_Target = Mode_PWM_Target;
   \   00000094   0x.... 0x....      LDR.W    R0,??DataTable51_2
   \   00000098   0x8007             STRH     R7,[R0, #+0]
    721          	return 0;
   \   0000009A   0x2000             MOVS     R0,#+0
   \   0000009C   0xE182             B.N      ??Speed_Auto_Run_8
    722          
    723          	}
    724            if(w_PWM_Time==w_PWM_Target){
   \                     ??Speed_Auto_Run_7: (+1)
   \   0000009E   0x.... 0x....      LDR.W    R0,??DataTable51_1
   \   000000A2   0x8800             LDRH     R0,[R0, #+0]
   \   000000A4   0x.... 0x....      LDR.W    R1,??DataTable51_2
   \   000000A8   0x8809             LDRH     R1,[R1, #+0]
   \   000000AA   0x4288             CMP      R0,R1
   \   000000AC   0xF040 0x813E      BNE.W    ??Speed_Auto_Run_9
    725           switch(by_Mode)
   \   000000B0   0xB2E4             UXTB     R4,R4            ;; ZeroExt  R4,R4,#+24,#+24
   \   000000B2   0x2C00             CMP      R4,#+0
   \   000000B4   0xD008             BEQ.N    ??Speed_Auto_Run_10
   \   000000B6   0x2C02             CMP      R4,#+2
   \   000000B8   0xD071             BEQ.N    ??Speed_Auto_Run_11
   \   000000BA   0xD31A             BCC.N    ??Speed_Auto_Run_12
   \   000000BC   0x2C04             CMP      R4,#+4
   \   000000BE   0xF000 0x80EE      BEQ.W    ??Speed_Auto_Run_13
   \   000000C2   0xF0C0 0x80AC      BCC.W    ??Speed_Auto_Run_14
   \   000000C6   0xE12A             B.N      ??Speed_Auto_Run_15
    726            {
    727              case 0 : RPM0=w_RPM_Speed; pwm0=Mode_PWM_Target; 
   \                     ??Speed_Auto_Run_10: (+1)
   \   000000C8   0xB2AD             UXTH     R5,R5            ;; ZeroExt  R5,R5,#+16,#+16
   \   000000CA   0x.... 0x....      LDR.W    R0,??DataTable51_17
   \   000000CE   0x6005             STR      R5,[R0, #+0]
   \   000000D0   0xB2BF             UXTH     R7,R7            ;; ZeroExt  R7,R7,#+16,#+16
   \   000000D2   0x.... 0x....      LDR.W    R0,??DataTable51_18
   \   000000D6   0x6007             STR      R7,[R0, #+0]
    728              MIN_Speed_Compute_PWM_flag=1;
   \   000000D8   0x2001             MOVS     R0,#+1
   \   000000DA   0x.... 0x....      LDR.W    R1,??DataTable51_19
   \   000000DE   0x6008             STR      R0,[R1, #+0]
    729              extern UINT8 Eng2_Px;
    730              Eng2_Px++;
   \   000000E0   0x.... 0x....      LDR.W    R0,??DataTable51_20
   \   000000E4   0x7800             LDRB     R0,[R0, #+0]
   \   000000E6   0x1C40             ADDS     R0,R0,#+1
   \   000000E8   0x.... 0x....      LDR.W    R1,??DataTable51_20
   \   000000EC   0x7008             STRB     R0,[R1, #+0]
    731              return 0; 
   \   000000EE   0x2000             MOVS     R0,#+0
   \   000000F0   0xE158             B.N      ??Speed_Auto_Run_8
    732              break;
    733              case 1 : RPM1=w_RPM_Speed; pwm1=Mode_PWM_Target;K1=((float)pwm1-pwm0)/(RPM1-RPM0);B1=(pwm1-RPM1*K1); 
   \                     ??Speed_Auto_Run_12: (+1)
   \   000000F2   0xB2AD             UXTH     R5,R5            ;; ZeroExt  R5,R5,#+16,#+16
   \   000000F4   0x.... 0x....      LDR.W    R0,??DataTable51_21
   \   000000F8   0x6005             STR      R5,[R0, #+0]
   \   000000FA   0xB2BF             UXTH     R7,R7            ;; ZeroExt  R7,R7,#+16,#+16
   \   000000FC   0x.... 0x....      LDR.W    R0,??DataTable51_22
   \   00000100   0x6007             STR      R7,[R0, #+0]
   \   00000102   0x.... 0x....      LDR.W    R0,??DataTable51_22
   \   00000106   0x6800             LDR      R0,[R0, #+0]
   \   00000108   0x.... 0x....      BL       __aeabi_i2f
   \   0000010C   0x4680             MOV      R8,R0
   \   0000010E   0x.... 0x....      LDR.W    R0,??DataTable51_18
   \   00000112   0x6800             LDR      R0,[R0, #+0]
   \   00000114   0x.... 0x....      BL       __aeabi_i2f
   \   00000118   0x0001             MOVS     R1,R0
   \   0000011A   0x4640             MOV      R0,R8
   \   0000011C   0x.... 0x....      BL       __aeabi_fsub
   \   00000120   0x4680             MOV      R8,R0
   \   00000122   0x.... 0x....      LDR.W    R0,??DataTable51_21
   \   00000126   0x6800             LDR      R0,[R0, #+0]
   \   00000128   0x.... 0x....      LDR.W    R1,??DataTable51_17
   \   0000012C   0x6809             LDR      R1,[R1, #+0]
   \   0000012E   0x1A40             SUBS     R0,R0,R1
   \   00000130   0x.... 0x....      BL       __aeabi_i2f
   \   00000134   0x0001             MOVS     R1,R0
   \   00000136   0x4640             MOV      R0,R8
   \   00000138   0x.... 0x....      BL       __aeabi_fdiv
   \   0000013C   0x.... 0x....      LDR.W    R1,??DataTable51_23
   \   00000140   0x6008             STR      R0,[R1, #+0]
   \   00000142   0x.... 0x....      LDR.W    R0,??DataTable51_22
   \   00000146   0x6800             LDR      R0,[R0, #+0]
   \   00000148   0x.... 0x....      BL       __aeabi_i2f
   \   0000014C   0x4680             MOV      R8,R0
   \   0000014E   0x.... 0x....      LDR.W    R0,??DataTable51_21
   \   00000152   0x6800             LDR      R0,[R0, #+0]
   \   00000154   0x.... 0x....      BL       __aeabi_i2f
   \   00000158   0x.... 0x....      LDR.W    R1,??DataTable51_23
   \   0000015C   0x6809             LDR      R1,[R1, #+0]
   \   0000015E   0x.... 0x....      BL       __aeabi_fmul
   \   00000162   0x0001             MOVS     R1,R0
   \   00000164   0x4640             MOV      R0,R8
   \   00000166   0x.... 0x....      BL       __aeabi_fsub
   \   0000016A   0x.... 0x....      LDR.W    R1,??DataTable51_24
   \   0000016E   0x6008             STR      R0,[R1, #+0]
    734              if(MIN_Speed_Compute_PWM_flag==1)
   \   00000170   0x.... 0x....      LDR.W    R0,??DataTable51_19
   \   00000174   0x6800             LDR      R0,[R0, #+0]
   \   00000176   0x2801             CMP      R0,#+1
   \   00000178   0xD110             BNE.N    ??Speed_Auto_Run_16
    735              {
    736                w_Target =  by_Speed_MIN*10;
   \   0000017A   0x.... 0x....      LDR.W    R0,??DataTable51_12
   \   0000017E   0x7800             LDRB     R0,[R0, #+0]
   \   00000180   0x210A             MOVS     R1,#+10
   \   00000182   0x4348             MULS     R0,R1,R0
   \   00000184   0x0006             MOVS     R6,R0
    737                MIN_Speed_Compute_PWM_flag=0;
   \   00000186   0x2000             MOVS     R0,#+0
   \   00000188   0x.... 0x....      LDR.W    R1,??DataTable51_19
   \   0000018C   0x6008             STR      R0,[R1, #+0]
    738                Eng2_Px--;
   \   0000018E   0x.... 0x....      LDR.W    R0,??DataTable51_20
   \   00000192   0x7800             LDRB     R0,[R0, #+0]
   \   00000194   0x1E40             SUBS     R0,R0,#+1
   \   00000196   0x.... 0x....      LDR.W    R1,??DataTable51_20
   \   0000019A   0x7008             STRB     R0,[R1, #+0]
    739                 }
    740             break;
   \                     ??Speed_Auto_Run_16: (+1)
   \   0000019C   0xE0BF             B.N      ??Speed_Auto_Run_17
    741              case 2 : RPM2=w_RPM_Speed; pwm2=Mode_PWM_Target; K1=((float)pwm2-pwm1)/(RPM2-RPM1);B1=(pwm2-RPM2*K1);
   \                     ??Speed_Auto_Run_11: (+1)
   \   0000019E   0xB2AD             UXTH     R5,R5            ;; ZeroExt  R5,R5,#+16,#+16
   \   000001A0   0x.... 0x....      LDR.W    R0,??DataTable51_25
   \   000001A4   0x6005             STR      R5,[R0, #+0]
   \   000001A6   0xB2BF             UXTH     R7,R7            ;; ZeroExt  R7,R7,#+16,#+16
   \   000001A8   0x.... 0x....      LDR.W    R0,??DataTable51_26
   \   000001AC   0x6007             STR      R7,[R0, #+0]
   \   000001AE   0x.... 0x....      LDR.W    R0,??DataTable51_26
   \   000001B2   0x6800             LDR      R0,[R0, #+0]
   \   000001B4   0x.... 0x....      BL       __aeabi_i2f
   \   000001B8   0x4680             MOV      R8,R0
   \   000001BA   0x.... 0x....      LDR.W    R0,??DataTable51_22
   \   000001BE   0x6800             LDR      R0,[R0, #+0]
   \   000001C0   0x.... 0x....      BL       __aeabi_i2f
   \   000001C4   0x0001             MOVS     R1,R0
   \   000001C6   0x4640             MOV      R0,R8
   \   000001C8   0x.... 0x....      BL       __aeabi_fsub
   \   000001CC   0x4680             MOV      R8,R0
   \   000001CE   0x.... 0x....      LDR.W    R0,??DataTable51_25
   \   000001D2   0x6800             LDR      R0,[R0, #+0]
   \   000001D4   0x.... 0x....      LDR.W    R1,??DataTable51_21
   \   000001D8   0x6809             LDR      R1,[R1, #+0]
   \   000001DA   0x1A40             SUBS     R0,R0,R1
   \   000001DC   0x.... 0x....      BL       __aeabi_i2f
   \   000001E0   0x0001             MOVS     R1,R0
   \   000001E2   0x4640             MOV      R0,R8
   \   000001E4   0x.... 0x....      BL       __aeabi_fdiv
   \   000001E8   0x.... 0x....      LDR.W    R1,??DataTable51_23
   \   000001EC   0x6008             STR      R0,[R1, #+0]
   \   000001EE   0x.... 0x....      LDR.W    R0,??DataTable51_26
   \   000001F2   0x6800             LDR      R0,[R0, #+0]
   \   000001F4   0x.... 0x....      BL       __aeabi_i2f
   \   000001F8   0x4680             MOV      R8,R0
   \   000001FA   0x.... 0x....      LDR.W    R0,??DataTable51_25
   \   000001FE   0x6800             LDR      R0,[R0, #+0]
   \   00000200   0x.... 0x....      BL       __aeabi_i2f
   \   00000204   0x.... 0x....      LDR.W    R1,??DataTable51_23
   \   00000208   0x6809             LDR      R1,[R1, #+0]
   \   0000020A   0x.... 0x....      BL       __aeabi_fmul
   \   0000020E   0x0001             MOVS     R1,R0
   \   00000210   0x4640             MOV      R0,R8
   \   00000212   0x.... 0x....      BL       __aeabi_fsub
   \   00000216   0x.... 0x....      LDR.W    R1,??DataTable51_24
   \   0000021A   0x6008             STR      R0,[R1, #+0]
    742              break;
   \   0000021C   0xE07F             B.N      ??Speed_Auto_Run_17
    743              case 3 : RPM3=w_RPM_Speed; pwm3=Mode_PWM_Target; K1=((float)pwm3-pwm2)/(RPM3-RPM2);B1=(pwm3-RPM3*K1);
   \                     ??Speed_Auto_Run_14: (+1)
   \   0000021E   0xB2AD             UXTH     R5,R5            ;; ZeroExt  R5,R5,#+16,#+16
   \   00000220   0x.... 0x....      LDR.W    R0,??DataTable51_27
   \   00000224   0x6005             STR      R5,[R0, #+0]
   \   00000226   0xB2BF             UXTH     R7,R7            ;; ZeroExt  R7,R7,#+16,#+16
   \   00000228   0x.... 0x....      LDR.W    R0,??DataTable51_28
   \   0000022C   0x6007             STR      R7,[R0, #+0]
   \   0000022E   0x.... 0x....      LDR.W    R0,??DataTable51_28
   \   00000232   0x6800             LDR      R0,[R0, #+0]
   \   00000234   0x.... 0x....      BL       __aeabi_i2f
   \   00000238   0x4680             MOV      R8,R0
   \   0000023A   0x.... 0x....      LDR.W    R0,??DataTable51_26
   \   0000023E   0x6800             LDR      R0,[R0, #+0]
   \   00000240   0x.... 0x....      BL       __aeabi_i2f
   \   00000244   0x0001             MOVS     R1,R0
   \   00000246   0x4640             MOV      R0,R8
   \   00000248   0x.... 0x....      BL       __aeabi_fsub
   \   0000024C   0x4680             MOV      R8,R0
   \   0000024E   0x.... 0x....      LDR.W    R0,??DataTable51_27
   \   00000252   0x6800             LDR      R0,[R0, #+0]
   \   00000254   0x.... 0x....      LDR.W    R1,??DataTable51_25
   \   00000258   0x6809             LDR      R1,[R1, #+0]
   \   0000025A   0x1A40             SUBS     R0,R0,R1
   \   0000025C   0x.... 0x....      BL       __aeabi_i2f
   \   00000260   0x0001             MOVS     R1,R0
   \   00000262   0x4640             MOV      R0,R8
   \   00000264   0x.... 0x....      BL       __aeabi_fdiv
   \   00000268   0x.... 0x....      LDR.W    R1,??DataTable51_23
   \   0000026C   0x6008             STR      R0,[R1, #+0]
   \   0000026E   0x.... 0x....      LDR.W    R0,??DataTable51_28
   \   00000272   0x6800             LDR      R0,[R0, #+0]
   \   00000274   0x.... 0x....      BL       __aeabi_i2f
   \   00000278   0x4680             MOV      R8,R0
   \   0000027A   0x.... 0x....      LDR.W    R0,??DataTable51_27
   \   0000027E   0x6800             LDR      R0,[R0, #+0]
   \   00000280   0x.... 0x....      BL       __aeabi_i2f
   \   00000284   0x.... 0x....      LDR.W    R1,??DataTable51_23
   \   00000288   0x6809             LDR      R1,[R1, #+0]
   \   0000028A   0x.... 0x....      BL       __aeabi_fmul
   \   0000028E   0x0001             MOVS     R1,R0
   \   00000290   0x4640             MOV      R0,R8
   \   00000292   0x.... 0x....      BL       __aeabi_fsub
   \   00000296   0x.... 0x....      LDR.W    R1,??DataTable51_24
   \   0000029A   0x6008             STR      R0,[R1, #+0]
    744             break;
   \   0000029C   0xE03F             B.N      ??Speed_Auto_Run_17
    745              case 4 : RPM4=w_RPM_Speed; pwm4=Mode_PWM_Target; K1=((float)pwm4-pwm3)/(RPM4-RPM3);B1=(pwm4-RPM4*K1);
   \                     ??Speed_Auto_Run_13: (+1)
   \   0000029E   0xB2AD             UXTH     R5,R5            ;; ZeroExt  R5,R5,#+16,#+16
   \   000002A0   0x.... 0x....      LDR.W    R0,??DataTable51_29
   \   000002A4   0x6005             STR      R5,[R0, #+0]
   \   000002A6   0xB2BF             UXTH     R7,R7            ;; ZeroExt  R7,R7,#+16,#+16
   \   000002A8   0x.... 0x....      LDR.W    R0,??DataTable51_30
   \   000002AC   0x6007             STR      R7,[R0, #+0]
   \   000002AE   0x.... 0x....      LDR.W    R0,??DataTable51_30
   \   000002B2   0x6800             LDR      R0,[R0, #+0]
   \   000002B4   0x.... 0x....      BL       __aeabi_i2f
   \   000002B8   0x4680             MOV      R8,R0
   \   000002BA   0x.... 0x....      LDR.W    R0,??DataTable51_28
   \   000002BE   0x6800             LDR      R0,[R0, #+0]
   \   000002C0   0x.... 0x....      BL       __aeabi_i2f
   \   000002C4   0x0001             MOVS     R1,R0
   \   000002C6   0x4640             MOV      R0,R8
   \   000002C8   0x.... 0x....      BL       __aeabi_fsub
   \   000002CC   0x4680             MOV      R8,R0
   \   000002CE   0x.... 0x....      LDR.W    R0,??DataTable51_29
   \   000002D2   0x6800             LDR      R0,[R0, #+0]
   \   000002D4   0x.... 0x....      LDR.W    R1,??DataTable51_27
   \   000002D8   0x6809             LDR      R1,[R1, #+0]
   \   000002DA   0x1A40             SUBS     R0,R0,R1
   \   000002DC   0x.... 0x....      BL       __aeabi_i2f
   \   000002E0   0x0001             MOVS     R1,R0
   \   000002E2   0x4640             MOV      R0,R8
   \   000002E4   0x.... 0x....      BL       __aeabi_fdiv
   \   000002E8   0x.... 0x....      LDR.W    R1,??DataTable51_23
   \   000002EC   0x6008             STR      R0,[R1, #+0]
   \   000002EE   0x.... 0x....      LDR.W    R0,??DataTable51_30
   \   000002F2   0x6800             LDR      R0,[R0, #+0]
   \   000002F4   0x.... 0x....      BL       __aeabi_i2f
   \   000002F8   0x4680             MOV      R8,R0
   \   000002FA   0x.... 0x....      LDR.W    R0,??DataTable51_29
   \   000002FE   0x6800             LDR      R0,[R0, #+0]
   \   00000300   0x.... 0x....      BL       __aeabi_i2f
   \   00000304   0x.... 0x....      LDR.W    R1,??DataTable51_23
   \   00000308   0x6809             LDR      R1,[R1, #+0]
   \   0000030A   0x.... 0x....      BL       __aeabi_fmul
   \   0000030E   0x0001             MOVS     R1,R0
   \   00000310   0x4640             MOV      R0,R8
   \   00000312   0x.... 0x....      BL       __aeabi_fsub
   \   00000316   0x.... 0x....      LDR.W    R1,??DataTable51_24
   \   0000031A   0x6008             STR      R0,[R1, #+0]
    746             break;
   \   0000031C   0xE7FF             B.N      ??Speed_Auto_Run_17
    747              default:break;
    748            }
    749            }
    750            else
    751            {
    752              return 0;
    753            }
    754            if(w_Target==w_RPM_Speed)
   \                     ??Speed_Auto_Run_15: (+1)
   \                     ??Speed_Auto_Run_17: (+1)
   \   0000031E   0x0030             MOVS     R0,R6
   \   00000320   0x0029             MOVS     R1,R5
   \   00000322   0xB280             UXTH     R0,R0            ;; ZeroExt  R0,R0,#+16,#+16
   \   00000324   0xB289             UXTH     R1,R1            ;; ZeroExt  R1,R1,#+16,#+16
   \   00000326   0x4288             CMP      R0,R1
   \   00000328   0xD112             BNE.N    ??Speed_Auto_Run_18
   \   0000032A   0xE001             B.N      ??Speed_Auto_Run_19
   \                     ??Speed_Auto_Run_9: (+1)
   \   0000032C   0x2000             MOVS     R0,#+0
   \   0000032E   0xE039             B.N      ??Speed_Auto_Run_8
    755            {
    756              pwm_value=Mode_PWM_Target;
   \                     ??Speed_Auto_Run_19: (+1)
   \   00000330   0x.... 0x....      LDR.W    R0,??DataTable51_31
   \   00000334   0x8007             STRH     R7,[R0, #+0]
    757              if(pwm_value<=600)
   \   00000336   0x.... 0x....      LDR.W    R0,??DataTable51_31
   \   0000033A   0x8800             LDRH     R0,[R0, #+0]
   \   0000033C   0xF5B0 0x7F16      CMP      R0,#+600
   \   00000340   0xDC04             BGT.N    ??Speed_Auto_Run_20
    758              {
    759              pwm_value=600;
   \   00000342   0xF44F 0x7016      MOV      R0,#+600
   \   00000346   0x.... 0x....      LDR.W    R1,??DataTable51_31
   \   0000034A   0x8008             STRH     R0,[R1, #+0]
    760              }
    761              return 1;
   \                     ??Speed_Auto_Run_20: (+1)
   \   0000034C   0x2001             MOVS     R0,#+1
   \   0000034E   0xE029             B.N      ??Speed_Auto_Run_8
    762            }
    763            else{
    764          pwm_value=(int)(K1*w_Target+B1);
   \                     ??Speed_Auto_Run_18: (+1)
   \   00000350   0xB2B6             UXTH     R6,R6            ;; ZeroExt  R6,R6,#+16,#+16
   \   00000352   0x0030             MOVS     R0,R6
   \   00000354   0x.... 0x....      BL       __aeabi_ui2f
   \   00000358   0x.... 0x....      LDR.W    R1,??DataTable51_23
   \   0000035C   0x6809             LDR      R1,[R1, #+0]
   \   0000035E   0x.... 0x....      BL       __aeabi_fmul
   \   00000362   0x.... 0x....      LDR.W    R1,??DataTable51_24
   \   00000366   0x6809             LDR      R1,[R1, #+0]
   \   00000368   0x.... 0x....      BL       __aeabi_fadd
   \   0000036C   0x.... 0x....      BL       __aeabi_f2iz
   \   00000370   0x.... 0x....      LDR.W    R1,??DataTable51_31
   \   00000374   0x8008             STRH     R0,[R1, #+0]
    765           if(pwm_value<=600)
   \   00000376   0x.... 0x....      LDR.W    R0,??DataTable51_31
   \   0000037A   0x8800             LDRH     R0,[R0, #+0]
   \   0000037C   0xF5B0 0x7F16      CMP      R0,#+600
   \   00000380   0xDC04             BGT.N    ??Speed_Auto_Run_21
    766              {
    767              pwm_value=600;
   \   00000382   0xF44F 0x7016      MOV      R0,#+600
   \   00000386   0x.... 0x....      LDR.W    R1,??DataTable51_31
   \   0000038A   0x8008             STRH     R0,[R1, #+0]
    768              }
    769             if(pwm_value>C_PWM_MAX)
   \                     ??Speed_Auto_Run_21: (+1)
   \   0000038C   0x.... 0x....      LDR.W    R0,??DataTable51_31
   \   00000390   0x8800             LDRH     R0,[R0, #+0]
   \   00000392   0xF5B0 0x5FFA      CMP      R0,#+8000
   \   00000396   0xDD04             BLE.N    ??Speed_Auto_Run_22
    770              {
    771              pwm_value=C_PWM_MAX;
   \   00000398   0xF44F 0x50FA      MOV      R0,#+8000
   \   0000039C   0x.... 0x....      LDR.W    R1,??DataTable51_31
   \   000003A0   0x8008             STRH     R0,[R1, #+0]
    772              }
    773          return 1;
   \                     ??Speed_Auto_Run_22: (+1)
   \   000003A2   0x2001             MOVS     R0,#+1
   \                     ??Speed_Auto_Run_8: (+1)
   \   000003A4   0xE8BD 0x81F0      POP      {R4-R8,PC}       ;; return
    774            }
    775          }

   \                                 In section .bss, align 4
   \                     `Speed_Auto_Run::RPM0`:
   \   00000000                      DS8 4

   \                                 In section .bss, align 4
   \                     `Speed_Auto_Run::RPM1`:
   \   00000000                      DS8 4

   \                                 In section .bss, align 4
   \                     `Speed_Auto_Run::RPM2`:
   \   00000000                      DS8 4

   \                                 In section .bss, align 4
   \                     `Speed_Auto_Run::RPM3`:
   \   00000000                      DS8 4

   \                                 In section .bss, align 4
   \                     `Speed_Auto_Run::RPM4`:
   \   00000000                      DS8 4

   \                                 In section .bss, align 4
   \                     `Speed_Auto_Run::pwm0`:
   \   00000000                      DS8 4

   \                                 In section .bss, align 4
   \                     `Speed_Auto_Run::pwm1`:
   \   00000000                      DS8 4

   \                                 In section .bss, align 4
   \                     `Speed_Auto_Run::pwm2`:
   \   00000000                      DS8 4

   \                                 In section .bss, align 4
   \                     `Speed_Auto_Run::pwm3`:
   \   00000000                      DS8 4

   \                                 In section .bss, align 4
   \                     `Speed_Auto_Run::pwm4`:
   \   00000000                      DS8 4

   \                                 In section .bss, align 4
   \                     `Speed_Auto_Run::MIN_Speed_Compute_PWM_flag`:
   \   00000000                      DS8 4
    776          
    777          //void Speed_Clear_Offset(void)
    778          //{
    779          //    i_Offset =0;
    780          //}

   \                                 In section .text, align 2, keep-with-next
    781          void Speed_Step_Switch(char by_Mode)//1:normal;0:stop to speed down
    782          {
   \                     Speed_Step_Switch: (+1)
   \   00000000   0xB570             PUSH     {R4-R6,LR}
   \   00000002   0x0004             MOVS     R4,R0
    783            unsigned int w_Step_Temp;
    784            unsigned int by_Speed_Range;
    785            
    786            if(by_Mode)
   \   00000004   0xB2E4             UXTB     R4,R4            ;; ZeroExt  R4,R4,#+24,#+24
   \   00000006   0x2C00             CMP      R4,#+0
   \   00000008   0xD016             BEQ.N    ??Speed_Step_Switch_0
    787            {
    788              w_PWM_Add_Step=(w_PWM_MAX-w_PWM_MIN)/C_PWM_DELAY_ADD_TIME;
   \   0000000A   0x....             LDR.N    R0,??DataTable50
   \   0000000C   0x8800             LDRH     R0,[R0, #+0]
   \   0000000E   0x....             LDR.N    R1,??DataTable50_5
   \   00000010   0x8809             LDRH     R1,[R1, #+0]
   \   00000012   0x1A40             SUBS     R0,R0,R1
   \   00000014   0x214B             MOVS     R1,#+75
   \   00000016   0xFB90 0xF0F1      SDIV     R0,R0,R1
   \   0000001A   0x.... 0x....      LDR.W    R1,??DataTable51_32
   \   0000001E   0x8008             STRH     R0,[R1, #+0]
    789              w_PWM_Dec_Step=(w_PWM_MAX-w_PWM_MIN)/C_PWM_DELAY_DEC_TIME;
   \   00000020   0x....             LDR.N    R0,??DataTable50
   \   00000022   0x8800             LDRH     R0,[R0, #+0]
   \   00000024   0x....             LDR.N    R1,??DataTable50_5
   \   00000026   0x8809             LDRH     R1,[R1, #+0]
   \   00000028   0x1A40             SUBS     R0,R0,R1
   \   0000002A   0x2150             MOVS     R1,#+80
   \   0000002C   0xFB90 0xF0F1      SDIV     R0,R0,R1
   \   00000030   0x.... 0x....      LDR.W    R1,??DataTable51_33
   \   00000034   0x8008             STRH     R0,[R1, #+0]
   \   00000036   0xE050             B.N      ??Speed_Step_Switch_1
    790          //    if(w_PWM_Time<w_PWM_MIN)w_PWM_Time=w_PWM_MIN;
    791            }
    792            else
    793            {
    794              by_Speed_Range=(unsigned int)(by_Speed_MAX-by_Speed_MIN);
   \                     ??Speed_Step_Switch_0: (+1)
   \   00000038   0x....             LDR.N    R0,??DataTable51_8
   \   0000003A   0x7800             LDRB     R0,[R0, #+0]
   \   0000003C   0x....             LDR.N    R1,??DataTable51_12
   \   0000003E   0x7809             LDRB     R1,[R1, #+0]
   \   00000040   0x1A40             SUBS     R0,R0,R1
   \   00000042   0x0006             MOVS     R6,R0
    795              if(SystemConfig_Get_Char(UNIT_FLAG_UCHAR) == C_KM)
   \   00000044   0x2007             MOVS     R0,#+7
   \   00000046   0x.... 0x....      BL       SystemConfig_Get_Char
   \   0000004A   0x2801             CMP      R0,#+1
   \   0000004C   0xD103             BNE.N    ??Speed_Step_Switch_2
    796              {
    797                by_Speed_Range=by_Speed_Range/16*10;
   \   0000004E   0x0930             LSRS     R0,R6,#+4
   \   00000050   0x210A             MOVS     R1,#+10
   \   00000052   0xFB01 0xF600      MUL      R6,R1,R0
    798              }
    799              if(w_PWM_Time<w_PWM_MIN)w_PWM_Time=w_PWM_MIN;
   \                     ??Speed_Step_Switch_2: (+1)
   \   00000056   0x....             LDR.N    R0,??DataTable51_1
   \   00000058   0x8800             LDRH     R0,[R0, #+0]
   \   0000005A   0x....             LDR.N    R1,??DataTable50_5
   \   0000005C   0x8809             LDRH     R1,[R1, #+0]
   \   0000005E   0x4288             CMP      R0,R1
   \   00000060   0xD203             BCS.N    ??Speed_Step_Switch_3
   \   00000062   0x....             LDR.N    R0,??DataTable50_5
   \   00000064   0x8800             LDRH     R0,[R0, #+0]
   \   00000066   0x....             LDR.N    R1,??DataTable51_1
   \   00000068   0x8008             STRH     R0,[R1, #+0]
    800              w_Step_Temp=((unsigned long)((w_PWM_Time-w_PWM_MIN)*100))/(w_PWM_MAX-w_PWM_MIN)*by_Speed_Range/100;
   \                     ??Speed_Step_Switch_3: (+1)
   \   0000006A   0x....             LDR.N    R0,??DataTable51_1
   \   0000006C   0x8800             LDRH     R0,[R0, #+0]
   \   0000006E   0x....             LDR.N    R1,??DataTable50_5
   \   00000070   0x8809             LDRH     R1,[R1, #+0]
   \   00000072   0x1A40             SUBS     R0,R0,R1
   \   00000074   0x2164             MOVS     R1,#+100
   \   00000076   0x4348             MULS     R0,R1,R0
   \   00000078   0x....             LDR.N    R1,??DataTable50
   \   0000007A   0x8809             LDRH     R1,[R1, #+0]
   \   0000007C   0x....             LDR.N    R2,??DataTable50_5
   \   0000007E   0x8812             LDRH     R2,[R2, #+0]
   \   00000080   0x1A89             SUBS     R1,R1,R2
   \   00000082   0xFBB0 0xF0F1      UDIV     R0,R0,R1
   \   00000086   0x4370             MULS     R0,R6,R0
   \   00000088   0x2164             MOVS     R1,#+100
   \   0000008A   0xFBB0 0xF0F1      UDIV     R0,R0,R1
   \   0000008E   0x0005             MOVS     R5,R0
    801              if(w_Step_Temp<5)return;
   \   00000090   0x2D05             CMP      R5,#+5
   \   00000092   0xD322             BCC.N    ??Speed_Step_Switch_4
    802              if(w_Step_Temp%10>=5)
   \                     ??Speed_Step_Switch_5: (+1)
   \   00000094   0x200A             MOVS     R0,#+10
   \   00000096   0xFBB5 0xF1F0      UDIV     R1,R5,R0
   \   0000009A   0xFB00 0x5011      MLS      R0,R0,R1,R5
   \   0000009E   0x2805             CMP      R0,#+5
   \   000000A0   0xD30E             BCC.N    ??Speed_Step_Switch_6
    803              {
    804                w_PWM_Dec_Step=(w_PWM_Time-w_PWM_MIN)/((w_Step_Temp/10+1)*4);
   \   000000A2   0x200A             MOVS     R0,#+10
   \   000000A4   0xFBB5 0xF0F0      UDIV     R0,R5,R0
   \   000000A8   0x1C40             ADDS     R0,R0,#+1
   \   000000AA   0x0080             LSLS     R0,R0,#+2
   \   000000AC   0x....             LDR.N    R1,??DataTable51_1
   \   000000AE   0x8809             LDRH     R1,[R1, #+0]
   \   000000B0   0x....             LDR.N    R2,??DataTable50_5
   \   000000B2   0x8812             LDRH     R2,[R2, #+0]
   \   000000B4   0x1A89             SUBS     R1,R1,R2
   \   000000B6   0xFBB1 0xF0F0      UDIV     R0,R1,R0
   \   000000BA   0x....             LDR.N    R1,??DataTable51_33
   \   000000BC   0x8008             STRH     R0,[R1, #+0]
   \   000000BE   0xE00C             B.N      ??Speed_Step_Switch_1
    805              }
    806              else
    807              {
    808                w_PWM_Dec_Step=(w_PWM_Time-w_PWM_MIN)/((w_Step_Temp/10)*4);
   \                     ??Speed_Step_Switch_6: (+1)
   \   000000C0   0x200A             MOVS     R0,#+10
   \   000000C2   0xFBB5 0xF0F0      UDIV     R0,R5,R0
   \   000000C6   0x0080             LSLS     R0,R0,#+2
   \   000000C8   0x....             LDR.N    R1,??DataTable51_1
   \   000000CA   0x8809             LDRH     R1,[R1, #+0]
   \   000000CC   0x....             LDR.N    R2,??DataTable50_5
   \   000000CE   0x8812             LDRH     R2,[R2, #+0]
   \   000000D0   0x1A89             SUBS     R1,R1,R2
   \   000000D2   0xFBB1 0xF0F0      UDIV     R0,R1,R0
   \   000000D6   0x....             LDR.N    R1,??DataTable51_33
   \   000000D8   0x8008             STRH     R0,[R1, #+0]
    809              }
    810            }
    811          }
   \                     ??Speed_Step_Switch_1: (+1)
   \                     ??Speed_Step_Switch_4: (+1)
   \   000000DA   0xBD70             POP      {R4-R6,PC}       ;; return

   \                                 In section .text, align 2, keep-with-next
    812          void Speed_Set_Time_250ms(UINT16 w_Dat)
    813          {
    814          by_Time_250ms=w_Dat;
   \                     Speed_Set_Time_250ms: (+1)
   \   00000000   0x....             LDR.N    R1,??DataTable51_34
   \   00000002   0x8008             STRH     R0,[R1, #+0]
    815          }
   \   00000004   0x4770             BX       LR               ;; return

   \                                 In section .text, align 2, keep-with-next
    816          void Speed_1ms_Int(void)
    817          {
   \                     Speed_1ms_Int: (+1)
   \   00000000   0xB580             PUSH     {R7,LR}
    818          //  static UINT16 by_Time_250ms=0;
    819          //  static UINT16 by_Time_100ms=0;
    820            if(by_Time_250ms >= 250)
   \   00000002   0x....             LDR.N    R0,??DataTable51_34
   \   00000004   0x8800             LDRH     R0,[R0, #+0]
   \   00000006   0x28FA             CMP      R0,#+250
   \   00000008   0xDB05             BLT.N    ??Speed_1ms_Int_0
    821            {
    822              by_Time_250ms = 0;
   \   0000000A   0x2000             MOVS     R0,#+0
   \   0000000C   0x....             LDR.N    R1,??DataTable51_34
   \   0000000E   0x8008             STRH     R0,[R1, #+0]
    823              Speed_Process_PWM_Int_New();
   \   00000010   0x.... 0x....      BL       Speed_Process_PWM_Int_New
   \   00000014   0xE004             B.N      ??Speed_1ms_Int_1
    824            }
    825            else 
    826              ++by_Time_250ms;
   \                     ??Speed_1ms_Int_0: (+1)
   \   00000016   0x....             LDR.N    R0,??DataTable51_34
   \   00000018   0x8800             LDRH     R0,[R0, #+0]
   \   0000001A   0x1C40             ADDS     R0,R0,#+1
   \   0000001C   0x....             LDR.N    R1,??DataTable51_34
   \   0000001E   0x8008             STRH     R0,[R1, #+0]
    827            if(by_Time_100ms >= 100)
   \                     ??Speed_1ms_Int_1: (+1)
   \   00000020   0x....             LDR.N    R0,??DataTable51_35
   \   00000022   0x8800             LDRH     R0,[R0, #+0]
   \   00000024   0x2864             CMP      R0,#+100
   \   00000026   0xDB07             BLT.N    ??Speed_1ms_Int_2
    828            {
    829              by_Time_100ms = 0;
   \   00000028   0x2000             MOVS     R0,#+0
   \   0000002A   0x....             LDR.N    R1,??DataTable51_35
   \   0000002C   0x8008             STRH     R0,[R1, #+0]
    830              Speed_Set_100ms_Flag_Int();
   \   0000002E   0x.... 0x....      BL       Speed_Set_100ms_Flag_Int
    831              RPM_Set_100ms_Flag_Int();
   \   00000032   0x.... 0x....      BL       RPM_Set_100ms_Flag_Int
   \   00000036   0xE004             B.N      ??Speed_1ms_Int_3
    832            }
    833            else 
    834            	{
    835              ++by_Time_100ms;
   \                     ??Speed_1ms_Int_2: (+1)
   \   00000038   0x....             LDR.N    R0,??DataTable51_35
   \   0000003A   0x8800             LDRH     R0,[R0, #+0]
   \   0000003C   0x1C40             ADDS     R0,R0,#+1
   \   0000003E   0x....             LDR.N    R1,??DataTable51_35
   \   00000040   0x8008             STRH     R0,[R1, #+0]
    836            	}
    837             InclineTimeout = (InclineTimeout<MAX_INCLINE_RETURN_TO_ZERO_TIME_MS )? InclineTimeout+1 : MAX_INCLINE_RETURN_TO_ZERO_TIME_MS;
   \                     ??Speed_1ms_Int_3: (+1)
   \   00000042   0x....             LDR.N    R0,??DataTable51
   \   00000044   0x6800             LDR      R0,[R0, #+0]
   \   00000046   0xF644 0x6120      MOVW     R1,#+20000
   \   0000004A   0x4288             CMP      R0,R1
   \   0000004C   0xD205             BCS.N    ??Speed_1ms_Int_4
   \   0000004E   0x....             LDR.N    R0,??DataTable51
   \   00000050   0x6800             LDR      R0,[R0, #+0]
   \   00000052   0x1C40             ADDS     R0,R0,#+1
   \   00000054   0x....             LDR.N    R1,??DataTable51
   \   00000056   0x6008             STR      R0,[R1, #+0]
   \   00000058   0xE003             B.N      ??Speed_1ms_Int_5
   \                     ??Speed_1ms_Int_4: (+1)
   \   0000005A   0xF644 0x6020      MOVW     R0,#+20000
   \   0000005E   0x....             LDR.N    R1,??DataTable51
   \   00000060   0x6008             STR      R0,[R1, #+0]
    838          }
   \                     ??Speed_1ms_Int_5: (+1)
   \   00000062   0xBD01             POP      {R0,PC}          ;; return

   \                                 In section .text, align 2, keep-with-next
    839          void Speed_Compute_PWM(UCHAR by_Dat)
    840          {
    841            if(by_Dat <= by_Speed_MIN)
   \                     Speed_Compute_PWM: (+1)
   \   00000000   0x....             LDR.N    R1,??DataTable51_12
   \   00000002   0x7809             LDRB     R1,[R1, #+0]
   \   00000004   0x0002             MOVS     R2,R0
   \   00000006   0xB2D2             UXTB     R2,R2            ;; ZeroExt  R2,R2,#+24,#+24
   \   00000008   0x4291             CMP      R1,R2
   \   0000000A   0xD304             BCC.N    ??Speed_Compute_PWM_0
    842            {
    843              w_PWM_value=w_PWM_MIN;
   \   0000000C   0x....             LDR.N    R1,??DataTable51_7
   \   0000000E   0x8809             LDRH     R1,[R1, #+0]
   \   00000010   0x....             LDR.N    R2,??DataTable51_36
   \   00000012   0x8011             STRH     R1,[R2, #+0]
    844              return;
   \   00000014   0xE09B             B.N      ??Speed_Compute_PWM_1
    845            }
    846            if(by_Dat >= by_Speed_MAX)
   \                     ??Speed_Compute_PWM_0: (+1)
   \   00000016   0x0001             MOVS     R1,R0
   \   00000018   0x....             LDR.N    R2,??DataTable51_8
   \   0000001A   0x7812             LDRB     R2,[R2, #+0]
   \   0000001C   0xB2C9             UXTB     R1,R1            ;; ZeroExt  R1,R1,#+24,#+24
   \   0000001E   0x4291             CMP      R1,R2
   \   00000020   0xD304             BCC.N    ??Speed_Compute_PWM_2
    847            {
    848              w_PWM_value=w_PWM_MAX;
   \   00000022   0x....             LDR.N    R1,??DataTable51_3
   \   00000024   0x8809             LDRH     R1,[R1, #+0]
   \   00000026   0x....             LDR.N    R2,??DataTable51_36
   \   00000028   0x8011             STRH     R1,[R2, #+0]
    849              return;
   \   0000002A   0xE090             B.N      ??Speed_Compute_PWM_1
    850            }
    851            if(by_Dat == by_Speed_SP2)
   \                     ??Speed_Compute_PWM_2: (+1)
   \   0000002C   0x0001             MOVS     R1,R0
   \   0000002E   0x....             LDR.N    R2,??DataTable51_9
   \   00000030   0x7812             LDRB     R2,[R2, #+0]
   \   00000032   0xB2C9             UXTB     R1,R1            ;; ZeroExt  R1,R1,#+24,#+24
   \   00000034   0x4291             CMP      R1,R2
   \   00000036   0xD104             BNE.N    ??Speed_Compute_PWM_3
    852            {
    853              w_PWM_value=w_PWM_SP2;
   \   00000038   0x....             LDR.N    R1,??DataTable51_4
   \   0000003A   0x8809             LDRH     R1,[R1, #+0]
   \   0000003C   0x....             LDR.N    R2,??DataTable51_36
   \   0000003E   0x8011             STRH     R1,[R2, #+0]
    854              return;
   \   00000040   0xE085             B.N      ??Speed_Compute_PWM_1
    855            }
    856            if(by_Dat == by_Speed_MID)
   \                     ??Speed_Compute_PWM_3: (+1)
   \   00000042   0x0001             MOVS     R1,R0
   \   00000044   0x....             LDR.N    R2,??DataTable51_10
   \   00000046   0x7812             LDRB     R2,[R2, #+0]
   \   00000048   0xB2C9             UXTB     R1,R1            ;; ZeroExt  R1,R1,#+24,#+24
   \   0000004A   0x4291             CMP      R1,R2
   \   0000004C   0xD104             BNE.N    ??Speed_Compute_PWM_4
    857            {
    858              w_PWM_value=w_PWM_MID;
   \   0000004E   0x....             LDR.N    R1,??DataTable51_5
   \   00000050   0x8809             LDRH     R1,[R1, #+0]
   \   00000052   0x....             LDR.N    R2,??DataTable51_36
   \   00000054   0x8011             STRH     R1,[R2, #+0]
    859              return;
   \   00000056   0xE07A             B.N      ??Speed_Compute_PWM_1
    860            }
    861            if(by_Dat == by_Speed_SP1)
   \                     ??Speed_Compute_PWM_4: (+1)
   \   00000058   0x0001             MOVS     R1,R0
   \   0000005A   0x....             LDR.N    R2,??DataTable51_11
   \   0000005C   0x7812             LDRB     R2,[R2, #+0]
   \   0000005E   0xB2C9             UXTB     R1,R1            ;; ZeroExt  R1,R1,#+24,#+24
   \   00000060   0x4291             CMP      R1,R2
   \   00000062   0xD104             BNE.N    ??Speed_Compute_PWM_5
    862            {
    863              w_PWM_value=w_PWM_SP1;
   \   00000064   0x....             LDR.N    R1,??DataTable51_6
   \   00000066   0x8809             LDRH     R1,[R1, #+0]
   \   00000068   0x....             LDR.N    R2,??DataTable51_36
   \   0000006A   0x8011             STRH     R1,[R2, #+0]
    864              return;
   \   0000006C   0xE06F             B.N      ??Speed_Compute_PWM_1
    865            }
    866            if((by_Dat > by_Speed_MIN) && (by_Dat < by_Speed_SP1))
   \                     ??Speed_Compute_PWM_5: (+1)
   \   0000006E   0x....             LDR.N    R1,??DataTable51_12
   \   00000070   0x7809             LDRB     R1,[R1, #+0]
   \   00000072   0x0002             MOVS     R2,R0
   \   00000074   0xB2D2             UXTB     R2,R2            ;; ZeroExt  R2,R2,#+24,#+24
   \   00000076   0x4291             CMP      R1,R2
   \   00000078   0xD215             BCS.N    ??Speed_Compute_PWM_6
   \   0000007A   0x0001             MOVS     R1,R0
   \   0000007C   0x....             LDR.N    R2,??DataTable51_11
   \   0000007E   0x7812             LDRB     R2,[R2, #+0]
   \   00000080   0xB2C9             UXTB     R1,R1            ;; ZeroExt  R1,R1,#+24,#+24
   \   00000082   0x4291             CMP      R1,R2
   \   00000084   0xD20F             BCS.N    ??Speed_Compute_PWM_6
    867            {
    868              w_PWM_value=(((by_Dat-by_Speed_MIN)*(w_S1_PWM_Data))/10)+w_PWM_MIN;
   \   00000086   0xB2C0             UXTB     R0,R0            ;; ZeroExt  R0,R0,#+24,#+24
   \   00000088   0x....             LDR.N    R1,??DataTable51_12
   \   0000008A   0x7809             LDRB     R1,[R1, #+0]
   \   0000008C   0x1A41             SUBS     R1,R0,R1
   \   0000008E   0x....             LDR.N    R2,??DataTable51_37
   \   00000090   0x8812             LDRH     R2,[R2, #+0]
   \   00000092   0x4351             MULS     R1,R2,R1
   \   00000094   0x220A             MOVS     R2,#+10
   \   00000096   0xFB91 0xF1F2      SDIV     R1,R1,R2
   \   0000009A   0x....             LDR.N    R2,??DataTable51_7
   \   0000009C   0x8812             LDRH     R2,[R2, #+0]
   \   0000009E   0x1851             ADDS     R1,R2,R1
   \   000000A0   0x....             LDR.N    R2,??DataTable51_36
   \   000000A2   0x8011             STRH     R1,[R2, #+0]
    869              return;
   \   000000A4   0xE053             B.N      ??Speed_Compute_PWM_1
    870            }
    871            if((by_Dat > by_Speed_SP1) && (by_Dat < by_Speed_MID))
   \                     ??Speed_Compute_PWM_6: (+1)
   \   000000A6   0x....             LDR.N    R1,??DataTable51_11
   \   000000A8   0x7809             LDRB     R1,[R1, #+0]
   \   000000AA   0x0002             MOVS     R2,R0
   \   000000AC   0xB2D2             UXTB     R2,R2            ;; ZeroExt  R2,R2,#+24,#+24
   \   000000AE   0x4291             CMP      R1,R2
   \   000000B0   0xD215             BCS.N    ??Speed_Compute_PWM_7
   \   000000B2   0x0001             MOVS     R1,R0
   \   000000B4   0x....             LDR.N    R2,??DataTable51_10
   \   000000B6   0x7812             LDRB     R2,[R2, #+0]
   \   000000B8   0xB2C9             UXTB     R1,R1            ;; ZeroExt  R1,R1,#+24,#+24
   \   000000BA   0x4291             CMP      R1,R2
   \   000000BC   0xD20F             BCS.N    ??Speed_Compute_PWM_7
    872            {
    873              w_PWM_value=(((by_Dat-by_Speed_SP1)*(w_S2_PWM_Data))/10)+w_PWM_SP1;
   \   000000BE   0xB2C0             UXTB     R0,R0            ;; ZeroExt  R0,R0,#+24,#+24
   \   000000C0   0x....             LDR.N    R1,??DataTable51_11
   \   000000C2   0x7809             LDRB     R1,[R1, #+0]
   \   000000C4   0x1A41             SUBS     R1,R0,R1
   \   000000C6   0x....             LDR.N    R2,??DataTable51_38
   \   000000C8   0x8812             LDRH     R2,[R2, #+0]
   \   000000CA   0x4351             MULS     R1,R2,R1
   \   000000CC   0x220A             MOVS     R2,#+10
   \   000000CE   0xFB91 0xF1F2      SDIV     R1,R1,R2
   \   000000D2   0x....             LDR.N    R2,??DataTable51_6
   \   000000D4   0x8812             LDRH     R2,[R2, #+0]
   \   000000D6   0x1851             ADDS     R1,R2,R1
   \   000000D8   0x....             LDR.N    R2,??DataTable51_36
   \   000000DA   0x8011             STRH     R1,[R2, #+0]
    874              return;
   \   000000DC   0xE037             B.N      ??Speed_Compute_PWM_1
    875            }
    876            if((by_Dat > by_Speed_MID) && (by_Dat < by_Speed_SP2))
   \                     ??Speed_Compute_PWM_7: (+1)
   \   000000DE   0x....             LDR.N    R1,??DataTable51_10
   \   000000E0   0x7809             LDRB     R1,[R1, #+0]
   \   000000E2   0x0002             MOVS     R2,R0
   \   000000E4   0xB2D2             UXTB     R2,R2            ;; ZeroExt  R2,R2,#+24,#+24
   \   000000E6   0x4291             CMP      R1,R2
   \   000000E8   0xD215             BCS.N    ??Speed_Compute_PWM_8
   \   000000EA   0x0001             MOVS     R1,R0
   \   000000EC   0x....             LDR.N    R2,??DataTable51_9
   \   000000EE   0x7812             LDRB     R2,[R2, #+0]
   \   000000F0   0xB2C9             UXTB     R1,R1            ;; ZeroExt  R1,R1,#+24,#+24
   \   000000F2   0x4291             CMP      R1,R2
   \   000000F4   0xD20F             BCS.N    ??Speed_Compute_PWM_8
    877            {
    878              w_PWM_value=(((by_Dat-by_Speed_MID)*(w_S3_PWM_Data))/10)+w_PWM_MID;
   \   000000F6   0xB2C0             UXTB     R0,R0            ;; ZeroExt  R0,R0,#+24,#+24
   \   000000F8   0x....             LDR.N    R1,??DataTable51_10
   \   000000FA   0x7809             LDRB     R1,[R1, #+0]
   \   000000FC   0x1A41             SUBS     R1,R0,R1
   \   000000FE   0x....             LDR.N    R2,??DataTable51_39
   \   00000100   0x8812             LDRH     R2,[R2, #+0]
   \   00000102   0x4351             MULS     R1,R2,R1
   \   00000104   0x220A             MOVS     R2,#+10
   \   00000106   0xFB91 0xF1F2      SDIV     R1,R1,R2
   \   0000010A   0x....             LDR.N    R2,??DataTable51_5
   \   0000010C   0x8812             LDRH     R2,[R2, #+0]
   \   0000010E   0x1851             ADDS     R1,R2,R1
   \   00000110   0x....             LDR.N    R2,??DataTable51_36
   \   00000112   0x8011             STRH     R1,[R2, #+0]
    879              return;
   \   00000114   0xE01B             B.N      ??Speed_Compute_PWM_1
    880            }
    881            if((by_Dat > by_Speed_SP2) && (by_Dat < by_Speed_MAX))
   \                     ??Speed_Compute_PWM_8: (+1)
   \   00000116   0x....             LDR.N    R1,??DataTable51_9
   \   00000118   0x7809             LDRB     R1,[R1, #+0]
   \   0000011A   0x0002             MOVS     R2,R0
   \   0000011C   0xB2D2             UXTB     R2,R2            ;; ZeroExt  R2,R2,#+24,#+24
   \   0000011E   0x4291             CMP      R1,R2
   \   00000120   0xD215             BCS.N    ??Speed_Compute_PWM_9
   \   00000122   0x0001             MOVS     R1,R0
   \   00000124   0x....             LDR.N    R2,??DataTable51_8
   \   00000126   0x7812             LDRB     R2,[R2, #+0]
   \   00000128   0xB2C9             UXTB     R1,R1            ;; ZeroExt  R1,R1,#+24,#+24
   \   0000012A   0x4291             CMP      R1,R2
   \   0000012C   0xD20F             BCS.N    ??Speed_Compute_PWM_9
    882            {
    883              w_PWM_value=(((by_Dat-by_Speed_SP2)*(w_S4_PWM_Data))/10)+w_PWM_SP2;
   \   0000012E   0xB2C0             UXTB     R0,R0            ;; ZeroExt  R0,R0,#+24,#+24
   \   00000130   0x....             LDR.N    R1,??DataTable51_9
   \   00000132   0x7809             LDRB     R1,[R1, #+0]
   \   00000134   0x1A41             SUBS     R1,R0,R1
   \   00000136   0x....             LDR.N    R2,??DataTable51_40
   \   00000138   0x8812             LDRH     R2,[R2, #+0]
   \   0000013A   0x4351             MULS     R1,R2,R1
   \   0000013C   0x220A             MOVS     R2,#+10
   \   0000013E   0xFB91 0xF1F2      SDIV     R1,R1,R2
   \   00000142   0x....             LDR.N    R2,??DataTable51_4
   \   00000144   0x8812             LDRH     R2,[R2, #+0]
   \   00000146   0x1851             ADDS     R1,R2,R1
   \   00000148   0x....             LDR.N    R2,??DataTable51_36
   \   0000014A   0x8011             STRH     R1,[R2, #+0]
    884              return;
   \   0000014C   0xE7FF             B.N      ??Speed_Compute_PWM_1
    885            }
    886          }
   \                     ??Speed_Compute_PWM_9: (+1)
   \                     ??Speed_Compute_PWM_1: (+1)
   \   0000014E   0x4770             BX       LR               ;; return

   \                                 In section .text, align 4, keep-with-next
   \                     ??DataTable46:
   \   00000000   0x........         DC32     by_Time_250ms

   \                                 In section .text, align 4, keep-with-next
   \                     ??DataTable46_1:
   \   00000000   0x........         DC32     by_Time_100ms

   \                                 In section .text, align 4, keep-with-next
   \                     ??DataTable46_2:
   \   00000000   0x........         DC32     by_Speed_MIN

   \                                 In section .text, align 4, keep-with-next
   \                     ??DataTable46_3:
   \   00000000   0x........         DC32     by_Speed

   \                                 In section .text, align 4, keep-with-next
   \                     ??DataTable46_4:
   \   00000000   0x........         DC32     by_Base

   \                                 In section .text, align 4, keep-with-next
   \                     ??DataTable46_5:
   \   00000000   0x........         DC32     w_Auto_Speed_Step

   \                                 In section .text, align 4, keep-with-next
   \                     ??DataTable46_6:
   \   00000000   0x........         DC32     i_Offset

   \                                 In section .text, align 4, keep-with-next
   \                     ??DataTable46_7:
   \   00000000   0x........         DC32     `b`

   \                                 In section .text, align 4, keep-with-next
   \                     ??DataTable46_8:
   \   00000000   0x........         DC32     w_PWM_Time

   \                                 In section .text, align 4, keep-with-next
   \                     ??DataTable46_9:
   \   00000000   0x........         DC32     w_PWM_Target

   \                                 In section .text, align 4, keep-with-next
   \                     ??DataTable46_10:
   \   00000000   0x........         DC32     by_Speed_MAX

   \                                 In section .text, align 4, keep-with-next
   \                     ??DataTable47:
   \   00000000   0x........         DC32     step_limit

   \                                 In section .text, align 4, keep-with-next
   \                     ??DataTable47_1:
   \   00000000   0x........         DC32     w_PWM_Dec_Step

   \                                 In section .text, align 4, keep-with-next
   \                     ??DataTable47_2:
   \   00000000   0x........         DC32     w_PWM_Add_Step

   \                                 In section .text, align 4, keep-with-next
   \                     ??DataTable48:
   \   00000000   0x........         DC32     `Speed_Set_100ms_Flag_Int::by_AUTO_Time`

   \                                 In section .text, align 4, keep-with-next
   \                     ??DataTable49:
   \   00000000   0x........         DC32     by_Speed_SP1

   \                                 In section .text, align 4, keep-with-next
   \                     ??DataTable49_1:
   \   00000000   0x........         DC32     `Speed_Calculate_PWM_Point::by_S1`

   \                                 In section .text, align 4, keep-with-next
   \                     ??DataTable49_2:
   \   00000000   0x........         DC32     by_Speed_MID

   \                                 In section .text, align 4, keep-with-next
   \                     ??DataTable49_3:
   \   00000000   0x........         DC32     `Speed_Calculate_PWM_Point::by_S2`

   \                                 In section .text, align 4, keep-with-next
   \                     ??DataTable49_4:
   \   00000000   0x........         DC32     by_Speed_SP2

   \                                 In section .text, align 4, keep-with-next
   \                     ??DataTable49_5:
   \   00000000   0x........         DC32     `Speed_Calculate_PWM_Point::by_S3`

   \                                 In section .text, align 4, keep-with-next
   \                     ??DataTable49_6:
   \   00000000   0x........         DC32     `Speed_Calculate_PWM_Point::by_S4`

   \                                 In section .text, align 4, keep-with-next
   \                     ??DataTable49_7:
   \   00000000   0x........         DC32     w_PWM_SP2

   \                                 In section .text, align 4, keep-with-next
   \                     ??DataTable49_8:
   \   00000000   0x........         DC32     w_S4_PWM_Data

   \                                 In section .text, align 4, keep-with-next
   \                     ??DataTable50:
   \   00000000   0x........         DC32     w_PWM_MAX

   \                                 In section .text, align 4, keep-with-next
   \                     ??DataTable50_1:
   \   00000000   0x........         DC32     w_PWM_MID

   \                                 In section .text, align 4, keep-with-next
   \                     ??DataTable50_2:
   \   00000000   0x........         DC32     w_S3_PWM_Data

   \                                 In section .text, align 4, keep-with-next
   \                     ??DataTable50_3:
   \   00000000   0x........         DC32     w_PWM_SP1

   \                                 In section .text, align 4, keep-with-next
   \                     ??DataTable50_4:
   \   00000000   0x........         DC32     w_S2_PWM_Data

   \                                 In section .text, align 4, keep-with-next
   \                     ??DataTable50_5:
   \   00000000   0x........         DC32     w_PWM_MIN

   \                                 In section .text, align 4, keep-with-next
   \                     ??DataTable50_6:
   \   00000000   0x........         DC32     w_S1_PWM_Data

   \                                 In section .text, align 4, keep-with-next
   \                     ??DataTable51:
   \   00000000   0x........         DC32     InclineTimeout

   \                                 In section .text, align 4, keep-with-next
   \                     ??DataTable51_1:
   \   00000000   0x........         DC32     w_PWM_Time

   \                                 In section .text, align 4, keep-with-next
   \                     ??DataTable51_2:
   \   00000000   0x........         DC32     w_PWM_Target

   \                                 In section .text, align 4, keep-with-next
   \                     ??DataTable51_3:
   \   00000000   0x........         DC32     w_PWM_MAX

   \                                 In section .text, align 4, keep-with-next
   \                     ??DataTable51_4:
   \   00000000   0x........         DC32     w_PWM_SP2

   \                                 In section .text, align 4, keep-with-next
   \                     ??DataTable51_5:
   \   00000000   0x........         DC32     w_PWM_MID

   \                                 In section .text, align 4, keep-with-next
   \                     ??DataTable51_6:
   \   00000000   0x........         DC32     w_PWM_SP1

   \                                 In section .text, align 4, keep-with-next
   \                     ??DataTable51_7:
   \   00000000   0x........         DC32     w_PWM_MIN

   \                                 In section .text, align 4, keep-with-next
   \                     ??DataTable51_8:
   \   00000000   0x........         DC32     by_Speed_MAX

   \                                 In section .text, align 4, keep-with-next
   \                     ??DataTable51_9:
   \   00000000   0x........         DC32     by_Speed_SP2

   \                                 In section .text, align 4, keep-with-next
   \                     ??DataTable51_10:
   \   00000000   0x........         DC32     by_Speed_MID

   \                                 In section .text, align 4, keep-with-next
   \                     ??DataTable51_11:
   \   00000000   0x........         DC32     by_Speed_SP1

   \                                 In section .text, align 4, keep-with-next
   \                     ??DataTable51_12:
   \   00000000   0x........         DC32     by_Speed_MIN

   \                                 In section .text, align 4, keep-with-next
   \                     ??DataTable51_13:
   \   00000000   0x........         DC32     w_PWM_Old

   \                                 In section .text, align 4, keep-with-next
   \                     ??DataTable51_14:
   \   00000000   0x........         DC32     w_Speed_Old

   \                                 In section .text, align 4, keep-with-next
   \                     ??DataTable51_15:
   \   00000000   0x........         DC32     by_Stop_Time

   \                                 In section .text, align 4, keep-with-next
   \                     ??DataTable51_16:
   \   00000000   0x........         DC32     old_by_mode

   \                                 In section .text, align 4, keep-with-next
   \                     ??DataTable51_17:
   \   00000000   0x........         DC32     `Speed_Auto_Run::RPM0`

   \                                 In section .text, align 4, keep-with-next
   \                     ??DataTable51_18:
   \   00000000   0x........         DC32     `Speed_Auto_Run::pwm0`

   \                                 In section .text, align 4, keep-with-next
   \                     ??DataTable51_19:
   \   00000000   0x........         DC32     `Speed_Auto_Run::MIN_Speed_Compute_PWM_flag`

   \                                 In section .text, align 4, keep-with-next
   \                     ??DataTable51_20:
   \   00000000   0x........         DC32     Eng2_Px

   \                                 In section .text, align 4, keep-with-next
   \                     ??DataTable51_21:
   \   00000000   0x........         DC32     `Speed_Auto_Run::RPM1`

   \                                 In section .text, align 4, keep-with-next
   \                     ??DataTable51_22:
   \   00000000   0x........         DC32     `Speed_Auto_Run::pwm1`

   \                                 In section .text, align 4, keep-with-next
   \                     ??DataTable51_23:
   \   00000000   0x........         DC32     K1

   \                                 In section .text, align 4, keep-with-next
   \                     ??DataTable51_24:
   \   00000000   0x........         DC32     B1

   \                                 In section .text, align 4, keep-with-next
   \                     ??DataTable51_25:
   \   00000000   0x........         DC32     `Speed_Auto_Run::RPM2`

   \                                 In section .text, align 4, keep-with-next
   \                     ??DataTable51_26:
   \   00000000   0x........         DC32     `Speed_Auto_Run::pwm2`

   \                                 In section .text, align 4, keep-with-next
   \                     ??DataTable51_27:
   \   00000000   0x........         DC32     `Speed_Auto_Run::RPM3`

   \                                 In section .text, align 4, keep-with-next
   \                     ??DataTable51_28:
   \   00000000   0x........         DC32     `Speed_Auto_Run::pwm3`

   \                                 In section .text, align 4, keep-with-next
   \                     ??DataTable51_29:
   \   00000000   0x........         DC32     `Speed_Auto_Run::RPM4`

   \                                 In section .text, align 4, keep-with-next
   \                     ??DataTable51_30:
   \   00000000   0x........         DC32     `Speed_Auto_Run::pwm4`

   \                                 In section .text, align 4, keep-with-next
   \                     ??DataTable51_31:
   \   00000000   0x........         DC32     pwm_value

   \                                 In section .text, align 4, keep-with-next
   \                     ??DataTable51_32:
   \   00000000   0x........         DC32     w_PWM_Add_Step

   \                                 In section .text, align 4, keep-with-next
   \                     ??DataTable51_33:
   \   00000000   0x........         DC32     w_PWM_Dec_Step

   \                                 In section .text, align 4, keep-with-next
   \                     ??DataTable51_34:
   \   00000000   0x........         DC32     by_Time_250ms

   \                                 In section .text, align 4, keep-with-next
   \                     ??DataTable51_35:
   \   00000000   0x........         DC32     by_Time_100ms

   \                                 In section .text, align 4, keep-with-next
   \                     ??DataTable51_36:
   \   00000000   0x........         DC32     w_PWM_value

   \                                 In section .text, align 4, keep-with-next
   \                     ??DataTable51_37:
   \   00000000   0x........         DC32     w_S1_PWM_Data

   \                                 In section .text, align 4, keep-with-next
   \                     ??DataTable51_38:
   \   00000000   0x........         DC32     w_S2_PWM_Data

   \                                 In section .text, align 4, keep-with-next
   \                     ??DataTable51_39:
   \   00000000   0x........         DC32     w_S3_PWM_Data

   \                                 In section .text, align 4, keep-with-next
   \                     ??DataTable51_40:
   \   00000000   0x........         DC32     w_S4_PWM_Data
    887          

   Maximum stack usage in bytes:

   .cstack Function
   ------- --------
       0   ResetInclinePauseZeroingTimer
       8   Speed_1ms_Int
         8   -> RPM_Set_100ms_Flag_Int
         8   -> Speed_Process_PWM_Int_New
         8   -> Speed_Set_100ms_Flag_Int
       0   Speed_Add_Base
       8   Speed_Add_PWM_Target
         8   -> SystemConfig_Get_Int
       0   Speed_Auto_Check_Move
      24   Speed_Auto_Run
        24   -> __aeabi_f2iz
        24   -> __aeabi_fadd
        24   -> __aeabi_fdiv
        24   -> __aeabi_fmul
        24   -> __aeabi_fsub
        24   -> __aeabi_i2f
        24   -> __aeabi_ui2f
       0   Speed_Calculate_PWM_Point
       0   Speed_Clear_Auto
       0   Speed_Compute_PWM
       0   Speed_Dec_Base
       0   Speed_Dec_PWM_Target
       0   Speed_Get_Base
       0   Speed_Get_ERROR1
       0   Speed_Get_MAX
       0   Speed_Get_MIN
       0   Speed_Get_OK
       0   Speed_Get_PWM_MAX
       0   Speed_Get_PWM_MID
       0   Speed_Get_PWM_MIN
       0   Speed_Get_PWM_SP1
       0   Speed_Get_PWM_SP2
       0   Speed_Get_PWM_Target
       0   Speed_Get_PWM_Time
       0   Speed_Get_Program
       8   Speed_Get_Safe_Key
         8   -> HAL_SafetyKey_Get_Attached
         8   -> HW_Speed_Set_Motor
       0   Speed_Get_Speed
       0   Speed_Get_bySPEED
       8   Speed_Initial_Data
         8   -> RPM_Set_Speed_Mode
         8   -> Speed_Calculate_PWM_Point
         8   -> Speed_Set_Speed_Mode
         8   -> Speed_Switch_PWM
         8   -> SystemConfig_Get_Char
         8   -> SystemConfig_Get_Int
      24   Speed_Process_PWM_Int_New
        24   -> HW_Speed_Pwm_Enable
        24   -> HW_Speed_Pwm_Value
        24   -> HW_Speed_Set_Motor
       0   Speed_Quick_Stop
       0   Speed_Set_100ms_Flag_Int
       0   Speed_Set_Base
       0   Speed_Set_ERROR1
       0   Speed_Set_MAX
       0   Speed_Set_MID
       0   Speed_Set_MIN
       0   Speed_Set_PWM_MAX
       0   Speed_Set_PWM_MID
       0   Speed_Set_PWM_MIN
       0   Speed_Set_PWM_SP1
       0   Speed_Set_PWM_SP2
       0   Speed_Set_PWM_Target
       0   Speed_Set_PWM_Test
       0   Speed_Set_SP1
       0   Speed_Set_SP2
       8   Speed_Set_Speed
         8   -> Speed_Switch_PWM
       0   Speed_Set_Speed_Mode
       0   Speed_Set_Start
       0   Speed_Set_Time_250ms
      16   Speed_Step_Switch
        16   -> SystemConfig_Get_Char
       0   Speed_Switch_PWM
       8   Speed_Updata_Speed
         8   -> Program_Get_Speed
         8   -> Speed_Switch_PWM


   Section sizes:

   Bytes  Function/Label
   -----  --------------
       4  ??DataTable46
       4  ??DataTable46_1
       4  ??DataTable46_10
       4  ??DataTable46_2
       4  ??DataTable46_3
       4  ??DataTable46_4
       4  ??DataTable46_5
       4  ??DataTable46_6
       4  ??DataTable46_7
       4  ??DataTable46_8
       4  ??DataTable46_9
       4  ??DataTable47
       4  ??DataTable47_1
       4  ??DataTable47_2
       4  ??DataTable48
       4  ??DataTable49
       4  ??DataTable49_1
       4  ??DataTable49_2
       4  ??DataTable49_3
       4  ??DataTable49_4
       4  ??DataTable49_5
       4  ??DataTable49_6
       4  ??DataTable49_7
       4  ??DataTable49_8
       4  ??DataTable50
       4  ??DataTable50_1
       4  ??DataTable50_2
       4  ??DataTable50_3
       4  ??DataTable50_4
       4  ??DataTable50_5
       4  ??DataTable50_6
       4  ??DataTable51
       4  ??DataTable51_1
       4  ??DataTable51_10
       4  ??DataTable51_11
       4  ??DataTable51_12
       4  ??DataTable51_13
       4  ??DataTable51_14
       4  ??DataTable51_15
       4  ??DataTable51_16
       4  ??DataTable51_17
       4  ??DataTable51_18
       4  ??DataTable51_19
       4  ??DataTable51_2
       4  ??DataTable51_20
       4  ??DataTable51_21
       4  ??DataTable51_22
       4  ??DataTable51_23
       4  ??DataTable51_24
       4  ??DataTable51_25
       4  ??DataTable51_26
       4  ??DataTable51_27
       4  ??DataTable51_28
       4  ??DataTable51_29
       4  ??DataTable51_3
       4  ??DataTable51_30
       4  ??DataTable51_31
       4  ??DataTable51_32
       4  ??DataTable51_33
       4  ??DataTable51_34
       4  ??DataTable51_35
       4  ??DataTable51_36
       4  ??DataTable51_37
       4  ??DataTable51_38
       4  ??DataTable51_39
       4  ??DataTable51_4
       4  ??DataTable51_40
       4  ??DataTable51_5
       4  ??DataTable51_6
       4  ??DataTable51_7
       4  ??DataTable51_8
       4  ??DataTable51_9
       4  B1
       4  InclineTimeout
       4  K1
       4  MIN_Speed_Compute_PWM_flag
      56  PID
       4  RPM0
       4  RPM1
       4  RPM2
       4  RPM3
       4  RPM4
      10  ResetInclinePauseZeroingTimer
     100  Speed_1ms_Int
      38  Speed_Add_Base
      58  Speed_Add_PWM_Target
      98  Speed_Auto_Check_Move
     936  Speed_Auto_Run
     286  Speed_Calculate_PWM_Point
      26  Speed_Clear_Auto
     336  Speed_Compute_PWM
      38  Speed_Dec_Base
      44  Speed_Dec_PWM_Target
       8  Speed_Get_Base
      22  Speed_Get_ERROR1
       8  Speed_Get_MAX
       8  Speed_Get_MIN
      22  Speed_Get_OK
       8  Speed_Get_PWM_MAX
       8  Speed_Get_PWM_MID
       8  Speed_Get_PWM_MIN
       8  Speed_Get_PWM_SP1
       8  Speed_Get_PWM_SP2
       8  Speed_Get_PWM_Target
       8  Speed_Get_PWM_Time
      78  Speed_Get_Program
      60  Speed_Get_Safe_Key
     120  Speed_Get_Speed
       8  Speed_Get_bySPEED
     226  Speed_Initial_Data
     342  Speed_Process_PWM_Int_New
      22  Speed_Quick_Stop
      52  Speed_Set_100ms_Flag_Int
      28  Speed_Set_Base
      42  Speed_Set_ERROR1
       8  Speed_Set_MAX
       8  Speed_Set_MID
       8  Speed_Set_MIN
       8  Speed_Set_PWM_MAX
       8  Speed_Set_PWM_MID
       8  Speed_Set_PWM_MIN
       8  Speed_Set_PWM_SP1
       8  Speed_Set_PWM_SP2
       8  Speed_Set_PWM_Target
      34  Speed_Set_PWM_Test
       8  Speed_Set_SP1
       8  Speed_Set_SP2
      86  Speed_Set_Speed
      42  Speed_Set_Speed_Mode
      42  Speed_Set_Start
       6  Speed_Set_Time_250ms
     220  Speed_Step_Switch
     386  Speed_Switch_PWM
      32  Speed_Updata_Speed
       4  b
       1  by_AUTO_Time
       1  by_Base
       1  by_S1
       1  by_S2
       1  by_S3
       1  by_S4
       1  by_Speed
       1  by_Speed_MAX
       1  by_Speed_MID
       1  by_Speed_MIN
       1  by_Speed_SP1
       1  by_Speed_SP2
       1  by_Stop_Time
       2  by_Time_100ms
       2  by_Time_250ms
       2  i_Offset
       1  old_by_mode
       4  pwm0
       4  pwm1
       4  pwm2
       4  pwm3
       4  pwm4
       2  pwm_value
       2  step_limit
       2  w_Auto_Speed_Step
       2  w_PWM_Add_Step
       2  w_PWM_Dec_Step
       2  w_PWM_MAX
       2  w_PWM_MID
       2  w_PWM_MIN
       2  w_PWM_Old
       2  w_PWM_SP1
       2  w_PWM_SP2
       2  w_PWM_Target
       2  w_PWM_Time
       2  w_PWM_value
       2  w_S1_PWM_Data
       2  w_S2_PWM_Data
       2  w_S3_PWM_Data
       2  w_S4_PWM_Data
       2  w_Speed_Old

 
   128 bytes in section .bss
     1 byte  in section .data
    45 bytes in section .noinit
 4 296 bytes in section .text
 
 4 296 bytes of CODE memory
   174 bytes of DATA memory

Errors: none
Warnings: 20
