###############################################################################
#
# IAR ANSI C/C++ Compiler V7.80.4.12462/W32 for ARM       12/Dec/2022  11:41:27
# Copyright 1999-2017 IAR Systems AB.
#
#    Cpu mode     =  thumb
#    Endian       =  little
#    Source file  =  
#        C:\Users\shaomingkun\Desktop\git\evolve5.0\2021sw\ECOM-5\Modules\EFM32_lib\Device\EnergyMicro\EFM32LG\Source\system_efm32lg.c
#    Command line =  
#        C:\Users\shaomingkun\Desktop\git\evolve5.0\2021sw\ECOM-5\Modules\EFM32_lib\Device\EnergyMicro\EFM32LG\Source\system_efm32lg.c
#        -D EFM32LG380F256 -D BSP_CORTEX_EFM32 -D DEBUG_EFM_JJ -D
#        RF_MODULE_EXIST____ -lC
#        C:\Users\shaomingkun\Desktop\git\evolve5.0\2021sw\ECOM-5\Debug\List
#        -lA
#        C:\Users\shaomingkun\Desktop\git\evolve5.0\2021sw\ECOM-5\Debug\List -o
#        C:\Users\shaomingkun\Desktop\git\evolve5.0\2021sw\ECOM-5\Debug\Obj
#        --no_cse --no_unroll --no_inline --no_code_motion --no_tbaa
#        --no_clustering --no_scheduling --debug --endian=little
#        --cpu=Cortex-M3 -e --fpu=None --dlib_config "C:\Program Files
#        (x86)\IAR Systems\Embedded Workbench
#        7.5\arm\INC\c\DLib_Config_Normal.h" -I
#        C:\Users\shaomingkun\Desktop\git\evolve5.0\2021sw\ECOM-5\ -I
#        C:\Users\shaomingkun\Desktop\git\evolve5.0\2021sw\ECOM-5\Local\ -I
#        C:\Users\shaomingkun\Desktop\git\evolve5.0\2021sw\ECOM-5\Modules\ -I
#        C:\Users\shaomingkun\Desktop\git\evolve5.0\2021sw\ECOM-5\Modules\Utilities_Lib\
#        -I
#        C:\Users\shaomingkun\Desktop\git\evolve5.0\2021sw\ECOM-5\Modules\HAL_Lib\
#        -I
#        C:\Users\shaomingkun\Desktop\git\evolve5.0\2021sw\ECOM-5\Modules\LCB_Lib\
#        -I
#        C:\Users\shaomingkun\Desktop\git\evolve5.0\2021sw\ECOM-5\Modules\Eng_lib\
#        -I
#        C:\Users\shaomingkun\Desktop\git\evolve5.0\2021sw\ECOM-5\..\Modules\Eng_lib\
#        -I
#        C:\Users\shaomingkun\Desktop\git\evolve5.0\2021sw\ECOM-5\Modules\SystemConfig_Lib\
#        -I
#        C:\Users\shaomingkun\Desktop\git\evolve5.0\2021sw\ECOM-5\Modules\EFM32_lib\
#        -I
#        C:\Users\shaomingkun\Desktop\git\evolve5.0\2021sw\ECOM-5\Modules\EFM32_lib\drivers\
#        -I
#        C:\Users\shaomingkun\Desktop\git\evolve5.0\2021sw\ECOM-5\Modules\Program_lib\
#        -I
#        C:\Users\shaomingkun\Desktop\git\evolve5.0\2021sw\ECOM-5\Modules\RF_lib\
#        -I
#        C:\Users\shaomingkun\Desktop\git\evolve5.0\2021sw\ECOM-5\Modules\USB_lib\
#        -I
#        C:\Users\shaomingkun\Desktop\git\evolve5.0\2021sw\ECOM-5\Modules\USB_lib\usb\src\
#        -I
#        C:\Users\shaomingkun\Desktop\git\evolve5.0\2021sw\ECOM-5\Modules\USB_lib\usb\inc\
#        -I
#        C:\Users\shaomingkun\Desktop\git\evolve5.0\2021sw\ECOM-5\Modules\Bluetooth_lib\
#        -I
#        C:\Users\shaomingkun\Desktop\git\evolve5.0\2021sw\ECOM-5\Modules\Remote_lib\
#        -I
#        C:\Users\shaomingkun\Desktop\git\evolve5.0\2021sw\ECOM-5\Modules\EFM32_lib\Include\
#        -I
#        C:\Users\shaomingkun\Desktop\git\evolve5.0\2021sw\ECOM-5\Modules\EFM32_lib\emlib\inc\
#        -I
#        C:\Users\shaomingkun\Desktop\git\evolve5.0\2021sw\ECOM-5\Modules\EFM32_lib\emlib\src\
#        -I
#        C:\Users\shaomingkun\Desktop\git\evolve5.0\2021sw\ECOM-5\Modules\EFM32_lib\drivers\fatfs\src\
#        -I
#        C:\Users\shaomingkun\Desktop\git\evolve5.0\2021sw\ECOM-5\Modules\EFM32_lib\Device\EnergyMicro\EFM32LG\Include\
#        -I
#        C:\Users\shaomingkun\Desktop\git\evolve5.0\2021sw\ECOM-5\Modules\EFM32_lib\Device\EnergyMicro\EFM32LG\Source\
#        -I
#        C:\Users\shaomingkun\Desktop\git\evolve5.0\2021sw\ECOM-5\Modules\EFM32_lib\Device\EnergyMicro\EFM32LG\Source\IAR\
#        -I
#        C:\Users\shaomingkun\Desktop\git\evolve5.0\2021sw\ECOM-5\Modules\RTT_Lib\
#        -On
#    Locale       =  Chinese (Simplified)_China.936
#    List file    =  
#        C:\Users\shaomingkun\Desktop\git\evolve5.0\2021sw\ECOM-5\Debug\List\system_efm32lg.lst
#    Object file  =  
#        C:\Users\shaomingkun\Desktop\git\evolve5.0\2021sw\ECOM-5\Debug\Obj\system_efm32lg.o
#
###############################################################################

C:\Users\shaomingkun\Desktop\git\evolve5.0\2021sw\ECOM-5\Modules\EFM32_lib\Device\EnergyMicro\EFM32LG\Source\system_efm32lg.c
      1          /***************************************************************************//**
      2           * @file
      3           * @brief CMSIS Cortex-M3 System Layer for EFM32LG devices.
      4           * @author Energy Micro AS
      5           * @version 3.0.0
      6           *******************************************************************************
      7           * @section License
      8           * <b>(C) Copyright 2012 Energy Micro AS, http://www.energymicro.com</b>
      9           ******************************************************************************
     10           *
     11           * Permission is granted to anyone to use this software for any purpose,
     12           * including commercial applications, and to alter it and redistribute it
     13           * freely, subject to the following restrictions:
     14           *
     15           * 1. The origin of this software must not be misrepresented; you must not
     16           *    claim that you wrote the original software.
     17           * 2. Altered source versions must be plainly marked as such, and must not be
     18           *    misrepresented as being the original software.
     19           * 3. This notice may not be removed or altered from any source distribution.
     20           *
     21           * DISCLAIMER OF WARRANTY/LIMITATION OF REMEDIES: Energy Micro AS has no
     22           * obligation to support this Software. Energy Micro AS is providing the
     23           * Software "AS IS", with no express or implied warranties of any kind,
     24           * including, but not limited to, any implied warranties of merchantability
     25           * or fitness for any particular purpose or warranties against infringement
     26           * of any proprietary rights of a third party.
     27           *
     28           * Energy Micro AS will not be liable for any consequential, incidental, or
     29           * special damages, or any other relief, or for any claim by any third party,
     30           * arising from your use of this Software.
     31           *
     32           ******************************************************************************/
     33          
     34          #include <stdint.h>
     35          #include "efm32.h"
     36          
     37          /*******************************************************************************
     38           ******************************   DEFINES   ************************************
     39           ******************************************************************************/
     40          
     41          /** LFRCO frequency, tuned to below frequency during manufacturing. */
     42          #define EFM32_LFRCO_FREQ  (32768UL)
     43          #define EFM32_ULFRCO_FREQ (1000UL)
     44          
     45          /*******************************************************************************
     46           **************************   LOCAL VARIABLES   ********************************
     47           ******************************************************************************/
     48          
     49          /* System oscillator frequencies. These frequencies are normally constant */
     50          /* for a target, but they are made configurable in order to allow run-time */
     51          /* handling of different boards. The crystal oscillator clocks can be set */
     52          /* compile time to a non-default value by defining respective EFM32_nFXO_FREQ */
     53          /* values according to board design. By defining the EFM32_nFXO_FREQ to 0, */
     54          /* one indicates that the oscillator is not present, in order to save some */
     55          /* SW footprint. */
     56          
     57          #ifndef EFM32_HFXO_FREQ
     58          #ifdef _EFM32_GIANT_FAMILY
     59          #define EFM32_HFXO_FREQ (48000000UL)
     60          #else
     61          #define EFM32_HFXO_FREQ (32000000UL)
     62          #endif
     63          #endif
     64          /* Do not define variable if HF crystal oscillator not present */
     65          #if (EFM32_HFXO_FREQ > 0)
     66          /** @cond DO_NOT_INCLUDE_WITH_DOXYGEN */
     67          /** System HFXO clock. */ 

   \                                 In section .data, align 4
     68          static uint32_t SystemHFXOClock = EFM32_HFXO_FREQ;
   \                     SystemHFXOClock:
   \   00000000   0x02DC6C00         DC32 48000000
     69          /** @endcond (DO_NOT_INCLUDE_WITH_DOXYGEN) */
     70          #endif
     71          
     72          #ifndef EFM32_LFXO_FREQ 
     73          #define EFM32_LFXO_FREQ (EFM32_LFRCO_FREQ)
     74          #endif
     75          /* Do not define variable if LF crystal oscillator not present */
     76          #if (EFM32_LFXO_FREQ > 0)
     77          /** @cond DO_NOT_INCLUDE_WITH_DOXYGEN */
     78          /** System LFXO clock. */ 

   \                                 In section .data, align 4
     79          static uint32_t SystemLFXOClock = EFM32_LFXO_FREQ;
   \                     SystemLFXOClock:
   \   00000000   0x00008000         DC32 32768
     80          /** @endcond (DO_NOT_INCLUDE_WITH_DOXYGEN) */
     81          #endif
     82          
     83          
     84          /*******************************************************************************
     85           **************************   GLOBAL VARIABLES   *******************************
     86           ******************************************************************************/
     87          
     88          /**
     89           * @brief
     90           *   System System Clock Frequency (Core Clock).
     91           *
     92           * @details
     93           *   Required CMSIS global variable that must be kept up-to-date.
     94           */

   \                                 In section .bss, align 4
     95          uint32_t SystemCoreClock;
   \                     SystemCoreClock:
   \   00000000                      DS8 4
     96          
     97          /*******************************************************************************
     98           **************************   GLOBAL FUNCTIONS   *******************************
     99           ******************************************************************************/
    100          
    101          /***************************************************************************//**
    102           * @brief
    103           *   Get the current core clock frequency.
    104           *
    105           * @details
    106           *   Calculate and get the current core clock frequency based on the current
    107           *   configuration. Assuming that the SystemCoreClock global variable is
    108           *   maintained, the core clock frequency is stored in that variable as well.
    109           *   This function will however calculate the core clock based on actual HW
    110           *   configuration. It will also update the SystemCoreClock global variable.
    111           *
    112           * @note
    113           *   This is an EFM32 proprietary function, not part of the CMSIS definition.
    114           *
    115           * @return
    116           *   The current core clock frequency in Hz.
    117           ******************************************************************************/

   \                                 In section .text, align 2, keep-with-next
    118          uint32_t SystemCoreClockGet(void)
    119          {
   \                     SystemCoreClockGet: (+1)
   \   00000000   0xB510             PUSH     {R4,LR}
    120            uint32_t ret;
    121            
    122            ret = SystemHFClockGet();
   \   00000002   0x.... 0x....      BL       SystemHFClockGet
   \   00000006   0x0004             MOVS     R4,R0
    123          #if defined (_EFM32_GIANT_FAMILY)
    124            /* Leopard/Giant Gecko has an additional divider */
    125            ret =  ret / (1 + ((CMU->CTRL & _CMU_CTRL_HFCLKDIV_MASK)>>_CMU_CTRL_HFCLKDIV_SHIFT));
   \   00000008   0x....             LDR.N    R0,??DataTable5  ;; 0x400c8000
   \   0000000A   0x6800             LDR      R0,[R0, #+0]
   \   0000000C   0xF3C0 0x3082      UBFX     R0,R0,#+14,#+3
   \   00000010   0x1C40             ADDS     R0,R0,#+1
   \   00000012   0xFBB4 0xF4F0      UDIV     R4,R4,R0
    126          #endif
    127            ret >>= (CMU->HFCORECLKDIV & _CMU_HFCORECLKDIV_HFCORECLKDIV_MASK) >> 
    128                    _CMU_HFCORECLKDIV_HFCORECLKDIV_SHIFT;
   \   00000016   0x....             LDR.N    R0,??DataTable5_1  ;; 0x400c8004
   \   00000018   0x6800             LDR      R0,[R0, #+0]
   \   0000001A   0xF010 0x000F      ANDS     R0,R0,#0xF
   \   0000001E   0x40C4             LSRS     R4,R4,R0
    129          
    130            /* Keep CMSIS variable up-to-date just in case */
    131            SystemCoreClock = ret;
   \   00000020   0x....             LDR.N    R0,??DataTable5_2
   \   00000022   0x6004             STR      R4,[R0, #+0]
    132          
    133            return ret;
   \   00000024   0x0020             MOVS     R0,R4
   \   00000026   0xBD10             POP      {R4,PC}          ;; return
    134          }
    135          
    136          
    137          /***************************************************************************//**
    138           * @brief
    139           *   Get the current HFCLK frequency.
    140           *
    141           * @note
    142           *   This is an EFM32 proprietary function, not part of the CMSIS definition.
    143           *
    144           * @return
    145           *   The current HFCLK frequency in Hz.
    146           ******************************************************************************/

   \                                 In section .text, align 2, keep-with-next
    147          uint32_t SystemHFClockGet(void)
    148          {
    149            uint32_t ret;
    150            
    151            switch (CMU->STATUS & (CMU_STATUS_HFRCOSEL | CMU_STATUS_HFXOSEL |
    152                                   CMU_STATUS_LFRCOSEL | CMU_STATUS_LFXOSEL))
   \                     SystemHFClockGet: (+1)
   \   00000000   0x....             LDR.N    R1,??DataTable5_3  ;; 0x400c802c
   \   00000002   0x6809             LDR      R1,[R1, #+0]
   \   00000004   0xF411 0x5170      ANDS     R1,R1,#0x3C00
   \   00000008   0xF5B1 0x6F00      CMP      R1,#+2048
   \   0000000C   0xD00D             BEQ.N    ??SystemHFClockGet_0
   \   0000000E   0xF5B1 0x5F80      CMP      R1,#+4096
   \   00000012   0xD006             BEQ.N    ??SystemHFClockGet_1
   \   00000014   0xF5B1 0x5F00      CMP      R1,#+8192
   \   00000018   0xD10B             BNE.N    ??SystemHFClockGet_2
    153            {
    154              case CMU_STATUS_LFXOSEL:
    155          #if (EFM32_LFXO_FREQ > 0)
    156                ret = SystemLFXOClock;
   \                     ??SystemHFClockGet_3: (+1)
   \   0000001A   0x....             LDR.N    R1,??DataTable5_4
   \   0000001C   0x6809             LDR      R1,[R1, #+0]
   \   0000001E   0x0008             MOVS     R0,R1
    157          #else
    158                /* We should not get here, since core should not be clocked. May */
    159                /* be caused by a misconfiguration though. */
    160                ret = 0;
    161          #endif
    162                break;
   \   00000020   0xE030             B.N      ??SystemHFClockGet_4
    163                
    164              case CMU_STATUS_LFRCOSEL:
    165                ret = EFM32_LFRCO_FREQ;
   \                     ??SystemHFClockGet_1: (+1)
   \   00000022   0xF44F 0x4100      MOV      R1,#+32768
   \   00000026   0x0008             MOVS     R0,R1
    166                break;
   \   00000028   0xE02C             B.N      ??SystemHFClockGet_4
    167                
    168              case CMU_STATUS_HFXOSEL:
    169          #if (EFM32_HFXO_FREQ > 0)
    170                ret = SystemHFXOClock;
   \                     ??SystemHFClockGet_0: (+1)
   \   0000002A   0x....             LDR.N    R1,??DataTable5_5
   \   0000002C   0x6809             LDR      R1,[R1, #+0]
   \   0000002E   0x0008             MOVS     R0,R1
    171          #else
    172                /* We should not get here, since core should not be clocked. May */
    173                /* be caused by a misconfiguration though. */
    174                ret = 0;
    175          #endif
    176                break;
   \   00000030   0xE028             B.N      ??SystemHFClockGet_4
    177                
    178              default: /* CMU_STATUS_HFRCOSEL */
    179                switch (CMU->HFRCOCTRL & _CMU_HFRCOCTRL_BAND_MASK)
   \                     ??SystemHFClockGet_2: (+1)
   \   00000032   0x....             LDR.N    R1,??DataTable5_6  ;; 0x400c800c
   \   00000034   0x6809             LDR      R1,[R1, #+0]
   \   00000036   0xF411 0x61E0      ANDS     R1,R1,#0x700
   \   0000003A   0x2900             CMP      R1,#+0
   \   0000003C   0xD01D             BEQ.N    ??SystemHFClockGet_5
   \   0000003E   0xF5B1 0x7F80      CMP      R1,#+256
   \   00000042   0xD017             BEQ.N    ??SystemHFClockGet_6
   \   00000044   0xF5B1 0x7F00      CMP      R1,#+512
   \   00000048   0xD011             BEQ.N    ??SystemHFClockGet_7
   \   0000004A   0xF5B1 0x7F40      CMP      R1,#+768
   \   0000004E   0xD00B             BEQ.N    ??SystemHFClockGet_8
   \   00000050   0xF5B1 0x6F80      CMP      R1,#+1024
   \   00000054   0xD005             BEQ.N    ??SystemHFClockGet_9
   \   00000056   0xF5B1 0x6FA0      CMP      R1,#+1280
   \   0000005A   0xD111             BNE.N    ??SystemHFClockGet_10
    180                {
    181                case CMU_HFRCOCTRL_BAND_28MHZ:
    182                  ret = 28000000;
   \                     ??SystemHFClockGet_11: (+1)
   \   0000005C   0x....             LDR.N    R1,??DataTable5_7  ;; 0x1ab3f00
   \   0000005E   0x0008             MOVS     R0,R1
    183                  break;
   \   00000060   0xE010             B.N      ??SystemHFClockGet_12
    184          
    185                case CMU_HFRCOCTRL_BAND_21MHZ:
    186                  ret = 21000000;
   \                     ??SystemHFClockGet_9: (+1)
   \   00000062   0x....             LDR.N    R1,??DataTable5_8  ;; 0x1406f40
   \   00000064   0x0008             MOVS     R0,R1
    187                  break;
   \   00000066   0xE00D             B.N      ??SystemHFClockGet_12
    188          
    189                case CMU_HFRCOCTRL_BAND_14MHZ:
    190                  ret = 14000000;
   \                     ??SystemHFClockGet_8: (+1)
   \   00000068   0x....             LDR.N    R1,??DataTable5_9  ;; 0xd59f80
   \   0000006A   0x0008             MOVS     R0,R1
    191                  break;
   \   0000006C   0xE00A             B.N      ??SystemHFClockGet_12
    192          
    193                case CMU_HFRCOCTRL_BAND_11MHZ:
    194                  ret = 11000000;
   \                     ??SystemHFClockGet_7: (+1)
   \   0000006E   0x....             LDR.N    R1,??DataTable5_10  ;; 0xa7d8c0
   \   00000070   0x0008             MOVS     R0,R1
    195                  break;
   \   00000072   0xE007             B.N      ??SystemHFClockGet_12
    196          
    197                case CMU_HFRCOCTRL_BAND_7MHZ:
    198                  ret = 7000000;
   \                     ??SystemHFClockGet_6: (+1)
   \   00000074   0x....             LDR.N    R1,??DataTable5_11  ;; 0x6acfc0
   \   00000076   0x0008             MOVS     R0,R1
    199                  break;
   \   00000078   0xE004             B.N      ??SystemHFClockGet_12
    200          
    201                case CMU_HFRCOCTRL_BAND_1MHZ:
    202                  ret = 1000000;
   \                     ??SystemHFClockGet_5: (+1)
   \   0000007A   0x....             LDR.N    R1,??DataTable5_12  ;; 0xf4240
   \   0000007C   0x0008             MOVS     R0,R1
    203                  break;
   \   0000007E   0xE001             B.N      ??SystemHFClockGet_12
    204          
    205                default:
    206                  ret = 0;
   \                     ??SystemHFClockGet_10: (+1)
   \   00000080   0x2100             MOVS     R1,#+0
   \   00000082   0x0008             MOVS     R0,R1
    207                  break;
    208                }
    209                break;
    210            }
    211          
    212            return ret;
   \                     ??SystemHFClockGet_12: (+1)
   \                     ??SystemHFClockGet_4: (+1)
   \   00000084   0x4770             BX       LR               ;; return
    213          }
    214          
    215          
    216          /**************************************************************************//**
    217           * @brief
    218           *   Get high frequency crystal oscillator clock frequency for target system.
    219           *
    220           * @note
    221           *   This is an EFM32 proprietary function, not part of the CMSIS definition.
    222           *
    223           * @return
    224           *   HFXO frequency in Hz.
    225           *****************************************************************************/

   \                                 In section .text, align 2, keep-with-next
    226          uint32_t SystemHFXOClockGet(void)
    227          {
    228            /* External crystal oscillator present? */
    229          #if (EFM32_HFXO_FREQ > 0)
    230            return SystemHFXOClock;
   \                     SystemHFXOClockGet: (+1)
   \   00000000   0x....             LDR.N    R0,??DataTable5_5
   \   00000002   0x6800             LDR      R0,[R0, #+0]
   \   00000004   0x4770             BX       LR               ;; return
    231          #else
    232            return 0;
    233          #endif
    234          }
    235          
    236          
    237          /**************************************************************************//**
    238           * @brief
    239           *   Set high frequency crystal oscillator clock frequency for target system.
    240           *
    241           * @note
    242           *   This function is mainly provided for being able to handle target systems
    243           *   with different HF crystal oscillator frequencies run-time. If used, it
    244           *   should probably only be used once during system startup.
    245           *
    246           * @note
    247           *   This is an EFM32 proprietary function, not part of the CMSIS definition.
    248           *
    249           * @param[in] freq
    250           *   HFXO frequency in Hz used for target.
    251           *****************************************************************************/

   \                                 In section .text, align 2, keep-with-next
    252          void SystemHFXOClockSet(uint32_t freq)
    253          {
   \                     SystemHFXOClockSet: (+1)
   \   00000000   0xB510             PUSH     {R4,LR}
   \   00000002   0x0004             MOVS     R4,R0
    254            /* External crystal oscillator present? */
    255          #if (EFM32_HFXO_FREQ > 0)
    256            SystemHFXOClock = freq;
   \   00000004   0x....             LDR.N    R0,??DataTable5_5
   \   00000006   0x6004             STR      R4,[R0, #+0]
    257          
    258            /* Update core clock frequency if HFXO is used to clock core */
    259            if (CMU->STATUS & CMU_STATUS_HFXOSEL)
   \   00000008   0x....             LDR.N    R0,??DataTable5_3  ;; 0x400c802c
   \   0000000A   0x6800             LDR      R0,[R0, #+0]
   \   0000000C   0x0500             LSLS     R0,R0,#+20
   \   0000000E   0xD501             BPL.N    ??SystemHFXOClockSet_0
    260            {
    261              /* The function will update the global variable */
    262              SystemCoreClockGet();
   \   00000010   0x.... 0x....      BL       SystemCoreClockGet
    263            }
    264          #else
    265            (void)freq; /* Unused parameter */
    266          #endif
    267          }
   \                     ??SystemHFXOClockSet_0: (+1)
   \   00000014   0xBD10             POP      {R4,PC}          ;; return
    268          
    269          
    270          /**************************************************************************//**
    271           * @brief
    272           *   Initialize the system.
    273           *
    274           * @details
    275           *   Do required generic HW system init.
    276           *
    277           * @note
    278           *   This function is invoked during system init, before the main() routine
    279           *   and any data has been initialized. For this reason, it cannot do any
    280           *   initialization of variables etc.
    281           *****************************************************************************/

   \                                 In section .text, align 2, keep-with-next
    282          void SystemInit(void)
    283          {
    284          }
   \                     SystemInit: (+1)
   \   00000000   0x4770             BX       LR               ;; return
    285          
    286          
    287          /**************************************************************************//**
    288           * @brief
    289           *   Get low frequency RC oscillator clock frequency for target system.
    290           *
    291           * @note
    292           *   This is an EFM32 proprietary function, not part of the CMSIS definition.
    293           *
    294           * @return
    295           *   LFRCO frequency in Hz.
    296           *****************************************************************************/

   \                                 In section .text, align 2, keep-with-next
    297          uint32_t SystemLFRCOClockGet(void)
    298          {
    299            /* Currently we assume that this frequency is properly tuned during */
    300            /* manufacturing and is not changed after reset. If future requirements */
    301            /* for re-tuning by user, we can add support for that. */
    302            return EFM32_LFRCO_FREQ;
   \                     SystemLFRCOClockGet: (+1)
   \   00000000   0xF44F 0x4000      MOV      R0,#+32768
   \   00000004   0x4770             BX       LR               ;; return
    303          }
    304          
    305          
    306          /**************************************************************************//**
    307           * @brief
    308           *   Get ultra low frequency RC oscillator clock frequency for target system.
    309           *
    310           * @note
    311           *   This is an EFM32 proprietary function, not part of the CMSIS definition.
    312           *
    313           * @return
    314           *   ULFRCO frequency in Hz.
    315           *****************************************************************************/

   \                                 In section .text, align 2, keep-with-next
    316          uint32_t SystemULFRCOClockGet(void)
    317          {
    318            /* The ULFRCO frequency is not tuned, and can be very inaccurate */
    319            return EFM32_ULFRCO_FREQ;
   \                     SystemULFRCOClockGet: (+1)
   \   00000000   0xF44F 0x707A      MOV      R0,#+1000
   \   00000004   0x4770             BX       LR               ;; return
    320          }
    321          
    322          
    323          /**************************************************************************//**
    324           * @brief
    325           *   Get low frequency crystal oscillator clock frequency for target system.
    326           *
    327           * @note
    328           *   This is an EFM32 proprietary function, not part of the CMSIS definition.
    329           *
    330           * @return
    331           *   LFXO frequency in Hz.
    332           *****************************************************************************/

   \                                 In section .text, align 2, keep-with-next
    333          uint32_t SystemLFXOClockGet(void)
    334          {
    335            /* External crystal oscillator present? */
    336          #if (EFM32_LFXO_FREQ > 0)
    337            return SystemLFXOClock;
   \                     SystemLFXOClockGet: (+1)
   \   00000000   0x....             LDR.N    R0,??DataTable5_4
   \   00000002   0x6800             LDR      R0,[R0, #+0]
   \   00000004   0x4770             BX       LR               ;; return
    338          #else
    339            return 0;
    340          #endif
    341          }
    342          
    343          
    344          /**************************************************************************//**
    345           * @brief
    346           *   Set low frequency crystal oscillator clock frequency for target system.
    347           *
    348           * @note
    349           *   This function is mainly provided for being able to handle target systems
    350           *   with different HF crystal oscillator frequencies run-time. If used, it
    351           *   should probably only be used once during system startup.
    352           *
    353           * @note
    354           *   This is an EFM32 proprietary function, not part of the CMSIS definition.
    355           *
    356           * @param[in] freq
    357           *   LFXO frequency in Hz used for target.
    358           *****************************************************************************/

   \                                 In section .text, align 2, keep-with-next
    359          void SystemLFXOClockSet(uint32_t freq)
    360          {
   \                     SystemLFXOClockSet: (+1)
   \   00000000   0xB510             PUSH     {R4,LR}
   \   00000002   0x0004             MOVS     R4,R0
    361            /* External crystal oscillator present? */
    362          #if (EFM32_LFXO_FREQ > 0)
    363            SystemLFXOClock = freq;
   \   00000004   0x....             LDR.N    R0,??DataTable5_4
   \   00000006   0x6004             STR      R4,[R0, #+0]
    364          
    365            /* Update core clock frequency if LFXO is used to clock core */
    366            if (CMU->STATUS & CMU_STATUS_LFXOSEL)
   \   00000008   0x....             LDR.N    R0,??DataTable5_3  ;; 0x400c802c
   \   0000000A   0x6800             LDR      R0,[R0, #+0]
   \   0000000C   0x0480             LSLS     R0,R0,#+18
   \   0000000E   0xD501             BPL.N    ??SystemLFXOClockSet_0
    367            {
    368              /* The function will update the global variable */
    369              SystemCoreClockGet();
   \   00000010   0x.... 0x....      BL       SystemCoreClockGet
    370            }
    371          #else
    372            (void)freq; /* Unused parameter */
    373          #endif
    374          }
   \                     ??SystemLFXOClockSet_0: (+1)
   \   00000014   0xBD10             POP      {R4,PC}          ;; return

   \                                 In section .text, align 4, keep-with-next
   \                     ??DataTable5:
   \   00000000   0x400C8000         DC32     0x400c8000

   \                                 In section .text, align 4, keep-with-next
   \                     ??DataTable5_1:
   \   00000000   0x400C8004         DC32     0x400c8004

   \                                 In section .text, align 4, keep-with-next
   \                     ??DataTable5_2:
   \   00000000   0x........         DC32     SystemCoreClock

   \                                 In section .text, align 4, keep-with-next
   \                     ??DataTable5_3:
   \   00000000   0x400C802C         DC32     0x400c802c

   \                                 In section .text, align 4, keep-with-next
   \                     ??DataTable5_4:
   \   00000000   0x........         DC32     SystemLFXOClock

   \                                 In section .text, align 4, keep-with-next
   \                     ??DataTable5_5:
   \   00000000   0x........         DC32     SystemHFXOClock

   \                                 In section .text, align 4, keep-with-next
   \                     ??DataTable5_6:
   \   00000000   0x400C800C         DC32     0x400c800c

   \                                 In section .text, align 4, keep-with-next
   \                     ??DataTable5_7:
   \   00000000   0x01AB3F00         DC32     0x1ab3f00

   \                                 In section .text, align 4, keep-with-next
   \                     ??DataTable5_8:
   \   00000000   0x01406F40         DC32     0x1406f40

   \                                 In section .text, align 4, keep-with-next
   \                     ??DataTable5_9:
   \   00000000   0x00D59F80         DC32     0xd59f80

   \                                 In section .text, align 4, keep-with-next
   \                     ??DataTable5_10:
   \   00000000   0x00A7D8C0         DC32     0xa7d8c0

   \                                 In section .text, align 4, keep-with-next
   \                     ??DataTable5_11:
   \   00000000   0x006ACFC0         DC32     0x6acfc0

   \                                 In section .text, align 4, keep-with-next
   \                     ??DataTable5_12:
   \   00000000   0x000F4240         DC32     0xf4240

   Maximum stack usage in bytes:

   .cstack Function
   ------- --------
       8   SystemCoreClockGet
         8   -> SystemHFClockGet
       0   SystemHFClockGet
       0   SystemHFXOClockGet
       8   SystemHFXOClockSet
         8   -> SystemCoreClockGet
       0   SystemInit
       0   SystemLFRCOClockGet
       0   SystemLFXOClockGet
       8   SystemLFXOClockSet
         8   -> SystemCoreClockGet
       0   SystemULFRCOClockGet


   Section sizes:

   Bytes  Function/Label
   -----  --------------
       4  ??DataTable5
       4  ??DataTable5_1
       4  ??DataTable5_10
       4  ??DataTable5_11
       4  ??DataTable5_12
       4  ??DataTable5_2
       4  ??DataTable5_3
       4  ??DataTable5_4
       4  ??DataTable5_5
       4  ??DataTable5_6
       4  ??DataTable5_7
       4  ??DataTable5_8
       4  ??DataTable5_9
       4  SystemCoreClock
      40  SystemCoreClockGet
     134  SystemHFClockGet
       4  SystemHFXOClock
       6  SystemHFXOClockGet
      22  SystemHFXOClockSet
       2  SystemInit
       6  SystemLFRCOClockGet
       4  SystemLFXOClock
       6  SystemLFXOClockGet
      22  SystemLFXOClockSet
       6  SystemULFRCOClockGet

 
   4 bytes in section .bss
   8 bytes in section .data
 296 bytes in section .text
 
 296 bytes of CODE memory
  12 bytes of DATA memory

Errors: none
Warnings: none
