###############################################################################
#
# IAR ANSI C/C++ Compiler V7.80.4.12462/W32 for ARM       12/Dec/2022  11:41:28
# Copyright 1999-2017 IAR Systems AB.
#
#    Cpu mode     =  thumb
#    Endian       =  little
#    Source file  =  
#        C:\Users\shaomingkun\Desktop\git\evolve5.0\2021sw\ECOM-5\Local\User.c
#    Command line =  
#        C:\Users\shaomingkun\Desktop\git\evolve5.0\2021sw\ECOM-5\Local\User.c
#        -D EFM32LG380F256 -D BSP_CORTEX_EFM32 -D DEBUG_EFM_JJ -D
#        RF_MODULE_EXIST____ -lC
#        C:\Users\shaomingkun\Desktop\git\evolve5.0\2021sw\ECOM-5\Debug\List
#        -lA
#        C:\Users\shaomingkun\Desktop\git\evolve5.0\2021sw\ECOM-5\Debug\List -o
#        C:\Users\shaomingkun\Desktop\git\evolve5.0\2021sw\ECOM-5\Debug\Obj
#        --no_cse --no_unroll --no_inline --no_code_motion --no_tbaa
#        --no_clustering --no_scheduling --debug --endian=little
#        --cpu=Cortex-M3 -e --fpu=None --dlib_config "C:\Program Files
#        (x86)\IAR Systems\Embedded Workbench
#        7.5\arm\INC\c\DLib_Config_Normal.h" -I
#        C:\Users\shaomingkun\Desktop\git\evolve5.0\2021sw\ECOM-5\ -I
#        C:\Users\shaomingkun\Desktop\git\evolve5.0\2021sw\ECOM-5\Local\ -I
#        C:\Users\shaomingkun\Desktop\git\evolve5.0\2021sw\ECOM-5\Modules\ -I
#        C:\Users\shaomingkun\Desktop\git\evolve5.0\2021sw\ECOM-5\Modules\Utilities_Lib\
#        -I
#        C:\Users\shaomingkun\Desktop\git\evolve5.0\2021sw\ECOM-5\Modules\HAL_Lib\
#        -I
#        C:\Users\shaomingkun\Desktop\git\evolve5.0\2021sw\ECOM-5\Modules\LCB_Lib\
#        -I
#        C:\Users\shaomingkun\Desktop\git\evolve5.0\2021sw\ECOM-5\Modules\Eng_lib\
#        -I
#        C:\Users\shaomingkun\Desktop\git\evolve5.0\2021sw\ECOM-5\..\Modules\Eng_lib\
#        -I
#        C:\Users\shaomingkun\Desktop\git\evolve5.0\2021sw\ECOM-5\Modules\SystemConfig_Lib\
#        -I
#        C:\Users\shaomingkun\Desktop\git\evolve5.0\2021sw\ECOM-5\Modules\EFM32_lib\
#        -I
#        C:\Users\shaomingkun\Desktop\git\evolve5.0\2021sw\ECOM-5\Modules\EFM32_lib\drivers\
#        -I
#        C:\Users\shaomingkun\Desktop\git\evolve5.0\2021sw\ECOM-5\Modules\Program_lib\
#        -I
#        C:\Users\shaomingkun\Desktop\git\evolve5.0\2021sw\ECOM-5\Modules\RF_lib\
#        -I
#        C:\Users\shaomingkun\Desktop\git\evolve5.0\2021sw\ECOM-5\Modules\USB_lib\
#        -I
#        C:\Users\shaomingkun\Desktop\git\evolve5.0\2021sw\ECOM-5\Modules\USB_lib\usb\src\
#        -I
#        C:\Users\shaomingkun\Desktop\git\evolve5.0\2021sw\ECOM-5\Modules\USB_lib\usb\inc\
#        -I
#        C:\Users\shaomingkun\Desktop\git\evolve5.0\2021sw\ECOM-5\Modules\Bluetooth_lib\
#        -I
#        C:\Users\shaomingkun\Desktop\git\evolve5.0\2021sw\ECOM-5\Modules\Remote_lib\
#        -I
#        C:\Users\shaomingkun\Desktop\git\evolve5.0\2021sw\ECOM-5\Modules\EFM32_lib\Include\
#        -I
#        C:\Users\shaomingkun\Desktop\git\evolve5.0\2021sw\ECOM-5\Modules\EFM32_lib\emlib\inc\
#        -I
#        C:\Users\shaomingkun\Desktop\git\evolve5.0\2021sw\ECOM-5\Modules\EFM32_lib\emlib\src\
#        -I
#        C:\Users\shaomingkun\Desktop\git\evolve5.0\2021sw\ECOM-5\Modules\EFM32_lib\drivers\fatfs\src\
#        -I
#        C:\Users\shaomingkun\Desktop\git\evolve5.0\2021sw\ECOM-5\Modules\EFM32_lib\Device\EnergyMicro\EFM32LG\Include\
#        -I
#        C:\Users\shaomingkun\Desktop\git\evolve5.0\2021sw\ECOM-5\Modules\EFM32_lib\Device\EnergyMicro\EFM32LG\Source\
#        -I
#        C:\Users\shaomingkun\Desktop\git\evolve5.0\2021sw\ECOM-5\Modules\EFM32_lib\Device\EnergyMicro\EFM32LG\Source\IAR\
#        -I
#        C:\Users\shaomingkun\Desktop\git\evolve5.0\2021sw\ECOM-5\Modules\RTT_Lib\
#        -On
#    Locale       =  Chinese (Simplified)_China.936
#    List file    =  
#        C:\Users\shaomingkun\Desktop\git\evolve5.0\2021sw\ECOM-5\Debug\List\User.lst
#    Object file  =  
#        C:\Users\shaomingkun\Desktop\git\evolve5.0\2021sw\ECOM-5\Debug\Obj\User.o
#
###############################################################################

C:\Users\shaomingkun\Desktop\git\evolve5.0\2021sw\ECOM-5\Local\User.c
      1          #include "User.h"
      2          #include "em_assert.h"
      3          #include "Global_Config.h"
      4          #include "Events_Handler.h"

  EFM32_PACK_START( 1 )
                    ^
"C:\Users\shaomingkun\Desktop\git\evolve5.0\2021sw\ECOM-5\Modules\USB_lib\usb\inc\em_usb.h",318  Warning[Pe1665]: 
          concatenation with "1)" in macro "EFM32_PACK_START" does not create a
          valid token

  EFM32_PACK_START( 1 )
  ^
"C:\Users\shaomingkun\Desktop\git\evolve5.0\2021sw\ECOM-5\Modules\USB_lib\usb\inc\em_usb.h",318  Warning[Pe1665]: 
          concatenation with ")" in macro "EFM32_PACK_START" does not create a
          valid token

  EFM32_PACK_START( 1 )
                    ^
"C:\Users\shaomingkun\Desktop\git\evolve5.0\2021sw\ECOM-5\Modules\USB_lib\usb\inc\em_usb.h",347  Warning[Pe1665]: 
          concatenation with "1)" in macro "EFM32_PACK_START" does not create a
          valid token

  EFM32_PACK_START( 1 )
  ^
"C:\Users\shaomingkun\Desktop\git\evolve5.0\2021sw\ECOM-5\Modules\USB_lib\usb\inc\em_usb.h",347  Warning[Pe1665]: 
          concatenation with ")" in macro "EFM32_PACK_START" does not create a
          valid token

  EFM32_PACK_START( 1 )
                    ^
"C:\Users\shaomingkun\Desktop\git\evolve5.0\2021sw\ECOM-5\Modules\USB_lib\usb\inc\em_usb.h",371  Warning[Pe1665]: 
          concatenation with "1)" in macro "EFM32_PACK_START" does not create a
          valid token

  EFM32_PACK_START( 1 )
  ^
"C:\Users\shaomingkun\Desktop\git\evolve5.0\2021sw\ECOM-5\Modules\USB_lib\usb\inc\em_usb.h",371  Warning[Pe1665]: 
          concatenation with ")" in macro "EFM32_PACK_START" does not create a
          valid token

  EFM32_PACK_START( 1 )
                    ^
"C:\Users\shaomingkun\Desktop\git\evolve5.0\2021sw\ECOM-5\Modules\USB_lib\usb\inc\em_usb.h",400  Warning[Pe1665]: 
          concatenation with "1)" in macro "EFM32_PACK_START" does not create a
          valid token

  EFM32_PACK_START( 1 )
  ^
"C:\Users\shaomingkun\Desktop\git\evolve5.0\2021sw\ECOM-5\Modules\USB_lib\usb\inc\em_usb.h",400  Warning[Pe1665]: 
          concatenation with ")" in macro "EFM32_PACK_START" does not create a
          valid token

  EFM32_PACK_START( 1 )
                    ^
"C:\Users\shaomingkun\Desktop\git\evolve5.0\2021sw\ECOM-5\Modules\USB_lib\usb\inc\em_usb.h",441  Warning[Pe1665]: 
          concatenation with "1)" in macro "EFM32_PACK_START" does not create a
          valid token

  EFM32_PACK_START( 1 )
  ^
"C:\Users\shaomingkun\Desktop\git\evolve5.0\2021sw\ECOM-5\Modules\USB_lib\usb\inc\em_usb.h",441  Warning[Pe1665]: 
          concatenation with ")" in macro "EFM32_PACK_START" does not create a
          valid token

  EFM32_PACK_START( 1 )
                    ^
"C:\Users\shaomingkun\Desktop\git\evolve5.0\2021sw\ECOM-5\Modules\USB_lib\usb\inc\em_usb.h",455  Warning[Pe1665]: 
          concatenation with "1)" in macro "EFM32_PACK_START" does not create a
          valid token

  EFM32_PACK_START( 1 )
  ^
"C:\Users\shaomingkun\Desktop\git\evolve5.0\2021sw\ECOM-5\Modules\USB_lib\usb\inc\em_usb.h",455  Warning[Pe1665]: 
          concatenation with ")" in macro "EFM32_PACK_START" does not create a
          valid token
      5          #include "page.h"
      6          #include "show.h"
      7          #include "USBManager.h"
      8          #include "Bluetooth_lib.h"
      9          extern const char * timezone_string[];
     10          extern UINT8 EXTERNAL_EVENTS_BUFFER[EVT_ID_TOTAL];

   \                                 In section .rodata, align 1
     11          const unsigned char D_USER_SLOTS = 6; //GUEST + 4 USERS
   \                     D_USER_SLOTS:
   \   00000000   0x06               DC8 6
     12          #define STATE_MACHINE_BUFFER_SIZE  10
     13          
     14          #include "Program_Inner.h"
     15          
     16          
     17          __no_init static union
     18          {
     19              struct
     20              {
     21                  UINT16 key_up :1;
     22                  UINT16 key_dn :1;
     23                  UINT16 key_update:1;
     24                  UINT16 key_enter :1;
     25                  UINT16 key_save: 1;
     26                  UINT16 key_reset: 1;
     27                  UINT16 key_num:1;
     28                  UINT16 key_rf:1;
     29                  UINT16 key_wifi:1;
     30                  UINT16 key_back:1;
     31                  UINT16 key_start_pause:1;
     32                  UINT16 key_eng:1;
     33              }fields;
     34              UINT16 event;

   \                                 In section .noinit, align 4
     35          }User_event;
   \                     User_event:
   \   00000000                      DS8 4
     36          

   \                                 In section .noinit, align 1
     37          __no_init static USER_SETTING_STATUS g_UserStateMachine;
   \                     g_UserStateMachine:
   \   00000000                      DS8 1

   \                                 In section .noinit, align 4
     38          __no_init static USER_SETTING_STATUS g_aUserStateMachineBuffer[STATE_MACHINE_BUFFER_SIZE];
   \                     g_aUserStateMachineBuffer:
   \   00000000                      DS8 12

   \                                 In section .noinit, align 1
     39          __no_init static UINT8 g_StateBufferIndex;
   \                     g_StateBufferIndex:
   \   00000000                      DS8 1

   \                                 In section .noinit, align 1
     40          __no_init static UINT8 g_UserSlot;
   \                     g_UserSlot:
   \   00000000                      DS8 1

   \                                 In section .noinit, align 4
     41          __no_init static UINT8 g_xid[14];
   \                     g_xid:
   \   00000000                      DS8 16

   \                                 In section .noinit, align 4
     42          __no_init static UINT8 g_passcode[4];
   \                     g_passcode:
   \   00000000                      DS8 4

   \                                 In section .noinit, align 2
     43          __no_init static UINT16 g_UserWeightSTDX100;
   \                     g_UserWeightSTDX100:
   \   00000000                      DS8 2

   \                                 In section .noinit, align 1
     44          __no_init static UINT8 g_UserAge;
   \                     g_UserAge:
   \   00000000                      DS8 1

   \                                 In section .noinit, align 1
     45          __no_init static UINT8 g_UserGender;
   \                     g_UserGender:
   \   00000000                      DS8 1

   \                                 In section .noinit, align 2
     46          __no_init static UINT16 g_KeyTemp;
   \                     g_KeyTemp:
   \   00000000                      DS8 2

   \                                 In section .noinit, align 1
     47          __no_init static UINT8 g_QuickValueExceed;
   \                     g_QuickValueExceed:
   \   00000000                      DS8 1

   \                                 In section .text, align 2, keep-with-next
     48          static void UserUpdateInfo(void)
     49          {
   \                     UserUpdateInfo: (+1)
   \   00000000   0xB500             PUSH     {LR}
   \   00000002   0xF5AD 0x7D29      SUB      SP,SP,#+676
     50              if(g_UserSlot > D_USER_SLOTS) return;
   \   00000006   0x.... 0x....      LDR.W    R0,??DataTable16
   \   0000000A   0x7800             LDRB     R0,[R0, #+0]
   \   0000000C   0x.... 0x....      LDR.W    R1,??DataTable16_1
   \   00000010   0x7809             LDRB     R1,[R1, #+0]
   \   00000012   0x4288             CMP      R0,R1
   \   00000014   0xD314             BCC.N    ??UserUpdateInfo_0
     51              USERS_INFO userinfo = SystemConfig_Get_UserInfo(g_UserSlot);
   \                     ??UserUpdateInfo_1: (+1)
   \   00000016   0x.... 0x....      LDR.W    R0,??DataTable16_1
   \   0000001A   0x7801             LDRB     R1,[R0, #+0]
   \   0000001C   0x4668             MOV      R0,SP
   \   0000001E   0x.... 0x....      BL       SystemConfig_Get_UserInfo
     52              g_UserWeightSTDX100 = userinfo.weightStandardX100;
   \   00000022   0xF8BD 0x0014      LDRH     R0,[SP, #+20]
   \   00000026   0x.... 0x....      LDR.W    R1,??DataTable16_2
   \   0000002A   0x8008             STRH     R0,[R1, #+0]
     53              g_UserAge = userinfo.age;
   \   0000002C   0xF89D 0x0016      LDRB     R0,[SP, #+22]
   \   00000030   0x.... 0x....      LDR.W    R1,??DataTable16_3
   \   00000034   0x7008             STRB     R0,[R1, #+0]
     54              g_UserGender =  userinfo.gender;
   \   00000036   0xF89D 0x001B      LDRB     R0,[SP, #+27]
   \   0000003A   0x.... 0x....      LDR.W    R1,??DataTable16_4
   \   0000003E   0x7008             STRB     R0,[R1, #+0]
     55          }
   \                     ??UserUpdateInfo_0: (+1)
   \   00000040   0xF50D 0x7D29      ADD      SP,SP,#+676
   \   00000044   0xBD00             POP      {PC}             ;; return

   \                                 In section .text, align 2, keep-with-next
     56          void User_Set_Age(unsigned char by_D)// v1.13-5
     57          {
     58            g_UserAge = by_D;
   \                     User_Set_Age: (+1)
   \   00000000   0x.... 0x....      LDR.W    R1,??DataTable16_3
   \   00000004   0x7008             STRB     R0,[R1, #+0]
     59          }
   \   00000006   0x4770             BX       LR               ;; return
     60          

   \                                 In section .text, align 2, keep-with-next
     61          static void User_Get_QuickeyValue(UINT8 type)
     62          {
   \                     User_Get_QuickeyValue: (+1)
   \   00000000   0xB510             PUSH     {R4,LR}
   \   00000002   0x0004             MOVS     R4,R0
     63          	if(type == 0 )
   \   00000004   0xB2E4             UXTB     R4,R4            ;; ZeroExt  R4,R4,#+24,#+24
   \   00000006   0x2C00             CMP      R4,#+0
   \   00000008   0xD157             BNE.N    ??User_Get_QuickeyValue_0
     64          	{
     65          		if(g_KeyTemp!=0)
   \   0000000A   0x.... 0x....      LDR.W    R0,??DataTable16_5
   \   0000000E   0x8800             LDRH     R0,[R0, #+0]
   \   00000010   0x2800             CMP      R0,#+0
   \   00000012   0xD073             BEQ.N    ??User_Get_QuickeyValue_1
     66          		{
     67          			if(SystemConfig_Get_Display_Unit(User_Get_UserSlot()) == METRIC)
   \   00000014   0x.... 0x....      BL       User_Get_UserSlot
   \   00000018   0xB2C0             UXTB     R0,R0            ;; ZeroExt  R0,R0,#+24,#+24
   \   0000001A   0x.... 0x....      BL       SystemConfig_Get_Display_Unit
   \   0000001E   0x2801             CMP      R0,#+1
   \   00000020   0xD127             BNE.N    ??User_Get_QuickeyValue_2
     68          			{
     69          				if((g_KeyTemp<=(UINT32)SystemConfig_Get_Int(MAX_WEIGHT_METRIC_UINT16))  && (g_KeyTemp>= (UINT32)SystemConfig_Get_Int(MIN_WEIGHT_METRIC_UINT16)))
   \   00000022   0x202E             MOVS     R0,#+46
   \   00000024   0x.... 0x....      BL       SystemConfig_Get_Int
   \   00000028   0x.... 0x....      LDR.W    R1,??DataTable16_5
   \   0000002C   0x8809             LDRH     R1,[R1, #+0]
   \   0000002E   0xB280             UXTH     R0,R0            ;; ZeroExt  R0,R0,#+16,#+16
   \   00000030   0x4288             CMP      R0,R1
   \   00000032   0xD319             BCC.N    ??User_Get_QuickeyValue_3
   \   00000034   0x202F             MOVS     R0,#+47
   \   00000036   0x.... 0x....      BL       SystemConfig_Get_Int
   \   0000003A   0x.... 0x....      LDR.W    R1,??DataTable16_5
   \   0000003E   0x8809             LDRH     R1,[R1, #+0]
   \   00000040   0xB280             UXTH     R0,R0            ;; ZeroExt  R0,R0,#+16,#+16
   \   00000042   0x4281             CMP      R1,R0
   \   00000044   0xD310             BCC.N    ??User_Get_QuickeyValue_3
     70          				{
     71          					g_QuickValueExceed = 0;
   \   00000046   0x2000             MOVS     R0,#+0
   \   00000048   0x.... 0x....      LDR.W    R1,??DataTable16_6
   \   0000004C   0x7008             STRB     R0,[R1, #+0]
     72          					g_UserWeightSTDX100 = (UINT16)((UINT32)(g_KeyTemp) * 47400 / 215);  //<= 60000
   \   0000004E   0x.... 0x....      LDR.W    R0,??DataTable16_5
   \   00000052   0x8800             LDRH     R0,[R0, #+0]
   \   00000054   0xF64B 0x1128      MOVW     R1,#+47400
   \   00000058   0x4348             MULS     R0,R1,R0
   \   0000005A   0x21D7             MOVS     R1,#+215
   \   0000005C   0xFBB0 0xF0F1      UDIV     R0,R0,R1
   \   00000060   0x.... 0x....      LDR.W    R1,??DataTable16_2
   \   00000064   0x8008             STRH     R0,[R1, #+0]
   \   00000066   0xE049             B.N      ??User_Get_QuickeyValue_1
     73          				}
     74          				else
     75          					g_QuickValueExceed = 1;
   \                     ??User_Get_QuickeyValue_3: (+1)
   \   00000068   0x2001             MOVS     R0,#+1
   \   0000006A   0x.... 0x....      LDR.W    R1,??DataTable16_6
   \   0000006E   0x7008             STRB     R0,[R1, #+0]
   \   00000070   0xE044             B.N      ??User_Get_QuickeyValue_1
     76          			}
     77          			else
     78          			{
     79          				if(g_KeyTemp<=(UINT32)SystemConfig_Get_Int(MAX_WEIGHT_STANDARD_UINT16) &&g_KeyTemp>= (UINT32)SystemConfig_Get_Int(MIN_WEIGHT_STANDARD_UINT16))
   \                     ??User_Get_QuickeyValue_2: (+1)
   \   00000072   0x202C             MOVS     R0,#+44
   \   00000074   0x.... 0x....      BL       SystemConfig_Get_Int
   \   00000078   0x.... 0x....      LDR.W    R1,??DataTable16_5
   \   0000007C   0x8809             LDRH     R1,[R1, #+0]
   \   0000007E   0xB280             UXTH     R0,R0            ;; ZeroExt  R0,R0,#+16,#+16
   \   00000080   0x4288             CMP      R0,R1
   \   00000082   0xD315             BCC.N    ??User_Get_QuickeyValue_4
   \   00000084   0x202D             MOVS     R0,#+45
   \   00000086   0x.... 0x....      BL       SystemConfig_Get_Int
   \   0000008A   0x.... 0x....      LDR.W    R1,??DataTable16_5
   \   0000008E   0x8809             LDRH     R1,[R1, #+0]
   \   00000090   0xB280             UXTH     R0,R0            ;; ZeroExt  R0,R0,#+16,#+16
   \   00000092   0x4281             CMP      R1,R0
   \   00000094   0xD30C             BCC.N    ??User_Get_QuickeyValue_4
     80          				{
     81          					g_QuickValueExceed = 0;
   \   00000096   0x2000             MOVS     R0,#+0
   \   00000098   0x.... 0x....      LDR.W    R1,??DataTable16_6
   \   0000009C   0x7008             STRB     R0,[R1, #+0]
     82          					g_UserWeightSTDX100 = (UINT32)(g_KeyTemp) * 100; //<= 60000
   \   0000009E   0x.... 0x....      LDR.W    R0,??DataTable16_5
   \   000000A2   0x8800             LDRH     R0,[R0, #+0]
   \   000000A4   0x2164             MOVS     R1,#+100
   \   000000A6   0x4348             MULS     R0,R1,R0
   \   000000A8   0x.... 0x....      LDR.W    R1,??DataTable16_2
   \   000000AC   0x8008             STRH     R0,[R1, #+0]
   \   000000AE   0xE025             B.N      ??User_Get_QuickeyValue_1
     83          				}
     84          				else
     85          					g_QuickValueExceed = 1;
   \                     ??User_Get_QuickeyValue_4: (+1)
   \   000000B0   0x2001             MOVS     R0,#+1
   \   000000B2   0x.... 0x....      LDR.W    R1,??DataTable16_6
   \   000000B6   0x7008             STRB     R0,[R1, #+0]
   \   000000B8   0xE020             B.N      ??User_Get_QuickeyValue_1
     86          			}
     87          		}
     88          	}
     89          	else if(type == 1)
   \                     ??User_Get_QuickeyValue_0: (+1)
   \   000000BA   0xB2E4             UXTB     R4,R4            ;; ZeroExt  R4,R4,#+24,#+24
   \   000000BC   0x2C01             CMP      R4,#+1
   \   000000BE   0xD11D             BNE.N    ??User_Get_QuickeyValue_1
     90          	{
     91          		if(g_KeyTemp!=0)
   \   000000C0   0x.... 0x....      LDR.W    R0,??DataTable16_5
   \   000000C4   0x8800             LDRH     R0,[R0, #+0]
   \   000000C6   0x2800             CMP      R0,#+0
   \   000000C8   0xD018             BEQ.N    ??User_Get_QuickeyValue_1
     92          		{
     93          			if((g_KeyTemp<=130)  && (g_KeyTemp>= 13))
   \   000000CA   0x.... 0x....      LDR.W    R0,??DataTable16_5
   \   000000CE   0x8800             LDRH     R0,[R0, #+0]
   \   000000D0   0x2883             CMP      R0,#+131
   \   000000D2   0xDA0F             BGE.N    ??User_Get_QuickeyValue_5
   \   000000D4   0x.... 0x....      LDR.W    R0,??DataTable16_5
   \   000000D8   0x8800             LDRH     R0,[R0, #+0]
   \   000000DA   0x280D             CMP      R0,#+13
   \   000000DC   0xDB0A             BLT.N    ??User_Get_QuickeyValue_5
     94          			{
     95          				g_QuickValueExceed = 0;
   \   000000DE   0x2000             MOVS     R0,#+0
   \   000000E0   0x.... 0x....      LDR.W    R1,??DataTable16_6
   \   000000E4   0x7008             STRB     R0,[R1, #+0]
     96          				g_UserAge = g_KeyTemp;
   \   000000E6   0x.... 0x....      LDR.W    R0,??DataTable16_5
   \   000000EA   0x8800             LDRH     R0,[R0, #+0]
   \   000000EC   0x.... 0x....      LDR.W    R1,??DataTable16_3
   \   000000F0   0x7008             STRB     R0,[R1, #+0]
   \   000000F2   0xE003             B.N      ??User_Get_QuickeyValue_1
     97          			}	
     98          			else
     99          				g_QuickValueExceed = 1;
   \                     ??User_Get_QuickeyValue_5: (+1)
   \   000000F4   0x2001             MOVS     R0,#+1
   \   000000F6   0x.... 0x....      LDR.W    R1,??DataTable16_6
   \   000000FA   0x7008             STRB     R0,[R1, #+0]
    100          		}
    101          	}
    102          }
   \                     ??User_Get_QuickeyValue_1: (+1)
   \   000000FC   0xBD10             POP      {R4,PC}          ;; return
    103          			
    104          
    105          

   \                                 In section .text, align 2, keep-with-next
    106          static void UserSaveData(void)
    107          {
   \                     UserSaveData: (+1)
   \   00000000   0xB500             PUSH     {LR}
   \   00000002   0xF5AD 0x6DA0      SUB      SP,SP,#+1280
   \   00000006   0xB08D             SUB      SP,SP,#+52
    108              USERS_INFO userinfo = SystemConfig_Get_UserInfo(g_UserSlot);
   \   00000008   0x.... 0x....      LDR.W    R0,??DataTable16_1
   \   0000000C   0x7801             LDRB     R1,[R0, #+0]
   \   0000000E   0xA8A5             ADD      R0,SP,#+660
   \   00000010   0x.... 0x....      BL       SystemConfig_Get_UserInfo
    109              userinfo.weightStandardX100 = g_UserWeightSTDX100;
   \   00000014   0x.... 0x....      LDR.W    R0,??DataTable16_2
   \   00000018   0x8800             LDRH     R0,[R0, #+0]
   \   0000001A   0xF8AD 0x02A8      STRH     R0,[SP, #+680]
    110              userinfo.age = g_UserAge;
   \   0000001E   0x.... 0x....      LDR.W    R0,??DataTable16_3
   \   00000022   0x7800             LDRB     R0,[R0, #+0]
   \   00000024   0xF88D 0x02AA      STRB     R0,[SP, #+682]
    111              userinfo.gender = g_UserGender;
   \   00000028   0x.... 0x....      LDR.W    R0,??DataTable16_4
   \   0000002C   0x7800             LDRB     R0,[R0, #+0]
   \   0000002E   0xF88D 0x02AF      STRB     R0,[SP, #+687]
    112              while(Beep_Get_OK() == false);
   \                     ??UserSaveData_0: (+1)
   \   00000032   0x.... 0x....      BL       Beep_Get_OK
   \   00000036   0x2800             CMP      R0,#+0
   \   00000038   0xD0FB             BEQ.N    ??UserSaveData_0
    113              if((SystemConfig_Set_UserInfo(userinfo,g_UserSlot)))
   \   0000003A   0x.... 0x....      LDR.W    R0,??DataTable16_1
   \   0000003E   0x7800             LDRB     R0,[R0, #+0]
   \   00000040   0x90A4             STR      R0,[SP, #+656]
   \   00000042   0xA9A5             ADD      R1,SP,#+660
   \   00000044   0xB084             SUB      SP,SP,#+16
   \   00000046   0x4668             MOV      R0,SP
   \   00000048   0xF44F 0x7228      MOV      R2,#+672
   \   0000004C   0x.... 0x....      BL       __aeabi_memcpy4
   \   00000050   0xBC0F             POP      {R0-R3}
   \   00000052   0x.... 0x....      BL       SystemConfig_Set_UserInfo
   \   00000056   0x2800             CMP      R0,#+0
   \   00000058   0xD005             BEQ.N    ??UserSaveData_1
    114              {
    115                  SystemConfigProcess(SVK_SAVE_USER2FLASH, &g_UserSlot,sizeof(g_UserSlot));
   \   0000005A   0x2201             MOVS     R2,#+1
   \   0000005C   0x.... 0x....      LDR.W    R1,??DataTable16_1
   \   00000060   0x2072             MOVS     R0,#+114
   \   00000062   0x.... 0x....      BL       SystemConfigProcess
    116              }
    117              Beep_Initial_IO();
   \                     ??UserSaveData_1: (+1)
   \   00000066   0x.... 0x....      BL       Beep_Initial_IO
    118          #ifdef __WIFI_FUNC__
    119              if(WIFIIsOnline() == 1)
    120              {
    121                  WifiEditUser(g_UserSlot, g_UserWeightSTDX100, g_UserAge, g_UserGender);
    122              }
    123              //User_Initial_Data();
    124          //#else
    125              //User_Initial_Data();
    126          #endif
    127              
    128          }
   \   0000006A   0xF50D 0x6DA0      ADD      SP,SP,#+1280
   \   0000006E   0xB00D             ADD      SP,SP,#+52
   \   00000070   0xBD00             POP      {PC}             ;; return
    129          

   \                                 In section .text, align 2, keep-with-next
    130          static UINT8 UserPushStateBuffer(USER_SETTING_STATUS states)
    131          {
   \                     UserPushStateBuffer: (+1)
   \   00000000   0x0001             MOVS     R1,R0
    132              EFM_ASSERT(g_StateBufferIndex < STATE_MACHINE_BUFFER_SIZE - 1);
    133              UINT8 result = 0;
   \   00000002   0x2000             MOVS     R0,#+0
    134              if(g_StateBufferIndex < STATE_MACHINE_BUFFER_SIZE - 1)
   \   00000004   0x.... 0x....      LDR.W    R2,??DataTable16_7
   \   00000008   0x7812             LDRB     R2,[R2, #+0]
   \   0000000A   0x2A09             CMP      R2,#+9
   \   0000000C   0xDA0E             BGE.N    ??UserPushStateBuffer_0
    135              {
    136                  g_aUserStateMachineBuffer[g_StateBufferIndex] = states;  
   \   0000000E   0x.... 0x....      LDR.W    R2,??DataTable16_8
   \   00000012   0x.... 0x....      LDR.W    R3,??DataTable16_7
   \   00000016   0x781B             LDRB     R3,[R3, #+0]
   \   00000018   0x54D1             STRB     R1,[R2, R3]
    137                  g_StateBufferIndex++;
   \   0000001A   0x.... 0x....      LDR.W    R2,??DataTable16_7
   \   0000001E   0x7812             LDRB     R2,[R2, #+0]
   \   00000020   0x1C52             ADDS     R2,R2,#+1
   \   00000022   0x.... 0x....      LDR.W    R3,??DataTable16_7
   \   00000026   0x701A             STRB     R2,[R3, #+0]
    138                  result = 1;
   \   00000028   0x2201             MOVS     R2,#+1
   \   0000002A   0x0010             MOVS     R0,R2
    139              }
    140              return result;
   \                     ??UserPushStateBuffer_0: (+1)
   \   0000002C   0xB2C0             UXTB     R0,R0            ;; ZeroExt  R0,R0,#+24,#+24
   \   0000002E   0x4770             BX       LR               ;; return
    141              
    142          }
    143          
    144          

   \                                 In section .text, align 2, keep-with-next
    145          static  USER_EVENT UserPopStateBuffer(void)
    146          {
   \                     UserPopStateBuffer: (+1)
   \   00000000   0xB510             PUSH     {R4,LR}
    147              USER_EVENT evtTemp = USER_EVT_NONE;
   \   00000002   0x2400             MOVS     R4,#+0
    148              if(g_StateBufferIndex > 1)
   \   00000004   0x.... 0x....      LDR.W    R0,??DataTable16_7
   \   00000008   0x7800             LDRB     R0,[R0, #+0]
   \   0000000A   0x2802             CMP      R0,#+2
   \   0000000C   0xDB36             BLT.N    ??UserPopStateBuffer_0
    149              {
    150                  g_StateBufferIndex --;
   \   0000000E   0x.... 0x....      LDR.W    R0,??DataTable16_7
   \   00000012   0x7800             LDRB     R0,[R0, #+0]
   \   00000014   0x1E40             SUBS     R0,R0,#+1
   \   00000016   0x.... 0x....      LDR.W    R1,??DataTable16_7
   \   0000001A   0x7008             STRB     R0,[R1, #+0]
    151                  g_UserStateMachine  =  g_aUserStateMachineBuffer[g_StateBufferIndex - 1];
   \   0000001C   0x.... 0x....      LDR.W    R0,??DataTable16_8
   \   00000020   0x.... 0x....      LDR.W    R1,??DataTable16_7
   \   00000024   0x7809             LDRB     R1,[R1, #+0]
   \   00000026   0x4408             ADD      R0,R0,R1
   \   00000028   0xF810 0x0C01      LDRB     R0,[R0, #-1]
   \   0000002C   0x.... 0x....      LDR.W    R1,??DataTable17
   \   00000030   0x7008             STRB     R0,[R1, #+0]
    152                  UserUpdateInfo();
   \   00000032   0x.... 0x....      BL       UserUpdateInfo
    153                  switch(g_UserStateMachine){
   \   00000036   0x.... 0x....      LDR.W    R0,??DataTable17
   \   0000003A   0x7800             LDRB     R0,[R0, #+0]
   \   0000003C   0x1E40             SUBS     R0,R0,#+1
   \   0000003E   0x2802             CMP      R0,#+2
   \   00000040   0xD906             BLS.N    ??UserPopStateBuffer_1
   \   00000042   0x1EC0             SUBS     R0,R0,#+3
   \   00000044   0xD00E             BEQ.N    ??UserPopStateBuffer_2
   \   00000046   0x1E40             SUBS     R0,R0,#+1
   \   00000048   0xD005             BEQ.N    ??UserPopStateBuffer_3
   \   0000004A   0x1E40             SUBS     R0,R0,#+1
   \   0000004C   0xD010             BEQ.N    ??UserPopStateBuffer_4
   \   0000004E   0xE015             B.N      ??UserPopStateBuffer_5
    154                  case SELECT_USER:
    155                  case EDIT_USER:
    156                  case DELETE_USER:
    157                      evtTemp = USER_CHANGE_EVT;
   \                     ??UserPopStateBuffer_1: (+1)
   \   00000050   0x2001             MOVS     R0,#+1
   \   00000052   0x0004             MOVS     R4,R0
    158                      break;
   \   00000054   0xE012             B.N      ??UserPopStateBuffer_0
    159                  case EDIT_USER_AGE:
    160                      g_KeyTemp = 0;
   \                     ??UserPopStateBuffer_3: (+1)
   \   00000056   0x2000             MOVS     R0,#+0
   \   00000058   0x.... 0x....      LDR.W    R1,??DataTable16_5
   \   0000005C   0x8008             STRH     R0,[R1, #+0]
    161          //            g_InputIndex = 0;
    162                      evtTemp= USER_AGE_CHANGE_EVT;
   \   0000005E   0x2005             MOVS     R0,#+5
   \   00000060   0x0004             MOVS     R4,R0
    163                      break;
   \   00000062   0xE00B             B.N      ??UserPopStateBuffer_0
    164                  case EDIT_USER_WEIGHT:
    165                      g_KeyTemp = 0;
   \                     ??UserPopStateBuffer_2: (+1)
   \   00000064   0x2000             MOVS     R0,#+0
   \   00000066   0x....             LDR.N    R1,??DataTable16_5
   \   00000068   0x8008             STRH     R0,[R1, #+0]
    166          //            g_InputIndex = 0;
    167                      evtTemp= USER_WEIGHT_CHANGE_EVT;
   \   0000006A   0x2004             MOVS     R0,#+4
   \   0000006C   0x0004             MOVS     R4,R0
    168                      break;
   \   0000006E   0xE005             B.N      ??UserPopStateBuffer_0
    169                  case EDIT_USER_GENDER:
    170                      g_KeyTemp = 0;
   \                     ??UserPopStateBuffer_4: (+1)
   \   00000070   0x2000             MOVS     R0,#+0
   \   00000072   0x....             LDR.N    R1,??DataTable16_5
   \   00000074   0x8008             STRH     R0,[R1, #+0]
    171          //            g_InputIndex = 0;
    172                      evtTemp= USER_GENDER_CHANGE_EVT;
   \   00000076   0x2006             MOVS     R0,#+6
   \   00000078   0x0004             MOVS     R4,R0
    173                      break;
   \   0000007A   0xE7FF             B.N      ??UserPopStateBuffer_0
    174          #ifdef __WIFI_FUNC__
    175                  case INPUT_XID:
    176                      memset(g_xid,'\0',14);
    177                      g_InputIndex = 0;
    178                      evtTemp = INPUT_XID_EVT;
    179                      break;
    180                  case INPUT_PASSCODE:
    181                      g_InputIndex = 0;
    182                      memset(g_passcode, '\0', 4);
    183                      evtTemp= INPUT_PASSCODE_EVT;
    184                      break;
    185          #endif
    186                  default:
    187                      EFM_ASSERT(0);
    188                      break;
    189                  }
    190              }
    191              return evtTemp;
   \                     ??UserPopStateBuffer_5: (+1)
   \                     ??UserPopStateBuffer_0: (+1)
   \   0000007C   0x0020             MOVS     R0,R4
   \   0000007E   0xB2C0             UXTB     R0,R0            ;; ZeroExt  R0,R0,#+24,#+24
   \   00000080   0xBD10             POP      {R4,PC}          ;; return
    192          }
    193          

   \                                 In section .text, align 2, keep-with-next
    194          void User_Initial_Data(void)
    195          {
   \                     User_Initial_Data: (+1)
   \   00000000   0xE92D 0x41F0      PUSH     {R4-R8,LR}
    196              g_UserStateMachine = INITIAL_USER;
   \   00000004   0x2000             MOVS     R0,#+0
   \   00000006   0x.... 0x....      LDR.W    R1,??DataTable17
   \   0000000A   0x7008             STRB     R0,[R1, #+0]
    197              memset(g_aUserStateMachineBuffer,0,10);
   \   0000000C   0x240A             MOVS     R4,#+10
   \   0000000E   0x2500             MOVS     R5,#+0
   \   00000010   0x....             LDR.N    R6,??DataTable16_8
   \   00000012   0x002A             MOVS     R2,R5
   \   00000014   0x0021             MOVS     R1,R4
   \   00000016   0x0030             MOVS     R0,R6
   \   00000018   0x.... 0x....      BL       __aeabi_memset
    198              g_StateBufferIndex = 0;
   \   0000001C   0x2000             MOVS     R0,#+0
   \   0000001E   0x....             LDR.N    R1,??DataTable16_7
   \   00000020   0x7008             STRB     R0,[R1, #+0]
    199              if(Bluetooth_Get_ConnectStatus() == 0)
   \   00000022   0x.... 0x....      BL       Bluetooth_Get_ConnectStatus
   \   00000026   0x2800             CMP      R0,#+0
   \   00000028   0xD108             BNE.N    ??User_Initial_Data_0
    200              {
    201                  g_UserSlot = 0;
   \   0000002A   0x2000             MOVS     R0,#+0
   \   0000002C   0x....             LDR.N    R1,??DataTable16_1
   \   0000002E   0x7008             STRB     R0,[R1, #+0]
    202                  g_UserAge =  30;  //DEFAULT_AGE;
   \   00000030   0x201E             MOVS     R0,#+30
   \   00000032   0x....             LDR.N    R1,??DataTable16_3
   \   00000034   0x7008             STRB     R0,[R1, #+0]
    203                  g_UserGender = 1; //DEFAULT_GENDER;
   \   00000036   0x2001             MOVS     R0,#+1
   \   00000038   0x....             LDR.N    R1,??DataTable16_4
   \   0000003A   0x7008             STRB     R0,[R1, #+0]
    204              }
    205              User_event.event = 0;
   \                     ??User_Initial_Data_0: (+1)
   \   0000003C   0x2000             MOVS     R0,#+0
   \   0000003E   0x.... 0x....      LDR.W    R1,??DataTable17_1
   \   00000042   0x8008             STRH     R0,[R1, #+0]
    206          //    g_InputIndex = 0;
    207              g_KeyTemp = 0;
   \   00000044   0x2000             MOVS     R0,#+0
   \   00000046   0x....             LDR.N    R1,??DataTable16_5
   \   00000048   0x8008             STRH     R0,[R1, #+0]
    208              memset(g_xid,'\0',14);
   \   0000004A   0x240E             MOVS     R4,#+14
   \   0000004C   0x2500             MOVS     R5,#+0
   \   0000004E   0x.... 0x....      LDR.W    R6,??DataTable17_2
   \   00000052   0x002A             MOVS     R2,R5
   \   00000054   0x0021             MOVS     R1,R4
   \   00000056   0x0030             MOVS     R0,R6
   \   00000058   0x.... 0x....      BL       __aeabi_memset
    209              memset(g_passcode,'\0',4);
   \   0000005C   0x2604             MOVS     R6,#+4
   \   0000005E   0x2700             MOVS     R7,#+0
   \   00000060   0x.... 0x....      LDR.W    R8,??DataTable17_3
   \   00000064   0x003A             MOVS     R2,R7
   \   00000066   0x0031             MOVS     R1,R6
   \   00000068   0x4640             MOV      R0,R8
   \   0000006A   0x.... 0x....      BL       __aeabi_memset
    210          #ifdef __WIFI_FUNC__    
    211              subState = 0;
    212          	 if(!(WIFIIsOnline()))
    213          	 {
    214          		memset(g_UserSession,0,4);		
    215          	 }
    216          #endif
    217               UserUpdateInfo();
   \   0000006E   0x.... 0x....      BL       UserUpdateInfo
    218          }
   \   00000072   0xE8BD 0x81F0      POP      {R4-R8,PC}       ;; return
    219          

   \                                 In section .text, align 2, keep-with-next
    220          void User_Set_VirtualKey(UINT16 vk)
    221          { 
   \                     User_Set_VirtualKey: (+1)
   \   00000000   0xB570             PUSH     {R4-R6,LR}
   \   00000002   0x0004             MOVS     R4,R0
    222              
    223              UINT8 keyVlaue = (UINT8)(vk&0x00FF);
   \   00000004   0x0025             MOVS     R5,R4
    224              if( keyVlaue == VK_INITIAL )
   \   00000006   0xB2ED             UXTB     R5,R5            ;; ZeroExt  R5,R5,#+24,#+24
   \   00000008   0x2DA0             CMP      R5,#+160
   \   0000000A   0xD107             BNE.N    ??User_Set_VirtualKey_0
    225              {
    226                 User_Initial_Data();
   \   0000000C   0x.... 0x....      BL       User_Initial_Data
    227                 Page_Reset_All_ModalWnds();
   \   00000010   0x.... 0x....      BL       Page_Reset_All_ModalWnds
    228                 nCurrentPage = PAGE_PROGRAM;
   \   00000014   0x2003             MOVS     R0,#+3
   \   00000016   0x.... 0x....      LDR.W    R1,??DataTable17_4
   \   0000001A   0x7008             STRB     R0,[R1, #+0]
    229                 //ShowPage(nCurrentPage,1);
    230          //       User_event.fields.key_reset = 1;
    231              }   
    232              
    233          	UINT16 TempKey = vk & 0xFF00;
   \                     ??User_Set_VirtualKey_0: (+1)
   \   0000001C   0xF414 0x467F      ANDS     R6,R4,#0xFF00
    234              if(TempKey == FRAME_STAGE_AGINGTEST)
   \   00000020   0xB2B6             UXTH     R6,R6            ;; ZeroExt  R6,R6,#+16,#+16
   \   00000022   0xF5B6 0x6FC0      CMP      R6,#+1536
   \   00000026   0xD108             BNE.N    ??User_Set_VirtualKey_1
    235              {
    236                  User_event.fields.key_reset = 0;
   \   00000028   0x.... 0x....      LDR.W    R0,??DataTable17_1
   \   0000002C   0x8800             LDRH     R0,[R0, #+0]
   \   0000002E   0xF64F 0x71DF      MOVW     R1,#+65503
   \   00000032   0x4008             ANDS     R0,R1,R0
   \   00000034   0x.... 0x....      LDR.W    R1,??DataTable17_1
   \   00000038   0x8008             STRH     R0,[R1, #+0]
    237              }
    238              if(TempKey != FRAME_STAGE_USER) return;
   \                     ??User_Set_VirtualKey_1: (+1)
   \   0000003A   0xB2B6             UXTH     R6,R6            ;; ZeroExt  R6,R6,#+16,#+16
   \   0000003C   0xF5B6 0x7F00      CMP      R6,#+512
   \   00000040   0xF040 0x80C4      BNE.W    ??User_Set_VirtualKey_2
    239              TempKey = (UINT8)(vk&0x00FF);
   \                     ??User_Set_VirtualKey_3: (+1)
   \   00000044   0x0020             MOVS     R0,R4
   \   00000046   0xB2C0             UXTB     R0,R0            ;; ZeroExt  R0,R0,#+24,#+24
   \   00000048   0x0006             MOVS     R6,R0
    240          
    241          if(VR_MANUAL==TempKey||VR_INTERVALS==TempKey||VR_WEIGHT_LOSS==TempKey\
    242          	||VR_DISTANCE==TempKey||VR_CALORIES==TempKey||VR_HILLCLIMB == TempKey)
   \   0000004A   0xB2B6             UXTH     R6,R6            ;; ZeroExt  R6,R6,#+16,#+16
   \   0000004C   0x2EAB             CMP      R6,#+171
   \   0000004E   0xD00E             BEQ.N    ??User_Set_VirtualKey_4
   \   00000050   0xB2B6             UXTH     R6,R6            ;; ZeroExt  R6,R6,#+16,#+16
   \   00000052   0x2EB0             CMP      R6,#+176
   \   00000054   0xD00B             BEQ.N    ??User_Set_VirtualKey_4
   \   00000056   0xB2B6             UXTH     R6,R6            ;; ZeroExt  R6,R6,#+16,#+16
   \   00000058   0x2EAD             CMP      R6,#+173
   \   0000005A   0xD008             BEQ.N    ??User_Set_VirtualKey_4
   \   0000005C   0xB2B6             UXTH     R6,R6            ;; ZeroExt  R6,R6,#+16,#+16
   \   0000005E   0x2EAC             CMP      R6,#+172
   \   00000060   0xD005             BEQ.N    ??User_Set_VirtualKey_4
   \   00000062   0xB2B6             UXTH     R6,R6            ;; ZeroExt  R6,R6,#+16,#+16
   \   00000064   0x2EAE             CMP      R6,#+174
   \   00000066   0xD002             BEQ.N    ??User_Set_VirtualKey_4
   \   00000068   0xB2B6             UXTH     R6,R6            ;; ZeroExt  R6,R6,#+16,#+16
   \   0000006A   0x2EAF             CMP      R6,#+175
   \   0000006C   0xD10D             BNE.N    ??User_Set_VirtualKey_5
    243          {
    244              Program_NextStatus(PS_SELECTPRG);
   \                     ??User_Set_VirtualKey_4: (+1)
   \   0000006E   0x2001             MOVS     R0,#+1
   \   00000070   0x.... 0x....      BL       Program_NextStatus
    245              Event_Handler_SetNewState(FRAME_STAGE_PRGSETUP);
   \   00000074   0xF44F 0x7040      MOV      R0,#+768
   \   00000078   0x.... 0x....      BL       Event_Handler_SetNewState
    246          	Program_Set_VirtualKey((UINT16)TempKey|(vk & 0xFF00));
   \   0000007C   0xF414 0x407F      ANDS     R0,R4,#0xFF00
   \   00000080   0x4330             ORRS     R0,R0,R6
   \   00000082   0xB280             UXTH     R0,R0            ;; ZeroExt  R0,R0,#+16,#+16
   \   00000084   0x.... 0x....      BL       Program_Set_VirtualKey
    247          return;
   \   00000088   0xE0A0             B.N      ??User_Set_VirtualKey_2
    248          }
    249          
    250              switch(TempKey)
   \                     ??User_Set_VirtualKey_5: (+1)
   \   0000008A   0xB2B6             UXTH     R6,R6            ;; ZeroExt  R6,R6,#+16,#+16
   \   0000008C   0x0030             MOVS     R0,R6
   \   0000008E   0x1F00             SUBS     R0,R0,#+4
   \   00000090   0xD037             BEQ.N    ??User_Set_VirtualKey_6
   \   00000092   0x1E80             SUBS     R0,R0,#+2
   \   00000094   0xD052             BEQ.N    ??User_Set_VirtualKey_7
   \   00000096   0x1E80             SUBS     R0,R0,#+2
   \   00000098   0xD024             BEQ.N    ??User_Set_VirtualKey_8
   \   0000009A   0x1E40             SUBS     R0,R0,#+1
   \   0000009C   0xD057             BEQ.N    ??User_Set_VirtualKey_9
   \   0000009E   0x1E40             SUBS     R0,R0,#+1
   \   000000A0   0xD062             BEQ.N    ??User_Set_VirtualKey_10
   \   000000A2   0x1F40             SUBS     R0,R0,#+5
   \   000000A4   0xD053             BEQ.N    ??User_Set_VirtualKey_9
   \   000000A6   0x1E40             SUBS     R0,R0,#+1
   \   000000A8   0xD05E             BEQ.N    ??User_Set_VirtualKey_10
   \   000000AA   0x1E40             SUBS     R0,R0,#+1
   \   000000AC   0xD04F             BEQ.N    ??User_Set_VirtualKey_9
   \   000000AE   0x1E40             SUBS     R0,R0,#+1
   \   000000B0   0xD05A             BEQ.N    ??User_Set_VirtualKey_10
   \   000000B2   0x1E40             SUBS     R0,R0,#+1
   \   000000B4   0xD04B             BEQ.N    ??User_Set_VirtualKey_9
   \   000000B6   0x1E40             SUBS     R0,R0,#+1
   \   000000B8   0xD056             BEQ.N    ??User_Set_VirtualKey_10
   \   000000BA   0x3816             SUBS     R0,R0,#+22
   \   000000BC   0x2809             CMP      R0,#+9
   \   000000BE   0xF240 0x8084      BLS.W    ??User_Set_VirtualKey_11
   \   000000C2   0x386D             SUBS     R0,R0,#+109
   \   000000C4   0xD05D             BEQ.N    ??User_Set_VirtualKey_12
   \   000000C6   0x1E80             SUBS     R0,R0,#+2
   \   000000C8   0xD064             BEQ.N    ??User_Set_VirtualKey_13
   \   000000CA   0x1E80             SUBS     R0,R0,#+2
   \   000000CC   0xD02B             BEQ.N    ??User_Set_VirtualKey_14
   \   000000CE   0x1EC0             SUBS     R0,R0,#+3
   \   000000D0   0xD069             BEQ.N    ??User_Set_VirtualKey_15
   \   000000D2   0x1E40             SUBS     R0,R0,#+1
   \   000000D4   0xD070             BEQ.N    ??User_Set_VirtualKey_16
   \   000000D6   0x1EC0             SUBS     R0,R0,#+3
   \   000000D8   0xD014             BEQ.N    ??User_Set_VirtualKey_17
   \   000000DA   0x1E40             SUBS     R0,R0,#+1
   \   000000DC   0xD051             BEQ.N    ??User_Set_VirtualKey_12
   \   000000DE   0x1E40             SUBS     R0,R0,#+1
   \   000000E0   0xD035             BEQ.N    ??User_Set_VirtualKey_9
   \   000000E2   0xE073             B.N      ??User_Set_VirtualKey_18
    251              {
    252              case VK_UPDATE: 
    253                Data_Process_Intilal_Data();
   \                     ??User_Set_VirtualKey_8: (+1)
   \   000000E4   0x.... 0x....      BL       Data_Process_Intilal_Data
    254                g_UserStateMachine = SELECT_USER;
   \   000000E8   0x2001             MOVS     R0,#+1
   \   000000EA   0x.... 0x....      LDR.W    R1,??DataTable17
   \   000000EE   0x7008             STRB     R0,[R1, #+0]
    255                User_event.fields.key_update = 1;
   \   000000F0   0x.... 0x....      LDR.W    R0,??DataTable17_1
   \   000000F4   0x8800             LDRH     R0,[R0, #+0]
   \   000000F6   0xF050 0x0004      ORRS     R0,R0,#0x4
   \   000000FA   0x.... 0x....      LDR.W    R1,??DataTable17_1
   \   000000FE   0x8008             STRH     R0,[R1, #+0]
    256                break;
   \   00000100   0xE064             B.N      ??User_Set_VirtualKey_19
    257              case VK_STOP: 
    258                break;
   \                     ??User_Set_VirtualKey_6: (+1)
   \   00000102   0xE063             B.N      ??User_Set_VirtualKey_19
    259              case VK_PAUSE_START:
    260                User_event.fields.key_save = 1;
   \                     ??User_Set_VirtualKey_17: (+1)
   \   00000104   0x.... 0x....      LDR.W    R0,??DataTable17_1
   \   00000108   0x8800             LDRH     R0,[R0, #+0]
   \   0000010A   0xF050 0x0010      ORRS     R0,R0,#0x10
   \   0000010E   0x.... 0x....      LDR.W    R1,??DataTable17_1
   \   00000112   0x8008             STRH     R0,[R1, #+0]
    261                User_event.fields.key_start_pause =1;
   \   00000114   0x.... 0x....      LDR.W    R0,??DataTable17_1
   \   00000118   0x8800             LDRH     R0,[R0, #+0]
   \   0000011A   0xF450 0x6080      ORRS     R0,R0,#0x400
   \   0000011E   0x.... 0x....      LDR.W    R1,??DataTable17_1
   \   00000122   0x8008             STRH     R0,[R1, #+0]
    262                break;
   \   00000124   0xE052             B.N      ??User_Set_VirtualKey_19
    263              case VK_ENG:
    264                {
    265                  User_event.fields.key_eng = 1;
   \                     ??User_Set_VirtualKey_14: (+1)
   \   00000126   0x.... 0x....      LDR.W    R0,??DataTable17_1
   \   0000012A   0x8800             LDRH     R0,[R0, #+0]
   \   0000012C   0xF450 0x6000      ORRS     R0,R0,#0x800
   \   00000130   0x.... 0x....      LDR.W    R1,??DataTable17_1
   \   00000134   0x8008             STRH     R0,[R1, #+0]
    266                  TempKey = VK_ENG;	
   \   00000136   0x209B             MOVS     R0,#+155
   \   00000138   0x0006             MOVS     R6,R0
    267                }
    268                break;
   \   0000013A   0xE047             B.N      ??User_Set_VirtualKey_19
    269              case VK_RESET:
    270                User_event.fields.key_reset = 1;
   \                     ??User_Set_VirtualKey_7: (+1)
   \   0000013C   0x.... 0x....      LDR.W    R0,??DataTable17_1
   \   00000140   0x8800             LDRH     R0,[R0, #+0]
   \   00000142   0xF050 0x0020      ORRS     R0,R0,#0x20
   \   00000146   0x.... 0x....      LDR.W    R1,??DataTable17_1
   \   0000014A   0x8008             STRH     R0,[R1, #+0]
    271                break;
   \   0000014C   0xE03E             B.N      ??User_Set_VirtualKey_19
    272              case VK_SPEEDUP_LONG_PRESS:	
    273              case VK_INCLINEUP:
    274              case VK_SPEEDUP:	
    275              case VK_RESISTANCEUP:
    276              case VK_UP:
    277                if(Bluetooth_Get_ConnectStatus() == 0)
   \                     ??User_Set_VirtualKey_9: (+1)
   \   0000014E   0x.... 0x....      BL       Bluetooth_Get_ConnectStatus
   \   00000152   0x2800             CMP      R0,#+0
   \   00000154   0xD107             BNE.N    ??User_Set_VirtualKey_20
    278                  User_event.fields.key_up = 1;
   \   00000156   0x.... 0x....      LDR.W    R0,??DataTable17_1
   \   0000015A   0x8800             LDRH     R0,[R0, #+0]
   \   0000015C   0xF050 0x0001      ORRS     R0,R0,#0x1
   \   00000160   0x.... 0x....      LDR.W    R1,??DataTable17_1
   \   00000164   0x8008             STRH     R0,[R1, #+0]
    279                break;
   \                     ??User_Set_VirtualKey_20: (+1)
   \   00000166   0xE031             B.N      ??User_Set_VirtualKey_19
    280              case VK_INCLINEDOWN:
    281              case VK_SPEEDDOWN:		
    282              case VK_DOWN:
    283              case VK_RESISTANCEDOWN:
    284                if(Bluetooth_Get_ConnectStatus() == 0)
   \                     ??User_Set_VirtualKey_10: (+1)
   \   00000168   0x.... 0x....      BL       Bluetooth_Get_ConnectStatus
   \   0000016C   0x2800             CMP      R0,#+0
   \   0000016E   0xD107             BNE.N    ??User_Set_VirtualKey_21
    285                  User_event.fields.key_dn = 1;
   \   00000170   0x.... 0x....      LDR.W    R0,??DataTable17_1
   \   00000174   0x8800             LDRH     R0,[R0, #+0]
   \   00000176   0xF050 0x0002      ORRS     R0,R0,#0x2
   \   0000017A   0x.... 0x....      LDR.W    R1,??DataTable17_1
   \   0000017E   0x8008             STRH     R0,[R1, #+0]
    286                break;
   \                     ??User_Set_VirtualKey_21: (+1)
   \   00000180   0xE024             B.N      ??User_Set_VirtualKey_19
    287              case VK_ENTER:
    288              case VK_ENTER_CHANGEDIS:
    289          //      if(Bluetooth_Get_ConnectStatus() == 0)
    290                  User_event.fields.key_enter = 1;
   \                     ??User_Set_VirtualKey_12: (+1)
   \   00000182   0x.... 0x....      LDR.W    R0,??DataTable17_1
   \   00000186   0x8800             LDRH     R0,[R0, #+0]
   \   00000188   0xF050 0x0008      ORRS     R0,R0,#0x8
   \   0000018C   0x.... 0x....      LDR.W    R1,??DataTable17_1
   \   00000190   0x8008             STRH     R0,[R1, #+0]
    291                break;
   \   00000192   0xE01B             B.N      ??User_Set_VirtualKey_19
    292              case VK_BACK:
    293                User_event.fields.key_back = 1;
   \                     ??User_Set_VirtualKey_13: (+1)
   \   00000194   0x.... 0x....      LDR.W    R0,??DataTable17_1
   \   00000198   0x8800             LDRH     R0,[R0, #+0]
   \   0000019A   0xF450 0x7000      ORRS     R0,R0,#0x200
   \   0000019E   0x.... 0x....      LDR.W    R1,??DataTable17_1
   \   000001A2   0x8008             STRH     R0,[R1, #+0]
    294                break;
   \   000001A4   0xE012             B.N      ??User_Set_VirtualKey_19
    295              case VK_RF_SYNC:
    296                User_event.fields.key_rf = 1;
   \                     ??User_Set_VirtualKey_15: (+1)
   \   000001A6   0x.... 0x....      LDR.W    R0,??DataTable17_1
   \   000001AA   0x8800             LDRH     R0,[R0, #+0]
   \   000001AC   0xF050 0x0080      ORRS     R0,R0,#0x80
   \   000001B0   0x.... 0x....      LDR.W    R1,??DataTable17_1
   \   000001B4   0x8008             STRH     R0,[R1, #+0]
    297                break;
   \   000001B6   0xE009             B.N      ??User_Set_VirtualKey_19
    298              case VK_WIFI_AP:
    299                User_event.fields.key_wifi = 1;
   \                     ??User_Set_VirtualKey_16: (+1)
   \   000001B8   0x.... 0x....      LDR.W    R0,??DataTable17_1
   \   000001BC   0x8800             LDRH     R0,[R0, #+0]
   \   000001BE   0xF450 0x7080      ORRS     R0,R0,#0x100
   \   000001C2   0x.... 0x....      LDR.W    R1,??DataTable17_1
   \   000001C6   0x8008             STRH     R0,[R1, #+0]
    300                break;   
   \   000001C8   0xE000             B.N      ??User_Set_VirtualKey_19
    301              case VK_NUM0:
    302              case VK_NUM1:
    303              case VK_NUM2:
    304              case VK_NUM3:
    305              case VK_NUM4:
    306              case VK_NUM5:
    307              case VK_NUM6:
    308              case VK_NUM7:
    309              case VK_NUM8:
    310              case VK_NUM9:
    311          #ifdef __WIFI_FUNC__
    312                if(g_UserStateMachine ==  INPUT_XID)
    313                {
    314                  if(g_InputIndex < 14)
    315                  {
    316                    g_xid[g_InputIndex++] = (TempKey - VK_NUM0 + 0x30);
    317                    User_event.fields.key_num = 1;
    318                  }
    319                }
    320                else if(g_UserStateMachine ==  INPUT_PASSCODE)
    321                {
    322                  if(g_InputIndex < 4)
    323                  {
    324                    g_passcode[g_InputIndex++] = (TempKey - VK_NUM0 + 0x30);
    325                    User_event.fields.key_num = 1;
    326                  }
    327                }
    328                else if((g_UserStateMachine == EDIT_USER_WEIGHT )||(g_UserStateMachine == EDIT_USER_AGE) )
    329                {
    330                  if(g_InputIndex == 0 && TempKey!= VK_NUM0)
    331                  {
    332                    g_KeyTemp = (TempKey - VK_NUM0); 
    333                    g_InputIndex++;
    334                  }
    335                  else if(g_InputIndex == 1)
    336                  {
    337                    g_KeyTemp =  (g_KeyTemp * 10) + (TempKey - VK_NUM0);
    338                    g_InputIndex++;
    339                  }
    340                  else if(g_InputIndex == 2)
    341                  {
    342                    g_InputIndex++;
    343                    g_KeyTemp = (g_KeyTemp * 10) + (TempKey - VK_NUM0);  //<= 999
    344                  }
    345                  else if(g_InputIndex == 3)	
    346                  {
    347                    g_QuickValueExceed = 1;
    348                  }
    349                  if(!g_QuickValueExceed)
    350                    User_event.fields.key_num = 1;       
    351                }
    352          #endif
    353                /* else if(g_UserStateMachine == EDIT_USER_AGE)
    354                {
    355                if(g_InputIndex == 0)
    356                {
    357                g_KeyTemp = (TempKey - VK_NUM0); 
    358                g_InputIndex++;
    359              }
    360                else if(g_InputIndex == 1)
    361                {
    362                g_KeyTemp =  (g_KeyTemp * 10) + (TempKey - VK_NUM0);
    363                g_InputIndex++;
    364              }
    365                else if(g_InputIndex == 2)
    366                {
    367                g_KeyTemp = (g_KeyTemp * 10) + (TempKey - VK_NUM0);
    368                if(g_KeyTemp > 130)
    369                UserAdjustInputValue();
    370              }
    371                g_UserAge = g_KeyTemp;
    372                User_event.fields.key_num = 1;
    373              }*/
    374                
    375                break;
   \                     ??User_Set_VirtualKey_11: (+1)
   \   000001CA   0xE7FF             B.N      ??User_Set_VirtualKey_19
    376              default:
    377                break;
    378              }
    379          }
   \                     ??User_Set_VirtualKey_18: (+1)
   \                     ??User_Set_VirtualKey_19: (+1)
   \                     ??User_Set_VirtualKey_2: (+1)
   \   000001CC   0xBD70             POP      {R4-R6,PC}       ;; return
    380          
    381          
    382          

   \                                 In section .text, align 2, keep-with-next
    383          char* User_Get_Name(void)
    384          {
   \                     User_Get_Name: (+1)
   \   00000000   0xB500             PUSH     {LR}
   \   00000002   0xF5AD 0x6DA0      SUB      SP,SP,#+1280
   \   00000006   0xB091             SUB      SP,SP,#+68
    385              if(g_UserSlot==0)
   \   00000008   0x.... 0x....      LDR.W    R0,??DataTable17_5
   \   0000000C   0x7800             LDRB     R0,[R0, #+0]
   \   0000000E   0x2800             CMP      R0,#+0
   \   00000010   0xD101             BNE.N    ??User_Get_Name_0
    386              {
    387                  return((char*)NULL);
   \   00000012   0x2000             MOVS     R0,#+0
   \   00000014   0xE013             B.N      ??User_Get_Name_1
    388              }
   \                     ??User_Get_Name_0: (+1)
   \   00000016   0x.... 0x....      LDR.W    R0,??DataTable17_5
   \   0000001A   0x7801             LDRB     R1,[R0, #+0]
   \   0000001C   0x4668             MOV      R0,SP
   \   0000001E   0x.... 0x....      BL       SystemConfig_Get_UserInfo
    389              else
    390              {
    391                  USERS_INFO usersinfo = SystemConfig_Get_UserInfo(g_UserSlot);
   \   00000022   0xA8A8             ADD      R0,SP,#+672
   \   00000024   0x4669             MOV      R1,SP
   \   00000026   0xF44F 0x7228      MOV      R2,#+672
   \   0000002A   0x.... 0x....      BL       __aeabi_memcpy
    392                  if(strlen(usersinfo.name)>0)
   \   0000002E   0xA8B1             ADD      R0,SP,#+708
   \   00000030   0x.... 0x....      BL       strlen
   \   00000034   0x2800             CMP      R0,#+0
   \   00000036   0xD001             BEQ.N    ??User_Get_Name_2
    393                  {
    394                      return(usersinfo.name);
                                   ^
Warning[Pe1056]: returning pointer to local variable
   \   00000038   0xA8B1             ADD      R0,SP,#+708
   \   0000003A   0xE000             B.N      ??User_Get_Name_1
    395                  }
    396                  else
    397                  {
    398                      return (char*)NULL;
   \                     ??User_Get_Name_2: (+1)
   \   0000003C   0x2000             MOVS     R0,#+0
   \                     ??User_Get_Name_1: (+1)
   \   0000003E   0xF50D 0x6DA0      ADD      SP,SP,#+1280
   \   00000042   0xB011             ADD      SP,SP,#+68
   \   00000044   0xBD00             POP      {PC}             ;; return
    399                  }
    400              }
    401          }
    402          

   \                                 In section .text, align 2, keep-with-next
    403          UINT8 User_Get_UserSlot(void)
    404          {
    405              return 1;
   \                     User_Get_UserSlot: (+1)
   \   00000000   0x2001             MOVS     R0,#+1
   \   00000002   0x4770             BX       LR               ;; return
    406          }

   \                                 In section .text, align 2, keep-with-next
    407          void User_Set_UserSlot(UINT8 UserID)
    408          {
    409              g_UserSlot = UserID;
   \                     User_Set_UserSlot: (+1)
   \   00000000   0x.... 0x....      LDR.W    R1,??DataTable17_5
   \   00000004   0x7008             STRB     R0,[R1, #+0]
    410          }
   \   00000006   0x4770             BX       LR               ;; return

   \                                 In section .text, align 2, keep-with-next
    411          UINT16 User_Get_Weight(void)
    412          {
   \                     User_Get_Weight: (+1)
   \   00000000   0xB510             PUSH     {R4,LR}
    413              UINT16 ret = g_UserWeightSTDX100;
   \   00000002   0x....             LDR.N    R0,??DataTable16_2
   \   00000004   0x8804             LDRH     R4,[R0, #+0]
    414          	if(g_KeyTemp !=0)
   \   00000006   0x.... 0x....      LDR.W    R0,??DataTable17_6
   \   0000000A   0x8800             LDRH     R0,[R0, #+0]
   \   0000000C   0x2800             CMP      R0,#+0
   \   0000000E   0xD004             BEQ.N    ??User_Get_Weight_0
    415          	{
    416          		ret =  g_KeyTemp;
   \   00000010   0x.... 0x....      LDR.W    R0,??DataTable17_6
   \   00000014   0x8800             LDRH     R0,[R0, #+0]
   \   00000016   0x0004             MOVS     R4,R0
   \   00000018   0xE019             B.N      ??User_Get_Weight_1
    417          	}
    418          	else
    419          	{
    420          	    if(SystemConfig_Get_Display_Unit(User_Get_UserSlot()) == STANDARD)
   \                     ??User_Get_Weight_0: (+1)
   \   0000001A   0x.... 0x....      BL       User_Get_UserSlot
   \   0000001E   0xB2C0             UXTB     R0,R0            ;; ZeroExt  R0,R0,#+24,#+24
   \   00000020   0x.... 0x....      BL       SystemConfig_Get_Display_Unit
   \   00000024   0x2800             CMP      R0,#+0
   \   00000026   0xD104             BNE.N    ??User_Get_Weight_2
    421          	    {
    422          	        ret = ret/100;
   \   00000028   0xB2A4             UXTH     R4,R4            ;; ZeroExt  R4,R4,#+16,#+16
   \   0000002A   0x2064             MOVS     R0,#+100
   \   0000002C   0xFB94 0xF4F0      SDIV     R4,R4,R0
   \   00000030   0xE00D             B.N      ??User_Get_Weight_1
    423          	    }
    424          	    else
    425          	    {
    426          	        //极限值范围2^32（4294967296）, 实际计算最大值为752500
    427          	        UINT32 temp = (UINT32)ret * (UINT32)215;
   \                     ??User_Get_Weight_2: (+1)
   \   00000032   0xB2A4             UXTH     R4,R4            ;; ZeroExt  R4,R4,#+16,#+16
   \   00000034   0x20D7             MOVS     R0,#+215
   \   00000036   0xFB00 0xF004      MUL      R0,R0,R4
    428          	        temp = temp/474;
   \   0000003A   0xF44F 0x71ED      MOV      R1,#+474
   \   0000003E   0xFBB0 0xF0F1      UDIV     R0,R0,R1
    429          	        ret = (UINT16)(temp+50)/100;
   \   00000042   0x3032             ADDS     R0,R0,#+50
   \   00000044   0xB280             UXTH     R0,R0            ;; ZeroExt  R0,R0,#+16,#+16
   \   00000046   0x2164             MOVS     R1,#+100
   \   00000048   0xFB90 0xF0F1      SDIV     R0,R0,R1
   \   0000004C   0x0004             MOVS     R4,R0
    430          	    }
    431          	}
    432              return ret;
   \                     ??User_Get_Weight_1: (+1)
   \   0000004E   0x0020             MOVS     R0,R4
   \   00000050   0xB280             UXTH     R0,R0            ;; ZeroExt  R0,R0,#+16,#+16
   \   00000052   0xBD10             POP      {R4,PC}          ;; return
    433          }

   \                                 In section .text, align 2, keep-with-next
    434          UINT16 User_Get_StandardWeight(void)
    435          {
    436              return g_UserWeightSTDX100;
   \                     User_Get_StandardWeight: (+1)
   \   00000000   0x.... 0x....      LDR.W    R0,??DataTable17_7
   \   00000004   0x8800             LDRH     R0,[R0, #+0]
   \   00000006   0x4770             BX       LR               ;; return
    437          }

   \                                 In section .text, align 2, keep-with-next
    438          UINT16 User_Get_Age(void)
    439          {
    440          	UINT16 ret = g_UserAge ;
   \                     User_Get_Age: (+1)
   \   00000000   0x....             LDR.N    R0,??DataTable16_3
   \   00000002   0x7800             LDRB     R0,[R0, #+0]
    441          	if(g_KeyTemp!=0)
   \   00000004   0x.... 0x....      LDR.W    R1,??DataTable17_6
   \   00000008   0x8809             LDRH     R1,[R1, #+0]
   \   0000000A   0x2900             CMP      R1,#+0
   \   0000000C   0xD003             BEQ.N    ??User_Get_Age_0
    442          		ret = g_KeyTemp;
   \   0000000E   0x.... 0x....      LDR.W    R1,??DataTable17_6
   \   00000012   0x8809             LDRH     R1,[R1, #+0]
   \   00000014   0x0008             MOVS     R0,R1
    443              return ret;
   \                     ??User_Get_Age_0: (+1)
   \   00000016   0xB280             UXTH     R0,R0            ;; ZeroExt  R0,R0,#+16,#+16
   \   00000018   0x4770             BX       LR               ;; return
    444          }
    445          

   \                                 In section .text, align 2, keep-with-next
    446          UINT8 User_Get_Gender(void)
    447          {
    448              return g_UserGender;
   \                     User_Get_Gender: (+1)
   \   00000000   0x.... 0x....      LDR.W    R0,??DataTable17_8
   \   00000004   0x7800             LDRB     R0,[R0, #+0]
   \   00000006   0x4770             BX       LR               ;; return
    449          }
    450          

   \                                 In section .text, align 2, keep-with-next
    451          USER_SETTING_STATUS User_Get_SettingFlow(void)
    452          {
    453              return g_UserStateMachine;
   \                     User_Get_SettingFlow: (+1)
   \   00000000   0x.... 0x....      LDR.W    R0,??DataTable17
   \   00000004   0x7800             LDRB     R0,[R0, #+0]
   \   00000006   0x4770             BX       LR               ;; return
    454          }
    455          

   \                                 In section .text, align 2, keep-with-next
    456          UINT8 *User_Get_Xid(void)
    457          {
    458              return g_xid;
   \                     User_Get_Xid: (+1)
   \   00000000   0x.... 0x....      LDR.W    R0,??DataTable17_2
   \   00000004   0x4770             BX       LR               ;; return
    459          }
    460          

   \                                 In section .text, align 2, keep-with-next
    461          UINT8 *User_Get_Passcode(void)
    462          {
    463              return g_passcode;
   \                     User_Get_Passcode: (+1)
   \   00000000   0x.... 0x....      LDR.W    R0,??DataTable17_3
   \   00000004   0x4770             BX       LR               ;; return
    464          }
    465          
    466          

   \                                 In section .text, align 2, keep-with-next
    467          USER_EVENT User_Process(void)
    468          {
   \                     User_Process: (+1)
   \   00000000   0xB510             PUSH     {R4,LR}
   \   00000002   0xF5AD 0x6DA7      SUB      SP,SP,#+1336
    469              USER_EVENT evt = USER_EVT_NONE; 
   \   00000006   0x2400             MOVS     R4,#+0
    470              
    471              switch(g_UserStateMachine)
   \   00000008   0x.... 0x....      LDR.W    R0,??DataTable17
   \   0000000C   0x7800             LDRB     R0,[R0, #+0]
   \   0000000E   0x2800             CMP      R0,#+0
   \   00000010   0xD012             BEQ.N    ??User_Process_0
   \   00000012   0x2802             CMP      R0,#+2
   \   00000014   0xF000 0x816B      BEQ.W    ??User_Process_1
   \   00000018   0xD378             BCC.N    ??User_Process_2
   \   0000001A   0x2804             CMP      R0,#+4
   \   0000001C   0xF000 0x822D      BEQ.W    ??User_Process_3
   \   00000020   0xF0C0 0x81CB      BCC.W    ??User_Process_4
   \   00000024   0x2806             CMP      R0,#+6
   \   00000026   0xF000 0x83A5      BEQ.W    ??User_Process_5
   \   0000002A   0xF0C0 0x82FD      BCC.W    ??User_Process_6
   \   0000002E   0x2807             CMP      R0,#+7
   \   00000030   0xF000 0x83FE      BEQ.W    ??User_Process_7
   \   00000034   0xF000 0xBC07      B.W      ??User_Process_8
    472              {
    473              case INITIAL_USER:
    474                {
    475                  if(User_event.fields.key_up == 1)
   \                     ??User_Process_0: (+1)
   \   00000038   0x.... 0x....      LDR.W    R0,??DataTable17_1
   \   0000003C   0x7800             LDRB     R0,[R0, #+0]
   \   0000003E   0xF010 0x0001      ANDS     R0,R0,#0x1
   \   00000042   0x2800             CMP      R0,#+0
   \   00000044   0xD011             BEQ.N    ??User_Process_9
    476                  {
    477                    g_UserSlot = 0;
   \   00000046   0x2000             MOVS     R0,#+0
   \   00000048   0x.... 0x....      LDR.W    R1,??DataTable17_5
   \   0000004C   0x7008             STRB     R0,[R1, #+0]
    478                    UserUpdateInfo();
   \   0000004E   0x.... 0x....      BL       UserUpdateInfo
    479          #ifdef __WIFI_FUNC__
    480                    subState = 0;
    481                    g_UserStateMachine = SYNC_USER;
    482          #else
    483                    evt = USER_CHANGE_EVT;
   \   00000052   0x2001             MOVS     R0,#+1
   \   00000054   0x0004             MOVS     R4,R0
    484                    g_UserStateMachine = SELECT_USER;
   \   00000056   0x2001             MOVS     R0,#+1
   \   00000058   0x.... 0x....      LDR.W    R1,??DataTable17
   \   0000005C   0x7008             STRB     R0,[R1, #+0]
    485                    UserPushStateBuffer(g_UserStateMachine);
   \   0000005E   0x.... 0x....      LDR.W    R0,??DataTable17
   \   00000062   0x7800             LDRB     R0,[R0, #+0]
   \   00000064   0x.... 0x....      BL       UserPushStateBuffer
   \   00000068   0xE04F             B.N      ??User_Process_10
    486                    
    487          #endif
    488                  }
    489                  else if(User_event.fields.key_dn == 1)
   \                     ??User_Process_9: (+1)
   \   0000006A   0x.... 0x....      LDR.W    R0,??DataTable17_1
   \   0000006E   0x8800             LDRH     R0,[R0, #+0]
   \   00000070   0xF3C0 0x0040      UBFX     R0,R0,#+1,#+1
   \   00000074   0xB280             UXTH     R0,R0            ;; ZeroExt  R0,R0,#+16,#+16
   \   00000076   0x2800             CMP      R0,#+0
   \   00000078   0xD014             BEQ.N    ??User_Process_11
    490                  {
    491                    g_UserSlot = D_USER_SLOTS-1;
   \   0000007A   0x.... 0x....      LDR.W    R0,??DataTable17_9
   \   0000007E   0x7800             LDRB     R0,[R0, #+0]
   \   00000080   0x1E40             SUBS     R0,R0,#+1
   \   00000082   0x.... 0x....      LDR.W    R1,??DataTable17_5
   \   00000086   0x7008             STRB     R0,[R1, #+0]
    492                    UserUpdateInfo();
   \   00000088   0x.... 0x....      BL       UserUpdateInfo
    493          #ifdef __WIFI_FUNC__
    494                    subState = 0;
    495                    g_UserStateMachine = SYNC_USER;
    496          #else
    497                    evt = USER_CHANGE_EVT;
   \   0000008C   0x2001             MOVS     R0,#+1
   \   0000008E   0x0004             MOVS     R4,R0
    498                    g_UserStateMachine = SELECT_USER;
   \   00000090   0x2001             MOVS     R0,#+1
   \   00000092   0x.... 0x....      LDR.W    R1,??DataTable17
   \   00000096   0x7008             STRB     R0,[R1, #+0]
    499                    UserPushStateBuffer(g_UserStateMachine);
   \   00000098   0x.... 0x....      LDR.W    R0,??DataTable17
   \   0000009C   0x7800             LDRB     R0,[R0, #+0]
   \   0000009E   0x.... 0x....      BL       UserPushStateBuffer
   \   000000A2   0xE032             B.N      ??User_Process_10
    500          #endif           
    501                  }
    502                  else if(User_event.fields.key_enter == 1)
   \                     ??User_Process_11: (+1)
   \   000000A4   0x.... 0x....      LDR.W    R0,??DataTable17_1
   \   000000A8   0x8800             LDRH     R0,[R0, #+0]
   \   000000AA   0xF3C0 0x00C0      UBFX     R0,R0,#+3,#+1
   \   000000AE   0xB280             UXTH     R0,R0            ;; ZeroExt  R0,R0,#+16,#+16
   \   000000B0   0x2800             CMP      R0,#+0
   \   000000B2   0xD02A             BEQ.N    ??User_Process_10
    503                  {
    504                    if(Bluetooth_Get_ConnectStatus() == 0)
   \   000000B4   0x.... 0x....      BL       Bluetooth_Get_ConnectStatus
   \   000000B8   0x2800             CMP      R0,#+0
   \   000000BA   0xD111             BNE.N    ??User_Process_12
    505                    {
    506                      g_UserSlot = 0;
   \   000000BC   0x2000             MOVS     R0,#+0
   \   000000BE   0x.... 0x....      LDR.W    R1,??DataTable17_5
   \   000000C2   0x7008             STRB     R0,[R1, #+0]
    507                      UserUpdateInfo();
   \   000000C4   0x.... 0x....      BL       UserUpdateInfo
    508          #ifdef __WIFI_FUNC__
    509                      subState = 0;
    510                      g_UserStateMachine = SYNC_USER;
    511          #else
    512                      evt = USER_CHANGE_EVT;
   \   000000C8   0x2001             MOVS     R0,#+1
   \   000000CA   0x0004             MOVS     R4,R0
    513                      g_UserStateMachine = SELECT_USER;
   \   000000CC   0x2001             MOVS     R0,#+1
   \   000000CE   0x.... 0x....      LDR.W    R1,??DataTable17
   \   000000D2   0x7008             STRB     R0,[R1, #+0]
    514                      UserPushStateBuffer(g_UserStateMachine);
   \   000000D4   0x.... 0x....      LDR.W    R0,??DataTable17
   \   000000D8   0x7800             LDRB     R0,[R0, #+0]
   \   000000DA   0x.... 0x....      BL       UserPushStateBuffer
   \   000000DE   0xE014             B.N      ??User_Process_10
    515          #endif
    516                    }
    517                    else
    518                    {
    519                      g_KeyTemp = 0;
   \                     ??User_Process_12: (+1)
   \   000000E0   0x2000             MOVS     R0,#+0
   \   000000E2   0x.... 0x....      LDR.W    R1,??DataTable17_6
   \   000000E6   0x8008             STRH     R0,[R1, #+0]
    520                      g_QuickValueExceed = 0;			
   \   000000E8   0x2000             MOVS     R0,#+0
   \   000000EA   0x.... 0x....      LDR.W    R1,??DataTable17_10
   \   000000EE   0x7008             STRB     R0,[R1, #+0]
    521                      UserSaveData();
   \   000000F0   0x.... 0x....      BL       UserSaveData
    522                      g_UserStateMachine = USER_SETUP_COMPLETE;
   \   000000F4   0x2007             MOVS     R0,#+7
   \   000000F6   0x.... 0x....      LDR.W    R1,??DataTable17
   \   000000FA   0x7008             STRB     R0,[R1, #+0]
    523                      UserPushStateBuffer(g_UserStateMachine);
   \   000000FC   0x.... 0x....      LDR.W    R0,??DataTable17
   \   00000100   0x7800             LDRB     R0,[R0, #+0]
   \   00000102   0x.... 0x....      BL       UserPushStateBuffer
    524                      evt = USER_SETTING_COMPLETE;
   \   00000106   0x2007             MOVS     R0,#+7
   \   00000108   0x0004             MOVS     R4,R0
    525                    }
    526                  }
    527                }
    528                break;
   \                     ??User_Process_10: (+1)
   \   0000010A   0xE39C             B.N      ??User_Process_13
    529                
    530          #ifdef __WIFI_FUNC__
    531              case SYNC_USER:
    532                {
    533                  switch(subState)
    534                  {
    535                  case 0:
    536                    if(WIFIIsOnline() == 1)
    537                      subState++;
    538                    else
    539                    {
    540                      evt = USER_CHANGE_EVT;
    541                      g_UserStateMachine = SELECT_USER;
    542                      UserPushStateBuffer(g_UserStateMachine);
    543                    }
    544                    break;
    545                  case 1:
    546                    UpdateUserInfo();
    547                    evt = USER_SYNC_INPROGRESS_EVT;
    548                    g_UserStateMachine = CHECK_CMD_RESULT;
    549                    break;
    550                  }
    551                }
    552                break;
    553          #ifdef __WIFI_FUNC__
    554              case INPUT_XID:
    555                if(User_event.fields.key_enter == 1)
    556                {
    557                  if(g_InputIndex > 4)
    558                  {
    559                    g_InputIndex = 0;
    560                    memset(g_passcode, '\0', 4);
    561                    g_UserStateMachine = INPUT_PASSCODE;
    562                    evt = INPUT_PASSCODE_EVT;
    563                  }
    564                }
    565                else if(User_event.fields.key_num == 1)
    566                {
    567                  evt = XID_CHANGE_EVT;
    568                }
    569                else if(User_event.fields.key_back == 1)
    570                {
    571                  evt = UserPopStateBuffer();
    572                }
    573                break;
    574              case INPUT_PASSCODE:
    575                if(User_event.fields.key_enter == 1)
    576                {
    577                  if(g_InputIndex == 4)
    578                  {
    579                    UINT8 User_Name_Existed = 0 ;
    580                    
    581                    g_InputIndex = 0;
    582                    
    583                    for(UINT8 temp = 1 ;temp<MAX_SUPPORTED_USERS;temp++)	
    584                    {
    585                      USERS_INFO userinfo = SystemConfig_Get_UserInfo(temp);
    586                      
    587                      if(memcmp(userinfo.xid, g_xid, 14) == 0)
    588                      {
    589                        User_Name_Existed = 1;
    590                        break;
    591                      }
    592                    }
    593                    if(User_Name_Existed)
    594                    {
    595                      User_Initial_Data();
    596                      evt = LOGIN_FAIL_EVT;
    597                    }
    598                    else
    599                    {
    600                      Login(g_UserSlot, g_xid, g_passcode);
    601                      //Login(1,"201510281111","1111");
    602                      g_UserStateMachine = CHECK_CMD_RESULT;
    603                      evt = LOGIN_INPROCESS_EVT;
    604                    }
    605                  }
    606                }
    607                else if(User_event.fields.key_num == 1)
    608                {
    609                  evt = PASSCODE_CHANGE_EVT;
    610                }
    611                else if(User_event.fields.key_back == 1)
    612                {
    613                  evt = UserPopStateBuffer();
    614                }       
    615                break;
    616          #endif
    617              case CHECK_CMD_RESULT:
    618                {
    619                  WIFI_STATUS_TYPE status = wifiGetStatus();
    620                  switch(status)
    621                  {
    622                  case WIFI_STATUS_SYNC_SUCCESS:
    623                    g_UserStateMachine = SELECT_USER;
    624                    UserPushStateBuffer(g_UserStateMachine);
    625                    g_UserSlot = 1;
    626                    UserUpdateInfo();
    627                    evt = USER_CHANGE_EVT;
    628                    break;
    629                  case WIFI_STATUS_SYNC_FAIL:
    630                    User_Initial_Data();
    631                    evt = USER_SYNC_FAIL_EVT;
    632                    break;
    633                  case WIFI_STATUS_LOGIN_SUCCESS:
    634                    g_UserStateMachine = WELCOME_USER;
    635                    UserPushStateBuffer(g_UserStateMachine);
    636                    g_UserSession[g_UserSlot-1] = 1 ;
    637                    evt = LOGIN_SUCCESS_EVT;
    638                    break;
    639                  case WIFI_STATUS_LOGIN_FAIL:
    640                    User_Initial_Data();
    641                    evt = LOGIN_FAIL_EVT;
    642                    break;
    643                  case WIFI_STATUS_DELETE_SUCCESS:
    644                    User_Initial_Data();
    645                    evt = DELETE_SUCCESS_EVT;
    646                    break;
    647                  case WIFI_STATUS_DELETE_FAIL:
    648                    User_Initial_Data();
    649                    evt = DELETE_FALI_EVT;
    650                    break;
    651                  case WIFI_STATUS_TIMEOUT:
    652                    User_Initial_Data();
    653                    evt = USER_SYNC_TIMEOUT_EVT;
    654                    break;			
    655                  case WIFI_STATUS_OFFLINE:
    656                    memset(g_UserSession,0,4);
    657                    break;
    658                  default:break;
    659                  }
    660                }
    661                break;
    662              case WELCOME_USER:
    663                {
    664                  if(WIFI_STATUS_LOGIN_SUCCESS != wifiGetStatus() || User_event.event != 0)
    665                  {
    666                    g_UserStateMachine = USER_SETUP_COMPLETE;
    667                    evt = USER_SETTING_COMPLETE;
    668                  }
    669                }
    670                break;
    671          #endif
    672              case SELECT_USER:
    673                if(User_event.fields.key_update)
   \                     ??User_Process_2: (+1)
   \   0000010C   0x.... 0x....      LDR.W    R0,??DataTable17_1
   \   00000110   0x8800             LDRH     R0,[R0, #+0]
   \   00000112   0xF3C0 0x0080      UBFX     R0,R0,#+2,#+1
   \   00000116   0xB280             UXTH     R0,R0            ;; ZeroExt  R0,R0,#+16,#+16
   \   00000118   0x2800             CMP      R0,#+0
   \   0000011A   0xD00A             BEQ.N    ??User_Process_14
    674                {
    675                  UserUpdateInfo();
   \   0000011C   0x.... 0x....      BL       UserUpdateInfo
    676                  if(nCurrentPage != PAGE_ERP_COUNTDOWN)
   \   00000120   0x.... 0x....      LDR.W    R0,??DataTable17_4
   \   00000124   0x7800             LDRB     R0,[R0, #+0]
   \   00000126   0x2804             CMP      R0,#+4
   \   00000128   0xF000 0x80E0      BEQ.W    ??User_Process_15
    677                    evt = USER_CHANGE_EVT;
   \   0000012C   0x2001             MOVS     R0,#+1
   \   0000012E   0x0004             MOVS     R4,R0
   \   00000130   0xE0DC             B.N      ??User_Process_15
    678                }
    679                else if(User_event.fields.key_up == 1)
   \                     ??User_Process_14: (+1)
   \   00000132   0x.... 0x....      LDR.W    R0,??DataTable17_1
   \   00000136   0x7800             LDRB     R0,[R0, #+0]
   \   00000138   0xF010 0x0001      ANDS     R0,R0,#0x1
   \   0000013C   0x2800             CMP      R0,#+0
   \   0000013E   0xD03D             BEQ.N    ??User_Process_16
    680                {
    681                  if(g_UserSlot < D_USER_SLOTS-1)
   \   00000140   0x.... 0x....      LDR.W    R0,??DataTable17_5
   \   00000144   0x7800             LDRB     R0,[R0, #+0]
   \   00000146   0x.... 0x....      LDR.W    R1,??DataTable17_9
   \   0000014A   0x7809             LDRB     R1,[R1, #+0]
   \   0000014C   0x1E49             SUBS     R1,R1,#+1
   \   0000014E   0x4288             CMP      R0,R1
   \   00000150   0xDA2B             BGE.N    ??User_Process_17
    682                  {
    683                    g_UserSlot++;
   \   00000152   0x.... 0x....      LDR.W    R0,??DataTable17_5
   \   00000156   0x7800             LDRB     R0,[R0, #+0]
   \   00000158   0x1C40             ADDS     R0,R0,#+1
   \   0000015A   0x.... 0x....      LDR.W    R1,??DataTable17_5
   \   0000015E   0x7008             STRB     R0,[R1, #+0]
    684                    
    685                    if(g_UserSlot < D_USER_SLOTS)   //user0 ~ 4
   \   00000160   0x.... 0x....      LDR.W    R0,??DataTable17_5
   \   00000164   0x7800             LDRB     R0,[R0, #+0]
   \   00000166   0x.... 0x....      LDR.W    R1,??DataTable17_9
   \   0000016A   0x7809             LDRB     R1,[R1, #+0]
   \   0000016C   0x4288             CMP      R0,R1
   \   0000016E   0xD204             BCS.N    ??User_Process_18
    686                    {
    687                      UserUpdateInfo();
   \   00000170   0x.... 0x....      BL       UserUpdateInfo
    688                      evt = USER_CHANGE_EVT;
   \   00000174   0x2001             MOVS     R0,#+1
   \   00000176   0x0004             MOVS     R4,R0
   \   00000178   0xE0B8             B.N      ??User_Process_15
    689                    }
    690                    else if(g_UserSlot == D_USER_SLOTS)  //edit user
   \                     ??User_Process_18: (+1)
   \   0000017A   0x.... 0x....      LDR.W    R0,??DataTable17_5
   \   0000017E   0x7800             LDRB     R0,[R0, #+0]
   \   00000180   0x.... 0x....      LDR.W    R1,??DataTable17_9
   \   00000184   0x7809             LDRB     R1,[R1, #+0]
   \   00000186   0x4288             CMP      R0,R1
   \   00000188   0xD102             BNE.N    ??User_Process_19
    691                    {
    692                      evt = USER_EDIT_SELECTED_EVT;
   \   0000018A   0x2002             MOVS     R0,#+2
   \   0000018C   0x0004             MOVS     R4,R0
   \   0000018E   0xE0AD             B.N      ??User_Process_15
    693                    }
    694                    else if(g_UserSlot == D_USER_SLOTS + 1) //delete user
   \                     ??User_Process_19: (+1)
   \   00000190   0x.... 0x....      LDR.W    R0,??DataTable17_5
   \   00000194   0x7800             LDRB     R0,[R0, #+0]
   \   00000196   0x.... 0x....      LDR.W    R1,??DataTable17_9
   \   0000019A   0x7809             LDRB     R1,[R1, #+0]
   \   0000019C   0x1C49             ADDS     R1,R1,#+1
   \   0000019E   0x4288             CMP      R0,R1
   \   000001A0   0xF040 0x80A4      BNE.W    ??User_Process_15
    695                    {
    696                      evt = USER_DELETE_SELECTED_EVT;
   \   000001A4   0x2003             MOVS     R0,#+3
   \   000001A6   0x0004             MOVS     R4,R0
   \   000001A8   0xE0A0             B.N      ??User_Process_15
    697                    }
    698                    else;
    699                  }
    700                  else
    701                  {
    702                    g_UserSlot = 0;
   \                     ??User_Process_17: (+1)
   \   000001AA   0x2000             MOVS     R0,#+0
   \   000001AC   0x.... 0x....      LDR.W    R1,??DataTable17_5
   \   000001B0   0x7008             STRB     R0,[R1, #+0]
    703                    UserUpdateInfo();
   \   000001B2   0x.... 0x....      BL       UserUpdateInfo
    704                    evt = USER_CHANGE_EVT;
   \   000001B6   0x2001             MOVS     R0,#+1
   \   000001B8   0x0004             MOVS     R4,R0
   \   000001BA   0xE097             B.N      ??User_Process_15
    705                  }
    706                }
    707                else if(User_event.fields.key_dn == 1)
   \                     ??User_Process_16: (+1)
   \   000001BC   0x.... 0x....      LDR.W    R0,??DataTable17_1
   \   000001C0   0x8800             LDRH     R0,[R0, #+0]
   \   000001C2   0xF3C0 0x0040      UBFX     R0,R0,#+1,#+1
   \   000001C6   0xB280             UXTH     R0,R0            ;; ZeroExt  R0,R0,#+16,#+16
   \   000001C8   0x2800             CMP      R0,#+0
   \   000001CA   0xD02F             BEQ.N    ??User_Process_20
    708                {
    709                  if(g_UserSlot > 0)
   \   000001CC   0x.... 0x....      LDR.W    R0,??DataTable17_5
   \   000001D0   0x7800             LDRB     R0,[R0, #+0]
   \   000001D2   0x2800             CMP      R0,#+0
   \   000001D4   0xD01E             BEQ.N    ??User_Process_21
    710                  {
    711                    g_UserSlot--;
   \   000001D6   0x.... 0x....      LDR.W    R0,??DataTable17_5
   \   000001DA   0x7800             LDRB     R0,[R0, #+0]
   \   000001DC   0x1E40             SUBS     R0,R0,#+1
   \   000001DE   0x.... 0x....      LDR.W    R1,??DataTable17_5
   \   000001E2   0x7008             STRB     R0,[R1, #+0]
    712                    if(g_UserSlot < D_USER_SLOTS)
   \   000001E4   0x.... 0x....      LDR.W    R0,??DataTable17_5
   \   000001E8   0x7800             LDRB     R0,[R0, #+0]
   \   000001EA   0x.... 0x....      LDR.W    R1,??DataTable17_9
   \   000001EE   0x7809             LDRB     R1,[R1, #+0]
   \   000001F0   0x4288             CMP      R0,R1
   \   000001F2   0xD204             BCS.N    ??User_Process_22
    713                    {
    714                      UserUpdateInfo();
   \   000001F4   0x.... 0x....      BL       UserUpdateInfo
    715                      evt = USER_CHANGE_EVT;
   \   000001F8   0x2001             MOVS     R0,#+1
   \   000001FA   0x0004             MOVS     R4,R0
   \   000001FC   0xE076             B.N      ??User_Process_15
    716                    }
    717                    else if(g_UserSlot == D_USER_SLOTS)
   \                     ??User_Process_22: (+1)
   \   000001FE   0x.... 0x....      LDR.W    R0,??DataTable17_5
   \   00000202   0x7800             LDRB     R0,[R0, #+0]
   \   00000204   0x.... 0x....      LDR.W    R1,??DataTable17_9
   \   00000208   0x7809             LDRB     R1,[R1, #+0]
   \   0000020A   0x4288             CMP      R0,R1
   \   0000020C   0xD16E             BNE.N    ??User_Process_15
    718                    {
    719                      evt = USER_EDIT_SELECTED_EVT;
   \   0000020E   0x2002             MOVS     R0,#+2
   \   00000210   0x0004             MOVS     R4,R0
   \   00000212   0xE06B             B.N      ??User_Process_15
    720                    }
    721                  }
    722                  else
    723                  {
    724                    g_UserSlot = D_USER_SLOTS - 1;
   \                     ??User_Process_21: (+1)
   \   00000214   0x.... 0x....      LDR.W    R0,??DataTable17_9
   \   00000218   0x7800             LDRB     R0,[R0, #+0]
   \   0000021A   0x1E40             SUBS     R0,R0,#+1
   \   0000021C   0x.... 0x....      LDR.W    R1,??DataTable17_5
   \   00000220   0x7008             STRB     R0,[R1, #+0]
    725                    UserUpdateInfo();
   \   00000222   0x.... 0x....      BL       UserUpdateInfo
    726                    evt = USER_CHANGE_EVT;
   \   00000226   0x2001             MOVS     R0,#+1
   \   00000228   0x0004             MOVS     R4,R0
   \   0000022A   0xE05F             B.N      ??User_Process_15
    727                    //                evt = USER_DELETE_SELECTED_EVT;
    728                  }
    729                }
    730                else if(User_event.fields.key_enter == 1)
   \                     ??User_Process_20: (+1)
   \   0000022C   0x.... 0x....      LDR.W    R0,??DataTable17_1
   \   00000230   0x8800             LDRH     R0,[R0, #+0]
   \   00000232   0xF3C0 0x00C0      UBFX     R0,R0,#+3,#+1
   \   00000236   0xB280             UXTH     R0,R0            ;; ZeroExt  R0,R0,#+16,#+16
   \   00000238   0x2800             CMP      R0,#+0
   \   0000023A   0xD057             BEQ.N    ??User_Process_15
    731                {
    732                  if(g_UserSlot == D_USER_SLOTS + 1)  //delete user
   \   0000023C   0x.... 0x....      LDR.W    R0,??DataTable17_5
   \   00000240   0x7800             LDRB     R0,[R0, #+0]
   \   00000242   0x.... 0x....      LDR.W    R1,??DataTable17_9
   \   00000246   0x7809             LDRB     R1,[R1, #+0]
   \   00000248   0x1C49             ADDS     R1,R1,#+1
   \   0000024A   0x4288             CMP      R0,R1
   \   0000024C   0xD111             BNE.N    ??User_Process_23
    733                  {
    734                    g_UserSlot =  1;                //user 1
   \   0000024E   0x2001             MOVS     R0,#+1
   \   00000250   0x.... 0x....      LDR.W    R1,??DataTable17_5
   \   00000254   0x7008             STRB     R0,[R1, #+0]
    735                    UserUpdateInfo();
   \   00000256   0x.... 0x....      BL       UserUpdateInfo
    736                    evt = USER_CHANGE_EVT;
   \   0000025A   0x2001             MOVS     R0,#+1
   \   0000025C   0x0004             MOVS     R4,R0
    737                    g_UserStateMachine = DELETE_USER;
   \   0000025E   0x2003             MOVS     R0,#+3
   \   00000260   0x.... 0x....      LDR.W    R1,??DataTable17
   \   00000264   0x7008             STRB     R0,[R1, #+0]
    738                    UserPushStateBuffer(g_UserStateMachine);
   \   00000266   0x.... 0x....      LDR.W    R0,??DataTable17
   \   0000026A   0x7800             LDRB     R0,[R0, #+0]
   \   0000026C   0x.... 0x....      BL       UserPushStateBuffer
   \   00000270   0xE03C             B.N      ??User_Process_15
    739                  }
    740                  else if(g_UserSlot == D_USER_SLOTS) //edit user
   \                     ??User_Process_23: (+1)
   \   00000272   0x.... 0x....      LDR.W    R0,??DataTable17_5
   \   00000276   0x7800             LDRB     R0,[R0, #+0]
   \   00000278   0x.... 0x....      LDR.W    R1,??DataTable17_9
   \   0000027C   0x7809             LDRB     R1,[R1, #+0]
   \   0000027E   0x4288             CMP      R0,R1
   \   00000280   0xD111             BNE.N    ??User_Process_24
    741                  {
    742                    g_UserSlot = 1;
   \   00000282   0x2001             MOVS     R0,#+1
   \   00000284   0x.... 0x....      LDR.W    R1,??DataTable17_5
   \   00000288   0x7008             STRB     R0,[R1, #+0]
    743                    UserUpdateInfo();
   \   0000028A   0x.... 0x....      BL       UserUpdateInfo
    744                    evt = USER_CHANGE_EVT;
   \   0000028E   0x2001             MOVS     R0,#+1
   \   00000290   0x0004             MOVS     R4,R0
    745                    g_UserStateMachine = EDIT_USER;
   \   00000292   0x2002             MOVS     R0,#+2
   \   00000294   0x.... 0x....      LDR.W    R1,??DataTable17
   \   00000298   0x7008             STRB     R0,[R1, #+0]
    746                    UserPushStateBuffer(g_UserStateMachine);
   \   0000029A   0x.... 0x....      LDR.W    R0,??DataTable17
   \   0000029E   0x7800             LDRB     R0,[R0, #+0]
   \   000002A0   0x.... 0x....      BL       UserPushStateBuffer
   \   000002A4   0xE022             B.N      ??User_Process_15
    747                  }
    748                  else if(g_UserSlot < D_USER_SLOTS)
   \                     ??User_Process_24: (+1)
   \   000002A6   0x.... 0x....      LDR.W    R0,??DataTable17_5
   \   000002AA   0x7800             LDRB     R0,[R0, #+0]
   \   000002AC   0x.... 0x....      LDR.W    R1,??DataTable17_9
   \   000002B0   0x7809             LDRB     R1,[R1, #+0]
   \   000002B2   0x4288             CMP      R0,R1
   \   000002B4   0xD21A             BCS.N    ??User_Process_15
    749                  {
    750          #ifdef __WIFI_FUNC__
    751                    USERS_INFO userinfo = SystemConfig_Get_UserInfo(g_UserSlot);
    752                    if(WIFIIsOnline() == 1 && g_UserSession[g_UserSlot-1] !=1)
    753                    {
    754                      memset(g_xid,'0',14);
    755                      //if there is no preset user, start to log in.
    756                      if(memcmp(userinfo.xid, g_xid, 14) == 0)
    757                      {
    758                        memset(g_xid,'\0',14);
    759                        g_InputIndex = 0;
    760                        evt = INPUT_XID_EVT;
    761                        g_UserStateMachine = INPUT_XID;
    762                        UserPushStateBuffer(g_UserStateMachine);
    763                      }
    764                      else //otherwise, directly login.
    765                      {
    766                        memset(g_xid,'\0',14);
    767                        memcpy(g_xid, userinfo.xid, 14);
    768                        memcpy(g_passcode, userinfo.passcode, 4);
    769                        Login(g_UserSlot, g_xid, g_passcode);
    770                        g_UserStateMachine = CHECK_CMD_RESULT;
    771                        evt = LOGIN_INPROCESS_EVT;
    772                      }
    773                    }
    774                    else
    775                    {
    776                      evt = USER_SETTING_COMPLETE;
    777                      g_UserStateMachine = USER_SETUP_COMPLETE;                    
    778                      UserPushStateBuffer(g_UserStateMachine);
    779                    }
    780          #else
    781                    if(Bluetooth_Get_ConnectStatus() == 0)
   \   000002B6   0x.... 0x....      BL       Bluetooth_Get_ConnectStatus
   \   000002BA   0x2800             CMP      R0,#+0
   \   000002BC   0xD10B             BNE.N    ??User_Process_25
    782                    {
    783                    evt = USER_WEIGHT_CHANGE_EVT;
   \   000002BE   0x2004             MOVS     R0,#+4
   \   000002C0   0x0004             MOVS     R4,R0
    784                    g_UserStateMachine = EDIT_USER_WEIGHT;
   \   000002C2   0x2004             MOVS     R0,#+4
   \   000002C4   0x.... 0x....      LDR.W    R1,??DataTable17
   \   000002C8   0x7008             STRB     R0,[R1, #+0]
    785                    UserPushStateBuffer(g_UserStateMachine);
   \   000002CA   0x.... 0x....      LDR.W    R0,??DataTable17
   \   000002CE   0x7800             LDRB     R0,[R0, #+0]
   \   000002D0   0x.... 0x....      BL       UserPushStateBuffer
   \   000002D4   0xE00A             B.N      ??User_Process_15
    786                    }
    787                    else
    788                    {
    789                      evt = USER_SETTING_COMPLETE;
   \                     ??User_Process_25: (+1)
   \   000002D6   0x2007             MOVS     R0,#+7
   \   000002D8   0x0004             MOVS     R4,R0
    790                      g_UserStateMachine = USER_SETUP_COMPLETE;                    
   \   000002DA   0x2007             MOVS     R0,#+7
   \   000002DC   0x.... 0x....      LDR.W    R1,??DataTable17
   \   000002E0   0x7008             STRB     R0,[R1, #+0]
    791                      UserPushStateBuffer(g_UserStateMachine);
   \   000002E2   0x.... 0x....      LDR.W    R0,??DataTable17
   \   000002E6   0x7800             LDRB     R0,[R0, #+0]
   \   000002E8   0x.... 0x....      BL       UserPushStateBuffer
    792                    }
    793          #endif
    794                  }
    795                }
    796                break;
   \                     ??User_Process_15: (+1)
   \   000002EC   0xE2AB             B.N      ??User_Process_13
    797              case EDIT_USER:
    798                if(User_event.fields.key_up == 1)
   \                     ??User_Process_1: (+1)
   \   000002EE   0x.... 0x....      LDR.W    R0,??DataTable17_1
   \   000002F2   0x7800             LDRB     R0,[R0, #+0]
   \   000002F4   0xF010 0x0001      ANDS     R0,R0,#0x1
   \   000002F8   0x2800             CMP      R0,#+0
   \   000002FA   0xD019             BEQ.N    ??User_Process_26
    799                {
    800                  evt = USER_CHANGE_EVT;
   \   000002FC   0x2001             MOVS     R0,#+1
   \   000002FE   0x0004             MOVS     R4,R0
    801                  if(g_UserSlot < D_USER_SLOTS - 1)
   \   00000300   0x.... 0x....      LDR.W    R0,??DataTable17_5
   \   00000304   0x7800             LDRB     R0,[R0, #+0]
   \   00000306   0x.... 0x....      LDR.W    R1,??DataTable17_9
   \   0000030A   0x7809             LDRB     R1,[R1, #+0]
   \   0000030C   0x1E49             SUBS     R1,R1,#+1
   \   0000030E   0x4288             CMP      R0,R1
   \   00000310   0xDA07             BGE.N    ??User_Process_27
    802                    g_UserSlot++;
   \   00000312   0x.... 0x....      LDR.W    R0,??DataTable17_5
   \   00000316   0x7800             LDRB     R0,[R0, #+0]
   \   00000318   0x1C40             ADDS     R0,R0,#+1
   \   0000031A   0x.... 0x....      LDR.W    R1,??DataTable17_5
   \   0000031E   0x7008             STRB     R0,[R1, #+0]
   \   00000320   0xE003             B.N      ??User_Process_28
    803                  else
    804                    g_UserSlot = 1;
   \                     ??User_Process_27: (+1)
   \   00000322   0x2001             MOVS     R0,#+1
   \   00000324   0x.... 0x....      LDR.W    R1,??DataTable17_5
   \   00000328   0x7008             STRB     R0,[R1, #+0]
    805                  UserUpdateInfo();
   \                     ??User_Process_28: (+1)
   \   0000032A   0x.... 0x....      BL       UserUpdateInfo
   \   0000032E   0xE043             B.N      ??User_Process_29
    806                }
    807                else if(User_event.fields.key_dn == 1)
   \                     ??User_Process_26: (+1)
   \   00000330   0x.... 0x....      LDR.W    R0,??DataTable17_1
   \   00000334   0x8800             LDRH     R0,[R0, #+0]
   \   00000336   0xF3C0 0x0040      UBFX     R0,R0,#+1,#+1
   \   0000033A   0xB280             UXTH     R0,R0            ;; ZeroExt  R0,R0,#+16,#+16
   \   0000033C   0x2800             CMP      R0,#+0
   \   0000033E   0xD018             BEQ.N    ??User_Process_30
    808                {
    809                  evt = USER_CHANGE_EVT;
   \   00000340   0x2001             MOVS     R0,#+1
   \   00000342   0x0004             MOVS     R4,R0
    810                  if(g_UserSlot > 1)
   \   00000344   0x.... 0x....      LDR.W    R0,??DataTable17_5
   \   00000348   0x7800             LDRB     R0,[R0, #+0]
   \   0000034A   0x2802             CMP      R0,#+2
   \   0000034C   0xDB07             BLT.N    ??User_Process_31
    811                    g_UserSlot--;
   \   0000034E   0x.... 0x....      LDR.W    R0,??DataTable17_5
   \   00000352   0x7800             LDRB     R0,[R0, #+0]
   \   00000354   0x1E40             SUBS     R0,R0,#+1
   \   00000356   0x.... 0x....      LDR.W    R1,??DataTable17_5
   \   0000035A   0x7008             STRB     R0,[R1, #+0]
   \   0000035C   0xE006             B.N      ??User_Process_32
    812                  else
    813                    g_UserSlot = D_USER_SLOTS - 1;
   \                     ??User_Process_31: (+1)
   \   0000035E   0x.... 0x....      LDR.W    R0,??DataTable17_9
   \   00000362   0x7800             LDRB     R0,[R0, #+0]
   \   00000364   0x1E40             SUBS     R0,R0,#+1
   \   00000366   0x.... 0x....      LDR.W    R1,??DataTable17_5
   \   0000036A   0x7008             STRB     R0,[R1, #+0]
    814                  UserUpdateInfo();
   \                     ??User_Process_32: (+1)
   \   0000036C   0x.... 0x....      BL       UserUpdateInfo
   \   00000370   0xE022             B.N      ??User_Process_29
    815                }
    816                else if(User_event.fields.key_enter == 1)
   \                     ??User_Process_30: (+1)
   \   00000372   0x.... 0x....      LDR.W    R0,??DataTable17_1
   \   00000376   0x8800             LDRH     R0,[R0, #+0]
   \   00000378   0xF3C0 0x00C0      UBFX     R0,R0,#+3,#+1
   \   0000037C   0xB280             UXTH     R0,R0            ;; ZeroExt  R0,R0,#+16,#+16
   \   0000037E   0x2800             CMP      R0,#+0
   \   00000380   0xD00F             BEQ.N    ??User_Process_33
    817                {
    818                  g_KeyTemp = 0;
   \   00000382   0x2000             MOVS     R0,#+0
   \   00000384   0x.... 0x....      LDR.W    R1,??DataTable17_6
   \   00000388   0x8008             STRH     R0,[R1, #+0]
    819                  //            g_InputIndex = 0;
    820                  evt = USER_WEIGHT_CHANGE_EVT;
   \   0000038A   0x2004             MOVS     R0,#+4
   \   0000038C   0x0004             MOVS     R4,R0
    821                  g_UserStateMachine = EDIT_USER_WEIGHT;
   \   0000038E   0x2004             MOVS     R0,#+4
   \   00000390   0x.... 0x....      LDR.W    R1,??DataTable17
   \   00000394   0x7008             STRB     R0,[R1, #+0]
    822                  UserPushStateBuffer(g_UserStateMachine);
   \   00000396   0x.... 0x....      LDR.W    R0,??DataTable17
   \   0000039A   0x7800             LDRB     R0,[R0, #+0]
   \   0000039C   0x.... 0x....      BL       UserPushStateBuffer
   \   000003A0   0xE00A             B.N      ??User_Process_29
    823                }
    824                else if(User_event.fields.key_back == 1)
   \                     ??User_Process_33: (+1)
   \   000003A2   0x.... 0x....      LDR.W    R0,??DataTable17_1
   \   000003A6   0x8800             LDRH     R0,[R0, #+0]
   \   000003A8   0xF3C0 0x2040      UBFX     R0,R0,#+9,#+1
   \   000003AC   0xB280             UXTH     R0,R0            ;; ZeroExt  R0,R0,#+16,#+16
   \   000003AE   0x2800             CMP      R0,#+0
   \   000003B0   0xD002             BEQ.N    ??User_Process_29
    825                {
    826                  evt = UserPopStateBuffer();
   \   000003B2   0x.... 0x....      BL       UserPopStateBuffer
   \   000003B6   0x0004             MOVS     R4,R0
    827                }
    828                break;
   \                     ??User_Process_29: (+1)
   \   000003B8   0xE245             B.N      ??User_Process_13
    829              case DELETE_USER:
    830                if(User_event.fields.key_up == 1)
   \                     ??User_Process_4: (+1)
   \   000003BA   0x.... 0x....      LDR.W    R0,??DataTable17_1
   \   000003BE   0x7800             LDRB     R0,[R0, #+0]
   \   000003C0   0xF010 0x0001      ANDS     R0,R0,#0x1
   \   000003C4   0x2800             CMP      R0,#+0
   \   000003C6   0xD017             BEQ.N    ??User_Process_34
    831                {
    832                  evt = USER_CHANGE_EVT;
   \   000003C8   0x2001             MOVS     R0,#+1
   \   000003CA   0x0004             MOVS     R4,R0
    833                  if(g_UserSlot < D_USER_SLOTS - 1)
   \   000003CC   0x.... 0x....      LDR.W    R0,??DataTable17_5
   \   000003D0   0x7800             LDRB     R0,[R0, #+0]
   \   000003D2   0x.... 0x....      LDR.W    R1,??DataTable17_9
   \   000003D6   0x7809             LDRB     R1,[R1, #+0]
   \   000003D8   0x1E49             SUBS     R1,R1,#+1
   \   000003DA   0x4288             CMP      R0,R1
   \   000003DC   0xDA07             BGE.N    ??User_Process_35
    834                    g_UserSlot++;
   \   000003DE   0x.... 0x....      LDR.W    R0,??DataTable17_5
   \   000003E2   0x7800             LDRB     R0,[R0, #+0]
   \   000003E4   0x1C40             ADDS     R0,R0,#+1
   \   000003E6   0x.... 0x....      LDR.W    R1,??DataTable17_5
   \   000003EA   0x7008             STRB     R0,[R1, #+0]
   \   000003EC   0xE044             B.N      ??User_Process_36
    835                  else
    836                    g_UserSlot = 1;
   \                     ??User_Process_35: (+1)
   \   000003EE   0x2001             MOVS     R0,#+1
   \   000003F0   0x.... 0x....      LDR.W    R1,??DataTable17_5
   \   000003F4   0x7008             STRB     R0,[R1, #+0]
   \   000003F6   0xE03F             B.N      ??User_Process_36
    837                }
    838                else if(User_event.fields.key_dn == 1)
   \                     ??User_Process_34: (+1)
   \   000003F8   0x.... 0x....      LDR.W    R0,??DataTable17_1
   \   000003FC   0x8800             LDRH     R0,[R0, #+0]
   \   000003FE   0xF3C0 0x0040      UBFX     R0,R0,#+1,#+1
   \   00000402   0xB280             UXTH     R0,R0            ;; ZeroExt  R0,R0,#+16,#+16
   \   00000404   0x2800             CMP      R0,#+0
   \   00000406   0xD016             BEQ.N    ??User_Process_37
    839                {
    840                  evt = USER_CHANGE_EVT;
   \   00000408   0x2001             MOVS     R0,#+1
   \   0000040A   0x0004             MOVS     R4,R0
    841                  if(g_UserSlot > 1)
   \   0000040C   0x.... 0x....      LDR.W    R0,??DataTable17_5
   \   00000410   0x7800             LDRB     R0,[R0, #+0]
   \   00000412   0x2802             CMP      R0,#+2
   \   00000414   0xDB07             BLT.N    ??User_Process_38
    842                    g_UserSlot--;
   \   00000416   0x.... 0x....      LDR.W    R0,??DataTable17_5
   \   0000041A   0x7800             LDRB     R0,[R0, #+0]
   \   0000041C   0x1E40             SUBS     R0,R0,#+1
   \   0000041E   0x.... 0x....      LDR.W    R1,??DataTable17_5
   \   00000422   0x7008             STRB     R0,[R1, #+0]
   \   00000424   0xE028             B.N      ??User_Process_36
    843                  else
    844                    g_UserSlot = D_USER_SLOTS - 1;
   \                     ??User_Process_38: (+1)
   \   00000426   0x.... 0x....      LDR.W    R0,??DataTable17_9
   \   0000042A   0x7800             LDRB     R0,[R0, #+0]
   \   0000042C   0x1E40             SUBS     R0,R0,#+1
   \   0000042E   0x.... 0x....      LDR.W    R1,??DataTable17_5
   \   00000432   0x7008             STRB     R0,[R1, #+0]
   \   00000434   0xE020             B.N      ??User_Process_36
    845                }
    846                else if(User_event.fields.key_enter == 1)
   \                     ??User_Process_37: (+1)
   \   00000436   0x.... 0x....      LDR.W    R0,??DataTable17_1
   \   0000043A   0x8800             LDRH     R0,[R0, #+0]
   \   0000043C   0xF3C0 0x00C0      UBFX     R0,R0,#+3,#+1
   \   00000440   0xB280             UXTH     R0,R0            ;; ZeroExt  R0,R0,#+16,#+16
   \   00000442   0x2800             CMP      R0,#+0
   \   00000444   0xD00D             BEQ.N    ??User_Process_39
    847                {
    848          #ifdef __WIFI_FUNC__
    849                  if(WIFIIsOnline() == 1)
    850                  {
    851                    WIFIDeleteUser(g_UserSlot);
    852                    evt = USER_SYNC_INPROGRESS_EVT;
    853                    g_UserStateMachine = CHECK_CMD_RESULT;
    854                  }
    855                  else
    856                  {
    857                    //                SystemConfig_Reset_User_Default(g_UserSlot);
    858                    //                g_UserStateMachine = SELECT_USER;
    859                    User_Initial_Data();
    860                    g_UserStateMachine = SELECT_USER;
    861                    UserPushStateBuffer(g_UserStateMachine);
    862                    evt = USER_CHANGE_EVT;
    863                  }
    864          #else
    865                  //            SystemConfig_Reset_User_Default(g_UserSlot);
    866                  User_Initial_Data();
   \   00000446   0x.... 0x....      BL       User_Initial_Data
    867                  g_UserStateMachine = SELECT_USER;
   \   0000044A   0x2001             MOVS     R0,#+1
   \   0000044C   0x.... 0x....      LDR.W    R1,??DataTable17
   \   00000450   0x7008             STRB     R0,[R1, #+0]
    868                  UserPushStateBuffer(g_UserStateMachine);	
   \   00000452   0x.... 0x....      LDR.W    R0,??DataTable17
   \   00000456   0x7800             LDRB     R0,[R0, #+0]
   \   00000458   0x.... 0x....      BL       UserPushStateBuffer
    869                  evt = USER_CHANGE_EVT;
   \   0000045C   0x2001             MOVS     R0,#+1
   \   0000045E   0x0004             MOVS     R4,R0
   \   00000460   0xE00A             B.N      ??User_Process_36
    870          #endif
    871                }
    872                else if(User_event.fields.key_back == 1)
   \                     ??User_Process_39: (+1)
   \   00000462   0x.... 0x....      LDR.W    R0,??DataTable17_1
   \   00000466   0x8800             LDRH     R0,[R0, #+0]
   \   00000468   0xF3C0 0x2040      UBFX     R0,R0,#+9,#+1
   \   0000046C   0xB280             UXTH     R0,R0            ;; ZeroExt  R0,R0,#+16,#+16
   \   0000046E   0x2800             CMP      R0,#+0
   \   00000470   0xD002             BEQ.N    ??User_Process_36
    873                {
    874                  evt = UserPopStateBuffer();
   \   00000472   0x.... 0x....      BL       UserPopStateBuffer
   \   00000476   0x0004             MOVS     R4,R0
    875                }
    876                break;
   \                     ??User_Process_36: (+1)
   \   00000478   0xE1E5             B.N      ??User_Process_13
    877              case EDIT_USER_WEIGHT:
    878                if(User_event.fields.key_up == 1)
   \                     ??User_Process_3: (+1)
   \   0000047A   0x.... 0x....      LDR.W    R0,??DataTable17_1
   \   0000047E   0x7800             LDRB     R0,[R0, #+0]
   \   00000480   0xF010 0x0001      ANDS     R0,R0,#0x1
   \   00000484   0x2800             CMP      R0,#+0
   \   00000486   0xD036             BEQ.N    ??User_Process_40
    879                {
    880                  g_KeyTemp = 0;
   \   00000488   0x2000             MOVS     R0,#+0
   \   0000048A   0x.... 0x....      LDR.W    R1,??DataTable17_6
   \   0000048E   0x8008             STRH     R0,[R1, #+0]
    881                  g_QuickValueExceed  =0;
   \   00000490   0x2000             MOVS     R0,#+0
   \   00000492   0x.... 0x....      LDR.W    R1,??DataTable17_10
   \   00000496   0x7008             STRB     R0,[R1, #+0]
    882                  if(SystemConfig_Get_Display_Unit(User_Get_UserSlot()) == STANDARD)
   \   00000498   0x.... 0x....      BL       User_Get_UserSlot
   \   0000049C   0xB2C0             UXTB     R0,R0            ;; ZeroExt  R0,R0,#+24,#+24
   \   0000049E   0x.... 0x....      BL       SystemConfig_Get_Display_Unit
   \   000004A2   0x2800             CMP      R0,#+0
   \   000004A4   0xD112             BNE.N    ??User_Process_41
    883                  {
    884                    if(g_UserWeightSTDX100 < SystemConfig_Get_Int(MAX_WEIGHT_STANDARD_UINT16) * 100)
   \   000004A6   0x202C             MOVS     R0,#+44
   \   000004A8   0x.... 0x....      BL       SystemConfig_Get_Int
   \   000004AC   0x.... 0x....      LDR.W    R1,??DataTable17_7
   \   000004B0   0x8809             LDRH     R1,[R1, #+0]
   \   000004B2   0xB280             UXTH     R0,R0            ;; ZeroExt  R0,R0,#+16,#+16
   \   000004B4   0x2264             MOVS     R2,#+100
   \   000004B6   0x4350             MULS     R0,R2,R0
   \   000004B8   0x4281             CMP      R1,R0
   \   000004BA   0xDA19             BGE.N    ??User_Process_42
    885                      g_UserWeightSTDX100 += 100;
   \   000004BC   0x.... 0x....      LDR.W    R0,??DataTable17_7
   \   000004C0   0x8800             LDRH     R0,[R0, #+0]
   \   000004C2   0x3064             ADDS     R0,R0,#+100
   \   000004C4   0x.... 0x....      LDR.W    R1,??DataTable17_7
   \   000004C8   0x8008             STRH     R0,[R1, #+0]
   \   000004CA   0xE011             B.N      ??User_Process_42
    886                  }
    887                  else
    888                  {
    889                    if(g_UserWeightSTDX100 < SystemConfig_Get_Int(MAX_WEIGHT_STANDARD_UINT16) * 100)
   \                     ??User_Process_41: (+1)
   \   000004CC   0x202C             MOVS     R0,#+44
   \   000004CE   0x.... 0x....      BL       SystemConfig_Get_Int
   \   000004D2   0x.... 0x....      LDR.W    R1,??DataTable17_7
   \   000004D6   0x8809             LDRH     R1,[R1, #+0]
   \   000004D8   0xB280             UXTH     R0,R0            ;; ZeroExt  R0,R0,#+16,#+16
   \   000004DA   0x2264             MOVS     R2,#+100
   \   000004DC   0x4350             MULS     R0,R2,R0
   \   000004DE   0x4281             CMP      R1,R0
   \   000004E0   0xDA06             BGE.N    ??User_Process_42
    890                      g_UserWeightSTDX100 +=  220;
   \   000004E2   0x.... 0x....      LDR.W    R0,??DataTable17_7
   \   000004E6   0x8800             LDRH     R0,[R0, #+0]
   \   000004E8   0x30DC             ADDS     R0,R0,#+220
   \   000004EA   0x.... 0x....      LDR.W    R1,??DataTable17_7
   \   000004EE   0x8008             STRH     R0,[R1, #+0]
    891                  }
    892                  evt = USER_WEIGHT_CHANGE_EVT;
   \                     ??User_Process_42: (+1)
   \   000004F0   0x2004             MOVS     R0,#+4
   \   000004F2   0x0004             MOVS     R4,R0
   \   000004F4   0xE097             B.N      ??User_Process_43
    893                }
    894                else if(User_event.fields.key_dn == 1)
   \                     ??User_Process_40: (+1)
   \   000004F6   0x.... 0x....      LDR.W    R0,??DataTable17_1
   \   000004FA   0x8800             LDRH     R0,[R0, #+0]
   \   000004FC   0xF3C0 0x0040      UBFX     R0,R0,#+1,#+1
   \   00000500   0xB280             UXTH     R0,R0            ;; ZeroExt  R0,R0,#+16,#+16
   \   00000502   0x2800             CMP      R0,#+0
   \   00000504   0xD048             BEQ.N    ??User_Process_44
    895                {
    896                  g_KeyTemp = 0;
   \   00000506   0x2000             MOVS     R0,#+0
   \   00000508   0x.... 0x....      LDR.W    R1,??DataTable17_6
   \   0000050C   0x8008             STRH     R0,[R1, #+0]
    897                  g_QuickValueExceed  =0;			
   \   0000050E   0x2000             MOVS     R0,#+0
   \   00000510   0x.... 0x....      LDR.W    R1,??DataTable17_10
   \   00000514   0x7008             STRB     R0,[R1, #+0]
    898                  if(SystemConfig_Get_Display_Unit(User_Get_UserSlot()) == STANDARD)
   \   00000516   0x.... 0x....      BL       User_Get_UserSlot
   \   0000051A   0xB2C0             UXTB     R0,R0            ;; ZeroExt  R0,R0,#+24,#+24
   \   0000051C   0x.... 0x....      BL       SystemConfig_Get_Display_Unit
   \   00000520   0x2800             CMP      R0,#+0
   \   00000522   0xD11B             BNE.N    ??User_Process_45
    899                  {
    900                    if(g_UserWeightSTDX100 > SystemConfig_Get_Int(MIN_WEIGHT_STANDARD_UINT16) * 100)
   \   00000524   0x202D             MOVS     R0,#+45
   \   00000526   0x.... 0x....      BL       SystemConfig_Get_Int
   \   0000052A   0xB280             UXTH     R0,R0            ;; ZeroExt  R0,R0,#+16,#+16
   \   0000052C   0x2164             MOVS     R1,#+100
   \   0000052E   0x4348             MULS     R0,R1,R0
   \   00000530   0x.... 0x....      LDR.W    R1,??DataTable17_7
   \   00000534   0x8809             LDRH     R1,[R1, #+0]
   \   00000536   0x4288             CMP      R0,R1
   \   00000538   0xDA07             BGE.N    ??User_Process_46
    901                      g_UserWeightSTDX100 -= 100;
   \   0000053A   0x.... 0x....      LDR.W    R0,??DataTable17_7
   \   0000053E   0x8800             LDRH     R0,[R0, #+0]
   \   00000540   0x3864             SUBS     R0,R0,#+100
   \   00000542   0x.... 0x....      LDR.W    R1,??DataTable17_7
   \   00000546   0x8008             STRH     R0,[R1, #+0]
   \   00000548   0xE023             B.N      ??User_Process_47
    902                    else
    903                      g_UserWeightSTDX100 = SystemConfig_Get_Int(MIN_WEIGHT_STANDARD_UINT16)*100;
   \                     ??User_Process_46: (+1)
   \   0000054A   0x202D             MOVS     R0,#+45
   \   0000054C   0x.... 0x....      BL       SystemConfig_Get_Int
   \   00000550   0x2164             MOVS     R1,#+100
   \   00000552   0x4348             MULS     R0,R1,R0
   \   00000554   0x.... 0x....      LDR.W    R1,??DataTable17_7
   \   00000558   0x8008             STRH     R0,[R1, #+0]
   \   0000055A   0xE01A             B.N      ??User_Process_47
    904                  }
    905                  else
    906                  {
    907                    //                UINT32 minweight = (UINT32)SystemConfig_Get_Int(MIN_WEIGHT_METRIC_UINT16);
    908                    //                if(g_UserWeightSTDX100 > minweight *474 /215*100 )
    909                    if(g_UserWeightSTDX100 > SystemConfig_Get_Int(MIN_WEIGHT_STANDARD_UINT16) * 100)
   \                     ??User_Process_45: (+1)
   \   0000055C   0x202D             MOVS     R0,#+45
   \   0000055E   0x.... 0x....      BL       SystemConfig_Get_Int
   \   00000562   0xB280             UXTH     R0,R0            ;; ZeroExt  R0,R0,#+16,#+16
   \   00000564   0x2164             MOVS     R1,#+100
   \   00000566   0x4348             MULS     R0,R1,R0
   \   00000568   0x.... 0x....      LDR.W    R1,??DataTable17_7
   \   0000056C   0x8809             LDRH     R1,[R1, #+0]
   \   0000056E   0x4288             CMP      R0,R1
   \   00000570   0xDA07             BGE.N    ??User_Process_48
    910                      g_UserWeightSTDX100 -=  220;
   \   00000572   0x.... 0x....      LDR.W    R0,??DataTable17_7
   \   00000576   0x8800             LDRH     R0,[R0, #+0]
   \   00000578   0x38DC             SUBS     R0,R0,#+220
   \   0000057A   0x.... 0x....      LDR.W    R1,??DataTable17_7
   \   0000057E   0x8008             STRH     R0,[R1, #+0]
   \   00000580   0xE007             B.N      ??User_Process_47
    911                    else
    912                      g_UserWeightSTDX100 = SystemConfig_Get_Int(MIN_WEIGHT_STANDARD_UINT16)*100;
   \                     ??User_Process_48: (+1)
   \   00000582   0x202D             MOVS     R0,#+45
   \   00000584   0x.... 0x....      BL       SystemConfig_Get_Int
   \   00000588   0x2164             MOVS     R1,#+100
   \   0000058A   0x4348             MULS     R0,R1,R0
   \   0000058C   0x.... 0x....      LDR.W    R1,??DataTable17_7
   \   00000590   0x8008             STRH     R0,[R1, #+0]
    913                  }
    914                  
    915                  evt = USER_WEIGHT_CHANGE_EVT;
   \                     ??User_Process_47: (+1)
   \   00000592   0x2004             MOVS     R0,#+4
   \   00000594   0x0004             MOVS     R4,R0
   \   00000596   0xE046             B.N      ??User_Process_43
    916                  
    917                }
    918                else if(User_event.fields.key_num == 1)
   \                     ??User_Process_44: (+1)
   \   00000598   0x....             LDR.N    R0,??DataTable17_1
   \   0000059A   0x8800             LDRH     R0,[R0, #+0]
   \   0000059C   0xF3C0 0x1080      UBFX     R0,R0,#+6,#+1
   \   000005A0   0xB280             UXTH     R0,R0            ;; ZeroExt  R0,R0,#+16,#+16
   \   000005A2   0x2800             CMP      R0,#+0
   \   000005A4   0xD002             BEQ.N    ??User_Process_49
    919                {
    920                  evt = USER_WEIGHT_CHANGE_EVT;
   \   000005A6   0x2004             MOVS     R0,#+4
   \   000005A8   0x0004             MOVS     R4,R0
   \   000005AA   0xE03C             B.N      ??User_Process_43
    921                }
    922                else if(User_event.fields.key_enter == 1)
   \                     ??User_Process_49: (+1)
   \   000005AC   0x....             LDR.N    R0,??DataTable17_1
   \   000005AE   0x8800             LDRH     R0,[R0, #+0]
   \   000005B0   0xF3C0 0x00C0      UBFX     R0,R0,#+3,#+1
   \   000005B4   0xB280             UXTH     R0,R0            ;; ZeroExt  R0,R0,#+16,#+16
   \   000005B6   0x2800             CMP      R0,#+0
   \   000005B8   0xD011             BEQ.N    ??User_Process_50
    923                {
    924                  g_KeyTemp = 0;
   \   000005BA   0x2000             MOVS     R0,#+0
   \   000005BC   0x....             LDR.N    R1,??DataTable17_6
   \   000005BE   0x8008             STRH     R0,[R1, #+0]
    925                  g_QuickValueExceed = 0;			
   \   000005C0   0x2000             MOVS     R0,#+0
   \   000005C2   0x....             LDR.N    R1,??DataTable17_10
   \   000005C4   0x7008             STRB     R0,[R1, #+0]
    926                  UserSaveData();
   \   000005C6   0x.... 0x....      BL       UserSaveData
    927                  g_UserStateMachine = USER_SETUP_COMPLETE;
   \   000005CA   0x2007             MOVS     R0,#+7
   \   000005CC   0x....             LDR.N    R1,??DataTable17
   \   000005CE   0x7008             STRB     R0,[R1, #+0]
    928                  UserPushStateBuffer(g_UserStateMachine);
   \   000005D0   0x....             LDR.N    R0,??DataTable17
   \   000005D2   0x7800             LDRB     R0,[R0, #+0]
   \   000005D4   0x.... 0x....      BL       UserPushStateBuffer
    929                  evt = USER_SETTING_COMPLETE;
   \   000005D8   0x2007             MOVS     R0,#+7
   \   000005DA   0x0004             MOVS     R4,R0
   \   000005DC   0xE023             B.N      ??User_Process_43
    930                }
    931                else if(User_event.fields.key_save == 1)
   \                     ??User_Process_50: (+1)
   \   000005DE   0x....             LDR.N    R0,??DataTable17_1
   \   000005E0   0x8800             LDRH     R0,[R0, #+0]
   \   000005E2   0xF3C0 0x1000      UBFX     R0,R0,#+4,#+1
   \   000005E6   0xB280             UXTH     R0,R0            ;; ZeroExt  R0,R0,#+16,#+16
   \   000005E8   0x2800             CMP      R0,#+0
   \   000005EA   0xD005             BEQ.N    ??User_Process_51
    932                {
    933                  User_Get_QuickeyValue(0);
   \   000005EC   0x2000             MOVS     R0,#+0
   \   000005EE   0x.... 0x....      BL       User_Get_QuickeyValue
    934                  UserSaveData();
   \   000005F2   0x.... 0x....      BL       UserSaveData
   \   000005F6   0xE016             B.N      ??User_Process_43
    935                }
    936                else if(User_event.fields.key_back == 1)
   \                     ??User_Process_51: (+1)
   \   000005F8   0x....             LDR.N    R0,??DataTable17_1
   \   000005FA   0x8800             LDRH     R0,[R0, #+0]
   \   000005FC   0xF3C0 0x2040      UBFX     R0,R0,#+9,#+1
   \   00000600   0xB280             UXTH     R0,R0            ;; ZeroExt  R0,R0,#+16,#+16
   \   00000602   0x2800             CMP      R0,#+0
   \   00000604   0xD00F             BEQ.N    ??User_Process_43
    937                {
    938                  if(g_KeyTemp != 0)
   \   00000606   0x....             LDR.N    R0,??DataTable17_6
   \   00000608   0x8800             LDRH     R0,[R0, #+0]
   \   0000060A   0x2800             CMP      R0,#+0
   \   0000060C   0xD008             BEQ.N    ??User_Process_52
    939                  {
    940                    g_KeyTemp = 0;
   \   0000060E   0x2000             MOVS     R0,#+0
   \   00000610   0x....             LDR.N    R1,??DataTable17_6
   \   00000612   0x8008             STRH     R0,[R1, #+0]
    941                    //	            g_InputIndex = 0;
    942                    g_QuickValueExceed = 0;
   \   00000614   0x2000             MOVS     R0,#+0
   \   00000616   0x....             LDR.N    R1,??DataTable17_10
   \   00000618   0x7008             STRB     R0,[R1, #+0]
    943                    evt = USER_WEIGHT_CHANGE_EVT;
   \   0000061A   0x2004             MOVS     R0,#+4
   \   0000061C   0x0004             MOVS     R4,R0
   \   0000061E   0xE002             B.N      ??User_Process_43
    944                  }
    945                  else
    946                  {
    947                    evt = UserPopStateBuffer();
   \                     ??User_Process_52: (+1)
   \   00000620   0x.... 0x....      BL       UserPopStateBuffer
   \   00000624   0x0004             MOVS     R4,R0
    948                    
    949                  }
    950                }
    951                break;
   \                     ??User_Process_43: (+1)
   \   00000626   0xE10E             B.N      ??User_Process_13
    952              case EDIT_USER_AGE:
    953                if(User_event.fields.key_up == 1)
   \                     ??User_Process_6: (+1)
   \   00000628   0x....             LDR.N    R0,??DataTable17_1
   \   0000062A   0x7800             LDRB     R0,[R0, #+0]
   \   0000062C   0xF010 0x0001      ANDS     R0,R0,#0x1
   \   00000630   0x2800             CMP      R0,#+0
   \   00000632   0xD011             BEQ.N    ??User_Process_53
    954                {
    955                  g_KeyTemp = 0;
   \   00000634   0x2000             MOVS     R0,#+0
   \   00000636   0x....             LDR.N    R1,??DataTable17_6
   \   00000638   0x8008             STRH     R0,[R1, #+0]
    956                  g_QuickValueExceed = 0;						
   \   0000063A   0x2000             MOVS     R0,#+0
   \   0000063C   0x....             LDR.N    R1,??DataTable17_10
   \   0000063E   0x7008             STRB     R0,[R1, #+0]
    957                  //            g_InputIndex = 0;
    958                  if(g_UserAge < 130)
   \   00000640   0x....             LDR.N    R0,??DataTable17_11
   \   00000642   0x7800             LDRB     R0,[R0, #+0]
   \   00000644   0x2882             CMP      R0,#+130
   \   00000646   0xDA04             BGE.N    ??User_Process_54
    959                    g_UserAge++;
   \   00000648   0x....             LDR.N    R0,??DataTable17_11
   \   0000064A   0x7800             LDRB     R0,[R0, #+0]
   \   0000064C   0x1C40             ADDS     R0,R0,#+1
   \   0000064E   0x....             LDR.N    R1,??DataTable17_11
   \   00000650   0x7008             STRB     R0,[R1, #+0]
    960                  evt = USER_AGE_CHANGE_EVT;
   \                     ??User_Process_54: (+1)
   \   00000652   0x2005             MOVS     R0,#+5
   \   00000654   0x0004             MOVS     R4,R0
   \   00000656   0xE08C             B.N      ??User_Process_55
    961                  
    962                }
    963                else if(User_event.fields.key_dn == 1)
   \                     ??User_Process_53: (+1)
   \   00000658   0x....             LDR.N    R0,??DataTable17_1
   \   0000065A   0x8800             LDRH     R0,[R0, #+0]
   \   0000065C   0xF3C0 0x0040      UBFX     R0,R0,#+1,#+1
   \   00000660   0xB280             UXTH     R0,R0            ;; ZeroExt  R0,R0,#+16,#+16
   \   00000662   0x2800             CMP      R0,#+0
   \   00000664   0xD011             BEQ.N    ??User_Process_56
    964                {
    965                  g_KeyTemp = 0;
   \   00000666   0x2000             MOVS     R0,#+0
   \   00000668   0x....             LDR.N    R1,??DataTable17_6
   \   0000066A   0x8008             STRH     R0,[R1, #+0]
    966                  g_QuickValueExceed = 0;						
   \   0000066C   0x2000             MOVS     R0,#+0
   \   0000066E   0x....             LDR.N    R1,??DataTable17_10
   \   00000670   0x7008             STRB     R0,[R1, #+0]
    967                  //            g_InputIndex = 0;
    968                  if(g_UserAge > 13)
   \   00000672   0x....             LDR.N    R0,??DataTable17_11
   \   00000674   0x7800             LDRB     R0,[R0, #+0]
   \   00000676   0x280E             CMP      R0,#+14
   \   00000678   0xDB04             BLT.N    ??User_Process_57
    969                    g_UserAge--;
   \   0000067A   0x....             LDR.N    R0,??DataTable17_11
   \   0000067C   0x7800             LDRB     R0,[R0, #+0]
   \   0000067E   0x1E40             SUBS     R0,R0,#+1
   \   00000680   0x....             LDR.N    R1,??DataTable17_11
   \   00000682   0x7008             STRB     R0,[R1, #+0]
    970                  evt = USER_AGE_CHANGE_EVT;
   \                     ??User_Process_57: (+1)
   \   00000684   0x2005             MOVS     R0,#+5
   \   00000686   0x0004             MOVS     R4,R0
   \   00000688   0xE073             B.N      ??User_Process_55
    971                  
    972                }
    973                else if(User_event.fields.key_num == 1)
   \                     ??User_Process_56: (+1)
   \   0000068A   0x....             LDR.N    R0,??DataTable17_1
   \   0000068C   0x8800             LDRH     R0,[R0, #+0]
   \   0000068E   0xF3C0 0x1080      UBFX     R0,R0,#+6,#+1
   \   00000692   0xB280             UXTH     R0,R0            ;; ZeroExt  R0,R0,#+16,#+16
   \   00000694   0x2800             CMP      R0,#+0
   \   00000696   0xD002             BEQ.N    ??User_Process_58
    974                {
    975                  evt = USER_AGE_CHANGE_EVT;
   \   00000698   0x2005             MOVS     R0,#+5
   \   0000069A   0x0004             MOVS     R4,R0
   \   0000069C   0xE069             B.N      ??User_Process_55
    976                }
    977                else if(User_event.fields.key_enter == 1)
   \                     ??User_Process_58: (+1)
   \   0000069E   0x....             LDR.N    R0,??DataTable17_1
   \   000006A0   0x8800             LDRH     R0,[R0, #+0]
   \   000006A2   0xF3C0 0x00C0      UBFX     R0,R0,#+3,#+1
   \   000006A6   0xB280             UXTH     R0,R0            ;; ZeroExt  R0,R0,#+16,#+16
   \   000006A8   0x2800             CMP      R0,#+0
   \   000006AA   0xD03E             BEQ.N    ??User_Process_59
    978                {
    979                  User_Get_QuickeyValue(1);
   \   000006AC   0x2001             MOVS     R0,#+1
   \   000006AE   0x.... 0x....      BL       User_Get_QuickeyValue
    980                  
    981                  if(g_QuickValueExceed==0)
   \   000006B2   0x....             LDR.N    R0,??DataTable17_10
   \   000006B4   0x7800             LDRB     R0,[R0, #+0]
   \   000006B6   0x2800             CMP      R0,#+0
   \   000006B8   0xD12E             BNE.N    ??User_Process_60
    982                  {
    983                    USERS_INFO userinfo = SystemConfig_Get_UserInfo(g_UserSlot);
   \   000006BA   0x....             LDR.N    R0,??DataTable17_5
   \   000006BC   0x7801             LDRB     R1,[R0, #+0]
   \   000006BE   0xA8A5             ADD      R0,SP,#+660
   \   000006C0   0x.... 0x....      BL       SystemConfig_Get_UserInfo
    984                    userinfo.weightStandardX100 = g_UserWeightSTDX100;
   \   000006C4   0x....             LDR.N    R0,??DataTable17_7
   \   000006C6   0x8800             LDRH     R0,[R0, #+0]
   \   000006C8   0xF8AD 0x02A8      STRH     R0,[SP, #+680]
    985                    userinfo.age = g_UserAge;
   \   000006CC   0x....             LDR.N    R0,??DataTable17_11
   \   000006CE   0x7800             LDRB     R0,[R0, #+0]
   \   000006D0   0xF88D 0x02AA      STRB     R0,[SP, #+682]
    986                    userinfo.gender = g_UserGender;
   \   000006D4   0x....             LDR.N    R0,??DataTable17_8
   \   000006D6   0x7800             LDRB     R0,[R0, #+0]
   \   000006D8   0xF88D 0x02AF      STRB     R0,[SP, #+687]
    987                    if((SystemConfig_Set_UserInfo(userinfo,g_UserSlot)))
   \   000006DC   0x....             LDR.N    R0,??DataTable17_5
   \   000006DE   0x7800             LDRB     R0,[R0, #+0]
   \   000006E0   0x90A4             STR      R0,[SP, #+656]
   \   000006E2   0xA9A5             ADD      R1,SP,#+660
   \   000006E4   0xB084             SUB      SP,SP,#+16
   \   000006E6   0x4668             MOV      R0,SP
   \   000006E8   0xF44F 0x7228      MOV      R2,#+672
   \   000006EC   0x.... 0x....      BL       __aeabi_memcpy4
   \   000006F0   0xBC0F             POP      {R0-R3}
   \   000006F2   0x.... 0x....      BL       SystemConfig_Set_UserInfo
   \   000006F6   0x2800             CMP      R0,#+0
   \   000006F8   0xD004             BEQ.N    ??User_Process_61
    988                    {
    989                      SystemConfigProcess(SVK_SAVE_USER2FLASH, &g_UserSlot,sizeof(g_UserSlot));
   \   000006FA   0x2201             MOVS     R2,#+1
   \   000006FC   0x....             LDR.N    R1,??DataTable17_5
   \   000006FE   0x2072             MOVS     R0,#+114
   \   00000700   0x.... 0x....      BL       SystemConfigProcess
    990                    }
    991          #ifdef __WIFI_FUNC__
    992                    if(WIFIIsOnline() == 1)
    993                    {
    994                      WifiEditUser(g_UserSlot, g_UserWeightSTDX100, g_UserAge, g_UserGender);
    995                      evt = USER_SYNC_INPROGRESS_EVT;
    996                      g_UserStateMachine = CHECK_CMD_RESULT;
    997                    }
    998                    else
    999                    {
   1000                      evt = USER_SETTING_COMPLETE;
   1001                      g_UserStateMachine = USER_SETUP_COMPLETE;
   1002                      UserPushStateBuffer(g_UserStateMachine);
   1003                    }
   1004          #else
   1005                    g_UserStateMachine = USER_SETUP_COMPLETE;
   \                     ??User_Process_61: (+1)
   \   00000704   0x2007             MOVS     R0,#+7
   \   00000706   0x....             LDR.N    R1,??DataTable17
   \   00000708   0x7008             STRB     R0,[R1, #+0]
   1006                    UserPushStateBuffer(g_UserStateMachine);
   \   0000070A   0x....             LDR.N    R0,??DataTable17
   \   0000070C   0x7800             LDRB     R0,[R0, #+0]
   \   0000070E   0x.... 0x....      BL       UserPushStateBuffer
   1007                    evt = USER_SETTING_COMPLETE;
   \   00000712   0x2007             MOVS     R0,#+7
   \   00000714   0x0004             MOVS     R4,R0
   \   00000716   0xE02C             B.N      ??User_Process_55
   1008          #endif
   1009                  }
   1010                  else
   1011                  {
   1012                    g_KeyTemp = 0;
   \                     ??User_Process_60: (+1)
   \   00000718   0x2000             MOVS     R0,#+0
   \   0000071A   0x....             LDR.N    R1,??DataTable17_6
   \   0000071C   0x8008             STRH     R0,[R1, #+0]
   1013                    //	            g_InputIndex = 0;
   1014                    g_QuickValueExceed = 0;
   \   0000071E   0x2000             MOVS     R0,#+0
   \   00000720   0x....             LDR.N    R1,??DataTable17_10
   \   00000722   0x7008             STRB     R0,[R1, #+0]
   1015                    evt = USER_AGE_CHANGE_EVT;
   \   00000724   0x2005             MOVS     R0,#+5
   \   00000726   0x0004             MOVS     R4,R0
   \   00000728   0xE023             B.N      ??User_Process_55
   1016                  }
   1017                  
   1018                }
   1019                else if(User_event.fields.key_save == 1)
   \                     ??User_Process_59: (+1)
   \   0000072A   0x....             LDR.N    R0,??DataTable17_1
   \   0000072C   0x8800             LDRH     R0,[R0, #+0]
   \   0000072E   0xF3C0 0x1000      UBFX     R0,R0,#+4,#+1
   \   00000732   0xB280             UXTH     R0,R0            ;; ZeroExt  R0,R0,#+16,#+16
   \   00000734   0x2800             CMP      R0,#+0
   \   00000736   0xD005             BEQ.N    ??User_Process_62
   1020                {
   1021                  User_Get_QuickeyValue(1);
   \   00000738   0x2001             MOVS     R0,#+1
   \   0000073A   0x.... 0x....      BL       User_Get_QuickeyValue
   1022                  UserSaveData();
   \   0000073E   0x.... 0x....      BL       UserSaveData
   \   00000742   0xE016             B.N      ??User_Process_55
   1023                }
   1024                else if(User_event.fields.key_back == 1)
   \                     ??User_Process_62: (+1)
   \   00000744   0x....             LDR.N    R0,??DataTable17_1
   \   00000746   0x8800             LDRH     R0,[R0, #+0]
   \   00000748   0xF3C0 0x2040      UBFX     R0,R0,#+9,#+1
   \   0000074C   0xB280             UXTH     R0,R0            ;; ZeroExt  R0,R0,#+16,#+16
   \   0000074E   0x2800             CMP      R0,#+0
   \   00000750   0xD00F             BEQ.N    ??User_Process_55
   1025                {
   1026                  if(g_KeyTemp != 0)
   \   00000752   0x....             LDR.N    R0,??DataTable17_6
   \   00000754   0x8800             LDRH     R0,[R0, #+0]
   \   00000756   0x2800             CMP      R0,#+0
   \   00000758   0xD008             BEQ.N    ??User_Process_63
   1027                  {
   1028                    g_KeyTemp = 0;
   \   0000075A   0x2000             MOVS     R0,#+0
   \   0000075C   0x....             LDR.N    R1,??DataTable17_6
   \   0000075E   0x8008             STRH     R0,[R1, #+0]
   1029                    //	            g_InputIndex = 0;
   1030                    g_QuickValueExceed = 0;
   \   00000760   0x2000             MOVS     R0,#+0
   \   00000762   0x....             LDR.N    R1,??DataTable17_10
   \   00000764   0x7008             STRB     R0,[R1, #+0]
   1031                    evt = USER_AGE_CHANGE_EVT;
   \   00000766   0x2005             MOVS     R0,#+5
   \   00000768   0x0004             MOVS     R4,R0
   \   0000076A   0xE002             B.N      ??User_Process_55
   1032                  }
   1033                  else
   1034                  {
   1035                    evt = UserPopStateBuffer();
   \                     ??User_Process_63: (+1)
   \   0000076C   0x.... 0x....      BL       UserPopStateBuffer
   \   00000770   0x0004             MOVS     R4,R0
   1036                    
   1037                  }			
   1038                }
   1039                break;
   \                     ??User_Process_55: (+1)
   \   00000772   0xE068             B.N      ??User_Process_13
   1040              case EDIT_USER_GENDER:
   1041                if(User_event.fields.key_up == 1 || User_event.fields.key_dn == 1)
   \                     ??User_Process_5: (+1)
   \   00000774   0x....             LDR.N    R0,??DataTable17_1
   \   00000776   0x7800             LDRB     R0,[R0, #+0]
   \   00000778   0x2103             MOVS     R1,#+3
   \   0000077A   0x4208             TST      R0,R1
   \   0000077C   0xD00D             BEQ.N    ??User_Process_64
   1042                {
   1043                  if(g_UserGender == 1) g_UserGender = 0;
   \   0000077E   0x....             LDR.N    R0,??DataTable17_8
   \   00000780   0x7800             LDRB     R0,[R0, #+0]
   \   00000782   0x2801             CMP      R0,#+1
   \   00000784   0xD103             BNE.N    ??User_Process_65
   \   00000786   0x2000             MOVS     R0,#+0
   \   00000788   0x....             LDR.N    R1,??DataTable17_8
   \   0000078A   0x7008             STRB     R0,[R1, #+0]
   \   0000078C   0xE002             B.N      ??User_Process_66
   1044                  else g_UserGender = 1;
   \                     ??User_Process_65: (+1)
   \   0000078E   0x2001             MOVS     R0,#+1
   \   00000790   0x....             LDR.N    R1,??DataTable17_8
   \   00000792   0x7008             STRB     R0,[R1, #+0]
   1045                  evt = USER_GENDER_CHANGE_EVT;
   \                     ??User_Process_66: (+1)
   \   00000794   0x2006             MOVS     R0,#+6
   \   00000796   0x0004             MOVS     R4,R0
   \   00000798   0xE049             B.N      ??User_Process_67
   1046                }
   1047                else if(User_event.fields.key_save == 1 )
   \                     ??User_Process_64: (+1)
   \   0000079A   0x....             LDR.N    R0,??DataTable17_1
   \   0000079C   0x8800             LDRH     R0,[R0, #+0]
   \   0000079E   0xF3C0 0x1000      UBFX     R0,R0,#+4,#+1
   \   000007A2   0xB280             UXTH     R0,R0            ;; ZeroExt  R0,R0,#+16,#+16
   \   000007A4   0x2800             CMP      R0,#+0
   \   000007A6   0xD002             BEQ.N    ??User_Process_68
   1048                {
   1049                  UserSaveData();
   \   000007A8   0x.... 0x....      BL       UserSaveData
   \   000007AC   0xE03F             B.N      ??User_Process_67
   1050                }
   1051                else if(User_event.fields.key_enter == 1)
   \                     ??User_Process_68: (+1)
   \   000007AE   0x....             LDR.N    R0,??DataTable17_1
   \   000007B0   0x8800             LDRH     R0,[R0, #+0]
   \   000007B2   0xF3C0 0x00C0      UBFX     R0,R0,#+3,#+1
   \   000007B6   0xB280             UXTH     R0,R0            ;; ZeroExt  R0,R0,#+16,#+16
   \   000007B8   0x2800             CMP      R0,#+0
   \   000007BA   0xD02E             BEQ.N    ??User_Process_69
   1052                {
   1053                  USERS_INFO userinfo = SystemConfig_Get_UserInfo(g_UserSlot);
   \   000007BC   0x....             LDR.N    R0,??DataTable17_5
   \   000007BE   0x7801             LDRB     R1,[R0, #+0]
   \   000007C0   0xA8A5             ADD      R0,SP,#+660
   \   000007C2   0x.... 0x....      BL       SystemConfig_Get_UserInfo
   1054                  userinfo.weightStandardX100 = g_UserWeightSTDX100;
   \   000007C6   0x....             LDR.N    R0,??DataTable17_7
   \   000007C8   0x8800             LDRH     R0,[R0, #+0]
   \   000007CA   0xF8AD 0x02A8      STRH     R0,[SP, #+680]
   1055                  userinfo.age = g_UserAge;
   \   000007CE   0x....             LDR.N    R0,??DataTable17_11
   \   000007D0   0x7800             LDRB     R0,[R0, #+0]
   \   000007D2   0xF88D 0x02AA      STRB     R0,[SP, #+682]
   1056                  userinfo.gender = g_UserGender;
   \   000007D6   0x....             LDR.N    R0,??DataTable17_8
   \   000007D8   0x7800             LDRB     R0,[R0, #+0]
   \   000007DA   0xF88D 0x02AF      STRB     R0,[SP, #+687]
   1057                  if((SystemConfig_Set_UserInfo(userinfo,g_UserSlot)))
   \   000007DE   0x....             LDR.N    R0,??DataTable17_5
   \   000007E0   0x7800             LDRB     R0,[R0, #+0]
   \   000007E2   0x90A4             STR      R0,[SP, #+656]
   \   000007E4   0xA9A5             ADD      R1,SP,#+660
   \   000007E6   0xB084             SUB      SP,SP,#+16
   \   000007E8   0x4668             MOV      R0,SP
   \   000007EA   0xF44F 0x7228      MOV      R2,#+672
   \   000007EE   0x.... 0x....      BL       __aeabi_memcpy4
   \   000007F2   0xBC0F             POP      {R0-R3}
   \   000007F4   0x.... 0x....      BL       SystemConfig_Set_UserInfo
   \   000007F8   0x2800             CMP      R0,#+0
   \   000007FA   0xD004             BEQ.N    ??User_Process_70
   1058                  {
   1059                    SystemConfigProcess(SVK_SAVE_USER2FLASH, &g_UserSlot,sizeof(g_UserSlot));
   \   000007FC   0x2201             MOVS     R2,#+1
   \   000007FE   0x....             LDR.N    R1,??DataTable17_5
   \   00000800   0x2072             MOVS     R0,#+114
   \   00000802   0x.... 0x....      BL       SystemConfigProcess
   1060                  }
   1061          #ifdef __WIFI_FUNC__
   1062                  if(WIFIIsOnline() == 1)
   1063                  {
   1064                    WifiEditUser(g_UserSlot, g_UserWeightSTDX100, g_UserAge, g_UserGender);
   1065                    evt = USER_SYNC_INPROGRESS_EVT;
   1066                    g_UserStateMachine = CHECK_CMD_RESULT;
   1067                  }
   1068                  else
   1069                  {
   1070                    evt = USER_SETTING_COMPLETE;
   1071                    g_UserStateMachine = USER_SETUP_COMPLETE;
   1072                    UserPushStateBuffer(g_UserStateMachine);
   1073                  }
   1074          #else
   1075                  g_UserStateMachine = USER_SETUP_COMPLETE;
   \                     ??User_Process_70: (+1)
   \   00000806   0x2007             MOVS     R0,#+7
   \   00000808   0x....             LDR.N    R1,??DataTable17
   \   0000080A   0x7008             STRB     R0,[R1, #+0]
   1076                  UserPushStateBuffer(g_UserStateMachine);
   \   0000080C   0x....             LDR.N    R0,??DataTable17
   \   0000080E   0x7800             LDRB     R0,[R0, #+0]
   \   00000810   0x.... 0x....      BL       UserPushStateBuffer
   1077                  evt = USER_SETTING_COMPLETE;
   \   00000814   0x2007             MOVS     R0,#+7
   \   00000816   0x0004             MOVS     R4,R0
   \   00000818   0xE009             B.N      ??User_Process_67
   1078          #endif
   1079                }
   1080                else if(User_event.fields.key_back == 1)
   \                     ??User_Process_69: (+1)
   \   0000081A   0x....             LDR.N    R0,??DataTable17_1
   \   0000081C   0x8800             LDRH     R0,[R0, #+0]
   \   0000081E   0xF3C0 0x2040      UBFX     R0,R0,#+9,#+1
   \   00000822   0xB280             UXTH     R0,R0            ;; ZeroExt  R0,R0,#+16,#+16
   \   00000824   0x2800             CMP      R0,#+0
   \   00000826   0xD002             BEQ.N    ??User_Process_67
   1081                {
   1082                  evt = UserPopStateBuffer();
   \   00000828   0x.... 0x....      BL       UserPopStateBuffer
   \   0000082C   0x0004             MOVS     R4,R0
   1083                }
   1084                break;
   \                     ??User_Process_67: (+1)
   \   0000082E   0xE00A             B.N      ??User_Process_13
   1085              case USER_SETUP_COMPLETE:
   1086                if(User_event.fields.key_back == 1)
   \                     ??User_Process_7: (+1)
   \   00000830   0x....             LDR.N    R0,??DataTable17_1
   \   00000832   0x8800             LDRH     R0,[R0, #+0]
   \   00000834   0xF3C0 0x2040      UBFX     R0,R0,#+9,#+1
   \   00000838   0xB280             UXTH     R0,R0            ;; ZeroExt  R0,R0,#+16,#+16
   \   0000083A   0x2800             CMP      R0,#+0
   \   0000083C   0xD002             BEQ.N    ??User_Process_71
   1087                {
   1088                  evt = UserPopStateBuffer();
   \   0000083E   0x.... 0x....      BL       UserPopStateBuffer
   \   00000842   0x0004             MOVS     R4,R0
   1089                }
   1090                break;
   \                     ??User_Process_71: (+1)
   \   00000844   0xE7FF             B.N      ??User_Process_13
   1091                
   1092              default:
   1093                EFM_ASSERT(0);
   1094                break;
   1095              }
   1096          	if( 1 == User_event.fields.key_reset)
   \                     ??User_Process_8: (+1)
   \                     ??User_Process_13: (+1)
   \   00000846   0x....             LDR.N    R0,??DataTable17_1
   \   00000848   0x8800             LDRH     R0,[R0, #+0]
   \   0000084A   0xF3C0 0x1040      UBFX     R0,R0,#+5,#+1
   \   0000084E   0xB280             UXTH     R0,R0            ;; ZeroExt  R0,R0,#+16,#+16
   \   00000850   0x2800             CMP      R0,#+0
   \   00000852   0xD003             BEQ.N    ??User_Process_72
   1097          	{
   1098          		User_Initial_Data();
   \   00000854   0x.... 0x....      BL       User_Initial_Data
   1099          		evt = USER_RESET_EVT;
   \   00000858   0x2016             MOVS     R0,#+22
   \   0000085A   0x0004             MOVS     R4,R0
   1100          	}
   1101              if( 1==User_event.fields.key_start_pause  )
   \                     ??User_Process_72: (+1)
   \   0000085C   0x....             LDR.N    R0,??DataTable17_1
   \   0000085E   0x8800             LDRH     R0,[R0, #+0]
   \   00000860   0xF3C0 0x2080      UBFX     R0,R0,#+10,#+1
   \   00000864   0xB280             UXTH     R0,R0            ;; ZeroExt  R0,R0,#+16,#+16
   \   00000866   0x2800             CMP      R0,#+0
   \   00000868   0xD00D             BEQ.N    ??User_Process_73
   1102              {
   1103                  if(SystemConfig_Get_Char(MACHINE_TYPE_UINT8)==TREADMILL)
   \   0000086A   0x2003             MOVS     R0,#+3
   \   0000086C   0x.... 0x....      BL       SystemConfig_Get_Char
   \   00000870   0x2800             CMP      R0,#+0
   \   00000872   0xD106             BNE.N    ??User_Process_74
   1104                  {
   1105                      if(RPM_Get_Speed()==0)//if(Data_Get_RPM(MOTOR_RPM)==0)
                                ^
Warning[Pe223]: function "RPM_Get_Speed" declared implicitly
   \   00000874   0x.... 0x....      BL       RPM_Get_Speed
   \   00000878   0x2800             CMP      R0,#+0
   \   0000087A   0xD104             BNE.N    ??User_Process_73
   1106                          evt = USER_SETUP_ABORTED_EVT;
   \   0000087C   0x2017             MOVS     R0,#+23
   \   0000087E   0x0004             MOVS     R4,R0
   \   00000880   0xE001             B.N      ??User_Process_73
   1107                  }
   1108                  else   
   1109                     evt = USER_SETUP_ABORTED_EVT;
   \                     ??User_Process_74: (+1)
   \   00000882   0x2017             MOVS     R0,#+23
   \   00000884   0x0004             MOVS     R4,R0
   1110              }
   1111              if(User_event.fields.key_wifi == 1 || User_event.fields.key_rf == 1)
   \                     ??User_Process_73: (+1)
   \   00000886   0x....             LDR.N    R0,??DataTable17_1
   \   00000888   0x8800             LDRH     R0,[R0, #+0]
   \   0000088A   0xF44F 0x71C0      MOV      R1,#+384
   \   0000088E   0x4208             TST      R0,R1
   \   00000890   0xD001             BEQ.N    ??User_Process_75
   1112          	evt = USER_SETUP_ABORTED_EVT;
   \   00000892   0x2017             MOVS     R0,#+23
   \   00000894   0x0004             MOVS     R4,R0
   1113             
   1114              User_event.event = 0;
   \                     ??User_Process_75: (+1)
   \   00000896   0x2000             MOVS     R0,#+0
   \   00000898   0x....             LDR.N    R1,??DataTable17_1
   \   0000089A   0x8008             STRH     R0,[R1, #+0]
   1115              return evt;
   \   0000089C   0x0020             MOVS     R0,R4
   \   0000089E   0xB2C0             UXTB     R0,R0            ;; ZeroExt  R0,R0,#+24,#+24
   \   000008A0   0xF50D 0x6DA7      ADD      SP,SP,#+1336
   \   000008A4   0xBD10             POP      {R4,PC}          ;; return
   1116          }

   \                                 In section .text, align 4, keep-with-next
   \                     ??DataTable16:
   \   00000000   0x........         DC32     D_USER_SLOTS

   \                                 In section .text, align 4, keep-with-next
   \                     ??DataTable16_1:
   \   00000000   0x........         DC32     g_UserSlot

   \                                 In section .text, align 4, keep-with-next
   \                     ??DataTable16_2:
   \   00000000   0x........         DC32     g_UserWeightSTDX100

   \                                 In section .text, align 4, keep-with-next
   \                     ??DataTable16_3:
   \   00000000   0x........         DC32     g_UserAge

   \                                 In section .text, align 4, keep-with-next
   \                     ??DataTable16_4:
   \   00000000   0x........         DC32     g_UserGender

   \                                 In section .text, align 4, keep-with-next
   \                     ??DataTable16_5:
   \   00000000   0x........         DC32     g_KeyTemp

   \                                 In section .text, align 4, keep-with-next
   \                     ??DataTable16_6:
   \   00000000   0x........         DC32     g_QuickValueExceed

   \                                 In section .text, align 4, keep-with-next
   \                     ??DataTable16_7:
   \   00000000   0x........         DC32     g_StateBufferIndex

   \                                 In section .text, align 4, keep-with-next
   \                     ??DataTable16_8:
   \   00000000   0x........         DC32     g_aUserStateMachineBuffer

   \                                 In section .text, align 4, keep-with-next
   \                     ??DataTable17:
   \   00000000   0x........         DC32     g_UserStateMachine

   \                                 In section .text, align 4, keep-with-next
   \                     ??DataTable17_1:
   \   00000000   0x........         DC32     User_event

   \                                 In section .text, align 4, keep-with-next
   \                     ??DataTable17_2:
   \   00000000   0x........         DC32     g_xid

   \                                 In section .text, align 4, keep-with-next
   \                     ??DataTable17_3:
   \   00000000   0x........         DC32     g_passcode

   \                                 In section .text, align 4, keep-with-next
   \                     ??DataTable17_4:
   \   00000000   0x........         DC32     nCurrentPage

   \                                 In section .text, align 4, keep-with-next
   \                     ??DataTable17_5:
   \   00000000   0x........         DC32     g_UserSlot

   \                                 In section .text, align 4, keep-with-next
   \                     ??DataTable17_6:
   \   00000000   0x........         DC32     g_KeyTemp

   \                                 In section .text, align 4, keep-with-next
   \                     ??DataTable17_7:
   \   00000000   0x........         DC32     g_UserWeightSTDX100

   \                                 In section .text, align 4, keep-with-next
   \                     ??DataTable17_8:
   \   00000000   0x........         DC32     g_UserGender

   \                                 In section .text, align 4, keep-with-next
   \                     ??DataTable17_9:
   \   00000000   0x........         DC32     D_USER_SLOTS

   \                                 In section .text, align 4, keep-with-next
   \                     ??DataTable17_10:
   \   00000000   0x........         DC32     g_QuickValueExceed

   \                                 In section .text, align 4, keep-with-next
   \                     ??DataTable17_11:
   \   00000000   0x........         DC32     g_UserAge

   Maximum stack usage in bytes:

   .cstack Function
   ------- --------
       8   UserPopStateBuffer
         8   -> UserUpdateInfo
       0   UserPushStateBuffer
    1352   UserSaveData
      1336   -> Beep_Get_OK
      1336   -> Beep_Initial_IO
      1336   -> SystemConfigProcess
      1336   -> SystemConfig_Get_UserInfo
      1336   -> SystemConfig_Set_UserInfo
      1352   -> __aeabi_memcpy4
     680   UserUpdateInfo
       680   -> SystemConfig_Get_UserInfo
       0   User_Get_Age
       0   User_Get_Gender
    1352   User_Get_Name
      1352   -> SystemConfig_Get_UserInfo
      1352   -> __aeabi_memcpy
      1352   -> strlen
       0   User_Get_Passcode
       8   User_Get_QuickeyValue
         8   -> SystemConfig_Get_Display_Unit
         8   -> SystemConfig_Get_Int
         8   -> User_Get_UserSlot
       0   User_Get_SettingFlow
       0   User_Get_StandardWeight
       0   User_Get_UserSlot
       8   User_Get_Weight
         8   -> SystemConfig_Get_Display_Unit
         8   -> User_Get_UserSlot
       0   User_Get_Xid
      24   User_Initial_Data
        24   -> Bluetooth_Get_ConnectStatus
        24   -> UserUpdateInfo
        24   -> __aeabi_memset
    1360   User_Process
      1344   -> Bluetooth_Get_ConnectStatus
      1344   -> RPM_Get_Speed
      1344   -> SystemConfigProcess
      1344   -> SystemConfig_Get_Char
      1344   -> SystemConfig_Get_Display_Unit
      1344   -> SystemConfig_Get_Int
      1344   -> SystemConfig_Get_UserInfo
      1344   -> SystemConfig_Set_UserInfo
      1344   -> UserPopStateBuffer
      1344   -> UserPushStateBuffer
      1344   -> UserSaveData
      1344   -> UserUpdateInfo
      1344   -> User_Get_QuickeyValue
      1344   -> User_Get_UserSlot
      1344   -> User_Initial_Data
      1360   -> __aeabi_memcpy4
       0   User_Set_Age
       0   User_Set_UserSlot
      16   User_Set_VirtualKey
        16   -> Bluetooth_Get_ConnectStatus
        16   -> Data_Process_Intilal_Data
        16   -> Event_Handler_SetNewState
        16   -> Page_Reset_All_ModalWnds
        16   -> Program_NextStatus
        16   -> Program_Set_VirtualKey
        16   -> User_Initial_Data


   Section sizes:

   Bytes  Function/Label
   -----  --------------
       4  ??DataTable16
       4  ??DataTable16_1
       4  ??DataTable16_2
       4  ??DataTable16_3
       4  ??DataTable16_4
       4  ??DataTable16_5
       4  ??DataTable16_6
       4  ??DataTable16_7
       4  ??DataTable16_8
       4  ??DataTable17
       4  ??DataTable17_1
       4  ??DataTable17_10
       4  ??DataTable17_11
       4  ??DataTable17_2
       4  ??DataTable17_3
       4  ??DataTable17_4
       4  ??DataTable17_5
       4  ??DataTable17_6
       4  ??DataTable17_7
       4  ??DataTable17_8
       4  ??DataTable17_9
       1  D_USER_SLOTS
     130  UserPopStateBuffer
      48  UserPushStateBuffer
     114  UserSaveData
      70  UserUpdateInfo
      26  User_Get_Age
       8  User_Get_Gender
      70  User_Get_Name
       6  User_Get_Passcode
     254  User_Get_QuickeyValue
       8  User_Get_SettingFlow
       8  User_Get_StandardWeight
       4  User_Get_UserSlot
      84  User_Get_Weight
       6  User_Get_Xid
     118  User_Initial_Data
    2214  User_Process
       8  User_Set_Age
       8  User_Set_UserSlot
     462  User_Set_VirtualKey
       4  User_event
       2  g_KeyTemp
       1  g_QuickValueExceed
       1  g_StateBufferIndex
       1  g_UserAge
       1  g_UserGender
       1  g_UserSlot
       1  g_UserStateMachine
       2  g_UserWeightSTDX100
      12  g_aUserStateMachineBuffer
       4  g_passcode
      16  g_xid

 
    46 bytes in section .noinit
     1 byte  in section .rodata
 3 730 bytes in section .text
 
 3 730 bytes of CODE  memory
     1 byte  of CONST memory
    46 bytes of DATA  memory

Errors: none
Warnings: 14
