###############################################################################
#
# IAR ANSI C/C++ Compiler V7.80.4.12462/W32 for ARM       12/Dec/2022  11:41:28
# Copyright 1999-2017 IAR Systems AB.
#
#    Cpu mode     =  thumb
#    Endian       =  little
#    Source file  =  
#        C:\Users\shaomingkun\Desktop\git\evolve5.0\2021sw\ECOM-5\Modules\Utilities_Lib\UtilitiesBeep.c
#    Command line =  
#        C:\Users\shaomingkun\Desktop\git\evolve5.0\2021sw\ECOM-5\Modules\Utilities_Lib\UtilitiesBeep.c
#        -D EFM32LG380F256 -D BSP_CORTEX_EFM32 -D DEBUG_EFM -D RF_MODULE_EXIST_
#        -lC
#        C:\Users\shaomingkun\Desktop\git\evolve5.0\2021sw\ECOM-5\Debug\List -o
#        C:\Users\shaomingkun\Desktop\git\evolve5.0\2021sw\ECOM-5\Debug\Obj
#        --no_cse --no_unroll --no_inline --no_code_motion --no_tbaa
#        --no_clustering --no_scheduling --debug --endian=little
#        --cpu=Cortex-M3 -e --fpu=None --dlib_config "C:\Program Files
#        (x86)\IAR Systems\Embedded Workbench
#        7.5\arm\INC\c\DLib_Config_Normal.h" -I
#        C:\Users\shaomingkun\Desktop\git\evolve5.0\2021sw\ECOM-5\ -I
#        C:\Users\shaomingkun\Desktop\git\evolve5.0\2021sw\ECOM-5\Local\ -I
#        C:\Users\shaomingkun\Desktop\git\evolve5.0\2021sw\ECOM-5\Modules\ -I
#        C:\Users\shaomingkun\Desktop\git\evolve5.0\2021sw\ECOM-5\Modules\Utilities_Lib\
#        -I
#        C:\Users\shaomingkun\Desktop\git\evolve5.0\2021sw\ECOM-5\Modules\HAL_Lib\
#        -I
#        C:\Users\shaomingkun\Desktop\git\evolve5.0\2021sw\ECOM-5\Modules\LCB_Lib\
#        -I
#        C:\Users\shaomingkun\Desktop\git\evolve5.0\2021sw\ECOM-5\Modules\Eng_lib\
#        -I
#        C:\Users\shaomingkun\Desktop\git\evolve5.0\2021sw\ECOM-5\..\Modules\Eng_lib\
#        -I
#        C:\Users\shaomingkun\Desktop\git\evolve5.0\2021sw\ECOM-5\Modules\SystemConfig_Lib\
#        -I
#        C:\Users\shaomingkun\Desktop\git\evolve5.0\2021sw\ECOM-5\Modules\EFM32_lib\
#        -I
#        C:\Users\shaomingkun\Desktop\git\evolve5.0\2021sw\ECOM-5\Modules\EFM32_lib\drivers\
#        -I
#        C:\Users\shaomingkun\Desktop\git\evolve5.0\2021sw\ECOM-5\Modules\Program_lib\
#        -I
#        C:\Users\shaomingkun\Desktop\git\evolve5.0\2021sw\ECOM-5\Modules\RF_lib\
#        -I
#        C:\Users\shaomingkun\Desktop\git\evolve5.0\2021sw\ECOM-5\Modules\USB_lib\
#        -I
#        C:\Users\shaomingkun\Desktop\git\evolve5.0\2021sw\ECOM-5\Modules\USB_lib\usb\src\
#        -I
#        C:\Users\shaomingkun\Desktop\git\evolve5.0\2021sw\ECOM-5\Modules\USB_lib\usb\inc\
#        -I
#        C:\Users\shaomingkun\Desktop\git\evolve5.0\2021sw\ECOM-5\Modules\WiFi_lib\
#        -I
#        C:\Users\shaomingkun\Desktop\git\evolve5.0\2021sw\ECOM-5\Modules\EFM32_lib\Include\
#        -I
#        C:\Users\shaomingkun\Desktop\git\evolve5.0\2021sw\ECOM-5\Modules\EFM32_lib\emlib\inc\
#        -I
#        C:\Users\shaomingkun\Desktop\git\evolve5.0\2021sw\ECOM-5\Modules\EFM32_lib\emlib\src\
#        -I
#        C:\Users\shaomingkun\Desktop\git\evolve5.0\2021sw\ECOM-5\Modules\EFM32_lib\drivers\fatfs\src\
#        -I
#        C:\Users\shaomingkun\Desktop\git\evolve5.0\2021sw\ECOM-5\Modules\EFM32_lib\Device\EnergyMicro\EFM32LG\Include\
#        -I
#        C:\Users\shaomingkun\Desktop\git\evolve5.0\2021sw\ECOM-5\Modules\EFM32_lib\Device\EnergyMicro\EFM32LG\Source\
#        -I
#        C:\Users\shaomingkun\Desktop\git\evolve5.0\2021sw\ECOM-5\Modules\EFM32_lib\Device\EnergyMicro\EFM32LG\Source\IAR\
#        -On
#    Locale       =  Chinese (Simplified)_China.936
#    List file    =  
#        C:\Users\shaomingkun\Desktop\git\evolve5.0\2021sw\ECOM-5\Debug\List\UtilitiesBeep.lst
#    Object file  =  
#        C:\Users\shaomingkun\Desktop\git\evolve5.0\2021sw\ECOM-5\Debug\Obj\UtilitiesBeep.o
#
###############################################################################

C:\Users\shaomingkun\Desktop\git\evolve5.0\2021sw\ECOM-5\Modules\Utilities_Lib\UtilitiesBeep.c
      1          /************************************************************************************/
      2          #include "UtilitiesBeep.h"

  EFM32_PACK_START( 1 )
                    ^
"C:\Users\shaomingkun\Desktop\git\evolve5.0\2021sw\ECOM-5\Modules\USB_lib\usb\inc\em_usb.h",318  Warning[Pe1665]: 
          concatenation with "1)" in macro "EFM32_PACK_START" does not create a
          valid token

  EFM32_PACK_START( 1 )
  ^
"C:\Users\shaomingkun\Desktop\git\evolve5.0\2021sw\ECOM-5\Modules\USB_lib\usb\inc\em_usb.h",318  Warning[Pe1665]: 
          concatenation with ")" in macro "EFM32_PACK_START" does not create a
          valid token

  EFM32_PACK_START( 1 )
                    ^
"C:\Users\shaomingkun\Desktop\git\evolve5.0\2021sw\ECOM-5\Modules\USB_lib\usb\inc\em_usb.h",347  Warning[Pe1665]: 
          concatenation with "1)" in macro "EFM32_PACK_START" does not create a
          valid token

  EFM32_PACK_START( 1 )
  ^
"C:\Users\shaomingkun\Desktop\git\evolve5.0\2021sw\ECOM-5\Modules\USB_lib\usb\inc\em_usb.h",347  Warning[Pe1665]: 
          concatenation with ")" in macro "EFM32_PACK_START" does not create a
          valid token

  EFM32_PACK_START( 1 )
                    ^
"C:\Users\shaomingkun\Desktop\git\evolve5.0\2021sw\ECOM-5\Modules\USB_lib\usb\inc\em_usb.h",371  Warning[Pe1665]: 
          concatenation with "1)" in macro "EFM32_PACK_START" does not create a
          valid token

  EFM32_PACK_START( 1 )
  ^
"C:\Users\shaomingkun\Desktop\git\evolve5.0\2021sw\ECOM-5\Modules\USB_lib\usb\inc\em_usb.h",371  Warning[Pe1665]: 
          concatenation with ")" in macro "EFM32_PACK_START" does not create a
          valid token

  EFM32_PACK_START( 1 )
                    ^
"C:\Users\shaomingkun\Desktop\git\evolve5.0\2021sw\ECOM-5\Modules\USB_lib\usb\inc\em_usb.h",400  Warning[Pe1665]: 
          concatenation with "1)" in macro "EFM32_PACK_START" does not create a
          valid token

  EFM32_PACK_START( 1 )
  ^
"C:\Users\shaomingkun\Desktop\git\evolve5.0\2021sw\ECOM-5\Modules\USB_lib\usb\inc\em_usb.h",400  Warning[Pe1665]: 
          concatenation with ")" in macro "EFM32_PACK_START" does not create a
          valid token

  EFM32_PACK_START( 1 )
                    ^
"C:\Users\shaomingkun\Desktop\git\evolve5.0\2021sw\ECOM-5\Modules\USB_lib\usb\inc\em_usb.h",441  Warning[Pe1665]: 
          concatenation with "1)" in macro "EFM32_PACK_START" does not create a
          valid token

  EFM32_PACK_START( 1 )
  ^
"C:\Users\shaomingkun\Desktop\git\evolve5.0\2021sw\ECOM-5\Modules\USB_lib\usb\inc\em_usb.h",441  Warning[Pe1665]: 
          concatenation with ")" in macro "EFM32_PACK_START" does not create a
          valid token

  EFM32_PACK_START( 1 )
                    ^
"C:\Users\shaomingkun\Desktop\git\evolve5.0\2021sw\ECOM-5\Modules\USB_lib\usb\inc\em_usb.h",455  Warning[Pe1665]: 
          concatenation with "1)" in macro "EFM32_PACK_START" does not create a
          valid token

  EFM32_PACK_START( 1 )
  ^
"C:\Users\shaomingkun\Desktop\git\evolve5.0\2021sw\ECOM-5\Modules\USB_lib\usb\inc\em_usb.h",455  Warning[Pe1665]: 
          concatenation with ")" in macro "EFM32_PACK_START" does not create a
          valid token
      3          
      4          /************************************************************************************/
      5          void Beep_1ms_ISR(void);
      6          
      7          
      8          __no_init static struct
      9          {
     10          	unsigned Beep_Active: 1;
     11          	unsigned Beep_Dir: 1;
     12          	unsigned Beep_ON: 1;

   \                                 In section .noinit, align 4
     13          } beep;
   \                     beep:
   \   00000000                      DS8 4
     14          

   \                                 In section .bss, align 1
     15          volatile static UCHAR by_Beep_Count = 0;
   \                     by_Beep_Count:
   \   00000000                      DS8 1

   \                                 In section .noinit, align 2
     16          __no_init static UINT16 w_Beep_ON,w_Beep_OFF;
   \                     w_Beep_ON:
   \   00000000                      DS8 2

   \                                 In section .noinit, align 2
   \                     w_Beep_OFF:
   \   00000000                      DS8 2

   \                                 In section .noinit, align 1
     17          __no_init static UCHAR by_Beep_Time;//volatile 
   \                     by_Beep_Time:
   \   00000000                      DS8 1

   \                                 In section .noinit, align 2
     18          __no_init static UINT16 w_Time;
   \                     w_Time:
   \   00000000                      DS8 2
     19          
     20          

   \                                 In section .text, align 2, keep-with-next
     21          void Beep_Initial_IO(void)
     22          {
   \                     Beep_Initial_IO: (+1)
   \   00000000   0xB580             PUSH     {R7,LR}
     23          	HAL_Beep_Initial_IO();
   \   00000002   0x.... 0x....      BL       HAL_Beep_Initial_IO
     24          }
   \   00000006   0xBD01             POP      {R0,PC}          ;; return
     25          
     26          
     27          /**************************************************************************//**
     28           * @brief
     29           *   初始化数据，注册中断
     30           *
     31           * @note
     32           *   此函数功能为初始化BEEP所使用的数据，以及注册所需要的中断。此中断为1ms中断。
     33           *****************************************************************************/
     34          

   \                                 In section .text, align 2, keep-with-next
     35          void Beep_Initial_Data(void)
     36          {
     37          	w_Time = 0;
   \                     Beep_Initial_Data: (+1)
   \   00000000   0x2000             MOVS     R0,#+0
   \   00000002   0x....             LDR.N    R1,??DataTable5
   \   00000004   0x8008             STRH     R0,[R1, #+0]
     38          	beep.Beep_ON=1;
   \   00000006   0x....             LDR.N    R0,??DataTable5_1
   \   00000008   0x6800             LDR      R0,[R0, #+0]
   \   0000000A   0xF050 0x0004      ORRS     R0,R0,#0x4
   \   0000000E   0x....             LDR.N    R1,??DataTable5_1
   \   00000010   0x6008             STR      R0,[R1, #+0]
     39          	beep.Beep_Active = 0;
   \   00000012   0x....             LDR.N    R0,??DataTable5_1
   \   00000014   0x6800             LDR      R0,[R0, #+0]
   \   00000016   0x0840             LSRS     R0,R0,#+1
   \   00000018   0x0040             LSLS     R0,R0,#+1
   \   0000001A   0x....             LDR.N    R1,??DataTable5_1
   \   0000001C   0x6008             STR      R0,[R1, #+0]
     40          }
   \   0000001E   0x4770             BX       LR               ;; return
     41          
     42          /**************************************************************************//**
     43           * @brief
     44           *   检测BEEP是否已响完
     45           *
     46           * @note
     47           *   此功能多用于在要刷新将要显示的内容时判断BEEP是否响完
     48           *
     49           * @return
     50           *   返回true or false.
     51           *****************************************************************************/
     52          

   \                                 In section .text, align 2, keep-with-next
     53          UCHAR Beep_Get_OK(void)
     54          {
     55          	if(beep.Beep_Active)
   \                     Beep_Get_OK: (+1)
   \   00000000   0x....             LDR.N    R0,??DataTable5_1
   \   00000002   0x7800             LDRB     R0,[R0, #+0]
   \   00000004   0x07C0             LSLS     R0,R0,#+31
   \   00000006   0xD501             BPL.N    ??Beep_Get_OK_0
     56          		return(0);
   \   00000008   0x2000             MOVS     R0,#+0
   \   0000000A   0xE000             B.N      ??Beep_Get_OK_1
     57          	else
     58          		return(1);
   \                     ??Beep_Get_OK_0: (+1)
   \   0000000C   0x2001             MOVS     R0,#+1
   \                     ??Beep_Get_OK_1: (+1)
   \   0000000E   0x4770             BX       LR               ;; return
     59          }
     60          
     61          
     62          /**************************************************************************//**
     63           * @brief
     64           *   设置BEEP几声，BEEP响持续的时间和BEEP灭持续的时间.
     65           *
     66           * @note
     67           *   此功能用于设置BEEP次数，响和灭的时间。次数为2n+1时，响的次数为n+1，灭为n。
     68           *   次数为2n数，响的次数为n，灭为n。
     69           *
     70           * @param[in] 
     71           *   输入为响的次数，响的持续时间和灭的持续时间。
     72           *****************************************************************************/
     73          

   \                                 In section .text, align 2, keep-with-next
     74          void Beep_Set_Beeps(UCHAR times, UCHAR onPeriod, UCHAR offPeriod)
     75          {
   \                     Beep_Set_Beeps: (+1)
   \   00000000   0xB410             PUSH     {R4}
     76              if(beep.Beep_Active)
   \   00000002   0x....             LDR.N    R3,??DataTable5_1
   \   00000004   0x781B             LDRB     R3,[R3, #+0]
   \   00000006   0x07DB             LSLS     R3,R3,#+31
   \   00000008   0xD505             BPL.N    ??Beep_Set_Beeps_0
     77              {
     78                  if(by_Beep_Time>times )return;
   \   0000000A   0x0003             MOVS     R3,R0
   \   0000000C   0x....             LDR.N    R4,??DataTable5_2
   \   0000000E   0x7824             LDRB     R4,[R4, #+0]
   \   00000010   0xB2DB             UXTB     R3,R3            ;; ZeroExt  R3,R3,#+24,#+24
   \   00000012   0x42A3             CMP      R3,R4
   \   00000014   0xD326             BCC.N    ??Beep_Set_Beeps_1
     79              }
     80             
     81                  if(beep.Beep_ON)
   \                     ??Beep_Set_Beeps_0: (+1)
   \   00000016   0x....             LDR.N    R3,??DataTable5_1
   \   00000018   0x681B             LDR      R3,[R3, #+0]
   \   0000001A   0xF3C3 0x0380      UBFX     R3,R3,#+2,#+1
   \   0000001E   0x2B00             CMP      R3,#+0
   \   00000020   0xD01A             BEQ.N    ??Beep_Set_Beeps_2
     82                  {
     83                      w_Beep_ON = onPeriod*50;
   \   00000022   0xB2C9             UXTB     R1,R1            ;; ZeroExt  R1,R1,#+24,#+24
   \   00000024   0x2332             MOVS     R3,#+50
   \   00000026   0xFB03 0xF301      MUL      R3,R3,R1
   \   0000002A   0x....             LDR.N    R4,??DataTable5_3
   \   0000002C   0x8023             STRH     R3,[R4, #+0]
     84                      w_Beep_OFF = offPeriod*50;
   \   0000002E   0xB2D2             UXTB     R2,R2            ;; ZeroExt  R2,R2,#+24,#+24
   \   00000030   0x2332             MOVS     R3,#+50
   \   00000032   0xFB03 0xF302      MUL      R3,R3,R2
   \   00000036   0x....             LDR.N    R4,??DataTable5_4
   \   00000038   0x8023             STRH     R3,[R4, #+0]
     85                      by_Beep_Time = times;
   \   0000003A   0x....             LDR.N    R3,??DataTable5_2
   \   0000003C   0x7018             STRB     R0,[R3, #+0]
     86                      beep.Beep_Active=1;
   \   0000003E   0x....             LDR.N    R3,??DataTable5_1
   \   00000040   0x681B             LDR      R3,[R3, #+0]
   \   00000042   0xF053 0x0301      ORRS     R3,R3,#0x1
   \   00000046   0x....             LDR.N    R4,??DataTable5_1
   \   00000048   0x6023             STR      R3,[R4, #+0]
     87                      w_Time=0;
   \   0000004A   0x2300             MOVS     R3,#+0
   \   0000004C   0x....             LDR.N    R4,??DataTable5
   \   0000004E   0x8023             STRH     R3,[R4, #+0]
     88                      by_Beep_Count=0;
   \   00000050   0x2300             MOVS     R3,#+0
   \   00000052   0x....             LDR.N    R4,??DataTable5_5
   \   00000054   0x7023             STRB     R3,[R4, #+0]
   \   00000056   0xE005             B.N      ??Beep_Set_Beeps_3
     89                  }
     90                  else
     91                  {
     92                      beep.Beep_Active=0;
   \                     ??Beep_Set_Beeps_2: (+1)
   \   00000058   0x....             LDR.N    R3,??DataTable5_1
   \   0000005A   0x681B             LDR      R3,[R3, #+0]
   \   0000005C   0x085B             LSRS     R3,R3,#+1
   \   0000005E   0x005B             LSLS     R3,R3,#+1
   \   00000060   0x....             LDR.N    R4,??DataTable5_1
   \   00000062   0x6023             STR      R3,[R4, #+0]
     93                  }
     94             
     95          }
   \                     ??Beep_Set_Beeps_3: (+1)
   \                     ??Beep_Set_Beeps_1: (+1)
   \   00000064   0xBC10             POP      {R4}
   \   00000066   0x4770             BX       LR               ;; return
     96          
     97          /**************************************************************************//**
     98           * @brief
     99           *   中断函数，中断打开后1ms执行一次。
    100           *
    101           * @note
    102           *   此函数需在初始化数据时注册，否则不执行。
    103           *
    104           *****************************************************************************/

   \                                 In section .text, align 2, keep-with-next
    105          void Beep_1ms_ISR(void)
    106          {
   \                     Beep_1ms_ISR: (+1)
   \   00000000   0xB580             PUSH     {R7,LR}
    107          	if(beep.Beep_Active)
   \   00000002   0x....             LDR.N    R0,??DataTable5_1
   \   00000004   0x7800             LDRB     R0,[R0, #+0]
   \   00000006   0x07C0             LSLS     R0,R0,#+31
   \   00000008   0xD560             BPL.N    ??Beep_1ms_ISR_0
    108          	{
    109          		if(by_Beep_Count < by_Beep_Time)
   \   0000000A   0x....             LDR.N    R0,??DataTable5_5
   \   0000000C   0x7800             LDRB     R0,[R0, #+0]
   \   0000000E   0x....             LDR.N    R1,??DataTable5_2
   \   00000010   0x7809             LDRB     R1,[R1, #+0]
   \   00000012   0x4288             CMP      R0,R1
   \   00000014   0xD247             BCS.N    ??Beep_1ms_ISR_1
    110          		{
    111          			if(by_Beep_Count & 0x01)
   \   00000016   0x....             LDR.N    R0,??DataTable5_5
   \   00000018   0x7800             LDRB     R0,[R0, #+0]
   \   0000001A   0x07C0             LSLS     R0,R0,#+31
   \   0000001C   0xD521             BPL.N    ??Beep_1ms_ISR_2
    112          			{
    113          				if(w_Time == 0)
   \   0000001E   0x....             LDR.N    R0,??DataTable5
   \   00000020   0x8800             LDRH     R0,[R0, #+0]
   \   00000022   0x2800             CMP      R0,#+0
   \   00000024   0xD108             BNE.N    ??Beep_1ms_ISR_3
    114          				{
    115          					beep.Beep_Dir=0;
   \   00000026   0x....             LDR.N    R0,??DataTable5_1
   \   00000028   0x6800             LDR      R0,[R0, #+0]
   \   0000002A   0xF030 0x0002      BICS     R0,R0,#0x2
   \   0000002E   0x....             LDR.N    R1,??DataTable5_1
   \   00000030   0x6008             STR      R0,[R1, #+0]
    116          					HAL_Beep_Set_Beep(0);  
   \   00000032   0x2000             MOVS     R0,#+0
   \   00000034   0x.... 0x....      BL       HAL_Beep_Set_Beep
    117          				}
    118          				if(w_Time >= w_Beep_OFF)
   \                     ??Beep_1ms_ISR_3: (+1)
   \   00000038   0x....             LDR.N    R0,??DataTable5
   \   0000003A   0x8800             LDRH     R0,[R0, #+0]
   \   0000003C   0x....             LDR.N    R1,??DataTable5_4
   \   0000003E   0x8809             LDRH     R1,[R1, #+0]
   \   00000040   0x4288             CMP      R0,R1
   \   00000042   0xD308             BCC.N    ??Beep_1ms_ISR_4
    119          				{
    120          					w_Time=0;
   \   00000044   0x2000             MOVS     R0,#+0
   \   00000046   0x....             LDR.N    R1,??DataTable5
   \   00000048   0x8008             STRH     R0,[R1, #+0]
    121          					++by_Beep_Count;
   \   0000004A   0x....             LDR.N    R0,??DataTable5_5
   \   0000004C   0x7800             LDRB     R0,[R0, #+0]
   \   0000004E   0x1C40             ADDS     R0,R0,#+1
   \   00000050   0x....             LDR.N    R1,??DataTable5_5
   \   00000052   0x7008             STRB     R0,[R1, #+0]
   \   00000054   0xE03D             B.N      ??Beep_1ms_ISR_5
    122          				}
    123          				else
    124          					++w_Time;
   \                     ??Beep_1ms_ISR_4: (+1)
   \   00000056   0x....             LDR.N    R0,??DataTable5
   \   00000058   0x8800             LDRH     R0,[R0, #+0]
   \   0000005A   0x1C40             ADDS     R0,R0,#+1
   \   0000005C   0x....             LDR.N    R1,??DataTable5
   \   0000005E   0x8008             STRH     R0,[R1, #+0]
   \   00000060   0xE037             B.N      ??Beep_1ms_ISR_5
    125          			}
    126          			else
    127          			{
    128          				if(w_Time == 0)
   \                     ??Beep_1ms_ISR_2: (+1)
   \   00000062   0x....             LDR.N    R0,??DataTable5
   \   00000064   0x8800             LDRH     R0,[R0, #+0]
   \   00000066   0x2800             CMP      R0,#+0
   \   00000068   0xD108             BNE.N    ??Beep_1ms_ISR_6
    129          				{
    130          					beep.Beep_Dir=1;
   \   0000006A   0x....             LDR.N    R0,??DataTable5_1
   \   0000006C   0x6800             LDR      R0,[R0, #+0]
   \   0000006E   0xF050 0x0002      ORRS     R0,R0,#0x2
   \   00000072   0x....             LDR.N    R1,??DataTable5_1
   \   00000074   0x6008             STR      R0,[R1, #+0]
    131          					HAL_Beep_Set_Beep(1);  
   \   00000076   0x2001             MOVS     R0,#+1
   \   00000078   0x.... 0x....      BL       HAL_Beep_Set_Beep
    132          				}
    133          				if(w_Time >= w_Beep_ON)
   \                     ??Beep_1ms_ISR_6: (+1)
   \   0000007C   0x....             LDR.N    R0,??DataTable5
   \   0000007E   0x8800             LDRH     R0,[R0, #+0]
   \   00000080   0x....             LDR.N    R1,??DataTable5_3
   \   00000082   0x8809             LDRH     R1,[R1, #+0]
   \   00000084   0x4288             CMP      R0,R1
   \   00000086   0xD308             BCC.N    ??Beep_1ms_ISR_7
    134          				{
    135          					w_Time=0;
   \   00000088   0x2000             MOVS     R0,#+0
   \   0000008A   0x....             LDR.N    R1,??DataTable5
   \   0000008C   0x8008             STRH     R0,[R1, #+0]
    136          					++by_Beep_Count;
   \   0000008E   0x....             LDR.N    R0,??DataTable5_5
   \   00000090   0x7800             LDRB     R0,[R0, #+0]
   \   00000092   0x1C40             ADDS     R0,R0,#+1
   \   00000094   0x....             LDR.N    R1,??DataTable5_5
   \   00000096   0x7008             STRB     R0,[R1, #+0]
   \   00000098   0xE01B             B.N      ??Beep_1ms_ISR_5
    137          				}
    138          				else ++w_Time;
   \                     ??Beep_1ms_ISR_7: (+1)
   \   0000009A   0x....             LDR.N    R0,??DataTable5
   \   0000009C   0x8800             LDRH     R0,[R0, #+0]
   \   0000009E   0x1C40             ADDS     R0,R0,#+1
   \   000000A0   0x....             LDR.N    R1,??DataTable5
   \   000000A2   0x8008             STRH     R0,[R1, #+0]
   \   000000A4   0xE015             B.N      ??Beep_1ms_ISR_5
    139          			}
    140          		}
    141          		else
    142          		{
    143          			by_Beep_Count=0;
   \                     ??Beep_1ms_ISR_1: (+1)
   \   000000A6   0x2000             MOVS     R0,#+0
   \   000000A8   0x....             LDR.N    R1,??DataTable5_5
   \   000000AA   0x7008             STRB     R0,[R1, #+0]
    144          			w_Time=0;
   \   000000AC   0x2000             MOVS     R0,#+0
   \   000000AE   0x....             LDR.N    R1,??DataTable5
   \   000000B0   0x8008             STRH     R0,[R1, #+0]
    145          			beep.Beep_Active=0;
   \   000000B2   0x....             LDR.N    R0,??DataTable5_1
   \   000000B4   0x6800             LDR      R0,[R0, #+0]
   \   000000B6   0x0840             LSRS     R0,R0,#+1
   \   000000B8   0x0040             LSLS     R0,R0,#+1
   \   000000BA   0x....             LDR.N    R1,??DataTable5_1
   \   000000BC   0x6008             STR      R0,[R1, #+0]
    146          			beep.Beep_Dir=1;
   \   000000BE   0x....             LDR.N    R0,??DataTable5_1
   \   000000C0   0x6800             LDR      R0,[R0, #+0]
   \   000000C2   0xF050 0x0002      ORRS     R0,R0,#0x2
   \   000000C6   0x....             LDR.N    R1,??DataTable5_1
   \   000000C8   0x6008             STR      R0,[R1, #+0]
   \   000000CA   0xE002             B.N      ??Beep_1ms_ISR_5
    147          		}
    148          	}
    149          	else 
    150          	{
    151          		HAL_Beep_Set_Beep(0);    
   \                     ??Beep_1ms_ISR_0: (+1)
   \   000000CC   0x2000             MOVS     R0,#+0
   \   000000CE   0x.... 0x....      BL       HAL_Beep_Set_Beep
    152          	}
    153          }
   \                     ??Beep_1ms_ISR_5: (+1)
   \   000000D2   0xBD01             POP      {R0,PC}          ;; return
    154          
    155          /**************************************************************************//**
    156           * @brief
    157           *   开关BEEP。
    158           *
    159           * @note
    160           *   此功能用于开关BEEP。 
    161           *
    162           * @param[in]
    163           *   输入true or false.
    164           *****************************************************************************/
    165          

   \                                 In section .text, align 2, keep-with-next
    166          void Beep_Set_Enable(bool isEnabled)
    167          {
    168          	if(isEnabled)
   \                     Beep_Set_Enable: (+1)
   \   00000000   0xB2C0             UXTB     R0,R0            ;; ZeroExt  R0,R0,#+24,#+24
   \   00000002   0x2800             CMP      R0,#+0
   \   00000004   0xD006             BEQ.N    ??Beep_Set_Enable_0
    169          		beep.Beep_ON=1;
   \   00000006   0x....             LDR.N    R1,??DataTable5_1
   \   00000008   0x6809             LDR      R1,[R1, #+0]
   \   0000000A   0xF051 0x0104      ORRS     R1,R1,#0x4
   \   0000000E   0x....             LDR.N    R2,??DataTable5_1
   \   00000010   0x6011             STR      R1,[R2, #+0]
   \   00000012   0xE005             B.N      ??Beep_Set_Enable_1
    170          	else
    171          		beep.Beep_ON=0;
   \                     ??Beep_Set_Enable_0: (+1)
   \   00000014   0x....             LDR.N    R1,??DataTable5_1
   \   00000016   0x6809             LDR      R1,[R1, #+0]
   \   00000018   0xF031 0x0104      BICS     R1,R1,#0x4
   \   0000001C   0x....             LDR.N    R2,??DataTable5_1
   \   0000001E   0x6011             STR      R1,[R2, #+0]
    172          }
   \                     ??Beep_Set_Enable_1: (+1)
   \   00000020   0x4770             BX       LR               ;; return
    173          
    174          /**************************************************************************//**
    175          * @brief
    176          *   注册中断，方便main统一调用
    177          *
    178          * @note
    179          *   每个模块初注册中断函数均与模块名对应，以便main统一初始化，不会遗漏
    180          *****************************************************************************/
    181          

   \                                 In section .text, align 2, keep-with-next
    182          void Beep_Regist_Functions(void)
    183          {
   \                     Beep_Regist_Functions: (+1)
   \   00000000   0xB580             PUSH     {R7,LR}
    184          	Hal_Regist_ISR(MS_ISR,BEEP_ISR_IDX,Beep_1ms_ISR);
   \   00000002   0x....             LDR.N    R2,??DataTable5_6
   \   00000004   0x2100             MOVS     R1,#+0
   \   00000006   0x2000             MOVS     R0,#+0
   \   00000008   0x.... 0x....      BL       Hal_Regist_ISR
    185          }
   \   0000000C   0xBD01             POP      {R0,PC}          ;; return

   \                                 In section .text, align 4, keep-with-next
   \                     ??DataTable5:
   \   00000000   0x........         DC32     w_Time

   \                                 In section .text, align 4, keep-with-next
   \                     ??DataTable5_1:
   \   00000000   0x........         DC32     beep

   \                                 In section .text, align 4, keep-with-next
   \                     ??DataTable5_2:
   \   00000000   0x........         DC32     by_Beep_Time

   \                                 In section .text, align 4, keep-with-next
   \                     ??DataTable5_3:
   \   00000000   0x........         DC32     w_Beep_ON

   \                                 In section .text, align 4, keep-with-next
   \                     ??DataTable5_4:
   \   00000000   0x........         DC32     w_Beep_OFF

   \                                 In section .text, align 4, keep-with-next
   \                     ??DataTable5_5:
   \   00000000   0x........         DC32     by_Beep_Count

   \                                 In section .text, align 4, keep-with-next
   \                     ??DataTable5_6:
   \   00000000   0x........         DC32     Beep_1ms_ISR

   Maximum stack usage in bytes:

   .cstack Function
   ------- --------
       8   Beep_1ms_ISR
         8   -> HAL_Beep_Set_Beep
       0   Beep_Get_OK
       0   Beep_Initial_Data
       8   Beep_Initial_IO
         8   -> HAL_Beep_Initial_IO
       8   Beep_Regist_Functions
         8   -> Hal_Regist_ISR
       4   Beep_Set_Beeps
       0   Beep_Set_Enable


   Section sizes:

   Bytes  Function/Label
   -----  --------------
       4  ??DataTable5
       4  ??DataTable5_1
       4  ??DataTable5_2
       4  ??DataTable5_3
       4  ??DataTable5_4
       4  ??DataTable5_5
       4  ??DataTable5_6
     212  Beep_1ms_ISR
      16  Beep_Get_OK
      32  Beep_Initial_Data
       8  Beep_Initial_IO
      14  Beep_Regist_Functions
     104  Beep_Set_Beeps
      34  Beep_Set_Enable
       4  beep
       1  by_Beep_Count
       1  by_Beep_Time
       2  w_Beep_OFF
       2  w_Beep_ON
       2  w_Time

 
   1 byte  in section .bss
  11 bytes in section .noinit
 448 bytes in section .text
 
 448 bytes of CODE memory
  12 bytes of DATA memory

Errors: none
Warnings: 12
