###############################################################################
#
# IAR ANSI C/C++ Compiler V7.80.4.12462/W32 for ARM       12/Dec/2022  11:41:30
# Copyright 1999-2017 IAR Systems AB.
#
#    Cpu mode     =  thumb
#    Endian       =  little
#    Source file  =  
#        C:\Users\shaomingkun\Desktop\git\evolve5.0\2021sw\ECOM-5\Modules\BlueTooth_Lib\Wlt2564_Command.c
#    Command line =  
#        C:\Users\shaomingkun\Desktop\git\evolve5.0\2021sw\ECOM-5\Modules\BlueTooth_Lib\Wlt2564_Command.c
#        -D EFM32LG380F256 -D BSP_CORTEX_EFM32 -D DEBUG_EFM_JJ -D
#        RF_MODULE_EXIST____ -lC
#        C:\Users\shaomingkun\Desktop\git\evolve5.0\2021sw\ECOM-5\Debug\List
#        -lA
#        C:\Users\shaomingkun\Desktop\git\evolve5.0\2021sw\ECOM-5\Debug\List -o
#        C:\Users\shaomingkun\Desktop\git\evolve5.0\2021sw\ECOM-5\Debug\Obj
#        --no_cse --no_unroll --no_inline --no_code_motion --no_tbaa
#        --no_clustering --no_scheduling --debug --endian=little
#        --cpu=Cortex-M3 -e --fpu=None --dlib_config "C:\Program Files
#        (x86)\IAR Systems\Embedded Workbench
#        7.5\arm\INC\c\DLib_Config_Normal.h" -I
#        C:\Users\shaomingkun\Desktop\git\evolve5.0\2021sw\ECOM-5\ -I
#        C:\Users\shaomingkun\Desktop\git\evolve5.0\2021sw\ECOM-5\Local\ -I
#        C:\Users\shaomingkun\Desktop\git\evolve5.0\2021sw\ECOM-5\Modules\ -I
#        C:\Users\shaomingkun\Desktop\git\evolve5.0\2021sw\ECOM-5\Modules\Utilities_Lib\
#        -I
#        C:\Users\shaomingkun\Desktop\git\evolve5.0\2021sw\ECOM-5\Modules\HAL_Lib\
#        -I
#        C:\Users\shaomingkun\Desktop\git\evolve5.0\2021sw\ECOM-5\Modules\LCB_Lib\
#        -I
#        C:\Users\shaomingkun\Desktop\git\evolve5.0\2021sw\ECOM-5\Modules\Eng_lib\
#        -I
#        C:\Users\shaomingkun\Desktop\git\evolve5.0\2021sw\ECOM-5\..\Modules\Eng_lib\
#        -I
#        C:\Users\shaomingkun\Desktop\git\evolve5.0\2021sw\ECOM-5\Modules\SystemConfig_Lib\
#        -I
#        C:\Users\shaomingkun\Desktop\git\evolve5.0\2021sw\ECOM-5\Modules\EFM32_lib\
#        -I
#        C:\Users\shaomingkun\Desktop\git\evolve5.0\2021sw\ECOM-5\Modules\EFM32_lib\drivers\
#        -I
#        C:\Users\shaomingkun\Desktop\git\evolve5.0\2021sw\ECOM-5\Modules\Program_lib\
#        -I
#        C:\Users\shaomingkun\Desktop\git\evolve5.0\2021sw\ECOM-5\Modules\RF_lib\
#        -I
#        C:\Users\shaomingkun\Desktop\git\evolve5.0\2021sw\ECOM-5\Modules\USB_lib\
#        -I
#        C:\Users\shaomingkun\Desktop\git\evolve5.0\2021sw\ECOM-5\Modules\USB_lib\usb\src\
#        -I
#        C:\Users\shaomingkun\Desktop\git\evolve5.0\2021sw\ECOM-5\Modules\USB_lib\usb\inc\
#        -I
#        C:\Users\shaomingkun\Desktop\git\evolve5.0\2021sw\ECOM-5\Modules\Bluetooth_lib\
#        -I
#        C:\Users\shaomingkun\Desktop\git\evolve5.0\2021sw\ECOM-5\Modules\Remote_lib\
#        -I
#        C:\Users\shaomingkun\Desktop\git\evolve5.0\2021sw\ECOM-5\Modules\EFM32_lib\Include\
#        -I
#        C:\Users\shaomingkun\Desktop\git\evolve5.0\2021sw\ECOM-5\Modules\EFM32_lib\emlib\inc\
#        -I
#        C:\Users\shaomingkun\Desktop\git\evolve5.0\2021sw\ECOM-5\Modules\EFM32_lib\emlib\src\
#        -I
#        C:\Users\shaomingkun\Desktop\git\evolve5.0\2021sw\ECOM-5\Modules\EFM32_lib\drivers\fatfs\src\
#        -I
#        C:\Users\shaomingkun\Desktop\git\evolve5.0\2021sw\ECOM-5\Modules\EFM32_lib\Device\EnergyMicro\EFM32LG\Include\
#        -I
#        C:\Users\shaomingkun\Desktop\git\evolve5.0\2021sw\ECOM-5\Modules\EFM32_lib\Device\EnergyMicro\EFM32LG\Source\
#        -I
#        C:\Users\shaomingkun\Desktop\git\evolve5.0\2021sw\ECOM-5\Modules\EFM32_lib\Device\EnergyMicro\EFM32LG\Source\IAR\
#        -I
#        C:\Users\shaomingkun\Desktop\git\evolve5.0\2021sw\ECOM-5\Modules\RTT_Lib\
#        -On
#    Locale       =  Chinese (Simplified)_China.936
#    List file    =  
#        C:\Users\shaomingkun\Desktop\git\evolve5.0\2021sw\ECOM-5\Debug\List\Wlt2564_Command.lst
#    Object file  =  
#        C:\Users\shaomingkun\Desktop\git\evolve5.0\2021sw\ECOM-5\Debug\Obj\Wlt2564_Command.o
#
###############################################################################

C:\Users\shaomingkun\Desktop\git\evolve5.0\2021sw\ECOM-5\Modules\BlueTooth_Lib\Wlt2564_Command.c
      1          #include "remote_config.h"
      2          #include "wlt2564_command.h"

  EFM32_PACK_START( 1 )
                    ^
"C:\Users\shaomingkun\Desktop\git\evolve5.0\2021sw\ECOM-5\Modules\USB_lib\usb\inc\em_usb.h",318  Warning[Pe1665]: 
          concatenation with "1)" in macro "EFM32_PACK_START" does not create a
          valid token

  EFM32_PACK_START( 1 )
  ^
"C:\Users\shaomingkun\Desktop\git\evolve5.0\2021sw\ECOM-5\Modules\USB_lib\usb\inc\em_usb.h",318  Warning[Pe1665]: 
          concatenation with ")" in macro "EFM32_PACK_START" does not create a
          valid token

  EFM32_PACK_START( 1 )
                    ^
"C:\Users\shaomingkun\Desktop\git\evolve5.0\2021sw\ECOM-5\Modules\USB_lib\usb\inc\em_usb.h",347  Warning[Pe1665]: 
          concatenation with "1)" in macro "EFM32_PACK_START" does not create a
          valid token

  EFM32_PACK_START( 1 )
  ^
"C:\Users\shaomingkun\Desktop\git\evolve5.0\2021sw\ECOM-5\Modules\USB_lib\usb\inc\em_usb.h",347  Warning[Pe1665]: 
          concatenation with ")" in macro "EFM32_PACK_START" does not create a
          valid token

  EFM32_PACK_START( 1 )
                    ^
"C:\Users\shaomingkun\Desktop\git\evolve5.0\2021sw\ECOM-5\Modules\USB_lib\usb\inc\em_usb.h",371  Warning[Pe1665]: 
          concatenation with "1)" in macro "EFM32_PACK_START" does not create a
          valid token

  EFM32_PACK_START( 1 )
  ^
"C:\Users\shaomingkun\Desktop\git\evolve5.0\2021sw\ECOM-5\Modules\USB_lib\usb\inc\em_usb.h",371  Warning[Pe1665]: 
          concatenation with ")" in macro "EFM32_PACK_START" does not create a
          valid token

  EFM32_PACK_START( 1 )
                    ^
"C:\Users\shaomingkun\Desktop\git\evolve5.0\2021sw\ECOM-5\Modules\USB_lib\usb\inc\em_usb.h",400  Warning[Pe1665]: 
          concatenation with "1)" in macro "EFM32_PACK_START" does not create a
          valid token

  EFM32_PACK_START( 1 )
  ^
"C:\Users\shaomingkun\Desktop\git\evolve5.0\2021sw\ECOM-5\Modules\USB_lib\usb\inc\em_usb.h",400  Warning[Pe1665]: 
          concatenation with ")" in macro "EFM32_PACK_START" does not create a
          valid token

  EFM32_PACK_START( 1 )
                    ^
"C:\Users\shaomingkun\Desktop\git\evolve5.0\2021sw\ECOM-5\Modules\USB_lib\usb\inc\em_usb.h",441  Warning[Pe1665]: 
          concatenation with "1)" in macro "EFM32_PACK_START" does not create a
          valid token

  EFM32_PACK_START( 1 )
  ^
"C:\Users\shaomingkun\Desktop\git\evolve5.0\2021sw\ECOM-5\Modules\USB_lib\usb\inc\em_usb.h",441  Warning[Pe1665]: 
          concatenation with ")" in macro "EFM32_PACK_START" does not create a
          valid token

  EFM32_PACK_START( 1 )
                    ^
"C:\Users\shaomingkun\Desktop\git\evolve5.0\2021sw\ECOM-5\Modules\USB_lib\usb\inc\em_usb.h",455  Warning[Pe1665]: 
          concatenation with "1)" in macro "EFM32_PACK_START" does not create a
          valid token

  EFM32_PACK_START( 1 )
  ^
"C:\Users\shaomingkun\Desktop\git\evolve5.0\2021sw\ECOM-5\Modules\USB_lib\usb\inc\em_usb.h",455  Warning[Pe1665]: 
          concatenation with ")" in macro "EFM32_PACK_START" does not create a
          valid token
      3          #include "Remote_datatype.h"
      4          #include "Remote_port.h"
      5          #include "remote_general.h"
      6          #include "HAL_Lib.h"
      7          //#include "LedMatrix.h"
      8          #include "ftms.h" // v1.25-7
      9          #include "string.h" // v1.25-7
     10          //#ifdef __BLUETOOTH_FUNC__
     11          #include "SEGGER_RTT_Conf.h"
     12          #include "SEGGER_RTT.h"
     13          #define MAX_WLT_BUFFER 1024
     14          #define BLE_DEVADDRESS_LENGTH 14
     15          
     16          void WltReciveInterrupt(void);
     17          void WltSendInterrupt(void);
     18          void WltReceiveInterruptFuncation(UINT8 ch);
     19          extern unsigned char BleName[18];
     20          extern unsigned char AmpName[19]; 
     21           extern __no_init  bool ble_close_flag;

   \                                 In section .bss, align 4
     22          unsigned char BT_UpdateInfo[5];    //zsf
   \                     BT_UpdateInfo:
   \   00000000                      DS8 8
     23          
     24          
     25           extern void ERP_Clear_time(void);
     26          typedef struct{
     27              UINT16 total;
     28              UINT16 total_half;
     29              UINT16 processIndex;
     30              unsigned char DeviceAddress[BLE_DEVADDRESS_LENGTH];
     31              unsigned char buf[MAX_WLT_BUFFER];
     32          }BluetoothData;
     33          typedef struct{
     34          UINT8 HeartData;
     35              UINT8 Mode:1;
     36              UINT8 AppConnected:1;
     37              UINT8 Scanning:1;
     38              UINT8 ReceiveSacnOk:1;
     39              UINT8 HeartOk:1;
     40              UINT8 AmpConnected:1;
     41              UINT8 SetBleNameFlag:1;
     42              UINT8 InitialCmdStatu:4;
     43              UINT8 BtBeatConnect:1;
     44          	UINT8 UpdateCmdStatu:3;  //zsf
     45            	UINT8 uartUpdateCmdFlag:4;  //zsf
     46          }WLT25xxStatus;

   \                                 In section .noinit, align 2
     47          __no_init static UINT16 gWaitFlag,gWaitFlag_step2,gWaitFlag_step3;
   \                     gWaitFlag:
   \   00000000                      DS8 2

   \                                 In section .noinit, align 2
   \                     gWaitFlag_step2:
   \   00000000                      DS8 2

   \                                 In section .noinit, align 2
   \                     gWaitFlag_step3:
   \   00000000                      DS8 2

   \                                 In section .noinit, align 1
     48          __no_init UCHAR gSendReady;
   \                     gSendReady:
   \   00000000                      DS8 1

   \                                 In section .bss, align 1
     49          UINT8 gWaitOkTimeOut;
   \                     gWaitOkTimeOut:
   \   00000000                      DS8 1

   \                                 In section .bss, align 4
     50          __no_init UINT8 BT_MacAddress[12] = {0};
                                 ^
Warning[Pa034]: an initialized variable can not have the __no_init attribute
   \                     BT_MacAddress:
   \   00000000                      DS8 12

   \                                 In section .bss, align 4
     51          __no_init UINT8 BT_Version[13] = {0};
                                 ^
Warning[Pa034]: an initialized variable can not have the __no_init attribute
   \                     BT_Version:
   \   00000000                      DS8 16

   \                                 In section .bss, align 1
     52          static bool BTConnectInstant = 0;// v1.20-10
   \                     BTConnectInstant:
   \   00000000                      DS8 1

   \                                 In section .bss, align 1
     53          UINT8 SendStepFlag=0;
   \                     SendStepFlag:
   \   00000000                      DS8 1

   \                                 In section .noinit, align 4
     54          __no_init static WLT25xxStatus wlt25xxStatus;
   \                     wlt25xxStatus:
   \   00000000                      DS8 4

   \                                 In section .bss, align 4
     55          static BluetoothData gSend;
   \                     gSend:
   \   00000000                      DS8 1044

   \                                 In section .bss, align 4
     56          static BluetoothData gRecive;
   \                     gRecive:
   \   00000000                      DS8 1044

   \                                 In section .bss, align 4
     57          unsigned char BlueheartAddressLength[16];
   \                     BlueheartAddressLength:
   \   00000000                      DS8 16
     58          
     59          // START v1.27-2

   \                                 In section .bss, align 1
     60          unsigned char _GET_MAC_First_=0;
   \                     _GET_MAC_First_:
   \   00000000                      DS8 1

   \                                 In section .bss, align 4
     61          char BT_Mac[20] = {0};
   \                     BT_Mac:
   \   00000000                      DS8 20
     62          // END v1.27-2

   \                                 In section .bss, align 1
     63          unsigned char _FTMS_StartInit_ = 0;// v2.1-8
   \                     _FTMS_StartInit_:
   \   00000000                      DS8 1
     64          //wcq
     65          

   \                                 In section .bss, align 4
     66          static unsigned char BlueheartAddressLength_backup[16];
   \                     BlueheartAddressLength_backup:
   \   00000000                      DS8 16

   \                                 In section .bss, align 1
     67          UINT8 TB_HR_CONNECT_BE_SENDED_FLAG = 0;
   \                     TB_HR_CONNECT_BE_SENDED_FLAG:
   \   00000000                      DS8 1

   \                                 In section .bss, align 2
     68          UINT16 TB_HR_CONNECT_BE_SENDED_wait = 0;
   \                     TB_HR_CONNECT_BE_SENDED_wait:
   \   00000000                      DS8 2
     69          extern UINT8 BTCMD_MASTERMODE_BE_SENDED;// v1.24-1
     70          extern uint8_t ftms_control_enable;
     71          

   \                                 In section .bss, align 1
     72          UINT8 BT_UpdatePercent;   //zsf
   \                     BT_UpdatePercent:
   \   00000000                      DS8 1

   \                                 In section .bss, align 4
     73          DWORD updatedLength = 0;   //zsf
   \                     updatedLength:
   \   00000000                      DS8 4

   \                                 In section .data, align 1
     74          UINT8 updateRecOK = 1;  //zsf
   \                     updateRecOK:
   \   00000000   0x01               DC8 1
     75          extern unsigned char g_BtUpdateFileDate[16];  //zsf
     76          //extern unsigned char g_BtUpdateHeadFileDate[22];
     77          extern unsigned char Bt_updateFlag;
     78          

   \                                 In section .data, align 4
     79          const static char* BluetoothCMD[BTCMD_END]={
   \                     BluetoothCMD:
   \   00000000   0x........         DC32 ?_0, ?_1, ?_2, ?_3, ?_4, ?_5, ?_6, ?_7, ?_8, ?_9, ?_10, ?_11, ?_12
   \              0x........   
   \              0x........   
   \              0x........   
   \              0x........   
   \              0x........   
   \              0x........   
   \              0x........   
   \              0x........   
   \              0x........   
   \              0x........   
   \              0x........   
   \              0x........   
   \   00000034   0x........         DC32 ?_13, ?_14, ?_15, ?_16
   \              0x........   
   \              0x........   
   \              0x........   
     80              "AT+GETMAC\r\n",
     81              "AT+SPPLESEND=",
     82              "AT+MASTER",           
     83              "AT+SLAVER",
     84              "AT+STARTSCANNING",
     85              "AT+STOPSCANNING",
     86              "AT+CONNECTLE=",
     87          #ifdef __BLUETOOTH_WLT2564__
     88              "AT+SETBLENAME=",
     89              "AT+GETBLENAME",
     90          #else
     91              "AT+SETNAME=",
     92              "AT+GETNAME",
     93          #endif
     94              "AT+SETLOCALNAME=",
     95              "AT+MRESET\r\n",
     96              "AT+GETLOCALNAME",
     97              "AT+DISCONNECTLE\r\n",
     98              "AT+SPPDISCONNECT",
     99              "AT+STARTADVERTISING\r\n",
    100                "AT+UPDATE",            //lizhao
    101            "AT+STARTUPDATE",  //zsf
    102          };
    103          

   \                                 In section .data, align 4
    104          const static char* BluetoothRecive[BTRECIVE_END]={
   \                     BluetoothRecive:
   \   00000000   0x........         DC32 ?_17, ?_18, ?_19, ?_20, ?_21, ?_22, ?_23, ?_24, ?_25, ?_26, ?_27
   \              0x........   
   \              0x........   
   \              0x........   
   \              0x........   
   \              0x........   
   \              0x........   
   \              0x........   
   \              0x........   
   \              0x........   
   \              0x........   
   \   0000002C   0x........         DC32 ?_28, ?_29, ?_30, ?_31, ?_32, ?_33, ?_34, ?_35, ?_36, ?_37
   \              0x........   
   \              0x........   
   \              0x........   
   \              0x........   
   \              0x........   
   \              0x........   
   \              0x........   
   \              0x........   
   \              0x........   
   \   00000054   0x00 0x00          DC8 0, 0, 0, 0
   \              0x00 0x00    
    105          #ifdef __BLUETOOTH_WLT2564__
    106              "+IND=BLECONNECTED,",
    107              "Start WLT2564M_",
    108              "+IND=BLEDISCONNECTED", 
    109          #else
    110              "+IND=TRANSMITING DATA",
    111              "SV:",
    112              "+IND=DISCONNECT", 
    113          #endif
    114           	"+HRP=",
    115              "+IND=SPPLELen:",
    116              "+ERR",
    117              "+OK=Evolve5.0 SPEAKERS ",
    118              "+OK=WLT2541M",
    119              "+OK=\r\n0X",
    120              "+OK",
    121              "0x",
    122              "+IND=AC",
    123              "+IND=AD",  
    124              "+IND=Evolve5.0",
    125              "+IND=START ADVERTISING",//14
    126              "+IND=Enter AT Cmd mode",
    127              "+IND=Slaver",
    128              "+IND=WLT2541_Central_HRP",
    129              "+IND=BLE_FTMS_CONNECTED",       // v1.25-10
    130              "+IND=BLE_WECHAT_CONNECTED",     // v1.25-10
    131              "+IND=BLE_SIMPLE_CONNECTED",     // v1.25-10
    132          };
    133          

   \                                 In section .rodata, align 1
    134          __no_init const static UCHAR ble_connect_type = 3; // 0: no, 1: normal(fitdisplay), 2: ftms, 3:wechat // v1.28-6
                                              ^
Warning[Pa034]: an initialized variable can not have the __no_init attribute
   \                     ble_connect_type:
   \   00000000   0x03               DC8 3
    135          
    136          

   \                                 In section .text, align 2, keep-with-next
    137          INT16 FindSubString(const UINT8 *str, UINT16 strLen, const char *targetString,UINT16 targetLenth,UINT16 startp)
    138          {
   \                     FindSubString: (+1)
   \   00000000   0xE92D 0x41F0      PUSH     {R4-R8,LR}
   \   00000004   0x0005             MOVS     R5,R0
   \   00000006   0x9C06             LDR      R4,[SP, #+24]
    139              UINT16 j,i;
    140              INT16 ret = -1;
   \   00000008   0xF05F 0x30FF      MOVS     R0,#-1
    141              if(targetLenth > strLen)
   \   0000000C   0x468C             MOV      R12,R1
   \   0000000E   0x469E             MOV      LR,R3
   \   00000010   0xFA1F 0xFC8C      UXTH     R12,R12          ;; ZeroExt  R12,R12,#+16,#+16
   \   00000014   0xFA1F 0xFE8E      UXTH     LR,LR            ;; ZeroExt  LR,LR,#+16,#+16
   \   00000018   0x45F4             CMP      R12,LR
   \   0000001A   0xD201             BCS.N    ??FindSubString_0
    142              {
    143                  return ret;
   \   0000001C   0xB200             SXTH     R0,R0            ;; SignExt  R0,R0,#+16,#+16
   \   0000001E   0xE067             B.N      ??FindSubString_1
    144              }
    145              for(i =startp; i<strLen- targetLenth; i++)
   \                     ??FindSubString_0: (+1)
   \   00000020   0x0027             MOVS     R7,R4
   \                     ??FindSubString_2: (+1)
   \   00000022   0xB2BF             UXTH     R7,R7            ;; ZeroExt  R7,R7,#+16,#+16
   \   00000024   0xB289             UXTH     R1,R1            ;; ZeroExt  R1,R1,#+16,#+16
   \   00000026   0xB29B             UXTH     R3,R3            ;; ZeroExt  R3,R3,#+16,#+16
   \   00000028   0xEBB1 0x0C03      SUBS     R12,R1,R3
   \   0000002C   0x4567             CMP      R7,R12
   \   0000002E   0xDA5E             BGE.N    ??FindSubString_3
    146              {
    147              	if((i%MAX_WLT_BUFFER == startp)&&(i!=startp))
   \   00000030   0xB2BF             UXTH     R7,R7            ;; ZeroExt  R7,R7,#+16,#+16
   \   00000032   0xF44F 0x6C80      MOV      R12,#+1024
   \   00000036   0xFB97 0xFEFC      SDIV     LR,R7,R12
   \   0000003A   0xFB0C 0x7C1E      MLS      R12,R12,LR,R7
   \   0000003E   0xB2A4             UXTH     R4,R4            ;; ZeroExt  R4,R4,#+16,#+16
   \   00000040   0x45A4             CMP      R12,R4
   \   00000042   0xD109             BNE.N    ??FindSubString_4
   \   00000044   0x46BC             MOV      R12,R7
   \   00000046   0x46A6             MOV      LR,R4
   \   00000048   0xFA1F 0xFC8C      UXTH     R12,R12          ;; ZeroExt  R12,R12,#+16,#+16
   \   0000004C   0xFA1F 0xFE8E      UXTH     LR,LR            ;; ZeroExt  LR,LR,#+16,#+16
   \   00000050   0x45F4             CMP      R12,LR
   \   00000052   0xD001             BEQ.N    ??FindSubString_4
    148          			return ret;
   \   00000054   0xB200             SXTH     R0,R0            ;; SignExt  R0,R0,#+16,#+16
   \   00000056   0xE04B             B.N      ??FindSubString_1
    149                  if(str[i%MAX_WLT_BUFFER] != targetString[0] )
   \                     ??FindSubString_4: (+1)
   \   00000058   0xB2BF             UXTH     R7,R7            ;; ZeroExt  R7,R7,#+16,#+16
   \   0000005A   0xF44F 0x6C80      MOV      R12,#+1024
   \   0000005E   0xFB97 0xFEFC      SDIV     LR,R7,R12
   \   00000062   0xFB0C 0x7C1E      MLS      R12,R12,LR,R7
   \   00000066   0xF815 0xC00C      LDRB     R12,[R5, R12]
   \   0000006A   0xF892 0xE000      LDRB     LR,[R2, #+0]
   \   0000006E   0x45F4             CMP      R12,LR
   \   00000070   0xD13B             BNE.N    ??FindSubString_5
    150                  {
    151                      continue;
    152                  }
    153                  j = 1;
   \                     ??FindSubString_6: (+1)
   \   00000072   0xF05F 0x0C01      MOVS     R12,#+1
   \   00000076   0x4666             MOV      R6,R12
    154                  for(;j<targetLenth;j++)
   \                     ??FindSubString_7: (+1)
   \   00000078   0x46B4             MOV      R12,R6
   \   0000007A   0x469E             MOV      LR,R3
   \   0000007C   0xFA1F 0xFC8C      UXTH     R12,R12          ;; ZeroExt  R12,R12,#+16,#+16
   \   00000080   0xFA1F 0xFE8E      UXTH     LR,LR            ;; ZeroExt  LR,LR,#+16,#+16
   \   00000084   0x45F4             CMP      R12,LR
   \   00000086   0xD212             BCS.N    ??FindSubString_8
    155                  {
    156                      if(str[(i+j)%MAX_WLT_BUFFER] != targetString[j] )
   \   00000088   0xB2BF             UXTH     R7,R7            ;; ZeroExt  R7,R7,#+16,#+16
   \   0000008A   0xB2B6             UXTH     R6,R6            ;; ZeroExt  R6,R6,#+16,#+16
   \   0000008C   0xEB16 0x0C07      ADDS     R12,R6,R7
   \   00000090   0xF44F 0x6E80      MOV      LR,#+1024
   \   00000094   0xFB9C 0xF8FE      SDIV     R8,R12,LR
   \   00000098   0xFB0E 0xCC18      MLS      R12,LR,R8,R12
   \   0000009C   0xF815 0xC00C      LDRB     R12,[R5, R12]
   \   000000A0   0xB2B6             UXTH     R6,R6            ;; ZeroExt  R6,R6,#+16,#+16
   \   000000A2   0xF812 0xE006      LDRB     LR,[R2, R6]
   \   000000A6   0x45F4             CMP      R12,LR
   \   000000A8   0xD101             BNE.N    ??FindSubString_8
    157                      {
    158                          break;
    159                      }
    160                  }
   \                     ??FindSubString_9: (+1)
   \   000000AA   0x1C76             ADDS     R6,R6,#+1
   \   000000AC   0xE7E4             B.N      ??FindSubString_7
    161                  if(j == targetLenth)
   \                     ??FindSubString_8: (+1)
   \   000000AE   0x46B4             MOV      R12,R6
   \   000000B0   0x469E             MOV      LR,R3
   \   000000B2   0xFA1F 0xFC8C      UXTH     R12,R12          ;; ZeroExt  R12,R12,#+16,#+16
   \   000000B6   0xFA1F 0xFE8E      UXTH     LR,LR            ;; ZeroExt  LR,LR,#+16,#+16
   \   000000BA   0x45F4             CMP      R12,LR
   \   000000BC   0xD115             BNE.N    ??FindSubString_5
    162                  {
    163                      ret = (i+j)%MAX_WLT_BUFFER -1;
   \   000000BE   0xB2BF             UXTH     R7,R7            ;; ZeroExt  R7,R7,#+16,#+16
   \   000000C0   0xB2B6             UXTH     R6,R6            ;; ZeroExt  R6,R6,#+16,#+16
   \   000000C2   0xEB16 0x0C07      ADDS     R12,R6,R7
   \   000000C6   0xF44F 0x6E80      MOV      LR,#+1024
   \   000000CA   0xFB9C 0xF8FE      SDIV     R8,R12,LR
   \   000000CE   0xFB0E 0xCC18      MLS      R12,LR,R8,R12
   \   000000D2   0xF1BC 0x0C01      SUBS     R12,R12,#+1
   \   000000D6   0x4660             MOV      R0,R12
    164                      if( ret == -1 )
   \   000000D8   0xB200             SXTH     R0,R0            ;; SignExt  R0,R0,#+16,#+16
   \   000000DA   0xF110 0x0F01      CMN      R0,#+1
   \   000000DE   0xD102             BNE.N    ??FindSubString_10
    165                      {
    166                          ret = 0;   
   \   000000E0   0xF05F 0x0C00      MOVS     R12,#+0
   \   000000E4   0x4660             MOV      R0,R12
    167                      }
    168                      return ret;
   \                     ??FindSubString_10: (+1)
   \   000000E6   0xB200             SXTH     R0,R0            ;; SignExt  R0,R0,#+16,#+16
   \   000000E8   0xE002             B.N      ??FindSubString_1
    169                  }
    170          	 
    171              }
   \                     ??FindSubString_5: (+1)
   \   000000EA   0x1C7F             ADDS     R7,R7,#+1
   \   000000EC   0xE799             B.N      ??FindSubString_2
    172              return ret;
   \                     ??FindSubString_3: (+1)
   \   000000EE   0xB200             SXTH     R0,R0            ;; SignExt  R0,R0,#+16,#+16
   \                     ??FindSubString_1: (+1)
   \   000000F0   0xE8BD 0x81F0      POP      {R4-R8,PC}       ;; return
    173          }

   \                                 In section .text, align 2, keep-with-next
    174          void wlt25xxResetInitial(void)
    175          {
   \                     wlt25xxResetInitial: (+1)
   \   00000000   0xE92D 0x41F0      PUSH     {R4-R8,LR}
    176              memset(&gSend,0, sizeof(BluetoothData));
   \   00000004   0xF240 0x4414      MOVW     R4,#+1044
   \   00000008   0x2500             MOVS     R5,#+0
   \   0000000A   0x.... 0x....      LDR.W    R6,??DataTable8
   \   0000000E   0x002A             MOVS     R2,R5
   \   00000010   0x0021             MOVS     R1,R4
   \   00000012   0x0030             MOVS     R0,R6
   \   00000014   0x.... 0x....      BL       __aeabi_memset
    177              memset(&gRecive,0, sizeof(BluetoothData));
   \   00000018   0xF240 0x4614      MOVW     R6,#+1044
   \   0000001C   0x2700             MOVS     R7,#+0
   \   0000001E   0x.... 0x....      LDR.W    R8,??DataTable8_1
   \   00000022   0x003A             MOVS     R2,R7
   \   00000024   0x0031             MOVS     R1,R6
   \   00000026   0x4640             MOV      R0,R8
   \   00000028   0x.... 0x....      BL       __aeabi_memset
    178              gSendReady=true;
   \   0000002C   0x2001             MOVS     R0,#+1
   \   0000002E   0x.... 0x....      LDR.W    R1,??DataTable8_2
   \   00000032   0x7008             STRB     R0,[R1, #+0]
    179              gWaitFlag=0;
   \   00000034   0x2000             MOVS     R0,#+0
   \   00000036   0x.... 0x....      LDR.W    R1,??DataTable8_3
   \   0000003A   0x8008             STRH     R0,[R1, #+0]
    180              gWaitOkTimeOut = 0x55;
   \   0000003C   0x2055             MOVS     R0,#+85
   \   0000003E   0x.... 0x....      LDR.W    R1,??DataTable8_4
   \   00000042   0x7008             STRB     R0,[R1, #+0]
    181          #ifdef __BLUETOOTH_WLT2564__
    182              BluetoothSetDirectSendFuncation(wlt2564SendData);
    183          #else
    184              BluetoothSetDirectSendFuncation(wlt2541SendData);
   \   00000044   0x.... 0x....      ADR.W    R0,wlt2541SendData
   \   00000048   0x.... 0x....      BL       BluetoothSetDirectSendFuncation
    185          #endif
    186          }
   \   0000004C   0xE8BD 0x81F0      POP      {R4-R8,PC}       ;; return

   \                                 In section .text, align 2, keep-with-next
    187          void wlt25xxInitial(void)
    188          {
   \                     wlt25xxInitial: (+1)
   \   00000000   0xE92D 0x4FFE      PUSH     {R1-R11,LR}
    189              memset(BT_MacAddress,0, sizeof(BT_MacAddress));
   \   00000004   0x200C             MOVS     R0,#+12
   \   00000006   0x9002             STR      R0,[SP, #+8]
   \   00000008   0x2000             MOVS     R0,#+0
   \   0000000A   0x9001             STR      R0,[SP, #+4]
   \   0000000C   0x.... 0x....      LDR.W    R4,??DataTable8_5
   \   00000010   0x9A01             LDR      R2,[SP, #+4]
   \   00000012   0x9902             LDR      R1,[SP, #+8]
   \   00000014   0x0020             MOVS     R0,R4
   \   00000016   0x.... 0x....      BL       __aeabi_memset
    190              memset(BT_Version,0, sizeof(BT_Version));
   \   0000001A   0x200D             MOVS     R0,#+13
   \   0000001C   0x9000             STR      R0,[SP, #+0]
   \   0000001E   0x2400             MOVS     R4,#+0
   \   00000020   0x.... 0x....      LDR.W    R5,??DataTable8_6
   \   00000024   0x0022             MOVS     R2,R4
   \   00000026   0x9900             LDR      R1,[SP, #+0]
   \   00000028   0x0028             MOVS     R0,R5
   \   0000002A   0x.... 0x....      BL       __aeabi_memset
    191              memset(&gSend,0, sizeof(BluetoothData));
   \   0000002E   0xF240 0x4514      MOVW     R5,#+1044
   \   00000032   0x2600             MOVS     R6,#+0
   \   00000034   0x.... 0x....      LDR.W    R7,??DataTable8
   \   00000038   0x0032             MOVS     R2,R6
   \   0000003A   0x0029             MOVS     R1,R5
   \   0000003C   0x0038             MOVS     R0,R7
   \   0000003E   0x.... 0x....      BL       __aeabi_memset
    192              memset(&gRecive,0, sizeof(BluetoothData));
   \   00000042   0xF240 0x4714      MOVW     R7,#+1044
   \   00000046   0xF05F 0x0800      MOVS     R8,#+0
   \   0000004A   0x.... 0x....      LDR.W    R9,??DataTable8_1
   \   0000004E   0x4642             MOV      R2,R8
   \   00000050   0x0039             MOVS     R1,R7
   \   00000052   0x4648             MOV      R0,R9
   \   00000054   0x.... 0x....      BL       __aeabi_memset
    193              memset(&wlt25xxStatus,0, sizeof(WLT25xxStatus));
   \   00000058   0xF05F 0x0904      MOVS     R9,#+4
   \   0000005C   0xF05F 0x0A00      MOVS     R10,#+0
   \   00000060   0x.... 0x....      LDR.W    R11,??DataTable8_7
   \   00000064   0x4652             MOV      R2,R10
   \   00000066   0x4649             MOV      R1,R9
   \   00000068   0x4658             MOV      R0,R11
   \   0000006A   0x.... 0x....      BL       __aeabi_memset
    194              gSendReady=true;
   \   0000006E   0x2001             MOVS     R0,#+1
   \   00000070   0x.... 0x....      LDR.W    R1,??DataTable8_2
   \   00000074   0x7008             STRB     R0,[R1, #+0]
    195          	  updateRecOK = 1;
   \   00000076   0x2001             MOVS     R0,#+1
   \   00000078   0x.... 0x....      LDR.W    R1,??DataTable8_8
   \   0000007C   0x7008             STRB     R0,[R1, #+0]
    196              gWaitFlag=0;
   \   0000007E   0x2000             MOVS     R0,#+0
   \   00000080   0x.... 0x....      LDR.W    R1,??DataTable8_3
   \   00000084   0x8008             STRH     R0,[R1, #+0]
    197          	BT_UpdatePercent = 0;
   \   00000086   0x2000             MOVS     R0,#+0
   \   00000088   0x.... 0x....      LDR.W    R1,??DataTable8_9
   \   0000008C   0x7008             STRB     R0,[R1, #+0]
    198              gWaitOkTimeOut = 0x55;
   \   0000008E   0x2055             MOVS     R0,#+85
   \   00000090   0x.... 0x....      LDR.W    R1,??DataTable8_4
   \   00000094   0x7008             STRB     R0,[R1, #+0]
    199          	wlt25xxStatus.Mode=0;
   \   00000096   0x.... 0x....      LDR.W    R0,??DataTable8_7
   \   0000009A   0x7840             LDRB     R0,[R0, #+1]
   \   0000009C   0xF010 0x00FE      ANDS     R0,R0,#0xFE
   \   000000A0   0x.... 0x....      LDR.W    R1,??DataTable8_7
   \   000000A4   0x7048             STRB     R0,[R1, #+1]
    200              wlt25xxStatus.SetBleNameFlag = 0;
   \   000000A6   0x.... 0x....      LDR.W    R0,??DataTable8_7
   \   000000AA   0x7840             LDRB     R0,[R0, #+1]
   \   000000AC   0xF010 0x00BF      ANDS     R0,R0,#0xBF
   \   000000B0   0x.... 0x....      LDR.W    R1,??DataTable8_7
   \   000000B4   0x7048             STRB     R0,[R1, #+1]
    201              wlt25xxStatus.InitialCmdStatu = 0;
   \   000000B6   0x.... 0x....      LDR.W    R0,??DataTable8_7
   \   000000BA   0x7880             LDRB     R0,[R0, #+2]
   \   000000BC   0xF010 0x00F0      ANDS     R0,R0,#0xF0
   \   000000C0   0x.... 0x....      LDR.W    R1,??DataTable8_7
   \   000000C4   0x7088             STRB     R0,[R1, #+2]
    202          #ifdef __BLUETOOTH_WLT2564__
    203          	BluetoothSetDirectSendFuncation(wlt2564SendData);
    204          #else
    205              BluetoothSetDirectSendFuncation(wlt2541SendData);
   \   000000C6   0x.... 0x....      ADR.W    R0,wlt2541SendData
   \   000000CA   0x.... 0x....      BL       BluetoothSetDirectSendFuncation
    206          #endif
    207          }
   \   000000CE   0xE8BD 0x8FF7      POP      {R0-R2,R4-R11,PC}  ;; return

   \                                 In section .text, align 4, keep-with-next
    208          bool wlt2541SendData(UINT8* buf, UINT16 length)
    209          {
   \                     wlt2541SendData: (+1)
   \   00000000   0xE92D 0x4FFE      PUSH     {R1-R11,LR}
   \   00000004   0x0004             MOVS     R4,R0
   \   00000006   0x000D             MOVS     R5,R1
    210              bool ret = false;
   \   00000008   0x2600             MOVS     R6,#+0
    211              if(gSendReady )
   \   0000000A   0x.... 0x....      LDR.W    R0,??DataTable8_2
   \   0000000E   0x7800             LDRB     R0,[R0, #+0]
   \   00000010   0x2800             CMP      R0,#+0
   \   00000012   0xF000 0x80BB      BEQ.W    ??wlt2541SendData_0
    212              {
    213                  if(length > 500)
   \   00000016   0xB2AD             UXTH     R5,R5            ;; ZeroExt  R5,R5,#+16,#+16
   \   00000018   0xF5B5 0x7FFA      CMP      R5,#+500
   \   0000001C   0xDD79             BLE.N    ??wlt2541SendData_1
    214                  {
    215                      UINT16 command_length = strlen(BluetoothCMD[BTCMD_SENDDATA]);
   \   0000001E   0x.... 0x....      LDR.W    R0,??DataTable8_10
   \   00000022   0x6840             LDR      R0,[R0, #+4]
   \   00000024   0x.... 0x....      BL       strlen
   \   00000028   0xF8AD 0x0008      STRH     R0,[SP, #+8]
    216                      UINT16 index = 0;
   \   0000002C   0xF05F 0x0A00      MOVS     R10,#+0
    217          
    218                      memset(gSend.buf, 0, sizeof(gSend.buf));
   \   00000030   0xF44F 0x6780      MOV      R7,#+1024
   \   00000034   0xF05F 0x0800      MOVS     R8,#+0
   \   00000038   0x.... 0x....      LDR.W    R9,??DataTable8_11
   \   0000003C   0x4642             MOV      R2,R8
   \   0000003E   0x0039             MOVS     R1,R7
   \   00000040   0x4648             MOV      R0,R9
   \   00000042   0x.... 0x....      BL       __aeabi_memset
    219                      gSendReady = false;
   \   00000046   0x2000             MOVS     R0,#+0
   \   00000048   0x.... 0x....      LDR.W    R1,??DataTable8_2
   \   0000004C   0x7008             STRB     R0,[R1, #+0]
    220                      gSend.processIndex = 0;        
   \   0000004E   0x2000             MOVS     R0,#+0
   \   00000050   0x.... 0x....      LDR.W    R1,??DataTable8
   \   00000054   0x8088             STRH     R0,[R1, #+4]
    221                      ret = true;
   \   00000056   0x2001             MOVS     R0,#+1
   \   00000058   0x0006             MOVS     R6,R0
    222                      
    223                      memcpy(gSend.buf+index, buf, 400);
   \   0000005A   0xF44F 0x79C8      MOV      R9,#+400
   \   0000005E   0x.... 0x....      LDR.W    R0,??DataTable8
   \   00000062   0xFA1F 0xFA8A      UXTH     R10,R10          ;; ZeroExt  R10,R10,#+16,#+16
   \   00000066   0x4450             ADD      R0,R0,R10
   \   00000068   0xF110 0x0B14      ADDS     R11,R0,#+20
   \   0000006C   0x464A             MOV      R2,R9
   \   0000006E   0x0021             MOVS     R1,R4
   \   00000070   0x4658             MOV      R0,R11
   \   00000072   0x.... 0x....      BL       __aeabi_memcpy
    224                      index += 400;
   \   00000076   0xF51A 0x7AC8      ADDS     R10,R10,#+400
    225                      *(gSend.buf+index) = '\r';
   \   0000007A   0x200D             MOVS     R0,#+13
   \   0000007C   0x.... 0x....      LDR.W    R1,??DataTable8
   \   00000080   0xFA1F 0xFA8A      UXTH     R10,R10          ;; ZeroExt  R10,R10,#+16,#+16
   \   00000084   0x4451             ADD      R1,R1,R10
   \   00000086   0x7508             STRB     R0,[R1, #+20]
    226                      index ++;
   \   00000088   0xF11A 0x0A01      ADDS     R10,R10,#+1
    227                      *(gSend.buf+index) = '\n';
   \   0000008C   0x200A             MOVS     R0,#+10
   \   0000008E   0x.... 0x....      LDR.W    R1,??DataTable8
   \   00000092   0xFA1F 0xFA8A      UXTH     R10,R10          ;; ZeroExt  R10,R10,#+16,#+16
   \   00000096   0x4451             ADD      R1,R1,R10
   \   00000098   0x7508             STRB     R0,[R1, #+20]
    228                      index ++;
   \   0000009A   0xF11A 0x0A01      ADDS     R10,R10,#+1
    229                      gWaitFlag_step2 = index;
   \   0000009E   0x.... 0x....      LDR.W    R0,??DataTable8_12
   \   000000A2   0xF8A0 0xA000      STRH     R10,[R0, #+0]
    230                      
    231                      memcpy(gSend.buf+index, buf+400, length-400);
   \   000000A6   0xB2AD             UXTH     R5,R5            ;; ZeroExt  R5,R5,#+16,#+16
   \   000000A8   0xF5B5 0x70C8      SUBS     R0,R5,#+400
   \   000000AC   0x9001             STR      R0,[SP, #+4]
   \   000000AE   0xF44F 0x70C8      MOV      R0,#+400
   \   000000B2   0x4420             ADD      R0,R4,R0
   \   000000B4   0x9000             STR      R0,[SP, #+0]
   \   000000B6   0x.... 0x....      LDR.W    R0,??DataTable8
   \   000000BA   0xFA1F 0xFA8A      UXTH     R10,R10          ;; ZeroExt  R10,R10,#+16,#+16
   \   000000BE   0x4450             ADD      R0,R0,R10
   \   000000C0   0xF110 0x0B14      ADDS     R11,R0,#+20
   \   000000C4   0x9A01             LDR      R2,[SP, #+4]
   \   000000C6   0x9900             LDR      R1,[SP, #+0]
   \   000000C8   0x4658             MOV      R0,R11
   \   000000CA   0x.... 0x....      BL       __aeabi_memcpy
    232                      index += (length-400);
   \   000000CE   0xF5B5 0x70C8      SUBS     R0,R5,#+400
   \   000000D2   0xEB10 0x0A0A      ADDS     R10,R0,R10
    233                      *(gSend.buf+index) = '\r';
   \   000000D6   0x200D             MOVS     R0,#+13
   \   000000D8   0x.... 0x....      LDR.W    R1,??DataTable8
   \   000000DC   0xFA1F 0xFA8A      UXTH     R10,R10          ;; ZeroExt  R10,R10,#+16,#+16
   \   000000E0   0x4451             ADD      R1,R1,R10
   \   000000E2   0x7508             STRB     R0,[R1, #+20]
    234                      index ++;
   \   000000E4   0xF11A 0x0A01      ADDS     R10,R10,#+1
    235                      *(gSend.buf+index) = '\n';
   \   000000E8   0x200A             MOVS     R0,#+10
   \   000000EA   0x.... 0x....      LDR.W    R1,??DataTable8
   \   000000EE   0xFA1F 0xFA8A      UXTH     R10,R10          ;; ZeroExt  R10,R10,#+16,#+16
   \   000000F2   0x4451             ADD      R1,R1,R10
   \   000000F4   0x7508             STRB     R0,[R1, #+20]
    236                      index ++;
   \   000000F6   0xF11A 0x0A01      ADDS     R10,R10,#+1
    237                      gSend.total = index;
   \   000000FA   0x.... 0x....      LDR.W    R0,??DataTable8
   \   000000FE   0xF8A0 0xA000      STRH     R10,[R0, #+0]
    238                      SendStepFlag = 1;
   \   00000102   0x2001             MOVS     R0,#+1
   \   00000104   0x.... 0x....      LDR.W    R1,??DataTable8_13
   \   00000108   0x7008             STRB     R0,[R1, #+0]
    239                      HAL_BT_Enable_UARTI(1)	;
   \   0000010A   0x2001             MOVS     R0,#+1
   \   0000010C   0x.... 0x....      BL       HAL_BT_Enable_UARTI
   \   00000110   0xE03C             B.N      ??wlt2541SendData_0
    240                  }
    241                  else
    242                  {
    243                      UINT16 index = 0;
   \                     ??wlt2541SendData_1: (+1)
   \   00000112   0x2700             MOVS     R7,#+0
    244                      memset(gSend.buf, 0, sizeof(gSend.buf));
   \   00000114   0xF44F 0x6880      MOV      R8,#+1024
   \   00000118   0xF05F 0x0900      MOVS     R9,#+0
   \   0000011C   0x.... 0x....      LDR.W    R10,??DataTable8_11
   \   00000120   0x464A             MOV      R2,R9
   \   00000122   0x4641             MOV      R1,R8
   \   00000124   0x4650             MOV      R0,R10
   \   00000126   0x.... 0x....      BL       __aeabi_memset
    245                      gSendReady = false;
   \   0000012A   0x2000             MOVS     R0,#+0
   \   0000012C   0x.... 0x....      LDR.W    R1,??DataTable8_2
   \   00000130   0x7008             STRB     R0,[R1, #+0]
    246                      gSend.processIndex = 0;        
   \   00000132   0x2000             MOVS     R0,#+0
   \   00000134   0x.... 0x....      LDR.W    R1,??DataTable8
   \   00000138   0x8088             STRH     R0,[R1, #+4]
    247                      ret = true;
   \   0000013A   0x2001             MOVS     R0,#+1
   \   0000013C   0x0006             MOVS     R6,R0
    248                      memcpy(gSend.buf+index, buf, length);
   \   0000013E   0xB2AD             UXTH     R5,R5            ;; ZeroExt  R5,R5,#+16,#+16
   \   00000140   0x.... 0x....      LDR.W    R0,??DataTable8
   \   00000144   0xB2BF             UXTH     R7,R7            ;; ZeroExt  R7,R7,#+16,#+16
   \   00000146   0x4438             ADD      R0,R0,R7
   \   00000148   0xF110 0x0A14      ADDS     R10,R0,#+20
   \   0000014C   0x002A             MOVS     R2,R5
   \   0000014E   0x0021             MOVS     R1,R4
   \   00000150   0x4650             MOV      R0,R10
   \   00000152   0x.... 0x....      BL       __aeabi_memcpy
    249                      index += length;
   \   00000156   0x19EF             ADDS     R7,R5,R7
    250                      *(gSend.buf+index) = '\r';
   \   00000158   0x200D             MOVS     R0,#+13
   \   0000015A   0x.... 0x....      LDR.W    R1,??DataTable8
   \   0000015E   0xB2BF             UXTH     R7,R7            ;; ZeroExt  R7,R7,#+16,#+16
   \   00000160   0x4439             ADD      R1,R1,R7
   \   00000162   0x7508             STRB     R0,[R1, #+20]
    251                      index ++;
   \   00000164   0x1C7F             ADDS     R7,R7,#+1
    252                      *(gSend.buf+index) = '\n';
   \   00000166   0x200A             MOVS     R0,#+10
   \   00000168   0x.... 0x....      LDR.W    R1,??DataTable8
   \   0000016C   0xB2BF             UXTH     R7,R7            ;; ZeroExt  R7,R7,#+16,#+16
   \   0000016E   0x4439             ADD      R1,R1,R7
   \   00000170   0x7508             STRB     R0,[R1, #+20]
    253                      index ++;
   \   00000172   0x1C7F             ADDS     R7,R7,#+1
    254                      gSend.total = index;
   \   00000174   0x.... 0x....      LDR.W    R0,??DataTable8
   \   00000178   0x8007             STRH     R7,[R0, #+0]
    255                      gWaitFlag = gSend.total;
   \   0000017A   0x.... 0x....      LDR.W    R0,??DataTable8
   \   0000017E   0x8800             LDRH     R0,[R0, #+0]
   \   00000180   0x.... 0x....      LDR.W    R1,??DataTable8_3
   \   00000184   0x8008             STRH     R0,[R1, #+0]
    256                      HAL_BT_Enable_UARTI(1)	;
   \   00000186   0x2001             MOVS     R0,#+1
   \   00000188   0x.... 0x....      BL       HAL_BT_Enable_UARTI
    257                  }
    258              }
    259              return ret;
   \                     ??wlt2541SendData_0: (+1)
   \   0000018C   0x0030             MOVS     R0,R6
   \   0000018E   0xB2C0             UXTB     R0,R0            ;; ZeroExt  R0,R0,#+24,#+24
   \   00000190   0xE8BD 0x8FFE      POP      {R1-R11,PC}      ;; return
    260          }

   \                                 In section .text, align 2, keep-with-next
    261          bool  wlt2564SendUpdateData(UINT8* buf, UINT16 length)    //zsf
    262          {
   \                     wlt2564SendUpdateData: (+1)
   \   00000000   0xE92D 0x43F8      PUSH     {R3-R9,LR}
   \   00000004   0x0004             MOVS     R4,R0
   \   00000006   0x000D             MOVS     R5,R1
    263              bool ret = false;
   \   00000008   0x2600             MOVS     R6,#+0
    264              if(gSendReady)
   \   0000000A   0x.... 0x....      LDR.W    R0,??DataTable8_2
   \   0000000E   0x7800             LDRB     R0,[R0, #+0]
   \   00000010   0x2800             CMP      R0,#+0
   \   00000012   0xD025             BEQ.N    ??wlt2564SendUpdateData_0
    265              {
    266                  memset(gSend.buf, 0, sizeof(gSend.buf));
   \   00000014   0xF44F 0x6780      MOV      R7,#+1024
   \   00000018   0xF05F 0x0800      MOVS     R8,#+0
   \   0000001C   0x.... 0x....      LDR.W    R9,??DataTable8_11
   \   00000020   0x4642             MOV      R2,R8
   \   00000022   0x0039             MOVS     R1,R7
   \   00000024   0x4648             MOV      R0,R9
   \   00000026   0x.... 0x....      BL       __aeabi_memset
    267                  gSendReady = false;
   \   0000002A   0x2000             MOVS     R0,#+0
   \   0000002C   0x.... 0x....      LDR.W    R1,??DataTable8_2
   \   00000030   0x7008             STRB     R0,[R1, #+0]
    268                  gSend.processIndex = 0;
   \   00000032   0x2000             MOVS     R0,#+0
   \   00000034   0x.... 0x....      LDR.W    R1,??DataTable8
   \   00000038   0x8088             STRH     R0,[R1, #+4]
    269                  ret = true;
   \   0000003A   0x2001             MOVS     R0,#+1
   \   0000003C   0x0006             MOVS     R6,R0
    270                  memcpy(gSend.buf, buf, length);
   \   0000003E   0xB2AD             UXTH     R5,R5            ;; ZeroExt  R5,R5,#+16,#+16
   \   00000040   0x.... 0x....      LDR.W    R9,??DataTable8_11
   \   00000044   0x002A             MOVS     R2,R5
   \   00000046   0x0021             MOVS     R1,R4
   \   00000048   0x4648             MOV      R0,R9
   \   0000004A   0x.... 0x....      BL       __aeabi_memcpy
    271                  gSend.total = length;
   \   0000004E   0x.... 0x....      LDR.W    R0,??DataTable8
   \   00000052   0x8005             STRH     R5,[R0, #+0]
    272                  gWaitFlag = length;
   \   00000054   0x.... 0x....      LDR.W    R0,??DataTable8_3
   \   00000058   0x8005             STRH     R5,[R0, #+0]
    273                  HAL_BT_Enable_UARTI(1)	;
   \   0000005A   0x2001             MOVS     R0,#+1
   \   0000005C   0x.... 0x....      BL       HAL_BT_Enable_UARTI
    274              }
    275              return ret;
   \                     ??wlt2564SendUpdateData_0: (+1)
   \   00000060   0x0030             MOVS     R0,R6
   \   00000062   0xB2C0             UXTB     R0,R0            ;; ZeroExt  R0,R0,#+24,#+24
   \   00000064   0xE8BD 0x83F2      POP      {R1,R4-R9,PC}    ;; return
    276          }
    277          

   \                                 In section .text, align 2, keep-with-next
    278          bool  wlt2564SendData(UINT8* buf, UINT16 length)
    279          {
   \                     wlt2564SendData: (+1)
   \   00000000   0xE92D 0x4FF1      PUSH     {R0,R4-R11,LR}
   \   00000004   0xB092             SUB      SP,SP,#+72
   \   00000006   0x000C             MOVS     R4,R1
    280              bool ret = false;
   \   00000008   0x2500             MOVS     R5,#+0
    281              if(gSendReady )
   \   0000000A   0x.... 0x....      LDR.W    R0,??DataTable8_2
   \   0000000E   0x7800             LDRB     R0,[R0, #+0]
   \   00000010   0x2800             CMP      R0,#+0
   \   00000012   0xF000 0x81D8      BEQ.W    ??wlt2564SendData_0
    282              {
    283                  if(length > 500)
   \   00000016   0xB2A4             UXTH     R4,R4            ;; ZeroExt  R4,R4,#+16,#+16
   \   00000018   0xF5B4 0x7FFA      CMP      R4,#+500
   \   0000001C   0xF340 0x8140      BLE.W    ??wlt2564SendData_1
    284                  {
    285                      char str[4];
    286                      UINT16 command_length = strlen(BluetoothCMD[BTCMD_SENDDATA]);
   \   00000020   0x.... 0x....      LDR.W    R0,??DataTable8_10
   \   00000024   0x6840             LDR      R0,[R0, #+4]
   \   00000026   0x.... 0x....      BL       strlen
   \   0000002A   0x0006             MOVS     R6,R0
    287                      UINT16 index = 0;
   \   0000002C   0xF05F 0x0A00      MOVS     R10,#+0
    288          
    289                      memset(gSend.buf, 0, sizeof(gSend.buf));
   \   00000030   0xF44F 0x6080      MOV      R0,#+1024
   \   00000034   0x9010             STR      R0,[SP, #+64]
   \   00000036   0x2000             MOVS     R0,#+0
   \   00000038   0x900F             STR      R0,[SP, #+60]
   \   0000003A   0x.... 0x....      LDR.W    R7,??DataTable8_11
   \   0000003E   0x9A0F             LDR      R2,[SP, #+60]
   \   00000040   0x9910             LDR      R1,[SP, #+64]
   \   00000042   0x0038             MOVS     R0,R7
   \   00000044   0x.... 0x....      BL       __aeabi_memset
    290                      gSendReady = false;
   \   00000048   0x2000             MOVS     R0,#+0
   \   0000004A   0x.... 0x....      LDR.W    R1,??DataTable8_2
   \   0000004E   0x7008             STRB     R0,[R1, #+0]
    291                      gSend.processIndex = 0;        
   \   00000050   0x2000             MOVS     R0,#+0
   \   00000052   0x.... 0x....      LDR.W    R1,??DataTable8
   \   00000056   0x8088             STRH     R0,[R1, #+4]
    292                      ret = true;
   \   00000058   0x2001             MOVS     R0,#+1
   \   0000005A   0x0005             MOVS     R5,R0
    293                      sprintf(str, "%d", 400);
   \   0000005C   0xF44F 0x72C8      MOV      R2,#+400
   \   00000060   0x....             ADR.N    R1,??DataTable4  ;; 0x25, 0x64, 0x00, 0x00
   \   00000062   0x4668             MOV      R0,SP
   \   00000064   0x.... 0x....      BL       sprintf
    294                      memcpy(gSend.buf, BluetoothCMD[BTCMD_SENDDATA], command_length);
   \   00000068   0xB2B6             UXTH     R6,R6            ;; ZeroExt  R6,R6,#+16,#+16
   \   0000006A   0x.... 0x....      LDR.W    R0,??DataTable8_10
   \   0000006E   0x6840             LDR      R0,[R0, #+4]
   \   00000070   0x900E             STR      R0,[SP, #+56]
   \   00000072   0x.... 0x....      LDR.W    R7,??DataTable8_11
   \   00000076   0x0032             MOVS     R2,R6
   \   00000078   0x990E             LDR      R1,[SP, #+56]
   \   0000007A   0x0038             MOVS     R0,R7
   \   0000007C   0x.... 0x....      BL       __aeabi_memcpy
    295                      memcpy(gSend.buf+command_length, str, strlen(str));
   \   00000080   0x4668             MOV      R0,SP
   \   00000082   0x.... 0x....      BL       strlen
   \   00000086   0x900D             STR      R0,[SP, #+52]
   \   00000088   0x4668             MOV      R0,SP
   \   0000008A   0x900C             STR      R0,[SP, #+48]
   \   0000008C   0x.... 0x....      LDR.W    R0,??DataTable8
   \   00000090   0xB2B6             UXTH     R6,R6            ;; ZeroExt  R6,R6,#+16,#+16
   \   00000092   0x4430             ADD      R0,R0,R6
   \   00000094   0xF110 0x0714      ADDS     R7,R0,#+20
   \   00000098   0x9A0D             LDR      R2,[SP, #+52]
   \   0000009A   0x990C             LDR      R1,[SP, #+48]
   \   0000009C   0x0038             MOVS     R0,R7
   \   0000009E   0x.... 0x....      BL       __aeabi_memcpy
    296                      index += command_length+strlen(str);
   \   000000A2   0x4668             MOV      R0,SP
   \   000000A4   0x.... 0x....      BL       strlen
   \   000000A8   0x1980             ADDS     R0,R0,R6
   \   000000AA   0xEB10 0x000A      ADDS     R0,R0,R10
   \   000000AE   0x4682             MOV      R10,R0
    297                      *(gSend.buf+index) = ',';
   \   000000B0   0x202C             MOVS     R0,#+44
   \   000000B2   0x.... 0x....      LDR.W    R1,??DataTable8
   \   000000B6   0xFA1F 0xFA8A      UXTH     R10,R10          ;; ZeroExt  R10,R10,#+16,#+16
   \   000000BA   0x4451             ADD      R1,R1,R10
   \   000000BC   0x7508             STRB     R0,[R1, #+20]
    298                      index ++;
   \   000000BE   0xF11A 0x0A01      ADDS     R10,R10,#+1
    299                      memcpy(gSend.buf+index, gRecive.DeviceAddress, BLE_DEVADDRESS_LENGTH);
   \   000000C2   0x200E             MOVS     R0,#+14
   \   000000C4   0x900B             STR      R0,[SP, #+44]
   \   000000C6   0x.... 0x....      LDR.W    R0,??DataTable8_14
   \   000000CA   0x900A             STR      R0,[SP, #+40]
   \   000000CC   0x.... 0x....      LDR.W    R0,??DataTable8
   \   000000D0   0xFA1F 0xFA8A      UXTH     R10,R10          ;; ZeroExt  R10,R10,#+16,#+16
   \   000000D4   0x4450             ADD      R0,R0,R10
   \   000000D6   0xF110 0x0714      ADDS     R7,R0,#+20
   \   000000DA   0x9A0B             LDR      R2,[SP, #+44]
   \   000000DC   0x990A             LDR      R1,[SP, #+40]
   \   000000DE   0x0038             MOVS     R0,R7
   \   000000E0   0x.... 0x....      BL       __aeabi_memcpy
    300                      index += BLE_DEVADDRESS_LENGTH;
   \   000000E4   0xF11A 0x0A0E      ADDS     R10,R10,#+14
    301                      *(gSend.buf+index) = '\r';
   \   000000E8   0x200D             MOVS     R0,#+13
   \   000000EA   0x.... 0x....      LDR.W    R1,??DataTable8
   \   000000EE   0xFA1F 0xFA8A      UXTH     R10,R10          ;; ZeroExt  R10,R10,#+16,#+16
   \   000000F2   0x4451             ADD      R1,R1,R10
   \   000000F4   0x7508             STRB     R0,[R1, #+20]
    302                      index ++;
   \   000000F6   0xF11A 0x0A01      ADDS     R10,R10,#+1
    303                      *(gSend.buf+index) = '\n';
   \   000000FA   0x200A             MOVS     R0,#+10
   \   000000FC   0x.... 0x....      LDR.W    R1,??DataTable8
   \   00000100   0xFA1F 0xFA8A      UXTH     R10,R10          ;; ZeroExt  R10,R10,#+16,#+16
   \   00000104   0x4451             ADD      R1,R1,R10
   \   00000106   0x7508             STRB     R0,[R1, #+20]
    304                      index ++;
   \   00000108   0xF11A 0x0A01      ADDS     R10,R10,#+1
    305                      
    306                      gWaitFlag = index;
   \   0000010C   0x.... 0x....      LDR.W    R0,??DataTable8_3
   \   00000110   0xF8A0 0xA000      STRH     R10,[R0, #+0]
    307                      
    308                      memcpy(gSend.buf+index, buf, 400);
   \   00000114   0xF44F 0x70C8      MOV      R0,#+400
   \   00000118   0x9009             STR      R0,[SP, #+36]
   \   0000011A   0x9812             LDR      R0,[SP, #+72]
   \   0000011C   0x9008             STR      R0,[SP, #+32]
   \   0000011E   0x.... 0x....      LDR.W    R0,??DataTable8
   \   00000122   0xFA1F 0xFA8A      UXTH     R10,R10          ;; ZeroExt  R10,R10,#+16,#+16
   \   00000126   0x4450             ADD      R0,R0,R10
   \   00000128   0xF110 0x0714      ADDS     R7,R0,#+20
   \   0000012C   0x9A09             LDR      R2,[SP, #+36]
   \   0000012E   0x9908             LDR      R1,[SP, #+32]
   \   00000130   0x0038             MOVS     R0,R7
   \   00000132   0x.... 0x....      BL       __aeabi_memcpy
    309                      index += 400;
   \   00000136   0xF51A 0x7AC8      ADDS     R10,R10,#+400
    310                      *(gSend.buf+index) = '\r';
   \   0000013A   0x200D             MOVS     R0,#+13
   \   0000013C   0x.... 0x....      LDR.W    R1,??DataTable8
   \   00000140   0xFA1F 0xFA8A      UXTH     R10,R10          ;; ZeroExt  R10,R10,#+16,#+16
   \   00000144   0x4451             ADD      R1,R1,R10
   \   00000146   0x7508             STRB     R0,[R1, #+20]
    311                      index ++;
   \   00000148   0xF11A 0x0A01      ADDS     R10,R10,#+1
    312                      *(gSend.buf+index) = '\n';
   \   0000014C   0x200A             MOVS     R0,#+10
   \   0000014E   0x.... 0x....      LDR.W    R1,??DataTable8
   \   00000152   0xFA1F 0xFA8A      UXTH     R10,R10          ;; ZeroExt  R10,R10,#+16,#+16
   \   00000156   0x4451             ADD      R1,R1,R10
   \   00000158   0x7508             STRB     R0,[R1, #+20]
    313                      index ++;
   \   0000015A   0xF11A 0x0A01      ADDS     R10,R10,#+1
    314                      gWaitFlag_step2 = index;
   \   0000015E   0x.... 0x....      LDR.W    R0,??DataTable8_12
   \   00000162   0xF8A0 0xA000      STRH     R10,[R0, #+0]
    315          
    316                      memset(str,0,4);
   \   00000166   0x2004             MOVS     R0,#+4
   \   00000168   0x9007             STR      R0,[SP, #+28]
   \   0000016A   0x2000             MOVS     R0,#+0
   \   0000016C   0x9002             STR      R0,[SP, #+8]
   \   0000016E   0x466F             MOV      R7,SP
   \   00000170   0x9A02             LDR      R2,[SP, #+8]
   \   00000172   0x9907             LDR      R1,[SP, #+28]
   \   00000174   0x0038             MOVS     R0,R7
   \   00000176   0x.... 0x....      BL       __aeabi_memset
    317                      sprintf(str, "%d", length-400);
   \   0000017A   0xB2A4             UXTH     R4,R4            ;; ZeroExt  R4,R4,#+16,#+16
   \   0000017C   0xF5B4 0x72C8      SUBS     R2,R4,#+400
   \   00000180   0x....             ADR.N    R1,??DataTable4  ;; 0x25, 0x64, 0x00, 0x00
   \   00000182   0x4668             MOV      R0,SP
   \   00000184   0x.... 0x....      BL       sprintf
    318                      memcpy(gSend.buf+index, BluetoothCMD[BTCMD_SENDDATA], command_length);
   \   00000188   0xB2B6             UXTH     R6,R6            ;; ZeroExt  R6,R6,#+16,#+16
   \   0000018A   0x.... 0x....      LDR.W    R0,??DataTable8_10
   \   0000018E   0x6840             LDR      R0,[R0, #+4]
   \   00000190   0x9003             STR      R0,[SP, #+12]
   \   00000192   0x.... 0x....      LDR.W    R0,??DataTable8
   \   00000196   0xFA1F 0xFA8A      UXTH     R10,R10          ;; ZeroExt  R10,R10,#+16,#+16
   \   0000019A   0x4450             ADD      R0,R0,R10
   \   0000019C   0xF110 0x0714      ADDS     R7,R0,#+20
   \   000001A0   0x0032             MOVS     R2,R6
   \   000001A2   0x9903             LDR      R1,[SP, #+12]
   \   000001A4   0x0038             MOVS     R0,R7
   \   000001A6   0x.... 0x....      BL       __aeabi_memcpy
    319                      memcpy(gSend.buf+index+command_length, str, strlen(str));
   \   000001AA   0x4668             MOV      R0,SP
   \   000001AC   0x.... 0x....      BL       strlen
   \   000001B0   0x9004             STR      R0,[SP, #+16]
   \   000001B2   0x466F             MOV      R7,SP
   \   000001B4   0x.... 0x....      LDR.W    R0,??DataTable8
   \   000001B8   0xFA1F 0xFA8A      UXTH     R10,R10          ;; ZeroExt  R10,R10,#+16,#+16
   \   000001BC   0x4450             ADD      R0,R0,R10
   \   000001BE   0xB2B6             UXTH     R6,R6            ;; ZeroExt  R6,R6,#+16,#+16
   \   000001C0   0x4430             ADD      R0,R0,R6
   \   000001C2   0xF110 0x0814      ADDS     R8,R0,#+20
   \   000001C6   0x9A04             LDR      R2,[SP, #+16]
   \   000001C8   0x0039             MOVS     R1,R7
   \   000001CA   0x4640             MOV      R0,R8
   \   000001CC   0x.... 0x....      BL       __aeabi_memcpy
    320                      index += strlen(str)+command_length;
   \   000001D0   0x4668             MOV      R0,SP
   \   000001D2   0x.... 0x....      BL       strlen
   \   000001D6   0x1830             ADDS     R0,R6,R0
   \   000001D8   0xEB10 0x000A      ADDS     R0,R0,R10
   \   000001DC   0x4682             MOV      R10,R0
    321                      *(gSend.buf+index) = ',';
   \   000001DE   0x202C             MOVS     R0,#+44
   \   000001E0   0x.... 0x....      LDR.W    R1,??DataTable8
   \   000001E4   0xFA1F 0xFA8A      UXTH     R10,R10          ;; ZeroExt  R10,R10,#+16,#+16
   \   000001E8   0x4451             ADD      R1,R1,R10
   \   000001EA   0x7508             STRB     R0,[R1, #+20]
    322                      index++;
   \   000001EC   0xF11A 0x0A01      ADDS     R10,R10,#+1
    323                      memcpy(gSend.buf+index, gRecive.DeviceAddress, BLE_DEVADDRESS_LENGTH);
   \   000001F0   0xF05F 0x080E      MOVS     R8,#+14
   \   000001F4   0x.... 0x....      LDR.W    R9,??DataTable8_14
   \   000001F8   0x.... 0x....      LDR.W    R0,??DataTable8
   \   000001FC   0xFA1F 0xFA8A      UXTH     R10,R10          ;; ZeroExt  R10,R10,#+16,#+16
   \   00000200   0x4450             ADD      R0,R0,R10
   \   00000202   0xF110 0x0B14      ADDS     R11,R0,#+20
   \   00000206   0x4642             MOV      R2,R8
   \   00000208   0x4649             MOV      R1,R9
   \   0000020A   0x4658             MOV      R0,R11
   \   0000020C   0x.... 0x....      BL       __aeabi_memcpy
    324                      index += BLE_DEVADDRESS_LENGTH;
   \   00000210   0xF11A 0x0A0E      ADDS     R10,R10,#+14
    325                      *(gSend.buf+index) = '\r';
   \   00000214   0x200D             MOVS     R0,#+13
   \   00000216   0x....             LDR.N    R1,??DataTable8
   \   00000218   0xFA1F 0xFA8A      UXTH     R10,R10          ;; ZeroExt  R10,R10,#+16,#+16
   \   0000021C   0x4451             ADD      R1,R1,R10
   \   0000021E   0x7508             STRB     R0,[R1, #+20]
    326                      index ++;
   \   00000220   0xF11A 0x0A01      ADDS     R10,R10,#+1
    327                      *(gSend.buf+index) = '\n';
   \   00000224   0x200A             MOVS     R0,#+10
   \   00000226   0x....             LDR.N    R1,??DataTable8
   \   00000228   0xFA1F 0xFA8A      UXTH     R10,R10          ;; ZeroExt  R10,R10,#+16,#+16
   \   0000022C   0x4451             ADD      R1,R1,R10
   \   0000022E   0x7508             STRB     R0,[R1, #+20]
    328                       index ++;
   \   00000230   0xF11A 0x0A01      ADDS     R10,R10,#+1
    329                      gWaitFlag_step3 = index;
   \   00000234   0x.... 0x....      LDR.W    R0,??DataTable8_15
   \   00000238   0xF8A0 0xA000      STRH     R10,[R0, #+0]
    330                      
    331                      
    332                      memcpy(gSend.buf+index, buf+400, length-400);
   \   0000023C   0xB2A4             UXTH     R4,R4            ;; ZeroExt  R4,R4,#+16,#+16
   \   0000023E   0xF5B4 0x70C8      SUBS     R0,R4,#+400
   \   00000242   0x9005             STR      R0,[SP, #+20]
   \   00000244   0x9812             LDR      R0,[SP, #+72]
   \   00000246   0xF44F 0x71C8      MOV      R1,#+400
   \   0000024A   0x4408             ADD      R0,R0,R1
   \   0000024C   0x9006             STR      R0,[SP, #+24]
   \   0000024E   0x....             LDR.N    R0,??DataTable8
   \   00000250   0xFA1F 0xFA8A      UXTH     R10,R10          ;; ZeroExt  R10,R10,#+16,#+16
   \   00000254   0x4450             ADD      R0,R0,R10
   \   00000256   0xF110 0x0B14      ADDS     R11,R0,#+20
   \   0000025A   0x9A05             LDR      R2,[SP, #+20]
   \   0000025C   0x9906             LDR      R1,[SP, #+24]
   \   0000025E   0x4658             MOV      R0,R11
   \   00000260   0x.... 0x....      BL       __aeabi_memcpy
    333                      index += (length-400);
   \   00000264   0xF5B4 0x70C8      SUBS     R0,R4,#+400
   \   00000268   0xEB10 0x0A0A      ADDS     R10,R0,R10
    334                      *(gSend.buf+index) = '\r';
   \   0000026C   0x200D             MOVS     R0,#+13
   \   0000026E   0x....             LDR.N    R1,??DataTable8
   \   00000270   0xFA1F 0xFA8A      UXTH     R10,R10          ;; ZeroExt  R10,R10,#+16,#+16
   \   00000274   0x4451             ADD      R1,R1,R10
   \   00000276   0x7508             STRB     R0,[R1, #+20]
    335                      index ++;
   \   00000278   0xF11A 0x0A01      ADDS     R10,R10,#+1
    336                      *(gSend.buf+index) = '\n';
   \   0000027C   0x200A             MOVS     R0,#+10
   \   0000027E   0x....             LDR.N    R1,??DataTable8
   \   00000280   0xFA1F 0xFA8A      UXTH     R10,R10          ;; ZeroExt  R10,R10,#+16,#+16
   \   00000284   0x4451             ADD      R1,R1,R10
   \   00000286   0x7508             STRB     R0,[R1, #+20]
    337                      index ++;
   \   00000288   0xF11A 0x0A01      ADDS     R10,R10,#+1
    338                      gSend.total = index;
   \   0000028C   0x....             LDR.N    R0,??DataTable8
   \   0000028E   0xF8A0 0xA000      STRH     R10,[R0, #+0]
    339                      SendStepFlag = 1;
   \   00000292   0x2001             MOVS     R0,#+1
   \   00000294   0x....             LDR.N    R1,??DataTable8_13
   \   00000296   0x7008             STRB     R0,[R1, #+0]
    340                      HAL_BT_Enable_UARTI(1)	;
   \   00000298   0x2001             MOVS     R0,#+1
   \   0000029A   0x.... 0x....      BL       HAL_BT_Enable_UARTI
   \   0000029E   0xE092             B.N      ??wlt2564SendData_0
    341                  }
    342                  else
    343                  {
    344                      char str[4];
    345                      UINT16 index = strlen(BluetoothCMD[BTCMD_SENDDATA]);
   \                     ??wlt2564SendData_1: (+1)
   \   000002A0   0x....             LDR.N    R0,??DataTable8_10
   \   000002A2   0x6840             LDR      R0,[R0, #+4]
   \   000002A4   0x.... 0x....      BL       strlen
   \   000002A8   0x4682             MOV      R10,R0
    346                      memset(gSend.buf, 0, sizeof(gSend.buf));
   \   000002AA   0xF44F 0x6080      MOV      R0,#+1024
   \   000002AE   0x9006             STR      R0,[SP, #+24]
   \   000002B0   0x2000             MOVS     R0,#+0
   \   000002B2   0x9005             STR      R0,[SP, #+20]
   \   000002B4   0x....             LDR.N    R6,??DataTable8_11
   \   000002B6   0x9A05             LDR      R2,[SP, #+20]
   \   000002B8   0x9906             LDR      R1,[SP, #+24]
   \   000002BA   0x0030             MOVS     R0,R6
   \   000002BC   0x.... 0x....      BL       __aeabi_memset
    347                      gSendReady = false;
   \   000002C0   0x2000             MOVS     R0,#+0
   \   000002C2   0x....             LDR.N    R1,??DataTable8_2
   \   000002C4   0x7008             STRB     R0,[R1, #+0]
    348                      gSend.processIndex = 0;        
   \   000002C6   0x2000             MOVS     R0,#+0
   \   000002C8   0x....             LDR.N    R1,??DataTable8
   \   000002CA   0x8088             STRH     R0,[R1, #+4]
    349                      ret = true;
   \   000002CC   0x2001             MOVS     R0,#+1
   \   000002CE   0x0005             MOVS     R5,R0
    350                      sprintf(str, "%d", length);
   \   000002D0   0xB2A4             UXTH     R4,R4            ;; ZeroExt  R4,R4,#+16,#+16
   \   000002D2   0x0022             MOVS     R2,R4
   \   000002D4   0x....             ADR.N    R1,??DataTable4  ;; 0x25, 0x64, 0x00, 0x00
   \   000002D6   0xA801             ADD      R0,SP,#+4
   \   000002D8   0x.... 0x....      BL       sprintf
    351                      memcpy(gSend.buf, BluetoothCMD[BTCMD_SENDDATA], index);
   \   000002DC   0xFA1F 0xFA8A      UXTH     R10,R10          ;; ZeroExt  R10,R10,#+16,#+16
   \   000002E0   0xF8CD 0xA010      STR      R10,[SP, #+16]
   \   000002E4   0x....             LDR.N    R0,??DataTable8_10
   \   000002E6   0x6840             LDR      R0,[R0, #+4]
   \   000002E8   0x9003             STR      R0,[SP, #+12]
   \   000002EA   0x....             LDR.N    R6,??DataTable8_11
   \   000002EC   0x9A04             LDR      R2,[SP, #+16]
   \   000002EE   0x9903             LDR      R1,[SP, #+12]
   \   000002F0   0x0030             MOVS     R0,R6
   \   000002F2   0x.... 0x....      BL       __aeabi_memcpy
    352                      memcpy(gSend.buf+index, str, strlen(str));
   \   000002F6   0xA801             ADD      R0,SP,#+4
   \   000002F8   0x.... 0x....      BL       strlen
   \   000002FC   0x0006             MOVS     R6,R0
   \   000002FE   0xAF01             ADD      R7,SP,#+4
   \   00000300   0x....             LDR.N    R0,??DataTable8
   \   00000302   0xFA1F 0xFA8A      UXTH     R10,R10          ;; ZeroExt  R10,R10,#+16,#+16
   \   00000306   0x4450             ADD      R0,R0,R10
   \   00000308   0xF110 0x0814      ADDS     R8,R0,#+20
   \   0000030C   0x0032             MOVS     R2,R6
   \   0000030E   0x0039             MOVS     R1,R7
   \   00000310   0x4640             MOV      R0,R8
   \   00000312   0x.... 0x....      BL       __aeabi_memcpy
    353                      index += strlen(str);
   \   00000316   0xA801             ADD      R0,SP,#+4
   \   00000318   0x.... 0x....      BL       strlen
   \   0000031C   0xEB10 0x000A      ADDS     R0,R0,R10
   \   00000320   0x4682             MOV      R10,R0
    354                      *(gSend.buf+index) = ',';
   \   00000322   0x202C             MOVS     R0,#+44
   \   00000324   0x....             LDR.N    R1,??DataTable8
   \   00000326   0xFA1F 0xFA8A      UXTH     R10,R10          ;; ZeroExt  R10,R10,#+16,#+16
   \   0000032A   0x4451             ADD      R1,R1,R10
   \   0000032C   0x7508             STRB     R0,[R1, #+20]
    355                      index ++;
   \   0000032E   0xF11A 0x0A01      ADDS     R10,R10,#+1
    356                      memcpy(gSend.buf+index, gRecive.DeviceAddress, BLE_DEVADDRESS_LENGTH);
   \   00000332   0xF05F 0x080E      MOVS     R8,#+14
   \   00000336   0x.... 0x....      LDR.W    R9,??DataTable8_14
   \   0000033A   0x....             LDR.N    R0,??DataTable8
   \   0000033C   0xFA1F 0xFA8A      UXTH     R10,R10          ;; ZeroExt  R10,R10,#+16,#+16
   \   00000340   0x4450             ADD      R0,R0,R10
   \   00000342   0xF110 0x0B14      ADDS     R11,R0,#+20
   \   00000346   0x4642             MOV      R2,R8
   \   00000348   0x4649             MOV      R1,R9
   \   0000034A   0x4658             MOV      R0,R11
   \   0000034C   0x.... 0x....      BL       __aeabi_memcpy
    357                      index += BLE_DEVADDRESS_LENGTH;
   \   00000350   0xF11A 0x0A0E      ADDS     R10,R10,#+14
    358                      *(gSend.buf+index) = '\r';
   \   00000354   0x200D             MOVS     R0,#+13
   \   00000356   0x....             LDR.N    R1,??DataTable8
   \   00000358   0xFA1F 0xFA8A      UXTH     R10,R10          ;; ZeroExt  R10,R10,#+16,#+16
   \   0000035C   0x4451             ADD      R1,R1,R10
   \   0000035E   0x7508             STRB     R0,[R1, #+20]
    359                      index ++;
   \   00000360   0xF11A 0x0A01      ADDS     R10,R10,#+1
    360                      *(gSend.buf+index) = '\n';
   \   00000364   0x200A             MOVS     R0,#+10
   \   00000366   0x....             LDR.N    R1,??DataTable8
   \   00000368   0xFA1F 0xFA8A      UXTH     R10,R10          ;; ZeroExt  R10,R10,#+16,#+16
   \   0000036C   0x4451             ADD      R1,R1,R10
   \   0000036E   0x7508             STRB     R0,[R1, #+20]
    361                      index ++;
   \   00000370   0xF11A 0x0A01      ADDS     R10,R10,#+1
    362                      gWaitFlag = index;
   \   00000374   0x....             LDR.N    R0,??DataTable8_3
   \   00000376   0xF8A0 0xA000      STRH     R10,[R0, #+0]
    363                      memcpy(gSend.buf+index, buf, length);
   \   0000037A   0xB2A4             UXTH     R4,R4            ;; ZeroExt  R4,R4,#+16,#+16
   \   0000037C   0x9812             LDR      R0,[SP, #+72]
   \   0000037E   0x9002             STR      R0,[SP, #+8]
   \   00000380   0x....             LDR.N    R0,??DataTable8
   \   00000382   0xFA1F 0xFA8A      UXTH     R10,R10          ;; ZeroExt  R10,R10,#+16,#+16
   \   00000386   0x4450             ADD      R0,R0,R10
   \   00000388   0xF110 0x0B14      ADDS     R11,R0,#+20
   \   0000038C   0x0022             MOVS     R2,R4
   \   0000038E   0x9902             LDR      R1,[SP, #+8]
   \   00000390   0x4658             MOV      R0,R11
   \   00000392   0x.... 0x....      BL       __aeabi_memcpy
    364                      index += length;
   \   00000396   0xEB14 0x0A0A      ADDS     R10,R4,R10
    365                      *(gSend.buf+index) = '\r';
   \   0000039A   0x200D             MOVS     R0,#+13
   \   0000039C   0x....             LDR.N    R1,??DataTable8
   \   0000039E   0xFA1F 0xFA8A      UXTH     R10,R10          ;; ZeroExt  R10,R10,#+16,#+16
   \   000003A2   0x4451             ADD      R1,R1,R10
   \   000003A4   0x7508             STRB     R0,[R1, #+20]
    366                      index ++;
   \   000003A6   0xF11A 0x0A01      ADDS     R10,R10,#+1
    367                      *(gSend.buf+index) = '\n';
   \   000003AA   0x200A             MOVS     R0,#+10
   \   000003AC   0x....             LDR.N    R1,??DataTable8
   \   000003AE   0xFA1F 0xFA8A      UXTH     R10,R10          ;; ZeroExt  R10,R10,#+16,#+16
   \   000003B2   0x4451             ADD      R1,R1,R10
   \   000003B4   0x7508             STRB     R0,[R1, #+20]
    368                      index ++;
   \   000003B6   0xF11A 0x0A01      ADDS     R10,R10,#+1
    369                      gSend.total = index;
   \   000003BA   0x....             LDR.N    R0,??DataTable8
   \   000003BC   0xF8A0 0xA000      STRH     R10,[R0, #+0]
    370                      HAL_BT_Enable_UARTI(1)	;
   \   000003C0   0x2001             MOVS     R0,#+1
   \   000003C2   0x.... 0x....      BL       HAL_BT_Enable_UARTI
    371                  }
    372              }
    373              return ret;
   \                     ??wlt2564SendData_0: (+1)
   \   000003C6   0x0028             MOVS     R0,R5
   \   000003C8   0xB2C0             UXTB     R0,R0            ;; ZeroExt  R0,R0,#+24,#+24
   \   000003CA   0xB013             ADD      SP,SP,#+76
   \   000003CC   0xE8BD 0x8FF0      POP      {R4-R11,PC}      ;; return
    374          }

   \                                 In section .text, align 2, keep-with-next
    375          bool  wlt2564SendCommand(UINT8 Cmd,UINT8* buf, UINT16 length)
    376          {
   \                     wlt2564SendCommand: (+1)
   \   00000000   0xE92D 0x4FF0      PUSH     {R4-R11,LR}
   \   00000004   0xB083             SUB      SP,SP,#+12
   \   00000006   0x0004             MOVS     R4,R0
   \   00000008   0x468B             MOV      R11,R1
   \   0000000A   0x0015             MOVS     R5,R2
    377              bool ret = false;
   \   0000000C   0x2600             MOVS     R6,#+0
    378            
    379            if((Cmd == BTCMD_SENDDATA)||(Cmd >= BTCMD_END)) return ret;
   \   0000000E   0xB2E4             UXTB     R4,R4            ;; ZeroExt  R4,R4,#+24,#+24
   \   00000010   0x2C01             CMP      R4,#+1
   \   00000012   0xD002             BEQ.N    ??wlt2564SendCommand_0
   \   00000014   0xB2E4             UXTB     R4,R4            ;; ZeroExt  R4,R4,#+24,#+24
   \   00000016   0x2C11             CMP      R4,#+17
   \   00000018   0xDB02             BLT.N    ??wlt2564SendCommand_1
   \                     ??wlt2564SendCommand_0: (+1)
   \   0000001A   0x0030             MOVS     R0,R6
   \   0000001C   0xB2C0             UXTB     R0,R0            ;; ZeroExt  R0,R0,#+24,#+24
   \   0000001E   0xE04C             B.N      ??wlt2564SendCommand_2
    380              if(gSendReady )
   \                     ??wlt2564SendCommand_1: (+1)
   \   00000020   0x....             LDR.N    R0,??DataTable8_2
   \   00000022   0x7800             LDRB     R0,[R0, #+0]
   \   00000024   0x2800             CMP      R0,#+0
   \   00000026   0xD046             BEQ.N    ??wlt2564SendCommand_3
    381              {
    382                  UINT16 index = strlen(BluetoothCMD[Cmd]);
   \   00000028   0x....             LDR.N    R0,??DataTable8_10
   \   0000002A   0xB2E4             UXTB     R4,R4            ;; ZeroExt  R4,R4,#+24,#+24
   \   0000002C   0xF850 0x0024      LDR      R0,[R0, R4, LSL #+2]
   \   00000030   0x.... 0x....      BL       strlen
   \   00000034   0x0007             MOVS     R7,R0
    383                  gSendReady = false;
   \   00000036   0x2000             MOVS     R0,#+0
   \   00000038   0x....             LDR.N    R1,??DataTable8_2
   \   0000003A   0x7008             STRB     R0,[R1, #+0]
    384                  memset(gSend.buf, 0, sizeof(gSend.buf));
   \   0000003C   0xF44F 0x6880      MOV      R8,#+1024
   \   00000040   0xF05F 0x0900      MOVS     R9,#+0
   \   00000044   0x.... 0x....      LDR.W    R10,??DataTable8_11
   \   00000048   0x464A             MOV      R2,R9
   \   0000004A   0x4641             MOV      R1,R8
   \   0000004C   0x4650             MOV      R0,R10
   \   0000004E   0x.... 0x....      BL       __aeabi_memset
    385                  gSend.processIndex =0;
   \   00000052   0x2000             MOVS     R0,#+0
   \   00000054   0x....             LDR.N    R1,??DataTable8
   \   00000056   0x8088             STRH     R0,[R1, #+4]
    386                  memcpy(gSend.buf, BluetoothCMD[Cmd], index);
   \   00000058   0xB2BF             UXTH     R7,R7            ;; ZeroExt  R7,R7,#+16,#+16
   \   0000005A   0x9701             STR      R7,[SP, #+4]
   \   0000005C   0x....             LDR.N    R0,??DataTable8_10
   \   0000005E   0xB2E4             UXTB     R4,R4            ;; ZeroExt  R4,R4,#+24,#+24
   \   00000060   0xF850 0x0024      LDR      R0,[R0, R4, LSL #+2]
   \   00000064   0x9000             STR      R0,[SP, #+0]
   \   00000066   0x.... 0x....      LDR.W    R10,??DataTable8_11
   \   0000006A   0x9A01             LDR      R2,[SP, #+4]
   \   0000006C   0x9900             LDR      R1,[SP, #+0]
   \   0000006E   0x4650             MOV      R0,R10
   \   00000070   0x.... 0x....      BL       __aeabi_memcpy
    387                  memcpy(gSend.buf+index, buf, length);
   \   00000074   0xB2AD             UXTH     R5,R5            ;; ZeroExt  R5,R5,#+16,#+16
   \   00000076   0x....             LDR.N    R0,??DataTable8
   \   00000078   0xB2BF             UXTH     R7,R7            ;; ZeroExt  R7,R7,#+16,#+16
   \   0000007A   0x4438             ADD      R0,R0,R7
   \   0000007C   0xF110 0x0A14      ADDS     R10,R0,#+20
   \   00000080   0x002A             MOVS     R2,R5
   \   00000082   0x4659             MOV      R1,R11
   \   00000084   0x4650             MOV      R0,R10
   \   00000086   0x.... 0x....      BL       __aeabi_memcpy
    388                  index += length;
   \   0000008A   0x19EF             ADDS     R7,R5,R7
    389                  *(gSend.buf+index) = '\r';
   \   0000008C   0x200D             MOVS     R0,#+13
   \   0000008E   0x....             LDR.N    R1,??DataTable8
   \   00000090   0xB2BF             UXTH     R7,R7            ;; ZeroExt  R7,R7,#+16,#+16
   \   00000092   0x4439             ADD      R1,R1,R7
   \   00000094   0x7508             STRB     R0,[R1, #+20]
    390                  index ++;
   \   00000096   0x1C7F             ADDS     R7,R7,#+1
    391                  *(gSend.buf+index) = '\n';
   \   00000098   0x200A             MOVS     R0,#+10
   \   0000009A   0x....             LDR.N    R1,??DataTable8
   \   0000009C   0xB2BF             UXTH     R7,R7            ;; ZeroExt  R7,R7,#+16,#+16
   \   0000009E   0x4439             ADD      R1,R1,R7
   \   000000A0   0x7508             STRB     R0,[R1, #+20]
    392                  index ++;
   \   000000A2   0x1C7F             ADDS     R7,R7,#+1
    393                  gWaitFlag = index;
   \   000000A4   0x....             LDR.N    R0,??DataTable8_3
   \   000000A6   0x8007             STRH     R7,[R0, #+0]
    394                  gSend.total = index;
   \   000000A8   0x....             LDR.N    R0,??DataTable8
   \   000000AA   0x8007             STRH     R7,[R0, #+0]
    395                  HAL_BT_Enable_UARTI(1);
   \   000000AC   0x2001             MOVS     R0,#+1
   \   000000AE   0x.... 0x....      BL       HAL_BT_Enable_UARTI
    396                  ret = true;
   \   000000B2   0x2001             MOVS     R0,#+1
   \   000000B4   0x0006             MOVS     R6,R0
    397              }
    398              return ret;
   \                     ??wlt2564SendCommand_3: (+1)
   \   000000B6   0x0030             MOVS     R0,R6
   \   000000B8   0xB2C0             UXTB     R0,R0            ;; ZeroExt  R0,R0,#+24,#+24
   \                     ??wlt2564SendCommand_2: (+1)
   \   000000BA   0xE8BD 0x8FFE      POP      {R1-R11,PC}      ;; return
    399          }

   \                                 In section .text, align 2, keep-with-next
    400          void WltReciveInterrupt(void)
    401          {
   \                     WltReciveInterrupt: (+1)
   \   00000000   0xB580             PUSH     {R7,LR}
    402              WltReceiveInterruptFuncation(HAL_BT_GetData());
   \   00000002   0x.... 0x....      BL       HAL_BT_GetData
   \   00000006   0xB2C0             UXTB     R0,R0            ;; ZeroExt  R0,R0,#+24,#+24
   \   00000008   0x.... 0x....      BL       WltReceiveInterruptFuncation
    403            //    SEGGER_RTT_printf(0,"%d\n",HAL_BT_GetData());
    404          }
   \   0000000C   0xBD01             POP      {R0,PC}          ;; return

   \                                 In section .text, align 2, keep-with-next
    405          void WltSetSendReady(void)
    406          {
    407              if(gSendReady==false)
   \                     WltSetSendReady: (+1)
   \   00000000   0x....             LDR.N    R0,??DataTable8_2
   \   00000002   0x7800             LDRB     R0,[R0, #+0]
   \   00000004   0x2800             CMP      R0,#+0
   \   00000006   0xD102             BNE.N    ??WltSetSendReady_0
    408              {
    409                  gSendReady=true;
   \   00000008   0x2001             MOVS     R0,#+1
   \   0000000A   0x....             LDR.N    R1,??DataTable8_2
   \   0000000C   0x7008             STRB     R0,[R1, #+0]
    410              }
    411          }
   \                     ??WltSetSendReady_0: (+1)
   \   0000000E   0x4770             BX       LR               ;; return

   \                                 In section .bss, align 1
    412          UINT8 gBtCounter;
   \                     gBtCounter:
   \   00000000                      DS8 1
    413          

   \                                 In section .text, align 2, keep-with-next
    414          void WltSendInterrupt(void)
    415          {
   \                     WltSendInterrupt: (+1)
   \   00000000   0xB580             PUSH     {R7,LR}
    416            #ifdef WDT_ENABLE
    417              HAL_Clear_WatchDog();
   \   00000002   0x.... 0x....      BL       HAL_Clear_WatchDog
    418            #endif 
    419              if( gWaitFlag != gSend.processIndex )
   \   00000006   0x....             LDR.N    R0,??DataTable8_3
   \   00000008   0x8800             LDRH     R0,[R0, #+0]
   \   0000000A   0x....             LDR.N    R1,??DataTable8
   \   0000000C   0x8889             LDRH     R1,[R1, #+4]
   \   0000000E   0x4288             CMP      R0,R1
   \   00000010   0xD011             BEQ.N    ??WltSendInterrupt_0
    420              {
    421                  gBtCounter = 0;
   \   00000012   0x2000             MOVS     R0,#+0
   \   00000014   0x....             LDR.N    R1,??DataTable8_16
   \   00000016   0x7008             STRB     R0,[R1, #+0]
    422                  gWaitOkTimeOut = 0xaa;
   \   00000018   0x20AA             MOVS     R0,#+170
   \   0000001A   0x....             LDR.N    R1,??DataTable8_4
   \   0000001C   0x7008             STRB     R0,[R1, #+0]
    423                  //printf("%c",gSend.buf[gSend.processIndex]);// TEST
    424                  HAL_BT_SendData(gSend.buf[gSend.processIndex++]);
   \   0000001E   0x....             LDR.N    R0,??DataTable8
   \   00000020   0x8880             LDRH     R0,[R0, #+4]
   \   00000022   0x1C41             ADDS     R1,R0,#+1
   \   00000024   0x....             LDR.N    R2,??DataTable8
   \   00000026   0x8091             STRH     R1,[R2, #+4]
   \   00000028   0x....             LDR.N    R1,??DataTable8
   \   0000002A   0xB280             UXTH     R0,R0            ;; ZeroExt  R0,R0,#+16,#+16
   \   0000002C   0x4408             ADD      R0,R1,R0
   \   0000002E   0x7D00             LDRB     R0,[R0, #+20]
   \   00000030   0x.... 0x....      BL       HAL_BT_SendData
   \   00000034   0xE012             B.N      ??WltSendInterrupt_1
    425              }
    426              else
    427              {
    428                  if(gWaitFlag == gSend.total)
   \                     ??WltSendInterrupt_0: (+1)
   \   00000036   0x....             LDR.N    R0,??DataTable8_3
   \   00000038   0x8800             LDRH     R0,[R0, #+0]
   \   0000003A   0x....             LDR.N    R1,??DataTable8
   \   0000003C   0x8809             LDRH     R1,[R1, #+0]
   \   0000003E   0x4288             CMP      R0,R1
   \   00000040   0xD106             BNE.N    ??WltSendInterrupt_2
    429                  {
    430                      gSendReady=true;
   \   00000042   0x2001             MOVS     R0,#+1
   \   00000044   0x....             LDR.N    R1,??DataTable8_2
   \   00000046   0x7008             STRB     R0,[R1, #+0]
    431                      gWaitOkTimeOut = 0x55;
   \   00000048   0x2055             MOVS     R0,#+85
   \   0000004A   0x....             LDR.N    R1,??DataTable8_4
   \   0000004C   0x7008             STRB     R0,[R1, #+0]
   \   0000004E   0xE002             B.N      ??WltSendInterrupt_3
    432                  }
    433                  else
    434                  {
    435                     gWaitOkTimeOut = 0;
   \                     ??WltSendInterrupt_2: (+1)
   \   00000050   0x2000             MOVS     R0,#+0
   \   00000052   0x....             LDR.N    R1,??DataTable8_4
   \   00000054   0x7008             STRB     R0,[R1, #+0]
    436                  }
    437                  HAL_BT_Enable_UARTI(0);
   \                     ??WltSendInterrupt_3: (+1)
   \   00000056   0x2000             MOVS     R0,#+0
   \   00000058   0x.... 0x....      BL       HAL_BT_Enable_UARTI
    438              }
    439          }
   \                     ??WltSendInterrupt_1: (+1)
   \   0000005C   0xBD01             POP      {R0,PC}          ;; return

   \                                 In section .text, align 2, keep-with-next
    440          void WltReceiveInterruptFuncation(UINT8 ch)
    441          {
    442              gRecive.buf[gRecive.total] = ch;
   \                     WltReceiveInterruptFuncation: (+1)
   \   00000000   0x....             LDR.N    R1,??DataTable8_1
   \   00000002   0x....             LDR.N    R2,??DataTable8_1
   \   00000004   0x8812             LDRH     R2,[R2, #+0]
   \   00000006   0x4411             ADD      R1,R1,R2
   \   00000008   0x7508             STRB     R0,[R1, #+20]
    443              //printf("%c",gRecive.buf[gRecive.total]);// TEST
    444              
    445              // START v1.27-2
    446              if(_GET_MAC_First_!=0 && _GET_MAC_First_<=20)
   \   0000000A   0x....             LDR.N    R1,??DataTable8_17
   \   0000000C   0x7809             LDRB     R1,[R1, #+0]
   \   0000000E   0x2900             CMP      R1,#+0
   \   00000010   0xD012             BEQ.N    ??WltReceiveInterruptFuncation_0
   \   00000012   0x....             LDR.N    R1,??DataTable8_17
   \   00000014   0x7809             LDRB     R1,[R1, #+0]
   \   00000016   0x2915             CMP      R1,#+21
   \   00000018   0xDA0E             BGE.N    ??WltReceiveInterruptFuncation_0
    447              {// BT return MAC data is +OK='0x0D''0x0A'0Xxxxxxxxxxxxx so toal is 20 byte.
    448                  if(_GET_MAC_First_ >= 7) BT_Mac[_GET_MAC_First_-7] = ch;
   \   0000001A   0x....             LDR.N    R1,??DataTable8_17
   \   0000001C   0x7809             LDRB     R1,[R1, #+0]
   \   0000001E   0x2907             CMP      R1,#+7
   \   00000020   0xDB05             BLT.N    ??WltReceiveInterruptFuncation_1
   \   00000022   0x....             LDR.N    R1,??DataTable8_18
   \   00000024   0x....             LDR.N    R2,??DataTable8_17
   \   00000026   0x7812             LDRB     R2,[R2, #+0]
   \   00000028   0x4411             ADD      R1,R1,R2
   \   0000002A   0xF801 0x0C07      STRB     R0,[R1, #-7]
    449                  _GET_MAC_First_++;        
   \                     ??WltReceiveInterruptFuncation_1: (+1)
   \   0000002E   0x....             LDR.N    R1,??DataTable8_17
   \   00000030   0x7809             LDRB     R1,[R1, #+0]
   \   00000032   0x1C49             ADDS     R1,R1,#+1
   \   00000034   0x....             LDR.N    R2,??DataTable8_17
   \   00000036   0x7011             STRB     R1,[R2, #+0]
    450              }
    451              // END v1.27-2
    452              
    453              
    454              gRecive.total++;
   \                     ??WltReceiveInterruptFuncation_0: (+1)
   \   00000038   0x....             LDR.N    R1,??DataTable8_1
   \   0000003A   0x8809             LDRH     R1,[R1, #+0]
   \   0000003C   0x1C49             ADDS     R1,R1,#+1
   \   0000003E   0x....             LDR.N    R2,??DataTable8_1
   \   00000040   0x8011             STRH     R1,[R2, #+0]
    455              if( gRecive.total > (MAX_WLT_BUFFER-1))// v1.23-4
   \   00000042   0x....             LDR.N    R1,??DataTable8_1
   \   00000044   0x8809             LDRH     R1,[R1, #+0]
   \   00000046   0xF5B1 0x6F80      CMP      R1,#+1024
   \   0000004A   0xDB02             BLT.N    ??WltReceiveInterruptFuncation_2
    456              {
    457                  gRecive.total = 0;
   \   0000004C   0x2100             MOVS     R1,#+0
   \   0000004E   0x....             LDR.N    R2,??DataTable8_1
   \   00000050   0x8011             STRH     R1,[R2, #+0]
    458              }
    459          }
   \                     ??WltReceiveInterruptFuncation_2: (+1)
   \   00000052   0x4770             BX       LR               ;; return
    460          
    461          
    462          extern UINT16 BT_SETNAME_FLAG;
    463          
    464          
    465          // START v2.1-6

   \                                 In section .text, align 2, keep-with-next
    466          void Wlt_memset(void *s, char c, long n)
    467          {/* store c throughout unsigned char s[n] */
   \                     Wlt_memset: (+1)
   \   00000000   0xB410             PUSH     {R4}
    468            const unsigned char uc = c;
   \   00000002   0x000B             MOVS     R3,R1
    469            unsigned char *su = (unsigned char *)s;
   \   00000004   0x0004             MOVS     R4,R0
    470          
    471            for (; 0 < n; ++su, --n)
   \                     ??Wlt_memset_0: (+1)
   \   00000006   0x2A01             CMP      R2,#+1
   \   00000008   0xDB03             BLT.N    ??Wlt_memset_1
    472            *su = uc;
   \   0000000A   0x7023             STRB     R3,[R4, #+0]
   \   0000000C   0x1C64             ADDS     R4,R4,#+1
   \   0000000E   0x1E52             SUBS     R2,R2,#+1
   \   00000010   0xE7F9             B.N      ??Wlt_memset_0
    473            return ;
   \                     ??Wlt_memset_1: (+1)
   \   00000012   0xBC10             POP      {R4}
   \   00000014   0x4770             BX       LR               ;; return
    474          }

   \                                 In section .text, align 2, keep-with-next
    475          void Wlt_memcpy(void *s1, const void *s2, long n)
    476          {/* copy char s2[n] to s1[n] in any order */
   \                     Wlt_memcpy: (+1)
   \   00000000   0xB430             PUSH     {R4,R5}
    477            char *su1 = (char *)s1;
   \   00000002   0x0003             MOVS     R3,R0
    478            const char *su2 = (const char *)s2;
   \   00000004   0x000C             MOVS     R4,R1
    479            
    480            for(; 0 < n; ++su1, ++su2, --n)
   \                     ??Wlt_memcpy_0: (+1)
   \   00000006   0x2A01             CMP      R2,#+1
   \   00000008   0xDB05             BLT.N    ??Wlt_memcpy_1
    481                *su1 = *su2;
   \   0000000A   0x7825             LDRB     R5,[R4, #+0]
   \   0000000C   0x701D             STRB     R5,[R3, #+0]
   \   0000000E   0x1C5B             ADDS     R3,R3,#+1
   \   00000010   0x1C64             ADDS     R4,R4,#+1
   \   00000012   0x1E52             SUBS     R2,R2,#+1
   \   00000014   0xE7F7             B.N      ??Wlt_memcpy_0
    482            return ;
   \                     ??Wlt_memcpy_1: (+1)
   \   00000016   0xBC30             POP      {R4,R5}
   \   00000018   0x4770             BX       LR               ;; return
    483          }
    484          // END v2.1-6
    485          

   \                                 In section .text, align 4, keep-with-next
    486          UINT16 Wlt25xxGetReciveData(UINT8* data)
    487          {
   \                     Wlt25xxGetReciveData: (+1)
   \   00000000   0xE92D 0x4FF1      PUSH     {R0,R4-R11,LR}
   \   00000004   0xF5AD 0x6D00      SUB      SP,SP,#+2048
   \   00000008   0xB086             SUB      SP,SP,#+24
    488              INT16 adposization = 0;
   \   0000000A   0x2600             MOVS     R6,#+0
    489              INT16 dataPosization = 0;
   \   0000000C   0x2700             MOVS     R7,#+0
    490              UINT16 receivePosization = 0;
   \   0000000E   0xF05F 0x0B00      MOVS     R11,#+0
    491              UINT16 okcount = 0;
   \   00000012   0x2000             MOVS     R0,#+0
   \   00000014   0xF8AD 0x000C      STRH     R0,[SP, #+12]
    492              UINT16 errorcount = 0;
   \   00000018   0x2000             MOVS     R0,#+0
   \   0000001A   0xF8AD 0x000A      STRH     R0,[SP, #+10]
    493          	UINT16 btUpdateInfoPosization = 0;  //zsf
   \   0000001E   0x2000             MOVS     R0,#+0
   \   00000020   0xF8AD 0x0008      STRH     R0,[SP, #+8]
    494              UINT16 macaddressPosization = 0;
   \   00000024   0x2000             MOVS     R0,#+0
   \   00000026   0xF8AD 0x0004      STRH     R0,[SP, #+4]
    495              UINT16 retdatalength = 0;
   \   0000002A   0xF05F 0x0800      MOVS     R8,#+0
    496              UINT16 btgetversionPosization = 0;
   \   0000002E   0x2000             MOVS     R0,#+0
   \   00000030   0xF8AD 0x0006      STRH     R0,[SP, #+6]
    497          	extern UINT ToRead;
    498              BTRECIVE i = BTRECIVE_START;
   \   00000034   0xF05F 0x0900      MOVS     R9,#+0
    499          
    500              static UINT8 packetbuffer[800] = {0};
    501              static UINT16 packetdatalength=0;
    502              static UINT16 packetdataindex=0;
    503              static UINT16 packetstartflag=0;
    504              
    505              //BT HEART
    506              if( TB_HR_CONNECT_BE_SENDED_FLAG == 1 )
   \   00000038   0x.... 0x....      LDR.W    R0,??DataTable19
   \   0000003C   0x7800             LDRB     R0,[R0, #+0]
   \   0000003E   0x2801             CMP      R0,#+1
   \   00000040   0xD10F             BNE.N    ??Wlt25xxGetReciveData_0
    507              {
    508                  if( TB_HR_CONNECT_BE_SENDED_wait == 1000 )
   \   00000042   0x.... 0x....      LDR.W    R0,??DataTable17
   \   00000046   0x8800             LDRH     R0,[R0, #+0]
   \   00000048   0xF5B0 0x7F7A      CMP      R0,#+1000
   \   0000004C   0xD109             BNE.N    ??Wlt25xxGetReciveData_0
    509                  {// every 1 second
    510                      TB_HR_CONNECT_BE_SENDED_wait = 0;
   \   0000004E   0x2000             MOVS     R0,#+0
   \   00000050   0x.... 0x....      LDR.W    R1,??DataTable17
   \   00000054   0x8008             STRH     R0,[R1, #+0]
    511                    //   if(cqwe==0)
    512                      wlt2564SendCommand(BTCMD_CONNECTLE,BlueheartAddressLength_backup,16);
   \   00000056   0x2210             MOVS     R2,#+16
   \   00000058   0x.... 0x....      LDR.W    R1,??DataTable20
   \   0000005C   0x2006             MOVS     R0,#+6
   \   0000005E   0x.... 0x....      BL       wlt2564SendCommand
    513                  }
    514              } 
    515              
    516              UINT8 head[2] = {0x55,0xAA};
   \                     ??Wlt25xxGetReciveData_0: (+1)
   \   00000062   0x.... 0x....      LDR.W    R0,??DataTable18
   \   00000066   0x8800             LDRH     R0,[R0, #+0]
   \   00000068   0xF8AD 0x000E      STRH     R0,[SP, #+14]
    517              if((gWaitOkTimeOut!=0X55)&&(gWaitOkTimeOut!=0XAA)&&(gWaitOkTimeOut>10)&&(gSendReady == 0))
   \   0000006C   0x.... 0x....      LDR.W    R0,??DataTable18_1
   \   00000070   0x7800             LDRB     R0,[R0, #+0]
   \   00000072   0x2855             CMP      R0,#+85
   \   00000074   0xD017             BEQ.N    ??Wlt25xxGetReciveData_1
   \   00000076   0x.... 0x....      LDR.W    R0,??DataTable18_1
   \   0000007A   0x7800             LDRB     R0,[R0, #+0]
   \   0000007C   0x28AA             CMP      R0,#+170
   \   0000007E   0xD012             BEQ.N    ??Wlt25xxGetReciveData_1
   \   00000080   0x.... 0x....      LDR.W    R0,??DataTable18_1
   \   00000084   0x7800             LDRB     R0,[R0, #+0]
   \   00000086   0x280B             CMP      R0,#+11
   \   00000088   0xDB0D             BLT.N    ??Wlt25xxGetReciveData_1
   \   0000008A   0x.... 0x....      LDR.W    R0,??DataTable18_2
   \   0000008E   0x7800             LDRB     R0,[R0, #+0]
   \   00000090   0x2800             CMP      R0,#+0
   \   00000092   0xD108             BNE.N    ??Wlt25xxGetReciveData_1
    518              {
    519                  gWaitFlag = gSend.total;
   \   00000094   0x.... 0x....      LDR.W    R0,??DataTable19_1
   \   00000098   0x8800             LDRH     R0,[R0, #+0]
   \   0000009A   0x.... 0x....      LDR.W    R1,??DataTable19_2
   \   0000009E   0x8008             STRH     R0,[R1, #+0]
    520                  HAL_BT_Enable_UARTI(1); 
   \   000000A0   0x2001             MOVS     R0,#+1
   \   000000A2   0x.... 0x....      BL       HAL_BT_Enable_UARTI
    521              }
    522          
    523          	if(GetUpdateFlag() >= UARTUPDATE_DATA_START)	 //zsf
   \                     ??Wlt25xxGetReciveData_1: (+1)
   \   000000A6   0x.... 0x....      BL       GetUpdateFlag
   \   000000AA   0x2806             CMP      R0,#+6
   \   000000AC   0xF2C0 0x8090      BLT.W    ??Wlt25xxGetReciveData_2
    524          	{
    525          		UINT16 checkSumIndex = 0;
   \   000000B0   0x2400             MOVS     R4,#+0
    526          		UINT16 dataIndex = 0;
   \   000000B2   0x2500             MOVS     R5,#+0
    527          	
    528          		if ((gRecive.buf[gRecive.processIndex]==0x5A) && ((gRecive.total - gRecive.processIndex == 5) || (1024 - gRecive.processIndex + gRecive.total == 5)))
   \   000000B4   0x.... 0x....      LDR.W    R0,??DataTable26
   \   000000B8   0x.... 0x....      LDR.W    R1,??DataTable26
   \   000000BC   0x8889             LDRH     R1,[R1, #+4]
   \   000000BE   0x4408             ADD      R0,R0,R1
   \   000000C0   0x7D00             LDRB     R0,[R0, #+20]
   \   000000C2   0x285A             CMP      R0,#+90
   \   000000C4   0xF040 0x8080      BNE.W    ??Wlt25xxGetReciveData_3
   \   000000C8   0x.... 0x....      LDR.W    R0,??DataTable26
   \   000000CC   0x8800             LDRH     R0,[R0, #+0]
   \   000000CE   0x.... 0x....      LDR.W    R1,??DataTable26
   \   000000D2   0x8889             LDRH     R1,[R1, #+4]
   \   000000D4   0x1A40             SUBS     R0,R0,R1
   \   000000D6   0x2805             CMP      R0,#+5
   \   000000D8   0xD00A             BEQ.N    ??Wlt25xxGetReciveData_4
   \   000000DA   0x.... 0x....      LDR.W    R0,??DataTable26
   \   000000DE   0x8880             LDRH     R0,[R0, #+4]
   \   000000E0   0xF5D0 0x6080      RSBS     R0,R0,#+1024
   \   000000E4   0x.... 0x....      LDR.W    R1,??DataTable26
   \   000000E8   0x8809             LDRH     R1,[R1, #+0]
   \   000000EA   0x1808             ADDS     R0,R1,R0
   \   000000EC   0x2805             CMP      R0,#+5
   \   000000EE   0xD16B             BNE.N    ??Wlt25xxGetReciveData_3
    529          		{
    530          			updateRecOK = 1;
   \                     ??Wlt25xxGetReciveData_4: (+1)
   \   000000F0   0x2001             MOVS     R0,#+1
   \   000000F2   0x.... 0x....      LDR.W    R1,??DataTable19_3
   \   000000F6   0x7008             STRB     R0,[R1, #+0]
    531          	
    532          			checkSumIndex = gRecive.processIndex + 1;
   \   000000F8   0x.... 0x....      LDR.W    R0,??DataTable26
   \   000000FC   0x8880             LDRH     R0,[R0, #+4]
   \   000000FE   0x1C40             ADDS     R0,R0,#+1
   \   00000100   0x0004             MOVS     R4,R0
    533          			if (checkSumIndex > 1023)
   \   00000102   0xB2A4             UXTH     R4,R4            ;; ZeroExt  R4,R4,#+16,#+16
   \   00000104   0xF5B4 0x6F80      CMP      R4,#+1024
   \   00000108   0xDB01             BLT.N    ??Wlt25xxGetReciveData_5
    534          			{
    535          				checkSumIndex  -= 1024;
   \   0000010A   0xF5B4 0x6480      SUBS     R4,R4,#+1024
    536          			}
    537          	
    538          			dataIndex = gRecive.processIndex + 4;
   \                     ??Wlt25xxGetReciveData_5: (+1)
   \   0000010E   0x.... 0x....      LDR.W    R0,??DataTable26
   \   00000112   0x8880             LDRH     R0,[R0, #+4]
   \   00000114   0x1D00             ADDS     R0,R0,#+4
   \   00000116   0x0005             MOVS     R5,R0
    539          			if (dataIndex > 1023)
   \   00000118   0xB2AD             UXTH     R5,R5            ;; ZeroExt  R5,R5,#+16,#+16
   \   0000011A   0xF5B5 0x6F80      CMP      R5,#+1024
   \   0000011E   0xDB01             BLT.N    ??Wlt25xxGetReciveData_6
    540          			{
    541          				dataIndex  -= 1024;
   \   00000120   0xF5B5 0x6580      SUBS     R5,R5,#+1024
    542          			}
    543          	
    544          			if (gRecive.buf[checkSumIndex] + gRecive.buf[dataIndex] == 0xFF)
   \                     ??Wlt25xxGetReciveData_6: (+1)
   \   00000124   0x.... 0x....      LDR.W    R0,??DataTable26
   \   00000128   0xB2A4             UXTH     R4,R4            ;; ZeroExt  R4,R4,#+16,#+16
   \   0000012A   0x4420             ADD      R0,R0,R4
   \   0000012C   0x7D00             LDRB     R0,[R0, #+20]
   \   0000012E   0x.... 0x....      LDR.W    R1,??DataTable26
   \   00000132   0xB2AD             UXTH     R5,R5            ;; ZeroExt  R5,R5,#+16,#+16
   \   00000134   0x4429             ADD      R1,R1,R5
   \   00000136   0x7D09             LDRB     R1,[R1, #+20]
   \   00000138   0x1808             ADDS     R0,R1,R0
   \   0000013A   0x28FF             CMP      R0,#+255
   \   0000013C   0xD144             BNE.N    ??Wlt25xxGetReciveData_3
    545          			{
    546          				if (gRecive.buf[gRecive.processIndex]==0x5A)
   \   0000013E   0x.... 0x....      LDR.W    R0,??DataTable26
   \   00000142   0x.... 0x....      LDR.W    R1,??DataTable26
   \   00000146   0x8889             LDRH     R1,[R1, #+4]
   \   00000148   0x4408             ADD      R0,R0,R1
   \   0000014A   0x7D00             LDRB     R0,[R0, #+20]
   \   0000014C   0x285A             CMP      R0,#+90
   \   0000014E   0xD13B             BNE.N    ??Wlt25xxGetReciveData_3
    547          				{
    548          					if (gRecive.buf[checkSumIndex] == 0xFF)
   \   00000150   0x.... 0x....      LDR.W    R0,??DataTable26
   \   00000154   0xB2A4             UXTH     R4,R4            ;; ZeroExt  R4,R4,#+16,#+16
   \   00000156   0x4420             ADD      R0,R0,R4
   \   00000158   0x7D00             LDRB     R0,[R0, #+20]
   \   0000015A   0x28FF             CMP      R0,#+255
   \   0000015C   0xD107             BNE.N    ??Wlt25xxGetReciveData_7
    549          					{
    550          						SetUpdateFlag(UARTUPDATE_DATA_OK);
   \   0000015E   0x2007             MOVS     R0,#+7
   \   00000160   0x.... 0x....      BL       SetUpdateFlag
    551          						ToRead = 1;
   \   00000164   0x2001             MOVS     R0,#+1
   \   00000166   0x.... 0x....      LDR.W    R1,??DataTable24
   \   0000016A   0x6008             STR      R0,[R1, #+0]
   \   0000016C   0xE015             B.N      ??Wlt25xxGetReciveData_8
    552          					}
    553          					else if (gRecive.buf[checkSumIndex]== 0x01)
   \                     ??Wlt25xxGetReciveData_7: (+1)
   \   0000016E   0x.... 0x....      LDR.W    R0,??DataTable26
   \   00000172   0xB2A4             UXTH     R4,R4            ;; ZeroExt  R4,R4,#+16,#+16
   \   00000174   0x4420             ADD      R0,R0,R4
   \   00000176   0x7D00             LDRB     R0,[R0, #+20]
   \   00000178   0x2801             CMP      R0,#+1
   \   0000017A   0xD10B             BNE.N    ??Wlt25xxGetReciveData_9
    554          					{
    555          						SetUpdateFlag(UARTUPDATE_DATA_COMPLETE);
   \   0000017C   0x2009             MOVS     R0,#+9
   \   0000017E   0x.... 0x....      BL       SetUpdateFlag
    556          						wlt25xxStatus.UpdateCmdStatu = UARTUPDATE_COMPLETE;
   \   00000182   0x.... 0x....      LDR.W    R0,??DataTable32
   \   00000186   0x7880             LDRB     R0,[R0, #+2]
   \   00000188   0xF050 0x00E0      ORRS     R0,R0,#0xE0
   \   0000018C   0x.... 0x....      LDR.W    R1,??DataTable32
   \   00000190   0x7088             STRB     R0,[R1, #+2]
   \   00000192   0xE002             B.N      ??Wlt25xxGetReciveData_8
    557          					}
    558          					else
    559          					{
    560          						SetUpdateFlag(UARTUPDATE_DATA_ERR);
   \                     ??Wlt25xxGetReciveData_9: (+1)
   \   00000194   0x2008             MOVS     R0,#+8
   \   00000196   0x.... 0x....      BL       SetUpdateFlag
    561          					}
    562          					retdatalength = 5;
   \                     ??Wlt25xxGetReciveData_8: (+1)
   \   0000019A   0x2005             MOVS     R0,#+5
   \   0000019C   0x4680             MOV      R8,R0
    563          					gRecive.processIndex += 5;
   \   0000019E   0x.... 0x....      LDR.W    R0,??DataTable26
   \   000001A2   0x8880             LDRH     R0,[R0, #+4]
   \   000001A4   0x1D40             ADDS     R0,R0,#+5
   \   000001A6   0x.... 0x....      LDR.W    R1,??DataTable26
   \   000001AA   0x8088             STRH     R0,[R1, #+4]
    564          					if (gRecive.processIndex > 1023)
   \   000001AC   0x.... 0x....      LDR.W    R0,??DataTable26
   \   000001B0   0x8880             LDRH     R0,[R0, #+4]
   \   000001B2   0xF5B0 0x6F80      CMP      R0,#+1024
   \   000001B6   0xDB07             BLT.N    ??Wlt25xxGetReciveData_3
    565          					{
    566          						gRecive.processIndex = gRecive.processIndex - 1024;
   \   000001B8   0x.... 0x....      LDR.W    R0,??DataTable26
   \   000001BC   0x8880             LDRH     R0,[R0, #+4]
   \   000001BE   0xF5B0 0x6080      SUBS     R0,R0,#+1024
   \   000001C2   0x.... 0x....      LDR.W    R1,??DataTable26
   \   000001C6   0x8088             STRH     R0,[R1, #+4]
    567          					}
    568          	
    569          				}
    570          			}
    571          		}
    572          	
    573          		return retdatalength;
   \                     ??Wlt25xxGetReciveData_3: (+1)
   \   000001C8   0x4640             MOV      R0,R8
   \   000001CA   0xB280             UXTH     R0,R0            ;; ZeroExt  R0,R0,#+16,#+16
   \   000001CC   0xF000 0xBD6A      B.W      ??Wlt25xxGetReciveData_10
    574          	}
    575          
    576          
    577          
    578          
    579          
    580          	
    581              adposization = FindSubString(gRecive.buf,MAX_WLT_BUFFER*2,"\r\n",2,gRecive.processIndex);
   \                     ??Wlt25xxGetReciveData_2: (+1)
   \   000001D0   0x.... 0x....      LDR.W    R0,??DataTable26
   \   000001D4   0x8880             LDRH     R0,[R0, #+4]
   \   000001D6   0x9000             STR      R0,[SP, #+0]
   \   000001D8   0x2302             MOVS     R3,#+2
   \   000001DA   0xA2B8             ADR.N    R2,??Wlt25xxGetReciveData_11  ;; 0x0D, 0x0A, 0x00, 0x00
   \   000001DC   0xF44F 0x6100      MOV      R1,#+2048
   \   000001E0   0x.... 0x....      LDR.W    R0,??DataTable31
   \   000001E4   0x.... 0x....      BL       FindSubString
   \   000001E8   0x0006             MOVS     R6,R0
    582              if(adposization == -1)
   \   000001EA   0xB236             SXTH     R6,R6            ;; SignExt  R6,R6,#+16,#+16
   \   000001EC   0xF116 0x0F01      CMN      R6,#+1
   \   000001F0   0xD103             BNE.N    ??Wlt25xxGetReciveData_12
    583              {
    584                  return retdatalength;
   \   000001F2   0x4640             MOV      R0,R8
   \   000001F4   0xB280             UXTH     R0,R0            ;; ZeroExt  R0,R0,#+16,#+16
   \   000001F6   0xF000 0xBD55      B.W      ??Wlt25xxGetReciveData_10
    585              }
    586              
    587            // Have receive data 
    588            
    589              adposization +=1;
   \                     ??Wlt25xxGetReciveData_12: (+1)
   \   000001FA   0x1C76             ADDS     R6,R6,#+1
    590              for(; i < BTRECIVE_END; i++)
   \                     ??Wlt25xxGetReciveData_13: (+1)
   \   000001FC   0xFA5F 0xF989      UXTB     R9,R9            ;; ZeroExt  R9,R9,#+24,#+24
   \   00000200   0xF1B9 0x0F16      CMP      R9,#+22
   \   00000204   0xDA26             BGE.N    ??Wlt25xxGetReciveData_14
    591              {
    592          #ifdef WDT_ENABLE
    593                  HAL_Clear_WatchDog();
   \   00000206   0x.... 0x....      BL       HAL_Clear_WatchDog
    594          #endif    
    595                  dataPosization = FindSubString(gRecive.buf,MAX_WLT_BUFFER*2,BluetoothRecive[i],strlen(BluetoothRecive[i]),gRecive.processIndex);
   \   0000020A   0x.... 0x....      LDR.W    R0,??DataTable31_1
   \   0000020E   0xFA5F 0xF989      UXTB     R9,R9            ;; ZeroExt  R9,R9,#+24,#+24
   \   00000212   0xF850 0x0029      LDR      R0,[R0, R9, LSL #+2]
   \   00000216   0x.... 0x....      BL       strlen
   \   0000021A   0x.... 0x....      LDR.W    R1,??DataTable26
   \   0000021E   0x8889             LDRH     R1,[R1, #+4]
   \   00000220   0x9100             STR      R1,[SP, #+0]
   \   00000222   0x0003             MOVS     R3,R0
   \   00000224   0xB29B             UXTH     R3,R3            ;; ZeroExt  R3,R3,#+16,#+16
   \   00000226   0x.... 0x....      LDR.W    R0,??DataTable31_1
   \   0000022A   0xFA5F 0xF989      UXTB     R9,R9            ;; ZeroExt  R9,R9,#+24,#+24
   \   0000022E   0xF850 0x2029      LDR      R2,[R0, R9, LSL #+2]
   \   00000232   0xF44F 0x6100      MOV      R1,#+2048
   \   00000236   0x.... 0x....      LDR.W    R0,??DataTable31
   \   0000023A   0x.... 0x....      BL       FindSubString
   \   0000023E   0x0007             MOVS     R7,R0
    596                  if((dataPosization >= 0)&&(dataPosization < 1024))
   \   00000240   0xB23F             SXTH     R7,R7            ;; SignExt  R7,R7,#+16,#+16
   \   00000242   0x2F00             CMP      R7,#+0
   \   00000244   0xD403             BMI.N    ??Wlt25xxGetReciveData_15
   \   00000246   0xB23F             SXTH     R7,R7            ;; SignExt  R7,R7,#+16,#+16
   \   00000248   0xF5B7 0x6F80      CMP      R7,#+1024
   \   0000024C   0xDB02             BLT.N    ??Wlt25xxGetReciveData_14
    597                  {
    598                      break;
    599                  }
    600              }
   \                     ??Wlt25xxGetReciveData_15: (+1)
   \   0000024E   0xF119 0x0901      ADDS     R9,R9,#+1
   \   00000252   0xE7D3             B.N      ??Wlt25xxGetReciveData_13
    601              if((dataPosization == -1)||(i == BTRECIVE_END ))
   \                     ??Wlt25xxGetReciveData_14: (+1)
   \   00000254   0xB23F             SXTH     R7,R7            ;; SignExt  R7,R7,#+16,#+16
   \   00000256   0xF117 0x0F01      CMN      R7,#+1
   \   0000025A   0xD004             BEQ.N    ??Wlt25xxGetReciveData_16
   \   0000025C   0xFA5F 0xF989      UXTB     R9,R9            ;; ZeroExt  R9,R9,#+24,#+24
   \   00000260   0xF1B9 0x0F16      CMP      R9,#+22
   \   00000264   0xD144             BNE.N    ??Wlt25xxGetReciveData_17
    602              {
    603                  dataPosization = FindSubString(gRecive.buf,MAX_WLT_BUFFER*2,head,2,gRecive.processIndex);
                                                                                     ^
Warning[Pe167]: argument of type "UINT8 *" is incompatible with parameter of
          type "char const *"
   \                     ??Wlt25xxGetReciveData_16: (+1)
   \   00000266   0x.... 0x....      LDR.W    R0,??DataTable26
   \   0000026A   0x8880             LDRH     R0,[R0, #+4]
   \   0000026C   0x9000             STR      R0,[SP, #+0]
   \   0000026E   0x2302             MOVS     R3,#+2
   \   00000270   0xF10D 0x020E      ADD      R2,SP,#+14
   \   00000274   0xF44F 0x6100      MOV      R1,#+2048
   \   00000278   0x.... 0x....      LDR.W    R0,??DataTable31
   \   0000027C   0x.... 0x....      BL       FindSubString
   \   00000280   0x0007             MOVS     R7,R0
    604                  if(dataPosization == -1)
   \   00000282   0xB23F             SXTH     R7,R7            ;; SignExt  R7,R7,#+16,#+16
   \   00000284   0xF117 0x0F01      CMN      R7,#+1
   \   00000288   0xD132             BNE.N    ??Wlt25xxGetReciveData_17
    605                  {
    606                      if(adposization > gRecive.processIndex)
   \   0000028A   0x.... 0x....      LDR.W    R0,??DataTable26
   \   0000028E   0x8880             LDRH     R0,[R0, #+4]
   \   00000290   0xB236             SXTH     R6,R6            ;; SignExt  R6,R6,#+16,#+16
   \   00000292   0x42B0             CMP      R0,R6
   \   00000294   0xDA0F             BGE.N    ??Wlt25xxGetReciveData_18
    607                      {
    608                          Wlt_memset(gRecive.buf + gRecive.processIndex, 0, adposization - gRecive.processIndex);
   \   00000296   0xB236             SXTH     R6,R6            ;; SignExt  R6,R6,#+16,#+16
   \   00000298   0x.... 0x....      LDR.W    R0,??DataTable26
   \   0000029C   0x8880             LDRH     R0,[R0, #+4]
   \   0000029E   0x1A32             SUBS     R2,R6,R0
   \   000002A0   0x2100             MOVS     R1,#+0
   \   000002A2   0x.... 0x....      LDR.W    R0,??DataTable26
   \   000002A6   0x.... 0x....      LDR.W    R3,??DataTable26
   \   000002AA   0x889B             LDRH     R3,[R3, #+4]
   \   000002AC   0x4418             ADD      R0,R0,R3
   \   000002AE   0x3014             ADDS     R0,R0,#+20
   \   000002B0   0x.... 0x....      BL       Wlt_memset
   \   000002B4   0xE015             B.N      ??Wlt25xxGetReciveData_19
    609                      }
    610                      else
    611                      {
    612                          Wlt_memset(gRecive.buf + gRecive.processIndex, 0, MAX_WLT_BUFFER - gRecive.processIndex);
   \                     ??Wlt25xxGetReciveData_18: (+1)
   \   000002B6   0x.... 0x....      LDR.W    R0,??DataTable26
   \   000002BA   0x8880             LDRH     R0,[R0, #+4]
   \   000002BC   0xF5D0 0x6280      RSBS     R2,R0,#+1024
   \   000002C0   0x2100             MOVS     R1,#+0
   \   000002C2   0x.... 0x....      LDR.W    R0,??DataTable26
   \   000002C6   0x.... 0x....      LDR.W    R3,??DataTable26
   \   000002CA   0x889B             LDRH     R3,[R3, #+4]
   \   000002CC   0x4418             ADD      R0,R0,R3
   \   000002CE   0x3014             ADDS     R0,R0,#+20
   \   000002D0   0x.... 0x....      BL       Wlt_memset
    613                          Wlt_memset(gRecive.buf, 0, adposization);
   \   000002D4   0xB236             SXTH     R6,R6            ;; SignExt  R6,R6,#+16,#+16
   \   000002D6   0x0032             MOVS     R2,R6
   \   000002D8   0x2100             MOVS     R1,#+0
   \   000002DA   0x.... 0x....      LDR.W    R0,??DataTable31
   \   000002DE   0x.... 0x....      BL       Wlt_memset
    614                      }
    615                      gRecive.processIndex=adposization;
   \                     ??Wlt25xxGetReciveData_19: (+1)
   \   000002E2   0x.... 0x....      LDR.W    R0,??DataTable26
   \   000002E6   0x8086             STRH     R6,[R0, #+4]
    616                      /*
    617                      // START v1.22-2
    618                      if(gRecive.processIndex == gRecive.total)
    619                      {
    620                          memset(gRecive.buf, 0, sizeof(gRecive.buf));
    621                          gRecive.total = 0;    
    622                          gRecive.processIndex = 0; 
    623                      }
    624                      // END v1.22-2
    625                      */
    626                      return retdatalength;
   \   000002E8   0x4640             MOV      R0,R8
   \   000002EA   0xB280             UXTH     R0,R0            ;; ZeroExt  R0,R0,#+16,#+16
   \   000002EC   0xF000 0xBCDA      B.W      ??Wlt25xxGetReciveData_10
    627                  }
    628              }
    629              dataPosization +=1;
   \                     ??Wlt25xxGetReciveData_17: (+1)
   \   000002F0   0x1C7F             ADDS     R7,R7,#+1
    630              switch(i)
                     ^
Warning[Pe546]: transfer of control bypasses initialization of:
            variable "length" (declared at line 688)
            variable "j" (declared at line 689)
            variable "ReceveData" (declared at line 691)
   \   000002F2   0xFA5F 0xF989      UXTB     R9,R9            ;; ZeroExt  R9,R9,#+24,#+24
   \   000002F6   0x4648             MOV      R0,R9
   \   000002F8   0x2800             CMP      R0,#+0
   \   000002FA   0xF000 0x81E6      BEQ.W    ??Wlt25xxGetReciveData_20
   \   000002FE   0x2801             CMP      R0,#+1
   \   00000300   0xF000 0x8251      BEQ.W    ??Wlt25xxGetReciveData_21
   \   00000304   0x2802             CMP      R0,#+2
   \   00000306   0xF000 0x826C      BEQ.W    ??Wlt25xxGetReciveData_22
   \   0000030A   0x2803             CMP      R0,#+3
   \   0000030C   0xF000 0x80DE      BEQ.W    ??Wlt25xxGetReciveData_23
   \   00000310   0x2804             CMP      R0,#+4
   \   00000312   0xF000 0x80BC      BEQ.W    ??Wlt25xxGetReciveData_24
   \   00000316   0x2805             CMP      R0,#+5
   \   00000318   0xF000 0x80D2      BEQ.W    ??Wlt25xxGetReciveData_25
   \   0000031C   0x2806             CMP      R0,#+6
   \   0000031E   0xF000 0x830A      BEQ.W    ??Wlt25xxGetReciveData_26
   \   00000322   0x2807             CMP      R0,#+7
   \   00000324   0xF000 0x82FC      BEQ.W    ??Wlt25xxGetReciveData_27
   \   00000328   0x2808             CMP      R0,#+8
   \   0000032A   0xF000 0x82D8      BEQ.W    ??Wlt25xxGetReciveData_28
   \   0000032E   0x2809             CMP      R0,#+9
   \   00000330   0xD025             BEQ.N    ??Wlt25xxGetReciveData_29
   \   00000332   0x280B             CMP      R0,#+11
   \   00000334   0xF000 0x824C      BEQ.W    ??Wlt25xxGetReciveData_30
   \   00000338   0x280C             CMP      R0,#+12
   \   0000033A   0xF000 0x828A      BEQ.W    ??Wlt25xxGetReciveData_31
   \   0000033E   0x280D             CMP      R0,#+13
   \   00000340   0xF000 0x8290      BEQ.W    ??Wlt25xxGetReciveData_32
   \   00000344   0x280E             CMP      R0,#+14
   \   00000346   0xF000 0x82A8      BEQ.W    ??Wlt25xxGetReciveData_33
   \   0000034A   0x280F             CMP      R0,#+15
   \   0000034C   0xF000 0x82AA      BEQ.W    ??Wlt25xxGetReciveData_34
   \   00000350   0x2810             CMP      R0,#+16
   \   00000352   0xF000 0x82B2      BEQ.W    ??Wlt25xxGetReciveData_35
   \   00000356   0x2811             CMP      R0,#+17
   \   00000358   0xF000 0x83CA      BEQ.W    ??Wlt25xxGetReciveData_36
   \   0000035C   0x2812             CMP      R0,#+18
   \   0000035E   0xF000 0x841C      BEQ.W    ??Wlt25xxGetReciveData_37
   \   00000362   0x2813             CMP      R0,#+19
   \   00000364   0xF000 0x841A      BEQ.W    ??Wlt25xxGetReciveData_38
   \   00000368   0x2814             CMP      R0,#+20
   \   0000036A   0xF000 0x8418      BEQ.W    ??Wlt25xxGetReciveData_39
   \   0000036E   0x2815             CMP      R0,#+21
   \   00000370   0xF000 0x83C9      BEQ.W    ??Wlt25xxGetReciveData_40
   \   00000374   0x2816             CMP      R0,#+22
   \   00000376   0xF000 0x82E7      BEQ.W    ??Wlt25xxGetReciveData_41
   \   0000037A   0xF000 0xBC11      B.W      ??Wlt25xxGetReciveData_42
    631              {
    632                  case BTRECIVE_OK:
    633                            okcount++;
   \                     ??Wlt25xxGetReciveData_29: (+1)
   \   0000037E   0xF8BD 0x000C      LDRH     R0,[SP, #+12]
   \   00000382   0x1C40             ADDS     R0,R0,#+1
   \   00000384   0xF8AD 0x000C      STRH     R0,[SP, #+12]
    634                            if(wlt25xxStatus.Mode)
   \   00000388   0x.... 0x....      LDR.W    R0,??DataTable32
   \   0000038C   0x7840             LDRB     R0,[R0, #+1]
   \   0000038E   0xF010 0x0001      ANDS     R0,R0,#0x1
   \   00000392   0x2800             CMP      R0,#+0
   \   00000394   0xD017             BEQ.N    ??Wlt25xxGetReciveData_43
    635                            {
    636                                if(wlt25xxStatus.Scanning)	
   \   00000396   0x.... 0x....      LDR.W    R0,??DataTable32
   \   0000039A   0x7840             LDRB     R0,[R0, #+1]
   \   0000039C   0xF3C0 0x0080      UBFX     R0,R0,#+2,#+1
   \   000003A0   0xB2C0             UXTB     R0,R0            ;; ZeroExt  R0,R0,#+24,#+24
   \   000003A2   0x2800             CMP      R0,#+0
   \   000003A4   0xD00F             BEQ.N    ??Wlt25xxGetReciveData_43
    637                                {
    638                                    wlt25xxStatus.Scanning=false;
   \   000003A6   0x.... 0x....      LDR.W    R0,??DataTable32
   \   000003AA   0x7840             LDRB     R0,[R0, #+1]
   \   000003AC   0xF010 0x00FB      ANDS     R0,R0,#0xFB
   \   000003B0   0x.... 0x....      LDR.W    R1,??DataTable32
   \   000003B4   0x7048             STRB     R0,[R1, #+1]
    639                                    wlt25xxStatus.ReceiveSacnOk=true;
   \   000003B6   0x.... 0x....      LDR.W    R0,??DataTable32
   \   000003BA   0x7840             LDRB     R0,[R0, #+1]
   \   000003BC   0xF050 0x0008      ORRS     R0,R0,#0x8
   \   000003C0   0x.... 0x....      LDR.W    R1,??DataTable32
   \   000003C4   0x7048             STRB     R0,[R1, #+1]
    640                                }
    641                            }
    642                            if(SendStepFlag==1)
   \                     ??Wlt25xxGetReciveData_43: (+1)
   \   000003C6   0x.... 0x....      LDR.W    R0,??DataTable34
   \   000003CA   0x7800             LDRB     R0,[R0, #+0]
   \   000003CC   0x2801             CMP      R0,#+1
   \   000003CE   0xD110             BNE.N    ??Wlt25xxGetReciveData_44
    643                            {
    644                                SendStepFlag++;
   \   000003D0   0x.... 0x....      LDR.W    R0,??DataTable34
   \   000003D4   0x7800             LDRB     R0,[R0, #+0]
   \   000003D6   0x1C40             ADDS     R0,R0,#+1
   \   000003D8   0x.... 0x....      LDR.W    R1,??DataTable34
   \   000003DC   0x7008             STRB     R0,[R1, #+0]
    645                                gWaitFlag = gWaitFlag_step2;
   \   000003DE   0x.... 0x....      LDR.W    R0,??DataTable34_1
   \   000003E2   0x8800             LDRH     R0,[R0, #+0]
   \   000003E4   0x.... 0x....      LDR.W    R1,??DataTable19_2
   \   000003E8   0x8008             STRH     R0,[R1, #+0]
    646                                HAL_BT_Enable_UARTI(1);      
   \   000003EA   0x2001             MOVS     R0,#+1
   \   000003EC   0x.... 0x....      BL       HAL_BT_Enable_UARTI
   \   000003F0   0xE023             B.N      ??Wlt25xxGetReciveData_45
    647                            }
    648                            else if(SendStepFlag == 3)
   \                     ??Wlt25xxGetReciveData_44: (+1)
   \   000003F2   0x.... 0x....      LDR.W    R0,??DataTable34
   \   000003F6   0x7800             LDRB     R0,[R0, #+0]
   \   000003F8   0x2803             CMP      R0,#+3
   \   000003FA   0xD10D             BNE.N    ??Wlt25xxGetReciveData_46
    649                            {
    650                                SendStepFlag = 0;
   \   000003FC   0x2000             MOVS     R0,#+0
   \   000003FE   0x.... 0x....      LDR.W    R1,??DataTable34
   \   00000402   0x7008             STRB     R0,[R1, #+0]
    651                                gWaitFlag = gSend.total;
   \   00000404   0x.... 0x....      LDR.W    R0,??DataTable19_1
   \   00000408   0x8800             LDRH     R0,[R0, #+0]
   \   0000040A   0x.... 0x....      LDR.W    R1,??DataTable19_2
   \   0000040E   0x8008             STRH     R0,[R1, #+0]
    652                                HAL_BT_Enable_UARTI(1);
   \   00000410   0x2001             MOVS     R0,#+1
   \   00000412   0x.... 0x....      BL       HAL_BT_Enable_UARTI
   \   00000416   0xE010             B.N      ??Wlt25xxGetReciveData_45
    653                            }
    654                            else if(gWaitFlag != gSend.total)
   \                     ??Wlt25xxGetReciveData_46: (+1)
   \   00000418   0x.... 0x....      LDR.W    R0,??DataTable19_2
   \   0000041C   0x8800             LDRH     R0,[R0, #+0]
   \   0000041E   0x.... 0x....      LDR.W    R1,??DataTable19_1
   \   00000422   0x8809             LDRH     R1,[R1, #+0]
   \   00000424   0x4288             CMP      R0,R1
   \   00000426   0xD008             BEQ.N    ??Wlt25xxGetReciveData_45
    655                            {
    656                                gWaitFlag = gSend.total;
   \   00000428   0x.... 0x....      LDR.W    R0,??DataTable19_1
   \   0000042C   0x8800             LDRH     R0,[R0, #+0]
   \   0000042E   0x.... 0x....      LDR.W    R1,??DataTable19_2
   \   00000432   0x8008             STRH     R0,[R1, #+0]
    657                                HAL_BT_Enable_UARTI(1);
   \   00000434   0x2001             MOVS     R0,#+1
   \   00000436   0x.... 0x....      BL       HAL_BT_Enable_UARTI
    658                            }
    659                            if(GetBleNameFlag())
   \                     ??Wlt25xxGetReciveData_45: (+1)
   \   0000043A   0x.... 0x....      BL       GetBleNameFlag
   \   0000043E   0x2800             CMP      R0,#+0
   \   00000440   0xD002             BEQ.N    ??Wlt25xxGetReciveData_47
    660                            {
    661                                SetBleNameFlag(0);
   \   00000442   0x2000             MOVS     R0,#+0
   \   00000444   0x.... 0x....      BL       SetBleNameFlag
    662                            }
    663          				     if(GetUpdateFlag() == UARTUPDATE_CMD_UPDATE)   //lizhao
   \                     ??Wlt25xxGetReciveData_47: (+1)
   \   00000448   0x.... 0x....      BL       GetUpdateFlag
   \   0000044C   0x2804             CMP      R0,#+4
   \   0000044E   0xD10C             BNE.N    ??Wlt25xxGetReciveData_48
    664              {
    665                  wlt25xx_Set_CmdStatu(0);
   \   00000450   0x2000             MOVS     R0,#+0
   \   00000452   0x.... 0x....      BL       wlt25xx_Set_CmdStatu
    666                  wlt25xxStatus.UpdateCmdStatu = UPDATE_CMD_UPDATE_COMPLETE;
   \   00000456   0x.... 0x....      LDR.W    R0,??DataTable32
   \   0000045A   0x7880             LDRB     R0,[R0, #+2]
   \   0000045C   0xF010 0x001F      ANDS     R0,R0,#0x1F
   \   00000460   0xF050 0x0020      ORRS     R0,R0,#0x20
   \   00000464   0x.... 0x....      LDR.W    R1,??DataTable32
   \   00000468   0x7088             STRB     R0,[R1, #+2]
    667              }
    668              if(GetUpdateFlag() == UARTUPDATE_CMD_SEND)   //zsf
   \                     ??Wlt25xxGetReciveData_48: (+1)
   \   0000046A   0x.... 0x....      BL       GetUpdateFlag
   \   0000046E   0x2805             CMP      R0,#+5
   \   00000470   0xD10C             BNE.N    ??Wlt25xxGetReciveData_49
    669              {
    670                  wlt25xx_Set_CmdStatu(0);
   \   00000472   0x2000             MOVS     R0,#+0
   \   00000474   0x.... 0x....      BL       wlt25xx_Set_CmdStatu
    671                  wlt25xxStatus.UpdateCmdStatu = UPDATE_CMD_UARTUPDATE_COMPLETE;
   \   00000478   0x.... 0x....      LDR.W    R0,??DataTable32
   \   0000047C   0x7880             LDRB     R0,[R0, #+2]
   \   0000047E   0xF010 0x001F      ANDS     R0,R0,#0x1F
   \   00000482   0xF050 0x00C0      ORRS     R0,R0,#0xC0
   \   00000486   0x.... 0x....      LDR.W    R1,??DataTable32
   \   0000048A   0x7088             STRB     R0,[R1, #+2]
    672              }
    673                            break;
   \                     ??Wlt25xxGetReciveData_49: (+1)
   \   0000048C   0xE388             B.N      ??Wlt25xxGetReciveData_50
    674          				  
    675                  case BTCMD_LENGTH:
    676                            if(SendStepFlag == 2)
   \                     ??Wlt25xxGetReciveData_24: (+1)
   \   0000048E   0x.... 0x....      LDR.W    R0,??DataTable34
   \   00000492   0x7800             LDRB     R0,[R0, #+0]
   \   00000494   0x2802             CMP      R0,#+2
   \   00000496   0xD10F             BNE.N    ??Wlt25xxGetReciveData_51
    677                            {
    678                                SendStepFlag++;
   \   00000498   0x.... 0x....      LDR.W    R0,??DataTable34
   \   0000049C   0x7800             LDRB     R0,[R0, #+0]
   \   0000049E   0x1C40             ADDS     R0,R0,#+1
   \   000004A0   0x.... 0x....      LDR.W    R1,??DataTable34
   \   000004A4   0x7008             STRB     R0,[R1, #+0]
    679                                gWaitFlag = gWaitFlag_step3;
   \   000004A6   0x.... 0x....      LDR.W    R0,??DataTable34_2
   \   000004AA   0x8800             LDRH     R0,[R0, #+0]
   \   000004AC   0x.... 0x....      LDR.W    R1,??DataTable19_2
   \   000004B0   0x8008             STRH     R0,[R1, #+0]
    680                                HAL_BT_Enable_UARTI(1);  
   \   000004B2   0x2001             MOVS     R0,#+1
   \   000004B4   0x.... 0x....      BL       HAL_BT_Enable_UARTI
    681                            }
    682                            break;
   \                     ??Wlt25xxGetReciveData_51: (+1)
   \   000004B8   0xE372             B.N      ??Wlt25xxGetReciveData_50
   \   000004BA   0xBF00             Nop      
   \                     ??Wlt25xxGetReciveData_11:
   \   000004BC   0x0D 0x0A          DC8      0x0D, 0x0A, 0x00, 0x00
   \              0x00 0x00    
    683                  case BTRECIVE_ERR:
    684                            errorcount++;
   \                     ??Wlt25xxGetReciveData_25: (+1)
   \   000004C0   0xF8BD 0x000A      LDRH     R0,[SP, #+10]
   \   000004C4   0x1C40             ADDS     R0,R0,#+1
   \   000004C6   0xF8AD 0x000A      STRH     R0,[SP, #+10]
    685                            break;
   \   000004CA   0xE369             B.N      ??Wlt25xxGetReciveData_50
    686                  case BTCMD_RECVDATA:
    687                            receivePosization=dataPosization;
   \                     ??Wlt25xxGetReciveData_23: (+1)
   \   000004CC   0x0038             MOVS     R0,R7
   \   000004CE   0xB280             UXTH     R0,R0            ;; ZeroExt  R0,R0,#+16,#+16
   \   000004D0   0x4683             MOV      R11,R0
    688                            UINT8 length = 0;
   \   000004D2   0x2400             MOVS     R4,#+0
    689                            int j=0;
   \   000004D4   0x2500             MOVS     R5,#+0
    690                            UINT8* pRecvData;
    691                            UINT8 ReceveData[1024] = {0};
   \   000004D6   0xF50D 0x6083      ADD      R0,SP,#+1048
   \   000004DA   0xF44F 0x6180      MOV      R1,#+1024
   \   000004DE   0x.... 0x....      BL       __aeabi_memclr4
    692                            if(dataPosization>adposization)
   \   000004E2   0x0030             MOVS     R0,R6
   \   000004E4   0x0039             MOVS     R1,R7
   \   000004E6   0xB200             SXTH     R0,R0            ;; SignExt  R0,R0,#+16,#+16
   \   000004E8   0xB209             SXTH     R1,R1            ;; SignExt  R1,R1,#+16,#+16
   \   000004EA   0x4288             CMP      R0,R1
   \   000004EC   0xDA20             BGE.N    ??Wlt25xxGetReciveData_52
    693                            {        
    694                                Wlt_memcpy(ReceveData,gRecive.buf+receivePosization,MAX_WLT_BUFFER-receivePosization);
   \   000004EE   0xFA1F 0xFB8B      UXTH     R11,R11          ;; ZeroExt  R11,R11,#+16,#+16
   \   000004F2   0xF5DB 0x6280      RSBS     R2,R11,#+1024
   \   000004F6   0x.... 0x....      LDR.W    R0,??DataTable26
   \   000004FA   0xFA1F 0xFB8B      UXTH     R11,R11          ;; ZeroExt  R11,R11,#+16,#+16
   \   000004FE   0x4458             ADD      R0,R0,R11
   \   00000500   0xF110 0x0114      ADDS     R1,R0,#+20
   \   00000504   0xF50D 0x6083      ADD      R0,SP,#+1048
   \   00000508   0x.... 0x....      BL       Wlt_memcpy
    695                                Wlt_memcpy(ReceveData+MAX_WLT_BUFFER-receivePosization,gRecive.buf,receivePosization);
   \   0000050C   0xFA1F 0xFB8B      UXTH     R11,R11          ;; ZeroExt  R11,R11,#+16,#+16
   \   00000510   0x465A             MOV      R2,R11
   \   00000512   0x.... 0x....      LDR.W    R1,??DataTable31
   \   00000516   0xF50D 0x6083      ADD      R0,SP,#+1048
   \   0000051A   0xFA1F 0xFB8B      UXTH     R11,R11          ;; ZeroExt  R11,R11,#+16,#+16
   \   0000051E   0xF1DB 0x0300      RSBS     R3,R11,#+0
   \   00000522   0x4418             ADD      R0,R0,R3
   \   00000524   0xF44F 0x6380      MOV      R3,#+1024
   \   00000528   0x4418             ADD      R0,R0,R3
   \   0000052A   0x.... 0x....      BL       Wlt_memcpy
   \   0000052E   0xE00F             B.N      ??Wlt25xxGetReciveData_53
    696                            }
    697                            else
    698                            {
    699                                Wlt_memcpy(ReceveData,gRecive.buf+receivePosization,adposization- receivePosization);
   \                     ??Wlt25xxGetReciveData_52: (+1)
   \   00000530   0xB236             SXTH     R6,R6            ;; SignExt  R6,R6,#+16,#+16
   \   00000532   0xFA1F 0xFB8B      UXTH     R11,R11          ;; ZeroExt  R11,R11,#+16,#+16
   \   00000536   0xEBB6 0x020B      SUBS     R2,R6,R11
   \   0000053A   0x.... 0x....      LDR.W    R0,??DataTable26
   \   0000053E   0xFA1F 0xFB8B      UXTH     R11,R11          ;; ZeroExt  R11,R11,#+16,#+16
   \   00000542   0x4458             ADD      R0,R0,R11
   \   00000544   0xF110 0x0114      ADDS     R1,R0,#+20
   \   00000548   0xF50D 0x6083      ADD      R0,SP,#+1048
   \   0000054C   0x.... 0x....      BL       Wlt_memcpy
    700                            }
    701                            pRecvData = ReceveData;
   \                     ??Wlt25xxGetReciveData_53: (+1)
   \   00000550   0xF50D 0x6083      ADD      R0,SP,#+1048
   \   00000554   0x4682             MOV      R10,R0
    702                            for(; j<3; j++)
   \                     ??Wlt25xxGetReciveData_54: (+1)
   \   00000556   0x2D03             CMP      R5,#+3
   \   00000558   0xDA0B             BGE.N    ??Wlt25xxGetReciveData_55
    703                            {
    704                                if(*(pRecvData+j) == ',')
   \   0000055A   0xF81A 0x0005      LDRB     R0,[R10, R5]
   \   0000055E   0x282C             CMP      R0,#+44
   \   00000560   0xD007             BEQ.N    ??Wlt25xxGetReciveData_55
    705                              {
    706                                    break;
    707                              }
    708                                length *= 10;
   \                     ??Wlt25xxGetReciveData_56: (+1)
   \   00000562   0x200A             MOVS     R0,#+10
   \   00000564   0x4344             MULS     R4,R0,R4
    709                                length = length +*(pRecvData+j)-'0';;
   \   00000566   0xF81A 0x0005      LDRB     R0,[R10, R5]
   \   0000056A   0x3830             SUBS     R0,R0,#+48
   \   0000056C   0x1904             ADDS     R4,R0,R4
    710                            }
   \   0000056E   0x1C6D             ADDS     R5,R5,#+1
   \   00000570   0xE7F1             B.N      ??Wlt25xxGetReciveData_54
    711                            pRecvData = pRecvData +j+1; 
   \                     ??Wlt25xxGetReciveData_55: (+1)
   \   00000572   0xEB0A 0x0005      ADD      R0,R10,R5
   \   00000576   0xF110 0x0A01      ADDS     R10,R0,#+1
    712                            if(wlt25xxStatus.Mode)
   \   0000057A   0x.... 0x....      LDR.W    R0,??DataTable32
   \   0000057E   0x7840             LDRB     R0,[R0, #+1]
   \   00000580   0xF010 0x0001      ANDS     R0,R0,#0x1
   \   00000584   0x2800             CMP      R0,#+0
   \   00000586   0xD013             BEQ.N    ??Wlt25xxGetReciveData_57
    713                            {
    714                                TB_HR_CONNECT_BE_SENDED_FLAG = 0;// v1.24-1
   \   00000588   0x2000             MOVS     R0,#+0
   \   0000058A   0x.... 0x....      LDR.W    R1,??DataTable19
   \   0000058E   0x7008             STRB     R0,[R1, #+0]
    715                                pRecvData -= 3;//wcq
   \   00000590   0xF1BA 0x0A03      SUBS     R10,R10,#+3
    716                                wlt25xxStatus.HeartData=*pRecvData;
   \   00000594   0xF89A 0x0000      LDRB     R0,[R10, #+0]
   \   00000598   0x.... 0x....      LDR.W    R1,??DataTable32
   \   0000059C   0x7008             STRB     R0,[R1, #+0]
    717                                wlt25xxStatus.HeartOk=1;
   \   0000059E   0x.... 0x....      LDR.W    R0,??DataTable32
   \   000005A2   0x7840             LDRB     R0,[R0, #+1]
   \   000005A4   0xF050 0x0010      ORRS     R0,R0,#0x10
   \   000005A8   0x.... 0x....      LDR.W    R1,??DataTable32
   \   000005AC   0x7048             STRB     R0,[R1, #+1]
   \   000005AE   0xE08B             B.N      ??Wlt25xxGetReciveData_58
    718                            }
    719                            else
    720                            {
    721                                if((*(pRecvData)==0x55&&*(pRecvData+1)==0xAA)&&(packetstartflag == 0))
   \                     ??Wlt25xxGetReciveData_57: (+1)
   \   000005B0   0xF89A 0x0000      LDRB     R0,[R10, #+0]
   \   000005B4   0x2855             CMP      R0,#+85
   \   000005B6   0xD12D             BNE.N    ??Wlt25xxGetReciveData_59
   \   000005B8   0xF89A 0x0001      LDRB     R0,[R10, #+1]
   \   000005BC   0x28AA             CMP      R0,#+170
   \   000005BE   0xD129             BNE.N    ??Wlt25xxGetReciveData_59
   \   000005C0   0x.... 0x....      LDR.W    R0,??DataTable35_1
   \   000005C4   0x8800             LDRH     R0,[R0, #+0]
   \   000005C6   0x2800             CMP      R0,#+0
   \   000005C8   0xD124             BNE.N    ??Wlt25xxGetReciveData_59
    722                                {
    723                                    packetdatalength =(*(pRecvData+7))<<8;
   \   000005CA   0xF89A 0x0007      LDRB     R0,[R10, #+7]
   \   000005CE   0x0200             LSLS     R0,R0,#+8
   \   000005D0   0x.... 0x....      LDR.W    R1,??DataTable35_2
   \   000005D4   0x8008             STRH     R0,[R1, #+0]
    724                                    packetdatalength +=*(pRecvData+6);
   \   000005D6   0x.... 0x....      LDR.W    R0,??DataTable35_2
   \   000005DA   0x8800             LDRH     R0,[R0, #+0]
   \   000005DC   0xF89A 0x1006      LDRB     R1,[R10, #+6]
   \   000005E0   0x1808             ADDS     R0,R1,R0
   \   000005E2   0x.... 0x....      LDR.W    R1,??DataTable35_2
   \   000005E6   0x8008             STRH     R0,[R1, #+0]
    725                                    packetdatalength += 10;
   \   000005E8   0x.... 0x....      LDR.W    R0,??DataTable35_2
   \   000005EC   0x8800             LDRH     R0,[R0, #+0]
   \   000005EE   0x300A             ADDS     R0,R0,#+10
   \   000005F0   0x.... 0x....      LDR.W    R1,??DataTable35_2
   \   000005F4   0x8008             STRH     R0,[R1, #+0]
    726                                    packetstartflag=1;
   \   000005F6   0x2001             MOVS     R0,#+1
   \   000005F8   0x.... 0x....      LDR.W    R1,??DataTable35_1
   \   000005FC   0x8008             STRH     R0,[R1, #+0]
    727                                    packetdataindex=0;
   \   000005FE   0x2000             MOVS     R0,#+0
   \   00000600   0x.... 0x....      LDR.W    R1,??DataTable35_3
   \   00000604   0x8008             STRH     R0,[R1, #+0]
    728                                    Wlt_memset(packetbuffer,0,800);
   \   00000606   0xF44F 0x7248      MOV      R2,#+800
   \   0000060A   0x2100             MOVS     R1,#+0
   \   0000060C   0x.... 0x....      LDR.W    R0,??DataTable35_4
   \   00000610   0x.... 0x....      BL       Wlt_memset
    729                                }
    730                                if(packetstartflag==1)
   \                     ??Wlt25xxGetReciveData_59: (+1)
   \   00000614   0x.... 0x....      LDR.W    R0,??DataTable35_1
   \   00000618   0x8800             LDRH     R0,[R0, #+0]
   \   0000061A   0x2801             CMP      R0,#+1
   \   0000061C   0xD152             BNE.N    ??Wlt25xxGetReciveData_60
    731                                {
    732                                    Wlt_memcpy(packetbuffer+packetdataindex, pRecvData, length);
   \   0000061E   0xB2E4             UXTB     R4,R4            ;; ZeroExt  R4,R4,#+24,#+24
   \   00000620   0x0022             MOVS     R2,R4
   \   00000622   0x4651             MOV      R1,R10
   \   00000624   0x.... 0x....      LDR.W    R0,??DataTable35_4
   \   00000628   0x.... 0x....      LDR.W    R3,??DataTable35_3
   \   0000062C   0x881B             LDRH     R3,[R3, #+0]
   \   0000062E   0x4418             ADD      R0,R0,R3
   \   00000630   0x.... 0x....      BL       Wlt_memcpy
    733                                    packetdataindex+=length;
   \   00000634   0x.... 0x....      LDR.W    R0,??DataTable35_3
   \   00000638   0x8800             LDRH     R0,[R0, #+0]
   \   0000063A   0xB2E4             UXTB     R4,R4            ;; ZeroExt  R4,R4,#+24,#+24
   \   0000063C   0x1820             ADDS     R0,R4,R0
   \   0000063E   0x.... 0x....      LDR.W    R1,??DataTable35_3
   \   00000642   0x8008             STRH     R0,[R1, #+0]
    734                                    if(packetdatalength>packetdataindex)
   \   00000644   0x.... 0x....      LDR.W    R0,??DataTable35_3
   \   00000648   0x8800             LDRH     R0,[R0, #+0]
   \   0000064A   0x.... 0x....      LDR.W    R1,??DataTable35_2
   \   0000064E   0x8809             LDRH     R1,[R1, #+0]
   \   00000650   0x4288             CMP      R0,R1
   \   00000652   0xD21E             BCS.N    ??Wlt25xxGetReciveData_61
    735                                    {
    736                                        if(length<20)
   \   00000654   0xB2E4             UXTB     R4,R4            ;; ZeroExt  R4,R4,#+24,#+24
   \   00000656   0x2C14             CMP      R4,#+20
   \   00000658   0xDA18             BGE.N    ??Wlt25xxGetReciveData_62
    737                                        {
    738                                            retdatalength=packetdataindex;
   \   0000065A   0x.... 0x....      LDR.W    R0,??DataTable35_3
   \   0000065E   0x8800             LDRH     R0,[R0, #+0]
   \   00000660   0x4680             MOV      R8,R0
    739                                            Wlt_memcpy(data, packetbuffer, retdatalength);
   \   00000662   0xFA1F 0xF888      UXTH     R8,R8            ;; ZeroExt  R8,R8,#+16,#+16
   \   00000666   0x4642             MOV      R2,R8
   \   00000668   0x.... 0x....      LDR.W    R1,??DataTable35_4
   \   0000066C   0xF8DD 0x0818      LDR      R0,[SP, #+2072]
   \   00000670   0x.... 0x....      BL       Wlt_memcpy
    740                                            Wlt_memset(packetbuffer,0,800);
   \   00000674   0xF44F 0x7248      MOV      R2,#+800
   \   00000678   0x2100             MOVS     R1,#+0
   \   0000067A   0x.... 0x....      LDR.W    R0,??DataTable35_4
   \   0000067E   0x.... 0x....      BL       Wlt_memset
    741                                            packetstartflag=0;
   \   00000682   0x2000             MOVS     R0,#+0
   \   00000684   0x.... 0x....      LDR.W    R1,??DataTable35_1
   \   00000688   0x8008             STRH     R0,[R1, #+0]
   \   0000068A   0xE01D             B.N      ??Wlt25xxGetReciveData_58
    742                                        }
    743                                        else
    744                                        {
    745                                            retdatalength=0;
   \                     ??Wlt25xxGetReciveData_62: (+1)
   \   0000068C   0x2000             MOVS     R0,#+0
   \   0000068E   0x4680             MOV      R8,R0
   \   00000690   0xE01A             B.N      ??Wlt25xxGetReciveData_58
    746                                        }
    747                                    } 
    748                                    else
    749                                    {
    750                                        retdatalength=packetdatalength;
   \                     ??Wlt25xxGetReciveData_61: (+1)
   \   00000692   0x.... 0x....      LDR.W    R0,??DataTable35_2
   \   00000696   0x8800             LDRH     R0,[R0, #+0]
   \   00000698   0x4680             MOV      R8,R0
    751                                        Wlt_memcpy(data, packetbuffer, retdatalength);
   \   0000069A   0xFA1F 0xF888      UXTH     R8,R8            ;; ZeroExt  R8,R8,#+16,#+16
   \   0000069E   0x4642             MOV      R2,R8
   \   000006A0   0x.... 0x....      LDR.W    R1,??DataTable35_4
   \   000006A4   0xF8DD 0x0818      LDR      R0,[SP, #+2072]
   \   000006A8   0x.... 0x....      BL       Wlt_memcpy
    752                                        Wlt_memset(packetbuffer,0,800);
   \   000006AC   0xF44F 0x7248      MOV      R2,#+800
   \   000006B0   0x2100             MOVS     R1,#+0
   \   000006B2   0x.... 0x....      LDR.W    R0,??DataTable35_4
   \   000006B6   0x.... 0x....      BL       Wlt_memset
    753                                        packetstartflag=0;
   \   000006BA   0x2000             MOVS     R0,#+0
   \   000006BC   0x.... 0x....      LDR.W    R1,??DataTable35_1
   \   000006C0   0x8008             STRH     R0,[R1, #+0]
   \   000006C2   0xE001             B.N      ??Wlt25xxGetReciveData_58
    754                                    }
    755                                }
    756                                else
    757                                {
    758                                    retdatalength=0;
   \                     ??Wlt25xxGetReciveData_60: (+1)
   \   000006C4   0x2000             MOVS     R0,#+0
   \   000006C6   0x4680             MOV      R8,R0
    759                                }
    760                            }
    761                            break;
   \                     ??Wlt25xxGetReciveData_58: (+1)
   \   000006C8   0xE26A             B.N      ??Wlt25xxGetReciveData_50
    762                  case BTCMD_CONNECTED:
    763                           // TB_HR_CONNECT_BE_SENDED_FLAG = 0; // v1.24-1
    764                           ble_close_flag=0;
   \                     ??Wlt25xxGetReciveData_20: (+1)
   \   000006CA   0x2000             MOVS     R0,#+0
   \   000006CC   0x.... 0x....      LDR.W    R1,??DataTable35_5
   \   000006D0   0x7008             STRB     R0,[R1, #+0]
    765                            packetdatalength=0;
   \   000006D2   0x2000             MOVS     R0,#+0
   \   000006D4   0x.... 0x....      LDR.W    R1,??DataTable35_2
   \   000006D8   0x8008             STRH     R0,[R1, #+0]
    766                            packetdataindex=0;
   \   000006DA   0x2000             MOVS     R0,#+0
   \   000006DC   0x.... 0x....      LDR.W    R1,??DataTable35_3
   \   000006E0   0x8008             STRH     R0,[R1, #+0]
    767                            packetstartflag=0;
   \   000006E2   0x2000             MOVS     R0,#+0
   \   000006E4   0x.... 0x....      LDR.W    R1,??DataTable35_1
   \   000006E8   0x8008             STRH     R0,[R1, #+0]
    768                            Wlt_memset(packetbuffer,0,800);
   \   000006EA   0xF44F 0x7248      MOV      R2,#+800
   \   000006EE   0x2100             MOVS     R1,#+0
   \   000006F0   0x.... 0x....      LDR.W    R0,??DataTable35_4
   \   000006F4   0x.... 0x....      BL       Wlt_memset
    769                            if(wlt25xxStatus.Mode)
   \   000006F8   0x.... 0x....      LDR.W    R0,??DataTable32
   \   000006FC   0x7840             LDRB     R0,[R0, #+1]
   \   000006FE   0xF010 0x0001      ANDS     R0,R0,#0x1
   \   00000702   0x2800             CMP      R0,#+0
   \   00000704   0xD008             BEQ.N    ??Wlt25xxGetReciveData_63
    770                                wlt25xxStatus.BtBeatConnect=1;
   \   00000706   0x.... 0x....      LDR.W    R0,??DataTable32
   \   0000070A   0x7880             LDRB     R0,[R0, #+2]
   \   0000070C   0xF050 0x0010      ORRS     R0,R0,#0x10
   \   00000710   0x.... 0x....      LDR.W    R1,??DataTable32
   \   00000714   0x7088             STRB     R0,[R1, #+2]
   \   00000716   0xE007             B.N      ??Wlt25xxGetReciveData_64
    771                            else
    772                                wlt25xxStatus.AppConnected=1;
   \                     ??Wlt25xxGetReciveData_63: (+1)
   \   00000718   0x.... 0x....      LDR.W    R0,??DataTable32
   \   0000071C   0x7840             LDRB     R0,[R0, #+1]
   \   0000071E   0xF050 0x0002      ORRS     R0,R0,#0x2
   \   00000722   0x.... 0x....      LDR.W    R1,??DataTable32
   \   00000726   0x7048             STRB     R0,[R1, #+1]
    773          //                  LED_Light(LED16_RF, DISPLAY_LED_ON);// v1.22-10
    774                            if(dataPosization>adposization)
   \                     ??Wlt25xxGetReciveData_64: (+1)
   \   00000728   0x0030             MOVS     R0,R6
   \   0000072A   0x0039             MOVS     R1,R7
   \   0000072C   0xB200             SXTH     R0,R0            ;; SignExt  R0,R0,#+16,#+16
   \   0000072E   0xB209             SXTH     R1,R1            ;; SignExt  R1,R1,#+16,#+16
   \   00000730   0x4288             CMP      R0,R1
   \   00000732   0xDA1A             BGE.N    ??Wlt25xxGetReciveData_65
    775                            {
    776                                Wlt_memcpy(gRecive.DeviceAddress,gRecive.buf+dataPosization,MAX_WLT_BUFFER-dataPosization);
   \   00000734   0xB23F             SXTH     R7,R7            ;; SignExt  R7,R7,#+16,#+16
   \   00000736   0xF5D7 0x6280      RSBS     R2,R7,#+1024
   \   0000073A   0x.... 0x....      LDR.W    R0,??DataTable26
   \   0000073E   0xB23F             SXTH     R7,R7            ;; SignExt  R7,R7,#+16,#+16
   \   00000740   0x4438             ADD      R0,R0,R7
   \   00000742   0xF110 0x0114      ADDS     R1,R0,#+20
   \   00000746   0x.... 0x....      LDR.W    R0,??DataTable35_6
   \   0000074A   0x.... 0x....      BL       Wlt_memcpy
    777                                Wlt_memcpy(gRecive.DeviceAddress+(MAX_WLT_BUFFER-dataPosization),gRecive.buf,adposization);
   \   0000074E   0xB236             SXTH     R6,R6            ;; SignExt  R6,R6,#+16,#+16
   \   00000750   0x0032             MOVS     R2,R6
   \   00000752   0x.... 0x....      LDR.W    R1,??DataTable31
   \   00000756   0x.... 0x....      LDR.W    R0,??DataTable26
   \   0000075A   0xB23F             SXTH     R7,R7            ;; SignExt  R7,R7,#+16,#+16
   \   0000075C   0x427B             RSBS     R3,R7,#+0
   \   0000075E   0x4418             ADD      R0,R0,R3
   \   00000760   0xF200 0x4006      ADDW     R0,R0,#+1030
   \   00000764   0x.... 0x....      BL       Wlt_memcpy
   \   00000768   0xE00A             B.N      ??Wlt25xxGetReciveData_66
    778                            }
    779                            else
    780                            {
    781                                Wlt_memcpy(gRecive.DeviceAddress,gRecive.buf+dataPosization,BLE_DEVADDRESS_LENGTH);
   \                     ??Wlt25xxGetReciveData_65: (+1)
   \   0000076A   0x220E             MOVS     R2,#+14
   \   0000076C   0x.... 0x....      LDR.W    R0,??DataTable26
   \   00000770   0xB23F             SXTH     R7,R7            ;; SignExt  R7,R7,#+16,#+16
   \   00000772   0x4438             ADD      R0,R0,R7
   \   00000774   0xF110 0x0114      ADDS     R1,R0,#+20
   \   00000778   0x.... 0x....      LDR.W    R0,??DataTable35_6
   \   0000077C   0x.... 0x....      BL       Wlt_memcpy
    782                            }
    783          				  
    784                            Wlt_memset(gRecive.buf,0,1024);
   \                     ??Wlt25xxGetReciveData_66: (+1)
   \   00000780   0xF44F 0x6280      MOV      R2,#+1024
   \   00000784   0x2100             MOVS     R1,#+0
   \   00000786   0x.... 0x....      LDR.W    R0,??DataTable31
   \   0000078A   0x.... 0x....      BL       Wlt_memset
    785                            if(wlt25xxStatus.AppConnected == 1)//v1.25-10
   \   0000078E   0x.... 0x....      LDR.W    R0,??DataTable32
   \   00000792   0x7840             LDRB     R0,[R0, #+1]
   \   00000794   0xF3C0 0x0040      UBFX     R0,R0,#+1,#+1
   \   00000798   0xB2C0             UXTB     R0,R0            ;; ZeroExt  R0,R0,#+24,#+24
   \   0000079A   0x2800             CMP      R0,#+0
   \   0000079C   0xD002             BEQ.N    ??Wlt25xxGetReciveData_67
    786                            {// APP connect will to reset console 
    787                                SetBTStatus(1);//true v1.20-10
   \   0000079E   0x2001             MOVS     R0,#+1
   \   000007A0   0x.... 0x....      BL       SetBTStatus
    788                             //   Program_Set_VirtualKey((UINT16)(VK_RESET|FRAME_STAGE_PRGRUN));// v1.20-10
    789                               // unsigned short _BU_;
    790                               // _BU_=VK_RESET;
    791                                //_BU_=_BU_ | FRAME_STAGE_PRGRUN;
    792                                //Program_Set_VirtualKey((VR_KEY)_BU_);
    793                            }
    794                            break;
   \                     ??Wlt25xxGetReciveData_67: (+1)
   \   000007A4   0xE1FC             B.N      ??Wlt25xxGetReciveData_50
    795                  case BTCMD_GET_VERSION:
    796                            btgetversionPosization=dataPosization;
   \                     ??Wlt25xxGetReciveData_21: (+1)
   \   000007A6   0x0038             MOVS     R0,R7
   \   000007A8   0xB280             UXTH     R0,R0            ;; ZeroExt  R0,R0,#+16,#+16
   \   000007AA   0xF8AD 0x0006      STRH     R0,[SP, #+6]
    797                            Wlt_memcpy(BT_Version,gRecive.buf+btgetversionPosization,13);
   \   000007AE   0x220D             MOVS     R2,#+13
   \   000007B0   0x.... 0x....      LDR.W    R0,??DataTable26
   \   000007B4   0xF8BD 0x1006      LDRH     R1,[SP, #+6]
   \   000007B8   0x4408             ADD      R0,R0,R1
   \   000007BA   0xF110 0x0114      ADDS     R1,R0,#+20
   \   000007BE   0x.... 0x....      LDR.W    R0,??DataTable35_7
   \   000007C2   0x.... 0x....      BL       Wlt_memcpy
    798                            _FTMS_StartInit_ = 1;// v2.1-8
   \   000007C6   0x2001             MOVS     R0,#+1
   \   000007C8   0x.... 0x....      LDR.W    R1,??DataTable35_8
   \   000007CC   0x7008             STRB     R0,[R1, #+0]
    799                            break;
   \   000007CE   0xE1E7             B.N      ??Wlt25xxGetReciveData_50
    800                  case BTCMD_AC:
    801                            wlt25xxStatus.AmpConnected=1;
   \                     ??Wlt25xxGetReciveData_30: (+1)
   \   000007D0   0x.... 0x....      LDR.W    R0,??DataTable32
   \   000007D4   0x7840             LDRB     R0,[R0, #+1]
   \   000007D6   0xF050 0x0020      ORRS     R0,R0,#0x20
   \   000007DA   0x.... 0x....      LDR.W    R1,??DataTable32
   \   000007DE   0x7048             STRB     R0,[R1, #+1]
    802          //                  LED_Light(LED16_RF, DISPLAY_LED_ON);// v1.22-10
    803                            break;
   \   000007E0   0xE1DE             B.N      ??Wlt25xxGetReciveData_50
    804                  case BTCMD_DISCONNECTED:
    805                            ble_close_flag=1;
   \                     ??Wlt25xxGetReciveData_22: (+1)
   \   000007E2   0x2001             MOVS     R0,#+1
   \   000007E4   0x.... 0x....      LDR.W    R1,??DataTable35_5
   \   000007E8   0x7008             STRB     R0,[R1, #+0]
    806                            BTCMD_MASTERMODE_BE_SENDED = 1;// v1.24-1
   \   000007EA   0x2001             MOVS     R0,#+1
   \   000007EC   0x.... 0x....      LDR.W    R1,??DataTable35_9
   \   000007F0   0x7008             STRB     R0,[R1, #+0]
    807                            CleargBluetoothData();
   \   000007F2   0x.... 0x....      BL       CleargBluetoothData
    808          //                  LED_Light(LED16_RF, DISPLAY_LED_OFF);// v1.22-10
    809                            wlt25xxStatus.AppConnected=0;
   \   000007F6   0x.... 0x....      LDR.W    R0,??DataTable32
   \   000007FA   0x7840             LDRB     R0,[R0, #+1]
   \   000007FC   0xF010 0x00FD      ANDS     R0,R0,#0xFD
   \   00000800   0x.... 0x....      LDR.W    R1,??DataTable32
   \   00000804   0x7048             STRB     R0,[R1, #+1]
    810                            wlt25xxStatus.BtBeatConnect=0;
   \   00000806   0x.... 0x....      LDR.W    R0,??DataTable32
   \   0000080A   0x7880             LDRB     R0,[R0, #+2]
   \   0000080C   0xF010 0x00EF      ANDS     R0,R0,#0xEF
   \   00000810   0x.... 0x....      LDR.W    R1,??DataTable32
   \   00000814   0x7088             STRB     R0,[R1, #+2]
    811                            wlt25xxStatus.HeartOk=0;
   \   00000816   0x.... 0x....      LDR.W    R0,??DataTable32
   \   0000081A   0x7840             LDRB     R0,[R0, #+1]
   \   0000081C   0xF010 0x00EF      ANDS     R0,R0,#0xEF
   \   00000820   0x.... 0x....      LDR.W    R1,??DataTable32
   \   00000824   0x7048             STRB     R0,[R1, #+1]
    812                            wlt25xxStatus.HeartData = 0;
   \   00000826   0x2000             MOVS     R0,#+0
   \   00000828   0x.... 0x....      LDR.W    R1,??DataTable32
   \   0000082C   0x7008             STRB     R0,[R1, #+0]
    813          				  ftms_control_enable = 0;
   \   0000082E   0x2000             MOVS     R0,#+0
   \   00000830   0x.... 0x....      LDR.W    R1,??DataTable35_10
   \   00000834   0x7008             STRB     R0,[R1, #+0]
    814                            if(wlt25xxStatus.Mode)
   \   00000836   0x.... 0x....      LDR.W    R0,??DataTable32
   \   0000083A   0x7840             LDRB     R0,[R0, #+1]
   \   0000083C   0xF010 0x0001      ANDS     R0,R0,#0x1
   \   00000840   0x2800             CMP      R0,#+0
   \   00000842   0xD005             BEQ.N    ??Wlt25xxGetReciveData_68
    815                            {
    816           
    817                                wlt2564SendCommand(BTCMD_CONNECTLE,BlueheartAddressLength,16);
   \   00000844   0x2210             MOVS     R2,#+16
   \   00000846   0x.... 0x....      LDR.W    R1,??DataTable35_11
   \   0000084A   0x2006             MOVS     R0,#+6
   \   0000084C   0x.... 0x....      BL       wlt2564SendCommand
    818                                
    819                              
    820                             
    821                            }
    822                            //ble_connect_type = 0;// v1.25-10
    823                            break;
   \                     ??Wlt25xxGetReciveData_68: (+1)
   \   00000850   0xE1A6             B.N      ??Wlt25xxGetReciveData_50
    824                  case BTCMD_AD:
    825                            wlt25xxStatus.AmpConnected=0;
   \                     ??Wlt25xxGetReciveData_31: (+1)
   \   00000852   0x.... 0x....      LDR.W    R0,??DataTable32
   \   00000856   0x7840             LDRB     R0,[R0, #+1]
   \   00000858   0xF010 0x00DF      ANDS     R0,R0,#0xDF
   \   0000085C   0x.... 0x....      LDR.W    R1,??DataTable32
   \   00000860   0x7048             STRB     R0,[R1, #+1]
    826          //                  LED_Light(LED16_RF, DISPLAY_LED_OFF);// v1.22-10
    827                            break;
   \   00000862   0xE19D             B.N      ??Wlt25xxGetReciveData_50
    828                  case BTCMD_SETBLENAMEFLAG:
    829                            macaddressPosization = dataPosization;
   \                     ??Wlt25xxGetReciveData_32: (+1)
   \   00000864   0x0038             MOVS     R0,R7
   \   00000866   0xB280             UXTH     R0,R0            ;; ZeroExt  R0,R0,#+16,#+16
   \   00000868   0xF8AD 0x0004      STRH     R0,[SP, #+4]
    830                            strncat((char *)BT_MacAddress,(char *)gRecive.buf+macaddressPosization,4);
   \   0000086C   0x2204             MOVS     R2,#+4
   \   0000086E   0x.... 0x....      LDR.W    R0,??DataTable26
   \   00000872   0xF8BD 0x1004      LDRH     R1,[SP, #+4]
   \   00000876   0x4408             ADD      R0,R0,R1
   \   00000878   0xF110 0x0114      ADDS     R1,R0,#+20
   \   0000087C   0x.... 0x....      LDR.W    R0,??DataTable35_12
   \   00000880   0x.... 0x....      BL       strncat
    831                            wlt25xxStatus.InitialCmdStatu = SEND_CMD_SETBLENAME_COMPLETE;  
   \   00000884   0x.... 0x....      LDR.W    R0,??DataTable32
   \   00000888   0x7880             LDRB     R0,[R0, #+2]
   \   0000088A   0xF010 0x00F0      ANDS     R0,R0,#0xF0
   \   0000088E   0xF050 0x0004      ORRS     R0,R0,#0x4
   \   00000892   0x.... 0x....      LDR.W    R1,??DataTable32
   \   00000896   0x7088             STRB     R0,[R1, #+2]
    832                            break;
   \   00000898   0xE182             B.N      ??Wlt25xxGetReciveData_50
    833                  case BTCMD_BLENAMEWRONG:
    834                            BT_SETNAME_FLAG = 1;
   \                     ??Wlt25xxGetReciveData_33: (+1)
   \   0000089A   0x2001             MOVS     R0,#+1
   \   0000089C   0x.... 0x....      LDR.W    R1,??DataTable35_13
   \   000008A0   0x8008             STRH     R0,[R1, #+0]
    835                            break;
   \   000008A2   0xE17D             B.N      ??Wlt25xxGetReciveData_50
    836                  case BTCMD_INITIAL:
    837                            wlt25xxStatus.InitialCmdStatu = SEND_CMD_INITIAL;
   \                     ??Wlt25xxGetReciveData_34: (+1)
   \   000008A4   0x.... 0x....      LDR.W    R0,??DataTable32
   \   000008A8   0x7880             LDRB     R0,[R0, #+2]
   \   000008AA   0xF010 0x00F0      ANDS     R0,R0,#0xF0
   \   000008AE   0xF050 0x0006      ORRS     R0,R0,#0x6
   \   000008B2   0x.... 0x....      LDR.W    R1,??DataTable32
   \   000008B6   0x7088             STRB     R0,[R1, #+2]
    838                            break;
   \   000008B8   0xE172             B.N      ??Wlt25xxGetReciveData_50
    839                  case BTCMD_INITIALCOMPLETE:
    840                            if(wlt25xxStatus.InitialCmdStatu == SEND_CMD_INITIAL)
   \                     ??Wlt25xxGetReciveData_35: (+1)
   \   000008BA   0x.... 0x....      LDR.W    R0,??DataTable32
   \   000008BE   0x7880             LDRB     R0,[R0, #+2]
   \   000008C0   0xF010 0x000F      ANDS     R0,R0,#0xF
   \   000008C4   0x2806             CMP      R0,#+6
   \   000008C6   0xD109             BNE.N    ??Wlt25xxGetReciveData_69
    841                            {
    842                                wlt25xxStatus.InitialCmdStatu = SEND_CMD_INITIAL_COMPLETE;
   \   000008C8   0x.... 0x....      LDR.W    R0,??DataTable32
   \   000008CC   0x7880             LDRB     R0,[R0, #+2]
   \   000008CE   0xF010 0x00F0      ANDS     R0,R0,#0xF0
   \   000008D2   0xF050 0x0001      ORRS     R0,R0,#0x1
   \   000008D6   0x.... 0x....      LDR.W    R1,??DataTable32
   \   000008DA   0x7088             STRB     R0,[R1, #+2]
    843                            }
    844                            break;
   \                     ??Wlt25xxGetReciveData_69: (+1)
   \   000008DC   0xE160             B.N      ??Wlt25xxGetReciveData_50
    845                  case BTCMD_MACADDRESS:
    846                            macaddressPosization=dataPosization;
   \                     ??Wlt25xxGetReciveData_28: (+1)
   \   000008DE   0x0038             MOVS     R0,R7
   \   000008E0   0xB280             UXTH     R0,R0            ;; ZeroExt  R0,R0,#+16,#+16
   \   000008E2   0xF8AD 0x0004      STRH     R0,[SP, #+4]
    847                            Wlt_memcpy(BT_MacAddress,gRecive.buf+macaddressPosization,12);
   \   000008E6   0x220C             MOVS     R2,#+12
   \   000008E8   0x.... 0x....      LDR.W    R0,??DataTable26
   \   000008EC   0xF8BD 0x1004      LDRH     R1,[SP, #+4]
   \   000008F0   0x4408             ADD      R0,R0,R1
   \   000008F2   0xF110 0x0114      ADDS     R1,R0,#+20
   \   000008F6   0x.... 0x....      LDR.W    R0,??DataTable35_12
   \   000008FA   0x.... 0x....      BL       Wlt_memcpy
    848                            if (Check_Array_consequent_zero(BT_MacAddress) == 2)
   \   000008FE   0x.... 0x....      LDR.W    R0,??DataTable35_12
   \   00000902   0x.... 0x....      BL       Check_Array_consequent_zero
   \   00000906   0x2802             CMP      R0,#+2
   \   00000908   0xD109             BNE.N    ??Wlt25xxGetReciveData_70
    849                            {
    850                                wlt25xxStatus.InitialCmdStatu = SEND_CMD_GETMAC_COMPLETE;
   \   0000090A   0x.... 0x....      LDR.W    R0,??DataTable32
   \   0000090E   0x7880             LDRB     R0,[R0, #+2]
   \   00000910   0xF010 0x00F0      ANDS     R0,R0,#0xF0
   \   00000914   0xF050 0x0002      ORRS     R0,R0,#0x2
   \   00000918   0x.... 0x....      LDR.W    R1,??DataTable32
   \   0000091C   0x7088             STRB     R0,[R1, #+2]
    851                            }
    852                            break;
   \                     ??Wlt25xxGetReciveData_70: (+1)
   \   0000091E   0xE13F             B.N      ??Wlt25xxGetReciveData_50
    853                  case BTCMD_GETDEALOCALNAME:
    854                            wlt25xxStatus.InitialCmdStatu = SEND_CMD_GETAMPNAME_COMPLETE;
   \                     ??Wlt25xxGetReciveData_27: (+1)
   \   00000920   0x.... 0x....      LDR.W    R0,??DataTable32
   \   00000924   0x7880             LDRB     R0,[R0, #+2]
   \   00000926   0xF010 0x00F0      ANDS     R0,R0,#0xF0
   \   0000092A   0xF050 0x0005      ORRS     R0,R0,#0x5
   \   0000092E   0x.... 0x....      LDR.W    R1,??DataTable32
   \   00000932   0x7088             STRB     R0,[R1, #+2]
    855                            break;
   \   00000934   0xE134             B.N      ??Wlt25xxGetReciveData_50
    856                  case BTCMD_GETCHANGEDLOCALNAME:
    857                            wlt25xxStatus.InitialCmdStatu = SEND_CMD_START;
   \                     ??Wlt25xxGetReciveData_26: (+1)
   \   00000936   0x.... 0x....      LDR.W    R0,??DataTable32
   \   0000093A   0x7880             LDRB     R0,[R0, #+2]
   \   0000093C   0xF010 0x00F0      ANDS     R0,R0,#0xF0
   \   00000940   0x.... 0x....      LDR.W    R1,??DataTable32
   \   00000944   0x7088             STRB     R0,[R1, #+2]
    858                            break;
   \   00000946   0xE12B             B.N      ??Wlt25xxGetReciveData_50
    859          #ifdef __BLUETOOTH_WLT2541__
    860                  case BTRECIVE_END:
    861                  {
    862                      receivePosization=dataPosization-2;
   \                     ??Wlt25xxGetReciveData_41: (+1)
   \   00000948   0x1EB8             SUBS     R0,R7,#+2
   \   0000094A   0x4683             MOV      R11,R0
    863                      UINT8 length = 0;
   \   0000094C   0x2000             MOVS     R0,#+0
   \   0000094E   0xF88D 0x0000      STRB     R0,[SP, #+0]
    864                      UINT8* pRecvData;
    865                      UINT8 ReceveData[1024] = {0};
   \   00000952   0xA806             ADD      R0,SP,#+24
   \   00000954   0xF44F 0x6180      MOV      R1,#+1024
   \   00000958   0x.... 0x....      BL       __aeabi_memclr4
    866                      if(dataPosization>adposization)
   \   0000095C   0x0030             MOVS     R0,R6
   \   0000095E   0x0039             MOVS     R1,R7
   \   00000960   0xB200             SXTH     R0,R0            ;; SignExt  R0,R0,#+16,#+16
   \   00000962   0xB209             SXTH     R1,R1            ;; SignExt  R1,R1,#+16,#+16
   \   00000964   0x4288             CMP      R0,R1
   \   00000966   0xDA1E             BGE.N    ??Wlt25xxGetReciveData_71
    867                      {        
    868                          Wlt_memcpy(ReceveData,gRecive.buf+receivePosization,MAX_WLT_BUFFER-receivePosization);
   \   00000968   0xFA1F 0xFB8B      UXTH     R11,R11          ;; ZeroExt  R11,R11,#+16,#+16
   \   0000096C   0xF5DB 0x6280      RSBS     R2,R11,#+1024
   \   00000970   0x.... 0x....      LDR.W    R0,??DataTable26
   \   00000974   0xFA1F 0xFB8B      UXTH     R11,R11          ;; ZeroExt  R11,R11,#+16,#+16
   \   00000978   0x4458             ADD      R0,R0,R11
   \   0000097A   0xF110 0x0114      ADDS     R1,R0,#+20
   \   0000097E   0xA806             ADD      R0,SP,#+24
   \   00000980   0x.... 0x....      BL       Wlt_memcpy
    869                          Wlt_memcpy(ReceveData+MAX_WLT_BUFFER-receivePosization,gRecive.buf,receivePosization);
   \   00000984   0xFA1F 0xFB8B      UXTH     R11,R11          ;; ZeroExt  R11,R11,#+16,#+16
   \   00000988   0x465A             MOV      R2,R11
   \   0000098A   0x.... 0x....      LDR.W    R1,??DataTable31
   \   0000098E   0xA806             ADD      R0,SP,#+24
   \   00000990   0xFA1F 0xFB8B      UXTH     R11,R11          ;; ZeroExt  R11,R11,#+16,#+16
   \   00000994   0xF1DB 0x0300      RSBS     R3,R11,#+0
   \   00000998   0x4418             ADD      R0,R0,R3
   \   0000099A   0xF44F 0x6380      MOV      R3,#+1024
   \   0000099E   0x4418             ADD      R0,R0,R3
   \   000009A0   0x.... 0x....      BL       Wlt_memcpy
   \   000009A4   0xE00E             B.N      ??Wlt25xxGetReciveData_72
    870                      }
    871                      else
    872                      {
    873                          Wlt_memcpy(ReceveData,gRecive.buf+receivePosization,adposization - receivePosization);
   \                     ??Wlt25xxGetReciveData_71: (+1)
   \   000009A6   0xB236             SXTH     R6,R6            ;; SignExt  R6,R6,#+16,#+16
   \   000009A8   0xFA1F 0xFB8B      UXTH     R11,R11          ;; ZeroExt  R11,R11,#+16,#+16
   \   000009AC   0xEBB6 0x020B      SUBS     R2,R6,R11
   \   000009B0   0x.... 0x....      LDR.W    R0,??DataTable26
   \   000009B4   0xFA1F 0xFB8B      UXTH     R11,R11          ;; ZeroExt  R11,R11,#+16,#+16
   \   000009B8   0x4458             ADD      R0,R0,R11
   \   000009BA   0xF110 0x0114      ADDS     R1,R0,#+20
   \   000009BE   0xA806             ADD      R0,SP,#+24
   \   000009C0   0x.... 0x....      BL       Wlt_memcpy
    874                      }
    875                      pRecvData = ReceveData;
   \                     ??Wlt25xxGetReciveData_72: (+1)
   \   000009C4   0xA806             ADD      R0,SP,#+24
   \   000009C6   0x9004             STR      R0,[SP, #+16]
    876                      
    877                      if((*(pRecvData)==0x55&&*(pRecvData+1)==0xAA)&&(packetstartflag == 0))
   \   000009C8   0x9804             LDR      R0,[SP, #+16]
   \   000009CA   0x7800             LDRB     R0,[R0, #+0]
   \   000009CC   0x2855             CMP      R0,#+85
   \   000009CE   0xD132             BNE.N    ??Wlt25xxGetReciveData_73
   \   000009D0   0x9804             LDR      R0,[SP, #+16]
   \   000009D2   0x7840             LDRB     R0,[R0, #+1]
   \   000009D4   0x28AA             CMP      R0,#+170
   \   000009D6   0xD12E             BNE.N    ??Wlt25xxGetReciveData_73
   \   000009D8   0x.... 0x....      LDR.W    R0,??DataTable35_1
   \   000009DC   0x8800             LDRH     R0,[R0, #+0]
   \   000009DE   0x2800             CMP      R0,#+0
   \   000009E0   0xD129             BNE.N    ??Wlt25xxGetReciveData_73
    878                      {
    879                          packetdatalength =(*(pRecvData+7))<<8;
   \   000009E2   0x9804             LDR      R0,[SP, #+16]
   \   000009E4   0x79C0             LDRB     R0,[R0, #+7]
   \   000009E6   0x0200             LSLS     R0,R0,#+8
   \   000009E8   0x.... 0x....      LDR.W    R1,??DataTable35_2
   \   000009EC   0x8008             STRH     R0,[R1, #+0]
    880                          packetdatalength +=*(pRecvData+6);
   \   000009EE   0x.... 0x....      LDR.W    R0,??DataTable35_2
   \   000009F2   0x8800             LDRH     R0,[R0, #+0]
   \   000009F4   0x9904             LDR      R1,[SP, #+16]
   \   000009F6   0x7989             LDRB     R1,[R1, #+6]
   \   000009F8   0x1808             ADDS     R0,R1,R0
   \   000009FA   0x.... 0x....      LDR.W    R1,??DataTable35_2
   \   000009FE   0x8008             STRH     R0,[R1, #+0]
    881                          packetdatalength += 12;
   \   00000A00   0x.... 0x....      LDR.W    R0,??DataTable35_2
   \   00000A04   0x8800             LDRH     R0,[R0, #+0]
   \   00000A06   0x300C             ADDS     R0,R0,#+12
   \   00000A08   0x.... 0x....      LDR.W    R1,??DataTable35_2
   \   00000A0C   0x8008             STRH     R0,[R1, #+0]
    882                          packetstartflag=1;
   \   00000A0E   0x2001             MOVS     R0,#+1
   \   00000A10   0x.... 0x....      LDR.W    R1,??DataTable35_1
   \   00000A14   0x8008             STRH     R0,[R1, #+0]
    883                          packetdataindex=0;
   \   00000A16   0x2000             MOVS     R0,#+0
   \   00000A18   0x.... 0x....      LDR.W    R1,??DataTable35_3
   \   00000A1C   0x8008             STRH     R0,[R1, #+0]
    884                          length = packetdatalength;
   \   00000A1E   0x.... 0x....      LDR.W    R0,??DataTable35_2
   \   00000A22   0x8800             LDRH     R0,[R0, #+0]
   \   00000A24   0xF88D 0x0000      STRB     R0,[SP, #+0]
    885                          Wlt_memset(packetbuffer,0,800);
   \   00000A28   0xF44F 0x7248      MOV      R2,#+800
   \   00000A2C   0x2100             MOVS     R1,#+0
   \   00000A2E   0x.... 0x....      LDR.W    R0,??DataTable35_4
   \   00000A32   0x.... 0x....      BL       Wlt_memset
    886                      }
    887                      if(packetstartflag==1)
   \                     ??Wlt25xxGetReciveData_73: (+1)
   \   00000A36   0x.... 0x....      LDR.W    R0,??DataTable35_1
   \   00000A3A   0x8800             LDRH     R0,[R0, #+0]
   \   00000A3C   0x2801             CMP      R0,#+1
   \   00000A3E   0xD154             BNE.N    ??Wlt25xxGetReciveData_74
    888                      {
    889                          Wlt_memcpy(packetbuffer+packetdataindex, pRecvData, length);
   \   00000A40   0xF89D 0x2000      LDRB     R2,[SP, #+0]
   \   00000A44   0x9904             LDR      R1,[SP, #+16]
   \   00000A46   0x.... 0x....      LDR.W    R0,??DataTable35_4
   \   00000A4A   0x.... 0x....      LDR.W    R3,??DataTable35_3
   \   00000A4E   0x881B             LDRH     R3,[R3, #+0]
   \   00000A50   0x4418             ADD      R0,R0,R3
   \   00000A52   0x.... 0x....      BL       Wlt_memcpy
    890                          packetdataindex+=length;
   \   00000A56   0x.... 0x....      LDR.W    R0,??DataTable35_3
   \   00000A5A   0x8800             LDRH     R0,[R0, #+0]
   \   00000A5C   0xF89D 0x1000      LDRB     R1,[SP, #+0]
   \   00000A60   0x1808             ADDS     R0,R1,R0
   \   00000A62   0x.... 0x....      LDR.W    R1,??DataTable35_3
   \   00000A66   0x8008             STRH     R0,[R1, #+0]
    891                          if(packetdatalength>packetdataindex)
   \   00000A68   0x.... 0x....      LDR.W    R0,??DataTable35_3
   \   00000A6C   0x8800             LDRH     R0,[R0, #+0]
   \   00000A6E   0x.... 0x....      LDR.W    R1,??DataTable35_2
   \   00000A72   0x8809             LDRH     R1,[R1, #+0]
   \   00000A74   0x4288             CMP      R0,R1
   \   00000A76   0xD21F             BCS.N    ??Wlt25xxGetReciveData_75
    892                          {
    893                              if(length<20)
   \   00000A78   0xF89D 0x0000      LDRB     R0,[SP, #+0]
   \   00000A7C   0x2814             CMP      R0,#+20
   \   00000A7E   0xDA18             BGE.N    ??Wlt25xxGetReciveData_76
    894                              {
    895                                  retdatalength=packetdataindex;
   \   00000A80   0x.... 0x....      LDR.W    R0,??DataTable35_3
   \   00000A84   0x8800             LDRH     R0,[R0, #+0]
   \   00000A86   0x4680             MOV      R8,R0
    896                                  Wlt_memcpy(data, packetbuffer, retdatalength);
   \   00000A88   0xFA1F 0xF888      UXTH     R8,R8            ;; ZeroExt  R8,R8,#+16,#+16
   \   00000A8C   0x4642             MOV      R2,R8
   \   00000A8E   0x.... 0x....      LDR.W    R1,??DataTable35_4
   \   00000A92   0xF8DD 0x0818      LDR      R0,[SP, #+2072]
   \   00000A96   0x.... 0x....      BL       Wlt_memcpy
    897                                  Wlt_memset(packetbuffer,0,800);
   \   00000A9A   0xF44F 0x7248      MOV      R2,#+800
   \   00000A9E   0x2100             MOVS     R1,#+0
   \   00000AA0   0x.... 0x....      LDR.W    R0,??DataTable35_4
   \   00000AA4   0x.... 0x....      BL       Wlt_memset
    898                                  packetstartflag=0;
   \   00000AA8   0x2000             MOVS     R0,#+0
   \   00000AAA   0x.... 0x....      LDR.W    R1,??DataTable35_1
   \   00000AAE   0x8008             STRH     R0,[R1, #+0]
   \   00000AB0   0xE01D             B.N      ??Wlt25xxGetReciveData_77
    899                                  
    900                              }
    901                              else
    902                              {
    903                                  retdatalength=0;
   \                     ??Wlt25xxGetReciveData_76: (+1)
   \   00000AB2   0x2000             MOVS     R0,#+0
   \   00000AB4   0x4680             MOV      R8,R0
   \   00000AB6   0xE01A             B.N      ??Wlt25xxGetReciveData_77
    904                              }
    905                              
    906                          } 
    907                          else
    908                          {
    909                              retdatalength=packetdatalength;
   \                     ??Wlt25xxGetReciveData_75: (+1)
   \   00000AB8   0x.... 0x....      LDR.W    R0,??DataTable35_2
   \   00000ABC   0x8800             LDRH     R0,[R0, #+0]
   \   00000ABE   0x4680             MOV      R8,R0
    910                              Wlt_memcpy(data, packetbuffer, retdatalength);
   \   00000AC0   0xFA1F 0xF888      UXTH     R8,R8            ;; ZeroExt  R8,R8,#+16,#+16
   \   00000AC4   0x4642             MOV      R2,R8
   \   00000AC6   0x.... 0x....      LDR.W    R1,??DataTable35_4
   \   00000ACA   0xF8DD 0x0818      LDR      R0,[SP, #+2072]
   \   00000ACE   0x.... 0x....      BL       Wlt_memcpy
    911                              Wlt_memset(packetbuffer,0,800);
   \   00000AD2   0xF44F 0x7248      MOV      R2,#+800
   \   00000AD6   0x2100             MOVS     R1,#+0
   \   00000AD8   0x.... 0x....      LDR.W    R0,??DataTable35_4
   \   00000ADC   0x.... 0x....      BL       Wlt_memset
    912                              packetstartflag=0;
   \   00000AE0   0x2000             MOVS     R0,#+0
   \   00000AE2   0x.... 0x....      LDR.W    R1,??DataTable35_1
   \   00000AE6   0x8008             STRH     R0,[R1, #+0]
   \   00000AE8   0xE001             B.N      ??Wlt25xxGetReciveData_77
    913                          }
    914                      }
    915                      else
    916                      {
    917                          retdatalength=0;
   \                     ??Wlt25xxGetReciveData_74: (+1)
   \   00000AEA   0x2000             MOVS     R0,#+0
   \   00000AEC   0x4680             MOV      R8,R0
    918                      }
    919                  }
    920                  break;
   \                     ??Wlt25xxGetReciveData_77: (+1)
   \   00000AEE   0xE057             B.N      ??Wlt25xxGetReciveData_50
    921                  case BTCMD_STARTSCANING:
    922                      wlt25xxStatus.InitialCmdStatu = SEND_CMD_STARTSCANING_COMPLETE;
   \                     ??Wlt25xxGetReciveData_36: (+1)
   \   00000AF0   0x.... 0x....      LDR.W    R0,??DataTable32
   \   00000AF4   0x7880             LDRB     R0,[R0, #+2]
   \   00000AF6   0xF010 0x00F0      ANDS     R0,R0,#0xF0
   \   00000AFA   0xF050 0x0007      ORRS     R0,R0,#0x7
   \   00000AFE   0x.... 0x....      LDR.W    R1,??DataTable32
   \   00000B02   0x7088             STRB     R0,[R1, #+2]
    923                  break;
   \   00000B04   0xE04C             B.N      ??Wlt25xxGetReciveData_50
    924          #endif
    925          		case BTCMD_GET_UPDATEINFO:	  //zsf
    926          			 {
    927          				 btUpdateInfoPosization = dataPosization;
   \                     ??Wlt25xxGetReciveData_40: (+1)
   \   00000B06   0x0038             MOVS     R0,R7
   \   00000B08   0xB280             UXTH     R0,R0            ;; ZeroExt  R0,R0,#+16,#+16
   \   00000B0A   0xF8AD 0x0008      STRH     R0,[SP, #+8]
    928          				 memcpy(BT_UpdateInfo,gRecive.buf+btUpdateInfoPosization,5);
   \   00000B0E   0x2005             MOVS     R0,#+5
   \   00000B10   0x9005             STR      R0,[SP, #+20]
   \   00000B12   0x.... 0x....      LDR.W    R0,??DataTable26
   \   00000B16   0xF8BD 0x1008      LDRH     R1,[SP, #+8]
   \   00000B1A   0x4408             ADD      R0,R0,R1
   \   00000B1C   0x3014             ADDS     R0,R0,#+20
   \   00000B1E   0x9004             STR      R0,[SP, #+16]
   \   00000B20   0x.... 0x....      LDR.W    R0,??DataTable35_14
   \   00000B24   0x9000             STR      R0,[SP, #+0]
   \   00000B26   0x9A05             LDR      R2,[SP, #+20]
   \   00000B28   0x9904             LDR      R1,[SP, #+16]
   \   00000B2A   0x9800             LDR      R0,[SP, #+0]
   \   00000B2C   0x.... 0x....      BL       __aeabi_memcpy
   \   00000B30   0x9800             LDR      R0,[SP, #+0]
    929          				 if (BT_UpdateInfo[0] == '4')
   \   00000B32   0x.... 0x....      LDR.W    R0,??DataTable35_14
   \   00000B36   0x7800             LDRB     R0,[R0, #+0]
   \   00000B38   0x2834             CMP      R0,#+52
   \   00000B3A   0xD119             BNE.N    ??Wlt25xxGetReciveData_78
    930          				 {
    931          					 if (((BT_UpdateInfo[2] == '2') && (BT_UpdateInfo[4] >= '2')) || (BT_UpdateInfo[2] > '2'))
   \   00000B3C   0x.... 0x....      LDR.W    R0,??DataTable35_14
   \   00000B40   0x7880             LDRB     R0,[R0, #+2]
   \   00000B42   0x2832             CMP      R0,#+50
   \   00000B44   0xD104             BNE.N    ??Wlt25xxGetReciveData_79
   \   00000B46   0x.... 0x....      LDR.W    R0,??DataTable35_14
   \   00000B4A   0x7900             LDRB     R0,[R0, #+4]
   \   00000B4C   0x2832             CMP      R0,#+50
   \   00000B4E   0xDA04             BGE.N    ??Wlt25xxGetReciveData_80
   \                     ??Wlt25xxGetReciveData_79: (+1)
   \   00000B50   0x.... 0x....      LDR.W    R0,??DataTable35_14
   \   00000B54   0x7880             LDRB     R0,[R0, #+2]
   \   00000B56   0x2833             CMP      R0,#+51
   \   00000B58   0xDB1E             BLT.N    ??Wlt25xxGetReciveData_81
    932          					 {
    933          						 wlt25xxStatus.UpdateCmdStatu = UPDATE_CMD_GETUPDATEINFO_COMPLETE;
   \                     ??Wlt25xxGetReciveData_80: (+1)
   \   00000B5A   0x.... 0x....      LDR.W    R0,??DataTable32
   \   00000B5E   0x7880             LDRB     R0,[R0, #+2]
   \   00000B60   0xF010 0x001F      ANDS     R0,R0,#0x1F
   \   00000B64   0xF050 0x0040      ORRS     R0,R0,#0x40
   \   00000B68   0x.... 0x....      LDR.W    R1,??DataTable32
   \   00000B6C   0x7088             STRB     R0,[R1, #+2]
   \   00000B6E   0xE013             B.N      ??Wlt25xxGetReciveData_81
    934          					 }
    935          				 }
    936          				 else if (BT_UpdateInfo[0] > '4' && BT_UpdateInfo[0] <= '9')
   \                     ??Wlt25xxGetReciveData_78: (+1)
   \   00000B70   0x.... 0x....      LDR.W    R0,??DataTable35_14
   \   00000B74   0x7800             LDRB     R0,[R0, #+0]
   \   00000B76   0x2835             CMP      R0,#+53
   \   00000B78   0xDB0E             BLT.N    ??Wlt25xxGetReciveData_81
   \   00000B7A   0x.... 0x....      LDR.W    R0,??DataTable35_14
   \   00000B7E   0x7800             LDRB     R0,[R0, #+0]
   \   00000B80   0x283A             CMP      R0,#+58
   \   00000B82   0xDA09             BGE.N    ??Wlt25xxGetReciveData_81
    937          				 {
    938          					 wlt25xxStatus.UpdateCmdStatu = UPDATE_CMD_GETUPDATEINFO_COMPLETE;
   \   00000B84   0x.... 0x....      LDR.W    R0,??DataTable32
   \   00000B88   0x7880             LDRB     R0,[R0, #+2]
   \   00000B8A   0xF010 0x001F      ANDS     R0,R0,#0x1F
   \   00000B8E   0xF050 0x0040      ORRS     R0,R0,#0x40
   \   00000B92   0x.... 0x....      LDR.W    R1,??DataTable32
   \   00000B96   0x7088             STRB     R0,[R1, #+2]
    939          				 }
    940          			 }
    941          			break;
   \                     ??Wlt25xxGetReciveData_81: (+1)
   \   00000B98   0xE002             B.N      ??Wlt25xxGetReciveData_50
    942          
    943                  case BTCMD_FTMS_CONNECTED: // v1.25-10
    944                         //   ble_connect_type = 3;
    945                            break;
   \                     ??Wlt25xxGetReciveData_37: (+1)
   \   00000B9A   0xE001             B.N      ??Wlt25xxGetReciveData_50
    946                  case BTCMD_WECHAT_CONNECTED: // v1.25-10
    947                         //   ble_connect_type = 2;
    948                            break;
   \                     ??Wlt25xxGetReciveData_38: (+1)
   \   00000B9C   0xE000             B.N      ??Wlt25xxGetReciveData_50
    949                  case BTCMD_SIMPLE_CONNECTED: // v1.25-10
    950                            if(!ble_connect_type)
    951                            {
    952                          //      ble_connect_type = 1;
    953                            }
    954                            break;
   \                     ??Wlt25xxGetReciveData_39: (+1)
   \   00000B9E   0xE7FF             B.N      ??Wlt25xxGetReciveData_50
    955                  default:
    956                            break;
    957              }
    958              if(wlt25xxStatus.Mode)
   \                     ??Wlt25xxGetReciveData_42: (+1)
   \                     ??Wlt25xxGetReciveData_50: (+1)
   \   00000BA0   0x.... 0x....      LDR.W    R0,??DataTable32
   \   00000BA4   0x7840             LDRB     R0,[R0, #+1]
   \   00000BA6   0xF010 0x0001      ANDS     R0,R0,#0x1
   \   00000BAA   0x2800             CMP      R0,#+0
   \   00000BAC   0xD04C             BEQ.N    ??Wlt25xxGetReciveData_82
    959              {
    960                  if(i == BTRECIVE_0X)
   \   00000BAE   0xFA5F 0xF989      UXTB     R9,R9            ;; ZeroExt  R9,R9,#+24,#+24
   \   00000BB2   0xF1B9 0x0F0A      CMP      R9,#+10
   \   00000BB6   0xD147             BNE.N    ??Wlt25xxGetReciveData_82
    961                  {
    962                      if(wlt25xxStatus.ReceiveSacnOk)
   \   00000BB8   0x.... 0x....      LDR.W    R0,??DataTable32
   \   00000BBC   0x7840             LDRB     R0,[R0, #+1]
   \   00000BBE   0xF3C0 0x00C0      UBFX     R0,R0,#+3,#+1
   \   00000BC2   0xB2C0             UXTB     R0,R0            ;; ZeroExt  R0,R0,#+24,#+24
   \   00000BC4   0x2800             CMP      R0,#+0
   \   00000BC6   0xD03F             BEQ.N    ??Wlt25xxGetReciveData_82
    963                      {
    964                          wlt25xxStatus.ReceiveSacnOk=false;
   \   00000BC8   0x.... 0x....      LDR.W    R0,??DataTable32
   \   00000BCC   0x7840             LDRB     R0,[R0, #+1]
   \   00000BCE   0xF010 0x00F7      ANDS     R0,R0,#0xF7
   \   00000BD2   0x.... 0x....      LDR.W    R1,??DataTable32
   \   00000BD6   0x7048             STRB     R0,[R1, #+1]
    965                          if(dataPosization>adposization)
   \   00000BD8   0x0030             MOVS     R0,R6
   \   00000BDA   0x0039             MOVS     R1,R7
   \   00000BDC   0xB200             SXTH     R0,R0            ;; SignExt  R0,R0,#+16,#+16
   \   00000BDE   0xB209             SXTH     R1,R1            ;; SignExt  R1,R1,#+16,#+16
   \   00000BE0   0x4288             CMP      R0,R1
   \   00000BE2   0xDA18             BGE.N    ??Wlt25xxGetReciveData_83
    966                          {
    967                              Wlt_memcpy(BlueheartAddressLength,gRecive.buf+dataPosization-2,MAX_WLT_BUFFER-dataPosization);
   \   00000BE4   0xB23F             SXTH     R7,R7            ;; SignExt  R7,R7,#+16,#+16
   \   00000BE6   0xF5D7 0x6280      RSBS     R2,R7,#+1024
   \   00000BEA   0x....             LDR.N    R0,??DataTable26
   \   00000BEC   0xB23F             SXTH     R7,R7            ;; SignExt  R7,R7,#+16,#+16
   \   00000BEE   0x4438             ADD      R0,R0,R7
   \   00000BF0   0xF110 0x0112      ADDS     R1,R0,#+18
   \   00000BF4   0x.... 0x....      LDR.W    R0,??DataTable35_11
   \   00000BF8   0x.... 0x....      BL       Wlt_memcpy
    968                              Wlt_memcpy(BlueheartAddressLength+(MAX_WLT_BUFFER+2-dataPosization),gRecive.buf,adposization);
   \   00000BFC   0xB236             SXTH     R6,R6            ;; SignExt  R6,R6,#+16,#+16
   \   00000BFE   0x0032             MOVS     R2,R6
   \   00000C00   0x....             LDR.N    R1,??DataTable31
   \   00000C02   0x.... 0x....      LDR.W    R0,??DataTable35_11
   \   00000C06   0xB23F             SXTH     R7,R7            ;; SignExt  R7,R7,#+16,#+16
   \   00000C08   0x427B             RSBS     R3,R7,#+0
   \   00000C0A   0x4418             ADD      R0,R0,R3
   \   00000C0C   0xF200 0x4002      ADDW     R0,R0,#+1026
   \   00000C10   0x.... 0x....      BL       Wlt_memcpy
   \   00000C14   0xE009             B.N      ??Wlt25xxGetReciveData_84
    969                          }
    970                          else
    971                          {
    972                              Wlt_memcpy(BlueheartAddressLength,gRecive.buf+dataPosization-2,16);
   \                     ??Wlt25xxGetReciveData_83: (+1)
   \   00000C16   0x2210             MOVS     R2,#+16
   \   00000C18   0x....             LDR.N    R0,??DataTable26
   \   00000C1A   0xB23F             SXTH     R7,R7            ;; SignExt  R7,R7,#+16,#+16
   \   00000C1C   0x4438             ADD      R0,R0,R7
   \   00000C1E   0xF110 0x0112      ADDS     R1,R0,#+18
   \   00000C22   0x.... 0x....      LDR.W    R0,??DataTable35_11
   \   00000C26   0x.... 0x....      BL       Wlt_memcpy
    973                          }
    974                          Wlt_memcpy(BlueheartAddressLength_backup,BlueheartAddressLength,16);
   \                     ??Wlt25xxGetReciveData_84: (+1)
   \   00000C2A   0x2210             MOVS     R2,#+16
   \   00000C2C   0x.... 0x....      LDR.W    R1,??DataTable35_11
   \   00000C30   0x....             LDR.N    R0,??DataTable20
   \   00000C32   0x.... 0x....      BL       Wlt_memcpy
    975                          TB_HR_CONNECT_BE_SENDED_FLAG = 1;
   \   00000C36   0x2001             MOVS     R0,#+1
   \   00000C38   0x....             LDR.N    R1,??DataTable19
   \   00000C3A   0x7008             STRB     R0,[R1, #+0]
    976                          // START v1.24-1
    977                          BTCMD_MASTERMODE_BE_SENDED = 0;
   \   00000C3C   0x2000             MOVS     R0,#+0
   \   00000C3E   0x.... 0x....      LDR.W    R1,??DataTable35_9
   \   00000C42   0x7008             STRB     R0,[R1, #+0]
    978                          wlt2564StopScaning();
   \   00000C44   0x.... 0x....      BL       wlt2564StopScaning
    979                          //wlt2564SendCommand(BTCMD_CONNECTLE,BlueheartAddressLength,16);
    980                          //END v1.24-1
    981                      }
    982                  }
    983              }
    984              if(adposization > gRecive.processIndex)
   \                     ??Wlt25xxGetReciveData_82: (+1)
   \   00000C48   0x....             LDR.N    R0,??DataTable26
   \   00000C4A   0x8880             LDRH     R0,[R0, #+4]
   \   00000C4C   0xB236             SXTH     R6,R6            ;; SignExt  R6,R6,#+16,#+16
   \   00000C4E   0x42B0             CMP      R0,R6
   \   00000C50   0xDA12             BGE.N    ??Wlt25xxGetReciveData_85
    985              {
    986                  Wlt_memset(gRecive.buf + gRecive.processIndex, 0, adposization - gRecive.processIndex);
   \   00000C52   0xB236             SXTH     R6,R6            ;; SignExt  R6,R6,#+16,#+16
   \   00000C54   0x....             LDR.N    R0,??DataTable26
   \   00000C56   0x8880             LDRH     R0,[R0, #+4]
   \   00000C58   0x1A32             SUBS     R2,R6,R0
   \   00000C5A   0x2100             MOVS     R1,#+0
   \   00000C5C   0x....             LDR.N    R0,??DataTable26
   \   00000C5E   0x....             LDR.N    R3,??DataTable26
   \   00000C60   0x889B             LDRH     R3,[R3, #+4]
   \   00000C62   0x4418             ADD      R0,R0,R3
   \   00000C64   0x3014             ADDS     R0,R0,#+20
   \   00000C66   0x.... 0x....      BL       Wlt_memset
    987                  retdatalength=gRecive.total-gRecive.processIndex;
   \   00000C6A   0x....             LDR.N    R0,??DataTable26
   \   00000C6C   0x8800             LDRH     R0,[R0, #+0]
   \   00000C6E   0x....             LDR.N    R1,??DataTable26
   \   00000C70   0x8889             LDRH     R1,[R1, #+4]
   \   00000C72   0x1A40             SUBS     R0,R0,R1
   \   00000C74   0x4680             MOV      R8,R0
   \   00000C76   0xE011             B.N      ??Wlt25xxGetReciveData_86
    988              }
    989              else
    990              {
    991                  Wlt_memset(gRecive.buf + gRecive.processIndex, 0, MAX_WLT_BUFFER - gRecive.processIndex);
   \                     ??Wlt25xxGetReciveData_85: (+1)
   \   00000C78   0x....             LDR.N    R0,??DataTable26
   \   00000C7A   0x8880             LDRH     R0,[R0, #+4]
   \   00000C7C   0xF5D0 0x6280      RSBS     R2,R0,#+1024
   \   00000C80   0x2100             MOVS     R1,#+0
   \   00000C82   0x....             LDR.N    R0,??DataTable26
   \   00000C84   0x....             LDR.N    R3,??DataTable26
   \   00000C86   0x889B             LDRH     R3,[R3, #+4]
   \   00000C88   0x4418             ADD      R0,R0,R3
   \   00000C8A   0x3014             ADDS     R0,R0,#+20
   \   00000C8C   0x.... 0x....      BL       Wlt_memset
    992                  Wlt_memset(gRecive.buf, 0, adposization);
   \   00000C90   0xB236             SXTH     R6,R6            ;; SignExt  R6,R6,#+16,#+16
   \   00000C92   0x0032             MOVS     R2,R6
   \   00000C94   0x2100             MOVS     R1,#+0
   \   00000C96   0x....             LDR.N    R0,??DataTable31
   \   00000C98   0x.... 0x....      BL       Wlt_memset
    993              }
    994              gRecive.processIndex=adposization;
   \                     ??Wlt25xxGetReciveData_86: (+1)
   \   00000C9C   0x....             LDR.N    R0,??DataTable26
   \   00000C9E   0x8086             STRH     R6,[R0, #+4]
    995              /*
    996              // START v1.22-2
    997              if(gRecive.processIndex == gRecive.total)
    998              {
    999                  memset(gRecive.buf, 0, sizeof(gRecive.buf));
   1000                  gRecive.total = 0;    
   1001                  gRecive.processIndex = 0; 
   1002              }
   1003              // END v1.22-2
   1004              */
   1005              return retdatalength;
   \   00000CA0   0x4640             MOV      R0,R8
   \   00000CA2   0xB280             UXTH     R0,R0            ;; ZeroExt  R0,R0,#+16,#+16
   \                     ??Wlt25xxGetReciveData_10: (+1)
   \   00000CA4   0xF50D 0x6D00      ADD      SP,SP,#+2048
   \   00000CA8   0xB007             ADD      SP,SP,#+28
   \   00000CAA   0xE8BD 0x8FF0      POP      {R4-R11,PC}      ;; return
   1006          }

   \                                 In section .bss, align 4
   \                     `Wlt25xxGetReciveData::packetbuffer`:
   \   00000000                      DS8 800

   \                                 In section .bss, align 2
   \                     `Wlt25xxGetReciveData::packetdatalength`:
   \   00000000                      DS8 2

   \                                 In section .bss, align 2
   \                     `Wlt25xxGetReciveData::packetdataindex`:
   \   00000000                      DS8 2

   \                                 In section .bss, align 2
   \                     `Wlt25xxGetReciveData::packetstartflag`:
   \   00000000                      DS8 2
   1007          
   1008          

   \                                 In section .text, align 2, keep-with-next
   1009          UINT8 wlt25xx_Get_Mode(void)
   1010          {
   1011             return wlt25xxStatus.Mode;
   \                     wlt25xx_Get_Mode: (+1)
   \   00000000   0x....             LDR.N    R0,??DataTable32
   \   00000002   0x7840             LDRB     R0,[R0, #+1]
   \   00000004   0xF010 0x0001      ANDS     R0,R0,#0x1
   \   00000008   0x4770             BX       LR               ;; return
   1012          }

   \                                 In section .text, align 2, keep-with-next
   1013          void wlt25xx_Set_Mode(unsigned char modetype)
   1014          {
   1015              wlt25xxStatus.Mode = modetype;
   \                     wlt25xx_Set_Mode: (+1)
   \   00000000   0x....             LDR.N    R1,??DataTable32
